{
	"contracts/Ptak.sol": {
		"Ptak": {
			"abi": [
				{
					"inputs": [
						{
							"internalType": "address",
							"name": "_parkContract",
							"type": "address"
						}
					],
					"stateMutability": "nonpayable",
					"type": "constructor"
				},
				{
					"inputs": [
						{
							"internalType": "uint256",
							"name": "",
							"type": "uint256"
						}
					],
					"name": "birds",
					"outputs": [
						{
							"internalType": "bool",
							"name": "exists",
							"type": "bool"
						},
						{
							"internalType": "uint256",
							"name": "age",
							"type": "uint256"
						},
						{
							"internalType": "uint256",
							"name": "hunger",
							"type": "uint256"
						},
						{
							"internalType": "uint256",
							"name": "health",
							"type": "uint256"
						},
						{
							"internalType": "enum SpeciesLibrary.Species",
							"name": "species",
							"type": "uint8"
						},
						{
							"internalType": "uint256",
							"name": "lastUpdateTime",
							"type": "uint256"
						},
						{
							"internalType": "bool",
							"name": "isDead",
							"type": "bool"
						},
						{
							"internalType": "uint256",
							"name": "deathTimestamp",
							"type": "uint256"
						}
					],
					"stateMutability": "view",
					"type": "function"
				},
				{
					"inputs": [
						{
							"internalType": "uint256",
							"name": "id",
							"type": "uint256"
						},
						{
							"internalType": "uint256",
							"name": "foodAmount",
							"type": "uint256"
						}
					],
					"name": "feedBird",
					"outputs": [],
					"stateMutability": "nonpayable",
					"type": "function"
				},
				{
					"inputs": [],
					"name": "getAliveBirdCount",
					"outputs": [
						{
							"internalType": "uint256",
							"name": "count",
							"type": "uint256"
						}
					],
					"stateMutability": "view",
					"type": "function"
				},
				{
					"inputs": [
						{
							"internalType": "enum SpeciesLibrary.Species",
							"name": "species",
							"type": "uint8"
						}
					],
					"name": "getAliveBySpecies",
					"outputs": [
						{
							"internalType": "uint256",
							"name": "count",
							"type": "uint256"
						}
					],
					"stateMutability": "view",
					"type": "function"
				},
				{
					"inputs": [
						{
							"internalType": "uint256",
							"name": "id",
							"type": "uint256"
						}
					],
					"name": "getBird",
					"outputs": [
						{
							"components": [
								{
									"internalType": "bool",
									"name": "exists",
									"type": "bool"
								},
								{
									"internalType": "uint256",
									"name": "age",
									"type": "uint256"
								},
								{
									"internalType": "uint256",
									"name": "hunger",
									"type": "uint256"
								},
								{
									"internalType": "uint256",
									"name": "health",
									"type": "uint256"
								},
								{
									"internalType": "enum SpeciesLibrary.Species",
									"name": "species",
									"type": "uint8"
								},
								{
									"internalType": "uint256",
									"name": "lastUpdateTime",
									"type": "uint256"
								},
								{
									"internalType": "bool",
									"name": "isDead",
									"type": "bool"
								},
								{
									"internalType": "uint256",
									"name": "deathTimestamp",
									"type": "uint256"
								}
							],
							"internalType": "struct Ptak.BirdData",
							"name": "",
							"type": "tuple"
						}
					],
					"stateMutability": "nonpayable",
					"type": "function"
				},
				{
					"inputs": [
						{
							"internalType": "uint256",
							"name": "birdId",
							"type": "uint256"
						}
					],
					"name": "getBirdImage",
					"outputs": [
						{
							"internalType": "string",
							"name": "",
							"type": "string"
						}
					],
					"stateMutability": "view",
					"type": "function"
				},
				{
					"inputs": [],
					"name": "getDeadBirdCount",
					"outputs": [
						{
							"internalType": "uint256",
							"name": "count",
							"type": "uint256"
						}
					],
					"stateMutability": "view",
					"type": "function"
				},
				{
					"inputs": [
						{
							"internalType": "enum SpeciesLibrary.Species",
							"name": "species",
							"type": "uint8"
						}
					],
					"name": "getDeadBySpecies",
					"outputs": [
						{
							"internalType": "uint256",
							"name": "count",
							"type": "uint256"
						}
					],
					"stateMutability": "view",
					"type": "function"
				},
				{
					"inputs": [],
					"name": "getTotalBirdCount",
					"outputs": [
						{
							"internalType": "uint256",
							"name": "",
							"type": "uint256"
						}
					],
					"stateMutability": "view",
					"type": "function"
				},
				{
					"inputs": [
						{
							"internalType": "uint256",
							"name": "birdId",
							"type": "uint256"
						}
					],
					"name": "healBird",
					"outputs": [],
					"stateMutability": "nonpayable",
					"type": "function"
				},
				{
					"inputs": [
						{
							"internalType": "uint256",
							"name": "birdId",
							"type": "uint256"
						}
					],
					"name": "insure",
					"outputs": [],
					"stateMutability": "nonpayable",
					"type": "function"
				},
				{
					"inputs": [
						{
							"internalType": "uint256",
							"name": "",
							"type": "uint256"
						}
					],
					"name": "insured",
					"outputs": [
						{
							"internalType": "bool",
							"name": "",
							"type": "bool"
						}
					],
					"stateMutability": "view",
					"type": "function"
				},
				{
					"inputs": [
						{
							"internalType": "enum SpeciesLibrary.Species",
							"name": "species",
							"type": "uint8"
						}
					],
					"name": "mintBird",
					"outputs": [
						{
							"internalType": "uint256",
							"name": "",
							"type": "uint256"
						}
					],
					"stateMutability": "nonpayable",
					"type": "function"
				},
				{
					"inputs": [],
					"name": "nextId",
					"outputs": [
						{
							"internalType": "uint256",
							"name": "",
							"type": "uint256"
						}
					],
					"stateMutability": "view",
					"type": "function"
				},
				{
					"inputs": [
						{
							"internalType": "uint256",
							"name": "",
							"type": "uint256"
						}
					],
					"name": "ownerOf",
					"outputs": [
						{
							"internalType": "address",
							"name": "",
							"type": "address"
						}
					],
					"stateMutability": "view",
					"type": "function"
				},
				{
					"inputs": [],
					"name": "parkContract",
					"outputs": [
						{
							"internalType": "address",
							"name": "",
							"type": "address"
						}
					],
					"stateMutability": "view",
					"type": "function"
				},
				{
					"inputs": [
						{
							"internalType": "uint256",
							"name": "birdId",
							"type": "uint256"
						}
					],
					"name": "revive",
					"outputs": [],
					"stateMutability": "nonpayable",
					"type": "function"
				},
				{
					"inputs": [
						{
							"internalType": "address",
							"name": "_parkContract",
							"type": "address"
						}
					],
					"name": "setParkContract",
					"outputs": [],
					"stateMutability": "nonpayable",
					"type": "function"
				},
				{
					"inputs": [
						{
							"internalType": "uint256",
							"name": "birdId",
							"type": "uint256"
						},
						{
							"internalType": "address",
							"name": "newOwner",
							"type": "address"
						}
					],
					"name": "transferBird",
					"outputs": [],
					"stateMutability": "nonpayable",
					"type": "function"
				},
				{
					"inputs": [
						{
							"internalType": "uint256",
							"name": "id",
							"type": "uint256"
						}
					],
					"name": "updateHungerAndAge",
					"outputs": [],
					"stateMutability": "nonpayable",
					"type": "function"
				}
			],
			"devdoc": {
				"kind": "dev",
				"methods": {},
				"version": 1
			},
			"evm": {
				"assembly": "    /* \"contracts/Ptak.sol\":95:6329  contract Ptak {... */\n  mstore(0x40, 0x80)\n    /* \"contracts/Ptak.sol\":757:839  constructor(address _parkContract) {... */\n  callvalue\n  dup1\n  iszero\n  tag_1\n  jumpi\n  revert(0x00, 0x00)\ntag_1:\n  pop\n  mload(0x40)\n  sub(codesize, bytecodeSize)\n  dup1\n  bytecodeSize\n  dup4\n  codecopy\n  dup2\n  dup2\n  add\n  0x40\n  mstore\n  dup2\n  add\n  swap1\n  tag_2\n  swap2\n  swap1\n  tag_3\n  jump\t// in\ntag_2:\n    /* \"contracts/Ptak.sol\":818:831  _parkContract */\n  dup1\n    /* \"contracts/Ptak.sol\":803:815  parkContract */\n  0x02\n  0x00\n    /* \"contracts/Ptak.sol\":803:831  parkContract = _parkContract */\n  0x0100\n  exp\n  dup2\n  sload\n  dup2\n  0xffffffffffffffffffffffffffffffffffffffff\n  mul\n  not\n  and\n  swap1\n  dup4\n  0xffffffffffffffffffffffffffffffffffffffff\n  and\n  mul\n  or\n  swap1\n  sstore\n  pop\n    /* \"contracts/Ptak.sol\":757:839  constructor(address _parkContract) {... */\n  pop\n    /* \"contracts/Ptak.sol\":95:6329  contract Ptak {... */\n  jump(tag_6)\n    /* \"#utility.yul\":88:205   */\ntag_8:\n    /* \"#utility.yul\":197:198   */\n  0x00\n    /* \"#utility.yul\":194:195   */\n  0x00\n    /* \"#utility.yul\":187:199   */\n  revert\n    /* \"#utility.yul\":334:460   */\ntag_10:\n    /* \"#utility.yul\":371:378   */\n  0x00\n    /* \"#utility.yul\":411:453   */\n  0xffffffffffffffffffffffffffffffffffffffff\n    /* \"#utility.yul\":404:409   */\n  dup3\n    /* \"#utility.yul\":400:454   */\n  and\n    /* \"#utility.yul\":389:454   */\n  swap1\n  pop\n    /* \"#utility.yul\":334:460   */\n  swap2\n  swap1\n  pop\n  jump\t// out\n    /* \"#utility.yul\":466:562   */\ntag_11:\n    /* \"#utility.yul\":503:510   */\n  0x00\n    /* \"#utility.yul\":532:556   */\n  tag_20\n    /* \"#utility.yul\":550:555   */\n  dup3\n    /* \"#utility.yul\":532:556   */\n  tag_10\n  jump\t// in\ntag_20:\n    /* \"#utility.yul\":521:556   */\n  swap1\n  pop\n    /* \"#utility.yul\":466:562   */\n  swap2\n  swap1\n  pop\n  jump\t// out\n    /* \"#utility.yul\":568:690   */\ntag_12:\n    /* \"#utility.yul\":641:665   */\n  tag_22\n    /* \"#utility.yul\":659:664   */\n  dup2\n    /* \"#utility.yul\":641:665   */\n  tag_11\n  jump\t// in\ntag_22:\n    /* \"#utility.yul\":634:639   */\n  dup2\n    /* \"#utility.yul\":631:666   */\n  eq\n    /* \"#utility.yul\":621:684   */\n  tag_23\n  jumpi\n    /* \"#utility.yul\":680:681   */\n  0x00\n    /* \"#utility.yul\":677:678   */\n  0x00\n    /* \"#utility.yul\":670:682   */\n  revert\n    /* \"#utility.yul\":621:684   */\ntag_23:\n    /* \"#utility.yul\":568:690   */\n  pop\n  jump\t// out\n    /* \"#utility.yul\":696:839   */\ntag_13:\n    /* \"#utility.yul\":753:758   */\n  0x00\n    /* \"#utility.yul\":784:790   */\n  dup2\n    /* \"#utility.yul\":778:791   */\n  mload\n    /* \"#utility.yul\":769:791   */\n  swap1\n  pop\n    /* \"#utility.yul\":800:833   */\n  tag_25\n    /* \"#utility.yul\":827:832   */\n  dup2\n    /* \"#utility.yul\":800:833   */\n  tag_12\n  jump\t// in\ntag_25:\n    /* \"#utility.yul\":696:839   */\n  swap3\n  swap2\n  pop\n  pop\n  jump\t// out\n    /* \"#utility.yul\":845:1196   */\ntag_3:\n    /* \"#utility.yul\":915:921   */\n  0x00\n    /* \"#utility.yul\":964:966   */\n  0x20\n    /* \"#utility.yul\":952:961   */\n  dup3\n    /* \"#utility.yul\":943:950   */\n  dup5\n    /* \"#utility.yul\":939:962   */\n  sub\n    /* \"#utility.yul\":935:967   */\n  slt\n    /* \"#utility.yul\":932:1051   */\n  iszero\n  tag_27\n  jumpi\n    /* \"#utility.yul\":970:1049   */\n  tag_28\n  tag_8\n  jump\t// in\ntag_28:\n    /* \"#utility.yul\":932:1051   */\ntag_27:\n    /* \"#utility.yul\":1090:1091   */\n  0x00\n    /* \"#utility.yul\":1115:1179   */\n  tag_29\n    /* \"#utility.yul\":1171:1178   */\n  dup5\n    /* \"#utility.yul\":1162:1168   */\n  dup3\n    /* \"#utility.yul\":1151:1160   */\n  dup6\n    /* \"#utility.yul\":1147:1169   */\n  add\n    /* \"#utility.yul\":1115:1179   */\n  tag_13\n  jump\t// in\ntag_29:\n    /* \"#utility.yul\":1105:1179   */\n  swap2\n  pop\n    /* \"#utility.yul\":1061:1189   */\n  pop\n    /* \"#utility.yul\":845:1196   */\n  swap3\n  swap2\n  pop\n  pop\n  jump\t// out\n    /* \"contracts/Ptak.sol\":95:6329  contract Ptak {... */\ntag_6:\n  dataSize(sub_0)\n  dup1\n  dataOffset(sub_0)\n  0x00\n  codecopy\n  0x00\n  return\nstop\n\nsub_0: assembly {\n        /* \"contracts/Ptak.sol\":95:6329  contract Ptak {... */\n      mstore(0x40, 0x80)\n      callvalue\n      dup1\n      iszero\n      tag_1\n      jumpi\n      revert(0x00, 0x00)\n    tag_1:\n      pop\n      jumpi(tag_2, lt(calldatasize, 0x04))\n      shr(0xe0, calldataload(0x00))\n      dup1\n      0x6ec88bbd\n      gt\n      tag_23\n      jumpi\n      dup1\n      0xa5d84618\n      gt\n      tag_24\n      jumpi\n      dup1\n      0xa5d84618\n      eq\n      tag_18\n      jumpi\n      dup1\n      0xbff998f4\n      eq\n      tag_19\n      jumpi\n      dup1\n      0xec1c5955\n      eq\n      tag_20\n      jumpi\n      dup1\n      0xf06abb80\n      eq\n      tag_21\n      jumpi\n      dup1\n      0xf64ff064\n      eq\n      tag_22\n      jumpi\n      jump(tag_2)\n    tag_24:\n      dup1\n      0x6ec88bbd\n      eq\n      tag_13\n      jumpi\n      dup1\n      0x72680a77\n      eq\n      tag_14\n      jumpi\n      dup1\n      0x8baecc21\n      eq\n      tag_15\n      jumpi\n      dup1\n      0x8c652f95\n      eq\n      tag_16\n      jumpi\n      dup1\n      0xa2b7ce6f\n      eq\n      tag_17\n      jumpi\n      jump(tag_2)\n    tag_23:\n      dup1\n      0x49b1a0bf\n      gt\n      tag_25\n      jumpi\n      dup1\n      0x49b1a0bf\n      eq\n      tag_8\n      jumpi\n      dup1\n      0x4d2d7881\n      eq\n      tag_9\n      jumpi\n      dup1\n      0x4e9c7df8\n      eq\n      tag_10\n      jumpi\n      dup1\n      0x61b8ce8c\n      eq\n      tag_11\n      jumpi\n      dup1\n      0x6352211e\n      eq\n      tag_12\n      jumpi\n      jump(tag_2)\n    tag_25:\n      dup1\n      0x16cb4a05\n      eq\n      tag_3\n      jumpi\n      dup1\n      0x1942d199\n      eq\n      tag_4\n      jumpi\n      dup1\n      0x1a3c4034\n      eq\n      tag_5\n      jumpi\n      dup1\n      0x21c0dd5a\n      eq\n      tag_6\n      jumpi\n      dup1\n      0x3127522e\n      eq\n      tag_7\n      jumpi\n    tag_2:\n      revert(0x00, 0x00)\n        /* \"contracts/Ptak.sol\":537:576  mapping(uint256 => bool) public insured */\n    tag_3:\n      tag_26\n      0x04\n      dup1\n      calldatasize\n      sub\n      dup2\n      add\n      swap1\n      tag_27\n      swap2\n      swap1\n      tag_28\n      jump\t// in\n    tag_27:\n      tag_29\n      jump\t// in\n    tag_26:\n      mload(0x40)\n      tag_30\n      swap2\n      swap1\n      tag_31\n      jump\t// in\n    tag_30:\n      mload(0x40)\n      dup1\n      swap2\n      sub\n      swap1\n      return\n        /* \"contracts/Ptak.sol\":3483:3928  function feedBird(uint256 id, uint256 foodAmount) external onlyPark {... */\n    tag_4:\n      tag_32\n      0x04\n      dup1\n      calldatasize\n      sub\n      dup2\n      add\n      swap1\n      tag_33\n      swap2\n      swap1\n      tag_34\n      jump\t// in\n    tag_33:\n      tag_35\n      jump\t// in\n    tag_32:\n      stop\n        /* \"contracts/Ptak.sol\":5219:5426  function getAliveBirdCount() external view returns (uint256 count) {... */\n    tag_5:\n      tag_36\n      tag_37\n      jump\t// in\n    tag_36:\n      mload(0x40)\n      tag_38\n      swap2\n      swap1\n      tag_39\n      jump\t// in\n    tag_38:\n      mload(0x40)\n      dup1\n      swap2\n      sub\n      swap1\n      return\n        /* \"contracts/Ptak.sol\":5730:5998  function getAliveBySpecies(SpeciesLibrary.Species species) external view returns (uint256 count) {... */\n    tag_6:\n      tag_40\n      0x04\n      dup1\n      calldatasize\n      sub\n      dup2\n      add\n      swap1\n      tag_41\n      swap2\n      swap1\n      tag_42\n      jump\t// in\n    tag_41:\n      tag_43\n      jump\t// in\n    tag_40:\n      mload(0x40)\n      tag_44\n      swap2\n      swap1\n      tag_39\n      jump\t// in\n    tag_44:\n      mload(0x40)\n      dup1\n      swap2\n      sub\n      swap1\n      return\n        /* \"contracts/Ptak.sol\":5466:5671  function getDeadBirdCount() external view returns (uint256 count) {... */\n    tag_7:\n      tag_45\n      tag_46\n      jump\t// in\n    tag_45:\n      mload(0x40)\n      tag_47\n      swap2\n      swap1\n      tag_39\n      jump\t// in\n    tag_47:\n      mload(0x40)\n      dup1\n      swap2\n      sub\n      swap1\n      return\n        /* \"contracts/Ptak.sol\":4367:4458  function insure(uint256 birdId) external onlyPark {... */\n    tag_8:\n      tag_48\n      0x04\n      dup1\n      calldatasize\n      sub\n      dup2\n      add\n      swap1\n      tag_49\n      swap2\n      swap1\n      tag_28\n      jump\t// in\n    tag_49:\n      tag_50\n      jump\t// in\n    tag_48:\n      stop\n        /* \"contracts/Ptak.sol\":847:1246  function mintBird(SpeciesLibrary.Species species) external onlyPark returns (uint) {... */\n    tag_9:\n      tag_51\n      0x04\n      dup1\n      calldatasize\n      sub\n      dup2\n      add\n      swap1\n      tag_52\n      swap2\n      swap1\n      tag_42\n      jump\t// in\n    tag_52:\n      tag_53\n      jump\t// in\n    tag_51:\n      mload(0x40)\n      tag_54\n      swap2\n      swap1\n      tag_39\n      jump\t// in\n    tag_54:\n      mload(0x40)\n      dup1\n      swap2\n      sub\n      swap1\n      return\n        /* \"contracts/Ptak.sol\":4606:4776  function setParkContract(address _parkContract) external {... */\n    tag_10:\n      tag_55\n      0x04\n      dup1\n      calldatasize\n      sub\n      dup2\n      add\n      swap1\n      tag_56\n      swap2\n      swap1\n      tag_57\n      jump\t// in\n    tag_56:\n      tag_58\n      jump\t// in\n    tag_55:\n      stop\n        /* \"contracts/Ptak.sol\":475:496  uint256 public nextId */\n    tag_11:\n      tag_59\n      tag_60\n      jump\t// in\n    tag_59:\n      mload(0x40)\n      tag_61\n      swap2\n      swap1\n      tag_39\n      jump\t// in\n    tag_61:\n      mload(0x40)\n      dup1\n      swap2\n      sub\n      swap1\n      return\n        /* \"contracts/Ptak.sol\":583:625  mapping(uint256 => address) public ownerOf */\n    tag_12:\n      tag_62\n      0x04\n      dup1\n      calldatasize\n      sub\n      dup2\n      add\n      swap1\n      tag_63\n      swap2\n      swap1\n      tag_28\n      jump\t// in\n    tag_63:\n      tag_64\n      jump\t// in\n    tag_62:\n      mload(0x40)\n      tag_65\n      swap2\n      swap1\n      tag_66\n      jump\t// in\n    tag_65:\n      mload(0x40)\n      dup1\n      swap2\n      sub\n      swap1\n      return\n        /* \"contracts/Ptak.sol\":4466:4598  function getBird(uint256 id) external returns (BirdData memory) {... */\n    tag_13:\n      tag_67\n      0x04\n      dup1\n      calldatasize\n      sub\n      dup2\n      add\n      swap1\n      tag_68\n      swap2\n      swap1\n      tag_28\n      jump\t// in\n    tag_68:\n      tag_69\n      jump\t// in\n    tag_67:\n      mload(0x40)\n      tag_70\n      swap2\n      swap1\n      tag_71\n      jump\t// in\n    tag_70:\n      mload(0x40)\n      dup1\n      swap2\n      sub\n      swap1\n      return\n        /* \"contracts/Ptak.sol\":503:530  address public parkContract */\n    tag_14:\n      tag_72\n      tag_73\n      jump\t// in\n    tag_72:\n      mload(0x40)\n      tag_74\n      swap2\n      swap1\n      tag_66\n      jump\t// in\n    tag_74:\n      mload(0x40)\n      dup1\n      swap2\n      sub\n      swap1\n      return\n        /* \"contracts/Ptak.sol\":3936:4359  function revive(uint256 birdId) external onlyPark {... */\n    tag_15:\n      tag_75\n      0x04\n      dup1\n      calldatasize\n      sub\n      dup2\n      add\n      swap1\n      tag_76\n      swap2\n      swap1\n      tag_28\n      jump\t// in\n    tag_76:\n      tag_77\n      jump\t// in\n    tag_75:\n      stop\n        /* \"contracts/Ptak.sol\":4784:5029  function transferBird(uint256 birdId, address newOwner) external onlyPark {... */\n    tag_16:\n      tag_78\n      0x04\n      dup1\n      calldatasize\n      sub\n      dup2\n      add\n      swap1\n      tag_79\n      swap2\n      swap1\n      tag_80\n      jump\t// in\n    tag_79:\n      tag_81\n      jump\t// in\n    tag_78:\n      stop\n        /* \"contracts/Ptak.sol\":1254:2389  function updateHungerAndAge(uint256 id) public {... */\n    tag_17:\n      tag_82\n      0x04\n      dup1\n      calldatasize\n      sub\n      dup2\n      add\n      swap1\n      tag_83\n      swap2\n      swap1\n      tag_28\n      jump\t// in\n    tag_83:\n      tag_84\n      jump\t// in\n    tag_82:\n      stop\n        /* \"contracts/Ptak.sol\":6058:6324  function getDeadBySpecies(SpeciesLibrary.Species species) external view returns (uint256 count) {... */\n    tag_18:\n      tag_85\n      0x04\n      dup1\n      calldatasize\n      sub\n      dup2\n      add\n      swap1\n      tag_86\n      swap2\n      swap1\n      tag_42\n      jump\t// in\n    tag_86:\n      tag_87\n      jump\t// in\n    tag_85:\n      mload(0x40)\n      tag_88\n      swap2\n      swap1\n      tag_39\n      jump\t// in\n    tag_88:\n      mload(0x40)\n      dup1\n      swap2\n      sub\n      swap1\n      return\n        /* \"contracts/Ptak.sol\":2607:2929  function healBird(uint256 birdId) external onlyPark {... */\n    tag_19:\n      tag_89\n      0x04\n      dup1\n      calldatasize\n      sub\n      dup2\n      add\n      swap1\n      tag_90\n      swap2\n      swap1\n      tag_28\n      jump\t// in\n    tag_90:\n      tag_91\n      jump\t// in\n    tag_89:\n      stop\n        /* \"contracts/Ptak.sol\":427:468  mapping(uint256 => BirdData) public birds */\n    tag_20:\n      tag_92\n      0x04\n      dup1\n      calldatasize\n      sub\n      dup2\n      add\n      swap1\n      tag_93\n      swap2\n      swap1\n      tag_28\n      jump\t// in\n    tag_93:\n      tag_94\n      jump\t// in\n    tag_92:\n      mload(0x40)\n      tag_95\n      swap9\n      swap8\n      swap7\n      swap6\n      swap5\n      swap4\n      swap3\n      swap2\n      swap1\n      tag_96\n      jump\t// in\n    tag_95:\n      mload(0x40)\n      dup1\n      swap2\n      sub\n      swap1\n      return\n        /* \"contracts/Ptak.sol\":5095:5180  function getTotalBirdCount() external view returns (uint256) {... */\n    tag_21:\n      tag_97\n      tag_98\n      jump\t// in\n    tag_97:\n      mload(0x40)\n      tag_99\n      swap2\n      swap1\n      tag_39\n      jump\t// in\n    tag_99:\n      mload(0x40)\n      dup1\n      swap2\n      sub\n      swap1\n      return\n        /* \"contracts/Ptak.sol\":2397:2599  function getBirdImage(uint256 birdId) external view returns (string memory) {... */\n    tag_22:\n      tag_100\n      0x04\n      dup1\n      calldatasize\n      sub\n      dup2\n      add\n      swap1\n      tag_101\n      swap2\n      swap1\n      tag_28\n      jump\t// in\n    tag_101:\n      tag_102\n      jump\t// in\n    tag_100:\n      mload(0x40)\n      tag_103\n      swap2\n      swap1\n      tag_104\n      jump\t// in\n    tag_103:\n      mload(0x40)\n      dup1\n      swap2\n      sub\n      swap1\n      return\n        /* \"contracts/Ptak.sol\":537:576  mapping(uint256 => bool) public insured */\n    tag_29:\n      mstore(0x20, 0x03)\n      dup1\n      0x00\n      mstore\n      keccak256(0x00, 0x40)\n      0x00\n      swap2\n      pop\n      sload\n      swap1\n      0x0100\n      exp\n      swap1\n      div\n      0xff\n      and\n      dup2\n      jump\t// out\n        /* \"contracts/Ptak.sol\":3483:3928  function feedBird(uint256 id, uint256 foodAmount) external onlyPark {... */\n    tag_35:\n        /* \"contracts/Ptak.sol\":689:701  parkContract */\n      0x02\n      0x00\n      swap1\n      sload\n      swap1\n      0x0100\n      exp\n      swap1\n      div\n      0xffffffffffffffffffffffffffffffffffffffff\n      and\n        /* \"contracts/Ptak.sol\":675:701  msg.sender == parkContract */\n      0xffffffffffffffffffffffffffffffffffffffff\n      and\n        /* \"contracts/Ptak.sol\":675:685  msg.sender */\n      caller\n        /* \"contracts/Ptak.sol\":675:701  msg.sender == parkContract */\n      0xffffffffffffffffffffffffffffffffffffffff\n      and\n      eq\n        /* \"contracts/Ptak.sol\":667:729  require(msg.sender == parkContract, \"Only Park can call this\") */\n      tag_106\n      jumpi\n      mload(0x40)\n      0x08c379a000000000000000000000000000000000000000000000000000000000\n      dup2\n      mstore\n      0x04\n      add\n      tag_107\n      swap1\n      tag_108\n      jump\t// in\n    tag_107:\n      mload(0x40)\n      dup1\n      swap2\n      sub\n      swap1\n      revert\n    tag_106:\n        /* \"contracts/Ptak.sol\":3562:3584  updateHungerAndAge(id) */\n      tag_110\n        /* \"contracts/Ptak.sol\":3581:3583  id */\n      dup3\n        /* \"contracts/Ptak.sol\":3562:3580  updateHungerAndAge */\n      tag_84\n        /* \"contracts/Ptak.sol\":3562:3584  updateHungerAndAge(id) */\n      jump\t// in\n    tag_110:\n        /* \"contracts/Ptak.sol\":3595:3616  BirdData storage bird */\n      0x00\n        /* \"contracts/Ptak.sol\":3619:3624  birds */\n      0x00\n        /* \"contracts/Ptak.sol\":3619:3628  birds[id] */\n      0x00\n        /* \"contracts/Ptak.sol\":3625:3627  id */\n      dup5\n        /* \"contracts/Ptak.sol\":3619:3628  birds[id] */\n      dup2\n      mstore\n      0x20\n      add\n      swap1\n      dup2\n      mstore\n      0x20\n      add\n      0x00\n      keccak256\n        /* \"contracts/Ptak.sol\":3595:3628  BirdData storage bird = birds[id] */\n      swap1\n      pop\n        /* \"contracts/Ptak.sol\":3639:3658  randomPoisoning(id) */\n      tag_111\n        /* \"contracts/Ptak.sol\":3655:3657  id */\n      dup4\n        /* \"contracts/Ptak.sol\":3639:3654  randomPoisoning */\n      tag_112\n        /* \"contracts/Ptak.sol\":3639:3658  randomPoisoning(id) */\n      jump\t// in\n    tag_111:\n        /* \"contracts/Ptak.sol\":3681:3685  bird */\n      dup1\n        /* \"contracts/Ptak.sol\":3681:3692  bird.exists */\n      0x00\n      add\n      0x00\n      swap1\n      sload\n      swap1\n      0x0100\n      exp\n      swap1\n      div\n      0xff\n      and\n        /* \"contracts/Ptak.sol\":3673:3720  require(bird.exists, \"That bird doesn't exist\") */\n      tag_113\n      jumpi\n      mload(0x40)\n      0x08c379a000000000000000000000000000000000000000000000000000000000\n      dup2\n      mstore\n      0x04\n      add\n      tag_114\n      swap1\n      tag_115\n      jump\t// in\n    tag_114:\n      mload(0x40)\n      dup1\n      swap2\n      sub\n      swap1\n      revert\n    tag_113:\n        /* \"contracts/Ptak.sol\":3740:3744  bird */\n      dup1\n        /* \"contracts/Ptak.sol\":3740:3751  bird.isDead */\n      0x06\n      add\n      0x00\n      swap1\n      sload\n      swap1\n      0x0100\n      exp\n      swap1\n      div\n      0xff\n      and\n        /* \"contracts/Ptak.sol\":3739:3751  !bird.isDead */\n      iszero\n        /* \"contracts/Ptak.sol\":3731:3779  require(!bird.isDead, \"Cannot feed a dead bird\") */\n      tag_116\n      jumpi\n      mload(0x40)\n      0x08c379a000000000000000000000000000000000000000000000000000000000\n      dup2\n      mstore\n      0x04\n      add\n      tag_117\n      swap1\n      tag_118\n      jump\t// in\n    tag_117:\n      mload(0x40)\n      dup1\n      swap2\n      sub\n      swap1\n      revert\n    tag_116:\n        /* \"contracts/Ptak.sol\":3810:3820  foodAmount */\n      dup2\n        /* \"contracts/Ptak.sol\":3795:3799  bird */\n      dup2\n        /* \"contracts/Ptak.sol\":3795:3806  bird.hunger */\n      0x02\n      add\n      sload\n        /* \"contracts/Ptak.sol\":3795:3820  bird.hunger >= foodAmount */\n      lt\n        /* \"contracts/Ptak.sol\":3792:3921  if(bird.hunger >= foodAmount){... */\n      tag_119\n      jumpi\n        /* \"contracts/Ptak.sol\":3851:3861  foodAmount */\n      dup2\n        /* \"contracts/Ptak.sol\":3836:3840  bird */\n      dup2\n        /* \"contracts/Ptak.sol\":3836:3847  bird.hunger */\n      0x02\n      add\n      0x00\n        /* \"contracts/Ptak.sol\":3836:3861  bird.hunger -= foodAmount */\n      dup3\n      dup3\n      sload\n      tag_120\n      swap2\n      swap1\n      tag_121\n      jump\t// in\n    tag_120:\n      swap3\n      pop\n      pop\n      dup2\n      swap1\n      sstore\n      pop\n        /* \"contracts/Ptak.sol\":3792:3921  if(bird.hunger >= foodAmount){... */\n      jump(tag_122)\n    tag_119:\n        /* \"contracts/Ptak.sol\":3908:3909  0 */\n      0x00\n        /* \"contracts/Ptak.sol\":3894:3898  bird */\n      dup2\n        /* \"contracts/Ptak.sol\":3894:3905  bird.hunger */\n      0x02\n      add\n        /* \"contracts/Ptak.sol\":3894:3909  bird.hunger = 0 */\n      dup2\n      swap1\n      sstore\n      pop\n        /* \"contracts/Ptak.sol\":3792:3921  if(bird.hunger >= foodAmount){... */\n    tag_122:\n        /* \"contracts/Ptak.sol\":3551:3928  {... */\n      pop\n        /* \"contracts/Ptak.sol\":3483:3928  function feedBird(uint256 id, uint256 foodAmount) external onlyPark {... */\n      pop\n      pop\n      jump\t// out\n        /* \"contracts/Ptak.sol\":5219:5426  function getAliveBirdCount() external view returns (uint256 count) {... */\n    tag_37:\n        /* \"contracts/Ptak.sol\":5271:5284  uint256 count */\n      0x00\n        /* \"contracts/Ptak.sol\":5298:5307  uint256 i */\n      0x00\n        /* \"contracts/Ptak.sol\":5310:5311  0 */\n      0x00\n        /* \"contracts/Ptak.sol\":5298:5311  uint256 i = 0 */\n      swap1\n      pop\n        /* \"contracts/Ptak.sol\":5293:5423  for (uint256 i = 0; i < nextId; i++) {... */\n    tag_124:\n        /* \"contracts/Ptak.sol\":5317:5323  nextId */\n      sload(0x01)\n        /* \"contracts/Ptak.sol\":5313:5314  i */\n      dup2\n        /* \"contracts/Ptak.sol\":5313:5323  i < nextId */\n      lt\n        /* \"contracts/Ptak.sol\":5293:5423  for (uint256 i = 0; i < nextId; i++) {... */\n      iszero\n      tag_125\n      jumpi\n        /* \"contracts/Ptak.sol\":5345:5350  birds */\n      0x00\n        /* \"contracts/Ptak.sol\":5345:5353  birds[i] */\n      0x00\n        /* \"contracts/Ptak.sol\":5351:5352  i */\n      dup3\n        /* \"contracts/Ptak.sol\":5345:5353  birds[i] */\n      dup2\n      mstore\n      0x20\n      add\n      swap1\n      dup2\n      mstore\n      0x20\n      add\n      0x00\n      keccak256\n        /* \"contracts/Ptak.sol\":5345:5360  birds[i].exists */\n      0x00\n      add\n      0x00\n      swap1\n      sload\n      swap1\n      0x0100\n      exp\n      swap1\n      div\n      0xff\n      and\n        /* \"contracts/Ptak.sol\":5345:5380  birds[i].exists && !birds[i].isDead */\n      dup1\n      iszero\n      tag_127\n      jumpi\n      pop\n        /* \"contracts/Ptak.sol\":5365:5370  birds */\n      0x00\n        /* \"contracts/Ptak.sol\":5365:5373  birds[i] */\n      0x00\n        /* \"contracts/Ptak.sol\":5371:5372  i */\n      dup3\n        /* \"contracts/Ptak.sol\":5365:5373  birds[i] */\n      dup2\n      mstore\n      0x20\n      add\n      swap1\n      dup2\n      mstore\n      0x20\n      add\n      0x00\n      keccak256\n        /* \"contracts/Ptak.sol\":5365:5380  birds[i].isDead */\n      0x06\n      add\n      0x00\n      swap1\n      sload\n      swap1\n      0x0100\n      exp\n      swap1\n      div\n      0xff\n      and\n        /* \"contracts/Ptak.sol\":5364:5380  !birds[i].isDead */\n      iszero\n        /* \"contracts/Ptak.sol\":5345:5380  birds[i].exists && !birds[i].isDead */\n    tag_127:\n        /* \"contracts/Ptak.sol\":5341:5416  if (birds[i].exists && !birds[i].isDead) {... */\n      iszero\n      tag_128\n      jumpi\n        /* \"contracts/Ptak.sol\":5397:5404  count++ */\n      dup2\n      dup1\n      tag_129\n      swap1\n      tag_130\n      jump\t// in\n    tag_129:\n      swap3\n      pop\n      pop\n        /* \"contracts/Ptak.sol\":5341:5416  if (birds[i].exists && !birds[i].isDead) {... */\n    tag_128:\n        /* \"contracts/Ptak.sol\":5325:5328  i++ */\n      dup1\n      dup1\n      0x01\n      add\n      swap2\n      pop\n      pop\n        /* \"contracts/Ptak.sol\":5293:5423  for (uint256 i = 0; i < nextId; i++) {... */\n      jump(tag_124)\n    tag_125:\n      pop\n        /* \"contracts/Ptak.sol\":5219:5426  function getAliveBirdCount() external view returns (uint256 count) {... */\n      swap1\n      jump\t// out\n        /* \"contracts/Ptak.sol\":5730:5998  function getAliveBySpecies(SpeciesLibrary.Species species) external view returns (uint256 count) {... */\n    tag_43:\n        /* \"contracts/Ptak.sol\":5812:5825  uint256 count */\n      0x00\n        /* \"contracts/Ptak.sol\":5839:5848  uint256 i */\n      0x00\n        /* \"contracts/Ptak.sol\":5851:5852  0 */\n      0x00\n        /* \"contracts/Ptak.sol\":5839:5852  uint256 i = 0 */\n      swap1\n      pop\n        /* \"contracts/Ptak.sol\":5834:5995  for (uint256 i = 0; i < nextId; i++) {... */\n    tag_132:\n        /* \"contracts/Ptak.sol\":5858:5864  nextId */\n      sload(0x01)\n        /* \"contracts/Ptak.sol\":5854:5855  i */\n      dup2\n        /* \"contracts/Ptak.sol\":5854:5864  i < nextId */\n      lt\n        /* \"contracts/Ptak.sol\":5834:5995  for (uint256 i = 0; i < nextId; i++) {... */\n      iszero\n      tag_133\n      jumpi\n        /* \"contracts/Ptak.sol\":5886:5891  birds */\n      0x00\n        /* \"contracts/Ptak.sol\":5886:5894  birds[i] */\n      0x00\n        /* \"contracts/Ptak.sol\":5892:5893  i */\n      dup3\n        /* \"contracts/Ptak.sol\":5886:5894  birds[i] */\n      dup2\n      mstore\n      0x20\n      add\n      swap1\n      dup2\n      mstore\n      0x20\n      add\n      0x00\n      keccak256\n        /* \"contracts/Ptak.sol\":5886:5901  birds[i].exists */\n      0x00\n      add\n      0x00\n      swap1\n      sload\n      swap1\n      0x0100\n      exp\n      swap1\n      div\n      0xff\n      and\n        /* \"contracts/Ptak.sol\":5886:5921  birds[i].exists && !birds[i].isDead */\n      dup1\n      iszero\n      tag_135\n      jumpi\n      pop\n        /* \"contracts/Ptak.sol\":5906:5911  birds */\n      0x00\n        /* \"contracts/Ptak.sol\":5906:5914  birds[i] */\n      0x00\n        /* \"contracts/Ptak.sol\":5912:5913  i */\n      dup3\n        /* \"contracts/Ptak.sol\":5906:5914  birds[i] */\n      dup2\n      mstore\n      0x20\n      add\n      swap1\n      dup2\n      mstore\n      0x20\n      add\n      0x00\n      keccak256\n        /* \"contracts/Ptak.sol\":5906:5921  birds[i].isDead */\n      0x06\n      add\n      0x00\n      swap1\n      sload\n      swap1\n      0x0100\n      exp\n      swap1\n      div\n      0xff\n      and\n        /* \"contracts/Ptak.sol\":5905:5921  !birds[i].isDead */\n      iszero\n        /* \"contracts/Ptak.sol\":5886:5921  birds[i].exists && !birds[i].isDead */\n    tag_135:\n        /* \"contracts/Ptak.sol\":5886:5952  birds[i].exists && !birds[i].isDead && birds[i].species == species */\n      dup1\n      iszero\n      tag_136\n      jumpi\n      pop\n        /* \"contracts/Ptak.sol\":5945:5952  species */\n      dup3\n        /* \"contracts/Ptak.sol\":5925:5952  birds[i].species == species */\n      0x0a\n      dup2\n      gt\n      iszero\n      tag_137\n      jumpi\n      tag_138\n      tag_139\n      jump\t// in\n    tag_138:\n    tag_137:\n        /* \"contracts/Ptak.sol\":5925:5930  birds */\n      0x00\n        /* \"contracts/Ptak.sol\":5925:5933  birds[i] */\n      0x00\n        /* \"contracts/Ptak.sol\":5931:5932  i */\n      dup4\n        /* \"contracts/Ptak.sol\":5925:5933  birds[i] */\n      dup2\n      mstore\n      0x20\n      add\n      swap1\n      dup2\n      mstore\n      0x20\n      add\n      0x00\n      keccak256\n        /* \"contracts/Ptak.sol\":5925:5941  birds[i].species */\n      0x04\n      add\n      0x00\n      swap1\n      sload\n      swap1\n      0x0100\n      exp\n      swap1\n      div\n      0xff\n      and\n        /* \"contracts/Ptak.sol\":5925:5952  birds[i].species == species */\n      0x0a\n      dup2\n      gt\n      iszero\n      tag_140\n      jumpi\n      tag_141\n      tag_139\n      jump\t// in\n    tag_141:\n    tag_140:\n      eq\n        /* \"contracts/Ptak.sol\":5886:5952  birds[i].exists && !birds[i].isDead && birds[i].species == species */\n    tag_136:\n        /* \"contracts/Ptak.sol\":5882:5988  if (birds[i].exists && !birds[i].isDead && birds[i].species == species) {... */\n      iszero\n      tag_142\n      jumpi\n        /* \"contracts/Ptak.sol\":5969:5976  count++ */\n      dup2\n      dup1\n      tag_143\n      swap1\n      tag_130\n      jump\t// in\n    tag_143:\n      swap3\n      pop\n      pop\n        /* \"contracts/Ptak.sol\":5882:5988  if (birds[i].exists && !birds[i].isDead && birds[i].species == species) {... */\n    tag_142:\n        /* \"contracts/Ptak.sol\":5866:5869  i++ */\n      dup1\n      dup1\n      0x01\n      add\n      swap2\n      pop\n      pop\n        /* \"contracts/Ptak.sol\":5834:5995  for (uint256 i = 0; i < nextId; i++) {... */\n      jump(tag_132)\n    tag_133:\n      pop\n        /* \"contracts/Ptak.sol\":5730:5998  function getAliveBySpecies(SpeciesLibrary.Species species) external view returns (uint256 count) {... */\n      swap2\n      swap1\n      pop\n      jump\t// out\n        /* \"contracts/Ptak.sol\":5466:5671  function getDeadBirdCount() external view returns (uint256 count) {... */\n    tag_46:\n        /* \"contracts/Ptak.sol\":5517:5530  uint256 count */\n      0x00\n        /* \"contracts/Ptak.sol\":5544:5553  uint256 i */\n      0x00\n        /* \"contracts/Ptak.sol\":5556:5557  0 */\n      0x00\n        /* \"contracts/Ptak.sol\":5544:5557  uint256 i = 0 */\n      swap1\n      pop\n        /* \"contracts/Ptak.sol\":5539:5668  for (uint256 i = 0; i < nextId; i++) {... */\n    tag_145:\n        /* \"contracts/Ptak.sol\":5563:5569  nextId */\n      sload(0x01)\n        /* \"contracts/Ptak.sol\":5559:5560  i */\n      dup2\n        /* \"contracts/Ptak.sol\":5559:5569  i < nextId */\n      lt\n        /* \"contracts/Ptak.sol\":5539:5668  for (uint256 i = 0; i < nextId; i++) {... */\n      iszero\n      tag_146\n      jumpi\n        /* \"contracts/Ptak.sol\":5591:5596  birds */\n      0x00\n        /* \"contracts/Ptak.sol\":5591:5599  birds[i] */\n      0x00\n        /* \"contracts/Ptak.sol\":5597:5598  i */\n      dup3\n        /* \"contracts/Ptak.sol\":5591:5599  birds[i] */\n      dup2\n      mstore\n      0x20\n      add\n      swap1\n      dup2\n      mstore\n      0x20\n      add\n      0x00\n      keccak256\n        /* \"contracts/Ptak.sol\":5591:5606  birds[i].exists */\n      0x00\n      add\n      0x00\n      swap1\n      sload\n      swap1\n      0x0100\n      exp\n      swap1\n      div\n      0xff\n      and\n        /* \"contracts/Ptak.sol\":5591:5625  birds[i].exists && birds[i].isDead */\n      dup1\n      iszero\n      tag_148\n      jumpi\n      pop\n        /* \"contracts/Ptak.sol\":5610:5615  birds */\n      0x00\n        /* \"contracts/Ptak.sol\":5610:5618  birds[i] */\n      0x00\n        /* \"contracts/Ptak.sol\":5616:5617  i */\n      dup3\n        /* \"contracts/Ptak.sol\":5610:5618  birds[i] */\n      dup2\n      mstore\n      0x20\n      add\n      swap1\n      dup2\n      mstore\n      0x20\n      add\n      0x00\n      keccak256\n        /* \"contracts/Ptak.sol\":5610:5625  birds[i].isDead */\n      0x06\n      add\n      0x00\n      swap1\n      sload\n      swap1\n      0x0100\n      exp\n      swap1\n      div\n      0xff\n      and\n        /* \"contracts/Ptak.sol\":5591:5625  birds[i].exists && birds[i].isDead */\n    tag_148:\n        /* \"contracts/Ptak.sol\":5587:5661  if (birds[i].exists && birds[i].isDead) {... */\n      iszero\n      tag_149\n      jumpi\n        /* \"contracts/Ptak.sol\":5642:5649  count++ */\n      dup2\n      dup1\n      tag_150\n      swap1\n      tag_130\n      jump\t// in\n    tag_150:\n      swap3\n      pop\n      pop\n        /* \"contracts/Ptak.sol\":5587:5661  if (birds[i].exists && birds[i].isDead) {... */\n    tag_149:\n        /* \"contracts/Ptak.sol\":5571:5574  i++ */\n      dup1\n      dup1\n      0x01\n      add\n      swap2\n      pop\n      pop\n        /* \"contracts/Ptak.sol\":5539:5668  for (uint256 i = 0; i < nextId; i++) {... */\n      jump(tag_145)\n    tag_146:\n      pop\n        /* \"contracts/Ptak.sol\":5466:5671  function getDeadBirdCount() external view returns (uint256 count) {... */\n      swap1\n      jump\t// out\n        /* \"contracts/Ptak.sol\":4367:4458  function insure(uint256 birdId) external onlyPark {... */\n    tag_50:\n        /* \"contracts/Ptak.sol\":689:701  parkContract */\n      0x02\n      0x00\n      swap1\n      sload\n      swap1\n      0x0100\n      exp\n      swap1\n      div\n      0xffffffffffffffffffffffffffffffffffffffff\n      and\n        /* \"contracts/Ptak.sol\":675:701  msg.sender == parkContract */\n      0xffffffffffffffffffffffffffffffffffffffff\n      and\n        /* \"contracts/Ptak.sol\":675:685  msg.sender */\n      caller\n        /* \"contracts/Ptak.sol\":675:701  msg.sender == parkContract */\n      0xffffffffffffffffffffffffffffffffffffffff\n      and\n      eq\n        /* \"contracts/Ptak.sol\":667:729  require(msg.sender == parkContract, \"Only Park can call this\") */\n      tag_152\n      jumpi\n      mload(0x40)\n      0x08c379a000000000000000000000000000000000000000000000000000000000\n      dup2\n      mstore\n      0x04\n      add\n      tag_153\n      swap1\n      tag_108\n      jump\t// in\n    tag_153:\n      mload(0x40)\n      dup1\n      swap2\n      sub\n      swap1\n      revert\n    tag_152:\n        /* \"contracts/Ptak.sol\":4446:4450  true */\n      0x01\n        /* \"contracts/Ptak.sol\":4428:4435  insured */\n      0x03\n        /* \"contracts/Ptak.sol\":4428:4443  insured[birdId] */\n      0x00\n        /* \"contracts/Ptak.sol\":4436:4442  birdId */\n      dup4\n        /* \"contracts/Ptak.sol\":4428:4443  insured[birdId] */\n      dup2\n      mstore\n      0x20\n      add\n      swap1\n      dup2\n      mstore\n      0x20\n      add\n      0x00\n      keccak256\n      0x00\n        /* \"contracts/Ptak.sol\":4428:4450  insured[birdId] = true */\n      0x0100\n      exp\n      dup2\n      sload\n      dup2\n      0xff\n      mul\n      not\n      and\n      swap1\n      dup4\n      iszero\n      iszero\n      mul\n      or\n      swap1\n      sstore\n      pop\n        /* \"contracts/Ptak.sol\":4367:4458  function insure(uint256 birdId) external onlyPark {... */\n      pop\n      jump\t// out\n        /* \"contracts/Ptak.sol\":847:1246  function mintBird(SpeciesLibrary.Species species) external onlyPark returns (uint) {... */\n    tag_53:\n        /* \"contracts/Ptak.sol\":924:928  uint */\n      0x00\n        /* \"contracts/Ptak.sol\":689:701  parkContract */\n      0x02\n      0x00\n      swap1\n      sload\n      swap1\n      0x0100\n      exp\n      swap1\n      div\n      0xffffffffffffffffffffffffffffffffffffffff\n      and\n        /* \"contracts/Ptak.sol\":675:701  msg.sender == parkContract */\n      0xffffffffffffffffffffffffffffffffffffffff\n      and\n        /* \"contracts/Ptak.sol\":675:685  msg.sender */\n      caller\n        /* \"contracts/Ptak.sol\":675:701  msg.sender == parkContract */\n      0xffffffffffffffffffffffffffffffffffffffff\n      and\n      eq\n        /* \"contracts/Ptak.sol\":667:729  require(msg.sender == parkContract, \"Only Park can call this\") */\n      tag_156\n      jumpi\n      mload(0x40)\n      0x08c379a000000000000000000000000000000000000000000000000000000000\n      dup2\n      mstore\n      0x04\n      add\n      tag_157\n      swap1\n      tag_108\n      jump\t// in\n    tag_157:\n      mload(0x40)\n      dup1\n      swap2\n      sub\n      swap1\n      revert\n    tag_156:\n        /* \"contracts/Ptak.sol\":941:979  SpeciesLibrary.SpeciesInfo memory info */\n      0x00\n        /* \"contracts/Ptak.sol\":982:1020  SpeciesLibrary.getSpeciesInfo(species) */\n      tag_159\n        /* \"contracts/Ptak.sol\":1012:1019  species */\n      dup4\n        /* \"contracts/Ptak.sol\":982:1011  SpeciesLibrary.getSpeciesInfo */\n      tag_160\n        /* \"contracts/Ptak.sol\":982:1020  SpeciesLibrary.getSpeciesInfo(species) */\n      jump\t// in\n    tag_159:\n        /* \"contracts/Ptak.sol\":941:1020  SpeciesLibrary.SpeciesInfo memory info = SpeciesLibrary.getSpeciesInfo(species) */\n      swap1\n      pop\n        /* \"contracts/Ptak.sol\":1047:1119  BirdData(true, 0, 0, info.maxHealth, species, block.timestamp, false, 0) */\n      mload(0x40)\n      dup1\n      0x0100\n      add\n      0x40\n      mstore\n      dup1\n        /* \"contracts/Ptak.sol\":1056:1060  true */\n      0x01\n        /* \"contracts/Ptak.sol\":1047:1119  BirdData(true, 0, 0, info.maxHealth, species, block.timestamp, false, 0) */\n      iszero\n      iszero\n      dup2\n      mstore\n      0x20\n      add\n        /* \"contracts/Ptak.sol\":1062:1063  0 */\n      0x00\n        /* \"contracts/Ptak.sol\":1047:1119  BirdData(true, 0, 0, info.maxHealth, species, block.timestamp, false, 0) */\n      dup2\n      mstore\n      0x20\n      add\n        /* \"contracts/Ptak.sol\":1065:1066  0 */\n      0x00\n        /* \"contracts/Ptak.sol\":1047:1119  BirdData(true, 0, 0, info.maxHealth, species, block.timestamp, false, 0) */\n      dup2\n      mstore\n      0x20\n      add\n        /* \"contracts/Ptak.sol\":1068:1072  info */\n      dup3\n        /* \"contracts/Ptak.sol\":1068:1082  info.maxHealth */\n      0x00\n      add\n      mload\n        /* \"contracts/Ptak.sol\":1047:1119  BirdData(true, 0, 0, info.maxHealth, species, block.timestamp, false, 0) */\n      dup2\n      mstore\n      0x20\n      add\n        /* \"contracts/Ptak.sol\":1084:1091  species */\n      dup5\n        /* \"contracts/Ptak.sol\":1047:1119  BirdData(true, 0, 0, info.maxHealth, species, block.timestamp, false, 0) */\n      0x0a\n      dup2\n      gt\n      iszero\n      tag_161\n      jumpi\n      tag_162\n      tag_139\n      jump\t// in\n    tag_162:\n    tag_161:\n      dup2\n      mstore\n      0x20\n      add\n        /* \"contracts/Ptak.sol\":1093:1108  block.timestamp */\n      timestamp\n        /* \"contracts/Ptak.sol\":1047:1119  BirdData(true, 0, 0, info.maxHealth, species, block.timestamp, false, 0) */\n      dup2\n      mstore\n      0x20\n      add\n        /* \"contracts/Ptak.sol\":1110:1115  false */\n      0x00\n        /* \"contracts/Ptak.sol\":1047:1119  BirdData(true, 0, 0, info.maxHealth, species, block.timestamp, false, 0) */\n      iszero\n      iszero\n      dup2\n      mstore\n      0x20\n      add\n        /* \"contracts/Ptak.sol\":1117:1118  0 */\n      0x00\n        /* \"contracts/Ptak.sol\":1047:1119  BirdData(true, 0, 0, info.maxHealth, species, block.timestamp, false, 0) */\n      dup2\n      mstore\n      pop\n        /* \"contracts/Ptak.sol\":1031:1036  birds */\n      0x00\n        /* \"contracts/Ptak.sol\":1031:1044  birds[nextId] */\n      0x00\n        /* \"contracts/Ptak.sol\":1037:1043  nextId */\n      sload(0x01)\n        /* \"contracts/Ptak.sol\":1031:1044  birds[nextId] */\n      dup2\n      mstore\n      0x20\n      add\n      swap1\n      dup2\n      mstore\n      0x20\n      add\n      0x00\n      keccak256\n        /* \"contracts/Ptak.sol\":1031:1119  birds[nextId] = BirdData(true, 0, 0, info.maxHealth, species, block.timestamp, false, 0) */\n      0x00\n      dup3\n      add\n      mload\n      dup2\n      0x00\n      add\n      exp(0x0100, 0x00)\n      dup2\n      sload\n      dup2\n      0xff\n      mul\n      not\n      and\n      swap1\n      dup4\n      iszero\n      iszero\n      mul\n      or\n      swap1\n      sstore\n      pop\n      0x20\n      dup3\n      add\n      mload\n      dup2\n      0x01\n      add\n      sstore\n      0x40\n      dup3\n      add\n      mload\n      dup2\n      0x02\n      add\n      sstore\n      0x60\n      dup3\n      add\n      mload\n      dup2\n      0x03\n      add\n      sstore\n      0x80\n      dup3\n      add\n      mload\n      dup2\n      0x04\n      add\n      exp(0x0100, 0x00)\n      dup2\n      sload\n      dup2\n      0xff\n      mul\n      not\n      and\n      swap1\n      dup4\n      0x0a\n      dup2\n      gt\n      iszero\n      tag_163\n      jumpi\n      tag_164\n      tag_139\n      jump\t// in\n    tag_164:\n    tag_163:\n      mul\n      or\n      swap1\n      sstore\n      pop\n      0xa0\n      dup3\n      add\n      mload\n      dup2\n      0x05\n      add\n      sstore\n      0xc0\n      dup3\n      add\n      mload\n      dup2\n      0x06\n      add\n      exp(0x0100, 0x00)\n      dup2\n      sload\n      dup2\n      0xff\n      mul\n      not\n      and\n      swap1\n      dup4\n      iszero\n      iszero\n      mul\n      or\n      swap1\n      sstore\n      pop\n      0xe0\n      dup3\n      add\n      mload\n      dup2\n      0x07\n      add\n      sstore\n      swap1\n      pop\n      pop\n        /* \"contracts/Ptak.sol\":1148:1157  tx.origin */\n      origin\n        /* \"contracts/Ptak.sol\":1130:1137  ownerOf */\n      0x04\n        /* \"contracts/Ptak.sol\":1130:1145  ownerOf[nextId] */\n      0x00\n        /* \"contracts/Ptak.sol\":1138:1144  nextId */\n      sload(0x01)\n        /* \"contracts/Ptak.sol\":1130:1145  ownerOf[nextId] */\n      dup2\n      mstore\n      0x20\n      add\n      swap1\n      dup2\n      mstore\n      0x20\n      add\n      0x00\n      keccak256\n      0x00\n        /* \"contracts/Ptak.sol\":1130:1157  ownerOf[nextId] = tx.origin */\n      0x0100\n      exp\n      dup2\n      sload\n      dup2\n      0xffffffffffffffffffffffffffffffffffffffff\n      mul\n      not\n      and\n      swap1\n      dup4\n      0xffffffffffffffffffffffffffffffffffffffff\n      and\n      mul\n      or\n      swap1\n      sstore\n      pop\n        /* \"contracts/Ptak.sol\":1168:1184  uint256 mintedId */\n      0x00\n        /* \"contracts/Ptak.sol\":1187:1193  nextId */\n      sload(0x01)\n        /* \"contracts/Ptak.sol\":1168:1193  uint256 mintedId = nextId */\n      swap1\n      pop\n        /* \"contracts/Ptak.sol\":1204:1210  nextId */\n      0x01\n      0x00\n        /* \"contracts/Ptak.sol\":1204:1212  nextId++ */\n      dup2\n      sload\n      dup1\n      swap3\n      swap2\n      swap1\n      tag_165\n      swap1\n      tag_130\n      jump\t// in\n    tag_165:\n      swap2\n      swap1\n      pop\n      sstore\n      pop\n        /* \"contracts/Ptak.sol\":1230:1238  mintedId */\n      dup1\n        /* \"contracts/Ptak.sol\":1223:1238  return mintedId */\n      swap3\n      pop\n      pop\n      pop\n        /* \"contracts/Ptak.sol\":847:1246  function mintBird(SpeciesLibrary.Species species) external onlyPark returns (uint) {... */\n      swap2\n      swap1\n      pop\n      jump\t// out\n        /* \"contracts/Ptak.sol\":4606:4776  function setParkContract(address _parkContract) external {... */\n    tag_58:\n        /* \"contracts/Ptak.sol\":4706:4707  0 */\n      0x00\n        /* \"contracts/Ptak.sol\":4682:4708  parkContract == address(0) */\n      0xffffffffffffffffffffffffffffffffffffffff\n      and\n        /* \"contracts/Ptak.sol\":4682:4694  parkContract */\n      0x02\n      0x00\n      swap1\n      sload\n      swap1\n      0x0100\n      exp\n      swap1\n      div\n      0xffffffffffffffffffffffffffffffffffffffff\n      and\n        /* \"contracts/Ptak.sol\":4682:4708  parkContract == address(0) */\n      0xffffffffffffffffffffffffffffffffffffffff\n      and\n      eq\n        /* \"contracts/Ptak.sol\":4674:4729  require(parkContract == address(0), \"Park already set\") */\n      tag_167\n      jumpi\n      mload(0x40)\n      0x08c379a000000000000000000000000000000000000000000000000000000000\n      dup2\n      mstore\n      0x04\n      add\n      tag_168\n      swap1\n      tag_169\n      jump\t// in\n    tag_168:\n      mload(0x40)\n      dup1\n      swap2\n      sub\n      swap1\n      revert\n    tag_167:\n        /* \"contracts/Ptak.sol\":4755:4768  _parkContract */\n      dup1\n        /* \"contracts/Ptak.sol\":4740:4752  parkContract */\n      0x02\n      0x00\n        /* \"contracts/Ptak.sol\":4740:4768  parkContract = _parkContract */\n      0x0100\n      exp\n      dup2\n      sload\n      dup2\n      0xffffffffffffffffffffffffffffffffffffffff\n      mul\n      not\n      and\n      swap1\n      dup4\n      0xffffffffffffffffffffffffffffffffffffffff\n      and\n      mul\n      or\n      swap1\n      sstore\n      pop\n        /* \"contracts/Ptak.sol\":4606:4776  function setParkContract(address _parkContract) external {... */\n      pop\n      jump\t// out\n        /* \"contracts/Ptak.sol\":475:496  uint256 public nextId */\n    tag_60:\n      sload(0x01)\n      dup2\n      jump\t// out\n        /* \"contracts/Ptak.sol\":583:625  mapping(uint256 => address) public ownerOf */\n    tag_64:\n      mstore(0x20, 0x04)\n      dup1\n      0x00\n      mstore\n      keccak256(0x00, 0x40)\n      0x00\n      swap2\n      pop\n      sload\n      swap1\n      0x0100\n      exp\n      swap1\n      div\n      0xffffffffffffffffffffffffffffffffffffffff\n      and\n      dup2\n      jump\t// out\n        /* \"contracts/Ptak.sol\":4466:4598  function getBird(uint256 id) external returns (BirdData memory) {... */\n    tag_69:\n        /* \"contracts/Ptak.sol\":4513:4528  BirdData memory */\n      tag_170\n      tag_171\n      jump\t// in\n    tag_170:\n        /* \"contracts/Ptak.sol\":4541:4563  updateHungerAndAge(id) */\n      tag_173\n        /* \"contracts/Ptak.sol\":4560:4562  id */\n      dup3\n        /* \"contracts/Ptak.sol\":4541:4559  updateHungerAndAge */\n      tag_84\n        /* \"contracts/Ptak.sol\":4541:4563  updateHungerAndAge(id) */\n      jump\t// in\n    tag_173:\n        /* \"contracts/Ptak.sol\":4581:4586  birds */\n      0x00\n        /* \"contracts/Ptak.sol\":4581:4590  birds[id] */\n      0x00\n        /* \"contracts/Ptak.sol\":4587:4589  id */\n      dup4\n        /* \"contracts/Ptak.sol\":4581:4590  birds[id] */\n      dup2\n      mstore\n      0x20\n      add\n      swap1\n      dup2\n      mstore\n      0x20\n      add\n      0x00\n      keccak256\n        /* \"contracts/Ptak.sol\":4574:4590  return birds[id] */\n      mload(0x40)\n      dup1\n      0x0100\n      add\n      0x40\n      mstore\n      swap1\n      dup2\n      0x00\n      dup3\n      add\n      0x00\n      swap1\n      sload\n      swap1\n      0x0100\n      exp\n      swap1\n      div\n      0xff\n      and\n      iszero\n      iszero\n      iszero\n      iszero\n      dup2\n      mstore\n      0x20\n      add\n      0x01\n      dup3\n      add\n      sload\n      dup2\n      mstore\n      0x20\n      add\n      0x02\n      dup3\n      add\n      sload\n      dup2\n      mstore\n      0x20\n      add\n      0x03\n      dup3\n      add\n      sload\n      dup2\n      mstore\n      0x20\n      add\n      0x04\n      dup3\n      add\n      0x00\n      swap1\n      sload\n      swap1\n      0x0100\n      exp\n      swap1\n      div\n      0xff\n      and\n      0x0a\n      dup2\n      gt\n      iszero\n      tag_174\n      jumpi\n      tag_175\n      tag_139\n      jump\t// in\n    tag_175:\n    tag_174:\n      0x0a\n      dup2\n      gt\n      iszero\n      tag_176\n      jumpi\n      tag_177\n      tag_139\n      jump\t// in\n    tag_177:\n    tag_176:\n      dup2\n      mstore\n      0x20\n      add\n      0x05\n      dup3\n      add\n      sload\n      dup2\n      mstore\n      0x20\n      add\n      0x06\n      dup3\n      add\n      0x00\n      swap1\n      sload\n      swap1\n      0x0100\n      exp\n      swap1\n      div\n      0xff\n      and\n      iszero\n      iszero\n      iszero\n      iszero\n      dup2\n      mstore\n      0x20\n      add\n      0x07\n      dup3\n      add\n      sload\n      dup2\n      mstore\n      pop\n      pop\n      swap1\n      pop\n        /* \"contracts/Ptak.sol\":4466:4598  function getBird(uint256 id) external returns (BirdData memory) {... */\n      swap2\n      swap1\n      pop\n      jump\t// out\n        /* \"contracts/Ptak.sol\":503:530  address public parkContract */\n    tag_73:\n      0x02\n      0x00\n      swap1\n      sload\n      swap1\n      0x0100\n      exp\n      swap1\n      div\n      0xffffffffffffffffffffffffffffffffffffffff\n      and\n      dup2\n      jump\t// out\n        /* \"contracts/Ptak.sol\":3936:4359  function revive(uint256 birdId) external onlyPark {... */\n    tag_77:\n        /* \"contracts/Ptak.sol\":689:701  parkContract */\n      0x02\n      0x00\n      swap1\n      sload\n      swap1\n      0x0100\n      exp\n      swap1\n      div\n      0xffffffffffffffffffffffffffffffffffffffff\n      and\n        /* \"contracts/Ptak.sol\":675:701  msg.sender == parkContract */\n      0xffffffffffffffffffffffffffffffffffffffff\n      and\n        /* \"contracts/Ptak.sol\":675:685  msg.sender */\n      caller\n        /* \"contracts/Ptak.sol\":675:701  msg.sender == parkContract */\n      0xffffffffffffffffffffffffffffffffffffffff\n      and\n      eq\n        /* \"contracts/Ptak.sol\":667:729  require(msg.sender == parkContract, \"Only Park can call this\") */\n      tag_179\n      jumpi\n      mload(0x40)\n      0x08c379a000000000000000000000000000000000000000000000000000000000\n      dup2\n      mstore\n      0x04\n      add\n      tag_180\n      swap1\n      tag_108\n      jump\t// in\n    tag_180:\n      mload(0x40)\n      dup1\n      swap2\n      sub\n      swap1\n      revert\n    tag_179:\n        /* \"contracts/Ptak.sol\":3997:4018  BirdData storage bird */\n      0x00\n        /* \"contracts/Ptak.sol\":4021:4026  birds */\n      0x00\n        /* \"contracts/Ptak.sol\":4021:4034  birds[birdId] */\n      0x00\n        /* \"contracts/Ptak.sol\":4027:4033  birdId */\n      dup4\n        /* \"contracts/Ptak.sol\":4021:4034  birds[birdId] */\n      dup2\n      mstore\n      0x20\n      add\n      swap1\n      dup2\n      mstore\n      0x20\n      add\n      0x00\n      keccak256\n        /* \"contracts/Ptak.sol\":3997:4034  BirdData storage bird = birds[birdId] */\n      swap1\n      pop\n        /* \"contracts/Ptak.sol\":4053:4057  bird */\n      dup1\n        /* \"contracts/Ptak.sol\":4053:4064  bird.exists */\n      0x00\n      add\n      0x00\n      swap1\n      sload\n      swap1\n      0x0100\n      exp\n      swap1\n      div\n      0xff\n      and\n        /* \"contracts/Ptak.sol\":4045:4092  require(bird.exists, \"That bird doesn't exist\") */\n      tag_182\n      jumpi\n      mload(0x40)\n      0x08c379a000000000000000000000000000000000000000000000000000000000\n      dup2\n      mstore\n      0x04\n      add\n      tag_183\n      swap1\n      tag_115\n      jump\t// in\n    tag_183:\n      mload(0x40)\n      dup1\n      swap2\n      sub\n      swap1\n      revert\n    tag_182:\n        /* \"contracts/Ptak.sol\":4111:4115  bird */\n      dup1\n        /* \"contracts/Ptak.sol\":4111:4122  bird.isDead */\n      0x06\n      add\n      0x00\n      swap1\n      sload\n      swap1\n      0x0100\n      exp\n      swap1\n      div\n      0xff\n      and\n        /* \"contracts/Ptak.sol\":4103:4135  require(bird.isDead, \"Not dead\") */\n      tag_184\n      jumpi\n      mload(0x40)\n      0x08c379a000000000000000000000000000000000000000000000000000000000\n      dup2\n      mstore\n      0x04\n      add\n      tag_185\n      swap1\n      tag_186\n      jump\t// in\n    tag_185:\n      mload(0x40)\n      dup1\n      swap2\n      sub\n      swap1\n      revert\n    tag_184:\n        /* \"contracts/Ptak.sol\":4160:4203  SpeciesLibrary.getSpeciesInfo(bird.species) */\n      tag_187\n        /* \"contracts/Ptak.sol\":4190:4194  bird */\n      dup2\n        /* \"contracts/Ptak.sol\":4190:4202  bird.species */\n      0x04\n      add\n      0x00\n      swap1\n      sload\n      swap1\n      0x0100\n      exp\n      swap1\n      div\n      0xff\n      and\n        /* \"contracts/Ptak.sol\":4160:4189  SpeciesLibrary.getSpeciesInfo */\n      tag_160\n        /* \"contracts/Ptak.sol\":4160:4203  SpeciesLibrary.getSpeciesInfo(bird.species) */\n      jump\t// in\n    tag_187:\n        /* \"contracts/Ptak.sol\":4160:4213  SpeciesLibrary.getSpeciesInfo(bird.species).maxHealth */\n      0x00\n      add\n      mload\n        /* \"contracts/Ptak.sol\":4146:4150  bird */\n      dup2\n        /* \"contracts/Ptak.sol\":4146:4157  bird.health */\n      0x03\n      add\n        /* \"contracts/Ptak.sol\":4146:4213  bird.health = SpeciesLibrary.getSpeciesInfo(bird.species).maxHealth */\n      dup2\n      swap1\n      sstore\n      pop\n        /* \"contracts/Ptak.sol\":4238:4239  0 */\n      0x00\n        /* \"contracts/Ptak.sol\":4224:4228  bird */\n      dup2\n        /* \"contracts/Ptak.sol\":4224:4235  bird.hunger */\n      0x02\n      add\n        /* \"contracts/Ptak.sol\":4224:4239  bird.hunger = 0 */\n      dup2\n      swap1\n      sstore\n      pop\n        /* \"contracts/Ptak.sol\":4264:4269  false */\n      0x00\n        /* \"contracts/Ptak.sol\":4250:4254  bird */\n      dup2\n        /* \"contracts/Ptak.sol\":4250:4261  bird.isDead */\n      0x06\n      add\n      0x00\n        /* \"contracts/Ptak.sol\":4250:4269  bird.isDead = false */\n      0x0100\n      exp\n      dup2\n      sload\n      dup2\n      0xff\n      mul\n      not\n      and\n      swap1\n      dup4\n      iszero\n      iszero\n      mul\n      or\n      swap1\n      sstore\n      pop\n        /* \"contracts/Ptak.sol\":4302:4303  0 */\n      0x00\n        /* \"contracts/Ptak.sol\":4280:4284  bird */\n      dup2\n        /* \"contracts/Ptak.sol\":4280:4299  bird.deathTimestamp */\n      0x07\n      add\n        /* \"contracts/Ptak.sol\":4280:4303  bird.deathTimestamp = 0 */\n      dup2\n      swap1\n      sstore\n      pop\n        /* \"contracts/Ptak.sol\":4336:4351  block.timestamp */\n      timestamp\n        /* \"contracts/Ptak.sol\":4314:4318  bird */\n      dup2\n        /* \"contracts/Ptak.sol\":4314:4333  bird.lastUpdateTime */\n      0x05\n      add\n        /* \"contracts/Ptak.sol\":4314:4351  bird.lastUpdateTime = block.timestamp */\n      dup2\n      swap1\n      sstore\n      pop\n        /* \"contracts/Ptak.sol\":3986:4359  {... */\n      pop\n        /* \"contracts/Ptak.sol\":3936:4359  function revive(uint256 birdId) external onlyPark {... */\n      pop\n      jump\t// out\n        /* \"contracts/Ptak.sol\":4784:5029  function transferBird(uint256 birdId, address newOwner) external onlyPark {... */\n    tag_81:\n        /* \"contracts/Ptak.sol\":689:701  parkContract */\n      0x02\n      0x00\n      swap1\n      sload\n      swap1\n      0x0100\n      exp\n      swap1\n      div\n      0xffffffffffffffffffffffffffffffffffffffff\n      and\n        /* \"contracts/Ptak.sol\":675:701  msg.sender == parkContract */\n      0xffffffffffffffffffffffffffffffffffffffff\n      and\n        /* \"contracts/Ptak.sol\":675:685  msg.sender */\n      caller\n        /* \"contracts/Ptak.sol\":675:701  msg.sender == parkContract */\n      0xffffffffffffffffffffffffffffffffffffffff\n      and\n      eq\n        /* \"contracts/Ptak.sol\":667:729  require(msg.sender == parkContract, \"Only Park can call this\") */\n      tag_189\n      jumpi\n      mload(0x40)\n      0x08c379a000000000000000000000000000000000000000000000000000000000\n      dup2\n      mstore\n      0x04\n      add\n      tag_190\n      swap1\n      tag_108\n      jump\t// in\n    tag_190:\n      mload(0x40)\n      dup1\n      swap2\n      sub\n      swap1\n      revert\n    tag_189:\n        /* \"contracts/Ptak.sol\":4896:4905  tx.origin */\n      origin\n        /* \"contracts/Ptak.sol\":4877:4905  ownerOf[birdId] == tx.origin */\n      0xffffffffffffffffffffffffffffffffffffffff\n      and\n        /* \"contracts/Ptak.sol\":4877:4884  ownerOf */\n      0x04\n        /* \"contracts/Ptak.sol\":4877:4892  ownerOf[birdId] */\n      0x00\n        /* \"contracts/Ptak.sol\":4885:4891  birdId */\n      dup5\n        /* \"contracts/Ptak.sol\":4877:4892  ownerOf[birdId] */\n      dup2\n      mstore\n      0x20\n      add\n      swap1\n      dup2\n      mstore\n      0x20\n      add\n      0x00\n      keccak256\n      0x00\n      swap1\n      sload\n      swap1\n      0x0100\n      exp\n      swap1\n      div\n      0xffffffffffffffffffffffffffffffffffffffff\n      and\n        /* \"contracts/Ptak.sol\":4877:4905  ownerOf[birdId] == tx.origin */\n      0xffffffffffffffffffffffffffffffffffffffff\n      and\n      eq\n        /* \"contracts/Ptak.sol\":4869:4923  require(ownerOf[birdId] == tx.origin, \"Not the owner\") */\n      tag_192\n      jumpi\n      mload(0x40)\n      0x08c379a000000000000000000000000000000000000000000000000000000000\n      dup2\n      mstore\n      0x04\n      add\n      tag_193\n      swap1\n      tag_194\n      jump\t// in\n    tag_193:\n      mload(0x40)\n      dup1\n      swap2\n      sub\n      swap1\n      revert\n    tag_192:\n        /* \"contracts/Ptak.sol\":4962:4963  0 */\n      0x00\n        /* \"contracts/Ptak.sol\":4942:4964  newOwner != address(0) */\n      0xffffffffffffffffffffffffffffffffffffffff\n      and\n        /* \"contracts/Ptak.sol\":4942:4950  newOwner */\n      dup2\n        /* \"contracts/Ptak.sol\":4942:4964  newOwner != address(0) */\n      0xffffffffffffffffffffffffffffffffffffffff\n      and\n      sub\n        /* \"contracts/Ptak.sol\":4934:4984  require(newOwner != address(0), \"Invalid address\") */\n      tag_195\n      jumpi\n      mload(0x40)\n      0x08c379a000000000000000000000000000000000000000000000000000000000\n      dup2\n      mstore\n      0x04\n      add\n      tag_196\n      swap1\n      tag_197\n      jump\t// in\n    tag_196:\n      mload(0x40)\n      dup1\n      swap2\n      sub\n      swap1\n      revert\n    tag_195:\n        /* \"contracts/Ptak.sol\":5013:5021  newOwner */\n      dup1\n        /* \"contracts/Ptak.sol\":4995:5002  ownerOf */\n      0x04\n        /* \"contracts/Ptak.sol\":4995:5010  ownerOf[birdId] */\n      0x00\n        /* \"contracts/Ptak.sol\":5003:5009  birdId */\n      dup5\n        /* \"contracts/Ptak.sol\":4995:5010  ownerOf[birdId] */\n      dup2\n      mstore\n      0x20\n      add\n      swap1\n      dup2\n      mstore\n      0x20\n      add\n      0x00\n      keccak256\n      0x00\n        /* \"contracts/Ptak.sol\":4995:5021  ownerOf[birdId] = newOwner */\n      0x0100\n      exp\n      dup2\n      sload\n      dup2\n      0xffffffffffffffffffffffffffffffffffffffff\n      mul\n      not\n      and\n      swap1\n      dup4\n      0xffffffffffffffffffffffffffffffffffffffff\n      and\n      mul\n      or\n      swap1\n      sstore\n      pop\n        /* \"contracts/Ptak.sol\":4784:5029  function transferBird(uint256 birdId, address newOwner) external onlyPark {... */\n      pop\n      pop\n      jump\t// out\n        /* \"contracts/Ptak.sol\":1254:2389  function updateHungerAndAge(uint256 id) public {... */\n    tag_84:\n        /* \"contracts/Ptak.sol\":1312:1333  BirdData storage bird */\n      0x00\n        /* \"contracts/Ptak.sol\":1336:1341  birds */\n      0x00\n        /* \"contracts/Ptak.sol\":1336:1345  birds[id] */\n      0x00\n        /* \"contracts/Ptak.sol\":1342:1344  id */\n      dup4\n        /* \"contracts/Ptak.sol\":1336:1345  birds[id] */\n      dup2\n      mstore\n      0x20\n      add\n      swap1\n      dup2\n      mstore\n      0x20\n      add\n      0x00\n      keccak256\n        /* \"contracts/Ptak.sol\":1312:1345  BirdData storage bird = birds[id] */\n      swap1\n      pop\n        /* \"contracts/Ptak.sol\":1360:1364  bird */\n      dup1\n        /* \"contracts/Ptak.sol\":1360:1371  bird.isDead */\n      0x06\n      add\n      0x00\n      swap1\n      sload\n      swap1\n      0x0100\n      exp\n      swap1\n      div\n      0xff\n      and\n        /* \"contracts/Ptak.sol\":1356:1380  if (bird.isDead) return; */\n      iszero\n      tag_199\n      jumpi\n        /* \"contracts/Ptak.sol\":1373:1380  return; */\n      pop\n      jump(tag_198)\n        /* \"contracts/Ptak.sol\":1356:1380  if (bird.isDead) return; */\n    tag_199:\n        /* \"contracts/Ptak.sol\":1392:1411  uint256 timeElapsed */\n      0x00\n        /* \"contracts/Ptak.sol\":1432:1436  bird */\n      dup2\n        /* \"contracts/Ptak.sol\":1432:1451  bird.lastUpdateTime */\n      0x05\n      add\n      sload\n        /* \"contracts/Ptak.sol\":1414:1429  block.timestamp */\n      timestamp\n        /* \"contracts/Ptak.sol\":1414:1451  block.timestamp - bird.lastUpdateTime */\n      tag_200\n      swap2\n      swap1\n      tag_121\n      jump\t// in\n    tag_200:\n        /* \"contracts/Ptak.sol\":1392:1451  uint256 timeElapsed = block.timestamp - bird.lastUpdateTime */\n      swap1\n      pop\n        /* \"contracts/Ptak.sol\":1480:1481  0 */\n      0x00\n        /* \"contracts/Ptak.sol\":1466:1477  timeElapsed */\n      dup2\n        /* \"contracts/Ptak.sol\":1466:1481  timeElapsed > 0 */\n      gt\n        /* \"contracts/Ptak.sol\":1462:2382  if (timeElapsed > 0) {... */\n      iszero\n      tag_201\n      jumpi\n        /* \"contracts/Ptak.sol\":1498:1536  SpeciesLibrary.SpeciesInfo memory info */\n      0x00\n        /* \"contracts/Ptak.sol\":1539:1582  SpeciesLibrary.getSpeciesInfo(bird.species) */\n      tag_202\n        /* \"contracts/Ptak.sol\":1569:1573  bird */\n      dup4\n        /* \"contracts/Ptak.sol\":1569:1581  bird.species */\n      0x04\n      add\n      0x00\n      swap1\n      sload\n      swap1\n      0x0100\n      exp\n      swap1\n      div\n      0xff\n      and\n        /* \"contracts/Ptak.sol\":1539:1568  SpeciesLibrary.getSpeciesInfo */\n      tag_160\n        /* \"contracts/Ptak.sol\":1539:1582  SpeciesLibrary.getSpeciesInfo(bird.species) */\n      jump\t// in\n    tag_202:\n        /* \"contracts/Ptak.sol\":1498:1582  SpeciesLibrary.SpeciesInfo memory info = SpeciesLibrary.getSpeciesInfo(bird.species) */\n      swap1\n      pop\n        /* \"contracts/Ptak.sol\":1599:1621  uint256 hungerIncrease */\n      0x00\n        /* \"contracts/Ptak.sol\":1663:1667  3600 */\n      0x0e10\n        /* \"contracts/Ptak.sol\":1639:1643  info */\n      dup3\n        /* \"contracts/Ptak.sol\":1639:1659  info.hungerDecayRate */\n      0x40\n      add\n      mload\n        /* \"contracts/Ptak.sol\":1625:1636  timeElapsed */\n      dup5\n        /* \"contracts/Ptak.sol\":1625:1659  timeElapsed * info.hungerDecayRate */\n      tag_203\n      swap2\n      swap1\n      tag_204\n      jump\t// in\n    tag_203:\n        /* \"contracts/Ptak.sol\":1624:1667  (timeElapsed * info.hungerDecayRate) / 3600 */\n      tag_205\n      swap2\n      swap1\n      tag_206\n      jump\t// in\n    tag_205:\n        /* \"contracts/Ptak.sol\":1599:1667  uint256 hungerIncrease = (timeElapsed * info.hungerDecayRate) / 3600 */\n      swap1\n      pop\n        /* \"contracts/Ptak.sol\":1697:1711  hungerIncrease */\n      dup1\n        /* \"contracts/Ptak.sol\":1682:1686  bird */\n      dup5\n        /* \"contracts/Ptak.sol\":1682:1693  bird.hunger */\n      0x02\n      add\n      0x00\n        /* \"contracts/Ptak.sol\":1682:1711  bird.hunger += hungerIncrease */\n      dup3\n      dup3\n      sload\n      tag_207\n      swap2\n      swap1\n      tag_208\n      jump\t// in\n    tag_207:\n      swap3\n      pop\n      pop\n      dup2\n      swap1\n      sstore\n      pop\n        /* \"contracts/Ptak.sol\":1746:1750  info */\n      dup2\n        /* \"contracts/Ptak.sol\":1746:1760  info.maxHunger */\n      0x20\n      add\n      mload\n        /* \"contracts/Ptak.sol\":1732:1736  bird */\n      dup5\n        /* \"contracts/Ptak.sol\":1732:1743  bird.hunger */\n      0x02\n      add\n      sload\n        /* \"contracts/Ptak.sol\":1732:1760  bird.hunger > info.maxHunger */\n      gt\n        /* \"contracts/Ptak.sol\":1728:2169  if (bird.hunger > info.maxHunger) {... */\n      iszero\n      tag_209\n      jumpi\n        /* \"contracts/Ptak.sol\":1781:1797  uint256 overflow */\n      0x00\n        /* \"contracts/Ptak.sol\":1814:1818  info */\n      dup3\n        /* \"contracts/Ptak.sol\":1814:1828  info.maxHunger */\n      0x20\n      add\n      mload\n        /* \"contracts/Ptak.sol\":1800:1804  bird */\n      dup6\n        /* \"contracts/Ptak.sol\":1800:1811  bird.hunger */\n      0x02\n      add\n      sload\n        /* \"contracts/Ptak.sol\":1800:1828  bird.hunger - info.maxHunger */\n      tag_210\n      swap2\n      swap1\n      tag_121\n      jump\t// in\n    tag_210:\n        /* \"contracts/Ptak.sol\":1781:1828  uint256 overflow = bird.hunger - info.maxHunger */\n      swap1\n      pop\n        /* \"contracts/Ptak.sol\":1861:1865  info */\n      dup3\n        /* \"contracts/Ptak.sol\":1861:1875  info.maxHunger */\n      0x20\n      add\n      mload\n        /* \"contracts/Ptak.sol\":1847:1851  bird */\n      dup6\n        /* \"contracts/Ptak.sol\":1847:1858  bird.hunger */\n      0x02\n      add\n        /* \"contracts/Ptak.sol\":1847:1875  bird.hunger = info.maxHunger */\n      dup2\n      swap1\n      sstore\n      pop\n        /* \"contracts/Ptak.sol\":1913:1921  overflow */\n      dup1\n        /* \"contracts/Ptak.sol\":1898:1902  bird */\n      dup6\n        /* \"contracts/Ptak.sol\":1898:1909  bird.health */\n      0x03\n      add\n      sload\n        /* \"contracts/Ptak.sol\":1898:1921  bird.health <= overflow */\n      gt\n        /* \"contracts/Ptak.sol\":1894:2154  if (bird.health <= overflow) {... */\n      tag_211\n      jumpi\n        /* \"contracts/Ptak.sol\":1960:1961  0 */\n      0x00\n        /* \"contracts/Ptak.sol\":1946:1950  bird */\n      dup6\n        /* \"contracts/Ptak.sol\":1946:1957  bird.health */\n      0x03\n      add\n        /* \"contracts/Ptak.sol\":1946:1961  bird.health = 0 */\n      dup2\n      swap1\n      sstore\n      pop\n        /* \"contracts/Ptak.sol\":1998:2002  true */\n      0x01\n        /* \"contracts/Ptak.sol\":1984:1988  bird */\n      dup6\n        /* \"contracts/Ptak.sol\":1984:1995  bird.isDead */\n      0x06\n      add\n      0x00\n        /* \"contracts/Ptak.sol\":1984:2002  bird.isDead = true */\n      0x0100\n      exp\n      dup2\n      sload\n      dup2\n      0xff\n      mul\n      not\n      and\n      swap1\n      dup4\n      iszero\n      iszero\n      mul\n      or\n      swap1\n      sstore\n      pop\n        /* \"contracts/Ptak.sol\":2047:2062  block.timestamp */\n      timestamp\n        /* \"contracts/Ptak.sol\":2025:2029  bird */\n      dup6\n        /* \"contracts/Ptak.sol\":2025:2044  bird.deathTimestamp */\n      0x07\n      add\n        /* \"contracts/Ptak.sol\":2025:2062  bird.deathTimestamp = block.timestamp */\n      dup2\n      swap1\n      sstore\n      pop\n        /* \"contracts/Ptak.sol\":1894:2154  if (bird.health <= overflow) {... */\n      jump(tag_212)\n    tag_211:\n        /* \"contracts/Ptak.sol\":2126:2134  overflow */\n      dup1\n        /* \"contracts/Ptak.sol\":2111:2115  bird */\n      dup6\n        /* \"contracts/Ptak.sol\":2111:2122  bird.health */\n      0x03\n      add\n      0x00\n        /* \"contracts/Ptak.sol\":2111:2134  bird.health -= overflow */\n      dup3\n      dup3\n      sload\n      tag_213\n      swap2\n      swap1\n      tag_121\n      jump\t// in\n    tag_213:\n      swap3\n      pop\n      pop\n      dup2\n      swap1\n      sstore\n      pop\n        /* \"contracts/Ptak.sol\":1894:2154  if (bird.health <= overflow) {... */\n    tag_212:\n        /* \"contracts/Ptak.sol\":1762:2169  {... */\n      pop\n        /* \"contracts/Ptak.sol\":1728:2169  if (bird.hunger > info.maxHunger) {... */\n    tag_209:\n        /* \"contracts/Ptak.sol\":2185:2203  uint256 daysPassed */\n      0x00\n        /* \"contracts/Ptak.sol\":2220:2225  86400 */\n      0x015180\n        /* \"contracts/Ptak.sol\":2206:2217  timeElapsed */\n      dup5\n        /* \"contracts/Ptak.sol\":2206:2225  timeElapsed / 86400 */\n      tag_214\n      swap2\n      swap1\n      tag_206\n      jump\t// in\n    tag_214:\n        /* \"contracts/Ptak.sol\":2185:2225  uint256 daysPassed = timeElapsed / 86400 */\n      swap1\n      pop\n        /* \"contracts/Ptak.sol\":2257:2258  0 */\n      0x00\n        /* \"contracts/Ptak.sol\":2244:2254  daysPassed */\n      dup2\n        /* \"contracts/Ptak.sol\":2244:2258  daysPassed > 0 */\n      gt\n        /* \"contracts/Ptak.sol\":2240:2317  if (daysPassed > 0) {... */\n      iszero\n      tag_215\n      jumpi\n        /* \"contracts/Ptak.sol\":2291:2301  daysPassed */\n      dup1\n        /* \"contracts/Ptak.sol\":2279:2283  bird */\n      dup6\n        /* \"contracts/Ptak.sol\":2279:2287  bird.age */\n      0x01\n      add\n      0x00\n        /* \"contracts/Ptak.sol\":2279:2301  bird.age += daysPassed */\n      dup3\n      dup3\n      sload\n      tag_216\n      swap2\n      swap1\n      tag_208\n      jump\t// in\n    tag_216:\n      swap3\n      pop\n      pop\n      dup2\n      swap1\n      sstore\n      pop\n        /* \"contracts/Ptak.sol\":2240:2317  if (daysPassed > 0) {... */\n    tag_215:\n        /* \"contracts/Ptak.sol\":2355:2370  block.timestamp */\n      timestamp\n        /* \"contracts/Ptak.sol\":2333:2337  bird */\n      dup6\n        /* \"contracts/Ptak.sol\":2333:2352  bird.lastUpdateTime */\n      0x05\n      add\n        /* \"contracts/Ptak.sol\":2333:2370  bird.lastUpdateTime = block.timestamp */\n      dup2\n      swap1\n      sstore\n      pop\n        /* \"contracts/Ptak.sol\":1483:2382  {... */\n      pop\n      pop\n      pop\n        /* \"contracts/Ptak.sol\":1462:2382  if (timeElapsed > 0) {... */\n    tag_201:\n        /* \"contracts/Ptak.sol\":1301:2389  {... */\n      pop\n      pop\n        /* \"contracts/Ptak.sol\":1254:2389  function updateHungerAndAge(uint256 id) public {... */\n    tag_198:\n      pop\n      jump\t// out\n        /* \"contracts/Ptak.sol\":6058:6324  function getDeadBySpecies(SpeciesLibrary.Species species) external view returns (uint256 count) {... */\n    tag_87:\n        /* \"contracts/Ptak.sol\":6139:6152  uint256 count */\n      0x00\n        /* \"contracts/Ptak.sol\":6166:6175  uint256 i */\n      0x00\n        /* \"contracts/Ptak.sol\":6178:6179  0 */\n      0x00\n        /* \"contracts/Ptak.sol\":6166:6179  uint256 i = 0 */\n      swap1\n      pop\n        /* \"contracts/Ptak.sol\":6161:6321  for (uint256 i = 0; i < nextId; i++) {... */\n    tag_218:\n        /* \"contracts/Ptak.sol\":6185:6191  nextId */\n      sload(0x01)\n        /* \"contracts/Ptak.sol\":6181:6182  i */\n      dup2\n        /* \"contracts/Ptak.sol\":6181:6191  i < nextId */\n      lt\n        /* \"contracts/Ptak.sol\":6161:6321  for (uint256 i = 0; i < nextId; i++) {... */\n      iszero\n      tag_219\n      jumpi\n        /* \"contracts/Ptak.sol\":6213:6218  birds */\n      0x00\n        /* \"contracts/Ptak.sol\":6213:6221  birds[i] */\n      0x00\n        /* \"contracts/Ptak.sol\":6219:6220  i */\n      dup3\n        /* \"contracts/Ptak.sol\":6213:6221  birds[i] */\n      dup2\n      mstore\n      0x20\n      add\n      swap1\n      dup2\n      mstore\n      0x20\n      add\n      0x00\n      keccak256\n        /* \"contracts/Ptak.sol\":6213:6228  birds[i].exists */\n      0x00\n      add\n      0x00\n      swap1\n      sload\n      swap1\n      0x0100\n      exp\n      swap1\n      div\n      0xff\n      and\n        /* \"contracts/Ptak.sol\":6213:6247  birds[i].exists && birds[i].isDead */\n      dup1\n      iszero\n      tag_221\n      jumpi\n      pop\n        /* \"contracts/Ptak.sol\":6232:6237  birds */\n      0x00\n        /* \"contracts/Ptak.sol\":6232:6240  birds[i] */\n      0x00\n        /* \"contracts/Ptak.sol\":6238:6239  i */\n      dup3\n        /* \"contracts/Ptak.sol\":6232:6240  birds[i] */\n      dup2\n      mstore\n      0x20\n      add\n      swap1\n      dup2\n      mstore\n      0x20\n      add\n      0x00\n      keccak256\n        /* \"contracts/Ptak.sol\":6232:6247  birds[i].isDead */\n      0x06\n      add\n      0x00\n      swap1\n      sload\n      swap1\n      0x0100\n      exp\n      swap1\n      div\n      0xff\n      and\n        /* \"contracts/Ptak.sol\":6213:6247  birds[i].exists && birds[i].isDead */\n    tag_221:\n        /* \"contracts/Ptak.sol\":6213:6278  birds[i].exists && birds[i].isDead && birds[i].species == species */\n      dup1\n      iszero\n      tag_222\n      jumpi\n      pop\n        /* \"contracts/Ptak.sol\":6271:6278  species */\n      dup3\n        /* \"contracts/Ptak.sol\":6251:6278  birds[i].species == species */\n      0x0a\n      dup2\n      gt\n      iszero\n      tag_223\n      jumpi\n      tag_224\n      tag_139\n      jump\t// in\n    tag_224:\n    tag_223:\n        /* \"contracts/Ptak.sol\":6251:6256  birds */\n      0x00\n        /* \"contracts/Ptak.sol\":6251:6259  birds[i] */\n      0x00\n        /* \"contracts/Ptak.sol\":6257:6258  i */\n      dup4\n        /* \"contracts/Ptak.sol\":6251:6259  birds[i] */\n      dup2\n      mstore\n      0x20\n      add\n      swap1\n      dup2\n      mstore\n      0x20\n      add\n      0x00\n      keccak256\n        /* \"contracts/Ptak.sol\":6251:6267  birds[i].species */\n      0x04\n      add\n      0x00\n      swap1\n      sload\n      swap1\n      0x0100\n      exp\n      swap1\n      div\n      0xff\n      and\n        /* \"contracts/Ptak.sol\":6251:6278  birds[i].species == species */\n      0x0a\n      dup2\n      gt\n      iszero\n      tag_225\n      jumpi\n      tag_226\n      tag_139\n      jump\t// in\n    tag_226:\n    tag_225:\n      eq\n        /* \"contracts/Ptak.sol\":6213:6278  birds[i].exists && birds[i].isDead && birds[i].species == species */\n    tag_222:\n        /* \"contracts/Ptak.sol\":6209:6314  if (birds[i].exists && birds[i].isDead && birds[i].species == species) {... */\n      iszero\n      tag_227\n      jumpi\n        /* \"contracts/Ptak.sol\":6295:6302  count++ */\n      dup2\n      dup1\n      tag_228\n      swap1\n      tag_130\n      jump\t// in\n    tag_228:\n      swap3\n      pop\n      pop\n        /* \"contracts/Ptak.sol\":6209:6314  if (birds[i].exists && birds[i].isDead && birds[i].species == species) {... */\n    tag_227:\n        /* \"contracts/Ptak.sol\":6193:6196  i++ */\n      dup1\n      dup1\n      0x01\n      add\n      swap2\n      pop\n      pop\n        /* \"contracts/Ptak.sol\":6161:6321  for (uint256 i = 0; i < nextId; i++) {... */\n      jump(tag_218)\n    tag_219:\n      pop\n        /* \"contracts/Ptak.sol\":6058:6324  function getDeadBySpecies(SpeciesLibrary.Species species) external view returns (uint256 count) {... */\n      swap2\n      swap1\n      pop\n      jump\t// out\n        /* \"contracts/Ptak.sol\":2607:2929  function healBird(uint256 birdId) external onlyPark {... */\n    tag_91:\n        /* \"contracts/Ptak.sol\":689:701  parkContract */\n      0x02\n      0x00\n      swap1\n      sload\n      swap1\n      0x0100\n      exp\n      swap1\n      div\n      0xffffffffffffffffffffffffffffffffffffffff\n      and\n        /* \"contracts/Ptak.sol\":675:701  msg.sender == parkContract */\n      0xffffffffffffffffffffffffffffffffffffffff\n      and\n        /* \"contracts/Ptak.sol\":675:685  msg.sender */\n      caller\n        /* \"contracts/Ptak.sol\":675:701  msg.sender == parkContract */\n      0xffffffffffffffffffffffffffffffffffffffff\n      and\n      eq\n        /* \"contracts/Ptak.sol\":667:729  require(msg.sender == parkContract, \"Only Park can call this\") */\n      tag_230\n      jumpi\n      mload(0x40)\n      0x08c379a000000000000000000000000000000000000000000000000000000000\n      dup2\n      mstore\n      0x04\n      add\n      tag_231\n      swap1\n      tag_108\n      jump\t// in\n    tag_231:\n      mload(0x40)\n      dup1\n      swap2\n      sub\n      swap1\n      revert\n    tag_230:\n        /* \"contracts/Ptak.sol\":2670:2691  BirdData storage bird */\n      0x00\n        /* \"contracts/Ptak.sol\":2694:2699  birds */\n      0x00\n        /* \"contracts/Ptak.sol\":2694:2707  birds[birdId] */\n      0x00\n        /* \"contracts/Ptak.sol\":2700:2706  birdId */\n      dup4\n        /* \"contracts/Ptak.sol\":2694:2707  birds[birdId] */\n      dup2\n      mstore\n      0x20\n      add\n      swap1\n      dup2\n      mstore\n      0x20\n      add\n      0x00\n      keccak256\n        /* \"contracts/Ptak.sol\":2670:2707  BirdData storage bird = birds[birdId] */\n      swap1\n      pop\n        /* \"contracts/Ptak.sol\":2726:2730  bird */\n      dup1\n        /* \"contracts/Ptak.sol\":2726:2737  bird.exists */\n      0x00\n      add\n      0x00\n      swap1\n      sload\n      swap1\n      0x0100\n      exp\n      swap1\n      div\n      0xff\n      and\n        /* \"contracts/Ptak.sol\":2718:2765  require(bird.exists, \"That bird doesn't exist\") */\n      tag_233\n      jumpi\n      mload(0x40)\n      0x08c379a000000000000000000000000000000000000000000000000000000000\n      dup2\n      mstore\n      0x04\n      add\n      tag_234\n      swap1\n      tag_115\n      jump\t// in\n    tag_234:\n      mload(0x40)\n      dup1\n      swap2\n      sub\n      swap1\n      revert\n    tag_233:\n        /* \"contracts/Ptak.sol\":2785:2789  bird */\n      dup1\n        /* \"contracts/Ptak.sol\":2785:2796  bird.isDead */\n      0x06\n      add\n      0x00\n      swap1\n      sload\n      swap1\n      0x0100\n      exp\n      swap1\n      div\n      0xff\n      and\n        /* \"contracts/Ptak.sol\":2784:2796  !bird.isDead */\n      iszero\n        /* \"contracts/Ptak.sol\":2776:2841  require(!bird.isDead, \"Cannot heal a dead bird; revive it first\") */\n      tag_235\n      jumpi\n      mload(0x40)\n      0x08c379a000000000000000000000000000000000000000000000000000000000\n      dup2\n      mstore\n      0x04\n      add\n      tag_236\n      swap1\n      tag_237\n      jump\t// in\n    tag_236:\n      mload(0x40)\n      dup1\n      swap2\n      sub\n      swap1\n      revert\n    tag_235:\n        /* \"contracts/Ptak.sol\":2868:2911  SpeciesLibrary.getSpeciesInfo(bird.species) */\n      tag_238\n        /* \"contracts/Ptak.sol\":2898:2902  bird */\n      dup2\n        /* \"contracts/Ptak.sol\":2898:2910  bird.species */\n      0x04\n      add\n      0x00\n      swap1\n      sload\n      swap1\n      0x0100\n      exp\n      swap1\n      div\n      0xff\n      and\n        /* \"contracts/Ptak.sol\":2868:2897  SpeciesLibrary.getSpeciesInfo */\n      tag_160\n        /* \"contracts/Ptak.sol\":2868:2911  SpeciesLibrary.getSpeciesInfo(bird.species) */\n      jump\t// in\n    tag_238:\n        /* \"contracts/Ptak.sol\":2868:2921  SpeciesLibrary.getSpeciesInfo(bird.species).maxHealth */\n      0x00\n      add\n      mload\n        /* \"contracts/Ptak.sol\":2854:2858  bird */\n      dup2\n        /* \"contracts/Ptak.sol\":2854:2865  bird.health */\n      0x03\n      add\n        /* \"contracts/Ptak.sol\":2854:2921  bird.health = SpeciesLibrary.getSpeciesInfo(bird.species).maxHealth */\n      dup2\n      swap1\n      sstore\n      pop\n        /* \"contracts/Ptak.sol\":2659:2929  {... */\n      pop\n        /* \"contracts/Ptak.sol\":2607:2929  function healBird(uint256 birdId) external onlyPark {... */\n      pop\n      jump\t// out\n        /* \"contracts/Ptak.sol\":427:468  mapping(uint256 => BirdData) public birds */\n    tag_94:\n      mstore(0x20, 0x00)\n      dup1\n      0x00\n      mstore\n      keccak256(0x00, 0x40)\n      0x00\n      swap2\n      pop\n      swap1\n      pop\n      dup1\n      0x00\n      add\n      0x00\n      swap1\n      sload\n      swap1\n      0x0100\n      exp\n      swap1\n      div\n      0xff\n      and\n      swap1\n      dup1\n      0x01\n      add\n      sload\n      swap1\n      dup1\n      0x02\n      add\n      sload\n      swap1\n      dup1\n      0x03\n      add\n      sload\n      swap1\n      dup1\n      0x04\n      add\n      0x00\n      swap1\n      sload\n      swap1\n      0x0100\n      exp\n      swap1\n      div\n      0xff\n      and\n      swap1\n      dup1\n      0x05\n      add\n      sload\n      swap1\n      dup1\n      0x06\n      add\n      0x00\n      swap1\n      sload\n      swap1\n      0x0100\n      exp\n      swap1\n      div\n      0xff\n      and\n      swap1\n      dup1\n      0x07\n      add\n      sload\n      swap1\n      pop\n      dup9\n      jump\t// out\n        /* \"contracts/Ptak.sol\":5095:5180  function getTotalBirdCount() external view returns (uint256) {... */\n    tag_98:\n        /* \"contracts/Ptak.sol\":5147:5154  uint256 */\n      0x00\n        /* \"contracts/Ptak.sol\":5170:5176  nextId */\n      sload(0x01)\n        /* \"contracts/Ptak.sol\":5163:5176  return nextId */\n      swap1\n      pop\n        /* \"contracts/Ptak.sol\":5095:5180  function getTotalBirdCount() external view returns (uint256) {... */\n      swap1\n      jump\t// out\n        /* \"contracts/Ptak.sol\":2397:2599  function getBirdImage(uint256 birdId) external view returns (string memory) {... */\n    tag_102:\n        /* \"contracts/Ptak.sol\":2458:2471  string memory */\n      0x60\n        /* \"contracts/Ptak.sol\":2484:2505  BirdData storage bird */\n      0x00\n        /* \"contracts/Ptak.sol\":2508:2513  birds */\n      0x00\n        /* \"contracts/Ptak.sol\":2508:2521  birds[birdId] */\n      0x00\n        /* \"contracts/Ptak.sol\":2514:2520  birdId */\n      dup5\n        /* \"contracts/Ptak.sol\":2508:2521  birds[birdId] */\n      dup2\n      mstore\n      0x20\n      add\n      swap1\n      dup2\n      mstore\n      0x20\n      add\n      0x00\n      keccak256\n        /* \"contracts/Ptak.sol\":2484:2521  BirdData storage bird = birds[birdId] */\n      swap1\n      pop\n        /* \"contracts/Ptak.sol\":2539:2582  SpeciesLibrary.getSpeciesInfo(bird.species) */\n      tag_241\n        /* \"contracts/Ptak.sol\":2569:2573  bird */\n      dup2\n        /* \"contracts/Ptak.sol\":2569:2581  bird.species */\n      0x04\n      add\n      0x00\n      swap1\n      sload\n      swap1\n      0x0100\n      exp\n      swap1\n      div\n      0xff\n      and\n        /* \"contracts/Ptak.sol\":2539:2568  SpeciesLibrary.getSpeciesInfo */\n      tag_160\n        /* \"contracts/Ptak.sol\":2539:2582  SpeciesLibrary.getSpeciesInfo(bird.species) */\n      jump\t// in\n    tag_241:\n        /* \"contracts/Ptak.sol\":2539:2591  SpeciesLibrary.getSpeciesInfo(bird.species).imageUrl */\n      0x80\n      add\n      mload\n        /* \"contracts/Ptak.sol\":2532:2591  return SpeciesLibrary.getSpeciesInfo(bird.species).imageUrl */\n      swap2\n      pop\n      pop\n        /* \"contracts/Ptak.sol\":2397:2599  function getBirdImage(uint256 birdId) external view returns (string memory) {... */\n      swap2\n      swap1\n      pop\n      jump\t// out\n        /* \"contracts/Ptak.sol\":2937:3475  function randomPoisoning(uint256 birdId) private {... */\n    tag_112:\n        /* \"contracts/Ptak.sol\":2997:3035  SpeciesLibrary.SpeciesInfo memory info */\n      tag_243\n      tag_244\n      jump\t// in\n    tag_243:\n        /* \"contracts/Ptak.sol\":3046:3072  Ptak.BirdData storage bird */\n      0x00\n        /* \"contracts/Ptak.sol\":3075:3080  birds */\n      0x00\n        /* \"contracts/Ptak.sol\":3075:3088  birds[birdId] */\n      0x00\n        /* \"contracts/Ptak.sol\":3081:3087  birdId */\n      dup5\n        /* \"contracts/Ptak.sol\":3075:3088  birds[birdId] */\n      dup2\n      mstore\n      0x20\n      add\n      swap1\n      dup2\n      mstore\n      0x20\n      add\n      0x00\n      keccak256\n        /* \"contracts/Ptak.sol\":3046:3088  Ptak.BirdData storage bird = birds[birdId] */\n      swap1\n      pop\n        /* \"contracts/Ptak.sol\":3106:3149  SpeciesLibrary.getSpeciesInfo(bird.species) */\n      tag_245\n        /* \"contracts/Ptak.sol\":3136:3140  bird */\n      dup2\n        /* \"contracts/Ptak.sol\":3136:3148  bird.species */\n      0x04\n      add\n      0x00\n      swap1\n      sload\n      swap1\n      0x0100\n      exp\n      swap1\n      div\n      0xff\n      and\n        /* \"contracts/Ptak.sol\":3106:3135  SpeciesLibrary.getSpeciesInfo */\n      tag_160\n        /* \"contracts/Ptak.sol\":3106:3149  SpeciesLibrary.getSpeciesInfo(bird.species) */\n      jump\t// in\n    tag_245:\n        /* \"contracts/Ptak.sol\":3099:3149  info = SpeciesLibrary.getSpeciesInfo(bird.species) */\n      swap2\n      pop\n        /* \"contracts/Ptak.sol\":3166:3173  insured */\n      0x03\n        /* \"contracts/Ptak.sol\":3166:3181  insured[birdId] */\n      0x00\n        /* \"contracts/Ptak.sol\":3174:3180  birdId */\n      dup5\n        /* \"contracts/Ptak.sol\":3166:3181  insured[birdId] */\n      dup2\n      mstore\n      0x20\n      add\n      swap1\n      dup2\n      mstore\n      0x20\n      add\n      0x00\n      keccak256\n      0x00\n      swap1\n      sload\n      swap1\n      0x0100\n      exp\n      swap1\n      div\n      0xff\n      and\n        /* \"contracts/Ptak.sol\":3162:3468  if(!insured[birdId]){... */\n      tag_246\n      jumpi\n        /* \"contracts/Ptak.sol\":3197:3211  uint256 chance */\n      0x00\n        /* \"contracts/Ptak.sol\":3214:3257  SpeciesLibrary.getSpeciesInfo(bird.species) */\n      tag_247\n        /* \"contracts/Ptak.sol\":3244:3248  bird */\n      dup3\n        /* \"contracts/Ptak.sol\":3244:3256  bird.species */\n      0x04\n      add\n      0x00\n      swap1\n      sload\n      swap1\n      0x0100\n      exp\n      swap1\n      div\n      0xff\n      and\n        /* \"contracts/Ptak.sol\":3214:3243  SpeciesLibrary.getSpeciesInfo */\n      tag_160\n        /* \"contracts/Ptak.sol\":3214:3257  SpeciesLibrary.getSpeciesInfo(bird.species) */\n      jump\t// in\n    tag_247:\n        /* \"contracts/Ptak.sol\":3214:3273  SpeciesLibrary.getSpeciesInfo(bird.species).poisoningChance */\n      0x60\n      add\n      mload\n        /* \"contracts/Ptak.sol\":3197:3273  uint256 chance = SpeciesLibrary.getSpeciesInfo(bird.species).poisoningChance */\n      swap1\n      pop\n        /* \"contracts/Ptak.sol\":3288:3300  uint256 rand */\n      0x00\n        /* \"contracts/Ptak.sol\":3367:3370  100 */\n      0x64\n        /* \"contracts/Ptak.sol\":3338:3353  block.timestamp */\n      timestamp\n        /* \"contracts/Ptak.sol\":3355:3361  birdId */\n      dup7\n        /* \"contracts/Ptak.sol\":3321:3362  abi.encodePacked(block.timestamp, birdId) */\n      add(0x20, mload(0x40))\n      tag_248\n      swap3\n      swap2\n      swap1\n      tag_249\n      jump\t// in\n    tag_248:\n      mload(0x40)\n      0x20\n      dup2\n      dup4\n      sub\n      sub\n      dup2\n      mstore\n      swap1\n      0x40\n      mstore\n        /* \"contracts/Ptak.sol\":3311:3363  keccak256(abi.encodePacked(block.timestamp, birdId)) */\n      dup1\n      mload\n      swap1\n      0x20\n      add\n      keccak256\n        /* \"contracts/Ptak.sol\":3303:3364  uint256(keccak256(abi.encodePacked(block.timestamp, birdId))) */\n      0x00\n      shr\n        /* \"contracts/Ptak.sol\":3303:3370  uint256(keccak256(abi.encodePacked(block.timestamp, birdId))) % 100 */\n      tag_250\n      swap2\n      swap1\n      tag_251\n      jump\t// in\n    tag_250:\n        /* \"contracts/Ptak.sol\":3288:3370  uint256 rand = uint256(keccak256(abi.encodePacked(block.timestamp, birdId))) % 100 */\n      swap1\n      pop\n        /* \"contracts/Ptak.sol\":3397:3403  chance */\n      dup2\n        /* \"contracts/Ptak.sol\":3390:3394  rand */\n      dup2\n        /* \"contracts/Ptak.sol\":3390:3403  rand < chance */\n      lt\n        /* \"contracts/Ptak.sol\":3387:3457  if(rand < chance) {... */\n      iszero\n      tag_252\n      jumpi\n        /* \"contracts/Ptak.sol\":3439:3441  25 */\n      0x19\n        /* \"contracts/Ptak.sol\":3424:3428  bird */\n      dup4\n        /* \"contracts/Ptak.sol\":3424:3435  bird.health */\n      0x03\n      add\n      0x00\n        /* \"contracts/Ptak.sol\":3424:3441  bird.health -= 25 */\n      dup3\n      dup3\n      sload\n      tag_253\n      swap2\n      swap1\n      tag_121\n      jump\t// in\n    tag_253:\n      swap3\n      pop\n      pop\n      dup2\n      swap1\n      sstore\n      pop\n        /* \"contracts/Ptak.sol\":3387:3457  if(rand < chance) {... */\n    tag_252:\n        /* \"contracts/Ptak.sol\":3182:3468  {... */\n      pop\n      pop\n        /* \"contracts/Ptak.sol\":3162:3468  if(!insured[birdId]){... */\n    tag_246:\n        /* \"contracts/Ptak.sol\":2986:3475  {... */\n      pop\n      pop\n        /* \"contracts/Ptak.sol\":2937:3475  function randomPoisoning(uint256 birdId) private {... */\n      pop\n      jump\t// out\n        /* \"contracts/SpeciesLibrary.sol\":1361:3666  function getSpeciesInfo(Species species) internal pure returns (SpeciesInfo memory) {... */\n    tag_160:\n        /* \"contracts/SpeciesLibrary.sol\":1425:1443  SpeciesInfo memory */\n      tag_254\n      tag_244\n      jump\t// in\n    tag_254:\n        /* \"contracts/SpeciesLibrary.sol\":1471:1487  Species.MuteSwan */\n      0x00\n        /* \"contracts/SpeciesLibrary.sol\":1460:1487  species == Species.MuteSwan */\n      0x0a\n      dup2\n      gt\n      iszero\n      tag_256\n      jumpi\n      tag_257\n      tag_139\n      jump\t// in\n    tag_257:\n    tag_256:\n        /* \"contracts/SpeciesLibrary.sol\":1460:1467  species */\n      dup3\n        /* \"contracts/SpeciesLibrary.sol\":1460:1487  species == Species.MuteSwan */\n      0x0a\n      dup2\n      gt\n      iszero\n      tag_258\n      jumpi\n      tag_259\n      tag_139\n      jump\t// in\n    tag_259:\n    tag_258:\n      sub\n        /* \"contracts/SpeciesLibrary.sol\":1456:3623  if (species == Species.MuteSwan) {... */\n      tag_260\n      jumpi\n        /* \"contracts/SpeciesLibrary.sol\":1511:1635  SpeciesInfo(200, 150, 3, 1, \"https://gateway.pinata.cloud/ipfs/bafybeia3le4astknh2p4mbkd5w42j522tnse4wxk7w5m7wimoqdp6ouzpy\") */\n      mload(0x40)\n      dup1\n      0xa0\n      add\n      0x40\n      mstore\n      dup1\n        /* \"contracts/SpeciesLibrary.sol\":1523:1526  200 */\n      0xc8\n        /* \"contracts/SpeciesLibrary.sol\":1511:1635  SpeciesInfo(200, 150, 3, 1, \"https://gateway.pinata.cloud/ipfs/bafybeia3le4astknh2p4mbkd5w42j522tnse4wxk7w5m7wimoqdp6ouzpy\") */\n      dup2\n      mstore\n      0x20\n      add\n        /* \"contracts/SpeciesLibrary.sol\":1528:1531  150 */\n      0x96\n        /* \"contracts/SpeciesLibrary.sol\":1511:1635  SpeciesInfo(200, 150, 3, 1, \"https://gateway.pinata.cloud/ipfs/bafybeia3le4astknh2p4mbkd5w42j522tnse4wxk7w5m7wimoqdp6ouzpy\") */\n      dup2\n      mstore\n      0x20\n      add\n        /* \"contracts/SpeciesLibrary.sol\":1533:1534  3 */\n      0x03\n        /* \"contracts/SpeciesLibrary.sol\":1511:1635  SpeciesInfo(200, 150, 3, 1, \"https://gateway.pinata.cloud/ipfs/bafybeia3le4astknh2p4mbkd5w42j522tnse4wxk7w5m7wimoqdp6ouzpy\") */\n      dup2\n      mstore\n      0x20\n      add\n        /* \"contracts/SpeciesLibrary.sol\":1536:1537  1 */\n      0x01\n        /* \"contracts/SpeciesLibrary.sol\":1511:1635  SpeciesInfo(200, 150, 3, 1, \"https://gateway.pinata.cloud/ipfs/bafybeia3le4astknh2p4mbkd5w42j522tnse4wxk7w5m7wimoqdp6ouzpy\") */\n      dup2\n      mstore\n      0x20\n      add\n      mload(0x40)\n      dup1\n      0x80\n      add\n      0x40\n      mstore\n      dup1\n      0x5d\n      dup2\n      mstore\n      0x20\n      add\n      data_1ffc5c99f8ff866cb3cb9bd46d45453badb8f26649052a31a9be49b9b43149da\n      0x5d\n      swap2\n      codecopy\n      dup2\n      mstore\n      pop\n        /* \"contracts/SpeciesLibrary.sol\":1504:1635  return SpeciesInfo(200, 150, 3, 1, \"https://gateway.pinata.cloud/ipfs/bafybeia3le4astknh2p4mbkd5w42j522tnse4wxk7w5m7wimoqdp6ouzpy\") */\n      swap1\n      pop\n      jump(tag_255)\n        /* \"contracts/SpeciesLibrary.sol\":1456:3623  if (species == Species.MuteSwan) {... */\n    tag_260:\n        /* \"contracts/SpeciesLibrary.sol\":1668:1686  Species.WhiteStork */\n      0x01\n        /* \"contracts/SpeciesLibrary.sol\":1657:1686  species == Species.WhiteStork */\n      0x0a\n      dup2\n      gt\n      iszero\n      tag_262\n      jumpi\n      tag_263\n      tag_139\n      jump\t// in\n    tag_263:\n    tag_262:\n        /* \"contracts/SpeciesLibrary.sol\":1657:1664  species */\n      dup3\n        /* \"contracts/SpeciesLibrary.sol\":1657:1686  species == Species.WhiteStork */\n      0x0a\n      dup2\n      gt\n      iszero\n      tag_264\n      jumpi\n      tag_265\n      tag_139\n      jump\t// in\n    tag_265:\n    tag_264:\n      sub\n        /* \"contracts/SpeciesLibrary.sol\":1653:3623  if (species == Species.WhiteStork) {... */\n      tag_266\n      jumpi\n        /* \"contracts/SpeciesLibrary.sol\":1710:1834  SpeciesInfo(220, 200, 2, 5, \"https://gateway.pinata.cloud/ipfs/bafybeigohotok6k3onvtjyypfnbnzbcso2qcixbwz4wh64vp2n3lq7nksa\") */\n      mload(0x40)\n      dup1\n      0xa0\n      add\n      0x40\n      mstore\n      dup1\n        /* \"contracts/SpeciesLibrary.sol\":1722:1725  220 */\n      0xdc\n        /* \"contracts/SpeciesLibrary.sol\":1710:1834  SpeciesInfo(220, 200, 2, 5, \"https://gateway.pinata.cloud/ipfs/bafybeigohotok6k3onvtjyypfnbnzbcso2qcixbwz4wh64vp2n3lq7nksa\") */\n      dup2\n      mstore\n      0x20\n      add\n        /* \"contracts/SpeciesLibrary.sol\":1727:1730  200 */\n      0xc8\n        /* \"contracts/SpeciesLibrary.sol\":1710:1834  SpeciesInfo(220, 200, 2, 5, \"https://gateway.pinata.cloud/ipfs/bafybeigohotok6k3onvtjyypfnbnzbcso2qcixbwz4wh64vp2n3lq7nksa\") */\n      dup2\n      mstore\n      0x20\n      add\n        /* \"contracts/SpeciesLibrary.sol\":1732:1733  2 */\n      0x02\n        /* \"contracts/SpeciesLibrary.sol\":1710:1834  SpeciesInfo(220, 200, 2, 5, \"https://gateway.pinata.cloud/ipfs/bafybeigohotok6k3onvtjyypfnbnzbcso2qcixbwz4wh64vp2n3lq7nksa\") */\n      dup2\n      mstore\n      0x20\n      add\n        /* \"contracts/SpeciesLibrary.sol\":1735:1736  5 */\n      0x05\n        /* \"contracts/SpeciesLibrary.sol\":1710:1834  SpeciesInfo(220, 200, 2, 5, \"https://gateway.pinata.cloud/ipfs/bafybeigohotok6k3onvtjyypfnbnzbcso2qcixbwz4wh64vp2n3lq7nksa\") */\n      dup2\n      mstore\n      0x20\n      add\n      mload(0x40)\n      dup1\n      0x80\n      add\n      0x40\n      mstore\n      dup1\n      0x5d\n      dup2\n      mstore\n      0x20\n      add\n      data_86e92b1a76e2f297d69c89af4232d1b3e647fd322843457f38b762c99d8ee708\n      0x5d\n      swap2\n      codecopy\n      dup2\n      mstore\n      pop\n        /* \"contracts/SpeciesLibrary.sol\":1703:1834  return SpeciesInfo(220, 200, 2, 5, \"https://gateway.pinata.cloud/ipfs/bafybeigohotok6k3onvtjyypfnbnzbcso2qcixbwz4wh64vp2n3lq7nksa\") */\n      swap1\n      pop\n      jump(tag_255)\n        /* \"contracts/SpeciesLibrary.sol\":1653:3623  if (species == Species.WhiteStork) {... */\n    tag_266:\n        /* \"contracts/SpeciesLibrary.sol\":1867:1886  Species.MallardDuck */\n      0x02\n        /* \"contracts/SpeciesLibrary.sol\":1856:1886  species == Species.MallardDuck */\n      0x0a\n      dup2\n      gt\n      iszero\n      tag_268\n      jumpi\n      tag_269\n      tag_139\n      jump\t// in\n    tag_269:\n    tag_268:\n        /* \"contracts/SpeciesLibrary.sol\":1856:1863  species */\n      dup3\n        /* \"contracts/SpeciesLibrary.sol\":1856:1886  species == Species.MallardDuck */\n      0x0a\n      dup2\n      gt\n      iszero\n      tag_270\n      jumpi\n      tag_271\n      tag_139\n      jump\t// in\n    tag_271:\n    tag_270:\n      sub\n        /* \"contracts/SpeciesLibrary.sol\":1852:3623  if (species == Species.MallardDuck) {... */\n      tag_272\n      jumpi\n        /* \"contracts/SpeciesLibrary.sol\":1910:2032  SpeciesInfo(80, 80, 3, 6, \"https://gateway.pinata.cloud/ipfs/bafybeiev7pucz7yh7x6haidmphp5ieobvcfdclnlwjqa2ivs4y357pvwma\") */\n      mload(0x40)\n      dup1\n      0xa0\n      add\n      0x40\n      mstore\n      dup1\n        /* \"contracts/SpeciesLibrary.sol\":1922:1924  80 */\n      0x50\n        /* \"contracts/SpeciesLibrary.sol\":1910:2032  SpeciesInfo(80, 80, 3, 6, \"https://gateway.pinata.cloud/ipfs/bafybeiev7pucz7yh7x6haidmphp5ieobvcfdclnlwjqa2ivs4y357pvwma\") */\n      dup2\n      mstore\n      0x20\n      add\n        /* \"contracts/SpeciesLibrary.sol\":1926:1928  80 */\n      0x50\n        /* \"contracts/SpeciesLibrary.sol\":1910:2032  SpeciesInfo(80, 80, 3, 6, \"https://gateway.pinata.cloud/ipfs/bafybeiev7pucz7yh7x6haidmphp5ieobvcfdclnlwjqa2ivs4y357pvwma\") */\n      dup2\n      mstore\n      0x20\n      add\n        /* \"contracts/SpeciesLibrary.sol\":1930:1931  3 */\n      0x03\n        /* \"contracts/SpeciesLibrary.sol\":1910:2032  SpeciesInfo(80, 80, 3, 6, \"https://gateway.pinata.cloud/ipfs/bafybeiev7pucz7yh7x6haidmphp5ieobvcfdclnlwjqa2ivs4y357pvwma\") */\n      dup2\n      mstore\n      0x20\n      add\n        /* \"contracts/SpeciesLibrary.sol\":1933:1934  6 */\n      0x06\n        /* \"contracts/SpeciesLibrary.sol\":1910:2032  SpeciesInfo(80, 80, 3, 6, \"https://gateway.pinata.cloud/ipfs/bafybeiev7pucz7yh7x6haidmphp5ieobvcfdclnlwjqa2ivs4y357pvwma\") */\n      dup2\n      mstore\n      0x20\n      add\n      mload(0x40)\n      dup1\n      0x80\n      add\n      0x40\n      mstore\n      dup1\n      0x5d\n      dup2\n      mstore\n      0x20\n      add\n      data_3bbf1c81af77207dbf9db8f891697113273de930322fc10149aebcb2d416dad6\n      0x5d\n      swap2\n      codecopy\n      dup2\n      mstore\n      pop\n        /* \"contracts/SpeciesLibrary.sol\":1903:2032  return SpeciesInfo(80, 80, 3, 6, \"https://gateway.pinata.cloud/ipfs/bafybeiev7pucz7yh7x6haidmphp5ieobvcfdclnlwjqa2ivs4y357pvwma\") */\n      swap1\n      pop\n      jump(tag_255)\n        /* \"contracts/SpeciesLibrary.sol\":1852:3623  if (species == Species.MallardDuck) {... */\n    tag_272:\n        /* \"contracts/SpeciesLibrary.sol\":2065:2081  Species.Mythical */\n      0x0a\n        /* \"contracts/SpeciesLibrary.sol\":2054:2081  species == Species.Mythical */\n      dup1\n      dup2\n      gt\n      iszero\n      tag_274\n      jumpi\n      tag_275\n      tag_139\n      jump\t// in\n    tag_275:\n    tag_274:\n        /* \"contracts/SpeciesLibrary.sol\":2054:2061  species */\n      dup3\n        /* \"contracts/SpeciesLibrary.sol\":2054:2081  species == Species.Mythical */\n      0x0a\n      dup2\n      gt\n      iszero\n      tag_276\n      jumpi\n      tag_277\n      tag_139\n      jump\t// in\n    tag_277:\n    tag_276:\n      sub\n        /* \"contracts/SpeciesLibrary.sol\":2050:3623  if (species == Species.Mythical) {... */\n      tag_278\n      jumpi\n        /* \"contracts/SpeciesLibrary.sol\":2105:2229  SpeciesInfo(300, 300, 1, 0, \"https://gateway.pinata.cloud/ipfs/bafybeietbf5qosrybqgkq2cd4czv66dww6st4wj5xloze4enb2d5xyj6pm\") */\n      mload(0x40)\n      dup1\n      0xa0\n      add\n      0x40\n      mstore\n      dup1\n        /* \"contracts/SpeciesLibrary.sol\":2117:2120  300 */\n      0x012c\n        /* \"contracts/SpeciesLibrary.sol\":2105:2229  SpeciesInfo(300, 300, 1, 0, \"https://gateway.pinata.cloud/ipfs/bafybeietbf5qosrybqgkq2cd4czv66dww6st4wj5xloze4enb2d5xyj6pm\") */\n      dup2\n      mstore\n      0x20\n      add\n        /* \"contracts/SpeciesLibrary.sol\":2122:2125  300 */\n      0x012c\n        /* \"contracts/SpeciesLibrary.sol\":2105:2229  SpeciesInfo(300, 300, 1, 0, \"https://gateway.pinata.cloud/ipfs/bafybeietbf5qosrybqgkq2cd4czv66dww6st4wj5xloze4enb2d5xyj6pm\") */\n      dup2\n      mstore\n      0x20\n      add\n        /* \"contracts/SpeciesLibrary.sol\":2127:2128  1 */\n      0x01\n        /* \"contracts/SpeciesLibrary.sol\":2105:2229  SpeciesInfo(300, 300, 1, 0, \"https://gateway.pinata.cloud/ipfs/bafybeietbf5qosrybqgkq2cd4czv66dww6st4wj5xloze4enb2d5xyj6pm\") */\n      dup2\n      mstore\n      0x20\n      add\n        /* \"contracts/SpeciesLibrary.sol\":2130:2131  0 */\n      0x00\n        /* \"contracts/SpeciesLibrary.sol\":2105:2229  SpeciesInfo(300, 300, 1, 0, \"https://gateway.pinata.cloud/ipfs/bafybeietbf5qosrybqgkq2cd4czv66dww6st4wj5xloze4enb2d5xyj6pm\") */\n      dup2\n      mstore\n      0x20\n      add\n      mload(0x40)\n      dup1\n      0x80\n      add\n      0x40\n      mstore\n      dup1\n      0x5d\n      dup2\n      mstore\n      0x20\n      add\n      data_bf1e0c883d5045b15993c31eb358768c2346e70fb0546c814a2e5325206e2434\n      0x5d\n      swap2\n      codecopy\n      dup2\n      mstore\n      pop\n        /* \"contracts/SpeciesLibrary.sol\":2098:2229  return SpeciesInfo(300, 300, 1, 0, \"https://gateway.pinata.cloud/ipfs/bafybeietbf5qosrybqgkq2cd4czv66dww6st4wj5xloze4enb2d5xyj6pm\") */\n      swap1\n      pop\n      jump(tag_255)\n        /* \"contracts/SpeciesLibrary.sol\":2050:3623  if (species == Species.Mythical) {... */\n    tag_278:\n        /* \"contracts/SpeciesLibrary.sol\":2262:2279  Species.GreyHeron */\n      0x03\n        /* \"contracts/SpeciesLibrary.sol\":2251:2279  species == Species.GreyHeron */\n      0x0a\n      dup2\n      gt\n      iszero\n      tag_280\n      jumpi\n      tag_281\n      tag_139\n      jump\t// in\n    tag_281:\n    tag_280:\n        /* \"contracts/SpeciesLibrary.sol\":2251:2258  species */\n      dup3\n        /* \"contracts/SpeciesLibrary.sol\":2251:2279  species == Species.GreyHeron */\n      0x0a\n      dup2\n      gt\n      iszero\n      tag_282\n      jumpi\n      tag_283\n      tag_139\n      jump\t// in\n    tag_283:\n    tag_282:\n      sub\n        /* \"contracts/SpeciesLibrary.sol\":2247:3623  if (species == Species.GreyHeron) {... */\n      tag_284\n      jumpi\n        /* \"contracts/SpeciesLibrary.sol\":2303:2426  SpeciesInfo(180, 90, 2, 4, \"https://gateway.pinata.cloud/ipfs/bafybeifxnqrpp3afajntrnwyynu2lcrzvmdmsthwab6x2wn23wcnbdjn6m\") */\n      mload(0x40)\n      dup1\n      0xa0\n      add\n      0x40\n      mstore\n      dup1\n        /* \"contracts/SpeciesLibrary.sol\":2315:2318  180 */\n      0xb4\n        /* \"contracts/SpeciesLibrary.sol\":2303:2426  SpeciesInfo(180, 90, 2, 4, \"https://gateway.pinata.cloud/ipfs/bafybeifxnqrpp3afajntrnwyynu2lcrzvmdmsthwab6x2wn23wcnbdjn6m\") */\n      dup2\n      mstore\n      0x20\n      add\n        /* \"contracts/SpeciesLibrary.sol\":2320:2322  90 */\n      0x5a\n        /* \"contracts/SpeciesLibrary.sol\":2303:2426  SpeciesInfo(180, 90, 2, 4, \"https://gateway.pinata.cloud/ipfs/bafybeifxnqrpp3afajntrnwyynu2lcrzvmdmsthwab6x2wn23wcnbdjn6m\") */\n      dup2\n      mstore\n      0x20\n      add\n        /* \"contracts/SpeciesLibrary.sol\":2324:2325  2 */\n      0x02\n        /* \"contracts/SpeciesLibrary.sol\":2303:2426  SpeciesInfo(180, 90, 2, 4, \"https://gateway.pinata.cloud/ipfs/bafybeifxnqrpp3afajntrnwyynu2lcrzvmdmsthwab6x2wn23wcnbdjn6m\") */\n      dup2\n      mstore\n      0x20\n      add\n        /* \"contracts/SpeciesLibrary.sol\":2327:2328  4 */\n      0x04\n        /* \"contracts/SpeciesLibrary.sol\":2303:2426  SpeciesInfo(180, 90, 2, 4, \"https://gateway.pinata.cloud/ipfs/bafybeifxnqrpp3afajntrnwyynu2lcrzvmdmsthwab6x2wn23wcnbdjn6m\") */\n      dup2\n      mstore\n      0x20\n      add\n      mload(0x40)\n      dup1\n      0x80\n      add\n      0x40\n      mstore\n      dup1\n      0x5d\n      dup2\n      mstore\n      0x20\n      add\n      data_3aaee52e591491d0c37d609e70d05ae7f1f2d7910d54c05cb9fcdcf49c54ca0d\n      0x5d\n      swap2\n      codecopy\n      dup2\n      mstore\n      pop\n        /* \"contracts/SpeciesLibrary.sol\":2296:2426  return SpeciesInfo(180, 90, 2, 4, \"https://gateway.pinata.cloud/ipfs/bafybeifxnqrpp3afajntrnwyynu2lcrzvmdmsthwab6x2wn23wcnbdjn6m\") */\n      swap1\n      pop\n      jump(tag_255)\n        /* \"contracts/SpeciesLibrary.sol\":2247:3623  if (species == Species.GreyHeron) {... */\n    tag_284:\n        /* \"contracts/SpeciesLibrary.sol\":2459:2481  Species.RedNeckedGrebe */\n      0x04\n        /* \"contracts/SpeciesLibrary.sol\":2448:2481  species == Species.RedNeckedGrebe */\n      0x0a\n      dup2\n      gt\n      iszero\n      tag_286\n      jumpi\n      tag_287\n      tag_139\n      jump\t// in\n    tag_287:\n    tag_286:\n        /* \"contracts/SpeciesLibrary.sol\":2448:2455  species */\n      dup3\n        /* \"contracts/SpeciesLibrary.sol\":2448:2481  species == Species.RedNeckedGrebe */\n      0x0a\n      dup2\n      gt\n      iszero\n      tag_288\n      jumpi\n      tag_289\n      tag_139\n      jump\t// in\n    tag_289:\n    tag_288:\n      sub\n        /* \"contracts/SpeciesLibrary.sol\":2444:3623  if (species == Species.RedNeckedGrebe) {... */\n      tag_290\n      jumpi\n        /* \"contracts/SpeciesLibrary.sol\":2505:2627  SpeciesInfo(80, 70, 2, 8, \"https://gateway.pinata.cloud/ipfs/bafybeibcdpzpyg6mqae2ogowuumymqmqxb2usniu75geej4ptr467ot2nm\") */\n      mload(0x40)\n      dup1\n      0xa0\n      add\n      0x40\n      mstore\n      dup1\n        /* \"contracts/SpeciesLibrary.sol\":2517:2519  80 */\n      0x50\n        /* \"contracts/SpeciesLibrary.sol\":2505:2627  SpeciesInfo(80, 70, 2, 8, \"https://gateway.pinata.cloud/ipfs/bafybeibcdpzpyg6mqae2ogowuumymqmqxb2usniu75geej4ptr467ot2nm\") */\n      dup2\n      mstore\n      0x20\n      add\n        /* \"contracts/SpeciesLibrary.sol\":2521:2523  70 */\n      0x46\n        /* \"contracts/SpeciesLibrary.sol\":2505:2627  SpeciesInfo(80, 70, 2, 8, \"https://gateway.pinata.cloud/ipfs/bafybeibcdpzpyg6mqae2ogowuumymqmqxb2usniu75geej4ptr467ot2nm\") */\n      dup2\n      mstore\n      0x20\n      add\n        /* \"contracts/SpeciesLibrary.sol\":2525:2526  2 */\n      0x02\n        /* \"contracts/SpeciesLibrary.sol\":2505:2627  SpeciesInfo(80, 70, 2, 8, \"https://gateway.pinata.cloud/ipfs/bafybeibcdpzpyg6mqae2ogowuumymqmqxb2usniu75geej4ptr467ot2nm\") */\n      dup2\n      mstore\n      0x20\n      add\n        /* \"contracts/SpeciesLibrary.sol\":2528:2529  8 */\n      0x08\n        /* \"contracts/SpeciesLibrary.sol\":2505:2627  SpeciesInfo(80, 70, 2, 8, \"https://gateway.pinata.cloud/ipfs/bafybeibcdpzpyg6mqae2ogowuumymqmqxb2usniu75geej4ptr467ot2nm\") */\n      dup2\n      mstore\n      0x20\n      add\n      mload(0x40)\n      dup1\n      0x80\n      add\n      0x40\n      mstore\n      dup1\n      0x5d\n      dup2\n      mstore\n      0x20\n      add\n      data_7b2fdb6759a9cafb5eeb6df22876dcecec368957dc7b6a1b5455e59a53ccd8b3\n      0x5d\n      swap2\n      codecopy\n      dup2\n      mstore\n      pop\n        /* \"contracts/SpeciesLibrary.sol\":2498:2627  return SpeciesInfo(80, 70, 2, 8, \"https://gateway.pinata.cloud/ipfs/bafybeibcdpzpyg6mqae2ogowuumymqmqxb2usniu75geej4ptr467ot2nm\") */\n      swap1\n      pop\n      jump(tag_255)\n        /* \"contracts/SpeciesLibrary.sol\":2444:3623  if (species == Species.RedNeckedGrebe) {... */\n    tag_290:\n        /* \"contracts/SpeciesLibrary.sol\":2660:2677  Species.WaterRail */\n      0x05\n        /* \"contracts/SpeciesLibrary.sol\":2649:2677  species == Species.WaterRail */\n      0x0a\n      dup2\n      gt\n      iszero\n      tag_292\n      jumpi\n      tag_293\n      tag_139\n      jump\t// in\n    tag_293:\n    tag_292:\n        /* \"contracts/SpeciesLibrary.sol\":2649:2656  species */\n      dup3\n        /* \"contracts/SpeciesLibrary.sol\":2649:2677  species == Species.WaterRail */\n      0x0a\n      dup2\n      gt\n      iszero\n      tag_294\n      jumpi\n      tag_295\n      tag_139\n      jump\t// in\n    tag_295:\n    tag_294:\n      sub\n        /* \"contracts/SpeciesLibrary.sol\":2645:3623  if (species == Species.WaterRail) {... */\n      tag_296\n      jumpi\n        /* \"contracts/SpeciesLibrary.sol\":2701:2823  SpeciesInfo(50, 60, 4, 5, \"https://gateway.pinata.cloud/ipfs/bafkreida4apspxtnpb63oqyzv3tin5owc45lgctkdqv74hjas4fytookta\") */\n      mload(0x40)\n      dup1\n      0xa0\n      add\n      0x40\n      mstore\n      dup1\n        /* \"contracts/SpeciesLibrary.sol\":2713:2715  50 */\n      0x32\n        /* \"contracts/SpeciesLibrary.sol\":2701:2823  SpeciesInfo(50, 60, 4, 5, \"https://gateway.pinata.cloud/ipfs/bafkreida4apspxtnpb63oqyzv3tin5owc45lgctkdqv74hjas4fytookta\") */\n      dup2\n      mstore\n      0x20\n      add\n        /* \"contracts/SpeciesLibrary.sol\":2717:2719  60 */\n      0x3c\n        /* \"contracts/SpeciesLibrary.sol\":2701:2823  SpeciesInfo(50, 60, 4, 5, \"https://gateway.pinata.cloud/ipfs/bafkreida4apspxtnpb63oqyzv3tin5owc45lgctkdqv74hjas4fytookta\") */\n      dup2\n      mstore\n      0x20\n      add\n        /* \"contracts/SpeciesLibrary.sol\":2721:2722  4 */\n      0x04\n        /* \"contracts/SpeciesLibrary.sol\":2701:2823  SpeciesInfo(50, 60, 4, 5, \"https://gateway.pinata.cloud/ipfs/bafkreida4apspxtnpb63oqyzv3tin5owc45lgctkdqv74hjas4fytookta\") */\n      dup2\n      mstore\n      0x20\n      add\n        /* \"contracts/SpeciesLibrary.sol\":2724:2725  5 */\n      0x05\n        /* \"contracts/SpeciesLibrary.sol\":2701:2823  SpeciesInfo(50, 60, 4, 5, \"https://gateway.pinata.cloud/ipfs/bafkreida4apspxtnpb63oqyzv3tin5owc45lgctkdqv74hjas4fytookta\") */\n      dup2\n      mstore\n      0x20\n      add\n      mload(0x40)\n      dup1\n      0x80\n      add\n      0x40\n      mstore\n      dup1\n      0x5d\n      dup2\n      mstore\n      0x20\n      add\n      data_9935abd004c219a89d3fd74f576ad80b96c6baa47d216c49a0c7e2425bfa795d\n      0x5d\n      swap2\n      codecopy\n      dup2\n      mstore\n      pop\n        /* \"contracts/SpeciesLibrary.sol\":2694:2823  return SpeciesInfo(50, 60, 4, 5, \"https://gateway.pinata.cloud/ipfs/bafkreida4apspxtnpb63oqyzv3tin5owc45lgctkdqv74hjas4fytookta\") */\n      swap1\n      pop\n      jump(tag_255)\n        /* \"contracts/SpeciesLibrary.sol\":2645:3623  if (species == Species.WaterRail) {... */\n    tag_296:\n        /* \"contracts/SpeciesLibrary.sol\":2856:2874  Species.CommonTern */\n      0x06\n        /* \"contracts/SpeciesLibrary.sol\":2845:2874  species == Species.CommonTern */\n      0x0a\n      dup2\n      gt\n      iszero\n      tag_298\n      jumpi\n      tag_299\n      tag_139\n      jump\t// in\n    tag_299:\n    tag_298:\n        /* \"contracts/SpeciesLibrary.sol\":2845:2852  species */\n      dup3\n        /* \"contracts/SpeciesLibrary.sol\":2845:2874  species == Species.CommonTern */\n      0x0a\n      dup2\n      gt\n      iszero\n      tag_300\n      jumpi\n      tag_301\n      tag_139\n      jump\t// in\n    tag_301:\n    tag_300:\n      sub\n        /* \"contracts/SpeciesLibrary.sol\":2841:3623  if (species == Species.CommonTern) {... */\n      tag_302\n      jumpi\n        /* \"contracts/SpeciesLibrary.sol\":2898:3020  SpeciesInfo(55, 40, 3, 4, \"https://gateway.pinata.cloud/ipfs/bafkreih2fmxu3ayscr7xez2u2ashawifc3oj4qa26j56ch46vez7zyaej4\") */\n      mload(0x40)\n      dup1\n      0xa0\n      add\n      0x40\n      mstore\n      dup1\n        /* \"contracts/SpeciesLibrary.sol\":2910:2912  55 */\n      0x37\n        /* \"contracts/SpeciesLibrary.sol\":2898:3020  SpeciesInfo(55, 40, 3, 4, \"https://gateway.pinata.cloud/ipfs/bafkreih2fmxu3ayscr7xez2u2ashawifc3oj4qa26j56ch46vez7zyaej4\") */\n      dup2\n      mstore\n      0x20\n      add\n        /* \"contracts/SpeciesLibrary.sol\":2914:2916  40 */\n      0x28\n        /* \"contracts/SpeciesLibrary.sol\":2898:3020  SpeciesInfo(55, 40, 3, 4, \"https://gateway.pinata.cloud/ipfs/bafkreih2fmxu3ayscr7xez2u2ashawifc3oj4qa26j56ch46vez7zyaej4\") */\n      dup2\n      mstore\n      0x20\n      add\n        /* \"contracts/SpeciesLibrary.sol\":2918:2919  3 */\n      0x03\n        /* \"contracts/SpeciesLibrary.sol\":2898:3020  SpeciesInfo(55, 40, 3, 4, \"https://gateway.pinata.cloud/ipfs/bafkreih2fmxu3ayscr7xez2u2ashawifc3oj4qa26j56ch46vez7zyaej4\") */\n      dup2\n      mstore\n      0x20\n      add\n        /* \"contracts/SpeciesLibrary.sol\":2921:2922  4 */\n      0x04\n        /* \"contracts/SpeciesLibrary.sol\":2898:3020  SpeciesInfo(55, 40, 3, 4, \"https://gateway.pinata.cloud/ipfs/bafkreih2fmxu3ayscr7xez2u2ashawifc3oj4qa26j56ch46vez7zyaej4\") */\n      dup2\n      mstore\n      0x20\n      add\n      mload(0x40)\n      dup1\n      0x80\n      add\n      0x40\n      mstore\n      dup1\n      0x5d\n      dup2\n      mstore\n      0x20\n      add\n      data_b8dd308e09aa92114d02e95d8f8ec31b44f463debae17577b531822d02a7acf8\n      0x5d\n      swap2\n      codecopy\n      dup2\n      mstore\n      pop\n        /* \"contracts/SpeciesLibrary.sol\":2891:3020  return SpeciesInfo(55, 40, 3, 4, \"https://gateway.pinata.cloud/ipfs/bafkreih2fmxu3ayscr7xez2u2ashawifc3oj4qa26j56ch46vez7zyaej4\") */\n      swap1\n      pop\n      jump(tag_255)\n        /* \"contracts/SpeciesLibrary.sol\":2841:3623  if (species == Species.CommonTern) {... */\n    tag_302:\n        /* \"contracts/SpeciesLibrary.sol\":3053:3070  Species.Goosander */\n      0x07\n        /* \"contracts/SpeciesLibrary.sol\":3042:3070  species == Species.Goosander */\n      0x0a\n      dup2\n      gt\n      iszero\n      tag_304\n      jumpi\n      tag_305\n      tag_139\n      jump\t// in\n    tag_305:\n    tag_304:\n        /* \"contracts/SpeciesLibrary.sol\":3042:3049  species */\n      dup3\n        /* \"contracts/SpeciesLibrary.sol\":3042:3070  species == Species.Goosander */\n      0x0a\n      dup2\n      gt\n      iszero\n      tag_306\n      jumpi\n      tag_307\n      tag_139\n      jump\t// in\n    tag_307:\n    tag_306:\n      sub\n        /* \"contracts/SpeciesLibrary.sol\":3038:3623  if (species == Species.Goosander) {... */\n      tag_308\n      jumpi\n        /* \"contracts/SpeciesLibrary.sol\":3094:3216  SpeciesInfo(78, 65, 2, 4, \"https://gateway.pinata.cloud/ipfs/bafkreid3mdymzsjtudm56zrovitxouvgsjbzzkyarsq7t2i2biwyg6rhtq\") */\n      mload(0x40)\n      dup1\n      0xa0\n      add\n      0x40\n      mstore\n      dup1\n        /* \"contracts/SpeciesLibrary.sol\":3106:3108  78 */\n      0x4e\n        /* \"contracts/SpeciesLibrary.sol\":3094:3216  SpeciesInfo(78, 65, 2, 4, \"https://gateway.pinata.cloud/ipfs/bafkreid3mdymzsjtudm56zrovitxouvgsjbzzkyarsq7t2i2biwyg6rhtq\") */\n      dup2\n      mstore\n      0x20\n      add\n        /* \"contracts/SpeciesLibrary.sol\":3110:3112  65 */\n      0x41\n        /* \"contracts/SpeciesLibrary.sol\":3094:3216  SpeciesInfo(78, 65, 2, 4, \"https://gateway.pinata.cloud/ipfs/bafkreid3mdymzsjtudm56zrovitxouvgsjbzzkyarsq7t2i2biwyg6rhtq\") */\n      dup2\n      mstore\n      0x20\n      add\n        /* \"contracts/SpeciesLibrary.sol\":3114:3115  2 */\n      0x02\n        /* \"contracts/SpeciesLibrary.sol\":3094:3216  SpeciesInfo(78, 65, 2, 4, \"https://gateway.pinata.cloud/ipfs/bafkreid3mdymzsjtudm56zrovitxouvgsjbzzkyarsq7t2i2biwyg6rhtq\") */\n      dup2\n      mstore\n      0x20\n      add\n        /* \"contracts/SpeciesLibrary.sol\":3117:3118  4 */\n      0x04\n        /* \"contracts/SpeciesLibrary.sol\":3094:3216  SpeciesInfo(78, 65, 2, 4, \"https://gateway.pinata.cloud/ipfs/bafkreid3mdymzsjtudm56zrovitxouvgsjbzzkyarsq7t2i2biwyg6rhtq\") */\n      dup2\n      mstore\n      0x20\n      add\n      mload(0x40)\n      dup1\n      0x80\n      add\n      0x40\n      mstore\n      dup1\n      0x5d\n      dup2\n      mstore\n      0x20\n      add\n      data_06b72c80ee2ecbcbf44477b5df17c9ca845658c2f59600eacfa2a1e2c77fc0c0\n      0x5d\n      swap2\n      codecopy\n      dup2\n      mstore\n      pop\n        /* \"contracts/SpeciesLibrary.sol\":3087:3216  return SpeciesInfo(78, 65, 2, 4, \"https://gateway.pinata.cloud/ipfs/bafkreid3mdymzsjtudm56zrovitxouvgsjbzzkyarsq7t2i2biwyg6rhtq\") */\n      swap1\n      pop\n      jump(tag_255)\n        /* \"contracts/SpeciesLibrary.sol\":3038:3623  if (species == Species.Goosander) {... */\n    tag_308:\n        /* \"contracts/SpeciesLibrary.sol\":3249:3269  Species.GreylagGoose */\n      0x08\n        /* \"contracts/SpeciesLibrary.sol\":3238:3269  species == Species.GreylagGoose */\n      0x0a\n      dup2\n      gt\n      iszero\n      tag_310\n      jumpi\n      tag_311\n      tag_139\n      jump\t// in\n    tag_311:\n    tag_310:\n        /* \"contracts/SpeciesLibrary.sol\":3238:3245  species */\n      dup3\n        /* \"contracts/SpeciesLibrary.sol\":3238:3269  species == Species.GreylagGoose */\n      0x0a\n      dup2\n      gt\n      iszero\n      tag_312\n      jumpi\n      tag_313\n      tag_139\n      jump\t// in\n    tag_313:\n    tag_312:\n      sub\n        /* \"contracts/SpeciesLibrary.sol\":3234:3623  if (species == Species.GreylagGoose) {... */\n      tag_314\n      jumpi\n        /* \"contracts/SpeciesLibrary.sol\":3293:3417  SpeciesInfo(150, 100, 4, 3, \"https://gateway.pinata.cloud/ipfs/bafkreif6eno2qjj3xc7mebql2s66ol6yxrwx7gwavz44qn2dlz3cnw7f24\") */\n      mload(0x40)\n      dup1\n      0xa0\n      add\n      0x40\n      mstore\n      dup1\n        /* \"contracts/SpeciesLibrary.sol\":3305:3308  150 */\n      0x96\n        /* \"contracts/SpeciesLibrary.sol\":3293:3417  SpeciesInfo(150, 100, 4, 3, \"https://gateway.pinata.cloud/ipfs/bafkreif6eno2qjj3xc7mebql2s66ol6yxrwx7gwavz44qn2dlz3cnw7f24\") */\n      dup2\n      mstore\n      0x20\n      add\n        /* \"contracts/SpeciesLibrary.sol\":3310:3313  100 */\n      0x64\n        /* \"contracts/SpeciesLibrary.sol\":3293:3417  SpeciesInfo(150, 100, 4, 3, \"https://gateway.pinata.cloud/ipfs/bafkreif6eno2qjj3xc7mebql2s66ol6yxrwx7gwavz44qn2dlz3cnw7f24\") */\n      dup2\n      mstore\n      0x20\n      add\n        /* \"contracts/SpeciesLibrary.sol\":3315:3316  4 */\n      0x04\n        /* \"contracts/SpeciesLibrary.sol\":3293:3417  SpeciesInfo(150, 100, 4, 3, \"https://gateway.pinata.cloud/ipfs/bafkreif6eno2qjj3xc7mebql2s66ol6yxrwx7gwavz44qn2dlz3cnw7f24\") */\n      dup2\n      mstore\n      0x20\n      add\n        /* \"contracts/SpeciesLibrary.sol\":3318:3319  3 */\n      0x03\n        /* \"contracts/SpeciesLibrary.sol\":3293:3417  SpeciesInfo(150, 100, 4, 3, \"https://gateway.pinata.cloud/ipfs/bafkreif6eno2qjj3xc7mebql2s66ol6yxrwx7gwavz44qn2dlz3cnw7f24\") */\n      dup2\n      mstore\n      0x20\n      add\n      mload(0x40)\n      dup1\n      0x80\n      add\n      0x40\n      mstore\n      dup1\n      0x5d\n      dup2\n      mstore\n      0x20\n      add\n      data_4de8576ed651b45ee8b8de37ab230acfe5a77f3bcefa3b601e95aeedc205cf9f\n      0x5d\n      swap2\n      codecopy\n      dup2\n      mstore\n      pop\n        /* \"contracts/SpeciesLibrary.sol\":3286:3417  return SpeciesInfo(150, 100, 4, 3, \"https://gateway.pinata.cloud/ipfs/bafkreif6eno2qjj3xc7mebql2s66ol6yxrwx7gwavz44qn2dlz3cnw7f24\") */\n      swap1\n      pop\n      jump(tag_255)\n        /* \"contracts/SpeciesLibrary.sol\":3234:3623  if (species == Species.GreylagGoose) {... */\n    tag_314:\n        /* \"contracts/SpeciesLibrary.sol\":3450:3465  Species.Moorhen */\n      0x09\n        /* \"contracts/SpeciesLibrary.sol\":3439:3465  species == Species.Moorhen */\n      0x0a\n      dup2\n      gt\n      iszero\n      tag_316\n      jumpi\n      tag_317\n      tag_139\n      jump\t// in\n    tag_317:\n    tag_316:\n        /* \"contracts/SpeciesLibrary.sol\":3439:3446  species */\n      dup3\n        /* \"contracts/SpeciesLibrary.sol\":3439:3465  species == Species.Moorhen */\n      0x0a\n      dup2\n      gt\n      iszero\n      tag_318\n      jumpi\n      tag_319\n      tag_139\n      jump\t// in\n    tag_319:\n    tag_318:\n      sub\n        /* \"contracts/SpeciesLibrary.sol\":3435:3623  if (species == Species.Moorhen) {... */\n      tag_320\n      jumpi\n        /* \"contracts/SpeciesLibrary.sol\":3489:3611  SpeciesInfo(35, 66, 4, 5, \"https://gateway.pinata.cloud/ipfs/bafybeifpajbivhhemjefgiamnvh7oe27lextqj7agpznchqeujcn46i5ca\") */\n      mload(0x40)\n      dup1\n      0xa0\n      add\n      0x40\n      mstore\n      dup1\n        /* \"contracts/SpeciesLibrary.sol\":3501:3503  35 */\n      0x23\n        /* \"contracts/SpeciesLibrary.sol\":3489:3611  SpeciesInfo(35, 66, 4, 5, \"https://gateway.pinata.cloud/ipfs/bafybeifpajbivhhemjefgiamnvh7oe27lextqj7agpznchqeujcn46i5ca\") */\n      dup2\n      mstore\n      0x20\n      add\n        /* \"contracts/SpeciesLibrary.sol\":3505:3507  66 */\n      0x42\n        /* \"contracts/SpeciesLibrary.sol\":3489:3611  SpeciesInfo(35, 66, 4, 5, \"https://gateway.pinata.cloud/ipfs/bafybeifpajbivhhemjefgiamnvh7oe27lextqj7agpznchqeujcn46i5ca\") */\n      dup2\n      mstore\n      0x20\n      add\n        /* \"contracts/SpeciesLibrary.sol\":3509:3510  4 */\n      0x04\n        /* \"contracts/SpeciesLibrary.sol\":3489:3611  SpeciesInfo(35, 66, 4, 5, \"https://gateway.pinata.cloud/ipfs/bafybeifpajbivhhemjefgiamnvh7oe27lextqj7agpznchqeujcn46i5ca\") */\n      dup2\n      mstore\n      0x20\n      add\n        /* \"contracts/SpeciesLibrary.sol\":3512:3513  5 */\n      0x05\n        /* \"contracts/SpeciesLibrary.sol\":3489:3611  SpeciesInfo(35, 66, 4, 5, \"https://gateway.pinata.cloud/ipfs/bafybeifpajbivhhemjefgiamnvh7oe27lextqj7agpznchqeujcn46i5ca\") */\n      dup2\n      mstore\n      0x20\n      add\n      mload(0x40)\n      dup1\n      0x80\n      add\n      0x40\n      mstore\n      dup1\n      0x5d\n      dup2\n      mstore\n      0x20\n      add\n      data_4bffd64c369afa296df94915c3530d23c4bb62ed5947a16d0436ecf77d5e47b7\n      0x5d\n      swap2\n      codecopy\n      dup2\n      mstore\n      pop\n        /* \"contracts/SpeciesLibrary.sol\":3482:3611  return SpeciesInfo(35, 66, 4, 5, \"https://gateway.pinata.cloud/ipfs/bafybeifpajbivhhemjefgiamnvh7oe27lextqj7agpznchqeujcn46i5ca\") */\n      swap1\n      pop\n      jump(tag_255)\n        /* \"contracts/SpeciesLibrary.sol\":3435:3623  if (species == Species.Moorhen) {... */\n    tag_320:\n        /* \"contracts/SpeciesLibrary.sol\":3633:3658  revert(\"Unknown species\") */\n      mload(0x40)\n      0x08c379a000000000000000000000000000000000000000000000000000000000\n      dup2\n      mstore\n      0x04\n      add\n      tag_321\n      swap1\n      tag_322\n      jump\t// in\n    tag_321:\n      mload(0x40)\n      dup1\n      swap2\n      sub\n      swap1\n      revert\n        /* \"contracts/SpeciesLibrary.sol\":1361:3666  function getSpeciesInfo(Species species) internal pure returns (SpeciesInfo memory) {... */\n    tag_255:\n      swap2\n      swap1\n      pop\n      jump\t// out\n    tag_171:\n      mload(0x40)\n      dup1\n      0x0100\n      add\n      0x40\n      mstore\n      dup1\n      iszero(iszero(0x00))\n      dup2\n      mstore\n      0x20\n      add\n      0x00\n      dup2\n      mstore\n      0x20\n      add\n      0x00\n      dup2\n      mstore\n      0x20\n      add\n      0x00\n      dup2\n      mstore\n      0x20\n      add\n      0x00\n      0x0a\n      dup2\n      gt\n      iszero\n      tag_323\n      jumpi\n      tag_324\n      tag_139\n      jump\t// in\n    tag_324:\n    tag_323:\n      dup2\n      mstore\n      0x20\n      add\n      0x00\n      dup2\n      mstore\n      0x20\n      add\n      iszero(iszero(0x00))\n      dup2\n      mstore\n      0x20\n      add\n      0x00\n      dup2\n      mstore\n      pop\n      swap1\n      jump\t// out\n    tag_244:\n      mload(0x40)\n      dup1\n      0xa0\n      add\n      0x40\n      mstore\n      dup1\n      0x00\n      dup2\n      mstore\n      0x20\n      add\n      0x00\n      dup2\n      mstore\n      0x20\n      add\n      0x00\n      dup2\n      mstore\n      0x20\n      add\n      0x00\n      dup2\n      mstore\n      0x20\n      add\n      0x60\n      dup2\n      mstore\n      pop\n      swap1\n      jump\t// out\n        /* \"#utility.yul\":88:205   */\n    tag_326:\n        /* \"#utility.yul\":197:198   */\n      0x00\n        /* \"#utility.yul\":194:195   */\n      0x00\n        /* \"#utility.yul\":187:199   */\n      revert\n        /* \"#utility.yul\":334:411   */\n    tag_328:\n        /* \"#utility.yul\":371:378   */\n      0x00\n        /* \"#utility.yul\":400:405   */\n      dup2\n        /* \"#utility.yul\":389:405   */\n      swap1\n      pop\n        /* \"#utility.yul\":334:411   */\n      swap2\n      swap1\n      pop\n      jump\t// out\n        /* \"#utility.yul\":417:539   */\n    tag_329:\n        /* \"#utility.yul\":490:514   */\n      tag_382\n        /* \"#utility.yul\":508:513   */\n      dup2\n        /* \"#utility.yul\":490:514   */\n      tag_328\n      jump\t// in\n    tag_382:\n        /* \"#utility.yul\":483:488   */\n      dup2\n        /* \"#utility.yul\":480:515   */\n      eq\n        /* \"#utility.yul\":470:533   */\n      tag_383\n      jumpi\n        /* \"#utility.yul\":529:530   */\n      0x00\n        /* \"#utility.yul\":526:527   */\n      0x00\n        /* \"#utility.yul\":519:531   */\n      revert\n        /* \"#utility.yul\":470:533   */\n    tag_383:\n        /* \"#utility.yul\":417:539   */\n      pop\n      jump\t// out\n        /* \"#utility.yul\":545:684   */\n    tag_330:\n        /* \"#utility.yul\":591:596   */\n      0x00\n        /* \"#utility.yul\":629:635   */\n      dup2\n        /* \"#utility.yul\":616:636   */\n      calldataload\n        /* \"#utility.yul\":607:636   */\n      swap1\n      pop\n        /* \"#utility.yul\":645:678   */\n      tag_385\n        /* \"#utility.yul\":672:677   */\n      dup2\n        /* \"#utility.yul\":645:678   */\n      tag_329\n      jump\t// in\n    tag_385:\n        /* \"#utility.yul\":545:684   */\n      swap3\n      swap2\n      pop\n      pop\n      jump\t// out\n        /* \"#utility.yul\":690:1019   */\n    tag_28:\n        /* \"#utility.yul\":749:755   */\n      0x00\n        /* \"#utility.yul\":798:800   */\n      0x20\n        /* \"#utility.yul\":786:795   */\n      dup3\n        /* \"#utility.yul\":777:784   */\n      dup5\n        /* \"#utility.yul\":773:796   */\n      sub\n        /* \"#utility.yul\":769:801   */\n      slt\n        /* \"#utility.yul\":766:885   */\n      iszero\n      tag_387\n      jumpi\n        /* \"#utility.yul\":804:883   */\n      tag_388\n      tag_326\n      jump\t// in\n    tag_388:\n        /* \"#utility.yul\":766:885   */\n    tag_387:\n        /* \"#utility.yul\":924:925   */\n      0x00\n        /* \"#utility.yul\":949:1002   */\n      tag_389\n        /* \"#utility.yul\":994:1001   */\n      dup5\n        /* \"#utility.yul\":985:991   */\n      dup3\n        /* \"#utility.yul\":974:983   */\n      dup6\n        /* \"#utility.yul\":970:992   */\n      add\n        /* \"#utility.yul\":949:1002   */\n      tag_330\n      jump\t// in\n    tag_389:\n        /* \"#utility.yul\":939:1002   */\n      swap2\n      pop\n        /* \"#utility.yul\":895:1012   */\n      pop\n        /* \"#utility.yul\":690:1019   */\n      swap3\n      swap2\n      pop\n      pop\n      jump\t// out\n        /* \"#utility.yul\":1025:1115   */\n    tag_331:\n        /* \"#utility.yul\":1059:1066   */\n      0x00\n        /* \"#utility.yul\":1102:1107   */\n      dup2\n        /* \"#utility.yul\":1095:1108   */\n      iszero\n        /* \"#utility.yul\":1088:1109   */\n      iszero\n        /* \"#utility.yul\":1077:1109   */\n      swap1\n      pop\n        /* \"#utility.yul\":1025:1115   */\n      swap2\n      swap1\n      pop\n      jump\t// out\n        /* \"#utility.yul\":1121:1230   */\n    tag_332:\n        /* \"#utility.yul\":1202:1223   */\n      tag_392\n        /* \"#utility.yul\":1217:1222   */\n      dup2\n        /* \"#utility.yul\":1202:1223   */\n      tag_331\n      jump\t// in\n    tag_392:\n        /* \"#utility.yul\":1197:1200   */\n      dup3\n        /* \"#utility.yul\":1190:1224   */\n      mstore\n        /* \"#utility.yul\":1121:1230   */\n      pop\n      pop\n      jump\t// out\n        /* \"#utility.yul\":1236:1446   */\n    tag_31:\n        /* \"#utility.yul\":1323:1327   */\n      0x00\n        /* \"#utility.yul\":1361:1363   */\n      0x20\n        /* \"#utility.yul\":1350:1359   */\n      dup3\n        /* \"#utility.yul\":1346:1364   */\n      add\n        /* \"#utility.yul\":1338:1364   */\n      swap1\n      pop\n        /* \"#utility.yul\":1374:1439   */\n      tag_394\n        /* \"#utility.yul\":1436:1437   */\n      0x00\n        /* \"#utility.yul\":1425:1434   */\n      dup4\n        /* \"#utility.yul\":1421:1438   */\n      add\n        /* \"#utility.yul\":1412:1418   */\n      dup5\n        /* \"#utility.yul\":1374:1439   */\n      tag_332\n      jump\t// in\n    tag_394:\n        /* \"#utility.yul\":1236:1446   */\n      swap3\n      swap2\n      pop\n      pop\n      jump\t// out\n        /* \"#utility.yul\":1452:1926   */\n    tag_34:\n        /* \"#utility.yul\":1520:1526   */\n      0x00\n        /* \"#utility.yul\":1528:1534   */\n      0x00\n        /* \"#utility.yul\":1577:1579   */\n      0x40\n        /* \"#utility.yul\":1565:1574   */\n      dup4\n        /* \"#utility.yul\":1556:1563   */\n      dup6\n        /* \"#utility.yul\":1552:1575   */\n      sub\n        /* \"#utility.yul\":1548:1580   */\n      slt\n        /* \"#utility.yul\":1545:1664   */\n      iszero\n      tag_396\n      jumpi\n        /* \"#utility.yul\":1583:1662   */\n      tag_397\n      tag_326\n      jump\t// in\n    tag_397:\n        /* \"#utility.yul\":1545:1664   */\n    tag_396:\n        /* \"#utility.yul\":1703:1704   */\n      0x00\n        /* \"#utility.yul\":1728:1781   */\n      tag_398\n        /* \"#utility.yul\":1773:1780   */\n      dup6\n        /* \"#utility.yul\":1764:1770   */\n      dup3\n        /* \"#utility.yul\":1753:1762   */\n      dup7\n        /* \"#utility.yul\":1749:1771   */\n      add\n        /* \"#utility.yul\":1728:1781   */\n      tag_330\n      jump\t// in\n    tag_398:\n        /* \"#utility.yul\":1718:1781   */\n      swap3\n      pop\n        /* \"#utility.yul\":1674:1791   */\n      pop\n        /* \"#utility.yul\":1830:1832   */\n      0x20\n        /* \"#utility.yul\":1856:1909   */\n      tag_399\n        /* \"#utility.yul\":1901:1908   */\n      dup6\n        /* \"#utility.yul\":1892:1898   */\n      dup3\n        /* \"#utility.yul\":1881:1890   */\n      dup7\n        /* \"#utility.yul\":1877:1899   */\n      add\n        /* \"#utility.yul\":1856:1909   */\n      tag_330\n      jump\t// in\n    tag_399:\n        /* \"#utility.yul\":1846:1909   */\n      swap2\n      pop\n        /* \"#utility.yul\":1801:1919   */\n      pop\n        /* \"#utility.yul\":1452:1926   */\n      swap3\n      pop\n      swap3\n      swap1\n      pop\n      jump\t// out\n        /* \"#utility.yul\":1932:2050   */\n    tag_333:\n        /* \"#utility.yul\":2019:2043   */\n      tag_401\n        /* \"#utility.yul\":2037:2042   */\n      dup2\n        /* \"#utility.yul\":2019:2043   */\n      tag_328\n      jump\t// in\n    tag_401:\n        /* \"#utility.yul\":2014:2017   */\n      dup3\n        /* \"#utility.yul\":2007:2044   */\n      mstore\n        /* \"#utility.yul\":1932:2050   */\n      pop\n      pop\n      jump\t// out\n        /* \"#utility.yul\":2056:2278   */\n    tag_39:\n        /* \"#utility.yul\":2149:2153   */\n      0x00\n        /* \"#utility.yul\":2187:2189   */\n      0x20\n        /* \"#utility.yul\":2176:2185   */\n      dup3\n        /* \"#utility.yul\":2172:2190   */\n      add\n        /* \"#utility.yul\":2164:2190   */\n      swap1\n      pop\n        /* \"#utility.yul\":2200:2271   */\n      tag_403\n        /* \"#utility.yul\":2268:2269   */\n      0x00\n        /* \"#utility.yul\":2257:2266   */\n      dup4\n        /* \"#utility.yul\":2253:2270   */\n      add\n        /* \"#utility.yul\":2244:2250   */\n      dup5\n        /* \"#utility.yul\":2200:2271   */\n      tag_333\n      jump\t// in\n    tag_403:\n        /* \"#utility.yul\":2056:2278   */\n      swap3\n      swap2\n      pop\n      pop\n      jump\t// out\n        /* \"#utility.yul\":2284:2396   */\n    tag_334:\n        /* \"#utility.yul\":2369:2371   */\n      0x0b\n        /* \"#utility.yul\":2362:2367   */\n      dup2\n        /* \"#utility.yul\":2359:2372   */\n      lt\n        /* \"#utility.yul\":2349:2390   */\n      tag_405\n      jumpi\n        /* \"#utility.yul\":2386:2387   */\n      0x00\n        /* \"#utility.yul\":2383:2384   */\n      0x00\n        /* \"#utility.yul\":2376:2388   */\n      revert\n        /* \"#utility.yul\":2349:2390   */\n    tag_405:\n        /* \"#utility.yul\":2284:2396   */\n      pop\n      jump\t// out\n        /* \"#utility.yul\":2402:2565   */\n    tag_335:\n        /* \"#utility.yul\":2460:2465   */\n      0x00\n        /* \"#utility.yul\":2498:2504   */\n      dup2\n        /* \"#utility.yul\":2485:2505   */\n      calldataload\n        /* \"#utility.yul\":2476:2505   */\n      swap1\n      pop\n        /* \"#utility.yul\":2514:2559   */\n      tag_407\n        /* \"#utility.yul\":2553:2558   */\n      dup2\n        /* \"#utility.yul\":2514:2559   */\n      tag_334\n      jump\t// in\n    tag_407:\n        /* \"#utility.yul\":2402:2565   */\n      swap3\n      swap2\n      pop\n      pop\n      jump\t// out\n        /* \"#utility.yul\":2571:2924   */\n    tag_42:\n        /* \"#utility.yul\":2642:2648   */\n      0x00\n        /* \"#utility.yul\":2691:2693   */\n      0x20\n        /* \"#utility.yul\":2679:2688   */\n      dup3\n        /* \"#utility.yul\":2670:2677   */\n      dup5\n        /* \"#utility.yul\":2666:2689   */\n      sub\n        /* \"#utility.yul\":2662:2694   */\n      slt\n        /* \"#utility.yul\":2659:2778   */\n      iszero\n      tag_409\n      jumpi\n        /* \"#utility.yul\":2697:2776   */\n      tag_410\n      tag_326\n      jump\t// in\n    tag_410:\n        /* \"#utility.yul\":2659:2778   */\n    tag_409:\n        /* \"#utility.yul\":2817:2818   */\n      0x00\n        /* \"#utility.yul\":2842:2907   */\n      tag_411\n        /* \"#utility.yul\":2899:2906   */\n      dup5\n        /* \"#utility.yul\":2890:2896   */\n      dup3\n        /* \"#utility.yul\":2879:2888   */\n      dup6\n        /* \"#utility.yul\":2875:2897   */\n      add\n        /* \"#utility.yul\":2842:2907   */\n      tag_335\n      jump\t// in\n    tag_411:\n        /* \"#utility.yul\":2832:2907   */\n      swap2\n      pop\n        /* \"#utility.yul\":2788:2917   */\n      pop\n        /* \"#utility.yul\":2571:2924   */\n      swap3\n      swap2\n      pop\n      pop\n      jump\t// out\n        /* \"#utility.yul\":2930:3056   */\n    tag_336:\n        /* \"#utility.yul\":2967:2974   */\n      0x00\n        /* \"#utility.yul\":3007:3049   */\n      0xffffffffffffffffffffffffffffffffffffffff\n        /* \"#utility.yul\":3000:3005   */\n      dup3\n        /* \"#utility.yul\":2996:3050   */\n      and\n        /* \"#utility.yul\":2985:3050   */\n      swap1\n      pop\n        /* \"#utility.yul\":2930:3056   */\n      swap2\n      swap1\n      pop\n      jump\t// out\n        /* \"#utility.yul\":3062:3158   */\n    tag_337:\n        /* \"#utility.yul\":3099:3106   */\n      0x00\n        /* \"#utility.yul\":3128:3152   */\n      tag_414\n        /* \"#utility.yul\":3146:3151   */\n      dup3\n        /* \"#utility.yul\":3128:3152   */\n      tag_336\n      jump\t// in\n    tag_414:\n        /* \"#utility.yul\":3117:3152   */\n      swap1\n      pop\n        /* \"#utility.yul\":3062:3158   */\n      swap2\n      swap1\n      pop\n      jump\t// out\n        /* \"#utility.yul\":3164:3286   */\n    tag_338:\n        /* \"#utility.yul\":3237:3261   */\n      tag_416\n        /* \"#utility.yul\":3255:3260   */\n      dup2\n        /* \"#utility.yul\":3237:3261   */\n      tag_337\n      jump\t// in\n    tag_416:\n        /* \"#utility.yul\":3230:3235   */\n      dup2\n        /* \"#utility.yul\":3227:3262   */\n      eq\n        /* \"#utility.yul\":3217:3280   */\n      tag_417\n      jumpi\n        /* \"#utility.yul\":3276:3277   */\n      0x00\n        /* \"#utility.yul\":3273:3274   */\n      0x00\n        /* \"#utility.yul\":3266:3278   */\n      revert\n        /* \"#utility.yul\":3217:3280   */\n    tag_417:\n        /* \"#utility.yul\":3164:3286   */\n      pop\n      jump\t// out\n        /* \"#utility.yul\":3292:3431   */\n    tag_339:\n        /* \"#utility.yul\":3338:3343   */\n      0x00\n        /* \"#utility.yul\":3376:3382   */\n      dup2\n        /* \"#utility.yul\":3363:3383   */\n      calldataload\n        /* \"#utility.yul\":3354:3383   */\n      swap1\n      pop\n        /* \"#utility.yul\":3392:3425   */\n      tag_419\n        /* \"#utility.yul\":3419:3424   */\n      dup2\n        /* \"#utility.yul\":3392:3425   */\n      tag_338\n      jump\t// in\n    tag_419:\n        /* \"#utility.yul\":3292:3431   */\n      swap3\n      swap2\n      pop\n      pop\n      jump\t// out\n        /* \"#utility.yul\":3437:3766   */\n    tag_57:\n        /* \"#utility.yul\":3496:3502   */\n      0x00\n        /* \"#utility.yul\":3545:3547   */\n      0x20\n        /* \"#utility.yul\":3533:3542   */\n      dup3\n        /* \"#utility.yul\":3524:3531   */\n      dup5\n        /* \"#utility.yul\":3520:3543   */\n      sub\n        /* \"#utility.yul\":3516:3548   */\n      slt\n        /* \"#utility.yul\":3513:3632   */\n      iszero\n      tag_421\n      jumpi\n        /* \"#utility.yul\":3551:3630   */\n      tag_422\n      tag_326\n      jump\t// in\n    tag_422:\n        /* \"#utility.yul\":3513:3632   */\n    tag_421:\n        /* \"#utility.yul\":3671:3672   */\n      0x00\n        /* \"#utility.yul\":3696:3749   */\n      tag_423\n        /* \"#utility.yul\":3741:3748   */\n      dup5\n        /* \"#utility.yul\":3732:3738   */\n      dup3\n        /* \"#utility.yul\":3721:3730   */\n      dup6\n        /* \"#utility.yul\":3717:3739   */\n      add\n        /* \"#utility.yul\":3696:3749   */\n      tag_339\n      jump\t// in\n    tag_423:\n        /* \"#utility.yul\":3686:3749   */\n      swap2\n      pop\n        /* \"#utility.yul\":3642:3759   */\n      pop\n        /* \"#utility.yul\":3437:3766   */\n      swap3\n      swap2\n      pop\n      pop\n      jump\t// out\n        /* \"#utility.yul\":3772:3890   */\n    tag_340:\n        /* \"#utility.yul\":3859:3883   */\n      tag_425\n        /* \"#utility.yul\":3877:3882   */\n      dup2\n        /* \"#utility.yul\":3859:3883   */\n      tag_337\n      jump\t// in\n    tag_425:\n        /* \"#utility.yul\":3854:3857   */\n      dup3\n        /* \"#utility.yul\":3847:3884   */\n      mstore\n        /* \"#utility.yul\":3772:3890   */\n      pop\n      pop\n      jump\t// out\n        /* \"#utility.yul\":3896:4118   */\n    tag_66:\n        /* \"#utility.yul\":3989:3993   */\n      0x00\n        /* \"#utility.yul\":4027:4029   */\n      0x20\n        /* \"#utility.yul\":4016:4025   */\n      dup3\n        /* \"#utility.yul\":4012:4030   */\n      add\n        /* \"#utility.yul\":4004:4030   */\n      swap1\n      pop\n        /* \"#utility.yul\":4040:4111   */\n      tag_427\n        /* \"#utility.yul\":4108:4109   */\n      0x00\n        /* \"#utility.yul\":4097:4106   */\n      dup4\n        /* \"#utility.yul\":4093:4110   */\n      add\n        /* \"#utility.yul\":4084:4090   */\n      dup5\n        /* \"#utility.yul\":4040:4111   */\n      tag_340\n      jump\t// in\n    tag_427:\n        /* \"#utility.yul\":3896:4118   */\n      swap3\n      swap2\n      pop\n      pop\n      jump\t// out\n        /* \"#utility.yul\":4124:4223   */\n    tag_341:\n        /* \"#utility.yul\":4195:4216   */\n      tag_429\n        /* \"#utility.yul\":4210:4215   */\n      dup2\n        /* \"#utility.yul\":4195:4216   */\n      tag_331\n      jump\t// in\n    tag_429:\n        /* \"#utility.yul\":4190:4193   */\n      dup3\n        /* \"#utility.yul\":4183:4217   */\n      mstore\n        /* \"#utility.yul\":4124:4223   */\n      pop\n      pop\n      jump\t// out\n        /* \"#utility.yul\":4229:4337   */\n    tag_342:\n        /* \"#utility.yul\":4306:4330   */\n      tag_431\n        /* \"#utility.yul\":4324:4329   */\n      dup2\n        /* \"#utility.yul\":4306:4330   */\n      tag_328\n      jump\t// in\n    tag_431:\n        /* \"#utility.yul\":4301:4304   */\n      dup3\n        /* \"#utility.yul\":4294:4331   */\n      mstore\n        /* \"#utility.yul\":4229:4337   */\n      pop\n      pop\n      jump\t// out\n        /* \"#utility.yul\":4343:4523   */\n    tag_139:\n        /* \"#utility.yul\":4391:4468   */\n      0x4e487b7100000000000000000000000000000000000000000000000000000000\n        /* \"#utility.yul\":4388:4389   */\n      0x00\n        /* \"#utility.yul\":4381:4469   */\n      mstore\n        /* \"#utility.yul\":4488:4492   */\n      0x21\n        /* \"#utility.yul\":4485:4486   */\n      0x04\n        /* \"#utility.yul\":4478:4493   */\n      mstore\n        /* \"#utility.yul\":4512:4516   */\n      0x24\n        /* \"#utility.yul\":4509:4510   */\n      0x00\n        /* \"#utility.yul\":4502:4517   */\n      revert\n        /* \"#utility.yul\":4529:4647   */\n    tag_343:\n        /* \"#utility.yul\":4614:4616   */\n      0x0b\n        /* \"#utility.yul\":4607:4612   */\n      dup2\n        /* \"#utility.yul\":4604:4617   */\n      lt\n        /* \"#utility.yul\":4594:4641   */\n      tag_434\n      jumpi\n        /* \"#utility.yul\":4621:4639   */\n      tag_435\n      tag_139\n      jump\t// in\n    tag_435:\n        /* \"#utility.yul\":4594:4641   */\n    tag_434:\n        /* \"#utility.yul\":4529:4647   */\n      pop\n      jump\t// out\n        /* \"#utility.yul\":4653:4788   */\n    tag_344:\n        /* \"#utility.yul\":4702:4709   */\n      0x00\n        /* \"#utility.yul\":4731:4736   */\n      dup2\n        /* \"#utility.yul\":4720:4736   */\n      swap1\n      pop\n        /* \"#utility.yul\":4737:4782   */\n      tag_437\n        /* \"#utility.yul\":4776:4781   */\n      dup3\n        /* \"#utility.yul\":4737:4782   */\n      tag_343\n      jump\t// in\n    tag_437:\n        /* \"#utility.yul\":4653:4788   */\n      swap2\n      swap1\n      pop\n      jump\t// out\n        /* \"#utility.yul\":4794:4929   */\n    tag_345:\n        /* \"#utility.yul\":4854:4863   */\n      0x00\n        /* \"#utility.yul\":4887:4923   */\n      tag_439\n        /* \"#utility.yul\":4917:4922   */\n      dup3\n        /* \"#utility.yul\":4887:4923   */\n      tag_344\n      jump\t// in\n    tag_439:\n        /* \"#utility.yul\":4874:4923   */\n      swap1\n      pop\n        /* \"#utility.yul\":4794:4929   */\n      swap2\n      swap1\n      pop\n      jump\t// out\n        /* \"#utility.yul\":4935:5076   */\n    tag_346:\n        /* \"#utility.yul\":5022:5069   */\n      tag_441\n        /* \"#utility.yul\":5063:5068   */\n      dup2\n        /* \"#utility.yul\":5022:5069   */\n      tag_345\n      jump\t// in\n    tag_441:\n        /* \"#utility.yul\":5017:5020   */\n      dup3\n        /* \"#utility.yul\":5010:5070   */\n      mstore\n        /* \"#utility.yul\":4935:5076   */\n      pop\n      pop\n      jump\t// out\n        /* \"#utility.yul\":5134:6715   */\n    tag_347:\n        /* \"#utility.yul\":5281:5287   */\n      0x0100\n        /* \"#utility.yul\":5276:5279   */\n      dup3\n        /* \"#utility.yul\":5272:5288   */\n      add\n        /* \"#utility.yul\":5372:5376   */\n      0x00\n        /* \"#utility.yul\":5365:5370   */\n      dup3\n        /* \"#utility.yul\":5361:5377   */\n      add\n        /* \"#utility.yul\":5355:5378   */\n      mload\n        /* \"#utility.yul\":5391:5448   */\n      tag_443\n        /* \"#utility.yul\":5442:5446   */\n      0x00\n        /* \"#utility.yul\":5437:5440   */\n      dup6\n        /* \"#utility.yul\":5433:5447   */\n      add\n        /* \"#utility.yul\":5419:5431   */\n      dup3\n        /* \"#utility.yul\":5391:5448   */\n      tag_341\n      jump\t// in\n    tag_443:\n        /* \"#utility.yul\":5298:5458   */\n      pop\n        /* \"#utility.yul\":5539:5543   */\n      0x20\n        /* \"#utility.yul\":5532:5537   */\n      dup3\n        /* \"#utility.yul\":5528:5544   */\n      add\n        /* \"#utility.yul\":5522:5545   */\n      mload\n        /* \"#utility.yul\":5558:5621   */\n      tag_444\n        /* \"#utility.yul\":5615:5619   */\n      0x20\n        /* \"#utility.yul\":5610:5613   */\n      dup6\n        /* \"#utility.yul\":5606:5620   */\n      add\n        /* \"#utility.yul\":5592:5604   */\n      dup3\n        /* \"#utility.yul\":5558:5621   */\n      tag_342\n      jump\t// in\n    tag_444:\n        /* \"#utility.yul\":5468:5631   */\n      pop\n        /* \"#utility.yul\":5715:5719   */\n      0x40\n        /* \"#utility.yul\":5708:5713   */\n      dup3\n        /* \"#utility.yul\":5704:5720   */\n      add\n        /* \"#utility.yul\":5698:5721   */\n      mload\n        /* \"#utility.yul\":5734:5797   */\n      tag_445\n        /* \"#utility.yul\":5791:5795   */\n      0x40\n        /* \"#utility.yul\":5786:5789   */\n      dup6\n        /* \"#utility.yul\":5782:5796   */\n      add\n        /* \"#utility.yul\":5768:5780   */\n      dup3\n        /* \"#utility.yul\":5734:5797   */\n      tag_342\n      jump\t// in\n    tag_445:\n        /* \"#utility.yul\":5641:5807   */\n      pop\n        /* \"#utility.yul\":5891:5895   */\n      0x60\n        /* \"#utility.yul\":5884:5889   */\n      dup3\n        /* \"#utility.yul\":5880:5896   */\n      add\n        /* \"#utility.yul\":5874:5897   */\n      mload\n        /* \"#utility.yul\":5910:5973   */\n      tag_446\n        /* \"#utility.yul\":5967:5971   */\n      0x60\n        /* \"#utility.yul\":5962:5965   */\n      dup6\n        /* \"#utility.yul\":5958:5972   */\n      add\n        /* \"#utility.yul\":5944:5956   */\n      dup3\n        /* \"#utility.yul\":5910:5973   */\n      tag_342\n      jump\t// in\n    tag_446:\n        /* \"#utility.yul\":5817:5983   */\n      pop\n        /* \"#utility.yul\":6068:6072   */\n      0x80\n        /* \"#utility.yul\":6061:6066   */\n      dup3\n        /* \"#utility.yul\":6057:6073   */\n      add\n        /* \"#utility.yul\":6051:6074   */\n      mload\n        /* \"#utility.yul\":6087:6160   */\n      tag_447\n        /* \"#utility.yul\":6154:6158   */\n      0x80\n        /* \"#utility.yul\":6149:6152   */\n      dup6\n        /* \"#utility.yul\":6145:6159   */\n      add\n        /* \"#utility.yul\":6131:6143   */\n      dup3\n        /* \"#utility.yul\":6087:6160   */\n      tag_346\n      jump\t// in\n    tag_447:\n        /* \"#utility.yul\":5993:6170   */\n      pop\n        /* \"#utility.yul\":6262:6266   */\n      0xa0\n        /* \"#utility.yul\":6255:6260   */\n      dup3\n        /* \"#utility.yul\":6251:6267   */\n      add\n        /* \"#utility.yul\":6245:6268   */\n      mload\n        /* \"#utility.yul\":6281:6344   */\n      tag_448\n        /* \"#utility.yul\":6338:6342   */\n      0xa0\n        /* \"#utility.yul\":6333:6336   */\n      dup6\n        /* \"#utility.yul\":6329:6343   */\n      add\n        /* \"#utility.yul\":6315:6327   */\n      dup3\n        /* \"#utility.yul\":6281:6344   */\n      tag_342\n      jump\t// in\n    tag_448:\n        /* \"#utility.yul\":6180:6354   */\n      pop\n        /* \"#utility.yul\":6438:6442   */\n      0xc0\n        /* \"#utility.yul\":6431:6436   */\n      dup3\n        /* \"#utility.yul\":6427:6443   */\n      add\n        /* \"#utility.yul\":6421:6444   */\n      mload\n        /* \"#utility.yul\":6457:6514   */\n      tag_449\n        /* \"#utility.yul\":6508:6512   */\n      0xc0\n        /* \"#utility.yul\":6503:6506   */\n      dup6\n        /* \"#utility.yul\":6499:6513   */\n      add\n        /* \"#utility.yul\":6485:6497   */\n      dup3\n        /* \"#utility.yul\":6457:6514   */\n      tag_341\n      jump\t// in\n    tag_449:\n        /* \"#utility.yul\":6364:6524   */\n      pop\n        /* \"#utility.yul\":6616:6620   */\n      0xe0\n        /* \"#utility.yul\":6609:6614   */\n      dup3\n        /* \"#utility.yul\":6605:6621   */\n      add\n        /* \"#utility.yul\":6599:6622   */\n      mload\n        /* \"#utility.yul\":6635:6698   */\n      tag_450\n        /* \"#utility.yul\":6692:6696   */\n      0xe0\n        /* \"#utility.yul\":6687:6690   */\n      dup6\n        /* \"#utility.yul\":6683:6697   */\n      add\n        /* \"#utility.yul\":6669:6681   */\n      dup3\n        /* \"#utility.yul\":6635:6698   */\n      tag_342\n      jump\t// in\n    tag_450:\n        /* \"#utility.yul\":6534:6708   */\n      pop\n        /* \"#utility.yul\":5250:6715   */\n      pop\n        /* \"#utility.yul\":5134:6715   */\n      pop\n      pop\n      jump\t// out\n        /* \"#utility.yul\":6721:7044   */\n    tag_71:\n        /* \"#utility.yul\":6864:6868   */\n      0x00\n        /* \"#utility.yul\":6902:6905   */\n      0x0100\n        /* \"#utility.yul\":6891:6900   */\n      dup3\n        /* \"#utility.yul\":6887:6906   */\n      add\n        /* \"#utility.yul\":6879:6906   */\n      swap1\n      pop\n        /* \"#utility.yul\":6916:7037   */\n      tag_452\n        /* \"#utility.yul\":7034:7035   */\n      0x00\n        /* \"#utility.yul\":7023:7032   */\n      dup4\n        /* \"#utility.yul\":7019:7036   */\n      add\n        /* \"#utility.yul\":7010:7016   */\n      dup5\n        /* \"#utility.yul\":6916:7037   */\n      tag_347\n      jump\t// in\n    tag_452:\n        /* \"#utility.yul\":6721:7044   */\n      swap3\n      swap2\n      pop\n      pop\n      jump\t// out\n        /* \"#utility.yul\":7050:7524   */\n    tag_80:\n        /* \"#utility.yul\":7118:7124   */\n      0x00\n        /* \"#utility.yul\":7126:7132   */\n      0x00\n        /* \"#utility.yul\":7175:7177   */\n      0x40\n        /* \"#utility.yul\":7163:7172   */\n      dup4\n        /* \"#utility.yul\":7154:7161   */\n      dup6\n        /* \"#utility.yul\":7150:7173   */\n      sub\n        /* \"#utility.yul\":7146:7178   */\n      slt\n        /* \"#utility.yul\":7143:7262   */\n      iszero\n      tag_454\n      jumpi\n        /* \"#utility.yul\":7181:7260   */\n      tag_455\n      tag_326\n      jump\t// in\n    tag_455:\n        /* \"#utility.yul\":7143:7262   */\n    tag_454:\n        /* \"#utility.yul\":7301:7302   */\n      0x00\n        /* \"#utility.yul\":7326:7379   */\n      tag_456\n        /* \"#utility.yul\":7371:7378   */\n      dup6\n        /* \"#utility.yul\":7362:7368   */\n      dup3\n        /* \"#utility.yul\":7351:7360   */\n      dup7\n        /* \"#utility.yul\":7347:7369   */\n      add\n        /* \"#utility.yul\":7326:7379   */\n      tag_330\n      jump\t// in\n    tag_456:\n        /* \"#utility.yul\":7316:7379   */\n      swap3\n      pop\n        /* \"#utility.yul\":7272:7389   */\n      pop\n        /* \"#utility.yul\":7428:7430   */\n      0x20\n        /* \"#utility.yul\":7454:7507   */\n      tag_457\n        /* \"#utility.yul\":7499:7506   */\n      dup6\n        /* \"#utility.yul\":7490:7496   */\n      dup3\n        /* \"#utility.yul\":7479:7488   */\n      dup7\n        /* \"#utility.yul\":7475:7497   */\n      add\n        /* \"#utility.yul\":7454:7507   */\n      tag_339\n      jump\t// in\n    tag_457:\n        /* \"#utility.yul\":7444:7507   */\n      swap2\n      pop\n        /* \"#utility.yul\":7399:7517   */\n      pop\n        /* \"#utility.yul\":7050:7524   */\n      swap3\n      pop\n      swap3\n      swap1\n      pop\n      jump\t// out\n        /* \"#utility.yul\":7530:7681   */\n    tag_348:\n        /* \"#utility.yul\":7627:7674   */\n      tag_459\n        /* \"#utility.yul\":7668:7673   */\n      dup2\n        /* \"#utility.yul\":7627:7674   */\n      tag_345\n      jump\t// in\n    tag_459:\n        /* \"#utility.yul\":7622:7625   */\n      dup3\n        /* \"#utility.yul\":7615:7675   */\n      mstore\n        /* \"#utility.yul\":7530:7681   */\n      pop\n      pop\n      jump\t// out\n        /* \"#utility.yul\":7687:8680   */\n    tag_96:\n        /* \"#utility.yul\":7974:7978   */\n      0x00\n        /* \"#utility.yul\":8012:8015   */\n      0x0100\n        /* \"#utility.yul\":8001:8010   */\n      dup3\n        /* \"#utility.yul\":7997:8016   */\n      add\n        /* \"#utility.yul\":7989:8016   */\n      swap1\n      pop\n        /* \"#utility.yul\":8026:8091   */\n      tag_461\n        /* \"#utility.yul\":8088:8089   */\n      0x00\n        /* \"#utility.yul\":8077:8086   */\n      dup4\n        /* \"#utility.yul\":8073:8090   */\n      add\n        /* \"#utility.yul\":8064:8070   */\n      dup12\n        /* \"#utility.yul\":8026:8091   */\n      tag_332\n      jump\t// in\n    tag_461:\n        /* \"#utility.yul\":8101:8173   */\n      tag_462\n        /* \"#utility.yul\":8169:8171   */\n      0x20\n        /* \"#utility.yul\":8158:8167   */\n      dup4\n        /* \"#utility.yul\":8154:8172   */\n      add\n        /* \"#utility.yul\":8145:8151   */\n      dup11\n        /* \"#utility.yul\":8101:8173   */\n      tag_333\n      jump\t// in\n    tag_462:\n        /* \"#utility.yul\":8183:8255   */\n      tag_463\n        /* \"#utility.yul\":8251:8253   */\n      0x40\n        /* \"#utility.yul\":8240:8249   */\n      dup4\n        /* \"#utility.yul\":8236:8254   */\n      add\n        /* \"#utility.yul\":8227:8233   */\n      dup10\n        /* \"#utility.yul\":8183:8255   */\n      tag_333\n      jump\t// in\n    tag_463:\n        /* \"#utility.yul\":8265:8337   */\n      tag_464\n        /* \"#utility.yul\":8333:8335   */\n      0x60\n        /* \"#utility.yul\":8322:8331   */\n      dup4\n        /* \"#utility.yul\":8318:8336   */\n      add\n        /* \"#utility.yul\":8309:8315   */\n      dup9\n        /* \"#utility.yul\":8265:8337   */\n      tag_333\n      jump\t// in\n    tag_464:\n        /* \"#utility.yul\":8347:8430   */\n      tag_465\n        /* \"#utility.yul\":8425:8428   */\n      0x80\n        /* \"#utility.yul\":8414:8423   */\n      dup4\n        /* \"#utility.yul\":8410:8429   */\n      add\n        /* \"#utility.yul\":8401:8407   */\n      dup8\n        /* \"#utility.yul\":8347:8430   */\n      tag_348\n      jump\t// in\n    tag_465:\n        /* \"#utility.yul\":8440:8513   */\n      tag_466\n        /* \"#utility.yul\":8508:8511   */\n      0xa0\n        /* \"#utility.yul\":8497:8506   */\n      dup4\n        /* \"#utility.yul\":8493:8512   */\n      add\n        /* \"#utility.yul\":8484:8490   */\n      dup7\n        /* \"#utility.yul\":8440:8513   */\n      tag_333\n      jump\t// in\n    tag_466:\n        /* \"#utility.yul\":8523:8590   */\n      tag_467\n        /* \"#utility.yul\":8585:8588   */\n      0xc0\n        /* \"#utility.yul\":8574:8583   */\n      dup4\n        /* \"#utility.yul\":8570:8589   */\n      add\n        /* \"#utility.yul\":8561:8567   */\n      dup6\n        /* \"#utility.yul\":8523:8590   */\n      tag_332\n      jump\t// in\n    tag_467:\n        /* \"#utility.yul\":8600:8673   */\n      tag_468\n        /* \"#utility.yul\":8668:8671   */\n      0xe0\n        /* \"#utility.yul\":8657:8666   */\n      dup4\n        /* \"#utility.yul\":8653:8672   */\n      add\n        /* \"#utility.yul\":8644:8650   */\n      dup5\n        /* \"#utility.yul\":8600:8673   */\n      tag_333\n      jump\t// in\n    tag_468:\n        /* \"#utility.yul\":7687:8680   */\n      swap10\n      swap9\n      pop\n      pop\n      pop\n      pop\n      pop\n      pop\n      pop\n      pop\n      pop\n      jump\t// out\n        /* \"#utility.yul\":8686:8785   */\n    tag_349:\n        /* \"#utility.yul\":8738:8744   */\n      0x00\n        /* \"#utility.yul\":8772:8777   */\n      dup2\n        /* \"#utility.yul\":8766:8778   */\n      mload\n        /* \"#utility.yul\":8756:8778   */\n      swap1\n      pop\n        /* \"#utility.yul\":8686:8785   */\n      swap2\n      swap1\n      pop\n      jump\t// out\n        /* \"#utility.yul\":8791:8960   */\n    tag_350:\n        /* \"#utility.yul\":8875:8886   */\n      0x00\n        /* \"#utility.yul\":8909:8915   */\n      dup3\n        /* \"#utility.yul\":8904:8907   */\n      dup3\n        /* \"#utility.yul\":8897:8916   */\n      mstore\n        /* \"#utility.yul\":8949:8953   */\n      0x20\n        /* \"#utility.yul\":8944:8947   */\n      dup3\n        /* \"#utility.yul\":8940:8954   */\n      add\n        /* \"#utility.yul\":8925:8954   */\n      swap1\n      pop\n        /* \"#utility.yul\":8791:8960   */\n      swap3\n      swap2\n      pop\n      pop\n      jump\t// out\n        /* \"#utility.yul\":8966:9105   */\n    tag_351:\n        /* \"#utility.yul\":9055:9061   */\n      dup3\n        /* \"#utility.yul\":9050:9053   */\n      dup2\n        /* \"#utility.yul\":9045:9048   */\n      dup4\n        /* \"#utility.yul\":9039:9062   */\n      mcopy\n        /* \"#utility.yul\":9096:9097   */\n      0x00\n        /* \"#utility.yul\":9087:9093   */\n      dup4\n        /* \"#utility.yul\":9082:9085   */\n      dup4\n        /* \"#utility.yul\":9078:9094   */\n      add\n        /* \"#utility.yul\":9071:9098   */\n      mstore\n        /* \"#utility.yul\":8966:9105   */\n      pop\n      pop\n      pop\n      jump\t// out\n        /* \"#utility.yul\":9111:9213   */\n    tag_352:\n        /* \"#utility.yul\":9152:9158   */\n      0x00\n        /* \"#utility.yul\":9203:9205   */\n      0x1f\n        /* \"#utility.yul\":9199:9206   */\n      not\n        /* \"#utility.yul\":9194:9196   */\n      0x1f\n        /* \"#utility.yul\":9187:9192   */\n      dup4\n        /* \"#utility.yul\":9183:9197   */\n      add\n        /* \"#utility.yul\":9179:9207   */\n      and\n        /* \"#utility.yul\":9169:9207   */\n      swap1\n      pop\n        /* \"#utility.yul\":9111:9213   */\n      swap2\n      swap1\n      pop\n      jump\t// out\n        /* \"#utility.yul\":9219:9596   */\n    tag_353:\n        /* \"#utility.yul\":9307:9310   */\n      0x00\n        /* \"#utility.yul\":9335:9374   */\n      tag_474\n        /* \"#utility.yul\":9368:9373   */\n      dup3\n        /* \"#utility.yul\":9335:9374   */\n      tag_349\n      jump\t// in\n    tag_474:\n        /* \"#utility.yul\":9390:9461   */\n      tag_475\n        /* \"#utility.yul\":9454:9460   */\n      dup2\n        /* \"#utility.yul\":9449:9452   */\n      dup6\n        /* \"#utility.yul\":9390:9461   */\n      tag_350\n      jump\t// in\n    tag_475:\n        /* \"#utility.yul\":9383:9461   */\n      swap4\n      pop\n        /* \"#utility.yul\":9470:9535   */\n      tag_476\n        /* \"#utility.yul\":9528:9534   */\n      dup2\n        /* \"#utility.yul\":9523:9526   */\n      dup6\n        /* \"#utility.yul\":9516:9520   */\n      0x20\n        /* \"#utility.yul\":9509:9514   */\n      dup7\n        /* \"#utility.yul\":9505:9521   */\n      add\n        /* \"#utility.yul\":9470:9535   */\n      tag_351\n      jump\t// in\n    tag_476:\n        /* \"#utility.yul\":9560:9589   */\n      tag_477\n        /* \"#utility.yul\":9582:9588   */\n      dup2\n        /* \"#utility.yul\":9560:9589   */\n      tag_352\n      jump\t// in\n    tag_477:\n        /* \"#utility.yul\":9555:9558   */\n      dup5\n        /* \"#utility.yul\":9551:9590   */\n      add\n        /* \"#utility.yul\":9544:9590   */\n      swap2\n      pop\n        /* \"#utility.yul\":9311:9596   */\n      pop\n        /* \"#utility.yul\":9219:9596   */\n      swap3\n      swap2\n      pop\n      pop\n      jump\t// out\n        /* \"#utility.yul\":9602:9915   */\n    tag_104:\n        /* \"#utility.yul\":9715:9719   */\n      0x00\n        /* \"#utility.yul\":9753:9755   */\n      0x20\n        /* \"#utility.yul\":9742:9751   */\n      dup3\n        /* \"#utility.yul\":9738:9756   */\n      add\n        /* \"#utility.yul\":9730:9756   */\n      swap1\n      pop\n        /* \"#utility.yul\":9802:9811   */\n      dup2\n        /* \"#utility.yul\":9796:9800   */\n      dup2\n        /* \"#utility.yul\":9792:9812   */\n      sub\n        /* \"#utility.yul\":9788:9789   */\n      0x00\n        /* \"#utility.yul\":9777:9786   */\n      dup4\n        /* \"#utility.yul\":9773:9790   */\n      add\n        /* \"#utility.yul\":9766:9813   */\n      mstore\n        /* \"#utility.yul\":9830:9908   */\n      tag_479\n        /* \"#utility.yul\":9903:9907   */\n      dup2\n        /* \"#utility.yul\":9894:9900   */\n      dup5\n        /* \"#utility.yul\":9830:9908   */\n      tag_353\n      jump\t// in\n    tag_479:\n        /* \"#utility.yul\":9822:9908   */\n      swap1\n      pop\n        /* \"#utility.yul\":9602:9915   */\n      swap3\n      swap2\n      pop\n      pop\n      jump\t// out\n        /* \"#utility.yul\":9921:10094   */\n    tag_354:\n        /* \"#utility.yul\":10061:10086   */\n      0x4f6e6c79205061726b2063616e2063616c6c2074686973000000000000000000\n        /* \"#utility.yul\":10057:10058   */\n      0x00\n        /* \"#utility.yul\":10049:10055   */\n      dup3\n        /* \"#utility.yul\":10045:10059   */\n      add\n        /* \"#utility.yul\":10038:10087   */\n      mstore\n        /* \"#utility.yul\":9921:10094   */\n      pop\n      jump\t// out\n        /* \"#utility.yul\":10100:10466   */\n    tag_355:\n        /* \"#utility.yul\":10242:10245   */\n      0x00\n        /* \"#utility.yul\":10263:10330   */\n      tag_482\n        /* \"#utility.yul\":10327:10329   */\n      0x17\n        /* \"#utility.yul\":10322:10325   */\n      dup4\n        /* \"#utility.yul\":10263:10330   */\n      tag_350\n      jump\t// in\n    tag_482:\n        /* \"#utility.yul\":10256:10330   */\n      swap2\n      pop\n        /* \"#utility.yul\":10339:10432   */\n      tag_483\n        /* \"#utility.yul\":10428:10431   */\n      dup3\n        /* \"#utility.yul\":10339:10432   */\n      tag_354\n      jump\t// in\n    tag_483:\n        /* \"#utility.yul\":10457:10459   */\n      0x20\n        /* \"#utility.yul\":10452:10455   */\n      dup3\n        /* \"#utility.yul\":10448:10460   */\n      add\n        /* \"#utility.yul\":10441:10460   */\n      swap1\n      pop\n        /* \"#utility.yul\":10100:10466   */\n      swap2\n      swap1\n      pop\n      jump\t// out\n        /* \"#utility.yul\":10472:10891   */\n    tag_108:\n        /* \"#utility.yul\":10638:10642   */\n      0x00\n        /* \"#utility.yul\":10676:10678   */\n      0x20\n        /* \"#utility.yul\":10665:10674   */\n      dup3\n        /* \"#utility.yul\":10661:10679   */\n      add\n        /* \"#utility.yul\":10653:10679   */\n      swap1\n      pop\n        /* \"#utility.yul\":10725:10734   */\n      dup2\n        /* \"#utility.yul\":10719:10723   */\n      dup2\n        /* \"#utility.yul\":10715:10735   */\n      sub\n        /* \"#utility.yul\":10711:10712   */\n      0x00\n        /* \"#utility.yul\":10700:10709   */\n      dup4\n        /* \"#utility.yul\":10696:10713   */\n      add\n        /* \"#utility.yul\":10689:10736   */\n      mstore\n        /* \"#utility.yul\":10753:10884   */\n      tag_485\n        /* \"#utility.yul\":10879:10883   */\n      dup2\n        /* \"#utility.yul\":10753:10884   */\n      tag_355\n      jump\t// in\n    tag_485:\n        /* \"#utility.yul\":10745:10884   */\n      swap1\n      pop\n        /* \"#utility.yul\":10472:10891   */\n      swap2\n      swap1\n      pop\n      jump\t// out\n        /* \"#utility.yul\":10897:11070   */\n    tag_356:\n        /* \"#utility.yul\":11037:11062   */\n      0x54686174206269726420646f65736e2774206578697374000000000000000000\n        /* \"#utility.yul\":11033:11034   */\n      0x00\n        /* \"#utility.yul\":11025:11031   */\n      dup3\n        /* \"#utility.yul\":11021:11035   */\n      add\n        /* \"#utility.yul\":11014:11063   */\n      mstore\n        /* \"#utility.yul\":10897:11070   */\n      pop\n      jump\t// out\n        /* \"#utility.yul\":11076:11442   */\n    tag_357:\n        /* \"#utility.yul\":11218:11221   */\n      0x00\n        /* \"#utility.yul\":11239:11306   */\n      tag_488\n        /* \"#utility.yul\":11303:11305   */\n      0x17\n        /* \"#utility.yul\":11298:11301   */\n      dup4\n        /* \"#utility.yul\":11239:11306   */\n      tag_350\n      jump\t// in\n    tag_488:\n        /* \"#utility.yul\":11232:11306   */\n      swap2\n      pop\n        /* \"#utility.yul\":11315:11408   */\n      tag_489\n        /* \"#utility.yul\":11404:11407   */\n      dup3\n        /* \"#utility.yul\":11315:11408   */\n      tag_356\n      jump\t// in\n    tag_489:\n        /* \"#utility.yul\":11433:11435   */\n      0x20\n        /* \"#utility.yul\":11428:11431   */\n      dup3\n        /* \"#utility.yul\":11424:11436   */\n      add\n        /* \"#utility.yul\":11417:11436   */\n      swap1\n      pop\n        /* \"#utility.yul\":11076:11442   */\n      swap2\n      swap1\n      pop\n      jump\t// out\n        /* \"#utility.yul\":11448:11867   */\n    tag_115:\n        /* \"#utility.yul\":11614:11618   */\n      0x00\n        /* \"#utility.yul\":11652:11654   */\n      0x20\n        /* \"#utility.yul\":11641:11650   */\n      dup3\n        /* \"#utility.yul\":11637:11655   */\n      add\n        /* \"#utility.yul\":11629:11655   */\n      swap1\n      pop\n        /* \"#utility.yul\":11701:11710   */\n      dup2\n        /* \"#utility.yul\":11695:11699   */\n      dup2\n        /* \"#utility.yul\":11691:11711   */\n      sub\n        /* \"#utility.yul\":11687:11688   */\n      0x00\n        /* \"#utility.yul\":11676:11685   */\n      dup4\n        /* \"#utility.yul\":11672:11689   */\n      add\n        /* \"#utility.yul\":11665:11712   */\n      mstore\n        /* \"#utility.yul\":11729:11860   */\n      tag_491\n        /* \"#utility.yul\":11855:11859   */\n      dup2\n        /* \"#utility.yul\":11729:11860   */\n      tag_357\n      jump\t// in\n    tag_491:\n        /* \"#utility.yul\":11721:11860   */\n      swap1\n      pop\n        /* \"#utility.yul\":11448:11867   */\n      swap2\n      swap1\n      pop\n      jump\t// out\n        /* \"#utility.yul\":11873:12046   */\n    tag_358:\n        /* \"#utility.yul\":12013:12038   */\n      0x43616e6e6f742066656564206120646561642062697264000000000000000000\n        /* \"#utility.yul\":12009:12010   */\n      0x00\n        /* \"#utility.yul\":12001:12007   */\n      dup3\n        /* \"#utility.yul\":11997:12011   */\n      add\n        /* \"#utility.yul\":11990:12039   */\n      mstore\n        /* \"#utility.yul\":11873:12046   */\n      pop\n      jump\t// out\n        /* \"#utility.yul\":12052:12418   */\n    tag_359:\n        /* \"#utility.yul\":12194:12197   */\n      0x00\n        /* \"#utility.yul\":12215:12282   */\n      tag_494\n        /* \"#utility.yul\":12279:12281   */\n      0x17\n        /* \"#utility.yul\":12274:12277   */\n      dup4\n        /* \"#utility.yul\":12215:12282   */\n      tag_350\n      jump\t// in\n    tag_494:\n        /* \"#utility.yul\":12208:12282   */\n      swap2\n      pop\n        /* \"#utility.yul\":12291:12384   */\n      tag_495\n        /* \"#utility.yul\":12380:12383   */\n      dup3\n        /* \"#utility.yul\":12291:12384   */\n      tag_358\n      jump\t// in\n    tag_495:\n        /* \"#utility.yul\":12409:12411   */\n      0x20\n        /* \"#utility.yul\":12404:12407   */\n      dup3\n        /* \"#utility.yul\":12400:12412   */\n      add\n        /* \"#utility.yul\":12393:12412   */\n      swap1\n      pop\n        /* \"#utility.yul\":12052:12418   */\n      swap2\n      swap1\n      pop\n      jump\t// out\n        /* \"#utility.yul\":12424:12843   */\n    tag_118:\n        /* \"#utility.yul\":12590:12594   */\n      0x00\n        /* \"#utility.yul\":12628:12630   */\n      0x20\n        /* \"#utility.yul\":12617:12626   */\n      dup3\n        /* \"#utility.yul\":12613:12631   */\n      add\n        /* \"#utility.yul\":12605:12631   */\n      swap1\n      pop\n        /* \"#utility.yul\":12677:12686   */\n      dup2\n        /* \"#utility.yul\":12671:12675   */\n      dup2\n        /* \"#utility.yul\":12667:12687   */\n      sub\n        /* \"#utility.yul\":12663:12664   */\n      0x00\n        /* \"#utility.yul\":12652:12661   */\n      dup4\n        /* \"#utility.yul\":12648:12665   */\n      add\n        /* \"#utility.yul\":12641:12688   */\n      mstore\n        /* \"#utility.yul\":12705:12836   */\n      tag_497\n        /* \"#utility.yul\":12831:12835   */\n      dup2\n        /* \"#utility.yul\":12705:12836   */\n      tag_359\n      jump\t// in\n    tag_497:\n        /* \"#utility.yul\":12697:12836   */\n      swap1\n      pop\n        /* \"#utility.yul\":12424:12843   */\n      swap2\n      swap1\n      pop\n      jump\t// out\n        /* \"#utility.yul\":12849:13029   */\n    tag_360:\n        /* \"#utility.yul\":12897:12974   */\n      0x4e487b7100000000000000000000000000000000000000000000000000000000\n        /* \"#utility.yul\":12894:12895   */\n      0x00\n        /* \"#utility.yul\":12887:12975   */\n      mstore\n        /* \"#utility.yul\":12994:12998   */\n      0x11\n        /* \"#utility.yul\":12991:12992   */\n      0x04\n        /* \"#utility.yul\":12984:12999   */\n      mstore\n        /* \"#utility.yul\":13018:13022   */\n      0x24\n        /* \"#utility.yul\":13015:13016   */\n      0x00\n        /* \"#utility.yul\":13008:13023   */\n      revert\n        /* \"#utility.yul\":13035:13229   */\n    tag_121:\n        /* \"#utility.yul\":13075:13079   */\n      0x00\n        /* \"#utility.yul\":13095:13115   */\n      tag_500\n        /* \"#utility.yul\":13113:13114   */\n      dup3\n        /* \"#utility.yul\":13095:13115   */\n      tag_328\n      jump\t// in\n    tag_500:\n        /* \"#utility.yul\":13090:13115   */\n      swap2\n      pop\n        /* \"#utility.yul\":13129:13149   */\n      tag_501\n        /* \"#utility.yul\":13147:13148   */\n      dup4\n        /* \"#utility.yul\":13129:13149   */\n      tag_328\n      jump\t// in\n    tag_501:\n        /* \"#utility.yul\":13124:13149   */\n      swap3\n      pop\n        /* \"#utility.yul\":13173:13174   */\n      dup3\n        /* \"#utility.yul\":13170:13171   */\n      dup3\n        /* \"#utility.yul\":13166:13175   */\n      sub\n        /* \"#utility.yul\":13158:13175   */\n      swap1\n      pop\n        /* \"#utility.yul\":13197:13198   */\n      dup2\n        /* \"#utility.yul\":13191:13195   */\n      dup2\n        /* \"#utility.yul\":13188:13199   */\n      gt\n        /* \"#utility.yul\":13185:13222   */\n      iszero\n      tag_502\n      jumpi\n        /* \"#utility.yul\":13202:13220   */\n      tag_503\n      tag_360\n      jump\t// in\n    tag_503:\n        /* \"#utility.yul\":13185:13222   */\n    tag_502:\n        /* \"#utility.yul\":13035:13229   */\n      swap3\n      swap2\n      pop\n      pop\n      jump\t// out\n        /* \"#utility.yul\":13235:13468   */\n    tag_130:\n        /* \"#utility.yul\":13274:13277   */\n      0x00\n        /* \"#utility.yul\":13297:13321   */\n      tag_505\n        /* \"#utility.yul\":13315:13320   */\n      dup3\n        /* \"#utility.yul\":13297:13321   */\n      tag_328\n      jump\t// in\n    tag_505:\n        /* \"#utility.yul\":13288:13321   */\n      swap2\n      pop\n        /* \"#utility.yul\":13343:13409   */\n      0xffffffffffffffffffffffffffffffffffffffffffffffffffffffffffffffff\n        /* \"#utility.yul\":13336:13341   */\n      dup3\n        /* \"#utility.yul\":13333:13410   */\n      sub\n        /* \"#utility.yul\":13330:13433   */\n      tag_506\n      jumpi\n        /* \"#utility.yul\":13413:13431   */\n      tag_507\n      tag_360\n      jump\t// in\n    tag_507:\n        /* \"#utility.yul\":13330:13433   */\n    tag_506:\n        /* \"#utility.yul\":13460:13461   */\n      0x01\n        /* \"#utility.yul\":13453:13458   */\n      dup3\n        /* \"#utility.yul\":13449:13462   */\n      add\n        /* \"#utility.yul\":13442:13462   */\n      swap1\n      pop\n        /* \"#utility.yul\":13235:13468   */\n      swap2\n      swap1\n      pop\n      jump\t// out\n        /* \"#utility.yul\":13474:13640   */\n    tag_361:\n        /* \"#utility.yul\":13614:13632   */\n      0x5061726b20616c72656164792073657400000000000000000000000000000000\n        /* \"#utility.yul\":13610:13611   */\n      0x00\n        /* \"#utility.yul\":13602:13608   */\n      dup3\n        /* \"#utility.yul\":13598:13612   */\n      add\n        /* \"#utility.yul\":13591:13633   */\n      mstore\n        /* \"#utility.yul\":13474:13640   */\n      pop\n      jump\t// out\n        /* \"#utility.yul\":13646:14012   */\n    tag_362:\n        /* \"#utility.yul\":13788:13791   */\n      0x00\n        /* \"#utility.yul\":13809:13876   */\n      tag_510\n        /* \"#utility.yul\":13873:13875   */\n      0x10\n        /* \"#utility.yul\":13868:13871   */\n      dup4\n        /* \"#utility.yul\":13809:13876   */\n      tag_350\n      jump\t// in\n    tag_510:\n        /* \"#utility.yul\":13802:13876   */\n      swap2\n      pop\n        /* \"#utility.yul\":13885:13978   */\n      tag_511\n        /* \"#utility.yul\":13974:13977   */\n      dup3\n        /* \"#utility.yul\":13885:13978   */\n      tag_361\n      jump\t// in\n    tag_511:\n        /* \"#utility.yul\":14003:14005   */\n      0x20\n        /* \"#utility.yul\":13998:14001   */\n      dup3\n        /* \"#utility.yul\":13994:14006   */\n      add\n        /* \"#utility.yul\":13987:14006   */\n      swap1\n      pop\n        /* \"#utility.yul\":13646:14012   */\n      swap2\n      swap1\n      pop\n      jump\t// out\n        /* \"#utility.yul\":14018:14437   */\n    tag_169:\n        /* \"#utility.yul\":14184:14188   */\n      0x00\n        /* \"#utility.yul\":14222:14224   */\n      0x20\n        /* \"#utility.yul\":14211:14220   */\n      dup3\n        /* \"#utility.yul\":14207:14225   */\n      add\n        /* \"#utility.yul\":14199:14225   */\n      swap1\n      pop\n        /* \"#utility.yul\":14271:14280   */\n      dup2\n        /* \"#utility.yul\":14265:14269   */\n      dup2\n        /* \"#utility.yul\":14261:14281   */\n      sub\n        /* \"#utility.yul\":14257:14258   */\n      0x00\n        /* \"#utility.yul\":14246:14255   */\n      dup4\n        /* \"#utility.yul\":14242:14259   */\n      add\n        /* \"#utility.yul\":14235:14282   */\n      mstore\n        /* \"#utility.yul\":14299:14430   */\n      tag_513\n        /* \"#utility.yul\":14425:14429   */\n      dup2\n        /* \"#utility.yul\":14299:14430   */\n      tag_362\n      jump\t// in\n    tag_513:\n        /* \"#utility.yul\":14291:14430   */\n      swap1\n      pop\n        /* \"#utility.yul\":14018:14437   */\n      swap2\n      swap1\n      pop\n      jump\t// out\n        /* \"#utility.yul\":14443:14601   */\n    tag_363:\n        /* \"#utility.yul\":14583:14593   */\n      0x4e6f742064656164000000000000000000000000000000000000000000000000\n        /* \"#utility.yul\":14579:14580   */\n      0x00\n        /* \"#utility.yul\":14571:14577   */\n      dup3\n        /* \"#utility.yul\":14567:14581   */\n      add\n        /* \"#utility.yul\":14560:14594   */\n      mstore\n        /* \"#utility.yul\":14443:14601   */\n      pop\n      jump\t// out\n        /* \"#utility.yul\":14607:14972   */\n    tag_364:\n        /* \"#utility.yul\":14749:14752   */\n      0x00\n        /* \"#utility.yul\":14770:14836   */\n      tag_516\n        /* \"#utility.yul\":14834:14835   */\n      0x08\n        /* \"#utility.yul\":14829:14832   */\n      dup4\n        /* \"#utility.yul\":14770:14836   */\n      tag_350\n      jump\t// in\n    tag_516:\n        /* \"#utility.yul\":14763:14836   */\n      swap2\n      pop\n        /* \"#utility.yul\":14845:14938   */\n      tag_517\n        /* \"#utility.yul\":14934:14937   */\n      dup3\n        /* \"#utility.yul\":14845:14938   */\n      tag_363\n      jump\t// in\n    tag_517:\n        /* \"#utility.yul\":14963:14965   */\n      0x20\n        /* \"#utility.yul\":14958:14961   */\n      dup3\n        /* \"#utility.yul\":14954:14966   */\n      add\n        /* \"#utility.yul\":14947:14966   */\n      swap1\n      pop\n        /* \"#utility.yul\":14607:14972   */\n      swap2\n      swap1\n      pop\n      jump\t// out\n        /* \"#utility.yul\":14978:15397   */\n    tag_186:\n        /* \"#utility.yul\":15144:15148   */\n      0x00\n        /* \"#utility.yul\":15182:15184   */\n      0x20\n        /* \"#utility.yul\":15171:15180   */\n      dup3\n        /* \"#utility.yul\":15167:15185   */\n      add\n        /* \"#utility.yul\":15159:15185   */\n      swap1\n      pop\n        /* \"#utility.yul\":15231:15240   */\n      dup2\n        /* \"#utility.yul\":15225:15229   */\n      dup2\n        /* \"#utility.yul\":15221:15241   */\n      sub\n        /* \"#utility.yul\":15217:15218   */\n      0x00\n        /* \"#utility.yul\":15206:15215   */\n      dup4\n        /* \"#utility.yul\":15202:15219   */\n      add\n        /* \"#utility.yul\":15195:15242   */\n      mstore\n        /* \"#utility.yul\":15259:15390   */\n      tag_519\n        /* \"#utility.yul\":15385:15389   */\n      dup2\n        /* \"#utility.yul\":15259:15390   */\n      tag_364\n      jump\t// in\n    tag_519:\n        /* \"#utility.yul\":15251:15390   */\n      swap1\n      pop\n        /* \"#utility.yul\":14978:15397   */\n      swap2\n      swap1\n      pop\n      jump\t// out\n        /* \"#utility.yul\":15403:15566   */\n    tag_365:\n        /* \"#utility.yul\":15543:15558   */\n      0x4e6f7420746865206f776e657200000000000000000000000000000000000000\n        /* \"#utility.yul\":15539:15540   */\n      0x00\n        /* \"#utility.yul\":15531:15537   */\n      dup3\n        /* \"#utility.yul\":15527:15541   */\n      add\n        /* \"#utility.yul\":15520:15559   */\n      mstore\n        /* \"#utility.yul\":15403:15566   */\n      pop\n      jump\t// out\n        /* \"#utility.yul\":15572:15938   */\n    tag_366:\n        /* \"#utility.yul\":15714:15717   */\n      0x00\n        /* \"#utility.yul\":15735:15802   */\n      tag_522\n        /* \"#utility.yul\":15799:15801   */\n      0x0d\n        /* \"#utility.yul\":15794:15797   */\n      dup4\n        /* \"#utility.yul\":15735:15802   */\n      tag_350\n      jump\t// in\n    tag_522:\n        /* \"#utility.yul\":15728:15802   */\n      swap2\n      pop\n        /* \"#utility.yul\":15811:15904   */\n      tag_523\n        /* \"#utility.yul\":15900:15903   */\n      dup3\n        /* \"#utility.yul\":15811:15904   */\n      tag_365\n      jump\t// in\n    tag_523:\n        /* \"#utility.yul\":15929:15931   */\n      0x20\n        /* \"#utility.yul\":15924:15927   */\n      dup3\n        /* \"#utility.yul\":15920:15932   */\n      add\n        /* \"#utility.yul\":15913:15932   */\n      swap1\n      pop\n        /* \"#utility.yul\":15572:15938   */\n      swap2\n      swap1\n      pop\n      jump\t// out\n        /* \"#utility.yul\":15944:16363   */\n    tag_194:\n        /* \"#utility.yul\":16110:16114   */\n      0x00\n        /* \"#utility.yul\":16148:16150   */\n      0x20\n        /* \"#utility.yul\":16137:16146   */\n      dup3\n        /* \"#utility.yul\":16133:16151   */\n      add\n        /* \"#utility.yul\":16125:16151   */\n      swap1\n      pop\n        /* \"#utility.yul\":16197:16206   */\n      dup2\n        /* \"#utility.yul\":16191:16195   */\n      dup2\n        /* \"#utility.yul\":16187:16207   */\n      sub\n        /* \"#utility.yul\":16183:16184   */\n      0x00\n        /* \"#utility.yul\":16172:16181   */\n      dup4\n        /* \"#utility.yul\":16168:16185   */\n      add\n        /* \"#utility.yul\":16161:16208   */\n      mstore\n        /* \"#utility.yul\":16225:16356   */\n      tag_525\n        /* \"#utility.yul\":16351:16355   */\n      dup2\n        /* \"#utility.yul\":16225:16356   */\n      tag_366\n      jump\t// in\n    tag_525:\n        /* \"#utility.yul\":16217:16356   */\n      swap1\n      pop\n        /* \"#utility.yul\":15944:16363   */\n      swap2\n      swap1\n      pop\n      jump\t// out\n        /* \"#utility.yul\":16369:16534   */\n    tag_367:\n        /* \"#utility.yul\":16509:16526   */\n      0x496e76616c696420616464726573730000000000000000000000000000000000\n        /* \"#utility.yul\":16505:16506   */\n      0x00\n        /* \"#utility.yul\":16497:16503   */\n      dup3\n        /* \"#utility.yul\":16493:16507   */\n      add\n        /* \"#utility.yul\":16486:16527   */\n      mstore\n        /* \"#utility.yul\":16369:16534   */\n      pop\n      jump\t// out\n        /* \"#utility.yul\":16540:16906   */\n    tag_368:\n        /* \"#utility.yul\":16682:16685   */\n      0x00\n        /* \"#utility.yul\":16703:16770   */\n      tag_528\n        /* \"#utility.yul\":16767:16769   */\n      0x0f\n        /* \"#utility.yul\":16762:16765   */\n      dup4\n        /* \"#utility.yul\":16703:16770   */\n      tag_350\n      jump\t// in\n    tag_528:\n        /* \"#utility.yul\":16696:16770   */\n      swap2\n      pop\n        /* \"#utility.yul\":16779:16872   */\n      tag_529\n        /* \"#utility.yul\":16868:16871   */\n      dup3\n        /* \"#utility.yul\":16779:16872   */\n      tag_367\n      jump\t// in\n    tag_529:\n        /* \"#utility.yul\":16897:16899   */\n      0x20\n        /* \"#utility.yul\":16892:16895   */\n      dup3\n        /* \"#utility.yul\":16888:16900   */\n      add\n        /* \"#utility.yul\":16881:16900   */\n      swap1\n      pop\n        /* \"#utility.yul\":16540:16906   */\n      swap2\n      swap1\n      pop\n      jump\t// out\n        /* \"#utility.yul\":16912:17331   */\n    tag_197:\n        /* \"#utility.yul\":17078:17082   */\n      0x00\n        /* \"#utility.yul\":17116:17118   */\n      0x20\n        /* \"#utility.yul\":17105:17114   */\n      dup3\n        /* \"#utility.yul\":17101:17119   */\n      add\n        /* \"#utility.yul\":17093:17119   */\n      swap1\n      pop\n        /* \"#utility.yul\":17165:17174   */\n      dup2\n        /* \"#utility.yul\":17159:17163   */\n      dup2\n        /* \"#utility.yul\":17155:17175   */\n      sub\n        /* \"#utility.yul\":17151:17152   */\n      0x00\n        /* \"#utility.yul\":17140:17149   */\n      dup4\n        /* \"#utility.yul\":17136:17153   */\n      add\n        /* \"#utility.yul\":17129:17176   */\n      mstore\n        /* \"#utility.yul\":17193:17324   */\n      tag_531\n        /* \"#utility.yul\":17319:17323   */\n      dup2\n        /* \"#utility.yul\":17193:17324   */\n      tag_368\n      jump\t// in\n    tag_531:\n        /* \"#utility.yul\":17185:17324   */\n      swap1\n      pop\n        /* \"#utility.yul\":16912:17331   */\n      swap2\n      swap1\n      pop\n      jump\t// out\n        /* \"#utility.yul\":17337:17747   */\n    tag_204:\n        /* \"#utility.yul\":17377:17384   */\n      0x00\n        /* \"#utility.yul\":17400:17420   */\n      tag_533\n        /* \"#utility.yul\":17418:17419   */\n      dup3\n        /* \"#utility.yul\":17400:17420   */\n      tag_328\n      jump\t// in\n    tag_533:\n        /* \"#utility.yul\":17395:17420   */\n      swap2\n      pop\n        /* \"#utility.yul\":17434:17454   */\n      tag_534\n        /* \"#utility.yul\":17452:17453   */\n      dup4\n        /* \"#utility.yul\":17434:17454   */\n      tag_328\n      jump\t// in\n    tag_534:\n        /* \"#utility.yul\":17429:17454   */\n      swap3\n      pop\n        /* \"#utility.yul\":17489:17490   */\n      dup3\n        /* \"#utility.yul\":17486:17487   */\n      dup3\n        /* \"#utility.yul\":17482:17491   */\n      mul\n        /* \"#utility.yul\":17511:17541   */\n      tag_535\n        /* \"#utility.yul\":17529:17540   */\n      dup2\n        /* \"#utility.yul\":17511:17541   */\n      tag_328\n      jump\t// in\n    tag_535:\n        /* \"#utility.yul\":17500:17541   */\n      swap2\n      pop\n        /* \"#utility.yul\":17690:17691   */\n      dup3\n        /* \"#utility.yul\":17681:17688   */\n      dup3\n        /* \"#utility.yul\":17677:17692   */\n      div\n        /* \"#utility.yul\":17674:17675   */\n      dup5\n        /* \"#utility.yul\":17671:17693   */\n      eq\n        /* \"#utility.yul\":17651:17652   */\n      dup4\n        /* \"#utility.yul\":17644:17653   */\n      iszero\n        /* \"#utility.yul\":17624:17707   */\n      or\n        /* \"#utility.yul\":17601:17740   */\n      tag_536\n      jumpi\n        /* \"#utility.yul\":17720:17738   */\n      tag_537\n      tag_360\n      jump\t// in\n    tag_537:\n        /* \"#utility.yul\":17601:17740   */\n    tag_536:\n        /* \"#utility.yul\":17385:17747   */\n      pop\n        /* \"#utility.yul\":17337:17747   */\n      swap3\n      swap2\n      pop\n      pop\n      jump\t// out\n        /* \"#utility.yul\":17753:17933   */\n    tag_369:\n        /* \"#utility.yul\":17801:17878   */\n      0x4e487b7100000000000000000000000000000000000000000000000000000000\n        /* \"#utility.yul\":17798:17799   */\n      0x00\n        /* \"#utility.yul\":17791:17879   */\n      mstore\n        /* \"#utility.yul\":17898:17902   */\n      0x12\n        /* \"#utility.yul\":17895:17896   */\n      0x04\n        /* \"#utility.yul\":17888:17903   */\n      mstore\n        /* \"#utility.yul\":17922:17926   */\n      0x24\n        /* \"#utility.yul\":17919:17920   */\n      0x00\n        /* \"#utility.yul\":17912:17927   */\n      revert\n        /* \"#utility.yul\":17939:18124   */\n    tag_206:\n        /* \"#utility.yul\":17979:17980   */\n      0x00\n        /* \"#utility.yul\":17996:18016   */\n      tag_540\n        /* \"#utility.yul\":18014:18015   */\n      dup3\n        /* \"#utility.yul\":17996:18016   */\n      tag_328\n      jump\t// in\n    tag_540:\n        /* \"#utility.yul\":17991:18016   */\n      swap2\n      pop\n        /* \"#utility.yul\":18030:18050   */\n      tag_541\n        /* \"#utility.yul\":18048:18049   */\n      dup4\n        /* \"#utility.yul\":18030:18050   */\n      tag_328\n      jump\t// in\n    tag_541:\n        /* \"#utility.yul\":18025:18050   */\n      swap3\n      pop\n        /* \"#utility.yul\":18069:18070   */\n      dup3\n        /* \"#utility.yul\":18059:18094   */\n      tag_542\n      jumpi\n        /* \"#utility.yul\":18074:18092   */\n      tag_543\n      tag_369\n      jump\t// in\n    tag_543:\n        /* \"#utility.yul\":18059:18094   */\n    tag_542:\n        /* \"#utility.yul\":18116:18117   */\n      dup3\n        /* \"#utility.yul\":18113:18114   */\n      dup3\n        /* \"#utility.yul\":18109:18118   */\n      div\n        /* \"#utility.yul\":18104:18118   */\n      swap1\n      pop\n        /* \"#utility.yul\":17939:18124   */\n      swap3\n      swap2\n      pop\n      pop\n      jump\t// out\n        /* \"#utility.yul\":18130:18321   */\n    tag_208:\n        /* \"#utility.yul\":18170:18173   */\n      0x00\n        /* \"#utility.yul\":18189:18209   */\n      tag_545\n        /* \"#utility.yul\":18207:18208   */\n      dup3\n        /* \"#utility.yul\":18189:18209   */\n      tag_328\n      jump\t// in\n    tag_545:\n        /* \"#utility.yul\":18184:18209   */\n      swap2\n      pop\n        /* \"#utility.yul\":18223:18243   */\n      tag_546\n        /* \"#utility.yul\":18241:18242   */\n      dup4\n        /* \"#utility.yul\":18223:18243   */\n      tag_328\n      jump\t// in\n    tag_546:\n        /* \"#utility.yul\":18218:18243   */\n      swap3\n      pop\n        /* \"#utility.yul\":18266:18267   */\n      dup3\n        /* \"#utility.yul\":18263:18264   */\n      dup3\n        /* \"#utility.yul\":18259:18268   */\n      add\n        /* \"#utility.yul\":18252:18268   */\n      swap1\n      pop\n        /* \"#utility.yul\":18287:18290   */\n      dup1\n        /* \"#utility.yul\":18284:18285   */\n      dup3\n        /* \"#utility.yul\":18281:18291   */\n      gt\n        /* \"#utility.yul\":18278:18314   */\n      iszero\n      tag_547\n      jumpi\n        /* \"#utility.yul\":18294:18312   */\n      tag_548\n      tag_360\n      jump\t// in\n    tag_548:\n        /* \"#utility.yul\":18278:18314   */\n    tag_547:\n        /* \"#utility.yul\":18130:18321   */\n      swap3\n      swap2\n      pop\n      pop\n      jump\t// out\n        /* \"#utility.yul\":18327:18554   */\n    tag_370:\n        /* \"#utility.yul\":18467:18501   */\n      0x43616e6e6f74206865616c2061206465616420626972643b2072657669766520\n        /* \"#utility.yul\":18463:18464   */\n      0x00\n        /* \"#utility.yul\":18455:18461   */\n      dup3\n        /* \"#utility.yul\":18451:18465   */\n      add\n        /* \"#utility.yul\":18444:18502   */\n      mstore\n        /* \"#utility.yul\":18536:18546   */\n      0x6974206669727374000000000000000000000000000000000000000000000000\n        /* \"#utility.yul\":18531:18533   */\n      0x20\n        /* \"#utility.yul\":18523:18529   */\n      dup3\n        /* \"#utility.yul\":18519:18534   */\n      add\n        /* \"#utility.yul\":18512:18547   */\n      mstore\n        /* \"#utility.yul\":18327:18554   */\n      pop\n      jump\t// out\n        /* \"#utility.yul\":18560:18926   */\n    tag_371:\n        /* \"#utility.yul\":18702:18705   */\n      0x00\n        /* \"#utility.yul\":18723:18790   */\n      tag_551\n        /* \"#utility.yul\":18787:18789   */\n      0x28\n        /* \"#utility.yul\":18782:18785   */\n      dup4\n        /* \"#utility.yul\":18723:18790   */\n      tag_350\n      jump\t// in\n    tag_551:\n        /* \"#utility.yul\":18716:18790   */\n      swap2\n      pop\n        /* \"#utility.yul\":18799:18892   */\n      tag_552\n        /* \"#utility.yul\":18888:18891   */\n      dup3\n        /* \"#utility.yul\":18799:18892   */\n      tag_370\n      jump\t// in\n    tag_552:\n        /* \"#utility.yul\":18917:18919   */\n      0x40\n        /* \"#utility.yul\":18912:18915   */\n      dup3\n        /* \"#utility.yul\":18908:18920   */\n      add\n        /* \"#utility.yul\":18901:18920   */\n      swap1\n      pop\n        /* \"#utility.yul\":18560:18926   */\n      swap2\n      swap1\n      pop\n      jump\t// out\n        /* \"#utility.yul\":18932:19351   */\n    tag_237:\n        /* \"#utility.yul\":19098:19102   */\n      0x00\n        /* \"#utility.yul\":19136:19138   */\n      0x20\n        /* \"#utility.yul\":19125:19134   */\n      dup3\n        /* \"#utility.yul\":19121:19139   */\n      add\n        /* \"#utility.yul\":19113:19139   */\n      swap1\n      pop\n        /* \"#utility.yul\":19185:19194   */\n      dup2\n        /* \"#utility.yul\":19179:19183   */\n      dup2\n        /* \"#utility.yul\":19175:19195   */\n      sub\n        /* \"#utility.yul\":19171:19172   */\n      0x00\n        /* \"#utility.yul\":19160:19169   */\n      dup4\n        /* \"#utility.yul\":19156:19173   */\n      add\n        /* \"#utility.yul\":19149:19196   */\n      mstore\n        /* \"#utility.yul\":19213:19344   */\n      tag_554\n        /* \"#utility.yul\":19339:19343   */\n      dup2\n        /* \"#utility.yul\":19213:19344   */\n      tag_371\n      jump\t// in\n    tag_554:\n        /* \"#utility.yul\":19205:19344   */\n      swap1\n      pop\n        /* \"#utility.yul\":18932:19351   */\n      swap2\n      swap1\n      pop\n      jump\t// out\n        /* \"#utility.yul\":19357:19436   */\n    tag_372:\n        /* \"#utility.yul\":19396:19403   */\n      0x00\n        /* \"#utility.yul\":19425:19430   */\n      dup2\n        /* \"#utility.yul\":19414:19430   */\n      swap1\n      pop\n        /* \"#utility.yul\":19357:19436   */\n      swap2\n      swap1\n      pop\n      jump\t// out\n        /* \"#utility.yul\":19442:19599   */\n    tag_373:\n        /* \"#utility.yul\":19547:19592   */\n      tag_557\n        /* \"#utility.yul\":19567:19591   */\n      tag_558\n        /* \"#utility.yul\":19585:19590   */\n      dup3\n        /* \"#utility.yul\":19567:19591   */\n      tag_328\n      jump\t// in\n    tag_558:\n        /* \"#utility.yul\":19547:19592   */\n      tag_372\n      jump\t// in\n    tag_557:\n        /* \"#utility.yul\":19542:19545   */\n      dup3\n        /* \"#utility.yul\":19535:19593   */\n      mstore\n        /* \"#utility.yul\":19442:19599   */\n      pop\n      pop\n      jump\t// out\n        /* \"#utility.yul\":19605:20002   */\n    tag_249:\n        /* \"#utility.yul\":19745:19748   */\n      0x00\n        /* \"#utility.yul\":19760:19835   */\n      tag_560\n        /* \"#utility.yul\":19831:19834   */\n      dup3\n        /* \"#utility.yul\":19822:19828   */\n      dup6\n        /* \"#utility.yul\":19760:19835   */\n      tag_373\n      jump\t// in\n    tag_560:\n        /* \"#utility.yul\":19860:19862   */\n      0x20\n        /* \"#utility.yul\":19855:19858   */\n      dup3\n        /* \"#utility.yul\":19851:19863   */\n      add\n        /* \"#utility.yul\":19844:19863   */\n      swap2\n      pop\n        /* \"#utility.yul\":19873:19948   */\n      tag_561\n        /* \"#utility.yul\":19944:19947   */\n      dup3\n        /* \"#utility.yul\":19935:19941   */\n      dup5\n        /* \"#utility.yul\":19873:19948   */\n      tag_373\n      jump\t// in\n    tag_561:\n        /* \"#utility.yul\":19973:19975   */\n      0x20\n        /* \"#utility.yul\":19968:19971   */\n      dup3\n        /* \"#utility.yul\":19964:19976   */\n      add\n        /* \"#utility.yul\":19957:19976   */\n      swap2\n      pop\n        /* \"#utility.yul\":19993:19996   */\n      dup2\n        /* \"#utility.yul\":19986:19996   */\n      swap1\n      pop\n        /* \"#utility.yul\":19605:20002   */\n      swap4\n      swap3\n      pop\n      pop\n      pop\n      jump\t// out\n        /* \"#utility.yul\":20008:20184   */\n    tag_251:\n        /* \"#utility.yul\":20040:20041   */\n      0x00\n        /* \"#utility.yul\":20057:20077   */\n      tag_563\n        /* \"#utility.yul\":20075:20076   */\n      dup3\n        /* \"#utility.yul\":20057:20077   */\n      tag_328\n      jump\t// in\n    tag_563:\n        /* \"#utility.yul\":20052:20077   */\n      swap2\n      pop\n        /* \"#utility.yul\":20091:20111   */\n      tag_564\n        /* \"#utility.yul\":20109:20110   */\n      dup4\n        /* \"#utility.yul\":20091:20111   */\n      tag_328\n      jump\t// in\n    tag_564:\n        /* \"#utility.yul\":20086:20111   */\n      swap3\n      pop\n        /* \"#utility.yul\":20130:20131   */\n      dup3\n        /* \"#utility.yul\":20120:20155   */\n      tag_565\n      jumpi\n        /* \"#utility.yul\":20135:20153   */\n      tag_566\n      tag_369\n      jump\t// in\n    tag_566:\n        /* \"#utility.yul\":20120:20155   */\n    tag_565:\n        /* \"#utility.yul\":20176:20177   */\n      dup3\n        /* \"#utility.yul\":20173:20174   */\n      dup3\n        /* \"#utility.yul\":20169:20178   */\n      mod\n        /* \"#utility.yul\":20164:20178   */\n      swap1\n      pop\n        /* \"#utility.yul\":20008:20184   */\n      swap3\n      swap2\n      pop\n      pop\n      jump\t// out\n        /* \"#utility.yul\":20190:20355   */\n    tag_374:\n        /* \"#utility.yul\":20330:20347   */\n      0x556e6b6e6f776e20737065636965730000000000000000000000000000000000\n        /* \"#utility.yul\":20326:20327   */\n      0x00\n        /* \"#utility.yul\":20318:20324   */\n      dup3\n        /* \"#utility.yul\":20314:20328   */\n      add\n        /* \"#utility.yul\":20307:20348   */\n      mstore\n        /* \"#utility.yul\":20190:20355   */\n      pop\n      jump\t// out\n        /* \"#utility.yul\":20361:20727   */\n    tag_375:\n        /* \"#utility.yul\":20503:20506   */\n      0x00\n        /* \"#utility.yul\":20524:20591   */\n      tag_569\n        /* \"#utility.yul\":20588:20590   */\n      0x0f\n        /* \"#utility.yul\":20583:20586   */\n      dup4\n        /* \"#utility.yul\":20524:20591   */\n      tag_350\n      jump\t// in\n    tag_569:\n        /* \"#utility.yul\":20517:20591   */\n      swap2\n      pop\n        /* \"#utility.yul\":20600:20693   */\n      tag_570\n        /* \"#utility.yul\":20689:20692   */\n      dup3\n        /* \"#utility.yul\":20600:20693   */\n      tag_374\n      jump\t// in\n    tag_570:\n        /* \"#utility.yul\":20718:20720   */\n      0x20\n        /* \"#utility.yul\":20713:20716   */\n      dup3\n        /* \"#utility.yul\":20709:20721   */\n      add\n        /* \"#utility.yul\":20702:20721   */\n      swap1\n      pop\n        /* \"#utility.yul\":20361:20727   */\n      swap2\n      swap1\n      pop\n      jump\t// out\n        /* \"#utility.yul\":20733:21152   */\n    tag_322:\n        /* \"#utility.yul\":20899:20903   */\n      0x00\n        /* \"#utility.yul\":20937:20939   */\n      0x20\n        /* \"#utility.yul\":20926:20935   */\n      dup3\n        /* \"#utility.yul\":20922:20940   */\n      add\n        /* \"#utility.yul\":20914:20940   */\n      swap1\n      pop\n        /* \"#utility.yul\":20986:20995   */\n      dup2\n        /* \"#utility.yul\":20980:20984   */\n      dup2\n        /* \"#utility.yul\":20976:20996   */\n      sub\n        /* \"#utility.yul\":20972:20973   */\n      0x00\n        /* \"#utility.yul\":20961:20970   */\n      dup4\n        /* \"#utility.yul\":20957:20974   */\n      add\n        /* \"#utility.yul\":20950:20997   */\n      mstore\n        /* \"#utility.yul\":21014:21145   */\n      tag_572\n        /* \"#utility.yul\":21140:21144   */\n      dup2\n        /* \"#utility.yul\":21014:21145   */\n      tag_375\n      jump\t// in\n    tag_572:\n        /* \"#utility.yul\":21006:21145   */\n      swap1\n      pop\n        /* \"#utility.yul\":20733:21152   */\n      swap2\n      swap1\n      pop\n      jump\t// out\n    stop\n    data_06b72c80ee2ecbcbf44477b5df17c9ca845658c2f59600eacfa2a1e2c77fc0c0 68747470733a2f2f676174657761792e70696e6174612e636c6f75642f697066732f6261666b72656964336d64796d7a736a7475646d35367a726f766974786f757667736a627a7a6b7961727371377432693262697779673672687471\n    data_1ffc5c99f8ff866cb3cb9bd46d45453badb8f26649052a31a9be49b9b43149da 68747470733a2f2f676174657761792e70696e6174612e636c6f75642f697066732f6261667962656961336c65346173746b6e683270346d626b64357734326a353232746e73653477786b3777356d3777696d6f716470366f757a7079\n    data_3aaee52e591491d0c37d609e70d05ae7f1f2d7910d54c05cb9fcdcf49c54ca0d 68747470733a2f2f676174657761792e70696e6174612e636c6f75642f697066732f6261667962656966786e71727070336166616a6e74726e7779796e75326c63727a766d646d737468776162367832776e323377636e62646a6e366d\n    data_3bbf1c81af77207dbf9db8f891697113273de930322fc10149aebcb2d416dad6 68747470733a2f2f676174657761792e70696e6174612e636c6f75642f697066732f626166796265696576377075637a377968377836686169646d7068703569656f6276636664636c6e6c776a71613269767334793335377076776d61\n    data_4bffd64c369afa296df94915c3530d23c4bb62ed5947a16d0436ecf77d5e47b7 68747470733a2f2f676174657761792e70696e6174612e636c6f75642f697066732f626166796265696670616a6269766868656d6a65666769616d6e7668376f6532376c657874716a376167707a6e63687165756a636e343669356361\n    data_4de8576ed651b45ee8b8de37ab230acfe5a77f3bcefa3b601e95aeedc205cf9f 68747470733a2f2f676174657761792e70696e6174612e636c6f75642f697066732f6261666b7265696636656e6f32716a6a337863376d6562716c327336366f6c36797872777837677761767a3434716e32646c7a33636e7737663234\n    data_7b2fdb6759a9cafb5eeb6df22876dcecec368957dc7b6a1b5455e59a53ccd8b3 68747470733a2f2f676174657761792e70696e6174612e636c6f75642f697066732f62616679626569626364707a707967366d716165326f676f7775756d796d716d7178623275736e697537356765656a347074723436376f74326e6d\n    data_86e92b1a76e2f297d69c89af4232d1b3e647fd322843457f38b762c99d8ee708 68747470733a2f2f676174657761792e70696e6174612e636c6f75642f697066732f62616679626569676f686f746f6b366b336f6e76746a797970666e626e7a6263736f327163697862777a34776836347670326e336c71376e6b7361\n    data_9935abd004c219a89d3fd74f576ad80b96c6baa47d216c49a0c7e2425bfa795d 68747470733a2f2f676174657761792e70696e6174612e636c6f75642f697066732f6261666b7265696461346170737078746e706236336f71797a763374696e356f776334356c6763746b6471763734686a6173346679746f6f6b7461\n    data_b8dd308e09aa92114d02e95d8f8ec31b44f463debae17577b531822d02a7acf8 68747470733a2f2f676174657761792e70696e6174612e636c6f75642f697066732f6261666b7265696832666d78753361797363723778657a3275326173686177696663336f6a34716132366a35366368343676657a377a7961656a34\n    data_bf1e0c883d5045b15993c31eb358768c2346e70fb0546c814a2e5325206e2434 68747470733a2f2f676174657761792e70696e6174612e636c6f75642f697066732f626166796265696574626635716f7372796271676b7132636434637a76363664777736737434776a35786c6f7a6534656e6232643578796a36706d\n\n    auxdata: 0xa2646970667358221220a05219bead2104b15d2490c2ffae356eb90c684b7d1ca34f45c4b4a4f1a1e50264736f6c634300081e0033\n}\n",
				"bytecode": {
					"linkReferences": {},
					"object": "608060405234801561000f575f5ffd5b50604051612a8a380380612a8a833981810160405281019061003191906100d5565b8060025f6101000a81548173ffffffffffffffffffffffffffffffffffffffff021916908373ffffffffffffffffffffffffffffffffffffffff16021790555050610100565b5f5ffd5b5f73ffffffffffffffffffffffffffffffffffffffff82169050919050565b5f6100a48261007b565b9050919050565b6100b48161009a565b81146100be575f5ffd5b50565b5f815190506100cf816100ab565b92915050565b5f602082840312156100ea576100e9610077565b5b5f6100f7848285016100c1565b91505092915050565b61297d8061010d5f395ff3fe608060405234801561000f575f5ffd5b506004361061012a575f3560e01c80636ec88bbd116100ab578063a5d846181161006f578063a5d846181461033e578063bff998f41461036e578063ec1c59551461038a578063f06abb80146103c1578063f64ff064146103df5761012a565b80636ec88bbd1461029c57806372680a77146102cc5780638baecc21146102ea5780638c652f9514610306578063a2b7ce6f146103225761012a565b806349b1a0bf116100f257806349b1a0bf146101e65780634d2d7881146102025780634e9c7df81461023257806361b8ce8c1461024e5780636352211e1461026c5761012a565b806316cb4a051461012e5780631942d1991461015e5780631a3c40341461017a57806321c0dd5a146101985780633127522e146101c8575b5f5ffd5b61014860048036038101906101439190611b24565b61040f565b6040516101559190611b69565b60405180910390f35b61017860048036038101906101739190611b82565b61042c565b005b6101826105b9565b60405161018f9190611bcf565b60405180910390f35b6101b260048036038101906101ad9190611c0b565b610636565b6040516101bf9190611bcf565b60405180910390f35b6101d0610703565b6040516101dd9190611bcf565b60405180910390f35b61020060048036038101906101fb9190611b24565b61077f565b005b61021c60048036038101906102179190611c0b565b61083a565b6040516102299190611bcf565b60405180910390f35b61024c60048036038101906102479190611c90565b610a54565b005b610256610b26565b6040516102639190611bcf565b60405180910390f35b61028660048036038101906102819190611b24565b610b2c565b6040516102939190611cca565b60405180910390f35b6102b660048036038101906102b19190611b24565b610b5c565b6040516102c39190611e14565b60405180910390f35b6102d4610c2f565b6040516102e19190611cca565b60405180910390f35b61030460048036038101906102ff9190611b24565b610c54565b005b610320600480360381019061031b9190611e2e565b610df3565b005b61033c60048036038101906103379190611b24565b610fe1565b005b61035860048036038101906103539190611c0b565b611158565b6040516103659190611bcf565b60405180910390f35b61038860048036038101906103839190611b24565b611224565b005b6103a4600480360381019061039f9190611b24565b61138e565b6040516103b8989796959493929190611e7b565b60405180910390f35b6103c96113f5565b6040516103d69190611bcf565b60405180910390f35b6103f960048036038101906103f49190611b24565b6113fe565b6040516104069190611f67565b60405180910390f35b6003602052805f5260405f205f915054906101000a900460ff1681565b60025f9054906101000a900473ffffffffffffffffffffffffffffffffffffffff1673ffffffffffffffffffffffffffffffffffffffff163373ffffffffffffffffffffffffffffffffffffffff16146104bb576040517f08c379a00000000000000000000000000000000000000000000000000000000081526004016104b290611fd1565b60405180910390fd5b6104c482610fe1565b5f5f5f8481526020019081526020015f2090506104e083611438565b805f015f9054906101000a900460ff1661052f576040517f08c379a000000000000000000000000000000000000000000000000000000000815260040161052690612039565b60405180910390fd5b806006015f9054906101000a900460ff1615610580576040517f08c379a0000000000000000000000000000000000000000000000000000000008152600401610577906120a1565b60405180910390fd5b818160020154106105aa5781816002015f82825461059e91906120ec565b925050819055506105b4565b5f81600201819055505b505050565b5f5f5f90505b600154811015610632575f5f8281526020019081526020015f205f015f9054906101000a900460ff16801561061157505f5f8281526020019081526020015f206006015f9054906101000a900460ff16155b156106255781806106219061211f565b9250505b80806001019150506105bf565b5090565b5f5f5f90505b6001548110156106fd575f5f8281526020019081526020015f205f015f9054906101000a900460ff16801561068e57505f5f8281526020019081526020015f206006015f9054906101000a900460ff16155b80156106dc575082600a8111156106a8576106a7611d01565b5b5f5f8381526020019081526020015f206004015f9054906101000a900460ff16600a8111156106da576106d9611d01565b5b145b156106f05781806106ec9061211f565b9250505b808060010191505061063c565b50919050565b5f5f5f90505b60015481101561077b575f5f8281526020019081526020015f205f015f9054906101000a900460ff16801561075a57505f5f8281526020019081526020015f206006015f9054906101000a900460ff165b1561076e57818061076a9061211f565b9250505b8080600101915050610709565b5090565b60025f9054906101000a900473ffffffffffffffffffffffffffffffffffffffff1673ffffffffffffffffffffffffffffffffffffffff163373ffffffffffffffffffffffffffffffffffffffff161461080e576040517f08c379a000000000000000000000000000000000000000000000000000000000815260040161080590611fd1565b60405180910390fd5b600160035f8381526020019081526020015f205f6101000a81548160ff02191690831515021790555050565b5f60025f9054906101000a900473ffffffffffffffffffffffffffffffffffffffff1673ffffffffffffffffffffffffffffffffffffffff163373ffffffffffffffffffffffffffffffffffffffff16146108ca576040517f08c379a00000000000000000000000000000000000000000000000000000000081526004016108c190611fd1565b60405180910390fd5b5f6108d483611516565b90506040518061010001604052806001151581526020015f81526020015f8152602001825f0151815260200184600a81111561091357610912611d01565b5b81526020014281526020015f151581526020015f8152505f5f60015481526020019081526020015f205f820151815f015f6101000a81548160ff0219169083151502179055506020820151816001015560408201518160020155606082015181600301556080820151816004015f6101000a81548160ff0219169083600a8111156109a1576109a0611d01565b5b021790555060a0820151816005015560c0820151816006015f6101000a81548160ff02191690831515021790555060e082015181600701559050503260045f60015481526020019081526020015f205f6101000a81548173ffffffffffffffffffffffffffffffffffffffff021916908373ffffffffffffffffffffffffffffffffffffffff1602179055505f600154905060015f815480929190610a459061211f565b91905055508092505050919050565b5f73ffffffffffffffffffffffffffffffffffffffff1660025f9054906101000a900473ffffffffffffffffffffffffffffffffffffffff1673ffffffffffffffffffffffffffffffffffffffff1614610ae3576040517f08c379a0000000000000000000000000000000000000000000000000000000008152600401610ada906121b0565b60405180910390fd5b8060025f6101000a81548173ffffffffffffffffffffffffffffffffffffffff021916908373ffffffffffffffffffffffffffffffffffffffff16021790555050565b60015481565b6004602052805f5260405f205f915054906101000a900473ffffffffffffffffffffffffffffffffffffffff1681565b610b64611a6f565b610b6d82610fe1565b5f5f8381526020019081526020015f20604051806101000160405290815f82015f9054906101000a900460ff16151515158152602001600182015481526020016002820154815260200160038201548152602001600482015f9054906101000a900460ff16600a811115610be457610be3611d01565b5b600a811115610bf657610bf5611d01565b5b815260200160058201548152602001600682015f9054906101000a900460ff161515151581526020016007820154815250509050919050565b60025f9054906101000a900473ffffffffffffffffffffffffffffffffffffffff1681565b60025f9054906101000a900473ffffffffffffffffffffffffffffffffffffffff1673ffffffffffffffffffffffffffffffffffffffff163373ffffffffffffffffffffffffffffffffffffffff1614610ce3576040517f08c379a0000000000000000000000000000000000000000000000000000000008152600401610cda90611fd1565b60405180910390fd5b5f5f5f8381526020019081526020015f209050805f015f9054906101000a900460ff16610d45576040517f08c379a0000000000000000000000000000000000000000000000000000000008152600401610d3c90612039565b60405180910390fd5b806006015f9054906101000a900460ff16610d95576040517f08c379a0000000000000000000000000000000000000000000000000000000008152600401610d8c90612218565b60405180910390fd5b610dae816004015f9054906101000a900460ff16611516565b5f015181600301819055505f81600201819055505f816006015f6101000a81548160ff0219169083151502179055505f81600701819055504281600501819055505050565b60025f9054906101000a900473ffffffffffffffffffffffffffffffffffffffff1673ffffffffffffffffffffffffffffffffffffffff163373ffffffffffffffffffffffffffffffffffffffff1614610e82576040517f08c379a0000000000000000000000000000000000000000000000000000000008152600401610e7990611fd1565b60405180910390fd5b3273ffffffffffffffffffffffffffffffffffffffff1660045f8481526020019081526020015f205f9054906101000a900473ffffffffffffffffffffffffffffffffffffffff1673ffffffffffffffffffffffffffffffffffffffff1614610f20576040517f08c379a0000000000000000000000000000000000000000000000000000000008152600401610f1790612280565b60405180910390fd5b5f73ffffffffffffffffffffffffffffffffffffffff168173ffffffffffffffffffffffffffffffffffffffff1603610f8e576040517f08c379a0000000000000000000000000000000000000000000000000000000008152600401610f85906122e8565b60405180910390fd5b8060045f8481526020019081526020015f205f6101000a81548173ffffffffffffffffffffffffffffffffffffffff021916908373ffffffffffffffffffffffffffffffffffffffff1602179055505050565b5f5f5f8381526020019081526020015f209050806006015f9054906101000a900460ff16156110105750611155565b5f81600501544261102191906120ec565b90505f811115611152575f611045836004015f9054906101000a900460ff16611516565b90505f610e1082604001518461105b9190612306565b6110659190612374565b905080846002015f82825461107a91906123a4565b92505081905550816020015184600201541115611110575f826020015185600201546110a691906120ec565b905082602001518560020181905550808560030154116110f3575f85600301819055506001856006015f6101000a81548160ff02191690831515021790555042856007018190555061110e565b80856003015f82825461110691906120ec565b925050819055505b505b5f62015180846111209190612374565b90505f8111156111455780856001015f82825461113d91906123a4565b925050819055505b4285600501819055505050505b50505b50565b5f5f5f90505b60015481101561121e575f5f8281526020019081526020015f205f015f9054906101000a900460ff1680156111af57505f5f8281526020019081526020015f206006015f9054906101000a900460ff165b80156111fd575082600a8111156111c9576111c8611d01565b5b5f5f8381526020019081526020015f206004015f9054906101000a900460ff16600a8111156111fb576111fa611d01565b5b145b1561121157818061120d9061211f565b9250505b808060010191505061115e565b50919050565b60025f9054906101000a900473ffffffffffffffffffffffffffffffffffffffff1673ffffffffffffffffffffffffffffffffffffffff163373ffffffffffffffffffffffffffffffffffffffff16146112b3576040517f08c379a00000000000000000000000000000000000000000000000000000000081526004016112aa90611fd1565b60405180910390fd5b5f5f5f8381526020019081526020015f209050805f015f9054906101000a900460ff16611315576040517f08c379a000000000000000000000000000000000000000000000000000000000815260040161130c90612039565b60405180910390fd5b806006015f9054906101000a900460ff1615611366576040517f08c379a000000000000000000000000000000000000000000000000000000000815260040161135d90612447565b60405180910390fd5b61137f816004015f9054906101000a900460ff16611516565b5f015181600301819055505050565b5f602052805f5260405f205f91509050805f015f9054906101000a900460ff1690806001015490806002015490806003015490806004015f9054906101000a900460ff1690806005015490806006015f9054906101000a900460ff16908060070154905088565b5f600154905090565b60605f5f5f8481526020019081526020015f20905061142c816004015f9054906101000a900460ff16611516565b60800151915050919050565b611440611ac2565b5f5f5f8481526020019081526020015f20905061146c816004015f9054906101000a900460ff16611516565b915060035f8481526020019081526020015f205f9054906101000a900460ff16611511575f6114aa826004015f9054906101000a900460ff16611516565b6060015190505f606442866040516020016114c6929190612485565b604051602081830303815290604052805190602001205f1c6114e891906124b0565b90508181101561150e576019836003015f82825461150691906120ec565b925050819055505b50505b505050565b61151e611ac2565b5f600a81111561153157611530611d01565b5b82600a81111561154457611543611d01565b5b03611593576040518060a0016040528060c881526020016096815260200160038152602001600181526020016040518060800160405280605d81526020016125a6605d91398152509050611a6a565b6001600a8111156115a7576115a6611d01565b5b82600a8111156115ba576115b9611d01565b5b03611609576040518060a0016040528060dc815260200160c8815260200160028152602001600581526020016040518060800160405280605d81526020016127d4605d91398152509050611a6a565b6002600a81111561161d5761161c611d01565b5b82600a8111156116305761162f611d01565b5b0361167f576040518060a00160405280605081526020016050815260200160038152602001600681526020016040518060800160405280605d8152602001612660605d91398152509050611a6a565b600a8081111561169257611691611d01565b5b82600a8111156116a5576116a4611d01565b5b036116f5576040518060a0016040528061012c815260200161012c8152602001600181526020015f81526020016040518060800160405280605d81526020016128eb605d91398152509050611a6a565b6003600a81111561170957611708611d01565b5b82600a81111561171c5761171b611d01565b5b0361176b576040518060a0016040528060b48152602001605a815260200160028152602001600481526020016040518060800160405280605d8152602001612603605d91398152509050611a6a565b6004600a81111561177f5761177e611d01565b5b82600a81111561179257611791611d01565b5b036117e1576040518060a00160405280605081526020016046815260200160028152602001600881526020016040518060800160405280605d8152602001612777605d91398152509050611a6a565b6005600a8111156117f5576117f4611d01565b5b82600a81111561180857611807611d01565b5b03611857576040518060a0016040528060328152602001603c815260200160048152602001600581526020016040518060800160405280605d8152602001612831605d91398152509050611a6a565b6006600a81111561186b5761186a611d01565b5b82600a81111561187e5761187d611d01565b5b036118cd576040518060a00160405280603781526020016028815260200160038152602001600481526020016040518060800160405280605d815260200161288e605d91398152509050611a6a565b6007600a8111156118e1576118e0611d01565b5b82600a8111156118f4576118f3611d01565b5b03611943576040518060a00160405280604e81526020016041815260200160028152602001600481526020016040518060800160405280605d8152602001612549605d91398152509050611a6a565b6008600a81111561195757611956611d01565b5b82600a81111561196a57611969611d01565b5b036119b9576040518060a00160405280609681526020016064815260200160048152602001600381526020016040518060800160405280605d815260200161271a605d91398152509050611a6a565b6009600a8111156119cd576119cc611d01565b5b82600a8111156119e0576119df611d01565b5b03611a2f576040518060a00160405280602381526020016042815260200160048152602001600581526020016040518060800160405280605d81526020016126bd605d91398152509050611a6a565b6040517f08c379a0000000000000000000000000000000000000000000000000000000008152600401611a619061252a565b60405180910390fd5b919050565b6040518061010001604052805f151581526020015f81526020015f81526020015f81526020015f600a811115611aa857611aa7611d01565b5b81526020015f81526020015f151581526020015f81525090565b6040518060a001604052805f81526020015f81526020015f81526020015f8152602001606081525090565b5f5ffd5b5f819050919050565b611b0381611af1565b8114611b0d575f5ffd5b50565b5f81359050611b1e81611afa565b92915050565b5f60208284031215611b3957611b38611aed565b5b5f611b4684828501611b10565b91505092915050565b5f8115159050919050565b611b6381611b4f565b82525050565b5f602082019050611b7c5f830184611b5a565b92915050565b5f5f60408385031215611b9857611b97611aed565b5b5f611ba585828601611b10565b9250506020611bb685828601611b10565b9150509250929050565b611bc981611af1565b82525050565b5f602082019050611be25f830184611bc0565b92915050565b600b8110611bf4575f5ffd5b50565b5f81359050611c0581611be8565b92915050565b5f60208284031215611c2057611c1f611aed565b5b5f611c2d84828501611bf7565b91505092915050565b5f73ffffffffffffffffffffffffffffffffffffffff82169050919050565b5f611c5f82611c36565b9050919050565b611c6f81611c55565b8114611c79575f5ffd5b50565b5f81359050611c8a81611c66565b92915050565b5f60208284031215611ca557611ca4611aed565b5b5f611cb284828501611c7c565b91505092915050565b611cc481611c55565b82525050565b5f602082019050611cdd5f830184611cbb565b92915050565b611cec81611b4f565b82525050565b611cfb81611af1565b82525050565b7f4e487b71000000000000000000000000000000000000000000000000000000005f52602160045260245ffd5b600b8110611d3f57611d3e611d01565b5b50565b5f819050611d4f82611d2e565b919050565b5f611d5e82611d42565b9050919050565b611d6e81611d54565b82525050565b61010082015f820151611d895f850182611ce3565b506020820151611d9c6020850182611cf2565b506040820151611daf6040850182611cf2565b506060820151611dc26060850182611cf2565b506080820151611dd56080850182611d65565b5060a0820151611de860a0850182611cf2565b5060c0820151611dfb60c0850182611ce3565b5060e0820151611e0e60e0850182611cf2565b50505050565b5f61010082019050611e285f830184611d74565b92915050565b5f5f60408385031215611e4457611e43611aed565b5b5f611e5185828601611b10565b9250506020611e6285828601611c7c565b9150509250929050565b611e7581611d54565b82525050565b5f61010082019050611e8f5f83018b611b5a565b611e9c602083018a611bc0565b611ea96040830189611bc0565b611eb66060830188611bc0565b611ec36080830187611e6c565b611ed060a0830186611bc0565b611edd60c0830185611b5a565b611eea60e0830184611bc0565b9998505050505050505050565b5f81519050919050565b5f82825260208201905092915050565b8281835e5f83830152505050565b5f601f19601f8301169050919050565b5f611f3982611ef7565b611f438185611f01565b9350611f53818560208601611f11565b611f5c81611f1f565b840191505092915050565b5f6020820190508181035f830152611f7f8184611f2f565b905092915050565b7f4f6e6c79205061726b2063616e2063616c6c20746869730000000000000000005f82015250565b5f611fbb601783611f01565b9150611fc682611f87565b602082019050919050565b5f6020820190508181035f830152611fe881611faf565b9050919050565b7f54686174206269726420646f65736e27742065786973740000000000000000005f82015250565b5f612023601783611f01565b915061202e82611fef565b602082019050919050565b5f6020820190508181035f83015261205081612017565b9050919050565b7f43616e6e6f7420666565642061206465616420626972640000000000000000005f82015250565b5f61208b601783611f01565b915061209682612057565b602082019050919050565b5f6020820190508181035f8301526120b88161207f565b9050919050565b7f4e487b71000000000000000000000000000000000000000000000000000000005f52601160045260245ffd5b5f6120f682611af1565b915061210183611af1565b9250828203905081811115612119576121186120bf565b5b92915050565b5f61212982611af1565b91507fffffffffffffffffffffffffffffffffffffffffffffffffffffffffffffffff820361215b5761215a6120bf565b5b600182019050919050565b7f5061726b20616c726561647920736574000000000000000000000000000000005f82015250565b5f61219a601083611f01565b91506121a582612166565b602082019050919050565b5f6020820190508181035f8301526121c78161218e565b9050919050565b7f4e6f7420646561640000000000000000000000000000000000000000000000005f82015250565b5f612202600883611f01565b915061220d826121ce565b602082019050919050565b5f6020820190508181035f83015261222f816121f6565b9050919050565b7f4e6f7420746865206f776e6572000000000000000000000000000000000000005f82015250565b5f61226a600d83611f01565b915061227582612236565b602082019050919050565b5f6020820190508181035f8301526122978161225e565b9050919050565b7f496e76616c6964206164647265737300000000000000000000000000000000005f82015250565b5f6122d2600f83611f01565b91506122dd8261229e565b602082019050919050565b5f6020820190508181035f8301526122ff816122c6565b9050919050565b5f61231082611af1565b915061231b83611af1565b925082820261232981611af1565b915082820484148315176123405761233f6120bf565b5b5092915050565b7f4e487b71000000000000000000000000000000000000000000000000000000005f52601260045260245ffd5b5f61237e82611af1565b915061238983611af1565b92508261239957612398612347565b5b828204905092915050565b5f6123ae82611af1565b91506123b983611af1565b92508282019050808211156123d1576123d06120bf565b5b92915050565b7f43616e6e6f74206865616c2061206465616420626972643b20726576697665205f8201527f6974206669727374000000000000000000000000000000000000000000000000602082015250565b5f612431602883611f01565b915061243c826123d7565b604082019050919050565b5f6020820190508181035f83015261245e81612425565b9050919050565b5f819050919050565b61247f61247a82611af1565b612465565b82525050565b5f612490828561246e565b6020820191506124a0828461246e565b6020820191508190509392505050565b5f6124ba82611af1565b91506124c583611af1565b9250826124d5576124d4612347565b5b828206905092915050565b7f556e6b6e6f776e207370656369657300000000000000000000000000000000005f82015250565b5f612514600f83611f01565b915061251f826124e0565b602082019050919050565b5f6020820190508181035f83015261254181612508565b905091905056fe68747470733a2f2f676174657761792e70696e6174612e636c6f75642f697066732f6261666b72656964336d64796d7a736a7475646d35367a726f766974786f757667736a627a7a6b796172737137743269326269777967367268747168747470733a2f2f676174657761792e70696e6174612e636c6f75642f697066732f6261667962656961336c65346173746b6e683270346d626b64357734326a353232746e73653477786b3777356d3777696d6f716470366f757a707968747470733a2f2f676174657761792e70696e6174612e636c6f75642f697066732f6261667962656966786e71727070336166616a6e74726e7779796e75326c63727a766d646d737468776162367832776e323377636e62646a6e366d68747470733a2f2f676174657761792e70696e6174612e636c6f75642f697066732f626166796265696576377075637a377968377836686169646d7068703569656f6276636664636c6e6c776a71613269767334793335377076776d6168747470733a2f2f676174657761792e70696e6174612e636c6f75642f697066732f626166796265696670616a6269766868656d6a65666769616d6e7668376f6532376c657874716a376167707a6e63687165756a636e34366935636168747470733a2f2f676174657761792e70696e6174612e636c6f75642f697066732f6261666b7265696636656e6f32716a6a337863376d6562716c327336366f6c36797872777837677761767a3434716e32646c7a33636e773766323468747470733a2f2f676174657761792e70696e6174612e636c6f75642f697066732f62616679626569626364707a707967366d716165326f676f7775756d796d716d7178623275736e697537356765656a347074723436376f74326e6d68747470733a2f2f676174657761792e70696e6174612e636c6f75642f697066732f62616679626569676f686f746f6b366b336f6e76746a797970666e626e7a6263736f327163697862777a34776836347670326e336c71376e6b736168747470733a2f2f676174657761792e70696e6174612e636c6f75642f697066732f6261666b7265696461346170737078746e706236336f71797a763374696e356f776334356c6763746b6471763734686a6173346679746f6f6b746168747470733a2f2f676174657761792e70696e6174612e636c6f75642f697066732f6261666b7265696832666d78753361797363723778657a3275326173686177696663336f6a34716132366a35366368343676657a377a7961656a3468747470733a2f2f676174657761792e70696e6174612e636c6f75642f697066732f626166796265696574626635716f7372796271676b7132636434637a76363664777736737434776a35786c6f7a6534656e6232643578796a36706da2646970667358221220a05219bead2104b15d2490c2ffae356eb90c684b7d1ca34f45c4b4a4f1a1e50264736f6c634300081e0033",
					"opcodes": "PUSH1 0x80 PUSH1 0x40 MSTORE CALLVALUE DUP1 ISZERO PUSH2 0xF JUMPI PUSH0 PUSH0 REVERT JUMPDEST POP PUSH1 0x40 MLOAD PUSH2 0x2A8A CODESIZE SUB DUP1 PUSH2 0x2A8A DUP4 CODECOPY DUP2 DUP2 ADD PUSH1 0x40 MSTORE DUP2 ADD SWAP1 PUSH2 0x31 SWAP2 SWAP1 PUSH2 0xD5 JUMP JUMPDEST DUP1 PUSH1 0x2 PUSH0 PUSH2 0x100 EXP DUP2 SLOAD DUP2 PUSH20 0xFFFFFFFFFFFFFFFFFFFFFFFFFFFFFFFFFFFFFFFF MUL NOT AND SWAP1 DUP4 PUSH20 0xFFFFFFFFFFFFFFFFFFFFFFFFFFFFFFFFFFFFFFFF AND MUL OR SWAP1 SSTORE POP POP PUSH2 0x100 JUMP JUMPDEST PUSH0 PUSH0 REVERT JUMPDEST PUSH0 PUSH20 0xFFFFFFFFFFFFFFFFFFFFFFFFFFFFFFFFFFFFFFFF DUP3 AND SWAP1 POP SWAP2 SWAP1 POP JUMP JUMPDEST PUSH0 PUSH2 0xA4 DUP3 PUSH2 0x7B JUMP JUMPDEST SWAP1 POP SWAP2 SWAP1 POP JUMP JUMPDEST PUSH2 0xB4 DUP2 PUSH2 0x9A JUMP JUMPDEST DUP2 EQ PUSH2 0xBE JUMPI PUSH0 PUSH0 REVERT JUMPDEST POP JUMP JUMPDEST PUSH0 DUP2 MLOAD SWAP1 POP PUSH2 0xCF DUP2 PUSH2 0xAB JUMP JUMPDEST SWAP3 SWAP2 POP POP JUMP JUMPDEST PUSH0 PUSH1 0x20 DUP3 DUP5 SUB SLT ISZERO PUSH2 0xEA JUMPI PUSH2 0xE9 PUSH2 0x77 JUMP JUMPDEST JUMPDEST PUSH0 PUSH2 0xF7 DUP5 DUP3 DUP6 ADD PUSH2 0xC1 JUMP JUMPDEST SWAP2 POP POP SWAP3 SWAP2 POP POP JUMP JUMPDEST PUSH2 0x297D DUP1 PUSH2 0x10D PUSH0 CODECOPY PUSH0 RETURN INVALID PUSH1 0x80 PUSH1 0x40 MSTORE CALLVALUE DUP1 ISZERO PUSH2 0xF JUMPI PUSH0 PUSH0 REVERT JUMPDEST POP PUSH1 0x4 CALLDATASIZE LT PUSH2 0x12A JUMPI PUSH0 CALLDATALOAD PUSH1 0xE0 SHR DUP1 PUSH4 0x6EC88BBD GT PUSH2 0xAB JUMPI DUP1 PUSH4 0xA5D84618 GT PUSH2 0x6F JUMPI DUP1 PUSH4 0xA5D84618 EQ PUSH2 0x33E JUMPI DUP1 PUSH4 0xBFF998F4 EQ PUSH2 0x36E JUMPI DUP1 PUSH4 0xEC1C5955 EQ PUSH2 0x38A JUMPI DUP1 PUSH4 0xF06ABB80 EQ PUSH2 0x3C1 JUMPI DUP1 PUSH4 0xF64FF064 EQ PUSH2 0x3DF JUMPI PUSH2 0x12A JUMP JUMPDEST DUP1 PUSH4 0x6EC88BBD EQ PUSH2 0x29C JUMPI DUP1 PUSH4 0x72680A77 EQ PUSH2 0x2CC JUMPI DUP1 PUSH4 0x8BAECC21 EQ PUSH2 0x2EA JUMPI DUP1 PUSH4 0x8C652F95 EQ PUSH2 0x306 JUMPI DUP1 PUSH4 0xA2B7CE6F EQ PUSH2 0x322 JUMPI PUSH2 0x12A JUMP JUMPDEST DUP1 PUSH4 0x49B1A0BF GT PUSH2 0xF2 JUMPI DUP1 PUSH4 0x49B1A0BF EQ PUSH2 0x1E6 JUMPI DUP1 PUSH4 0x4D2D7881 EQ PUSH2 0x202 JUMPI DUP1 PUSH4 0x4E9C7DF8 EQ PUSH2 0x232 JUMPI DUP1 PUSH4 0x61B8CE8C EQ PUSH2 0x24E JUMPI DUP1 PUSH4 0x6352211E EQ PUSH2 0x26C JUMPI PUSH2 0x12A JUMP JUMPDEST DUP1 PUSH4 0x16CB4A05 EQ PUSH2 0x12E JUMPI DUP1 PUSH4 0x1942D199 EQ PUSH2 0x15E JUMPI DUP1 PUSH4 0x1A3C4034 EQ PUSH2 0x17A JUMPI DUP1 PUSH4 0x21C0DD5A EQ PUSH2 0x198 JUMPI DUP1 PUSH4 0x3127522E EQ PUSH2 0x1C8 JUMPI JUMPDEST PUSH0 PUSH0 REVERT JUMPDEST PUSH2 0x148 PUSH1 0x4 DUP1 CALLDATASIZE SUB DUP2 ADD SWAP1 PUSH2 0x143 SWAP2 SWAP1 PUSH2 0x1B24 JUMP JUMPDEST PUSH2 0x40F JUMP JUMPDEST PUSH1 0x40 MLOAD PUSH2 0x155 SWAP2 SWAP1 PUSH2 0x1B69 JUMP JUMPDEST PUSH1 0x40 MLOAD DUP1 SWAP2 SUB SWAP1 RETURN JUMPDEST PUSH2 0x178 PUSH1 0x4 DUP1 CALLDATASIZE SUB DUP2 ADD SWAP1 PUSH2 0x173 SWAP2 SWAP1 PUSH2 0x1B82 JUMP JUMPDEST PUSH2 0x42C JUMP JUMPDEST STOP JUMPDEST PUSH2 0x182 PUSH2 0x5B9 JUMP JUMPDEST PUSH1 0x40 MLOAD PUSH2 0x18F SWAP2 SWAP1 PUSH2 0x1BCF JUMP JUMPDEST PUSH1 0x40 MLOAD DUP1 SWAP2 SUB SWAP1 RETURN JUMPDEST PUSH2 0x1B2 PUSH1 0x4 DUP1 CALLDATASIZE SUB DUP2 ADD SWAP1 PUSH2 0x1AD SWAP2 SWAP1 PUSH2 0x1C0B JUMP JUMPDEST PUSH2 0x636 JUMP JUMPDEST PUSH1 0x40 MLOAD PUSH2 0x1BF SWAP2 SWAP1 PUSH2 0x1BCF JUMP JUMPDEST PUSH1 0x40 MLOAD DUP1 SWAP2 SUB SWAP1 RETURN JUMPDEST PUSH2 0x1D0 PUSH2 0x703 JUMP JUMPDEST PUSH1 0x40 MLOAD PUSH2 0x1DD SWAP2 SWAP1 PUSH2 0x1BCF JUMP JUMPDEST PUSH1 0x40 MLOAD DUP1 SWAP2 SUB SWAP1 RETURN JUMPDEST PUSH2 0x200 PUSH1 0x4 DUP1 CALLDATASIZE SUB DUP2 ADD SWAP1 PUSH2 0x1FB SWAP2 SWAP1 PUSH2 0x1B24 JUMP JUMPDEST PUSH2 0x77F JUMP JUMPDEST STOP JUMPDEST PUSH2 0x21C PUSH1 0x4 DUP1 CALLDATASIZE SUB DUP2 ADD SWAP1 PUSH2 0x217 SWAP2 SWAP1 PUSH2 0x1C0B JUMP JUMPDEST PUSH2 0x83A JUMP JUMPDEST PUSH1 0x40 MLOAD PUSH2 0x229 SWAP2 SWAP1 PUSH2 0x1BCF JUMP JUMPDEST PUSH1 0x40 MLOAD DUP1 SWAP2 SUB SWAP1 RETURN JUMPDEST PUSH2 0x24C PUSH1 0x4 DUP1 CALLDATASIZE SUB DUP2 ADD SWAP1 PUSH2 0x247 SWAP2 SWAP1 PUSH2 0x1C90 JUMP JUMPDEST PUSH2 0xA54 JUMP JUMPDEST STOP JUMPDEST PUSH2 0x256 PUSH2 0xB26 JUMP JUMPDEST PUSH1 0x40 MLOAD PUSH2 0x263 SWAP2 SWAP1 PUSH2 0x1BCF JUMP JUMPDEST PUSH1 0x40 MLOAD DUP1 SWAP2 SUB SWAP1 RETURN JUMPDEST PUSH2 0x286 PUSH1 0x4 DUP1 CALLDATASIZE SUB DUP2 ADD SWAP1 PUSH2 0x281 SWAP2 SWAP1 PUSH2 0x1B24 JUMP JUMPDEST PUSH2 0xB2C JUMP JUMPDEST PUSH1 0x40 MLOAD PUSH2 0x293 SWAP2 SWAP1 PUSH2 0x1CCA JUMP JUMPDEST PUSH1 0x40 MLOAD DUP1 SWAP2 SUB SWAP1 RETURN JUMPDEST PUSH2 0x2B6 PUSH1 0x4 DUP1 CALLDATASIZE SUB DUP2 ADD SWAP1 PUSH2 0x2B1 SWAP2 SWAP1 PUSH2 0x1B24 JUMP JUMPDEST PUSH2 0xB5C JUMP JUMPDEST PUSH1 0x40 MLOAD PUSH2 0x2C3 SWAP2 SWAP1 PUSH2 0x1E14 JUMP JUMPDEST PUSH1 0x40 MLOAD DUP1 SWAP2 SUB SWAP1 RETURN JUMPDEST PUSH2 0x2D4 PUSH2 0xC2F JUMP JUMPDEST PUSH1 0x40 MLOAD PUSH2 0x2E1 SWAP2 SWAP1 PUSH2 0x1CCA JUMP JUMPDEST PUSH1 0x40 MLOAD DUP1 SWAP2 SUB SWAP1 RETURN JUMPDEST PUSH2 0x304 PUSH1 0x4 DUP1 CALLDATASIZE SUB DUP2 ADD SWAP1 PUSH2 0x2FF SWAP2 SWAP1 PUSH2 0x1B24 JUMP JUMPDEST PUSH2 0xC54 JUMP JUMPDEST STOP JUMPDEST PUSH2 0x320 PUSH1 0x4 DUP1 CALLDATASIZE SUB DUP2 ADD SWAP1 PUSH2 0x31B SWAP2 SWAP1 PUSH2 0x1E2E JUMP JUMPDEST PUSH2 0xDF3 JUMP JUMPDEST STOP JUMPDEST PUSH2 0x33C PUSH1 0x4 DUP1 CALLDATASIZE SUB DUP2 ADD SWAP1 PUSH2 0x337 SWAP2 SWAP1 PUSH2 0x1B24 JUMP JUMPDEST PUSH2 0xFE1 JUMP JUMPDEST STOP JUMPDEST PUSH2 0x358 PUSH1 0x4 DUP1 CALLDATASIZE SUB DUP2 ADD SWAP1 PUSH2 0x353 SWAP2 SWAP1 PUSH2 0x1C0B JUMP JUMPDEST PUSH2 0x1158 JUMP JUMPDEST PUSH1 0x40 MLOAD PUSH2 0x365 SWAP2 SWAP1 PUSH2 0x1BCF JUMP JUMPDEST PUSH1 0x40 MLOAD DUP1 SWAP2 SUB SWAP1 RETURN JUMPDEST PUSH2 0x388 PUSH1 0x4 DUP1 CALLDATASIZE SUB DUP2 ADD SWAP1 PUSH2 0x383 SWAP2 SWAP1 PUSH2 0x1B24 JUMP JUMPDEST PUSH2 0x1224 JUMP JUMPDEST STOP JUMPDEST PUSH2 0x3A4 PUSH1 0x4 DUP1 CALLDATASIZE SUB DUP2 ADD SWAP1 PUSH2 0x39F SWAP2 SWAP1 PUSH2 0x1B24 JUMP JUMPDEST PUSH2 0x138E JUMP JUMPDEST PUSH1 0x40 MLOAD PUSH2 0x3B8 SWAP9 SWAP8 SWAP7 SWAP6 SWAP5 SWAP4 SWAP3 SWAP2 SWAP1 PUSH2 0x1E7B JUMP JUMPDEST PUSH1 0x40 MLOAD DUP1 SWAP2 SUB SWAP1 RETURN JUMPDEST PUSH2 0x3C9 PUSH2 0x13F5 JUMP JUMPDEST PUSH1 0x40 MLOAD PUSH2 0x3D6 SWAP2 SWAP1 PUSH2 0x1BCF JUMP JUMPDEST PUSH1 0x40 MLOAD DUP1 SWAP2 SUB SWAP1 RETURN JUMPDEST PUSH2 0x3F9 PUSH1 0x4 DUP1 CALLDATASIZE SUB DUP2 ADD SWAP1 PUSH2 0x3F4 SWAP2 SWAP1 PUSH2 0x1B24 JUMP JUMPDEST PUSH2 0x13FE JUMP JUMPDEST PUSH1 0x40 MLOAD PUSH2 0x406 SWAP2 SWAP1 PUSH2 0x1F67 JUMP JUMPDEST PUSH1 0x40 MLOAD DUP1 SWAP2 SUB SWAP1 RETURN JUMPDEST PUSH1 0x3 PUSH1 0x20 MSTORE DUP1 PUSH0 MSTORE PUSH1 0x40 PUSH0 KECCAK256 PUSH0 SWAP2 POP SLOAD SWAP1 PUSH2 0x100 EXP SWAP1 DIV PUSH1 0xFF AND DUP2 JUMP JUMPDEST PUSH1 0x2 PUSH0 SWAP1 SLOAD SWAP1 PUSH2 0x100 EXP SWAP1 DIV PUSH20 0xFFFFFFFFFFFFFFFFFFFFFFFFFFFFFFFFFFFFFFFF AND PUSH20 0xFFFFFFFFFFFFFFFFFFFFFFFFFFFFFFFFFFFFFFFF AND CALLER PUSH20 0xFFFFFFFFFFFFFFFFFFFFFFFFFFFFFFFFFFFFFFFF AND EQ PUSH2 0x4BB JUMPI PUSH1 0x40 MLOAD PUSH32 0x8C379A000000000000000000000000000000000000000000000000000000000 DUP2 MSTORE PUSH1 0x4 ADD PUSH2 0x4B2 SWAP1 PUSH2 0x1FD1 JUMP JUMPDEST PUSH1 0x40 MLOAD DUP1 SWAP2 SUB SWAP1 REVERT JUMPDEST PUSH2 0x4C4 DUP3 PUSH2 0xFE1 JUMP JUMPDEST PUSH0 PUSH0 PUSH0 DUP5 DUP2 MSTORE PUSH1 0x20 ADD SWAP1 DUP2 MSTORE PUSH1 0x20 ADD PUSH0 KECCAK256 SWAP1 POP PUSH2 0x4E0 DUP4 PUSH2 0x1438 JUMP JUMPDEST DUP1 PUSH0 ADD PUSH0 SWAP1 SLOAD SWAP1 PUSH2 0x100 EXP SWAP1 DIV PUSH1 0xFF AND PUSH2 0x52F JUMPI PUSH1 0x40 MLOAD PUSH32 0x8C379A000000000000000000000000000000000000000000000000000000000 DUP2 MSTORE PUSH1 0x4 ADD PUSH2 0x526 SWAP1 PUSH2 0x2039 JUMP JUMPDEST PUSH1 0x40 MLOAD DUP1 SWAP2 SUB SWAP1 REVERT JUMPDEST DUP1 PUSH1 0x6 ADD PUSH0 SWAP1 SLOAD SWAP1 PUSH2 0x100 EXP SWAP1 DIV PUSH1 0xFF AND ISZERO PUSH2 0x580 JUMPI PUSH1 0x40 MLOAD PUSH32 0x8C379A000000000000000000000000000000000000000000000000000000000 DUP2 MSTORE PUSH1 0x4 ADD PUSH2 0x577 SWAP1 PUSH2 0x20A1 JUMP JUMPDEST PUSH1 0x40 MLOAD DUP1 SWAP2 SUB SWAP1 REVERT JUMPDEST DUP2 DUP2 PUSH1 0x2 ADD SLOAD LT PUSH2 0x5AA JUMPI DUP2 DUP2 PUSH1 0x2 ADD PUSH0 DUP3 DUP3 SLOAD PUSH2 0x59E SWAP2 SWAP1 PUSH2 0x20EC JUMP JUMPDEST SWAP3 POP POP DUP2 SWAP1 SSTORE POP PUSH2 0x5B4 JUMP JUMPDEST PUSH0 DUP2 PUSH1 0x2 ADD DUP2 SWAP1 SSTORE POP JUMPDEST POP POP POP JUMP JUMPDEST PUSH0 PUSH0 PUSH0 SWAP1 POP JUMPDEST PUSH1 0x1 SLOAD DUP2 LT ISZERO PUSH2 0x632 JUMPI PUSH0 PUSH0 DUP3 DUP2 MSTORE PUSH1 0x20 ADD SWAP1 DUP2 MSTORE PUSH1 0x20 ADD PUSH0 KECCAK256 PUSH0 ADD PUSH0 SWAP1 SLOAD SWAP1 PUSH2 0x100 EXP SWAP1 DIV PUSH1 0xFF AND DUP1 ISZERO PUSH2 0x611 JUMPI POP PUSH0 PUSH0 DUP3 DUP2 MSTORE PUSH1 0x20 ADD SWAP1 DUP2 MSTORE PUSH1 0x20 ADD PUSH0 KECCAK256 PUSH1 0x6 ADD PUSH0 SWAP1 SLOAD SWAP1 PUSH2 0x100 EXP SWAP1 DIV PUSH1 0xFF AND ISZERO JUMPDEST ISZERO PUSH2 0x625 JUMPI DUP2 DUP1 PUSH2 0x621 SWAP1 PUSH2 0x211F JUMP JUMPDEST SWAP3 POP POP JUMPDEST DUP1 DUP1 PUSH1 0x1 ADD SWAP2 POP POP PUSH2 0x5BF JUMP JUMPDEST POP SWAP1 JUMP JUMPDEST PUSH0 PUSH0 PUSH0 SWAP1 POP JUMPDEST PUSH1 0x1 SLOAD DUP2 LT ISZERO PUSH2 0x6FD JUMPI PUSH0 PUSH0 DUP3 DUP2 MSTORE PUSH1 0x20 ADD SWAP1 DUP2 MSTORE PUSH1 0x20 ADD PUSH0 KECCAK256 PUSH0 ADD PUSH0 SWAP1 SLOAD SWAP1 PUSH2 0x100 EXP SWAP1 DIV PUSH1 0xFF AND DUP1 ISZERO PUSH2 0x68E JUMPI POP PUSH0 PUSH0 DUP3 DUP2 MSTORE PUSH1 0x20 ADD SWAP1 DUP2 MSTORE PUSH1 0x20 ADD PUSH0 KECCAK256 PUSH1 0x6 ADD PUSH0 SWAP1 SLOAD SWAP1 PUSH2 0x100 EXP SWAP1 DIV PUSH1 0xFF AND ISZERO JUMPDEST DUP1 ISZERO PUSH2 0x6DC JUMPI POP DUP3 PUSH1 0xA DUP2 GT ISZERO PUSH2 0x6A8 JUMPI PUSH2 0x6A7 PUSH2 0x1D01 JUMP JUMPDEST JUMPDEST PUSH0 PUSH0 DUP4 DUP2 MSTORE PUSH1 0x20 ADD SWAP1 DUP2 MSTORE PUSH1 0x20 ADD PUSH0 KECCAK256 PUSH1 0x4 ADD PUSH0 SWAP1 SLOAD SWAP1 PUSH2 0x100 EXP SWAP1 DIV PUSH1 0xFF AND PUSH1 0xA DUP2 GT ISZERO PUSH2 0x6DA JUMPI PUSH2 0x6D9 PUSH2 0x1D01 JUMP JUMPDEST JUMPDEST EQ JUMPDEST ISZERO PUSH2 0x6F0 JUMPI DUP2 DUP1 PUSH2 0x6EC SWAP1 PUSH2 0x211F JUMP JUMPDEST SWAP3 POP POP JUMPDEST DUP1 DUP1 PUSH1 0x1 ADD SWAP2 POP POP PUSH2 0x63C JUMP JUMPDEST POP SWAP2 SWAP1 POP JUMP JUMPDEST PUSH0 PUSH0 PUSH0 SWAP1 POP JUMPDEST PUSH1 0x1 SLOAD DUP2 LT ISZERO PUSH2 0x77B JUMPI PUSH0 PUSH0 DUP3 DUP2 MSTORE PUSH1 0x20 ADD SWAP1 DUP2 MSTORE PUSH1 0x20 ADD PUSH0 KECCAK256 PUSH0 ADD PUSH0 SWAP1 SLOAD SWAP1 PUSH2 0x100 EXP SWAP1 DIV PUSH1 0xFF AND DUP1 ISZERO PUSH2 0x75A JUMPI POP PUSH0 PUSH0 DUP3 DUP2 MSTORE PUSH1 0x20 ADD SWAP1 DUP2 MSTORE PUSH1 0x20 ADD PUSH0 KECCAK256 PUSH1 0x6 ADD PUSH0 SWAP1 SLOAD SWAP1 PUSH2 0x100 EXP SWAP1 DIV PUSH1 0xFF AND JUMPDEST ISZERO PUSH2 0x76E JUMPI DUP2 DUP1 PUSH2 0x76A SWAP1 PUSH2 0x211F JUMP JUMPDEST SWAP3 POP POP JUMPDEST DUP1 DUP1 PUSH1 0x1 ADD SWAP2 POP POP PUSH2 0x709 JUMP JUMPDEST POP SWAP1 JUMP JUMPDEST PUSH1 0x2 PUSH0 SWAP1 SLOAD SWAP1 PUSH2 0x100 EXP SWAP1 DIV PUSH20 0xFFFFFFFFFFFFFFFFFFFFFFFFFFFFFFFFFFFFFFFF AND PUSH20 0xFFFFFFFFFFFFFFFFFFFFFFFFFFFFFFFFFFFFFFFF AND CALLER PUSH20 0xFFFFFFFFFFFFFFFFFFFFFFFFFFFFFFFFFFFFFFFF AND EQ PUSH2 0x80E JUMPI PUSH1 0x40 MLOAD PUSH32 0x8C379A000000000000000000000000000000000000000000000000000000000 DUP2 MSTORE PUSH1 0x4 ADD PUSH2 0x805 SWAP1 PUSH2 0x1FD1 JUMP JUMPDEST PUSH1 0x40 MLOAD DUP1 SWAP2 SUB SWAP1 REVERT JUMPDEST PUSH1 0x1 PUSH1 0x3 PUSH0 DUP4 DUP2 MSTORE PUSH1 0x20 ADD SWAP1 DUP2 MSTORE PUSH1 0x20 ADD PUSH0 KECCAK256 PUSH0 PUSH2 0x100 EXP DUP2 SLOAD DUP2 PUSH1 0xFF MUL NOT AND SWAP1 DUP4 ISZERO ISZERO MUL OR SWAP1 SSTORE POP POP JUMP JUMPDEST PUSH0 PUSH1 0x2 PUSH0 SWAP1 SLOAD SWAP1 PUSH2 0x100 EXP SWAP1 DIV PUSH20 0xFFFFFFFFFFFFFFFFFFFFFFFFFFFFFFFFFFFFFFFF AND PUSH20 0xFFFFFFFFFFFFFFFFFFFFFFFFFFFFFFFFFFFFFFFF AND CALLER PUSH20 0xFFFFFFFFFFFFFFFFFFFFFFFFFFFFFFFFFFFFFFFF AND EQ PUSH2 0x8CA JUMPI PUSH1 0x40 MLOAD PUSH32 0x8C379A000000000000000000000000000000000000000000000000000000000 DUP2 MSTORE PUSH1 0x4 ADD PUSH2 0x8C1 SWAP1 PUSH2 0x1FD1 JUMP JUMPDEST PUSH1 0x40 MLOAD DUP1 SWAP2 SUB SWAP1 REVERT JUMPDEST PUSH0 PUSH2 0x8D4 DUP4 PUSH2 0x1516 JUMP JUMPDEST SWAP1 POP PUSH1 0x40 MLOAD DUP1 PUSH2 0x100 ADD PUSH1 0x40 MSTORE DUP1 PUSH1 0x1 ISZERO ISZERO DUP2 MSTORE PUSH1 0x20 ADD PUSH0 DUP2 MSTORE PUSH1 0x20 ADD PUSH0 DUP2 MSTORE PUSH1 0x20 ADD DUP3 PUSH0 ADD MLOAD DUP2 MSTORE PUSH1 0x20 ADD DUP5 PUSH1 0xA DUP2 GT ISZERO PUSH2 0x913 JUMPI PUSH2 0x912 PUSH2 0x1D01 JUMP JUMPDEST JUMPDEST DUP2 MSTORE PUSH1 0x20 ADD TIMESTAMP DUP2 MSTORE PUSH1 0x20 ADD PUSH0 ISZERO ISZERO DUP2 MSTORE PUSH1 0x20 ADD PUSH0 DUP2 MSTORE POP PUSH0 PUSH0 PUSH1 0x1 SLOAD DUP2 MSTORE PUSH1 0x20 ADD SWAP1 DUP2 MSTORE PUSH1 0x20 ADD PUSH0 KECCAK256 PUSH0 DUP3 ADD MLOAD DUP2 PUSH0 ADD PUSH0 PUSH2 0x100 EXP DUP2 SLOAD DUP2 PUSH1 0xFF MUL NOT AND SWAP1 DUP4 ISZERO ISZERO MUL OR SWAP1 SSTORE POP PUSH1 0x20 DUP3 ADD MLOAD DUP2 PUSH1 0x1 ADD SSTORE PUSH1 0x40 DUP3 ADD MLOAD DUP2 PUSH1 0x2 ADD SSTORE PUSH1 0x60 DUP3 ADD MLOAD DUP2 PUSH1 0x3 ADD SSTORE PUSH1 0x80 DUP3 ADD MLOAD DUP2 PUSH1 0x4 ADD PUSH0 PUSH2 0x100 EXP DUP2 SLOAD DUP2 PUSH1 0xFF MUL NOT AND SWAP1 DUP4 PUSH1 0xA DUP2 GT ISZERO PUSH2 0x9A1 JUMPI PUSH2 0x9A0 PUSH2 0x1D01 JUMP JUMPDEST JUMPDEST MUL OR SWAP1 SSTORE POP PUSH1 0xA0 DUP3 ADD MLOAD DUP2 PUSH1 0x5 ADD SSTORE PUSH1 0xC0 DUP3 ADD MLOAD DUP2 PUSH1 0x6 ADD PUSH0 PUSH2 0x100 EXP DUP2 SLOAD DUP2 PUSH1 0xFF MUL NOT AND SWAP1 DUP4 ISZERO ISZERO MUL OR SWAP1 SSTORE POP PUSH1 0xE0 DUP3 ADD MLOAD DUP2 PUSH1 0x7 ADD SSTORE SWAP1 POP POP ORIGIN PUSH1 0x4 PUSH0 PUSH1 0x1 SLOAD DUP2 MSTORE PUSH1 0x20 ADD SWAP1 DUP2 MSTORE PUSH1 0x20 ADD PUSH0 KECCAK256 PUSH0 PUSH2 0x100 EXP DUP2 SLOAD DUP2 PUSH20 0xFFFFFFFFFFFFFFFFFFFFFFFFFFFFFFFFFFFFFFFF MUL NOT AND SWAP1 DUP4 PUSH20 0xFFFFFFFFFFFFFFFFFFFFFFFFFFFFFFFFFFFFFFFF AND MUL OR SWAP1 SSTORE POP PUSH0 PUSH1 0x1 SLOAD SWAP1 POP PUSH1 0x1 PUSH0 DUP2 SLOAD DUP1 SWAP3 SWAP2 SWAP1 PUSH2 0xA45 SWAP1 PUSH2 0x211F JUMP JUMPDEST SWAP2 SWAP1 POP SSTORE POP DUP1 SWAP3 POP POP POP SWAP2 SWAP1 POP JUMP JUMPDEST PUSH0 PUSH20 0xFFFFFFFFFFFFFFFFFFFFFFFFFFFFFFFFFFFFFFFF AND PUSH1 0x2 PUSH0 SWAP1 SLOAD SWAP1 PUSH2 0x100 EXP SWAP1 DIV PUSH20 0xFFFFFFFFFFFFFFFFFFFFFFFFFFFFFFFFFFFFFFFF AND PUSH20 0xFFFFFFFFFFFFFFFFFFFFFFFFFFFFFFFFFFFFFFFF AND EQ PUSH2 0xAE3 JUMPI PUSH1 0x40 MLOAD PUSH32 0x8C379A000000000000000000000000000000000000000000000000000000000 DUP2 MSTORE PUSH1 0x4 ADD PUSH2 0xADA SWAP1 PUSH2 0x21B0 JUMP JUMPDEST PUSH1 0x40 MLOAD DUP1 SWAP2 SUB SWAP1 REVERT JUMPDEST DUP1 PUSH1 0x2 PUSH0 PUSH2 0x100 EXP DUP2 SLOAD DUP2 PUSH20 0xFFFFFFFFFFFFFFFFFFFFFFFFFFFFFFFFFFFFFFFF MUL NOT AND SWAP1 DUP4 PUSH20 0xFFFFFFFFFFFFFFFFFFFFFFFFFFFFFFFFFFFFFFFF AND MUL OR SWAP1 SSTORE POP POP JUMP JUMPDEST PUSH1 0x1 SLOAD DUP2 JUMP JUMPDEST PUSH1 0x4 PUSH1 0x20 MSTORE DUP1 PUSH0 MSTORE PUSH1 0x40 PUSH0 KECCAK256 PUSH0 SWAP2 POP SLOAD SWAP1 PUSH2 0x100 EXP SWAP1 DIV PUSH20 0xFFFFFFFFFFFFFFFFFFFFFFFFFFFFFFFFFFFFFFFF AND DUP2 JUMP JUMPDEST PUSH2 0xB64 PUSH2 0x1A6F JUMP JUMPDEST PUSH2 0xB6D DUP3 PUSH2 0xFE1 JUMP JUMPDEST PUSH0 PUSH0 DUP4 DUP2 MSTORE PUSH1 0x20 ADD SWAP1 DUP2 MSTORE PUSH1 0x20 ADD PUSH0 KECCAK256 PUSH1 0x40 MLOAD DUP1 PUSH2 0x100 ADD PUSH1 0x40 MSTORE SWAP1 DUP2 PUSH0 DUP3 ADD PUSH0 SWAP1 SLOAD SWAP1 PUSH2 0x100 EXP SWAP1 DIV PUSH1 0xFF AND ISZERO ISZERO ISZERO ISZERO DUP2 MSTORE PUSH1 0x20 ADD PUSH1 0x1 DUP3 ADD SLOAD DUP2 MSTORE PUSH1 0x20 ADD PUSH1 0x2 DUP3 ADD SLOAD DUP2 MSTORE PUSH1 0x20 ADD PUSH1 0x3 DUP3 ADD SLOAD DUP2 MSTORE PUSH1 0x20 ADD PUSH1 0x4 DUP3 ADD PUSH0 SWAP1 SLOAD SWAP1 PUSH2 0x100 EXP SWAP1 DIV PUSH1 0xFF AND PUSH1 0xA DUP2 GT ISZERO PUSH2 0xBE4 JUMPI PUSH2 0xBE3 PUSH2 0x1D01 JUMP JUMPDEST JUMPDEST PUSH1 0xA DUP2 GT ISZERO PUSH2 0xBF6 JUMPI PUSH2 0xBF5 PUSH2 0x1D01 JUMP JUMPDEST JUMPDEST DUP2 MSTORE PUSH1 0x20 ADD PUSH1 0x5 DUP3 ADD SLOAD DUP2 MSTORE PUSH1 0x20 ADD PUSH1 0x6 DUP3 ADD PUSH0 SWAP1 SLOAD SWAP1 PUSH2 0x100 EXP SWAP1 DIV PUSH1 0xFF AND ISZERO ISZERO ISZERO ISZERO DUP2 MSTORE PUSH1 0x20 ADD PUSH1 0x7 DUP3 ADD SLOAD DUP2 MSTORE POP POP SWAP1 POP SWAP2 SWAP1 POP JUMP JUMPDEST PUSH1 0x2 PUSH0 SWAP1 SLOAD SWAP1 PUSH2 0x100 EXP SWAP1 DIV PUSH20 0xFFFFFFFFFFFFFFFFFFFFFFFFFFFFFFFFFFFFFFFF AND DUP2 JUMP JUMPDEST PUSH1 0x2 PUSH0 SWAP1 SLOAD SWAP1 PUSH2 0x100 EXP SWAP1 DIV PUSH20 0xFFFFFFFFFFFFFFFFFFFFFFFFFFFFFFFFFFFFFFFF AND PUSH20 0xFFFFFFFFFFFFFFFFFFFFFFFFFFFFFFFFFFFFFFFF AND CALLER PUSH20 0xFFFFFFFFFFFFFFFFFFFFFFFFFFFFFFFFFFFFFFFF AND EQ PUSH2 0xCE3 JUMPI PUSH1 0x40 MLOAD PUSH32 0x8C379A000000000000000000000000000000000000000000000000000000000 DUP2 MSTORE PUSH1 0x4 ADD PUSH2 0xCDA SWAP1 PUSH2 0x1FD1 JUMP JUMPDEST PUSH1 0x40 MLOAD DUP1 SWAP2 SUB SWAP1 REVERT JUMPDEST PUSH0 PUSH0 PUSH0 DUP4 DUP2 MSTORE PUSH1 0x20 ADD SWAP1 DUP2 MSTORE PUSH1 0x20 ADD PUSH0 KECCAK256 SWAP1 POP DUP1 PUSH0 ADD PUSH0 SWAP1 SLOAD SWAP1 PUSH2 0x100 EXP SWAP1 DIV PUSH1 0xFF AND PUSH2 0xD45 JUMPI PUSH1 0x40 MLOAD PUSH32 0x8C379A000000000000000000000000000000000000000000000000000000000 DUP2 MSTORE PUSH1 0x4 ADD PUSH2 0xD3C SWAP1 PUSH2 0x2039 JUMP JUMPDEST PUSH1 0x40 MLOAD DUP1 SWAP2 SUB SWAP1 REVERT JUMPDEST DUP1 PUSH1 0x6 ADD PUSH0 SWAP1 SLOAD SWAP1 PUSH2 0x100 EXP SWAP1 DIV PUSH1 0xFF AND PUSH2 0xD95 JUMPI PUSH1 0x40 MLOAD PUSH32 0x8C379A000000000000000000000000000000000000000000000000000000000 DUP2 MSTORE PUSH1 0x4 ADD PUSH2 0xD8C SWAP1 PUSH2 0x2218 JUMP JUMPDEST PUSH1 0x40 MLOAD DUP1 SWAP2 SUB SWAP1 REVERT JUMPDEST PUSH2 0xDAE DUP2 PUSH1 0x4 ADD PUSH0 SWAP1 SLOAD SWAP1 PUSH2 0x100 EXP SWAP1 DIV PUSH1 0xFF AND PUSH2 0x1516 JUMP JUMPDEST PUSH0 ADD MLOAD DUP2 PUSH1 0x3 ADD DUP2 SWAP1 SSTORE POP PUSH0 DUP2 PUSH1 0x2 ADD DUP2 SWAP1 SSTORE POP PUSH0 DUP2 PUSH1 0x6 ADD PUSH0 PUSH2 0x100 EXP DUP2 SLOAD DUP2 PUSH1 0xFF MUL NOT AND SWAP1 DUP4 ISZERO ISZERO MUL OR SWAP1 SSTORE POP PUSH0 DUP2 PUSH1 0x7 ADD DUP2 SWAP1 SSTORE POP TIMESTAMP DUP2 PUSH1 0x5 ADD DUP2 SWAP1 SSTORE POP POP POP JUMP JUMPDEST PUSH1 0x2 PUSH0 SWAP1 SLOAD SWAP1 PUSH2 0x100 EXP SWAP1 DIV PUSH20 0xFFFFFFFFFFFFFFFFFFFFFFFFFFFFFFFFFFFFFFFF AND PUSH20 0xFFFFFFFFFFFFFFFFFFFFFFFFFFFFFFFFFFFFFFFF AND CALLER PUSH20 0xFFFFFFFFFFFFFFFFFFFFFFFFFFFFFFFFFFFFFFFF AND EQ PUSH2 0xE82 JUMPI PUSH1 0x40 MLOAD PUSH32 0x8C379A000000000000000000000000000000000000000000000000000000000 DUP2 MSTORE PUSH1 0x4 ADD PUSH2 0xE79 SWAP1 PUSH2 0x1FD1 JUMP JUMPDEST PUSH1 0x40 MLOAD DUP1 SWAP2 SUB SWAP1 REVERT JUMPDEST ORIGIN PUSH20 0xFFFFFFFFFFFFFFFFFFFFFFFFFFFFFFFFFFFFFFFF AND PUSH1 0x4 PUSH0 DUP5 DUP2 MSTORE PUSH1 0x20 ADD SWAP1 DUP2 MSTORE PUSH1 0x20 ADD PUSH0 KECCAK256 PUSH0 SWAP1 SLOAD SWAP1 PUSH2 0x100 EXP SWAP1 DIV PUSH20 0xFFFFFFFFFFFFFFFFFFFFFFFFFFFFFFFFFFFFFFFF AND PUSH20 0xFFFFFFFFFFFFFFFFFFFFFFFFFFFFFFFFFFFFFFFF AND EQ PUSH2 0xF20 JUMPI PUSH1 0x40 MLOAD PUSH32 0x8C379A000000000000000000000000000000000000000000000000000000000 DUP2 MSTORE PUSH1 0x4 ADD PUSH2 0xF17 SWAP1 PUSH2 0x2280 JUMP JUMPDEST PUSH1 0x40 MLOAD DUP1 SWAP2 SUB SWAP1 REVERT JUMPDEST PUSH0 PUSH20 0xFFFFFFFFFFFFFFFFFFFFFFFFFFFFFFFFFFFFFFFF AND DUP2 PUSH20 0xFFFFFFFFFFFFFFFFFFFFFFFFFFFFFFFFFFFFFFFF AND SUB PUSH2 0xF8E JUMPI PUSH1 0x40 MLOAD PUSH32 0x8C379A000000000000000000000000000000000000000000000000000000000 DUP2 MSTORE PUSH1 0x4 ADD PUSH2 0xF85 SWAP1 PUSH2 0x22E8 JUMP JUMPDEST PUSH1 0x40 MLOAD DUP1 SWAP2 SUB SWAP1 REVERT JUMPDEST DUP1 PUSH1 0x4 PUSH0 DUP5 DUP2 MSTORE PUSH1 0x20 ADD SWAP1 DUP2 MSTORE PUSH1 0x20 ADD PUSH0 KECCAK256 PUSH0 PUSH2 0x100 EXP DUP2 SLOAD DUP2 PUSH20 0xFFFFFFFFFFFFFFFFFFFFFFFFFFFFFFFFFFFFFFFF MUL NOT AND SWAP1 DUP4 PUSH20 0xFFFFFFFFFFFFFFFFFFFFFFFFFFFFFFFFFFFFFFFF AND MUL OR SWAP1 SSTORE POP POP POP JUMP JUMPDEST PUSH0 PUSH0 PUSH0 DUP4 DUP2 MSTORE PUSH1 0x20 ADD SWAP1 DUP2 MSTORE PUSH1 0x20 ADD PUSH0 KECCAK256 SWAP1 POP DUP1 PUSH1 0x6 ADD PUSH0 SWAP1 SLOAD SWAP1 PUSH2 0x100 EXP SWAP1 DIV PUSH1 0xFF AND ISZERO PUSH2 0x1010 JUMPI POP PUSH2 0x1155 JUMP JUMPDEST PUSH0 DUP2 PUSH1 0x5 ADD SLOAD TIMESTAMP PUSH2 0x1021 SWAP2 SWAP1 PUSH2 0x20EC JUMP JUMPDEST SWAP1 POP PUSH0 DUP2 GT ISZERO PUSH2 0x1152 JUMPI PUSH0 PUSH2 0x1045 DUP4 PUSH1 0x4 ADD PUSH0 SWAP1 SLOAD SWAP1 PUSH2 0x100 EXP SWAP1 DIV PUSH1 0xFF AND PUSH2 0x1516 JUMP JUMPDEST SWAP1 POP PUSH0 PUSH2 0xE10 DUP3 PUSH1 0x40 ADD MLOAD DUP5 PUSH2 0x105B SWAP2 SWAP1 PUSH2 0x2306 JUMP JUMPDEST PUSH2 0x1065 SWAP2 SWAP1 PUSH2 0x2374 JUMP JUMPDEST SWAP1 POP DUP1 DUP5 PUSH1 0x2 ADD PUSH0 DUP3 DUP3 SLOAD PUSH2 0x107A SWAP2 SWAP1 PUSH2 0x23A4 JUMP JUMPDEST SWAP3 POP POP DUP2 SWAP1 SSTORE POP DUP2 PUSH1 0x20 ADD MLOAD DUP5 PUSH1 0x2 ADD SLOAD GT ISZERO PUSH2 0x1110 JUMPI PUSH0 DUP3 PUSH1 0x20 ADD MLOAD DUP6 PUSH1 0x2 ADD SLOAD PUSH2 0x10A6 SWAP2 SWAP1 PUSH2 0x20EC JUMP JUMPDEST SWAP1 POP DUP3 PUSH1 0x20 ADD MLOAD DUP6 PUSH1 0x2 ADD DUP2 SWAP1 SSTORE POP DUP1 DUP6 PUSH1 0x3 ADD SLOAD GT PUSH2 0x10F3 JUMPI PUSH0 DUP6 PUSH1 0x3 ADD DUP2 SWAP1 SSTORE POP PUSH1 0x1 DUP6 PUSH1 0x6 ADD PUSH0 PUSH2 0x100 EXP DUP2 SLOAD DUP2 PUSH1 0xFF MUL NOT AND SWAP1 DUP4 ISZERO ISZERO MUL OR SWAP1 SSTORE POP TIMESTAMP DUP6 PUSH1 0x7 ADD DUP2 SWAP1 SSTORE POP PUSH2 0x110E JUMP JUMPDEST DUP1 DUP6 PUSH1 0x3 ADD PUSH0 DUP3 DUP3 SLOAD PUSH2 0x1106 SWAP2 SWAP1 PUSH2 0x20EC JUMP JUMPDEST SWAP3 POP POP DUP2 SWAP1 SSTORE POP JUMPDEST POP JUMPDEST PUSH0 PUSH3 0x15180 DUP5 PUSH2 0x1120 SWAP2 SWAP1 PUSH2 0x2374 JUMP JUMPDEST SWAP1 POP PUSH0 DUP2 GT ISZERO PUSH2 0x1145 JUMPI DUP1 DUP6 PUSH1 0x1 ADD PUSH0 DUP3 DUP3 SLOAD PUSH2 0x113D SWAP2 SWAP1 PUSH2 0x23A4 JUMP JUMPDEST SWAP3 POP POP DUP2 SWAP1 SSTORE POP JUMPDEST TIMESTAMP DUP6 PUSH1 0x5 ADD DUP2 SWAP1 SSTORE POP POP POP POP JUMPDEST POP POP JUMPDEST POP JUMP JUMPDEST PUSH0 PUSH0 PUSH0 SWAP1 POP JUMPDEST PUSH1 0x1 SLOAD DUP2 LT ISZERO PUSH2 0x121E JUMPI PUSH0 PUSH0 DUP3 DUP2 MSTORE PUSH1 0x20 ADD SWAP1 DUP2 MSTORE PUSH1 0x20 ADD PUSH0 KECCAK256 PUSH0 ADD PUSH0 SWAP1 SLOAD SWAP1 PUSH2 0x100 EXP SWAP1 DIV PUSH1 0xFF AND DUP1 ISZERO PUSH2 0x11AF JUMPI POP PUSH0 PUSH0 DUP3 DUP2 MSTORE PUSH1 0x20 ADD SWAP1 DUP2 MSTORE PUSH1 0x20 ADD PUSH0 KECCAK256 PUSH1 0x6 ADD PUSH0 SWAP1 SLOAD SWAP1 PUSH2 0x100 EXP SWAP1 DIV PUSH1 0xFF AND JUMPDEST DUP1 ISZERO PUSH2 0x11FD JUMPI POP DUP3 PUSH1 0xA DUP2 GT ISZERO PUSH2 0x11C9 JUMPI PUSH2 0x11C8 PUSH2 0x1D01 JUMP JUMPDEST JUMPDEST PUSH0 PUSH0 DUP4 DUP2 MSTORE PUSH1 0x20 ADD SWAP1 DUP2 MSTORE PUSH1 0x20 ADD PUSH0 KECCAK256 PUSH1 0x4 ADD PUSH0 SWAP1 SLOAD SWAP1 PUSH2 0x100 EXP SWAP1 DIV PUSH1 0xFF AND PUSH1 0xA DUP2 GT ISZERO PUSH2 0x11FB JUMPI PUSH2 0x11FA PUSH2 0x1D01 JUMP JUMPDEST JUMPDEST EQ JUMPDEST ISZERO PUSH2 0x1211 JUMPI DUP2 DUP1 PUSH2 0x120D SWAP1 PUSH2 0x211F JUMP JUMPDEST SWAP3 POP POP JUMPDEST DUP1 DUP1 PUSH1 0x1 ADD SWAP2 POP POP PUSH2 0x115E JUMP JUMPDEST POP SWAP2 SWAP1 POP JUMP JUMPDEST PUSH1 0x2 PUSH0 SWAP1 SLOAD SWAP1 PUSH2 0x100 EXP SWAP1 DIV PUSH20 0xFFFFFFFFFFFFFFFFFFFFFFFFFFFFFFFFFFFFFFFF AND PUSH20 0xFFFFFFFFFFFFFFFFFFFFFFFFFFFFFFFFFFFFFFFF AND CALLER PUSH20 0xFFFFFFFFFFFFFFFFFFFFFFFFFFFFFFFFFFFFFFFF AND EQ PUSH2 0x12B3 JUMPI PUSH1 0x40 MLOAD PUSH32 0x8C379A000000000000000000000000000000000000000000000000000000000 DUP2 MSTORE PUSH1 0x4 ADD PUSH2 0x12AA SWAP1 PUSH2 0x1FD1 JUMP JUMPDEST PUSH1 0x40 MLOAD DUP1 SWAP2 SUB SWAP1 REVERT JUMPDEST PUSH0 PUSH0 PUSH0 DUP4 DUP2 MSTORE PUSH1 0x20 ADD SWAP1 DUP2 MSTORE PUSH1 0x20 ADD PUSH0 KECCAK256 SWAP1 POP DUP1 PUSH0 ADD PUSH0 SWAP1 SLOAD SWAP1 PUSH2 0x100 EXP SWAP1 DIV PUSH1 0xFF AND PUSH2 0x1315 JUMPI PUSH1 0x40 MLOAD PUSH32 0x8C379A000000000000000000000000000000000000000000000000000000000 DUP2 MSTORE PUSH1 0x4 ADD PUSH2 0x130C SWAP1 PUSH2 0x2039 JUMP JUMPDEST PUSH1 0x40 MLOAD DUP1 SWAP2 SUB SWAP1 REVERT JUMPDEST DUP1 PUSH1 0x6 ADD PUSH0 SWAP1 SLOAD SWAP1 PUSH2 0x100 EXP SWAP1 DIV PUSH1 0xFF AND ISZERO PUSH2 0x1366 JUMPI PUSH1 0x40 MLOAD PUSH32 0x8C379A000000000000000000000000000000000000000000000000000000000 DUP2 MSTORE PUSH1 0x4 ADD PUSH2 0x135D SWAP1 PUSH2 0x2447 JUMP JUMPDEST PUSH1 0x40 MLOAD DUP1 SWAP2 SUB SWAP1 REVERT JUMPDEST PUSH2 0x137F DUP2 PUSH1 0x4 ADD PUSH0 SWAP1 SLOAD SWAP1 PUSH2 0x100 EXP SWAP1 DIV PUSH1 0xFF AND PUSH2 0x1516 JUMP JUMPDEST PUSH0 ADD MLOAD DUP2 PUSH1 0x3 ADD DUP2 SWAP1 SSTORE POP POP POP JUMP JUMPDEST PUSH0 PUSH1 0x20 MSTORE DUP1 PUSH0 MSTORE PUSH1 0x40 PUSH0 KECCAK256 PUSH0 SWAP2 POP SWAP1 POP DUP1 PUSH0 ADD PUSH0 SWAP1 SLOAD SWAP1 PUSH2 0x100 EXP SWAP1 DIV PUSH1 0xFF AND SWAP1 DUP1 PUSH1 0x1 ADD SLOAD SWAP1 DUP1 PUSH1 0x2 ADD SLOAD SWAP1 DUP1 PUSH1 0x3 ADD SLOAD SWAP1 DUP1 PUSH1 0x4 ADD PUSH0 SWAP1 SLOAD SWAP1 PUSH2 0x100 EXP SWAP1 DIV PUSH1 0xFF AND SWAP1 DUP1 PUSH1 0x5 ADD SLOAD SWAP1 DUP1 PUSH1 0x6 ADD PUSH0 SWAP1 SLOAD SWAP1 PUSH2 0x100 EXP SWAP1 DIV PUSH1 0xFF AND SWAP1 DUP1 PUSH1 0x7 ADD SLOAD SWAP1 POP DUP9 JUMP JUMPDEST PUSH0 PUSH1 0x1 SLOAD SWAP1 POP SWAP1 JUMP JUMPDEST PUSH1 0x60 PUSH0 PUSH0 PUSH0 DUP5 DUP2 MSTORE PUSH1 0x20 ADD SWAP1 DUP2 MSTORE PUSH1 0x20 ADD PUSH0 KECCAK256 SWAP1 POP PUSH2 0x142C DUP2 PUSH1 0x4 ADD PUSH0 SWAP1 SLOAD SWAP1 PUSH2 0x100 EXP SWAP1 DIV PUSH1 0xFF AND PUSH2 0x1516 JUMP JUMPDEST PUSH1 0x80 ADD MLOAD SWAP2 POP POP SWAP2 SWAP1 POP JUMP JUMPDEST PUSH2 0x1440 PUSH2 0x1AC2 JUMP JUMPDEST PUSH0 PUSH0 PUSH0 DUP5 DUP2 MSTORE PUSH1 0x20 ADD SWAP1 DUP2 MSTORE PUSH1 0x20 ADD PUSH0 KECCAK256 SWAP1 POP PUSH2 0x146C DUP2 PUSH1 0x4 ADD PUSH0 SWAP1 SLOAD SWAP1 PUSH2 0x100 EXP SWAP1 DIV PUSH1 0xFF AND PUSH2 0x1516 JUMP JUMPDEST SWAP2 POP PUSH1 0x3 PUSH0 DUP5 DUP2 MSTORE PUSH1 0x20 ADD SWAP1 DUP2 MSTORE PUSH1 0x20 ADD PUSH0 KECCAK256 PUSH0 SWAP1 SLOAD SWAP1 PUSH2 0x100 EXP SWAP1 DIV PUSH1 0xFF AND PUSH2 0x1511 JUMPI PUSH0 PUSH2 0x14AA DUP3 PUSH1 0x4 ADD PUSH0 SWAP1 SLOAD SWAP1 PUSH2 0x100 EXP SWAP1 DIV PUSH1 0xFF AND PUSH2 0x1516 JUMP JUMPDEST PUSH1 0x60 ADD MLOAD SWAP1 POP PUSH0 PUSH1 0x64 TIMESTAMP DUP7 PUSH1 0x40 MLOAD PUSH1 0x20 ADD PUSH2 0x14C6 SWAP3 SWAP2 SWAP1 PUSH2 0x2485 JUMP JUMPDEST PUSH1 0x40 MLOAD PUSH1 0x20 DUP2 DUP4 SUB SUB DUP2 MSTORE SWAP1 PUSH1 0x40 MSTORE DUP1 MLOAD SWAP1 PUSH1 0x20 ADD KECCAK256 PUSH0 SHR PUSH2 0x14E8 SWAP2 SWAP1 PUSH2 0x24B0 JUMP JUMPDEST SWAP1 POP DUP2 DUP2 LT ISZERO PUSH2 0x150E JUMPI PUSH1 0x19 DUP4 PUSH1 0x3 ADD PUSH0 DUP3 DUP3 SLOAD PUSH2 0x1506 SWAP2 SWAP1 PUSH2 0x20EC JUMP JUMPDEST SWAP3 POP POP DUP2 SWAP1 SSTORE POP JUMPDEST POP POP JUMPDEST POP POP POP JUMP JUMPDEST PUSH2 0x151E PUSH2 0x1AC2 JUMP JUMPDEST PUSH0 PUSH1 0xA DUP2 GT ISZERO PUSH2 0x1531 JUMPI PUSH2 0x1530 PUSH2 0x1D01 JUMP JUMPDEST JUMPDEST DUP3 PUSH1 0xA DUP2 GT ISZERO PUSH2 0x1544 JUMPI PUSH2 0x1543 PUSH2 0x1D01 JUMP JUMPDEST JUMPDEST SUB PUSH2 0x1593 JUMPI PUSH1 0x40 MLOAD DUP1 PUSH1 0xA0 ADD PUSH1 0x40 MSTORE DUP1 PUSH1 0xC8 DUP2 MSTORE PUSH1 0x20 ADD PUSH1 0x96 DUP2 MSTORE PUSH1 0x20 ADD PUSH1 0x3 DUP2 MSTORE PUSH1 0x20 ADD PUSH1 0x1 DUP2 MSTORE PUSH1 0x20 ADD PUSH1 0x40 MLOAD DUP1 PUSH1 0x80 ADD PUSH1 0x40 MSTORE DUP1 PUSH1 0x5D DUP2 MSTORE PUSH1 0x20 ADD PUSH2 0x25A6 PUSH1 0x5D SWAP2 CODECOPY DUP2 MSTORE POP SWAP1 POP PUSH2 0x1A6A JUMP JUMPDEST PUSH1 0x1 PUSH1 0xA DUP2 GT ISZERO PUSH2 0x15A7 JUMPI PUSH2 0x15A6 PUSH2 0x1D01 JUMP JUMPDEST JUMPDEST DUP3 PUSH1 0xA DUP2 GT ISZERO PUSH2 0x15BA JUMPI PUSH2 0x15B9 PUSH2 0x1D01 JUMP JUMPDEST JUMPDEST SUB PUSH2 0x1609 JUMPI PUSH1 0x40 MLOAD DUP1 PUSH1 0xA0 ADD PUSH1 0x40 MSTORE DUP1 PUSH1 0xDC DUP2 MSTORE PUSH1 0x20 ADD PUSH1 0xC8 DUP2 MSTORE PUSH1 0x20 ADD PUSH1 0x2 DUP2 MSTORE PUSH1 0x20 ADD PUSH1 0x5 DUP2 MSTORE PUSH1 0x20 ADD PUSH1 0x40 MLOAD DUP1 PUSH1 0x80 ADD PUSH1 0x40 MSTORE DUP1 PUSH1 0x5D DUP2 MSTORE PUSH1 0x20 ADD PUSH2 0x27D4 PUSH1 0x5D SWAP2 CODECOPY DUP2 MSTORE POP SWAP1 POP PUSH2 0x1A6A JUMP JUMPDEST PUSH1 0x2 PUSH1 0xA DUP2 GT ISZERO PUSH2 0x161D JUMPI PUSH2 0x161C PUSH2 0x1D01 JUMP JUMPDEST JUMPDEST DUP3 PUSH1 0xA DUP2 GT ISZERO PUSH2 0x1630 JUMPI PUSH2 0x162F PUSH2 0x1D01 JUMP JUMPDEST JUMPDEST SUB PUSH2 0x167F JUMPI PUSH1 0x40 MLOAD DUP1 PUSH1 0xA0 ADD PUSH1 0x40 MSTORE DUP1 PUSH1 0x50 DUP2 MSTORE PUSH1 0x20 ADD PUSH1 0x50 DUP2 MSTORE PUSH1 0x20 ADD PUSH1 0x3 DUP2 MSTORE PUSH1 0x20 ADD PUSH1 0x6 DUP2 MSTORE PUSH1 0x20 ADD PUSH1 0x40 MLOAD DUP1 PUSH1 0x80 ADD PUSH1 0x40 MSTORE DUP1 PUSH1 0x5D DUP2 MSTORE PUSH1 0x20 ADD PUSH2 0x2660 PUSH1 0x5D SWAP2 CODECOPY DUP2 MSTORE POP SWAP1 POP PUSH2 0x1A6A JUMP JUMPDEST PUSH1 0xA DUP1 DUP2 GT ISZERO PUSH2 0x1692 JUMPI PUSH2 0x1691 PUSH2 0x1D01 JUMP JUMPDEST JUMPDEST DUP3 PUSH1 0xA DUP2 GT ISZERO PUSH2 0x16A5 JUMPI PUSH2 0x16A4 PUSH2 0x1D01 JUMP JUMPDEST JUMPDEST SUB PUSH2 0x16F5 JUMPI PUSH1 0x40 MLOAD DUP1 PUSH1 0xA0 ADD PUSH1 0x40 MSTORE DUP1 PUSH2 0x12C DUP2 MSTORE PUSH1 0x20 ADD PUSH2 0x12C DUP2 MSTORE PUSH1 0x20 ADD PUSH1 0x1 DUP2 MSTORE PUSH1 0x20 ADD PUSH0 DUP2 MSTORE PUSH1 0x20 ADD PUSH1 0x40 MLOAD DUP1 PUSH1 0x80 ADD PUSH1 0x40 MSTORE DUP1 PUSH1 0x5D DUP2 MSTORE PUSH1 0x20 ADD PUSH2 0x28EB PUSH1 0x5D SWAP2 CODECOPY DUP2 MSTORE POP SWAP1 POP PUSH2 0x1A6A JUMP JUMPDEST PUSH1 0x3 PUSH1 0xA DUP2 GT ISZERO PUSH2 0x1709 JUMPI PUSH2 0x1708 PUSH2 0x1D01 JUMP JUMPDEST JUMPDEST DUP3 PUSH1 0xA DUP2 GT ISZERO PUSH2 0x171C JUMPI PUSH2 0x171B PUSH2 0x1D01 JUMP JUMPDEST JUMPDEST SUB PUSH2 0x176B JUMPI PUSH1 0x40 MLOAD DUP1 PUSH1 0xA0 ADD PUSH1 0x40 MSTORE DUP1 PUSH1 0xB4 DUP2 MSTORE PUSH1 0x20 ADD PUSH1 0x5A DUP2 MSTORE PUSH1 0x20 ADD PUSH1 0x2 DUP2 MSTORE PUSH1 0x20 ADD PUSH1 0x4 DUP2 MSTORE PUSH1 0x20 ADD PUSH1 0x40 MLOAD DUP1 PUSH1 0x80 ADD PUSH1 0x40 MSTORE DUP1 PUSH1 0x5D DUP2 MSTORE PUSH1 0x20 ADD PUSH2 0x2603 PUSH1 0x5D SWAP2 CODECOPY DUP2 MSTORE POP SWAP1 POP PUSH2 0x1A6A JUMP JUMPDEST PUSH1 0x4 PUSH1 0xA DUP2 GT ISZERO PUSH2 0x177F JUMPI PUSH2 0x177E PUSH2 0x1D01 JUMP JUMPDEST JUMPDEST DUP3 PUSH1 0xA DUP2 GT ISZERO PUSH2 0x1792 JUMPI PUSH2 0x1791 PUSH2 0x1D01 JUMP JUMPDEST JUMPDEST SUB PUSH2 0x17E1 JUMPI PUSH1 0x40 MLOAD DUP1 PUSH1 0xA0 ADD PUSH1 0x40 MSTORE DUP1 PUSH1 0x50 DUP2 MSTORE PUSH1 0x20 ADD PUSH1 0x46 DUP2 MSTORE PUSH1 0x20 ADD PUSH1 0x2 DUP2 MSTORE PUSH1 0x20 ADD PUSH1 0x8 DUP2 MSTORE PUSH1 0x20 ADD PUSH1 0x40 MLOAD DUP1 PUSH1 0x80 ADD PUSH1 0x40 MSTORE DUP1 PUSH1 0x5D DUP2 MSTORE PUSH1 0x20 ADD PUSH2 0x2777 PUSH1 0x5D SWAP2 CODECOPY DUP2 MSTORE POP SWAP1 POP PUSH2 0x1A6A JUMP JUMPDEST PUSH1 0x5 PUSH1 0xA DUP2 GT ISZERO PUSH2 0x17F5 JUMPI PUSH2 0x17F4 PUSH2 0x1D01 JUMP JUMPDEST JUMPDEST DUP3 PUSH1 0xA DUP2 GT ISZERO PUSH2 0x1808 JUMPI PUSH2 0x1807 PUSH2 0x1D01 JUMP JUMPDEST JUMPDEST SUB PUSH2 0x1857 JUMPI PUSH1 0x40 MLOAD DUP1 PUSH1 0xA0 ADD PUSH1 0x40 MSTORE DUP1 PUSH1 0x32 DUP2 MSTORE PUSH1 0x20 ADD PUSH1 0x3C DUP2 MSTORE PUSH1 0x20 ADD PUSH1 0x4 DUP2 MSTORE PUSH1 0x20 ADD PUSH1 0x5 DUP2 MSTORE PUSH1 0x20 ADD PUSH1 0x40 MLOAD DUP1 PUSH1 0x80 ADD PUSH1 0x40 MSTORE DUP1 PUSH1 0x5D DUP2 MSTORE PUSH1 0x20 ADD PUSH2 0x2831 PUSH1 0x5D SWAP2 CODECOPY DUP2 MSTORE POP SWAP1 POP PUSH2 0x1A6A JUMP JUMPDEST PUSH1 0x6 PUSH1 0xA DUP2 GT ISZERO PUSH2 0x186B JUMPI PUSH2 0x186A PUSH2 0x1D01 JUMP JUMPDEST JUMPDEST DUP3 PUSH1 0xA DUP2 GT ISZERO PUSH2 0x187E JUMPI PUSH2 0x187D PUSH2 0x1D01 JUMP JUMPDEST JUMPDEST SUB PUSH2 0x18CD JUMPI PUSH1 0x40 MLOAD DUP1 PUSH1 0xA0 ADD PUSH1 0x40 MSTORE DUP1 PUSH1 0x37 DUP2 MSTORE PUSH1 0x20 ADD PUSH1 0x28 DUP2 MSTORE PUSH1 0x20 ADD PUSH1 0x3 DUP2 MSTORE PUSH1 0x20 ADD PUSH1 0x4 DUP2 MSTORE PUSH1 0x20 ADD PUSH1 0x40 MLOAD DUP1 PUSH1 0x80 ADD PUSH1 0x40 MSTORE DUP1 PUSH1 0x5D DUP2 MSTORE PUSH1 0x20 ADD PUSH2 0x288E PUSH1 0x5D SWAP2 CODECOPY DUP2 MSTORE POP SWAP1 POP PUSH2 0x1A6A JUMP JUMPDEST PUSH1 0x7 PUSH1 0xA DUP2 GT ISZERO PUSH2 0x18E1 JUMPI PUSH2 0x18E0 PUSH2 0x1D01 JUMP JUMPDEST JUMPDEST DUP3 PUSH1 0xA DUP2 GT ISZERO PUSH2 0x18F4 JUMPI PUSH2 0x18F3 PUSH2 0x1D01 JUMP JUMPDEST JUMPDEST SUB PUSH2 0x1943 JUMPI PUSH1 0x40 MLOAD DUP1 PUSH1 0xA0 ADD PUSH1 0x40 MSTORE DUP1 PUSH1 0x4E DUP2 MSTORE PUSH1 0x20 ADD PUSH1 0x41 DUP2 MSTORE PUSH1 0x20 ADD PUSH1 0x2 DUP2 MSTORE PUSH1 0x20 ADD PUSH1 0x4 DUP2 MSTORE PUSH1 0x20 ADD PUSH1 0x40 MLOAD DUP1 PUSH1 0x80 ADD PUSH1 0x40 MSTORE DUP1 PUSH1 0x5D DUP2 MSTORE PUSH1 0x20 ADD PUSH2 0x2549 PUSH1 0x5D SWAP2 CODECOPY DUP2 MSTORE POP SWAP1 POP PUSH2 0x1A6A JUMP JUMPDEST PUSH1 0x8 PUSH1 0xA DUP2 GT ISZERO PUSH2 0x1957 JUMPI PUSH2 0x1956 PUSH2 0x1D01 JUMP JUMPDEST JUMPDEST DUP3 PUSH1 0xA DUP2 GT ISZERO PUSH2 0x196A JUMPI PUSH2 0x1969 PUSH2 0x1D01 JUMP JUMPDEST JUMPDEST SUB PUSH2 0x19B9 JUMPI PUSH1 0x40 MLOAD DUP1 PUSH1 0xA0 ADD PUSH1 0x40 MSTORE DUP1 PUSH1 0x96 DUP2 MSTORE PUSH1 0x20 ADD PUSH1 0x64 DUP2 MSTORE PUSH1 0x20 ADD PUSH1 0x4 DUP2 MSTORE PUSH1 0x20 ADD PUSH1 0x3 DUP2 MSTORE PUSH1 0x20 ADD PUSH1 0x40 MLOAD DUP1 PUSH1 0x80 ADD PUSH1 0x40 MSTORE DUP1 PUSH1 0x5D DUP2 MSTORE PUSH1 0x20 ADD PUSH2 0x271A PUSH1 0x5D SWAP2 CODECOPY DUP2 MSTORE POP SWAP1 POP PUSH2 0x1A6A JUMP JUMPDEST PUSH1 0x9 PUSH1 0xA DUP2 GT ISZERO PUSH2 0x19CD JUMPI PUSH2 0x19CC PUSH2 0x1D01 JUMP JUMPDEST JUMPDEST DUP3 PUSH1 0xA DUP2 GT ISZERO PUSH2 0x19E0 JUMPI PUSH2 0x19DF PUSH2 0x1D01 JUMP JUMPDEST JUMPDEST SUB PUSH2 0x1A2F JUMPI PUSH1 0x40 MLOAD DUP1 PUSH1 0xA0 ADD PUSH1 0x40 MSTORE DUP1 PUSH1 0x23 DUP2 MSTORE PUSH1 0x20 ADD PUSH1 0x42 DUP2 MSTORE PUSH1 0x20 ADD PUSH1 0x4 DUP2 MSTORE PUSH1 0x20 ADD PUSH1 0x5 DUP2 MSTORE PUSH1 0x20 ADD PUSH1 0x40 MLOAD DUP1 PUSH1 0x80 ADD PUSH1 0x40 MSTORE DUP1 PUSH1 0x5D DUP2 MSTORE PUSH1 0x20 ADD PUSH2 0x26BD PUSH1 0x5D SWAP2 CODECOPY DUP2 MSTORE POP SWAP1 POP PUSH2 0x1A6A JUMP JUMPDEST PUSH1 0x40 MLOAD PUSH32 0x8C379A000000000000000000000000000000000000000000000000000000000 DUP2 MSTORE PUSH1 0x4 ADD PUSH2 0x1A61 SWAP1 PUSH2 0x252A JUMP JUMPDEST PUSH1 0x40 MLOAD DUP1 SWAP2 SUB SWAP1 REVERT JUMPDEST SWAP2 SWAP1 POP JUMP JUMPDEST PUSH1 0x40 MLOAD DUP1 PUSH2 0x100 ADD PUSH1 0x40 MSTORE DUP1 PUSH0 ISZERO ISZERO DUP2 MSTORE PUSH1 0x20 ADD PUSH0 DUP2 MSTORE PUSH1 0x20 ADD PUSH0 DUP2 MSTORE PUSH1 0x20 ADD PUSH0 DUP2 MSTORE PUSH1 0x20 ADD PUSH0 PUSH1 0xA DUP2 GT ISZERO PUSH2 0x1AA8 JUMPI PUSH2 0x1AA7 PUSH2 0x1D01 JUMP JUMPDEST JUMPDEST DUP2 MSTORE PUSH1 0x20 ADD PUSH0 DUP2 MSTORE PUSH1 0x20 ADD PUSH0 ISZERO ISZERO DUP2 MSTORE PUSH1 0x20 ADD PUSH0 DUP2 MSTORE POP SWAP1 JUMP JUMPDEST PUSH1 0x40 MLOAD DUP1 PUSH1 0xA0 ADD PUSH1 0x40 MSTORE DUP1 PUSH0 DUP2 MSTORE PUSH1 0x20 ADD PUSH0 DUP2 MSTORE PUSH1 0x20 ADD PUSH0 DUP2 MSTORE PUSH1 0x20 ADD PUSH0 DUP2 MSTORE PUSH1 0x20 ADD PUSH1 0x60 DUP2 MSTORE POP SWAP1 JUMP JUMPDEST PUSH0 PUSH0 REVERT JUMPDEST PUSH0 DUP2 SWAP1 POP SWAP2 SWAP1 POP JUMP JUMPDEST PUSH2 0x1B03 DUP2 PUSH2 0x1AF1 JUMP JUMPDEST DUP2 EQ PUSH2 0x1B0D JUMPI PUSH0 PUSH0 REVERT JUMPDEST POP JUMP JUMPDEST PUSH0 DUP2 CALLDATALOAD SWAP1 POP PUSH2 0x1B1E DUP2 PUSH2 0x1AFA JUMP JUMPDEST SWAP3 SWAP2 POP POP JUMP JUMPDEST PUSH0 PUSH1 0x20 DUP3 DUP5 SUB SLT ISZERO PUSH2 0x1B39 JUMPI PUSH2 0x1B38 PUSH2 0x1AED JUMP JUMPDEST JUMPDEST PUSH0 PUSH2 0x1B46 DUP5 DUP3 DUP6 ADD PUSH2 0x1B10 JUMP JUMPDEST SWAP2 POP POP SWAP3 SWAP2 POP POP JUMP JUMPDEST PUSH0 DUP2 ISZERO ISZERO SWAP1 POP SWAP2 SWAP1 POP JUMP JUMPDEST PUSH2 0x1B63 DUP2 PUSH2 0x1B4F JUMP JUMPDEST DUP3 MSTORE POP POP JUMP JUMPDEST PUSH0 PUSH1 0x20 DUP3 ADD SWAP1 POP PUSH2 0x1B7C PUSH0 DUP4 ADD DUP5 PUSH2 0x1B5A JUMP JUMPDEST SWAP3 SWAP2 POP POP JUMP JUMPDEST PUSH0 PUSH0 PUSH1 0x40 DUP4 DUP6 SUB SLT ISZERO PUSH2 0x1B98 JUMPI PUSH2 0x1B97 PUSH2 0x1AED JUMP JUMPDEST JUMPDEST PUSH0 PUSH2 0x1BA5 DUP6 DUP3 DUP7 ADD PUSH2 0x1B10 JUMP JUMPDEST SWAP3 POP POP PUSH1 0x20 PUSH2 0x1BB6 DUP6 DUP3 DUP7 ADD PUSH2 0x1B10 JUMP JUMPDEST SWAP2 POP POP SWAP3 POP SWAP3 SWAP1 POP JUMP JUMPDEST PUSH2 0x1BC9 DUP2 PUSH2 0x1AF1 JUMP JUMPDEST DUP3 MSTORE POP POP JUMP JUMPDEST PUSH0 PUSH1 0x20 DUP3 ADD SWAP1 POP PUSH2 0x1BE2 PUSH0 DUP4 ADD DUP5 PUSH2 0x1BC0 JUMP JUMPDEST SWAP3 SWAP2 POP POP JUMP JUMPDEST PUSH1 0xB DUP2 LT PUSH2 0x1BF4 JUMPI PUSH0 PUSH0 REVERT JUMPDEST POP JUMP JUMPDEST PUSH0 DUP2 CALLDATALOAD SWAP1 POP PUSH2 0x1C05 DUP2 PUSH2 0x1BE8 JUMP JUMPDEST SWAP3 SWAP2 POP POP JUMP JUMPDEST PUSH0 PUSH1 0x20 DUP3 DUP5 SUB SLT ISZERO PUSH2 0x1C20 JUMPI PUSH2 0x1C1F PUSH2 0x1AED JUMP JUMPDEST JUMPDEST PUSH0 PUSH2 0x1C2D DUP5 DUP3 DUP6 ADD PUSH2 0x1BF7 JUMP JUMPDEST SWAP2 POP POP SWAP3 SWAP2 POP POP JUMP JUMPDEST PUSH0 PUSH20 0xFFFFFFFFFFFFFFFFFFFFFFFFFFFFFFFFFFFFFFFF DUP3 AND SWAP1 POP SWAP2 SWAP1 POP JUMP JUMPDEST PUSH0 PUSH2 0x1C5F DUP3 PUSH2 0x1C36 JUMP JUMPDEST SWAP1 POP SWAP2 SWAP1 POP JUMP JUMPDEST PUSH2 0x1C6F DUP2 PUSH2 0x1C55 JUMP JUMPDEST DUP2 EQ PUSH2 0x1C79 JUMPI PUSH0 PUSH0 REVERT JUMPDEST POP JUMP JUMPDEST PUSH0 DUP2 CALLDATALOAD SWAP1 POP PUSH2 0x1C8A DUP2 PUSH2 0x1C66 JUMP JUMPDEST SWAP3 SWAP2 POP POP JUMP JUMPDEST PUSH0 PUSH1 0x20 DUP3 DUP5 SUB SLT ISZERO PUSH2 0x1CA5 JUMPI PUSH2 0x1CA4 PUSH2 0x1AED JUMP JUMPDEST JUMPDEST PUSH0 PUSH2 0x1CB2 DUP5 DUP3 DUP6 ADD PUSH2 0x1C7C JUMP JUMPDEST SWAP2 POP POP SWAP3 SWAP2 POP POP JUMP JUMPDEST PUSH2 0x1CC4 DUP2 PUSH2 0x1C55 JUMP JUMPDEST DUP3 MSTORE POP POP JUMP JUMPDEST PUSH0 PUSH1 0x20 DUP3 ADD SWAP1 POP PUSH2 0x1CDD PUSH0 DUP4 ADD DUP5 PUSH2 0x1CBB JUMP JUMPDEST SWAP3 SWAP2 POP POP JUMP JUMPDEST PUSH2 0x1CEC DUP2 PUSH2 0x1B4F JUMP JUMPDEST DUP3 MSTORE POP POP JUMP JUMPDEST PUSH2 0x1CFB DUP2 PUSH2 0x1AF1 JUMP JUMPDEST DUP3 MSTORE POP POP JUMP JUMPDEST PUSH32 0x4E487B7100000000000000000000000000000000000000000000000000000000 PUSH0 MSTORE PUSH1 0x21 PUSH1 0x4 MSTORE PUSH1 0x24 PUSH0 REVERT JUMPDEST PUSH1 0xB DUP2 LT PUSH2 0x1D3F JUMPI PUSH2 0x1D3E PUSH2 0x1D01 JUMP JUMPDEST JUMPDEST POP JUMP JUMPDEST PUSH0 DUP2 SWAP1 POP PUSH2 0x1D4F DUP3 PUSH2 0x1D2E JUMP JUMPDEST SWAP2 SWAP1 POP JUMP JUMPDEST PUSH0 PUSH2 0x1D5E DUP3 PUSH2 0x1D42 JUMP JUMPDEST SWAP1 POP SWAP2 SWAP1 POP JUMP JUMPDEST PUSH2 0x1D6E DUP2 PUSH2 0x1D54 JUMP JUMPDEST DUP3 MSTORE POP POP JUMP JUMPDEST PUSH2 0x100 DUP3 ADD PUSH0 DUP3 ADD MLOAD PUSH2 0x1D89 PUSH0 DUP6 ADD DUP3 PUSH2 0x1CE3 JUMP JUMPDEST POP PUSH1 0x20 DUP3 ADD MLOAD PUSH2 0x1D9C PUSH1 0x20 DUP6 ADD DUP3 PUSH2 0x1CF2 JUMP JUMPDEST POP PUSH1 0x40 DUP3 ADD MLOAD PUSH2 0x1DAF PUSH1 0x40 DUP6 ADD DUP3 PUSH2 0x1CF2 JUMP JUMPDEST POP PUSH1 0x60 DUP3 ADD MLOAD PUSH2 0x1DC2 PUSH1 0x60 DUP6 ADD DUP3 PUSH2 0x1CF2 JUMP JUMPDEST POP PUSH1 0x80 DUP3 ADD MLOAD PUSH2 0x1DD5 PUSH1 0x80 DUP6 ADD DUP3 PUSH2 0x1D65 JUMP JUMPDEST POP PUSH1 0xA0 DUP3 ADD MLOAD PUSH2 0x1DE8 PUSH1 0xA0 DUP6 ADD DUP3 PUSH2 0x1CF2 JUMP JUMPDEST POP PUSH1 0xC0 DUP3 ADD MLOAD PUSH2 0x1DFB PUSH1 0xC0 DUP6 ADD DUP3 PUSH2 0x1CE3 JUMP JUMPDEST POP PUSH1 0xE0 DUP3 ADD MLOAD PUSH2 0x1E0E PUSH1 0xE0 DUP6 ADD DUP3 PUSH2 0x1CF2 JUMP JUMPDEST POP POP POP POP JUMP JUMPDEST PUSH0 PUSH2 0x100 DUP3 ADD SWAP1 POP PUSH2 0x1E28 PUSH0 DUP4 ADD DUP5 PUSH2 0x1D74 JUMP JUMPDEST SWAP3 SWAP2 POP POP JUMP JUMPDEST PUSH0 PUSH0 PUSH1 0x40 DUP4 DUP6 SUB SLT ISZERO PUSH2 0x1E44 JUMPI PUSH2 0x1E43 PUSH2 0x1AED JUMP JUMPDEST JUMPDEST PUSH0 PUSH2 0x1E51 DUP6 DUP3 DUP7 ADD PUSH2 0x1B10 JUMP JUMPDEST SWAP3 POP POP PUSH1 0x20 PUSH2 0x1E62 DUP6 DUP3 DUP7 ADD PUSH2 0x1C7C JUMP JUMPDEST SWAP2 POP POP SWAP3 POP SWAP3 SWAP1 POP JUMP JUMPDEST PUSH2 0x1E75 DUP2 PUSH2 0x1D54 JUMP JUMPDEST DUP3 MSTORE POP POP JUMP JUMPDEST PUSH0 PUSH2 0x100 DUP3 ADD SWAP1 POP PUSH2 0x1E8F PUSH0 DUP4 ADD DUP12 PUSH2 0x1B5A JUMP JUMPDEST PUSH2 0x1E9C PUSH1 0x20 DUP4 ADD DUP11 PUSH2 0x1BC0 JUMP JUMPDEST PUSH2 0x1EA9 PUSH1 0x40 DUP4 ADD DUP10 PUSH2 0x1BC0 JUMP JUMPDEST PUSH2 0x1EB6 PUSH1 0x60 DUP4 ADD DUP9 PUSH2 0x1BC0 JUMP JUMPDEST PUSH2 0x1EC3 PUSH1 0x80 DUP4 ADD DUP8 PUSH2 0x1E6C JUMP JUMPDEST PUSH2 0x1ED0 PUSH1 0xA0 DUP4 ADD DUP7 PUSH2 0x1BC0 JUMP JUMPDEST PUSH2 0x1EDD PUSH1 0xC0 DUP4 ADD DUP6 PUSH2 0x1B5A JUMP JUMPDEST PUSH2 0x1EEA PUSH1 0xE0 DUP4 ADD DUP5 PUSH2 0x1BC0 JUMP JUMPDEST SWAP10 SWAP9 POP POP POP POP POP POP POP POP POP JUMP JUMPDEST PUSH0 DUP2 MLOAD SWAP1 POP SWAP2 SWAP1 POP JUMP JUMPDEST PUSH0 DUP3 DUP3 MSTORE PUSH1 0x20 DUP3 ADD SWAP1 POP SWAP3 SWAP2 POP POP JUMP JUMPDEST DUP3 DUP2 DUP4 MCOPY PUSH0 DUP4 DUP4 ADD MSTORE POP POP POP JUMP JUMPDEST PUSH0 PUSH1 0x1F NOT PUSH1 0x1F DUP4 ADD AND SWAP1 POP SWAP2 SWAP1 POP JUMP JUMPDEST PUSH0 PUSH2 0x1F39 DUP3 PUSH2 0x1EF7 JUMP JUMPDEST PUSH2 0x1F43 DUP2 DUP6 PUSH2 0x1F01 JUMP JUMPDEST SWAP4 POP PUSH2 0x1F53 DUP2 DUP6 PUSH1 0x20 DUP7 ADD PUSH2 0x1F11 JUMP JUMPDEST PUSH2 0x1F5C DUP2 PUSH2 0x1F1F JUMP JUMPDEST DUP5 ADD SWAP2 POP POP SWAP3 SWAP2 POP POP JUMP JUMPDEST PUSH0 PUSH1 0x20 DUP3 ADD SWAP1 POP DUP2 DUP2 SUB PUSH0 DUP4 ADD MSTORE PUSH2 0x1F7F DUP2 DUP5 PUSH2 0x1F2F JUMP JUMPDEST SWAP1 POP SWAP3 SWAP2 POP POP JUMP JUMPDEST PUSH32 0x4F6E6C79205061726B2063616E2063616C6C2074686973000000000000000000 PUSH0 DUP3 ADD MSTORE POP JUMP JUMPDEST PUSH0 PUSH2 0x1FBB PUSH1 0x17 DUP4 PUSH2 0x1F01 JUMP JUMPDEST SWAP2 POP PUSH2 0x1FC6 DUP3 PUSH2 0x1F87 JUMP JUMPDEST PUSH1 0x20 DUP3 ADD SWAP1 POP SWAP2 SWAP1 POP JUMP JUMPDEST PUSH0 PUSH1 0x20 DUP3 ADD SWAP1 POP DUP2 DUP2 SUB PUSH0 DUP4 ADD MSTORE PUSH2 0x1FE8 DUP2 PUSH2 0x1FAF JUMP JUMPDEST SWAP1 POP SWAP2 SWAP1 POP JUMP JUMPDEST PUSH32 0x54686174206269726420646F65736E2774206578697374000000000000000000 PUSH0 DUP3 ADD MSTORE POP JUMP JUMPDEST PUSH0 PUSH2 0x2023 PUSH1 0x17 DUP4 PUSH2 0x1F01 JUMP JUMPDEST SWAP2 POP PUSH2 0x202E DUP3 PUSH2 0x1FEF JUMP JUMPDEST PUSH1 0x20 DUP3 ADD SWAP1 POP SWAP2 SWAP1 POP JUMP JUMPDEST PUSH0 PUSH1 0x20 DUP3 ADD SWAP1 POP DUP2 DUP2 SUB PUSH0 DUP4 ADD MSTORE PUSH2 0x2050 DUP2 PUSH2 0x2017 JUMP JUMPDEST SWAP1 POP SWAP2 SWAP1 POP JUMP JUMPDEST PUSH32 0x43616E6E6F742066656564206120646561642062697264000000000000000000 PUSH0 DUP3 ADD MSTORE POP JUMP JUMPDEST PUSH0 PUSH2 0x208B PUSH1 0x17 DUP4 PUSH2 0x1F01 JUMP JUMPDEST SWAP2 POP PUSH2 0x2096 DUP3 PUSH2 0x2057 JUMP JUMPDEST PUSH1 0x20 DUP3 ADD SWAP1 POP SWAP2 SWAP1 POP JUMP JUMPDEST PUSH0 PUSH1 0x20 DUP3 ADD SWAP1 POP DUP2 DUP2 SUB PUSH0 DUP4 ADD MSTORE PUSH2 0x20B8 DUP2 PUSH2 0x207F JUMP JUMPDEST SWAP1 POP SWAP2 SWAP1 POP JUMP JUMPDEST PUSH32 0x4E487B7100000000000000000000000000000000000000000000000000000000 PUSH0 MSTORE PUSH1 0x11 PUSH1 0x4 MSTORE PUSH1 0x24 PUSH0 REVERT JUMPDEST PUSH0 PUSH2 0x20F6 DUP3 PUSH2 0x1AF1 JUMP JUMPDEST SWAP2 POP PUSH2 0x2101 DUP4 PUSH2 0x1AF1 JUMP JUMPDEST SWAP3 POP DUP3 DUP3 SUB SWAP1 POP DUP2 DUP2 GT ISZERO PUSH2 0x2119 JUMPI PUSH2 0x2118 PUSH2 0x20BF JUMP JUMPDEST JUMPDEST SWAP3 SWAP2 POP POP JUMP JUMPDEST PUSH0 PUSH2 0x2129 DUP3 PUSH2 0x1AF1 JUMP JUMPDEST SWAP2 POP PUSH32 0xFFFFFFFFFFFFFFFFFFFFFFFFFFFFFFFFFFFFFFFFFFFFFFFFFFFFFFFFFFFFFFFF DUP3 SUB PUSH2 0x215B JUMPI PUSH2 0x215A PUSH2 0x20BF JUMP JUMPDEST JUMPDEST PUSH1 0x1 DUP3 ADD SWAP1 POP SWAP2 SWAP1 POP JUMP JUMPDEST PUSH32 0x5061726B20616C72656164792073657400000000000000000000000000000000 PUSH0 DUP3 ADD MSTORE POP JUMP JUMPDEST PUSH0 PUSH2 0x219A PUSH1 0x10 DUP4 PUSH2 0x1F01 JUMP JUMPDEST SWAP2 POP PUSH2 0x21A5 DUP3 PUSH2 0x2166 JUMP JUMPDEST PUSH1 0x20 DUP3 ADD SWAP1 POP SWAP2 SWAP1 POP JUMP JUMPDEST PUSH0 PUSH1 0x20 DUP3 ADD SWAP1 POP DUP2 DUP2 SUB PUSH0 DUP4 ADD MSTORE PUSH2 0x21C7 DUP2 PUSH2 0x218E JUMP JUMPDEST SWAP1 POP SWAP2 SWAP1 POP JUMP JUMPDEST PUSH32 0x4E6F742064656164000000000000000000000000000000000000000000000000 PUSH0 DUP3 ADD MSTORE POP JUMP JUMPDEST PUSH0 PUSH2 0x2202 PUSH1 0x8 DUP4 PUSH2 0x1F01 JUMP JUMPDEST SWAP2 POP PUSH2 0x220D DUP3 PUSH2 0x21CE JUMP JUMPDEST PUSH1 0x20 DUP3 ADD SWAP1 POP SWAP2 SWAP1 POP JUMP JUMPDEST PUSH0 PUSH1 0x20 DUP3 ADD SWAP1 POP DUP2 DUP2 SUB PUSH0 DUP4 ADD MSTORE PUSH2 0x222F DUP2 PUSH2 0x21F6 JUMP JUMPDEST SWAP1 POP SWAP2 SWAP1 POP JUMP JUMPDEST PUSH32 0x4E6F7420746865206F776E657200000000000000000000000000000000000000 PUSH0 DUP3 ADD MSTORE POP JUMP JUMPDEST PUSH0 PUSH2 0x226A PUSH1 0xD DUP4 PUSH2 0x1F01 JUMP JUMPDEST SWAP2 POP PUSH2 0x2275 DUP3 PUSH2 0x2236 JUMP JUMPDEST PUSH1 0x20 DUP3 ADD SWAP1 POP SWAP2 SWAP1 POP JUMP JUMPDEST PUSH0 PUSH1 0x20 DUP3 ADD SWAP1 POP DUP2 DUP2 SUB PUSH0 DUP4 ADD MSTORE PUSH2 0x2297 DUP2 PUSH2 0x225E JUMP JUMPDEST SWAP1 POP SWAP2 SWAP1 POP JUMP JUMPDEST PUSH32 0x496E76616C696420616464726573730000000000000000000000000000000000 PUSH0 DUP3 ADD MSTORE POP JUMP JUMPDEST PUSH0 PUSH2 0x22D2 PUSH1 0xF DUP4 PUSH2 0x1F01 JUMP JUMPDEST SWAP2 POP PUSH2 0x22DD DUP3 PUSH2 0x229E JUMP JUMPDEST PUSH1 0x20 DUP3 ADD SWAP1 POP SWAP2 SWAP1 POP JUMP JUMPDEST PUSH0 PUSH1 0x20 DUP3 ADD SWAP1 POP DUP2 DUP2 SUB PUSH0 DUP4 ADD MSTORE PUSH2 0x22FF DUP2 PUSH2 0x22C6 JUMP JUMPDEST SWAP1 POP SWAP2 SWAP1 POP JUMP JUMPDEST PUSH0 PUSH2 0x2310 DUP3 PUSH2 0x1AF1 JUMP JUMPDEST SWAP2 POP PUSH2 0x231B DUP4 PUSH2 0x1AF1 JUMP JUMPDEST SWAP3 POP DUP3 DUP3 MUL PUSH2 0x2329 DUP2 PUSH2 0x1AF1 JUMP JUMPDEST SWAP2 POP DUP3 DUP3 DIV DUP5 EQ DUP4 ISZERO OR PUSH2 0x2340 JUMPI PUSH2 0x233F PUSH2 0x20BF JUMP JUMPDEST JUMPDEST POP SWAP3 SWAP2 POP POP JUMP JUMPDEST PUSH32 0x4E487B7100000000000000000000000000000000000000000000000000000000 PUSH0 MSTORE PUSH1 0x12 PUSH1 0x4 MSTORE PUSH1 0x24 PUSH0 REVERT JUMPDEST PUSH0 PUSH2 0x237E DUP3 PUSH2 0x1AF1 JUMP JUMPDEST SWAP2 POP PUSH2 0x2389 DUP4 PUSH2 0x1AF1 JUMP JUMPDEST SWAP3 POP DUP3 PUSH2 0x2399 JUMPI PUSH2 0x2398 PUSH2 0x2347 JUMP JUMPDEST JUMPDEST DUP3 DUP3 DIV SWAP1 POP SWAP3 SWAP2 POP POP JUMP JUMPDEST PUSH0 PUSH2 0x23AE DUP3 PUSH2 0x1AF1 JUMP JUMPDEST SWAP2 POP PUSH2 0x23B9 DUP4 PUSH2 0x1AF1 JUMP JUMPDEST SWAP3 POP DUP3 DUP3 ADD SWAP1 POP DUP1 DUP3 GT ISZERO PUSH2 0x23D1 JUMPI PUSH2 0x23D0 PUSH2 0x20BF JUMP JUMPDEST JUMPDEST SWAP3 SWAP2 POP POP JUMP JUMPDEST PUSH32 0x43616E6E6F74206865616C2061206465616420626972643B2072657669766520 PUSH0 DUP3 ADD MSTORE PUSH32 0x6974206669727374000000000000000000000000000000000000000000000000 PUSH1 0x20 DUP3 ADD MSTORE POP JUMP JUMPDEST PUSH0 PUSH2 0x2431 PUSH1 0x28 DUP4 PUSH2 0x1F01 JUMP JUMPDEST SWAP2 POP PUSH2 0x243C DUP3 PUSH2 0x23D7 JUMP JUMPDEST PUSH1 0x40 DUP3 ADD SWAP1 POP SWAP2 SWAP1 POP JUMP JUMPDEST PUSH0 PUSH1 0x20 DUP3 ADD SWAP1 POP DUP2 DUP2 SUB PUSH0 DUP4 ADD MSTORE PUSH2 0x245E DUP2 PUSH2 0x2425 JUMP JUMPDEST SWAP1 POP SWAP2 SWAP1 POP JUMP JUMPDEST PUSH0 DUP2 SWAP1 POP SWAP2 SWAP1 POP JUMP JUMPDEST PUSH2 0x247F PUSH2 0x247A DUP3 PUSH2 0x1AF1 JUMP JUMPDEST PUSH2 0x2465 JUMP JUMPDEST DUP3 MSTORE POP POP JUMP JUMPDEST PUSH0 PUSH2 0x2490 DUP3 DUP6 PUSH2 0x246E JUMP JUMPDEST PUSH1 0x20 DUP3 ADD SWAP2 POP PUSH2 0x24A0 DUP3 DUP5 PUSH2 0x246E JUMP JUMPDEST PUSH1 0x20 DUP3 ADD SWAP2 POP DUP2 SWAP1 POP SWAP4 SWAP3 POP POP POP JUMP JUMPDEST PUSH0 PUSH2 0x24BA DUP3 PUSH2 0x1AF1 JUMP JUMPDEST SWAP2 POP PUSH2 0x24C5 DUP4 PUSH2 0x1AF1 JUMP JUMPDEST SWAP3 POP DUP3 PUSH2 0x24D5 JUMPI PUSH2 0x24D4 PUSH2 0x2347 JUMP JUMPDEST JUMPDEST DUP3 DUP3 MOD SWAP1 POP SWAP3 SWAP2 POP POP JUMP JUMPDEST PUSH32 0x556E6B6E6F776E20737065636965730000000000000000000000000000000000 PUSH0 DUP3 ADD MSTORE POP JUMP JUMPDEST PUSH0 PUSH2 0x2514 PUSH1 0xF DUP4 PUSH2 0x1F01 JUMP JUMPDEST SWAP2 POP PUSH2 0x251F DUP3 PUSH2 0x24E0 JUMP JUMPDEST PUSH1 0x20 DUP3 ADD SWAP1 POP SWAP2 SWAP1 POP JUMP JUMPDEST PUSH0 PUSH1 0x20 DUP3 ADD SWAP1 POP DUP2 DUP2 SUB PUSH0 DUP4 ADD MSTORE PUSH2 0x2541 DUP2 PUSH2 0x2508 JUMP JUMPDEST SWAP1 POP SWAP2 SWAP1 POP JUMP INVALID PUSH9 0x747470733A2F2F6761 PUSH21 0x657761792E70696E6174612E636C6F75642F697066 PUSH20 0x2F6261666B72656964336D64796D7A736A747564 PUSH14 0x35367A726F766974786F75766773 PUSH11 0x627A7A6B79617273713774 ORIGIN PUSH10 0x32626977796736726874 PUSH18 0x68747470733A2F2F676174657761792E7069 PUSH15 0x6174612E636C6F75642F697066732F PUSH3 0x616679 PUSH3 0x656961 CALLER PUSH13 0x65346173746B6E683270346D62 PUSH12 0x64357734326A353232746E73 PUSH6 0x3477786B3777 CALLDATALOAD PUSH14 0x3777696D6F716470366F757A7079 PUSH9 0x747470733A2F2F6761 PUSH21 0x657761792E70696E6174612E636C6F75642F697066 PUSH20 0x2F6261667962656966786E71727070336166616A PUSH15 0x74726E7779796E75326C63727A766D PUSH5 0x6D73746877 PUSH2 0x6236 PUSH25 0x32776E323377636E62646A6E366D68747470733A2F2F676174 PUSH6 0x7761792E7069 PUSH15 0x6174612E636C6F75642F697066732F PUSH3 0x616679 PUSH3 0x656965 PUSH23 0x377075637A377968377836686169646D7068703569656F PUSH3 0x766366 PUSH5 0x636C6E6C77 PUSH11 0x7161326976733479333537 PUSH17 0x76776D6168747470733A2F2F6761746577 PUSH2 0x792E PUSH17 0x696E6174612E636C6F75642F697066732F PUSH3 0x616679 PUSH3 0x656966 PUSH17 0x616A6269766868656D6A65666769616D6E PUSH23 0x68376F6532376C657874716A376167707A6E6368716575 PUSH11 0x636E343669356361687474 PUSH17 0x733A2F2F676174657761792E70696E6174 PUSH2 0x2E63 PUSH13 0x6F75642F697066732F6261666B PUSH19 0x65696636656E6F32716A6A337863376D656271 PUSH13 0x327336366F6C36797872777837 PUSH8 0x7761767A3434716E ORIGIN PUSH5 0x6C7A33636E PUSH24 0x3766323468747470733A2F2F676174657761792E70696E61 PUSH21 0x612E636C6F75642F697066732F6261667962656962 PUSH4 0x64707A70 PUSH26 0x67366D716165326F676F7775756D796D716D7178623275736E69 PUSH22 0x37356765656A347074723436376F74326E6D68747470 PUSH20 0x3A2F2F676174657761792E70696E6174612E636C PUSH16 0x75642F697066732F6261667962656967 PUSH16 0x686F746F6B366B336F6E76746A797970 PUSH7 0x6E626E7A626373 PUSH16 0x327163697862777A3477683634767032 PUSH15 0x336C71376E6B736168747470733A2F 0x2F PUSH8 0x6174657761792E70 PUSH10 0x6E6174612E636C6F7564 0x2F PUSH10 0x7066732F6261666B7265 PUSH10 0x6461346170737078746E PUSH17 0x6236336F71797A763374696E356F776334 CALLDATALOAD PUSH13 0x6763746B6471763734686A6173 CALLVALUE PUSH7 0x79746F6F6B7461 PUSH9 0x747470733A2F2F6761 PUSH21 0x657761792E70696E6174612E636C6F75642F697066 PUSH20 0x2F6261666B7265696832666D7875336179736372 CALLDATACOPY PUSH25 0x657A3275326173686177696663336F6A34716132366A353663 PUSH9 0x343676657A377A7961 PUSH6 0x6A3468747470 PUSH20 0x3A2F2F676174657761792E70696E6174612E636C PUSH16 0x75642F697066732F6261667962656965 PUSH21 0x626635716F7372796271676B7132636434637A7636 CALLDATASIZE PUSH5 0x7777367374 CALLVALUE PUSH24 0x6A35786C6F7A6534656E6232643578796A36706DA2646970 PUSH7 0x7358221220A052 NOT 0xBE 0xAD 0x21 DIV 0xB1 TSTORE 0x24 SWAP1 0xC2 SELFDESTRUCT 0xAE CALLDATALOAD PUSH15 0xB90C684B7D1CA34F45C4B4A4F1A1E5 MUL PUSH5 0x736F6C6343 STOP ADDMOD 0x1E STOP CALLER "
				},
				"gasEstimates": {
					"creation": {
						"codeDepositCost": "2124200",
						"executionCost": "infinite",
						"totalCost": "infinite"
					},
					"external": {
						"birds(uint256)": "infinite",
						"feedBird(uint256,uint256)": "infinite",
						"getAliveBirdCount()": "infinite",
						"getAliveBySpecies(uint8)": "infinite",
						"getBird(uint256)": "infinite",
						"getBirdImage(uint256)": "infinite",
						"getDeadBirdCount()": "infinite",
						"getDeadBySpecies(uint8)": "infinite",
						"getTotalBirdCount()": "2520",
						"healBird(uint256)": "32475",
						"insure(uint256)": "26935",
						"insured(uint256)": "2809",
						"mintBird(uint8)": "infinite",
						"nextId()": "2514",
						"ownerOf(uint256)": "2938",
						"parkContract()": "2553",
						"revive(uint256)": "88923",
						"setParkContract(address)": "26951",
						"transferBird(uint256,address)": "29498",
						"updateHungerAndAge(uint256)": "infinite"
					},
					"internal": {
						"randomPoisoning(uint256)": "infinite"
					}
				},
				"methodIdentifiers": {
					"birds(uint256)": "ec1c5955",
					"feedBird(uint256,uint256)": "1942d199",
					"getAliveBirdCount()": "1a3c4034",
					"getAliveBySpecies(uint8)": "21c0dd5a",
					"getBird(uint256)": "6ec88bbd",
					"getBirdImage(uint256)": "f64ff064",
					"getDeadBirdCount()": "3127522e",
					"getDeadBySpecies(uint8)": "a5d84618",
					"getTotalBirdCount()": "f06abb80",
					"healBird(uint256)": "bff998f4",
					"insure(uint256)": "49b1a0bf",
					"insured(uint256)": "16cb4a05",
					"mintBird(uint8)": "4d2d7881",
					"nextId()": "61b8ce8c",
					"ownerOf(uint256)": "6352211e",
					"parkContract()": "72680a77",
					"revive(uint256)": "8baecc21",
					"setParkContract(address)": "4e9c7df8",
					"transferBird(uint256,address)": "8c652f95",
					"updateHungerAndAge(uint256)": "a2b7ce6f"
				}
			},
			"storageLayout": {
				"storage": [
					{
						"astId": 358,
						"contract": "contracts/Ptak.sol:Ptak",
						"label": "birds",
						"offset": 0,
						"slot": "0",
						"type": "t_mapping(t_uint256,t_struct(BirdData)353_storage)"
					},
					{
						"astId": 360,
						"contract": "contracts/Ptak.sol:Ptak",
						"label": "nextId",
						"offset": 0,
						"slot": "1",
						"type": "t_uint256"
					},
					{
						"astId": 362,
						"contract": "contracts/Ptak.sol:Ptak",
						"label": "parkContract",
						"offset": 0,
						"slot": "2",
						"type": "t_address"
					},
					{
						"astId": 366,
						"contract": "contracts/Ptak.sol:Ptak",
						"label": "insured",
						"offset": 0,
						"slot": "3",
						"type": "t_mapping(t_uint256,t_bool)"
					},
					{
						"astId": 370,
						"contract": "contracts/Ptak.sol:Ptak",
						"label": "ownerOf",
						"offset": 0,
						"slot": "4",
						"type": "t_mapping(t_uint256,t_address)"
					}
				],
				"types": {
					"t_address": {
						"encoding": "inplace",
						"label": "address",
						"numberOfBytes": "20"
					},
					"t_bool": {
						"encoding": "inplace",
						"label": "bool",
						"numberOfBytes": "1"
					},
					"t_enum(Species)1093": {
						"encoding": "inplace",
						"label": "enum SpeciesLibrary.Species",
						"numberOfBytes": "1"
					},
					"t_mapping(t_uint256,t_address)": {
						"encoding": "mapping",
						"key": "t_uint256",
						"label": "mapping(uint256 => address)",
						"numberOfBytes": "32",
						"value": "t_address"
					},
					"t_mapping(t_uint256,t_bool)": {
						"encoding": "mapping",
						"key": "t_uint256",
						"label": "mapping(uint256 => bool)",
						"numberOfBytes": "32",
						"value": "t_bool"
					},
					"t_mapping(t_uint256,t_struct(BirdData)353_storage)": {
						"encoding": "mapping",
						"key": "t_uint256",
						"label": "mapping(uint256 => struct Ptak.BirdData)",
						"numberOfBytes": "32",
						"value": "t_struct(BirdData)353_storage"
					},
					"t_struct(BirdData)353_storage": {
						"encoding": "inplace",
						"label": "struct Ptak.BirdData",
						"members": [
							{
								"astId": 337,
								"contract": "contracts/Ptak.sol:Ptak",
								"label": "exists",
								"offset": 0,
								"slot": "0",
								"type": "t_bool"
							},
							{
								"astId": 339,
								"contract": "contracts/Ptak.sol:Ptak",
								"label": "age",
								"offset": 0,
								"slot": "1",
								"type": "t_uint256"
							},
							{
								"astId": 341,
								"contract": "contracts/Ptak.sol:Ptak",
								"label": "hunger",
								"offset": 0,
								"slot": "2",
								"type": "t_uint256"
							},
							{
								"astId": 343,
								"contract": "contracts/Ptak.sol:Ptak",
								"label": "health",
								"offset": 0,
								"slot": "3",
								"type": "t_uint256"
							},
							{
								"astId": 346,
								"contract": "contracts/Ptak.sol:Ptak",
								"label": "species",
								"offset": 0,
								"slot": "4",
								"type": "t_enum(Species)1093"
							},
							{
								"astId": 348,
								"contract": "contracts/Ptak.sol:Ptak",
								"label": "lastUpdateTime",
								"offset": 0,
								"slot": "5",
								"type": "t_uint256"
							},
							{
								"astId": 350,
								"contract": "contracts/Ptak.sol:Ptak",
								"label": "isDead",
								"offset": 0,
								"slot": "6",
								"type": "t_bool"
							},
							{
								"astId": 352,
								"contract": "contracts/Ptak.sol:Ptak",
								"label": "deathTimestamp",
								"offset": 0,
								"slot": "7",
								"type": "t_uint256"
							}
						],
						"numberOfBytes": "256"
					},
					"t_uint256": {
						"encoding": "inplace",
						"label": "uint256",
						"numberOfBytes": "32"
					}
				}
			},
			"userdoc": {
				"kind": "user",
				"methods": {},
				"version": 1
			}
		}
	}
}