{
	"contracts/Ptak.sol": {
		"Ptak": {
			"abi": [
				{
					"inputs": [
						{
							"internalType": "address",
							"name": "_parkContract",
							"type": "address"
						}
					],
					"stateMutability": "nonpayable",
					"type": "constructor"
				},
				{
					"inputs": [
						{
							"internalType": "uint256",
							"name": "",
							"type": "uint256"
						}
					],
					"name": "birds",
					"outputs": [
						{
							"internalType": "uint256",
							"name": "age",
							"type": "uint256"
						},
						{
							"internalType": "uint256",
							"name": "hunger",
							"type": "uint256"
						},
						{
							"internalType": "uint256",
							"name": "health",
							"type": "uint256"
						},
						{
							"internalType": "enum SpeciesLibrary.Species",
							"name": "species",
							"type": "uint8"
						},
						{
							"internalType": "uint256",
							"name": "lastUpdateTime",
							"type": "uint256"
						}
					],
					"stateMutability": "view",
					"type": "function"
				},
				{
					"inputs": [
						{
							"internalType": "uint256",
							"name": "id",
							"type": "uint256"
						},
						{
							"internalType": "uint256",
							"name": "foodAmount",
							"type": "uint256"
						}
					],
					"name": "feedBird",
					"outputs": [],
					"stateMutability": "nonpayable",
					"type": "function"
				},
				{
					"inputs": [
						{
							"internalType": "uint256",
							"name": "id",
							"type": "uint256"
						}
					],
					"name": "getBird",
					"outputs": [
						{
							"components": [
								{
									"internalType": "uint256",
									"name": "age",
									"type": "uint256"
								},
								{
									"internalType": "uint256",
									"name": "hunger",
									"type": "uint256"
								},
								{
									"internalType": "uint256",
									"name": "health",
									"type": "uint256"
								},
								{
									"internalType": "enum SpeciesLibrary.Species",
									"name": "species",
									"type": "uint8"
								},
								{
									"internalType": "uint256",
									"name": "lastUpdateTime",
									"type": "uint256"
								}
							],
							"internalType": "struct Ptak.BirdData",
							"name": "",
							"type": "tuple"
						}
					],
					"stateMutability": "nonpayable",
					"type": "function"
				},
				{
					"inputs": [
						{
							"internalType": "uint256",
							"name": "",
							"type": "uint256"
						}
					],
					"name": "insured",
					"outputs": [
						{
							"internalType": "bool",
							"name": "",
							"type": "bool"
						}
					],
					"stateMutability": "view",
					"type": "function"
				},
				{
					"inputs": [
						{
							"internalType": "enum SpeciesLibrary.Species",
							"name": "species",
							"type": "uint8"
						}
					],
					"name": "mintBird",
					"outputs": [
						{
							"internalType": "int256",
							"name": "",
							"type": "int256"
						}
					],
					"stateMutability": "nonpayable",
					"type": "function"
				},
				{
					"inputs": [],
					"name": "nextId",
					"outputs": [
						{
							"internalType": "uint256",
							"name": "",
							"type": "uint256"
						}
					],
					"stateMutability": "view",
					"type": "function"
				},
				{
					"inputs": [],
					"name": "parkContract",
					"outputs": [
						{
							"internalType": "address",
							"name": "",
							"type": "address"
						}
					],
					"stateMutability": "view",
					"type": "function"
				},
				{
					"inputs": [
						{
							"internalType": "uint256",
							"name": "id",
							"type": "uint256"
						}
					],
					"name": "updateHungerAndAge",
					"outputs": [],
					"stateMutability": "nonpayable",
					"type": "function"
				}
			],
			"devdoc": {
				"kind": "dev",
				"methods": {},
				"version": 1
			},
			"evm": {
				"assembly": "    /* \"contracts/Ptak.sol\":95:3047  contract Ptak {... */\n  mstore(0x40, 0x80)\n    /* \"contracts/Ptak.sol\":629:711  constructor(address _parkContract) {... */\n  callvalue\n  dup1\n  iszero\n  tag_1\n  jumpi\n  revert(0x00, 0x00)\ntag_1:\n  pop\n  mload(0x40)\n  sub(codesize, bytecodeSize)\n  dup1\n  bytecodeSize\n  dup4\n  codecopy\n  dup2\n  dup2\n  add\n  0x40\n  mstore\n  dup2\n  add\n  swap1\n  tag_2\n  swap2\n  swap1\n  tag_3\n  jump\t// in\ntag_2:\n    /* \"contracts/Ptak.sol\":690:703  _parkContract */\n  dup1\n    /* \"contracts/Ptak.sol\":675:687  parkContract */\n  0x02\n  0x00\n    /* \"contracts/Ptak.sol\":675:703  parkContract = _parkContract */\n  0x0100\n  exp\n  dup2\n  sload\n  dup2\n  0xffffffffffffffffffffffffffffffffffffffff\n  mul\n  not\n  and\n  swap1\n  dup4\n  0xffffffffffffffffffffffffffffffffffffffff\n  and\n  mul\n  or\n  swap1\n  sstore\n  pop\n    /* \"contracts/Ptak.sol\":629:711  constructor(address _parkContract) {... */\n  pop\n    /* \"contracts/Ptak.sol\":95:3047  contract Ptak {... */\n  jump(tag_6)\n    /* \"#utility.yul\":88:205   */\ntag_8:\n    /* \"#utility.yul\":197:198   */\n  0x00\n    /* \"#utility.yul\":194:195   */\n  0x00\n    /* \"#utility.yul\":187:199   */\n  revert\n    /* \"#utility.yul\":334:460   */\ntag_10:\n    /* \"#utility.yul\":371:378   */\n  0x00\n    /* \"#utility.yul\":411:453   */\n  0xffffffffffffffffffffffffffffffffffffffff\n    /* \"#utility.yul\":404:409   */\n  dup3\n    /* \"#utility.yul\":400:454   */\n  and\n    /* \"#utility.yul\":389:454   */\n  swap1\n  pop\n    /* \"#utility.yul\":334:460   */\n  swap2\n  swap1\n  pop\n  jump\t// out\n    /* \"#utility.yul\":466:562   */\ntag_11:\n    /* \"#utility.yul\":503:510   */\n  0x00\n    /* \"#utility.yul\":532:556   */\n  tag_20\n    /* \"#utility.yul\":550:555   */\n  dup3\n    /* \"#utility.yul\":532:556   */\n  tag_10\n  jump\t// in\ntag_20:\n    /* \"#utility.yul\":521:556   */\n  swap1\n  pop\n    /* \"#utility.yul\":466:562   */\n  swap2\n  swap1\n  pop\n  jump\t// out\n    /* \"#utility.yul\":568:690   */\ntag_12:\n    /* \"#utility.yul\":641:665   */\n  tag_22\n    /* \"#utility.yul\":659:664   */\n  dup2\n    /* \"#utility.yul\":641:665   */\n  tag_11\n  jump\t// in\ntag_22:\n    /* \"#utility.yul\":634:639   */\n  dup2\n    /* \"#utility.yul\":631:666   */\n  eq\n    /* \"#utility.yul\":621:684   */\n  tag_23\n  jumpi\n    /* \"#utility.yul\":680:681   */\n  0x00\n    /* \"#utility.yul\":677:678   */\n  0x00\n    /* \"#utility.yul\":670:682   */\n  revert\n    /* \"#utility.yul\":621:684   */\ntag_23:\n    /* \"#utility.yul\":568:690   */\n  pop\n  jump\t// out\n    /* \"#utility.yul\":696:839   */\ntag_13:\n    /* \"#utility.yul\":753:758   */\n  0x00\n    /* \"#utility.yul\":784:790   */\n  dup2\n    /* \"#utility.yul\":778:791   */\n  mload\n    /* \"#utility.yul\":769:791   */\n  swap1\n  pop\n    /* \"#utility.yul\":800:833   */\n  tag_25\n    /* \"#utility.yul\":827:832   */\n  dup2\n    /* \"#utility.yul\":800:833   */\n  tag_12\n  jump\t// in\ntag_25:\n    /* \"#utility.yul\":696:839   */\n  swap3\n  swap2\n  pop\n  pop\n  jump\t// out\n    /* \"#utility.yul\":845:1196   */\ntag_3:\n    /* \"#utility.yul\":915:921   */\n  0x00\n    /* \"#utility.yul\":964:966   */\n  0x20\n    /* \"#utility.yul\":952:961   */\n  dup3\n    /* \"#utility.yul\":943:950   */\n  dup5\n    /* \"#utility.yul\":939:962   */\n  sub\n    /* \"#utility.yul\":935:967   */\n  slt\n    /* \"#utility.yul\":932:1051   */\n  iszero\n  tag_27\n  jumpi\n    /* \"#utility.yul\":970:1049   */\n  tag_28\n  tag_8\n  jump\t// in\ntag_28:\n    /* \"#utility.yul\":932:1051   */\ntag_27:\n    /* \"#utility.yul\":1090:1091   */\n  0x00\n    /* \"#utility.yul\":1115:1179   */\n  tag_29\n    /* \"#utility.yul\":1171:1178   */\n  dup5\n    /* \"#utility.yul\":1162:1168   */\n  dup3\n    /* \"#utility.yul\":1151:1160   */\n  dup6\n    /* \"#utility.yul\":1147:1169   */\n  add\n    /* \"#utility.yul\":1115:1179   */\n  tag_13\n  jump\t// in\ntag_29:\n    /* \"#utility.yul\":1105:1179   */\n  swap2\n  pop\n    /* \"#utility.yul\":1061:1189   */\n  pop\n    /* \"#utility.yul\":845:1196   */\n  swap3\n  swap2\n  pop\n  pop\n  jump\t// out\n    /* \"contracts/Ptak.sol\":95:3047  contract Ptak {... */\ntag_6:\n  dataSize(sub_0)\n  dup1\n  dataOffset(sub_0)\n  0x00\n  codecopy\n  0x00\n  return\nstop\n\nsub_0: assembly {\n        /* \"contracts/Ptak.sol\":95:3047  contract Ptak {... */\n      mstore(0x40, 0x80)\n      callvalue\n      dup1\n      iszero\n      tag_1\n      jumpi\n      revert(0x00, 0x00)\n    tag_1:\n      pop\n      jumpi(tag_2, lt(calldatasize, 0x04))\n      shr(0xe0, calldataload(0x00))\n      dup1\n      0x6ec88bbd\n      gt\n      tag_11\n      jumpi\n      dup1\n      0x6ec88bbd\n      eq\n      tag_7\n      jumpi\n      dup1\n      0x72680a77\n      eq\n      tag_8\n      jumpi\n      dup1\n      0xa2b7ce6f\n      eq\n      tag_9\n      jumpi\n      dup1\n      0xec1c5955\n      eq\n      tag_10\n      jumpi\n      jump(tag_2)\n    tag_11:\n      dup1\n      0x16cb4a05\n      eq\n      tag_3\n      jumpi\n      dup1\n      0x1942d199\n      eq\n      tag_4\n      jumpi\n      dup1\n      0x4d2d7881\n      eq\n      tag_5\n      jumpi\n      dup1\n      0x61b8ce8c\n      eq\n      tag_6\n      jumpi\n    tag_2:\n      revert(0x00, 0x00)\n        /* \"contracts/Ptak.sol\":460:499  mapping(uint256 => bool) public insured */\n    tag_3:\n      tag_12\n      0x04\n      dup1\n      calldatasize\n      sub\n      dup2\n      add\n      swap1\n      tag_13\n      swap2\n      swap1\n      tag_14\n      jump\t// in\n    tag_13:\n      tag_15\n      jump\t// in\n    tag_12:\n      mload(0x40)\n      tag_16\n      swap2\n      swap1\n      tag_17\n      jump\t// in\n    tag_16:\n      mload(0x40)\n      dup1\n      swap2\n      sub\n      swap1\n      return\n        /* \"contracts/Ptak.sol\":2552:2902  function feedBird(uint256 id, uint256 foodAmount) external onlyPark {... */\n    tag_4:\n      tag_18\n      0x04\n      dup1\n      calldatasize\n      sub\n      dup2\n      add\n      swap1\n      tag_19\n      swap2\n      swap1\n      tag_20\n      jump\t// in\n    tag_19:\n      tag_21\n      jump\t// in\n    tag_18:\n      stop\n        /* \"contracts/Ptak.sol\":719:1031  function mintBird(SpeciesLibrary.Species species) external onlyPark returns (int) {... */\n    tag_5:\n      tag_22\n      0x04\n      dup1\n      calldatasize\n      sub\n      dup2\n      add\n      swap1\n      tag_23\n      swap2\n      swap1\n      tag_24\n      jump\t// in\n    tag_23:\n      tag_25\n      jump\t// in\n    tag_22:\n      mload(0x40)\n      tag_26\n      swap2\n      swap1\n      tag_27\n      jump\t// in\n    tag_26:\n      mload(0x40)\n      dup1\n      swap2\n      sub\n      swap1\n      return\n        /* \"contracts/Ptak.sol\":398:419  uint256 public nextId */\n    tag_6:\n      tag_28\n      tag_29\n      jump\t// in\n    tag_28:\n      mload(0x40)\n      tag_30\n      swap2\n      swap1\n      tag_31\n      jump\t// in\n    tag_30:\n      mload(0x40)\n      dup1\n      swap2\n      sub\n      swap1\n      return\n        /* \"contracts/Ptak.sol\":2910:3042  function getBird(uint256 id) external returns (BirdData memory) {... */\n    tag_7:\n      tag_32\n      0x04\n      dup1\n      calldatasize\n      sub\n      dup2\n      add\n      swap1\n      tag_33\n      swap2\n      swap1\n      tag_14\n      jump\t// in\n    tag_33:\n      tag_34\n      jump\t// in\n    tag_32:\n      mload(0x40)\n      tag_35\n      swap2\n      swap1\n      tag_36\n      jump\t// in\n    tag_35:\n      mload(0x40)\n      dup1\n      swap2\n      sub\n      swap1\n      return\n        /* \"contracts/Ptak.sol\":426:453  address public parkContract */\n    tag_8:\n      tag_37\n      tag_38\n      jump\t// in\n    tag_37:\n      mload(0x40)\n      tag_39\n      swap2\n      swap1\n      tag_40\n      jump\t// in\n    tag_39:\n      mload(0x40)\n      dup1\n      swap2\n      sub\n      swap1\n      return\n        /* \"contracts/Ptak.sol\":1039:1998  function updateHungerAndAge(uint256 id) public {... */\n    tag_9:\n      tag_41\n      0x04\n      dup1\n      calldatasize\n      sub\n      dup2\n      add\n      swap1\n      tag_42\n      swap2\n      swap1\n      tag_14\n      jump\t// in\n    tag_42:\n      tag_43\n      jump\t// in\n    tag_41:\n      stop\n        /* \"contracts/Ptak.sol\":350:391  mapping(uint256 => BirdData) public birds */\n    tag_10:\n      tag_44\n      0x04\n      dup1\n      calldatasize\n      sub\n      dup2\n      add\n      swap1\n      tag_45\n      swap2\n      swap1\n      tag_14\n      jump\t// in\n    tag_45:\n      tag_46\n      jump\t// in\n    tag_44:\n      mload(0x40)\n      tag_47\n      swap6\n      swap5\n      swap4\n      swap3\n      swap2\n      swap1\n      tag_48\n      jump\t// in\n    tag_47:\n      mload(0x40)\n      dup1\n      swap2\n      sub\n      swap1\n      return\n        /* \"contracts/Ptak.sol\":460:499  mapping(uint256 => bool) public insured */\n    tag_15:\n      mstore(0x20, 0x03)\n      dup1\n      0x00\n      mstore\n      keccak256(0x00, 0x40)\n      0x00\n      swap2\n      pop\n      sload\n      swap1\n      0x0100\n      exp\n      swap1\n      div\n      0xff\n      and\n      dup2\n      jump\t// out\n        /* \"contracts/Ptak.sol\":2552:2902  function feedBird(uint256 id, uint256 foodAmount) external onlyPark {... */\n    tag_21:\n        /* \"contracts/Ptak.sol\":561:573  parkContract */\n      0x02\n      0x00\n      swap1\n      sload\n      swap1\n      0x0100\n      exp\n      swap1\n      div\n      0xffffffffffffffffffffffffffffffffffffffff\n      and\n        /* \"contracts/Ptak.sol\":547:573  msg.sender == parkContract */\n      0xffffffffffffffffffffffffffffffffffffffff\n      and\n        /* \"contracts/Ptak.sol\":547:557  msg.sender */\n      caller\n        /* \"contracts/Ptak.sol\":547:573  msg.sender == parkContract */\n      0xffffffffffffffffffffffffffffffffffffffff\n      and\n      eq\n        /* \"contracts/Ptak.sol\":539:601  require(msg.sender == parkContract, \"Only Park can call this\") */\n      tag_50\n      jumpi\n      mload(0x40)\n      0x08c379a000000000000000000000000000000000000000000000000000000000\n      dup2\n      mstore\n      0x04\n      add\n      tag_51\n      swap1\n      tag_52\n      jump\t// in\n    tag_51:\n      mload(0x40)\n      dup1\n      swap2\n      sub\n      swap1\n      revert\n    tag_50:\n        /* \"contracts/Ptak.sol\":2631:2653  updateHungerAndAge(id) */\n      tag_54\n        /* \"contracts/Ptak.sol\":2650:2652  id */\n      dup3\n        /* \"contracts/Ptak.sol\":2631:2649  updateHungerAndAge */\n      tag_43\n        /* \"contracts/Ptak.sol\":2631:2653  updateHungerAndAge(id) */\n      jump\t// in\n    tag_54:\n        /* \"contracts/Ptak.sol\":2664:2685  BirdData storage bird */\n      0x00\n        /* \"contracts/Ptak.sol\":2688:2693  birds */\n      0x00\n        /* \"contracts/Ptak.sol\":2688:2697  birds[id] */\n      0x00\n        /* \"contracts/Ptak.sol\":2694:2696  id */\n      dup5\n        /* \"contracts/Ptak.sol\":2688:2697  birds[id] */\n      dup2\n      mstore\n      0x20\n      add\n      swap1\n      dup2\n      mstore\n      0x20\n      add\n      0x00\n      keccak256\n        /* \"contracts/Ptak.sol\":2664:2697  BirdData storage bird = birds[id] */\n      swap1\n      pop\n        /* \"contracts/Ptak.sol\":2708:2727  randomPoisoning(id) */\n      tag_55\n        /* \"contracts/Ptak.sol\":2724:2726  id */\n      dup4\n        /* \"contracts/Ptak.sol\":2708:2723  randomPoisoning */\n      tag_56\n        /* \"contracts/Ptak.sol\":2708:2727  randomPoisoning(id) */\n      jump\t// in\n    tag_55:\n        /* \"contracts/Ptak.sol\":2756:2766  foodAmount */\n      dup2\n        /* \"contracts/Ptak.sol\":2741:2745  bird */\n      dup2\n        /* \"contracts/Ptak.sol\":2741:2752  bird.hunger */\n      0x01\n      add\n      sload\n        /* \"contracts/Ptak.sol\":2741:2766  bird.hunger >= foodAmount */\n      lt\n        /* \"contracts/Ptak.sol\":2738:2895  if(bird.hunger >= foodAmount){... */\n      tag_57\n      jumpi\n        /* \"contracts/Ptak.sol\":2797:2807  foodAmount */\n      dup2\n        /* \"contracts/Ptak.sol\":2782:2786  bird */\n      dup2\n        /* \"contracts/Ptak.sol\":2782:2793  bird.hunger */\n      0x01\n      add\n      0x00\n        /* \"contracts/Ptak.sol\":2782:2807  bird.hunger -= foodAmount */\n      dup3\n      dup3\n      sload\n      tag_58\n      swap2\n      swap1\n      tag_59\n      jump\t// in\n    tag_58:\n      swap3\n      pop\n      pop\n      dup2\n      swap1\n      sstore\n      pop\n        /* \"contracts/Ptak.sol\":2738:2895  if(bird.hunger >= foodAmount){... */\n      jump(tag_60)\n    tag_57:\n        /* \"contracts/Ptak.sol\":2854:2855  0 */\n      0x00\n        /* \"contracts/Ptak.sol\":2840:2844  bird */\n      dup2\n        /* \"contracts/Ptak.sol\":2840:2851  bird.hunger */\n      0x01\n      add\n        /* \"contracts/Ptak.sol\":2840:2855  bird.hunger = 0 */\n      dup2\n      swap1\n      sstore\n      pop\n        /* \"contracts/Ptak.sol\":2738:2895  if(bird.hunger >= foodAmount){... */\n    tag_60:\n        /* \"contracts/Ptak.sol\":2620:2902  {... */\n      pop\n        /* \"contracts/Ptak.sol\":2552:2902  function feedBird(uint256 id, uint256 foodAmount) external onlyPark {... */\n      pop\n      pop\n      jump\t// out\n        /* \"contracts/Ptak.sol\":719:1031  function mintBird(SpeciesLibrary.Species species) external onlyPark returns (int) {... */\n    tag_25:\n        /* \"contracts/Ptak.sol\":796:799  int */\n      0x00\n        /* \"contracts/Ptak.sol\":561:573  parkContract */\n      0x02\n      0x00\n      swap1\n      sload\n      swap1\n      0x0100\n      exp\n      swap1\n      div\n      0xffffffffffffffffffffffffffffffffffffffff\n      and\n        /* \"contracts/Ptak.sol\":547:573  msg.sender == parkContract */\n      0xffffffffffffffffffffffffffffffffffffffff\n      and\n        /* \"contracts/Ptak.sol\":547:557  msg.sender */\n      caller\n        /* \"contracts/Ptak.sol\":547:573  msg.sender == parkContract */\n      0xffffffffffffffffffffffffffffffffffffffff\n      and\n      eq\n        /* \"contracts/Ptak.sol\":539:601  require(msg.sender == parkContract, \"Only Park can call this\") */\n      tag_62\n      jumpi\n      mload(0x40)\n      0x08c379a000000000000000000000000000000000000000000000000000000000\n      dup2\n      mstore\n      0x04\n      add\n      tag_63\n      swap1\n      tag_52\n      jump\t// in\n    tag_63:\n      mload(0x40)\n      dup1\n      swap2\n      sub\n      swap1\n      revert\n    tag_62:\n        /* \"contracts/Ptak.sol\":812:850  SpeciesLibrary.SpeciesInfo memory info */\n      0x00\n        /* \"contracts/Ptak.sol\":853:891  SpeciesLibrary.getSpeciesInfo(species) */\n      tag_65\n        /* \"contracts/Ptak.sol\":883:890  species */\n      dup4\n        /* \"contracts/Ptak.sol\":853:882  SpeciesLibrary.getSpeciesInfo */\n      tag_66\n        /* \"contracts/Ptak.sol\":853:891  SpeciesLibrary.getSpeciesInfo(species) */\n      jump\t// in\n    tag_65:\n        /* \"contracts/Ptak.sol\":812:891  SpeciesLibrary.SpeciesInfo memory info = SpeciesLibrary.getSpeciesInfo(species) */\n      swap1\n      pop\n        /* \"contracts/Ptak.sol\":918:974  BirdData(0, 0, info.maxHealth, species, block.timestamp) */\n      mload(0x40)\n      dup1\n      0xa0\n      add\n      0x40\n      mstore\n      dup1\n        /* \"contracts/Ptak.sol\":927:928  0 */\n      0x00\n        /* \"contracts/Ptak.sol\":918:974  BirdData(0, 0, info.maxHealth, species, block.timestamp) */\n      dup2\n      mstore\n      0x20\n      add\n        /* \"contracts/Ptak.sol\":930:931  0 */\n      0x00\n        /* \"contracts/Ptak.sol\":918:974  BirdData(0, 0, info.maxHealth, species, block.timestamp) */\n      dup2\n      mstore\n      0x20\n      add\n        /* \"contracts/Ptak.sol\":933:937  info */\n      dup3\n        /* \"contracts/Ptak.sol\":933:947  info.maxHealth */\n      0x00\n      add\n      mload\n        /* \"contracts/Ptak.sol\":918:974  BirdData(0, 0, info.maxHealth, species, block.timestamp) */\n      dup2\n      mstore\n      0x20\n      add\n        /* \"contracts/Ptak.sol\":949:956  species */\n      dup5\n        /* \"contracts/Ptak.sol\":918:974  BirdData(0, 0, info.maxHealth, species, block.timestamp) */\n      0x0a\n      dup2\n      gt\n      iszero\n      tag_67\n      jumpi\n      tag_68\n      tag_69\n      jump\t// in\n    tag_68:\n    tag_67:\n      dup2\n      mstore\n      0x20\n      add\n        /* \"contracts/Ptak.sol\":958:973  block.timestamp */\n      timestamp\n        /* \"contracts/Ptak.sol\":918:974  BirdData(0, 0, info.maxHealth, species, block.timestamp) */\n      dup2\n      mstore\n      pop\n        /* \"contracts/Ptak.sol\":902:907  birds */\n      0x00\n        /* \"contracts/Ptak.sol\":902:915  birds[nextId] */\n      0x00\n        /* \"contracts/Ptak.sol\":908:914  nextId */\n      sload(0x01)\n        /* \"contracts/Ptak.sol\":902:915  birds[nextId] */\n      dup2\n      mstore\n      0x20\n      add\n      swap1\n      dup2\n      mstore\n      0x20\n      add\n      0x00\n      keccak256\n        /* \"contracts/Ptak.sol\":902:974  birds[nextId] = BirdData(0, 0, info.maxHealth, species, block.timestamp) */\n      0x00\n      dup3\n      add\n      mload\n      dup2\n      0x00\n      add\n      sstore\n      0x20\n      dup3\n      add\n      mload\n      dup2\n      0x01\n      add\n      sstore\n      0x40\n      dup3\n      add\n      mload\n      dup2\n      0x02\n      add\n      sstore\n      0x60\n      dup3\n      add\n      mload\n      dup2\n      0x03\n      add\n      exp(0x0100, 0x00)\n      dup2\n      sload\n      dup2\n      0xff\n      mul\n      not\n      and\n      swap1\n      dup4\n      0x0a\n      dup2\n      gt\n      iszero\n      tag_70\n      jumpi\n      tag_71\n      tag_69\n      jump\t// in\n    tag_71:\n    tag_70:\n      mul\n      or\n      swap1\n      sstore\n      pop\n      0x80\n      dup3\n      add\n      mload\n      dup2\n      0x04\n      add\n      sstore\n      swap1\n      pop\n      pop\n        /* \"contracts/Ptak.sol\":985:991  nextId */\n      0x01\n      0x00\n        /* \"contracts/Ptak.sol\":985:993  nextId++ */\n      dup2\n      sload\n      dup1\n      swap3\n      swap2\n      swap1\n      tag_72\n      swap1\n      tag_73\n      jump\t// in\n    tag_72:\n      swap2\n      swap1\n      pop\n      sstore\n      pop\n        /* \"contracts/Ptak.sol\":1011:1012  0 */\n      0x00\n        /* \"contracts/Ptak.sol\":1004:1012  return 0 */\n      swap2\n      pop\n      pop\n        /* \"contracts/Ptak.sol\":719:1031  function mintBird(SpeciesLibrary.Species species) external onlyPark returns (int) {... */\n      swap2\n      swap1\n      pop\n      jump\t// out\n        /* \"contracts/Ptak.sol\":398:419  uint256 public nextId */\n    tag_29:\n      sload(0x01)\n      dup2\n      jump\t// out\n        /* \"contracts/Ptak.sol\":2910:3042  function getBird(uint256 id) external returns (BirdData memory) {... */\n    tag_34:\n        /* \"contracts/Ptak.sol\":2957:2972  BirdData memory */\n      tag_74\n      tag_75\n      jump\t// in\n    tag_74:\n        /* \"contracts/Ptak.sol\":2985:3007  updateHungerAndAge(id) */\n      tag_77\n        /* \"contracts/Ptak.sol\":3004:3006  id */\n      dup3\n        /* \"contracts/Ptak.sol\":2985:3003  updateHungerAndAge */\n      tag_43\n        /* \"contracts/Ptak.sol\":2985:3007  updateHungerAndAge(id) */\n      jump\t// in\n    tag_77:\n        /* \"contracts/Ptak.sol\":3025:3030  birds */\n      0x00\n        /* \"contracts/Ptak.sol\":3025:3034  birds[id] */\n      0x00\n        /* \"contracts/Ptak.sol\":3031:3033  id */\n      dup4\n        /* \"contracts/Ptak.sol\":3025:3034  birds[id] */\n      dup2\n      mstore\n      0x20\n      add\n      swap1\n      dup2\n      mstore\n      0x20\n      add\n      0x00\n      keccak256\n        /* \"contracts/Ptak.sol\":3018:3034  return birds[id] */\n      mload(0x40)\n      dup1\n      0xa0\n      add\n      0x40\n      mstore\n      swap1\n      dup2\n      0x00\n      dup3\n      add\n      sload\n      dup2\n      mstore\n      0x20\n      add\n      0x01\n      dup3\n      add\n      sload\n      dup2\n      mstore\n      0x20\n      add\n      0x02\n      dup3\n      add\n      sload\n      dup2\n      mstore\n      0x20\n      add\n      0x03\n      dup3\n      add\n      0x00\n      swap1\n      sload\n      swap1\n      0x0100\n      exp\n      swap1\n      div\n      0xff\n      and\n      0x0a\n      dup2\n      gt\n      iszero\n      tag_78\n      jumpi\n      tag_79\n      tag_69\n      jump\t// in\n    tag_79:\n    tag_78:\n      0x0a\n      dup2\n      gt\n      iszero\n      tag_80\n      jumpi\n      tag_81\n      tag_69\n      jump\t// in\n    tag_81:\n    tag_80:\n      dup2\n      mstore\n      0x20\n      add\n      0x04\n      dup3\n      add\n      sload\n      dup2\n      mstore\n      pop\n      pop\n      swap1\n      pop\n        /* \"contracts/Ptak.sol\":2910:3042  function getBird(uint256 id) external returns (BirdData memory) {... */\n      swap2\n      swap1\n      pop\n      jump\t// out\n        /* \"contracts/Ptak.sol\":426:453  address public parkContract */\n    tag_38:\n      0x02\n      0x00\n      swap1\n      sload\n      swap1\n      0x0100\n      exp\n      swap1\n      div\n      0xffffffffffffffffffffffffffffffffffffffff\n      and\n      dup2\n      jump\t// out\n        /* \"contracts/Ptak.sol\":1039:1998  function updateHungerAndAge(uint256 id) public {... */\n    tag_43:\n        /* \"contracts/Ptak.sol\":1097:1118  BirdData storage bird */\n      0x00\n        /* \"contracts/Ptak.sol\":1121:1126  birds */\n      0x00\n        /* \"contracts/Ptak.sol\":1121:1130  birds[id] */\n      0x00\n        /* \"contracts/Ptak.sol\":1127:1129  id */\n      dup4\n        /* \"contracts/Ptak.sol\":1121:1130  birds[id] */\n      dup2\n      mstore\n      0x20\n      add\n      swap1\n      dup2\n      mstore\n      0x20\n      add\n      0x00\n      keccak256\n        /* \"contracts/Ptak.sol\":1097:1130  BirdData storage bird = birds[id] */\n      swap1\n      pop\n        /* \"contracts/Ptak.sol\":1141:1160  uint256 timeElapsed */\n      0x00\n        /* \"contracts/Ptak.sol\":1181:1185  bird */\n      dup2\n        /* \"contracts/Ptak.sol\":1181:1200  bird.lastUpdateTime */\n      0x04\n      add\n      sload\n        /* \"contracts/Ptak.sol\":1163:1178  block.timestamp */\n      timestamp\n        /* \"contracts/Ptak.sol\":1163:1200  block.timestamp - bird.lastUpdateTime */\n      tag_83\n      swap2\n      swap1\n      tag_59\n      jump\t// in\n    tag_83:\n        /* \"contracts/Ptak.sol\":1141:1200  uint256 timeElapsed = block.timestamp - bird.lastUpdateTime */\n      swap1\n      pop\n        /* \"contracts/Ptak.sol\":1243:1244  0 */\n      0x00\n        /* \"contracts/Ptak.sol\":1229:1240  timeElapsed */\n      dup2\n        /* \"contracts/Ptak.sol\":1229:1244  timeElapsed > 0 */\n      gt\n        /* \"contracts/Ptak.sol\":1226:1991  if(timeElapsed > 0) {... */\n      iszero\n      tag_84\n      jumpi\n        /* \"contracts/Ptak.sol\":1344:1366  uint256 hungerIncrease */\n      0x00\n        /* \"contracts/Ptak.sol\":1447:1451  3600 */\n      0x0e10\n        /* \"contracts/Ptak.sol\":1384:1427  SpeciesLibrary.getSpeciesInfo(bird.species) */\n      tag_85\n        /* \"contracts/Ptak.sol\":1414:1418  bird */\n      dup5\n        /* \"contracts/Ptak.sol\":1414:1426  bird.species */\n      0x03\n      add\n      0x00\n      swap1\n      sload\n      swap1\n      0x0100\n      exp\n      swap1\n      div\n      0xff\n      and\n        /* \"contracts/Ptak.sol\":1384:1413  SpeciesLibrary.getSpeciesInfo */\n      tag_66\n        /* \"contracts/Ptak.sol\":1384:1427  SpeciesLibrary.getSpeciesInfo(bird.species) */\n      jump\t// in\n    tag_85:\n        /* \"contracts/Ptak.sol\":1384:1443  SpeciesLibrary.getSpeciesInfo(bird.species).hungerDecayRate */\n      0x40\n      add\n      mload\n        /* \"contracts/Ptak.sol\":1370:1381  timeElapsed */\n      dup4\n        /* \"contracts/Ptak.sol\":1370:1443  timeElapsed * SpeciesLibrary.getSpeciesInfo(bird.species).hungerDecayRate */\n      tag_86\n      swap2\n      swap1\n      tag_87\n      jump\t// in\n    tag_86:\n        /* \"contracts/Ptak.sol\":1369:1451  (timeElapsed * SpeciesLibrary.getSpeciesInfo(bird.species).hungerDecayRate) / 3600 */\n      tag_88\n      swap2\n      swap1\n      tag_89\n      jump\t// in\n    tag_88:\n        /* \"contracts/Ptak.sol\":1344:1451  uint256 hungerIncrease = (timeElapsed * SpeciesLibrary.getSpeciesInfo(bird.species).hungerDecayRate) / 3600 */\n      swap1\n      pop\n        /* \"contracts/Ptak.sol\":1481:1495  hungerIncrease */\n      dup1\n        /* \"contracts/Ptak.sol\":1466:1470  bird */\n      dup4\n        /* \"contracts/Ptak.sol\":1466:1477  bird.hunger */\n      0x01\n      add\n      0x00\n        /* \"contracts/Ptak.sol\":1466:1495  bird.hunger += hungerIncrease */\n      dup3\n      dup3\n      sload\n      tag_90\n      swap2\n      swap1\n      tag_91\n      jump\t// in\n    tag_90:\n      swap3\n      pop\n      pop\n      dup2\n      swap1\n      sstore\n      pop\n        /* \"contracts/Ptak.sol\":1512:1529  uint256 maxHunger */\n      0x00\n        /* \"contracts/Ptak.sol\":1532:1575  SpeciesLibrary.getSpeciesInfo(bird.species) */\n      tag_92\n        /* \"contracts/Ptak.sol\":1562:1566  bird */\n      dup5\n        /* \"contracts/Ptak.sol\":1562:1574  bird.species */\n      0x03\n      add\n      0x00\n      swap1\n      sload\n      swap1\n      0x0100\n      exp\n      swap1\n      div\n      0xff\n      and\n        /* \"contracts/Ptak.sol\":1532:1561  SpeciesLibrary.getSpeciesInfo */\n      tag_66\n        /* \"contracts/Ptak.sol\":1532:1575  SpeciesLibrary.getSpeciesInfo(bird.species) */\n      jump\t// in\n    tag_92:\n        /* \"contracts/Ptak.sol\":1532:1585  SpeciesLibrary.getSpeciesInfo(bird.species).maxHunger */\n      0x20\n      add\n      mload\n        /* \"contracts/Ptak.sol\":1512:1585  uint256 maxHunger = SpeciesLibrary.getSpeciesInfo(bird.species).maxHunger */\n      swap1\n      pop\n        /* \"contracts/Ptak.sol\":1617:1626  maxHunger */\n      dup1\n        /* \"contracts/Ptak.sol\":1603:1607  bird */\n      dup5\n        /* \"contracts/Ptak.sol\":1603:1614  bird.hunger */\n      0x01\n      add\n      sload\n        /* \"contracts/Ptak.sol\":1603:1626  bird.hunger > maxHunger */\n      gt\n        /* \"contracts/Ptak.sol\":1600:1686  if(bird.hunger > maxHunger) {... */\n      iszero\n      tag_93\n      jumpi\n        /* \"contracts/Ptak.sol\":1661:1670  maxHunger */\n      dup1\n        /* \"contracts/Ptak.sol\":1647:1651  bird */\n      dup5\n        /* \"contracts/Ptak.sol\":1647:1658  bird.hunger */\n      0x01\n      add\n        /* \"contracts/Ptak.sol\":1647:1670  bird.hunger = maxHunger */\n      dup2\n      swap1\n      sstore\n      pop\n        /* \"contracts/Ptak.sol\":1600:1686  if(bird.hunger > maxHunger) {... */\n    tag_93:\n        /* \"contracts/Ptak.sol\":1757:1775  uint256 daysPassed */\n      0x00\n        /* \"contracts/Ptak.sol\":1792:1797  86400 */\n      0x015180\n        /* \"contracts/Ptak.sol\":1778:1789  timeElapsed */\n      dup5\n        /* \"contracts/Ptak.sol\":1778:1797  timeElapsed / 86400 */\n      tag_94\n      swap2\n      swap1\n      tag_89\n      jump\t// in\n    tag_94:\n        /* \"contracts/Ptak.sol\":1757:1797  uint256 daysPassed = timeElapsed / 86400 */\n      swap1\n      pop\n        /* \"contracts/Ptak.sol\":1828:1829  0 */\n      0x00\n        /* \"contracts/Ptak.sol\":1815:1825  daysPassed */\n      dup2\n        /* \"contracts/Ptak.sol\":1815:1829  daysPassed > 0 */\n      gt\n        /* \"contracts/Ptak.sol\":1812:1888  if(daysPassed > 0) {... */\n      iszero\n      tag_95\n      jumpi\n        /* \"contracts/Ptak.sol\":1862:1872  daysPassed */\n      dup1\n        /* \"contracts/Ptak.sol\":1850:1854  bird */\n      dup6\n        /* \"contracts/Ptak.sol\":1850:1858  bird.age */\n      0x00\n      add\n      0x00\n        /* \"contracts/Ptak.sol\":1850:1872  bird.age += daysPassed */\n      dup3\n      dup3\n      sload\n      tag_96\n      swap2\n      swap1\n      tag_91\n      jump\t// in\n    tag_96:\n      swap3\n      pop\n      pop\n      dup2\n      swap1\n      sstore\n      pop\n        /* \"contracts/Ptak.sol\":1812:1888  if(daysPassed > 0) {... */\n    tag_95:\n        /* \"contracts/Ptak.sol\":1926:1941  block.timestamp */\n      timestamp\n        /* \"contracts/Ptak.sol\":1904:1908  bird */\n      dup6\n        /* \"contracts/Ptak.sol\":1904:1923  bird.lastUpdateTime */\n      0x04\n      add\n        /* \"contracts/Ptak.sol\":1904:1941  bird.lastUpdateTime = block.timestamp */\n      dup2\n      swap1\n      sstore\n      pop\n        /* \"contracts/Ptak.sol\":1246:1991  {... */\n      pop\n      pop\n      pop\n        /* \"contracts/Ptak.sol\":1226:1991  if(timeElapsed > 0) {... */\n    tag_84:\n        /* \"contracts/Ptak.sol\":1086:1998  {... */\n      pop\n      pop\n        /* \"contracts/Ptak.sol\":1039:1998  function updateHungerAndAge(uint256 id) public {... */\n      pop\n      jump\t// out\n        /* \"contracts/Ptak.sol\":350:391  mapping(uint256 => BirdData) public birds */\n    tag_46:\n      mstore(0x20, 0x00)\n      dup1\n      0x00\n      mstore\n      keccak256(0x00, 0x40)\n      0x00\n      swap2\n      pop\n      swap1\n      pop\n      dup1\n      0x00\n      add\n      sload\n      swap1\n      dup1\n      0x01\n      add\n      sload\n      swap1\n      dup1\n      0x02\n      add\n      sload\n      swap1\n      dup1\n      0x03\n      add\n      0x00\n      swap1\n      sload\n      swap1\n      0x0100\n      exp\n      swap1\n      div\n      0xff\n      and\n      swap1\n      dup1\n      0x04\n      add\n      sload\n      swap1\n      pop\n      dup6\n      jump\t// out\n        /* \"contracts/Ptak.sol\":2006:2544  function randomPoisoning(uint256 birdId) private {... */\n    tag_56:\n        /* \"contracts/Ptak.sol\":2066:2104  SpeciesLibrary.SpeciesInfo memory info */\n      tag_98\n      tag_99\n      jump\t// in\n    tag_98:\n        /* \"contracts/Ptak.sol\":2115:2141  Ptak.BirdData storage bird */\n      0x00\n        /* \"contracts/Ptak.sol\":2144:2149  birds */\n      0x00\n        /* \"contracts/Ptak.sol\":2144:2157  birds[birdId] */\n      0x00\n        /* \"contracts/Ptak.sol\":2150:2156  birdId */\n      dup5\n        /* \"contracts/Ptak.sol\":2144:2157  birds[birdId] */\n      dup2\n      mstore\n      0x20\n      add\n      swap1\n      dup2\n      mstore\n      0x20\n      add\n      0x00\n      keccak256\n        /* \"contracts/Ptak.sol\":2115:2157  Ptak.BirdData storage bird = birds[birdId] */\n      swap1\n      pop\n        /* \"contracts/Ptak.sol\":2175:2218  SpeciesLibrary.getSpeciesInfo(bird.species) */\n      tag_100\n        /* \"contracts/Ptak.sol\":2205:2209  bird */\n      dup2\n        /* \"contracts/Ptak.sol\":2205:2217  bird.species */\n      0x03\n      add\n      0x00\n      swap1\n      sload\n      swap1\n      0x0100\n      exp\n      swap1\n      div\n      0xff\n      and\n        /* \"contracts/Ptak.sol\":2175:2204  SpeciesLibrary.getSpeciesInfo */\n      tag_66\n        /* \"contracts/Ptak.sol\":2175:2218  SpeciesLibrary.getSpeciesInfo(bird.species) */\n      jump\t// in\n    tag_100:\n        /* \"contracts/Ptak.sol\":2168:2218  info = SpeciesLibrary.getSpeciesInfo(bird.species) */\n      swap2\n      pop\n        /* \"contracts/Ptak.sol\":2235:2242  insured */\n      0x03\n        /* \"contracts/Ptak.sol\":2235:2250  insured[birdId] */\n      0x00\n        /* \"contracts/Ptak.sol\":2243:2249  birdId */\n      dup5\n        /* \"contracts/Ptak.sol\":2235:2250  insured[birdId] */\n      dup2\n      mstore\n      0x20\n      add\n      swap1\n      dup2\n      mstore\n      0x20\n      add\n      0x00\n      keccak256\n      0x00\n      swap1\n      sload\n      swap1\n      0x0100\n      exp\n      swap1\n      div\n      0xff\n      and\n        /* \"contracts/Ptak.sol\":2231:2537  if(!insured[birdId]){... */\n      tag_101\n      jumpi\n        /* \"contracts/Ptak.sol\":2266:2280  uint256 chance */\n      0x00\n        /* \"contracts/Ptak.sol\":2283:2326  SpeciesLibrary.getSpeciesInfo(bird.species) */\n      tag_102\n        /* \"contracts/Ptak.sol\":2313:2317  bird */\n      dup3\n        /* \"contracts/Ptak.sol\":2313:2325  bird.species */\n      0x03\n      add\n      0x00\n      swap1\n      sload\n      swap1\n      0x0100\n      exp\n      swap1\n      div\n      0xff\n      and\n        /* \"contracts/Ptak.sol\":2283:2312  SpeciesLibrary.getSpeciesInfo */\n      tag_66\n        /* \"contracts/Ptak.sol\":2283:2326  SpeciesLibrary.getSpeciesInfo(bird.species) */\n      jump\t// in\n    tag_102:\n        /* \"contracts/Ptak.sol\":2283:2342  SpeciesLibrary.getSpeciesInfo(bird.species).poisoningChance */\n      0x60\n      add\n      mload\n        /* \"contracts/Ptak.sol\":2266:2342  uint256 chance = SpeciesLibrary.getSpeciesInfo(bird.species).poisoningChance */\n      swap1\n      pop\n        /* \"contracts/Ptak.sol\":2357:2369  uint256 rand */\n      0x00\n        /* \"contracts/Ptak.sol\":2436:2439  100 */\n      0x64\n        /* \"contracts/Ptak.sol\":2407:2422  block.timestamp */\n      timestamp\n        /* \"contracts/Ptak.sol\":2424:2430  birdId */\n      dup7\n        /* \"contracts/Ptak.sol\":2390:2431  abi.encodePacked(block.timestamp, birdId) */\n      add(0x20, mload(0x40))\n      tag_103\n      swap3\n      swap2\n      swap1\n      tag_104\n      jump\t// in\n    tag_103:\n      mload(0x40)\n      0x20\n      dup2\n      dup4\n      sub\n      sub\n      dup2\n      mstore\n      swap1\n      0x40\n      mstore\n        /* \"contracts/Ptak.sol\":2380:2432  keccak256(abi.encodePacked(block.timestamp, birdId)) */\n      dup1\n      mload\n      swap1\n      0x20\n      add\n      keccak256\n        /* \"contracts/Ptak.sol\":2372:2433  uint256(keccak256(abi.encodePacked(block.timestamp, birdId))) */\n      0x00\n      shr\n        /* \"contracts/Ptak.sol\":2372:2439  uint256(keccak256(abi.encodePacked(block.timestamp, birdId))) % 100 */\n      tag_105\n      swap2\n      swap1\n      tag_106\n      jump\t// in\n    tag_105:\n        /* \"contracts/Ptak.sol\":2357:2439  uint256 rand = uint256(keccak256(abi.encodePacked(block.timestamp, birdId))) % 100 */\n      swap1\n      pop\n        /* \"contracts/Ptak.sol\":2466:2472  chance */\n      dup2\n        /* \"contracts/Ptak.sol\":2459:2463  rand */\n      dup2\n        /* \"contracts/Ptak.sol\":2459:2472  rand < chance */\n      lt\n        /* \"contracts/Ptak.sol\":2456:2526  if(rand < chance) {... */\n      iszero\n      tag_107\n      jumpi\n        /* \"contracts/Ptak.sol\":2508:2510  25 */\n      0x19\n        /* \"contracts/Ptak.sol\":2493:2497  bird */\n      dup4\n        /* \"contracts/Ptak.sol\":2493:2504  bird.health */\n      0x02\n      add\n      0x00\n        /* \"contracts/Ptak.sol\":2493:2510  bird.health -= 25 */\n      dup3\n      dup3\n      sload\n      tag_108\n      swap2\n      swap1\n      tag_59\n      jump\t// in\n    tag_108:\n      swap3\n      pop\n      pop\n      dup2\n      swap1\n      sstore\n      pop\n        /* \"contracts/Ptak.sol\":2456:2526  if(rand < chance) {... */\n    tag_107:\n        /* \"contracts/Ptak.sol\":2251:2537  {... */\n      pop\n      pop\n        /* \"contracts/Ptak.sol\":2231:2537  if(!insured[birdId]){... */\n    tag_101:\n        /* \"contracts/Ptak.sol\":2055:2544  {... */\n      pop\n      pop\n        /* \"contracts/Ptak.sol\":2006:2544  function randomPoisoning(uint256 birdId) private {... */\n      pop\n      jump\t// out\n        /* \"contracts/SpeciesLibrary.sol\":781:2342  function getSpeciesInfo(Species species) internal pure returns (SpeciesInfo memory) {... */\n    tag_66:\n        /* \"contracts/SpeciesLibrary.sol\":845:863  SpeciesInfo memory */\n      tag_109\n      tag_99\n      jump\t// in\n    tag_109:\n        /* \"contracts/SpeciesLibrary.sol\":891:907  Species.MuteSwan */\n      0x00\n        /* \"contracts/SpeciesLibrary.sol\":880:907  species == Species.MuteSwan */\n      0x0a\n      dup2\n      gt\n      iszero\n      tag_111\n      jumpi\n      tag_112\n      tag_69\n      jump\t// in\n    tag_112:\n    tag_111:\n        /* \"contracts/SpeciesLibrary.sol\":880:887  species */\n      dup3\n        /* \"contracts/SpeciesLibrary.sol\":880:907  species == Species.MuteSwan */\n      0x0a\n      dup2\n      gt\n      iszero\n      tag_113\n      jumpi\n      tag_114\n      tag_69\n      jump\t// in\n    tag_114:\n    tag_113:\n      sub\n        /* \"contracts/SpeciesLibrary.sol\":876:2299  if (species == Species.MuteSwan) {... */\n      tag_115\n      jumpi\n        /* \"contracts/SpeciesLibrary.sol\":931:1055  SpeciesInfo(200, 150, 3, 1, \"https://gateway.pinata.cloud/ipfs/bafybeia3le4astknh2p4mbkd5w42j522tnse4wxk7w5m7wimoqdp6ouzpy\") */\n      mload(0x40)\n      dup1\n      0xa0\n      add\n      0x40\n      mstore\n      dup1\n        /* \"contracts/SpeciesLibrary.sol\":943:946  200 */\n      0xc8\n        /* \"contracts/SpeciesLibrary.sol\":931:1055  SpeciesInfo(200, 150, 3, 1, \"https://gateway.pinata.cloud/ipfs/bafybeia3le4astknh2p4mbkd5w42j522tnse4wxk7w5m7wimoqdp6ouzpy\") */\n      dup2\n      mstore\n      0x20\n      add\n        /* \"contracts/SpeciesLibrary.sol\":948:951  150 */\n      0x96\n        /* \"contracts/SpeciesLibrary.sol\":931:1055  SpeciesInfo(200, 150, 3, 1, \"https://gateway.pinata.cloud/ipfs/bafybeia3le4astknh2p4mbkd5w42j522tnse4wxk7w5m7wimoqdp6ouzpy\") */\n      dup2\n      mstore\n      0x20\n      add\n        /* \"contracts/SpeciesLibrary.sol\":953:954  3 */\n      0x03\n        /* \"contracts/SpeciesLibrary.sol\":931:1055  SpeciesInfo(200, 150, 3, 1, \"https://gateway.pinata.cloud/ipfs/bafybeia3le4astknh2p4mbkd5w42j522tnse4wxk7w5m7wimoqdp6ouzpy\") */\n      dup2\n      mstore\n      0x20\n      add\n        /* \"contracts/SpeciesLibrary.sol\":956:957  1 */\n      0x01\n        /* \"contracts/SpeciesLibrary.sol\":931:1055  SpeciesInfo(200, 150, 3, 1, \"https://gateway.pinata.cloud/ipfs/bafybeia3le4astknh2p4mbkd5w42j522tnse4wxk7w5m7wimoqdp6ouzpy\") */\n      dup2\n      mstore\n      0x20\n      add\n      mload(0x40)\n      dup1\n      0x80\n      add\n      0x40\n      mstore\n      dup1\n      0x5d\n      dup2\n      mstore\n      0x20\n      add\n      data_1ffc5c99f8ff866cb3cb9bd46d45453badb8f26649052a31a9be49b9b43149da\n      0x5d\n      swap2\n      codecopy\n      dup2\n      mstore\n      pop\n        /* \"contracts/SpeciesLibrary.sol\":924:1055  return SpeciesInfo(200, 150, 3, 1, \"https://gateway.pinata.cloud/ipfs/bafybeia3le4astknh2p4mbkd5w42j522tnse4wxk7w5m7wimoqdp6ouzpy\") */\n      swap1\n      pop\n      jump(tag_110)\n        /* \"contracts/SpeciesLibrary.sol\":876:2299  if (species == Species.MuteSwan) {... */\n    tag_115:\n        /* \"contracts/SpeciesLibrary.sol\":1088:1106  Species.WhiteStork */\n      0x01\n        /* \"contracts/SpeciesLibrary.sol\":1077:1106  species == Species.WhiteStork */\n      0x0a\n      dup2\n      gt\n      iszero\n      tag_117\n      jumpi\n      tag_118\n      tag_69\n      jump\t// in\n    tag_118:\n    tag_117:\n        /* \"contracts/SpeciesLibrary.sol\":1077:1084  species */\n      dup3\n        /* \"contracts/SpeciesLibrary.sol\":1077:1106  species == Species.WhiteStork */\n      0x0a\n      dup2\n      gt\n      iszero\n      tag_119\n      jumpi\n      tag_120\n      tag_69\n      jump\t// in\n    tag_120:\n    tag_119:\n      sub\n        /* \"contracts/SpeciesLibrary.sol\":1073:2299  if (species == Species.WhiteStork) {... */\n      tag_121\n      jumpi\n        /* \"contracts/SpeciesLibrary.sol\":1130:1254  SpeciesInfo(220, 200, 2, 5, \"https://gateway.pinata.cloud/ipfs/bafybeigohotok6k3onvtjyypfnbnzbcso2qcixbwz4wh64vp2n3lq7nksa\") */\n      mload(0x40)\n      dup1\n      0xa0\n      add\n      0x40\n      mstore\n      dup1\n        /* \"contracts/SpeciesLibrary.sol\":1142:1145  220 */\n      0xdc\n        /* \"contracts/SpeciesLibrary.sol\":1130:1254  SpeciesInfo(220, 200, 2, 5, \"https://gateway.pinata.cloud/ipfs/bafybeigohotok6k3onvtjyypfnbnzbcso2qcixbwz4wh64vp2n3lq7nksa\") */\n      dup2\n      mstore\n      0x20\n      add\n        /* \"contracts/SpeciesLibrary.sol\":1147:1150  200 */\n      0xc8\n        /* \"contracts/SpeciesLibrary.sol\":1130:1254  SpeciesInfo(220, 200, 2, 5, \"https://gateway.pinata.cloud/ipfs/bafybeigohotok6k3onvtjyypfnbnzbcso2qcixbwz4wh64vp2n3lq7nksa\") */\n      dup2\n      mstore\n      0x20\n      add\n        /* \"contracts/SpeciesLibrary.sol\":1152:1153  2 */\n      0x02\n        /* \"contracts/SpeciesLibrary.sol\":1130:1254  SpeciesInfo(220, 200, 2, 5, \"https://gateway.pinata.cloud/ipfs/bafybeigohotok6k3onvtjyypfnbnzbcso2qcixbwz4wh64vp2n3lq7nksa\") */\n      dup2\n      mstore\n      0x20\n      add\n        /* \"contracts/SpeciesLibrary.sol\":1155:1156  5 */\n      0x05\n        /* \"contracts/SpeciesLibrary.sol\":1130:1254  SpeciesInfo(220, 200, 2, 5, \"https://gateway.pinata.cloud/ipfs/bafybeigohotok6k3onvtjyypfnbnzbcso2qcixbwz4wh64vp2n3lq7nksa\") */\n      dup2\n      mstore\n      0x20\n      add\n      mload(0x40)\n      dup1\n      0x80\n      add\n      0x40\n      mstore\n      dup1\n      0x5d\n      dup2\n      mstore\n      0x20\n      add\n      data_86e92b1a76e2f297d69c89af4232d1b3e647fd322843457f38b762c99d8ee708\n      0x5d\n      swap2\n      codecopy\n      dup2\n      mstore\n      pop\n        /* \"contracts/SpeciesLibrary.sol\":1123:1254  return SpeciesInfo(220, 200, 2, 5, \"https://gateway.pinata.cloud/ipfs/bafybeigohotok6k3onvtjyypfnbnzbcso2qcixbwz4wh64vp2n3lq7nksa\") */\n      swap1\n      pop\n      jump(tag_110)\n        /* \"contracts/SpeciesLibrary.sol\":1073:2299  if (species == Species.WhiteStork) {... */\n    tag_121:\n        /* \"contracts/SpeciesLibrary.sol\":1287:1306  Species.MallardDuck */\n      0x02\n        /* \"contracts/SpeciesLibrary.sol\":1276:1306  species == Species.MallardDuck */\n      0x0a\n      dup2\n      gt\n      iszero\n      tag_123\n      jumpi\n      tag_124\n      tag_69\n      jump\t// in\n    tag_124:\n    tag_123:\n        /* \"contracts/SpeciesLibrary.sol\":1276:1283  species */\n      dup3\n        /* \"contracts/SpeciesLibrary.sol\":1276:1306  species == Species.MallardDuck */\n      0x0a\n      dup2\n      gt\n      iszero\n      tag_125\n      jumpi\n      tag_126\n      tag_69\n      jump\t// in\n    tag_126:\n    tag_125:\n      sub\n        /* \"contracts/SpeciesLibrary.sol\":1272:2299  if (species == Species.MallardDuck) {... */\n      tag_127\n      jumpi\n        /* \"contracts/SpeciesLibrary.sol\":1330:1452  SpeciesInfo(80, 80, 3, 6, \"https://gateway.pinata.cloud/ipfs/bafybeiev7pucz7yh7x6haidmphp5ieobvcfdclnlwjqa2ivs4y357pvwma\") */\n      mload(0x40)\n      dup1\n      0xa0\n      add\n      0x40\n      mstore\n      dup1\n        /* \"contracts/SpeciesLibrary.sol\":1342:1344  80 */\n      0x50\n        /* \"contracts/SpeciesLibrary.sol\":1330:1452  SpeciesInfo(80, 80, 3, 6, \"https://gateway.pinata.cloud/ipfs/bafybeiev7pucz7yh7x6haidmphp5ieobvcfdclnlwjqa2ivs4y357pvwma\") */\n      dup2\n      mstore\n      0x20\n      add\n        /* \"contracts/SpeciesLibrary.sol\":1346:1348  80 */\n      0x50\n        /* \"contracts/SpeciesLibrary.sol\":1330:1452  SpeciesInfo(80, 80, 3, 6, \"https://gateway.pinata.cloud/ipfs/bafybeiev7pucz7yh7x6haidmphp5ieobvcfdclnlwjqa2ivs4y357pvwma\") */\n      dup2\n      mstore\n      0x20\n      add\n        /* \"contracts/SpeciesLibrary.sol\":1350:1351  3 */\n      0x03\n        /* \"contracts/SpeciesLibrary.sol\":1330:1452  SpeciesInfo(80, 80, 3, 6, \"https://gateway.pinata.cloud/ipfs/bafybeiev7pucz7yh7x6haidmphp5ieobvcfdclnlwjqa2ivs4y357pvwma\") */\n      dup2\n      mstore\n      0x20\n      add\n        /* \"contracts/SpeciesLibrary.sol\":1353:1354  6 */\n      0x06\n        /* \"contracts/SpeciesLibrary.sol\":1330:1452  SpeciesInfo(80, 80, 3, 6, \"https://gateway.pinata.cloud/ipfs/bafybeiev7pucz7yh7x6haidmphp5ieobvcfdclnlwjqa2ivs4y357pvwma\") */\n      dup2\n      mstore\n      0x20\n      add\n      mload(0x40)\n      dup1\n      0x80\n      add\n      0x40\n      mstore\n      dup1\n      0x5d\n      dup2\n      mstore\n      0x20\n      add\n      data_3bbf1c81af77207dbf9db8f891697113273de930322fc10149aebcb2d416dad6\n      0x5d\n      swap2\n      codecopy\n      dup2\n      mstore\n      pop\n        /* \"contracts/SpeciesLibrary.sol\":1323:1452  return SpeciesInfo(80, 80, 3, 6, \"https://gateway.pinata.cloud/ipfs/bafybeiev7pucz7yh7x6haidmphp5ieobvcfdclnlwjqa2ivs4y357pvwma\") */\n      swap1\n      pop\n      jump(tag_110)\n        /* \"contracts/SpeciesLibrary.sol\":1272:2299  if (species == Species.MallardDuck) {... */\n    tag_127:\n        /* \"contracts/SpeciesLibrary.sol\":1485:1501  Species.Mythical */\n      0x03\n        /* \"contracts/SpeciesLibrary.sol\":1474:1501  species == Species.Mythical */\n      0x0a\n      dup2\n      gt\n      iszero\n      tag_129\n      jumpi\n      tag_130\n      tag_69\n      jump\t// in\n    tag_130:\n    tag_129:\n        /* \"contracts/SpeciesLibrary.sol\":1474:1481  species */\n      dup3\n        /* \"contracts/SpeciesLibrary.sol\":1474:1501  species == Species.Mythical */\n      0x0a\n      dup2\n      gt\n      iszero\n      tag_131\n      jumpi\n      tag_132\n      tag_69\n      jump\t// in\n    tag_132:\n    tag_131:\n      sub\n        /* \"contracts/SpeciesLibrary.sol\":1470:2299  if (species == Species.Mythical) {... */\n      tag_133\n      jumpi\n        /* \"contracts/SpeciesLibrary.sol\":1525:1556  SpeciesInfo(300, 300, 1, 0, \"\") */\n      mload(0x40)\n      dup1\n      0xa0\n      add\n      0x40\n      mstore\n      dup1\n        /* \"contracts/SpeciesLibrary.sol\":1537:1540  300 */\n      0x012c\n        /* \"contracts/SpeciesLibrary.sol\":1525:1556  SpeciesInfo(300, 300, 1, 0, \"\") */\n      dup2\n      mstore\n      0x20\n      add\n        /* \"contracts/SpeciesLibrary.sol\":1542:1545  300 */\n      0x012c\n        /* \"contracts/SpeciesLibrary.sol\":1525:1556  SpeciesInfo(300, 300, 1, 0, \"\") */\n      dup2\n      mstore\n      0x20\n      add\n        /* \"contracts/SpeciesLibrary.sol\":1547:1548  1 */\n      0x01\n        /* \"contracts/SpeciesLibrary.sol\":1525:1556  SpeciesInfo(300, 300, 1, 0, \"\") */\n      dup2\n      mstore\n      0x20\n      add\n        /* \"contracts/SpeciesLibrary.sol\":1550:1551  0 */\n      0x00\n        /* \"contracts/SpeciesLibrary.sol\":1525:1556  SpeciesInfo(300, 300, 1, 0, \"\") */\n      dup2\n      mstore\n      0x20\n      add\n      mload(0x40)\n      dup1\n      0x20\n      add\n      0x40\n      mstore\n      dup1\n      0x00\n      dup2\n      mstore\n      pop\n      dup2\n      mstore\n      pop\n        /* \"contracts/SpeciesLibrary.sol\":1518:1556  return SpeciesInfo(300, 300, 1, 0, \"\") */\n      swap1\n      pop\n      jump(tag_110)\n        /* \"contracts/SpeciesLibrary.sol\":1470:2299  if (species == Species.Mythical) {... */\n    tag_133:\n        /* \"contracts/SpeciesLibrary.sol\":1589:1606  Species.GreyHeron */\n      0x04\n        /* \"contracts/SpeciesLibrary.sol\":1578:1606  species == Species.GreyHeron */\n      0x0a\n      dup2\n      gt\n      iszero\n      tag_135\n      jumpi\n      tag_136\n      tag_69\n      jump\t// in\n    tag_136:\n    tag_135:\n        /* \"contracts/SpeciesLibrary.sol\":1578:1585  species */\n      dup3\n        /* \"contracts/SpeciesLibrary.sol\":1578:1606  species == Species.GreyHeron */\n      0x0a\n      dup2\n      gt\n      iszero\n      tag_137\n      jumpi\n      tag_138\n      tag_69\n      jump\t// in\n    tag_138:\n    tag_137:\n      sub\n        /* \"contracts/SpeciesLibrary.sol\":1574:2299  if (species == Species.GreyHeron) {... */\n      tag_139\n      jumpi\n        /* \"contracts/SpeciesLibrary.sol\":1630:1660  SpeciesInfo(180, 90, 2, 4, \"\") */\n      mload(0x40)\n      dup1\n      0xa0\n      add\n      0x40\n      mstore\n      dup1\n        /* \"contracts/SpeciesLibrary.sol\":1642:1645  180 */\n      0xb4\n        /* \"contracts/SpeciesLibrary.sol\":1630:1660  SpeciesInfo(180, 90, 2, 4, \"\") */\n      dup2\n      mstore\n      0x20\n      add\n        /* \"contracts/SpeciesLibrary.sol\":1647:1649  90 */\n      0x5a\n        /* \"contracts/SpeciesLibrary.sol\":1630:1660  SpeciesInfo(180, 90, 2, 4, \"\") */\n      dup2\n      mstore\n      0x20\n      add\n        /* \"contracts/SpeciesLibrary.sol\":1651:1652  2 */\n      0x02\n        /* \"contracts/SpeciesLibrary.sol\":1630:1660  SpeciesInfo(180, 90, 2, 4, \"\") */\n      dup2\n      mstore\n      0x20\n      add\n        /* \"contracts/SpeciesLibrary.sol\":1654:1655  4 */\n      0x04\n        /* \"contracts/SpeciesLibrary.sol\":1630:1660  SpeciesInfo(180, 90, 2, 4, \"\") */\n      dup2\n      mstore\n      0x20\n      add\n      mload(0x40)\n      dup1\n      0x20\n      add\n      0x40\n      mstore\n      dup1\n      0x00\n      dup2\n      mstore\n      pop\n      dup2\n      mstore\n      pop\n        /* \"contracts/SpeciesLibrary.sol\":1623:1660  return SpeciesInfo(180, 90, 2, 4, \"\") */\n      swap1\n      pop\n      jump(tag_110)\n        /* \"contracts/SpeciesLibrary.sol\":1574:2299  if (species == Species.GreyHeron) {... */\n    tag_139:\n        /* \"contracts/SpeciesLibrary.sol\":1693:1715  Species.RedNeckedGrebe */\n      0x05\n        /* \"contracts/SpeciesLibrary.sol\":1682:1715  species == Species.RedNeckedGrebe */\n      0x0a\n      dup2\n      gt\n      iszero\n      tag_141\n      jumpi\n      tag_142\n      tag_69\n      jump\t// in\n    tag_142:\n    tag_141:\n        /* \"contracts/SpeciesLibrary.sol\":1682:1689  species */\n      dup3\n        /* \"contracts/SpeciesLibrary.sol\":1682:1715  species == Species.RedNeckedGrebe */\n      0x0a\n      dup2\n      gt\n      iszero\n      tag_143\n      jumpi\n      tag_144\n      tag_69\n      jump\t// in\n    tag_144:\n    tag_143:\n      sub\n        /* \"contracts/SpeciesLibrary.sol\":1678:2299  if (species == Species.RedNeckedGrebe) {... */\n      tag_145\n      jumpi\n        /* \"contracts/SpeciesLibrary.sol\":1739:1768  SpeciesInfo(80, 70, 2, 8, \"\") */\n      mload(0x40)\n      dup1\n      0xa0\n      add\n      0x40\n      mstore\n      dup1\n        /* \"contracts/SpeciesLibrary.sol\":1751:1753  80 */\n      0x50\n        /* \"contracts/SpeciesLibrary.sol\":1739:1768  SpeciesInfo(80, 70, 2, 8, \"\") */\n      dup2\n      mstore\n      0x20\n      add\n        /* \"contracts/SpeciesLibrary.sol\":1755:1757  70 */\n      0x46\n        /* \"contracts/SpeciesLibrary.sol\":1739:1768  SpeciesInfo(80, 70, 2, 8, \"\") */\n      dup2\n      mstore\n      0x20\n      add\n        /* \"contracts/SpeciesLibrary.sol\":1759:1760  2 */\n      0x02\n        /* \"contracts/SpeciesLibrary.sol\":1739:1768  SpeciesInfo(80, 70, 2, 8, \"\") */\n      dup2\n      mstore\n      0x20\n      add\n        /* \"contracts/SpeciesLibrary.sol\":1762:1763  8 */\n      0x08\n        /* \"contracts/SpeciesLibrary.sol\":1739:1768  SpeciesInfo(80, 70, 2, 8, \"\") */\n      dup2\n      mstore\n      0x20\n      add\n      mload(0x40)\n      dup1\n      0x20\n      add\n      0x40\n      mstore\n      dup1\n      0x00\n      dup2\n      mstore\n      pop\n      dup2\n      mstore\n      pop\n        /* \"contracts/SpeciesLibrary.sol\":1732:1768  return SpeciesInfo(80, 70, 2, 8, \"\") */\n      swap1\n      pop\n      jump(tag_110)\n        /* \"contracts/SpeciesLibrary.sol\":1678:2299  if (species == Species.RedNeckedGrebe) {... */\n    tag_145:\n        /* \"contracts/SpeciesLibrary.sol\":1801:1818  Species.WaterRail */\n      0x06\n        /* \"contracts/SpeciesLibrary.sol\":1790:1818  species == Species.WaterRail */\n      0x0a\n      dup2\n      gt\n      iszero\n      tag_147\n      jumpi\n      tag_148\n      tag_69\n      jump\t// in\n    tag_148:\n    tag_147:\n        /* \"contracts/SpeciesLibrary.sol\":1790:1797  species */\n      dup3\n        /* \"contracts/SpeciesLibrary.sol\":1790:1818  species == Species.WaterRail */\n      0x0a\n      dup2\n      gt\n      iszero\n      tag_149\n      jumpi\n      tag_150\n      tag_69\n      jump\t// in\n    tag_150:\n    tag_149:\n      sub\n        /* \"contracts/SpeciesLibrary.sol\":1786:2299  if (species == Species.WaterRail) {... */\n      tag_151\n      jumpi\n        /* \"contracts/SpeciesLibrary.sol\":1842:1871  SpeciesInfo(50, 60, 4, 5, \"\") */\n      mload(0x40)\n      dup1\n      0xa0\n      add\n      0x40\n      mstore\n      dup1\n        /* \"contracts/SpeciesLibrary.sol\":1854:1856  50 */\n      0x32\n        /* \"contracts/SpeciesLibrary.sol\":1842:1871  SpeciesInfo(50, 60, 4, 5, \"\") */\n      dup2\n      mstore\n      0x20\n      add\n        /* \"contracts/SpeciesLibrary.sol\":1858:1860  60 */\n      0x3c\n        /* \"contracts/SpeciesLibrary.sol\":1842:1871  SpeciesInfo(50, 60, 4, 5, \"\") */\n      dup2\n      mstore\n      0x20\n      add\n        /* \"contracts/SpeciesLibrary.sol\":1862:1863  4 */\n      0x04\n        /* \"contracts/SpeciesLibrary.sol\":1842:1871  SpeciesInfo(50, 60, 4, 5, \"\") */\n      dup2\n      mstore\n      0x20\n      add\n        /* \"contracts/SpeciesLibrary.sol\":1865:1866  5 */\n      0x05\n        /* \"contracts/SpeciesLibrary.sol\":1842:1871  SpeciesInfo(50, 60, 4, 5, \"\") */\n      dup2\n      mstore\n      0x20\n      add\n      mload(0x40)\n      dup1\n      0x20\n      add\n      0x40\n      mstore\n      dup1\n      0x00\n      dup2\n      mstore\n      pop\n      dup2\n      mstore\n      pop\n        /* \"contracts/SpeciesLibrary.sol\":1835:1871  return SpeciesInfo(50, 60, 4, 5, \"\") */\n      swap1\n      pop\n      jump(tag_110)\n        /* \"contracts/SpeciesLibrary.sol\":1786:2299  if (species == Species.WaterRail) {... */\n    tag_151:\n        /* \"contracts/SpeciesLibrary.sol\":1904:1922  Species.CommonTern */\n      0x07\n        /* \"contracts/SpeciesLibrary.sol\":1893:1922  species == Species.CommonTern */\n      0x0a\n      dup2\n      gt\n      iszero\n      tag_153\n      jumpi\n      tag_154\n      tag_69\n      jump\t// in\n    tag_154:\n    tag_153:\n        /* \"contracts/SpeciesLibrary.sol\":1893:1900  species */\n      dup3\n        /* \"contracts/SpeciesLibrary.sol\":1893:1922  species == Species.CommonTern */\n      0x0a\n      dup2\n      gt\n      iszero\n      tag_155\n      jumpi\n      tag_156\n      tag_69\n      jump\t// in\n    tag_156:\n    tag_155:\n      sub\n        /* \"contracts/SpeciesLibrary.sol\":1889:2299  if (species == Species.CommonTern) {... */\n      tag_157\n      jumpi\n        /* \"contracts/SpeciesLibrary.sol\":1946:1975  SpeciesInfo(55, 40, 3, 4, \"\") */\n      mload(0x40)\n      dup1\n      0xa0\n      add\n      0x40\n      mstore\n      dup1\n        /* \"contracts/SpeciesLibrary.sol\":1958:1960  55 */\n      0x37\n        /* \"contracts/SpeciesLibrary.sol\":1946:1975  SpeciesInfo(55, 40, 3, 4, \"\") */\n      dup2\n      mstore\n      0x20\n      add\n        /* \"contracts/SpeciesLibrary.sol\":1962:1964  40 */\n      0x28\n        /* \"contracts/SpeciesLibrary.sol\":1946:1975  SpeciesInfo(55, 40, 3, 4, \"\") */\n      dup2\n      mstore\n      0x20\n      add\n        /* \"contracts/SpeciesLibrary.sol\":1966:1967  3 */\n      0x03\n        /* \"contracts/SpeciesLibrary.sol\":1946:1975  SpeciesInfo(55, 40, 3, 4, \"\") */\n      dup2\n      mstore\n      0x20\n      add\n        /* \"contracts/SpeciesLibrary.sol\":1969:1970  4 */\n      0x04\n        /* \"contracts/SpeciesLibrary.sol\":1946:1975  SpeciesInfo(55, 40, 3, 4, \"\") */\n      dup2\n      mstore\n      0x20\n      add\n      mload(0x40)\n      dup1\n      0x20\n      add\n      0x40\n      mstore\n      dup1\n      0x00\n      dup2\n      mstore\n      pop\n      dup2\n      mstore\n      pop\n        /* \"contracts/SpeciesLibrary.sol\":1939:1975  return SpeciesInfo(55, 40, 3, 4, \"\") */\n      swap1\n      pop\n      jump(tag_110)\n        /* \"contracts/SpeciesLibrary.sol\":1889:2299  if (species == Species.CommonTern) {... */\n    tag_157:\n        /* \"contracts/SpeciesLibrary.sol\":2008:2025  Species.Goosander */\n      0x08\n        /* \"contracts/SpeciesLibrary.sol\":1997:2025  species == Species.Goosander */\n      0x0a\n      dup2\n      gt\n      iszero\n      tag_159\n      jumpi\n      tag_160\n      tag_69\n      jump\t// in\n    tag_160:\n    tag_159:\n        /* \"contracts/SpeciesLibrary.sol\":1997:2004  species */\n      dup3\n        /* \"contracts/SpeciesLibrary.sol\":1997:2025  species == Species.Goosander */\n      0x0a\n      dup2\n      gt\n      iszero\n      tag_161\n      jumpi\n      tag_162\n      tag_69\n      jump\t// in\n    tag_162:\n    tag_161:\n      sub\n        /* \"contracts/SpeciesLibrary.sol\":1993:2299  if (species == Species.Goosander) {... */\n      tag_163\n      jumpi\n        /* \"contracts/SpeciesLibrary.sol\":2049:2078  SpeciesInfo(78, 65, 2, 4, \"\") */\n      mload(0x40)\n      dup1\n      0xa0\n      add\n      0x40\n      mstore\n      dup1\n        /* \"contracts/SpeciesLibrary.sol\":2061:2063  78 */\n      0x4e\n        /* \"contracts/SpeciesLibrary.sol\":2049:2078  SpeciesInfo(78, 65, 2, 4, \"\") */\n      dup2\n      mstore\n      0x20\n      add\n        /* \"contracts/SpeciesLibrary.sol\":2065:2067  65 */\n      0x41\n        /* \"contracts/SpeciesLibrary.sol\":2049:2078  SpeciesInfo(78, 65, 2, 4, \"\") */\n      dup2\n      mstore\n      0x20\n      add\n        /* \"contracts/SpeciesLibrary.sol\":2069:2070  2 */\n      0x02\n        /* \"contracts/SpeciesLibrary.sol\":2049:2078  SpeciesInfo(78, 65, 2, 4, \"\") */\n      dup2\n      mstore\n      0x20\n      add\n        /* \"contracts/SpeciesLibrary.sol\":2072:2073  4 */\n      0x04\n        /* \"contracts/SpeciesLibrary.sol\":2049:2078  SpeciesInfo(78, 65, 2, 4, \"\") */\n      dup2\n      mstore\n      0x20\n      add\n      mload(0x40)\n      dup1\n      0x20\n      add\n      0x40\n      mstore\n      dup1\n      0x00\n      dup2\n      mstore\n      pop\n      dup2\n      mstore\n      pop\n        /* \"contracts/SpeciesLibrary.sol\":2042:2078  return SpeciesInfo(78, 65, 2, 4, \"\") */\n      swap1\n      pop\n      jump(tag_110)\n        /* \"contracts/SpeciesLibrary.sol\":1993:2299  if (species == Species.Goosander) {... */\n    tag_163:\n        /* \"contracts/SpeciesLibrary.sol\":2111:2131  Species.GreylagGoose */\n      0x09\n        /* \"contracts/SpeciesLibrary.sol\":2100:2131  species == Species.GreylagGoose */\n      0x0a\n      dup2\n      gt\n      iszero\n      tag_165\n      jumpi\n      tag_166\n      tag_69\n      jump\t// in\n    tag_166:\n    tag_165:\n        /* \"contracts/SpeciesLibrary.sol\":2100:2107  species */\n      dup3\n        /* \"contracts/SpeciesLibrary.sol\":2100:2131  species == Species.GreylagGoose */\n      0x0a\n      dup2\n      gt\n      iszero\n      tag_167\n      jumpi\n      tag_168\n      tag_69\n      jump\t// in\n    tag_168:\n    tag_167:\n      sub\n        /* \"contracts/SpeciesLibrary.sol\":2096:2299  if (species == Species.GreylagGoose) {... */\n      tag_169\n      jumpi\n        /* \"contracts/SpeciesLibrary.sol\":2155:2186  SpeciesInfo(150, 100, 4, 3, \"\") */\n      mload(0x40)\n      dup1\n      0xa0\n      add\n      0x40\n      mstore\n      dup1\n        /* \"contracts/SpeciesLibrary.sol\":2167:2170  150 */\n      0x96\n        /* \"contracts/SpeciesLibrary.sol\":2155:2186  SpeciesInfo(150, 100, 4, 3, \"\") */\n      dup2\n      mstore\n      0x20\n      add\n        /* \"contracts/SpeciesLibrary.sol\":2172:2175  100 */\n      0x64\n        /* \"contracts/SpeciesLibrary.sol\":2155:2186  SpeciesInfo(150, 100, 4, 3, \"\") */\n      dup2\n      mstore\n      0x20\n      add\n        /* \"contracts/SpeciesLibrary.sol\":2177:2178  4 */\n      0x04\n        /* \"contracts/SpeciesLibrary.sol\":2155:2186  SpeciesInfo(150, 100, 4, 3, \"\") */\n      dup2\n      mstore\n      0x20\n      add\n        /* \"contracts/SpeciesLibrary.sol\":2180:2181  3 */\n      0x03\n        /* \"contracts/SpeciesLibrary.sol\":2155:2186  SpeciesInfo(150, 100, 4, 3, \"\") */\n      dup2\n      mstore\n      0x20\n      add\n      mload(0x40)\n      dup1\n      0x20\n      add\n      0x40\n      mstore\n      dup1\n      0x00\n      dup2\n      mstore\n      pop\n      dup2\n      mstore\n      pop\n        /* \"contracts/SpeciesLibrary.sol\":2148:2186  return SpeciesInfo(150, 100, 4, 3, \"\") */\n      swap1\n      pop\n      jump(tag_110)\n        /* \"contracts/SpeciesLibrary.sol\":2096:2299  if (species == Species.GreylagGoose) {... */\n    tag_169:\n        /* \"contracts/SpeciesLibrary.sol\":2219:2234  Species.Moorhen */\n      0x0a\n        /* \"contracts/SpeciesLibrary.sol\":2208:2234  species == Species.Moorhen */\n      dup1\n      dup2\n      gt\n      iszero\n      tag_171\n      jumpi\n      tag_172\n      tag_69\n      jump\t// in\n    tag_172:\n    tag_171:\n        /* \"contracts/SpeciesLibrary.sol\":2208:2215  species */\n      dup3\n        /* \"contracts/SpeciesLibrary.sol\":2208:2234  species == Species.Moorhen */\n      0x0a\n      dup2\n      gt\n      iszero\n      tag_173\n      jumpi\n      tag_174\n      tag_69\n      jump\t// in\n    tag_174:\n    tag_173:\n      sub\n        /* \"contracts/SpeciesLibrary.sol\":2204:2299  if (species == Species.Moorhen) {... */\n      tag_175\n      jumpi\n        /* \"contracts/SpeciesLibrary.sol\":2258:2287  SpeciesInfo(35, 66, 4, 5, \"\") */\n      mload(0x40)\n      dup1\n      0xa0\n      add\n      0x40\n      mstore\n      dup1\n        /* \"contracts/SpeciesLibrary.sol\":2270:2272  35 */\n      0x23\n        /* \"contracts/SpeciesLibrary.sol\":2258:2287  SpeciesInfo(35, 66, 4, 5, \"\") */\n      dup2\n      mstore\n      0x20\n      add\n        /* \"contracts/SpeciesLibrary.sol\":2274:2276  66 */\n      0x42\n        /* \"contracts/SpeciesLibrary.sol\":2258:2287  SpeciesInfo(35, 66, 4, 5, \"\") */\n      dup2\n      mstore\n      0x20\n      add\n        /* \"contracts/SpeciesLibrary.sol\":2278:2279  4 */\n      0x04\n        /* \"contracts/SpeciesLibrary.sol\":2258:2287  SpeciesInfo(35, 66, 4, 5, \"\") */\n      dup2\n      mstore\n      0x20\n      add\n        /* \"contracts/SpeciesLibrary.sol\":2281:2282  5 */\n      0x05\n        /* \"contracts/SpeciesLibrary.sol\":2258:2287  SpeciesInfo(35, 66, 4, 5, \"\") */\n      dup2\n      mstore\n      0x20\n      add\n      mload(0x40)\n      dup1\n      0x20\n      add\n      0x40\n      mstore\n      dup1\n      0x00\n      dup2\n      mstore\n      pop\n      dup2\n      mstore\n      pop\n        /* \"contracts/SpeciesLibrary.sol\":2251:2287  return SpeciesInfo(35, 66, 4, 5, \"\") */\n      swap1\n      pop\n      jump(tag_110)\n        /* \"contracts/SpeciesLibrary.sol\":2204:2299  if (species == Species.Moorhen) {... */\n    tag_175:\n        /* \"contracts/SpeciesLibrary.sol\":2309:2334  revert(\"Unknown species\") */\n      mload(0x40)\n      0x08c379a000000000000000000000000000000000000000000000000000000000\n      dup2\n      mstore\n      0x04\n      add\n      tag_176\n      swap1\n      tag_177\n      jump\t// in\n    tag_176:\n      mload(0x40)\n      dup1\n      swap2\n      sub\n      swap1\n      revert\n        /* \"contracts/SpeciesLibrary.sol\":781:2342  function getSpeciesInfo(Species species) internal pure returns (SpeciesInfo memory) {... */\n    tag_110:\n      swap2\n      swap1\n      pop\n      jump\t// out\n    tag_75:\n      mload(0x40)\n      dup1\n      0xa0\n      add\n      0x40\n      mstore\n      dup1\n      0x00\n      dup2\n      mstore\n      0x20\n      add\n      0x00\n      dup2\n      mstore\n      0x20\n      add\n      0x00\n      dup2\n      mstore\n      0x20\n      add\n      0x00\n      0x0a\n      dup2\n      gt\n      iszero\n      tag_178\n      jumpi\n      tag_179\n      tag_69\n      jump\t// in\n    tag_179:\n    tag_178:\n      dup2\n      mstore\n      0x20\n      add\n      0x00\n      dup2\n      mstore\n      pop\n      swap1\n      jump\t// out\n    tag_99:\n      mload(0x40)\n      dup1\n      0xa0\n      add\n      0x40\n      mstore\n      dup1\n      0x00\n      dup2\n      mstore\n      0x20\n      add\n      0x00\n      dup2\n      mstore\n      0x20\n      add\n      0x00\n      dup2\n      mstore\n      0x20\n      add\n      0x00\n      dup2\n      mstore\n      0x20\n      add\n      0x60\n      dup2\n      mstore\n      pop\n      swap1\n      jump\t// out\n        /* \"#utility.yul\":88:205   */\n    tag_181:\n        /* \"#utility.yul\":197:198   */\n      0x00\n        /* \"#utility.yul\":194:195   */\n      0x00\n        /* \"#utility.yul\":187:199   */\n      revert\n        /* \"#utility.yul\":334:411   */\n    tag_183:\n        /* \"#utility.yul\":371:378   */\n      0x00\n        /* \"#utility.yul\":400:405   */\n      dup2\n        /* \"#utility.yul\":389:405   */\n      swap1\n      pop\n        /* \"#utility.yul\":334:411   */\n      swap2\n      swap1\n      pop\n      jump\t// out\n        /* \"#utility.yul\":417:539   */\n    tag_184:\n        /* \"#utility.yul\":490:514   */\n      tag_218\n        /* \"#utility.yul\":508:513   */\n      dup2\n        /* \"#utility.yul\":490:514   */\n      tag_183\n      jump\t// in\n    tag_218:\n        /* \"#utility.yul\":483:488   */\n      dup2\n        /* \"#utility.yul\":480:515   */\n      eq\n        /* \"#utility.yul\":470:533   */\n      tag_219\n      jumpi\n        /* \"#utility.yul\":529:530   */\n      0x00\n        /* \"#utility.yul\":526:527   */\n      0x00\n        /* \"#utility.yul\":519:531   */\n      revert\n        /* \"#utility.yul\":470:533   */\n    tag_219:\n        /* \"#utility.yul\":417:539   */\n      pop\n      jump\t// out\n        /* \"#utility.yul\":545:684   */\n    tag_185:\n        /* \"#utility.yul\":591:596   */\n      0x00\n        /* \"#utility.yul\":629:635   */\n      dup2\n        /* \"#utility.yul\":616:636   */\n      calldataload\n        /* \"#utility.yul\":607:636   */\n      swap1\n      pop\n        /* \"#utility.yul\":645:678   */\n      tag_221\n        /* \"#utility.yul\":672:677   */\n      dup2\n        /* \"#utility.yul\":645:678   */\n      tag_184\n      jump\t// in\n    tag_221:\n        /* \"#utility.yul\":545:684   */\n      swap3\n      swap2\n      pop\n      pop\n      jump\t// out\n        /* \"#utility.yul\":690:1019   */\n    tag_14:\n        /* \"#utility.yul\":749:755   */\n      0x00\n        /* \"#utility.yul\":798:800   */\n      0x20\n        /* \"#utility.yul\":786:795   */\n      dup3\n        /* \"#utility.yul\":777:784   */\n      dup5\n        /* \"#utility.yul\":773:796   */\n      sub\n        /* \"#utility.yul\":769:801   */\n      slt\n        /* \"#utility.yul\":766:885   */\n      iszero\n      tag_223\n      jumpi\n        /* \"#utility.yul\":804:883   */\n      tag_224\n      tag_181\n      jump\t// in\n    tag_224:\n        /* \"#utility.yul\":766:885   */\n    tag_223:\n        /* \"#utility.yul\":924:925   */\n      0x00\n        /* \"#utility.yul\":949:1002   */\n      tag_225\n        /* \"#utility.yul\":994:1001   */\n      dup5\n        /* \"#utility.yul\":985:991   */\n      dup3\n        /* \"#utility.yul\":974:983   */\n      dup6\n        /* \"#utility.yul\":970:992   */\n      add\n        /* \"#utility.yul\":949:1002   */\n      tag_185\n      jump\t// in\n    tag_225:\n        /* \"#utility.yul\":939:1002   */\n      swap2\n      pop\n        /* \"#utility.yul\":895:1012   */\n      pop\n        /* \"#utility.yul\":690:1019   */\n      swap3\n      swap2\n      pop\n      pop\n      jump\t// out\n        /* \"#utility.yul\":1025:1115   */\n    tag_186:\n        /* \"#utility.yul\":1059:1066   */\n      0x00\n        /* \"#utility.yul\":1102:1107   */\n      dup2\n        /* \"#utility.yul\":1095:1108   */\n      iszero\n        /* \"#utility.yul\":1088:1109   */\n      iszero\n        /* \"#utility.yul\":1077:1109   */\n      swap1\n      pop\n        /* \"#utility.yul\":1025:1115   */\n      swap2\n      swap1\n      pop\n      jump\t// out\n        /* \"#utility.yul\":1121:1230   */\n    tag_187:\n        /* \"#utility.yul\":1202:1223   */\n      tag_228\n        /* \"#utility.yul\":1217:1222   */\n      dup2\n        /* \"#utility.yul\":1202:1223   */\n      tag_186\n      jump\t// in\n    tag_228:\n        /* \"#utility.yul\":1197:1200   */\n      dup3\n        /* \"#utility.yul\":1190:1224   */\n      mstore\n        /* \"#utility.yul\":1121:1230   */\n      pop\n      pop\n      jump\t// out\n        /* \"#utility.yul\":1236:1446   */\n    tag_17:\n        /* \"#utility.yul\":1323:1327   */\n      0x00\n        /* \"#utility.yul\":1361:1363   */\n      0x20\n        /* \"#utility.yul\":1350:1359   */\n      dup3\n        /* \"#utility.yul\":1346:1364   */\n      add\n        /* \"#utility.yul\":1338:1364   */\n      swap1\n      pop\n        /* \"#utility.yul\":1374:1439   */\n      tag_230\n        /* \"#utility.yul\":1436:1437   */\n      0x00\n        /* \"#utility.yul\":1425:1434   */\n      dup4\n        /* \"#utility.yul\":1421:1438   */\n      add\n        /* \"#utility.yul\":1412:1418   */\n      dup5\n        /* \"#utility.yul\":1374:1439   */\n      tag_187\n      jump\t// in\n    tag_230:\n        /* \"#utility.yul\":1236:1446   */\n      swap3\n      swap2\n      pop\n      pop\n      jump\t// out\n        /* \"#utility.yul\":1452:1926   */\n    tag_20:\n        /* \"#utility.yul\":1520:1526   */\n      0x00\n        /* \"#utility.yul\":1528:1534   */\n      0x00\n        /* \"#utility.yul\":1577:1579   */\n      0x40\n        /* \"#utility.yul\":1565:1574   */\n      dup4\n        /* \"#utility.yul\":1556:1563   */\n      dup6\n        /* \"#utility.yul\":1552:1575   */\n      sub\n        /* \"#utility.yul\":1548:1580   */\n      slt\n        /* \"#utility.yul\":1545:1664   */\n      iszero\n      tag_232\n      jumpi\n        /* \"#utility.yul\":1583:1662   */\n      tag_233\n      tag_181\n      jump\t// in\n    tag_233:\n        /* \"#utility.yul\":1545:1664   */\n    tag_232:\n        /* \"#utility.yul\":1703:1704   */\n      0x00\n        /* \"#utility.yul\":1728:1781   */\n      tag_234\n        /* \"#utility.yul\":1773:1780   */\n      dup6\n        /* \"#utility.yul\":1764:1770   */\n      dup3\n        /* \"#utility.yul\":1753:1762   */\n      dup7\n        /* \"#utility.yul\":1749:1771   */\n      add\n        /* \"#utility.yul\":1728:1781   */\n      tag_185\n      jump\t// in\n    tag_234:\n        /* \"#utility.yul\":1718:1781   */\n      swap3\n      pop\n        /* \"#utility.yul\":1674:1791   */\n      pop\n        /* \"#utility.yul\":1830:1832   */\n      0x20\n        /* \"#utility.yul\":1856:1909   */\n      tag_235\n        /* \"#utility.yul\":1901:1908   */\n      dup6\n        /* \"#utility.yul\":1892:1898   */\n      dup3\n        /* \"#utility.yul\":1881:1890   */\n      dup7\n        /* \"#utility.yul\":1877:1899   */\n      add\n        /* \"#utility.yul\":1856:1909   */\n      tag_185\n      jump\t// in\n    tag_235:\n        /* \"#utility.yul\":1846:1909   */\n      swap2\n      pop\n        /* \"#utility.yul\":1801:1919   */\n      pop\n        /* \"#utility.yul\":1452:1926   */\n      swap3\n      pop\n      swap3\n      swap1\n      pop\n      jump\t// out\n        /* \"#utility.yul\":1932:2043   */\n    tag_188:\n        /* \"#utility.yul\":2016:2018   */\n      0x0b\n        /* \"#utility.yul\":2009:2014   */\n      dup2\n        /* \"#utility.yul\":2006:2019   */\n      lt\n        /* \"#utility.yul\":1996:2037   */\n      tag_237\n      jumpi\n        /* \"#utility.yul\":2033:2034   */\n      0x00\n        /* \"#utility.yul\":2030:2031   */\n      0x00\n        /* \"#utility.yul\":2023:2035   */\n      revert\n        /* \"#utility.yul\":1996:2037   */\n    tag_237:\n        /* \"#utility.yul\":1932:2043   */\n      pop\n      jump\t// out\n        /* \"#utility.yul\":2049:2210   */\n    tag_189:\n        /* \"#utility.yul\":2106:2111   */\n      0x00\n        /* \"#utility.yul\":2144:2150   */\n      dup2\n        /* \"#utility.yul\":2131:2151   */\n      calldataload\n        /* \"#utility.yul\":2122:2151   */\n      swap1\n      pop\n        /* \"#utility.yul\":2160:2204   */\n      tag_239\n        /* \"#utility.yul\":2198:2203   */\n      dup2\n        /* \"#utility.yul\":2160:2204   */\n      tag_188\n      jump\t// in\n    tag_239:\n        /* \"#utility.yul\":2049:2210   */\n      swap3\n      swap2\n      pop\n      pop\n      jump\t// out\n        /* \"#utility.yul\":2216:2567   */\n    tag_24:\n        /* \"#utility.yul\":2286:2292   */\n      0x00\n        /* \"#utility.yul\":2335:2337   */\n      0x20\n        /* \"#utility.yul\":2323:2332   */\n      dup3\n        /* \"#utility.yul\":2314:2321   */\n      dup5\n        /* \"#utility.yul\":2310:2333   */\n      sub\n        /* \"#utility.yul\":2306:2338   */\n      slt\n        /* \"#utility.yul\":2303:2422   */\n      iszero\n      tag_241\n      jumpi\n        /* \"#utility.yul\":2341:2420   */\n      tag_242\n      tag_181\n      jump\t// in\n    tag_242:\n        /* \"#utility.yul\":2303:2422   */\n    tag_241:\n        /* \"#utility.yul\":2461:2462   */\n      0x00\n        /* \"#utility.yul\":2486:2550   */\n      tag_243\n        /* \"#utility.yul\":2542:2549   */\n      dup5\n        /* \"#utility.yul\":2533:2539   */\n      dup3\n        /* \"#utility.yul\":2522:2531   */\n      dup6\n        /* \"#utility.yul\":2518:2540   */\n      add\n        /* \"#utility.yul\":2486:2550   */\n      tag_189\n      jump\t// in\n    tag_243:\n        /* \"#utility.yul\":2476:2550   */\n      swap2\n      pop\n        /* \"#utility.yul\":2432:2560   */\n      pop\n        /* \"#utility.yul\":2216:2567   */\n      swap3\n      swap2\n      pop\n      pop\n      jump\t// out\n        /* \"#utility.yul\":2573:2649   */\n    tag_190:\n        /* \"#utility.yul\":2609:2616   */\n      0x00\n        /* \"#utility.yul\":2638:2643   */\n      dup2\n        /* \"#utility.yul\":2627:2643   */\n      swap1\n      pop\n        /* \"#utility.yul\":2573:2649   */\n      swap2\n      swap1\n      pop\n      jump\t// out\n        /* \"#utility.yul\":2655:2770   */\n    tag_191:\n        /* \"#utility.yul\":2740:2763   */\n      tag_246\n        /* \"#utility.yul\":2757:2762   */\n      dup2\n        /* \"#utility.yul\":2740:2763   */\n      tag_190\n      jump\t// in\n    tag_246:\n        /* \"#utility.yul\":2735:2738   */\n      dup3\n        /* \"#utility.yul\":2728:2764   */\n      mstore\n        /* \"#utility.yul\":2655:2770   */\n      pop\n      pop\n      jump\t// out\n        /* \"#utility.yul\":2776:2994   */\n    tag_27:\n        /* \"#utility.yul\":2867:2871   */\n      0x00\n        /* \"#utility.yul\":2905:2907   */\n      0x20\n        /* \"#utility.yul\":2894:2903   */\n      dup3\n        /* \"#utility.yul\":2890:2908   */\n      add\n        /* \"#utility.yul\":2882:2908   */\n      swap1\n      pop\n        /* \"#utility.yul\":2918:2987   */\n      tag_248\n        /* \"#utility.yul\":2984:2985   */\n      0x00\n        /* \"#utility.yul\":2973:2982   */\n      dup4\n        /* \"#utility.yul\":2969:2986   */\n      add\n        /* \"#utility.yul\":2960:2966   */\n      dup5\n        /* \"#utility.yul\":2918:2987   */\n      tag_191\n      jump\t// in\n    tag_248:\n        /* \"#utility.yul\":2776:2994   */\n      swap3\n      swap2\n      pop\n      pop\n      jump\t// out\n        /* \"#utility.yul\":3000:3118   */\n    tag_192:\n        /* \"#utility.yul\":3087:3111   */\n      tag_250\n        /* \"#utility.yul\":3105:3110   */\n      dup2\n        /* \"#utility.yul\":3087:3111   */\n      tag_183\n      jump\t// in\n    tag_250:\n        /* \"#utility.yul\":3082:3085   */\n      dup3\n        /* \"#utility.yul\":3075:3112   */\n      mstore\n        /* \"#utility.yul\":3000:3118   */\n      pop\n      pop\n      jump\t// out\n        /* \"#utility.yul\":3124:3346   */\n    tag_31:\n        /* \"#utility.yul\":3217:3221   */\n      0x00\n        /* \"#utility.yul\":3255:3257   */\n      0x20\n        /* \"#utility.yul\":3244:3253   */\n      dup3\n        /* \"#utility.yul\":3240:3258   */\n      add\n        /* \"#utility.yul\":3232:3258   */\n      swap1\n      pop\n        /* \"#utility.yul\":3268:3339   */\n      tag_252\n        /* \"#utility.yul\":3336:3337   */\n      0x00\n        /* \"#utility.yul\":3325:3334   */\n      dup4\n        /* \"#utility.yul\":3321:3338   */\n      add\n        /* \"#utility.yul\":3312:3318   */\n      dup5\n        /* \"#utility.yul\":3268:3339   */\n      tag_192\n      jump\t// in\n    tag_252:\n        /* \"#utility.yul\":3124:3346   */\n      swap3\n      swap2\n      pop\n      pop\n      jump\t// out\n        /* \"#utility.yul\":3352:3460   */\n    tag_193:\n        /* \"#utility.yul\":3429:3453   */\n      tag_254\n        /* \"#utility.yul\":3447:3452   */\n      dup2\n        /* \"#utility.yul\":3429:3453   */\n      tag_183\n      jump\t// in\n    tag_254:\n        /* \"#utility.yul\":3424:3427   */\n      dup3\n        /* \"#utility.yul\":3417:3454   */\n      mstore\n        /* \"#utility.yul\":3352:3460   */\n      pop\n      pop\n      jump\t// out\n        /* \"#utility.yul\":3466:3646   */\n    tag_69:\n        /* \"#utility.yul\":3514:3591   */\n      0x4e487b7100000000000000000000000000000000000000000000000000000000\n        /* \"#utility.yul\":3511:3512   */\n      0x00\n        /* \"#utility.yul\":3504:3592   */\n      mstore\n        /* \"#utility.yul\":3611:3615   */\n      0x21\n        /* \"#utility.yul\":3608:3609   */\n      0x04\n        /* \"#utility.yul\":3601:3616   */\n      mstore\n        /* \"#utility.yul\":3635:3639   */\n      0x24\n        /* \"#utility.yul\":3632:3633   */\n      0x00\n        /* \"#utility.yul\":3625:3640   */\n      revert\n        /* \"#utility.yul\":3652:3769   */\n    tag_194:\n        /* \"#utility.yul\":3736:3738   */\n      0x0b\n        /* \"#utility.yul\":3729:3734   */\n      dup2\n        /* \"#utility.yul\":3726:3739   */\n      lt\n        /* \"#utility.yul\":3716:3763   */\n      tag_257\n      jumpi\n        /* \"#utility.yul\":3743:3761   */\n      tag_258\n      tag_69\n      jump\t// in\n    tag_258:\n        /* \"#utility.yul\":3716:3763   */\n    tag_257:\n        /* \"#utility.yul\":3652:3769   */\n      pop\n      jump\t// out\n        /* \"#utility.yul\":3775:3908   */\n    tag_195:\n        /* \"#utility.yul\":3823:3830   */\n      0x00\n        /* \"#utility.yul\":3852:3857   */\n      dup2\n        /* \"#utility.yul\":3841:3857   */\n      swap1\n      pop\n        /* \"#utility.yul\":3858:3902   */\n      tag_260\n        /* \"#utility.yul\":3896:3901   */\n      dup3\n        /* \"#utility.yul\":3858:3902   */\n      tag_194\n      jump\t// in\n    tag_260:\n        /* \"#utility.yul\":3775:3908   */\n      swap2\n      swap1\n      pop\n      jump\t// out\n        /* \"#utility.yul\":3914:4047   */\n    tag_196:\n        /* \"#utility.yul\":3973:3982   */\n      0x00\n        /* \"#utility.yul\":4006:4041   */\n      tag_262\n        /* \"#utility.yul\":4035:4040   */\n      dup3\n        /* \"#utility.yul\":4006:4041   */\n      tag_195\n      jump\t// in\n    tag_262:\n        /* \"#utility.yul\":3993:4041   */\n      swap1\n      pop\n        /* \"#utility.yul\":3914:4047   */\n      swap2\n      swap1\n      pop\n      jump\t// out\n        /* \"#utility.yul\":4053:4192   */\n    tag_197:\n        /* \"#utility.yul\":4139:4185   */\n      tag_264\n        /* \"#utility.yul\":4179:4184   */\n      dup2\n        /* \"#utility.yul\":4139:4185   */\n      tag_196\n      jump\t// in\n    tag_264:\n        /* \"#utility.yul\":4134:4137   */\n      dup3\n        /* \"#utility.yul\":4127:4186   */\n      mstore\n        /* \"#utility.yul\":4053:4192   */\n      pop\n      pop\n      jump\t// out\n        /* \"#utility.yul\":4250:5302   */\n    tag_198:\n        /* \"#utility.yul\":4395:4399   */\n      0xa0\n        /* \"#utility.yul\":4390:4393   */\n      dup3\n        /* \"#utility.yul\":4386:4400   */\n      add\n        /* \"#utility.yul\":4481:4485   */\n      0x00\n        /* \"#utility.yul\":4474:4479   */\n      dup3\n        /* \"#utility.yul\":4470:4486   */\n      add\n        /* \"#utility.yul\":4464:4487   */\n      mload\n        /* \"#utility.yul\":4500:4563   */\n      tag_266\n        /* \"#utility.yul\":4557:4561   */\n      0x00\n        /* \"#utility.yul\":4552:4555   */\n      dup6\n        /* \"#utility.yul\":4548:4562   */\n      add\n        /* \"#utility.yul\":4534:4546   */\n      dup3\n        /* \"#utility.yul\":4500:4563   */\n      tag_193\n      jump\t// in\n    tag_266:\n        /* \"#utility.yul\":4410:4573   */\n      pop\n        /* \"#utility.yul\":4657:4661   */\n      0x20\n        /* \"#utility.yul\":4650:4655   */\n      dup3\n        /* \"#utility.yul\":4646:4662   */\n      add\n        /* \"#utility.yul\":4640:4663   */\n      mload\n        /* \"#utility.yul\":4676:4739   */\n      tag_267\n        /* \"#utility.yul\":4733:4737   */\n      0x20\n        /* \"#utility.yul\":4728:4731   */\n      dup6\n        /* \"#utility.yul\":4724:4738   */\n      add\n        /* \"#utility.yul\":4710:4722   */\n      dup3\n        /* \"#utility.yul\":4676:4739   */\n      tag_193\n      jump\t// in\n    tag_267:\n        /* \"#utility.yul\":4583:4749   */\n      pop\n        /* \"#utility.yul\":4833:4837   */\n      0x40\n        /* \"#utility.yul\":4826:4831   */\n      dup3\n        /* \"#utility.yul\":4822:4838   */\n      add\n        /* \"#utility.yul\":4816:4839   */\n      mload\n        /* \"#utility.yul\":4852:4915   */\n      tag_268\n        /* \"#utility.yul\":4909:4913   */\n      0x40\n        /* \"#utility.yul\":4904:4907   */\n      dup6\n        /* \"#utility.yul\":4900:4914   */\n      add\n        /* \"#utility.yul\":4886:4898   */\n      dup3\n        /* \"#utility.yul\":4852:4915   */\n      tag_193\n      jump\t// in\n    tag_268:\n        /* \"#utility.yul\":4759:4925   */\n      pop\n        /* \"#utility.yul\":5010:5014   */\n      0x60\n        /* \"#utility.yul\":5003:5008   */\n      dup3\n        /* \"#utility.yul\":4999:5015   */\n      add\n        /* \"#utility.yul\":4993:5016   */\n      mload\n        /* \"#utility.yul\":5029:5101   */\n      tag_269\n        /* \"#utility.yul\":5095:5099   */\n      0x60\n        /* \"#utility.yul\":5090:5093   */\n      dup6\n        /* \"#utility.yul\":5086:5100   */\n      add\n        /* \"#utility.yul\":5072:5084   */\n      dup3\n        /* \"#utility.yul\":5029:5101   */\n      tag_197\n      jump\t// in\n    tag_269:\n        /* \"#utility.yul\":4935:5111   */\n      pop\n        /* \"#utility.yul\":5203:5207   */\n      0x80\n        /* \"#utility.yul\":5196:5201   */\n      dup3\n        /* \"#utility.yul\":5192:5208   */\n      add\n        /* \"#utility.yul\":5186:5209   */\n      mload\n        /* \"#utility.yul\":5222:5285   */\n      tag_270\n        /* \"#utility.yul\":5279:5283   */\n      0x80\n        /* \"#utility.yul\":5274:5277   */\n      dup6\n        /* \"#utility.yul\":5270:5284   */\n      add\n        /* \"#utility.yul\":5256:5268   */\n      dup3\n        /* \"#utility.yul\":5222:5285   */\n      tag_193\n      jump\t// in\n    tag_270:\n        /* \"#utility.yul\":5121:5295   */\n      pop\n        /* \"#utility.yul\":4364:5302   */\n      pop\n        /* \"#utility.yul\":4250:5302   */\n      pop\n      pop\n      jump\t// out\n        /* \"#utility.yul\":5308:5627   */\n    tag_36:\n        /* \"#utility.yul\":5449:5453   */\n      0x00\n        /* \"#utility.yul\":5487:5490   */\n      0xa0\n        /* \"#utility.yul\":5476:5485   */\n      dup3\n        /* \"#utility.yul\":5472:5491   */\n      add\n        /* \"#utility.yul\":5464:5491   */\n      swap1\n      pop\n        /* \"#utility.yul\":5501:5620   */\n      tag_272\n        /* \"#utility.yul\":5617:5618   */\n      0x00\n        /* \"#utility.yul\":5606:5615   */\n      dup4\n        /* \"#utility.yul\":5602:5619   */\n      add\n        /* \"#utility.yul\":5593:5599   */\n      dup5\n        /* \"#utility.yul\":5501:5620   */\n      tag_198\n      jump\t// in\n    tag_272:\n        /* \"#utility.yul\":5308:5627   */\n      swap3\n      swap2\n      pop\n      pop\n      jump\t// out\n        /* \"#utility.yul\":5633:5759   */\n    tag_199:\n        /* \"#utility.yul\":5670:5677   */\n      0x00\n        /* \"#utility.yul\":5710:5752   */\n      0xffffffffffffffffffffffffffffffffffffffff\n        /* \"#utility.yul\":5703:5708   */\n      dup3\n        /* \"#utility.yul\":5699:5753   */\n      and\n        /* \"#utility.yul\":5688:5753   */\n      swap1\n      pop\n        /* \"#utility.yul\":5633:5759   */\n      swap2\n      swap1\n      pop\n      jump\t// out\n        /* \"#utility.yul\":5765:5861   */\n    tag_200:\n        /* \"#utility.yul\":5802:5809   */\n      0x00\n        /* \"#utility.yul\":5831:5855   */\n      tag_275\n        /* \"#utility.yul\":5849:5854   */\n      dup3\n        /* \"#utility.yul\":5831:5855   */\n      tag_199\n      jump\t// in\n    tag_275:\n        /* \"#utility.yul\":5820:5855   */\n      swap1\n      pop\n        /* \"#utility.yul\":5765:5861   */\n      swap2\n      swap1\n      pop\n      jump\t// out\n        /* \"#utility.yul\":5867:5985   */\n    tag_201:\n        /* \"#utility.yul\":5954:5978   */\n      tag_277\n        /* \"#utility.yul\":5972:5977   */\n      dup2\n        /* \"#utility.yul\":5954:5978   */\n      tag_200\n      jump\t// in\n    tag_277:\n        /* \"#utility.yul\":5949:5952   */\n      dup3\n        /* \"#utility.yul\":5942:5979   */\n      mstore\n        /* \"#utility.yul\":5867:5985   */\n      pop\n      pop\n      jump\t// out\n        /* \"#utility.yul\":5991:6213   */\n    tag_40:\n        /* \"#utility.yul\":6084:6088   */\n      0x00\n        /* \"#utility.yul\":6122:6124   */\n      0x20\n        /* \"#utility.yul\":6111:6120   */\n      dup3\n        /* \"#utility.yul\":6107:6125   */\n      add\n        /* \"#utility.yul\":6099:6125   */\n      swap1\n      pop\n        /* \"#utility.yul\":6135:6206   */\n      tag_279\n        /* \"#utility.yul\":6203:6204   */\n      0x00\n        /* \"#utility.yul\":6192:6201   */\n      dup4\n        /* \"#utility.yul\":6188:6205   */\n      add\n        /* \"#utility.yul\":6179:6185   */\n      dup5\n        /* \"#utility.yul\":6135:6206   */\n      tag_201\n      jump\t// in\n    tag_279:\n        /* \"#utility.yul\":5991:6213   */\n      swap3\n      swap2\n      pop\n      pop\n      jump\t// out\n        /* \"#utility.yul\":6219:6368   */\n    tag_202:\n        /* \"#utility.yul\":6315:6361   */\n      tag_281\n        /* \"#utility.yul\":6355:6360   */\n      dup2\n        /* \"#utility.yul\":6315:6361   */\n      tag_196\n      jump\t// in\n    tag_281:\n        /* \"#utility.yul\":6310:6313   */\n      dup3\n        /* \"#utility.yul\":6303:6362   */\n      mstore\n        /* \"#utility.yul\":6219:6368   */\n      pop\n      pop\n      jump\t// out\n        /* \"#utility.yul\":6374:7056   */\n    tag_48:\n        /* \"#utility.yul\":6588:6592   */\n      0x00\n        /* \"#utility.yul\":6626:6629   */\n      0xa0\n        /* \"#utility.yul\":6615:6624   */\n      dup3\n        /* \"#utility.yul\":6611:6630   */\n      add\n        /* \"#utility.yul\":6603:6630   */\n      swap1\n      pop\n        /* \"#utility.yul\":6640:6711   */\n      tag_283\n        /* \"#utility.yul\":6708:6709   */\n      0x00\n        /* \"#utility.yul\":6697:6706   */\n      dup4\n        /* \"#utility.yul\":6693:6710   */\n      add\n        /* \"#utility.yul\":6684:6690   */\n      dup9\n        /* \"#utility.yul\":6640:6711   */\n      tag_192\n      jump\t// in\n    tag_283:\n        /* \"#utility.yul\":6721:6793   */\n      tag_284\n        /* \"#utility.yul\":6789:6791   */\n      0x20\n        /* \"#utility.yul\":6778:6787   */\n      dup4\n        /* \"#utility.yul\":6774:6792   */\n      add\n        /* \"#utility.yul\":6765:6771   */\n      dup8\n        /* \"#utility.yul\":6721:6793   */\n      tag_192\n      jump\t// in\n    tag_284:\n        /* \"#utility.yul\":6803:6875   */\n      tag_285\n        /* \"#utility.yul\":6871:6873   */\n      0x40\n        /* \"#utility.yul\":6860:6869   */\n      dup4\n        /* \"#utility.yul\":6856:6874   */\n      add\n        /* \"#utility.yul\":6847:6853   */\n      dup7\n        /* \"#utility.yul\":6803:6875   */\n      tag_192\n      jump\t// in\n    tag_285:\n        /* \"#utility.yul\":6885:6966   */\n      tag_286\n        /* \"#utility.yul\":6962:6964   */\n      0x60\n        /* \"#utility.yul\":6951:6960   */\n      dup4\n        /* \"#utility.yul\":6947:6965   */\n      add\n        /* \"#utility.yul\":6938:6944   */\n      dup6\n        /* \"#utility.yul\":6885:6966   */\n      tag_202\n      jump\t// in\n    tag_286:\n        /* \"#utility.yul\":6976:7049   */\n      tag_287\n        /* \"#utility.yul\":7044:7047   */\n      0x80\n        /* \"#utility.yul\":7033:7042   */\n      dup4\n        /* \"#utility.yul\":7029:7048   */\n      add\n        /* \"#utility.yul\":7020:7026   */\n      dup5\n        /* \"#utility.yul\":6976:7049   */\n      tag_192\n      jump\t// in\n    tag_287:\n        /* \"#utility.yul\":6374:7056   */\n      swap7\n      swap6\n      pop\n      pop\n      pop\n      pop\n      pop\n      pop\n      jump\t// out\n        /* \"#utility.yul\":7062:7231   */\n    tag_203:\n        /* \"#utility.yul\":7146:7157   */\n      0x00\n        /* \"#utility.yul\":7180:7186   */\n      dup3\n        /* \"#utility.yul\":7175:7178   */\n      dup3\n        /* \"#utility.yul\":7168:7187   */\n      mstore\n        /* \"#utility.yul\":7220:7224   */\n      0x20\n        /* \"#utility.yul\":7215:7218   */\n      dup3\n        /* \"#utility.yul\":7211:7225   */\n      add\n        /* \"#utility.yul\":7196:7225   */\n      swap1\n      pop\n        /* \"#utility.yul\":7062:7231   */\n      swap3\n      swap2\n      pop\n      pop\n      jump\t// out\n        /* \"#utility.yul\":7237:7410   */\n    tag_204:\n        /* \"#utility.yul\":7377:7402   */\n      0x4f6e6c79205061726b2063616e2063616c6c2074686973000000000000000000\n        /* \"#utility.yul\":7373:7374   */\n      0x00\n        /* \"#utility.yul\":7365:7371   */\n      dup3\n        /* \"#utility.yul\":7361:7375   */\n      add\n        /* \"#utility.yul\":7354:7403   */\n      mstore\n        /* \"#utility.yul\":7237:7410   */\n      pop\n      jump\t// out\n        /* \"#utility.yul\":7416:7782   */\n    tag_205:\n        /* \"#utility.yul\":7558:7561   */\n      0x00\n        /* \"#utility.yul\":7579:7646   */\n      tag_291\n        /* \"#utility.yul\":7643:7645   */\n      0x17\n        /* \"#utility.yul\":7638:7641   */\n      dup4\n        /* \"#utility.yul\":7579:7646   */\n      tag_203\n      jump\t// in\n    tag_291:\n        /* \"#utility.yul\":7572:7646   */\n      swap2\n      pop\n        /* \"#utility.yul\":7655:7748   */\n      tag_292\n        /* \"#utility.yul\":7744:7747   */\n      dup3\n        /* \"#utility.yul\":7655:7748   */\n      tag_204\n      jump\t// in\n    tag_292:\n        /* \"#utility.yul\":7773:7775   */\n      0x20\n        /* \"#utility.yul\":7768:7771   */\n      dup3\n        /* \"#utility.yul\":7764:7776   */\n      add\n        /* \"#utility.yul\":7757:7776   */\n      swap1\n      pop\n        /* \"#utility.yul\":7416:7782   */\n      swap2\n      swap1\n      pop\n      jump\t// out\n        /* \"#utility.yul\":7788:8207   */\n    tag_52:\n        /* \"#utility.yul\":7954:7958   */\n      0x00\n        /* \"#utility.yul\":7992:7994   */\n      0x20\n        /* \"#utility.yul\":7981:7990   */\n      dup3\n        /* \"#utility.yul\":7977:7995   */\n      add\n        /* \"#utility.yul\":7969:7995   */\n      swap1\n      pop\n        /* \"#utility.yul\":8041:8050   */\n      dup2\n        /* \"#utility.yul\":8035:8039   */\n      dup2\n        /* \"#utility.yul\":8031:8051   */\n      sub\n        /* \"#utility.yul\":8027:8028   */\n      0x00\n        /* \"#utility.yul\":8016:8025   */\n      dup4\n        /* \"#utility.yul\":8012:8029   */\n      add\n        /* \"#utility.yul\":8005:8052   */\n      mstore\n        /* \"#utility.yul\":8069:8200   */\n      tag_294\n        /* \"#utility.yul\":8195:8199   */\n      dup2\n        /* \"#utility.yul\":8069:8200   */\n      tag_205\n      jump\t// in\n    tag_294:\n        /* \"#utility.yul\":8061:8200   */\n      swap1\n      pop\n        /* \"#utility.yul\":7788:8207   */\n      swap2\n      swap1\n      pop\n      jump\t// out\n        /* \"#utility.yul\":8213:8393   */\n    tag_206:\n        /* \"#utility.yul\":8261:8338   */\n      0x4e487b7100000000000000000000000000000000000000000000000000000000\n        /* \"#utility.yul\":8258:8259   */\n      0x00\n        /* \"#utility.yul\":8251:8339   */\n      mstore\n        /* \"#utility.yul\":8358:8362   */\n      0x11\n        /* \"#utility.yul\":8355:8356   */\n      0x04\n        /* \"#utility.yul\":8348:8363   */\n      mstore\n        /* \"#utility.yul\":8382:8386   */\n      0x24\n        /* \"#utility.yul\":8379:8380   */\n      0x00\n        /* \"#utility.yul\":8372:8387   */\n      revert\n        /* \"#utility.yul\":8399:8593   */\n    tag_59:\n        /* \"#utility.yul\":8439:8443   */\n      0x00\n        /* \"#utility.yul\":8459:8479   */\n      tag_297\n        /* \"#utility.yul\":8477:8478   */\n      dup3\n        /* \"#utility.yul\":8459:8479   */\n      tag_183\n      jump\t// in\n    tag_297:\n        /* \"#utility.yul\":8454:8479   */\n      swap2\n      pop\n        /* \"#utility.yul\":8493:8513   */\n      tag_298\n        /* \"#utility.yul\":8511:8512   */\n      dup4\n        /* \"#utility.yul\":8493:8513   */\n      tag_183\n      jump\t// in\n    tag_298:\n        /* \"#utility.yul\":8488:8513   */\n      swap3\n      pop\n        /* \"#utility.yul\":8537:8538   */\n      dup3\n        /* \"#utility.yul\":8534:8535   */\n      dup3\n        /* \"#utility.yul\":8530:8539   */\n      sub\n        /* \"#utility.yul\":8522:8539   */\n      swap1\n      pop\n        /* \"#utility.yul\":8561:8562   */\n      dup2\n        /* \"#utility.yul\":8555:8559   */\n      dup2\n        /* \"#utility.yul\":8552:8563   */\n      gt\n        /* \"#utility.yul\":8549:8586   */\n      iszero\n      tag_299\n      jumpi\n        /* \"#utility.yul\":8566:8584   */\n      tag_300\n      tag_206\n      jump\t// in\n    tag_300:\n        /* \"#utility.yul\":8549:8586   */\n    tag_299:\n        /* \"#utility.yul\":8399:8593   */\n      swap3\n      swap2\n      pop\n      pop\n      jump\t// out\n        /* \"#utility.yul\":8599:8832   */\n    tag_73:\n        /* \"#utility.yul\":8638:8641   */\n      0x00\n        /* \"#utility.yul\":8661:8685   */\n      tag_302\n        /* \"#utility.yul\":8679:8684   */\n      dup3\n        /* \"#utility.yul\":8661:8685   */\n      tag_183\n      jump\t// in\n    tag_302:\n        /* \"#utility.yul\":8652:8685   */\n      swap2\n      pop\n        /* \"#utility.yul\":8707:8773   */\n      0xffffffffffffffffffffffffffffffffffffffffffffffffffffffffffffffff\n        /* \"#utility.yul\":8700:8705   */\n      dup3\n        /* \"#utility.yul\":8697:8774   */\n      sub\n        /* \"#utility.yul\":8694:8797   */\n      tag_303\n      jumpi\n        /* \"#utility.yul\":8777:8795   */\n      tag_304\n      tag_206\n      jump\t// in\n    tag_304:\n        /* \"#utility.yul\":8694:8797   */\n    tag_303:\n        /* \"#utility.yul\":8824:8825   */\n      0x01\n        /* \"#utility.yul\":8817:8822   */\n      dup3\n        /* \"#utility.yul\":8813:8826   */\n      add\n        /* \"#utility.yul\":8806:8826   */\n      swap1\n      pop\n        /* \"#utility.yul\":8599:8832   */\n      swap2\n      swap1\n      pop\n      jump\t// out\n        /* \"#utility.yul\":8838:9248   */\n    tag_87:\n        /* \"#utility.yul\":8878:8885   */\n      0x00\n        /* \"#utility.yul\":8901:8921   */\n      tag_306\n        /* \"#utility.yul\":8919:8920   */\n      dup3\n        /* \"#utility.yul\":8901:8921   */\n      tag_183\n      jump\t// in\n    tag_306:\n        /* \"#utility.yul\":8896:8921   */\n      swap2\n      pop\n        /* \"#utility.yul\":8935:8955   */\n      tag_307\n        /* \"#utility.yul\":8953:8954   */\n      dup4\n        /* \"#utility.yul\":8935:8955   */\n      tag_183\n      jump\t// in\n    tag_307:\n        /* \"#utility.yul\":8930:8955   */\n      swap3\n      pop\n        /* \"#utility.yul\":8990:8991   */\n      dup3\n        /* \"#utility.yul\":8987:8988   */\n      dup3\n        /* \"#utility.yul\":8983:8992   */\n      mul\n        /* \"#utility.yul\":9012:9042   */\n      tag_308\n        /* \"#utility.yul\":9030:9041   */\n      dup2\n        /* \"#utility.yul\":9012:9042   */\n      tag_183\n      jump\t// in\n    tag_308:\n        /* \"#utility.yul\":9001:9042   */\n      swap2\n      pop\n        /* \"#utility.yul\":9191:9192   */\n      dup3\n        /* \"#utility.yul\":9182:9189   */\n      dup3\n        /* \"#utility.yul\":9178:9193   */\n      div\n        /* \"#utility.yul\":9175:9176   */\n      dup5\n        /* \"#utility.yul\":9172:9194   */\n      eq\n        /* \"#utility.yul\":9152:9153   */\n      dup4\n        /* \"#utility.yul\":9145:9154   */\n      iszero\n        /* \"#utility.yul\":9125:9208   */\n      or\n        /* \"#utility.yul\":9102:9241   */\n      tag_309\n      jumpi\n        /* \"#utility.yul\":9221:9239   */\n      tag_310\n      tag_206\n      jump\t// in\n    tag_310:\n        /* \"#utility.yul\":9102:9241   */\n    tag_309:\n        /* \"#utility.yul\":8886:9248   */\n      pop\n        /* \"#utility.yul\":8838:9248   */\n      swap3\n      swap2\n      pop\n      pop\n      jump\t// out\n        /* \"#utility.yul\":9254:9434   */\n    tag_207:\n        /* \"#utility.yul\":9302:9379   */\n      0x4e487b7100000000000000000000000000000000000000000000000000000000\n        /* \"#utility.yul\":9299:9300   */\n      0x00\n        /* \"#utility.yul\":9292:9380   */\n      mstore\n        /* \"#utility.yul\":9399:9403   */\n      0x12\n        /* \"#utility.yul\":9396:9397   */\n      0x04\n        /* \"#utility.yul\":9389:9404   */\n      mstore\n        /* \"#utility.yul\":9423:9427   */\n      0x24\n        /* \"#utility.yul\":9420:9421   */\n      0x00\n        /* \"#utility.yul\":9413:9428   */\n      revert\n        /* \"#utility.yul\":9440:9625   */\n    tag_89:\n        /* \"#utility.yul\":9480:9481   */\n      0x00\n        /* \"#utility.yul\":9497:9517   */\n      tag_313\n        /* \"#utility.yul\":9515:9516   */\n      dup3\n        /* \"#utility.yul\":9497:9517   */\n      tag_183\n      jump\t// in\n    tag_313:\n        /* \"#utility.yul\":9492:9517   */\n      swap2\n      pop\n        /* \"#utility.yul\":9531:9551   */\n      tag_314\n        /* \"#utility.yul\":9549:9550   */\n      dup4\n        /* \"#utility.yul\":9531:9551   */\n      tag_183\n      jump\t// in\n    tag_314:\n        /* \"#utility.yul\":9526:9551   */\n      swap3\n      pop\n        /* \"#utility.yul\":9570:9571   */\n      dup3\n        /* \"#utility.yul\":9560:9595   */\n      tag_315\n      jumpi\n        /* \"#utility.yul\":9575:9593   */\n      tag_316\n      tag_207\n      jump\t// in\n    tag_316:\n        /* \"#utility.yul\":9560:9595   */\n    tag_315:\n        /* \"#utility.yul\":9617:9618   */\n      dup3\n        /* \"#utility.yul\":9614:9615   */\n      dup3\n        /* \"#utility.yul\":9610:9619   */\n      div\n        /* \"#utility.yul\":9605:9619   */\n      swap1\n      pop\n        /* \"#utility.yul\":9440:9625   */\n      swap3\n      swap2\n      pop\n      pop\n      jump\t// out\n        /* \"#utility.yul\":9631:9822   */\n    tag_91:\n        /* \"#utility.yul\":9671:9674   */\n      0x00\n        /* \"#utility.yul\":9690:9710   */\n      tag_318\n        /* \"#utility.yul\":9708:9709   */\n      dup3\n        /* \"#utility.yul\":9690:9710   */\n      tag_183\n      jump\t// in\n    tag_318:\n        /* \"#utility.yul\":9685:9710   */\n      swap2\n      pop\n        /* \"#utility.yul\":9724:9744   */\n      tag_319\n        /* \"#utility.yul\":9742:9743   */\n      dup4\n        /* \"#utility.yul\":9724:9744   */\n      tag_183\n      jump\t// in\n    tag_319:\n        /* \"#utility.yul\":9719:9744   */\n      swap3\n      pop\n        /* \"#utility.yul\":9767:9768   */\n      dup3\n        /* \"#utility.yul\":9764:9765   */\n      dup3\n        /* \"#utility.yul\":9760:9769   */\n      add\n        /* \"#utility.yul\":9753:9769   */\n      swap1\n      pop\n        /* \"#utility.yul\":9788:9791   */\n      dup1\n        /* \"#utility.yul\":9785:9786   */\n      dup3\n        /* \"#utility.yul\":9782:9792   */\n      gt\n        /* \"#utility.yul\":9779:9815   */\n      iszero\n      tag_320\n      jumpi\n        /* \"#utility.yul\":9795:9813   */\n      tag_321\n      tag_206\n      jump\t// in\n    tag_321:\n        /* \"#utility.yul\":9779:9815   */\n    tag_320:\n        /* \"#utility.yul\":9631:9822   */\n      swap3\n      swap2\n      pop\n      pop\n      jump\t// out\n        /* \"#utility.yul\":9828:9907   */\n    tag_208:\n        /* \"#utility.yul\":9867:9874   */\n      0x00\n        /* \"#utility.yul\":9896:9901   */\n      dup2\n        /* \"#utility.yul\":9885:9901   */\n      swap1\n      pop\n        /* \"#utility.yul\":9828:9907   */\n      swap2\n      swap1\n      pop\n      jump\t// out\n        /* \"#utility.yul\":9913:10070   */\n    tag_209:\n        /* \"#utility.yul\":10018:10063   */\n      tag_324\n        /* \"#utility.yul\":10038:10062   */\n      tag_325\n        /* \"#utility.yul\":10056:10061   */\n      dup3\n        /* \"#utility.yul\":10038:10062   */\n      tag_183\n      jump\t// in\n    tag_325:\n        /* \"#utility.yul\":10018:10063   */\n      tag_208\n      jump\t// in\n    tag_324:\n        /* \"#utility.yul\":10013:10016   */\n      dup3\n        /* \"#utility.yul\":10006:10064   */\n      mstore\n        /* \"#utility.yul\":9913:10070   */\n      pop\n      pop\n      jump\t// out\n        /* \"#utility.yul\":10076:10473   */\n    tag_104:\n        /* \"#utility.yul\":10216:10219   */\n      0x00\n        /* \"#utility.yul\":10231:10306   */\n      tag_327\n        /* \"#utility.yul\":10302:10305   */\n      dup3\n        /* \"#utility.yul\":10293:10299   */\n      dup6\n        /* \"#utility.yul\":10231:10306   */\n      tag_209\n      jump\t// in\n    tag_327:\n        /* \"#utility.yul\":10331:10333   */\n      0x20\n        /* \"#utility.yul\":10326:10329   */\n      dup3\n        /* \"#utility.yul\":10322:10334   */\n      add\n        /* \"#utility.yul\":10315:10334   */\n      swap2\n      pop\n        /* \"#utility.yul\":10344:10419   */\n      tag_328\n        /* \"#utility.yul\":10415:10418   */\n      dup3\n        /* \"#utility.yul\":10406:10412   */\n      dup5\n        /* \"#utility.yul\":10344:10419   */\n      tag_209\n      jump\t// in\n    tag_328:\n        /* \"#utility.yul\":10444:10446   */\n      0x20\n        /* \"#utility.yul\":10439:10442   */\n      dup3\n        /* \"#utility.yul\":10435:10447   */\n      add\n        /* \"#utility.yul\":10428:10447   */\n      swap2\n      pop\n        /* \"#utility.yul\":10464:10467   */\n      dup2\n        /* \"#utility.yul\":10457:10467   */\n      swap1\n      pop\n        /* \"#utility.yul\":10076:10473   */\n      swap4\n      swap3\n      pop\n      pop\n      pop\n      jump\t// out\n        /* \"#utility.yul\":10479:10655   */\n    tag_106:\n        /* \"#utility.yul\":10511:10512   */\n      0x00\n        /* \"#utility.yul\":10528:10548   */\n      tag_330\n        /* \"#utility.yul\":10546:10547   */\n      dup3\n        /* \"#utility.yul\":10528:10548   */\n      tag_183\n      jump\t// in\n    tag_330:\n        /* \"#utility.yul\":10523:10548   */\n      swap2\n      pop\n        /* \"#utility.yul\":10562:10582   */\n      tag_331\n        /* \"#utility.yul\":10580:10581   */\n      dup4\n        /* \"#utility.yul\":10562:10582   */\n      tag_183\n      jump\t// in\n    tag_331:\n        /* \"#utility.yul\":10557:10582   */\n      swap3\n      pop\n        /* \"#utility.yul\":10601:10602   */\n      dup3\n        /* \"#utility.yul\":10591:10626   */\n      tag_332\n      jumpi\n        /* \"#utility.yul\":10606:10624   */\n      tag_333\n      tag_207\n      jump\t// in\n    tag_333:\n        /* \"#utility.yul\":10591:10626   */\n    tag_332:\n        /* \"#utility.yul\":10647:10648   */\n      dup3\n        /* \"#utility.yul\":10644:10645   */\n      dup3\n        /* \"#utility.yul\":10640:10649   */\n      mod\n        /* \"#utility.yul\":10635:10649   */\n      swap1\n      pop\n        /* \"#utility.yul\":10479:10655   */\n      swap3\n      swap2\n      pop\n      pop\n      jump\t// out\n        /* \"#utility.yul\":10661:10826   */\n    tag_210:\n        /* \"#utility.yul\":10801:10818   */\n      0x556e6b6e6f776e20737065636965730000000000000000000000000000000000\n        /* \"#utility.yul\":10797:10798   */\n      0x00\n        /* \"#utility.yul\":10789:10795   */\n      dup3\n        /* \"#utility.yul\":10785:10799   */\n      add\n        /* \"#utility.yul\":10778:10819   */\n      mstore\n        /* \"#utility.yul\":10661:10826   */\n      pop\n      jump\t// out\n        /* \"#utility.yul\":10832:11198   */\n    tag_211:\n        /* \"#utility.yul\":10974:10977   */\n      0x00\n        /* \"#utility.yul\":10995:11062   */\n      tag_336\n        /* \"#utility.yul\":11059:11061   */\n      0x0f\n        /* \"#utility.yul\":11054:11057   */\n      dup4\n        /* \"#utility.yul\":10995:11062   */\n      tag_203\n      jump\t// in\n    tag_336:\n        /* \"#utility.yul\":10988:11062   */\n      swap2\n      pop\n        /* \"#utility.yul\":11071:11164   */\n      tag_337\n        /* \"#utility.yul\":11160:11163   */\n      dup3\n        /* \"#utility.yul\":11071:11164   */\n      tag_210\n      jump\t// in\n    tag_337:\n        /* \"#utility.yul\":11189:11191   */\n      0x20\n        /* \"#utility.yul\":11184:11187   */\n      dup3\n        /* \"#utility.yul\":11180:11192   */\n      add\n        /* \"#utility.yul\":11173:11192   */\n      swap1\n      pop\n        /* \"#utility.yul\":10832:11198   */\n      swap2\n      swap1\n      pop\n      jump\t// out\n        /* \"#utility.yul\":11204:11623   */\n    tag_177:\n        /* \"#utility.yul\":11370:11374   */\n      0x00\n        /* \"#utility.yul\":11408:11410   */\n      0x20\n        /* \"#utility.yul\":11397:11406   */\n      dup3\n        /* \"#utility.yul\":11393:11411   */\n      add\n        /* \"#utility.yul\":11385:11411   */\n      swap1\n      pop\n        /* \"#utility.yul\":11457:11466   */\n      dup2\n        /* \"#utility.yul\":11451:11455   */\n      dup2\n        /* \"#utility.yul\":11447:11467   */\n      sub\n        /* \"#utility.yul\":11443:11444   */\n      0x00\n        /* \"#utility.yul\":11432:11441   */\n      dup4\n        /* \"#utility.yul\":11428:11445   */\n      add\n        /* \"#utility.yul\":11421:11468   */\n      mstore\n        /* \"#utility.yul\":11485:11616   */\n      tag_339\n        /* \"#utility.yul\":11611:11615   */\n      dup2\n        /* \"#utility.yul\":11485:11616   */\n      tag_211\n      jump\t// in\n    tag_339:\n        /* \"#utility.yul\":11477:11616   */\n      swap1\n      pop\n        /* \"#utility.yul\":11204:11623   */\n      swap2\n      swap1\n      pop\n      jump\t// out\n    stop\n    data_1ffc5c99f8ff866cb3cb9bd46d45453badb8f26649052a31a9be49b9b43149da 68747470733a2f2f676174657761792e70696e6174612e636c6f75642f697066732f6261667962656961336c65346173746b6e683270346d626b64357734326a353232746e73653477786b3777356d3777696d6f716470366f757a7079\n    data_3bbf1c81af77207dbf9db8f891697113273de930322fc10149aebcb2d416dad6 68747470733a2f2f676174657761792e70696e6174612e636c6f75642f697066732f626166796265696576377075637a377968377836686169646d7068703569656f6276636664636c6e6c776a71613269767334793335377076776d61\n    data_86e92b1a76e2f297d69c89af4232d1b3e647fd322843457f38b762c99d8ee708 68747470733a2f2f676174657761792e70696e6174612e636c6f75642f697066732f62616679626569676f686f746f6b366b336f6e76746a797970666e626e7a6263736f327163697862777a34776836347670326e336c71376e6b7361\n\n    auxdata: 0xa2646970667358221220784e163e6641f18a2ec75e03d6dd242db0404712511ad6f88d7980a2feaf314664736f6c634300081e0033\n}\n",
				"bytecode": {
					"linkReferences": {},
					"object": "608060405234801561000f575f5ffd5b506040516114d43803806114d4833981810160405281019061003191906100d5565b8060025f6101000a81548173ffffffffffffffffffffffffffffffffffffffff021916908373ffffffffffffffffffffffffffffffffffffffff16021790555050610100565b5f5ffd5b5f73ffffffffffffffffffffffffffffffffffffffff82169050919050565b5f6100a48261007b565b9050919050565b6100b48161009a565b81146100be575f5ffd5b50565b5f815190506100cf816100ab565b92915050565b5f602082840312156100ea576100e9610077565b5b5f6100f7848285016100c1565b91505092915050565b6113c78061010d5f395ff3fe608060405234801561000f575f5ffd5b5060043610610086575f3560e01c80636ec88bbd116100595780636ec88bbd1461012457806372680a7714610154578063a2b7ce6f14610172578063ec1c59551461018e57610086565b806316cb4a051461008a5780631942d199146100ba5780634d2d7881146100d657806361b8ce8c14610106575b5f5ffd5b6100a4600480360381019061009f9190610cab565b6101c2565b6040516100b19190610cf0565b60405180910390f35b6100d460048036038101906100cf9190610d09565b6101df565b005b6100f060048036038101906100eb9190610d6a565b6102cc565b6040516100fd9190610dad565b60405180910390f35b61010e61042e565b60405161011b9190610dd5565b60405180910390f35b61013e60048036038101906101399190610cab565b610434565b60405161014b9190610ed6565b60405180910390f35b61015c6104c8565b6040516101699190610f2e565b60405180910390f35b61018c60048036038101906101879190610cab565b6104ed565b005b6101a860048036038101906101a39190610cab565b6105e9565b6040516101b9959493929190610f56565b60405180910390f35b6003602052805f5260405f205f915054906101000a900460ff1681565b60025f9054906101000a900473ffffffffffffffffffffffffffffffffffffffff1673ffffffffffffffffffffffffffffffffffffffff163373ffffffffffffffffffffffffffffffffffffffff161461026e576040517f08c379a000000000000000000000000000000000000000000000000000000000815260040161026590611001565b60405180910390fd5b610277826104ed565b5f5f5f8481526020019081526020015f20905061029383610626565b818160010154106102bd5781816001015f8282546102b1919061104c565b925050819055506102c7565b5f81600101819055505b505050565b5f60025f9054906101000a900473ffffffffffffffffffffffffffffffffffffffff1673ffffffffffffffffffffffffffffffffffffffff163373ffffffffffffffffffffffffffffffffffffffff161461035c576040517f08c379a000000000000000000000000000000000000000000000000000000000815260040161035390611001565b60405180910390fd5b5f61036683610704565b90506040518060a001604052805f81526020015f8152602001825f0151815260200184600a81111561039b5761039a610dfd565b5b8152602001428152505f5f60015481526020019081526020015f205f820151815f015560208201518160010155604082015181600201556060820151816003015f6101000a81548160ff0219169083600a8111156103fc576103fb610dfd565b5b02179055506080820151816004015590505060015f8154809291906104209061107f565b91905055505f915050919050565b60015481565b61043c610c0d565b610445826104ed565b5f5f8381526020019081526020015f206040518060a00160405290815f82015481526020016001820154815260200160028201548152602001600382015f9054906101000a900460ff16600a8111156104a1576104a0610dfd565b5b600a8111156104b3576104b2610dfd565b5b81526020016004820154815250509050919050565b60025f9054906101000a900473ffffffffffffffffffffffffffffffffffffffff1681565b5f5f5f8381526020019081526020015f2090505f816004015442610511919061104c565b90505f8111156105e4575f610e10610538846003015f9054906101000a900460ff16610704565b604001518361054791906110c6565b6105519190611134565b905080836001015f8282546105669190611164565b925050819055505f610587846003015f9054906101000a900460ff16610704565b60200151905080846001015411156105a3578084600101819055505b5f62015180846105b39190611134565b90505f8111156105d75780855f015f8282546105cf9190611164565b925050819055505b4285600401819055505050505b505050565b5f602052805f5260405f205f91509050805f015490806001015490806002015490806003015f9054906101000a900460ff16908060040154905085565b61062e610c49565b5f5f5f8481526020019081526020015f20905061065a816003015f9054906101000a900460ff16610704565b915060035f8481526020019081526020015f205f9054906101000a900460ff166106ff575f610698826003015f9054906101000a900460ff16610704565b6060015190505f606442866040516020016106b49291906111b7565b604051602081830303815290604052805190602001205f1c6106d691906111e2565b9050818110156106fc576019836002015f8282546106f4919061104c565b925050819055505b50505b505050565b61070c610c49565b5f600a81111561071f5761071e610dfd565b5b82600a81111561073257610731610dfd565b5b03610781576040518060a0016040528060c881526020016096815260200160038152602001600181526020016040518060800160405280605d815260200161127b605d91398152509050610c08565b6001600a81111561079557610794610dfd565b5b82600a8111156107a8576107a7610dfd565b5b036107f7576040518060a0016040528060dc815260200160c8815260200160028152602001600581526020016040518060800160405280605d8152602001611335605d91398152509050610c08565b6002600a81111561080b5761080a610dfd565b5b82600a81111561081e5761081d610dfd565b5b0361086d576040518060a00160405280605081526020016050815260200160038152602001600681526020016040518060800160405280605d81526020016112d8605d91398152509050610c08565b6003600a81111561088157610880610dfd565b5b82600a81111561089457610893610dfd565b5b036108da576040518060a0016040528061012c815260200161012c8152602001600181526020015f815260200160405180602001604052805f8152508152509050610c08565b6004600a8111156108ee576108ed610dfd565b5b82600a81111561090157610900610dfd565b5b03610946576040518060a0016040528060b48152602001605a8152602001600281526020016004815260200160405180602001604052805f8152508152509050610c08565b6005600a81111561095a57610959610dfd565b5b82600a81111561096d5761096c610dfd565b5b036109b2576040518060a001604052806050815260200160468152602001600281526020016008815260200160405180602001604052805f8152508152509050610c08565b6006600a8111156109c6576109c5610dfd565b5b82600a8111156109d9576109d8610dfd565b5b03610a1e576040518060a0016040528060328152602001603c8152602001600481526020016005815260200160405180602001604052805f8152508152509050610c08565b6007600a811115610a3257610a31610dfd565b5b82600a811115610a4557610a44610dfd565b5b03610a8a576040518060a001604052806037815260200160288152602001600381526020016004815260200160405180602001604052805f8152508152509050610c08565b6008600a811115610a9e57610a9d610dfd565b5b82600a811115610ab157610ab0610dfd565b5b03610af6576040518060a00160405280604e815260200160418152602001600281526020016004815260200160405180602001604052805f8152508152509050610c08565b6009600a811115610b0a57610b09610dfd565b5b82600a811115610b1d57610b1c610dfd565b5b03610b62576040518060a001604052806096815260200160648152602001600481526020016003815260200160405180602001604052805f8152508152509050610c08565b600a80811115610b7557610b74610dfd565b5b82600a811115610b8857610b87610dfd565b5b03610bcd576040518060a001604052806023815260200160428152602001600481526020016005815260200160405180602001604052805f8152508152509050610c08565b6040517f08c379a0000000000000000000000000000000000000000000000000000000008152600401610bff9061125c565b60405180910390fd5b919050565b6040518060a001604052805f81526020015f81526020015f81526020015f600a811115610c3d57610c3c610dfd565b5b81526020015f81525090565b6040518060a001604052805f81526020015f81526020015f81526020015f8152602001606081525090565b5f5ffd5b5f819050919050565b610c8a81610c78565b8114610c94575f5ffd5b50565b5f81359050610ca581610c81565b92915050565b5f60208284031215610cc057610cbf610c74565b5b5f610ccd84828501610c97565b91505092915050565b5f8115159050919050565b610cea81610cd6565b82525050565b5f602082019050610d035f830184610ce1565b92915050565b5f5f60408385031215610d1f57610d1e610c74565b5b5f610d2c85828601610c97565b9250506020610d3d85828601610c97565b9150509250929050565b600b8110610d53575f5ffd5b50565b5f81359050610d6481610d47565b92915050565b5f60208284031215610d7f57610d7e610c74565b5b5f610d8c84828501610d56565b91505092915050565b5f819050919050565b610da781610d95565b82525050565b5f602082019050610dc05f830184610d9e565b92915050565b610dcf81610c78565b82525050565b5f602082019050610de85f830184610dc6565b92915050565b610df781610c78565b82525050565b7f4e487b71000000000000000000000000000000000000000000000000000000005f52602160045260245ffd5b600b8110610e3b57610e3a610dfd565b5b50565b5f819050610e4b82610e2a565b919050565b5f610e5a82610e3e565b9050919050565b610e6a81610e50565b82525050565b60a082015f820151610e845f850182610dee565b506020820151610e976020850182610dee565b506040820151610eaa6040850182610dee565b506060820151610ebd6060850182610e61565b506080820151610ed06080850182610dee565b50505050565b5f60a082019050610ee95f830184610e70565b92915050565b5f73ffffffffffffffffffffffffffffffffffffffff82169050919050565b5f610f1882610eef565b9050919050565b610f2881610f0e565b82525050565b5f602082019050610f415f830184610f1f565b92915050565b610f5081610e50565b82525050565b5f60a082019050610f695f830188610dc6565b610f766020830187610dc6565b610f836040830186610dc6565b610f906060830185610f47565b610f9d6080830184610dc6565b9695505050505050565b5f82825260208201905092915050565b7f4f6e6c79205061726b2063616e2063616c6c20746869730000000000000000005f82015250565b5f610feb601783610fa7565b9150610ff682610fb7565b602082019050919050565b5f6020820190508181035f83015261101881610fdf565b9050919050565b7f4e487b71000000000000000000000000000000000000000000000000000000005f52601160045260245ffd5b5f61105682610c78565b915061106183610c78565b92508282039050818111156110795761107861101f565b5b92915050565b5f61108982610c78565b91507fffffffffffffffffffffffffffffffffffffffffffffffffffffffffffffffff82036110bb576110ba61101f565b5b600182019050919050565b5f6110d082610c78565b91506110db83610c78565b92508282026110e981610c78565b91508282048414831517611100576110ff61101f565b5b5092915050565b7f4e487b71000000000000000000000000000000000000000000000000000000005f52601260045260245ffd5b5f61113e82610c78565b915061114983610c78565b92508261115957611158611107565b5b828204905092915050565b5f61116e82610c78565b915061117983610c78565b92508282019050808211156111915761119061101f565b5b92915050565b5f819050919050565b6111b16111ac82610c78565b611197565b82525050565b5f6111c282856111a0565b6020820191506111d282846111a0565b6020820191508190509392505050565b5f6111ec82610c78565b91506111f783610c78565b92508261120757611206611107565b5b828206905092915050565b7f556e6b6e6f776e207370656369657300000000000000000000000000000000005f82015250565b5f611246600f83610fa7565b915061125182611212565b602082019050919050565b5f6020820190508181035f8301526112738161123a565b905091905056fe68747470733a2f2f676174657761792e70696e6174612e636c6f75642f697066732f6261667962656961336c65346173746b6e683270346d626b64357734326a353232746e73653477786b3777356d3777696d6f716470366f757a707968747470733a2f2f676174657761792e70696e6174612e636c6f75642f697066732f626166796265696576377075637a377968377836686169646d7068703569656f6276636664636c6e6c776a71613269767334793335377076776d6168747470733a2f2f676174657761792e70696e6174612e636c6f75642f697066732f62616679626569676f686f746f6b366b336f6e76746a797970666e626e7a6263736f327163697862777a34776836347670326e336c71376e6b7361a2646970667358221220784e163e6641f18a2ec75e03d6dd242db0404712511ad6f88d7980a2feaf314664736f6c634300081e0033",
					"opcodes": "PUSH1 0x80 PUSH1 0x40 MSTORE CALLVALUE DUP1 ISZERO PUSH2 0xF JUMPI PUSH0 PUSH0 REVERT JUMPDEST POP PUSH1 0x40 MLOAD PUSH2 0x14D4 CODESIZE SUB DUP1 PUSH2 0x14D4 DUP4 CODECOPY DUP2 DUP2 ADD PUSH1 0x40 MSTORE DUP2 ADD SWAP1 PUSH2 0x31 SWAP2 SWAP1 PUSH2 0xD5 JUMP JUMPDEST DUP1 PUSH1 0x2 PUSH0 PUSH2 0x100 EXP DUP2 SLOAD DUP2 PUSH20 0xFFFFFFFFFFFFFFFFFFFFFFFFFFFFFFFFFFFFFFFF MUL NOT AND SWAP1 DUP4 PUSH20 0xFFFFFFFFFFFFFFFFFFFFFFFFFFFFFFFFFFFFFFFF AND MUL OR SWAP1 SSTORE POP POP PUSH2 0x100 JUMP JUMPDEST PUSH0 PUSH0 REVERT JUMPDEST PUSH0 PUSH20 0xFFFFFFFFFFFFFFFFFFFFFFFFFFFFFFFFFFFFFFFF DUP3 AND SWAP1 POP SWAP2 SWAP1 POP JUMP JUMPDEST PUSH0 PUSH2 0xA4 DUP3 PUSH2 0x7B JUMP JUMPDEST SWAP1 POP SWAP2 SWAP1 POP JUMP JUMPDEST PUSH2 0xB4 DUP2 PUSH2 0x9A JUMP JUMPDEST DUP2 EQ PUSH2 0xBE JUMPI PUSH0 PUSH0 REVERT JUMPDEST POP JUMP JUMPDEST PUSH0 DUP2 MLOAD SWAP1 POP PUSH2 0xCF DUP2 PUSH2 0xAB JUMP JUMPDEST SWAP3 SWAP2 POP POP JUMP JUMPDEST PUSH0 PUSH1 0x20 DUP3 DUP5 SUB SLT ISZERO PUSH2 0xEA JUMPI PUSH2 0xE9 PUSH2 0x77 JUMP JUMPDEST JUMPDEST PUSH0 PUSH2 0xF7 DUP5 DUP3 DUP6 ADD PUSH2 0xC1 JUMP JUMPDEST SWAP2 POP POP SWAP3 SWAP2 POP POP JUMP JUMPDEST PUSH2 0x13C7 DUP1 PUSH2 0x10D PUSH0 CODECOPY PUSH0 RETURN INVALID PUSH1 0x80 PUSH1 0x40 MSTORE CALLVALUE DUP1 ISZERO PUSH2 0xF JUMPI PUSH0 PUSH0 REVERT JUMPDEST POP PUSH1 0x4 CALLDATASIZE LT PUSH2 0x86 JUMPI PUSH0 CALLDATALOAD PUSH1 0xE0 SHR DUP1 PUSH4 0x6EC88BBD GT PUSH2 0x59 JUMPI DUP1 PUSH4 0x6EC88BBD EQ PUSH2 0x124 JUMPI DUP1 PUSH4 0x72680A77 EQ PUSH2 0x154 JUMPI DUP1 PUSH4 0xA2B7CE6F EQ PUSH2 0x172 JUMPI DUP1 PUSH4 0xEC1C5955 EQ PUSH2 0x18E JUMPI PUSH2 0x86 JUMP JUMPDEST DUP1 PUSH4 0x16CB4A05 EQ PUSH2 0x8A JUMPI DUP1 PUSH4 0x1942D199 EQ PUSH2 0xBA JUMPI DUP1 PUSH4 0x4D2D7881 EQ PUSH2 0xD6 JUMPI DUP1 PUSH4 0x61B8CE8C EQ PUSH2 0x106 JUMPI JUMPDEST PUSH0 PUSH0 REVERT JUMPDEST PUSH2 0xA4 PUSH1 0x4 DUP1 CALLDATASIZE SUB DUP2 ADD SWAP1 PUSH2 0x9F SWAP2 SWAP1 PUSH2 0xCAB JUMP JUMPDEST PUSH2 0x1C2 JUMP JUMPDEST PUSH1 0x40 MLOAD PUSH2 0xB1 SWAP2 SWAP1 PUSH2 0xCF0 JUMP JUMPDEST PUSH1 0x40 MLOAD DUP1 SWAP2 SUB SWAP1 RETURN JUMPDEST PUSH2 0xD4 PUSH1 0x4 DUP1 CALLDATASIZE SUB DUP2 ADD SWAP1 PUSH2 0xCF SWAP2 SWAP1 PUSH2 0xD09 JUMP JUMPDEST PUSH2 0x1DF JUMP JUMPDEST STOP JUMPDEST PUSH2 0xF0 PUSH1 0x4 DUP1 CALLDATASIZE SUB DUP2 ADD SWAP1 PUSH2 0xEB SWAP2 SWAP1 PUSH2 0xD6A JUMP JUMPDEST PUSH2 0x2CC JUMP JUMPDEST PUSH1 0x40 MLOAD PUSH2 0xFD SWAP2 SWAP1 PUSH2 0xDAD JUMP JUMPDEST PUSH1 0x40 MLOAD DUP1 SWAP2 SUB SWAP1 RETURN JUMPDEST PUSH2 0x10E PUSH2 0x42E JUMP JUMPDEST PUSH1 0x40 MLOAD PUSH2 0x11B SWAP2 SWAP1 PUSH2 0xDD5 JUMP JUMPDEST PUSH1 0x40 MLOAD DUP1 SWAP2 SUB SWAP1 RETURN JUMPDEST PUSH2 0x13E PUSH1 0x4 DUP1 CALLDATASIZE SUB DUP2 ADD SWAP1 PUSH2 0x139 SWAP2 SWAP1 PUSH2 0xCAB JUMP JUMPDEST PUSH2 0x434 JUMP JUMPDEST PUSH1 0x40 MLOAD PUSH2 0x14B SWAP2 SWAP1 PUSH2 0xED6 JUMP JUMPDEST PUSH1 0x40 MLOAD DUP1 SWAP2 SUB SWAP1 RETURN JUMPDEST PUSH2 0x15C PUSH2 0x4C8 JUMP JUMPDEST PUSH1 0x40 MLOAD PUSH2 0x169 SWAP2 SWAP1 PUSH2 0xF2E JUMP JUMPDEST PUSH1 0x40 MLOAD DUP1 SWAP2 SUB SWAP1 RETURN JUMPDEST PUSH2 0x18C PUSH1 0x4 DUP1 CALLDATASIZE SUB DUP2 ADD SWAP1 PUSH2 0x187 SWAP2 SWAP1 PUSH2 0xCAB JUMP JUMPDEST PUSH2 0x4ED JUMP JUMPDEST STOP JUMPDEST PUSH2 0x1A8 PUSH1 0x4 DUP1 CALLDATASIZE SUB DUP2 ADD SWAP1 PUSH2 0x1A3 SWAP2 SWAP1 PUSH2 0xCAB JUMP JUMPDEST PUSH2 0x5E9 JUMP JUMPDEST PUSH1 0x40 MLOAD PUSH2 0x1B9 SWAP6 SWAP5 SWAP4 SWAP3 SWAP2 SWAP1 PUSH2 0xF56 JUMP JUMPDEST PUSH1 0x40 MLOAD DUP1 SWAP2 SUB SWAP1 RETURN JUMPDEST PUSH1 0x3 PUSH1 0x20 MSTORE DUP1 PUSH0 MSTORE PUSH1 0x40 PUSH0 KECCAK256 PUSH0 SWAP2 POP SLOAD SWAP1 PUSH2 0x100 EXP SWAP1 DIV PUSH1 0xFF AND DUP2 JUMP JUMPDEST PUSH1 0x2 PUSH0 SWAP1 SLOAD SWAP1 PUSH2 0x100 EXP SWAP1 DIV PUSH20 0xFFFFFFFFFFFFFFFFFFFFFFFFFFFFFFFFFFFFFFFF AND PUSH20 0xFFFFFFFFFFFFFFFFFFFFFFFFFFFFFFFFFFFFFFFF AND CALLER PUSH20 0xFFFFFFFFFFFFFFFFFFFFFFFFFFFFFFFFFFFFFFFF AND EQ PUSH2 0x26E JUMPI PUSH1 0x40 MLOAD PUSH32 0x8C379A000000000000000000000000000000000000000000000000000000000 DUP2 MSTORE PUSH1 0x4 ADD PUSH2 0x265 SWAP1 PUSH2 0x1001 JUMP JUMPDEST PUSH1 0x40 MLOAD DUP1 SWAP2 SUB SWAP1 REVERT JUMPDEST PUSH2 0x277 DUP3 PUSH2 0x4ED JUMP JUMPDEST PUSH0 PUSH0 PUSH0 DUP5 DUP2 MSTORE PUSH1 0x20 ADD SWAP1 DUP2 MSTORE PUSH1 0x20 ADD PUSH0 KECCAK256 SWAP1 POP PUSH2 0x293 DUP4 PUSH2 0x626 JUMP JUMPDEST DUP2 DUP2 PUSH1 0x1 ADD SLOAD LT PUSH2 0x2BD JUMPI DUP2 DUP2 PUSH1 0x1 ADD PUSH0 DUP3 DUP3 SLOAD PUSH2 0x2B1 SWAP2 SWAP1 PUSH2 0x104C JUMP JUMPDEST SWAP3 POP POP DUP2 SWAP1 SSTORE POP PUSH2 0x2C7 JUMP JUMPDEST PUSH0 DUP2 PUSH1 0x1 ADD DUP2 SWAP1 SSTORE POP JUMPDEST POP POP POP JUMP JUMPDEST PUSH0 PUSH1 0x2 PUSH0 SWAP1 SLOAD SWAP1 PUSH2 0x100 EXP SWAP1 DIV PUSH20 0xFFFFFFFFFFFFFFFFFFFFFFFFFFFFFFFFFFFFFFFF AND PUSH20 0xFFFFFFFFFFFFFFFFFFFFFFFFFFFFFFFFFFFFFFFF AND CALLER PUSH20 0xFFFFFFFFFFFFFFFFFFFFFFFFFFFFFFFFFFFFFFFF AND EQ PUSH2 0x35C JUMPI PUSH1 0x40 MLOAD PUSH32 0x8C379A000000000000000000000000000000000000000000000000000000000 DUP2 MSTORE PUSH1 0x4 ADD PUSH2 0x353 SWAP1 PUSH2 0x1001 JUMP JUMPDEST PUSH1 0x40 MLOAD DUP1 SWAP2 SUB SWAP1 REVERT JUMPDEST PUSH0 PUSH2 0x366 DUP4 PUSH2 0x704 JUMP JUMPDEST SWAP1 POP PUSH1 0x40 MLOAD DUP1 PUSH1 0xA0 ADD PUSH1 0x40 MSTORE DUP1 PUSH0 DUP2 MSTORE PUSH1 0x20 ADD PUSH0 DUP2 MSTORE PUSH1 0x20 ADD DUP3 PUSH0 ADD MLOAD DUP2 MSTORE PUSH1 0x20 ADD DUP5 PUSH1 0xA DUP2 GT ISZERO PUSH2 0x39B JUMPI PUSH2 0x39A PUSH2 0xDFD JUMP JUMPDEST JUMPDEST DUP2 MSTORE PUSH1 0x20 ADD TIMESTAMP DUP2 MSTORE POP PUSH0 PUSH0 PUSH1 0x1 SLOAD DUP2 MSTORE PUSH1 0x20 ADD SWAP1 DUP2 MSTORE PUSH1 0x20 ADD PUSH0 KECCAK256 PUSH0 DUP3 ADD MLOAD DUP2 PUSH0 ADD SSTORE PUSH1 0x20 DUP3 ADD MLOAD DUP2 PUSH1 0x1 ADD SSTORE PUSH1 0x40 DUP3 ADD MLOAD DUP2 PUSH1 0x2 ADD SSTORE PUSH1 0x60 DUP3 ADD MLOAD DUP2 PUSH1 0x3 ADD PUSH0 PUSH2 0x100 EXP DUP2 SLOAD DUP2 PUSH1 0xFF MUL NOT AND SWAP1 DUP4 PUSH1 0xA DUP2 GT ISZERO PUSH2 0x3FC JUMPI PUSH2 0x3FB PUSH2 0xDFD JUMP JUMPDEST JUMPDEST MUL OR SWAP1 SSTORE POP PUSH1 0x80 DUP3 ADD MLOAD DUP2 PUSH1 0x4 ADD SSTORE SWAP1 POP POP PUSH1 0x1 PUSH0 DUP2 SLOAD DUP1 SWAP3 SWAP2 SWAP1 PUSH2 0x420 SWAP1 PUSH2 0x107F JUMP JUMPDEST SWAP2 SWAP1 POP SSTORE POP PUSH0 SWAP2 POP POP SWAP2 SWAP1 POP JUMP JUMPDEST PUSH1 0x1 SLOAD DUP2 JUMP JUMPDEST PUSH2 0x43C PUSH2 0xC0D JUMP JUMPDEST PUSH2 0x445 DUP3 PUSH2 0x4ED JUMP JUMPDEST PUSH0 PUSH0 DUP4 DUP2 MSTORE PUSH1 0x20 ADD SWAP1 DUP2 MSTORE PUSH1 0x20 ADD PUSH0 KECCAK256 PUSH1 0x40 MLOAD DUP1 PUSH1 0xA0 ADD PUSH1 0x40 MSTORE SWAP1 DUP2 PUSH0 DUP3 ADD SLOAD DUP2 MSTORE PUSH1 0x20 ADD PUSH1 0x1 DUP3 ADD SLOAD DUP2 MSTORE PUSH1 0x20 ADD PUSH1 0x2 DUP3 ADD SLOAD DUP2 MSTORE PUSH1 0x20 ADD PUSH1 0x3 DUP3 ADD PUSH0 SWAP1 SLOAD SWAP1 PUSH2 0x100 EXP SWAP1 DIV PUSH1 0xFF AND PUSH1 0xA DUP2 GT ISZERO PUSH2 0x4A1 JUMPI PUSH2 0x4A0 PUSH2 0xDFD JUMP JUMPDEST JUMPDEST PUSH1 0xA DUP2 GT ISZERO PUSH2 0x4B3 JUMPI PUSH2 0x4B2 PUSH2 0xDFD JUMP JUMPDEST JUMPDEST DUP2 MSTORE PUSH1 0x20 ADD PUSH1 0x4 DUP3 ADD SLOAD DUP2 MSTORE POP POP SWAP1 POP SWAP2 SWAP1 POP JUMP JUMPDEST PUSH1 0x2 PUSH0 SWAP1 SLOAD SWAP1 PUSH2 0x100 EXP SWAP1 DIV PUSH20 0xFFFFFFFFFFFFFFFFFFFFFFFFFFFFFFFFFFFFFFFF AND DUP2 JUMP JUMPDEST PUSH0 PUSH0 PUSH0 DUP4 DUP2 MSTORE PUSH1 0x20 ADD SWAP1 DUP2 MSTORE PUSH1 0x20 ADD PUSH0 KECCAK256 SWAP1 POP PUSH0 DUP2 PUSH1 0x4 ADD SLOAD TIMESTAMP PUSH2 0x511 SWAP2 SWAP1 PUSH2 0x104C JUMP JUMPDEST SWAP1 POP PUSH0 DUP2 GT ISZERO PUSH2 0x5E4 JUMPI PUSH0 PUSH2 0xE10 PUSH2 0x538 DUP5 PUSH1 0x3 ADD PUSH0 SWAP1 SLOAD SWAP1 PUSH2 0x100 EXP SWAP1 DIV PUSH1 0xFF AND PUSH2 0x704 JUMP JUMPDEST PUSH1 0x40 ADD MLOAD DUP4 PUSH2 0x547 SWAP2 SWAP1 PUSH2 0x10C6 JUMP JUMPDEST PUSH2 0x551 SWAP2 SWAP1 PUSH2 0x1134 JUMP JUMPDEST SWAP1 POP DUP1 DUP4 PUSH1 0x1 ADD PUSH0 DUP3 DUP3 SLOAD PUSH2 0x566 SWAP2 SWAP1 PUSH2 0x1164 JUMP JUMPDEST SWAP3 POP POP DUP2 SWAP1 SSTORE POP PUSH0 PUSH2 0x587 DUP5 PUSH1 0x3 ADD PUSH0 SWAP1 SLOAD SWAP1 PUSH2 0x100 EXP SWAP1 DIV PUSH1 0xFF AND PUSH2 0x704 JUMP JUMPDEST PUSH1 0x20 ADD MLOAD SWAP1 POP DUP1 DUP5 PUSH1 0x1 ADD SLOAD GT ISZERO PUSH2 0x5A3 JUMPI DUP1 DUP5 PUSH1 0x1 ADD DUP2 SWAP1 SSTORE POP JUMPDEST PUSH0 PUSH3 0x15180 DUP5 PUSH2 0x5B3 SWAP2 SWAP1 PUSH2 0x1134 JUMP JUMPDEST SWAP1 POP PUSH0 DUP2 GT ISZERO PUSH2 0x5D7 JUMPI DUP1 DUP6 PUSH0 ADD PUSH0 DUP3 DUP3 SLOAD PUSH2 0x5CF SWAP2 SWAP1 PUSH2 0x1164 JUMP JUMPDEST SWAP3 POP POP DUP2 SWAP1 SSTORE POP JUMPDEST TIMESTAMP DUP6 PUSH1 0x4 ADD DUP2 SWAP1 SSTORE POP POP POP POP JUMPDEST POP POP POP JUMP JUMPDEST PUSH0 PUSH1 0x20 MSTORE DUP1 PUSH0 MSTORE PUSH1 0x40 PUSH0 KECCAK256 PUSH0 SWAP2 POP SWAP1 POP DUP1 PUSH0 ADD SLOAD SWAP1 DUP1 PUSH1 0x1 ADD SLOAD SWAP1 DUP1 PUSH1 0x2 ADD SLOAD SWAP1 DUP1 PUSH1 0x3 ADD PUSH0 SWAP1 SLOAD SWAP1 PUSH2 0x100 EXP SWAP1 DIV PUSH1 0xFF AND SWAP1 DUP1 PUSH1 0x4 ADD SLOAD SWAP1 POP DUP6 JUMP JUMPDEST PUSH2 0x62E PUSH2 0xC49 JUMP JUMPDEST PUSH0 PUSH0 PUSH0 DUP5 DUP2 MSTORE PUSH1 0x20 ADD SWAP1 DUP2 MSTORE PUSH1 0x20 ADD PUSH0 KECCAK256 SWAP1 POP PUSH2 0x65A DUP2 PUSH1 0x3 ADD PUSH0 SWAP1 SLOAD SWAP1 PUSH2 0x100 EXP SWAP1 DIV PUSH1 0xFF AND PUSH2 0x704 JUMP JUMPDEST SWAP2 POP PUSH1 0x3 PUSH0 DUP5 DUP2 MSTORE PUSH1 0x20 ADD SWAP1 DUP2 MSTORE PUSH1 0x20 ADD PUSH0 KECCAK256 PUSH0 SWAP1 SLOAD SWAP1 PUSH2 0x100 EXP SWAP1 DIV PUSH1 0xFF AND PUSH2 0x6FF JUMPI PUSH0 PUSH2 0x698 DUP3 PUSH1 0x3 ADD PUSH0 SWAP1 SLOAD SWAP1 PUSH2 0x100 EXP SWAP1 DIV PUSH1 0xFF AND PUSH2 0x704 JUMP JUMPDEST PUSH1 0x60 ADD MLOAD SWAP1 POP PUSH0 PUSH1 0x64 TIMESTAMP DUP7 PUSH1 0x40 MLOAD PUSH1 0x20 ADD PUSH2 0x6B4 SWAP3 SWAP2 SWAP1 PUSH2 0x11B7 JUMP JUMPDEST PUSH1 0x40 MLOAD PUSH1 0x20 DUP2 DUP4 SUB SUB DUP2 MSTORE SWAP1 PUSH1 0x40 MSTORE DUP1 MLOAD SWAP1 PUSH1 0x20 ADD KECCAK256 PUSH0 SHR PUSH2 0x6D6 SWAP2 SWAP1 PUSH2 0x11E2 JUMP JUMPDEST SWAP1 POP DUP2 DUP2 LT ISZERO PUSH2 0x6FC JUMPI PUSH1 0x19 DUP4 PUSH1 0x2 ADD PUSH0 DUP3 DUP3 SLOAD PUSH2 0x6F4 SWAP2 SWAP1 PUSH2 0x104C JUMP JUMPDEST SWAP3 POP POP DUP2 SWAP1 SSTORE POP JUMPDEST POP POP JUMPDEST POP POP POP JUMP JUMPDEST PUSH2 0x70C PUSH2 0xC49 JUMP JUMPDEST PUSH0 PUSH1 0xA DUP2 GT ISZERO PUSH2 0x71F JUMPI PUSH2 0x71E PUSH2 0xDFD JUMP JUMPDEST JUMPDEST DUP3 PUSH1 0xA DUP2 GT ISZERO PUSH2 0x732 JUMPI PUSH2 0x731 PUSH2 0xDFD JUMP JUMPDEST JUMPDEST SUB PUSH2 0x781 JUMPI PUSH1 0x40 MLOAD DUP1 PUSH1 0xA0 ADD PUSH1 0x40 MSTORE DUP1 PUSH1 0xC8 DUP2 MSTORE PUSH1 0x20 ADD PUSH1 0x96 DUP2 MSTORE PUSH1 0x20 ADD PUSH1 0x3 DUP2 MSTORE PUSH1 0x20 ADD PUSH1 0x1 DUP2 MSTORE PUSH1 0x20 ADD PUSH1 0x40 MLOAD DUP1 PUSH1 0x80 ADD PUSH1 0x40 MSTORE DUP1 PUSH1 0x5D DUP2 MSTORE PUSH1 0x20 ADD PUSH2 0x127B PUSH1 0x5D SWAP2 CODECOPY DUP2 MSTORE POP SWAP1 POP PUSH2 0xC08 JUMP JUMPDEST PUSH1 0x1 PUSH1 0xA DUP2 GT ISZERO PUSH2 0x795 JUMPI PUSH2 0x794 PUSH2 0xDFD JUMP JUMPDEST JUMPDEST DUP3 PUSH1 0xA DUP2 GT ISZERO PUSH2 0x7A8 JUMPI PUSH2 0x7A7 PUSH2 0xDFD JUMP JUMPDEST JUMPDEST SUB PUSH2 0x7F7 JUMPI PUSH1 0x40 MLOAD DUP1 PUSH1 0xA0 ADD PUSH1 0x40 MSTORE DUP1 PUSH1 0xDC DUP2 MSTORE PUSH1 0x20 ADD PUSH1 0xC8 DUP2 MSTORE PUSH1 0x20 ADD PUSH1 0x2 DUP2 MSTORE PUSH1 0x20 ADD PUSH1 0x5 DUP2 MSTORE PUSH1 0x20 ADD PUSH1 0x40 MLOAD DUP1 PUSH1 0x80 ADD PUSH1 0x40 MSTORE DUP1 PUSH1 0x5D DUP2 MSTORE PUSH1 0x20 ADD PUSH2 0x1335 PUSH1 0x5D SWAP2 CODECOPY DUP2 MSTORE POP SWAP1 POP PUSH2 0xC08 JUMP JUMPDEST PUSH1 0x2 PUSH1 0xA DUP2 GT ISZERO PUSH2 0x80B JUMPI PUSH2 0x80A PUSH2 0xDFD JUMP JUMPDEST JUMPDEST DUP3 PUSH1 0xA DUP2 GT ISZERO PUSH2 0x81E JUMPI PUSH2 0x81D PUSH2 0xDFD JUMP JUMPDEST JUMPDEST SUB PUSH2 0x86D JUMPI PUSH1 0x40 MLOAD DUP1 PUSH1 0xA0 ADD PUSH1 0x40 MSTORE DUP1 PUSH1 0x50 DUP2 MSTORE PUSH1 0x20 ADD PUSH1 0x50 DUP2 MSTORE PUSH1 0x20 ADD PUSH1 0x3 DUP2 MSTORE PUSH1 0x20 ADD PUSH1 0x6 DUP2 MSTORE PUSH1 0x20 ADD PUSH1 0x40 MLOAD DUP1 PUSH1 0x80 ADD PUSH1 0x40 MSTORE DUP1 PUSH1 0x5D DUP2 MSTORE PUSH1 0x20 ADD PUSH2 0x12D8 PUSH1 0x5D SWAP2 CODECOPY DUP2 MSTORE POP SWAP1 POP PUSH2 0xC08 JUMP JUMPDEST PUSH1 0x3 PUSH1 0xA DUP2 GT ISZERO PUSH2 0x881 JUMPI PUSH2 0x880 PUSH2 0xDFD JUMP JUMPDEST JUMPDEST DUP3 PUSH1 0xA DUP2 GT ISZERO PUSH2 0x894 JUMPI PUSH2 0x893 PUSH2 0xDFD JUMP JUMPDEST JUMPDEST SUB PUSH2 0x8DA JUMPI PUSH1 0x40 MLOAD DUP1 PUSH1 0xA0 ADD PUSH1 0x40 MSTORE DUP1 PUSH2 0x12C DUP2 MSTORE PUSH1 0x20 ADD PUSH2 0x12C DUP2 MSTORE PUSH1 0x20 ADD PUSH1 0x1 DUP2 MSTORE PUSH1 0x20 ADD PUSH0 DUP2 MSTORE PUSH1 0x20 ADD PUSH1 0x40 MLOAD DUP1 PUSH1 0x20 ADD PUSH1 0x40 MSTORE DUP1 PUSH0 DUP2 MSTORE POP DUP2 MSTORE POP SWAP1 POP PUSH2 0xC08 JUMP JUMPDEST PUSH1 0x4 PUSH1 0xA DUP2 GT ISZERO PUSH2 0x8EE JUMPI PUSH2 0x8ED PUSH2 0xDFD JUMP JUMPDEST JUMPDEST DUP3 PUSH1 0xA DUP2 GT ISZERO PUSH2 0x901 JUMPI PUSH2 0x900 PUSH2 0xDFD JUMP JUMPDEST JUMPDEST SUB PUSH2 0x946 JUMPI PUSH1 0x40 MLOAD DUP1 PUSH1 0xA0 ADD PUSH1 0x40 MSTORE DUP1 PUSH1 0xB4 DUP2 MSTORE PUSH1 0x20 ADD PUSH1 0x5A DUP2 MSTORE PUSH1 0x20 ADD PUSH1 0x2 DUP2 MSTORE PUSH1 0x20 ADD PUSH1 0x4 DUP2 MSTORE PUSH1 0x20 ADD PUSH1 0x40 MLOAD DUP1 PUSH1 0x20 ADD PUSH1 0x40 MSTORE DUP1 PUSH0 DUP2 MSTORE POP DUP2 MSTORE POP SWAP1 POP PUSH2 0xC08 JUMP JUMPDEST PUSH1 0x5 PUSH1 0xA DUP2 GT ISZERO PUSH2 0x95A JUMPI PUSH2 0x959 PUSH2 0xDFD JUMP JUMPDEST JUMPDEST DUP3 PUSH1 0xA DUP2 GT ISZERO PUSH2 0x96D JUMPI PUSH2 0x96C PUSH2 0xDFD JUMP JUMPDEST JUMPDEST SUB PUSH2 0x9B2 JUMPI PUSH1 0x40 MLOAD DUP1 PUSH1 0xA0 ADD PUSH1 0x40 MSTORE DUP1 PUSH1 0x50 DUP2 MSTORE PUSH1 0x20 ADD PUSH1 0x46 DUP2 MSTORE PUSH1 0x20 ADD PUSH1 0x2 DUP2 MSTORE PUSH1 0x20 ADD PUSH1 0x8 DUP2 MSTORE PUSH1 0x20 ADD PUSH1 0x40 MLOAD DUP1 PUSH1 0x20 ADD PUSH1 0x40 MSTORE DUP1 PUSH0 DUP2 MSTORE POP DUP2 MSTORE POP SWAP1 POP PUSH2 0xC08 JUMP JUMPDEST PUSH1 0x6 PUSH1 0xA DUP2 GT ISZERO PUSH2 0x9C6 JUMPI PUSH2 0x9C5 PUSH2 0xDFD JUMP JUMPDEST JUMPDEST DUP3 PUSH1 0xA DUP2 GT ISZERO PUSH2 0x9D9 JUMPI PUSH2 0x9D8 PUSH2 0xDFD JUMP JUMPDEST JUMPDEST SUB PUSH2 0xA1E JUMPI PUSH1 0x40 MLOAD DUP1 PUSH1 0xA0 ADD PUSH1 0x40 MSTORE DUP1 PUSH1 0x32 DUP2 MSTORE PUSH1 0x20 ADD PUSH1 0x3C DUP2 MSTORE PUSH1 0x20 ADD PUSH1 0x4 DUP2 MSTORE PUSH1 0x20 ADD PUSH1 0x5 DUP2 MSTORE PUSH1 0x20 ADD PUSH1 0x40 MLOAD DUP1 PUSH1 0x20 ADD PUSH1 0x40 MSTORE DUP1 PUSH0 DUP2 MSTORE POP DUP2 MSTORE POP SWAP1 POP PUSH2 0xC08 JUMP JUMPDEST PUSH1 0x7 PUSH1 0xA DUP2 GT ISZERO PUSH2 0xA32 JUMPI PUSH2 0xA31 PUSH2 0xDFD JUMP JUMPDEST JUMPDEST DUP3 PUSH1 0xA DUP2 GT ISZERO PUSH2 0xA45 JUMPI PUSH2 0xA44 PUSH2 0xDFD JUMP JUMPDEST JUMPDEST SUB PUSH2 0xA8A JUMPI PUSH1 0x40 MLOAD DUP1 PUSH1 0xA0 ADD PUSH1 0x40 MSTORE DUP1 PUSH1 0x37 DUP2 MSTORE PUSH1 0x20 ADD PUSH1 0x28 DUP2 MSTORE PUSH1 0x20 ADD PUSH1 0x3 DUP2 MSTORE PUSH1 0x20 ADD PUSH1 0x4 DUP2 MSTORE PUSH1 0x20 ADD PUSH1 0x40 MLOAD DUP1 PUSH1 0x20 ADD PUSH1 0x40 MSTORE DUP1 PUSH0 DUP2 MSTORE POP DUP2 MSTORE POP SWAP1 POP PUSH2 0xC08 JUMP JUMPDEST PUSH1 0x8 PUSH1 0xA DUP2 GT ISZERO PUSH2 0xA9E JUMPI PUSH2 0xA9D PUSH2 0xDFD JUMP JUMPDEST JUMPDEST DUP3 PUSH1 0xA DUP2 GT ISZERO PUSH2 0xAB1 JUMPI PUSH2 0xAB0 PUSH2 0xDFD JUMP JUMPDEST JUMPDEST SUB PUSH2 0xAF6 JUMPI PUSH1 0x40 MLOAD DUP1 PUSH1 0xA0 ADD PUSH1 0x40 MSTORE DUP1 PUSH1 0x4E DUP2 MSTORE PUSH1 0x20 ADD PUSH1 0x41 DUP2 MSTORE PUSH1 0x20 ADD PUSH1 0x2 DUP2 MSTORE PUSH1 0x20 ADD PUSH1 0x4 DUP2 MSTORE PUSH1 0x20 ADD PUSH1 0x40 MLOAD DUP1 PUSH1 0x20 ADD PUSH1 0x40 MSTORE DUP1 PUSH0 DUP2 MSTORE POP DUP2 MSTORE POP SWAP1 POP PUSH2 0xC08 JUMP JUMPDEST PUSH1 0x9 PUSH1 0xA DUP2 GT ISZERO PUSH2 0xB0A JUMPI PUSH2 0xB09 PUSH2 0xDFD JUMP JUMPDEST JUMPDEST DUP3 PUSH1 0xA DUP2 GT ISZERO PUSH2 0xB1D JUMPI PUSH2 0xB1C PUSH2 0xDFD JUMP JUMPDEST JUMPDEST SUB PUSH2 0xB62 JUMPI PUSH1 0x40 MLOAD DUP1 PUSH1 0xA0 ADD PUSH1 0x40 MSTORE DUP1 PUSH1 0x96 DUP2 MSTORE PUSH1 0x20 ADD PUSH1 0x64 DUP2 MSTORE PUSH1 0x20 ADD PUSH1 0x4 DUP2 MSTORE PUSH1 0x20 ADD PUSH1 0x3 DUP2 MSTORE PUSH1 0x20 ADD PUSH1 0x40 MLOAD DUP1 PUSH1 0x20 ADD PUSH1 0x40 MSTORE DUP1 PUSH0 DUP2 MSTORE POP DUP2 MSTORE POP SWAP1 POP PUSH2 0xC08 JUMP JUMPDEST PUSH1 0xA DUP1 DUP2 GT ISZERO PUSH2 0xB75 JUMPI PUSH2 0xB74 PUSH2 0xDFD JUMP JUMPDEST JUMPDEST DUP3 PUSH1 0xA DUP2 GT ISZERO PUSH2 0xB88 JUMPI PUSH2 0xB87 PUSH2 0xDFD JUMP JUMPDEST JUMPDEST SUB PUSH2 0xBCD JUMPI PUSH1 0x40 MLOAD DUP1 PUSH1 0xA0 ADD PUSH1 0x40 MSTORE DUP1 PUSH1 0x23 DUP2 MSTORE PUSH1 0x20 ADD PUSH1 0x42 DUP2 MSTORE PUSH1 0x20 ADD PUSH1 0x4 DUP2 MSTORE PUSH1 0x20 ADD PUSH1 0x5 DUP2 MSTORE PUSH1 0x20 ADD PUSH1 0x40 MLOAD DUP1 PUSH1 0x20 ADD PUSH1 0x40 MSTORE DUP1 PUSH0 DUP2 MSTORE POP DUP2 MSTORE POP SWAP1 POP PUSH2 0xC08 JUMP JUMPDEST PUSH1 0x40 MLOAD PUSH32 0x8C379A000000000000000000000000000000000000000000000000000000000 DUP2 MSTORE PUSH1 0x4 ADD PUSH2 0xBFF SWAP1 PUSH2 0x125C JUMP JUMPDEST PUSH1 0x40 MLOAD DUP1 SWAP2 SUB SWAP1 REVERT JUMPDEST SWAP2 SWAP1 POP JUMP JUMPDEST PUSH1 0x40 MLOAD DUP1 PUSH1 0xA0 ADD PUSH1 0x40 MSTORE DUP1 PUSH0 DUP2 MSTORE PUSH1 0x20 ADD PUSH0 DUP2 MSTORE PUSH1 0x20 ADD PUSH0 DUP2 MSTORE PUSH1 0x20 ADD PUSH0 PUSH1 0xA DUP2 GT ISZERO PUSH2 0xC3D JUMPI PUSH2 0xC3C PUSH2 0xDFD JUMP JUMPDEST JUMPDEST DUP2 MSTORE PUSH1 0x20 ADD PUSH0 DUP2 MSTORE POP SWAP1 JUMP JUMPDEST PUSH1 0x40 MLOAD DUP1 PUSH1 0xA0 ADD PUSH1 0x40 MSTORE DUP1 PUSH0 DUP2 MSTORE PUSH1 0x20 ADD PUSH0 DUP2 MSTORE PUSH1 0x20 ADD PUSH0 DUP2 MSTORE PUSH1 0x20 ADD PUSH0 DUP2 MSTORE PUSH1 0x20 ADD PUSH1 0x60 DUP2 MSTORE POP SWAP1 JUMP JUMPDEST PUSH0 PUSH0 REVERT JUMPDEST PUSH0 DUP2 SWAP1 POP SWAP2 SWAP1 POP JUMP JUMPDEST PUSH2 0xC8A DUP2 PUSH2 0xC78 JUMP JUMPDEST DUP2 EQ PUSH2 0xC94 JUMPI PUSH0 PUSH0 REVERT JUMPDEST POP JUMP JUMPDEST PUSH0 DUP2 CALLDATALOAD SWAP1 POP PUSH2 0xCA5 DUP2 PUSH2 0xC81 JUMP JUMPDEST SWAP3 SWAP2 POP POP JUMP JUMPDEST PUSH0 PUSH1 0x20 DUP3 DUP5 SUB SLT ISZERO PUSH2 0xCC0 JUMPI PUSH2 0xCBF PUSH2 0xC74 JUMP JUMPDEST JUMPDEST PUSH0 PUSH2 0xCCD DUP5 DUP3 DUP6 ADD PUSH2 0xC97 JUMP JUMPDEST SWAP2 POP POP SWAP3 SWAP2 POP POP JUMP JUMPDEST PUSH0 DUP2 ISZERO ISZERO SWAP1 POP SWAP2 SWAP1 POP JUMP JUMPDEST PUSH2 0xCEA DUP2 PUSH2 0xCD6 JUMP JUMPDEST DUP3 MSTORE POP POP JUMP JUMPDEST PUSH0 PUSH1 0x20 DUP3 ADD SWAP1 POP PUSH2 0xD03 PUSH0 DUP4 ADD DUP5 PUSH2 0xCE1 JUMP JUMPDEST SWAP3 SWAP2 POP POP JUMP JUMPDEST PUSH0 PUSH0 PUSH1 0x40 DUP4 DUP6 SUB SLT ISZERO PUSH2 0xD1F JUMPI PUSH2 0xD1E PUSH2 0xC74 JUMP JUMPDEST JUMPDEST PUSH0 PUSH2 0xD2C DUP6 DUP3 DUP7 ADD PUSH2 0xC97 JUMP JUMPDEST SWAP3 POP POP PUSH1 0x20 PUSH2 0xD3D DUP6 DUP3 DUP7 ADD PUSH2 0xC97 JUMP JUMPDEST SWAP2 POP POP SWAP3 POP SWAP3 SWAP1 POP JUMP JUMPDEST PUSH1 0xB DUP2 LT PUSH2 0xD53 JUMPI PUSH0 PUSH0 REVERT JUMPDEST POP JUMP JUMPDEST PUSH0 DUP2 CALLDATALOAD SWAP1 POP PUSH2 0xD64 DUP2 PUSH2 0xD47 JUMP JUMPDEST SWAP3 SWAP2 POP POP JUMP JUMPDEST PUSH0 PUSH1 0x20 DUP3 DUP5 SUB SLT ISZERO PUSH2 0xD7F JUMPI PUSH2 0xD7E PUSH2 0xC74 JUMP JUMPDEST JUMPDEST PUSH0 PUSH2 0xD8C DUP5 DUP3 DUP6 ADD PUSH2 0xD56 JUMP JUMPDEST SWAP2 POP POP SWAP3 SWAP2 POP POP JUMP JUMPDEST PUSH0 DUP2 SWAP1 POP SWAP2 SWAP1 POP JUMP JUMPDEST PUSH2 0xDA7 DUP2 PUSH2 0xD95 JUMP JUMPDEST DUP3 MSTORE POP POP JUMP JUMPDEST PUSH0 PUSH1 0x20 DUP3 ADD SWAP1 POP PUSH2 0xDC0 PUSH0 DUP4 ADD DUP5 PUSH2 0xD9E JUMP JUMPDEST SWAP3 SWAP2 POP POP JUMP JUMPDEST PUSH2 0xDCF DUP2 PUSH2 0xC78 JUMP JUMPDEST DUP3 MSTORE POP POP JUMP JUMPDEST PUSH0 PUSH1 0x20 DUP3 ADD SWAP1 POP PUSH2 0xDE8 PUSH0 DUP4 ADD DUP5 PUSH2 0xDC6 JUMP JUMPDEST SWAP3 SWAP2 POP POP JUMP JUMPDEST PUSH2 0xDF7 DUP2 PUSH2 0xC78 JUMP JUMPDEST DUP3 MSTORE POP POP JUMP JUMPDEST PUSH32 0x4E487B7100000000000000000000000000000000000000000000000000000000 PUSH0 MSTORE PUSH1 0x21 PUSH1 0x4 MSTORE PUSH1 0x24 PUSH0 REVERT JUMPDEST PUSH1 0xB DUP2 LT PUSH2 0xE3B JUMPI PUSH2 0xE3A PUSH2 0xDFD JUMP JUMPDEST JUMPDEST POP JUMP JUMPDEST PUSH0 DUP2 SWAP1 POP PUSH2 0xE4B DUP3 PUSH2 0xE2A JUMP JUMPDEST SWAP2 SWAP1 POP JUMP JUMPDEST PUSH0 PUSH2 0xE5A DUP3 PUSH2 0xE3E JUMP JUMPDEST SWAP1 POP SWAP2 SWAP1 POP JUMP JUMPDEST PUSH2 0xE6A DUP2 PUSH2 0xE50 JUMP JUMPDEST DUP3 MSTORE POP POP JUMP JUMPDEST PUSH1 0xA0 DUP3 ADD PUSH0 DUP3 ADD MLOAD PUSH2 0xE84 PUSH0 DUP6 ADD DUP3 PUSH2 0xDEE JUMP JUMPDEST POP PUSH1 0x20 DUP3 ADD MLOAD PUSH2 0xE97 PUSH1 0x20 DUP6 ADD DUP3 PUSH2 0xDEE JUMP JUMPDEST POP PUSH1 0x40 DUP3 ADD MLOAD PUSH2 0xEAA PUSH1 0x40 DUP6 ADD DUP3 PUSH2 0xDEE JUMP JUMPDEST POP PUSH1 0x60 DUP3 ADD MLOAD PUSH2 0xEBD PUSH1 0x60 DUP6 ADD DUP3 PUSH2 0xE61 JUMP JUMPDEST POP PUSH1 0x80 DUP3 ADD MLOAD PUSH2 0xED0 PUSH1 0x80 DUP6 ADD DUP3 PUSH2 0xDEE JUMP JUMPDEST POP POP POP POP JUMP JUMPDEST PUSH0 PUSH1 0xA0 DUP3 ADD SWAP1 POP PUSH2 0xEE9 PUSH0 DUP4 ADD DUP5 PUSH2 0xE70 JUMP JUMPDEST SWAP3 SWAP2 POP POP JUMP JUMPDEST PUSH0 PUSH20 0xFFFFFFFFFFFFFFFFFFFFFFFFFFFFFFFFFFFFFFFF DUP3 AND SWAP1 POP SWAP2 SWAP1 POP JUMP JUMPDEST PUSH0 PUSH2 0xF18 DUP3 PUSH2 0xEEF JUMP JUMPDEST SWAP1 POP SWAP2 SWAP1 POP JUMP JUMPDEST PUSH2 0xF28 DUP2 PUSH2 0xF0E JUMP JUMPDEST DUP3 MSTORE POP POP JUMP JUMPDEST PUSH0 PUSH1 0x20 DUP3 ADD SWAP1 POP PUSH2 0xF41 PUSH0 DUP4 ADD DUP5 PUSH2 0xF1F JUMP JUMPDEST SWAP3 SWAP2 POP POP JUMP JUMPDEST PUSH2 0xF50 DUP2 PUSH2 0xE50 JUMP JUMPDEST DUP3 MSTORE POP POP JUMP JUMPDEST PUSH0 PUSH1 0xA0 DUP3 ADD SWAP1 POP PUSH2 0xF69 PUSH0 DUP4 ADD DUP9 PUSH2 0xDC6 JUMP JUMPDEST PUSH2 0xF76 PUSH1 0x20 DUP4 ADD DUP8 PUSH2 0xDC6 JUMP JUMPDEST PUSH2 0xF83 PUSH1 0x40 DUP4 ADD DUP7 PUSH2 0xDC6 JUMP JUMPDEST PUSH2 0xF90 PUSH1 0x60 DUP4 ADD DUP6 PUSH2 0xF47 JUMP JUMPDEST PUSH2 0xF9D PUSH1 0x80 DUP4 ADD DUP5 PUSH2 0xDC6 JUMP JUMPDEST SWAP7 SWAP6 POP POP POP POP POP POP JUMP JUMPDEST PUSH0 DUP3 DUP3 MSTORE PUSH1 0x20 DUP3 ADD SWAP1 POP SWAP3 SWAP2 POP POP JUMP JUMPDEST PUSH32 0x4F6E6C79205061726B2063616E2063616C6C2074686973000000000000000000 PUSH0 DUP3 ADD MSTORE POP JUMP JUMPDEST PUSH0 PUSH2 0xFEB PUSH1 0x17 DUP4 PUSH2 0xFA7 JUMP JUMPDEST SWAP2 POP PUSH2 0xFF6 DUP3 PUSH2 0xFB7 JUMP JUMPDEST PUSH1 0x20 DUP3 ADD SWAP1 POP SWAP2 SWAP1 POP JUMP JUMPDEST PUSH0 PUSH1 0x20 DUP3 ADD SWAP1 POP DUP2 DUP2 SUB PUSH0 DUP4 ADD MSTORE PUSH2 0x1018 DUP2 PUSH2 0xFDF JUMP JUMPDEST SWAP1 POP SWAP2 SWAP1 POP JUMP JUMPDEST PUSH32 0x4E487B7100000000000000000000000000000000000000000000000000000000 PUSH0 MSTORE PUSH1 0x11 PUSH1 0x4 MSTORE PUSH1 0x24 PUSH0 REVERT JUMPDEST PUSH0 PUSH2 0x1056 DUP3 PUSH2 0xC78 JUMP JUMPDEST SWAP2 POP PUSH2 0x1061 DUP4 PUSH2 0xC78 JUMP JUMPDEST SWAP3 POP DUP3 DUP3 SUB SWAP1 POP DUP2 DUP2 GT ISZERO PUSH2 0x1079 JUMPI PUSH2 0x1078 PUSH2 0x101F JUMP JUMPDEST JUMPDEST SWAP3 SWAP2 POP POP JUMP JUMPDEST PUSH0 PUSH2 0x1089 DUP3 PUSH2 0xC78 JUMP JUMPDEST SWAP2 POP PUSH32 0xFFFFFFFFFFFFFFFFFFFFFFFFFFFFFFFFFFFFFFFFFFFFFFFFFFFFFFFFFFFFFFFF DUP3 SUB PUSH2 0x10BB JUMPI PUSH2 0x10BA PUSH2 0x101F JUMP JUMPDEST JUMPDEST PUSH1 0x1 DUP3 ADD SWAP1 POP SWAP2 SWAP1 POP JUMP JUMPDEST PUSH0 PUSH2 0x10D0 DUP3 PUSH2 0xC78 JUMP JUMPDEST SWAP2 POP PUSH2 0x10DB DUP4 PUSH2 0xC78 JUMP JUMPDEST SWAP3 POP DUP3 DUP3 MUL PUSH2 0x10E9 DUP2 PUSH2 0xC78 JUMP JUMPDEST SWAP2 POP DUP3 DUP3 DIV DUP5 EQ DUP4 ISZERO OR PUSH2 0x1100 JUMPI PUSH2 0x10FF PUSH2 0x101F JUMP JUMPDEST JUMPDEST POP SWAP3 SWAP2 POP POP JUMP JUMPDEST PUSH32 0x4E487B7100000000000000000000000000000000000000000000000000000000 PUSH0 MSTORE PUSH1 0x12 PUSH1 0x4 MSTORE PUSH1 0x24 PUSH0 REVERT JUMPDEST PUSH0 PUSH2 0x113E DUP3 PUSH2 0xC78 JUMP JUMPDEST SWAP2 POP PUSH2 0x1149 DUP4 PUSH2 0xC78 JUMP JUMPDEST SWAP3 POP DUP3 PUSH2 0x1159 JUMPI PUSH2 0x1158 PUSH2 0x1107 JUMP JUMPDEST JUMPDEST DUP3 DUP3 DIV SWAP1 POP SWAP3 SWAP2 POP POP JUMP JUMPDEST PUSH0 PUSH2 0x116E DUP3 PUSH2 0xC78 JUMP JUMPDEST SWAP2 POP PUSH2 0x1179 DUP4 PUSH2 0xC78 JUMP JUMPDEST SWAP3 POP DUP3 DUP3 ADD SWAP1 POP DUP1 DUP3 GT ISZERO PUSH2 0x1191 JUMPI PUSH2 0x1190 PUSH2 0x101F JUMP JUMPDEST JUMPDEST SWAP3 SWAP2 POP POP JUMP JUMPDEST PUSH0 DUP2 SWAP1 POP SWAP2 SWAP1 POP JUMP JUMPDEST PUSH2 0x11B1 PUSH2 0x11AC DUP3 PUSH2 0xC78 JUMP JUMPDEST PUSH2 0x1197 JUMP JUMPDEST DUP3 MSTORE POP POP JUMP JUMPDEST PUSH0 PUSH2 0x11C2 DUP3 DUP6 PUSH2 0x11A0 JUMP JUMPDEST PUSH1 0x20 DUP3 ADD SWAP2 POP PUSH2 0x11D2 DUP3 DUP5 PUSH2 0x11A0 JUMP JUMPDEST PUSH1 0x20 DUP3 ADD SWAP2 POP DUP2 SWAP1 POP SWAP4 SWAP3 POP POP POP JUMP JUMPDEST PUSH0 PUSH2 0x11EC DUP3 PUSH2 0xC78 JUMP JUMPDEST SWAP2 POP PUSH2 0x11F7 DUP4 PUSH2 0xC78 JUMP JUMPDEST SWAP3 POP DUP3 PUSH2 0x1207 JUMPI PUSH2 0x1206 PUSH2 0x1107 JUMP JUMPDEST JUMPDEST DUP3 DUP3 MOD SWAP1 POP SWAP3 SWAP2 POP POP JUMP JUMPDEST PUSH32 0x556E6B6E6F776E20737065636965730000000000000000000000000000000000 PUSH0 DUP3 ADD MSTORE POP JUMP JUMPDEST PUSH0 PUSH2 0x1246 PUSH1 0xF DUP4 PUSH2 0xFA7 JUMP JUMPDEST SWAP2 POP PUSH2 0x1251 DUP3 PUSH2 0x1212 JUMP JUMPDEST PUSH1 0x20 DUP3 ADD SWAP1 POP SWAP2 SWAP1 POP JUMP JUMPDEST PUSH0 PUSH1 0x20 DUP3 ADD SWAP1 POP DUP2 DUP2 SUB PUSH0 DUP4 ADD MSTORE PUSH2 0x1273 DUP2 PUSH2 0x123A JUMP JUMPDEST SWAP1 POP SWAP2 SWAP1 POP JUMP INVALID PUSH9 0x747470733A2F2F6761 PUSH21 0x657761792E70696E6174612E636C6F75642F697066 PUSH20 0x2F6261667962656961336C65346173746B6E6832 PUSH17 0x346D626B64357734326A353232746E7365 CALLVALUE PUSH24 0x786B3777356D3777696D6F716470366F757A707968747470 PUSH20 0x3A2F2F676174657761792E70696E6174612E636C PUSH16 0x75642F697066732F6261667962656965 PUSH23 0x377075637A377968377836686169646D7068703569656F PUSH3 0x766366 PUSH5 0x636C6E6C77 PUSH11 0x7161326976733479333537 PUSH17 0x76776D6168747470733A2F2F6761746577 PUSH2 0x792E PUSH17 0x696E6174612E636C6F75642F697066732F PUSH3 0x616679 PUSH3 0x656967 PUSH16 0x686F746F6B366B336F6E76746A797970 PUSH7 0x6E626E7A626373 PUSH16 0x327163697862777A3477683634767032 PUSH15 0x336C71376E6B7361A2646970667358 0x22 SLT KECCAK256 PUSH25 0x4E163E6641F18A2EC75E03D6DD242DB0404712511AD6F88D79 DUP1 LOG2 INVALID 0xAF BALANCE CHAINID PUSH5 0x736F6C6343 STOP ADDMOD 0x1E STOP CALLER "
				},
				"gasEstimates": {
					"creation": {
						"codeDepositCost": "1012600",
						"executionCost": "infinite",
						"totalCost": "infinite"
					},
					"external": {
						"birds(uint256)": "infinite",
						"feedBird(uint256,uint256)": "infinite",
						"getBird(uint256)": "infinite",
						"insured(uint256)": "2786",
						"mintBird(uint8)": "109188",
						"nextId()": "2492",
						"parkContract()": "2530",
						"updateHungerAndAge(uint256)": "infinite"
					},
					"internal": {
						"randomPoisoning(uint256)": "infinite"
					}
				},
				"methodIdentifiers": {
					"birds(uint256)": "ec1c5955",
					"feedBird(uint256,uint256)": "1942d199",
					"getBird(uint256)": "6ec88bbd",
					"insured(uint256)": "16cb4a05",
					"mintBird(uint8)": "4d2d7881",
					"nextId()": "61b8ce8c",
					"parkContract()": "72680a77",
					"updateHungerAndAge(uint256)": "a2b7ce6f"
				}
			},
			"storageLayout": {
				"storage": [
					{
						"astId": 23,
						"contract": "contracts/Ptak.sol:Ptak",
						"label": "birds",
						"offset": 0,
						"slot": "0",
						"type": "t_mapping(t_uint256,t_struct(BirdData)18_storage)"
					},
					{
						"astId": 25,
						"contract": "contracts/Ptak.sol:Ptak",
						"label": "nextId",
						"offset": 0,
						"slot": "1",
						"type": "t_uint256"
					},
					{
						"astId": 27,
						"contract": "contracts/Ptak.sol:Ptak",
						"label": "parkContract",
						"offset": 0,
						"slot": "2",
						"type": "t_address"
					},
					{
						"astId": 31,
						"contract": "contracts/Ptak.sol:Ptak",
						"label": "insured",
						"offset": 0,
						"slot": "3",
						"type": "t_mapping(t_uint256,t_bool)"
					}
				],
				"types": {
					"t_address": {
						"encoding": "inplace",
						"label": "address",
						"numberOfBytes": "20"
					},
					"t_bool": {
						"encoding": "inplace",
						"label": "bool",
						"numberOfBytes": "1"
					},
					"t_enum(Species)331": {
						"encoding": "inplace",
						"label": "enum SpeciesLibrary.Species",
						"numberOfBytes": "1"
					},
					"t_mapping(t_uint256,t_bool)": {
						"encoding": "mapping",
						"key": "t_uint256",
						"label": "mapping(uint256 => bool)",
						"numberOfBytes": "32",
						"value": "t_bool"
					},
					"t_mapping(t_uint256,t_struct(BirdData)18_storage)": {
						"encoding": "mapping",
						"key": "t_uint256",
						"label": "mapping(uint256 => struct Ptak.BirdData)",
						"numberOfBytes": "32",
						"value": "t_struct(BirdData)18_storage"
					},
					"t_struct(BirdData)18_storage": {
						"encoding": "inplace",
						"label": "struct Ptak.BirdData",
						"members": [
							{
								"astId": 8,
								"contract": "contracts/Ptak.sol:Ptak",
								"label": "age",
								"offset": 0,
								"slot": "0",
								"type": "t_uint256"
							},
							{
								"astId": 10,
								"contract": "contracts/Ptak.sol:Ptak",
								"label": "hunger",
								"offset": 0,
								"slot": "1",
								"type": "t_uint256"
							},
							{
								"astId": 12,
								"contract": "contracts/Ptak.sol:Ptak",
								"label": "health",
								"offset": 0,
								"slot": "2",
								"type": "t_uint256"
							},
							{
								"astId": 15,
								"contract": "contracts/Ptak.sol:Ptak",
								"label": "species",
								"offset": 0,
								"slot": "3",
								"type": "t_enum(Species)331"
							},
							{
								"astId": 17,
								"contract": "contracts/Ptak.sol:Ptak",
								"label": "lastUpdateTime",
								"offset": 0,
								"slot": "4",
								"type": "t_uint256"
							}
						],
						"numberOfBytes": "160"
					},
					"t_uint256": {
						"encoding": "inplace",
						"label": "uint256",
						"numberOfBytes": "32"
					}
				}
			},
			"userdoc": {
				"kind": "user",
				"methods": {},
				"version": 1
			}
		}
	}
}