{
	"contracts/Ptak.sol": {
		"Ptak": {
			"abi": [
				{
					"inputs": [
						{
							"internalType": "address",
							"name": "_parkContract",
							"type": "address"
						}
					],
					"stateMutability": "nonpayable",
					"type": "constructor"
				},
				{
					"inputs": [
						{
							"internalType": "uint256",
							"name": "",
							"type": "uint256"
						}
					],
					"name": "birds",
					"outputs": [
						{
							"internalType": "uint256",
							"name": "age",
							"type": "uint256"
						},
						{
							"internalType": "uint256",
							"name": "hunger",
							"type": "uint256"
						},
						{
							"internalType": "uint256",
							"name": "health",
							"type": "uint256"
						},
						{
							"internalType": "enum SpeciesLibrary.Species",
							"name": "species",
							"type": "uint8"
						},
						{
							"internalType": "uint256",
							"name": "lastUpdateTime",
							"type": "uint256"
						},
						{
							"internalType": "bool",
							"name": "isDead",
							"type": "bool"
						},
						{
							"internalType": "uint256",
							"name": "deathTimestamp",
							"type": "uint256"
						}
					],
					"stateMutability": "view",
					"type": "function"
				},
				{
					"inputs": [
						{
							"internalType": "uint256",
							"name": "id",
							"type": "uint256"
						},
						{
							"internalType": "uint256",
							"name": "foodAmount",
							"type": "uint256"
						}
					],
					"name": "feedBird",
					"outputs": [],
					"stateMutability": "nonpayable",
					"type": "function"
				},
				{
					"inputs": [
						{
							"internalType": "uint256",
							"name": "id",
							"type": "uint256"
						}
					],
					"name": "getBird",
					"outputs": [
						{
							"components": [
								{
									"internalType": "uint256",
									"name": "age",
									"type": "uint256"
								},
								{
									"internalType": "uint256",
									"name": "hunger",
									"type": "uint256"
								},
								{
									"internalType": "uint256",
									"name": "health",
									"type": "uint256"
								},
								{
									"internalType": "enum SpeciesLibrary.Species",
									"name": "species",
									"type": "uint8"
								},
								{
									"internalType": "uint256",
									"name": "lastUpdateTime",
									"type": "uint256"
								},
								{
									"internalType": "bool",
									"name": "isDead",
									"type": "bool"
								},
								{
									"internalType": "uint256",
									"name": "deathTimestamp",
									"type": "uint256"
								}
							],
							"internalType": "struct Ptak.BirdData",
							"name": "",
							"type": "tuple"
						}
					],
					"stateMutability": "nonpayable",
					"type": "function"
				},
				{
					"inputs": [
						{
							"internalType": "uint256",
							"name": "birdId",
							"type": "uint256"
						}
					],
					"name": "healBird",
					"outputs": [],
					"stateMutability": "nonpayable",
					"type": "function"
				},
				{
					"inputs": [
						{
							"internalType": "uint256",
							"name": "birdId",
							"type": "uint256"
						}
					],
					"name": "insure",
					"outputs": [],
					"stateMutability": "nonpayable",
					"type": "function"
				},
				{
					"inputs": [
						{
							"internalType": "uint256",
							"name": "",
							"type": "uint256"
						}
					],
					"name": "insured",
					"outputs": [
						{
							"internalType": "bool",
							"name": "",
							"type": "bool"
						}
					],
					"stateMutability": "view",
					"type": "function"
				},
				{
					"inputs": [
						{
							"internalType": "enum SpeciesLibrary.Species",
							"name": "species",
							"type": "uint8"
						}
					],
					"name": "mintBird",
					"outputs": [
						{
							"internalType": "int256",
							"name": "",
							"type": "int256"
						}
					],
					"stateMutability": "nonpayable",
					"type": "function"
				},
				{
					"inputs": [],
					"name": "nextId",
					"outputs": [
						{
							"internalType": "uint256",
							"name": "",
							"type": "uint256"
						}
					],
					"stateMutability": "view",
					"type": "function"
				},
				{
					"inputs": [
						{
							"internalType": "uint256",
							"name": "",
							"type": "uint256"
						}
					],
					"name": "ownerOf",
					"outputs": [
						{
							"internalType": "address",
							"name": "",
							"type": "address"
						}
					],
					"stateMutability": "view",
					"type": "function"
				},
				{
					"inputs": [],
					"name": "parkContract",
					"outputs": [
						{
							"internalType": "address",
							"name": "",
							"type": "address"
						}
					],
					"stateMutability": "view",
					"type": "function"
				},
				{
					"inputs": [
						{
							"internalType": "uint256",
							"name": "birdId",
							"type": "uint256"
						}
					],
					"name": "revive",
					"outputs": [],
					"stateMutability": "nonpayable",
					"type": "function"
				},
				{
					"inputs": [
						{
							"internalType": "address",
							"name": "_parkContract",
							"type": "address"
						}
					],
					"name": "setParkContract",
					"outputs": [],
					"stateMutability": "nonpayable",
					"type": "function"
				},
				{
					"inputs": [
						{
							"internalType": "uint256",
							"name": "birdId",
							"type": "uint256"
						},
						{
							"internalType": "address",
							"name": "newOwner",
							"type": "address"
						}
					],
					"name": "transferBird",
					"outputs": [],
					"stateMutability": "nonpayable",
					"type": "function"
				},
				{
					"inputs": [
						{
							"internalType": "uint256",
							"name": "id",
							"type": "uint256"
						}
					],
					"name": "updateHungerAndAge",
					"outputs": [],
					"stateMutability": "nonpayable",
					"type": "function"
				}
			],
			"devdoc": {
				"kind": "dev",
				"methods": {},
				"version": 1
			},
			"evm": {
				"assembly": "    /* \"contracts/Ptak.sol\":95:4577  contract Ptak {... */\n  mstore(0x40, 0x80)\n    /* \"contracts/Ptak.sol\":735:817  constructor(address _parkContract) {... */\n  callvalue\n  dup1\n  iszero\n  tag_1\n  jumpi\n  revert(0x00, 0x00)\ntag_1:\n  pop\n  mload(0x40)\n  sub(codesize, bytecodeSize)\n  dup1\n  bytecodeSize\n  dup4\n  codecopy\n  dup2\n  dup2\n  add\n  0x40\n  mstore\n  dup2\n  add\n  swap1\n  tag_2\n  swap2\n  swap1\n  tag_3\n  jump\t// in\ntag_2:\n    /* \"contracts/Ptak.sol\":796:809  _parkContract */\n  dup1\n    /* \"contracts/Ptak.sol\":781:793  parkContract */\n  0x02\n  0x00\n    /* \"contracts/Ptak.sol\":781:809  parkContract = _parkContract */\n  0x0100\n  exp\n  dup2\n  sload\n  dup2\n  0xffffffffffffffffffffffffffffffffffffffff\n  mul\n  not\n  and\n  swap1\n  dup4\n  0xffffffffffffffffffffffffffffffffffffffff\n  and\n  mul\n  or\n  swap1\n  sstore\n  pop\n    /* \"contracts/Ptak.sol\":735:817  constructor(address _parkContract) {... */\n  pop\n    /* \"contracts/Ptak.sol\":95:4577  contract Ptak {... */\n  jump(tag_6)\n    /* \"#utility.yul\":88:205   */\ntag_8:\n    /* \"#utility.yul\":197:198   */\n  0x00\n    /* \"#utility.yul\":194:195   */\n  0x00\n    /* \"#utility.yul\":187:199   */\n  revert\n    /* \"#utility.yul\":334:460   */\ntag_10:\n    /* \"#utility.yul\":371:378   */\n  0x00\n    /* \"#utility.yul\":411:453   */\n  0xffffffffffffffffffffffffffffffffffffffff\n    /* \"#utility.yul\":404:409   */\n  dup3\n    /* \"#utility.yul\":400:454   */\n  and\n    /* \"#utility.yul\":389:454   */\n  swap1\n  pop\n    /* \"#utility.yul\":334:460   */\n  swap2\n  swap1\n  pop\n  jump\t// out\n    /* \"#utility.yul\":466:562   */\ntag_11:\n    /* \"#utility.yul\":503:510   */\n  0x00\n    /* \"#utility.yul\":532:556   */\n  tag_20\n    /* \"#utility.yul\":550:555   */\n  dup3\n    /* \"#utility.yul\":532:556   */\n  tag_10\n  jump\t// in\ntag_20:\n    /* \"#utility.yul\":521:556   */\n  swap1\n  pop\n    /* \"#utility.yul\":466:562   */\n  swap2\n  swap1\n  pop\n  jump\t// out\n    /* \"#utility.yul\":568:690   */\ntag_12:\n    /* \"#utility.yul\":641:665   */\n  tag_22\n    /* \"#utility.yul\":659:664   */\n  dup2\n    /* \"#utility.yul\":641:665   */\n  tag_11\n  jump\t// in\ntag_22:\n    /* \"#utility.yul\":634:639   */\n  dup2\n    /* \"#utility.yul\":631:666   */\n  eq\n    /* \"#utility.yul\":621:684   */\n  tag_23\n  jumpi\n    /* \"#utility.yul\":680:681   */\n  0x00\n    /* \"#utility.yul\":677:678   */\n  0x00\n    /* \"#utility.yul\":670:682   */\n  revert\n    /* \"#utility.yul\":621:684   */\ntag_23:\n    /* \"#utility.yul\":568:690   */\n  pop\n  jump\t// out\n    /* \"#utility.yul\":696:839   */\ntag_13:\n    /* \"#utility.yul\":753:758   */\n  0x00\n    /* \"#utility.yul\":784:790   */\n  dup2\n    /* \"#utility.yul\":778:791   */\n  mload\n    /* \"#utility.yul\":769:791   */\n  swap1\n  pop\n    /* \"#utility.yul\":800:833   */\n  tag_25\n    /* \"#utility.yul\":827:832   */\n  dup2\n    /* \"#utility.yul\":800:833   */\n  tag_12\n  jump\t// in\ntag_25:\n    /* \"#utility.yul\":696:839   */\n  swap3\n  swap2\n  pop\n  pop\n  jump\t// out\n    /* \"#utility.yul\":845:1196   */\ntag_3:\n    /* \"#utility.yul\":915:921   */\n  0x00\n    /* \"#utility.yul\":964:966   */\n  0x20\n    /* \"#utility.yul\":952:961   */\n  dup3\n    /* \"#utility.yul\":943:950   */\n  dup5\n    /* \"#utility.yul\":939:962   */\n  sub\n    /* \"#utility.yul\":935:967   */\n  slt\n    /* \"#utility.yul\":932:1051   */\n  iszero\n  tag_27\n  jumpi\n    /* \"#utility.yul\":970:1049   */\n  tag_28\n  tag_8\n  jump\t// in\ntag_28:\n    /* \"#utility.yul\":932:1051   */\ntag_27:\n    /* \"#utility.yul\":1090:1091   */\n  0x00\n    /* \"#utility.yul\":1115:1179   */\n  tag_29\n    /* \"#utility.yul\":1171:1178   */\n  dup5\n    /* \"#utility.yul\":1162:1168   */\n  dup3\n    /* \"#utility.yul\":1151:1160   */\n  dup6\n    /* \"#utility.yul\":1147:1169   */\n  add\n    /* \"#utility.yul\":1115:1179   */\n  tag_13\n  jump\t// in\ntag_29:\n    /* \"#utility.yul\":1105:1179   */\n  swap2\n  pop\n    /* \"#utility.yul\":1061:1189   */\n  pop\n    /* \"#utility.yul\":845:1196   */\n  swap3\n  swap2\n  pop\n  pop\n  jump\t// out\n    /* \"contracts/Ptak.sol\":95:4577  contract Ptak {... */\ntag_6:\n  dataSize(sub_0)\n  dup1\n  dataOffset(sub_0)\n  0x00\n  codecopy\n  0x00\n  return\nstop\n\nsub_0: assembly {\n        /* \"contracts/Ptak.sol\":95:4577  contract Ptak {... */\n      mstore(0x40, 0x80)\n      callvalue\n      dup1\n      iszero\n      tag_1\n      jumpi\n      revert(0x00, 0x00)\n    tag_1:\n      pop\n      jumpi(tag_2, lt(calldatasize, 0x04))\n      shr(0xe0, calldataload(0x00))\n      dup1\n      0x6ec88bbd\n      gt\n      tag_17\n      jumpi\n      dup1\n      0x8c652f95\n      gt\n      tag_18\n      jumpi\n      dup1\n      0x8c652f95\n      eq\n      tag_13\n      jumpi\n      dup1\n      0xa2b7ce6f\n      eq\n      tag_14\n      jumpi\n      dup1\n      0xbff998f4\n      eq\n      tag_15\n      jumpi\n      dup1\n      0xec1c5955\n      eq\n      tag_16\n      jumpi\n      jump(tag_2)\n    tag_18:\n      dup1\n      0x6ec88bbd\n      eq\n      tag_10\n      jumpi\n      dup1\n      0x72680a77\n      eq\n      tag_11\n      jumpi\n      dup1\n      0x8baecc21\n      eq\n      tag_12\n      jumpi\n      jump(tag_2)\n    tag_17:\n      dup1\n      0x4d2d7881\n      gt\n      tag_19\n      jumpi\n      dup1\n      0x4d2d7881\n      eq\n      tag_6\n      jumpi\n      dup1\n      0x4e9c7df8\n      eq\n      tag_7\n      jumpi\n      dup1\n      0x61b8ce8c\n      eq\n      tag_8\n      jumpi\n      dup1\n      0x6352211e\n      eq\n      tag_9\n      jumpi\n      jump(tag_2)\n    tag_19:\n      dup1\n      0x16cb4a05\n      eq\n      tag_3\n      jumpi\n      dup1\n      0x1942d199\n      eq\n      tag_4\n      jumpi\n      dup1\n      0x49b1a0bf\n      eq\n      tag_5\n      jumpi\n    tag_2:\n      revert(0x00, 0x00)\n        /* \"contracts/Ptak.sol\":515:554  mapping(uint256 => bool) public insured */\n    tag_3:\n      tag_20\n      0x04\n      dup1\n      calldatasize\n      sub\n      dup2\n      add\n      swap1\n      tag_21\n      swap2\n      swap1\n      tag_22\n      jump\t// in\n    tag_21:\n      tag_23\n      jump\t// in\n    tag_20:\n      mload(0x40)\n      tag_24\n      swap2\n      swap1\n      tag_25\n      jump\t// in\n    tag_24:\n      mload(0x40)\n      dup1\n      swap2\n      sub\n      swap1\n      return\n        /* \"contracts/Ptak.sol\":3146:3531  function feedBird(uint256 id, uint256 foodAmount) external onlyPark {... */\n    tag_4:\n      tag_26\n      0x04\n      dup1\n      calldatasize\n      sub\n      dup2\n      add\n      swap1\n      tag_27\n      swap2\n      swap1\n      tag_28\n      jump\t// in\n    tag_27:\n      tag_29\n      jump\t// in\n    tag_26:\n      stop\n        /* \"contracts/Ptak.sol\":3912:4003  function insure(uint256 birdId) external onlyPark {... */\n    tag_5:\n      tag_30\n      0x04\n      dup1\n      calldatasize\n      sub\n      dup2\n      add\n      swap1\n      tag_31\n      swap2\n      swap1\n      tag_22\n      jump\t// in\n    tag_31:\n      tag_32\n      jump\t// in\n    tag_30:\n      stop\n        /* \"contracts/Ptak.sol\":825:1175  function mintBird(SpeciesLibrary.Species species) external onlyPark returns (int) {... */\n    tag_6:\n      tag_33\n      0x04\n      dup1\n      calldatasize\n      sub\n      dup2\n      add\n      swap1\n      tag_34\n      swap2\n      swap1\n      tag_35\n      jump\t// in\n    tag_34:\n      tag_36\n      jump\t// in\n    tag_33:\n      mload(0x40)\n      tag_37\n      swap2\n      swap1\n      tag_38\n      jump\t// in\n    tag_37:\n      mload(0x40)\n      dup1\n      swap2\n      sub\n      swap1\n      return\n        /* \"contracts/Ptak.sol\":4151:4321  function setParkContract(address _parkContract) external {... */\n    tag_7:\n      tag_39\n      0x04\n      dup1\n      calldatasize\n      sub\n      dup2\n      add\n      swap1\n      tag_40\n      swap2\n      swap1\n      tag_41\n      jump\t// in\n    tag_40:\n      tag_42\n      jump\t// in\n    tag_39:\n      stop\n        /* \"contracts/Ptak.sol\":453:474  uint256 public nextId */\n    tag_8:\n      tag_43\n      tag_44\n      jump\t// in\n    tag_43:\n      mload(0x40)\n      tag_45\n      swap2\n      swap1\n      tag_46\n      jump\t// in\n    tag_45:\n      mload(0x40)\n      dup1\n      swap2\n      sub\n      swap1\n      return\n        /* \"contracts/Ptak.sol\":561:603  mapping(uint256 => address) public ownerOf */\n    tag_9:\n      tag_47\n      0x04\n      dup1\n      calldatasize\n      sub\n      dup2\n      add\n      swap1\n      tag_48\n      swap2\n      swap1\n      tag_22\n      jump\t// in\n    tag_48:\n      tag_49\n      jump\t// in\n    tag_47:\n      mload(0x40)\n      tag_50\n      swap2\n      swap1\n      tag_51\n      jump\t// in\n    tag_50:\n      mload(0x40)\n      dup1\n      swap2\n      sub\n      swap1\n      return\n        /* \"contracts/Ptak.sol\":4011:4143  function getBird(uint256 id) external returns (BirdData memory) {... */\n    tag_10:\n      tag_52\n      0x04\n      dup1\n      calldatasize\n      sub\n      dup2\n      add\n      swap1\n      tag_53\n      swap2\n      swap1\n      tag_22\n      jump\t// in\n    tag_53:\n      tag_54\n      jump\t// in\n    tag_52:\n      mload(0x40)\n      tag_55\n      swap2\n      swap1\n      tag_56\n      jump\t// in\n    tag_55:\n      mload(0x40)\n      dup1\n      swap2\n      sub\n      swap1\n      return\n        /* \"contracts/Ptak.sol\":481:508  address public parkContract */\n    tag_11:\n      tag_57\n      tag_58\n      jump\t// in\n    tag_57:\n      mload(0x40)\n      tag_59\n      swap2\n      swap1\n      tag_51\n      jump\t// in\n    tag_59:\n      mload(0x40)\n      dup1\n      swap2\n      sub\n      swap1\n      return\n        /* \"contracts/Ptak.sol\":3539:3904  function revive(uint256 birdId) external onlyPark {... */\n    tag_12:\n      tag_60\n      0x04\n      dup1\n      calldatasize\n      sub\n      dup2\n      add\n      swap1\n      tag_61\n      swap2\n      swap1\n      tag_22\n      jump\t// in\n    tag_61:\n      tag_62\n      jump\t// in\n    tag_60:\n      stop\n        /* \"contracts/Ptak.sol\":4329:4574  function transferBird(uint256 birdId, address newOwner) external onlyPark {... */\n    tag_13:\n      tag_63\n      0x04\n      dup1\n      calldatasize\n      sub\n      dup2\n      add\n      swap1\n      tag_64\n      swap2\n      swap1\n      tag_65\n      jump\t// in\n    tag_64:\n      tag_66\n      jump\t// in\n    tag_63:\n      stop\n        /* \"contracts/Ptak.sol\":1183:2318  function updateHungerAndAge(uint256 id) public {... */\n    tag_14:\n      tag_67\n      0x04\n      dup1\n      calldatasize\n      sub\n      dup2\n      add\n      swap1\n      tag_68\n      swap2\n      swap1\n      tag_22\n      jump\t// in\n    tag_68:\n      tag_69\n      jump\t// in\n    tag_67:\n      stop\n        /* \"contracts/Ptak.sol\":2328:2592  function healBird(uint256 birdId) external onlyPark {... */\n    tag_15:\n      tag_70\n      0x04\n      dup1\n      calldatasize\n      sub\n      dup2\n      add\n      swap1\n      tag_71\n      swap2\n      swap1\n      tag_22\n      jump\t// in\n    tag_71:\n      tag_72\n      jump\t// in\n    tag_70:\n      stop\n        /* \"contracts/Ptak.sol\":405:446  mapping(uint256 => BirdData) public birds */\n    tag_16:\n      tag_73\n      0x04\n      dup1\n      calldatasize\n      sub\n      dup2\n      add\n      swap1\n      tag_74\n      swap2\n      swap1\n      tag_22\n      jump\t// in\n    tag_74:\n      tag_75\n      jump\t// in\n    tag_73:\n      mload(0x40)\n      tag_76\n      swap8\n      swap7\n      swap6\n      swap5\n      swap4\n      swap3\n      swap2\n      swap1\n      tag_77\n      jump\t// in\n    tag_76:\n      mload(0x40)\n      dup1\n      swap2\n      sub\n      swap1\n      return\n        /* \"contracts/Ptak.sol\":515:554  mapping(uint256 => bool) public insured */\n    tag_23:\n      mstore(0x20, 0x03)\n      dup1\n      0x00\n      mstore\n      keccak256(0x00, 0x40)\n      0x00\n      swap2\n      pop\n      sload\n      swap1\n      0x0100\n      exp\n      swap1\n      div\n      0xff\n      and\n      dup2\n      jump\t// out\n        /* \"contracts/Ptak.sol\":3146:3531  function feedBird(uint256 id, uint256 foodAmount) external onlyPark {... */\n    tag_29:\n        /* \"contracts/Ptak.sol\":667:679  parkContract */\n      0x02\n      0x00\n      swap1\n      sload\n      swap1\n      0x0100\n      exp\n      swap1\n      div\n      0xffffffffffffffffffffffffffffffffffffffff\n      and\n        /* \"contracts/Ptak.sol\":653:679  msg.sender == parkContract */\n      0xffffffffffffffffffffffffffffffffffffffff\n      and\n        /* \"contracts/Ptak.sol\":653:663  msg.sender */\n      caller\n        /* \"contracts/Ptak.sol\":653:679  msg.sender == parkContract */\n      0xffffffffffffffffffffffffffffffffffffffff\n      and\n      eq\n        /* \"contracts/Ptak.sol\":645:707  require(msg.sender == parkContract, \"Only Park can call this\") */\n      tag_79\n      jumpi\n      mload(0x40)\n      0x08c379a000000000000000000000000000000000000000000000000000000000\n      dup2\n      mstore\n      0x04\n      add\n      tag_80\n      swap1\n      tag_81\n      jump\t// in\n    tag_80:\n      mload(0x40)\n      dup1\n      swap2\n      sub\n      swap1\n      revert\n    tag_79:\n        /* \"contracts/Ptak.sol\":3225:3247  updateHungerAndAge(id) */\n      tag_83\n        /* \"contracts/Ptak.sol\":3244:3246  id */\n      dup3\n        /* \"contracts/Ptak.sol\":3225:3243  updateHungerAndAge */\n      tag_69\n        /* \"contracts/Ptak.sol\":3225:3247  updateHungerAndAge(id) */\n      jump\t// in\n    tag_83:\n        /* \"contracts/Ptak.sol\":3258:3279  BirdData storage bird */\n      0x00\n        /* \"contracts/Ptak.sol\":3282:3287  birds */\n      0x00\n        /* \"contracts/Ptak.sol\":3282:3291  birds[id] */\n      0x00\n        /* \"contracts/Ptak.sol\":3288:3290  id */\n      dup5\n        /* \"contracts/Ptak.sol\":3282:3291  birds[id] */\n      dup2\n      mstore\n      0x20\n      add\n      swap1\n      dup2\n      mstore\n      0x20\n      add\n      0x00\n      keccak256\n        /* \"contracts/Ptak.sol\":3258:3291  BirdData storage bird = birds[id] */\n      swap1\n      pop\n        /* \"contracts/Ptak.sol\":3302:3321  randomPoisoning(id) */\n      tag_84\n        /* \"contracts/Ptak.sol\":3318:3320  id */\n      dup4\n        /* \"contracts/Ptak.sol\":3302:3317  randomPoisoning */\n      tag_85\n        /* \"contracts/Ptak.sol\":3302:3321  randomPoisoning(id) */\n      jump\t// in\n    tag_84:\n        /* \"contracts/Ptak.sol\":3343:3347  bird */\n      dup1\n        /* \"contracts/Ptak.sol\":3343:3354  bird.isDead */\n      0x05\n      add\n      0x00\n      swap1\n      sload\n      swap1\n      0x0100\n      exp\n      swap1\n      div\n      0xff\n      and\n        /* \"contracts/Ptak.sol\":3342:3354  !bird.isDead */\n      iszero\n        /* \"contracts/Ptak.sol\":3334:3382  require(!bird.isDead, \"Cannot feed a dead bird\") */\n      tag_86\n      jumpi\n      mload(0x40)\n      0x08c379a000000000000000000000000000000000000000000000000000000000\n      dup2\n      mstore\n      0x04\n      add\n      tag_87\n      swap1\n      tag_88\n      jump\t// in\n    tag_87:\n      mload(0x40)\n      dup1\n      swap2\n      sub\n      swap1\n      revert\n    tag_86:\n        /* \"contracts/Ptak.sol\":3413:3423  foodAmount */\n      dup2\n        /* \"contracts/Ptak.sol\":3398:3402  bird */\n      dup2\n        /* \"contracts/Ptak.sol\":3398:3409  bird.hunger */\n      0x01\n      add\n      sload\n        /* \"contracts/Ptak.sol\":3398:3423  bird.hunger >= foodAmount */\n      lt\n        /* \"contracts/Ptak.sol\":3395:3524  if(bird.hunger >= foodAmount){... */\n      tag_89\n      jumpi\n        /* \"contracts/Ptak.sol\":3454:3464  foodAmount */\n      dup2\n        /* \"contracts/Ptak.sol\":3439:3443  bird */\n      dup2\n        /* \"contracts/Ptak.sol\":3439:3450  bird.hunger */\n      0x01\n      add\n      0x00\n        /* \"contracts/Ptak.sol\":3439:3464  bird.hunger -= foodAmount */\n      dup3\n      dup3\n      sload\n      tag_90\n      swap2\n      swap1\n      tag_91\n      jump\t// in\n    tag_90:\n      swap3\n      pop\n      pop\n      dup2\n      swap1\n      sstore\n      pop\n        /* \"contracts/Ptak.sol\":3395:3524  if(bird.hunger >= foodAmount){... */\n      jump(tag_92)\n    tag_89:\n        /* \"contracts/Ptak.sol\":3511:3512  0 */\n      0x00\n        /* \"contracts/Ptak.sol\":3497:3501  bird */\n      dup2\n        /* \"contracts/Ptak.sol\":3497:3508  bird.hunger */\n      0x01\n      add\n        /* \"contracts/Ptak.sol\":3497:3512  bird.hunger = 0 */\n      dup2\n      swap1\n      sstore\n      pop\n        /* \"contracts/Ptak.sol\":3395:3524  if(bird.hunger >= foodAmount){... */\n    tag_92:\n        /* \"contracts/Ptak.sol\":3214:3531  {... */\n      pop\n        /* \"contracts/Ptak.sol\":3146:3531  function feedBird(uint256 id, uint256 foodAmount) external onlyPark {... */\n      pop\n      pop\n      jump\t// out\n        /* \"contracts/Ptak.sol\":3912:4003  function insure(uint256 birdId) external onlyPark {... */\n    tag_32:\n        /* \"contracts/Ptak.sol\":667:679  parkContract */\n      0x02\n      0x00\n      swap1\n      sload\n      swap1\n      0x0100\n      exp\n      swap1\n      div\n      0xffffffffffffffffffffffffffffffffffffffff\n      and\n        /* \"contracts/Ptak.sol\":653:679  msg.sender == parkContract */\n      0xffffffffffffffffffffffffffffffffffffffff\n      and\n        /* \"contracts/Ptak.sol\":653:663  msg.sender */\n      caller\n        /* \"contracts/Ptak.sol\":653:679  msg.sender == parkContract */\n      0xffffffffffffffffffffffffffffffffffffffff\n      and\n      eq\n        /* \"contracts/Ptak.sol\":645:707  require(msg.sender == parkContract, \"Only Park can call this\") */\n      tag_94\n      jumpi\n      mload(0x40)\n      0x08c379a000000000000000000000000000000000000000000000000000000000\n      dup2\n      mstore\n      0x04\n      add\n      tag_95\n      swap1\n      tag_81\n      jump\t// in\n    tag_95:\n      mload(0x40)\n      dup1\n      swap2\n      sub\n      swap1\n      revert\n    tag_94:\n        /* \"contracts/Ptak.sol\":3991:3995  true */\n      0x01\n        /* \"contracts/Ptak.sol\":3973:3980  insured */\n      0x03\n        /* \"contracts/Ptak.sol\":3973:3988  insured[birdId] */\n      0x00\n        /* \"contracts/Ptak.sol\":3981:3987  birdId */\n      dup4\n        /* \"contracts/Ptak.sol\":3973:3988  insured[birdId] */\n      dup2\n      mstore\n      0x20\n      add\n      swap1\n      dup2\n      mstore\n      0x20\n      add\n      0x00\n      keccak256\n      0x00\n        /* \"contracts/Ptak.sol\":3973:3995  insured[birdId] = true */\n      0x0100\n      exp\n      dup2\n      sload\n      dup2\n      0xff\n      mul\n      not\n      and\n      swap1\n      dup4\n      iszero\n      iszero\n      mul\n      or\n      swap1\n      sstore\n      pop\n        /* \"contracts/Ptak.sol\":3912:4003  function insure(uint256 birdId) external onlyPark {... */\n      pop\n      jump\t// out\n        /* \"contracts/Ptak.sol\":825:1175  function mintBird(SpeciesLibrary.Species species) external onlyPark returns (int) {... */\n    tag_36:\n        /* \"contracts/Ptak.sol\":902:905  int */\n      0x00\n        /* \"contracts/Ptak.sol\":667:679  parkContract */\n      0x02\n      0x00\n      swap1\n      sload\n      swap1\n      0x0100\n      exp\n      swap1\n      div\n      0xffffffffffffffffffffffffffffffffffffffff\n      and\n        /* \"contracts/Ptak.sol\":653:679  msg.sender == parkContract */\n      0xffffffffffffffffffffffffffffffffffffffff\n      and\n        /* \"contracts/Ptak.sol\":653:663  msg.sender */\n      caller\n        /* \"contracts/Ptak.sol\":653:679  msg.sender == parkContract */\n      0xffffffffffffffffffffffffffffffffffffffff\n      and\n      eq\n        /* \"contracts/Ptak.sol\":645:707  require(msg.sender == parkContract, \"Only Park can call this\") */\n      tag_98\n      jumpi\n      mload(0x40)\n      0x08c379a000000000000000000000000000000000000000000000000000000000\n      dup2\n      mstore\n      0x04\n      add\n      tag_99\n      swap1\n      tag_81\n      jump\t// in\n    tag_99:\n      mload(0x40)\n      dup1\n      swap2\n      sub\n      swap1\n      revert\n    tag_98:\n        /* \"contracts/Ptak.sol\":918:956  SpeciesLibrary.SpeciesInfo memory info */\n      0x00\n        /* \"contracts/Ptak.sol\":959:997  SpeciesLibrary.getSpeciesInfo(species) */\n      tag_101\n        /* \"contracts/Ptak.sol\":989:996  species */\n      dup4\n        /* \"contracts/Ptak.sol\":959:988  SpeciesLibrary.getSpeciesInfo */\n      tag_102\n        /* \"contracts/Ptak.sol\":959:997  SpeciesLibrary.getSpeciesInfo(species) */\n      jump\t// in\n    tag_101:\n        /* \"contracts/Ptak.sol\":918:997  SpeciesLibrary.SpeciesInfo memory info = SpeciesLibrary.getSpeciesInfo(species) */\n      swap1\n      pop\n        /* \"contracts/Ptak.sol\":1024:1090  BirdData(0, 0, info.maxHealth, species, block.timestamp, false, 0) */\n      mload(0x40)\n      dup1\n      0xe0\n      add\n      0x40\n      mstore\n      dup1\n        /* \"contracts/Ptak.sol\":1033:1034  0 */\n      0x00\n        /* \"contracts/Ptak.sol\":1024:1090  BirdData(0, 0, info.maxHealth, species, block.timestamp, false, 0) */\n      dup2\n      mstore\n      0x20\n      add\n        /* \"contracts/Ptak.sol\":1036:1037  0 */\n      0x00\n        /* \"contracts/Ptak.sol\":1024:1090  BirdData(0, 0, info.maxHealth, species, block.timestamp, false, 0) */\n      dup2\n      mstore\n      0x20\n      add\n        /* \"contracts/Ptak.sol\":1039:1043  info */\n      dup3\n        /* \"contracts/Ptak.sol\":1039:1053  info.maxHealth */\n      0x00\n      add\n      mload\n        /* \"contracts/Ptak.sol\":1024:1090  BirdData(0, 0, info.maxHealth, species, block.timestamp, false, 0) */\n      dup2\n      mstore\n      0x20\n      add\n        /* \"contracts/Ptak.sol\":1055:1062  species */\n      dup5\n        /* \"contracts/Ptak.sol\":1024:1090  BirdData(0, 0, info.maxHealth, species, block.timestamp, false, 0) */\n      0x0a\n      dup2\n      gt\n      iszero\n      tag_103\n      jumpi\n      tag_104\n      tag_105\n      jump\t// in\n    tag_104:\n    tag_103:\n      dup2\n      mstore\n      0x20\n      add\n        /* \"contracts/Ptak.sol\":1064:1079  block.timestamp */\n      timestamp\n        /* \"contracts/Ptak.sol\":1024:1090  BirdData(0, 0, info.maxHealth, species, block.timestamp, false, 0) */\n      dup2\n      mstore\n      0x20\n      add\n        /* \"contracts/Ptak.sol\":1081:1086  false */\n      0x00\n        /* \"contracts/Ptak.sol\":1024:1090  BirdData(0, 0, info.maxHealth, species, block.timestamp, false, 0) */\n      iszero\n      iszero\n      dup2\n      mstore\n      0x20\n      add\n        /* \"contracts/Ptak.sol\":1088:1089  0 */\n      0x00\n        /* \"contracts/Ptak.sol\":1024:1090  BirdData(0, 0, info.maxHealth, species, block.timestamp, false, 0) */\n      dup2\n      mstore\n      pop\n        /* \"contracts/Ptak.sol\":1008:1013  birds */\n      0x00\n        /* \"contracts/Ptak.sol\":1008:1021  birds[nextId] */\n      0x00\n        /* \"contracts/Ptak.sol\":1014:1020  nextId */\n      sload(0x01)\n        /* \"contracts/Ptak.sol\":1008:1021  birds[nextId] */\n      dup2\n      mstore\n      0x20\n      add\n      swap1\n      dup2\n      mstore\n      0x20\n      add\n      0x00\n      keccak256\n        /* \"contracts/Ptak.sol\":1008:1090  birds[nextId] = BirdData(0, 0, info.maxHealth, species, block.timestamp, false, 0) */\n      0x00\n      dup3\n      add\n      mload\n      dup2\n      0x00\n      add\n      sstore\n      0x20\n      dup3\n      add\n      mload\n      dup2\n      0x01\n      add\n      sstore\n      0x40\n      dup3\n      add\n      mload\n      dup2\n      0x02\n      add\n      sstore\n      0x60\n      dup3\n      add\n      mload\n      dup2\n      0x03\n      add\n      exp(0x0100, 0x00)\n      dup2\n      sload\n      dup2\n      0xff\n      mul\n      not\n      and\n      swap1\n      dup4\n      0x0a\n      dup2\n      gt\n      iszero\n      tag_106\n      jumpi\n      tag_107\n      tag_105\n      jump\t// in\n    tag_107:\n    tag_106:\n      mul\n      or\n      swap1\n      sstore\n      pop\n      0x80\n      dup3\n      add\n      mload\n      dup2\n      0x04\n      add\n      sstore\n      0xa0\n      dup3\n      add\n      mload\n      dup2\n      0x05\n      add\n      exp(0x0100, 0x00)\n      dup2\n      sload\n      dup2\n      0xff\n      mul\n      not\n      and\n      swap1\n      dup4\n      iszero\n      iszero\n      mul\n      or\n      swap1\n      sstore\n      pop\n      0xc0\n      dup3\n      add\n      mload\n      dup2\n      0x06\n      add\n      sstore\n      swap1\n      pop\n      pop\n        /* \"contracts/Ptak.sol\":1119:1129  msg.sender */\n      caller\n        /* \"contracts/Ptak.sol\":1101:1108  ownerOf */\n      0x04\n        /* \"contracts/Ptak.sol\":1101:1116  ownerOf[nextId] */\n      0x00\n        /* \"contracts/Ptak.sol\":1109:1115  nextId */\n      sload(0x01)\n        /* \"contracts/Ptak.sol\":1101:1116  ownerOf[nextId] */\n      dup2\n      mstore\n      0x20\n      add\n      swap1\n      dup2\n      mstore\n      0x20\n      add\n      0x00\n      keccak256\n      0x00\n        /* \"contracts/Ptak.sol\":1101:1129  ownerOf[nextId] = msg.sender */\n      0x0100\n      exp\n      dup2\n      sload\n      dup2\n      0xffffffffffffffffffffffffffffffffffffffff\n      mul\n      not\n      and\n      swap1\n      dup4\n      0xffffffffffffffffffffffffffffffffffffffff\n      and\n      mul\n      or\n      swap1\n      sstore\n      pop\n        /* \"contracts/Ptak.sol\":1140:1146  nextId */\n      0x01\n      0x00\n        /* \"contracts/Ptak.sol\":1140:1148  nextId++ */\n      dup2\n      sload\n      dup1\n      swap3\n      swap2\n      swap1\n      tag_108\n      swap1\n      tag_109\n      jump\t// in\n    tag_108:\n      swap2\n      swap1\n      pop\n      sstore\n      pop\n        /* \"contracts/Ptak.sol\":1166:1167  0 */\n      0x00\n        /* \"contracts/Ptak.sol\":1159:1167  return 0 */\n      swap2\n      pop\n      pop\n        /* \"contracts/Ptak.sol\":825:1175  function mintBird(SpeciesLibrary.Species species) external onlyPark returns (int) {... */\n      swap2\n      swap1\n      pop\n      jump\t// out\n        /* \"contracts/Ptak.sol\":4151:4321  function setParkContract(address _parkContract) external {... */\n    tag_42:\n        /* \"contracts/Ptak.sol\":4251:4252  0 */\n      0x00\n        /* \"contracts/Ptak.sol\":4227:4253  parkContract == address(0) */\n      0xffffffffffffffffffffffffffffffffffffffff\n      and\n        /* \"contracts/Ptak.sol\":4227:4239  parkContract */\n      0x02\n      0x00\n      swap1\n      sload\n      swap1\n      0x0100\n      exp\n      swap1\n      div\n      0xffffffffffffffffffffffffffffffffffffffff\n      and\n        /* \"contracts/Ptak.sol\":4227:4253  parkContract == address(0) */\n      0xffffffffffffffffffffffffffffffffffffffff\n      and\n      eq\n        /* \"contracts/Ptak.sol\":4219:4274  require(parkContract == address(0), \"Park already set\") */\n      tag_111\n      jumpi\n      mload(0x40)\n      0x08c379a000000000000000000000000000000000000000000000000000000000\n      dup2\n      mstore\n      0x04\n      add\n      tag_112\n      swap1\n      tag_113\n      jump\t// in\n    tag_112:\n      mload(0x40)\n      dup1\n      swap2\n      sub\n      swap1\n      revert\n    tag_111:\n        /* \"contracts/Ptak.sol\":4300:4313  _parkContract */\n      dup1\n        /* \"contracts/Ptak.sol\":4285:4297  parkContract */\n      0x02\n      0x00\n        /* \"contracts/Ptak.sol\":4285:4313  parkContract = _parkContract */\n      0x0100\n      exp\n      dup2\n      sload\n      dup2\n      0xffffffffffffffffffffffffffffffffffffffff\n      mul\n      not\n      and\n      swap1\n      dup4\n      0xffffffffffffffffffffffffffffffffffffffff\n      and\n      mul\n      or\n      swap1\n      sstore\n      pop\n        /* \"contracts/Ptak.sol\":4151:4321  function setParkContract(address _parkContract) external {... */\n      pop\n      jump\t// out\n        /* \"contracts/Ptak.sol\":453:474  uint256 public nextId */\n    tag_44:\n      sload(0x01)\n      dup2\n      jump\t// out\n        /* \"contracts/Ptak.sol\":561:603  mapping(uint256 => address) public ownerOf */\n    tag_49:\n      mstore(0x20, 0x04)\n      dup1\n      0x00\n      mstore\n      keccak256(0x00, 0x40)\n      0x00\n      swap2\n      pop\n      sload\n      swap1\n      0x0100\n      exp\n      swap1\n      div\n      0xffffffffffffffffffffffffffffffffffffffff\n      and\n      dup2\n      jump\t// out\n        /* \"contracts/Ptak.sol\":4011:4143  function getBird(uint256 id) external returns (BirdData memory) {... */\n    tag_54:\n        /* \"contracts/Ptak.sol\":4058:4073  BirdData memory */\n      tag_114\n      tag_115\n      jump\t// in\n    tag_114:\n        /* \"contracts/Ptak.sol\":4086:4108  updateHungerAndAge(id) */\n      tag_117\n        /* \"contracts/Ptak.sol\":4105:4107  id */\n      dup3\n        /* \"contracts/Ptak.sol\":4086:4104  updateHungerAndAge */\n      tag_69\n        /* \"contracts/Ptak.sol\":4086:4108  updateHungerAndAge(id) */\n      jump\t// in\n    tag_117:\n        /* \"contracts/Ptak.sol\":4126:4131  birds */\n      0x00\n        /* \"contracts/Ptak.sol\":4126:4135  birds[id] */\n      0x00\n        /* \"contracts/Ptak.sol\":4132:4134  id */\n      dup4\n        /* \"contracts/Ptak.sol\":4126:4135  birds[id] */\n      dup2\n      mstore\n      0x20\n      add\n      swap1\n      dup2\n      mstore\n      0x20\n      add\n      0x00\n      keccak256\n        /* \"contracts/Ptak.sol\":4119:4135  return birds[id] */\n      mload(0x40)\n      dup1\n      0xe0\n      add\n      0x40\n      mstore\n      swap1\n      dup2\n      0x00\n      dup3\n      add\n      sload\n      dup2\n      mstore\n      0x20\n      add\n      0x01\n      dup3\n      add\n      sload\n      dup2\n      mstore\n      0x20\n      add\n      0x02\n      dup3\n      add\n      sload\n      dup2\n      mstore\n      0x20\n      add\n      0x03\n      dup3\n      add\n      0x00\n      swap1\n      sload\n      swap1\n      0x0100\n      exp\n      swap1\n      div\n      0xff\n      and\n      0x0a\n      dup2\n      gt\n      iszero\n      tag_118\n      jumpi\n      tag_119\n      tag_105\n      jump\t// in\n    tag_119:\n    tag_118:\n      0x0a\n      dup2\n      gt\n      iszero\n      tag_120\n      jumpi\n      tag_121\n      tag_105\n      jump\t// in\n    tag_121:\n    tag_120:\n      dup2\n      mstore\n      0x20\n      add\n      0x04\n      dup3\n      add\n      sload\n      dup2\n      mstore\n      0x20\n      add\n      0x05\n      dup3\n      add\n      0x00\n      swap1\n      sload\n      swap1\n      0x0100\n      exp\n      swap1\n      div\n      0xff\n      and\n      iszero\n      iszero\n      iszero\n      iszero\n      dup2\n      mstore\n      0x20\n      add\n      0x06\n      dup3\n      add\n      sload\n      dup2\n      mstore\n      pop\n      pop\n      swap1\n      pop\n        /* \"contracts/Ptak.sol\":4011:4143  function getBird(uint256 id) external returns (BirdData memory) {... */\n      swap2\n      swap1\n      pop\n      jump\t// out\n        /* \"contracts/Ptak.sol\":481:508  address public parkContract */\n    tag_58:\n      0x02\n      0x00\n      swap1\n      sload\n      swap1\n      0x0100\n      exp\n      swap1\n      div\n      0xffffffffffffffffffffffffffffffffffffffff\n      and\n      dup2\n      jump\t// out\n        /* \"contracts/Ptak.sol\":3539:3904  function revive(uint256 birdId) external onlyPark {... */\n    tag_62:\n        /* \"contracts/Ptak.sol\":667:679  parkContract */\n      0x02\n      0x00\n      swap1\n      sload\n      swap1\n      0x0100\n      exp\n      swap1\n      div\n      0xffffffffffffffffffffffffffffffffffffffff\n      and\n        /* \"contracts/Ptak.sol\":653:679  msg.sender == parkContract */\n      0xffffffffffffffffffffffffffffffffffffffff\n      and\n        /* \"contracts/Ptak.sol\":653:663  msg.sender */\n      caller\n        /* \"contracts/Ptak.sol\":653:679  msg.sender == parkContract */\n      0xffffffffffffffffffffffffffffffffffffffff\n      and\n      eq\n        /* \"contracts/Ptak.sol\":645:707  require(msg.sender == parkContract, \"Only Park can call this\") */\n      tag_123\n      jumpi\n      mload(0x40)\n      0x08c379a000000000000000000000000000000000000000000000000000000000\n      dup2\n      mstore\n      0x04\n      add\n      tag_124\n      swap1\n      tag_81\n      jump\t// in\n    tag_124:\n      mload(0x40)\n      dup1\n      swap2\n      sub\n      swap1\n      revert\n    tag_123:\n        /* \"contracts/Ptak.sol\":3600:3621  BirdData storage bird */\n      0x00\n        /* \"contracts/Ptak.sol\":3624:3629  birds */\n      0x00\n        /* \"contracts/Ptak.sol\":3624:3637  birds[birdId] */\n      0x00\n        /* \"contracts/Ptak.sol\":3630:3636  birdId */\n      dup4\n        /* \"contracts/Ptak.sol\":3624:3637  birds[birdId] */\n      dup2\n      mstore\n      0x20\n      add\n      swap1\n      dup2\n      mstore\n      0x20\n      add\n      0x00\n      keccak256\n        /* \"contracts/Ptak.sol\":3600:3637  BirdData storage bird = birds[birdId] */\n      swap1\n      pop\n        /* \"contracts/Ptak.sol\":3656:3660  bird */\n      dup1\n        /* \"contracts/Ptak.sol\":3656:3667  bird.isDead */\n      0x05\n      add\n      0x00\n      swap1\n      sload\n      swap1\n      0x0100\n      exp\n      swap1\n      div\n      0xff\n      and\n        /* \"contracts/Ptak.sol\":3648:3680  require(bird.isDead, \"Not dead\") */\n      tag_126\n      jumpi\n      mload(0x40)\n      0x08c379a000000000000000000000000000000000000000000000000000000000\n      dup2\n      mstore\n      0x04\n      add\n      tag_127\n      swap1\n      tag_128\n      jump\t// in\n    tag_127:\n      mload(0x40)\n      dup1\n      swap2\n      sub\n      swap1\n      revert\n    tag_126:\n        /* \"contracts/Ptak.sol\":3705:3748  SpeciesLibrary.getSpeciesInfo(bird.species) */\n      tag_129\n        /* \"contracts/Ptak.sol\":3735:3739  bird */\n      dup2\n        /* \"contracts/Ptak.sol\":3735:3747  bird.species */\n      0x03\n      add\n      0x00\n      swap1\n      sload\n      swap1\n      0x0100\n      exp\n      swap1\n      div\n      0xff\n      and\n        /* \"contracts/Ptak.sol\":3705:3734  SpeciesLibrary.getSpeciesInfo */\n      tag_102\n        /* \"contracts/Ptak.sol\":3705:3748  SpeciesLibrary.getSpeciesInfo(bird.species) */\n      jump\t// in\n    tag_129:\n        /* \"contracts/Ptak.sol\":3705:3758  SpeciesLibrary.getSpeciesInfo(bird.species).maxHealth */\n      0x00\n      add\n      mload\n        /* \"contracts/Ptak.sol\":3691:3695  bird */\n      dup2\n        /* \"contracts/Ptak.sol\":3691:3702  bird.health */\n      0x02\n      add\n        /* \"contracts/Ptak.sol\":3691:3758  bird.health = SpeciesLibrary.getSpeciesInfo(bird.species).maxHealth */\n      dup2\n      swap1\n      sstore\n      pop\n        /* \"contracts/Ptak.sol\":3783:3784  0 */\n      0x00\n        /* \"contracts/Ptak.sol\":3769:3773  bird */\n      dup2\n        /* \"contracts/Ptak.sol\":3769:3780  bird.hunger */\n      0x01\n      add\n        /* \"contracts/Ptak.sol\":3769:3784  bird.hunger = 0 */\n      dup2\n      swap1\n      sstore\n      pop\n        /* \"contracts/Ptak.sol\":3809:3814  false */\n      0x00\n        /* \"contracts/Ptak.sol\":3795:3799  bird */\n      dup2\n        /* \"contracts/Ptak.sol\":3795:3806  bird.isDead */\n      0x05\n      add\n      0x00\n        /* \"contracts/Ptak.sol\":3795:3814  bird.isDead = false */\n      0x0100\n      exp\n      dup2\n      sload\n      dup2\n      0xff\n      mul\n      not\n      and\n      swap1\n      dup4\n      iszero\n      iszero\n      mul\n      or\n      swap1\n      sstore\n      pop\n        /* \"contracts/Ptak.sol\":3847:3848  0 */\n      0x00\n        /* \"contracts/Ptak.sol\":3825:3829  bird */\n      dup2\n        /* \"contracts/Ptak.sol\":3825:3844  bird.deathTimestamp */\n      0x06\n      add\n        /* \"contracts/Ptak.sol\":3825:3848  bird.deathTimestamp = 0 */\n      dup2\n      swap1\n      sstore\n      pop\n        /* \"contracts/Ptak.sol\":3881:3896  block.timestamp */\n      timestamp\n        /* \"contracts/Ptak.sol\":3859:3863  bird */\n      dup2\n        /* \"contracts/Ptak.sol\":3859:3878  bird.lastUpdateTime */\n      0x04\n      add\n        /* \"contracts/Ptak.sol\":3859:3896  bird.lastUpdateTime = block.timestamp */\n      dup2\n      swap1\n      sstore\n      pop\n        /* \"contracts/Ptak.sol\":3589:3904  {... */\n      pop\n        /* \"contracts/Ptak.sol\":3539:3904  function revive(uint256 birdId) external onlyPark {... */\n      pop\n      jump\t// out\n        /* \"contracts/Ptak.sol\":4329:4574  function transferBird(uint256 birdId, address newOwner) external onlyPark {... */\n    tag_66:\n        /* \"contracts/Ptak.sol\":667:679  parkContract */\n      0x02\n      0x00\n      swap1\n      sload\n      swap1\n      0x0100\n      exp\n      swap1\n      div\n      0xffffffffffffffffffffffffffffffffffffffff\n      and\n        /* \"contracts/Ptak.sol\":653:679  msg.sender == parkContract */\n      0xffffffffffffffffffffffffffffffffffffffff\n      and\n        /* \"contracts/Ptak.sol\":653:663  msg.sender */\n      caller\n        /* \"contracts/Ptak.sol\":653:679  msg.sender == parkContract */\n      0xffffffffffffffffffffffffffffffffffffffff\n      and\n      eq\n        /* \"contracts/Ptak.sol\":645:707  require(msg.sender == parkContract, \"Only Park can call this\") */\n      tag_131\n      jumpi\n      mload(0x40)\n      0x08c379a000000000000000000000000000000000000000000000000000000000\n      dup2\n      mstore\n      0x04\n      add\n      tag_132\n      swap1\n      tag_81\n      jump\t// in\n    tag_132:\n      mload(0x40)\n      dup1\n      swap2\n      sub\n      swap1\n      revert\n    tag_131:\n        /* \"contracts/Ptak.sol\":4441:4450  tx.origin */\n      origin\n        /* \"contracts/Ptak.sol\":4422:4450  ownerOf[birdId] == tx.origin */\n      0xffffffffffffffffffffffffffffffffffffffff\n      and\n        /* \"contracts/Ptak.sol\":4422:4429  ownerOf */\n      0x04\n        /* \"contracts/Ptak.sol\":4422:4437  ownerOf[birdId] */\n      0x00\n        /* \"contracts/Ptak.sol\":4430:4436  birdId */\n      dup5\n        /* \"contracts/Ptak.sol\":4422:4437  ownerOf[birdId] */\n      dup2\n      mstore\n      0x20\n      add\n      swap1\n      dup2\n      mstore\n      0x20\n      add\n      0x00\n      keccak256\n      0x00\n      swap1\n      sload\n      swap1\n      0x0100\n      exp\n      swap1\n      div\n      0xffffffffffffffffffffffffffffffffffffffff\n      and\n        /* \"contracts/Ptak.sol\":4422:4450  ownerOf[birdId] == tx.origin */\n      0xffffffffffffffffffffffffffffffffffffffff\n      and\n      eq\n        /* \"contracts/Ptak.sol\":4414:4468  require(ownerOf[birdId] == tx.origin, \"Not the owner\") */\n      tag_134\n      jumpi\n      mload(0x40)\n      0x08c379a000000000000000000000000000000000000000000000000000000000\n      dup2\n      mstore\n      0x04\n      add\n      tag_135\n      swap1\n      tag_136\n      jump\t// in\n    tag_135:\n      mload(0x40)\n      dup1\n      swap2\n      sub\n      swap1\n      revert\n    tag_134:\n        /* \"contracts/Ptak.sol\":4507:4508  0 */\n      0x00\n        /* \"contracts/Ptak.sol\":4487:4509  newOwner != address(0) */\n      0xffffffffffffffffffffffffffffffffffffffff\n      and\n        /* \"contracts/Ptak.sol\":4487:4495  newOwner */\n      dup2\n        /* \"contracts/Ptak.sol\":4487:4509  newOwner != address(0) */\n      0xffffffffffffffffffffffffffffffffffffffff\n      and\n      sub\n        /* \"contracts/Ptak.sol\":4479:4529  require(newOwner != address(0), \"Invalid address\") */\n      tag_137\n      jumpi\n      mload(0x40)\n      0x08c379a000000000000000000000000000000000000000000000000000000000\n      dup2\n      mstore\n      0x04\n      add\n      tag_138\n      swap1\n      tag_139\n      jump\t// in\n    tag_138:\n      mload(0x40)\n      dup1\n      swap2\n      sub\n      swap1\n      revert\n    tag_137:\n        /* \"contracts/Ptak.sol\":4558:4566  newOwner */\n      dup1\n        /* \"contracts/Ptak.sol\":4540:4547  ownerOf */\n      0x04\n        /* \"contracts/Ptak.sol\":4540:4555  ownerOf[birdId] */\n      0x00\n        /* \"contracts/Ptak.sol\":4548:4554  birdId */\n      dup5\n        /* \"contracts/Ptak.sol\":4540:4555  ownerOf[birdId] */\n      dup2\n      mstore\n      0x20\n      add\n      swap1\n      dup2\n      mstore\n      0x20\n      add\n      0x00\n      keccak256\n      0x00\n        /* \"contracts/Ptak.sol\":4540:4566  ownerOf[birdId] = newOwner */\n      0x0100\n      exp\n      dup2\n      sload\n      dup2\n      0xffffffffffffffffffffffffffffffffffffffff\n      mul\n      not\n      and\n      swap1\n      dup4\n      0xffffffffffffffffffffffffffffffffffffffff\n      and\n      mul\n      or\n      swap1\n      sstore\n      pop\n        /* \"contracts/Ptak.sol\":4329:4574  function transferBird(uint256 birdId, address newOwner) external onlyPark {... */\n      pop\n      pop\n      jump\t// out\n        /* \"contracts/Ptak.sol\":1183:2318  function updateHungerAndAge(uint256 id) public {... */\n    tag_69:\n        /* \"contracts/Ptak.sol\":1241:1262  BirdData storage bird */\n      0x00\n        /* \"contracts/Ptak.sol\":1265:1270  birds */\n      0x00\n        /* \"contracts/Ptak.sol\":1265:1274  birds[id] */\n      0x00\n        /* \"contracts/Ptak.sol\":1271:1273  id */\n      dup4\n        /* \"contracts/Ptak.sol\":1265:1274  birds[id] */\n      dup2\n      mstore\n      0x20\n      add\n      swap1\n      dup2\n      mstore\n      0x20\n      add\n      0x00\n      keccak256\n        /* \"contracts/Ptak.sol\":1241:1274  BirdData storage bird = birds[id] */\n      swap1\n      pop\n        /* \"contracts/Ptak.sol\":1289:1293  bird */\n      dup1\n        /* \"contracts/Ptak.sol\":1289:1300  bird.isDead */\n      0x05\n      add\n      0x00\n      swap1\n      sload\n      swap1\n      0x0100\n      exp\n      swap1\n      div\n      0xff\n      and\n        /* \"contracts/Ptak.sol\":1285:1309  if (bird.isDead) return; */\n      iszero\n      tag_141\n      jumpi\n        /* \"contracts/Ptak.sol\":1302:1309  return; */\n      pop\n      jump(tag_140)\n        /* \"contracts/Ptak.sol\":1285:1309  if (bird.isDead) return; */\n    tag_141:\n        /* \"contracts/Ptak.sol\":1321:1340  uint256 timeElapsed */\n      0x00\n        /* \"contracts/Ptak.sol\":1361:1365  bird */\n      dup2\n        /* \"contracts/Ptak.sol\":1361:1380  bird.lastUpdateTime */\n      0x04\n      add\n      sload\n        /* \"contracts/Ptak.sol\":1343:1358  block.timestamp */\n      timestamp\n        /* \"contracts/Ptak.sol\":1343:1380  block.timestamp - bird.lastUpdateTime */\n      tag_142\n      swap2\n      swap1\n      tag_91\n      jump\t// in\n    tag_142:\n        /* \"contracts/Ptak.sol\":1321:1380  uint256 timeElapsed = block.timestamp - bird.lastUpdateTime */\n      swap1\n      pop\n        /* \"contracts/Ptak.sol\":1409:1410  0 */\n      0x00\n        /* \"contracts/Ptak.sol\":1395:1406  timeElapsed */\n      dup2\n        /* \"contracts/Ptak.sol\":1395:1410  timeElapsed > 0 */\n      gt\n        /* \"contracts/Ptak.sol\":1391:2311  if (timeElapsed > 0) {... */\n      iszero\n      tag_143\n      jumpi\n        /* \"contracts/Ptak.sol\":1427:1465  SpeciesLibrary.SpeciesInfo memory info */\n      0x00\n        /* \"contracts/Ptak.sol\":1468:1511  SpeciesLibrary.getSpeciesInfo(bird.species) */\n      tag_144\n        /* \"contracts/Ptak.sol\":1498:1502  bird */\n      dup4\n        /* \"contracts/Ptak.sol\":1498:1510  bird.species */\n      0x03\n      add\n      0x00\n      swap1\n      sload\n      swap1\n      0x0100\n      exp\n      swap1\n      div\n      0xff\n      and\n        /* \"contracts/Ptak.sol\":1468:1497  SpeciesLibrary.getSpeciesInfo */\n      tag_102\n        /* \"contracts/Ptak.sol\":1468:1511  SpeciesLibrary.getSpeciesInfo(bird.species) */\n      jump\t// in\n    tag_144:\n        /* \"contracts/Ptak.sol\":1427:1511  SpeciesLibrary.SpeciesInfo memory info = SpeciesLibrary.getSpeciesInfo(bird.species) */\n      swap1\n      pop\n        /* \"contracts/Ptak.sol\":1528:1550  uint256 hungerIncrease */\n      0x00\n        /* \"contracts/Ptak.sol\":1592:1596  3600 */\n      0x0e10\n        /* \"contracts/Ptak.sol\":1568:1572  info */\n      dup3\n        /* \"contracts/Ptak.sol\":1568:1588  info.hungerDecayRate */\n      0x40\n      add\n      mload\n        /* \"contracts/Ptak.sol\":1554:1565  timeElapsed */\n      dup5\n        /* \"contracts/Ptak.sol\":1554:1588  timeElapsed * info.hungerDecayRate */\n      tag_145\n      swap2\n      swap1\n      tag_146\n      jump\t// in\n    tag_145:\n        /* \"contracts/Ptak.sol\":1553:1596  (timeElapsed * info.hungerDecayRate) / 3600 */\n      tag_147\n      swap2\n      swap1\n      tag_148\n      jump\t// in\n    tag_147:\n        /* \"contracts/Ptak.sol\":1528:1596  uint256 hungerIncrease = (timeElapsed * info.hungerDecayRate) / 3600 */\n      swap1\n      pop\n        /* \"contracts/Ptak.sol\":1626:1640  hungerIncrease */\n      dup1\n        /* \"contracts/Ptak.sol\":1611:1615  bird */\n      dup5\n        /* \"contracts/Ptak.sol\":1611:1622  bird.hunger */\n      0x01\n      add\n      0x00\n        /* \"contracts/Ptak.sol\":1611:1640  bird.hunger += hungerIncrease */\n      dup3\n      dup3\n      sload\n      tag_149\n      swap2\n      swap1\n      tag_150\n      jump\t// in\n    tag_149:\n      swap3\n      pop\n      pop\n      dup2\n      swap1\n      sstore\n      pop\n        /* \"contracts/Ptak.sol\":1675:1679  info */\n      dup2\n        /* \"contracts/Ptak.sol\":1675:1689  info.maxHunger */\n      0x20\n      add\n      mload\n        /* \"contracts/Ptak.sol\":1661:1665  bird */\n      dup5\n        /* \"contracts/Ptak.sol\":1661:1672  bird.hunger */\n      0x01\n      add\n      sload\n        /* \"contracts/Ptak.sol\":1661:1689  bird.hunger > info.maxHunger */\n      gt\n        /* \"contracts/Ptak.sol\":1657:2098  if (bird.hunger > info.maxHunger) {... */\n      iszero\n      tag_151\n      jumpi\n        /* \"contracts/Ptak.sol\":1710:1726  uint256 overflow */\n      0x00\n        /* \"contracts/Ptak.sol\":1743:1747  info */\n      dup3\n        /* \"contracts/Ptak.sol\":1743:1757  info.maxHunger */\n      0x20\n      add\n      mload\n        /* \"contracts/Ptak.sol\":1729:1733  bird */\n      dup6\n        /* \"contracts/Ptak.sol\":1729:1740  bird.hunger */\n      0x01\n      add\n      sload\n        /* \"contracts/Ptak.sol\":1729:1757  bird.hunger - info.maxHunger */\n      tag_152\n      swap2\n      swap1\n      tag_91\n      jump\t// in\n    tag_152:\n        /* \"contracts/Ptak.sol\":1710:1757  uint256 overflow = bird.hunger - info.maxHunger */\n      swap1\n      pop\n        /* \"contracts/Ptak.sol\":1790:1794  info */\n      dup3\n        /* \"contracts/Ptak.sol\":1790:1804  info.maxHunger */\n      0x20\n      add\n      mload\n        /* \"contracts/Ptak.sol\":1776:1780  bird */\n      dup6\n        /* \"contracts/Ptak.sol\":1776:1787  bird.hunger */\n      0x01\n      add\n        /* \"contracts/Ptak.sol\":1776:1804  bird.hunger = info.maxHunger */\n      dup2\n      swap1\n      sstore\n      pop\n        /* \"contracts/Ptak.sol\":1842:1850  overflow */\n      dup1\n        /* \"contracts/Ptak.sol\":1827:1831  bird */\n      dup6\n        /* \"contracts/Ptak.sol\":1827:1838  bird.health */\n      0x02\n      add\n      sload\n        /* \"contracts/Ptak.sol\":1827:1850  bird.health <= overflow */\n      gt\n        /* \"contracts/Ptak.sol\":1823:2083  if (bird.health <= overflow) {... */\n      tag_153\n      jumpi\n        /* \"contracts/Ptak.sol\":1889:1890  0 */\n      0x00\n        /* \"contracts/Ptak.sol\":1875:1879  bird */\n      dup6\n        /* \"contracts/Ptak.sol\":1875:1886  bird.health */\n      0x02\n      add\n        /* \"contracts/Ptak.sol\":1875:1890  bird.health = 0 */\n      dup2\n      swap1\n      sstore\n      pop\n        /* \"contracts/Ptak.sol\":1927:1931  true */\n      0x01\n        /* \"contracts/Ptak.sol\":1913:1917  bird */\n      dup6\n        /* \"contracts/Ptak.sol\":1913:1924  bird.isDead */\n      0x05\n      add\n      0x00\n        /* \"contracts/Ptak.sol\":1913:1931  bird.isDead = true */\n      0x0100\n      exp\n      dup2\n      sload\n      dup2\n      0xff\n      mul\n      not\n      and\n      swap1\n      dup4\n      iszero\n      iszero\n      mul\n      or\n      swap1\n      sstore\n      pop\n        /* \"contracts/Ptak.sol\":1976:1991  block.timestamp */\n      timestamp\n        /* \"contracts/Ptak.sol\":1954:1958  bird */\n      dup6\n        /* \"contracts/Ptak.sol\":1954:1973  bird.deathTimestamp */\n      0x06\n      add\n        /* \"contracts/Ptak.sol\":1954:1991  bird.deathTimestamp = block.timestamp */\n      dup2\n      swap1\n      sstore\n      pop\n        /* \"contracts/Ptak.sol\":1823:2083  if (bird.health <= overflow) {... */\n      jump(tag_154)\n    tag_153:\n        /* \"contracts/Ptak.sol\":2055:2063  overflow */\n      dup1\n        /* \"contracts/Ptak.sol\":2040:2044  bird */\n      dup6\n        /* \"contracts/Ptak.sol\":2040:2051  bird.health */\n      0x02\n      add\n      0x00\n        /* \"contracts/Ptak.sol\":2040:2063  bird.health -= overflow */\n      dup3\n      dup3\n      sload\n      tag_155\n      swap2\n      swap1\n      tag_91\n      jump\t// in\n    tag_155:\n      swap3\n      pop\n      pop\n      dup2\n      swap1\n      sstore\n      pop\n        /* \"contracts/Ptak.sol\":1823:2083  if (bird.health <= overflow) {... */\n    tag_154:\n        /* \"contracts/Ptak.sol\":1691:2098  {... */\n      pop\n        /* \"contracts/Ptak.sol\":1657:2098  if (bird.hunger > info.maxHunger) {... */\n    tag_151:\n        /* \"contracts/Ptak.sol\":2114:2132  uint256 daysPassed */\n      0x00\n        /* \"contracts/Ptak.sol\":2149:2154  86400 */\n      0x015180\n        /* \"contracts/Ptak.sol\":2135:2146  timeElapsed */\n      dup5\n        /* \"contracts/Ptak.sol\":2135:2154  timeElapsed / 86400 */\n      tag_156\n      swap2\n      swap1\n      tag_148\n      jump\t// in\n    tag_156:\n        /* \"contracts/Ptak.sol\":2114:2154  uint256 daysPassed = timeElapsed / 86400 */\n      swap1\n      pop\n        /* \"contracts/Ptak.sol\":2186:2187  0 */\n      0x00\n        /* \"contracts/Ptak.sol\":2173:2183  daysPassed */\n      dup2\n        /* \"contracts/Ptak.sol\":2173:2187  daysPassed > 0 */\n      gt\n        /* \"contracts/Ptak.sol\":2169:2246  if (daysPassed > 0) {... */\n      iszero\n      tag_157\n      jumpi\n        /* \"contracts/Ptak.sol\":2220:2230  daysPassed */\n      dup1\n        /* \"contracts/Ptak.sol\":2208:2212  bird */\n      dup6\n        /* \"contracts/Ptak.sol\":2208:2216  bird.age */\n      0x00\n      add\n      0x00\n        /* \"contracts/Ptak.sol\":2208:2230  bird.age += daysPassed */\n      dup3\n      dup3\n      sload\n      tag_158\n      swap2\n      swap1\n      tag_150\n      jump\t// in\n    tag_158:\n      swap3\n      pop\n      pop\n      dup2\n      swap1\n      sstore\n      pop\n        /* \"contracts/Ptak.sol\":2169:2246  if (daysPassed > 0) {... */\n    tag_157:\n        /* \"contracts/Ptak.sol\":2284:2299  block.timestamp */\n      timestamp\n        /* \"contracts/Ptak.sol\":2262:2266  bird */\n      dup6\n        /* \"contracts/Ptak.sol\":2262:2281  bird.lastUpdateTime */\n      0x04\n      add\n        /* \"contracts/Ptak.sol\":2262:2299  bird.lastUpdateTime = block.timestamp */\n      dup2\n      swap1\n      sstore\n      pop\n        /* \"contracts/Ptak.sol\":1412:2311  {... */\n      pop\n      pop\n      pop\n        /* \"contracts/Ptak.sol\":1391:2311  if (timeElapsed > 0) {... */\n    tag_143:\n        /* \"contracts/Ptak.sol\":1230:2318  {... */\n      pop\n      pop\n        /* \"contracts/Ptak.sol\":1183:2318  function updateHungerAndAge(uint256 id) public {... */\n    tag_140:\n      pop\n      jump\t// out\n        /* \"contracts/Ptak.sol\":2328:2592  function healBird(uint256 birdId) external onlyPark {... */\n    tag_72:\n        /* \"contracts/Ptak.sol\":667:679  parkContract */\n      0x02\n      0x00\n      swap1\n      sload\n      swap1\n      0x0100\n      exp\n      swap1\n      div\n      0xffffffffffffffffffffffffffffffffffffffff\n      and\n        /* \"contracts/Ptak.sol\":653:679  msg.sender == parkContract */\n      0xffffffffffffffffffffffffffffffffffffffff\n      and\n        /* \"contracts/Ptak.sol\":653:663  msg.sender */\n      caller\n        /* \"contracts/Ptak.sol\":653:679  msg.sender == parkContract */\n      0xffffffffffffffffffffffffffffffffffffffff\n      and\n      eq\n        /* \"contracts/Ptak.sol\":645:707  require(msg.sender == parkContract, \"Only Park can call this\") */\n      tag_160\n      jumpi\n      mload(0x40)\n      0x08c379a000000000000000000000000000000000000000000000000000000000\n      dup2\n      mstore\n      0x04\n      add\n      tag_161\n      swap1\n      tag_81\n      jump\t// in\n    tag_161:\n      mload(0x40)\n      dup1\n      swap2\n      sub\n      swap1\n      revert\n    tag_160:\n        /* \"contracts/Ptak.sol\":2391:2412  BirdData storage bird */\n      0x00\n        /* \"contracts/Ptak.sol\":2415:2420  birds */\n      0x00\n        /* \"contracts/Ptak.sol\":2415:2428  birds[birdId] */\n      0x00\n        /* \"contracts/Ptak.sol\":2421:2427  birdId */\n      dup4\n        /* \"contracts/Ptak.sol\":2415:2428  birds[birdId] */\n      dup2\n      mstore\n      0x20\n      add\n      swap1\n      dup2\n      mstore\n      0x20\n      add\n      0x00\n      keccak256\n        /* \"contracts/Ptak.sol\":2391:2428  BirdData storage bird = birds[birdId] */\n      swap1\n      pop\n        /* \"contracts/Ptak.sol\":2448:2452  bird */\n      dup1\n        /* \"contracts/Ptak.sol\":2448:2459  bird.isDead */\n      0x05\n      add\n      0x00\n      swap1\n      sload\n      swap1\n      0x0100\n      exp\n      swap1\n      div\n      0xff\n      and\n        /* \"contracts/Ptak.sol\":2447:2459  !bird.isDead */\n      iszero\n        /* \"contracts/Ptak.sol\":2439:2504  require(!bird.isDead, \"Cannot heal a dead bird; revive it first\") */\n      tag_163\n      jumpi\n      mload(0x40)\n      0x08c379a000000000000000000000000000000000000000000000000000000000\n      dup2\n      mstore\n      0x04\n      add\n      tag_164\n      swap1\n      tag_165\n      jump\t// in\n    tag_164:\n      mload(0x40)\n      dup1\n      swap2\n      sub\n      swap1\n      revert\n    tag_163:\n        /* \"contracts/Ptak.sol\":2531:2574  SpeciesLibrary.getSpeciesInfo(bird.species) */\n      tag_166\n        /* \"contracts/Ptak.sol\":2561:2565  bird */\n      dup2\n        /* \"contracts/Ptak.sol\":2561:2573  bird.species */\n      0x03\n      add\n      0x00\n      swap1\n      sload\n      swap1\n      0x0100\n      exp\n      swap1\n      div\n      0xff\n      and\n        /* \"contracts/Ptak.sol\":2531:2560  SpeciesLibrary.getSpeciesInfo */\n      tag_102\n        /* \"contracts/Ptak.sol\":2531:2574  SpeciesLibrary.getSpeciesInfo(bird.species) */\n      jump\t// in\n    tag_166:\n        /* \"contracts/Ptak.sol\":2531:2584  SpeciesLibrary.getSpeciesInfo(bird.species).maxHealth */\n      0x00\n      add\n      mload\n        /* \"contracts/Ptak.sol\":2517:2521  bird */\n      dup2\n        /* \"contracts/Ptak.sol\":2517:2528  bird.health */\n      0x02\n      add\n        /* \"contracts/Ptak.sol\":2517:2584  bird.health = SpeciesLibrary.getSpeciesInfo(bird.species).maxHealth */\n      dup2\n      swap1\n      sstore\n      pop\n        /* \"contracts/Ptak.sol\":2380:2592  {... */\n      pop\n        /* \"contracts/Ptak.sol\":2328:2592  function healBird(uint256 birdId) external onlyPark {... */\n      pop\n      jump\t// out\n        /* \"contracts/Ptak.sol\":405:446  mapping(uint256 => BirdData) public birds */\n    tag_75:\n      mstore(0x20, 0x00)\n      dup1\n      0x00\n      mstore\n      keccak256(0x00, 0x40)\n      0x00\n      swap2\n      pop\n      swap1\n      pop\n      dup1\n      0x00\n      add\n      sload\n      swap1\n      dup1\n      0x01\n      add\n      sload\n      swap1\n      dup1\n      0x02\n      add\n      sload\n      swap1\n      dup1\n      0x03\n      add\n      0x00\n      swap1\n      sload\n      swap1\n      0x0100\n      exp\n      swap1\n      div\n      0xff\n      and\n      swap1\n      dup1\n      0x04\n      add\n      sload\n      swap1\n      dup1\n      0x05\n      add\n      0x00\n      swap1\n      sload\n      swap1\n      0x0100\n      exp\n      swap1\n      div\n      0xff\n      and\n      swap1\n      dup1\n      0x06\n      add\n      sload\n      swap1\n      pop\n      dup8\n      jump\t// out\n        /* \"contracts/Ptak.sol\":2600:3138  function randomPoisoning(uint256 birdId) private {... */\n    tag_85:\n        /* \"contracts/Ptak.sol\":2660:2698  SpeciesLibrary.SpeciesInfo memory info */\n      tag_168\n      tag_169\n      jump\t// in\n    tag_168:\n        /* \"contracts/Ptak.sol\":2709:2735  Ptak.BirdData storage bird */\n      0x00\n        /* \"contracts/Ptak.sol\":2738:2743  birds */\n      0x00\n        /* \"contracts/Ptak.sol\":2738:2751  birds[birdId] */\n      0x00\n        /* \"contracts/Ptak.sol\":2744:2750  birdId */\n      dup5\n        /* \"contracts/Ptak.sol\":2738:2751  birds[birdId] */\n      dup2\n      mstore\n      0x20\n      add\n      swap1\n      dup2\n      mstore\n      0x20\n      add\n      0x00\n      keccak256\n        /* \"contracts/Ptak.sol\":2709:2751  Ptak.BirdData storage bird = birds[birdId] */\n      swap1\n      pop\n        /* \"contracts/Ptak.sol\":2769:2812  SpeciesLibrary.getSpeciesInfo(bird.species) */\n      tag_170\n        /* \"contracts/Ptak.sol\":2799:2803  bird */\n      dup2\n        /* \"contracts/Ptak.sol\":2799:2811  bird.species */\n      0x03\n      add\n      0x00\n      swap1\n      sload\n      swap1\n      0x0100\n      exp\n      swap1\n      div\n      0xff\n      and\n        /* \"contracts/Ptak.sol\":2769:2798  SpeciesLibrary.getSpeciesInfo */\n      tag_102\n        /* \"contracts/Ptak.sol\":2769:2812  SpeciesLibrary.getSpeciesInfo(bird.species) */\n      jump\t// in\n    tag_170:\n        /* \"contracts/Ptak.sol\":2762:2812  info = SpeciesLibrary.getSpeciesInfo(bird.species) */\n      swap2\n      pop\n        /* \"contracts/Ptak.sol\":2829:2836  insured */\n      0x03\n        /* \"contracts/Ptak.sol\":2829:2844  insured[birdId] */\n      0x00\n        /* \"contracts/Ptak.sol\":2837:2843  birdId */\n      dup5\n        /* \"contracts/Ptak.sol\":2829:2844  insured[birdId] */\n      dup2\n      mstore\n      0x20\n      add\n      swap1\n      dup2\n      mstore\n      0x20\n      add\n      0x00\n      keccak256\n      0x00\n      swap1\n      sload\n      swap1\n      0x0100\n      exp\n      swap1\n      div\n      0xff\n      and\n        /* \"contracts/Ptak.sol\":2825:3131  if(!insured[birdId]){... */\n      tag_171\n      jumpi\n        /* \"contracts/Ptak.sol\":2860:2874  uint256 chance */\n      0x00\n        /* \"contracts/Ptak.sol\":2877:2920  SpeciesLibrary.getSpeciesInfo(bird.species) */\n      tag_172\n        /* \"contracts/Ptak.sol\":2907:2911  bird */\n      dup3\n        /* \"contracts/Ptak.sol\":2907:2919  bird.species */\n      0x03\n      add\n      0x00\n      swap1\n      sload\n      swap1\n      0x0100\n      exp\n      swap1\n      div\n      0xff\n      and\n        /* \"contracts/Ptak.sol\":2877:2906  SpeciesLibrary.getSpeciesInfo */\n      tag_102\n        /* \"contracts/Ptak.sol\":2877:2920  SpeciesLibrary.getSpeciesInfo(bird.species) */\n      jump\t// in\n    tag_172:\n        /* \"contracts/Ptak.sol\":2877:2936  SpeciesLibrary.getSpeciesInfo(bird.species).poisoningChance */\n      0x60\n      add\n      mload\n        /* \"contracts/Ptak.sol\":2860:2936  uint256 chance = SpeciesLibrary.getSpeciesInfo(bird.species).poisoningChance */\n      swap1\n      pop\n        /* \"contracts/Ptak.sol\":2951:2963  uint256 rand */\n      0x00\n        /* \"contracts/Ptak.sol\":3030:3033  100 */\n      0x64\n        /* \"contracts/Ptak.sol\":3001:3016  block.timestamp */\n      timestamp\n        /* \"contracts/Ptak.sol\":3018:3024  birdId */\n      dup7\n        /* \"contracts/Ptak.sol\":2984:3025  abi.encodePacked(block.timestamp, birdId) */\n      add(0x20, mload(0x40))\n      tag_173\n      swap3\n      swap2\n      swap1\n      tag_174\n      jump\t// in\n    tag_173:\n      mload(0x40)\n      0x20\n      dup2\n      dup4\n      sub\n      sub\n      dup2\n      mstore\n      swap1\n      0x40\n      mstore\n        /* \"contracts/Ptak.sol\":2974:3026  keccak256(abi.encodePacked(block.timestamp, birdId)) */\n      dup1\n      mload\n      swap1\n      0x20\n      add\n      keccak256\n        /* \"contracts/Ptak.sol\":2966:3027  uint256(keccak256(abi.encodePacked(block.timestamp, birdId))) */\n      0x00\n      shr\n        /* \"contracts/Ptak.sol\":2966:3033  uint256(keccak256(abi.encodePacked(block.timestamp, birdId))) % 100 */\n      tag_175\n      swap2\n      swap1\n      tag_176\n      jump\t// in\n    tag_175:\n        /* \"contracts/Ptak.sol\":2951:3033  uint256 rand = uint256(keccak256(abi.encodePacked(block.timestamp, birdId))) % 100 */\n      swap1\n      pop\n        /* \"contracts/Ptak.sol\":3060:3066  chance */\n      dup2\n        /* \"contracts/Ptak.sol\":3053:3057  rand */\n      dup2\n        /* \"contracts/Ptak.sol\":3053:3066  rand < chance */\n      lt\n        /* \"contracts/Ptak.sol\":3050:3120  if(rand < chance) {... */\n      iszero\n      tag_177\n      jumpi\n        /* \"contracts/Ptak.sol\":3102:3104  25 */\n      0x19\n        /* \"contracts/Ptak.sol\":3087:3091  bird */\n      dup4\n        /* \"contracts/Ptak.sol\":3087:3098  bird.health */\n      0x02\n      add\n      0x00\n        /* \"contracts/Ptak.sol\":3087:3104  bird.health -= 25 */\n      dup3\n      dup3\n      sload\n      tag_178\n      swap2\n      swap1\n      tag_91\n      jump\t// in\n    tag_178:\n      swap3\n      pop\n      pop\n      dup2\n      swap1\n      sstore\n      pop\n        /* \"contracts/Ptak.sol\":3050:3120  if(rand < chance) {... */\n    tag_177:\n        /* \"contracts/Ptak.sol\":2845:3131  {... */\n      pop\n      pop\n        /* \"contracts/Ptak.sol\":2825:3131  if(!insured[birdId]){... */\n    tag_171:\n        /* \"contracts/Ptak.sol\":2649:3138  {... */\n      pop\n      pop\n        /* \"contracts/Ptak.sol\":2600:3138  function randomPoisoning(uint256 birdId) private {... */\n      pop\n      jump\t// out\n        /* \"contracts/SpeciesLibrary.sol\":1596:3157  function getSpeciesInfo(Species species) internal pure returns (SpeciesInfo memory) {... */\n    tag_102:\n        /* \"contracts/SpeciesLibrary.sol\":1660:1678  SpeciesInfo memory */\n      tag_179\n      tag_169\n      jump\t// in\n    tag_179:\n        /* \"contracts/SpeciesLibrary.sol\":1706:1722  Species.MuteSwan */\n      0x00\n        /* \"contracts/SpeciesLibrary.sol\":1695:1722  species == Species.MuteSwan */\n      0x0a\n      dup2\n      gt\n      iszero\n      tag_181\n      jumpi\n      tag_182\n      tag_105\n      jump\t// in\n    tag_182:\n    tag_181:\n        /* \"contracts/SpeciesLibrary.sol\":1695:1702  species */\n      dup3\n        /* \"contracts/SpeciesLibrary.sol\":1695:1722  species == Species.MuteSwan */\n      0x0a\n      dup2\n      gt\n      iszero\n      tag_183\n      jumpi\n      tag_184\n      tag_105\n      jump\t// in\n    tag_184:\n    tag_183:\n      sub\n        /* \"contracts/SpeciesLibrary.sol\":1691:3114  if (species == Species.MuteSwan) {... */\n      tag_185\n      jumpi\n        /* \"contracts/SpeciesLibrary.sol\":1746:1870  SpeciesInfo(200, 150, 3, 1, \"https://gateway.pinata.cloud/ipfs/bafybeia3le4astknh2p4mbkd5w42j522tnse4wxk7w5m7wimoqdp6ouzpy\") */\n      mload(0x40)\n      dup1\n      0xa0\n      add\n      0x40\n      mstore\n      dup1\n        /* \"contracts/SpeciesLibrary.sol\":1758:1761  200 */\n      0xc8\n        /* \"contracts/SpeciesLibrary.sol\":1746:1870  SpeciesInfo(200, 150, 3, 1, \"https://gateway.pinata.cloud/ipfs/bafybeia3le4astknh2p4mbkd5w42j522tnse4wxk7w5m7wimoqdp6ouzpy\") */\n      dup2\n      mstore\n      0x20\n      add\n        /* \"contracts/SpeciesLibrary.sol\":1763:1766  150 */\n      0x96\n        /* \"contracts/SpeciesLibrary.sol\":1746:1870  SpeciesInfo(200, 150, 3, 1, \"https://gateway.pinata.cloud/ipfs/bafybeia3le4astknh2p4mbkd5w42j522tnse4wxk7w5m7wimoqdp6ouzpy\") */\n      dup2\n      mstore\n      0x20\n      add\n        /* \"contracts/SpeciesLibrary.sol\":1768:1769  3 */\n      0x03\n        /* \"contracts/SpeciesLibrary.sol\":1746:1870  SpeciesInfo(200, 150, 3, 1, \"https://gateway.pinata.cloud/ipfs/bafybeia3le4astknh2p4mbkd5w42j522tnse4wxk7w5m7wimoqdp6ouzpy\") */\n      dup2\n      mstore\n      0x20\n      add\n        /* \"contracts/SpeciesLibrary.sol\":1771:1772  1 */\n      0x01\n        /* \"contracts/SpeciesLibrary.sol\":1746:1870  SpeciesInfo(200, 150, 3, 1, \"https://gateway.pinata.cloud/ipfs/bafybeia3le4astknh2p4mbkd5w42j522tnse4wxk7w5m7wimoqdp6ouzpy\") */\n      dup2\n      mstore\n      0x20\n      add\n      mload(0x40)\n      dup1\n      0x80\n      add\n      0x40\n      mstore\n      dup1\n      0x5d\n      dup2\n      mstore\n      0x20\n      add\n      data_1ffc5c99f8ff866cb3cb9bd46d45453badb8f26649052a31a9be49b9b43149da\n      0x5d\n      swap2\n      codecopy\n      dup2\n      mstore\n      pop\n        /* \"contracts/SpeciesLibrary.sol\":1739:1870  return SpeciesInfo(200, 150, 3, 1, \"https://gateway.pinata.cloud/ipfs/bafybeia3le4astknh2p4mbkd5w42j522tnse4wxk7w5m7wimoqdp6ouzpy\") */\n      swap1\n      pop\n      jump(tag_180)\n        /* \"contracts/SpeciesLibrary.sol\":1691:3114  if (species == Species.MuteSwan) {... */\n    tag_185:\n        /* \"contracts/SpeciesLibrary.sol\":1903:1921  Species.WhiteStork */\n      0x01\n        /* \"contracts/SpeciesLibrary.sol\":1892:1921  species == Species.WhiteStork */\n      0x0a\n      dup2\n      gt\n      iszero\n      tag_187\n      jumpi\n      tag_188\n      tag_105\n      jump\t// in\n    tag_188:\n    tag_187:\n        /* \"contracts/SpeciesLibrary.sol\":1892:1899  species */\n      dup3\n        /* \"contracts/SpeciesLibrary.sol\":1892:1921  species == Species.WhiteStork */\n      0x0a\n      dup2\n      gt\n      iszero\n      tag_189\n      jumpi\n      tag_190\n      tag_105\n      jump\t// in\n    tag_190:\n    tag_189:\n      sub\n        /* \"contracts/SpeciesLibrary.sol\":1888:3114  if (species == Species.WhiteStork) {... */\n      tag_191\n      jumpi\n        /* \"contracts/SpeciesLibrary.sol\":1945:2069  SpeciesInfo(220, 200, 2, 5, \"https://gateway.pinata.cloud/ipfs/bafybeigohotok6k3onvtjyypfnbnzbcso2qcixbwz4wh64vp2n3lq7nksa\") */\n      mload(0x40)\n      dup1\n      0xa0\n      add\n      0x40\n      mstore\n      dup1\n        /* \"contracts/SpeciesLibrary.sol\":1957:1960  220 */\n      0xdc\n        /* \"contracts/SpeciesLibrary.sol\":1945:2069  SpeciesInfo(220, 200, 2, 5, \"https://gateway.pinata.cloud/ipfs/bafybeigohotok6k3onvtjyypfnbnzbcso2qcixbwz4wh64vp2n3lq7nksa\") */\n      dup2\n      mstore\n      0x20\n      add\n        /* \"contracts/SpeciesLibrary.sol\":1962:1965  200 */\n      0xc8\n        /* \"contracts/SpeciesLibrary.sol\":1945:2069  SpeciesInfo(220, 200, 2, 5, \"https://gateway.pinata.cloud/ipfs/bafybeigohotok6k3onvtjyypfnbnzbcso2qcixbwz4wh64vp2n3lq7nksa\") */\n      dup2\n      mstore\n      0x20\n      add\n        /* \"contracts/SpeciesLibrary.sol\":1967:1968  2 */\n      0x02\n        /* \"contracts/SpeciesLibrary.sol\":1945:2069  SpeciesInfo(220, 200, 2, 5, \"https://gateway.pinata.cloud/ipfs/bafybeigohotok6k3onvtjyypfnbnzbcso2qcixbwz4wh64vp2n3lq7nksa\") */\n      dup2\n      mstore\n      0x20\n      add\n        /* \"contracts/SpeciesLibrary.sol\":1970:1971  5 */\n      0x05\n        /* \"contracts/SpeciesLibrary.sol\":1945:2069  SpeciesInfo(220, 200, 2, 5, \"https://gateway.pinata.cloud/ipfs/bafybeigohotok6k3onvtjyypfnbnzbcso2qcixbwz4wh64vp2n3lq7nksa\") */\n      dup2\n      mstore\n      0x20\n      add\n      mload(0x40)\n      dup1\n      0x80\n      add\n      0x40\n      mstore\n      dup1\n      0x5d\n      dup2\n      mstore\n      0x20\n      add\n      data_86e92b1a76e2f297d69c89af4232d1b3e647fd322843457f38b762c99d8ee708\n      0x5d\n      swap2\n      codecopy\n      dup2\n      mstore\n      pop\n        /* \"contracts/SpeciesLibrary.sol\":1938:2069  return SpeciesInfo(220, 200, 2, 5, \"https://gateway.pinata.cloud/ipfs/bafybeigohotok6k3onvtjyypfnbnzbcso2qcixbwz4wh64vp2n3lq7nksa\") */\n      swap1\n      pop\n      jump(tag_180)\n        /* \"contracts/SpeciesLibrary.sol\":1888:3114  if (species == Species.WhiteStork) {... */\n    tag_191:\n        /* \"contracts/SpeciesLibrary.sol\":2102:2121  Species.MallardDuck */\n      0x02\n        /* \"contracts/SpeciesLibrary.sol\":2091:2121  species == Species.MallardDuck */\n      0x0a\n      dup2\n      gt\n      iszero\n      tag_193\n      jumpi\n      tag_194\n      tag_105\n      jump\t// in\n    tag_194:\n    tag_193:\n        /* \"contracts/SpeciesLibrary.sol\":2091:2098  species */\n      dup3\n        /* \"contracts/SpeciesLibrary.sol\":2091:2121  species == Species.MallardDuck */\n      0x0a\n      dup2\n      gt\n      iszero\n      tag_195\n      jumpi\n      tag_196\n      tag_105\n      jump\t// in\n    tag_196:\n    tag_195:\n      sub\n        /* \"contracts/SpeciesLibrary.sol\":2087:3114  if (species == Species.MallardDuck) {... */\n      tag_197\n      jumpi\n        /* \"contracts/SpeciesLibrary.sol\":2145:2267  SpeciesInfo(80, 80, 3, 6, \"https://gateway.pinata.cloud/ipfs/bafybeiev7pucz7yh7x6haidmphp5ieobvcfdclnlwjqa2ivs4y357pvwma\") */\n      mload(0x40)\n      dup1\n      0xa0\n      add\n      0x40\n      mstore\n      dup1\n        /* \"contracts/SpeciesLibrary.sol\":2157:2159  80 */\n      0x50\n        /* \"contracts/SpeciesLibrary.sol\":2145:2267  SpeciesInfo(80, 80, 3, 6, \"https://gateway.pinata.cloud/ipfs/bafybeiev7pucz7yh7x6haidmphp5ieobvcfdclnlwjqa2ivs4y357pvwma\") */\n      dup2\n      mstore\n      0x20\n      add\n        /* \"contracts/SpeciesLibrary.sol\":2161:2163  80 */\n      0x50\n        /* \"contracts/SpeciesLibrary.sol\":2145:2267  SpeciesInfo(80, 80, 3, 6, \"https://gateway.pinata.cloud/ipfs/bafybeiev7pucz7yh7x6haidmphp5ieobvcfdclnlwjqa2ivs4y357pvwma\") */\n      dup2\n      mstore\n      0x20\n      add\n        /* \"contracts/SpeciesLibrary.sol\":2165:2166  3 */\n      0x03\n        /* \"contracts/SpeciesLibrary.sol\":2145:2267  SpeciesInfo(80, 80, 3, 6, \"https://gateway.pinata.cloud/ipfs/bafybeiev7pucz7yh7x6haidmphp5ieobvcfdclnlwjqa2ivs4y357pvwma\") */\n      dup2\n      mstore\n      0x20\n      add\n        /* \"contracts/SpeciesLibrary.sol\":2168:2169  6 */\n      0x06\n        /* \"contracts/SpeciesLibrary.sol\":2145:2267  SpeciesInfo(80, 80, 3, 6, \"https://gateway.pinata.cloud/ipfs/bafybeiev7pucz7yh7x6haidmphp5ieobvcfdclnlwjqa2ivs4y357pvwma\") */\n      dup2\n      mstore\n      0x20\n      add\n      mload(0x40)\n      dup1\n      0x80\n      add\n      0x40\n      mstore\n      dup1\n      0x5d\n      dup2\n      mstore\n      0x20\n      add\n      data_3bbf1c81af77207dbf9db8f891697113273de930322fc10149aebcb2d416dad6\n      0x5d\n      swap2\n      codecopy\n      dup2\n      mstore\n      pop\n        /* \"contracts/SpeciesLibrary.sol\":2138:2267  return SpeciesInfo(80, 80, 3, 6, \"https://gateway.pinata.cloud/ipfs/bafybeiev7pucz7yh7x6haidmphp5ieobvcfdclnlwjqa2ivs4y357pvwma\") */\n      swap1\n      pop\n      jump(tag_180)\n        /* \"contracts/SpeciesLibrary.sol\":2087:3114  if (species == Species.MallardDuck) {... */\n    tag_197:\n        /* \"contracts/SpeciesLibrary.sol\":2300:2316  Species.Mythical */\n      0x0a\n        /* \"contracts/SpeciesLibrary.sol\":2289:2316  species == Species.Mythical */\n      dup1\n      dup2\n      gt\n      iszero\n      tag_199\n      jumpi\n      tag_200\n      tag_105\n      jump\t// in\n    tag_200:\n    tag_199:\n        /* \"contracts/SpeciesLibrary.sol\":2289:2296  species */\n      dup3\n        /* \"contracts/SpeciesLibrary.sol\":2289:2316  species == Species.Mythical */\n      0x0a\n      dup2\n      gt\n      iszero\n      tag_201\n      jumpi\n      tag_202\n      tag_105\n      jump\t// in\n    tag_202:\n    tag_201:\n      sub\n        /* \"contracts/SpeciesLibrary.sol\":2285:3114  if (species == Species.Mythical) {... */\n      tag_203\n      jumpi\n        /* \"contracts/SpeciesLibrary.sol\":2340:2371  SpeciesInfo(300, 300, 1, 0, \"\") */\n      mload(0x40)\n      dup1\n      0xa0\n      add\n      0x40\n      mstore\n      dup1\n        /* \"contracts/SpeciesLibrary.sol\":2352:2355  300 */\n      0x012c\n        /* \"contracts/SpeciesLibrary.sol\":2340:2371  SpeciesInfo(300, 300, 1, 0, \"\") */\n      dup2\n      mstore\n      0x20\n      add\n        /* \"contracts/SpeciesLibrary.sol\":2357:2360  300 */\n      0x012c\n        /* \"contracts/SpeciesLibrary.sol\":2340:2371  SpeciesInfo(300, 300, 1, 0, \"\") */\n      dup2\n      mstore\n      0x20\n      add\n        /* \"contracts/SpeciesLibrary.sol\":2362:2363  1 */\n      0x01\n        /* \"contracts/SpeciesLibrary.sol\":2340:2371  SpeciesInfo(300, 300, 1, 0, \"\") */\n      dup2\n      mstore\n      0x20\n      add\n        /* \"contracts/SpeciesLibrary.sol\":2365:2366  0 */\n      0x00\n        /* \"contracts/SpeciesLibrary.sol\":2340:2371  SpeciesInfo(300, 300, 1, 0, \"\") */\n      dup2\n      mstore\n      0x20\n      add\n      mload(0x40)\n      dup1\n      0x20\n      add\n      0x40\n      mstore\n      dup1\n      0x00\n      dup2\n      mstore\n      pop\n      dup2\n      mstore\n      pop\n        /* \"contracts/SpeciesLibrary.sol\":2333:2371  return SpeciesInfo(300, 300, 1, 0, \"\") */\n      swap1\n      pop\n      jump(tag_180)\n        /* \"contracts/SpeciesLibrary.sol\":2285:3114  if (species == Species.Mythical) {... */\n    tag_203:\n        /* \"contracts/SpeciesLibrary.sol\":2404:2421  Species.GreyHeron */\n      0x03\n        /* \"contracts/SpeciesLibrary.sol\":2393:2421  species == Species.GreyHeron */\n      0x0a\n      dup2\n      gt\n      iszero\n      tag_205\n      jumpi\n      tag_206\n      tag_105\n      jump\t// in\n    tag_206:\n    tag_205:\n        /* \"contracts/SpeciesLibrary.sol\":2393:2400  species */\n      dup3\n        /* \"contracts/SpeciesLibrary.sol\":2393:2421  species == Species.GreyHeron */\n      0x0a\n      dup2\n      gt\n      iszero\n      tag_207\n      jumpi\n      tag_208\n      tag_105\n      jump\t// in\n    tag_208:\n    tag_207:\n      sub\n        /* \"contracts/SpeciesLibrary.sol\":2389:3114  if (species == Species.GreyHeron) {... */\n      tag_209\n      jumpi\n        /* \"contracts/SpeciesLibrary.sol\":2445:2475  SpeciesInfo(180, 90, 2, 4, \"\") */\n      mload(0x40)\n      dup1\n      0xa0\n      add\n      0x40\n      mstore\n      dup1\n        /* \"contracts/SpeciesLibrary.sol\":2457:2460  180 */\n      0xb4\n        /* \"contracts/SpeciesLibrary.sol\":2445:2475  SpeciesInfo(180, 90, 2, 4, \"\") */\n      dup2\n      mstore\n      0x20\n      add\n        /* \"contracts/SpeciesLibrary.sol\":2462:2464  90 */\n      0x5a\n        /* \"contracts/SpeciesLibrary.sol\":2445:2475  SpeciesInfo(180, 90, 2, 4, \"\") */\n      dup2\n      mstore\n      0x20\n      add\n        /* \"contracts/SpeciesLibrary.sol\":2466:2467  2 */\n      0x02\n        /* \"contracts/SpeciesLibrary.sol\":2445:2475  SpeciesInfo(180, 90, 2, 4, \"\") */\n      dup2\n      mstore\n      0x20\n      add\n        /* \"contracts/SpeciesLibrary.sol\":2469:2470  4 */\n      0x04\n        /* \"contracts/SpeciesLibrary.sol\":2445:2475  SpeciesInfo(180, 90, 2, 4, \"\") */\n      dup2\n      mstore\n      0x20\n      add\n      mload(0x40)\n      dup1\n      0x20\n      add\n      0x40\n      mstore\n      dup1\n      0x00\n      dup2\n      mstore\n      pop\n      dup2\n      mstore\n      pop\n        /* \"contracts/SpeciesLibrary.sol\":2438:2475  return SpeciesInfo(180, 90, 2, 4, \"\") */\n      swap1\n      pop\n      jump(tag_180)\n        /* \"contracts/SpeciesLibrary.sol\":2389:3114  if (species == Species.GreyHeron) {... */\n    tag_209:\n        /* \"contracts/SpeciesLibrary.sol\":2508:2530  Species.RedNeckedGrebe */\n      0x04\n        /* \"contracts/SpeciesLibrary.sol\":2497:2530  species == Species.RedNeckedGrebe */\n      0x0a\n      dup2\n      gt\n      iszero\n      tag_211\n      jumpi\n      tag_212\n      tag_105\n      jump\t// in\n    tag_212:\n    tag_211:\n        /* \"contracts/SpeciesLibrary.sol\":2497:2504  species */\n      dup3\n        /* \"contracts/SpeciesLibrary.sol\":2497:2530  species == Species.RedNeckedGrebe */\n      0x0a\n      dup2\n      gt\n      iszero\n      tag_213\n      jumpi\n      tag_214\n      tag_105\n      jump\t// in\n    tag_214:\n    tag_213:\n      sub\n        /* \"contracts/SpeciesLibrary.sol\":2493:3114  if (species == Species.RedNeckedGrebe) {... */\n      tag_215\n      jumpi\n        /* \"contracts/SpeciesLibrary.sol\":2554:2583  SpeciesInfo(80, 70, 2, 8, \"\") */\n      mload(0x40)\n      dup1\n      0xa0\n      add\n      0x40\n      mstore\n      dup1\n        /* \"contracts/SpeciesLibrary.sol\":2566:2568  80 */\n      0x50\n        /* \"contracts/SpeciesLibrary.sol\":2554:2583  SpeciesInfo(80, 70, 2, 8, \"\") */\n      dup2\n      mstore\n      0x20\n      add\n        /* \"contracts/SpeciesLibrary.sol\":2570:2572  70 */\n      0x46\n        /* \"contracts/SpeciesLibrary.sol\":2554:2583  SpeciesInfo(80, 70, 2, 8, \"\") */\n      dup2\n      mstore\n      0x20\n      add\n        /* \"contracts/SpeciesLibrary.sol\":2574:2575  2 */\n      0x02\n        /* \"contracts/SpeciesLibrary.sol\":2554:2583  SpeciesInfo(80, 70, 2, 8, \"\") */\n      dup2\n      mstore\n      0x20\n      add\n        /* \"contracts/SpeciesLibrary.sol\":2577:2578  8 */\n      0x08\n        /* \"contracts/SpeciesLibrary.sol\":2554:2583  SpeciesInfo(80, 70, 2, 8, \"\") */\n      dup2\n      mstore\n      0x20\n      add\n      mload(0x40)\n      dup1\n      0x20\n      add\n      0x40\n      mstore\n      dup1\n      0x00\n      dup2\n      mstore\n      pop\n      dup2\n      mstore\n      pop\n        /* \"contracts/SpeciesLibrary.sol\":2547:2583  return SpeciesInfo(80, 70, 2, 8, \"\") */\n      swap1\n      pop\n      jump(tag_180)\n        /* \"contracts/SpeciesLibrary.sol\":2493:3114  if (species == Species.RedNeckedGrebe) {... */\n    tag_215:\n        /* \"contracts/SpeciesLibrary.sol\":2616:2633  Species.WaterRail */\n      0x05\n        /* \"contracts/SpeciesLibrary.sol\":2605:2633  species == Species.WaterRail */\n      0x0a\n      dup2\n      gt\n      iszero\n      tag_217\n      jumpi\n      tag_218\n      tag_105\n      jump\t// in\n    tag_218:\n    tag_217:\n        /* \"contracts/SpeciesLibrary.sol\":2605:2612  species */\n      dup3\n        /* \"contracts/SpeciesLibrary.sol\":2605:2633  species == Species.WaterRail */\n      0x0a\n      dup2\n      gt\n      iszero\n      tag_219\n      jumpi\n      tag_220\n      tag_105\n      jump\t// in\n    tag_220:\n    tag_219:\n      sub\n        /* \"contracts/SpeciesLibrary.sol\":2601:3114  if (species == Species.WaterRail) {... */\n      tag_221\n      jumpi\n        /* \"contracts/SpeciesLibrary.sol\":2657:2686  SpeciesInfo(50, 60, 4, 5, \"\") */\n      mload(0x40)\n      dup1\n      0xa0\n      add\n      0x40\n      mstore\n      dup1\n        /* \"contracts/SpeciesLibrary.sol\":2669:2671  50 */\n      0x32\n        /* \"contracts/SpeciesLibrary.sol\":2657:2686  SpeciesInfo(50, 60, 4, 5, \"\") */\n      dup2\n      mstore\n      0x20\n      add\n        /* \"contracts/SpeciesLibrary.sol\":2673:2675  60 */\n      0x3c\n        /* \"contracts/SpeciesLibrary.sol\":2657:2686  SpeciesInfo(50, 60, 4, 5, \"\") */\n      dup2\n      mstore\n      0x20\n      add\n        /* \"contracts/SpeciesLibrary.sol\":2677:2678  4 */\n      0x04\n        /* \"contracts/SpeciesLibrary.sol\":2657:2686  SpeciesInfo(50, 60, 4, 5, \"\") */\n      dup2\n      mstore\n      0x20\n      add\n        /* \"contracts/SpeciesLibrary.sol\":2680:2681  5 */\n      0x05\n        /* \"contracts/SpeciesLibrary.sol\":2657:2686  SpeciesInfo(50, 60, 4, 5, \"\") */\n      dup2\n      mstore\n      0x20\n      add\n      mload(0x40)\n      dup1\n      0x20\n      add\n      0x40\n      mstore\n      dup1\n      0x00\n      dup2\n      mstore\n      pop\n      dup2\n      mstore\n      pop\n        /* \"contracts/SpeciesLibrary.sol\":2650:2686  return SpeciesInfo(50, 60, 4, 5, \"\") */\n      swap1\n      pop\n      jump(tag_180)\n        /* \"contracts/SpeciesLibrary.sol\":2601:3114  if (species == Species.WaterRail) {... */\n    tag_221:\n        /* \"contracts/SpeciesLibrary.sol\":2719:2737  Species.CommonTern */\n      0x06\n        /* \"contracts/SpeciesLibrary.sol\":2708:2737  species == Species.CommonTern */\n      0x0a\n      dup2\n      gt\n      iszero\n      tag_223\n      jumpi\n      tag_224\n      tag_105\n      jump\t// in\n    tag_224:\n    tag_223:\n        /* \"contracts/SpeciesLibrary.sol\":2708:2715  species */\n      dup3\n        /* \"contracts/SpeciesLibrary.sol\":2708:2737  species == Species.CommonTern */\n      0x0a\n      dup2\n      gt\n      iszero\n      tag_225\n      jumpi\n      tag_226\n      tag_105\n      jump\t// in\n    tag_226:\n    tag_225:\n      sub\n        /* \"contracts/SpeciesLibrary.sol\":2704:3114  if (species == Species.CommonTern) {... */\n      tag_227\n      jumpi\n        /* \"contracts/SpeciesLibrary.sol\":2761:2790  SpeciesInfo(55, 40, 3, 4, \"\") */\n      mload(0x40)\n      dup1\n      0xa0\n      add\n      0x40\n      mstore\n      dup1\n        /* \"contracts/SpeciesLibrary.sol\":2773:2775  55 */\n      0x37\n        /* \"contracts/SpeciesLibrary.sol\":2761:2790  SpeciesInfo(55, 40, 3, 4, \"\") */\n      dup2\n      mstore\n      0x20\n      add\n        /* \"contracts/SpeciesLibrary.sol\":2777:2779  40 */\n      0x28\n        /* \"contracts/SpeciesLibrary.sol\":2761:2790  SpeciesInfo(55, 40, 3, 4, \"\") */\n      dup2\n      mstore\n      0x20\n      add\n        /* \"contracts/SpeciesLibrary.sol\":2781:2782  3 */\n      0x03\n        /* \"contracts/SpeciesLibrary.sol\":2761:2790  SpeciesInfo(55, 40, 3, 4, \"\") */\n      dup2\n      mstore\n      0x20\n      add\n        /* \"contracts/SpeciesLibrary.sol\":2784:2785  4 */\n      0x04\n        /* \"contracts/SpeciesLibrary.sol\":2761:2790  SpeciesInfo(55, 40, 3, 4, \"\") */\n      dup2\n      mstore\n      0x20\n      add\n      mload(0x40)\n      dup1\n      0x20\n      add\n      0x40\n      mstore\n      dup1\n      0x00\n      dup2\n      mstore\n      pop\n      dup2\n      mstore\n      pop\n        /* \"contracts/SpeciesLibrary.sol\":2754:2790  return SpeciesInfo(55, 40, 3, 4, \"\") */\n      swap1\n      pop\n      jump(tag_180)\n        /* \"contracts/SpeciesLibrary.sol\":2704:3114  if (species == Species.CommonTern) {... */\n    tag_227:\n        /* \"contracts/SpeciesLibrary.sol\":2823:2840  Species.Goosander */\n      0x07\n        /* \"contracts/SpeciesLibrary.sol\":2812:2840  species == Species.Goosander */\n      0x0a\n      dup2\n      gt\n      iszero\n      tag_229\n      jumpi\n      tag_230\n      tag_105\n      jump\t// in\n    tag_230:\n    tag_229:\n        /* \"contracts/SpeciesLibrary.sol\":2812:2819  species */\n      dup3\n        /* \"contracts/SpeciesLibrary.sol\":2812:2840  species == Species.Goosander */\n      0x0a\n      dup2\n      gt\n      iszero\n      tag_231\n      jumpi\n      tag_232\n      tag_105\n      jump\t// in\n    tag_232:\n    tag_231:\n      sub\n        /* \"contracts/SpeciesLibrary.sol\":2808:3114  if (species == Species.Goosander) {... */\n      tag_233\n      jumpi\n        /* \"contracts/SpeciesLibrary.sol\":2864:2893  SpeciesInfo(78, 65, 2, 4, \"\") */\n      mload(0x40)\n      dup1\n      0xa0\n      add\n      0x40\n      mstore\n      dup1\n        /* \"contracts/SpeciesLibrary.sol\":2876:2878  78 */\n      0x4e\n        /* \"contracts/SpeciesLibrary.sol\":2864:2893  SpeciesInfo(78, 65, 2, 4, \"\") */\n      dup2\n      mstore\n      0x20\n      add\n        /* \"contracts/SpeciesLibrary.sol\":2880:2882  65 */\n      0x41\n        /* \"contracts/SpeciesLibrary.sol\":2864:2893  SpeciesInfo(78, 65, 2, 4, \"\") */\n      dup2\n      mstore\n      0x20\n      add\n        /* \"contracts/SpeciesLibrary.sol\":2884:2885  2 */\n      0x02\n        /* \"contracts/SpeciesLibrary.sol\":2864:2893  SpeciesInfo(78, 65, 2, 4, \"\") */\n      dup2\n      mstore\n      0x20\n      add\n        /* \"contracts/SpeciesLibrary.sol\":2887:2888  4 */\n      0x04\n        /* \"contracts/SpeciesLibrary.sol\":2864:2893  SpeciesInfo(78, 65, 2, 4, \"\") */\n      dup2\n      mstore\n      0x20\n      add\n      mload(0x40)\n      dup1\n      0x20\n      add\n      0x40\n      mstore\n      dup1\n      0x00\n      dup2\n      mstore\n      pop\n      dup2\n      mstore\n      pop\n        /* \"contracts/SpeciesLibrary.sol\":2857:2893  return SpeciesInfo(78, 65, 2, 4, \"\") */\n      swap1\n      pop\n      jump(tag_180)\n        /* \"contracts/SpeciesLibrary.sol\":2808:3114  if (species == Species.Goosander) {... */\n    tag_233:\n        /* \"contracts/SpeciesLibrary.sol\":2926:2946  Species.GreylagGoose */\n      0x08\n        /* \"contracts/SpeciesLibrary.sol\":2915:2946  species == Species.GreylagGoose */\n      0x0a\n      dup2\n      gt\n      iszero\n      tag_235\n      jumpi\n      tag_236\n      tag_105\n      jump\t// in\n    tag_236:\n    tag_235:\n        /* \"contracts/SpeciesLibrary.sol\":2915:2922  species */\n      dup3\n        /* \"contracts/SpeciesLibrary.sol\":2915:2946  species == Species.GreylagGoose */\n      0x0a\n      dup2\n      gt\n      iszero\n      tag_237\n      jumpi\n      tag_238\n      tag_105\n      jump\t// in\n    tag_238:\n    tag_237:\n      sub\n        /* \"contracts/SpeciesLibrary.sol\":2911:3114  if (species == Species.GreylagGoose) {... */\n      tag_239\n      jumpi\n        /* \"contracts/SpeciesLibrary.sol\":2970:3001  SpeciesInfo(150, 100, 4, 3, \"\") */\n      mload(0x40)\n      dup1\n      0xa0\n      add\n      0x40\n      mstore\n      dup1\n        /* \"contracts/SpeciesLibrary.sol\":2982:2985  150 */\n      0x96\n        /* \"contracts/SpeciesLibrary.sol\":2970:3001  SpeciesInfo(150, 100, 4, 3, \"\") */\n      dup2\n      mstore\n      0x20\n      add\n        /* \"contracts/SpeciesLibrary.sol\":2987:2990  100 */\n      0x64\n        /* \"contracts/SpeciesLibrary.sol\":2970:3001  SpeciesInfo(150, 100, 4, 3, \"\") */\n      dup2\n      mstore\n      0x20\n      add\n        /* \"contracts/SpeciesLibrary.sol\":2992:2993  4 */\n      0x04\n        /* \"contracts/SpeciesLibrary.sol\":2970:3001  SpeciesInfo(150, 100, 4, 3, \"\") */\n      dup2\n      mstore\n      0x20\n      add\n        /* \"contracts/SpeciesLibrary.sol\":2995:2996  3 */\n      0x03\n        /* \"contracts/SpeciesLibrary.sol\":2970:3001  SpeciesInfo(150, 100, 4, 3, \"\") */\n      dup2\n      mstore\n      0x20\n      add\n      mload(0x40)\n      dup1\n      0x20\n      add\n      0x40\n      mstore\n      dup1\n      0x00\n      dup2\n      mstore\n      pop\n      dup2\n      mstore\n      pop\n        /* \"contracts/SpeciesLibrary.sol\":2963:3001  return SpeciesInfo(150, 100, 4, 3, \"\") */\n      swap1\n      pop\n      jump(tag_180)\n        /* \"contracts/SpeciesLibrary.sol\":2911:3114  if (species == Species.GreylagGoose) {... */\n    tag_239:\n        /* \"contracts/SpeciesLibrary.sol\":3034:3049  Species.Moorhen */\n      0x09\n        /* \"contracts/SpeciesLibrary.sol\":3023:3049  species == Species.Moorhen */\n      0x0a\n      dup2\n      gt\n      iszero\n      tag_241\n      jumpi\n      tag_242\n      tag_105\n      jump\t// in\n    tag_242:\n    tag_241:\n        /* \"contracts/SpeciesLibrary.sol\":3023:3030  species */\n      dup3\n        /* \"contracts/SpeciesLibrary.sol\":3023:3049  species == Species.Moorhen */\n      0x0a\n      dup2\n      gt\n      iszero\n      tag_243\n      jumpi\n      tag_244\n      tag_105\n      jump\t// in\n    tag_244:\n    tag_243:\n      sub\n        /* \"contracts/SpeciesLibrary.sol\":3019:3114  if (species == Species.Moorhen) {... */\n      tag_245\n      jumpi\n        /* \"contracts/SpeciesLibrary.sol\":3073:3102  SpeciesInfo(35, 66, 4, 5, \"\") */\n      mload(0x40)\n      dup1\n      0xa0\n      add\n      0x40\n      mstore\n      dup1\n        /* \"contracts/SpeciesLibrary.sol\":3085:3087  35 */\n      0x23\n        /* \"contracts/SpeciesLibrary.sol\":3073:3102  SpeciesInfo(35, 66, 4, 5, \"\") */\n      dup2\n      mstore\n      0x20\n      add\n        /* \"contracts/SpeciesLibrary.sol\":3089:3091  66 */\n      0x42\n        /* \"contracts/SpeciesLibrary.sol\":3073:3102  SpeciesInfo(35, 66, 4, 5, \"\") */\n      dup2\n      mstore\n      0x20\n      add\n        /* \"contracts/SpeciesLibrary.sol\":3093:3094  4 */\n      0x04\n        /* \"contracts/SpeciesLibrary.sol\":3073:3102  SpeciesInfo(35, 66, 4, 5, \"\") */\n      dup2\n      mstore\n      0x20\n      add\n        /* \"contracts/SpeciesLibrary.sol\":3096:3097  5 */\n      0x05\n        /* \"contracts/SpeciesLibrary.sol\":3073:3102  SpeciesInfo(35, 66, 4, 5, \"\") */\n      dup2\n      mstore\n      0x20\n      add\n      mload(0x40)\n      dup1\n      0x20\n      add\n      0x40\n      mstore\n      dup1\n      0x00\n      dup2\n      mstore\n      pop\n      dup2\n      mstore\n      pop\n        /* \"contracts/SpeciesLibrary.sol\":3066:3102  return SpeciesInfo(35, 66, 4, 5, \"\") */\n      swap1\n      pop\n      jump(tag_180)\n        /* \"contracts/SpeciesLibrary.sol\":3019:3114  if (species == Species.Moorhen) {... */\n    tag_245:\n        /* \"contracts/SpeciesLibrary.sol\":3124:3149  revert(\"Unknown species\") */\n      mload(0x40)\n      0x08c379a000000000000000000000000000000000000000000000000000000000\n      dup2\n      mstore\n      0x04\n      add\n      tag_246\n      swap1\n      tag_247\n      jump\t// in\n    tag_246:\n      mload(0x40)\n      dup1\n      swap2\n      sub\n      swap1\n      revert\n        /* \"contracts/SpeciesLibrary.sol\":1596:3157  function getSpeciesInfo(Species species) internal pure returns (SpeciesInfo memory) {... */\n    tag_180:\n      swap2\n      swap1\n      pop\n      jump\t// out\n    tag_115:\n      mload(0x40)\n      dup1\n      0xe0\n      add\n      0x40\n      mstore\n      dup1\n      0x00\n      dup2\n      mstore\n      0x20\n      add\n      0x00\n      dup2\n      mstore\n      0x20\n      add\n      0x00\n      dup2\n      mstore\n      0x20\n      add\n      0x00\n      0x0a\n      dup2\n      gt\n      iszero\n      tag_248\n      jumpi\n      tag_249\n      tag_105\n      jump\t// in\n    tag_249:\n    tag_248:\n      dup2\n      mstore\n      0x20\n      add\n      0x00\n      dup2\n      mstore\n      0x20\n      add\n      iszero(iszero(0x00))\n      dup2\n      mstore\n      0x20\n      add\n      0x00\n      dup2\n      mstore\n      pop\n      swap1\n      jump\t// out\n    tag_169:\n      mload(0x40)\n      dup1\n      0xa0\n      add\n      0x40\n      mstore\n      dup1\n      0x00\n      dup2\n      mstore\n      0x20\n      add\n      0x00\n      dup2\n      mstore\n      0x20\n      add\n      0x00\n      dup2\n      mstore\n      0x20\n      add\n      0x00\n      dup2\n      mstore\n      0x20\n      add\n      0x60\n      dup2\n      mstore\n      pop\n      swap1\n      jump\t// out\n        /* \"#utility.yul\":88:205   */\n    tag_251:\n        /* \"#utility.yul\":197:198   */\n      0x00\n        /* \"#utility.yul\":194:195   */\n      0x00\n        /* \"#utility.yul\":187:199   */\n      revert\n        /* \"#utility.yul\":334:411   */\n    tag_253:\n        /* \"#utility.yul\":371:378   */\n      0x00\n        /* \"#utility.yul\":400:405   */\n      dup2\n        /* \"#utility.yul\":389:405   */\n      swap1\n      pop\n        /* \"#utility.yul\":334:411   */\n      swap2\n      swap1\n      pop\n      jump\t// out\n        /* \"#utility.yul\":417:539   */\n    tag_254:\n        /* \"#utility.yul\":490:514   */\n      tag_303\n        /* \"#utility.yul\":508:513   */\n      dup2\n        /* \"#utility.yul\":490:514   */\n      tag_253\n      jump\t// in\n    tag_303:\n        /* \"#utility.yul\":483:488   */\n      dup2\n        /* \"#utility.yul\":480:515   */\n      eq\n        /* \"#utility.yul\":470:533   */\n      tag_304\n      jumpi\n        /* \"#utility.yul\":529:530   */\n      0x00\n        /* \"#utility.yul\":526:527   */\n      0x00\n        /* \"#utility.yul\":519:531   */\n      revert\n        /* \"#utility.yul\":470:533   */\n    tag_304:\n        /* \"#utility.yul\":417:539   */\n      pop\n      jump\t// out\n        /* \"#utility.yul\":545:684   */\n    tag_255:\n        /* \"#utility.yul\":591:596   */\n      0x00\n        /* \"#utility.yul\":629:635   */\n      dup2\n        /* \"#utility.yul\":616:636   */\n      calldataload\n        /* \"#utility.yul\":607:636   */\n      swap1\n      pop\n        /* \"#utility.yul\":645:678   */\n      tag_306\n        /* \"#utility.yul\":672:677   */\n      dup2\n        /* \"#utility.yul\":645:678   */\n      tag_254\n      jump\t// in\n    tag_306:\n        /* \"#utility.yul\":545:684   */\n      swap3\n      swap2\n      pop\n      pop\n      jump\t// out\n        /* \"#utility.yul\":690:1019   */\n    tag_22:\n        /* \"#utility.yul\":749:755   */\n      0x00\n        /* \"#utility.yul\":798:800   */\n      0x20\n        /* \"#utility.yul\":786:795   */\n      dup3\n        /* \"#utility.yul\":777:784   */\n      dup5\n        /* \"#utility.yul\":773:796   */\n      sub\n        /* \"#utility.yul\":769:801   */\n      slt\n        /* \"#utility.yul\":766:885   */\n      iszero\n      tag_308\n      jumpi\n        /* \"#utility.yul\":804:883   */\n      tag_309\n      tag_251\n      jump\t// in\n    tag_309:\n        /* \"#utility.yul\":766:885   */\n    tag_308:\n        /* \"#utility.yul\":924:925   */\n      0x00\n        /* \"#utility.yul\":949:1002   */\n      tag_310\n        /* \"#utility.yul\":994:1001   */\n      dup5\n        /* \"#utility.yul\":985:991   */\n      dup3\n        /* \"#utility.yul\":974:983   */\n      dup6\n        /* \"#utility.yul\":970:992   */\n      add\n        /* \"#utility.yul\":949:1002   */\n      tag_255\n      jump\t// in\n    tag_310:\n        /* \"#utility.yul\":939:1002   */\n      swap2\n      pop\n        /* \"#utility.yul\":895:1012   */\n      pop\n        /* \"#utility.yul\":690:1019   */\n      swap3\n      swap2\n      pop\n      pop\n      jump\t// out\n        /* \"#utility.yul\":1025:1115   */\n    tag_256:\n        /* \"#utility.yul\":1059:1066   */\n      0x00\n        /* \"#utility.yul\":1102:1107   */\n      dup2\n        /* \"#utility.yul\":1095:1108   */\n      iszero\n        /* \"#utility.yul\":1088:1109   */\n      iszero\n        /* \"#utility.yul\":1077:1109   */\n      swap1\n      pop\n        /* \"#utility.yul\":1025:1115   */\n      swap2\n      swap1\n      pop\n      jump\t// out\n        /* \"#utility.yul\":1121:1230   */\n    tag_257:\n        /* \"#utility.yul\":1202:1223   */\n      tag_313\n        /* \"#utility.yul\":1217:1222   */\n      dup2\n        /* \"#utility.yul\":1202:1223   */\n      tag_256\n      jump\t// in\n    tag_313:\n        /* \"#utility.yul\":1197:1200   */\n      dup3\n        /* \"#utility.yul\":1190:1224   */\n      mstore\n        /* \"#utility.yul\":1121:1230   */\n      pop\n      pop\n      jump\t// out\n        /* \"#utility.yul\":1236:1446   */\n    tag_25:\n        /* \"#utility.yul\":1323:1327   */\n      0x00\n        /* \"#utility.yul\":1361:1363   */\n      0x20\n        /* \"#utility.yul\":1350:1359   */\n      dup3\n        /* \"#utility.yul\":1346:1364   */\n      add\n        /* \"#utility.yul\":1338:1364   */\n      swap1\n      pop\n        /* \"#utility.yul\":1374:1439   */\n      tag_315\n        /* \"#utility.yul\":1436:1437   */\n      0x00\n        /* \"#utility.yul\":1425:1434   */\n      dup4\n        /* \"#utility.yul\":1421:1438   */\n      add\n        /* \"#utility.yul\":1412:1418   */\n      dup5\n        /* \"#utility.yul\":1374:1439   */\n      tag_257\n      jump\t// in\n    tag_315:\n        /* \"#utility.yul\":1236:1446   */\n      swap3\n      swap2\n      pop\n      pop\n      jump\t// out\n        /* \"#utility.yul\":1452:1926   */\n    tag_28:\n        /* \"#utility.yul\":1520:1526   */\n      0x00\n        /* \"#utility.yul\":1528:1534   */\n      0x00\n        /* \"#utility.yul\":1577:1579   */\n      0x40\n        /* \"#utility.yul\":1565:1574   */\n      dup4\n        /* \"#utility.yul\":1556:1563   */\n      dup6\n        /* \"#utility.yul\":1552:1575   */\n      sub\n        /* \"#utility.yul\":1548:1580   */\n      slt\n        /* \"#utility.yul\":1545:1664   */\n      iszero\n      tag_317\n      jumpi\n        /* \"#utility.yul\":1583:1662   */\n      tag_318\n      tag_251\n      jump\t// in\n    tag_318:\n        /* \"#utility.yul\":1545:1664   */\n    tag_317:\n        /* \"#utility.yul\":1703:1704   */\n      0x00\n        /* \"#utility.yul\":1728:1781   */\n      tag_319\n        /* \"#utility.yul\":1773:1780   */\n      dup6\n        /* \"#utility.yul\":1764:1770   */\n      dup3\n        /* \"#utility.yul\":1753:1762   */\n      dup7\n        /* \"#utility.yul\":1749:1771   */\n      add\n        /* \"#utility.yul\":1728:1781   */\n      tag_255\n      jump\t// in\n    tag_319:\n        /* \"#utility.yul\":1718:1781   */\n      swap3\n      pop\n        /* \"#utility.yul\":1674:1791   */\n      pop\n        /* \"#utility.yul\":1830:1832   */\n      0x20\n        /* \"#utility.yul\":1856:1909   */\n      tag_320\n        /* \"#utility.yul\":1901:1908   */\n      dup6\n        /* \"#utility.yul\":1892:1898   */\n      dup3\n        /* \"#utility.yul\":1881:1890   */\n      dup7\n        /* \"#utility.yul\":1877:1899   */\n      add\n        /* \"#utility.yul\":1856:1909   */\n      tag_255\n      jump\t// in\n    tag_320:\n        /* \"#utility.yul\":1846:1909   */\n      swap2\n      pop\n        /* \"#utility.yul\":1801:1919   */\n      pop\n        /* \"#utility.yul\":1452:1926   */\n      swap3\n      pop\n      swap3\n      swap1\n      pop\n      jump\t// out\n        /* \"#utility.yul\":1932:2043   */\n    tag_258:\n        /* \"#utility.yul\":2016:2018   */\n      0x0b\n        /* \"#utility.yul\":2009:2014   */\n      dup2\n        /* \"#utility.yul\":2006:2019   */\n      lt\n        /* \"#utility.yul\":1996:2037   */\n      tag_322\n      jumpi\n        /* \"#utility.yul\":2033:2034   */\n      0x00\n        /* \"#utility.yul\":2030:2031   */\n      0x00\n        /* \"#utility.yul\":2023:2035   */\n      revert\n        /* \"#utility.yul\":1996:2037   */\n    tag_322:\n        /* \"#utility.yul\":1932:2043   */\n      pop\n      jump\t// out\n        /* \"#utility.yul\":2049:2210   */\n    tag_259:\n        /* \"#utility.yul\":2106:2111   */\n      0x00\n        /* \"#utility.yul\":2144:2150   */\n      dup2\n        /* \"#utility.yul\":2131:2151   */\n      calldataload\n        /* \"#utility.yul\":2122:2151   */\n      swap1\n      pop\n        /* \"#utility.yul\":2160:2204   */\n      tag_324\n        /* \"#utility.yul\":2198:2203   */\n      dup2\n        /* \"#utility.yul\":2160:2204   */\n      tag_258\n      jump\t// in\n    tag_324:\n        /* \"#utility.yul\":2049:2210   */\n      swap3\n      swap2\n      pop\n      pop\n      jump\t// out\n        /* \"#utility.yul\":2216:2567   */\n    tag_35:\n        /* \"#utility.yul\":2286:2292   */\n      0x00\n        /* \"#utility.yul\":2335:2337   */\n      0x20\n        /* \"#utility.yul\":2323:2332   */\n      dup3\n        /* \"#utility.yul\":2314:2321   */\n      dup5\n        /* \"#utility.yul\":2310:2333   */\n      sub\n        /* \"#utility.yul\":2306:2338   */\n      slt\n        /* \"#utility.yul\":2303:2422   */\n      iszero\n      tag_326\n      jumpi\n        /* \"#utility.yul\":2341:2420   */\n      tag_327\n      tag_251\n      jump\t// in\n    tag_327:\n        /* \"#utility.yul\":2303:2422   */\n    tag_326:\n        /* \"#utility.yul\":2461:2462   */\n      0x00\n        /* \"#utility.yul\":2486:2550   */\n      tag_328\n        /* \"#utility.yul\":2542:2549   */\n      dup5\n        /* \"#utility.yul\":2533:2539   */\n      dup3\n        /* \"#utility.yul\":2522:2531   */\n      dup6\n        /* \"#utility.yul\":2518:2540   */\n      add\n        /* \"#utility.yul\":2486:2550   */\n      tag_259\n      jump\t// in\n    tag_328:\n        /* \"#utility.yul\":2476:2550   */\n      swap2\n      pop\n        /* \"#utility.yul\":2432:2560   */\n      pop\n        /* \"#utility.yul\":2216:2567   */\n      swap3\n      swap2\n      pop\n      pop\n      jump\t// out\n        /* \"#utility.yul\":2573:2649   */\n    tag_260:\n        /* \"#utility.yul\":2609:2616   */\n      0x00\n        /* \"#utility.yul\":2638:2643   */\n      dup2\n        /* \"#utility.yul\":2627:2643   */\n      swap1\n      pop\n        /* \"#utility.yul\":2573:2649   */\n      swap2\n      swap1\n      pop\n      jump\t// out\n        /* \"#utility.yul\":2655:2770   */\n    tag_261:\n        /* \"#utility.yul\":2740:2763   */\n      tag_331\n        /* \"#utility.yul\":2757:2762   */\n      dup2\n        /* \"#utility.yul\":2740:2763   */\n      tag_260\n      jump\t// in\n    tag_331:\n        /* \"#utility.yul\":2735:2738   */\n      dup3\n        /* \"#utility.yul\":2728:2764   */\n      mstore\n        /* \"#utility.yul\":2655:2770   */\n      pop\n      pop\n      jump\t// out\n        /* \"#utility.yul\":2776:2994   */\n    tag_38:\n        /* \"#utility.yul\":2867:2871   */\n      0x00\n        /* \"#utility.yul\":2905:2907   */\n      0x20\n        /* \"#utility.yul\":2894:2903   */\n      dup3\n        /* \"#utility.yul\":2890:2908   */\n      add\n        /* \"#utility.yul\":2882:2908   */\n      swap1\n      pop\n        /* \"#utility.yul\":2918:2987   */\n      tag_333\n        /* \"#utility.yul\":2984:2985   */\n      0x00\n        /* \"#utility.yul\":2973:2982   */\n      dup4\n        /* \"#utility.yul\":2969:2986   */\n      add\n        /* \"#utility.yul\":2960:2966   */\n      dup5\n        /* \"#utility.yul\":2918:2987   */\n      tag_261\n      jump\t// in\n    tag_333:\n        /* \"#utility.yul\":2776:2994   */\n      swap3\n      swap2\n      pop\n      pop\n      jump\t// out\n        /* \"#utility.yul\":3000:3126   */\n    tag_262:\n        /* \"#utility.yul\":3037:3044   */\n      0x00\n        /* \"#utility.yul\":3077:3119   */\n      0xffffffffffffffffffffffffffffffffffffffff\n        /* \"#utility.yul\":3070:3075   */\n      dup3\n        /* \"#utility.yul\":3066:3120   */\n      and\n        /* \"#utility.yul\":3055:3120   */\n      swap1\n      pop\n        /* \"#utility.yul\":3000:3126   */\n      swap2\n      swap1\n      pop\n      jump\t// out\n        /* \"#utility.yul\":3132:3228   */\n    tag_263:\n        /* \"#utility.yul\":3169:3176   */\n      0x00\n        /* \"#utility.yul\":3198:3222   */\n      tag_336\n        /* \"#utility.yul\":3216:3221   */\n      dup3\n        /* \"#utility.yul\":3198:3222   */\n      tag_262\n      jump\t// in\n    tag_336:\n        /* \"#utility.yul\":3187:3222   */\n      swap1\n      pop\n        /* \"#utility.yul\":3132:3228   */\n      swap2\n      swap1\n      pop\n      jump\t// out\n        /* \"#utility.yul\":3234:3356   */\n    tag_264:\n        /* \"#utility.yul\":3307:3331   */\n      tag_338\n        /* \"#utility.yul\":3325:3330   */\n      dup2\n        /* \"#utility.yul\":3307:3331   */\n      tag_263\n      jump\t// in\n    tag_338:\n        /* \"#utility.yul\":3300:3305   */\n      dup2\n        /* \"#utility.yul\":3297:3332   */\n      eq\n        /* \"#utility.yul\":3287:3350   */\n      tag_339\n      jumpi\n        /* \"#utility.yul\":3346:3347   */\n      0x00\n        /* \"#utility.yul\":3343:3344   */\n      0x00\n        /* \"#utility.yul\":3336:3348   */\n      revert\n        /* \"#utility.yul\":3287:3350   */\n    tag_339:\n        /* \"#utility.yul\":3234:3356   */\n      pop\n      jump\t// out\n        /* \"#utility.yul\":3362:3501   */\n    tag_265:\n        /* \"#utility.yul\":3408:3413   */\n      0x00\n        /* \"#utility.yul\":3446:3452   */\n      dup2\n        /* \"#utility.yul\":3433:3453   */\n      calldataload\n        /* \"#utility.yul\":3424:3453   */\n      swap1\n      pop\n        /* \"#utility.yul\":3462:3495   */\n      tag_341\n        /* \"#utility.yul\":3489:3494   */\n      dup2\n        /* \"#utility.yul\":3462:3495   */\n      tag_264\n      jump\t// in\n    tag_341:\n        /* \"#utility.yul\":3362:3501   */\n      swap3\n      swap2\n      pop\n      pop\n      jump\t// out\n        /* \"#utility.yul\":3507:3836   */\n    tag_41:\n        /* \"#utility.yul\":3566:3572   */\n      0x00\n        /* \"#utility.yul\":3615:3617   */\n      0x20\n        /* \"#utility.yul\":3603:3612   */\n      dup3\n        /* \"#utility.yul\":3594:3601   */\n      dup5\n        /* \"#utility.yul\":3590:3613   */\n      sub\n        /* \"#utility.yul\":3586:3618   */\n      slt\n        /* \"#utility.yul\":3583:3702   */\n      iszero\n      tag_343\n      jumpi\n        /* \"#utility.yul\":3621:3700   */\n      tag_344\n      tag_251\n      jump\t// in\n    tag_344:\n        /* \"#utility.yul\":3583:3702   */\n    tag_343:\n        /* \"#utility.yul\":3741:3742   */\n      0x00\n        /* \"#utility.yul\":3766:3819   */\n      tag_345\n        /* \"#utility.yul\":3811:3818   */\n      dup5\n        /* \"#utility.yul\":3802:3808   */\n      dup3\n        /* \"#utility.yul\":3791:3800   */\n      dup6\n        /* \"#utility.yul\":3787:3809   */\n      add\n        /* \"#utility.yul\":3766:3819   */\n      tag_265\n      jump\t// in\n    tag_345:\n        /* \"#utility.yul\":3756:3819   */\n      swap2\n      pop\n        /* \"#utility.yul\":3712:3829   */\n      pop\n        /* \"#utility.yul\":3507:3836   */\n      swap3\n      swap2\n      pop\n      pop\n      jump\t// out\n        /* \"#utility.yul\":3842:3960   */\n    tag_266:\n        /* \"#utility.yul\":3929:3953   */\n      tag_347\n        /* \"#utility.yul\":3947:3952   */\n      dup2\n        /* \"#utility.yul\":3929:3953   */\n      tag_253\n      jump\t// in\n    tag_347:\n        /* \"#utility.yul\":3924:3927   */\n      dup3\n        /* \"#utility.yul\":3917:3954   */\n      mstore\n        /* \"#utility.yul\":3842:3960   */\n      pop\n      pop\n      jump\t// out\n        /* \"#utility.yul\":3966:4188   */\n    tag_46:\n        /* \"#utility.yul\":4059:4063   */\n      0x00\n        /* \"#utility.yul\":4097:4099   */\n      0x20\n        /* \"#utility.yul\":4086:4095   */\n      dup3\n        /* \"#utility.yul\":4082:4100   */\n      add\n        /* \"#utility.yul\":4074:4100   */\n      swap1\n      pop\n        /* \"#utility.yul\":4110:4181   */\n      tag_349\n        /* \"#utility.yul\":4178:4179   */\n      0x00\n        /* \"#utility.yul\":4167:4176   */\n      dup4\n        /* \"#utility.yul\":4163:4180   */\n      add\n        /* \"#utility.yul\":4154:4160   */\n      dup5\n        /* \"#utility.yul\":4110:4181   */\n      tag_266\n      jump\t// in\n    tag_349:\n        /* \"#utility.yul\":3966:4188   */\n      swap3\n      swap2\n      pop\n      pop\n      jump\t// out\n        /* \"#utility.yul\":4194:4312   */\n    tag_267:\n        /* \"#utility.yul\":4281:4305   */\n      tag_351\n        /* \"#utility.yul\":4299:4304   */\n      dup2\n        /* \"#utility.yul\":4281:4305   */\n      tag_263\n      jump\t// in\n    tag_351:\n        /* \"#utility.yul\":4276:4279   */\n      dup3\n        /* \"#utility.yul\":4269:4306   */\n      mstore\n        /* \"#utility.yul\":4194:4312   */\n      pop\n      pop\n      jump\t// out\n        /* \"#utility.yul\":4318:4540   */\n    tag_51:\n        /* \"#utility.yul\":4411:4415   */\n      0x00\n        /* \"#utility.yul\":4449:4451   */\n      0x20\n        /* \"#utility.yul\":4438:4447   */\n      dup3\n        /* \"#utility.yul\":4434:4452   */\n      add\n        /* \"#utility.yul\":4426:4452   */\n      swap1\n      pop\n        /* \"#utility.yul\":4462:4533   */\n      tag_353\n        /* \"#utility.yul\":4530:4531   */\n      0x00\n        /* \"#utility.yul\":4519:4528   */\n      dup4\n        /* \"#utility.yul\":4515:4532   */\n      add\n        /* \"#utility.yul\":4506:4512   */\n      dup5\n        /* \"#utility.yul\":4462:4533   */\n      tag_267\n      jump\t// in\n    tag_353:\n        /* \"#utility.yul\":4318:4540   */\n      swap3\n      swap2\n      pop\n      pop\n      jump\t// out\n        /* \"#utility.yul\":4546:4654   */\n    tag_268:\n        /* \"#utility.yul\":4623:4647   */\n      tag_355\n        /* \"#utility.yul\":4641:4646   */\n      dup2\n        /* \"#utility.yul\":4623:4647   */\n      tag_253\n      jump\t// in\n    tag_355:\n        /* \"#utility.yul\":4618:4621   */\n      dup3\n        /* \"#utility.yul\":4611:4648   */\n      mstore\n        /* \"#utility.yul\":4546:4654   */\n      pop\n      pop\n      jump\t// out\n        /* \"#utility.yul\":4660:4840   */\n    tag_105:\n        /* \"#utility.yul\":4708:4785   */\n      0x4e487b7100000000000000000000000000000000000000000000000000000000\n        /* \"#utility.yul\":4705:4706   */\n      0x00\n        /* \"#utility.yul\":4698:4786   */\n      mstore\n        /* \"#utility.yul\":4805:4809   */\n      0x21\n        /* \"#utility.yul\":4802:4803   */\n      0x04\n        /* \"#utility.yul\":4795:4810   */\n      mstore\n        /* \"#utility.yul\":4829:4833   */\n      0x24\n        /* \"#utility.yul\":4826:4827   */\n      0x00\n        /* \"#utility.yul\":4819:4834   */\n      revert\n        /* \"#utility.yul\":4846:4963   */\n    tag_269:\n        /* \"#utility.yul\":4930:4932   */\n      0x0b\n        /* \"#utility.yul\":4923:4928   */\n      dup2\n        /* \"#utility.yul\":4920:4933   */\n      lt\n        /* \"#utility.yul\":4910:4957   */\n      tag_358\n      jumpi\n        /* \"#utility.yul\":4937:4955   */\n      tag_359\n      tag_105\n      jump\t// in\n    tag_359:\n        /* \"#utility.yul\":4910:4957   */\n    tag_358:\n        /* \"#utility.yul\":4846:4963   */\n      pop\n      jump\t// out\n        /* \"#utility.yul\":4969:5102   */\n    tag_270:\n        /* \"#utility.yul\":5017:5024   */\n      0x00\n        /* \"#utility.yul\":5046:5051   */\n      dup2\n        /* \"#utility.yul\":5035:5051   */\n      swap1\n      pop\n        /* \"#utility.yul\":5052:5096   */\n      tag_361\n        /* \"#utility.yul\":5090:5095   */\n      dup3\n        /* \"#utility.yul\":5052:5096   */\n      tag_269\n      jump\t// in\n    tag_361:\n        /* \"#utility.yul\":4969:5102   */\n      swap2\n      swap1\n      pop\n      jump\t// out\n        /* \"#utility.yul\":5108:5241   */\n    tag_271:\n        /* \"#utility.yul\":5167:5176   */\n      0x00\n        /* \"#utility.yul\":5200:5235   */\n      tag_363\n        /* \"#utility.yul\":5229:5234   */\n      dup3\n        /* \"#utility.yul\":5200:5235   */\n      tag_270\n      jump\t// in\n    tag_363:\n        /* \"#utility.yul\":5187:5235   */\n      swap1\n      pop\n        /* \"#utility.yul\":5108:5241   */\n      swap2\n      swap1\n      pop\n      jump\t// out\n        /* \"#utility.yul\":5247:5386   */\n    tag_272:\n        /* \"#utility.yul\":5333:5379   */\n      tag_365\n        /* \"#utility.yul\":5373:5378   */\n      dup2\n        /* \"#utility.yul\":5333:5379   */\n      tag_271\n      jump\t// in\n    tag_365:\n        /* \"#utility.yul\":5328:5331   */\n      dup3\n        /* \"#utility.yul\":5321:5380   */\n      mstore\n        /* \"#utility.yul\":5247:5386   */\n      pop\n      pop\n      jump\t// out\n        /* \"#utility.yul\":5392:5491   */\n    tag_273:\n        /* \"#utility.yul\":5463:5484   */\n      tag_367\n        /* \"#utility.yul\":5478:5483   */\n      dup2\n        /* \"#utility.yul\":5463:5484   */\n      tag_256\n      jump\t// in\n    tag_367:\n        /* \"#utility.yul\":5458:5461   */\n      dup3\n        /* \"#utility.yul\":5451:5485   */\n      mstore\n        /* \"#utility.yul\":5392:5491   */\n      pop\n      pop\n      jump\t// out\n        /* \"#utility.yul\":5549:6955   */\n    tag_274:\n        /* \"#utility.yul\":5694:5698   */\n      0xe0\n        /* \"#utility.yul\":5689:5692   */\n      dup3\n        /* \"#utility.yul\":5685:5699   */\n      add\n        /* \"#utility.yul\":5780:5784   */\n      0x00\n        /* \"#utility.yul\":5773:5778   */\n      dup3\n        /* \"#utility.yul\":5769:5785   */\n      add\n        /* \"#utility.yul\":5763:5786   */\n      mload\n        /* \"#utility.yul\":5799:5862   */\n      tag_369\n        /* \"#utility.yul\":5856:5860   */\n      0x00\n        /* \"#utility.yul\":5851:5854   */\n      dup6\n        /* \"#utility.yul\":5847:5861   */\n      add\n        /* \"#utility.yul\":5833:5845   */\n      dup3\n        /* \"#utility.yul\":5799:5862   */\n      tag_268\n      jump\t// in\n    tag_369:\n        /* \"#utility.yul\":5709:5872   */\n      pop\n        /* \"#utility.yul\":5956:5960   */\n      0x20\n        /* \"#utility.yul\":5949:5954   */\n      dup3\n        /* \"#utility.yul\":5945:5961   */\n      add\n        /* \"#utility.yul\":5939:5962   */\n      mload\n        /* \"#utility.yul\":5975:6038   */\n      tag_370\n        /* \"#utility.yul\":6032:6036   */\n      0x20\n        /* \"#utility.yul\":6027:6030   */\n      dup6\n        /* \"#utility.yul\":6023:6037   */\n      add\n        /* \"#utility.yul\":6009:6021   */\n      dup3\n        /* \"#utility.yul\":5975:6038   */\n      tag_268\n      jump\t// in\n    tag_370:\n        /* \"#utility.yul\":5882:6048   */\n      pop\n        /* \"#utility.yul\":6132:6136   */\n      0x40\n        /* \"#utility.yul\":6125:6130   */\n      dup3\n        /* \"#utility.yul\":6121:6137   */\n      add\n        /* \"#utility.yul\":6115:6138   */\n      mload\n        /* \"#utility.yul\":6151:6214   */\n      tag_371\n        /* \"#utility.yul\":6208:6212   */\n      0x40\n        /* \"#utility.yul\":6203:6206   */\n      dup6\n        /* \"#utility.yul\":6199:6213   */\n      add\n        /* \"#utility.yul\":6185:6197   */\n      dup3\n        /* \"#utility.yul\":6151:6214   */\n      tag_268\n      jump\t// in\n    tag_371:\n        /* \"#utility.yul\":6058:6224   */\n      pop\n        /* \"#utility.yul\":6309:6313   */\n      0x60\n        /* \"#utility.yul\":6302:6307   */\n      dup3\n        /* \"#utility.yul\":6298:6314   */\n      add\n        /* \"#utility.yul\":6292:6315   */\n      mload\n        /* \"#utility.yul\":6328:6400   */\n      tag_372\n        /* \"#utility.yul\":6394:6398   */\n      0x60\n        /* \"#utility.yul\":6389:6392   */\n      dup6\n        /* \"#utility.yul\":6385:6399   */\n      add\n        /* \"#utility.yul\":6371:6383   */\n      dup3\n        /* \"#utility.yul\":6328:6400   */\n      tag_272\n      jump\t// in\n    tag_372:\n        /* \"#utility.yul\":6234:6410   */\n      pop\n        /* \"#utility.yul\":6502:6506   */\n      0x80\n        /* \"#utility.yul\":6495:6500   */\n      dup3\n        /* \"#utility.yul\":6491:6507   */\n      add\n        /* \"#utility.yul\":6485:6508   */\n      mload\n        /* \"#utility.yul\":6521:6584   */\n      tag_373\n        /* \"#utility.yul\":6578:6582   */\n      0x80\n        /* \"#utility.yul\":6573:6576   */\n      dup6\n        /* \"#utility.yul\":6569:6583   */\n      add\n        /* \"#utility.yul\":6555:6567   */\n      dup3\n        /* \"#utility.yul\":6521:6584   */\n      tag_268\n      jump\t// in\n    tag_373:\n        /* \"#utility.yul\":6420:6594   */\n      pop\n        /* \"#utility.yul\":6678:6682   */\n      0xa0\n        /* \"#utility.yul\":6671:6676   */\n      dup3\n        /* \"#utility.yul\":6667:6683   */\n      add\n        /* \"#utility.yul\":6661:6684   */\n      mload\n        /* \"#utility.yul\":6697:6754   */\n      tag_374\n        /* \"#utility.yul\":6748:6752   */\n      0xa0\n        /* \"#utility.yul\":6743:6746   */\n      dup6\n        /* \"#utility.yul\":6739:6753   */\n      add\n        /* \"#utility.yul\":6725:6737   */\n      dup3\n        /* \"#utility.yul\":6697:6754   */\n      tag_273\n      jump\t// in\n    tag_374:\n        /* \"#utility.yul\":6604:6764   */\n      pop\n        /* \"#utility.yul\":6856:6860   */\n      0xc0\n        /* \"#utility.yul\":6849:6854   */\n      dup3\n        /* \"#utility.yul\":6845:6861   */\n      add\n        /* \"#utility.yul\":6839:6862   */\n      mload\n        /* \"#utility.yul\":6875:6938   */\n      tag_375\n        /* \"#utility.yul\":6932:6936   */\n      0xc0\n        /* \"#utility.yul\":6927:6930   */\n      dup6\n        /* \"#utility.yul\":6923:6937   */\n      add\n        /* \"#utility.yul\":6909:6921   */\n      dup3\n        /* \"#utility.yul\":6875:6938   */\n      tag_268\n      jump\t// in\n    tag_375:\n        /* \"#utility.yul\":6774:6948   */\n      pop\n        /* \"#utility.yul\":5663:6955   */\n      pop\n        /* \"#utility.yul\":5549:6955   */\n      pop\n      pop\n      jump\t// out\n        /* \"#utility.yul\":6961:7280   */\n    tag_56:\n        /* \"#utility.yul\":7102:7106   */\n      0x00\n        /* \"#utility.yul\":7140:7143   */\n      0xe0\n        /* \"#utility.yul\":7129:7138   */\n      dup3\n        /* \"#utility.yul\":7125:7144   */\n      add\n        /* \"#utility.yul\":7117:7144   */\n      swap1\n      pop\n        /* \"#utility.yul\":7154:7273   */\n      tag_377\n        /* \"#utility.yul\":7270:7271   */\n      0x00\n        /* \"#utility.yul\":7259:7268   */\n      dup4\n        /* \"#utility.yul\":7255:7272   */\n      add\n        /* \"#utility.yul\":7246:7252   */\n      dup5\n        /* \"#utility.yul\":7154:7273   */\n      tag_274\n      jump\t// in\n    tag_377:\n        /* \"#utility.yul\":6961:7280   */\n      swap3\n      swap2\n      pop\n      pop\n      jump\t// out\n        /* \"#utility.yul\":7286:7760   */\n    tag_65:\n        /* \"#utility.yul\":7354:7360   */\n      0x00\n        /* \"#utility.yul\":7362:7368   */\n      0x00\n        /* \"#utility.yul\":7411:7413   */\n      0x40\n        /* \"#utility.yul\":7399:7408   */\n      dup4\n        /* \"#utility.yul\":7390:7397   */\n      dup6\n        /* \"#utility.yul\":7386:7409   */\n      sub\n        /* \"#utility.yul\":7382:7414   */\n      slt\n        /* \"#utility.yul\":7379:7498   */\n      iszero\n      tag_379\n      jumpi\n        /* \"#utility.yul\":7417:7496   */\n      tag_380\n      tag_251\n      jump\t// in\n    tag_380:\n        /* \"#utility.yul\":7379:7498   */\n    tag_379:\n        /* \"#utility.yul\":7537:7538   */\n      0x00\n        /* \"#utility.yul\":7562:7615   */\n      tag_381\n        /* \"#utility.yul\":7607:7614   */\n      dup6\n        /* \"#utility.yul\":7598:7604   */\n      dup3\n        /* \"#utility.yul\":7587:7596   */\n      dup7\n        /* \"#utility.yul\":7583:7605   */\n      add\n        /* \"#utility.yul\":7562:7615   */\n      tag_255\n      jump\t// in\n    tag_381:\n        /* \"#utility.yul\":7552:7615   */\n      swap3\n      pop\n        /* \"#utility.yul\":7508:7625   */\n      pop\n        /* \"#utility.yul\":7664:7666   */\n      0x20\n        /* \"#utility.yul\":7690:7743   */\n      tag_382\n        /* \"#utility.yul\":7735:7742   */\n      dup6\n        /* \"#utility.yul\":7726:7732   */\n      dup3\n        /* \"#utility.yul\":7715:7724   */\n      dup7\n        /* \"#utility.yul\":7711:7733   */\n      add\n        /* \"#utility.yul\":7690:7743   */\n      tag_265\n      jump\t// in\n    tag_382:\n        /* \"#utility.yul\":7680:7743   */\n      swap2\n      pop\n        /* \"#utility.yul\":7635:7753   */\n      pop\n        /* \"#utility.yul\":7286:7760   */\n      swap3\n      pop\n      swap3\n      swap1\n      pop\n      jump\t// out\n        /* \"#utility.yul\":7766:7915   */\n    tag_275:\n        /* \"#utility.yul\":7862:7908   */\n      tag_384\n        /* \"#utility.yul\":7902:7907   */\n      dup2\n        /* \"#utility.yul\":7862:7908   */\n      tag_271\n      jump\t// in\n    tag_384:\n        /* \"#utility.yul\":7857:7860   */\n      dup3\n        /* \"#utility.yul\":7850:7909   */\n      mstore\n        /* \"#utility.yul\":7766:7915   */\n      pop\n      pop\n      jump\t// out\n        /* \"#utility.yul\":7921:8813   */\n    tag_77:\n        /* \"#utility.yul\":8185:8189   */\n      0x00\n        /* \"#utility.yul\":8223:8226   */\n      0xe0\n        /* \"#utility.yul\":8212:8221   */\n      dup3\n        /* \"#utility.yul\":8208:8227   */\n      add\n        /* \"#utility.yul\":8200:8227   */\n      swap1\n      pop\n        /* \"#utility.yul\":8237:8308   */\n      tag_386\n        /* \"#utility.yul\":8305:8306   */\n      0x00\n        /* \"#utility.yul\":8294:8303   */\n      dup4\n        /* \"#utility.yul\":8290:8307   */\n      add\n        /* \"#utility.yul\":8281:8287   */\n      dup11\n        /* \"#utility.yul\":8237:8308   */\n      tag_266\n      jump\t// in\n    tag_386:\n        /* \"#utility.yul\":8318:8390   */\n      tag_387\n        /* \"#utility.yul\":8386:8388   */\n      0x20\n        /* \"#utility.yul\":8375:8384   */\n      dup4\n        /* \"#utility.yul\":8371:8389   */\n      add\n        /* \"#utility.yul\":8362:8368   */\n      dup10\n        /* \"#utility.yul\":8318:8390   */\n      tag_266\n      jump\t// in\n    tag_387:\n        /* \"#utility.yul\":8400:8472   */\n      tag_388\n        /* \"#utility.yul\":8468:8470   */\n      0x40\n        /* \"#utility.yul\":8457:8466   */\n      dup4\n        /* \"#utility.yul\":8453:8471   */\n      add\n        /* \"#utility.yul\":8444:8450   */\n      dup9\n        /* \"#utility.yul\":8400:8472   */\n      tag_266\n      jump\t// in\n    tag_388:\n        /* \"#utility.yul\":8482:8563   */\n      tag_389\n        /* \"#utility.yul\":8559:8561   */\n      0x60\n        /* \"#utility.yul\":8548:8557   */\n      dup4\n        /* \"#utility.yul\":8544:8562   */\n      add\n        /* \"#utility.yul\":8535:8541   */\n      dup8\n        /* \"#utility.yul\":8482:8563   */\n      tag_275\n      jump\t// in\n    tag_389:\n        /* \"#utility.yul\":8573:8646   */\n      tag_390\n        /* \"#utility.yul\":8641:8644   */\n      0x80\n        /* \"#utility.yul\":8630:8639   */\n      dup4\n        /* \"#utility.yul\":8626:8645   */\n      add\n        /* \"#utility.yul\":8617:8623   */\n      dup7\n        /* \"#utility.yul\":8573:8646   */\n      tag_266\n      jump\t// in\n    tag_390:\n        /* \"#utility.yul\":8656:8723   */\n      tag_391\n        /* \"#utility.yul\":8718:8721   */\n      0xa0\n        /* \"#utility.yul\":8707:8716   */\n      dup4\n        /* \"#utility.yul\":8703:8722   */\n      add\n        /* \"#utility.yul\":8694:8700   */\n      dup6\n        /* \"#utility.yul\":8656:8723   */\n      tag_257\n      jump\t// in\n    tag_391:\n        /* \"#utility.yul\":8733:8806   */\n      tag_392\n        /* \"#utility.yul\":8801:8804   */\n      0xc0\n        /* \"#utility.yul\":8790:8799   */\n      dup4\n        /* \"#utility.yul\":8786:8805   */\n      add\n        /* \"#utility.yul\":8777:8783   */\n      dup5\n        /* \"#utility.yul\":8733:8806   */\n      tag_266\n      jump\t// in\n    tag_392:\n        /* \"#utility.yul\":7921:8813   */\n      swap9\n      swap8\n      pop\n      pop\n      pop\n      pop\n      pop\n      pop\n      pop\n      pop\n      jump\t// out\n        /* \"#utility.yul\":8819:8988   */\n    tag_276:\n        /* \"#utility.yul\":8903:8914   */\n      0x00\n        /* \"#utility.yul\":8937:8943   */\n      dup3\n        /* \"#utility.yul\":8932:8935   */\n      dup3\n        /* \"#utility.yul\":8925:8944   */\n      mstore\n        /* \"#utility.yul\":8977:8981   */\n      0x20\n        /* \"#utility.yul\":8972:8975   */\n      dup3\n        /* \"#utility.yul\":8968:8982   */\n      add\n        /* \"#utility.yul\":8953:8982   */\n      swap1\n      pop\n        /* \"#utility.yul\":8819:8988   */\n      swap3\n      swap2\n      pop\n      pop\n      jump\t// out\n        /* \"#utility.yul\":8994:9167   */\n    tag_277:\n        /* \"#utility.yul\":9134:9159   */\n      0x4f6e6c79205061726b2063616e2063616c6c2074686973000000000000000000\n        /* \"#utility.yul\":9130:9131   */\n      0x00\n        /* \"#utility.yul\":9122:9128   */\n      dup3\n        /* \"#utility.yul\":9118:9132   */\n      add\n        /* \"#utility.yul\":9111:9160   */\n      mstore\n        /* \"#utility.yul\":8994:9167   */\n      pop\n      jump\t// out\n        /* \"#utility.yul\":9173:9539   */\n    tag_278:\n        /* \"#utility.yul\":9315:9318   */\n      0x00\n        /* \"#utility.yul\":9336:9403   */\n      tag_396\n        /* \"#utility.yul\":9400:9402   */\n      0x17\n        /* \"#utility.yul\":9395:9398   */\n      dup4\n        /* \"#utility.yul\":9336:9403   */\n      tag_276\n      jump\t// in\n    tag_396:\n        /* \"#utility.yul\":9329:9403   */\n      swap2\n      pop\n        /* \"#utility.yul\":9412:9505   */\n      tag_397\n        /* \"#utility.yul\":9501:9504   */\n      dup3\n        /* \"#utility.yul\":9412:9505   */\n      tag_277\n      jump\t// in\n    tag_397:\n        /* \"#utility.yul\":9530:9532   */\n      0x20\n        /* \"#utility.yul\":9525:9528   */\n      dup3\n        /* \"#utility.yul\":9521:9533   */\n      add\n        /* \"#utility.yul\":9514:9533   */\n      swap1\n      pop\n        /* \"#utility.yul\":9173:9539   */\n      swap2\n      swap1\n      pop\n      jump\t// out\n        /* \"#utility.yul\":9545:9964   */\n    tag_81:\n        /* \"#utility.yul\":9711:9715   */\n      0x00\n        /* \"#utility.yul\":9749:9751   */\n      0x20\n        /* \"#utility.yul\":9738:9747   */\n      dup3\n        /* \"#utility.yul\":9734:9752   */\n      add\n        /* \"#utility.yul\":9726:9752   */\n      swap1\n      pop\n        /* \"#utility.yul\":9798:9807   */\n      dup2\n        /* \"#utility.yul\":9792:9796   */\n      dup2\n        /* \"#utility.yul\":9788:9808   */\n      sub\n        /* \"#utility.yul\":9784:9785   */\n      0x00\n        /* \"#utility.yul\":9773:9782   */\n      dup4\n        /* \"#utility.yul\":9769:9786   */\n      add\n        /* \"#utility.yul\":9762:9809   */\n      mstore\n        /* \"#utility.yul\":9826:9957   */\n      tag_399\n        /* \"#utility.yul\":9952:9956   */\n      dup2\n        /* \"#utility.yul\":9826:9957   */\n      tag_278\n      jump\t// in\n    tag_399:\n        /* \"#utility.yul\":9818:9957   */\n      swap1\n      pop\n        /* \"#utility.yul\":9545:9964   */\n      swap2\n      swap1\n      pop\n      jump\t// out\n        /* \"#utility.yul\":9970:10143   */\n    tag_279:\n        /* \"#utility.yul\":10110:10135   */\n      0x43616e6e6f742066656564206120646561642062697264000000000000000000\n        /* \"#utility.yul\":10106:10107   */\n      0x00\n        /* \"#utility.yul\":10098:10104   */\n      dup3\n        /* \"#utility.yul\":10094:10108   */\n      add\n        /* \"#utility.yul\":10087:10136   */\n      mstore\n        /* \"#utility.yul\":9970:10143   */\n      pop\n      jump\t// out\n        /* \"#utility.yul\":10149:10515   */\n    tag_280:\n        /* \"#utility.yul\":10291:10294   */\n      0x00\n        /* \"#utility.yul\":10312:10379   */\n      tag_402\n        /* \"#utility.yul\":10376:10378   */\n      0x17\n        /* \"#utility.yul\":10371:10374   */\n      dup4\n        /* \"#utility.yul\":10312:10379   */\n      tag_276\n      jump\t// in\n    tag_402:\n        /* \"#utility.yul\":10305:10379   */\n      swap2\n      pop\n        /* \"#utility.yul\":10388:10481   */\n      tag_403\n        /* \"#utility.yul\":10477:10480   */\n      dup3\n        /* \"#utility.yul\":10388:10481   */\n      tag_279\n      jump\t// in\n    tag_403:\n        /* \"#utility.yul\":10506:10508   */\n      0x20\n        /* \"#utility.yul\":10501:10504   */\n      dup3\n        /* \"#utility.yul\":10497:10509   */\n      add\n        /* \"#utility.yul\":10490:10509   */\n      swap1\n      pop\n        /* \"#utility.yul\":10149:10515   */\n      swap2\n      swap1\n      pop\n      jump\t// out\n        /* \"#utility.yul\":10521:10940   */\n    tag_88:\n        /* \"#utility.yul\":10687:10691   */\n      0x00\n        /* \"#utility.yul\":10725:10727   */\n      0x20\n        /* \"#utility.yul\":10714:10723   */\n      dup3\n        /* \"#utility.yul\":10710:10728   */\n      add\n        /* \"#utility.yul\":10702:10728   */\n      swap1\n      pop\n        /* \"#utility.yul\":10774:10783   */\n      dup2\n        /* \"#utility.yul\":10768:10772   */\n      dup2\n        /* \"#utility.yul\":10764:10784   */\n      sub\n        /* \"#utility.yul\":10760:10761   */\n      0x00\n        /* \"#utility.yul\":10749:10758   */\n      dup4\n        /* \"#utility.yul\":10745:10762   */\n      add\n        /* \"#utility.yul\":10738:10785   */\n      mstore\n        /* \"#utility.yul\":10802:10933   */\n      tag_405\n        /* \"#utility.yul\":10928:10932   */\n      dup2\n        /* \"#utility.yul\":10802:10933   */\n      tag_280\n      jump\t// in\n    tag_405:\n        /* \"#utility.yul\":10794:10933   */\n      swap1\n      pop\n        /* \"#utility.yul\":10521:10940   */\n      swap2\n      swap1\n      pop\n      jump\t// out\n        /* \"#utility.yul\":10946:11126   */\n    tag_281:\n        /* \"#utility.yul\":10994:11071   */\n      0x4e487b7100000000000000000000000000000000000000000000000000000000\n        /* \"#utility.yul\":10991:10992   */\n      0x00\n        /* \"#utility.yul\":10984:11072   */\n      mstore\n        /* \"#utility.yul\":11091:11095   */\n      0x11\n        /* \"#utility.yul\":11088:11089   */\n      0x04\n        /* \"#utility.yul\":11081:11096   */\n      mstore\n        /* \"#utility.yul\":11115:11119   */\n      0x24\n        /* \"#utility.yul\":11112:11113   */\n      0x00\n        /* \"#utility.yul\":11105:11120   */\n      revert\n        /* \"#utility.yul\":11132:11326   */\n    tag_91:\n        /* \"#utility.yul\":11172:11176   */\n      0x00\n        /* \"#utility.yul\":11192:11212   */\n      tag_408\n        /* \"#utility.yul\":11210:11211   */\n      dup3\n        /* \"#utility.yul\":11192:11212   */\n      tag_253\n      jump\t// in\n    tag_408:\n        /* \"#utility.yul\":11187:11212   */\n      swap2\n      pop\n        /* \"#utility.yul\":11226:11246   */\n      tag_409\n        /* \"#utility.yul\":11244:11245   */\n      dup4\n        /* \"#utility.yul\":11226:11246   */\n      tag_253\n      jump\t// in\n    tag_409:\n        /* \"#utility.yul\":11221:11246   */\n      swap3\n      pop\n        /* \"#utility.yul\":11270:11271   */\n      dup3\n        /* \"#utility.yul\":11267:11268   */\n      dup3\n        /* \"#utility.yul\":11263:11272   */\n      sub\n        /* \"#utility.yul\":11255:11272   */\n      swap1\n      pop\n        /* \"#utility.yul\":11294:11295   */\n      dup2\n        /* \"#utility.yul\":11288:11292   */\n      dup2\n        /* \"#utility.yul\":11285:11296   */\n      gt\n        /* \"#utility.yul\":11282:11319   */\n      iszero\n      tag_410\n      jumpi\n        /* \"#utility.yul\":11299:11317   */\n      tag_411\n      tag_281\n      jump\t// in\n    tag_411:\n        /* \"#utility.yul\":11282:11319   */\n    tag_410:\n        /* \"#utility.yul\":11132:11326   */\n      swap3\n      swap2\n      pop\n      pop\n      jump\t// out\n        /* \"#utility.yul\":11332:11565   */\n    tag_109:\n        /* \"#utility.yul\":11371:11374   */\n      0x00\n        /* \"#utility.yul\":11394:11418   */\n      tag_413\n        /* \"#utility.yul\":11412:11417   */\n      dup3\n        /* \"#utility.yul\":11394:11418   */\n      tag_253\n      jump\t// in\n    tag_413:\n        /* \"#utility.yul\":11385:11418   */\n      swap2\n      pop\n        /* \"#utility.yul\":11440:11506   */\n      0xffffffffffffffffffffffffffffffffffffffffffffffffffffffffffffffff\n        /* \"#utility.yul\":11433:11438   */\n      dup3\n        /* \"#utility.yul\":11430:11507   */\n      sub\n        /* \"#utility.yul\":11427:11530   */\n      tag_414\n      jumpi\n        /* \"#utility.yul\":11510:11528   */\n      tag_415\n      tag_281\n      jump\t// in\n    tag_415:\n        /* \"#utility.yul\":11427:11530   */\n    tag_414:\n        /* \"#utility.yul\":11557:11558   */\n      0x01\n        /* \"#utility.yul\":11550:11555   */\n      dup3\n        /* \"#utility.yul\":11546:11559   */\n      add\n        /* \"#utility.yul\":11539:11559   */\n      swap1\n      pop\n        /* \"#utility.yul\":11332:11565   */\n      swap2\n      swap1\n      pop\n      jump\t// out\n        /* \"#utility.yul\":11571:11737   */\n    tag_282:\n        /* \"#utility.yul\":11711:11729   */\n      0x5061726b20616c72656164792073657400000000000000000000000000000000\n        /* \"#utility.yul\":11707:11708   */\n      0x00\n        /* \"#utility.yul\":11699:11705   */\n      dup3\n        /* \"#utility.yul\":11695:11709   */\n      add\n        /* \"#utility.yul\":11688:11730   */\n      mstore\n        /* \"#utility.yul\":11571:11737   */\n      pop\n      jump\t// out\n        /* \"#utility.yul\":11743:12109   */\n    tag_283:\n        /* \"#utility.yul\":11885:11888   */\n      0x00\n        /* \"#utility.yul\":11906:11973   */\n      tag_418\n        /* \"#utility.yul\":11970:11972   */\n      0x10\n        /* \"#utility.yul\":11965:11968   */\n      dup4\n        /* \"#utility.yul\":11906:11973   */\n      tag_276\n      jump\t// in\n    tag_418:\n        /* \"#utility.yul\":11899:11973   */\n      swap2\n      pop\n        /* \"#utility.yul\":11982:12075   */\n      tag_419\n        /* \"#utility.yul\":12071:12074   */\n      dup3\n        /* \"#utility.yul\":11982:12075   */\n      tag_282\n      jump\t// in\n    tag_419:\n        /* \"#utility.yul\":12100:12102   */\n      0x20\n        /* \"#utility.yul\":12095:12098   */\n      dup3\n        /* \"#utility.yul\":12091:12103   */\n      add\n        /* \"#utility.yul\":12084:12103   */\n      swap1\n      pop\n        /* \"#utility.yul\":11743:12109   */\n      swap2\n      swap1\n      pop\n      jump\t// out\n        /* \"#utility.yul\":12115:12534   */\n    tag_113:\n        /* \"#utility.yul\":12281:12285   */\n      0x00\n        /* \"#utility.yul\":12319:12321   */\n      0x20\n        /* \"#utility.yul\":12308:12317   */\n      dup3\n        /* \"#utility.yul\":12304:12322   */\n      add\n        /* \"#utility.yul\":12296:12322   */\n      swap1\n      pop\n        /* \"#utility.yul\":12368:12377   */\n      dup2\n        /* \"#utility.yul\":12362:12366   */\n      dup2\n        /* \"#utility.yul\":12358:12378   */\n      sub\n        /* \"#utility.yul\":12354:12355   */\n      0x00\n        /* \"#utility.yul\":12343:12352   */\n      dup4\n        /* \"#utility.yul\":12339:12356   */\n      add\n        /* \"#utility.yul\":12332:12379   */\n      mstore\n        /* \"#utility.yul\":12396:12527   */\n      tag_421\n        /* \"#utility.yul\":12522:12526   */\n      dup2\n        /* \"#utility.yul\":12396:12527   */\n      tag_283\n      jump\t// in\n    tag_421:\n        /* \"#utility.yul\":12388:12527   */\n      swap1\n      pop\n        /* \"#utility.yul\":12115:12534   */\n      swap2\n      swap1\n      pop\n      jump\t// out\n        /* \"#utility.yul\":12540:12698   */\n    tag_284:\n        /* \"#utility.yul\":12680:12690   */\n      0x4e6f742064656164000000000000000000000000000000000000000000000000\n        /* \"#utility.yul\":12676:12677   */\n      0x00\n        /* \"#utility.yul\":12668:12674   */\n      dup3\n        /* \"#utility.yul\":12664:12678   */\n      add\n        /* \"#utility.yul\":12657:12691   */\n      mstore\n        /* \"#utility.yul\":12540:12698   */\n      pop\n      jump\t// out\n        /* \"#utility.yul\":12704:13069   */\n    tag_285:\n        /* \"#utility.yul\":12846:12849   */\n      0x00\n        /* \"#utility.yul\":12867:12933   */\n      tag_424\n        /* \"#utility.yul\":12931:12932   */\n      0x08\n        /* \"#utility.yul\":12926:12929   */\n      dup4\n        /* \"#utility.yul\":12867:12933   */\n      tag_276\n      jump\t// in\n    tag_424:\n        /* \"#utility.yul\":12860:12933   */\n      swap2\n      pop\n        /* \"#utility.yul\":12942:13035   */\n      tag_425\n        /* \"#utility.yul\":13031:13034   */\n      dup3\n        /* \"#utility.yul\":12942:13035   */\n      tag_284\n      jump\t// in\n    tag_425:\n        /* \"#utility.yul\":13060:13062   */\n      0x20\n        /* \"#utility.yul\":13055:13058   */\n      dup3\n        /* \"#utility.yul\":13051:13063   */\n      add\n        /* \"#utility.yul\":13044:13063   */\n      swap1\n      pop\n        /* \"#utility.yul\":12704:13069   */\n      swap2\n      swap1\n      pop\n      jump\t// out\n        /* \"#utility.yul\":13075:13494   */\n    tag_128:\n        /* \"#utility.yul\":13241:13245   */\n      0x00\n        /* \"#utility.yul\":13279:13281   */\n      0x20\n        /* \"#utility.yul\":13268:13277   */\n      dup3\n        /* \"#utility.yul\":13264:13282   */\n      add\n        /* \"#utility.yul\":13256:13282   */\n      swap1\n      pop\n        /* \"#utility.yul\":13328:13337   */\n      dup2\n        /* \"#utility.yul\":13322:13326   */\n      dup2\n        /* \"#utility.yul\":13318:13338   */\n      sub\n        /* \"#utility.yul\":13314:13315   */\n      0x00\n        /* \"#utility.yul\":13303:13312   */\n      dup4\n        /* \"#utility.yul\":13299:13316   */\n      add\n        /* \"#utility.yul\":13292:13339   */\n      mstore\n        /* \"#utility.yul\":13356:13487   */\n      tag_427\n        /* \"#utility.yul\":13482:13486   */\n      dup2\n        /* \"#utility.yul\":13356:13487   */\n      tag_285\n      jump\t// in\n    tag_427:\n        /* \"#utility.yul\":13348:13487   */\n      swap1\n      pop\n        /* \"#utility.yul\":13075:13494   */\n      swap2\n      swap1\n      pop\n      jump\t// out\n        /* \"#utility.yul\":13500:13663   */\n    tag_286:\n        /* \"#utility.yul\":13640:13655   */\n      0x4e6f7420746865206f776e657200000000000000000000000000000000000000\n        /* \"#utility.yul\":13636:13637   */\n      0x00\n        /* \"#utility.yul\":13628:13634   */\n      dup3\n        /* \"#utility.yul\":13624:13638   */\n      add\n        /* \"#utility.yul\":13617:13656   */\n      mstore\n        /* \"#utility.yul\":13500:13663   */\n      pop\n      jump\t// out\n        /* \"#utility.yul\":13669:14035   */\n    tag_287:\n        /* \"#utility.yul\":13811:13814   */\n      0x00\n        /* \"#utility.yul\":13832:13899   */\n      tag_430\n        /* \"#utility.yul\":13896:13898   */\n      0x0d\n        /* \"#utility.yul\":13891:13894   */\n      dup4\n        /* \"#utility.yul\":13832:13899   */\n      tag_276\n      jump\t// in\n    tag_430:\n        /* \"#utility.yul\":13825:13899   */\n      swap2\n      pop\n        /* \"#utility.yul\":13908:14001   */\n      tag_431\n        /* \"#utility.yul\":13997:14000   */\n      dup3\n        /* \"#utility.yul\":13908:14001   */\n      tag_286\n      jump\t// in\n    tag_431:\n        /* \"#utility.yul\":14026:14028   */\n      0x20\n        /* \"#utility.yul\":14021:14024   */\n      dup3\n        /* \"#utility.yul\":14017:14029   */\n      add\n        /* \"#utility.yul\":14010:14029   */\n      swap1\n      pop\n        /* \"#utility.yul\":13669:14035   */\n      swap2\n      swap1\n      pop\n      jump\t// out\n        /* \"#utility.yul\":14041:14460   */\n    tag_136:\n        /* \"#utility.yul\":14207:14211   */\n      0x00\n        /* \"#utility.yul\":14245:14247   */\n      0x20\n        /* \"#utility.yul\":14234:14243   */\n      dup3\n        /* \"#utility.yul\":14230:14248   */\n      add\n        /* \"#utility.yul\":14222:14248   */\n      swap1\n      pop\n        /* \"#utility.yul\":14294:14303   */\n      dup2\n        /* \"#utility.yul\":14288:14292   */\n      dup2\n        /* \"#utility.yul\":14284:14304   */\n      sub\n        /* \"#utility.yul\":14280:14281   */\n      0x00\n        /* \"#utility.yul\":14269:14278   */\n      dup4\n        /* \"#utility.yul\":14265:14282   */\n      add\n        /* \"#utility.yul\":14258:14305   */\n      mstore\n        /* \"#utility.yul\":14322:14453   */\n      tag_433\n        /* \"#utility.yul\":14448:14452   */\n      dup2\n        /* \"#utility.yul\":14322:14453   */\n      tag_287\n      jump\t// in\n    tag_433:\n        /* \"#utility.yul\":14314:14453   */\n      swap1\n      pop\n        /* \"#utility.yul\":14041:14460   */\n      swap2\n      swap1\n      pop\n      jump\t// out\n        /* \"#utility.yul\":14466:14631   */\n    tag_288:\n        /* \"#utility.yul\":14606:14623   */\n      0x496e76616c696420616464726573730000000000000000000000000000000000\n        /* \"#utility.yul\":14602:14603   */\n      0x00\n        /* \"#utility.yul\":14594:14600   */\n      dup3\n        /* \"#utility.yul\":14590:14604   */\n      add\n        /* \"#utility.yul\":14583:14624   */\n      mstore\n        /* \"#utility.yul\":14466:14631   */\n      pop\n      jump\t// out\n        /* \"#utility.yul\":14637:15003   */\n    tag_289:\n        /* \"#utility.yul\":14779:14782   */\n      0x00\n        /* \"#utility.yul\":14800:14867   */\n      tag_436\n        /* \"#utility.yul\":14864:14866   */\n      0x0f\n        /* \"#utility.yul\":14859:14862   */\n      dup4\n        /* \"#utility.yul\":14800:14867   */\n      tag_276\n      jump\t// in\n    tag_436:\n        /* \"#utility.yul\":14793:14867   */\n      swap2\n      pop\n        /* \"#utility.yul\":14876:14969   */\n      tag_437\n        /* \"#utility.yul\":14965:14968   */\n      dup3\n        /* \"#utility.yul\":14876:14969   */\n      tag_288\n      jump\t// in\n    tag_437:\n        /* \"#utility.yul\":14994:14996   */\n      0x20\n        /* \"#utility.yul\":14989:14992   */\n      dup3\n        /* \"#utility.yul\":14985:14997   */\n      add\n        /* \"#utility.yul\":14978:14997   */\n      swap1\n      pop\n        /* \"#utility.yul\":14637:15003   */\n      swap2\n      swap1\n      pop\n      jump\t// out\n        /* \"#utility.yul\":15009:15428   */\n    tag_139:\n        /* \"#utility.yul\":15175:15179   */\n      0x00\n        /* \"#utility.yul\":15213:15215   */\n      0x20\n        /* \"#utility.yul\":15202:15211   */\n      dup3\n        /* \"#utility.yul\":15198:15216   */\n      add\n        /* \"#utility.yul\":15190:15216   */\n      swap1\n      pop\n        /* \"#utility.yul\":15262:15271   */\n      dup2\n        /* \"#utility.yul\":15256:15260   */\n      dup2\n        /* \"#utility.yul\":15252:15272   */\n      sub\n        /* \"#utility.yul\":15248:15249   */\n      0x00\n        /* \"#utility.yul\":15237:15246   */\n      dup4\n        /* \"#utility.yul\":15233:15250   */\n      add\n        /* \"#utility.yul\":15226:15273   */\n      mstore\n        /* \"#utility.yul\":15290:15421   */\n      tag_439\n        /* \"#utility.yul\":15416:15420   */\n      dup2\n        /* \"#utility.yul\":15290:15421   */\n      tag_289\n      jump\t// in\n    tag_439:\n        /* \"#utility.yul\":15282:15421   */\n      swap1\n      pop\n        /* \"#utility.yul\":15009:15428   */\n      swap2\n      swap1\n      pop\n      jump\t// out\n        /* \"#utility.yul\":15434:15844   */\n    tag_146:\n        /* \"#utility.yul\":15474:15481   */\n      0x00\n        /* \"#utility.yul\":15497:15517   */\n      tag_441\n        /* \"#utility.yul\":15515:15516   */\n      dup3\n        /* \"#utility.yul\":15497:15517   */\n      tag_253\n      jump\t// in\n    tag_441:\n        /* \"#utility.yul\":15492:15517   */\n      swap2\n      pop\n        /* \"#utility.yul\":15531:15551   */\n      tag_442\n        /* \"#utility.yul\":15549:15550   */\n      dup4\n        /* \"#utility.yul\":15531:15551   */\n      tag_253\n      jump\t// in\n    tag_442:\n        /* \"#utility.yul\":15526:15551   */\n      swap3\n      pop\n        /* \"#utility.yul\":15586:15587   */\n      dup3\n        /* \"#utility.yul\":15583:15584   */\n      dup3\n        /* \"#utility.yul\":15579:15588   */\n      mul\n        /* \"#utility.yul\":15608:15638   */\n      tag_443\n        /* \"#utility.yul\":15626:15637   */\n      dup2\n        /* \"#utility.yul\":15608:15638   */\n      tag_253\n      jump\t// in\n    tag_443:\n        /* \"#utility.yul\":15597:15638   */\n      swap2\n      pop\n        /* \"#utility.yul\":15787:15788   */\n      dup3\n        /* \"#utility.yul\":15778:15785   */\n      dup3\n        /* \"#utility.yul\":15774:15789   */\n      div\n        /* \"#utility.yul\":15771:15772   */\n      dup5\n        /* \"#utility.yul\":15768:15790   */\n      eq\n        /* \"#utility.yul\":15748:15749   */\n      dup4\n        /* \"#utility.yul\":15741:15750   */\n      iszero\n        /* \"#utility.yul\":15721:15804   */\n      or\n        /* \"#utility.yul\":15698:15837   */\n      tag_444\n      jumpi\n        /* \"#utility.yul\":15817:15835   */\n      tag_445\n      tag_281\n      jump\t// in\n    tag_445:\n        /* \"#utility.yul\":15698:15837   */\n    tag_444:\n        /* \"#utility.yul\":15482:15844   */\n      pop\n        /* \"#utility.yul\":15434:15844   */\n      swap3\n      swap2\n      pop\n      pop\n      jump\t// out\n        /* \"#utility.yul\":15850:16030   */\n    tag_290:\n        /* \"#utility.yul\":15898:15975   */\n      0x4e487b7100000000000000000000000000000000000000000000000000000000\n        /* \"#utility.yul\":15895:15896   */\n      0x00\n        /* \"#utility.yul\":15888:15976   */\n      mstore\n        /* \"#utility.yul\":15995:15999   */\n      0x12\n        /* \"#utility.yul\":15992:15993   */\n      0x04\n        /* \"#utility.yul\":15985:16000   */\n      mstore\n        /* \"#utility.yul\":16019:16023   */\n      0x24\n        /* \"#utility.yul\":16016:16017   */\n      0x00\n        /* \"#utility.yul\":16009:16024   */\n      revert\n        /* \"#utility.yul\":16036:16221   */\n    tag_148:\n        /* \"#utility.yul\":16076:16077   */\n      0x00\n        /* \"#utility.yul\":16093:16113   */\n      tag_448\n        /* \"#utility.yul\":16111:16112   */\n      dup3\n        /* \"#utility.yul\":16093:16113   */\n      tag_253\n      jump\t// in\n    tag_448:\n        /* \"#utility.yul\":16088:16113   */\n      swap2\n      pop\n        /* \"#utility.yul\":16127:16147   */\n      tag_449\n        /* \"#utility.yul\":16145:16146   */\n      dup4\n        /* \"#utility.yul\":16127:16147   */\n      tag_253\n      jump\t// in\n    tag_449:\n        /* \"#utility.yul\":16122:16147   */\n      swap3\n      pop\n        /* \"#utility.yul\":16166:16167   */\n      dup3\n        /* \"#utility.yul\":16156:16191   */\n      tag_450\n      jumpi\n        /* \"#utility.yul\":16171:16189   */\n      tag_451\n      tag_290\n      jump\t// in\n    tag_451:\n        /* \"#utility.yul\":16156:16191   */\n    tag_450:\n        /* \"#utility.yul\":16213:16214   */\n      dup3\n        /* \"#utility.yul\":16210:16211   */\n      dup3\n        /* \"#utility.yul\":16206:16215   */\n      div\n        /* \"#utility.yul\":16201:16215   */\n      swap1\n      pop\n        /* \"#utility.yul\":16036:16221   */\n      swap3\n      swap2\n      pop\n      pop\n      jump\t// out\n        /* \"#utility.yul\":16227:16418   */\n    tag_150:\n        /* \"#utility.yul\":16267:16270   */\n      0x00\n        /* \"#utility.yul\":16286:16306   */\n      tag_453\n        /* \"#utility.yul\":16304:16305   */\n      dup3\n        /* \"#utility.yul\":16286:16306   */\n      tag_253\n      jump\t// in\n    tag_453:\n        /* \"#utility.yul\":16281:16306   */\n      swap2\n      pop\n        /* \"#utility.yul\":16320:16340   */\n      tag_454\n        /* \"#utility.yul\":16338:16339   */\n      dup4\n        /* \"#utility.yul\":16320:16340   */\n      tag_253\n      jump\t// in\n    tag_454:\n        /* \"#utility.yul\":16315:16340   */\n      swap3\n      pop\n        /* \"#utility.yul\":16363:16364   */\n      dup3\n        /* \"#utility.yul\":16360:16361   */\n      dup3\n        /* \"#utility.yul\":16356:16365   */\n      add\n        /* \"#utility.yul\":16349:16365   */\n      swap1\n      pop\n        /* \"#utility.yul\":16384:16387   */\n      dup1\n        /* \"#utility.yul\":16381:16382   */\n      dup3\n        /* \"#utility.yul\":16378:16388   */\n      gt\n        /* \"#utility.yul\":16375:16411   */\n      iszero\n      tag_455\n      jumpi\n        /* \"#utility.yul\":16391:16409   */\n      tag_456\n      tag_281\n      jump\t// in\n    tag_456:\n        /* \"#utility.yul\":16375:16411   */\n    tag_455:\n        /* \"#utility.yul\":16227:16418   */\n      swap3\n      swap2\n      pop\n      pop\n      jump\t// out\n        /* \"#utility.yul\":16424:16651   */\n    tag_291:\n        /* \"#utility.yul\":16564:16598   */\n      0x43616e6e6f74206865616c2061206465616420626972643b2072657669766520\n        /* \"#utility.yul\":16560:16561   */\n      0x00\n        /* \"#utility.yul\":16552:16558   */\n      dup3\n        /* \"#utility.yul\":16548:16562   */\n      add\n        /* \"#utility.yul\":16541:16599   */\n      mstore\n        /* \"#utility.yul\":16633:16643   */\n      0x6974206669727374000000000000000000000000000000000000000000000000\n        /* \"#utility.yul\":16628:16630   */\n      0x20\n        /* \"#utility.yul\":16620:16626   */\n      dup3\n        /* \"#utility.yul\":16616:16631   */\n      add\n        /* \"#utility.yul\":16609:16644   */\n      mstore\n        /* \"#utility.yul\":16424:16651   */\n      pop\n      jump\t// out\n        /* \"#utility.yul\":16657:17023   */\n    tag_292:\n        /* \"#utility.yul\":16799:16802   */\n      0x00\n        /* \"#utility.yul\":16820:16887   */\n      tag_459\n        /* \"#utility.yul\":16884:16886   */\n      0x28\n        /* \"#utility.yul\":16879:16882   */\n      dup4\n        /* \"#utility.yul\":16820:16887   */\n      tag_276\n      jump\t// in\n    tag_459:\n        /* \"#utility.yul\":16813:16887   */\n      swap2\n      pop\n        /* \"#utility.yul\":16896:16989   */\n      tag_460\n        /* \"#utility.yul\":16985:16988   */\n      dup3\n        /* \"#utility.yul\":16896:16989   */\n      tag_291\n      jump\t// in\n    tag_460:\n        /* \"#utility.yul\":17014:17016   */\n      0x40\n        /* \"#utility.yul\":17009:17012   */\n      dup3\n        /* \"#utility.yul\":17005:17017   */\n      add\n        /* \"#utility.yul\":16998:17017   */\n      swap1\n      pop\n        /* \"#utility.yul\":16657:17023   */\n      swap2\n      swap1\n      pop\n      jump\t// out\n        /* \"#utility.yul\":17029:17448   */\n    tag_165:\n        /* \"#utility.yul\":17195:17199   */\n      0x00\n        /* \"#utility.yul\":17233:17235   */\n      0x20\n        /* \"#utility.yul\":17222:17231   */\n      dup3\n        /* \"#utility.yul\":17218:17236   */\n      add\n        /* \"#utility.yul\":17210:17236   */\n      swap1\n      pop\n        /* \"#utility.yul\":17282:17291   */\n      dup2\n        /* \"#utility.yul\":17276:17280   */\n      dup2\n        /* \"#utility.yul\":17272:17292   */\n      sub\n        /* \"#utility.yul\":17268:17269   */\n      0x00\n        /* \"#utility.yul\":17257:17266   */\n      dup4\n        /* \"#utility.yul\":17253:17270   */\n      add\n        /* \"#utility.yul\":17246:17293   */\n      mstore\n        /* \"#utility.yul\":17310:17441   */\n      tag_462\n        /* \"#utility.yul\":17436:17440   */\n      dup2\n        /* \"#utility.yul\":17310:17441   */\n      tag_292\n      jump\t// in\n    tag_462:\n        /* \"#utility.yul\":17302:17441   */\n      swap1\n      pop\n        /* \"#utility.yul\":17029:17448   */\n      swap2\n      swap1\n      pop\n      jump\t// out\n        /* \"#utility.yul\":17454:17533   */\n    tag_293:\n        /* \"#utility.yul\":17493:17500   */\n      0x00\n        /* \"#utility.yul\":17522:17527   */\n      dup2\n        /* \"#utility.yul\":17511:17527   */\n      swap1\n      pop\n        /* \"#utility.yul\":17454:17533   */\n      swap2\n      swap1\n      pop\n      jump\t// out\n        /* \"#utility.yul\":17539:17696   */\n    tag_294:\n        /* \"#utility.yul\":17644:17689   */\n      tag_465\n        /* \"#utility.yul\":17664:17688   */\n      tag_466\n        /* \"#utility.yul\":17682:17687   */\n      dup3\n        /* \"#utility.yul\":17664:17688   */\n      tag_253\n      jump\t// in\n    tag_466:\n        /* \"#utility.yul\":17644:17689   */\n      tag_293\n      jump\t// in\n    tag_465:\n        /* \"#utility.yul\":17639:17642   */\n      dup3\n        /* \"#utility.yul\":17632:17690   */\n      mstore\n        /* \"#utility.yul\":17539:17696   */\n      pop\n      pop\n      jump\t// out\n        /* \"#utility.yul\":17702:18099   */\n    tag_174:\n        /* \"#utility.yul\":17842:17845   */\n      0x00\n        /* \"#utility.yul\":17857:17932   */\n      tag_468\n        /* \"#utility.yul\":17928:17931   */\n      dup3\n        /* \"#utility.yul\":17919:17925   */\n      dup6\n        /* \"#utility.yul\":17857:17932   */\n      tag_294\n      jump\t// in\n    tag_468:\n        /* \"#utility.yul\":17957:17959   */\n      0x20\n        /* \"#utility.yul\":17952:17955   */\n      dup3\n        /* \"#utility.yul\":17948:17960   */\n      add\n        /* \"#utility.yul\":17941:17960   */\n      swap2\n      pop\n        /* \"#utility.yul\":17970:18045   */\n      tag_469\n        /* \"#utility.yul\":18041:18044   */\n      dup3\n        /* \"#utility.yul\":18032:18038   */\n      dup5\n        /* \"#utility.yul\":17970:18045   */\n      tag_294\n      jump\t// in\n    tag_469:\n        /* \"#utility.yul\":18070:18072   */\n      0x20\n        /* \"#utility.yul\":18065:18068   */\n      dup3\n        /* \"#utility.yul\":18061:18073   */\n      add\n        /* \"#utility.yul\":18054:18073   */\n      swap2\n      pop\n        /* \"#utility.yul\":18090:18093   */\n      dup2\n        /* \"#utility.yul\":18083:18093   */\n      swap1\n      pop\n        /* \"#utility.yul\":17702:18099   */\n      swap4\n      swap3\n      pop\n      pop\n      pop\n      jump\t// out\n        /* \"#utility.yul\":18105:18281   */\n    tag_176:\n        /* \"#utility.yul\":18137:18138   */\n      0x00\n        /* \"#utility.yul\":18154:18174   */\n      tag_471\n        /* \"#utility.yul\":18172:18173   */\n      dup3\n        /* \"#utility.yul\":18154:18174   */\n      tag_253\n      jump\t// in\n    tag_471:\n        /* \"#utility.yul\":18149:18174   */\n      swap2\n      pop\n        /* \"#utility.yul\":18188:18208   */\n      tag_472\n        /* \"#utility.yul\":18206:18207   */\n      dup4\n        /* \"#utility.yul\":18188:18208   */\n      tag_253\n      jump\t// in\n    tag_472:\n        /* \"#utility.yul\":18183:18208   */\n      swap3\n      pop\n        /* \"#utility.yul\":18227:18228   */\n      dup3\n        /* \"#utility.yul\":18217:18252   */\n      tag_473\n      jumpi\n        /* \"#utility.yul\":18232:18250   */\n      tag_474\n      tag_290\n      jump\t// in\n    tag_474:\n        /* \"#utility.yul\":18217:18252   */\n    tag_473:\n        /* \"#utility.yul\":18273:18274   */\n      dup3\n        /* \"#utility.yul\":18270:18271   */\n      dup3\n        /* \"#utility.yul\":18266:18275   */\n      mod\n        /* \"#utility.yul\":18261:18275   */\n      swap1\n      pop\n        /* \"#utility.yul\":18105:18281   */\n      swap3\n      swap2\n      pop\n      pop\n      jump\t// out\n        /* \"#utility.yul\":18287:18452   */\n    tag_295:\n        /* \"#utility.yul\":18427:18444   */\n      0x556e6b6e6f776e20737065636965730000000000000000000000000000000000\n        /* \"#utility.yul\":18423:18424   */\n      0x00\n        /* \"#utility.yul\":18415:18421   */\n      dup3\n        /* \"#utility.yul\":18411:18425   */\n      add\n        /* \"#utility.yul\":18404:18445   */\n      mstore\n        /* \"#utility.yul\":18287:18452   */\n      pop\n      jump\t// out\n        /* \"#utility.yul\":18458:18824   */\n    tag_296:\n        /* \"#utility.yul\":18600:18603   */\n      0x00\n        /* \"#utility.yul\":18621:18688   */\n      tag_477\n        /* \"#utility.yul\":18685:18687   */\n      0x0f\n        /* \"#utility.yul\":18680:18683   */\n      dup4\n        /* \"#utility.yul\":18621:18688   */\n      tag_276\n      jump\t// in\n    tag_477:\n        /* \"#utility.yul\":18614:18688   */\n      swap2\n      pop\n        /* \"#utility.yul\":18697:18790   */\n      tag_478\n        /* \"#utility.yul\":18786:18789   */\n      dup3\n        /* \"#utility.yul\":18697:18790   */\n      tag_295\n      jump\t// in\n    tag_478:\n        /* \"#utility.yul\":18815:18817   */\n      0x20\n        /* \"#utility.yul\":18810:18813   */\n      dup3\n        /* \"#utility.yul\":18806:18818   */\n      add\n        /* \"#utility.yul\":18799:18818   */\n      swap1\n      pop\n        /* \"#utility.yul\":18458:18824   */\n      swap2\n      swap1\n      pop\n      jump\t// out\n        /* \"#utility.yul\":18830:19249   */\n    tag_247:\n        /* \"#utility.yul\":18996:19000   */\n      0x00\n        /* \"#utility.yul\":19034:19036   */\n      0x20\n        /* \"#utility.yul\":19023:19032   */\n      dup3\n        /* \"#utility.yul\":19019:19037   */\n      add\n        /* \"#utility.yul\":19011:19037   */\n      swap1\n      pop\n        /* \"#utility.yul\":19083:19092   */\n      dup2\n        /* \"#utility.yul\":19077:19081   */\n      dup2\n        /* \"#utility.yul\":19073:19093   */\n      sub\n        /* \"#utility.yul\":19069:19070   */\n      0x00\n        /* \"#utility.yul\":19058:19067   */\n      dup4\n        /* \"#utility.yul\":19054:19071   */\n      add\n        /* \"#utility.yul\":19047:19094   */\n      mstore\n        /* \"#utility.yul\":19111:19242   */\n      tag_480\n        /* \"#utility.yul\":19237:19241   */\n      dup2\n        /* \"#utility.yul\":19111:19242   */\n      tag_296\n      jump\t// in\n    tag_480:\n        /* \"#utility.yul\":19103:19242   */\n      swap1\n      pop\n        /* \"#utility.yul\":18830:19249   */\n      swap2\n      swap1\n      pop\n      jump\t// out\n    stop\n    data_1ffc5c99f8ff866cb3cb9bd46d45453badb8f26649052a31a9be49b9b43149da 68747470733a2f2f676174657761792e70696e6174612e636c6f75642f697066732f6261667962656961336c65346173746b6e683270346d626b64357734326a353232746e73653477786b3777356d3777696d6f716470366f757a7079\n    data_3bbf1c81af77207dbf9db8f891697113273de930322fc10149aebcb2d416dad6 68747470733a2f2f676174657761792e70696e6174612e636c6f75642f697066732f626166796265696576377075637a377968377836686169646d7068703569656f6276636664636c6e6c776a71613269767334793335377076776d61\n    data_86e92b1a76e2f297d69c89af4232d1b3e647fd322843457f38b762c99d8ee708 68747470733a2f2f676174657761792e70696e6174612e636c6f75642f697066732f62616679626569676f686f746f6b366b336f6e76746a797970666e626e7a6263736f327163697862777a34776836347670326e336c71376e6b7361\n\n    auxdata: 0xa2646970667358221220cafcd593db1eefe6784c0e60e8a30751d65e5caad7ebcd034563bbe1d94930b164736f6c634300081e0033\n}\n",
				"bytecode": {
					"linkReferences": {},
					"object": "608060405234801561000f575f5ffd5b50604051612121380380612121833981810160405281019061003191906100d5565b8060025f6101000a81548173ffffffffffffffffffffffffffffffffffffffff021916908373ffffffffffffffffffffffffffffffffffffffff16021790555050610100565b5f5ffd5b5f73ffffffffffffffffffffffffffffffffffffffff82169050919050565b5f6100a48261007b565b9050919050565b6100b48161009a565b81146100be575f5ffd5b50565b5f815190506100cf816100ab565b92915050565b5f602082840312156100ea576100e9610077565b5b5f6100f7848285016100c1565b91505092915050565b6120148061010d5f395ff3fe608060405234801561000f575f5ffd5b50600436106100e8575f3560e01c80636ec88bbd1161008a5780638c652f95116100645780638c652f9514610258578063a2b7ce6f14610274578063bff998f414610290578063ec1c5955146102ac576100e8565b80636ec88bbd146101ee57806372680a771461021e5780638baecc211461023c576100e8565b80634d2d7881116100c65780634d2d7881146101545780634e9c7df81461018457806361b8ce8c146101a05780636352211e146101be576100e8565b806316cb4a05146100ec5780631942d1991461011c57806349b1a0bf14610138575b5f5ffd5b6101066004803603810190610101919061157e565b6102e2565b60405161011391906115c3565b60405180910390f35b610136600480360381019061013191906115dc565b6102ff565b005b610152600480360381019061014d919061157e565b61043d565b005b61016e6004803603810190610169919061163d565b6104f8565b60405161017b9190611680565b60405180910390f35b61019e600480360381019061019991906116f3565b6106e2565b005b6101a86107b4565b6040516101b5919061172d565b60405180910390f35b6101d860048036038101906101d3919061157e565b6107ba565b6040516101e59190611755565b60405180910390f35b6102086004803603810190610203919061157e565b6107ea565b604051610215919061188b565b60405180910390f35b6102266108a2565b6040516102339190611755565b60405180910390f35b6102566004803603810190610251919061157e565b6108c7565b005b610272600480360381019061026d91906118a4565b610a17565b005b61028e6004803603810190610289919061157e565b610c05565b005b6102aa60048036038101906102a5919061157e565b610d7b565b005b6102c660048036038101906102c1919061157e565b610e96565b6040516102d997969594939291906118f1565b60405180910390f35b6003602052805f5260405f205f915054906101000a900460ff1681565b60025f9054906101000a900473ffffffffffffffffffffffffffffffffffffffff1673ffffffffffffffffffffffffffffffffffffffff163373ffffffffffffffffffffffffffffffffffffffff161461038e576040517f08c379a0000000000000000000000000000000000000000000000000000000008152600401610385906119b8565b60405180910390fd5b61039782610c05565b5f5f5f8481526020019081526020015f2090506103b383610eeb565b806005015f9054906101000a900460ff1615610404576040517f08c379a00000000000000000000000000000000000000000000000000000000081526004016103fb90611a20565b60405180910390fd5b8181600101541061042e5781816001015f8282546104229190611a6b565b92505081905550610438565b5f81600101819055505b505050565b60025f9054906101000a900473ffffffffffffffffffffffffffffffffffffffff1673ffffffffffffffffffffffffffffffffffffffff163373ffffffffffffffffffffffffffffffffffffffff16146104cc576040517f08c379a00000000000000000000000000000000000000000000000000000000081526004016104c3906119b8565b60405180910390fd5b600160035f8381526020019081526020015f205f6101000a81548160ff02191690831515021790555050565b5f60025f9054906101000a900473ffffffffffffffffffffffffffffffffffffffff1673ffffffffffffffffffffffffffffffffffffffff163373ffffffffffffffffffffffffffffffffffffffff1614610588576040517f08c379a000000000000000000000000000000000000000000000000000000000815260040161057f906119b8565b60405180910390fd5b5f61059283610fc9565b90506040518060e001604052805f81526020015f8152602001825f0151815260200184600a8111156105c7576105c661177d565b5b81526020014281526020015f151581526020015f8152505f5f60015481526020019081526020015f205f820151815f015560208201518160010155604082015181600201556060820151816003015f6101000a81548160ff0219169083600a8111156106365761063561177d565b5b02179055506080820151816004015560a0820151816005015f6101000a81548160ff02191690831515021790555060c082015181600601559050503360045f60015481526020019081526020015f205f6101000a81548173ffffffffffffffffffffffffffffffffffffffff021916908373ffffffffffffffffffffffffffffffffffffffff16021790555060015f8154809291906106d490611a9e565b91905055505f915050919050565b5f73ffffffffffffffffffffffffffffffffffffffff1660025f9054906101000a900473ffffffffffffffffffffffffffffffffffffffff1673ffffffffffffffffffffffffffffffffffffffff1614610771576040517f08c379a000000000000000000000000000000000000000000000000000000000815260040161076890611b2f565b60405180910390fd5b8060025f6101000a81548173ffffffffffffffffffffffffffffffffffffffff021916908373ffffffffffffffffffffffffffffffffffffffff16021790555050565b60015481565b6004602052805f5260405f205f915054906101000a900473ffffffffffffffffffffffffffffffffffffffff1681565b6107f26114d2565b6107fb82610c05565b5f5f8381526020019081526020015f206040518060e00160405290815f82015481526020016001820154815260200160028201548152602001600382015f9054906101000a900460ff16600a8111156108575761085661177d565b5b600a8111156108695761086861177d565b5b815260200160048201548152602001600582015f9054906101000a900460ff161515151581526020016006820154815250509050919050565b60025f9054906101000a900473ffffffffffffffffffffffffffffffffffffffff1681565b60025f9054906101000a900473ffffffffffffffffffffffffffffffffffffffff1673ffffffffffffffffffffffffffffffffffffffff163373ffffffffffffffffffffffffffffffffffffffff1614610956576040517f08c379a000000000000000000000000000000000000000000000000000000000815260040161094d906119b8565b60405180910390fd5b5f5f5f8381526020019081526020015f209050806005015f9054906101000a900460ff166109b9576040517f08c379a00000000000000000000000000000000000000000000000000000000081526004016109b090611b97565b60405180910390fd5b6109d2816003015f9054906101000a900460ff16610fc9565b5f015181600201819055505f81600101819055505f816005015f6101000a81548160ff0219169083151502179055505f81600601819055504281600401819055505050565b60025f9054906101000a900473ffffffffffffffffffffffffffffffffffffffff1673ffffffffffffffffffffffffffffffffffffffff163373ffffffffffffffffffffffffffffffffffffffff1614610aa6576040517f08c379a0000000000000000000000000000000000000000000000000000000008152600401610a9d906119b8565b60405180910390fd5b3273ffffffffffffffffffffffffffffffffffffffff1660045f8481526020019081526020015f205f9054906101000a900473ffffffffffffffffffffffffffffffffffffffff1673ffffffffffffffffffffffffffffffffffffffff1614610b44576040517f08c379a0000000000000000000000000000000000000000000000000000000008152600401610b3b90611bff565b60405180910390fd5b5f73ffffffffffffffffffffffffffffffffffffffff168173ffffffffffffffffffffffffffffffffffffffff1603610bb2576040517f08c379a0000000000000000000000000000000000000000000000000000000008152600401610ba990611c67565b60405180910390fd5b8060045f8481526020019081526020015f205f6101000a81548173ffffffffffffffffffffffffffffffffffffffff021916908373ffffffffffffffffffffffffffffffffffffffff1602179055505050565b5f5f5f8381526020019081526020015f209050806005015f9054906101000a900460ff1615610c345750610d78565b5f816004015442610c459190611a6b565b90505f811115610d75575f610c69836003015f9054906101000a900460ff16610fc9565b90505f610e10826040015184610c7f9190611c85565b610c899190611cf3565b905080846001015f828254610c9e9190611d23565b92505081905550816020015184600101541115610d34575f82602001518560010154610cca9190611a6b565b90508260200151856001018190555080856002015411610d17575f85600201819055506001856005015f6101000a81548160ff021916908315150217905550428560060181905550610d32565b80856002015f828254610d2a9190611a6b565b925050819055505b505b5f6201518084610d449190611cf3565b90505f811115610d685780855f015f828254610d609190611d23565b925050819055505b4285600401819055505050505b50505b50565b60025f9054906101000a900473ffffffffffffffffffffffffffffffffffffffff1673ffffffffffffffffffffffffffffffffffffffff163373ffffffffffffffffffffffffffffffffffffffff1614610e0a576040517f08c379a0000000000000000000000000000000000000000000000000000000008152600401610e01906119b8565b60405180910390fd5b5f5f5f8381526020019081526020015f209050806005015f9054906101000a900460ff1615610e6e576040517f08c379a0000000000000000000000000000000000000000000000000000000008152600401610e6590611dc6565b60405180910390fd5b610e87816003015f9054906101000a900460ff16610fc9565b5f015181600201819055505050565b5f602052805f5260405f205f91509050805f015490806001015490806002015490806003015f9054906101000a900460ff1690806004015490806005015f9054906101000a900460ff16908060060154905087565b610ef361151c565b5f5f5f8481526020019081526020015f209050610f1f816003015f9054906101000a900460ff16610fc9565b915060035f8481526020019081526020015f205f9054906101000a900460ff16610fc4575f610f5d826003015f9054906101000a900460ff16610fc9565b6060015190505f60644286604051602001610f79929190611e04565b604051602081830303815290604052805190602001205f1c610f9b9190611e2f565b905081811015610fc1576019836002015f828254610fb99190611a6b565b925050819055505b50505b505050565b610fd161151c565b5f600a811115610fe457610fe361177d565b5b82600a811115610ff757610ff661177d565b5b03611046576040518060a0016040528060c881526020016096815260200160038152602001600181526020016040518060800160405280605d8152602001611ec8605d913981525090506114cd565b6001600a81111561105a5761105961177d565b5b82600a81111561106d5761106c61177d565b5b036110bc576040518060a0016040528060dc815260200160c8815260200160028152602001600581526020016040518060800160405280605d8152602001611f82605d913981525090506114cd565b6002600a8111156110d0576110cf61177d565b5b82600a8111156110e3576110e261177d565b5b03611132576040518060a00160405280605081526020016050815260200160038152602001600681526020016040518060800160405280605d8152602001611f25605d913981525090506114cd565b600a808111156111455761114461177d565b5b82600a8111156111585761115761177d565b5b0361119e576040518060a0016040528061012c815260200161012c8152602001600181526020015f815260200160405180602001604052805f81525081525090506114cd565b6003600a8111156111b2576111b161177d565b5b82600a8111156111c5576111c461177d565b5b0361120a576040518060a0016040528060b48152602001605a8152602001600281526020016004815260200160405180602001604052805f81525081525090506114cd565b6004600a81111561121e5761121d61177d565b5b82600a8111156112315761123061177d565b5b03611276576040518060a001604052806050815260200160468152602001600281526020016008815260200160405180602001604052805f81525081525090506114cd565b6005600a81111561128a5761128961177d565b5b82600a81111561129d5761129c61177d565b5b036112e2576040518060a0016040528060328152602001603c8152602001600481526020016005815260200160405180602001604052805f81525081525090506114cd565b6006600a8111156112f6576112f561177d565b5b82600a8111156113095761130861177d565b5b0361134e576040518060a001604052806037815260200160288152602001600381526020016004815260200160405180602001604052805f81525081525090506114cd565b6007600a8111156113625761136161177d565b5b82600a8111156113755761137461177d565b5b036113ba576040518060a00160405280604e815260200160418152602001600281526020016004815260200160405180602001604052805f81525081525090506114cd565b6008600a8111156113ce576113cd61177d565b5b82600a8111156113e1576113e061177d565b5b03611426576040518060a001604052806096815260200160648152602001600481526020016003815260200160405180602001604052805f81525081525090506114cd565b6009600a81111561143a5761143961177d565b5b82600a81111561144d5761144c61177d565b5b03611492576040518060a001604052806023815260200160428152602001600481526020016005815260200160405180602001604052805f81525081525090506114cd565b6040517f08c379a00000000000000000000000000000000000000000000000000000000081526004016114c490611ea9565b60405180910390fd5b919050565b6040518060e001604052805f81526020015f81526020015f81526020015f600a8111156115025761150161177d565b5b81526020015f81526020015f151581526020015f81525090565b6040518060a001604052805f81526020015f81526020015f81526020015f8152602001606081525090565b5f5ffd5b5f819050919050565b61155d8161154b565b8114611567575f5ffd5b50565b5f8135905061157881611554565b92915050565b5f6020828403121561159357611592611547565b5b5f6115a08482850161156a565b91505092915050565b5f8115159050919050565b6115bd816115a9565b82525050565b5f6020820190506115d65f8301846115b4565b92915050565b5f5f604083850312156115f2576115f1611547565b5b5f6115ff8582860161156a565b92505060206116108582860161156a565b9150509250929050565b600b8110611626575f5ffd5b50565b5f813590506116378161161a565b92915050565b5f6020828403121561165257611651611547565b5b5f61165f84828501611629565b91505092915050565b5f819050919050565b61167a81611668565b82525050565b5f6020820190506116935f830184611671565b92915050565b5f73ffffffffffffffffffffffffffffffffffffffff82169050919050565b5f6116c282611699565b9050919050565b6116d2816116b8565b81146116dc575f5ffd5b50565b5f813590506116ed816116c9565b92915050565b5f6020828403121561170857611707611547565b5b5f611715848285016116df565b91505092915050565b6117278161154b565b82525050565b5f6020820190506117405f83018461171e565b92915050565b61174f816116b8565b82525050565b5f6020820190506117685f830184611746565b92915050565b6117778161154b565b82525050565b7f4e487b71000000000000000000000000000000000000000000000000000000005f52602160045260245ffd5b600b81106117bb576117ba61177d565b5b50565b5f8190506117cb826117aa565b919050565b5f6117da826117be565b9050919050565b6117ea816117d0565b82525050565b6117f9816115a9565b82525050565b60e082015f8201516118135f85018261176e565b506020820151611826602085018261176e565b506040820151611839604085018261176e565b50606082015161184c60608501826117e1565b50608082015161185f608085018261176e565b5060a082015161187260a08501826117f0565b5060c082015161188560c085018261176e565b50505050565b5f60e08201905061189e5f8301846117ff565b92915050565b5f5f604083850312156118ba576118b9611547565b5b5f6118c78582860161156a565b92505060206118d8858286016116df565b9150509250929050565b6118eb816117d0565b82525050565b5f60e0820190506119045f83018a61171e565b611911602083018961171e565b61191e604083018861171e565b61192b60608301876118e2565b611938608083018661171e565b61194560a08301856115b4565b61195260c083018461171e565b98975050505050505050565b5f82825260208201905092915050565b7f4f6e6c79205061726b2063616e2063616c6c20746869730000000000000000005f82015250565b5f6119a260178361195e565b91506119ad8261196e565b602082019050919050565b5f6020820190508181035f8301526119cf81611996565b9050919050565b7f43616e6e6f7420666565642061206465616420626972640000000000000000005f82015250565b5f611a0a60178361195e565b9150611a15826119d6565b602082019050919050565b5f6020820190508181035f830152611a37816119fe565b9050919050565b7f4e487b71000000000000000000000000000000000000000000000000000000005f52601160045260245ffd5b5f611a758261154b565b9150611a808361154b565b9250828203905081811115611a9857611a97611a3e565b5b92915050565b5f611aa88261154b565b91507fffffffffffffffffffffffffffffffffffffffffffffffffffffffffffffffff8203611ada57611ad9611a3e565b5b600182019050919050565b7f5061726b20616c726561647920736574000000000000000000000000000000005f82015250565b5f611b1960108361195e565b9150611b2482611ae5565b602082019050919050565b5f6020820190508181035f830152611b4681611b0d565b9050919050565b7f4e6f7420646561640000000000000000000000000000000000000000000000005f82015250565b5f611b8160088361195e565b9150611b8c82611b4d565b602082019050919050565b5f6020820190508181035f830152611bae81611b75565b9050919050565b7f4e6f7420746865206f776e6572000000000000000000000000000000000000005f82015250565b5f611be9600d8361195e565b9150611bf482611bb5565b602082019050919050565b5f6020820190508181035f830152611c1681611bdd565b9050919050565b7f496e76616c6964206164647265737300000000000000000000000000000000005f82015250565b5f611c51600f8361195e565b9150611c5c82611c1d565b602082019050919050565b5f6020820190508181035f830152611c7e81611c45565b9050919050565b5f611c8f8261154b565b9150611c9a8361154b565b9250828202611ca88161154b565b91508282048414831517611cbf57611cbe611a3e565b5b5092915050565b7f4e487b71000000000000000000000000000000000000000000000000000000005f52601260045260245ffd5b5f611cfd8261154b565b9150611d088361154b565b925082611d1857611d17611cc6565b5b828204905092915050565b5f611d2d8261154b565b9150611d388361154b565b9250828201905080821115611d5057611d4f611a3e565b5b92915050565b7f43616e6e6f74206865616c2061206465616420626972643b20726576697665205f8201527f6974206669727374000000000000000000000000000000000000000000000000602082015250565b5f611db060288361195e565b9150611dbb82611d56565b604082019050919050565b5f6020820190508181035f830152611ddd81611da4565b9050919050565b5f819050919050565b611dfe611df98261154b565b611de4565b82525050565b5f611e0f8285611ded565b602082019150611e1f8284611ded565b6020820191508190509392505050565b5f611e398261154b565b9150611e448361154b565b925082611e5457611e53611cc6565b5b828206905092915050565b7f556e6b6e6f776e207370656369657300000000000000000000000000000000005f82015250565b5f611e93600f8361195e565b9150611e9e82611e5f565b602082019050919050565b5f6020820190508181035f830152611ec081611e87565b905091905056fe68747470733a2f2f676174657761792e70696e6174612e636c6f75642f697066732f6261667962656961336c65346173746b6e683270346d626b64357734326a353232746e73653477786b3777356d3777696d6f716470366f757a707968747470733a2f2f676174657761792e70696e6174612e636c6f75642f697066732f626166796265696576377075637a377968377836686169646d7068703569656f6276636664636c6e6c776a71613269767334793335377076776d6168747470733a2f2f676174657761792e70696e6174612e636c6f75642f697066732f62616679626569676f686f746f6b366b336f6e76746a797970666e626e7a6263736f327163697862777a34776836347670326e336c71376e6b7361a2646970667358221220cafcd593db1eefe6784c0e60e8a30751d65e5caad7ebcd034563bbe1d94930b164736f6c634300081e0033",
					"opcodes": "PUSH1 0x80 PUSH1 0x40 MSTORE CALLVALUE DUP1 ISZERO PUSH2 0xF JUMPI PUSH0 PUSH0 REVERT JUMPDEST POP PUSH1 0x40 MLOAD PUSH2 0x2121 CODESIZE SUB DUP1 PUSH2 0x2121 DUP4 CODECOPY DUP2 DUP2 ADD PUSH1 0x40 MSTORE DUP2 ADD SWAP1 PUSH2 0x31 SWAP2 SWAP1 PUSH2 0xD5 JUMP JUMPDEST DUP1 PUSH1 0x2 PUSH0 PUSH2 0x100 EXP DUP2 SLOAD DUP2 PUSH20 0xFFFFFFFFFFFFFFFFFFFFFFFFFFFFFFFFFFFFFFFF MUL NOT AND SWAP1 DUP4 PUSH20 0xFFFFFFFFFFFFFFFFFFFFFFFFFFFFFFFFFFFFFFFF AND MUL OR SWAP1 SSTORE POP POP PUSH2 0x100 JUMP JUMPDEST PUSH0 PUSH0 REVERT JUMPDEST PUSH0 PUSH20 0xFFFFFFFFFFFFFFFFFFFFFFFFFFFFFFFFFFFFFFFF DUP3 AND SWAP1 POP SWAP2 SWAP1 POP JUMP JUMPDEST PUSH0 PUSH2 0xA4 DUP3 PUSH2 0x7B JUMP JUMPDEST SWAP1 POP SWAP2 SWAP1 POP JUMP JUMPDEST PUSH2 0xB4 DUP2 PUSH2 0x9A JUMP JUMPDEST DUP2 EQ PUSH2 0xBE JUMPI PUSH0 PUSH0 REVERT JUMPDEST POP JUMP JUMPDEST PUSH0 DUP2 MLOAD SWAP1 POP PUSH2 0xCF DUP2 PUSH2 0xAB JUMP JUMPDEST SWAP3 SWAP2 POP POP JUMP JUMPDEST PUSH0 PUSH1 0x20 DUP3 DUP5 SUB SLT ISZERO PUSH2 0xEA JUMPI PUSH2 0xE9 PUSH2 0x77 JUMP JUMPDEST JUMPDEST PUSH0 PUSH2 0xF7 DUP5 DUP3 DUP6 ADD PUSH2 0xC1 JUMP JUMPDEST SWAP2 POP POP SWAP3 SWAP2 POP POP JUMP JUMPDEST PUSH2 0x2014 DUP1 PUSH2 0x10D PUSH0 CODECOPY PUSH0 RETURN INVALID PUSH1 0x80 PUSH1 0x40 MSTORE CALLVALUE DUP1 ISZERO PUSH2 0xF JUMPI PUSH0 PUSH0 REVERT JUMPDEST POP PUSH1 0x4 CALLDATASIZE LT PUSH2 0xE8 JUMPI PUSH0 CALLDATALOAD PUSH1 0xE0 SHR DUP1 PUSH4 0x6EC88BBD GT PUSH2 0x8A JUMPI DUP1 PUSH4 0x8C652F95 GT PUSH2 0x64 JUMPI DUP1 PUSH4 0x8C652F95 EQ PUSH2 0x258 JUMPI DUP1 PUSH4 0xA2B7CE6F EQ PUSH2 0x274 JUMPI DUP1 PUSH4 0xBFF998F4 EQ PUSH2 0x290 JUMPI DUP1 PUSH4 0xEC1C5955 EQ PUSH2 0x2AC JUMPI PUSH2 0xE8 JUMP JUMPDEST DUP1 PUSH4 0x6EC88BBD EQ PUSH2 0x1EE JUMPI DUP1 PUSH4 0x72680A77 EQ PUSH2 0x21E JUMPI DUP1 PUSH4 0x8BAECC21 EQ PUSH2 0x23C JUMPI PUSH2 0xE8 JUMP JUMPDEST DUP1 PUSH4 0x4D2D7881 GT PUSH2 0xC6 JUMPI DUP1 PUSH4 0x4D2D7881 EQ PUSH2 0x154 JUMPI DUP1 PUSH4 0x4E9C7DF8 EQ PUSH2 0x184 JUMPI DUP1 PUSH4 0x61B8CE8C EQ PUSH2 0x1A0 JUMPI DUP1 PUSH4 0x6352211E EQ PUSH2 0x1BE JUMPI PUSH2 0xE8 JUMP JUMPDEST DUP1 PUSH4 0x16CB4A05 EQ PUSH2 0xEC JUMPI DUP1 PUSH4 0x1942D199 EQ PUSH2 0x11C JUMPI DUP1 PUSH4 0x49B1A0BF EQ PUSH2 0x138 JUMPI JUMPDEST PUSH0 PUSH0 REVERT JUMPDEST PUSH2 0x106 PUSH1 0x4 DUP1 CALLDATASIZE SUB DUP2 ADD SWAP1 PUSH2 0x101 SWAP2 SWAP1 PUSH2 0x157E JUMP JUMPDEST PUSH2 0x2E2 JUMP JUMPDEST PUSH1 0x40 MLOAD PUSH2 0x113 SWAP2 SWAP1 PUSH2 0x15C3 JUMP JUMPDEST PUSH1 0x40 MLOAD DUP1 SWAP2 SUB SWAP1 RETURN JUMPDEST PUSH2 0x136 PUSH1 0x4 DUP1 CALLDATASIZE SUB DUP2 ADD SWAP1 PUSH2 0x131 SWAP2 SWAP1 PUSH2 0x15DC JUMP JUMPDEST PUSH2 0x2FF JUMP JUMPDEST STOP JUMPDEST PUSH2 0x152 PUSH1 0x4 DUP1 CALLDATASIZE SUB DUP2 ADD SWAP1 PUSH2 0x14D SWAP2 SWAP1 PUSH2 0x157E JUMP JUMPDEST PUSH2 0x43D JUMP JUMPDEST STOP JUMPDEST PUSH2 0x16E PUSH1 0x4 DUP1 CALLDATASIZE SUB DUP2 ADD SWAP1 PUSH2 0x169 SWAP2 SWAP1 PUSH2 0x163D JUMP JUMPDEST PUSH2 0x4F8 JUMP JUMPDEST PUSH1 0x40 MLOAD PUSH2 0x17B SWAP2 SWAP1 PUSH2 0x1680 JUMP JUMPDEST PUSH1 0x40 MLOAD DUP1 SWAP2 SUB SWAP1 RETURN JUMPDEST PUSH2 0x19E PUSH1 0x4 DUP1 CALLDATASIZE SUB DUP2 ADD SWAP1 PUSH2 0x199 SWAP2 SWAP1 PUSH2 0x16F3 JUMP JUMPDEST PUSH2 0x6E2 JUMP JUMPDEST STOP JUMPDEST PUSH2 0x1A8 PUSH2 0x7B4 JUMP JUMPDEST PUSH1 0x40 MLOAD PUSH2 0x1B5 SWAP2 SWAP1 PUSH2 0x172D JUMP JUMPDEST PUSH1 0x40 MLOAD DUP1 SWAP2 SUB SWAP1 RETURN JUMPDEST PUSH2 0x1D8 PUSH1 0x4 DUP1 CALLDATASIZE SUB DUP2 ADD SWAP1 PUSH2 0x1D3 SWAP2 SWAP1 PUSH2 0x157E JUMP JUMPDEST PUSH2 0x7BA JUMP JUMPDEST PUSH1 0x40 MLOAD PUSH2 0x1E5 SWAP2 SWAP1 PUSH2 0x1755 JUMP JUMPDEST PUSH1 0x40 MLOAD DUP1 SWAP2 SUB SWAP1 RETURN JUMPDEST PUSH2 0x208 PUSH1 0x4 DUP1 CALLDATASIZE SUB DUP2 ADD SWAP1 PUSH2 0x203 SWAP2 SWAP1 PUSH2 0x157E JUMP JUMPDEST PUSH2 0x7EA JUMP JUMPDEST PUSH1 0x40 MLOAD PUSH2 0x215 SWAP2 SWAP1 PUSH2 0x188B JUMP JUMPDEST PUSH1 0x40 MLOAD DUP1 SWAP2 SUB SWAP1 RETURN JUMPDEST PUSH2 0x226 PUSH2 0x8A2 JUMP JUMPDEST PUSH1 0x40 MLOAD PUSH2 0x233 SWAP2 SWAP1 PUSH2 0x1755 JUMP JUMPDEST PUSH1 0x40 MLOAD DUP1 SWAP2 SUB SWAP1 RETURN JUMPDEST PUSH2 0x256 PUSH1 0x4 DUP1 CALLDATASIZE SUB DUP2 ADD SWAP1 PUSH2 0x251 SWAP2 SWAP1 PUSH2 0x157E JUMP JUMPDEST PUSH2 0x8C7 JUMP JUMPDEST STOP JUMPDEST PUSH2 0x272 PUSH1 0x4 DUP1 CALLDATASIZE SUB DUP2 ADD SWAP1 PUSH2 0x26D SWAP2 SWAP1 PUSH2 0x18A4 JUMP JUMPDEST PUSH2 0xA17 JUMP JUMPDEST STOP JUMPDEST PUSH2 0x28E PUSH1 0x4 DUP1 CALLDATASIZE SUB DUP2 ADD SWAP1 PUSH2 0x289 SWAP2 SWAP1 PUSH2 0x157E JUMP JUMPDEST PUSH2 0xC05 JUMP JUMPDEST STOP JUMPDEST PUSH2 0x2AA PUSH1 0x4 DUP1 CALLDATASIZE SUB DUP2 ADD SWAP1 PUSH2 0x2A5 SWAP2 SWAP1 PUSH2 0x157E JUMP JUMPDEST PUSH2 0xD7B JUMP JUMPDEST STOP JUMPDEST PUSH2 0x2C6 PUSH1 0x4 DUP1 CALLDATASIZE SUB DUP2 ADD SWAP1 PUSH2 0x2C1 SWAP2 SWAP1 PUSH2 0x157E JUMP JUMPDEST PUSH2 0xE96 JUMP JUMPDEST PUSH1 0x40 MLOAD PUSH2 0x2D9 SWAP8 SWAP7 SWAP6 SWAP5 SWAP4 SWAP3 SWAP2 SWAP1 PUSH2 0x18F1 JUMP JUMPDEST PUSH1 0x40 MLOAD DUP1 SWAP2 SUB SWAP1 RETURN JUMPDEST PUSH1 0x3 PUSH1 0x20 MSTORE DUP1 PUSH0 MSTORE PUSH1 0x40 PUSH0 KECCAK256 PUSH0 SWAP2 POP SLOAD SWAP1 PUSH2 0x100 EXP SWAP1 DIV PUSH1 0xFF AND DUP2 JUMP JUMPDEST PUSH1 0x2 PUSH0 SWAP1 SLOAD SWAP1 PUSH2 0x100 EXP SWAP1 DIV PUSH20 0xFFFFFFFFFFFFFFFFFFFFFFFFFFFFFFFFFFFFFFFF AND PUSH20 0xFFFFFFFFFFFFFFFFFFFFFFFFFFFFFFFFFFFFFFFF AND CALLER PUSH20 0xFFFFFFFFFFFFFFFFFFFFFFFFFFFFFFFFFFFFFFFF AND EQ PUSH2 0x38E JUMPI PUSH1 0x40 MLOAD PUSH32 0x8C379A000000000000000000000000000000000000000000000000000000000 DUP2 MSTORE PUSH1 0x4 ADD PUSH2 0x385 SWAP1 PUSH2 0x19B8 JUMP JUMPDEST PUSH1 0x40 MLOAD DUP1 SWAP2 SUB SWAP1 REVERT JUMPDEST PUSH2 0x397 DUP3 PUSH2 0xC05 JUMP JUMPDEST PUSH0 PUSH0 PUSH0 DUP5 DUP2 MSTORE PUSH1 0x20 ADD SWAP1 DUP2 MSTORE PUSH1 0x20 ADD PUSH0 KECCAK256 SWAP1 POP PUSH2 0x3B3 DUP4 PUSH2 0xEEB JUMP JUMPDEST DUP1 PUSH1 0x5 ADD PUSH0 SWAP1 SLOAD SWAP1 PUSH2 0x100 EXP SWAP1 DIV PUSH1 0xFF AND ISZERO PUSH2 0x404 JUMPI PUSH1 0x40 MLOAD PUSH32 0x8C379A000000000000000000000000000000000000000000000000000000000 DUP2 MSTORE PUSH1 0x4 ADD PUSH2 0x3FB SWAP1 PUSH2 0x1A20 JUMP JUMPDEST PUSH1 0x40 MLOAD DUP1 SWAP2 SUB SWAP1 REVERT JUMPDEST DUP2 DUP2 PUSH1 0x1 ADD SLOAD LT PUSH2 0x42E JUMPI DUP2 DUP2 PUSH1 0x1 ADD PUSH0 DUP3 DUP3 SLOAD PUSH2 0x422 SWAP2 SWAP1 PUSH2 0x1A6B JUMP JUMPDEST SWAP3 POP POP DUP2 SWAP1 SSTORE POP PUSH2 0x438 JUMP JUMPDEST PUSH0 DUP2 PUSH1 0x1 ADD DUP2 SWAP1 SSTORE POP JUMPDEST POP POP POP JUMP JUMPDEST PUSH1 0x2 PUSH0 SWAP1 SLOAD SWAP1 PUSH2 0x100 EXP SWAP1 DIV PUSH20 0xFFFFFFFFFFFFFFFFFFFFFFFFFFFFFFFFFFFFFFFF AND PUSH20 0xFFFFFFFFFFFFFFFFFFFFFFFFFFFFFFFFFFFFFFFF AND CALLER PUSH20 0xFFFFFFFFFFFFFFFFFFFFFFFFFFFFFFFFFFFFFFFF AND EQ PUSH2 0x4CC JUMPI PUSH1 0x40 MLOAD PUSH32 0x8C379A000000000000000000000000000000000000000000000000000000000 DUP2 MSTORE PUSH1 0x4 ADD PUSH2 0x4C3 SWAP1 PUSH2 0x19B8 JUMP JUMPDEST PUSH1 0x40 MLOAD DUP1 SWAP2 SUB SWAP1 REVERT JUMPDEST PUSH1 0x1 PUSH1 0x3 PUSH0 DUP4 DUP2 MSTORE PUSH1 0x20 ADD SWAP1 DUP2 MSTORE PUSH1 0x20 ADD PUSH0 KECCAK256 PUSH0 PUSH2 0x100 EXP DUP2 SLOAD DUP2 PUSH1 0xFF MUL NOT AND SWAP1 DUP4 ISZERO ISZERO MUL OR SWAP1 SSTORE POP POP JUMP JUMPDEST PUSH0 PUSH1 0x2 PUSH0 SWAP1 SLOAD SWAP1 PUSH2 0x100 EXP SWAP1 DIV PUSH20 0xFFFFFFFFFFFFFFFFFFFFFFFFFFFFFFFFFFFFFFFF AND PUSH20 0xFFFFFFFFFFFFFFFFFFFFFFFFFFFFFFFFFFFFFFFF AND CALLER PUSH20 0xFFFFFFFFFFFFFFFFFFFFFFFFFFFFFFFFFFFFFFFF AND EQ PUSH2 0x588 JUMPI PUSH1 0x40 MLOAD PUSH32 0x8C379A000000000000000000000000000000000000000000000000000000000 DUP2 MSTORE PUSH1 0x4 ADD PUSH2 0x57F SWAP1 PUSH2 0x19B8 JUMP JUMPDEST PUSH1 0x40 MLOAD DUP1 SWAP2 SUB SWAP1 REVERT JUMPDEST PUSH0 PUSH2 0x592 DUP4 PUSH2 0xFC9 JUMP JUMPDEST SWAP1 POP PUSH1 0x40 MLOAD DUP1 PUSH1 0xE0 ADD PUSH1 0x40 MSTORE DUP1 PUSH0 DUP2 MSTORE PUSH1 0x20 ADD PUSH0 DUP2 MSTORE PUSH1 0x20 ADD DUP3 PUSH0 ADD MLOAD DUP2 MSTORE PUSH1 0x20 ADD DUP5 PUSH1 0xA DUP2 GT ISZERO PUSH2 0x5C7 JUMPI PUSH2 0x5C6 PUSH2 0x177D JUMP JUMPDEST JUMPDEST DUP2 MSTORE PUSH1 0x20 ADD TIMESTAMP DUP2 MSTORE PUSH1 0x20 ADD PUSH0 ISZERO ISZERO DUP2 MSTORE PUSH1 0x20 ADD PUSH0 DUP2 MSTORE POP PUSH0 PUSH0 PUSH1 0x1 SLOAD DUP2 MSTORE PUSH1 0x20 ADD SWAP1 DUP2 MSTORE PUSH1 0x20 ADD PUSH0 KECCAK256 PUSH0 DUP3 ADD MLOAD DUP2 PUSH0 ADD SSTORE PUSH1 0x20 DUP3 ADD MLOAD DUP2 PUSH1 0x1 ADD SSTORE PUSH1 0x40 DUP3 ADD MLOAD DUP2 PUSH1 0x2 ADD SSTORE PUSH1 0x60 DUP3 ADD MLOAD DUP2 PUSH1 0x3 ADD PUSH0 PUSH2 0x100 EXP DUP2 SLOAD DUP2 PUSH1 0xFF MUL NOT AND SWAP1 DUP4 PUSH1 0xA DUP2 GT ISZERO PUSH2 0x636 JUMPI PUSH2 0x635 PUSH2 0x177D JUMP JUMPDEST JUMPDEST MUL OR SWAP1 SSTORE POP PUSH1 0x80 DUP3 ADD MLOAD DUP2 PUSH1 0x4 ADD SSTORE PUSH1 0xA0 DUP3 ADD MLOAD DUP2 PUSH1 0x5 ADD PUSH0 PUSH2 0x100 EXP DUP2 SLOAD DUP2 PUSH1 0xFF MUL NOT AND SWAP1 DUP4 ISZERO ISZERO MUL OR SWAP1 SSTORE POP PUSH1 0xC0 DUP3 ADD MLOAD DUP2 PUSH1 0x6 ADD SSTORE SWAP1 POP POP CALLER PUSH1 0x4 PUSH0 PUSH1 0x1 SLOAD DUP2 MSTORE PUSH1 0x20 ADD SWAP1 DUP2 MSTORE PUSH1 0x20 ADD PUSH0 KECCAK256 PUSH0 PUSH2 0x100 EXP DUP2 SLOAD DUP2 PUSH20 0xFFFFFFFFFFFFFFFFFFFFFFFFFFFFFFFFFFFFFFFF MUL NOT AND SWAP1 DUP4 PUSH20 0xFFFFFFFFFFFFFFFFFFFFFFFFFFFFFFFFFFFFFFFF AND MUL OR SWAP1 SSTORE POP PUSH1 0x1 PUSH0 DUP2 SLOAD DUP1 SWAP3 SWAP2 SWAP1 PUSH2 0x6D4 SWAP1 PUSH2 0x1A9E JUMP JUMPDEST SWAP2 SWAP1 POP SSTORE POP PUSH0 SWAP2 POP POP SWAP2 SWAP1 POP JUMP JUMPDEST PUSH0 PUSH20 0xFFFFFFFFFFFFFFFFFFFFFFFFFFFFFFFFFFFFFFFF AND PUSH1 0x2 PUSH0 SWAP1 SLOAD SWAP1 PUSH2 0x100 EXP SWAP1 DIV PUSH20 0xFFFFFFFFFFFFFFFFFFFFFFFFFFFFFFFFFFFFFFFF AND PUSH20 0xFFFFFFFFFFFFFFFFFFFFFFFFFFFFFFFFFFFFFFFF AND EQ PUSH2 0x771 JUMPI PUSH1 0x40 MLOAD PUSH32 0x8C379A000000000000000000000000000000000000000000000000000000000 DUP2 MSTORE PUSH1 0x4 ADD PUSH2 0x768 SWAP1 PUSH2 0x1B2F JUMP JUMPDEST PUSH1 0x40 MLOAD DUP1 SWAP2 SUB SWAP1 REVERT JUMPDEST DUP1 PUSH1 0x2 PUSH0 PUSH2 0x100 EXP DUP2 SLOAD DUP2 PUSH20 0xFFFFFFFFFFFFFFFFFFFFFFFFFFFFFFFFFFFFFFFF MUL NOT AND SWAP1 DUP4 PUSH20 0xFFFFFFFFFFFFFFFFFFFFFFFFFFFFFFFFFFFFFFFF AND MUL OR SWAP1 SSTORE POP POP JUMP JUMPDEST PUSH1 0x1 SLOAD DUP2 JUMP JUMPDEST PUSH1 0x4 PUSH1 0x20 MSTORE DUP1 PUSH0 MSTORE PUSH1 0x40 PUSH0 KECCAK256 PUSH0 SWAP2 POP SLOAD SWAP1 PUSH2 0x100 EXP SWAP1 DIV PUSH20 0xFFFFFFFFFFFFFFFFFFFFFFFFFFFFFFFFFFFFFFFF AND DUP2 JUMP JUMPDEST PUSH2 0x7F2 PUSH2 0x14D2 JUMP JUMPDEST PUSH2 0x7FB DUP3 PUSH2 0xC05 JUMP JUMPDEST PUSH0 PUSH0 DUP4 DUP2 MSTORE PUSH1 0x20 ADD SWAP1 DUP2 MSTORE PUSH1 0x20 ADD PUSH0 KECCAK256 PUSH1 0x40 MLOAD DUP1 PUSH1 0xE0 ADD PUSH1 0x40 MSTORE SWAP1 DUP2 PUSH0 DUP3 ADD SLOAD DUP2 MSTORE PUSH1 0x20 ADD PUSH1 0x1 DUP3 ADD SLOAD DUP2 MSTORE PUSH1 0x20 ADD PUSH1 0x2 DUP3 ADD SLOAD DUP2 MSTORE PUSH1 0x20 ADD PUSH1 0x3 DUP3 ADD PUSH0 SWAP1 SLOAD SWAP1 PUSH2 0x100 EXP SWAP1 DIV PUSH1 0xFF AND PUSH1 0xA DUP2 GT ISZERO PUSH2 0x857 JUMPI PUSH2 0x856 PUSH2 0x177D JUMP JUMPDEST JUMPDEST PUSH1 0xA DUP2 GT ISZERO PUSH2 0x869 JUMPI PUSH2 0x868 PUSH2 0x177D JUMP JUMPDEST JUMPDEST DUP2 MSTORE PUSH1 0x20 ADD PUSH1 0x4 DUP3 ADD SLOAD DUP2 MSTORE PUSH1 0x20 ADD PUSH1 0x5 DUP3 ADD PUSH0 SWAP1 SLOAD SWAP1 PUSH2 0x100 EXP SWAP1 DIV PUSH1 0xFF AND ISZERO ISZERO ISZERO ISZERO DUP2 MSTORE PUSH1 0x20 ADD PUSH1 0x6 DUP3 ADD SLOAD DUP2 MSTORE POP POP SWAP1 POP SWAP2 SWAP1 POP JUMP JUMPDEST PUSH1 0x2 PUSH0 SWAP1 SLOAD SWAP1 PUSH2 0x100 EXP SWAP1 DIV PUSH20 0xFFFFFFFFFFFFFFFFFFFFFFFFFFFFFFFFFFFFFFFF AND DUP2 JUMP JUMPDEST PUSH1 0x2 PUSH0 SWAP1 SLOAD SWAP1 PUSH2 0x100 EXP SWAP1 DIV PUSH20 0xFFFFFFFFFFFFFFFFFFFFFFFFFFFFFFFFFFFFFFFF AND PUSH20 0xFFFFFFFFFFFFFFFFFFFFFFFFFFFFFFFFFFFFFFFF AND CALLER PUSH20 0xFFFFFFFFFFFFFFFFFFFFFFFFFFFFFFFFFFFFFFFF AND EQ PUSH2 0x956 JUMPI PUSH1 0x40 MLOAD PUSH32 0x8C379A000000000000000000000000000000000000000000000000000000000 DUP2 MSTORE PUSH1 0x4 ADD PUSH2 0x94D SWAP1 PUSH2 0x19B8 JUMP JUMPDEST PUSH1 0x40 MLOAD DUP1 SWAP2 SUB SWAP1 REVERT JUMPDEST PUSH0 PUSH0 PUSH0 DUP4 DUP2 MSTORE PUSH1 0x20 ADD SWAP1 DUP2 MSTORE PUSH1 0x20 ADD PUSH0 KECCAK256 SWAP1 POP DUP1 PUSH1 0x5 ADD PUSH0 SWAP1 SLOAD SWAP1 PUSH2 0x100 EXP SWAP1 DIV PUSH1 0xFF AND PUSH2 0x9B9 JUMPI PUSH1 0x40 MLOAD PUSH32 0x8C379A000000000000000000000000000000000000000000000000000000000 DUP2 MSTORE PUSH1 0x4 ADD PUSH2 0x9B0 SWAP1 PUSH2 0x1B97 JUMP JUMPDEST PUSH1 0x40 MLOAD DUP1 SWAP2 SUB SWAP1 REVERT JUMPDEST PUSH2 0x9D2 DUP2 PUSH1 0x3 ADD PUSH0 SWAP1 SLOAD SWAP1 PUSH2 0x100 EXP SWAP1 DIV PUSH1 0xFF AND PUSH2 0xFC9 JUMP JUMPDEST PUSH0 ADD MLOAD DUP2 PUSH1 0x2 ADD DUP2 SWAP1 SSTORE POP PUSH0 DUP2 PUSH1 0x1 ADD DUP2 SWAP1 SSTORE POP PUSH0 DUP2 PUSH1 0x5 ADD PUSH0 PUSH2 0x100 EXP DUP2 SLOAD DUP2 PUSH1 0xFF MUL NOT AND SWAP1 DUP4 ISZERO ISZERO MUL OR SWAP1 SSTORE POP PUSH0 DUP2 PUSH1 0x6 ADD DUP2 SWAP1 SSTORE POP TIMESTAMP DUP2 PUSH1 0x4 ADD DUP2 SWAP1 SSTORE POP POP POP JUMP JUMPDEST PUSH1 0x2 PUSH0 SWAP1 SLOAD SWAP1 PUSH2 0x100 EXP SWAP1 DIV PUSH20 0xFFFFFFFFFFFFFFFFFFFFFFFFFFFFFFFFFFFFFFFF AND PUSH20 0xFFFFFFFFFFFFFFFFFFFFFFFFFFFFFFFFFFFFFFFF AND CALLER PUSH20 0xFFFFFFFFFFFFFFFFFFFFFFFFFFFFFFFFFFFFFFFF AND EQ PUSH2 0xAA6 JUMPI PUSH1 0x40 MLOAD PUSH32 0x8C379A000000000000000000000000000000000000000000000000000000000 DUP2 MSTORE PUSH1 0x4 ADD PUSH2 0xA9D SWAP1 PUSH2 0x19B8 JUMP JUMPDEST PUSH1 0x40 MLOAD DUP1 SWAP2 SUB SWAP1 REVERT JUMPDEST ORIGIN PUSH20 0xFFFFFFFFFFFFFFFFFFFFFFFFFFFFFFFFFFFFFFFF AND PUSH1 0x4 PUSH0 DUP5 DUP2 MSTORE PUSH1 0x20 ADD SWAP1 DUP2 MSTORE PUSH1 0x20 ADD PUSH0 KECCAK256 PUSH0 SWAP1 SLOAD SWAP1 PUSH2 0x100 EXP SWAP1 DIV PUSH20 0xFFFFFFFFFFFFFFFFFFFFFFFFFFFFFFFFFFFFFFFF AND PUSH20 0xFFFFFFFFFFFFFFFFFFFFFFFFFFFFFFFFFFFFFFFF AND EQ PUSH2 0xB44 JUMPI PUSH1 0x40 MLOAD PUSH32 0x8C379A000000000000000000000000000000000000000000000000000000000 DUP2 MSTORE PUSH1 0x4 ADD PUSH2 0xB3B SWAP1 PUSH2 0x1BFF JUMP JUMPDEST PUSH1 0x40 MLOAD DUP1 SWAP2 SUB SWAP1 REVERT JUMPDEST PUSH0 PUSH20 0xFFFFFFFFFFFFFFFFFFFFFFFFFFFFFFFFFFFFFFFF AND DUP2 PUSH20 0xFFFFFFFFFFFFFFFFFFFFFFFFFFFFFFFFFFFFFFFF AND SUB PUSH2 0xBB2 JUMPI PUSH1 0x40 MLOAD PUSH32 0x8C379A000000000000000000000000000000000000000000000000000000000 DUP2 MSTORE PUSH1 0x4 ADD PUSH2 0xBA9 SWAP1 PUSH2 0x1C67 JUMP JUMPDEST PUSH1 0x40 MLOAD DUP1 SWAP2 SUB SWAP1 REVERT JUMPDEST DUP1 PUSH1 0x4 PUSH0 DUP5 DUP2 MSTORE PUSH1 0x20 ADD SWAP1 DUP2 MSTORE PUSH1 0x20 ADD PUSH0 KECCAK256 PUSH0 PUSH2 0x100 EXP DUP2 SLOAD DUP2 PUSH20 0xFFFFFFFFFFFFFFFFFFFFFFFFFFFFFFFFFFFFFFFF MUL NOT AND SWAP1 DUP4 PUSH20 0xFFFFFFFFFFFFFFFFFFFFFFFFFFFFFFFFFFFFFFFF AND MUL OR SWAP1 SSTORE POP POP POP JUMP JUMPDEST PUSH0 PUSH0 PUSH0 DUP4 DUP2 MSTORE PUSH1 0x20 ADD SWAP1 DUP2 MSTORE PUSH1 0x20 ADD PUSH0 KECCAK256 SWAP1 POP DUP1 PUSH1 0x5 ADD PUSH0 SWAP1 SLOAD SWAP1 PUSH2 0x100 EXP SWAP1 DIV PUSH1 0xFF AND ISZERO PUSH2 0xC34 JUMPI POP PUSH2 0xD78 JUMP JUMPDEST PUSH0 DUP2 PUSH1 0x4 ADD SLOAD TIMESTAMP PUSH2 0xC45 SWAP2 SWAP1 PUSH2 0x1A6B JUMP JUMPDEST SWAP1 POP PUSH0 DUP2 GT ISZERO PUSH2 0xD75 JUMPI PUSH0 PUSH2 0xC69 DUP4 PUSH1 0x3 ADD PUSH0 SWAP1 SLOAD SWAP1 PUSH2 0x100 EXP SWAP1 DIV PUSH1 0xFF AND PUSH2 0xFC9 JUMP JUMPDEST SWAP1 POP PUSH0 PUSH2 0xE10 DUP3 PUSH1 0x40 ADD MLOAD DUP5 PUSH2 0xC7F SWAP2 SWAP1 PUSH2 0x1C85 JUMP JUMPDEST PUSH2 0xC89 SWAP2 SWAP1 PUSH2 0x1CF3 JUMP JUMPDEST SWAP1 POP DUP1 DUP5 PUSH1 0x1 ADD PUSH0 DUP3 DUP3 SLOAD PUSH2 0xC9E SWAP2 SWAP1 PUSH2 0x1D23 JUMP JUMPDEST SWAP3 POP POP DUP2 SWAP1 SSTORE POP DUP2 PUSH1 0x20 ADD MLOAD DUP5 PUSH1 0x1 ADD SLOAD GT ISZERO PUSH2 0xD34 JUMPI PUSH0 DUP3 PUSH1 0x20 ADD MLOAD DUP6 PUSH1 0x1 ADD SLOAD PUSH2 0xCCA SWAP2 SWAP1 PUSH2 0x1A6B JUMP JUMPDEST SWAP1 POP DUP3 PUSH1 0x20 ADD MLOAD DUP6 PUSH1 0x1 ADD DUP2 SWAP1 SSTORE POP DUP1 DUP6 PUSH1 0x2 ADD SLOAD GT PUSH2 0xD17 JUMPI PUSH0 DUP6 PUSH1 0x2 ADD DUP2 SWAP1 SSTORE POP PUSH1 0x1 DUP6 PUSH1 0x5 ADD PUSH0 PUSH2 0x100 EXP DUP2 SLOAD DUP2 PUSH1 0xFF MUL NOT AND SWAP1 DUP4 ISZERO ISZERO MUL OR SWAP1 SSTORE POP TIMESTAMP DUP6 PUSH1 0x6 ADD DUP2 SWAP1 SSTORE POP PUSH2 0xD32 JUMP JUMPDEST DUP1 DUP6 PUSH1 0x2 ADD PUSH0 DUP3 DUP3 SLOAD PUSH2 0xD2A SWAP2 SWAP1 PUSH2 0x1A6B JUMP JUMPDEST SWAP3 POP POP DUP2 SWAP1 SSTORE POP JUMPDEST POP JUMPDEST PUSH0 PUSH3 0x15180 DUP5 PUSH2 0xD44 SWAP2 SWAP1 PUSH2 0x1CF3 JUMP JUMPDEST SWAP1 POP PUSH0 DUP2 GT ISZERO PUSH2 0xD68 JUMPI DUP1 DUP6 PUSH0 ADD PUSH0 DUP3 DUP3 SLOAD PUSH2 0xD60 SWAP2 SWAP1 PUSH2 0x1D23 JUMP JUMPDEST SWAP3 POP POP DUP2 SWAP1 SSTORE POP JUMPDEST TIMESTAMP DUP6 PUSH1 0x4 ADD DUP2 SWAP1 SSTORE POP POP POP POP JUMPDEST POP POP JUMPDEST POP JUMP JUMPDEST PUSH1 0x2 PUSH0 SWAP1 SLOAD SWAP1 PUSH2 0x100 EXP SWAP1 DIV PUSH20 0xFFFFFFFFFFFFFFFFFFFFFFFFFFFFFFFFFFFFFFFF AND PUSH20 0xFFFFFFFFFFFFFFFFFFFFFFFFFFFFFFFFFFFFFFFF AND CALLER PUSH20 0xFFFFFFFFFFFFFFFFFFFFFFFFFFFFFFFFFFFFFFFF AND EQ PUSH2 0xE0A JUMPI PUSH1 0x40 MLOAD PUSH32 0x8C379A000000000000000000000000000000000000000000000000000000000 DUP2 MSTORE PUSH1 0x4 ADD PUSH2 0xE01 SWAP1 PUSH2 0x19B8 JUMP JUMPDEST PUSH1 0x40 MLOAD DUP1 SWAP2 SUB SWAP1 REVERT JUMPDEST PUSH0 PUSH0 PUSH0 DUP4 DUP2 MSTORE PUSH1 0x20 ADD SWAP1 DUP2 MSTORE PUSH1 0x20 ADD PUSH0 KECCAK256 SWAP1 POP DUP1 PUSH1 0x5 ADD PUSH0 SWAP1 SLOAD SWAP1 PUSH2 0x100 EXP SWAP1 DIV PUSH1 0xFF AND ISZERO PUSH2 0xE6E JUMPI PUSH1 0x40 MLOAD PUSH32 0x8C379A000000000000000000000000000000000000000000000000000000000 DUP2 MSTORE PUSH1 0x4 ADD PUSH2 0xE65 SWAP1 PUSH2 0x1DC6 JUMP JUMPDEST PUSH1 0x40 MLOAD DUP1 SWAP2 SUB SWAP1 REVERT JUMPDEST PUSH2 0xE87 DUP2 PUSH1 0x3 ADD PUSH0 SWAP1 SLOAD SWAP1 PUSH2 0x100 EXP SWAP1 DIV PUSH1 0xFF AND PUSH2 0xFC9 JUMP JUMPDEST PUSH0 ADD MLOAD DUP2 PUSH1 0x2 ADD DUP2 SWAP1 SSTORE POP POP POP JUMP JUMPDEST PUSH0 PUSH1 0x20 MSTORE DUP1 PUSH0 MSTORE PUSH1 0x40 PUSH0 KECCAK256 PUSH0 SWAP2 POP SWAP1 POP DUP1 PUSH0 ADD SLOAD SWAP1 DUP1 PUSH1 0x1 ADD SLOAD SWAP1 DUP1 PUSH1 0x2 ADD SLOAD SWAP1 DUP1 PUSH1 0x3 ADD PUSH0 SWAP1 SLOAD SWAP1 PUSH2 0x100 EXP SWAP1 DIV PUSH1 0xFF AND SWAP1 DUP1 PUSH1 0x4 ADD SLOAD SWAP1 DUP1 PUSH1 0x5 ADD PUSH0 SWAP1 SLOAD SWAP1 PUSH2 0x100 EXP SWAP1 DIV PUSH1 0xFF AND SWAP1 DUP1 PUSH1 0x6 ADD SLOAD SWAP1 POP DUP8 JUMP JUMPDEST PUSH2 0xEF3 PUSH2 0x151C JUMP JUMPDEST PUSH0 PUSH0 PUSH0 DUP5 DUP2 MSTORE PUSH1 0x20 ADD SWAP1 DUP2 MSTORE PUSH1 0x20 ADD PUSH0 KECCAK256 SWAP1 POP PUSH2 0xF1F DUP2 PUSH1 0x3 ADD PUSH0 SWAP1 SLOAD SWAP1 PUSH2 0x100 EXP SWAP1 DIV PUSH1 0xFF AND PUSH2 0xFC9 JUMP JUMPDEST SWAP2 POP PUSH1 0x3 PUSH0 DUP5 DUP2 MSTORE PUSH1 0x20 ADD SWAP1 DUP2 MSTORE PUSH1 0x20 ADD PUSH0 KECCAK256 PUSH0 SWAP1 SLOAD SWAP1 PUSH2 0x100 EXP SWAP1 DIV PUSH1 0xFF AND PUSH2 0xFC4 JUMPI PUSH0 PUSH2 0xF5D DUP3 PUSH1 0x3 ADD PUSH0 SWAP1 SLOAD SWAP1 PUSH2 0x100 EXP SWAP1 DIV PUSH1 0xFF AND PUSH2 0xFC9 JUMP JUMPDEST PUSH1 0x60 ADD MLOAD SWAP1 POP PUSH0 PUSH1 0x64 TIMESTAMP DUP7 PUSH1 0x40 MLOAD PUSH1 0x20 ADD PUSH2 0xF79 SWAP3 SWAP2 SWAP1 PUSH2 0x1E04 JUMP JUMPDEST PUSH1 0x40 MLOAD PUSH1 0x20 DUP2 DUP4 SUB SUB DUP2 MSTORE SWAP1 PUSH1 0x40 MSTORE DUP1 MLOAD SWAP1 PUSH1 0x20 ADD KECCAK256 PUSH0 SHR PUSH2 0xF9B SWAP2 SWAP1 PUSH2 0x1E2F JUMP JUMPDEST SWAP1 POP DUP2 DUP2 LT ISZERO PUSH2 0xFC1 JUMPI PUSH1 0x19 DUP4 PUSH1 0x2 ADD PUSH0 DUP3 DUP3 SLOAD PUSH2 0xFB9 SWAP2 SWAP1 PUSH2 0x1A6B JUMP JUMPDEST SWAP3 POP POP DUP2 SWAP1 SSTORE POP JUMPDEST POP POP JUMPDEST POP POP POP JUMP JUMPDEST PUSH2 0xFD1 PUSH2 0x151C JUMP JUMPDEST PUSH0 PUSH1 0xA DUP2 GT ISZERO PUSH2 0xFE4 JUMPI PUSH2 0xFE3 PUSH2 0x177D JUMP JUMPDEST JUMPDEST DUP3 PUSH1 0xA DUP2 GT ISZERO PUSH2 0xFF7 JUMPI PUSH2 0xFF6 PUSH2 0x177D JUMP JUMPDEST JUMPDEST SUB PUSH2 0x1046 JUMPI PUSH1 0x40 MLOAD DUP1 PUSH1 0xA0 ADD PUSH1 0x40 MSTORE DUP1 PUSH1 0xC8 DUP2 MSTORE PUSH1 0x20 ADD PUSH1 0x96 DUP2 MSTORE PUSH1 0x20 ADD PUSH1 0x3 DUP2 MSTORE PUSH1 0x20 ADD PUSH1 0x1 DUP2 MSTORE PUSH1 0x20 ADD PUSH1 0x40 MLOAD DUP1 PUSH1 0x80 ADD PUSH1 0x40 MSTORE DUP1 PUSH1 0x5D DUP2 MSTORE PUSH1 0x20 ADD PUSH2 0x1EC8 PUSH1 0x5D SWAP2 CODECOPY DUP2 MSTORE POP SWAP1 POP PUSH2 0x14CD JUMP JUMPDEST PUSH1 0x1 PUSH1 0xA DUP2 GT ISZERO PUSH2 0x105A JUMPI PUSH2 0x1059 PUSH2 0x177D JUMP JUMPDEST JUMPDEST DUP3 PUSH1 0xA DUP2 GT ISZERO PUSH2 0x106D JUMPI PUSH2 0x106C PUSH2 0x177D JUMP JUMPDEST JUMPDEST SUB PUSH2 0x10BC JUMPI PUSH1 0x40 MLOAD DUP1 PUSH1 0xA0 ADD PUSH1 0x40 MSTORE DUP1 PUSH1 0xDC DUP2 MSTORE PUSH1 0x20 ADD PUSH1 0xC8 DUP2 MSTORE PUSH1 0x20 ADD PUSH1 0x2 DUP2 MSTORE PUSH1 0x20 ADD PUSH1 0x5 DUP2 MSTORE PUSH1 0x20 ADD PUSH1 0x40 MLOAD DUP1 PUSH1 0x80 ADD PUSH1 0x40 MSTORE DUP1 PUSH1 0x5D DUP2 MSTORE PUSH1 0x20 ADD PUSH2 0x1F82 PUSH1 0x5D SWAP2 CODECOPY DUP2 MSTORE POP SWAP1 POP PUSH2 0x14CD JUMP JUMPDEST PUSH1 0x2 PUSH1 0xA DUP2 GT ISZERO PUSH2 0x10D0 JUMPI PUSH2 0x10CF PUSH2 0x177D JUMP JUMPDEST JUMPDEST DUP3 PUSH1 0xA DUP2 GT ISZERO PUSH2 0x10E3 JUMPI PUSH2 0x10E2 PUSH2 0x177D JUMP JUMPDEST JUMPDEST SUB PUSH2 0x1132 JUMPI PUSH1 0x40 MLOAD DUP1 PUSH1 0xA0 ADD PUSH1 0x40 MSTORE DUP1 PUSH1 0x50 DUP2 MSTORE PUSH1 0x20 ADD PUSH1 0x50 DUP2 MSTORE PUSH1 0x20 ADD PUSH1 0x3 DUP2 MSTORE PUSH1 0x20 ADD PUSH1 0x6 DUP2 MSTORE PUSH1 0x20 ADD PUSH1 0x40 MLOAD DUP1 PUSH1 0x80 ADD PUSH1 0x40 MSTORE DUP1 PUSH1 0x5D DUP2 MSTORE PUSH1 0x20 ADD PUSH2 0x1F25 PUSH1 0x5D SWAP2 CODECOPY DUP2 MSTORE POP SWAP1 POP PUSH2 0x14CD JUMP JUMPDEST PUSH1 0xA DUP1 DUP2 GT ISZERO PUSH2 0x1145 JUMPI PUSH2 0x1144 PUSH2 0x177D JUMP JUMPDEST JUMPDEST DUP3 PUSH1 0xA DUP2 GT ISZERO PUSH2 0x1158 JUMPI PUSH2 0x1157 PUSH2 0x177D JUMP JUMPDEST JUMPDEST SUB PUSH2 0x119E JUMPI PUSH1 0x40 MLOAD DUP1 PUSH1 0xA0 ADD PUSH1 0x40 MSTORE DUP1 PUSH2 0x12C DUP2 MSTORE PUSH1 0x20 ADD PUSH2 0x12C DUP2 MSTORE PUSH1 0x20 ADD PUSH1 0x1 DUP2 MSTORE PUSH1 0x20 ADD PUSH0 DUP2 MSTORE PUSH1 0x20 ADD PUSH1 0x40 MLOAD DUP1 PUSH1 0x20 ADD PUSH1 0x40 MSTORE DUP1 PUSH0 DUP2 MSTORE POP DUP2 MSTORE POP SWAP1 POP PUSH2 0x14CD JUMP JUMPDEST PUSH1 0x3 PUSH1 0xA DUP2 GT ISZERO PUSH2 0x11B2 JUMPI PUSH2 0x11B1 PUSH2 0x177D JUMP JUMPDEST JUMPDEST DUP3 PUSH1 0xA DUP2 GT ISZERO PUSH2 0x11C5 JUMPI PUSH2 0x11C4 PUSH2 0x177D JUMP JUMPDEST JUMPDEST SUB PUSH2 0x120A JUMPI PUSH1 0x40 MLOAD DUP1 PUSH1 0xA0 ADD PUSH1 0x40 MSTORE DUP1 PUSH1 0xB4 DUP2 MSTORE PUSH1 0x20 ADD PUSH1 0x5A DUP2 MSTORE PUSH1 0x20 ADD PUSH1 0x2 DUP2 MSTORE PUSH1 0x20 ADD PUSH1 0x4 DUP2 MSTORE PUSH1 0x20 ADD PUSH1 0x40 MLOAD DUP1 PUSH1 0x20 ADD PUSH1 0x40 MSTORE DUP1 PUSH0 DUP2 MSTORE POP DUP2 MSTORE POP SWAP1 POP PUSH2 0x14CD JUMP JUMPDEST PUSH1 0x4 PUSH1 0xA DUP2 GT ISZERO PUSH2 0x121E JUMPI PUSH2 0x121D PUSH2 0x177D JUMP JUMPDEST JUMPDEST DUP3 PUSH1 0xA DUP2 GT ISZERO PUSH2 0x1231 JUMPI PUSH2 0x1230 PUSH2 0x177D JUMP JUMPDEST JUMPDEST SUB PUSH2 0x1276 JUMPI PUSH1 0x40 MLOAD DUP1 PUSH1 0xA0 ADD PUSH1 0x40 MSTORE DUP1 PUSH1 0x50 DUP2 MSTORE PUSH1 0x20 ADD PUSH1 0x46 DUP2 MSTORE PUSH1 0x20 ADD PUSH1 0x2 DUP2 MSTORE PUSH1 0x20 ADD PUSH1 0x8 DUP2 MSTORE PUSH1 0x20 ADD PUSH1 0x40 MLOAD DUP1 PUSH1 0x20 ADD PUSH1 0x40 MSTORE DUP1 PUSH0 DUP2 MSTORE POP DUP2 MSTORE POP SWAP1 POP PUSH2 0x14CD JUMP JUMPDEST PUSH1 0x5 PUSH1 0xA DUP2 GT ISZERO PUSH2 0x128A JUMPI PUSH2 0x1289 PUSH2 0x177D JUMP JUMPDEST JUMPDEST DUP3 PUSH1 0xA DUP2 GT ISZERO PUSH2 0x129D JUMPI PUSH2 0x129C PUSH2 0x177D JUMP JUMPDEST JUMPDEST SUB PUSH2 0x12E2 JUMPI PUSH1 0x40 MLOAD DUP1 PUSH1 0xA0 ADD PUSH1 0x40 MSTORE DUP1 PUSH1 0x32 DUP2 MSTORE PUSH1 0x20 ADD PUSH1 0x3C DUP2 MSTORE PUSH1 0x20 ADD PUSH1 0x4 DUP2 MSTORE PUSH1 0x20 ADD PUSH1 0x5 DUP2 MSTORE PUSH1 0x20 ADD PUSH1 0x40 MLOAD DUP1 PUSH1 0x20 ADD PUSH1 0x40 MSTORE DUP1 PUSH0 DUP2 MSTORE POP DUP2 MSTORE POP SWAP1 POP PUSH2 0x14CD JUMP JUMPDEST PUSH1 0x6 PUSH1 0xA DUP2 GT ISZERO PUSH2 0x12F6 JUMPI PUSH2 0x12F5 PUSH2 0x177D JUMP JUMPDEST JUMPDEST DUP3 PUSH1 0xA DUP2 GT ISZERO PUSH2 0x1309 JUMPI PUSH2 0x1308 PUSH2 0x177D JUMP JUMPDEST JUMPDEST SUB PUSH2 0x134E JUMPI PUSH1 0x40 MLOAD DUP1 PUSH1 0xA0 ADD PUSH1 0x40 MSTORE DUP1 PUSH1 0x37 DUP2 MSTORE PUSH1 0x20 ADD PUSH1 0x28 DUP2 MSTORE PUSH1 0x20 ADD PUSH1 0x3 DUP2 MSTORE PUSH1 0x20 ADD PUSH1 0x4 DUP2 MSTORE PUSH1 0x20 ADD PUSH1 0x40 MLOAD DUP1 PUSH1 0x20 ADD PUSH1 0x40 MSTORE DUP1 PUSH0 DUP2 MSTORE POP DUP2 MSTORE POP SWAP1 POP PUSH2 0x14CD JUMP JUMPDEST PUSH1 0x7 PUSH1 0xA DUP2 GT ISZERO PUSH2 0x1362 JUMPI PUSH2 0x1361 PUSH2 0x177D JUMP JUMPDEST JUMPDEST DUP3 PUSH1 0xA DUP2 GT ISZERO PUSH2 0x1375 JUMPI PUSH2 0x1374 PUSH2 0x177D JUMP JUMPDEST JUMPDEST SUB PUSH2 0x13BA JUMPI PUSH1 0x40 MLOAD DUP1 PUSH1 0xA0 ADD PUSH1 0x40 MSTORE DUP1 PUSH1 0x4E DUP2 MSTORE PUSH1 0x20 ADD PUSH1 0x41 DUP2 MSTORE PUSH1 0x20 ADD PUSH1 0x2 DUP2 MSTORE PUSH1 0x20 ADD PUSH1 0x4 DUP2 MSTORE PUSH1 0x20 ADD PUSH1 0x40 MLOAD DUP1 PUSH1 0x20 ADD PUSH1 0x40 MSTORE DUP1 PUSH0 DUP2 MSTORE POP DUP2 MSTORE POP SWAP1 POP PUSH2 0x14CD JUMP JUMPDEST PUSH1 0x8 PUSH1 0xA DUP2 GT ISZERO PUSH2 0x13CE JUMPI PUSH2 0x13CD PUSH2 0x177D JUMP JUMPDEST JUMPDEST DUP3 PUSH1 0xA DUP2 GT ISZERO PUSH2 0x13E1 JUMPI PUSH2 0x13E0 PUSH2 0x177D JUMP JUMPDEST JUMPDEST SUB PUSH2 0x1426 JUMPI PUSH1 0x40 MLOAD DUP1 PUSH1 0xA0 ADD PUSH1 0x40 MSTORE DUP1 PUSH1 0x96 DUP2 MSTORE PUSH1 0x20 ADD PUSH1 0x64 DUP2 MSTORE PUSH1 0x20 ADD PUSH1 0x4 DUP2 MSTORE PUSH1 0x20 ADD PUSH1 0x3 DUP2 MSTORE PUSH1 0x20 ADD PUSH1 0x40 MLOAD DUP1 PUSH1 0x20 ADD PUSH1 0x40 MSTORE DUP1 PUSH0 DUP2 MSTORE POP DUP2 MSTORE POP SWAP1 POP PUSH2 0x14CD JUMP JUMPDEST PUSH1 0x9 PUSH1 0xA DUP2 GT ISZERO PUSH2 0x143A JUMPI PUSH2 0x1439 PUSH2 0x177D JUMP JUMPDEST JUMPDEST DUP3 PUSH1 0xA DUP2 GT ISZERO PUSH2 0x144D JUMPI PUSH2 0x144C PUSH2 0x177D JUMP JUMPDEST JUMPDEST SUB PUSH2 0x1492 JUMPI PUSH1 0x40 MLOAD DUP1 PUSH1 0xA0 ADD PUSH1 0x40 MSTORE DUP1 PUSH1 0x23 DUP2 MSTORE PUSH1 0x20 ADD PUSH1 0x42 DUP2 MSTORE PUSH1 0x20 ADD PUSH1 0x4 DUP2 MSTORE PUSH1 0x20 ADD PUSH1 0x5 DUP2 MSTORE PUSH1 0x20 ADD PUSH1 0x40 MLOAD DUP1 PUSH1 0x20 ADD PUSH1 0x40 MSTORE DUP1 PUSH0 DUP2 MSTORE POP DUP2 MSTORE POP SWAP1 POP PUSH2 0x14CD JUMP JUMPDEST PUSH1 0x40 MLOAD PUSH32 0x8C379A000000000000000000000000000000000000000000000000000000000 DUP2 MSTORE PUSH1 0x4 ADD PUSH2 0x14C4 SWAP1 PUSH2 0x1EA9 JUMP JUMPDEST PUSH1 0x40 MLOAD DUP1 SWAP2 SUB SWAP1 REVERT JUMPDEST SWAP2 SWAP1 POP JUMP JUMPDEST PUSH1 0x40 MLOAD DUP1 PUSH1 0xE0 ADD PUSH1 0x40 MSTORE DUP1 PUSH0 DUP2 MSTORE PUSH1 0x20 ADD PUSH0 DUP2 MSTORE PUSH1 0x20 ADD PUSH0 DUP2 MSTORE PUSH1 0x20 ADD PUSH0 PUSH1 0xA DUP2 GT ISZERO PUSH2 0x1502 JUMPI PUSH2 0x1501 PUSH2 0x177D JUMP JUMPDEST JUMPDEST DUP2 MSTORE PUSH1 0x20 ADD PUSH0 DUP2 MSTORE PUSH1 0x20 ADD PUSH0 ISZERO ISZERO DUP2 MSTORE PUSH1 0x20 ADD PUSH0 DUP2 MSTORE POP SWAP1 JUMP JUMPDEST PUSH1 0x40 MLOAD DUP1 PUSH1 0xA0 ADD PUSH1 0x40 MSTORE DUP1 PUSH0 DUP2 MSTORE PUSH1 0x20 ADD PUSH0 DUP2 MSTORE PUSH1 0x20 ADD PUSH0 DUP2 MSTORE PUSH1 0x20 ADD PUSH0 DUP2 MSTORE PUSH1 0x20 ADD PUSH1 0x60 DUP2 MSTORE POP SWAP1 JUMP JUMPDEST PUSH0 PUSH0 REVERT JUMPDEST PUSH0 DUP2 SWAP1 POP SWAP2 SWAP1 POP JUMP JUMPDEST PUSH2 0x155D DUP2 PUSH2 0x154B JUMP JUMPDEST DUP2 EQ PUSH2 0x1567 JUMPI PUSH0 PUSH0 REVERT JUMPDEST POP JUMP JUMPDEST PUSH0 DUP2 CALLDATALOAD SWAP1 POP PUSH2 0x1578 DUP2 PUSH2 0x1554 JUMP JUMPDEST SWAP3 SWAP2 POP POP JUMP JUMPDEST PUSH0 PUSH1 0x20 DUP3 DUP5 SUB SLT ISZERO PUSH2 0x1593 JUMPI PUSH2 0x1592 PUSH2 0x1547 JUMP JUMPDEST JUMPDEST PUSH0 PUSH2 0x15A0 DUP5 DUP3 DUP6 ADD PUSH2 0x156A JUMP JUMPDEST SWAP2 POP POP SWAP3 SWAP2 POP POP JUMP JUMPDEST PUSH0 DUP2 ISZERO ISZERO SWAP1 POP SWAP2 SWAP1 POP JUMP JUMPDEST PUSH2 0x15BD DUP2 PUSH2 0x15A9 JUMP JUMPDEST DUP3 MSTORE POP POP JUMP JUMPDEST PUSH0 PUSH1 0x20 DUP3 ADD SWAP1 POP PUSH2 0x15D6 PUSH0 DUP4 ADD DUP5 PUSH2 0x15B4 JUMP JUMPDEST SWAP3 SWAP2 POP POP JUMP JUMPDEST PUSH0 PUSH0 PUSH1 0x40 DUP4 DUP6 SUB SLT ISZERO PUSH2 0x15F2 JUMPI PUSH2 0x15F1 PUSH2 0x1547 JUMP JUMPDEST JUMPDEST PUSH0 PUSH2 0x15FF DUP6 DUP3 DUP7 ADD PUSH2 0x156A JUMP JUMPDEST SWAP3 POP POP PUSH1 0x20 PUSH2 0x1610 DUP6 DUP3 DUP7 ADD PUSH2 0x156A JUMP JUMPDEST SWAP2 POP POP SWAP3 POP SWAP3 SWAP1 POP JUMP JUMPDEST PUSH1 0xB DUP2 LT PUSH2 0x1626 JUMPI PUSH0 PUSH0 REVERT JUMPDEST POP JUMP JUMPDEST PUSH0 DUP2 CALLDATALOAD SWAP1 POP PUSH2 0x1637 DUP2 PUSH2 0x161A JUMP JUMPDEST SWAP3 SWAP2 POP POP JUMP JUMPDEST PUSH0 PUSH1 0x20 DUP3 DUP5 SUB SLT ISZERO PUSH2 0x1652 JUMPI PUSH2 0x1651 PUSH2 0x1547 JUMP JUMPDEST JUMPDEST PUSH0 PUSH2 0x165F DUP5 DUP3 DUP6 ADD PUSH2 0x1629 JUMP JUMPDEST SWAP2 POP POP SWAP3 SWAP2 POP POP JUMP JUMPDEST PUSH0 DUP2 SWAP1 POP SWAP2 SWAP1 POP JUMP JUMPDEST PUSH2 0x167A DUP2 PUSH2 0x1668 JUMP JUMPDEST DUP3 MSTORE POP POP JUMP JUMPDEST PUSH0 PUSH1 0x20 DUP3 ADD SWAP1 POP PUSH2 0x1693 PUSH0 DUP4 ADD DUP5 PUSH2 0x1671 JUMP JUMPDEST SWAP3 SWAP2 POP POP JUMP JUMPDEST PUSH0 PUSH20 0xFFFFFFFFFFFFFFFFFFFFFFFFFFFFFFFFFFFFFFFF DUP3 AND SWAP1 POP SWAP2 SWAP1 POP JUMP JUMPDEST PUSH0 PUSH2 0x16C2 DUP3 PUSH2 0x1699 JUMP JUMPDEST SWAP1 POP SWAP2 SWAP1 POP JUMP JUMPDEST PUSH2 0x16D2 DUP2 PUSH2 0x16B8 JUMP JUMPDEST DUP2 EQ PUSH2 0x16DC JUMPI PUSH0 PUSH0 REVERT JUMPDEST POP JUMP JUMPDEST PUSH0 DUP2 CALLDATALOAD SWAP1 POP PUSH2 0x16ED DUP2 PUSH2 0x16C9 JUMP JUMPDEST SWAP3 SWAP2 POP POP JUMP JUMPDEST PUSH0 PUSH1 0x20 DUP3 DUP5 SUB SLT ISZERO PUSH2 0x1708 JUMPI PUSH2 0x1707 PUSH2 0x1547 JUMP JUMPDEST JUMPDEST PUSH0 PUSH2 0x1715 DUP5 DUP3 DUP6 ADD PUSH2 0x16DF JUMP JUMPDEST SWAP2 POP POP SWAP3 SWAP2 POP POP JUMP JUMPDEST PUSH2 0x1727 DUP2 PUSH2 0x154B JUMP JUMPDEST DUP3 MSTORE POP POP JUMP JUMPDEST PUSH0 PUSH1 0x20 DUP3 ADD SWAP1 POP PUSH2 0x1740 PUSH0 DUP4 ADD DUP5 PUSH2 0x171E JUMP JUMPDEST SWAP3 SWAP2 POP POP JUMP JUMPDEST PUSH2 0x174F DUP2 PUSH2 0x16B8 JUMP JUMPDEST DUP3 MSTORE POP POP JUMP JUMPDEST PUSH0 PUSH1 0x20 DUP3 ADD SWAP1 POP PUSH2 0x1768 PUSH0 DUP4 ADD DUP5 PUSH2 0x1746 JUMP JUMPDEST SWAP3 SWAP2 POP POP JUMP JUMPDEST PUSH2 0x1777 DUP2 PUSH2 0x154B JUMP JUMPDEST DUP3 MSTORE POP POP JUMP JUMPDEST PUSH32 0x4E487B7100000000000000000000000000000000000000000000000000000000 PUSH0 MSTORE PUSH1 0x21 PUSH1 0x4 MSTORE PUSH1 0x24 PUSH0 REVERT JUMPDEST PUSH1 0xB DUP2 LT PUSH2 0x17BB JUMPI PUSH2 0x17BA PUSH2 0x177D JUMP JUMPDEST JUMPDEST POP JUMP JUMPDEST PUSH0 DUP2 SWAP1 POP PUSH2 0x17CB DUP3 PUSH2 0x17AA JUMP JUMPDEST SWAP2 SWAP1 POP JUMP JUMPDEST PUSH0 PUSH2 0x17DA DUP3 PUSH2 0x17BE JUMP JUMPDEST SWAP1 POP SWAP2 SWAP1 POP JUMP JUMPDEST PUSH2 0x17EA DUP2 PUSH2 0x17D0 JUMP JUMPDEST DUP3 MSTORE POP POP JUMP JUMPDEST PUSH2 0x17F9 DUP2 PUSH2 0x15A9 JUMP JUMPDEST DUP3 MSTORE POP POP JUMP JUMPDEST PUSH1 0xE0 DUP3 ADD PUSH0 DUP3 ADD MLOAD PUSH2 0x1813 PUSH0 DUP6 ADD DUP3 PUSH2 0x176E JUMP JUMPDEST POP PUSH1 0x20 DUP3 ADD MLOAD PUSH2 0x1826 PUSH1 0x20 DUP6 ADD DUP3 PUSH2 0x176E JUMP JUMPDEST POP PUSH1 0x40 DUP3 ADD MLOAD PUSH2 0x1839 PUSH1 0x40 DUP6 ADD DUP3 PUSH2 0x176E JUMP JUMPDEST POP PUSH1 0x60 DUP3 ADD MLOAD PUSH2 0x184C PUSH1 0x60 DUP6 ADD DUP3 PUSH2 0x17E1 JUMP JUMPDEST POP PUSH1 0x80 DUP3 ADD MLOAD PUSH2 0x185F PUSH1 0x80 DUP6 ADD DUP3 PUSH2 0x176E JUMP JUMPDEST POP PUSH1 0xA0 DUP3 ADD MLOAD PUSH2 0x1872 PUSH1 0xA0 DUP6 ADD DUP3 PUSH2 0x17F0 JUMP JUMPDEST POP PUSH1 0xC0 DUP3 ADD MLOAD PUSH2 0x1885 PUSH1 0xC0 DUP6 ADD DUP3 PUSH2 0x176E JUMP JUMPDEST POP POP POP POP JUMP JUMPDEST PUSH0 PUSH1 0xE0 DUP3 ADD SWAP1 POP PUSH2 0x189E PUSH0 DUP4 ADD DUP5 PUSH2 0x17FF JUMP JUMPDEST SWAP3 SWAP2 POP POP JUMP JUMPDEST PUSH0 PUSH0 PUSH1 0x40 DUP4 DUP6 SUB SLT ISZERO PUSH2 0x18BA JUMPI PUSH2 0x18B9 PUSH2 0x1547 JUMP JUMPDEST JUMPDEST PUSH0 PUSH2 0x18C7 DUP6 DUP3 DUP7 ADD PUSH2 0x156A JUMP JUMPDEST SWAP3 POP POP PUSH1 0x20 PUSH2 0x18D8 DUP6 DUP3 DUP7 ADD PUSH2 0x16DF JUMP JUMPDEST SWAP2 POP POP SWAP3 POP SWAP3 SWAP1 POP JUMP JUMPDEST PUSH2 0x18EB DUP2 PUSH2 0x17D0 JUMP JUMPDEST DUP3 MSTORE POP POP JUMP JUMPDEST PUSH0 PUSH1 0xE0 DUP3 ADD SWAP1 POP PUSH2 0x1904 PUSH0 DUP4 ADD DUP11 PUSH2 0x171E JUMP JUMPDEST PUSH2 0x1911 PUSH1 0x20 DUP4 ADD DUP10 PUSH2 0x171E JUMP JUMPDEST PUSH2 0x191E PUSH1 0x40 DUP4 ADD DUP9 PUSH2 0x171E JUMP JUMPDEST PUSH2 0x192B PUSH1 0x60 DUP4 ADD DUP8 PUSH2 0x18E2 JUMP JUMPDEST PUSH2 0x1938 PUSH1 0x80 DUP4 ADD DUP7 PUSH2 0x171E JUMP JUMPDEST PUSH2 0x1945 PUSH1 0xA0 DUP4 ADD DUP6 PUSH2 0x15B4 JUMP JUMPDEST PUSH2 0x1952 PUSH1 0xC0 DUP4 ADD DUP5 PUSH2 0x171E JUMP JUMPDEST SWAP9 SWAP8 POP POP POP POP POP POP POP POP JUMP JUMPDEST PUSH0 DUP3 DUP3 MSTORE PUSH1 0x20 DUP3 ADD SWAP1 POP SWAP3 SWAP2 POP POP JUMP JUMPDEST PUSH32 0x4F6E6C79205061726B2063616E2063616C6C2074686973000000000000000000 PUSH0 DUP3 ADD MSTORE POP JUMP JUMPDEST PUSH0 PUSH2 0x19A2 PUSH1 0x17 DUP4 PUSH2 0x195E JUMP JUMPDEST SWAP2 POP PUSH2 0x19AD DUP3 PUSH2 0x196E JUMP JUMPDEST PUSH1 0x20 DUP3 ADD SWAP1 POP SWAP2 SWAP1 POP JUMP JUMPDEST PUSH0 PUSH1 0x20 DUP3 ADD SWAP1 POP DUP2 DUP2 SUB PUSH0 DUP4 ADD MSTORE PUSH2 0x19CF DUP2 PUSH2 0x1996 JUMP JUMPDEST SWAP1 POP SWAP2 SWAP1 POP JUMP JUMPDEST PUSH32 0x43616E6E6F742066656564206120646561642062697264000000000000000000 PUSH0 DUP3 ADD MSTORE POP JUMP JUMPDEST PUSH0 PUSH2 0x1A0A PUSH1 0x17 DUP4 PUSH2 0x195E JUMP JUMPDEST SWAP2 POP PUSH2 0x1A15 DUP3 PUSH2 0x19D6 JUMP JUMPDEST PUSH1 0x20 DUP3 ADD SWAP1 POP SWAP2 SWAP1 POP JUMP JUMPDEST PUSH0 PUSH1 0x20 DUP3 ADD SWAP1 POP DUP2 DUP2 SUB PUSH0 DUP4 ADD MSTORE PUSH2 0x1A37 DUP2 PUSH2 0x19FE JUMP JUMPDEST SWAP1 POP SWAP2 SWAP1 POP JUMP JUMPDEST PUSH32 0x4E487B7100000000000000000000000000000000000000000000000000000000 PUSH0 MSTORE PUSH1 0x11 PUSH1 0x4 MSTORE PUSH1 0x24 PUSH0 REVERT JUMPDEST PUSH0 PUSH2 0x1A75 DUP3 PUSH2 0x154B JUMP JUMPDEST SWAP2 POP PUSH2 0x1A80 DUP4 PUSH2 0x154B JUMP JUMPDEST SWAP3 POP DUP3 DUP3 SUB SWAP1 POP DUP2 DUP2 GT ISZERO PUSH2 0x1A98 JUMPI PUSH2 0x1A97 PUSH2 0x1A3E JUMP JUMPDEST JUMPDEST SWAP3 SWAP2 POP POP JUMP JUMPDEST PUSH0 PUSH2 0x1AA8 DUP3 PUSH2 0x154B JUMP JUMPDEST SWAP2 POP PUSH32 0xFFFFFFFFFFFFFFFFFFFFFFFFFFFFFFFFFFFFFFFFFFFFFFFFFFFFFFFFFFFFFFFF DUP3 SUB PUSH2 0x1ADA JUMPI PUSH2 0x1AD9 PUSH2 0x1A3E JUMP JUMPDEST JUMPDEST PUSH1 0x1 DUP3 ADD SWAP1 POP SWAP2 SWAP1 POP JUMP JUMPDEST PUSH32 0x5061726B20616C72656164792073657400000000000000000000000000000000 PUSH0 DUP3 ADD MSTORE POP JUMP JUMPDEST PUSH0 PUSH2 0x1B19 PUSH1 0x10 DUP4 PUSH2 0x195E JUMP JUMPDEST SWAP2 POP PUSH2 0x1B24 DUP3 PUSH2 0x1AE5 JUMP JUMPDEST PUSH1 0x20 DUP3 ADD SWAP1 POP SWAP2 SWAP1 POP JUMP JUMPDEST PUSH0 PUSH1 0x20 DUP3 ADD SWAP1 POP DUP2 DUP2 SUB PUSH0 DUP4 ADD MSTORE PUSH2 0x1B46 DUP2 PUSH2 0x1B0D JUMP JUMPDEST SWAP1 POP SWAP2 SWAP1 POP JUMP JUMPDEST PUSH32 0x4E6F742064656164000000000000000000000000000000000000000000000000 PUSH0 DUP3 ADD MSTORE POP JUMP JUMPDEST PUSH0 PUSH2 0x1B81 PUSH1 0x8 DUP4 PUSH2 0x195E JUMP JUMPDEST SWAP2 POP PUSH2 0x1B8C DUP3 PUSH2 0x1B4D JUMP JUMPDEST PUSH1 0x20 DUP3 ADD SWAP1 POP SWAP2 SWAP1 POP JUMP JUMPDEST PUSH0 PUSH1 0x20 DUP3 ADD SWAP1 POP DUP2 DUP2 SUB PUSH0 DUP4 ADD MSTORE PUSH2 0x1BAE DUP2 PUSH2 0x1B75 JUMP JUMPDEST SWAP1 POP SWAP2 SWAP1 POP JUMP JUMPDEST PUSH32 0x4E6F7420746865206F776E657200000000000000000000000000000000000000 PUSH0 DUP3 ADD MSTORE POP JUMP JUMPDEST PUSH0 PUSH2 0x1BE9 PUSH1 0xD DUP4 PUSH2 0x195E JUMP JUMPDEST SWAP2 POP PUSH2 0x1BF4 DUP3 PUSH2 0x1BB5 JUMP JUMPDEST PUSH1 0x20 DUP3 ADD SWAP1 POP SWAP2 SWAP1 POP JUMP JUMPDEST PUSH0 PUSH1 0x20 DUP3 ADD SWAP1 POP DUP2 DUP2 SUB PUSH0 DUP4 ADD MSTORE PUSH2 0x1C16 DUP2 PUSH2 0x1BDD JUMP JUMPDEST SWAP1 POP SWAP2 SWAP1 POP JUMP JUMPDEST PUSH32 0x496E76616C696420616464726573730000000000000000000000000000000000 PUSH0 DUP3 ADD MSTORE POP JUMP JUMPDEST PUSH0 PUSH2 0x1C51 PUSH1 0xF DUP4 PUSH2 0x195E JUMP JUMPDEST SWAP2 POP PUSH2 0x1C5C DUP3 PUSH2 0x1C1D JUMP JUMPDEST PUSH1 0x20 DUP3 ADD SWAP1 POP SWAP2 SWAP1 POP JUMP JUMPDEST PUSH0 PUSH1 0x20 DUP3 ADD SWAP1 POP DUP2 DUP2 SUB PUSH0 DUP4 ADD MSTORE PUSH2 0x1C7E DUP2 PUSH2 0x1C45 JUMP JUMPDEST SWAP1 POP SWAP2 SWAP1 POP JUMP JUMPDEST PUSH0 PUSH2 0x1C8F DUP3 PUSH2 0x154B JUMP JUMPDEST SWAP2 POP PUSH2 0x1C9A DUP4 PUSH2 0x154B JUMP JUMPDEST SWAP3 POP DUP3 DUP3 MUL PUSH2 0x1CA8 DUP2 PUSH2 0x154B JUMP JUMPDEST SWAP2 POP DUP3 DUP3 DIV DUP5 EQ DUP4 ISZERO OR PUSH2 0x1CBF JUMPI PUSH2 0x1CBE PUSH2 0x1A3E JUMP JUMPDEST JUMPDEST POP SWAP3 SWAP2 POP POP JUMP JUMPDEST PUSH32 0x4E487B7100000000000000000000000000000000000000000000000000000000 PUSH0 MSTORE PUSH1 0x12 PUSH1 0x4 MSTORE PUSH1 0x24 PUSH0 REVERT JUMPDEST PUSH0 PUSH2 0x1CFD DUP3 PUSH2 0x154B JUMP JUMPDEST SWAP2 POP PUSH2 0x1D08 DUP4 PUSH2 0x154B JUMP JUMPDEST SWAP3 POP DUP3 PUSH2 0x1D18 JUMPI PUSH2 0x1D17 PUSH2 0x1CC6 JUMP JUMPDEST JUMPDEST DUP3 DUP3 DIV SWAP1 POP SWAP3 SWAP2 POP POP JUMP JUMPDEST PUSH0 PUSH2 0x1D2D DUP3 PUSH2 0x154B JUMP JUMPDEST SWAP2 POP PUSH2 0x1D38 DUP4 PUSH2 0x154B JUMP JUMPDEST SWAP3 POP DUP3 DUP3 ADD SWAP1 POP DUP1 DUP3 GT ISZERO PUSH2 0x1D50 JUMPI PUSH2 0x1D4F PUSH2 0x1A3E JUMP JUMPDEST JUMPDEST SWAP3 SWAP2 POP POP JUMP JUMPDEST PUSH32 0x43616E6E6F74206865616C2061206465616420626972643B2072657669766520 PUSH0 DUP3 ADD MSTORE PUSH32 0x6974206669727374000000000000000000000000000000000000000000000000 PUSH1 0x20 DUP3 ADD MSTORE POP JUMP JUMPDEST PUSH0 PUSH2 0x1DB0 PUSH1 0x28 DUP4 PUSH2 0x195E JUMP JUMPDEST SWAP2 POP PUSH2 0x1DBB DUP3 PUSH2 0x1D56 JUMP JUMPDEST PUSH1 0x40 DUP3 ADD SWAP1 POP SWAP2 SWAP1 POP JUMP JUMPDEST PUSH0 PUSH1 0x20 DUP3 ADD SWAP1 POP DUP2 DUP2 SUB PUSH0 DUP4 ADD MSTORE PUSH2 0x1DDD DUP2 PUSH2 0x1DA4 JUMP JUMPDEST SWAP1 POP SWAP2 SWAP1 POP JUMP JUMPDEST PUSH0 DUP2 SWAP1 POP SWAP2 SWAP1 POP JUMP JUMPDEST PUSH2 0x1DFE PUSH2 0x1DF9 DUP3 PUSH2 0x154B JUMP JUMPDEST PUSH2 0x1DE4 JUMP JUMPDEST DUP3 MSTORE POP POP JUMP JUMPDEST PUSH0 PUSH2 0x1E0F DUP3 DUP6 PUSH2 0x1DED JUMP JUMPDEST PUSH1 0x20 DUP3 ADD SWAP2 POP PUSH2 0x1E1F DUP3 DUP5 PUSH2 0x1DED JUMP JUMPDEST PUSH1 0x20 DUP3 ADD SWAP2 POP DUP2 SWAP1 POP SWAP4 SWAP3 POP POP POP JUMP JUMPDEST PUSH0 PUSH2 0x1E39 DUP3 PUSH2 0x154B JUMP JUMPDEST SWAP2 POP PUSH2 0x1E44 DUP4 PUSH2 0x154B JUMP JUMPDEST SWAP3 POP DUP3 PUSH2 0x1E54 JUMPI PUSH2 0x1E53 PUSH2 0x1CC6 JUMP JUMPDEST JUMPDEST DUP3 DUP3 MOD SWAP1 POP SWAP3 SWAP2 POP POP JUMP JUMPDEST PUSH32 0x556E6B6E6F776E20737065636965730000000000000000000000000000000000 PUSH0 DUP3 ADD MSTORE POP JUMP JUMPDEST PUSH0 PUSH2 0x1E93 PUSH1 0xF DUP4 PUSH2 0x195E JUMP JUMPDEST SWAP2 POP PUSH2 0x1E9E DUP3 PUSH2 0x1E5F JUMP JUMPDEST PUSH1 0x20 DUP3 ADD SWAP1 POP SWAP2 SWAP1 POP JUMP JUMPDEST PUSH0 PUSH1 0x20 DUP3 ADD SWAP1 POP DUP2 DUP2 SUB PUSH0 DUP4 ADD MSTORE PUSH2 0x1EC0 DUP2 PUSH2 0x1E87 JUMP JUMPDEST SWAP1 POP SWAP2 SWAP1 POP JUMP INVALID PUSH9 0x747470733A2F2F6761 PUSH21 0x657761792E70696E6174612E636C6F75642F697066 PUSH20 0x2F6261667962656961336C65346173746B6E6832 PUSH17 0x346D626B64357734326A353232746E7365 CALLVALUE PUSH24 0x786B3777356D3777696D6F716470366F757A707968747470 PUSH20 0x3A2F2F676174657761792E70696E6174612E636C PUSH16 0x75642F697066732F6261667962656965 PUSH23 0x377075637A377968377836686169646D7068703569656F PUSH3 0x766366 PUSH5 0x636C6E6C77 PUSH11 0x7161326976733479333537 PUSH17 0x76776D6168747470733A2F2F6761746577 PUSH2 0x792E PUSH17 0x696E6174612E636C6F75642F697066732F PUSH3 0x616679 PUSH3 0x656967 PUSH16 0x686F746F6B366B336F6E76746A797970 PUSH7 0x6E626E7A626373 PUSH16 0x327163697862777A3477683634767032 PUSH15 0x336C71376E6B7361A2646970667358 0x22 SLT KECCAK256 0xCA 0xFC 0xD5 SWAP4 0xDB 0x1E 0xEF DUPN 0x78 0x4C 0xE PUSH1 0xE8 LOG3 SMOD MLOAD 0xD6 MCOPY TLOAD 0xAA 0xD7 0xEB 0xCD SUB GASLIMIT PUSH4 0xBBE1D949 ADDRESS 0xB1 PUSH5 0x736F6C6343 STOP ADDMOD 0x1E STOP CALLER "
				},
				"gasEstimates": {
					"creation": {
						"codeDepositCost": "1642400",
						"executionCost": "infinite",
						"totalCost": "infinite"
					},
					"external": {
						"birds(uint256)": "infinite",
						"feedBird(uint256,uint256)": "infinite",
						"getBird(uint256)": "infinite",
						"healBird(uint256)": "30305",
						"insure(uint256)": "26980",
						"insured(uint256)": "2809",
						"mintBird(uint8)": "164950",
						"nextId()": "2492",
						"ownerOf(uint256)": "2916",
						"parkContract()": "2553",
						"revive(uint256)": "86731",
						"setParkContract(address)": "26929",
						"transferBird(uint256,address)": "29431",
						"updateHungerAndAge(uint256)": "infinite"
					},
					"internal": {
						"randomPoisoning(uint256)": "infinite"
					}
				},
				"methodIdentifiers": {
					"birds(uint256)": "ec1c5955",
					"feedBird(uint256,uint256)": "1942d199",
					"getBird(uint256)": "6ec88bbd",
					"healBird(uint256)": "bff998f4",
					"insure(uint256)": "49b1a0bf",
					"insured(uint256)": "16cb4a05",
					"mintBird(uint8)": "4d2d7881",
					"nextId()": "61b8ce8c",
					"ownerOf(uint256)": "6352211e",
					"parkContract()": "72680a77",
					"revive(uint256)": "8baecc21",
					"setParkContract(address)": "4e9c7df8",
					"transferBird(uint256,address)": "8c652f95",
					"updateHungerAndAge(uint256)": "a2b7ce6f"
				}
			},
			"storageLayout": {
				"storage": [
					{
						"astId": 27,
						"contract": "contracts/Ptak.sol:Ptak",
						"label": "birds",
						"offset": 0,
						"slot": "0",
						"type": "t_mapping(t_uint256,t_struct(BirdData)22_storage)"
					},
					{
						"astId": 29,
						"contract": "contracts/Ptak.sol:Ptak",
						"label": "nextId",
						"offset": 0,
						"slot": "1",
						"type": "t_uint256"
					},
					{
						"astId": 31,
						"contract": "contracts/Ptak.sol:Ptak",
						"label": "parkContract",
						"offset": 0,
						"slot": "2",
						"type": "t_address"
					},
					{
						"astId": 35,
						"contract": "contracts/Ptak.sol:Ptak",
						"label": "insured",
						"offset": 0,
						"slot": "3",
						"type": "t_mapping(t_uint256,t_bool)"
					},
					{
						"astId": 39,
						"contract": "contracts/Ptak.sol:Ptak",
						"label": "ownerOf",
						"offset": 0,
						"slot": "4",
						"type": "t_mapping(t_uint256,t_address)"
					}
				],
				"types": {
					"t_address": {
						"encoding": "inplace",
						"label": "address",
						"numberOfBytes": "20"
					},
					"t_bool": {
						"encoding": "inplace",
						"label": "bool",
						"numberOfBytes": "1"
					},
					"t_enum(Species)559": {
						"encoding": "inplace",
						"label": "enum SpeciesLibrary.Species",
						"numberOfBytes": "1"
					},
					"t_mapping(t_uint256,t_address)": {
						"encoding": "mapping",
						"key": "t_uint256",
						"label": "mapping(uint256 => address)",
						"numberOfBytes": "32",
						"value": "t_address"
					},
					"t_mapping(t_uint256,t_bool)": {
						"encoding": "mapping",
						"key": "t_uint256",
						"label": "mapping(uint256 => bool)",
						"numberOfBytes": "32",
						"value": "t_bool"
					},
					"t_mapping(t_uint256,t_struct(BirdData)22_storage)": {
						"encoding": "mapping",
						"key": "t_uint256",
						"label": "mapping(uint256 => struct Ptak.BirdData)",
						"numberOfBytes": "32",
						"value": "t_struct(BirdData)22_storage"
					},
					"t_struct(BirdData)22_storage": {
						"encoding": "inplace",
						"label": "struct Ptak.BirdData",
						"members": [
							{
								"astId": 8,
								"contract": "contracts/Ptak.sol:Ptak",
								"label": "age",
								"offset": 0,
								"slot": "0",
								"type": "t_uint256"
							},
							{
								"astId": 10,
								"contract": "contracts/Ptak.sol:Ptak",
								"label": "hunger",
								"offset": 0,
								"slot": "1",
								"type": "t_uint256"
							},
							{
								"astId": 12,
								"contract": "contracts/Ptak.sol:Ptak",
								"label": "health",
								"offset": 0,
								"slot": "2",
								"type": "t_uint256"
							},
							{
								"astId": 15,
								"contract": "contracts/Ptak.sol:Ptak",
								"label": "species",
								"offset": 0,
								"slot": "3",
								"type": "t_enum(Species)559"
							},
							{
								"astId": 17,
								"contract": "contracts/Ptak.sol:Ptak",
								"label": "lastUpdateTime",
								"offset": 0,
								"slot": "4",
								"type": "t_uint256"
							},
							{
								"astId": 19,
								"contract": "contracts/Ptak.sol:Ptak",
								"label": "isDead",
								"offset": 0,
								"slot": "5",
								"type": "t_bool"
							},
							{
								"astId": 21,
								"contract": "contracts/Ptak.sol:Ptak",
								"label": "deathTimestamp",
								"offset": 0,
								"slot": "6",
								"type": "t_uint256"
							}
						],
						"numberOfBytes": "224"
					},
					"t_uint256": {
						"encoding": "inplace",
						"label": "uint256",
						"numberOfBytes": "32"
					}
				}
			},
			"userdoc": {
				"kind": "user",
				"methods": {},
				"version": 1
			}
		}
	}
}