{
	"contracts/Ptak.sol": {
		"Ptak": {
			"abi": [
				{
					"inputs": [
						{
							"internalType": "address",
							"name": "_parkContract",
							"type": "address"
						}
					],
					"stateMutability": "nonpayable",
					"type": "constructor"
				},
				{
					"inputs": [
						{
							"internalType": "uint256",
							"name": "",
							"type": "uint256"
						}
					],
					"name": "birds",
					"outputs": [
						{
							"internalType": "uint256",
							"name": "age",
							"type": "uint256"
						},
						{
							"internalType": "uint256",
							"name": "hunger",
							"type": "uint256"
						},
						{
							"internalType": "uint256",
							"name": "health",
							"type": "uint256"
						},
						{
							"internalType": "enum SpeciesLibrary.Species",
							"name": "species",
							"type": "uint8"
						},
						{
							"internalType": "uint256",
							"name": "lastUpdateTime",
							"type": "uint256"
						}
					],
					"stateMutability": "view",
					"type": "function"
				},
				{
					"inputs": [
						{
							"internalType": "uint256",
							"name": "id",
							"type": "uint256"
						},
						{
							"internalType": "uint256",
							"name": "foodAmount",
							"type": "uint256"
						}
					],
					"name": "feedBird",
					"outputs": [],
					"stateMutability": "nonpayable",
					"type": "function"
				},
				{
					"inputs": [
						{
							"internalType": "uint256",
							"name": "id",
							"type": "uint256"
						}
					],
					"name": "getBird",
					"outputs": [
						{
							"components": [
								{
									"internalType": "uint256",
									"name": "age",
									"type": "uint256"
								},
								{
									"internalType": "uint256",
									"name": "hunger",
									"type": "uint256"
								},
								{
									"internalType": "uint256",
									"name": "health",
									"type": "uint256"
								},
								{
									"internalType": "enum SpeciesLibrary.Species",
									"name": "species",
									"type": "uint8"
								},
								{
									"internalType": "uint256",
									"name": "lastUpdateTime",
									"type": "uint256"
								}
							],
							"internalType": "struct Ptak.BirdData",
							"name": "",
							"type": "tuple"
						}
					],
					"stateMutability": "nonpayable",
					"type": "function"
				},
				{
					"inputs": [
						{
							"internalType": "uint256",
							"name": "birdId",
							"type": "uint256"
						}
					],
					"name": "insure",
					"outputs": [],
					"stateMutability": "nonpayable",
					"type": "function"
				},
				{
					"inputs": [
						{
							"internalType": "uint256",
							"name": "",
							"type": "uint256"
						}
					],
					"name": "insured",
					"outputs": [
						{
							"internalType": "bool",
							"name": "",
							"type": "bool"
						}
					],
					"stateMutability": "view",
					"type": "function"
				},
				{
					"inputs": [
						{
							"internalType": "enum SpeciesLibrary.Species",
							"name": "species",
							"type": "uint8"
						}
					],
					"name": "mintBird",
					"outputs": [
						{
							"internalType": "int256",
							"name": "",
							"type": "int256"
						}
					],
					"stateMutability": "nonpayable",
					"type": "function"
				},
				{
					"inputs": [],
					"name": "nextId",
					"outputs": [
						{
							"internalType": "uint256",
							"name": "",
							"type": "uint256"
						}
					],
					"stateMutability": "view",
					"type": "function"
				},
				{
					"inputs": [],
					"name": "parkContract",
					"outputs": [
						{
							"internalType": "address",
							"name": "",
							"type": "address"
						}
					],
					"stateMutability": "view",
					"type": "function"
				},
				{
					"inputs": [
						{
							"internalType": "address",
							"name": "_parkContract",
							"type": "address"
						}
					],
					"name": "setParkContract",
					"outputs": [],
					"stateMutability": "nonpayable",
					"type": "function"
				},
				{
					"inputs": [
						{
							"internalType": "uint256",
							"name": "id",
							"type": "uint256"
						}
					],
					"name": "updateHungerAndAge",
					"outputs": [],
					"stateMutability": "nonpayable",
					"type": "function"
				}
			],
			"devdoc": {
				"kind": "dev",
				"methods": {},
				"version": 1
			},
			"evm": {
				"assembly": "    /* \"contracts/Ptak.sol\":95:3385  contract Ptak {... */\n  mstore(0x40, 0x80)\n    /* \"contracts/Ptak.sol\":629:711  constructor(address _parkContract) {... */\n  callvalue\n  dup1\n  iszero\n  tag_1\n  jumpi\n  revert(0x00, 0x00)\ntag_1:\n  pop\n  mload(0x40)\n  sub(codesize, bytecodeSize)\n  dup1\n  bytecodeSize\n  dup4\n  codecopy\n  dup2\n  dup2\n  add\n  0x40\n  mstore\n  dup2\n  add\n  swap1\n  tag_2\n  swap2\n  swap1\n  tag_3\n  jump\t// in\ntag_2:\n    /* \"contracts/Ptak.sol\":690:703  _parkContract */\n  dup1\n    /* \"contracts/Ptak.sol\":675:687  parkContract */\n  0x02\n  0x00\n    /* \"contracts/Ptak.sol\":675:703  parkContract = _parkContract */\n  0x0100\n  exp\n  dup2\n  sload\n  dup2\n  0xffffffffffffffffffffffffffffffffffffffff\n  mul\n  not\n  and\n  swap1\n  dup4\n  0xffffffffffffffffffffffffffffffffffffffff\n  and\n  mul\n  or\n  swap1\n  sstore\n  pop\n    /* \"contracts/Ptak.sol\":629:711  constructor(address _parkContract) {... */\n  pop\n    /* \"contracts/Ptak.sol\":95:3385  contract Ptak {... */\n  jump(tag_6)\n    /* \"#utility.yul\":88:205   */\ntag_8:\n    /* \"#utility.yul\":197:198   */\n  0x00\n    /* \"#utility.yul\":194:195   */\n  0x00\n    /* \"#utility.yul\":187:199   */\n  revert\n    /* \"#utility.yul\":334:460   */\ntag_10:\n    /* \"#utility.yul\":371:378   */\n  0x00\n    /* \"#utility.yul\":411:453   */\n  0xffffffffffffffffffffffffffffffffffffffff\n    /* \"#utility.yul\":404:409   */\n  dup3\n    /* \"#utility.yul\":400:454   */\n  and\n    /* \"#utility.yul\":389:454   */\n  swap1\n  pop\n    /* \"#utility.yul\":334:460   */\n  swap2\n  swap1\n  pop\n  jump\t// out\n    /* \"#utility.yul\":466:562   */\ntag_11:\n    /* \"#utility.yul\":503:510   */\n  0x00\n    /* \"#utility.yul\":532:556   */\n  tag_20\n    /* \"#utility.yul\":550:555   */\n  dup3\n    /* \"#utility.yul\":532:556   */\n  tag_10\n  jump\t// in\ntag_20:\n    /* \"#utility.yul\":521:556   */\n  swap1\n  pop\n    /* \"#utility.yul\":466:562   */\n  swap2\n  swap1\n  pop\n  jump\t// out\n    /* \"#utility.yul\":568:690   */\ntag_12:\n    /* \"#utility.yul\":641:665   */\n  tag_22\n    /* \"#utility.yul\":659:664   */\n  dup2\n    /* \"#utility.yul\":641:665   */\n  tag_11\n  jump\t// in\ntag_22:\n    /* \"#utility.yul\":634:639   */\n  dup2\n    /* \"#utility.yul\":631:666   */\n  eq\n    /* \"#utility.yul\":621:684   */\n  tag_23\n  jumpi\n    /* \"#utility.yul\":680:681   */\n  0x00\n    /* \"#utility.yul\":677:678   */\n  0x00\n    /* \"#utility.yul\":670:682   */\n  revert\n    /* \"#utility.yul\":621:684   */\ntag_23:\n    /* \"#utility.yul\":568:690   */\n  pop\n  jump\t// out\n    /* \"#utility.yul\":696:839   */\ntag_13:\n    /* \"#utility.yul\":753:758   */\n  0x00\n    /* \"#utility.yul\":784:790   */\n  dup2\n    /* \"#utility.yul\":778:791   */\n  mload\n    /* \"#utility.yul\":769:791   */\n  swap1\n  pop\n    /* \"#utility.yul\":800:833   */\n  tag_25\n    /* \"#utility.yul\":827:832   */\n  dup2\n    /* \"#utility.yul\":800:833   */\n  tag_12\n  jump\t// in\ntag_25:\n    /* \"#utility.yul\":696:839   */\n  swap3\n  swap2\n  pop\n  pop\n  jump\t// out\n    /* \"#utility.yul\":845:1196   */\ntag_3:\n    /* \"#utility.yul\":915:921   */\n  0x00\n    /* \"#utility.yul\":964:966   */\n  0x20\n    /* \"#utility.yul\":952:961   */\n  dup3\n    /* \"#utility.yul\":943:950   */\n  dup5\n    /* \"#utility.yul\":939:962   */\n  sub\n    /* \"#utility.yul\":935:967   */\n  slt\n    /* \"#utility.yul\":932:1051   */\n  iszero\n  tag_27\n  jumpi\n    /* \"#utility.yul\":970:1049   */\n  tag_28\n  tag_8\n  jump\t// in\ntag_28:\n    /* \"#utility.yul\":932:1051   */\ntag_27:\n    /* \"#utility.yul\":1090:1091   */\n  0x00\n    /* \"#utility.yul\":1115:1179   */\n  tag_29\n    /* \"#utility.yul\":1171:1178   */\n  dup5\n    /* \"#utility.yul\":1162:1168   */\n  dup3\n    /* \"#utility.yul\":1151:1160   */\n  dup6\n    /* \"#utility.yul\":1147:1169   */\n  add\n    /* \"#utility.yul\":1115:1179   */\n  tag_13\n  jump\t// in\ntag_29:\n    /* \"#utility.yul\":1105:1179   */\n  swap2\n  pop\n    /* \"#utility.yul\":1061:1189   */\n  pop\n    /* \"#utility.yul\":845:1196   */\n  swap3\n  swap2\n  pop\n  pop\n  jump\t// out\n    /* \"contracts/Ptak.sol\":95:3385  contract Ptak {... */\ntag_6:\n  dataSize(sub_0)\n  dup1\n  dataOffset(sub_0)\n  0x00\n  codecopy\n  0x00\n  return\nstop\n\nsub_0: assembly {\n        /* \"contracts/Ptak.sol\":95:3385  contract Ptak {... */\n      mstore(0x40, 0x80)\n      callvalue\n      dup1\n      iszero\n      tag_1\n      jumpi\n      revert(0x00, 0x00)\n    tag_1:\n      pop\n      jumpi(tag_2, lt(calldatasize, 0x04))\n      shr(0xe0, calldataload(0x00))\n      dup1\n      0x61b8ce8c\n      gt\n      tag_13\n      jumpi\n      dup1\n      0x61b8ce8c\n      eq\n      tag_8\n      jumpi\n      dup1\n      0x6ec88bbd\n      eq\n      tag_9\n      jumpi\n      dup1\n      0x72680a77\n      eq\n      tag_10\n      jumpi\n      dup1\n      0xa2b7ce6f\n      eq\n      tag_11\n      jumpi\n      dup1\n      0xec1c5955\n      eq\n      tag_12\n      jumpi\n      jump(tag_2)\n    tag_13:\n      dup1\n      0x16cb4a05\n      eq\n      tag_3\n      jumpi\n      dup1\n      0x1942d199\n      eq\n      tag_4\n      jumpi\n      dup1\n      0x49b1a0bf\n      eq\n      tag_5\n      jumpi\n      dup1\n      0x4d2d7881\n      eq\n      tag_6\n      jumpi\n      dup1\n      0x4e9c7df8\n      eq\n      tag_7\n      jumpi\n    tag_2:\n      revert(0x00, 0x00)\n        /* \"contracts/Ptak.sol\":460:499  mapping(uint256 => bool) public insured */\n    tag_3:\n      tag_14\n      0x04\n      dup1\n      calldatasize\n      sub\n      dup2\n      add\n      swap1\n      tag_15\n      swap2\n      swap1\n      tag_16\n      jump\t// in\n    tag_15:\n      tag_17\n      jump\t// in\n    tag_14:\n      mload(0x40)\n      tag_18\n      swap2\n      swap1\n      tag_19\n      jump\t// in\n    tag_18:\n      mload(0x40)\n      dup1\n      swap2\n      sub\n      swap1\n      return\n        /* \"contracts/Ptak.sol\":2552:2902  function feedBird(uint256 id, uint256 foodAmount) external onlyPark {... */\n    tag_4:\n      tag_20\n      0x04\n      dup1\n      calldatasize\n      sub\n      dup2\n      add\n      swap1\n      tag_21\n      swap2\n      swap1\n      tag_22\n      jump\t// in\n    tag_21:\n      tag_23\n      jump\t// in\n    tag_20:\n      stop\n        /* \"contracts/Ptak.sol\":2910:3062  function insure(uint256 birdId) external {... */\n    tag_5:\n      tag_24\n      0x04\n      dup1\n      calldatasize\n      sub\n      dup2\n      add\n      swap1\n      tag_25\n      swap2\n      swap1\n      tag_16\n      jump\t// in\n    tag_25:\n      tag_26\n      jump\t// in\n    tag_24:\n      stop\n        /* \"contracts/Ptak.sol\":719:1031  function mintBird(SpeciesLibrary.Species species) external onlyPark returns (int) {... */\n    tag_6:\n      tag_27\n      0x04\n      dup1\n      calldatasize\n      sub\n      dup2\n      add\n      swap1\n      tag_28\n      swap2\n      swap1\n      tag_29\n      jump\t// in\n    tag_28:\n      tag_30\n      jump\t// in\n    tag_27:\n      mload(0x40)\n      tag_31\n      swap2\n      swap1\n      tag_32\n      jump\t// in\n    tag_31:\n      mload(0x40)\n      dup1\n      swap2\n      sub\n      swap1\n      return\n        /* \"contracts/Ptak.sol\":3210:3380  function setParkContract(address _parkContract) external {... */\n    tag_7:\n      tag_33\n      0x04\n      dup1\n      calldatasize\n      sub\n      dup2\n      add\n      swap1\n      tag_34\n      swap2\n      swap1\n      tag_35\n      jump\t// in\n    tag_34:\n      tag_36\n      jump\t// in\n    tag_33:\n      stop\n        /* \"contracts/Ptak.sol\":398:419  uint256 public nextId */\n    tag_8:\n      tag_37\n      tag_38\n      jump\t// in\n    tag_37:\n      mload(0x40)\n      tag_39\n      swap2\n      swap1\n      tag_40\n      jump\t// in\n    tag_39:\n      mload(0x40)\n      dup1\n      swap2\n      sub\n      swap1\n      return\n        /* \"contracts/Ptak.sol\":3070:3202  function getBird(uint256 id) external returns (BirdData memory) {... */\n    tag_9:\n      tag_41\n      0x04\n      dup1\n      calldatasize\n      sub\n      dup2\n      add\n      swap1\n      tag_42\n      swap2\n      swap1\n      tag_16\n      jump\t// in\n    tag_42:\n      tag_43\n      jump\t// in\n    tag_41:\n      mload(0x40)\n      tag_44\n      swap2\n      swap1\n      tag_45\n      jump\t// in\n    tag_44:\n      mload(0x40)\n      dup1\n      swap2\n      sub\n      swap1\n      return\n        /* \"contracts/Ptak.sol\":426:453  address public parkContract */\n    tag_10:\n      tag_46\n      tag_47\n      jump\t// in\n    tag_46:\n      mload(0x40)\n      tag_48\n      swap2\n      swap1\n      tag_49\n      jump\t// in\n    tag_48:\n      mload(0x40)\n      dup1\n      swap2\n      sub\n      swap1\n      return\n        /* \"contracts/Ptak.sol\":1039:1998  function updateHungerAndAge(uint256 id) public {... */\n    tag_11:\n      tag_50\n      0x04\n      dup1\n      calldatasize\n      sub\n      dup2\n      add\n      swap1\n      tag_51\n      swap2\n      swap1\n      tag_16\n      jump\t// in\n    tag_51:\n      tag_52\n      jump\t// in\n    tag_50:\n      stop\n        /* \"contracts/Ptak.sol\":350:391  mapping(uint256 => BirdData) public birds */\n    tag_12:\n      tag_53\n      0x04\n      dup1\n      calldatasize\n      sub\n      dup2\n      add\n      swap1\n      tag_54\n      swap2\n      swap1\n      tag_16\n      jump\t// in\n    tag_54:\n      tag_55\n      jump\t// in\n    tag_53:\n      mload(0x40)\n      tag_56\n      swap6\n      swap5\n      swap4\n      swap3\n      swap2\n      swap1\n      tag_57\n      jump\t// in\n    tag_56:\n      mload(0x40)\n      dup1\n      swap2\n      sub\n      swap1\n      return\n        /* \"contracts/Ptak.sol\":460:499  mapping(uint256 => bool) public insured */\n    tag_17:\n      mstore(0x20, 0x03)\n      dup1\n      0x00\n      mstore\n      keccak256(0x00, 0x40)\n      0x00\n      swap2\n      pop\n      sload\n      swap1\n      0x0100\n      exp\n      swap1\n      div\n      0xff\n      and\n      dup2\n      jump\t// out\n        /* \"contracts/Ptak.sol\":2552:2902  function feedBird(uint256 id, uint256 foodAmount) external onlyPark {... */\n    tag_23:\n        /* \"contracts/Ptak.sol\":561:573  parkContract */\n      0x02\n      0x00\n      swap1\n      sload\n      swap1\n      0x0100\n      exp\n      swap1\n      div\n      0xffffffffffffffffffffffffffffffffffffffff\n      and\n        /* \"contracts/Ptak.sol\":547:573  msg.sender == parkContract */\n      0xffffffffffffffffffffffffffffffffffffffff\n      and\n        /* \"contracts/Ptak.sol\":547:557  msg.sender */\n      caller\n        /* \"contracts/Ptak.sol\":547:573  msg.sender == parkContract */\n      0xffffffffffffffffffffffffffffffffffffffff\n      and\n      eq\n        /* \"contracts/Ptak.sol\":539:601  require(msg.sender == parkContract, \"Only Park can call this\") */\n      tag_59\n      jumpi\n      mload(0x40)\n      0x08c379a000000000000000000000000000000000000000000000000000000000\n      dup2\n      mstore\n      0x04\n      add\n      tag_60\n      swap1\n      tag_61\n      jump\t// in\n    tag_60:\n      mload(0x40)\n      dup1\n      swap2\n      sub\n      swap1\n      revert\n    tag_59:\n        /* \"contracts/Ptak.sol\":2631:2653  updateHungerAndAge(id) */\n      tag_63\n        /* \"contracts/Ptak.sol\":2650:2652  id */\n      dup3\n        /* \"contracts/Ptak.sol\":2631:2649  updateHungerAndAge */\n      tag_52\n        /* \"contracts/Ptak.sol\":2631:2653  updateHungerAndAge(id) */\n      jump\t// in\n    tag_63:\n        /* \"contracts/Ptak.sol\":2664:2685  BirdData storage bird */\n      0x00\n        /* \"contracts/Ptak.sol\":2688:2693  birds */\n      0x00\n        /* \"contracts/Ptak.sol\":2688:2697  birds[id] */\n      0x00\n        /* \"contracts/Ptak.sol\":2694:2696  id */\n      dup5\n        /* \"contracts/Ptak.sol\":2688:2697  birds[id] */\n      dup2\n      mstore\n      0x20\n      add\n      swap1\n      dup2\n      mstore\n      0x20\n      add\n      0x00\n      keccak256\n        /* \"contracts/Ptak.sol\":2664:2697  BirdData storage bird = birds[id] */\n      swap1\n      pop\n        /* \"contracts/Ptak.sol\":2708:2727  randomPoisoning(id) */\n      tag_64\n        /* \"contracts/Ptak.sol\":2724:2726  id */\n      dup4\n        /* \"contracts/Ptak.sol\":2708:2723  randomPoisoning */\n      tag_65\n        /* \"contracts/Ptak.sol\":2708:2727  randomPoisoning(id) */\n      jump\t// in\n    tag_64:\n        /* \"contracts/Ptak.sol\":2756:2766  foodAmount */\n      dup2\n        /* \"contracts/Ptak.sol\":2741:2745  bird */\n      dup2\n        /* \"contracts/Ptak.sol\":2741:2752  bird.hunger */\n      0x01\n      add\n      sload\n        /* \"contracts/Ptak.sol\":2741:2766  bird.hunger >= foodAmount */\n      lt\n        /* \"contracts/Ptak.sol\":2738:2895  if(bird.hunger >= foodAmount){... */\n      tag_66\n      jumpi\n        /* \"contracts/Ptak.sol\":2797:2807  foodAmount */\n      dup2\n        /* \"contracts/Ptak.sol\":2782:2786  bird */\n      dup2\n        /* \"contracts/Ptak.sol\":2782:2793  bird.hunger */\n      0x01\n      add\n      0x00\n        /* \"contracts/Ptak.sol\":2782:2807  bird.hunger -= foodAmount */\n      dup3\n      dup3\n      sload\n      tag_67\n      swap2\n      swap1\n      tag_68\n      jump\t// in\n    tag_67:\n      swap3\n      pop\n      pop\n      dup2\n      swap1\n      sstore\n      pop\n        /* \"contracts/Ptak.sol\":2738:2895  if(bird.hunger >= foodAmount){... */\n      jump(tag_69)\n    tag_66:\n        /* \"contracts/Ptak.sol\":2854:2855  0 */\n      0x00\n        /* \"contracts/Ptak.sol\":2840:2844  bird */\n      dup2\n        /* \"contracts/Ptak.sol\":2840:2851  bird.hunger */\n      0x01\n      add\n        /* \"contracts/Ptak.sol\":2840:2855  bird.hunger = 0 */\n      dup2\n      swap1\n      sstore\n      pop\n        /* \"contracts/Ptak.sol\":2738:2895  if(bird.hunger >= foodAmount){... */\n    tag_69:\n        /* \"contracts/Ptak.sol\":2620:2902  {... */\n      pop\n        /* \"contracts/Ptak.sol\":2552:2902  function feedBird(uint256 id, uint256 foodAmount) external onlyPark {... */\n      pop\n      pop\n      jump\t// out\n        /* \"contracts/Ptak.sol\":2910:3062  function insure(uint256 birdId) external {... */\n    tag_26:\n        /* \"contracts/Ptak.sol\":2984:2996  parkContract */\n      0x02\n      0x00\n      swap1\n      sload\n      swap1\n      0x0100\n      exp\n      swap1\n      div\n      0xffffffffffffffffffffffffffffffffffffffff\n      and\n        /* \"contracts/Ptak.sol\":2970:2996  msg.sender == parkContract */\n      0xffffffffffffffffffffffffffffffffffffffff\n      and\n        /* \"contracts/Ptak.sol\":2970:2980  msg.sender */\n      caller\n        /* \"contracts/Ptak.sol\":2970:2996  msg.sender == parkContract */\n      0xffffffffffffffffffffffffffffffffffffffff\n      and\n      eq\n        /* \"contracts/Ptak.sol\":2962:3021  require(msg.sender == parkContract, \"Only Park can insure\") */\n      tag_71\n      jumpi\n      mload(0x40)\n      0x08c379a000000000000000000000000000000000000000000000000000000000\n      dup2\n      mstore\n      0x04\n      add\n      tag_72\n      swap1\n      tag_73\n      jump\t// in\n    tag_72:\n      mload(0x40)\n      dup1\n      swap2\n      sub\n      swap1\n      revert\n    tag_71:\n        /* \"contracts/Ptak.sol\":3050:3054  true */\n      0x01\n        /* \"contracts/Ptak.sol\":3032:3039  insured */\n      0x03\n        /* \"contracts/Ptak.sol\":3032:3047  insured[birdId] */\n      0x00\n        /* \"contracts/Ptak.sol\":3040:3046  birdId */\n      dup4\n        /* \"contracts/Ptak.sol\":3032:3047  insured[birdId] */\n      dup2\n      mstore\n      0x20\n      add\n      swap1\n      dup2\n      mstore\n      0x20\n      add\n      0x00\n      keccak256\n      0x00\n        /* \"contracts/Ptak.sol\":3032:3054  insured[birdId] = true */\n      0x0100\n      exp\n      dup2\n      sload\n      dup2\n      0xff\n      mul\n      not\n      and\n      swap1\n      dup4\n      iszero\n      iszero\n      mul\n      or\n      swap1\n      sstore\n      pop\n        /* \"contracts/Ptak.sol\":2910:3062  function insure(uint256 birdId) external {... */\n      pop\n      jump\t// out\n        /* \"contracts/Ptak.sol\":719:1031  function mintBird(SpeciesLibrary.Species species) external onlyPark returns (int) {... */\n    tag_30:\n        /* \"contracts/Ptak.sol\":796:799  int */\n      0x00\n        /* \"contracts/Ptak.sol\":561:573  parkContract */\n      0x02\n      0x00\n      swap1\n      sload\n      swap1\n      0x0100\n      exp\n      swap1\n      div\n      0xffffffffffffffffffffffffffffffffffffffff\n      and\n        /* \"contracts/Ptak.sol\":547:573  msg.sender == parkContract */\n      0xffffffffffffffffffffffffffffffffffffffff\n      and\n        /* \"contracts/Ptak.sol\":547:557  msg.sender */\n      caller\n        /* \"contracts/Ptak.sol\":547:573  msg.sender == parkContract */\n      0xffffffffffffffffffffffffffffffffffffffff\n      and\n      eq\n        /* \"contracts/Ptak.sol\":539:601  require(msg.sender == parkContract, \"Only Park can call this\") */\n      tag_75\n      jumpi\n      mload(0x40)\n      0x08c379a000000000000000000000000000000000000000000000000000000000\n      dup2\n      mstore\n      0x04\n      add\n      tag_76\n      swap1\n      tag_61\n      jump\t// in\n    tag_76:\n      mload(0x40)\n      dup1\n      swap2\n      sub\n      swap1\n      revert\n    tag_75:\n        /* \"contracts/Ptak.sol\":812:850  SpeciesLibrary.SpeciesInfo memory info */\n      0x00\n        /* \"contracts/Ptak.sol\":853:891  SpeciesLibrary.getSpeciesInfo(species) */\n      tag_78\n        /* \"contracts/Ptak.sol\":883:890  species */\n      dup4\n        /* \"contracts/Ptak.sol\":853:882  SpeciesLibrary.getSpeciesInfo */\n      tag_79\n        /* \"contracts/Ptak.sol\":853:891  SpeciesLibrary.getSpeciesInfo(species) */\n      jump\t// in\n    tag_78:\n        /* \"contracts/Ptak.sol\":812:891  SpeciesLibrary.SpeciesInfo memory info = SpeciesLibrary.getSpeciesInfo(species) */\n      swap1\n      pop\n        /* \"contracts/Ptak.sol\":918:974  BirdData(0, 0, info.maxHealth, species, block.timestamp) */\n      mload(0x40)\n      dup1\n      0xa0\n      add\n      0x40\n      mstore\n      dup1\n        /* \"contracts/Ptak.sol\":927:928  0 */\n      0x00\n        /* \"contracts/Ptak.sol\":918:974  BirdData(0, 0, info.maxHealth, species, block.timestamp) */\n      dup2\n      mstore\n      0x20\n      add\n        /* \"contracts/Ptak.sol\":930:931  0 */\n      0x00\n        /* \"contracts/Ptak.sol\":918:974  BirdData(0, 0, info.maxHealth, species, block.timestamp) */\n      dup2\n      mstore\n      0x20\n      add\n        /* \"contracts/Ptak.sol\":933:937  info */\n      dup3\n        /* \"contracts/Ptak.sol\":933:947  info.maxHealth */\n      0x00\n      add\n      mload\n        /* \"contracts/Ptak.sol\":918:974  BirdData(0, 0, info.maxHealth, species, block.timestamp) */\n      dup2\n      mstore\n      0x20\n      add\n        /* \"contracts/Ptak.sol\":949:956  species */\n      dup5\n        /* \"contracts/Ptak.sol\":918:974  BirdData(0, 0, info.maxHealth, species, block.timestamp) */\n      0x0a\n      dup2\n      gt\n      iszero\n      tag_80\n      jumpi\n      tag_81\n      tag_82\n      jump\t// in\n    tag_81:\n    tag_80:\n      dup2\n      mstore\n      0x20\n      add\n        /* \"contracts/Ptak.sol\":958:973  block.timestamp */\n      timestamp\n        /* \"contracts/Ptak.sol\":918:974  BirdData(0, 0, info.maxHealth, species, block.timestamp) */\n      dup2\n      mstore\n      pop\n        /* \"contracts/Ptak.sol\":902:907  birds */\n      0x00\n        /* \"contracts/Ptak.sol\":902:915  birds[nextId] */\n      0x00\n        /* \"contracts/Ptak.sol\":908:914  nextId */\n      sload(0x01)\n        /* \"contracts/Ptak.sol\":902:915  birds[nextId] */\n      dup2\n      mstore\n      0x20\n      add\n      swap1\n      dup2\n      mstore\n      0x20\n      add\n      0x00\n      keccak256\n        /* \"contracts/Ptak.sol\":902:974  birds[nextId] = BirdData(0, 0, info.maxHealth, species, block.timestamp) */\n      0x00\n      dup3\n      add\n      mload\n      dup2\n      0x00\n      add\n      sstore\n      0x20\n      dup3\n      add\n      mload\n      dup2\n      0x01\n      add\n      sstore\n      0x40\n      dup3\n      add\n      mload\n      dup2\n      0x02\n      add\n      sstore\n      0x60\n      dup3\n      add\n      mload\n      dup2\n      0x03\n      add\n      exp(0x0100, 0x00)\n      dup2\n      sload\n      dup2\n      0xff\n      mul\n      not\n      and\n      swap1\n      dup4\n      0x0a\n      dup2\n      gt\n      iszero\n      tag_83\n      jumpi\n      tag_84\n      tag_82\n      jump\t// in\n    tag_84:\n    tag_83:\n      mul\n      or\n      swap1\n      sstore\n      pop\n      0x80\n      dup3\n      add\n      mload\n      dup2\n      0x04\n      add\n      sstore\n      swap1\n      pop\n      pop\n        /* \"contracts/Ptak.sol\":985:991  nextId */\n      0x01\n      0x00\n        /* \"contracts/Ptak.sol\":985:993  nextId++ */\n      dup2\n      sload\n      dup1\n      swap3\n      swap2\n      swap1\n      tag_85\n      swap1\n      tag_86\n      jump\t// in\n    tag_85:\n      swap2\n      swap1\n      pop\n      sstore\n      pop\n        /* \"contracts/Ptak.sol\":1011:1012  0 */\n      0x00\n        /* \"contracts/Ptak.sol\":1004:1012  return 0 */\n      swap2\n      pop\n      pop\n        /* \"contracts/Ptak.sol\":719:1031  function mintBird(SpeciesLibrary.Species species) external onlyPark returns (int) {... */\n      swap2\n      swap1\n      pop\n      jump\t// out\n        /* \"contracts/Ptak.sol\":3210:3380  function setParkContract(address _parkContract) external {... */\n    tag_36:\n        /* \"contracts/Ptak.sol\":3310:3311  0 */\n      0x00\n        /* \"contracts/Ptak.sol\":3286:3312  parkContract == address(0) */\n      0xffffffffffffffffffffffffffffffffffffffff\n      and\n        /* \"contracts/Ptak.sol\":3286:3298  parkContract */\n      0x02\n      0x00\n      swap1\n      sload\n      swap1\n      0x0100\n      exp\n      swap1\n      div\n      0xffffffffffffffffffffffffffffffffffffffff\n      and\n        /* \"contracts/Ptak.sol\":3286:3312  parkContract == address(0) */\n      0xffffffffffffffffffffffffffffffffffffffff\n      and\n      eq\n        /* \"contracts/Ptak.sol\":3278:3333  require(parkContract == address(0), \"Park already set\") */\n      tag_88\n      jumpi\n      mload(0x40)\n      0x08c379a000000000000000000000000000000000000000000000000000000000\n      dup2\n      mstore\n      0x04\n      add\n      tag_89\n      swap1\n      tag_90\n      jump\t// in\n    tag_89:\n      mload(0x40)\n      dup1\n      swap2\n      sub\n      swap1\n      revert\n    tag_88:\n        /* \"contracts/Ptak.sol\":3359:3372  _parkContract */\n      dup1\n        /* \"contracts/Ptak.sol\":3344:3356  parkContract */\n      0x02\n      0x00\n        /* \"contracts/Ptak.sol\":3344:3372  parkContract = _parkContract */\n      0x0100\n      exp\n      dup2\n      sload\n      dup2\n      0xffffffffffffffffffffffffffffffffffffffff\n      mul\n      not\n      and\n      swap1\n      dup4\n      0xffffffffffffffffffffffffffffffffffffffff\n      and\n      mul\n      or\n      swap1\n      sstore\n      pop\n        /* \"contracts/Ptak.sol\":3210:3380  function setParkContract(address _parkContract) external {... */\n      pop\n      jump\t// out\n        /* \"contracts/Ptak.sol\":398:419  uint256 public nextId */\n    tag_38:\n      sload(0x01)\n      dup2\n      jump\t// out\n        /* \"contracts/Ptak.sol\":3070:3202  function getBird(uint256 id) external returns (BirdData memory) {... */\n    tag_43:\n        /* \"contracts/Ptak.sol\":3117:3132  BirdData memory */\n      tag_91\n      tag_92\n      jump\t// in\n    tag_91:\n        /* \"contracts/Ptak.sol\":3145:3167  updateHungerAndAge(id) */\n      tag_94\n        /* \"contracts/Ptak.sol\":3164:3166  id */\n      dup3\n        /* \"contracts/Ptak.sol\":3145:3163  updateHungerAndAge */\n      tag_52\n        /* \"contracts/Ptak.sol\":3145:3167  updateHungerAndAge(id) */\n      jump\t// in\n    tag_94:\n        /* \"contracts/Ptak.sol\":3185:3190  birds */\n      0x00\n        /* \"contracts/Ptak.sol\":3185:3194  birds[id] */\n      0x00\n        /* \"contracts/Ptak.sol\":3191:3193  id */\n      dup4\n        /* \"contracts/Ptak.sol\":3185:3194  birds[id] */\n      dup2\n      mstore\n      0x20\n      add\n      swap1\n      dup2\n      mstore\n      0x20\n      add\n      0x00\n      keccak256\n        /* \"contracts/Ptak.sol\":3178:3194  return birds[id] */\n      mload(0x40)\n      dup1\n      0xa0\n      add\n      0x40\n      mstore\n      swap1\n      dup2\n      0x00\n      dup3\n      add\n      sload\n      dup2\n      mstore\n      0x20\n      add\n      0x01\n      dup3\n      add\n      sload\n      dup2\n      mstore\n      0x20\n      add\n      0x02\n      dup3\n      add\n      sload\n      dup2\n      mstore\n      0x20\n      add\n      0x03\n      dup3\n      add\n      0x00\n      swap1\n      sload\n      swap1\n      0x0100\n      exp\n      swap1\n      div\n      0xff\n      and\n      0x0a\n      dup2\n      gt\n      iszero\n      tag_95\n      jumpi\n      tag_96\n      tag_82\n      jump\t// in\n    tag_96:\n    tag_95:\n      0x0a\n      dup2\n      gt\n      iszero\n      tag_97\n      jumpi\n      tag_98\n      tag_82\n      jump\t// in\n    tag_98:\n    tag_97:\n      dup2\n      mstore\n      0x20\n      add\n      0x04\n      dup3\n      add\n      sload\n      dup2\n      mstore\n      pop\n      pop\n      swap1\n      pop\n        /* \"contracts/Ptak.sol\":3070:3202  function getBird(uint256 id) external returns (BirdData memory) {... */\n      swap2\n      swap1\n      pop\n      jump\t// out\n        /* \"contracts/Ptak.sol\":426:453  address public parkContract */\n    tag_47:\n      0x02\n      0x00\n      swap1\n      sload\n      swap1\n      0x0100\n      exp\n      swap1\n      div\n      0xffffffffffffffffffffffffffffffffffffffff\n      and\n      dup2\n      jump\t// out\n        /* \"contracts/Ptak.sol\":1039:1998  function updateHungerAndAge(uint256 id) public {... */\n    tag_52:\n        /* \"contracts/Ptak.sol\":1097:1118  BirdData storage bird */\n      0x00\n        /* \"contracts/Ptak.sol\":1121:1126  birds */\n      0x00\n        /* \"contracts/Ptak.sol\":1121:1130  birds[id] */\n      0x00\n        /* \"contracts/Ptak.sol\":1127:1129  id */\n      dup4\n        /* \"contracts/Ptak.sol\":1121:1130  birds[id] */\n      dup2\n      mstore\n      0x20\n      add\n      swap1\n      dup2\n      mstore\n      0x20\n      add\n      0x00\n      keccak256\n        /* \"contracts/Ptak.sol\":1097:1130  BirdData storage bird = birds[id] */\n      swap1\n      pop\n        /* \"contracts/Ptak.sol\":1141:1160  uint256 timeElapsed */\n      0x00\n        /* \"contracts/Ptak.sol\":1181:1185  bird */\n      dup2\n        /* \"contracts/Ptak.sol\":1181:1200  bird.lastUpdateTime */\n      0x04\n      add\n      sload\n        /* \"contracts/Ptak.sol\":1163:1178  block.timestamp */\n      timestamp\n        /* \"contracts/Ptak.sol\":1163:1200  block.timestamp - bird.lastUpdateTime */\n      tag_100\n      swap2\n      swap1\n      tag_68\n      jump\t// in\n    tag_100:\n        /* \"contracts/Ptak.sol\":1141:1200  uint256 timeElapsed = block.timestamp - bird.lastUpdateTime */\n      swap1\n      pop\n        /* \"contracts/Ptak.sol\":1243:1244  0 */\n      0x00\n        /* \"contracts/Ptak.sol\":1229:1240  timeElapsed */\n      dup2\n        /* \"contracts/Ptak.sol\":1229:1244  timeElapsed > 0 */\n      gt\n        /* \"contracts/Ptak.sol\":1226:1991  if(timeElapsed > 0) {... */\n      iszero\n      tag_101\n      jumpi\n        /* \"contracts/Ptak.sol\":1344:1366  uint256 hungerIncrease */\n      0x00\n        /* \"contracts/Ptak.sol\":1447:1451  3600 */\n      0x0e10\n        /* \"contracts/Ptak.sol\":1384:1427  SpeciesLibrary.getSpeciesInfo(bird.species) */\n      tag_102\n        /* \"contracts/Ptak.sol\":1414:1418  bird */\n      dup5\n        /* \"contracts/Ptak.sol\":1414:1426  bird.species */\n      0x03\n      add\n      0x00\n      swap1\n      sload\n      swap1\n      0x0100\n      exp\n      swap1\n      div\n      0xff\n      and\n        /* \"contracts/Ptak.sol\":1384:1413  SpeciesLibrary.getSpeciesInfo */\n      tag_79\n        /* \"contracts/Ptak.sol\":1384:1427  SpeciesLibrary.getSpeciesInfo(bird.species) */\n      jump\t// in\n    tag_102:\n        /* \"contracts/Ptak.sol\":1384:1443  SpeciesLibrary.getSpeciesInfo(bird.species).hungerDecayRate */\n      0x40\n      add\n      mload\n        /* \"contracts/Ptak.sol\":1370:1381  timeElapsed */\n      dup4\n        /* \"contracts/Ptak.sol\":1370:1443  timeElapsed * SpeciesLibrary.getSpeciesInfo(bird.species).hungerDecayRate */\n      tag_103\n      swap2\n      swap1\n      tag_104\n      jump\t// in\n    tag_103:\n        /* \"contracts/Ptak.sol\":1369:1451  (timeElapsed * SpeciesLibrary.getSpeciesInfo(bird.species).hungerDecayRate) / 3600 */\n      tag_105\n      swap2\n      swap1\n      tag_106\n      jump\t// in\n    tag_105:\n        /* \"contracts/Ptak.sol\":1344:1451  uint256 hungerIncrease = (timeElapsed * SpeciesLibrary.getSpeciesInfo(bird.species).hungerDecayRate) / 3600 */\n      swap1\n      pop\n        /* \"contracts/Ptak.sol\":1481:1495  hungerIncrease */\n      dup1\n        /* \"contracts/Ptak.sol\":1466:1470  bird */\n      dup4\n        /* \"contracts/Ptak.sol\":1466:1477  bird.hunger */\n      0x01\n      add\n      0x00\n        /* \"contracts/Ptak.sol\":1466:1495  bird.hunger += hungerIncrease */\n      dup3\n      dup3\n      sload\n      tag_107\n      swap2\n      swap1\n      tag_108\n      jump\t// in\n    tag_107:\n      swap3\n      pop\n      pop\n      dup2\n      swap1\n      sstore\n      pop\n        /* \"contracts/Ptak.sol\":1512:1529  uint256 maxHunger */\n      0x00\n        /* \"contracts/Ptak.sol\":1532:1575  SpeciesLibrary.getSpeciesInfo(bird.species) */\n      tag_109\n        /* \"contracts/Ptak.sol\":1562:1566  bird */\n      dup5\n        /* \"contracts/Ptak.sol\":1562:1574  bird.species */\n      0x03\n      add\n      0x00\n      swap1\n      sload\n      swap1\n      0x0100\n      exp\n      swap1\n      div\n      0xff\n      and\n        /* \"contracts/Ptak.sol\":1532:1561  SpeciesLibrary.getSpeciesInfo */\n      tag_79\n        /* \"contracts/Ptak.sol\":1532:1575  SpeciesLibrary.getSpeciesInfo(bird.species) */\n      jump\t// in\n    tag_109:\n        /* \"contracts/Ptak.sol\":1532:1585  SpeciesLibrary.getSpeciesInfo(bird.species).maxHunger */\n      0x20\n      add\n      mload\n        /* \"contracts/Ptak.sol\":1512:1585  uint256 maxHunger = SpeciesLibrary.getSpeciesInfo(bird.species).maxHunger */\n      swap1\n      pop\n        /* \"contracts/Ptak.sol\":1617:1626  maxHunger */\n      dup1\n        /* \"contracts/Ptak.sol\":1603:1607  bird */\n      dup5\n        /* \"contracts/Ptak.sol\":1603:1614  bird.hunger */\n      0x01\n      add\n      sload\n        /* \"contracts/Ptak.sol\":1603:1626  bird.hunger > maxHunger */\n      gt\n        /* \"contracts/Ptak.sol\":1600:1686  if(bird.hunger > maxHunger) {... */\n      iszero\n      tag_110\n      jumpi\n        /* \"contracts/Ptak.sol\":1661:1670  maxHunger */\n      dup1\n        /* \"contracts/Ptak.sol\":1647:1651  bird */\n      dup5\n        /* \"contracts/Ptak.sol\":1647:1658  bird.hunger */\n      0x01\n      add\n        /* \"contracts/Ptak.sol\":1647:1670  bird.hunger = maxHunger */\n      dup2\n      swap1\n      sstore\n      pop\n        /* \"contracts/Ptak.sol\":1600:1686  if(bird.hunger > maxHunger) {... */\n    tag_110:\n        /* \"contracts/Ptak.sol\":1757:1775  uint256 daysPassed */\n      0x00\n        /* \"contracts/Ptak.sol\":1792:1797  86400 */\n      0x015180\n        /* \"contracts/Ptak.sol\":1778:1789  timeElapsed */\n      dup5\n        /* \"contracts/Ptak.sol\":1778:1797  timeElapsed / 86400 */\n      tag_111\n      swap2\n      swap1\n      tag_106\n      jump\t// in\n    tag_111:\n        /* \"contracts/Ptak.sol\":1757:1797  uint256 daysPassed = timeElapsed / 86400 */\n      swap1\n      pop\n        /* \"contracts/Ptak.sol\":1828:1829  0 */\n      0x00\n        /* \"contracts/Ptak.sol\":1815:1825  daysPassed */\n      dup2\n        /* \"contracts/Ptak.sol\":1815:1829  daysPassed > 0 */\n      gt\n        /* \"contracts/Ptak.sol\":1812:1888  if(daysPassed > 0) {... */\n      iszero\n      tag_112\n      jumpi\n        /* \"contracts/Ptak.sol\":1862:1872  daysPassed */\n      dup1\n        /* \"contracts/Ptak.sol\":1850:1854  bird */\n      dup6\n        /* \"contracts/Ptak.sol\":1850:1858  bird.age */\n      0x00\n      add\n      0x00\n        /* \"contracts/Ptak.sol\":1850:1872  bird.age += daysPassed */\n      dup3\n      dup3\n      sload\n      tag_113\n      swap2\n      swap1\n      tag_108\n      jump\t// in\n    tag_113:\n      swap3\n      pop\n      pop\n      dup2\n      swap1\n      sstore\n      pop\n        /* \"contracts/Ptak.sol\":1812:1888  if(daysPassed > 0) {... */\n    tag_112:\n        /* \"contracts/Ptak.sol\":1926:1941  block.timestamp */\n      timestamp\n        /* \"contracts/Ptak.sol\":1904:1908  bird */\n      dup6\n        /* \"contracts/Ptak.sol\":1904:1923  bird.lastUpdateTime */\n      0x04\n      add\n        /* \"contracts/Ptak.sol\":1904:1941  bird.lastUpdateTime = block.timestamp */\n      dup2\n      swap1\n      sstore\n      pop\n        /* \"contracts/Ptak.sol\":1246:1991  {... */\n      pop\n      pop\n      pop\n        /* \"contracts/Ptak.sol\":1226:1991  if(timeElapsed > 0) {... */\n    tag_101:\n        /* \"contracts/Ptak.sol\":1086:1998  {... */\n      pop\n      pop\n        /* \"contracts/Ptak.sol\":1039:1998  function updateHungerAndAge(uint256 id) public {... */\n      pop\n      jump\t// out\n        /* \"contracts/Ptak.sol\":350:391  mapping(uint256 => BirdData) public birds */\n    tag_55:\n      mstore(0x20, 0x00)\n      dup1\n      0x00\n      mstore\n      keccak256(0x00, 0x40)\n      0x00\n      swap2\n      pop\n      swap1\n      pop\n      dup1\n      0x00\n      add\n      sload\n      swap1\n      dup1\n      0x01\n      add\n      sload\n      swap1\n      dup1\n      0x02\n      add\n      sload\n      swap1\n      dup1\n      0x03\n      add\n      0x00\n      swap1\n      sload\n      swap1\n      0x0100\n      exp\n      swap1\n      div\n      0xff\n      and\n      swap1\n      dup1\n      0x04\n      add\n      sload\n      swap1\n      pop\n      dup6\n      jump\t// out\n        /* \"contracts/Ptak.sol\":2006:2544  function randomPoisoning(uint256 birdId) private {... */\n    tag_65:\n        /* \"contracts/Ptak.sol\":2066:2104  SpeciesLibrary.SpeciesInfo memory info */\n      tag_115\n      tag_116\n      jump\t// in\n    tag_115:\n        /* \"contracts/Ptak.sol\":2115:2141  Ptak.BirdData storage bird */\n      0x00\n        /* \"contracts/Ptak.sol\":2144:2149  birds */\n      0x00\n        /* \"contracts/Ptak.sol\":2144:2157  birds[birdId] */\n      0x00\n        /* \"contracts/Ptak.sol\":2150:2156  birdId */\n      dup5\n        /* \"contracts/Ptak.sol\":2144:2157  birds[birdId] */\n      dup2\n      mstore\n      0x20\n      add\n      swap1\n      dup2\n      mstore\n      0x20\n      add\n      0x00\n      keccak256\n        /* \"contracts/Ptak.sol\":2115:2157  Ptak.BirdData storage bird = birds[birdId] */\n      swap1\n      pop\n        /* \"contracts/Ptak.sol\":2175:2218  SpeciesLibrary.getSpeciesInfo(bird.species) */\n      tag_117\n        /* \"contracts/Ptak.sol\":2205:2209  bird */\n      dup2\n        /* \"contracts/Ptak.sol\":2205:2217  bird.species */\n      0x03\n      add\n      0x00\n      swap1\n      sload\n      swap1\n      0x0100\n      exp\n      swap1\n      div\n      0xff\n      and\n        /* \"contracts/Ptak.sol\":2175:2204  SpeciesLibrary.getSpeciesInfo */\n      tag_79\n        /* \"contracts/Ptak.sol\":2175:2218  SpeciesLibrary.getSpeciesInfo(bird.species) */\n      jump\t// in\n    tag_117:\n        /* \"contracts/Ptak.sol\":2168:2218  info = SpeciesLibrary.getSpeciesInfo(bird.species) */\n      swap2\n      pop\n        /* \"contracts/Ptak.sol\":2235:2242  insured */\n      0x03\n        /* \"contracts/Ptak.sol\":2235:2250  insured[birdId] */\n      0x00\n        /* \"contracts/Ptak.sol\":2243:2249  birdId */\n      dup5\n        /* \"contracts/Ptak.sol\":2235:2250  insured[birdId] */\n      dup2\n      mstore\n      0x20\n      add\n      swap1\n      dup2\n      mstore\n      0x20\n      add\n      0x00\n      keccak256\n      0x00\n      swap1\n      sload\n      swap1\n      0x0100\n      exp\n      swap1\n      div\n      0xff\n      and\n        /* \"contracts/Ptak.sol\":2231:2537  if(!insured[birdId]){... */\n      tag_118\n      jumpi\n        /* \"contracts/Ptak.sol\":2266:2280  uint256 chance */\n      0x00\n        /* \"contracts/Ptak.sol\":2283:2326  SpeciesLibrary.getSpeciesInfo(bird.species) */\n      tag_119\n        /* \"contracts/Ptak.sol\":2313:2317  bird */\n      dup3\n        /* \"contracts/Ptak.sol\":2313:2325  bird.species */\n      0x03\n      add\n      0x00\n      swap1\n      sload\n      swap1\n      0x0100\n      exp\n      swap1\n      div\n      0xff\n      and\n        /* \"contracts/Ptak.sol\":2283:2312  SpeciesLibrary.getSpeciesInfo */\n      tag_79\n        /* \"contracts/Ptak.sol\":2283:2326  SpeciesLibrary.getSpeciesInfo(bird.species) */\n      jump\t// in\n    tag_119:\n        /* \"contracts/Ptak.sol\":2283:2342  SpeciesLibrary.getSpeciesInfo(bird.species).poisoningChance */\n      0x60\n      add\n      mload\n        /* \"contracts/Ptak.sol\":2266:2342  uint256 chance = SpeciesLibrary.getSpeciesInfo(bird.species).poisoningChance */\n      swap1\n      pop\n        /* \"contracts/Ptak.sol\":2357:2369  uint256 rand */\n      0x00\n        /* \"contracts/Ptak.sol\":2436:2439  100 */\n      0x64\n        /* \"contracts/Ptak.sol\":2407:2422  block.timestamp */\n      timestamp\n        /* \"contracts/Ptak.sol\":2424:2430  birdId */\n      dup7\n        /* \"contracts/Ptak.sol\":2390:2431  abi.encodePacked(block.timestamp, birdId) */\n      add(0x20, mload(0x40))\n      tag_120\n      swap3\n      swap2\n      swap1\n      tag_121\n      jump\t// in\n    tag_120:\n      mload(0x40)\n      0x20\n      dup2\n      dup4\n      sub\n      sub\n      dup2\n      mstore\n      swap1\n      0x40\n      mstore\n        /* \"contracts/Ptak.sol\":2380:2432  keccak256(abi.encodePacked(block.timestamp, birdId)) */\n      dup1\n      mload\n      swap1\n      0x20\n      add\n      keccak256\n        /* \"contracts/Ptak.sol\":2372:2433  uint256(keccak256(abi.encodePacked(block.timestamp, birdId))) */\n      0x00\n      shr\n        /* \"contracts/Ptak.sol\":2372:2439  uint256(keccak256(abi.encodePacked(block.timestamp, birdId))) % 100 */\n      tag_122\n      swap2\n      swap1\n      tag_123\n      jump\t// in\n    tag_122:\n        /* \"contracts/Ptak.sol\":2357:2439  uint256 rand = uint256(keccak256(abi.encodePacked(block.timestamp, birdId))) % 100 */\n      swap1\n      pop\n        /* \"contracts/Ptak.sol\":2466:2472  chance */\n      dup2\n        /* \"contracts/Ptak.sol\":2459:2463  rand */\n      dup2\n        /* \"contracts/Ptak.sol\":2459:2472  rand < chance */\n      lt\n        /* \"contracts/Ptak.sol\":2456:2526  if(rand < chance) {... */\n      iszero\n      tag_124\n      jumpi\n        /* \"contracts/Ptak.sol\":2508:2510  25 */\n      0x19\n        /* \"contracts/Ptak.sol\":2493:2497  bird */\n      dup4\n        /* \"contracts/Ptak.sol\":2493:2504  bird.health */\n      0x02\n      add\n      0x00\n        /* \"contracts/Ptak.sol\":2493:2510  bird.health -= 25 */\n      dup3\n      dup3\n      sload\n      tag_125\n      swap2\n      swap1\n      tag_68\n      jump\t// in\n    tag_125:\n      swap3\n      pop\n      pop\n      dup2\n      swap1\n      sstore\n      pop\n        /* \"contracts/Ptak.sol\":2456:2526  if(rand < chance) {... */\n    tag_124:\n        /* \"contracts/Ptak.sol\":2251:2537  {... */\n      pop\n      pop\n        /* \"contracts/Ptak.sol\":2231:2537  if(!insured[birdId]){... */\n    tag_118:\n        /* \"contracts/Ptak.sol\":2055:2544  {... */\n      pop\n      pop\n        /* \"contracts/Ptak.sol\":2006:2544  function randomPoisoning(uint256 birdId) private {... */\n      pop\n      jump\t// out\n        /* \"contracts/SpeciesLibrary.sol\":779:2340  function getSpeciesInfo(Species species) internal pure returns (SpeciesInfo memory) {... */\n    tag_79:\n        /* \"contracts/SpeciesLibrary.sol\":843:861  SpeciesInfo memory */\n      tag_126\n      tag_116\n      jump\t// in\n    tag_126:\n        /* \"contracts/SpeciesLibrary.sol\":889:905  Species.MuteSwan */\n      0x00\n        /* \"contracts/SpeciesLibrary.sol\":878:905  species == Species.MuteSwan */\n      0x0a\n      dup2\n      gt\n      iszero\n      tag_128\n      jumpi\n      tag_129\n      tag_82\n      jump\t// in\n    tag_129:\n    tag_128:\n        /* \"contracts/SpeciesLibrary.sol\":878:885  species */\n      dup3\n        /* \"contracts/SpeciesLibrary.sol\":878:905  species == Species.MuteSwan */\n      0x0a\n      dup2\n      gt\n      iszero\n      tag_130\n      jumpi\n      tag_131\n      tag_82\n      jump\t// in\n    tag_131:\n    tag_130:\n      sub\n        /* \"contracts/SpeciesLibrary.sol\":874:2297  if (species == Species.MuteSwan) {... */\n      tag_132\n      jumpi\n        /* \"contracts/SpeciesLibrary.sol\":929:1053  SpeciesInfo(200, 150, 3, 1, \"https://gateway.pinata.cloud/ipfs/bafybeia3le4astknh2p4mbkd5w42j522tnse4wxk7w5m7wimoqdp6ouzpy\") */\n      mload(0x40)\n      dup1\n      0xa0\n      add\n      0x40\n      mstore\n      dup1\n        /* \"contracts/SpeciesLibrary.sol\":941:944  200 */\n      0xc8\n        /* \"contracts/SpeciesLibrary.sol\":929:1053  SpeciesInfo(200, 150, 3, 1, \"https://gateway.pinata.cloud/ipfs/bafybeia3le4astknh2p4mbkd5w42j522tnse4wxk7w5m7wimoqdp6ouzpy\") */\n      dup2\n      mstore\n      0x20\n      add\n        /* \"contracts/SpeciesLibrary.sol\":946:949  150 */\n      0x96\n        /* \"contracts/SpeciesLibrary.sol\":929:1053  SpeciesInfo(200, 150, 3, 1, \"https://gateway.pinata.cloud/ipfs/bafybeia3le4astknh2p4mbkd5w42j522tnse4wxk7w5m7wimoqdp6ouzpy\") */\n      dup2\n      mstore\n      0x20\n      add\n        /* \"contracts/SpeciesLibrary.sol\":951:952  3 */\n      0x03\n        /* \"contracts/SpeciesLibrary.sol\":929:1053  SpeciesInfo(200, 150, 3, 1, \"https://gateway.pinata.cloud/ipfs/bafybeia3le4astknh2p4mbkd5w42j522tnse4wxk7w5m7wimoqdp6ouzpy\") */\n      dup2\n      mstore\n      0x20\n      add\n        /* \"contracts/SpeciesLibrary.sol\":954:955  1 */\n      0x01\n        /* \"contracts/SpeciesLibrary.sol\":929:1053  SpeciesInfo(200, 150, 3, 1, \"https://gateway.pinata.cloud/ipfs/bafybeia3le4astknh2p4mbkd5w42j522tnse4wxk7w5m7wimoqdp6ouzpy\") */\n      dup2\n      mstore\n      0x20\n      add\n      mload(0x40)\n      dup1\n      0x80\n      add\n      0x40\n      mstore\n      dup1\n      0x5d\n      dup2\n      mstore\n      0x20\n      add\n      data_1ffc5c99f8ff866cb3cb9bd46d45453badb8f26649052a31a9be49b9b43149da\n      0x5d\n      swap2\n      codecopy\n      dup2\n      mstore\n      pop\n        /* \"contracts/SpeciesLibrary.sol\":922:1053  return SpeciesInfo(200, 150, 3, 1, \"https://gateway.pinata.cloud/ipfs/bafybeia3le4astknh2p4mbkd5w42j522tnse4wxk7w5m7wimoqdp6ouzpy\") */\n      swap1\n      pop\n      jump(tag_127)\n        /* \"contracts/SpeciesLibrary.sol\":874:2297  if (species == Species.MuteSwan) {... */\n    tag_132:\n        /* \"contracts/SpeciesLibrary.sol\":1086:1104  Species.WhiteStork */\n      0x01\n        /* \"contracts/SpeciesLibrary.sol\":1075:1104  species == Species.WhiteStork */\n      0x0a\n      dup2\n      gt\n      iszero\n      tag_134\n      jumpi\n      tag_135\n      tag_82\n      jump\t// in\n    tag_135:\n    tag_134:\n        /* \"contracts/SpeciesLibrary.sol\":1075:1082  species */\n      dup3\n        /* \"contracts/SpeciesLibrary.sol\":1075:1104  species == Species.WhiteStork */\n      0x0a\n      dup2\n      gt\n      iszero\n      tag_136\n      jumpi\n      tag_137\n      tag_82\n      jump\t// in\n    tag_137:\n    tag_136:\n      sub\n        /* \"contracts/SpeciesLibrary.sol\":1071:2297  if (species == Species.WhiteStork) {... */\n      tag_138\n      jumpi\n        /* \"contracts/SpeciesLibrary.sol\":1128:1252  SpeciesInfo(220, 200, 2, 5, \"https://gateway.pinata.cloud/ipfs/bafybeigohotok6k3onvtjyypfnbnzbcso2qcixbwz4wh64vp2n3lq7nksa\") */\n      mload(0x40)\n      dup1\n      0xa0\n      add\n      0x40\n      mstore\n      dup1\n        /* \"contracts/SpeciesLibrary.sol\":1140:1143  220 */\n      0xdc\n        /* \"contracts/SpeciesLibrary.sol\":1128:1252  SpeciesInfo(220, 200, 2, 5, \"https://gateway.pinata.cloud/ipfs/bafybeigohotok6k3onvtjyypfnbnzbcso2qcixbwz4wh64vp2n3lq7nksa\") */\n      dup2\n      mstore\n      0x20\n      add\n        /* \"contracts/SpeciesLibrary.sol\":1145:1148  200 */\n      0xc8\n        /* \"contracts/SpeciesLibrary.sol\":1128:1252  SpeciesInfo(220, 200, 2, 5, \"https://gateway.pinata.cloud/ipfs/bafybeigohotok6k3onvtjyypfnbnzbcso2qcixbwz4wh64vp2n3lq7nksa\") */\n      dup2\n      mstore\n      0x20\n      add\n        /* \"contracts/SpeciesLibrary.sol\":1150:1151  2 */\n      0x02\n        /* \"contracts/SpeciesLibrary.sol\":1128:1252  SpeciesInfo(220, 200, 2, 5, \"https://gateway.pinata.cloud/ipfs/bafybeigohotok6k3onvtjyypfnbnzbcso2qcixbwz4wh64vp2n3lq7nksa\") */\n      dup2\n      mstore\n      0x20\n      add\n        /* \"contracts/SpeciesLibrary.sol\":1153:1154  5 */\n      0x05\n        /* \"contracts/SpeciesLibrary.sol\":1128:1252  SpeciesInfo(220, 200, 2, 5, \"https://gateway.pinata.cloud/ipfs/bafybeigohotok6k3onvtjyypfnbnzbcso2qcixbwz4wh64vp2n3lq7nksa\") */\n      dup2\n      mstore\n      0x20\n      add\n      mload(0x40)\n      dup1\n      0x80\n      add\n      0x40\n      mstore\n      dup1\n      0x5d\n      dup2\n      mstore\n      0x20\n      add\n      data_86e92b1a76e2f297d69c89af4232d1b3e647fd322843457f38b762c99d8ee708\n      0x5d\n      swap2\n      codecopy\n      dup2\n      mstore\n      pop\n        /* \"contracts/SpeciesLibrary.sol\":1121:1252  return SpeciesInfo(220, 200, 2, 5, \"https://gateway.pinata.cloud/ipfs/bafybeigohotok6k3onvtjyypfnbnzbcso2qcixbwz4wh64vp2n3lq7nksa\") */\n      swap1\n      pop\n      jump(tag_127)\n        /* \"contracts/SpeciesLibrary.sol\":1071:2297  if (species == Species.WhiteStork) {... */\n    tag_138:\n        /* \"contracts/SpeciesLibrary.sol\":1285:1304  Species.MallardDuck */\n      0x02\n        /* \"contracts/SpeciesLibrary.sol\":1274:1304  species == Species.MallardDuck */\n      0x0a\n      dup2\n      gt\n      iszero\n      tag_140\n      jumpi\n      tag_141\n      tag_82\n      jump\t// in\n    tag_141:\n    tag_140:\n        /* \"contracts/SpeciesLibrary.sol\":1274:1281  species */\n      dup3\n        /* \"contracts/SpeciesLibrary.sol\":1274:1304  species == Species.MallardDuck */\n      0x0a\n      dup2\n      gt\n      iszero\n      tag_142\n      jumpi\n      tag_143\n      tag_82\n      jump\t// in\n    tag_143:\n    tag_142:\n      sub\n        /* \"contracts/SpeciesLibrary.sol\":1270:2297  if (species == Species.MallardDuck) {... */\n      tag_144\n      jumpi\n        /* \"contracts/SpeciesLibrary.sol\":1328:1450  SpeciesInfo(80, 80, 3, 6, \"https://gateway.pinata.cloud/ipfs/bafybeiev7pucz7yh7x6haidmphp5ieobvcfdclnlwjqa2ivs4y357pvwma\") */\n      mload(0x40)\n      dup1\n      0xa0\n      add\n      0x40\n      mstore\n      dup1\n        /* \"contracts/SpeciesLibrary.sol\":1340:1342  80 */\n      0x50\n        /* \"contracts/SpeciesLibrary.sol\":1328:1450  SpeciesInfo(80, 80, 3, 6, \"https://gateway.pinata.cloud/ipfs/bafybeiev7pucz7yh7x6haidmphp5ieobvcfdclnlwjqa2ivs4y357pvwma\") */\n      dup2\n      mstore\n      0x20\n      add\n        /* \"contracts/SpeciesLibrary.sol\":1344:1346  80 */\n      0x50\n        /* \"contracts/SpeciesLibrary.sol\":1328:1450  SpeciesInfo(80, 80, 3, 6, \"https://gateway.pinata.cloud/ipfs/bafybeiev7pucz7yh7x6haidmphp5ieobvcfdclnlwjqa2ivs4y357pvwma\") */\n      dup2\n      mstore\n      0x20\n      add\n        /* \"contracts/SpeciesLibrary.sol\":1348:1349  3 */\n      0x03\n        /* \"contracts/SpeciesLibrary.sol\":1328:1450  SpeciesInfo(80, 80, 3, 6, \"https://gateway.pinata.cloud/ipfs/bafybeiev7pucz7yh7x6haidmphp5ieobvcfdclnlwjqa2ivs4y357pvwma\") */\n      dup2\n      mstore\n      0x20\n      add\n        /* \"contracts/SpeciesLibrary.sol\":1351:1352  6 */\n      0x06\n        /* \"contracts/SpeciesLibrary.sol\":1328:1450  SpeciesInfo(80, 80, 3, 6, \"https://gateway.pinata.cloud/ipfs/bafybeiev7pucz7yh7x6haidmphp5ieobvcfdclnlwjqa2ivs4y357pvwma\") */\n      dup2\n      mstore\n      0x20\n      add\n      mload(0x40)\n      dup1\n      0x80\n      add\n      0x40\n      mstore\n      dup1\n      0x5d\n      dup2\n      mstore\n      0x20\n      add\n      data_3bbf1c81af77207dbf9db8f891697113273de930322fc10149aebcb2d416dad6\n      0x5d\n      swap2\n      codecopy\n      dup2\n      mstore\n      pop\n        /* \"contracts/SpeciesLibrary.sol\":1321:1450  return SpeciesInfo(80, 80, 3, 6, \"https://gateway.pinata.cloud/ipfs/bafybeiev7pucz7yh7x6haidmphp5ieobvcfdclnlwjqa2ivs4y357pvwma\") */\n      swap1\n      pop\n      jump(tag_127)\n        /* \"contracts/SpeciesLibrary.sol\":1270:2297  if (species == Species.MallardDuck) {... */\n    tag_144:\n        /* \"contracts/SpeciesLibrary.sol\":1483:1499  Species.Mythical */\n      0x0a\n        /* \"contracts/SpeciesLibrary.sol\":1472:1499  species == Species.Mythical */\n      dup1\n      dup2\n      gt\n      iszero\n      tag_146\n      jumpi\n      tag_147\n      tag_82\n      jump\t// in\n    tag_147:\n    tag_146:\n        /* \"contracts/SpeciesLibrary.sol\":1472:1479  species */\n      dup3\n        /* \"contracts/SpeciesLibrary.sol\":1472:1499  species == Species.Mythical */\n      0x0a\n      dup2\n      gt\n      iszero\n      tag_148\n      jumpi\n      tag_149\n      tag_82\n      jump\t// in\n    tag_149:\n    tag_148:\n      sub\n        /* \"contracts/SpeciesLibrary.sol\":1468:2297  if (species == Species.Mythical) {... */\n      tag_150\n      jumpi\n        /* \"contracts/SpeciesLibrary.sol\":1523:1554  SpeciesInfo(300, 300, 1, 0, \"\") */\n      mload(0x40)\n      dup1\n      0xa0\n      add\n      0x40\n      mstore\n      dup1\n        /* \"contracts/SpeciesLibrary.sol\":1535:1538  300 */\n      0x012c\n        /* \"contracts/SpeciesLibrary.sol\":1523:1554  SpeciesInfo(300, 300, 1, 0, \"\") */\n      dup2\n      mstore\n      0x20\n      add\n        /* \"contracts/SpeciesLibrary.sol\":1540:1543  300 */\n      0x012c\n        /* \"contracts/SpeciesLibrary.sol\":1523:1554  SpeciesInfo(300, 300, 1, 0, \"\") */\n      dup2\n      mstore\n      0x20\n      add\n        /* \"contracts/SpeciesLibrary.sol\":1545:1546  1 */\n      0x01\n        /* \"contracts/SpeciesLibrary.sol\":1523:1554  SpeciesInfo(300, 300, 1, 0, \"\") */\n      dup2\n      mstore\n      0x20\n      add\n        /* \"contracts/SpeciesLibrary.sol\":1548:1549  0 */\n      0x00\n        /* \"contracts/SpeciesLibrary.sol\":1523:1554  SpeciesInfo(300, 300, 1, 0, \"\") */\n      dup2\n      mstore\n      0x20\n      add\n      mload(0x40)\n      dup1\n      0x20\n      add\n      0x40\n      mstore\n      dup1\n      0x00\n      dup2\n      mstore\n      pop\n      dup2\n      mstore\n      pop\n        /* \"contracts/SpeciesLibrary.sol\":1516:1554  return SpeciesInfo(300, 300, 1, 0, \"\") */\n      swap1\n      pop\n      jump(tag_127)\n        /* \"contracts/SpeciesLibrary.sol\":1468:2297  if (species == Species.Mythical) {... */\n    tag_150:\n        /* \"contracts/SpeciesLibrary.sol\":1587:1604  Species.GreyHeron */\n      0x03\n        /* \"contracts/SpeciesLibrary.sol\":1576:1604  species == Species.GreyHeron */\n      0x0a\n      dup2\n      gt\n      iszero\n      tag_152\n      jumpi\n      tag_153\n      tag_82\n      jump\t// in\n    tag_153:\n    tag_152:\n        /* \"contracts/SpeciesLibrary.sol\":1576:1583  species */\n      dup3\n        /* \"contracts/SpeciesLibrary.sol\":1576:1604  species == Species.GreyHeron */\n      0x0a\n      dup2\n      gt\n      iszero\n      tag_154\n      jumpi\n      tag_155\n      tag_82\n      jump\t// in\n    tag_155:\n    tag_154:\n      sub\n        /* \"contracts/SpeciesLibrary.sol\":1572:2297  if (species == Species.GreyHeron) {... */\n      tag_156\n      jumpi\n        /* \"contracts/SpeciesLibrary.sol\":1628:1658  SpeciesInfo(180, 90, 2, 4, \"\") */\n      mload(0x40)\n      dup1\n      0xa0\n      add\n      0x40\n      mstore\n      dup1\n        /* \"contracts/SpeciesLibrary.sol\":1640:1643  180 */\n      0xb4\n        /* \"contracts/SpeciesLibrary.sol\":1628:1658  SpeciesInfo(180, 90, 2, 4, \"\") */\n      dup2\n      mstore\n      0x20\n      add\n        /* \"contracts/SpeciesLibrary.sol\":1645:1647  90 */\n      0x5a\n        /* \"contracts/SpeciesLibrary.sol\":1628:1658  SpeciesInfo(180, 90, 2, 4, \"\") */\n      dup2\n      mstore\n      0x20\n      add\n        /* \"contracts/SpeciesLibrary.sol\":1649:1650  2 */\n      0x02\n        /* \"contracts/SpeciesLibrary.sol\":1628:1658  SpeciesInfo(180, 90, 2, 4, \"\") */\n      dup2\n      mstore\n      0x20\n      add\n        /* \"contracts/SpeciesLibrary.sol\":1652:1653  4 */\n      0x04\n        /* \"contracts/SpeciesLibrary.sol\":1628:1658  SpeciesInfo(180, 90, 2, 4, \"\") */\n      dup2\n      mstore\n      0x20\n      add\n      mload(0x40)\n      dup1\n      0x20\n      add\n      0x40\n      mstore\n      dup1\n      0x00\n      dup2\n      mstore\n      pop\n      dup2\n      mstore\n      pop\n        /* \"contracts/SpeciesLibrary.sol\":1621:1658  return SpeciesInfo(180, 90, 2, 4, \"\") */\n      swap1\n      pop\n      jump(tag_127)\n        /* \"contracts/SpeciesLibrary.sol\":1572:2297  if (species == Species.GreyHeron) {... */\n    tag_156:\n        /* \"contracts/SpeciesLibrary.sol\":1691:1713  Species.RedNeckedGrebe */\n      0x04\n        /* \"contracts/SpeciesLibrary.sol\":1680:1713  species == Species.RedNeckedGrebe */\n      0x0a\n      dup2\n      gt\n      iszero\n      tag_158\n      jumpi\n      tag_159\n      tag_82\n      jump\t// in\n    tag_159:\n    tag_158:\n        /* \"contracts/SpeciesLibrary.sol\":1680:1687  species */\n      dup3\n        /* \"contracts/SpeciesLibrary.sol\":1680:1713  species == Species.RedNeckedGrebe */\n      0x0a\n      dup2\n      gt\n      iszero\n      tag_160\n      jumpi\n      tag_161\n      tag_82\n      jump\t// in\n    tag_161:\n    tag_160:\n      sub\n        /* \"contracts/SpeciesLibrary.sol\":1676:2297  if (species == Species.RedNeckedGrebe) {... */\n      tag_162\n      jumpi\n        /* \"contracts/SpeciesLibrary.sol\":1737:1766  SpeciesInfo(80, 70, 2, 8, \"\") */\n      mload(0x40)\n      dup1\n      0xa0\n      add\n      0x40\n      mstore\n      dup1\n        /* \"contracts/SpeciesLibrary.sol\":1749:1751  80 */\n      0x50\n        /* \"contracts/SpeciesLibrary.sol\":1737:1766  SpeciesInfo(80, 70, 2, 8, \"\") */\n      dup2\n      mstore\n      0x20\n      add\n        /* \"contracts/SpeciesLibrary.sol\":1753:1755  70 */\n      0x46\n        /* \"contracts/SpeciesLibrary.sol\":1737:1766  SpeciesInfo(80, 70, 2, 8, \"\") */\n      dup2\n      mstore\n      0x20\n      add\n        /* \"contracts/SpeciesLibrary.sol\":1757:1758  2 */\n      0x02\n        /* \"contracts/SpeciesLibrary.sol\":1737:1766  SpeciesInfo(80, 70, 2, 8, \"\") */\n      dup2\n      mstore\n      0x20\n      add\n        /* \"contracts/SpeciesLibrary.sol\":1760:1761  8 */\n      0x08\n        /* \"contracts/SpeciesLibrary.sol\":1737:1766  SpeciesInfo(80, 70, 2, 8, \"\") */\n      dup2\n      mstore\n      0x20\n      add\n      mload(0x40)\n      dup1\n      0x20\n      add\n      0x40\n      mstore\n      dup1\n      0x00\n      dup2\n      mstore\n      pop\n      dup2\n      mstore\n      pop\n        /* \"contracts/SpeciesLibrary.sol\":1730:1766  return SpeciesInfo(80, 70, 2, 8, \"\") */\n      swap1\n      pop\n      jump(tag_127)\n        /* \"contracts/SpeciesLibrary.sol\":1676:2297  if (species == Species.RedNeckedGrebe) {... */\n    tag_162:\n        /* \"contracts/SpeciesLibrary.sol\":1799:1816  Species.WaterRail */\n      0x05\n        /* \"contracts/SpeciesLibrary.sol\":1788:1816  species == Species.WaterRail */\n      0x0a\n      dup2\n      gt\n      iszero\n      tag_164\n      jumpi\n      tag_165\n      tag_82\n      jump\t// in\n    tag_165:\n    tag_164:\n        /* \"contracts/SpeciesLibrary.sol\":1788:1795  species */\n      dup3\n        /* \"contracts/SpeciesLibrary.sol\":1788:1816  species == Species.WaterRail */\n      0x0a\n      dup2\n      gt\n      iszero\n      tag_166\n      jumpi\n      tag_167\n      tag_82\n      jump\t// in\n    tag_167:\n    tag_166:\n      sub\n        /* \"contracts/SpeciesLibrary.sol\":1784:2297  if (species == Species.WaterRail) {... */\n      tag_168\n      jumpi\n        /* \"contracts/SpeciesLibrary.sol\":1840:1869  SpeciesInfo(50, 60, 4, 5, \"\") */\n      mload(0x40)\n      dup1\n      0xa0\n      add\n      0x40\n      mstore\n      dup1\n        /* \"contracts/SpeciesLibrary.sol\":1852:1854  50 */\n      0x32\n        /* \"contracts/SpeciesLibrary.sol\":1840:1869  SpeciesInfo(50, 60, 4, 5, \"\") */\n      dup2\n      mstore\n      0x20\n      add\n        /* \"contracts/SpeciesLibrary.sol\":1856:1858  60 */\n      0x3c\n        /* \"contracts/SpeciesLibrary.sol\":1840:1869  SpeciesInfo(50, 60, 4, 5, \"\") */\n      dup2\n      mstore\n      0x20\n      add\n        /* \"contracts/SpeciesLibrary.sol\":1860:1861  4 */\n      0x04\n        /* \"contracts/SpeciesLibrary.sol\":1840:1869  SpeciesInfo(50, 60, 4, 5, \"\") */\n      dup2\n      mstore\n      0x20\n      add\n        /* \"contracts/SpeciesLibrary.sol\":1863:1864  5 */\n      0x05\n        /* \"contracts/SpeciesLibrary.sol\":1840:1869  SpeciesInfo(50, 60, 4, 5, \"\") */\n      dup2\n      mstore\n      0x20\n      add\n      mload(0x40)\n      dup1\n      0x20\n      add\n      0x40\n      mstore\n      dup1\n      0x00\n      dup2\n      mstore\n      pop\n      dup2\n      mstore\n      pop\n        /* \"contracts/SpeciesLibrary.sol\":1833:1869  return SpeciesInfo(50, 60, 4, 5, \"\") */\n      swap1\n      pop\n      jump(tag_127)\n        /* \"contracts/SpeciesLibrary.sol\":1784:2297  if (species == Species.WaterRail) {... */\n    tag_168:\n        /* \"contracts/SpeciesLibrary.sol\":1902:1920  Species.CommonTern */\n      0x06\n        /* \"contracts/SpeciesLibrary.sol\":1891:1920  species == Species.CommonTern */\n      0x0a\n      dup2\n      gt\n      iszero\n      tag_170\n      jumpi\n      tag_171\n      tag_82\n      jump\t// in\n    tag_171:\n    tag_170:\n        /* \"contracts/SpeciesLibrary.sol\":1891:1898  species */\n      dup3\n        /* \"contracts/SpeciesLibrary.sol\":1891:1920  species == Species.CommonTern */\n      0x0a\n      dup2\n      gt\n      iszero\n      tag_172\n      jumpi\n      tag_173\n      tag_82\n      jump\t// in\n    tag_173:\n    tag_172:\n      sub\n        /* \"contracts/SpeciesLibrary.sol\":1887:2297  if (species == Species.CommonTern) {... */\n      tag_174\n      jumpi\n        /* \"contracts/SpeciesLibrary.sol\":1944:1973  SpeciesInfo(55, 40, 3, 4, \"\") */\n      mload(0x40)\n      dup1\n      0xa0\n      add\n      0x40\n      mstore\n      dup1\n        /* \"contracts/SpeciesLibrary.sol\":1956:1958  55 */\n      0x37\n        /* \"contracts/SpeciesLibrary.sol\":1944:1973  SpeciesInfo(55, 40, 3, 4, \"\") */\n      dup2\n      mstore\n      0x20\n      add\n        /* \"contracts/SpeciesLibrary.sol\":1960:1962  40 */\n      0x28\n        /* \"contracts/SpeciesLibrary.sol\":1944:1973  SpeciesInfo(55, 40, 3, 4, \"\") */\n      dup2\n      mstore\n      0x20\n      add\n        /* \"contracts/SpeciesLibrary.sol\":1964:1965  3 */\n      0x03\n        /* \"contracts/SpeciesLibrary.sol\":1944:1973  SpeciesInfo(55, 40, 3, 4, \"\") */\n      dup2\n      mstore\n      0x20\n      add\n        /* \"contracts/SpeciesLibrary.sol\":1967:1968  4 */\n      0x04\n        /* \"contracts/SpeciesLibrary.sol\":1944:1973  SpeciesInfo(55, 40, 3, 4, \"\") */\n      dup2\n      mstore\n      0x20\n      add\n      mload(0x40)\n      dup1\n      0x20\n      add\n      0x40\n      mstore\n      dup1\n      0x00\n      dup2\n      mstore\n      pop\n      dup2\n      mstore\n      pop\n        /* \"contracts/SpeciesLibrary.sol\":1937:1973  return SpeciesInfo(55, 40, 3, 4, \"\") */\n      swap1\n      pop\n      jump(tag_127)\n        /* \"contracts/SpeciesLibrary.sol\":1887:2297  if (species == Species.CommonTern) {... */\n    tag_174:\n        /* \"contracts/SpeciesLibrary.sol\":2006:2023  Species.Goosander */\n      0x07\n        /* \"contracts/SpeciesLibrary.sol\":1995:2023  species == Species.Goosander */\n      0x0a\n      dup2\n      gt\n      iszero\n      tag_176\n      jumpi\n      tag_177\n      tag_82\n      jump\t// in\n    tag_177:\n    tag_176:\n        /* \"contracts/SpeciesLibrary.sol\":1995:2002  species */\n      dup3\n        /* \"contracts/SpeciesLibrary.sol\":1995:2023  species == Species.Goosander */\n      0x0a\n      dup2\n      gt\n      iszero\n      tag_178\n      jumpi\n      tag_179\n      tag_82\n      jump\t// in\n    tag_179:\n    tag_178:\n      sub\n        /* \"contracts/SpeciesLibrary.sol\":1991:2297  if (species == Species.Goosander) {... */\n      tag_180\n      jumpi\n        /* \"contracts/SpeciesLibrary.sol\":2047:2076  SpeciesInfo(78, 65, 2, 4, \"\") */\n      mload(0x40)\n      dup1\n      0xa0\n      add\n      0x40\n      mstore\n      dup1\n        /* \"contracts/SpeciesLibrary.sol\":2059:2061  78 */\n      0x4e\n        /* \"contracts/SpeciesLibrary.sol\":2047:2076  SpeciesInfo(78, 65, 2, 4, \"\") */\n      dup2\n      mstore\n      0x20\n      add\n        /* \"contracts/SpeciesLibrary.sol\":2063:2065  65 */\n      0x41\n        /* \"contracts/SpeciesLibrary.sol\":2047:2076  SpeciesInfo(78, 65, 2, 4, \"\") */\n      dup2\n      mstore\n      0x20\n      add\n        /* \"contracts/SpeciesLibrary.sol\":2067:2068  2 */\n      0x02\n        /* \"contracts/SpeciesLibrary.sol\":2047:2076  SpeciesInfo(78, 65, 2, 4, \"\") */\n      dup2\n      mstore\n      0x20\n      add\n        /* \"contracts/SpeciesLibrary.sol\":2070:2071  4 */\n      0x04\n        /* \"contracts/SpeciesLibrary.sol\":2047:2076  SpeciesInfo(78, 65, 2, 4, \"\") */\n      dup2\n      mstore\n      0x20\n      add\n      mload(0x40)\n      dup1\n      0x20\n      add\n      0x40\n      mstore\n      dup1\n      0x00\n      dup2\n      mstore\n      pop\n      dup2\n      mstore\n      pop\n        /* \"contracts/SpeciesLibrary.sol\":2040:2076  return SpeciesInfo(78, 65, 2, 4, \"\") */\n      swap1\n      pop\n      jump(tag_127)\n        /* \"contracts/SpeciesLibrary.sol\":1991:2297  if (species == Species.Goosander) {... */\n    tag_180:\n        /* \"contracts/SpeciesLibrary.sol\":2109:2129  Species.GreylagGoose */\n      0x08\n        /* \"contracts/SpeciesLibrary.sol\":2098:2129  species == Species.GreylagGoose */\n      0x0a\n      dup2\n      gt\n      iszero\n      tag_182\n      jumpi\n      tag_183\n      tag_82\n      jump\t// in\n    tag_183:\n    tag_182:\n        /* \"contracts/SpeciesLibrary.sol\":2098:2105  species */\n      dup3\n        /* \"contracts/SpeciesLibrary.sol\":2098:2129  species == Species.GreylagGoose */\n      0x0a\n      dup2\n      gt\n      iszero\n      tag_184\n      jumpi\n      tag_185\n      tag_82\n      jump\t// in\n    tag_185:\n    tag_184:\n      sub\n        /* \"contracts/SpeciesLibrary.sol\":2094:2297  if (species == Species.GreylagGoose) {... */\n      tag_186\n      jumpi\n        /* \"contracts/SpeciesLibrary.sol\":2153:2184  SpeciesInfo(150, 100, 4, 3, \"\") */\n      mload(0x40)\n      dup1\n      0xa0\n      add\n      0x40\n      mstore\n      dup1\n        /* \"contracts/SpeciesLibrary.sol\":2165:2168  150 */\n      0x96\n        /* \"contracts/SpeciesLibrary.sol\":2153:2184  SpeciesInfo(150, 100, 4, 3, \"\") */\n      dup2\n      mstore\n      0x20\n      add\n        /* \"contracts/SpeciesLibrary.sol\":2170:2173  100 */\n      0x64\n        /* \"contracts/SpeciesLibrary.sol\":2153:2184  SpeciesInfo(150, 100, 4, 3, \"\") */\n      dup2\n      mstore\n      0x20\n      add\n        /* \"contracts/SpeciesLibrary.sol\":2175:2176  4 */\n      0x04\n        /* \"contracts/SpeciesLibrary.sol\":2153:2184  SpeciesInfo(150, 100, 4, 3, \"\") */\n      dup2\n      mstore\n      0x20\n      add\n        /* \"contracts/SpeciesLibrary.sol\":2178:2179  3 */\n      0x03\n        /* \"contracts/SpeciesLibrary.sol\":2153:2184  SpeciesInfo(150, 100, 4, 3, \"\") */\n      dup2\n      mstore\n      0x20\n      add\n      mload(0x40)\n      dup1\n      0x20\n      add\n      0x40\n      mstore\n      dup1\n      0x00\n      dup2\n      mstore\n      pop\n      dup2\n      mstore\n      pop\n        /* \"contracts/SpeciesLibrary.sol\":2146:2184  return SpeciesInfo(150, 100, 4, 3, \"\") */\n      swap1\n      pop\n      jump(tag_127)\n        /* \"contracts/SpeciesLibrary.sol\":2094:2297  if (species == Species.GreylagGoose) {... */\n    tag_186:\n        /* \"contracts/SpeciesLibrary.sol\":2217:2232  Species.Moorhen */\n      0x09\n        /* \"contracts/SpeciesLibrary.sol\":2206:2232  species == Species.Moorhen */\n      0x0a\n      dup2\n      gt\n      iszero\n      tag_188\n      jumpi\n      tag_189\n      tag_82\n      jump\t// in\n    tag_189:\n    tag_188:\n        /* \"contracts/SpeciesLibrary.sol\":2206:2213  species */\n      dup3\n        /* \"contracts/SpeciesLibrary.sol\":2206:2232  species == Species.Moorhen */\n      0x0a\n      dup2\n      gt\n      iszero\n      tag_190\n      jumpi\n      tag_191\n      tag_82\n      jump\t// in\n    tag_191:\n    tag_190:\n      sub\n        /* \"contracts/SpeciesLibrary.sol\":2202:2297  if (species == Species.Moorhen) {... */\n      tag_192\n      jumpi\n        /* \"contracts/SpeciesLibrary.sol\":2256:2285  SpeciesInfo(35, 66, 4, 5, \"\") */\n      mload(0x40)\n      dup1\n      0xa0\n      add\n      0x40\n      mstore\n      dup1\n        /* \"contracts/SpeciesLibrary.sol\":2268:2270  35 */\n      0x23\n        /* \"contracts/SpeciesLibrary.sol\":2256:2285  SpeciesInfo(35, 66, 4, 5, \"\") */\n      dup2\n      mstore\n      0x20\n      add\n        /* \"contracts/SpeciesLibrary.sol\":2272:2274  66 */\n      0x42\n        /* \"contracts/SpeciesLibrary.sol\":2256:2285  SpeciesInfo(35, 66, 4, 5, \"\") */\n      dup2\n      mstore\n      0x20\n      add\n        /* \"contracts/SpeciesLibrary.sol\":2276:2277  4 */\n      0x04\n        /* \"contracts/SpeciesLibrary.sol\":2256:2285  SpeciesInfo(35, 66, 4, 5, \"\") */\n      dup2\n      mstore\n      0x20\n      add\n        /* \"contracts/SpeciesLibrary.sol\":2279:2280  5 */\n      0x05\n        /* \"contracts/SpeciesLibrary.sol\":2256:2285  SpeciesInfo(35, 66, 4, 5, \"\") */\n      dup2\n      mstore\n      0x20\n      add\n      mload(0x40)\n      dup1\n      0x20\n      add\n      0x40\n      mstore\n      dup1\n      0x00\n      dup2\n      mstore\n      pop\n      dup2\n      mstore\n      pop\n        /* \"contracts/SpeciesLibrary.sol\":2249:2285  return SpeciesInfo(35, 66, 4, 5, \"\") */\n      swap1\n      pop\n      jump(tag_127)\n        /* \"contracts/SpeciesLibrary.sol\":2202:2297  if (species == Species.Moorhen) {... */\n    tag_192:\n        /* \"contracts/SpeciesLibrary.sol\":2307:2332  revert(\"Unknown species\") */\n      mload(0x40)\n      0x08c379a000000000000000000000000000000000000000000000000000000000\n      dup2\n      mstore\n      0x04\n      add\n      tag_193\n      swap1\n      tag_194\n      jump\t// in\n    tag_193:\n      mload(0x40)\n      dup1\n      swap2\n      sub\n      swap1\n      revert\n        /* \"contracts/SpeciesLibrary.sol\":779:2340  function getSpeciesInfo(Species species) internal pure returns (SpeciesInfo memory) {... */\n    tag_127:\n      swap2\n      swap1\n      pop\n      jump\t// out\n    tag_92:\n      mload(0x40)\n      dup1\n      0xa0\n      add\n      0x40\n      mstore\n      dup1\n      0x00\n      dup2\n      mstore\n      0x20\n      add\n      0x00\n      dup2\n      mstore\n      0x20\n      add\n      0x00\n      dup2\n      mstore\n      0x20\n      add\n      0x00\n      0x0a\n      dup2\n      gt\n      iszero\n      tag_195\n      jumpi\n      tag_196\n      tag_82\n      jump\t// in\n    tag_196:\n    tag_195:\n      dup2\n      mstore\n      0x20\n      add\n      0x00\n      dup2\n      mstore\n      pop\n      swap1\n      jump\t// out\n    tag_116:\n      mload(0x40)\n      dup1\n      0xa0\n      add\n      0x40\n      mstore\n      dup1\n      0x00\n      dup2\n      mstore\n      0x20\n      add\n      0x00\n      dup2\n      mstore\n      0x20\n      add\n      0x00\n      dup2\n      mstore\n      0x20\n      add\n      0x00\n      dup2\n      mstore\n      0x20\n      add\n      0x60\n      dup2\n      mstore\n      pop\n      swap1\n      jump\t// out\n        /* \"#utility.yul\":88:205   */\n    tag_198:\n        /* \"#utility.yul\":197:198   */\n      0x00\n        /* \"#utility.yul\":194:195   */\n      0x00\n        /* \"#utility.yul\":187:199   */\n      revert\n        /* \"#utility.yul\":334:411   */\n    tag_200:\n        /* \"#utility.yul\":371:378   */\n      0x00\n        /* \"#utility.yul\":400:405   */\n      dup2\n        /* \"#utility.yul\":389:405   */\n      swap1\n      pop\n        /* \"#utility.yul\":334:411   */\n      swap2\n      swap1\n      pop\n      jump\t// out\n        /* \"#utility.yul\":417:539   */\n    tag_201:\n        /* \"#utility.yul\":490:514   */\n      tag_241\n        /* \"#utility.yul\":508:513   */\n      dup2\n        /* \"#utility.yul\":490:514   */\n      tag_200\n      jump\t// in\n    tag_241:\n        /* \"#utility.yul\":483:488   */\n      dup2\n        /* \"#utility.yul\":480:515   */\n      eq\n        /* \"#utility.yul\":470:533   */\n      tag_242\n      jumpi\n        /* \"#utility.yul\":529:530   */\n      0x00\n        /* \"#utility.yul\":526:527   */\n      0x00\n        /* \"#utility.yul\":519:531   */\n      revert\n        /* \"#utility.yul\":470:533   */\n    tag_242:\n        /* \"#utility.yul\":417:539   */\n      pop\n      jump\t// out\n        /* \"#utility.yul\":545:684   */\n    tag_202:\n        /* \"#utility.yul\":591:596   */\n      0x00\n        /* \"#utility.yul\":629:635   */\n      dup2\n        /* \"#utility.yul\":616:636   */\n      calldataload\n        /* \"#utility.yul\":607:636   */\n      swap1\n      pop\n        /* \"#utility.yul\":645:678   */\n      tag_244\n        /* \"#utility.yul\":672:677   */\n      dup2\n        /* \"#utility.yul\":645:678   */\n      tag_201\n      jump\t// in\n    tag_244:\n        /* \"#utility.yul\":545:684   */\n      swap3\n      swap2\n      pop\n      pop\n      jump\t// out\n        /* \"#utility.yul\":690:1019   */\n    tag_16:\n        /* \"#utility.yul\":749:755   */\n      0x00\n        /* \"#utility.yul\":798:800   */\n      0x20\n        /* \"#utility.yul\":786:795   */\n      dup3\n        /* \"#utility.yul\":777:784   */\n      dup5\n        /* \"#utility.yul\":773:796   */\n      sub\n        /* \"#utility.yul\":769:801   */\n      slt\n        /* \"#utility.yul\":766:885   */\n      iszero\n      tag_246\n      jumpi\n        /* \"#utility.yul\":804:883   */\n      tag_247\n      tag_198\n      jump\t// in\n    tag_247:\n        /* \"#utility.yul\":766:885   */\n    tag_246:\n        /* \"#utility.yul\":924:925   */\n      0x00\n        /* \"#utility.yul\":949:1002   */\n      tag_248\n        /* \"#utility.yul\":994:1001   */\n      dup5\n        /* \"#utility.yul\":985:991   */\n      dup3\n        /* \"#utility.yul\":974:983   */\n      dup6\n        /* \"#utility.yul\":970:992   */\n      add\n        /* \"#utility.yul\":949:1002   */\n      tag_202\n      jump\t// in\n    tag_248:\n        /* \"#utility.yul\":939:1002   */\n      swap2\n      pop\n        /* \"#utility.yul\":895:1012   */\n      pop\n        /* \"#utility.yul\":690:1019   */\n      swap3\n      swap2\n      pop\n      pop\n      jump\t// out\n        /* \"#utility.yul\":1025:1115   */\n    tag_203:\n        /* \"#utility.yul\":1059:1066   */\n      0x00\n        /* \"#utility.yul\":1102:1107   */\n      dup2\n        /* \"#utility.yul\":1095:1108   */\n      iszero\n        /* \"#utility.yul\":1088:1109   */\n      iszero\n        /* \"#utility.yul\":1077:1109   */\n      swap1\n      pop\n        /* \"#utility.yul\":1025:1115   */\n      swap2\n      swap1\n      pop\n      jump\t// out\n        /* \"#utility.yul\":1121:1230   */\n    tag_204:\n        /* \"#utility.yul\":1202:1223   */\n      tag_251\n        /* \"#utility.yul\":1217:1222   */\n      dup2\n        /* \"#utility.yul\":1202:1223   */\n      tag_203\n      jump\t// in\n    tag_251:\n        /* \"#utility.yul\":1197:1200   */\n      dup3\n        /* \"#utility.yul\":1190:1224   */\n      mstore\n        /* \"#utility.yul\":1121:1230   */\n      pop\n      pop\n      jump\t// out\n        /* \"#utility.yul\":1236:1446   */\n    tag_19:\n        /* \"#utility.yul\":1323:1327   */\n      0x00\n        /* \"#utility.yul\":1361:1363   */\n      0x20\n        /* \"#utility.yul\":1350:1359   */\n      dup3\n        /* \"#utility.yul\":1346:1364   */\n      add\n        /* \"#utility.yul\":1338:1364   */\n      swap1\n      pop\n        /* \"#utility.yul\":1374:1439   */\n      tag_253\n        /* \"#utility.yul\":1436:1437   */\n      0x00\n        /* \"#utility.yul\":1425:1434   */\n      dup4\n        /* \"#utility.yul\":1421:1438   */\n      add\n        /* \"#utility.yul\":1412:1418   */\n      dup5\n        /* \"#utility.yul\":1374:1439   */\n      tag_204\n      jump\t// in\n    tag_253:\n        /* \"#utility.yul\":1236:1446   */\n      swap3\n      swap2\n      pop\n      pop\n      jump\t// out\n        /* \"#utility.yul\":1452:1926   */\n    tag_22:\n        /* \"#utility.yul\":1520:1526   */\n      0x00\n        /* \"#utility.yul\":1528:1534   */\n      0x00\n        /* \"#utility.yul\":1577:1579   */\n      0x40\n        /* \"#utility.yul\":1565:1574   */\n      dup4\n        /* \"#utility.yul\":1556:1563   */\n      dup6\n        /* \"#utility.yul\":1552:1575   */\n      sub\n        /* \"#utility.yul\":1548:1580   */\n      slt\n        /* \"#utility.yul\":1545:1664   */\n      iszero\n      tag_255\n      jumpi\n        /* \"#utility.yul\":1583:1662   */\n      tag_256\n      tag_198\n      jump\t// in\n    tag_256:\n        /* \"#utility.yul\":1545:1664   */\n    tag_255:\n        /* \"#utility.yul\":1703:1704   */\n      0x00\n        /* \"#utility.yul\":1728:1781   */\n      tag_257\n        /* \"#utility.yul\":1773:1780   */\n      dup6\n        /* \"#utility.yul\":1764:1770   */\n      dup3\n        /* \"#utility.yul\":1753:1762   */\n      dup7\n        /* \"#utility.yul\":1749:1771   */\n      add\n        /* \"#utility.yul\":1728:1781   */\n      tag_202\n      jump\t// in\n    tag_257:\n        /* \"#utility.yul\":1718:1781   */\n      swap3\n      pop\n        /* \"#utility.yul\":1674:1791   */\n      pop\n        /* \"#utility.yul\":1830:1832   */\n      0x20\n        /* \"#utility.yul\":1856:1909   */\n      tag_258\n        /* \"#utility.yul\":1901:1908   */\n      dup6\n        /* \"#utility.yul\":1892:1898   */\n      dup3\n        /* \"#utility.yul\":1881:1890   */\n      dup7\n        /* \"#utility.yul\":1877:1899   */\n      add\n        /* \"#utility.yul\":1856:1909   */\n      tag_202\n      jump\t// in\n    tag_258:\n        /* \"#utility.yul\":1846:1909   */\n      swap2\n      pop\n        /* \"#utility.yul\":1801:1919   */\n      pop\n        /* \"#utility.yul\":1452:1926   */\n      swap3\n      pop\n      swap3\n      swap1\n      pop\n      jump\t// out\n        /* \"#utility.yul\":1932:2043   */\n    tag_205:\n        /* \"#utility.yul\":2016:2018   */\n      0x0b\n        /* \"#utility.yul\":2009:2014   */\n      dup2\n        /* \"#utility.yul\":2006:2019   */\n      lt\n        /* \"#utility.yul\":1996:2037   */\n      tag_260\n      jumpi\n        /* \"#utility.yul\":2033:2034   */\n      0x00\n        /* \"#utility.yul\":2030:2031   */\n      0x00\n        /* \"#utility.yul\":2023:2035   */\n      revert\n        /* \"#utility.yul\":1996:2037   */\n    tag_260:\n        /* \"#utility.yul\":1932:2043   */\n      pop\n      jump\t// out\n        /* \"#utility.yul\":2049:2210   */\n    tag_206:\n        /* \"#utility.yul\":2106:2111   */\n      0x00\n        /* \"#utility.yul\":2144:2150   */\n      dup2\n        /* \"#utility.yul\":2131:2151   */\n      calldataload\n        /* \"#utility.yul\":2122:2151   */\n      swap1\n      pop\n        /* \"#utility.yul\":2160:2204   */\n      tag_262\n        /* \"#utility.yul\":2198:2203   */\n      dup2\n        /* \"#utility.yul\":2160:2204   */\n      tag_205\n      jump\t// in\n    tag_262:\n        /* \"#utility.yul\":2049:2210   */\n      swap3\n      swap2\n      pop\n      pop\n      jump\t// out\n        /* \"#utility.yul\":2216:2567   */\n    tag_29:\n        /* \"#utility.yul\":2286:2292   */\n      0x00\n        /* \"#utility.yul\":2335:2337   */\n      0x20\n        /* \"#utility.yul\":2323:2332   */\n      dup3\n        /* \"#utility.yul\":2314:2321   */\n      dup5\n        /* \"#utility.yul\":2310:2333   */\n      sub\n        /* \"#utility.yul\":2306:2338   */\n      slt\n        /* \"#utility.yul\":2303:2422   */\n      iszero\n      tag_264\n      jumpi\n        /* \"#utility.yul\":2341:2420   */\n      tag_265\n      tag_198\n      jump\t// in\n    tag_265:\n        /* \"#utility.yul\":2303:2422   */\n    tag_264:\n        /* \"#utility.yul\":2461:2462   */\n      0x00\n        /* \"#utility.yul\":2486:2550   */\n      tag_266\n        /* \"#utility.yul\":2542:2549   */\n      dup5\n        /* \"#utility.yul\":2533:2539   */\n      dup3\n        /* \"#utility.yul\":2522:2531   */\n      dup6\n        /* \"#utility.yul\":2518:2540   */\n      add\n        /* \"#utility.yul\":2486:2550   */\n      tag_206\n      jump\t// in\n    tag_266:\n        /* \"#utility.yul\":2476:2550   */\n      swap2\n      pop\n        /* \"#utility.yul\":2432:2560   */\n      pop\n        /* \"#utility.yul\":2216:2567   */\n      swap3\n      swap2\n      pop\n      pop\n      jump\t// out\n        /* \"#utility.yul\":2573:2649   */\n    tag_207:\n        /* \"#utility.yul\":2609:2616   */\n      0x00\n        /* \"#utility.yul\":2638:2643   */\n      dup2\n        /* \"#utility.yul\":2627:2643   */\n      swap1\n      pop\n        /* \"#utility.yul\":2573:2649   */\n      swap2\n      swap1\n      pop\n      jump\t// out\n        /* \"#utility.yul\":2655:2770   */\n    tag_208:\n        /* \"#utility.yul\":2740:2763   */\n      tag_269\n        /* \"#utility.yul\":2757:2762   */\n      dup2\n        /* \"#utility.yul\":2740:2763   */\n      tag_207\n      jump\t// in\n    tag_269:\n        /* \"#utility.yul\":2735:2738   */\n      dup3\n        /* \"#utility.yul\":2728:2764   */\n      mstore\n        /* \"#utility.yul\":2655:2770   */\n      pop\n      pop\n      jump\t// out\n        /* \"#utility.yul\":2776:2994   */\n    tag_32:\n        /* \"#utility.yul\":2867:2871   */\n      0x00\n        /* \"#utility.yul\":2905:2907   */\n      0x20\n        /* \"#utility.yul\":2894:2903   */\n      dup3\n        /* \"#utility.yul\":2890:2908   */\n      add\n        /* \"#utility.yul\":2882:2908   */\n      swap1\n      pop\n        /* \"#utility.yul\":2918:2987   */\n      tag_271\n        /* \"#utility.yul\":2984:2985   */\n      0x00\n        /* \"#utility.yul\":2973:2982   */\n      dup4\n        /* \"#utility.yul\":2969:2986   */\n      add\n        /* \"#utility.yul\":2960:2966   */\n      dup5\n        /* \"#utility.yul\":2918:2987   */\n      tag_208\n      jump\t// in\n    tag_271:\n        /* \"#utility.yul\":2776:2994   */\n      swap3\n      swap2\n      pop\n      pop\n      jump\t// out\n        /* \"#utility.yul\":3000:3126   */\n    tag_209:\n        /* \"#utility.yul\":3037:3044   */\n      0x00\n        /* \"#utility.yul\":3077:3119   */\n      0xffffffffffffffffffffffffffffffffffffffff\n        /* \"#utility.yul\":3070:3075   */\n      dup3\n        /* \"#utility.yul\":3066:3120   */\n      and\n        /* \"#utility.yul\":3055:3120   */\n      swap1\n      pop\n        /* \"#utility.yul\":3000:3126   */\n      swap2\n      swap1\n      pop\n      jump\t// out\n        /* \"#utility.yul\":3132:3228   */\n    tag_210:\n        /* \"#utility.yul\":3169:3176   */\n      0x00\n        /* \"#utility.yul\":3198:3222   */\n      tag_274\n        /* \"#utility.yul\":3216:3221   */\n      dup3\n        /* \"#utility.yul\":3198:3222   */\n      tag_209\n      jump\t// in\n    tag_274:\n        /* \"#utility.yul\":3187:3222   */\n      swap1\n      pop\n        /* \"#utility.yul\":3132:3228   */\n      swap2\n      swap1\n      pop\n      jump\t// out\n        /* \"#utility.yul\":3234:3356   */\n    tag_211:\n        /* \"#utility.yul\":3307:3331   */\n      tag_276\n        /* \"#utility.yul\":3325:3330   */\n      dup2\n        /* \"#utility.yul\":3307:3331   */\n      tag_210\n      jump\t// in\n    tag_276:\n        /* \"#utility.yul\":3300:3305   */\n      dup2\n        /* \"#utility.yul\":3297:3332   */\n      eq\n        /* \"#utility.yul\":3287:3350   */\n      tag_277\n      jumpi\n        /* \"#utility.yul\":3346:3347   */\n      0x00\n        /* \"#utility.yul\":3343:3344   */\n      0x00\n        /* \"#utility.yul\":3336:3348   */\n      revert\n        /* \"#utility.yul\":3287:3350   */\n    tag_277:\n        /* \"#utility.yul\":3234:3356   */\n      pop\n      jump\t// out\n        /* \"#utility.yul\":3362:3501   */\n    tag_212:\n        /* \"#utility.yul\":3408:3413   */\n      0x00\n        /* \"#utility.yul\":3446:3452   */\n      dup2\n        /* \"#utility.yul\":3433:3453   */\n      calldataload\n        /* \"#utility.yul\":3424:3453   */\n      swap1\n      pop\n        /* \"#utility.yul\":3462:3495   */\n      tag_279\n        /* \"#utility.yul\":3489:3494   */\n      dup2\n        /* \"#utility.yul\":3462:3495   */\n      tag_211\n      jump\t// in\n    tag_279:\n        /* \"#utility.yul\":3362:3501   */\n      swap3\n      swap2\n      pop\n      pop\n      jump\t// out\n        /* \"#utility.yul\":3507:3836   */\n    tag_35:\n        /* \"#utility.yul\":3566:3572   */\n      0x00\n        /* \"#utility.yul\":3615:3617   */\n      0x20\n        /* \"#utility.yul\":3603:3612   */\n      dup3\n        /* \"#utility.yul\":3594:3601   */\n      dup5\n        /* \"#utility.yul\":3590:3613   */\n      sub\n        /* \"#utility.yul\":3586:3618   */\n      slt\n        /* \"#utility.yul\":3583:3702   */\n      iszero\n      tag_281\n      jumpi\n        /* \"#utility.yul\":3621:3700   */\n      tag_282\n      tag_198\n      jump\t// in\n    tag_282:\n        /* \"#utility.yul\":3583:3702   */\n    tag_281:\n        /* \"#utility.yul\":3741:3742   */\n      0x00\n        /* \"#utility.yul\":3766:3819   */\n      tag_283\n        /* \"#utility.yul\":3811:3818   */\n      dup5\n        /* \"#utility.yul\":3802:3808   */\n      dup3\n        /* \"#utility.yul\":3791:3800   */\n      dup6\n        /* \"#utility.yul\":3787:3809   */\n      add\n        /* \"#utility.yul\":3766:3819   */\n      tag_212\n      jump\t// in\n    tag_283:\n        /* \"#utility.yul\":3756:3819   */\n      swap2\n      pop\n        /* \"#utility.yul\":3712:3829   */\n      pop\n        /* \"#utility.yul\":3507:3836   */\n      swap3\n      swap2\n      pop\n      pop\n      jump\t// out\n        /* \"#utility.yul\":3842:3960   */\n    tag_213:\n        /* \"#utility.yul\":3929:3953   */\n      tag_285\n        /* \"#utility.yul\":3947:3952   */\n      dup2\n        /* \"#utility.yul\":3929:3953   */\n      tag_200\n      jump\t// in\n    tag_285:\n        /* \"#utility.yul\":3924:3927   */\n      dup3\n        /* \"#utility.yul\":3917:3954   */\n      mstore\n        /* \"#utility.yul\":3842:3960   */\n      pop\n      pop\n      jump\t// out\n        /* \"#utility.yul\":3966:4188   */\n    tag_40:\n        /* \"#utility.yul\":4059:4063   */\n      0x00\n        /* \"#utility.yul\":4097:4099   */\n      0x20\n        /* \"#utility.yul\":4086:4095   */\n      dup3\n        /* \"#utility.yul\":4082:4100   */\n      add\n        /* \"#utility.yul\":4074:4100   */\n      swap1\n      pop\n        /* \"#utility.yul\":4110:4181   */\n      tag_287\n        /* \"#utility.yul\":4178:4179   */\n      0x00\n        /* \"#utility.yul\":4167:4176   */\n      dup4\n        /* \"#utility.yul\":4163:4180   */\n      add\n        /* \"#utility.yul\":4154:4160   */\n      dup5\n        /* \"#utility.yul\":4110:4181   */\n      tag_213\n      jump\t// in\n    tag_287:\n        /* \"#utility.yul\":3966:4188   */\n      swap3\n      swap2\n      pop\n      pop\n      jump\t// out\n        /* \"#utility.yul\":4194:4302   */\n    tag_214:\n        /* \"#utility.yul\":4271:4295   */\n      tag_289\n        /* \"#utility.yul\":4289:4294   */\n      dup2\n        /* \"#utility.yul\":4271:4295   */\n      tag_200\n      jump\t// in\n    tag_289:\n        /* \"#utility.yul\":4266:4269   */\n      dup3\n        /* \"#utility.yul\":4259:4296   */\n      mstore\n        /* \"#utility.yul\":4194:4302   */\n      pop\n      pop\n      jump\t// out\n        /* \"#utility.yul\":4308:4488   */\n    tag_82:\n        /* \"#utility.yul\":4356:4433   */\n      0x4e487b7100000000000000000000000000000000000000000000000000000000\n        /* \"#utility.yul\":4353:4354   */\n      0x00\n        /* \"#utility.yul\":4346:4434   */\n      mstore\n        /* \"#utility.yul\":4453:4457   */\n      0x21\n        /* \"#utility.yul\":4450:4451   */\n      0x04\n        /* \"#utility.yul\":4443:4458   */\n      mstore\n        /* \"#utility.yul\":4477:4481   */\n      0x24\n        /* \"#utility.yul\":4474:4475   */\n      0x00\n        /* \"#utility.yul\":4467:4482   */\n      revert\n        /* \"#utility.yul\":4494:4611   */\n    tag_215:\n        /* \"#utility.yul\":4578:4580   */\n      0x0b\n        /* \"#utility.yul\":4571:4576   */\n      dup2\n        /* \"#utility.yul\":4568:4581   */\n      lt\n        /* \"#utility.yul\":4558:4605   */\n      tag_292\n      jumpi\n        /* \"#utility.yul\":4585:4603   */\n      tag_293\n      tag_82\n      jump\t// in\n    tag_293:\n        /* \"#utility.yul\":4558:4605   */\n    tag_292:\n        /* \"#utility.yul\":4494:4611   */\n      pop\n      jump\t// out\n        /* \"#utility.yul\":4617:4750   */\n    tag_216:\n        /* \"#utility.yul\":4665:4672   */\n      0x00\n        /* \"#utility.yul\":4694:4699   */\n      dup2\n        /* \"#utility.yul\":4683:4699   */\n      swap1\n      pop\n        /* \"#utility.yul\":4700:4744   */\n      tag_295\n        /* \"#utility.yul\":4738:4743   */\n      dup3\n        /* \"#utility.yul\":4700:4744   */\n      tag_215\n      jump\t// in\n    tag_295:\n        /* \"#utility.yul\":4617:4750   */\n      swap2\n      swap1\n      pop\n      jump\t// out\n        /* \"#utility.yul\":4756:4889   */\n    tag_217:\n        /* \"#utility.yul\":4815:4824   */\n      0x00\n        /* \"#utility.yul\":4848:4883   */\n      tag_297\n        /* \"#utility.yul\":4877:4882   */\n      dup3\n        /* \"#utility.yul\":4848:4883   */\n      tag_216\n      jump\t// in\n    tag_297:\n        /* \"#utility.yul\":4835:4883   */\n      swap1\n      pop\n        /* \"#utility.yul\":4756:4889   */\n      swap2\n      swap1\n      pop\n      jump\t// out\n        /* \"#utility.yul\":4895:5034   */\n    tag_218:\n        /* \"#utility.yul\":4981:5027   */\n      tag_299\n        /* \"#utility.yul\":5021:5026   */\n      dup2\n        /* \"#utility.yul\":4981:5027   */\n      tag_217\n      jump\t// in\n    tag_299:\n        /* \"#utility.yul\":4976:4979   */\n      dup3\n        /* \"#utility.yul\":4969:5028   */\n      mstore\n        /* \"#utility.yul\":4895:5034   */\n      pop\n      pop\n      jump\t// out\n        /* \"#utility.yul\":5092:6146   */\n    tag_219:\n        /* \"#utility.yul\":5239:5243   */\n      0xa0\n        /* \"#utility.yul\":5234:5237   */\n      dup3\n        /* \"#utility.yul\":5230:5244   */\n      add\n        /* \"#utility.yul\":5325:5329   */\n      0x00\n        /* \"#utility.yul\":5318:5323   */\n      dup3\n        /* \"#utility.yul\":5314:5330   */\n      add\n        /* \"#utility.yul\":5308:5331   */\n      mload\n        /* \"#utility.yul\":5344:5407   */\n      tag_301\n        /* \"#utility.yul\":5401:5405   */\n      0x00\n        /* \"#utility.yul\":5396:5399   */\n      dup6\n        /* \"#utility.yul\":5392:5406   */\n      add\n        /* \"#utility.yul\":5378:5390   */\n      dup3\n        /* \"#utility.yul\":5344:5407   */\n      tag_214\n      jump\t// in\n    tag_301:\n        /* \"#utility.yul\":5254:5417   */\n      pop\n        /* \"#utility.yul\":5501:5505   */\n      0x20\n        /* \"#utility.yul\":5494:5499   */\n      dup3\n        /* \"#utility.yul\":5490:5506   */\n      add\n        /* \"#utility.yul\":5484:5507   */\n      mload\n        /* \"#utility.yul\":5520:5583   */\n      tag_302\n        /* \"#utility.yul\":5577:5581   */\n      0x20\n        /* \"#utility.yul\":5572:5575   */\n      dup6\n        /* \"#utility.yul\":5568:5582   */\n      add\n        /* \"#utility.yul\":5554:5566   */\n      dup3\n        /* \"#utility.yul\":5520:5583   */\n      tag_214\n      jump\t// in\n    tag_302:\n        /* \"#utility.yul\":5427:5593   */\n      pop\n        /* \"#utility.yul\":5677:5681   */\n      0x40\n        /* \"#utility.yul\":5670:5675   */\n      dup3\n        /* \"#utility.yul\":5666:5682   */\n      add\n        /* \"#utility.yul\":5660:5683   */\n      mload\n        /* \"#utility.yul\":5696:5759   */\n      tag_303\n        /* \"#utility.yul\":5753:5757   */\n      0x40\n        /* \"#utility.yul\":5748:5751   */\n      dup6\n        /* \"#utility.yul\":5744:5758   */\n      add\n        /* \"#utility.yul\":5730:5742   */\n      dup3\n        /* \"#utility.yul\":5696:5759   */\n      tag_214\n      jump\t// in\n    tag_303:\n        /* \"#utility.yul\":5603:5769   */\n      pop\n        /* \"#utility.yul\":5854:5858   */\n      0x60\n        /* \"#utility.yul\":5847:5852   */\n      dup3\n        /* \"#utility.yul\":5843:5859   */\n      add\n        /* \"#utility.yul\":5837:5860   */\n      mload\n        /* \"#utility.yul\":5873:5945   */\n      tag_304\n        /* \"#utility.yul\":5939:5943   */\n      0x60\n        /* \"#utility.yul\":5934:5937   */\n      dup6\n        /* \"#utility.yul\":5930:5944   */\n      add\n        /* \"#utility.yul\":5916:5928   */\n      dup3\n        /* \"#utility.yul\":5873:5945   */\n      tag_218\n      jump\t// in\n    tag_304:\n        /* \"#utility.yul\":5779:5955   */\n      pop\n        /* \"#utility.yul\":6047:6051   */\n      0x80\n        /* \"#utility.yul\":6040:6045   */\n      dup3\n        /* \"#utility.yul\":6036:6052   */\n      add\n        /* \"#utility.yul\":6030:6053   */\n      mload\n        /* \"#utility.yul\":6066:6129   */\n      tag_305\n        /* \"#utility.yul\":6123:6127   */\n      0x80\n        /* \"#utility.yul\":6118:6121   */\n      dup6\n        /* \"#utility.yul\":6114:6128   */\n      add\n        /* \"#utility.yul\":6100:6112   */\n      dup3\n        /* \"#utility.yul\":6066:6129   */\n      tag_214\n      jump\t// in\n    tag_305:\n        /* \"#utility.yul\":5965:6139   */\n      pop\n        /* \"#utility.yul\":5208:6146   */\n      pop\n        /* \"#utility.yul\":5092:6146   */\n      pop\n      pop\n      jump\t// out\n        /* \"#utility.yul\":6152:6475   */\n    tag_45:\n        /* \"#utility.yul\":6295:6299   */\n      0x00\n        /* \"#utility.yul\":6333:6336   */\n      0xa0\n        /* \"#utility.yul\":6322:6331   */\n      dup3\n        /* \"#utility.yul\":6318:6337   */\n      add\n        /* \"#utility.yul\":6310:6337   */\n      swap1\n      pop\n        /* \"#utility.yul\":6347:6468   */\n      tag_307\n        /* \"#utility.yul\":6465:6466   */\n      0x00\n        /* \"#utility.yul\":6454:6463   */\n      dup4\n        /* \"#utility.yul\":6450:6467   */\n      add\n        /* \"#utility.yul\":6441:6447   */\n      dup5\n        /* \"#utility.yul\":6347:6468   */\n      tag_219\n      jump\t// in\n    tag_307:\n        /* \"#utility.yul\":6152:6475   */\n      swap3\n      swap2\n      pop\n      pop\n      jump\t// out\n        /* \"#utility.yul\":6481:6599   */\n    tag_220:\n        /* \"#utility.yul\":6568:6592   */\n      tag_309\n        /* \"#utility.yul\":6586:6591   */\n      dup2\n        /* \"#utility.yul\":6568:6592   */\n      tag_210\n      jump\t// in\n    tag_309:\n        /* \"#utility.yul\":6563:6566   */\n      dup3\n        /* \"#utility.yul\":6556:6593   */\n      mstore\n        /* \"#utility.yul\":6481:6599   */\n      pop\n      pop\n      jump\t// out\n        /* \"#utility.yul\":6605:6827   */\n    tag_49:\n        /* \"#utility.yul\":6698:6702   */\n      0x00\n        /* \"#utility.yul\":6736:6738   */\n      0x20\n        /* \"#utility.yul\":6725:6734   */\n      dup3\n        /* \"#utility.yul\":6721:6739   */\n      add\n        /* \"#utility.yul\":6713:6739   */\n      swap1\n      pop\n        /* \"#utility.yul\":6749:6820   */\n      tag_311\n        /* \"#utility.yul\":6817:6818   */\n      0x00\n        /* \"#utility.yul\":6806:6815   */\n      dup4\n        /* \"#utility.yul\":6802:6819   */\n      add\n        /* \"#utility.yul\":6793:6799   */\n      dup5\n        /* \"#utility.yul\":6749:6820   */\n      tag_220\n      jump\t// in\n    tag_311:\n        /* \"#utility.yul\":6605:6827   */\n      swap3\n      swap2\n      pop\n      pop\n      jump\t// out\n        /* \"#utility.yul\":6833:6982   */\n    tag_221:\n        /* \"#utility.yul\":6929:6975   */\n      tag_313\n        /* \"#utility.yul\":6969:6974   */\n      dup2\n        /* \"#utility.yul\":6929:6975   */\n      tag_217\n      jump\t// in\n    tag_313:\n        /* \"#utility.yul\":6924:6927   */\n      dup3\n        /* \"#utility.yul\":6917:6976   */\n      mstore\n        /* \"#utility.yul\":6833:6982   */\n      pop\n      pop\n      jump\t// out\n        /* \"#utility.yul\":6988:7670   */\n    tag_57:\n        /* \"#utility.yul\":7202:7206   */\n      0x00\n        /* \"#utility.yul\":7240:7243   */\n      0xa0\n        /* \"#utility.yul\":7229:7238   */\n      dup3\n        /* \"#utility.yul\":7225:7244   */\n      add\n        /* \"#utility.yul\":7217:7244   */\n      swap1\n      pop\n        /* \"#utility.yul\":7254:7325   */\n      tag_315\n        /* \"#utility.yul\":7322:7323   */\n      0x00\n        /* \"#utility.yul\":7311:7320   */\n      dup4\n        /* \"#utility.yul\":7307:7324   */\n      add\n        /* \"#utility.yul\":7298:7304   */\n      dup9\n        /* \"#utility.yul\":7254:7325   */\n      tag_213\n      jump\t// in\n    tag_315:\n        /* \"#utility.yul\":7335:7407   */\n      tag_316\n        /* \"#utility.yul\":7403:7405   */\n      0x20\n        /* \"#utility.yul\":7392:7401   */\n      dup4\n        /* \"#utility.yul\":7388:7406   */\n      add\n        /* \"#utility.yul\":7379:7385   */\n      dup8\n        /* \"#utility.yul\":7335:7407   */\n      tag_213\n      jump\t// in\n    tag_316:\n        /* \"#utility.yul\":7417:7489   */\n      tag_317\n        /* \"#utility.yul\":7485:7487   */\n      0x40\n        /* \"#utility.yul\":7474:7483   */\n      dup4\n        /* \"#utility.yul\":7470:7488   */\n      add\n        /* \"#utility.yul\":7461:7467   */\n      dup7\n        /* \"#utility.yul\":7417:7489   */\n      tag_213\n      jump\t// in\n    tag_317:\n        /* \"#utility.yul\":7499:7580   */\n      tag_318\n        /* \"#utility.yul\":7576:7578   */\n      0x60\n        /* \"#utility.yul\":7565:7574   */\n      dup4\n        /* \"#utility.yul\":7561:7579   */\n      add\n        /* \"#utility.yul\":7552:7558   */\n      dup6\n        /* \"#utility.yul\":7499:7580   */\n      tag_221\n      jump\t// in\n    tag_318:\n        /* \"#utility.yul\":7590:7663   */\n      tag_319\n        /* \"#utility.yul\":7658:7661   */\n      0x80\n        /* \"#utility.yul\":7647:7656   */\n      dup4\n        /* \"#utility.yul\":7643:7662   */\n      add\n        /* \"#utility.yul\":7634:7640   */\n      dup5\n        /* \"#utility.yul\":7590:7663   */\n      tag_213\n      jump\t// in\n    tag_319:\n        /* \"#utility.yul\":6988:7670   */\n      swap7\n      swap6\n      pop\n      pop\n      pop\n      pop\n      pop\n      pop\n      jump\t// out\n        /* \"#utility.yul\":7676:7845   */\n    tag_222:\n        /* \"#utility.yul\":7760:7771   */\n      0x00\n        /* \"#utility.yul\":7794:7800   */\n      dup3\n        /* \"#utility.yul\":7789:7792   */\n      dup3\n        /* \"#utility.yul\":7782:7801   */\n      mstore\n        /* \"#utility.yul\":7834:7838   */\n      0x20\n        /* \"#utility.yul\":7829:7832   */\n      dup3\n        /* \"#utility.yul\":7825:7839   */\n      add\n        /* \"#utility.yul\":7810:7839   */\n      swap1\n      pop\n        /* \"#utility.yul\":7676:7845   */\n      swap3\n      swap2\n      pop\n      pop\n      jump\t// out\n        /* \"#utility.yul\":7851:8024   */\n    tag_223:\n        /* \"#utility.yul\":7991:8016   */\n      0x4f6e6c79205061726b2063616e2063616c6c2074686973000000000000000000\n        /* \"#utility.yul\":7987:7988   */\n      0x00\n        /* \"#utility.yul\":7979:7985   */\n      dup3\n        /* \"#utility.yul\":7975:7989   */\n      add\n        /* \"#utility.yul\":7968:8017   */\n      mstore\n        /* \"#utility.yul\":7851:8024   */\n      pop\n      jump\t// out\n        /* \"#utility.yul\":8030:8396   */\n    tag_224:\n        /* \"#utility.yul\":8172:8175   */\n      0x00\n        /* \"#utility.yul\":8193:8260   */\n      tag_323\n        /* \"#utility.yul\":8257:8259   */\n      0x17\n        /* \"#utility.yul\":8252:8255   */\n      dup4\n        /* \"#utility.yul\":8193:8260   */\n      tag_222\n      jump\t// in\n    tag_323:\n        /* \"#utility.yul\":8186:8260   */\n      swap2\n      pop\n        /* \"#utility.yul\":8269:8362   */\n      tag_324\n        /* \"#utility.yul\":8358:8361   */\n      dup3\n        /* \"#utility.yul\":8269:8362   */\n      tag_223\n      jump\t// in\n    tag_324:\n        /* \"#utility.yul\":8387:8389   */\n      0x20\n        /* \"#utility.yul\":8382:8385   */\n      dup3\n        /* \"#utility.yul\":8378:8390   */\n      add\n        /* \"#utility.yul\":8371:8390   */\n      swap1\n      pop\n        /* \"#utility.yul\":8030:8396   */\n      swap2\n      swap1\n      pop\n      jump\t// out\n        /* \"#utility.yul\":8402:8821   */\n    tag_61:\n        /* \"#utility.yul\":8568:8572   */\n      0x00\n        /* \"#utility.yul\":8606:8608   */\n      0x20\n        /* \"#utility.yul\":8595:8604   */\n      dup3\n        /* \"#utility.yul\":8591:8609   */\n      add\n        /* \"#utility.yul\":8583:8609   */\n      swap1\n      pop\n        /* \"#utility.yul\":8655:8664   */\n      dup2\n        /* \"#utility.yul\":8649:8653   */\n      dup2\n        /* \"#utility.yul\":8645:8665   */\n      sub\n        /* \"#utility.yul\":8641:8642   */\n      0x00\n        /* \"#utility.yul\":8630:8639   */\n      dup4\n        /* \"#utility.yul\":8626:8643   */\n      add\n        /* \"#utility.yul\":8619:8666   */\n      mstore\n        /* \"#utility.yul\":8683:8814   */\n      tag_326\n        /* \"#utility.yul\":8809:8813   */\n      dup2\n        /* \"#utility.yul\":8683:8814   */\n      tag_224\n      jump\t// in\n    tag_326:\n        /* \"#utility.yul\":8675:8814   */\n      swap1\n      pop\n        /* \"#utility.yul\":8402:8821   */\n      swap2\n      swap1\n      pop\n      jump\t// out\n        /* \"#utility.yul\":8827:9007   */\n    tag_225:\n        /* \"#utility.yul\":8875:8952   */\n      0x4e487b7100000000000000000000000000000000000000000000000000000000\n        /* \"#utility.yul\":8872:8873   */\n      0x00\n        /* \"#utility.yul\":8865:8953   */\n      mstore\n        /* \"#utility.yul\":8972:8976   */\n      0x11\n        /* \"#utility.yul\":8969:8970   */\n      0x04\n        /* \"#utility.yul\":8962:8977   */\n      mstore\n        /* \"#utility.yul\":8996:9000   */\n      0x24\n        /* \"#utility.yul\":8993:8994   */\n      0x00\n        /* \"#utility.yul\":8986:9001   */\n      revert\n        /* \"#utility.yul\":9013:9207   */\n    tag_68:\n        /* \"#utility.yul\":9053:9057   */\n      0x00\n        /* \"#utility.yul\":9073:9093   */\n      tag_329\n        /* \"#utility.yul\":9091:9092   */\n      dup3\n        /* \"#utility.yul\":9073:9093   */\n      tag_200\n      jump\t// in\n    tag_329:\n        /* \"#utility.yul\":9068:9093   */\n      swap2\n      pop\n        /* \"#utility.yul\":9107:9127   */\n      tag_330\n        /* \"#utility.yul\":9125:9126   */\n      dup4\n        /* \"#utility.yul\":9107:9127   */\n      tag_200\n      jump\t// in\n    tag_330:\n        /* \"#utility.yul\":9102:9127   */\n      swap3\n      pop\n        /* \"#utility.yul\":9151:9152   */\n      dup3\n        /* \"#utility.yul\":9148:9149   */\n      dup3\n        /* \"#utility.yul\":9144:9153   */\n      sub\n        /* \"#utility.yul\":9136:9153   */\n      swap1\n      pop\n        /* \"#utility.yul\":9175:9176   */\n      dup2\n        /* \"#utility.yul\":9169:9173   */\n      dup2\n        /* \"#utility.yul\":9166:9177   */\n      gt\n        /* \"#utility.yul\":9163:9200   */\n      iszero\n      tag_331\n      jumpi\n        /* \"#utility.yul\":9180:9198   */\n      tag_332\n      tag_225\n      jump\t// in\n    tag_332:\n        /* \"#utility.yul\":9163:9200   */\n    tag_331:\n        /* \"#utility.yul\":9013:9207   */\n      swap3\n      swap2\n      pop\n      pop\n      jump\t// out\n        /* \"#utility.yul\":9213:9383   */\n    tag_226:\n        /* \"#utility.yul\":9353:9375   */\n      0x4f6e6c79205061726b2063616e20696e73757265000000000000000000000000\n        /* \"#utility.yul\":9349:9350   */\n      0x00\n        /* \"#utility.yul\":9341:9347   */\n      dup3\n        /* \"#utility.yul\":9337:9351   */\n      add\n        /* \"#utility.yul\":9330:9376   */\n      mstore\n        /* \"#utility.yul\":9213:9383   */\n      pop\n      jump\t// out\n        /* \"#utility.yul\":9389:9755   */\n    tag_227:\n        /* \"#utility.yul\":9531:9534   */\n      0x00\n        /* \"#utility.yul\":9552:9619   */\n      tag_335\n        /* \"#utility.yul\":9616:9618   */\n      0x14\n        /* \"#utility.yul\":9611:9614   */\n      dup4\n        /* \"#utility.yul\":9552:9619   */\n      tag_222\n      jump\t// in\n    tag_335:\n        /* \"#utility.yul\":9545:9619   */\n      swap2\n      pop\n        /* \"#utility.yul\":9628:9721   */\n      tag_336\n        /* \"#utility.yul\":9717:9720   */\n      dup3\n        /* \"#utility.yul\":9628:9721   */\n      tag_226\n      jump\t// in\n    tag_336:\n        /* \"#utility.yul\":9746:9748   */\n      0x20\n        /* \"#utility.yul\":9741:9744   */\n      dup3\n        /* \"#utility.yul\":9737:9749   */\n      add\n        /* \"#utility.yul\":9730:9749   */\n      swap1\n      pop\n        /* \"#utility.yul\":9389:9755   */\n      swap2\n      swap1\n      pop\n      jump\t// out\n        /* \"#utility.yul\":9761:10180   */\n    tag_73:\n        /* \"#utility.yul\":9927:9931   */\n      0x00\n        /* \"#utility.yul\":9965:9967   */\n      0x20\n        /* \"#utility.yul\":9954:9963   */\n      dup3\n        /* \"#utility.yul\":9950:9968   */\n      add\n        /* \"#utility.yul\":9942:9968   */\n      swap1\n      pop\n        /* \"#utility.yul\":10014:10023   */\n      dup2\n        /* \"#utility.yul\":10008:10012   */\n      dup2\n        /* \"#utility.yul\":10004:10024   */\n      sub\n        /* \"#utility.yul\":10000:10001   */\n      0x00\n        /* \"#utility.yul\":9989:9998   */\n      dup4\n        /* \"#utility.yul\":9985:10002   */\n      add\n        /* \"#utility.yul\":9978:10025   */\n      mstore\n        /* \"#utility.yul\":10042:10173   */\n      tag_338\n        /* \"#utility.yul\":10168:10172   */\n      dup2\n        /* \"#utility.yul\":10042:10173   */\n      tag_227\n      jump\t// in\n    tag_338:\n        /* \"#utility.yul\":10034:10173   */\n      swap1\n      pop\n        /* \"#utility.yul\":9761:10180   */\n      swap2\n      swap1\n      pop\n      jump\t// out\n        /* \"#utility.yul\":10186:10419   */\n    tag_86:\n        /* \"#utility.yul\":10225:10228   */\n      0x00\n        /* \"#utility.yul\":10248:10272   */\n      tag_340\n        /* \"#utility.yul\":10266:10271   */\n      dup3\n        /* \"#utility.yul\":10248:10272   */\n      tag_200\n      jump\t// in\n    tag_340:\n        /* \"#utility.yul\":10239:10272   */\n      swap2\n      pop\n        /* \"#utility.yul\":10294:10360   */\n      0xffffffffffffffffffffffffffffffffffffffffffffffffffffffffffffffff\n        /* \"#utility.yul\":10287:10292   */\n      dup3\n        /* \"#utility.yul\":10284:10361   */\n      sub\n        /* \"#utility.yul\":10281:10384   */\n      tag_341\n      jumpi\n        /* \"#utility.yul\":10364:10382   */\n      tag_342\n      tag_225\n      jump\t// in\n    tag_342:\n        /* \"#utility.yul\":10281:10384   */\n    tag_341:\n        /* \"#utility.yul\":10411:10412   */\n      0x01\n        /* \"#utility.yul\":10404:10409   */\n      dup3\n        /* \"#utility.yul\":10400:10413   */\n      add\n        /* \"#utility.yul\":10393:10413   */\n      swap1\n      pop\n        /* \"#utility.yul\":10186:10419   */\n      swap2\n      swap1\n      pop\n      jump\t// out\n        /* \"#utility.yul\":10425:10591   */\n    tag_228:\n        /* \"#utility.yul\":10565:10583   */\n      0x5061726b20616c72656164792073657400000000000000000000000000000000\n        /* \"#utility.yul\":10561:10562   */\n      0x00\n        /* \"#utility.yul\":10553:10559   */\n      dup3\n        /* \"#utility.yul\":10549:10563   */\n      add\n        /* \"#utility.yul\":10542:10584   */\n      mstore\n        /* \"#utility.yul\":10425:10591   */\n      pop\n      jump\t// out\n        /* \"#utility.yul\":10597:10963   */\n    tag_229:\n        /* \"#utility.yul\":10739:10742   */\n      0x00\n        /* \"#utility.yul\":10760:10827   */\n      tag_345\n        /* \"#utility.yul\":10824:10826   */\n      0x10\n        /* \"#utility.yul\":10819:10822   */\n      dup4\n        /* \"#utility.yul\":10760:10827   */\n      tag_222\n      jump\t// in\n    tag_345:\n        /* \"#utility.yul\":10753:10827   */\n      swap2\n      pop\n        /* \"#utility.yul\":10836:10929   */\n      tag_346\n        /* \"#utility.yul\":10925:10928   */\n      dup3\n        /* \"#utility.yul\":10836:10929   */\n      tag_228\n      jump\t// in\n    tag_346:\n        /* \"#utility.yul\":10954:10956   */\n      0x20\n        /* \"#utility.yul\":10949:10952   */\n      dup3\n        /* \"#utility.yul\":10945:10957   */\n      add\n        /* \"#utility.yul\":10938:10957   */\n      swap1\n      pop\n        /* \"#utility.yul\":10597:10963   */\n      swap2\n      swap1\n      pop\n      jump\t// out\n        /* \"#utility.yul\":10969:11388   */\n    tag_90:\n        /* \"#utility.yul\":11135:11139   */\n      0x00\n        /* \"#utility.yul\":11173:11175   */\n      0x20\n        /* \"#utility.yul\":11162:11171   */\n      dup3\n        /* \"#utility.yul\":11158:11176   */\n      add\n        /* \"#utility.yul\":11150:11176   */\n      swap1\n      pop\n        /* \"#utility.yul\":11222:11231   */\n      dup2\n        /* \"#utility.yul\":11216:11220   */\n      dup2\n        /* \"#utility.yul\":11212:11232   */\n      sub\n        /* \"#utility.yul\":11208:11209   */\n      0x00\n        /* \"#utility.yul\":11197:11206   */\n      dup4\n        /* \"#utility.yul\":11193:11210   */\n      add\n        /* \"#utility.yul\":11186:11233   */\n      mstore\n        /* \"#utility.yul\":11250:11381   */\n      tag_348\n        /* \"#utility.yul\":11376:11380   */\n      dup2\n        /* \"#utility.yul\":11250:11381   */\n      tag_229\n      jump\t// in\n    tag_348:\n        /* \"#utility.yul\":11242:11381   */\n      swap1\n      pop\n        /* \"#utility.yul\":10969:11388   */\n      swap2\n      swap1\n      pop\n      jump\t// out\n        /* \"#utility.yul\":11394:11804   */\n    tag_104:\n        /* \"#utility.yul\":11434:11441   */\n      0x00\n        /* \"#utility.yul\":11457:11477   */\n      tag_350\n        /* \"#utility.yul\":11475:11476   */\n      dup3\n        /* \"#utility.yul\":11457:11477   */\n      tag_200\n      jump\t// in\n    tag_350:\n        /* \"#utility.yul\":11452:11477   */\n      swap2\n      pop\n        /* \"#utility.yul\":11491:11511   */\n      tag_351\n        /* \"#utility.yul\":11509:11510   */\n      dup4\n        /* \"#utility.yul\":11491:11511   */\n      tag_200\n      jump\t// in\n    tag_351:\n        /* \"#utility.yul\":11486:11511   */\n      swap3\n      pop\n        /* \"#utility.yul\":11546:11547   */\n      dup3\n        /* \"#utility.yul\":11543:11544   */\n      dup3\n        /* \"#utility.yul\":11539:11548   */\n      mul\n        /* \"#utility.yul\":11568:11598   */\n      tag_352\n        /* \"#utility.yul\":11586:11597   */\n      dup2\n        /* \"#utility.yul\":11568:11598   */\n      tag_200\n      jump\t// in\n    tag_352:\n        /* \"#utility.yul\":11557:11598   */\n      swap2\n      pop\n        /* \"#utility.yul\":11747:11748   */\n      dup3\n        /* \"#utility.yul\":11738:11745   */\n      dup3\n        /* \"#utility.yul\":11734:11749   */\n      div\n        /* \"#utility.yul\":11731:11732   */\n      dup5\n        /* \"#utility.yul\":11728:11750   */\n      eq\n        /* \"#utility.yul\":11708:11709   */\n      dup4\n        /* \"#utility.yul\":11701:11710   */\n      iszero\n        /* \"#utility.yul\":11681:11764   */\n      or\n        /* \"#utility.yul\":11658:11797   */\n      tag_353\n      jumpi\n        /* \"#utility.yul\":11777:11795   */\n      tag_354\n      tag_225\n      jump\t// in\n    tag_354:\n        /* \"#utility.yul\":11658:11797   */\n    tag_353:\n        /* \"#utility.yul\":11442:11804   */\n      pop\n        /* \"#utility.yul\":11394:11804   */\n      swap3\n      swap2\n      pop\n      pop\n      jump\t// out\n        /* \"#utility.yul\":11810:11990   */\n    tag_230:\n        /* \"#utility.yul\":11858:11935   */\n      0x4e487b7100000000000000000000000000000000000000000000000000000000\n        /* \"#utility.yul\":11855:11856   */\n      0x00\n        /* \"#utility.yul\":11848:11936   */\n      mstore\n        /* \"#utility.yul\":11955:11959   */\n      0x12\n        /* \"#utility.yul\":11952:11953   */\n      0x04\n        /* \"#utility.yul\":11945:11960   */\n      mstore\n        /* \"#utility.yul\":11979:11983   */\n      0x24\n        /* \"#utility.yul\":11976:11977   */\n      0x00\n        /* \"#utility.yul\":11969:11984   */\n      revert\n        /* \"#utility.yul\":11996:12181   */\n    tag_106:\n        /* \"#utility.yul\":12036:12037   */\n      0x00\n        /* \"#utility.yul\":12053:12073   */\n      tag_357\n        /* \"#utility.yul\":12071:12072   */\n      dup3\n        /* \"#utility.yul\":12053:12073   */\n      tag_200\n      jump\t// in\n    tag_357:\n        /* \"#utility.yul\":12048:12073   */\n      swap2\n      pop\n        /* \"#utility.yul\":12087:12107   */\n      tag_358\n        /* \"#utility.yul\":12105:12106   */\n      dup4\n        /* \"#utility.yul\":12087:12107   */\n      tag_200\n      jump\t// in\n    tag_358:\n        /* \"#utility.yul\":12082:12107   */\n      swap3\n      pop\n        /* \"#utility.yul\":12126:12127   */\n      dup3\n        /* \"#utility.yul\":12116:12151   */\n      tag_359\n      jumpi\n        /* \"#utility.yul\":12131:12149   */\n      tag_360\n      tag_230\n      jump\t// in\n    tag_360:\n        /* \"#utility.yul\":12116:12151   */\n    tag_359:\n        /* \"#utility.yul\":12173:12174   */\n      dup3\n        /* \"#utility.yul\":12170:12171   */\n      dup3\n        /* \"#utility.yul\":12166:12175   */\n      div\n        /* \"#utility.yul\":12161:12175   */\n      swap1\n      pop\n        /* \"#utility.yul\":11996:12181   */\n      swap3\n      swap2\n      pop\n      pop\n      jump\t// out\n        /* \"#utility.yul\":12187:12378   */\n    tag_108:\n        /* \"#utility.yul\":12227:12230   */\n      0x00\n        /* \"#utility.yul\":12246:12266   */\n      tag_362\n        /* \"#utility.yul\":12264:12265   */\n      dup3\n        /* \"#utility.yul\":12246:12266   */\n      tag_200\n      jump\t// in\n    tag_362:\n        /* \"#utility.yul\":12241:12266   */\n      swap2\n      pop\n        /* \"#utility.yul\":12280:12300   */\n      tag_363\n        /* \"#utility.yul\":12298:12299   */\n      dup4\n        /* \"#utility.yul\":12280:12300   */\n      tag_200\n      jump\t// in\n    tag_363:\n        /* \"#utility.yul\":12275:12300   */\n      swap3\n      pop\n        /* \"#utility.yul\":12323:12324   */\n      dup3\n        /* \"#utility.yul\":12320:12321   */\n      dup3\n        /* \"#utility.yul\":12316:12325   */\n      add\n        /* \"#utility.yul\":12309:12325   */\n      swap1\n      pop\n        /* \"#utility.yul\":12344:12347   */\n      dup1\n        /* \"#utility.yul\":12341:12342   */\n      dup3\n        /* \"#utility.yul\":12338:12348   */\n      gt\n        /* \"#utility.yul\":12335:12371   */\n      iszero\n      tag_364\n      jumpi\n        /* \"#utility.yul\":12351:12369   */\n      tag_365\n      tag_225\n      jump\t// in\n    tag_365:\n        /* \"#utility.yul\":12335:12371   */\n    tag_364:\n        /* \"#utility.yul\":12187:12378   */\n      swap3\n      swap2\n      pop\n      pop\n      jump\t// out\n        /* \"#utility.yul\":12384:12463   */\n    tag_231:\n        /* \"#utility.yul\":12423:12430   */\n      0x00\n        /* \"#utility.yul\":12452:12457   */\n      dup2\n        /* \"#utility.yul\":12441:12457   */\n      swap1\n      pop\n        /* \"#utility.yul\":12384:12463   */\n      swap2\n      swap1\n      pop\n      jump\t// out\n        /* \"#utility.yul\":12469:12626   */\n    tag_232:\n        /* \"#utility.yul\":12574:12619   */\n      tag_368\n        /* \"#utility.yul\":12594:12618   */\n      tag_369\n        /* \"#utility.yul\":12612:12617   */\n      dup3\n        /* \"#utility.yul\":12594:12618   */\n      tag_200\n      jump\t// in\n    tag_369:\n        /* \"#utility.yul\":12574:12619   */\n      tag_231\n      jump\t// in\n    tag_368:\n        /* \"#utility.yul\":12569:12572   */\n      dup3\n        /* \"#utility.yul\":12562:12620   */\n      mstore\n        /* \"#utility.yul\":12469:12626   */\n      pop\n      pop\n      jump\t// out\n        /* \"#utility.yul\":12632:13029   */\n    tag_121:\n        /* \"#utility.yul\":12772:12775   */\n      0x00\n        /* \"#utility.yul\":12787:12862   */\n      tag_371\n        /* \"#utility.yul\":12858:12861   */\n      dup3\n        /* \"#utility.yul\":12849:12855   */\n      dup6\n        /* \"#utility.yul\":12787:12862   */\n      tag_232\n      jump\t// in\n    tag_371:\n        /* \"#utility.yul\":12887:12889   */\n      0x20\n        /* \"#utility.yul\":12882:12885   */\n      dup3\n        /* \"#utility.yul\":12878:12890   */\n      add\n        /* \"#utility.yul\":12871:12890   */\n      swap2\n      pop\n        /* \"#utility.yul\":12900:12975   */\n      tag_372\n        /* \"#utility.yul\":12971:12974   */\n      dup3\n        /* \"#utility.yul\":12962:12968   */\n      dup5\n        /* \"#utility.yul\":12900:12975   */\n      tag_232\n      jump\t// in\n    tag_372:\n        /* \"#utility.yul\":13000:13002   */\n      0x20\n        /* \"#utility.yul\":12995:12998   */\n      dup3\n        /* \"#utility.yul\":12991:13003   */\n      add\n        /* \"#utility.yul\":12984:13003   */\n      swap2\n      pop\n        /* \"#utility.yul\":13020:13023   */\n      dup2\n        /* \"#utility.yul\":13013:13023   */\n      swap1\n      pop\n        /* \"#utility.yul\":12632:13029   */\n      swap4\n      swap3\n      pop\n      pop\n      pop\n      jump\t// out\n        /* \"#utility.yul\":13035:13211   */\n    tag_123:\n        /* \"#utility.yul\":13067:13068   */\n      0x00\n        /* \"#utility.yul\":13084:13104   */\n      tag_374\n        /* \"#utility.yul\":13102:13103   */\n      dup3\n        /* \"#utility.yul\":13084:13104   */\n      tag_200\n      jump\t// in\n    tag_374:\n        /* \"#utility.yul\":13079:13104   */\n      swap2\n      pop\n        /* \"#utility.yul\":13118:13138   */\n      tag_375\n        /* \"#utility.yul\":13136:13137   */\n      dup4\n        /* \"#utility.yul\":13118:13138   */\n      tag_200\n      jump\t// in\n    tag_375:\n        /* \"#utility.yul\":13113:13138   */\n      swap3\n      pop\n        /* \"#utility.yul\":13157:13158   */\n      dup3\n        /* \"#utility.yul\":13147:13182   */\n      tag_376\n      jumpi\n        /* \"#utility.yul\":13162:13180   */\n      tag_377\n      tag_230\n      jump\t// in\n    tag_377:\n        /* \"#utility.yul\":13147:13182   */\n    tag_376:\n        /* \"#utility.yul\":13203:13204   */\n      dup3\n        /* \"#utility.yul\":13200:13201   */\n      dup3\n        /* \"#utility.yul\":13196:13205   */\n      mod\n        /* \"#utility.yul\":13191:13205   */\n      swap1\n      pop\n        /* \"#utility.yul\":13035:13211   */\n      swap3\n      swap2\n      pop\n      pop\n      jump\t// out\n        /* \"#utility.yul\":13217:13382   */\n    tag_233:\n        /* \"#utility.yul\":13357:13374   */\n      0x556e6b6e6f776e20737065636965730000000000000000000000000000000000\n        /* \"#utility.yul\":13353:13354   */\n      0x00\n        /* \"#utility.yul\":13345:13351   */\n      dup3\n        /* \"#utility.yul\":13341:13355   */\n      add\n        /* \"#utility.yul\":13334:13375   */\n      mstore\n        /* \"#utility.yul\":13217:13382   */\n      pop\n      jump\t// out\n        /* \"#utility.yul\":13388:13754   */\n    tag_234:\n        /* \"#utility.yul\":13530:13533   */\n      0x00\n        /* \"#utility.yul\":13551:13618   */\n      tag_380\n        /* \"#utility.yul\":13615:13617   */\n      0x0f\n        /* \"#utility.yul\":13610:13613   */\n      dup4\n        /* \"#utility.yul\":13551:13618   */\n      tag_222\n      jump\t// in\n    tag_380:\n        /* \"#utility.yul\":13544:13618   */\n      swap2\n      pop\n        /* \"#utility.yul\":13627:13720   */\n      tag_381\n        /* \"#utility.yul\":13716:13719   */\n      dup3\n        /* \"#utility.yul\":13627:13720   */\n      tag_233\n      jump\t// in\n    tag_381:\n        /* \"#utility.yul\":13745:13747   */\n      0x20\n        /* \"#utility.yul\":13740:13743   */\n      dup3\n        /* \"#utility.yul\":13736:13748   */\n      add\n        /* \"#utility.yul\":13729:13748   */\n      swap1\n      pop\n        /* \"#utility.yul\":13388:13754   */\n      swap2\n      swap1\n      pop\n      jump\t// out\n        /* \"#utility.yul\":13760:14179   */\n    tag_194:\n        /* \"#utility.yul\":13926:13930   */\n      0x00\n        /* \"#utility.yul\":13964:13966   */\n      0x20\n        /* \"#utility.yul\":13953:13962   */\n      dup3\n        /* \"#utility.yul\":13949:13967   */\n      add\n        /* \"#utility.yul\":13941:13967   */\n      swap1\n      pop\n        /* \"#utility.yul\":14013:14022   */\n      dup2\n        /* \"#utility.yul\":14007:14011   */\n      dup2\n        /* \"#utility.yul\":14003:14023   */\n      sub\n        /* \"#utility.yul\":13999:14000   */\n      0x00\n        /* \"#utility.yul\":13988:13997   */\n      dup4\n        /* \"#utility.yul\":13984:14001   */\n      add\n        /* \"#utility.yul\":13977:14024   */\n      mstore\n        /* \"#utility.yul\":14041:14172   */\n      tag_383\n        /* \"#utility.yul\":14167:14171   */\n      dup2\n        /* \"#utility.yul\":14041:14172   */\n      tag_234\n      jump\t// in\n    tag_383:\n        /* \"#utility.yul\":14033:14172   */\n      swap1\n      pop\n        /* \"#utility.yul\":13760:14179   */\n      swap2\n      swap1\n      pop\n      jump\t// out\n    stop\n    data_1ffc5c99f8ff866cb3cb9bd46d45453badb8f26649052a31a9be49b9b43149da 68747470733a2f2f676174657761792e70696e6174612e636c6f75642f697066732f6261667962656961336c65346173746b6e683270346d626b64357734326a353232746e73653477786b3777356d3777696d6f716470366f757a7079\n    data_3bbf1c81af77207dbf9db8f891697113273de930322fc10149aebcb2d416dad6 68747470733a2f2f676174657761792e70696e6174612e636c6f75642f697066732f626166796265696576377075637a377968377836686169646d7068703569656f6276636664636c6e6c776a71613269767334793335377076776d61\n    data_86e92b1a76e2f297d69c89af4232d1b3e647fd322843457f38b762c99d8ee708 68747470733a2f2f676174657761792e70696e6174612e636c6f75642f697066732f62616679626569676f686f746f6b366b336f6e76746a797970666e626e7a6263736f327163697862777a34776836347670326e336c71376e6b7361\n\n    auxdata: 0xa2646970667358221220ec3d57eac8b06aa7e01e84a4c6854906bf5a0c2e67e64b6a1a855338be83dc8664736f6c634300081e0033\n}\n",
				"bytecode": {
					"linkReferences": {},
					"object": "608060405234801561000f575f5ffd5b506040516117d43803806117d4833981810160405281019061003191906100d5565b8060025f6101000a81548173ffffffffffffffffffffffffffffffffffffffff021916908373ffffffffffffffffffffffffffffffffffffffff16021790555050610100565b5f5ffd5b5f73ffffffffffffffffffffffffffffffffffffffff82169050919050565b5f6100a48261007b565b9050919050565b6100b48161009a565b81146100be575f5ffd5b50565b5f815190506100cf816100ab565b92915050565b5f602082840312156100ea576100e9610077565b5b5f6100f7848285016100c1565b91505092915050565b6116c78061010d5f395ff3fe608060405234801561000f575f5ffd5b506004361061009c575f3560e01c806361b8ce8c1161006457806361b8ce8c146101545780636ec88bbd1461017257806372680a77146101a2578063a2b7ce6f146101c0578063ec1c5955146101dc5761009c565b806316cb4a05146100a05780631942d199146100d057806349b1a0bf146100ec5780634d2d7881146101085780634e9c7df814610138575b5f5ffd5b6100ba60048036038101906100b59190610e86565b610210565b6040516100c79190610ecb565b60405180910390f35b6100ea60048036038101906100e59190610ee4565b61022d565b005b61010660048036038101906101019190610e86565b61031a565b005b610122600480360381019061011d9190610f45565b6103d5565b60405161012f9190610f88565b60405180910390f35b610152600480360381019061014d9190610ffb565b610537565b005b61015c610609565b6040516101699190611035565b60405180910390f35b61018c60048036038101906101879190610e86565b61060f565b6040516101999190611136565b60405180910390f35b6101aa6106a3565b6040516101b7919061115e565b60405180910390f35b6101da60048036038101906101d59190610e86565b6106c8565b005b6101f660048036038101906101f19190610e86565b6107c4565b604051610207959493929190611186565b60405180910390f35b6003602052805f5260405f205f915054906101000a900460ff1681565b60025f9054906101000a900473ffffffffffffffffffffffffffffffffffffffff1673ffffffffffffffffffffffffffffffffffffffff163373ffffffffffffffffffffffffffffffffffffffff16146102bc576040517f08c379a00000000000000000000000000000000000000000000000000000000081526004016102b390611231565b60405180910390fd5b6102c5826106c8565b5f5f5f8481526020019081526020015f2090506102e183610801565b8181600101541061030b5781816001015f8282546102ff919061127c565b92505081905550610315565b5f81600101819055505b505050565b60025f9054906101000a900473ffffffffffffffffffffffffffffffffffffffff1673ffffffffffffffffffffffffffffffffffffffff163373ffffffffffffffffffffffffffffffffffffffff16146103a9576040517f08c379a00000000000000000000000000000000000000000000000000000000081526004016103a0906112f9565b60405180910390fd5b600160035f8381526020019081526020015f205f6101000a81548160ff02191690831515021790555050565b5f60025f9054906101000a900473ffffffffffffffffffffffffffffffffffffffff1673ffffffffffffffffffffffffffffffffffffffff163373ffffffffffffffffffffffffffffffffffffffff1614610465576040517f08c379a000000000000000000000000000000000000000000000000000000000815260040161045c90611231565b60405180910390fd5b5f61046f836108df565b90506040518060a001604052805f81526020015f8152602001825f0151815260200184600a8111156104a4576104a361105d565b5b8152602001428152505f5f60015481526020019081526020015f205f820151815f015560208201518160010155604082015181600201556060820151816003015f6101000a81548160ff0219169083600a8111156105055761050461105d565b5b02179055506080820151816004015590505060015f81548092919061052990611317565b91905055505f915050919050565b5f73ffffffffffffffffffffffffffffffffffffffff1660025f9054906101000a900473ffffffffffffffffffffffffffffffffffffffff1673ffffffffffffffffffffffffffffffffffffffff16146105c6576040517f08c379a00000000000000000000000000000000000000000000000000000000081526004016105bd906113a8565b60405180910390fd5b8060025f6101000a81548173ffffffffffffffffffffffffffffffffffffffff021916908373ffffffffffffffffffffffffffffffffffffffff16021790555050565b60015481565b610617610de8565b610620826106c8565b5f5f8381526020019081526020015f206040518060a00160405290815f82015481526020016001820154815260200160028201548152602001600382015f9054906101000a900460ff16600a81111561067c5761067b61105d565b5b600a81111561068e5761068d61105d565b5b81526020016004820154815250509050919050565b60025f9054906101000a900473ffffffffffffffffffffffffffffffffffffffff1681565b5f5f5f8381526020019081526020015f2090505f8160040154426106ec919061127c565b90505f8111156107bf575f610e10610713846003015f9054906101000a900460ff166108df565b604001518361072291906113c6565b61072c9190611434565b905080836001015f8282546107419190611464565b925050819055505f610762846003015f9054906101000a900460ff166108df565b602001519050808460010154111561077e578084600101819055505b5f620151808461078e9190611434565b90505f8111156107b25780855f015f8282546107aa9190611464565b925050819055505b4285600401819055505050505b505050565b5f602052805f5260405f205f91509050805f015490806001015490806002015490806003015f9054906101000a900460ff16908060040154905085565b610809610e24565b5f5f5f8481526020019081526020015f209050610835816003015f9054906101000a900460ff166108df565b915060035f8481526020019081526020015f205f9054906101000a900460ff166108da575f610873826003015f9054906101000a900460ff166108df565b6060015190505f6064428660405160200161088f9291906114b7565b604051602081830303815290604052805190602001205f1c6108b191906114e2565b9050818110156108d7576019836002015f8282546108cf919061127c565b925050819055505b50505b505050565b6108e7610e24565b5f600a8111156108fa576108f961105d565b5b82600a81111561090d5761090c61105d565b5b0361095c576040518060a0016040528060c881526020016096815260200160038152602001600181526020016040518060800160405280605d815260200161157b605d91398152509050610de3565b6001600a8111156109705761096f61105d565b5b82600a8111156109835761098261105d565b5b036109d2576040518060a0016040528060dc815260200160c8815260200160028152602001600581526020016040518060800160405280605d8152602001611635605d91398152509050610de3565b6002600a8111156109e6576109e561105d565b5b82600a8111156109f9576109f861105d565b5b03610a48576040518060a00160405280605081526020016050815260200160038152602001600681526020016040518060800160405280605d81526020016115d8605d91398152509050610de3565b600a80811115610a5b57610a5a61105d565b5b82600a811115610a6e57610a6d61105d565b5b03610ab4576040518060a0016040528061012c815260200161012c8152602001600181526020015f815260200160405180602001604052805f8152508152509050610de3565b6003600a811115610ac857610ac761105d565b5b82600a811115610adb57610ada61105d565b5b03610b20576040518060a0016040528060b48152602001605a8152602001600281526020016004815260200160405180602001604052805f8152508152509050610de3565b6004600a811115610b3457610b3361105d565b5b82600a811115610b4757610b4661105d565b5b03610b8c576040518060a001604052806050815260200160468152602001600281526020016008815260200160405180602001604052805f8152508152509050610de3565b6005600a811115610ba057610b9f61105d565b5b82600a811115610bb357610bb261105d565b5b03610bf8576040518060a0016040528060328152602001603c8152602001600481526020016005815260200160405180602001604052805f8152508152509050610de3565b6006600a811115610c0c57610c0b61105d565b5b82600a811115610c1f57610c1e61105d565b5b03610c64576040518060a001604052806037815260200160288152602001600381526020016004815260200160405180602001604052805f8152508152509050610de3565b6007600a811115610c7857610c7761105d565b5b82600a811115610c8b57610c8a61105d565b5b03610cd0576040518060a00160405280604e815260200160418152602001600281526020016004815260200160405180602001604052805f8152508152509050610de3565b6008600a811115610ce457610ce361105d565b5b82600a811115610cf757610cf661105d565b5b03610d3c576040518060a001604052806096815260200160648152602001600481526020016003815260200160405180602001604052805f8152508152509050610de3565b6009600a811115610d5057610d4f61105d565b5b82600a811115610d6357610d6261105d565b5b03610da8576040518060a001604052806023815260200160428152602001600481526020016005815260200160405180602001604052805f8152508152509050610de3565b6040517f08c379a0000000000000000000000000000000000000000000000000000000008152600401610dda9061155c565b60405180910390fd5b919050565b6040518060a001604052805f81526020015f81526020015f81526020015f600a811115610e1857610e1761105d565b5b81526020015f81525090565b6040518060a001604052805f81526020015f81526020015f81526020015f8152602001606081525090565b5f5ffd5b5f819050919050565b610e6581610e53565b8114610e6f575f5ffd5b50565b5f81359050610e8081610e5c565b92915050565b5f60208284031215610e9b57610e9a610e4f565b5b5f610ea884828501610e72565b91505092915050565b5f8115159050919050565b610ec581610eb1565b82525050565b5f602082019050610ede5f830184610ebc565b92915050565b5f5f60408385031215610efa57610ef9610e4f565b5b5f610f0785828601610e72565b9250506020610f1885828601610e72565b9150509250929050565b600b8110610f2e575f5ffd5b50565b5f81359050610f3f81610f22565b92915050565b5f60208284031215610f5a57610f59610e4f565b5b5f610f6784828501610f31565b91505092915050565b5f819050919050565b610f8281610f70565b82525050565b5f602082019050610f9b5f830184610f79565b92915050565b5f73ffffffffffffffffffffffffffffffffffffffff82169050919050565b5f610fca82610fa1565b9050919050565b610fda81610fc0565b8114610fe4575f5ffd5b50565b5f81359050610ff581610fd1565b92915050565b5f602082840312156110105761100f610e4f565b5b5f61101d84828501610fe7565b91505092915050565b61102f81610e53565b82525050565b5f6020820190506110485f830184611026565b92915050565b61105781610e53565b82525050565b7f4e487b71000000000000000000000000000000000000000000000000000000005f52602160045260245ffd5b600b811061109b5761109a61105d565b5b50565b5f8190506110ab8261108a565b919050565b5f6110ba8261109e565b9050919050565b6110ca816110b0565b82525050565b60a082015f8201516110e45f85018261104e565b5060208201516110f7602085018261104e565b50604082015161110a604085018261104e565b50606082015161111d60608501826110c1565b506080820151611130608085018261104e565b50505050565b5f60a0820190506111495f8301846110d0565b92915050565b61115881610fc0565b82525050565b5f6020820190506111715f83018461114f565b92915050565b611180816110b0565b82525050565b5f60a0820190506111995f830188611026565b6111a66020830187611026565b6111b36040830186611026565b6111c06060830185611177565b6111cd6080830184611026565b9695505050505050565b5f82825260208201905092915050565b7f4f6e6c79205061726b2063616e2063616c6c20746869730000000000000000005f82015250565b5f61121b6017836111d7565b9150611226826111e7565b602082019050919050565b5f6020820190508181035f8301526112488161120f565b9050919050565b7f4e487b71000000000000000000000000000000000000000000000000000000005f52601160045260245ffd5b5f61128682610e53565b915061129183610e53565b92508282039050818111156112a9576112a861124f565b5b92915050565b7f4f6e6c79205061726b2063616e20696e737572650000000000000000000000005f82015250565b5f6112e36014836111d7565b91506112ee826112af565b602082019050919050565b5f6020820190508181035f830152611310816112d7565b9050919050565b5f61132182610e53565b91507fffffffffffffffffffffffffffffffffffffffffffffffffffffffffffffffff82036113535761135261124f565b5b600182019050919050565b7f5061726b20616c726561647920736574000000000000000000000000000000005f82015250565b5f6113926010836111d7565b915061139d8261135e565b602082019050919050565b5f6020820190508181035f8301526113bf81611386565b9050919050565b5f6113d082610e53565b91506113db83610e53565b92508282026113e981610e53565b91508282048414831517611400576113ff61124f565b5b5092915050565b7f4e487b71000000000000000000000000000000000000000000000000000000005f52601260045260245ffd5b5f61143e82610e53565b915061144983610e53565b92508261145957611458611407565b5b828204905092915050565b5f61146e82610e53565b915061147983610e53565b92508282019050808211156114915761149061124f565b5b92915050565b5f819050919050565b6114b16114ac82610e53565b611497565b82525050565b5f6114c282856114a0565b6020820191506114d282846114a0565b6020820191508190509392505050565b5f6114ec82610e53565b91506114f783610e53565b92508261150757611506611407565b5b828206905092915050565b7f556e6b6e6f776e207370656369657300000000000000000000000000000000005f82015250565b5f611546600f836111d7565b915061155182611512565b602082019050919050565b5f6020820190508181035f8301526115738161153a565b905091905056fe68747470733a2f2f676174657761792e70696e6174612e636c6f75642f697066732f6261667962656961336c65346173746b6e683270346d626b64357734326a353232746e73653477786b3777356d3777696d6f716470366f757a707968747470733a2f2f676174657761792e70696e6174612e636c6f75642f697066732f626166796265696576377075637a377968377836686169646d7068703569656f6276636664636c6e6c776a71613269767334793335377076776d6168747470733a2f2f676174657761792e70696e6174612e636c6f75642f697066732f62616679626569676f686f746f6b366b336f6e76746a797970666e626e7a6263736f327163697862777a34776836347670326e336c71376e6b7361a2646970667358221220ec3d57eac8b06aa7e01e84a4c6854906bf5a0c2e67e64b6a1a855338be83dc8664736f6c634300081e0033",
					"opcodes": "PUSH1 0x80 PUSH1 0x40 MSTORE CALLVALUE DUP1 ISZERO PUSH2 0xF JUMPI PUSH0 PUSH0 REVERT JUMPDEST POP PUSH1 0x40 MLOAD PUSH2 0x17D4 CODESIZE SUB DUP1 PUSH2 0x17D4 DUP4 CODECOPY DUP2 DUP2 ADD PUSH1 0x40 MSTORE DUP2 ADD SWAP1 PUSH2 0x31 SWAP2 SWAP1 PUSH2 0xD5 JUMP JUMPDEST DUP1 PUSH1 0x2 PUSH0 PUSH2 0x100 EXP DUP2 SLOAD DUP2 PUSH20 0xFFFFFFFFFFFFFFFFFFFFFFFFFFFFFFFFFFFFFFFF MUL NOT AND SWAP1 DUP4 PUSH20 0xFFFFFFFFFFFFFFFFFFFFFFFFFFFFFFFFFFFFFFFF AND MUL OR SWAP1 SSTORE POP POP PUSH2 0x100 JUMP JUMPDEST PUSH0 PUSH0 REVERT JUMPDEST PUSH0 PUSH20 0xFFFFFFFFFFFFFFFFFFFFFFFFFFFFFFFFFFFFFFFF DUP3 AND SWAP1 POP SWAP2 SWAP1 POP JUMP JUMPDEST PUSH0 PUSH2 0xA4 DUP3 PUSH2 0x7B JUMP JUMPDEST SWAP1 POP SWAP2 SWAP1 POP JUMP JUMPDEST PUSH2 0xB4 DUP2 PUSH2 0x9A JUMP JUMPDEST DUP2 EQ PUSH2 0xBE JUMPI PUSH0 PUSH0 REVERT JUMPDEST POP JUMP JUMPDEST PUSH0 DUP2 MLOAD SWAP1 POP PUSH2 0xCF DUP2 PUSH2 0xAB JUMP JUMPDEST SWAP3 SWAP2 POP POP JUMP JUMPDEST PUSH0 PUSH1 0x20 DUP3 DUP5 SUB SLT ISZERO PUSH2 0xEA JUMPI PUSH2 0xE9 PUSH2 0x77 JUMP JUMPDEST JUMPDEST PUSH0 PUSH2 0xF7 DUP5 DUP3 DUP6 ADD PUSH2 0xC1 JUMP JUMPDEST SWAP2 POP POP SWAP3 SWAP2 POP POP JUMP JUMPDEST PUSH2 0x16C7 DUP1 PUSH2 0x10D PUSH0 CODECOPY PUSH0 RETURN INVALID PUSH1 0x80 PUSH1 0x40 MSTORE CALLVALUE DUP1 ISZERO PUSH2 0xF JUMPI PUSH0 PUSH0 REVERT JUMPDEST POP PUSH1 0x4 CALLDATASIZE LT PUSH2 0x9C JUMPI PUSH0 CALLDATALOAD PUSH1 0xE0 SHR DUP1 PUSH4 0x61B8CE8C GT PUSH2 0x64 JUMPI DUP1 PUSH4 0x61B8CE8C EQ PUSH2 0x154 JUMPI DUP1 PUSH4 0x6EC88BBD EQ PUSH2 0x172 JUMPI DUP1 PUSH4 0x72680A77 EQ PUSH2 0x1A2 JUMPI DUP1 PUSH4 0xA2B7CE6F EQ PUSH2 0x1C0 JUMPI DUP1 PUSH4 0xEC1C5955 EQ PUSH2 0x1DC JUMPI PUSH2 0x9C JUMP JUMPDEST DUP1 PUSH4 0x16CB4A05 EQ PUSH2 0xA0 JUMPI DUP1 PUSH4 0x1942D199 EQ PUSH2 0xD0 JUMPI DUP1 PUSH4 0x49B1A0BF EQ PUSH2 0xEC JUMPI DUP1 PUSH4 0x4D2D7881 EQ PUSH2 0x108 JUMPI DUP1 PUSH4 0x4E9C7DF8 EQ PUSH2 0x138 JUMPI JUMPDEST PUSH0 PUSH0 REVERT JUMPDEST PUSH2 0xBA PUSH1 0x4 DUP1 CALLDATASIZE SUB DUP2 ADD SWAP1 PUSH2 0xB5 SWAP2 SWAP1 PUSH2 0xE86 JUMP JUMPDEST PUSH2 0x210 JUMP JUMPDEST PUSH1 0x40 MLOAD PUSH2 0xC7 SWAP2 SWAP1 PUSH2 0xECB JUMP JUMPDEST PUSH1 0x40 MLOAD DUP1 SWAP2 SUB SWAP1 RETURN JUMPDEST PUSH2 0xEA PUSH1 0x4 DUP1 CALLDATASIZE SUB DUP2 ADD SWAP1 PUSH2 0xE5 SWAP2 SWAP1 PUSH2 0xEE4 JUMP JUMPDEST PUSH2 0x22D JUMP JUMPDEST STOP JUMPDEST PUSH2 0x106 PUSH1 0x4 DUP1 CALLDATASIZE SUB DUP2 ADD SWAP1 PUSH2 0x101 SWAP2 SWAP1 PUSH2 0xE86 JUMP JUMPDEST PUSH2 0x31A JUMP JUMPDEST STOP JUMPDEST PUSH2 0x122 PUSH1 0x4 DUP1 CALLDATASIZE SUB DUP2 ADD SWAP1 PUSH2 0x11D SWAP2 SWAP1 PUSH2 0xF45 JUMP JUMPDEST PUSH2 0x3D5 JUMP JUMPDEST PUSH1 0x40 MLOAD PUSH2 0x12F SWAP2 SWAP1 PUSH2 0xF88 JUMP JUMPDEST PUSH1 0x40 MLOAD DUP1 SWAP2 SUB SWAP1 RETURN JUMPDEST PUSH2 0x152 PUSH1 0x4 DUP1 CALLDATASIZE SUB DUP2 ADD SWAP1 PUSH2 0x14D SWAP2 SWAP1 PUSH2 0xFFB JUMP JUMPDEST PUSH2 0x537 JUMP JUMPDEST STOP JUMPDEST PUSH2 0x15C PUSH2 0x609 JUMP JUMPDEST PUSH1 0x40 MLOAD PUSH2 0x169 SWAP2 SWAP1 PUSH2 0x1035 JUMP JUMPDEST PUSH1 0x40 MLOAD DUP1 SWAP2 SUB SWAP1 RETURN JUMPDEST PUSH2 0x18C PUSH1 0x4 DUP1 CALLDATASIZE SUB DUP2 ADD SWAP1 PUSH2 0x187 SWAP2 SWAP1 PUSH2 0xE86 JUMP JUMPDEST PUSH2 0x60F JUMP JUMPDEST PUSH1 0x40 MLOAD PUSH2 0x199 SWAP2 SWAP1 PUSH2 0x1136 JUMP JUMPDEST PUSH1 0x40 MLOAD DUP1 SWAP2 SUB SWAP1 RETURN JUMPDEST PUSH2 0x1AA PUSH2 0x6A3 JUMP JUMPDEST PUSH1 0x40 MLOAD PUSH2 0x1B7 SWAP2 SWAP1 PUSH2 0x115E JUMP JUMPDEST PUSH1 0x40 MLOAD DUP1 SWAP2 SUB SWAP1 RETURN JUMPDEST PUSH2 0x1DA PUSH1 0x4 DUP1 CALLDATASIZE SUB DUP2 ADD SWAP1 PUSH2 0x1D5 SWAP2 SWAP1 PUSH2 0xE86 JUMP JUMPDEST PUSH2 0x6C8 JUMP JUMPDEST STOP JUMPDEST PUSH2 0x1F6 PUSH1 0x4 DUP1 CALLDATASIZE SUB DUP2 ADD SWAP1 PUSH2 0x1F1 SWAP2 SWAP1 PUSH2 0xE86 JUMP JUMPDEST PUSH2 0x7C4 JUMP JUMPDEST PUSH1 0x40 MLOAD PUSH2 0x207 SWAP6 SWAP5 SWAP4 SWAP3 SWAP2 SWAP1 PUSH2 0x1186 JUMP JUMPDEST PUSH1 0x40 MLOAD DUP1 SWAP2 SUB SWAP1 RETURN JUMPDEST PUSH1 0x3 PUSH1 0x20 MSTORE DUP1 PUSH0 MSTORE PUSH1 0x40 PUSH0 KECCAK256 PUSH0 SWAP2 POP SLOAD SWAP1 PUSH2 0x100 EXP SWAP1 DIV PUSH1 0xFF AND DUP2 JUMP JUMPDEST PUSH1 0x2 PUSH0 SWAP1 SLOAD SWAP1 PUSH2 0x100 EXP SWAP1 DIV PUSH20 0xFFFFFFFFFFFFFFFFFFFFFFFFFFFFFFFFFFFFFFFF AND PUSH20 0xFFFFFFFFFFFFFFFFFFFFFFFFFFFFFFFFFFFFFFFF AND CALLER PUSH20 0xFFFFFFFFFFFFFFFFFFFFFFFFFFFFFFFFFFFFFFFF AND EQ PUSH2 0x2BC JUMPI PUSH1 0x40 MLOAD PUSH32 0x8C379A000000000000000000000000000000000000000000000000000000000 DUP2 MSTORE PUSH1 0x4 ADD PUSH2 0x2B3 SWAP1 PUSH2 0x1231 JUMP JUMPDEST PUSH1 0x40 MLOAD DUP1 SWAP2 SUB SWAP1 REVERT JUMPDEST PUSH2 0x2C5 DUP3 PUSH2 0x6C8 JUMP JUMPDEST PUSH0 PUSH0 PUSH0 DUP5 DUP2 MSTORE PUSH1 0x20 ADD SWAP1 DUP2 MSTORE PUSH1 0x20 ADD PUSH0 KECCAK256 SWAP1 POP PUSH2 0x2E1 DUP4 PUSH2 0x801 JUMP JUMPDEST DUP2 DUP2 PUSH1 0x1 ADD SLOAD LT PUSH2 0x30B JUMPI DUP2 DUP2 PUSH1 0x1 ADD PUSH0 DUP3 DUP3 SLOAD PUSH2 0x2FF SWAP2 SWAP1 PUSH2 0x127C JUMP JUMPDEST SWAP3 POP POP DUP2 SWAP1 SSTORE POP PUSH2 0x315 JUMP JUMPDEST PUSH0 DUP2 PUSH1 0x1 ADD DUP2 SWAP1 SSTORE POP JUMPDEST POP POP POP JUMP JUMPDEST PUSH1 0x2 PUSH0 SWAP1 SLOAD SWAP1 PUSH2 0x100 EXP SWAP1 DIV PUSH20 0xFFFFFFFFFFFFFFFFFFFFFFFFFFFFFFFFFFFFFFFF AND PUSH20 0xFFFFFFFFFFFFFFFFFFFFFFFFFFFFFFFFFFFFFFFF AND CALLER PUSH20 0xFFFFFFFFFFFFFFFFFFFFFFFFFFFFFFFFFFFFFFFF AND EQ PUSH2 0x3A9 JUMPI PUSH1 0x40 MLOAD PUSH32 0x8C379A000000000000000000000000000000000000000000000000000000000 DUP2 MSTORE PUSH1 0x4 ADD PUSH2 0x3A0 SWAP1 PUSH2 0x12F9 JUMP JUMPDEST PUSH1 0x40 MLOAD DUP1 SWAP2 SUB SWAP1 REVERT JUMPDEST PUSH1 0x1 PUSH1 0x3 PUSH0 DUP4 DUP2 MSTORE PUSH1 0x20 ADD SWAP1 DUP2 MSTORE PUSH1 0x20 ADD PUSH0 KECCAK256 PUSH0 PUSH2 0x100 EXP DUP2 SLOAD DUP2 PUSH1 0xFF MUL NOT AND SWAP1 DUP4 ISZERO ISZERO MUL OR SWAP1 SSTORE POP POP JUMP JUMPDEST PUSH0 PUSH1 0x2 PUSH0 SWAP1 SLOAD SWAP1 PUSH2 0x100 EXP SWAP1 DIV PUSH20 0xFFFFFFFFFFFFFFFFFFFFFFFFFFFFFFFFFFFFFFFF AND PUSH20 0xFFFFFFFFFFFFFFFFFFFFFFFFFFFFFFFFFFFFFFFF AND CALLER PUSH20 0xFFFFFFFFFFFFFFFFFFFFFFFFFFFFFFFFFFFFFFFF AND EQ PUSH2 0x465 JUMPI PUSH1 0x40 MLOAD PUSH32 0x8C379A000000000000000000000000000000000000000000000000000000000 DUP2 MSTORE PUSH1 0x4 ADD PUSH2 0x45C SWAP1 PUSH2 0x1231 JUMP JUMPDEST PUSH1 0x40 MLOAD DUP1 SWAP2 SUB SWAP1 REVERT JUMPDEST PUSH0 PUSH2 0x46F DUP4 PUSH2 0x8DF JUMP JUMPDEST SWAP1 POP PUSH1 0x40 MLOAD DUP1 PUSH1 0xA0 ADD PUSH1 0x40 MSTORE DUP1 PUSH0 DUP2 MSTORE PUSH1 0x20 ADD PUSH0 DUP2 MSTORE PUSH1 0x20 ADD DUP3 PUSH0 ADD MLOAD DUP2 MSTORE PUSH1 0x20 ADD DUP5 PUSH1 0xA DUP2 GT ISZERO PUSH2 0x4A4 JUMPI PUSH2 0x4A3 PUSH2 0x105D JUMP JUMPDEST JUMPDEST DUP2 MSTORE PUSH1 0x20 ADD TIMESTAMP DUP2 MSTORE POP PUSH0 PUSH0 PUSH1 0x1 SLOAD DUP2 MSTORE PUSH1 0x20 ADD SWAP1 DUP2 MSTORE PUSH1 0x20 ADD PUSH0 KECCAK256 PUSH0 DUP3 ADD MLOAD DUP2 PUSH0 ADD SSTORE PUSH1 0x20 DUP3 ADD MLOAD DUP2 PUSH1 0x1 ADD SSTORE PUSH1 0x40 DUP3 ADD MLOAD DUP2 PUSH1 0x2 ADD SSTORE PUSH1 0x60 DUP3 ADD MLOAD DUP2 PUSH1 0x3 ADD PUSH0 PUSH2 0x100 EXP DUP2 SLOAD DUP2 PUSH1 0xFF MUL NOT AND SWAP1 DUP4 PUSH1 0xA DUP2 GT ISZERO PUSH2 0x505 JUMPI PUSH2 0x504 PUSH2 0x105D JUMP JUMPDEST JUMPDEST MUL OR SWAP1 SSTORE POP PUSH1 0x80 DUP3 ADD MLOAD DUP2 PUSH1 0x4 ADD SSTORE SWAP1 POP POP PUSH1 0x1 PUSH0 DUP2 SLOAD DUP1 SWAP3 SWAP2 SWAP1 PUSH2 0x529 SWAP1 PUSH2 0x1317 JUMP JUMPDEST SWAP2 SWAP1 POP SSTORE POP PUSH0 SWAP2 POP POP SWAP2 SWAP1 POP JUMP JUMPDEST PUSH0 PUSH20 0xFFFFFFFFFFFFFFFFFFFFFFFFFFFFFFFFFFFFFFFF AND PUSH1 0x2 PUSH0 SWAP1 SLOAD SWAP1 PUSH2 0x100 EXP SWAP1 DIV PUSH20 0xFFFFFFFFFFFFFFFFFFFFFFFFFFFFFFFFFFFFFFFF AND PUSH20 0xFFFFFFFFFFFFFFFFFFFFFFFFFFFFFFFFFFFFFFFF AND EQ PUSH2 0x5C6 JUMPI PUSH1 0x40 MLOAD PUSH32 0x8C379A000000000000000000000000000000000000000000000000000000000 DUP2 MSTORE PUSH1 0x4 ADD PUSH2 0x5BD SWAP1 PUSH2 0x13A8 JUMP JUMPDEST PUSH1 0x40 MLOAD DUP1 SWAP2 SUB SWAP1 REVERT JUMPDEST DUP1 PUSH1 0x2 PUSH0 PUSH2 0x100 EXP DUP2 SLOAD DUP2 PUSH20 0xFFFFFFFFFFFFFFFFFFFFFFFFFFFFFFFFFFFFFFFF MUL NOT AND SWAP1 DUP4 PUSH20 0xFFFFFFFFFFFFFFFFFFFFFFFFFFFFFFFFFFFFFFFF AND MUL OR SWAP1 SSTORE POP POP JUMP JUMPDEST PUSH1 0x1 SLOAD DUP2 JUMP JUMPDEST PUSH2 0x617 PUSH2 0xDE8 JUMP JUMPDEST PUSH2 0x620 DUP3 PUSH2 0x6C8 JUMP JUMPDEST PUSH0 PUSH0 DUP4 DUP2 MSTORE PUSH1 0x20 ADD SWAP1 DUP2 MSTORE PUSH1 0x20 ADD PUSH0 KECCAK256 PUSH1 0x40 MLOAD DUP1 PUSH1 0xA0 ADD PUSH1 0x40 MSTORE SWAP1 DUP2 PUSH0 DUP3 ADD SLOAD DUP2 MSTORE PUSH1 0x20 ADD PUSH1 0x1 DUP3 ADD SLOAD DUP2 MSTORE PUSH1 0x20 ADD PUSH1 0x2 DUP3 ADD SLOAD DUP2 MSTORE PUSH1 0x20 ADD PUSH1 0x3 DUP3 ADD PUSH0 SWAP1 SLOAD SWAP1 PUSH2 0x100 EXP SWAP1 DIV PUSH1 0xFF AND PUSH1 0xA DUP2 GT ISZERO PUSH2 0x67C JUMPI PUSH2 0x67B PUSH2 0x105D JUMP JUMPDEST JUMPDEST PUSH1 0xA DUP2 GT ISZERO PUSH2 0x68E JUMPI PUSH2 0x68D PUSH2 0x105D JUMP JUMPDEST JUMPDEST DUP2 MSTORE PUSH1 0x20 ADD PUSH1 0x4 DUP3 ADD SLOAD DUP2 MSTORE POP POP SWAP1 POP SWAP2 SWAP1 POP JUMP JUMPDEST PUSH1 0x2 PUSH0 SWAP1 SLOAD SWAP1 PUSH2 0x100 EXP SWAP1 DIV PUSH20 0xFFFFFFFFFFFFFFFFFFFFFFFFFFFFFFFFFFFFFFFF AND DUP2 JUMP JUMPDEST PUSH0 PUSH0 PUSH0 DUP4 DUP2 MSTORE PUSH1 0x20 ADD SWAP1 DUP2 MSTORE PUSH1 0x20 ADD PUSH0 KECCAK256 SWAP1 POP PUSH0 DUP2 PUSH1 0x4 ADD SLOAD TIMESTAMP PUSH2 0x6EC SWAP2 SWAP1 PUSH2 0x127C JUMP JUMPDEST SWAP1 POP PUSH0 DUP2 GT ISZERO PUSH2 0x7BF JUMPI PUSH0 PUSH2 0xE10 PUSH2 0x713 DUP5 PUSH1 0x3 ADD PUSH0 SWAP1 SLOAD SWAP1 PUSH2 0x100 EXP SWAP1 DIV PUSH1 0xFF AND PUSH2 0x8DF JUMP JUMPDEST PUSH1 0x40 ADD MLOAD DUP4 PUSH2 0x722 SWAP2 SWAP1 PUSH2 0x13C6 JUMP JUMPDEST PUSH2 0x72C SWAP2 SWAP1 PUSH2 0x1434 JUMP JUMPDEST SWAP1 POP DUP1 DUP4 PUSH1 0x1 ADD PUSH0 DUP3 DUP3 SLOAD PUSH2 0x741 SWAP2 SWAP1 PUSH2 0x1464 JUMP JUMPDEST SWAP3 POP POP DUP2 SWAP1 SSTORE POP PUSH0 PUSH2 0x762 DUP5 PUSH1 0x3 ADD PUSH0 SWAP1 SLOAD SWAP1 PUSH2 0x100 EXP SWAP1 DIV PUSH1 0xFF AND PUSH2 0x8DF JUMP JUMPDEST PUSH1 0x20 ADD MLOAD SWAP1 POP DUP1 DUP5 PUSH1 0x1 ADD SLOAD GT ISZERO PUSH2 0x77E JUMPI DUP1 DUP5 PUSH1 0x1 ADD DUP2 SWAP1 SSTORE POP JUMPDEST PUSH0 PUSH3 0x15180 DUP5 PUSH2 0x78E SWAP2 SWAP1 PUSH2 0x1434 JUMP JUMPDEST SWAP1 POP PUSH0 DUP2 GT ISZERO PUSH2 0x7B2 JUMPI DUP1 DUP6 PUSH0 ADD PUSH0 DUP3 DUP3 SLOAD PUSH2 0x7AA SWAP2 SWAP1 PUSH2 0x1464 JUMP JUMPDEST SWAP3 POP POP DUP2 SWAP1 SSTORE POP JUMPDEST TIMESTAMP DUP6 PUSH1 0x4 ADD DUP2 SWAP1 SSTORE POP POP POP POP JUMPDEST POP POP POP JUMP JUMPDEST PUSH0 PUSH1 0x20 MSTORE DUP1 PUSH0 MSTORE PUSH1 0x40 PUSH0 KECCAK256 PUSH0 SWAP2 POP SWAP1 POP DUP1 PUSH0 ADD SLOAD SWAP1 DUP1 PUSH1 0x1 ADD SLOAD SWAP1 DUP1 PUSH1 0x2 ADD SLOAD SWAP1 DUP1 PUSH1 0x3 ADD PUSH0 SWAP1 SLOAD SWAP1 PUSH2 0x100 EXP SWAP1 DIV PUSH1 0xFF AND SWAP1 DUP1 PUSH1 0x4 ADD SLOAD SWAP1 POP DUP6 JUMP JUMPDEST PUSH2 0x809 PUSH2 0xE24 JUMP JUMPDEST PUSH0 PUSH0 PUSH0 DUP5 DUP2 MSTORE PUSH1 0x20 ADD SWAP1 DUP2 MSTORE PUSH1 0x20 ADD PUSH0 KECCAK256 SWAP1 POP PUSH2 0x835 DUP2 PUSH1 0x3 ADD PUSH0 SWAP1 SLOAD SWAP1 PUSH2 0x100 EXP SWAP1 DIV PUSH1 0xFF AND PUSH2 0x8DF JUMP JUMPDEST SWAP2 POP PUSH1 0x3 PUSH0 DUP5 DUP2 MSTORE PUSH1 0x20 ADD SWAP1 DUP2 MSTORE PUSH1 0x20 ADD PUSH0 KECCAK256 PUSH0 SWAP1 SLOAD SWAP1 PUSH2 0x100 EXP SWAP1 DIV PUSH1 0xFF AND PUSH2 0x8DA JUMPI PUSH0 PUSH2 0x873 DUP3 PUSH1 0x3 ADD PUSH0 SWAP1 SLOAD SWAP1 PUSH2 0x100 EXP SWAP1 DIV PUSH1 0xFF AND PUSH2 0x8DF JUMP JUMPDEST PUSH1 0x60 ADD MLOAD SWAP1 POP PUSH0 PUSH1 0x64 TIMESTAMP DUP7 PUSH1 0x40 MLOAD PUSH1 0x20 ADD PUSH2 0x88F SWAP3 SWAP2 SWAP1 PUSH2 0x14B7 JUMP JUMPDEST PUSH1 0x40 MLOAD PUSH1 0x20 DUP2 DUP4 SUB SUB DUP2 MSTORE SWAP1 PUSH1 0x40 MSTORE DUP1 MLOAD SWAP1 PUSH1 0x20 ADD KECCAK256 PUSH0 SHR PUSH2 0x8B1 SWAP2 SWAP1 PUSH2 0x14E2 JUMP JUMPDEST SWAP1 POP DUP2 DUP2 LT ISZERO PUSH2 0x8D7 JUMPI PUSH1 0x19 DUP4 PUSH1 0x2 ADD PUSH0 DUP3 DUP3 SLOAD PUSH2 0x8CF SWAP2 SWAP1 PUSH2 0x127C JUMP JUMPDEST SWAP3 POP POP DUP2 SWAP1 SSTORE POP JUMPDEST POP POP JUMPDEST POP POP POP JUMP JUMPDEST PUSH2 0x8E7 PUSH2 0xE24 JUMP JUMPDEST PUSH0 PUSH1 0xA DUP2 GT ISZERO PUSH2 0x8FA JUMPI PUSH2 0x8F9 PUSH2 0x105D JUMP JUMPDEST JUMPDEST DUP3 PUSH1 0xA DUP2 GT ISZERO PUSH2 0x90D JUMPI PUSH2 0x90C PUSH2 0x105D JUMP JUMPDEST JUMPDEST SUB PUSH2 0x95C JUMPI PUSH1 0x40 MLOAD DUP1 PUSH1 0xA0 ADD PUSH1 0x40 MSTORE DUP1 PUSH1 0xC8 DUP2 MSTORE PUSH1 0x20 ADD PUSH1 0x96 DUP2 MSTORE PUSH1 0x20 ADD PUSH1 0x3 DUP2 MSTORE PUSH1 0x20 ADD PUSH1 0x1 DUP2 MSTORE PUSH1 0x20 ADD PUSH1 0x40 MLOAD DUP1 PUSH1 0x80 ADD PUSH1 0x40 MSTORE DUP1 PUSH1 0x5D DUP2 MSTORE PUSH1 0x20 ADD PUSH2 0x157B PUSH1 0x5D SWAP2 CODECOPY DUP2 MSTORE POP SWAP1 POP PUSH2 0xDE3 JUMP JUMPDEST PUSH1 0x1 PUSH1 0xA DUP2 GT ISZERO PUSH2 0x970 JUMPI PUSH2 0x96F PUSH2 0x105D JUMP JUMPDEST JUMPDEST DUP3 PUSH1 0xA DUP2 GT ISZERO PUSH2 0x983 JUMPI PUSH2 0x982 PUSH2 0x105D JUMP JUMPDEST JUMPDEST SUB PUSH2 0x9D2 JUMPI PUSH1 0x40 MLOAD DUP1 PUSH1 0xA0 ADD PUSH1 0x40 MSTORE DUP1 PUSH1 0xDC DUP2 MSTORE PUSH1 0x20 ADD PUSH1 0xC8 DUP2 MSTORE PUSH1 0x20 ADD PUSH1 0x2 DUP2 MSTORE PUSH1 0x20 ADD PUSH1 0x5 DUP2 MSTORE PUSH1 0x20 ADD PUSH1 0x40 MLOAD DUP1 PUSH1 0x80 ADD PUSH1 0x40 MSTORE DUP1 PUSH1 0x5D DUP2 MSTORE PUSH1 0x20 ADD PUSH2 0x1635 PUSH1 0x5D SWAP2 CODECOPY DUP2 MSTORE POP SWAP1 POP PUSH2 0xDE3 JUMP JUMPDEST PUSH1 0x2 PUSH1 0xA DUP2 GT ISZERO PUSH2 0x9E6 JUMPI PUSH2 0x9E5 PUSH2 0x105D JUMP JUMPDEST JUMPDEST DUP3 PUSH1 0xA DUP2 GT ISZERO PUSH2 0x9F9 JUMPI PUSH2 0x9F8 PUSH2 0x105D JUMP JUMPDEST JUMPDEST SUB PUSH2 0xA48 JUMPI PUSH1 0x40 MLOAD DUP1 PUSH1 0xA0 ADD PUSH1 0x40 MSTORE DUP1 PUSH1 0x50 DUP2 MSTORE PUSH1 0x20 ADD PUSH1 0x50 DUP2 MSTORE PUSH1 0x20 ADD PUSH1 0x3 DUP2 MSTORE PUSH1 0x20 ADD PUSH1 0x6 DUP2 MSTORE PUSH1 0x20 ADD PUSH1 0x40 MLOAD DUP1 PUSH1 0x80 ADD PUSH1 0x40 MSTORE DUP1 PUSH1 0x5D DUP2 MSTORE PUSH1 0x20 ADD PUSH2 0x15D8 PUSH1 0x5D SWAP2 CODECOPY DUP2 MSTORE POP SWAP1 POP PUSH2 0xDE3 JUMP JUMPDEST PUSH1 0xA DUP1 DUP2 GT ISZERO PUSH2 0xA5B JUMPI PUSH2 0xA5A PUSH2 0x105D JUMP JUMPDEST JUMPDEST DUP3 PUSH1 0xA DUP2 GT ISZERO PUSH2 0xA6E JUMPI PUSH2 0xA6D PUSH2 0x105D JUMP JUMPDEST JUMPDEST SUB PUSH2 0xAB4 JUMPI PUSH1 0x40 MLOAD DUP1 PUSH1 0xA0 ADD PUSH1 0x40 MSTORE DUP1 PUSH2 0x12C DUP2 MSTORE PUSH1 0x20 ADD PUSH2 0x12C DUP2 MSTORE PUSH1 0x20 ADD PUSH1 0x1 DUP2 MSTORE PUSH1 0x20 ADD PUSH0 DUP2 MSTORE PUSH1 0x20 ADD PUSH1 0x40 MLOAD DUP1 PUSH1 0x20 ADD PUSH1 0x40 MSTORE DUP1 PUSH0 DUP2 MSTORE POP DUP2 MSTORE POP SWAP1 POP PUSH2 0xDE3 JUMP JUMPDEST PUSH1 0x3 PUSH1 0xA DUP2 GT ISZERO PUSH2 0xAC8 JUMPI PUSH2 0xAC7 PUSH2 0x105D JUMP JUMPDEST JUMPDEST DUP3 PUSH1 0xA DUP2 GT ISZERO PUSH2 0xADB JUMPI PUSH2 0xADA PUSH2 0x105D JUMP JUMPDEST JUMPDEST SUB PUSH2 0xB20 JUMPI PUSH1 0x40 MLOAD DUP1 PUSH1 0xA0 ADD PUSH1 0x40 MSTORE DUP1 PUSH1 0xB4 DUP2 MSTORE PUSH1 0x20 ADD PUSH1 0x5A DUP2 MSTORE PUSH1 0x20 ADD PUSH1 0x2 DUP2 MSTORE PUSH1 0x20 ADD PUSH1 0x4 DUP2 MSTORE PUSH1 0x20 ADD PUSH1 0x40 MLOAD DUP1 PUSH1 0x20 ADD PUSH1 0x40 MSTORE DUP1 PUSH0 DUP2 MSTORE POP DUP2 MSTORE POP SWAP1 POP PUSH2 0xDE3 JUMP JUMPDEST PUSH1 0x4 PUSH1 0xA DUP2 GT ISZERO PUSH2 0xB34 JUMPI PUSH2 0xB33 PUSH2 0x105D JUMP JUMPDEST JUMPDEST DUP3 PUSH1 0xA DUP2 GT ISZERO PUSH2 0xB47 JUMPI PUSH2 0xB46 PUSH2 0x105D JUMP JUMPDEST JUMPDEST SUB PUSH2 0xB8C JUMPI PUSH1 0x40 MLOAD DUP1 PUSH1 0xA0 ADD PUSH1 0x40 MSTORE DUP1 PUSH1 0x50 DUP2 MSTORE PUSH1 0x20 ADD PUSH1 0x46 DUP2 MSTORE PUSH1 0x20 ADD PUSH1 0x2 DUP2 MSTORE PUSH1 0x20 ADD PUSH1 0x8 DUP2 MSTORE PUSH1 0x20 ADD PUSH1 0x40 MLOAD DUP1 PUSH1 0x20 ADD PUSH1 0x40 MSTORE DUP1 PUSH0 DUP2 MSTORE POP DUP2 MSTORE POP SWAP1 POP PUSH2 0xDE3 JUMP JUMPDEST PUSH1 0x5 PUSH1 0xA DUP2 GT ISZERO PUSH2 0xBA0 JUMPI PUSH2 0xB9F PUSH2 0x105D JUMP JUMPDEST JUMPDEST DUP3 PUSH1 0xA DUP2 GT ISZERO PUSH2 0xBB3 JUMPI PUSH2 0xBB2 PUSH2 0x105D JUMP JUMPDEST JUMPDEST SUB PUSH2 0xBF8 JUMPI PUSH1 0x40 MLOAD DUP1 PUSH1 0xA0 ADD PUSH1 0x40 MSTORE DUP1 PUSH1 0x32 DUP2 MSTORE PUSH1 0x20 ADD PUSH1 0x3C DUP2 MSTORE PUSH1 0x20 ADD PUSH1 0x4 DUP2 MSTORE PUSH1 0x20 ADD PUSH1 0x5 DUP2 MSTORE PUSH1 0x20 ADD PUSH1 0x40 MLOAD DUP1 PUSH1 0x20 ADD PUSH1 0x40 MSTORE DUP1 PUSH0 DUP2 MSTORE POP DUP2 MSTORE POP SWAP1 POP PUSH2 0xDE3 JUMP JUMPDEST PUSH1 0x6 PUSH1 0xA DUP2 GT ISZERO PUSH2 0xC0C JUMPI PUSH2 0xC0B PUSH2 0x105D JUMP JUMPDEST JUMPDEST DUP3 PUSH1 0xA DUP2 GT ISZERO PUSH2 0xC1F JUMPI PUSH2 0xC1E PUSH2 0x105D JUMP JUMPDEST JUMPDEST SUB PUSH2 0xC64 JUMPI PUSH1 0x40 MLOAD DUP1 PUSH1 0xA0 ADD PUSH1 0x40 MSTORE DUP1 PUSH1 0x37 DUP2 MSTORE PUSH1 0x20 ADD PUSH1 0x28 DUP2 MSTORE PUSH1 0x20 ADD PUSH1 0x3 DUP2 MSTORE PUSH1 0x20 ADD PUSH1 0x4 DUP2 MSTORE PUSH1 0x20 ADD PUSH1 0x40 MLOAD DUP1 PUSH1 0x20 ADD PUSH1 0x40 MSTORE DUP1 PUSH0 DUP2 MSTORE POP DUP2 MSTORE POP SWAP1 POP PUSH2 0xDE3 JUMP JUMPDEST PUSH1 0x7 PUSH1 0xA DUP2 GT ISZERO PUSH2 0xC78 JUMPI PUSH2 0xC77 PUSH2 0x105D JUMP JUMPDEST JUMPDEST DUP3 PUSH1 0xA DUP2 GT ISZERO PUSH2 0xC8B JUMPI PUSH2 0xC8A PUSH2 0x105D JUMP JUMPDEST JUMPDEST SUB PUSH2 0xCD0 JUMPI PUSH1 0x40 MLOAD DUP1 PUSH1 0xA0 ADD PUSH1 0x40 MSTORE DUP1 PUSH1 0x4E DUP2 MSTORE PUSH1 0x20 ADD PUSH1 0x41 DUP2 MSTORE PUSH1 0x20 ADD PUSH1 0x2 DUP2 MSTORE PUSH1 0x20 ADD PUSH1 0x4 DUP2 MSTORE PUSH1 0x20 ADD PUSH1 0x40 MLOAD DUP1 PUSH1 0x20 ADD PUSH1 0x40 MSTORE DUP1 PUSH0 DUP2 MSTORE POP DUP2 MSTORE POP SWAP1 POP PUSH2 0xDE3 JUMP JUMPDEST PUSH1 0x8 PUSH1 0xA DUP2 GT ISZERO PUSH2 0xCE4 JUMPI PUSH2 0xCE3 PUSH2 0x105D JUMP JUMPDEST JUMPDEST DUP3 PUSH1 0xA DUP2 GT ISZERO PUSH2 0xCF7 JUMPI PUSH2 0xCF6 PUSH2 0x105D JUMP JUMPDEST JUMPDEST SUB PUSH2 0xD3C JUMPI PUSH1 0x40 MLOAD DUP1 PUSH1 0xA0 ADD PUSH1 0x40 MSTORE DUP1 PUSH1 0x96 DUP2 MSTORE PUSH1 0x20 ADD PUSH1 0x64 DUP2 MSTORE PUSH1 0x20 ADD PUSH1 0x4 DUP2 MSTORE PUSH1 0x20 ADD PUSH1 0x3 DUP2 MSTORE PUSH1 0x20 ADD PUSH1 0x40 MLOAD DUP1 PUSH1 0x20 ADD PUSH1 0x40 MSTORE DUP1 PUSH0 DUP2 MSTORE POP DUP2 MSTORE POP SWAP1 POP PUSH2 0xDE3 JUMP JUMPDEST PUSH1 0x9 PUSH1 0xA DUP2 GT ISZERO PUSH2 0xD50 JUMPI PUSH2 0xD4F PUSH2 0x105D JUMP JUMPDEST JUMPDEST DUP3 PUSH1 0xA DUP2 GT ISZERO PUSH2 0xD63 JUMPI PUSH2 0xD62 PUSH2 0x105D JUMP JUMPDEST JUMPDEST SUB PUSH2 0xDA8 JUMPI PUSH1 0x40 MLOAD DUP1 PUSH1 0xA0 ADD PUSH1 0x40 MSTORE DUP1 PUSH1 0x23 DUP2 MSTORE PUSH1 0x20 ADD PUSH1 0x42 DUP2 MSTORE PUSH1 0x20 ADD PUSH1 0x4 DUP2 MSTORE PUSH1 0x20 ADD PUSH1 0x5 DUP2 MSTORE PUSH1 0x20 ADD PUSH1 0x40 MLOAD DUP1 PUSH1 0x20 ADD PUSH1 0x40 MSTORE DUP1 PUSH0 DUP2 MSTORE POP DUP2 MSTORE POP SWAP1 POP PUSH2 0xDE3 JUMP JUMPDEST PUSH1 0x40 MLOAD PUSH32 0x8C379A000000000000000000000000000000000000000000000000000000000 DUP2 MSTORE PUSH1 0x4 ADD PUSH2 0xDDA SWAP1 PUSH2 0x155C JUMP JUMPDEST PUSH1 0x40 MLOAD DUP1 SWAP2 SUB SWAP1 REVERT JUMPDEST SWAP2 SWAP1 POP JUMP JUMPDEST PUSH1 0x40 MLOAD DUP1 PUSH1 0xA0 ADD PUSH1 0x40 MSTORE DUP1 PUSH0 DUP2 MSTORE PUSH1 0x20 ADD PUSH0 DUP2 MSTORE PUSH1 0x20 ADD PUSH0 DUP2 MSTORE PUSH1 0x20 ADD PUSH0 PUSH1 0xA DUP2 GT ISZERO PUSH2 0xE18 JUMPI PUSH2 0xE17 PUSH2 0x105D JUMP JUMPDEST JUMPDEST DUP2 MSTORE PUSH1 0x20 ADD PUSH0 DUP2 MSTORE POP SWAP1 JUMP JUMPDEST PUSH1 0x40 MLOAD DUP1 PUSH1 0xA0 ADD PUSH1 0x40 MSTORE DUP1 PUSH0 DUP2 MSTORE PUSH1 0x20 ADD PUSH0 DUP2 MSTORE PUSH1 0x20 ADD PUSH0 DUP2 MSTORE PUSH1 0x20 ADD PUSH0 DUP2 MSTORE PUSH1 0x20 ADD PUSH1 0x60 DUP2 MSTORE POP SWAP1 JUMP JUMPDEST PUSH0 PUSH0 REVERT JUMPDEST PUSH0 DUP2 SWAP1 POP SWAP2 SWAP1 POP JUMP JUMPDEST PUSH2 0xE65 DUP2 PUSH2 0xE53 JUMP JUMPDEST DUP2 EQ PUSH2 0xE6F JUMPI PUSH0 PUSH0 REVERT JUMPDEST POP JUMP JUMPDEST PUSH0 DUP2 CALLDATALOAD SWAP1 POP PUSH2 0xE80 DUP2 PUSH2 0xE5C JUMP JUMPDEST SWAP3 SWAP2 POP POP JUMP JUMPDEST PUSH0 PUSH1 0x20 DUP3 DUP5 SUB SLT ISZERO PUSH2 0xE9B JUMPI PUSH2 0xE9A PUSH2 0xE4F JUMP JUMPDEST JUMPDEST PUSH0 PUSH2 0xEA8 DUP5 DUP3 DUP6 ADD PUSH2 0xE72 JUMP JUMPDEST SWAP2 POP POP SWAP3 SWAP2 POP POP JUMP JUMPDEST PUSH0 DUP2 ISZERO ISZERO SWAP1 POP SWAP2 SWAP1 POP JUMP JUMPDEST PUSH2 0xEC5 DUP2 PUSH2 0xEB1 JUMP JUMPDEST DUP3 MSTORE POP POP JUMP JUMPDEST PUSH0 PUSH1 0x20 DUP3 ADD SWAP1 POP PUSH2 0xEDE PUSH0 DUP4 ADD DUP5 PUSH2 0xEBC JUMP JUMPDEST SWAP3 SWAP2 POP POP JUMP JUMPDEST PUSH0 PUSH0 PUSH1 0x40 DUP4 DUP6 SUB SLT ISZERO PUSH2 0xEFA JUMPI PUSH2 0xEF9 PUSH2 0xE4F JUMP JUMPDEST JUMPDEST PUSH0 PUSH2 0xF07 DUP6 DUP3 DUP7 ADD PUSH2 0xE72 JUMP JUMPDEST SWAP3 POP POP PUSH1 0x20 PUSH2 0xF18 DUP6 DUP3 DUP7 ADD PUSH2 0xE72 JUMP JUMPDEST SWAP2 POP POP SWAP3 POP SWAP3 SWAP1 POP JUMP JUMPDEST PUSH1 0xB DUP2 LT PUSH2 0xF2E JUMPI PUSH0 PUSH0 REVERT JUMPDEST POP JUMP JUMPDEST PUSH0 DUP2 CALLDATALOAD SWAP1 POP PUSH2 0xF3F DUP2 PUSH2 0xF22 JUMP JUMPDEST SWAP3 SWAP2 POP POP JUMP JUMPDEST PUSH0 PUSH1 0x20 DUP3 DUP5 SUB SLT ISZERO PUSH2 0xF5A JUMPI PUSH2 0xF59 PUSH2 0xE4F JUMP JUMPDEST JUMPDEST PUSH0 PUSH2 0xF67 DUP5 DUP3 DUP6 ADD PUSH2 0xF31 JUMP JUMPDEST SWAP2 POP POP SWAP3 SWAP2 POP POP JUMP JUMPDEST PUSH0 DUP2 SWAP1 POP SWAP2 SWAP1 POP JUMP JUMPDEST PUSH2 0xF82 DUP2 PUSH2 0xF70 JUMP JUMPDEST DUP3 MSTORE POP POP JUMP JUMPDEST PUSH0 PUSH1 0x20 DUP3 ADD SWAP1 POP PUSH2 0xF9B PUSH0 DUP4 ADD DUP5 PUSH2 0xF79 JUMP JUMPDEST SWAP3 SWAP2 POP POP JUMP JUMPDEST PUSH0 PUSH20 0xFFFFFFFFFFFFFFFFFFFFFFFFFFFFFFFFFFFFFFFF DUP3 AND SWAP1 POP SWAP2 SWAP1 POP JUMP JUMPDEST PUSH0 PUSH2 0xFCA DUP3 PUSH2 0xFA1 JUMP JUMPDEST SWAP1 POP SWAP2 SWAP1 POP JUMP JUMPDEST PUSH2 0xFDA DUP2 PUSH2 0xFC0 JUMP JUMPDEST DUP2 EQ PUSH2 0xFE4 JUMPI PUSH0 PUSH0 REVERT JUMPDEST POP JUMP JUMPDEST PUSH0 DUP2 CALLDATALOAD SWAP1 POP PUSH2 0xFF5 DUP2 PUSH2 0xFD1 JUMP JUMPDEST SWAP3 SWAP2 POP POP JUMP JUMPDEST PUSH0 PUSH1 0x20 DUP3 DUP5 SUB SLT ISZERO PUSH2 0x1010 JUMPI PUSH2 0x100F PUSH2 0xE4F JUMP JUMPDEST JUMPDEST PUSH0 PUSH2 0x101D DUP5 DUP3 DUP6 ADD PUSH2 0xFE7 JUMP JUMPDEST SWAP2 POP POP SWAP3 SWAP2 POP POP JUMP JUMPDEST PUSH2 0x102F DUP2 PUSH2 0xE53 JUMP JUMPDEST DUP3 MSTORE POP POP JUMP JUMPDEST PUSH0 PUSH1 0x20 DUP3 ADD SWAP1 POP PUSH2 0x1048 PUSH0 DUP4 ADD DUP5 PUSH2 0x1026 JUMP JUMPDEST SWAP3 SWAP2 POP POP JUMP JUMPDEST PUSH2 0x1057 DUP2 PUSH2 0xE53 JUMP JUMPDEST DUP3 MSTORE POP POP JUMP JUMPDEST PUSH32 0x4E487B7100000000000000000000000000000000000000000000000000000000 PUSH0 MSTORE PUSH1 0x21 PUSH1 0x4 MSTORE PUSH1 0x24 PUSH0 REVERT JUMPDEST PUSH1 0xB DUP2 LT PUSH2 0x109B JUMPI PUSH2 0x109A PUSH2 0x105D JUMP JUMPDEST JUMPDEST POP JUMP JUMPDEST PUSH0 DUP2 SWAP1 POP PUSH2 0x10AB DUP3 PUSH2 0x108A JUMP JUMPDEST SWAP2 SWAP1 POP JUMP JUMPDEST PUSH0 PUSH2 0x10BA DUP3 PUSH2 0x109E JUMP JUMPDEST SWAP1 POP SWAP2 SWAP1 POP JUMP JUMPDEST PUSH2 0x10CA DUP2 PUSH2 0x10B0 JUMP JUMPDEST DUP3 MSTORE POP POP JUMP JUMPDEST PUSH1 0xA0 DUP3 ADD PUSH0 DUP3 ADD MLOAD PUSH2 0x10E4 PUSH0 DUP6 ADD DUP3 PUSH2 0x104E JUMP JUMPDEST POP PUSH1 0x20 DUP3 ADD MLOAD PUSH2 0x10F7 PUSH1 0x20 DUP6 ADD DUP3 PUSH2 0x104E JUMP JUMPDEST POP PUSH1 0x40 DUP3 ADD MLOAD PUSH2 0x110A PUSH1 0x40 DUP6 ADD DUP3 PUSH2 0x104E JUMP JUMPDEST POP PUSH1 0x60 DUP3 ADD MLOAD PUSH2 0x111D PUSH1 0x60 DUP6 ADD DUP3 PUSH2 0x10C1 JUMP JUMPDEST POP PUSH1 0x80 DUP3 ADD MLOAD PUSH2 0x1130 PUSH1 0x80 DUP6 ADD DUP3 PUSH2 0x104E JUMP JUMPDEST POP POP POP POP JUMP JUMPDEST PUSH0 PUSH1 0xA0 DUP3 ADD SWAP1 POP PUSH2 0x1149 PUSH0 DUP4 ADD DUP5 PUSH2 0x10D0 JUMP JUMPDEST SWAP3 SWAP2 POP POP JUMP JUMPDEST PUSH2 0x1158 DUP2 PUSH2 0xFC0 JUMP JUMPDEST DUP3 MSTORE POP POP JUMP JUMPDEST PUSH0 PUSH1 0x20 DUP3 ADD SWAP1 POP PUSH2 0x1171 PUSH0 DUP4 ADD DUP5 PUSH2 0x114F JUMP JUMPDEST SWAP3 SWAP2 POP POP JUMP JUMPDEST PUSH2 0x1180 DUP2 PUSH2 0x10B0 JUMP JUMPDEST DUP3 MSTORE POP POP JUMP JUMPDEST PUSH0 PUSH1 0xA0 DUP3 ADD SWAP1 POP PUSH2 0x1199 PUSH0 DUP4 ADD DUP9 PUSH2 0x1026 JUMP JUMPDEST PUSH2 0x11A6 PUSH1 0x20 DUP4 ADD DUP8 PUSH2 0x1026 JUMP JUMPDEST PUSH2 0x11B3 PUSH1 0x40 DUP4 ADD DUP7 PUSH2 0x1026 JUMP JUMPDEST PUSH2 0x11C0 PUSH1 0x60 DUP4 ADD DUP6 PUSH2 0x1177 JUMP JUMPDEST PUSH2 0x11CD PUSH1 0x80 DUP4 ADD DUP5 PUSH2 0x1026 JUMP JUMPDEST SWAP7 SWAP6 POP POP POP POP POP POP JUMP JUMPDEST PUSH0 DUP3 DUP3 MSTORE PUSH1 0x20 DUP3 ADD SWAP1 POP SWAP3 SWAP2 POP POP JUMP JUMPDEST PUSH32 0x4F6E6C79205061726B2063616E2063616C6C2074686973000000000000000000 PUSH0 DUP3 ADD MSTORE POP JUMP JUMPDEST PUSH0 PUSH2 0x121B PUSH1 0x17 DUP4 PUSH2 0x11D7 JUMP JUMPDEST SWAP2 POP PUSH2 0x1226 DUP3 PUSH2 0x11E7 JUMP JUMPDEST PUSH1 0x20 DUP3 ADD SWAP1 POP SWAP2 SWAP1 POP JUMP JUMPDEST PUSH0 PUSH1 0x20 DUP3 ADD SWAP1 POP DUP2 DUP2 SUB PUSH0 DUP4 ADD MSTORE PUSH2 0x1248 DUP2 PUSH2 0x120F JUMP JUMPDEST SWAP1 POP SWAP2 SWAP1 POP JUMP JUMPDEST PUSH32 0x4E487B7100000000000000000000000000000000000000000000000000000000 PUSH0 MSTORE PUSH1 0x11 PUSH1 0x4 MSTORE PUSH1 0x24 PUSH0 REVERT JUMPDEST PUSH0 PUSH2 0x1286 DUP3 PUSH2 0xE53 JUMP JUMPDEST SWAP2 POP PUSH2 0x1291 DUP4 PUSH2 0xE53 JUMP JUMPDEST SWAP3 POP DUP3 DUP3 SUB SWAP1 POP DUP2 DUP2 GT ISZERO PUSH2 0x12A9 JUMPI PUSH2 0x12A8 PUSH2 0x124F JUMP JUMPDEST JUMPDEST SWAP3 SWAP2 POP POP JUMP JUMPDEST PUSH32 0x4F6E6C79205061726B2063616E20696E73757265000000000000000000000000 PUSH0 DUP3 ADD MSTORE POP JUMP JUMPDEST PUSH0 PUSH2 0x12E3 PUSH1 0x14 DUP4 PUSH2 0x11D7 JUMP JUMPDEST SWAP2 POP PUSH2 0x12EE DUP3 PUSH2 0x12AF JUMP JUMPDEST PUSH1 0x20 DUP3 ADD SWAP1 POP SWAP2 SWAP1 POP JUMP JUMPDEST PUSH0 PUSH1 0x20 DUP3 ADD SWAP1 POP DUP2 DUP2 SUB PUSH0 DUP4 ADD MSTORE PUSH2 0x1310 DUP2 PUSH2 0x12D7 JUMP JUMPDEST SWAP1 POP SWAP2 SWAP1 POP JUMP JUMPDEST PUSH0 PUSH2 0x1321 DUP3 PUSH2 0xE53 JUMP JUMPDEST SWAP2 POP PUSH32 0xFFFFFFFFFFFFFFFFFFFFFFFFFFFFFFFFFFFFFFFFFFFFFFFFFFFFFFFFFFFFFFFF DUP3 SUB PUSH2 0x1353 JUMPI PUSH2 0x1352 PUSH2 0x124F JUMP JUMPDEST JUMPDEST PUSH1 0x1 DUP3 ADD SWAP1 POP SWAP2 SWAP1 POP JUMP JUMPDEST PUSH32 0x5061726B20616C72656164792073657400000000000000000000000000000000 PUSH0 DUP3 ADD MSTORE POP JUMP JUMPDEST PUSH0 PUSH2 0x1392 PUSH1 0x10 DUP4 PUSH2 0x11D7 JUMP JUMPDEST SWAP2 POP PUSH2 0x139D DUP3 PUSH2 0x135E JUMP JUMPDEST PUSH1 0x20 DUP3 ADD SWAP1 POP SWAP2 SWAP1 POP JUMP JUMPDEST PUSH0 PUSH1 0x20 DUP3 ADD SWAP1 POP DUP2 DUP2 SUB PUSH0 DUP4 ADD MSTORE PUSH2 0x13BF DUP2 PUSH2 0x1386 JUMP JUMPDEST SWAP1 POP SWAP2 SWAP1 POP JUMP JUMPDEST PUSH0 PUSH2 0x13D0 DUP3 PUSH2 0xE53 JUMP JUMPDEST SWAP2 POP PUSH2 0x13DB DUP4 PUSH2 0xE53 JUMP JUMPDEST SWAP3 POP DUP3 DUP3 MUL PUSH2 0x13E9 DUP2 PUSH2 0xE53 JUMP JUMPDEST SWAP2 POP DUP3 DUP3 DIV DUP5 EQ DUP4 ISZERO OR PUSH2 0x1400 JUMPI PUSH2 0x13FF PUSH2 0x124F JUMP JUMPDEST JUMPDEST POP SWAP3 SWAP2 POP POP JUMP JUMPDEST PUSH32 0x4E487B7100000000000000000000000000000000000000000000000000000000 PUSH0 MSTORE PUSH1 0x12 PUSH1 0x4 MSTORE PUSH1 0x24 PUSH0 REVERT JUMPDEST PUSH0 PUSH2 0x143E DUP3 PUSH2 0xE53 JUMP JUMPDEST SWAP2 POP PUSH2 0x1449 DUP4 PUSH2 0xE53 JUMP JUMPDEST SWAP3 POP DUP3 PUSH2 0x1459 JUMPI PUSH2 0x1458 PUSH2 0x1407 JUMP JUMPDEST JUMPDEST DUP3 DUP3 DIV SWAP1 POP SWAP3 SWAP2 POP POP JUMP JUMPDEST PUSH0 PUSH2 0x146E DUP3 PUSH2 0xE53 JUMP JUMPDEST SWAP2 POP PUSH2 0x1479 DUP4 PUSH2 0xE53 JUMP JUMPDEST SWAP3 POP DUP3 DUP3 ADD SWAP1 POP DUP1 DUP3 GT ISZERO PUSH2 0x1491 JUMPI PUSH2 0x1490 PUSH2 0x124F JUMP JUMPDEST JUMPDEST SWAP3 SWAP2 POP POP JUMP JUMPDEST PUSH0 DUP2 SWAP1 POP SWAP2 SWAP1 POP JUMP JUMPDEST PUSH2 0x14B1 PUSH2 0x14AC DUP3 PUSH2 0xE53 JUMP JUMPDEST PUSH2 0x1497 JUMP JUMPDEST DUP3 MSTORE POP POP JUMP JUMPDEST PUSH0 PUSH2 0x14C2 DUP3 DUP6 PUSH2 0x14A0 JUMP JUMPDEST PUSH1 0x20 DUP3 ADD SWAP2 POP PUSH2 0x14D2 DUP3 DUP5 PUSH2 0x14A0 JUMP JUMPDEST PUSH1 0x20 DUP3 ADD SWAP2 POP DUP2 SWAP1 POP SWAP4 SWAP3 POP POP POP JUMP JUMPDEST PUSH0 PUSH2 0x14EC DUP3 PUSH2 0xE53 JUMP JUMPDEST SWAP2 POP PUSH2 0x14F7 DUP4 PUSH2 0xE53 JUMP JUMPDEST SWAP3 POP DUP3 PUSH2 0x1507 JUMPI PUSH2 0x1506 PUSH2 0x1407 JUMP JUMPDEST JUMPDEST DUP3 DUP3 MOD SWAP1 POP SWAP3 SWAP2 POP POP JUMP JUMPDEST PUSH32 0x556E6B6E6F776E20737065636965730000000000000000000000000000000000 PUSH0 DUP3 ADD MSTORE POP JUMP JUMPDEST PUSH0 PUSH2 0x1546 PUSH1 0xF DUP4 PUSH2 0x11D7 JUMP JUMPDEST SWAP2 POP PUSH2 0x1551 DUP3 PUSH2 0x1512 JUMP JUMPDEST PUSH1 0x20 DUP3 ADD SWAP1 POP SWAP2 SWAP1 POP JUMP JUMPDEST PUSH0 PUSH1 0x20 DUP3 ADD SWAP1 POP DUP2 DUP2 SUB PUSH0 DUP4 ADD MSTORE PUSH2 0x1573 DUP2 PUSH2 0x153A JUMP JUMPDEST SWAP1 POP SWAP2 SWAP1 POP JUMP INVALID PUSH9 0x747470733A2F2F6761 PUSH21 0x657761792E70696E6174612E636C6F75642F697066 PUSH20 0x2F6261667962656961336C65346173746B6E6832 PUSH17 0x346D626B64357734326A353232746E7365 CALLVALUE PUSH24 0x786B3777356D3777696D6F716470366F757A707968747470 PUSH20 0x3A2F2F676174657761792E70696E6174612E636C PUSH16 0x75642F697066732F6261667962656965 PUSH23 0x377075637A377968377836686169646D7068703569656F PUSH3 0x766366 PUSH5 0x636C6E6C77 PUSH11 0x7161326976733479333537 PUSH17 0x76776D6168747470733A2F2F6761746577 PUSH2 0x792E PUSH17 0x696E6174612E636C6F75642F697066732F PUSH3 0x616679 PUSH3 0x656967 PUSH16 0x686F746F6B366B336F6E76746A797970 PUSH7 0x6E626E7A626373 PUSH16 0x327163697862777A3477683634767032 PUSH15 0x336C71376E6B7361A2646970667358 0x22 SLT KECCAK256 EOFCREATE 0x3D JUMPI 0xEA 0xC8 0xB0 PUSH11 0xA7E01E84A4C6854906BF5A 0xC 0x2E PUSH8 0xE64B6A1A855338BE DUP4 0xDC DUP7 PUSH5 0x736F6C6343 STOP ADDMOD 0x1E STOP CALLER "
				},
				"gasEstimates": {
					"creation": {
						"codeDepositCost": "1166200",
						"executionCost": "infinite",
						"totalCost": "infinite"
					},
					"external": {
						"birds(uint256)": "infinite",
						"feedBird(uint256,uint256)": "infinite",
						"getBird(uint256)": "infinite",
						"insure(uint256)": "26957",
						"insured(uint256)": "2786",
						"mintBird(uint8)": "109210",
						"nextId()": "2425",
						"parkContract()": "2552",
						"setParkContract(address)": "26973",
						"updateHungerAndAge(uint256)": "infinite"
					},
					"internal": {
						"randomPoisoning(uint256)": "infinite"
					}
				},
				"methodIdentifiers": {
					"birds(uint256)": "ec1c5955",
					"feedBird(uint256,uint256)": "1942d199",
					"getBird(uint256)": "6ec88bbd",
					"insure(uint256)": "49b1a0bf",
					"insured(uint256)": "16cb4a05",
					"mintBird(uint8)": "4d2d7881",
					"nextId()": "61b8ce8c",
					"parkContract()": "72680a77",
					"setParkContract(address)": "4e9c7df8",
					"updateHungerAndAge(uint256)": "a2b7ce6f"
				}
			},
			"storageLayout": {
				"storage": [
					{
						"astId": 265,
						"contract": "contracts/Ptak.sol:Ptak",
						"label": "birds",
						"offset": 0,
						"slot": "0",
						"type": "t_mapping(t_uint256,t_struct(BirdData)260_storage)"
					},
					{
						"astId": 267,
						"contract": "contracts/Ptak.sol:Ptak",
						"label": "nextId",
						"offset": 0,
						"slot": "1",
						"type": "t_uint256"
					},
					{
						"astId": 269,
						"contract": "contracts/Ptak.sol:Ptak",
						"label": "parkContract",
						"offset": 0,
						"slot": "2",
						"type": "t_address"
					},
					{
						"astId": 273,
						"contract": "contracts/Ptak.sol:Ptak",
						"label": "insured",
						"offset": 0,
						"slot": "3",
						"type": "t_mapping(t_uint256,t_bool)"
					}
				],
				"types": {
					"t_address": {
						"encoding": "inplace",
						"label": "address",
						"numberOfBytes": "20"
					},
					"t_bool": {
						"encoding": "inplace",
						"label": "bool",
						"numberOfBytes": "1"
					},
					"t_enum(Species)613": {
						"encoding": "inplace",
						"label": "enum SpeciesLibrary.Species",
						"numberOfBytes": "1"
					},
					"t_mapping(t_uint256,t_bool)": {
						"encoding": "mapping",
						"key": "t_uint256",
						"label": "mapping(uint256 => bool)",
						"numberOfBytes": "32",
						"value": "t_bool"
					},
					"t_mapping(t_uint256,t_struct(BirdData)260_storage)": {
						"encoding": "mapping",
						"key": "t_uint256",
						"label": "mapping(uint256 => struct Ptak.BirdData)",
						"numberOfBytes": "32",
						"value": "t_struct(BirdData)260_storage"
					},
					"t_struct(BirdData)260_storage": {
						"encoding": "inplace",
						"label": "struct Ptak.BirdData",
						"members": [
							{
								"astId": 250,
								"contract": "contracts/Ptak.sol:Ptak",
								"label": "age",
								"offset": 0,
								"slot": "0",
								"type": "t_uint256"
							},
							{
								"astId": 252,
								"contract": "contracts/Ptak.sol:Ptak",
								"label": "hunger",
								"offset": 0,
								"slot": "1",
								"type": "t_uint256"
							},
							{
								"astId": 254,
								"contract": "contracts/Ptak.sol:Ptak",
								"label": "health",
								"offset": 0,
								"slot": "2",
								"type": "t_uint256"
							},
							{
								"astId": 257,
								"contract": "contracts/Ptak.sol:Ptak",
								"label": "species",
								"offset": 0,
								"slot": "3",
								"type": "t_enum(Species)613"
							},
							{
								"astId": 259,
								"contract": "contracts/Ptak.sol:Ptak",
								"label": "lastUpdateTime",
								"offset": 0,
								"slot": "4",
								"type": "t_uint256"
							}
						],
						"numberOfBytes": "160"
					},
					"t_uint256": {
						"encoding": "inplace",
						"label": "uint256",
						"numberOfBytes": "32"
					}
				}
			},
			"userdoc": {
				"kind": "user",
				"methods": {},
				"version": 1
			}
		}
	}
}