{
	"contracts/Park.sol": {
		"Park": {
			"abi": [
				{
					"inputs": [
						{
							"internalType": "address",
							"name": "_ptakAddress",
							"type": "address"
						}
					],
					"stateMutability": "nonpayable",
					"type": "constructor"
				},
				{
					"inputs": [
						{
							"internalType": "uint256",
							"name": "birdId",
							"type": "uint256"
						}
					],
					"name": "buyInsurance",
					"outputs": [],
					"stateMutability": "payable",
					"type": "function"
				},
				{
					"inputs": [
						{
							"internalType": "uint256",
							"name": "birdId",
							"type": "uint256"
						}
					],
					"name": "healBird",
					"outputs": [],
					"stateMutability": "payable",
					"type": "function"
				},
				{
					"inputs": [],
					"name": "mintLegendaryBird",
					"outputs": [],
					"stateMutability": "payable",
					"type": "function"
				},
				{
					"inputs": [
						{
							"internalType": "enum SpeciesLibrary.Species",
							"name": "species",
							"type": "uint8"
						}
					],
					"name": "mintRegularBird",
					"outputs": [],
					"stateMutability": "payable",
					"type": "function"
				},
				{
					"inputs": [],
					"name": "ptakContract",
					"outputs": [
						{
							"internalType": "contract Ptak",
							"name": "",
							"type": "address"
						}
					],
					"stateMutability": "view",
					"type": "function"
				},
				{
					"inputs": [
						{
							"internalType": "enum SpeciesLibrary.Species",
							"name": "",
							"type": "uint8"
						}
					],
					"name": "speciesPrices",
					"outputs": [
						{
							"internalType": "uint256",
							"name": "",
							"type": "uint256"
						}
					],
					"stateMutability": "view",
					"type": "function"
				}
			],
			"devdoc": {
				"kind": "dev",
				"methods": {},
				"version": 1
			},
			"evm": {
				"assembly": "    /* \"contracts/Park.sol\":117:2263  contract Park {... */\n  mstore(0x40, 0x80)\n    /* \"contracts/Park.sol\":241:1048  constructor(address _ptakAddress) {... */\n  callvalue\n  dup1\n  iszero\n  tag_1\n  jumpi\n  revert(0x00, 0x00)\ntag_1:\n  pop\n  mload(0x40)\n  sub(codesize, bytecodeSize)\n  dup1\n  bytecodeSize\n  dup4\n  codecopy\n  dup2\n  dup2\n  add\n  0x40\n  mstore\n  dup2\n  add\n  swap1\n  tag_2\n  swap2\n  swap1\n  tag_3\n  jump\t// in\ntag_2:\n    /* \"contracts/Park.sol\":306:318  _ptakAddress */\n  dup1\n    /* \"contracts/Park.sol\":286:298  ptakContract */\n  0x00\n  0x00\n    /* \"contracts/Park.sol\":286:319  ptakContract = Ptak(_ptakAddress) */\n  0x0100\n  exp\n  dup2\n  sload\n  dup2\n  0xffffffffffffffffffffffffffffffffffffffff\n  mul\n  not\n  and\n  swap1\n  dup4\n  0xffffffffffffffffffffffffffffffffffffffff\n  and\n  mul\n  or\n  swap1\n  sstore\n  pop\n    /* \"contracts/Park.sol\":379:389  0.05 ether */\n  0xb1a2bc2ec50000\n    /* \"contracts/Park.sol\":330:343  speciesPrices */\n  0x01\n    /* \"contracts/Park.sol\":330:376  speciesPrices[SpeciesLibrary.Species.MuteSwan] */\n  0x00\n    /* \"contracts/Park.sol\":344:375  SpeciesLibrary.Species.MuteSwan */\n  0x00\n    /* \"contracts/Park.sol\":330:376  speciesPrices[SpeciesLibrary.Species.MuteSwan] */\n  0x0a\n  dup2\n  gt\n  iszero\n  tag_6\n  jumpi\n  tag_7\n  tag_8\n  jump\t// in\ntag_7:\ntag_6:\n  0x0a\n  dup2\n  gt\n  iszero\n  tag_9\n  jumpi\n  tag_10\n  tag_8\n  jump\t// in\ntag_10:\ntag_9:\n  dup2\n  mstore\n  0x20\n  add\n  swap1\n  dup2\n  mstore\n  0x20\n  add\n  0x00\n  keccak256\n    /* \"contracts/Park.sol\":330:389  speciesPrices[SpeciesLibrary.Species.MuteSwan] = 0.05 ether */\n  dup2\n  swap1\n  sstore\n  pop\n    /* \"contracts/Park.sol\":451:461  0.05 ether */\n  0xb1a2bc2ec50000\n    /* \"contracts/Park.sol\":400:413  speciesPrices */\n  0x01\n    /* \"contracts/Park.sol\":400:448  speciesPrices[SpeciesLibrary.Species.WhiteStork] */\n  0x00\n    /* \"contracts/Park.sol\":414:447  SpeciesLibrary.Species.WhiteStork */\n  0x01\n    /* \"contracts/Park.sol\":400:448  speciesPrices[SpeciesLibrary.Species.WhiteStork] */\n  0x0a\n  dup2\n  gt\n  iszero\n  tag_11\n  jumpi\n  tag_12\n  tag_8\n  jump\t// in\ntag_12:\ntag_11:\n  0x0a\n  dup2\n  gt\n  iszero\n  tag_13\n  jumpi\n  tag_14\n  tag_8\n  jump\t// in\ntag_14:\ntag_13:\n  dup2\n  mstore\n  0x20\n  add\n  swap1\n  dup2\n  mstore\n  0x20\n  add\n  0x00\n  keccak256\n    /* \"contracts/Park.sol\":400:461  speciesPrices[SpeciesLibrary.Species.WhiteStork] = 0.05 ether */\n  dup2\n  swap1\n  sstore\n  pop\n    /* \"contracts/Park.sol\":524:534  0.02 ether */\n  0x470de4df820000\n    /* \"contracts/Park.sol\":472:485  speciesPrices */\n  0x01\n    /* \"contracts/Park.sol\":472:521  speciesPrices[SpeciesLibrary.Species.MallardDuck] */\n  0x00\n    /* \"contracts/Park.sol\":486:520  SpeciesLibrary.Species.MallardDuck */\n  0x02\n    /* \"contracts/Park.sol\":472:521  speciesPrices[SpeciesLibrary.Species.MallardDuck] */\n  0x0a\n  dup2\n  gt\n  iszero\n  tag_15\n  jumpi\n  tag_16\n  tag_8\n  jump\t// in\ntag_16:\ntag_15:\n  0x0a\n  dup2\n  gt\n  iszero\n  tag_17\n  jumpi\n  tag_18\n  tag_8\n  jump\t// in\ntag_18:\ntag_17:\n  dup2\n  mstore\n  0x20\n  add\n  swap1\n  dup2\n  mstore\n  0x20\n  add\n  0x00\n  keccak256\n    /* \"contracts/Park.sol\":472:534  speciesPrices[SpeciesLibrary.Species.MallardDuck] = 0.02 ether */\n  dup2\n  swap1\n  sstore\n  pop\n    /* \"contracts/Park.sol\":595:605  0.03 ether */\n  0x6a94d74f430000\n    /* \"contracts/Park.sol\":545:558  speciesPrices */\n  0x01\n    /* \"contracts/Park.sol\":545:592  speciesPrices[SpeciesLibrary.Species.GreyHeron] */\n  0x00\n    /* \"contracts/Park.sol\":559:591  SpeciesLibrary.Species.GreyHeron */\n  0x03\n    /* \"contracts/Park.sol\":545:592  speciesPrices[SpeciesLibrary.Species.GreyHeron] */\n  0x0a\n  dup2\n  gt\n  iszero\n  tag_19\n  jumpi\n  tag_20\n  tag_8\n  jump\t// in\ntag_20:\ntag_19:\n  0x0a\n  dup2\n  gt\n  iszero\n  tag_21\n  jumpi\n  tag_22\n  tag_8\n  jump\t// in\ntag_22:\ntag_21:\n  dup2\n  mstore\n  0x20\n  add\n  swap1\n  dup2\n  mstore\n  0x20\n  add\n  0x00\n  keccak256\n    /* \"contracts/Park.sol\":545:605  speciesPrices[SpeciesLibrary.Species.GreyHeron] = 0.03 ether */\n  dup2\n  swap1\n  sstore\n  pop\n    /* \"contracts/Park.sol\":671:682  0.018 ether */\n  0x3ff2e795f50000\n    /* \"contracts/Park.sol\":616:629  speciesPrices */\n  0x01\n    /* \"contracts/Park.sol\":616:668  speciesPrices[SpeciesLibrary.Species.RedNeckedGrebe] */\n  0x00\n    /* \"contracts/Park.sol\":630:667  SpeciesLibrary.Species.RedNeckedGrebe */\n  0x04\n    /* \"contracts/Park.sol\":616:668  speciesPrices[SpeciesLibrary.Species.RedNeckedGrebe] */\n  0x0a\n  dup2\n  gt\n  iszero\n  tag_23\n  jumpi\n  tag_24\n  tag_8\n  jump\t// in\ntag_24:\ntag_23:\n  0x0a\n  dup2\n  gt\n  iszero\n  tag_25\n  jumpi\n  tag_26\n  tag_8\n  jump\t// in\ntag_26:\ntag_25:\n  dup2\n  mstore\n  0x20\n  add\n  swap1\n  dup2\n  mstore\n  0x20\n  add\n  0x00\n  keccak256\n    /* \"contracts/Park.sol\":616:682  speciesPrices[SpeciesLibrary.Species.RedNeckedGrebe] = 0.018 ether */\n  dup2\n  swap1\n  sstore\n  pop\n    /* \"contracts/Park.sol\":743:753  0.01 ether */\n  0x2386f26fc10000\n    /* \"contracts/Park.sol\":693:706  speciesPrices */\n  0x01\n    /* \"contracts/Park.sol\":693:740  speciesPrices[SpeciesLibrary.Species.WaterRail] */\n  0x00\n    /* \"contracts/Park.sol\":707:739  SpeciesLibrary.Species.WaterRail */\n  0x05\n    /* \"contracts/Park.sol\":693:740  speciesPrices[SpeciesLibrary.Species.WaterRail] */\n  0x0a\n  dup2\n  gt\n  iszero\n  tag_27\n  jumpi\n  tag_28\n  tag_8\n  jump\t// in\ntag_28:\ntag_27:\n  0x0a\n  dup2\n  gt\n  iszero\n  tag_29\n  jumpi\n  tag_30\n  tag_8\n  jump\t// in\ntag_30:\ntag_29:\n  dup2\n  mstore\n  0x20\n  add\n  swap1\n  dup2\n  mstore\n  0x20\n  add\n  0x00\n  keccak256\n    /* \"contracts/Park.sol\":693:753  speciesPrices[SpeciesLibrary.Species.WaterRail] = 0.01 ether */\n  dup2\n  swap1\n  sstore\n  pop\n    /* \"contracts/Park.sol\":815:825  0.01 ether */\n  0x2386f26fc10000\n    /* \"contracts/Park.sol\":764:777  speciesPrices */\n  0x01\n    /* \"contracts/Park.sol\":764:812  speciesPrices[SpeciesLibrary.Species.CommonTern] */\n  0x00\n    /* \"contracts/Park.sol\":778:811  SpeciesLibrary.Species.CommonTern */\n  0x06\n    /* \"contracts/Park.sol\":764:812  speciesPrices[SpeciesLibrary.Species.CommonTern] */\n  0x0a\n  dup2\n  gt\n  iszero\n  tag_31\n  jumpi\n  tag_32\n  tag_8\n  jump\t// in\ntag_32:\ntag_31:\n  0x0a\n  dup2\n  gt\n  iszero\n  tag_33\n  jumpi\n  tag_34\n  tag_8\n  jump\t// in\ntag_34:\ntag_33:\n  dup2\n  mstore\n  0x20\n  add\n  swap1\n  dup2\n  mstore\n  0x20\n  add\n  0x00\n  keccak256\n    /* \"contracts/Park.sol\":764:825  speciesPrices[SpeciesLibrary.Species.CommonTern] = 0.01 ether */\n  dup2\n  swap1\n  sstore\n  pop\n    /* \"contracts/Park.sol\":886:897  0.012 ether */\n  0x2aa1efb94e0000\n    /* \"contracts/Park.sol\":836:849  speciesPrices */\n  0x01\n    /* \"contracts/Park.sol\":836:883  speciesPrices[SpeciesLibrary.Species.Goosander] */\n  0x00\n    /* \"contracts/Park.sol\":850:882  SpeciesLibrary.Species.Goosander */\n  0x07\n    /* \"contracts/Park.sol\":836:883  speciesPrices[SpeciesLibrary.Species.Goosander] */\n  0x0a\n  dup2\n  gt\n  iszero\n  tag_35\n  jumpi\n  tag_36\n  tag_8\n  jump\t// in\ntag_36:\ntag_35:\n  0x0a\n  dup2\n  gt\n  iszero\n  tag_37\n  jumpi\n  tag_38\n  tag_8\n  jump\t// in\ntag_38:\ntag_37:\n  dup2\n  mstore\n  0x20\n  add\n  swap1\n  dup2\n  mstore\n  0x20\n  add\n  0x00\n  keccak256\n    /* \"contracts/Park.sol\":836:897  speciesPrices[SpeciesLibrary.Species.Goosander] = 0.012 ether */\n  dup2\n  swap1\n  sstore\n  pop\n    /* \"contracts/Park.sol\":961:971  0.04 ether */\n  0x8e1bc9bf040000\n    /* \"contracts/Park.sol\":908:921  speciesPrices */\n  0x01\n    /* \"contracts/Park.sol\":908:958  speciesPrices[SpeciesLibrary.Species.GreylagGoose] */\n  0x00\n    /* \"contracts/Park.sol\":922:957  SpeciesLibrary.Species.GreylagGoose */\n  0x08\n    /* \"contracts/Park.sol\":908:958  speciesPrices[SpeciesLibrary.Species.GreylagGoose] */\n  0x0a\n  dup2\n  gt\n  iszero\n  tag_39\n  jumpi\n  tag_40\n  tag_8\n  jump\t// in\ntag_40:\ntag_39:\n  0x0a\n  dup2\n  gt\n  iszero\n  tag_41\n  jumpi\n  tag_42\n  tag_8\n  jump\t// in\ntag_42:\ntag_41:\n  dup2\n  mstore\n  0x20\n  add\n  swap1\n  dup2\n  mstore\n  0x20\n  add\n  0x00\n  keccak256\n    /* \"contracts/Park.sol\":908:971  speciesPrices[SpeciesLibrary.Species.GreylagGoose] = 0.04 ether */\n  dup2\n  swap1\n  sstore\n  pop\n    /* \"contracts/Park.sol\":1030:1040  0.01 ether */\n  0x2386f26fc10000\n    /* \"contracts/Park.sol\":982:995  speciesPrices */\n  0x01\n    /* \"contracts/Park.sol\":982:1027  speciesPrices[SpeciesLibrary.Species.Moorhen] */\n  0x00\n    /* \"contracts/Park.sol\":996:1026  SpeciesLibrary.Species.Moorhen */\n  0x09\n    /* \"contracts/Park.sol\":982:1027  speciesPrices[SpeciesLibrary.Species.Moorhen] */\n  0x0a\n  dup2\n  gt\n  iszero\n  tag_43\n  jumpi\n  tag_44\n  tag_8\n  jump\t// in\ntag_44:\ntag_43:\n  0x0a\n  dup2\n  gt\n  iszero\n  tag_45\n  jumpi\n  tag_46\n  tag_8\n  jump\t// in\ntag_46:\ntag_45:\n  dup2\n  mstore\n  0x20\n  add\n  swap1\n  dup2\n  mstore\n  0x20\n  add\n  0x00\n  keccak256\n    /* \"contracts/Park.sol\":982:1040  speciesPrices[SpeciesLibrary.Species.Moorhen] = 0.01 ether */\n  dup2\n  swap1\n  sstore\n  pop\n    /* \"contracts/Park.sol\":241:1048  constructor(address _ptakAddress) {... */\n  pop\n    /* \"contracts/Park.sol\":117:2263  contract Park {... */\n  jump(tag_47)\n    /* \"#utility.yul\":88:205   */\ntag_49:\n    /* \"#utility.yul\":197:198   */\n  0x00\n    /* \"#utility.yul\":194:195   */\n  0x00\n    /* \"#utility.yul\":187:199   */\n  revert\n    /* \"#utility.yul\":334:460   */\ntag_51:\n    /* \"#utility.yul\":371:378   */\n  0x00\n    /* \"#utility.yul\":411:453   */\n  0xffffffffffffffffffffffffffffffffffffffff\n    /* \"#utility.yul\":404:409   */\n  dup3\n    /* \"#utility.yul\":400:454   */\n  and\n    /* \"#utility.yul\":389:454   */\n  swap1\n  pop\n    /* \"#utility.yul\":334:460   */\n  swap2\n  swap1\n  pop\n  jump\t// out\n    /* \"#utility.yul\":466:562   */\ntag_52:\n    /* \"#utility.yul\":503:510   */\n  0x00\n    /* \"#utility.yul\":532:556   */\n  tag_61\n    /* \"#utility.yul\":550:555   */\n  dup3\n    /* \"#utility.yul\":532:556   */\n  tag_51\n  jump\t// in\ntag_61:\n    /* \"#utility.yul\":521:556   */\n  swap1\n  pop\n    /* \"#utility.yul\":466:562   */\n  swap2\n  swap1\n  pop\n  jump\t// out\n    /* \"#utility.yul\":568:690   */\ntag_53:\n    /* \"#utility.yul\":641:665   */\n  tag_63\n    /* \"#utility.yul\":659:664   */\n  dup2\n    /* \"#utility.yul\":641:665   */\n  tag_52\n  jump\t// in\ntag_63:\n    /* \"#utility.yul\":634:639   */\n  dup2\n    /* \"#utility.yul\":631:666   */\n  eq\n    /* \"#utility.yul\":621:684   */\n  tag_64\n  jumpi\n    /* \"#utility.yul\":680:681   */\n  0x00\n    /* \"#utility.yul\":677:678   */\n  0x00\n    /* \"#utility.yul\":670:682   */\n  revert\n    /* \"#utility.yul\":621:684   */\ntag_64:\n    /* \"#utility.yul\":568:690   */\n  pop\n  jump\t// out\n    /* \"#utility.yul\":696:839   */\ntag_54:\n    /* \"#utility.yul\":753:758   */\n  0x00\n    /* \"#utility.yul\":784:790   */\n  dup2\n    /* \"#utility.yul\":778:791   */\n  mload\n    /* \"#utility.yul\":769:791   */\n  swap1\n  pop\n    /* \"#utility.yul\":800:833   */\n  tag_66\n    /* \"#utility.yul\":827:832   */\n  dup2\n    /* \"#utility.yul\":800:833   */\n  tag_53\n  jump\t// in\ntag_66:\n    /* \"#utility.yul\":696:839   */\n  swap3\n  swap2\n  pop\n  pop\n  jump\t// out\n    /* \"#utility.yul\":845:1196   */\ntag_3:\n    /* \"#utility.yul\":915:921   */\n  0x00\n    /* \"#utility.yul\":964:966   */\n  0x20\n    /* \"#utility.yul\":952:961   */\n  dup3\n    /* \"#utility.yul\":943:950   */\n  dup5\n    /* \"#utility.yul\":939:962   */\n  sub\n    /* \"#utility.yul\":935:967   */\n  slt\n    /* \"#utility.yul\":932:1051   */\n  iszero\n  tag_68\n  jumpi\n    /* \"#utility.yul\":970:1049   */\n  tag_69\n  tag_49\n  jump\t// in\ntag_69:\n    /* \"#utility.yul\":932:1051   */\ntag_68:\n    /* \"#utility.yul\":1090:1091   */\n  0x00\n    /* \"#utility.yul\":1115:1179   */\n  tag_70\n    /* \"#utility.yul\":1171:1178   */\n  dup5\n    /* \"#utility.yul\":1162:1168   */\n  dup3\n    /* \"#utility.yul\":1151:1160   */\n  dup6\n    /* \"#utility.yul\":1147:1169   */\n  add\n    /* \"#utility.yul\":1115:1179   */\n  tag_54\n  jump\t// in\ntag_70:\n    /* \"#utility.yul\":1105:1179   */\n  swap2\n  pop\n    /* \"#utility.yul\":1061:1189   */\n  pop\n    /* \"#utility.yul\":845:1196   */\n  swap3\n  swap2\n  pop\n  pop\n  jump\t// out\n    /* \"#utility.yul\":1202:1382   */\ntag_8:\n    /* \"#utility.yul\":1250:1327   */\n  0x4e487b7100000000000000000000000000000000000000000000000000000000\n    /* \"#utility.yul\":1247:1248   */\n  0x00\n    /* \"#utility.yul\":1240:1328   */\n  mstore\n    /* \"#utility.yul\":1347:1351   */\n  0x21\n    /* \"#utility.yul\":1344:1345   */\n  0x04\n    /* \"#utility.yul\":1337:1352   */\n  mstore\n    /* \"#utility.yul\":1371:1375   */\n  0x24\n    /* \"#utility.yul\":1368:1369   */\n  0x00\n    /* \"#utility.yul\":1361:1376   */\n  revert\n    /* \"contracts/Park.sol\":117:2263  contract Park {... */\ntag_47:\n  dataSize(sub_0)\n  dup1\n  dataOffset(sub_0)\n  0x00\n  codecopy\n  0x00\n  return\nstop\n\nsub_0: assembly {\n        /* \"contracts/Park.sol\":117:2263  contract Park {... */\n      mstore(0x40, 0x80)\n      jumpi(tag_1, lt(calldatasize, 0x04))\n      shr(0xe0, calldataload(0x00))\n      dup1\n      0x4a7388a3\n      eq\n      tag_2\n      jumpi\n      dup1\n      0x5361e1d2\n      eq\n      tag_3\n      jumpi\n      dup1\n      0x9aeb133f\n      eq\n      tag_4\n      jumpi\n      dup1\n      0xa86a658c\n      eq\n      tag_5\n      jumpi\n      dup1\n      0xbff998f4\n      eq\n      tag_6\n      jumpi\n      dup1\n      0xeb96efa7\n      eq\n      tag_7\n      jumpi\n    tag_1:\n      revert(0x00, 0x00)\n        /* \"contracts/Park.sol\":169:232  mapping(SpeciesLibrary.Species => uint256) public speciesPrices */\n    tag_2:\n      callvalue\n      dup1\n      iszero\n      tag_8\n      jumpi\n      revert(0x00, 0x00)\n    tag_8:\n      pop\n      tag_9\n      0x04\n      dup1\n      calldatasize\n      sub\n      dup2\n      add\n      swap1\n      tag_10\n      swap2\n      swap1\n      tag_11\n      jump\t// in\n    tag_10:\n      tag_12\n      jump\t// in\n    tag_9:\n      mload(0x40)\n      tag_13\n      swap2\n      swap1\n      tag_14\n      jump\t// in\n    tag_13:\n      mload(0x40)\n      dup1\n      swap2\n      sub\n      swap1\n      return\n        /* \"contracts/Park.sol\":138:162  Ptak public ptakContract */\n    tag_3:\n      callvalue\n      dup1\n      iszero\n      tag_15\n      jumpi\n      revert(0x00, 0x00)\n    tag_15:\n      pop\n      tag_16\n      tag_17\n      jump\t// in\n    tag_16:\n      mload(0x40)\n      tag_18\n      swap2\n      swap1\n      tag_19\n      jump\t// in\n    tag_18:\n      mload(0x40)\n      dup1\n      swap2\n      sub\n      swap1\n      return\n        /* \"contracts/Park.sol\":1519:2015  function mintRegularBird(SpeciesLibrary.Species species) external payable {... */\n    tag_4:\n      tag_20\n      0x04\n      dup1\n      calldatasize\n      sub\n      dup2\n      add\n      swap1\n      tag_21\n      swap2\n      swap1\n      tag_11\n      jump\t// in\n    tag_21:\n      tag_22\n      jump\t// in\n    tag_20:\n      stop\n        /* \"contracts/Park.sol\":1339:1511  function buyInsurance(uint256 birdId) external payable {... */\n    tag_5:\n      tag_23\n      0x04\n      dup1\n      calldatasize\n      sub\n      dup2\n      add\n      swap1\n      tag_24\n      swap2\n      swap1\n      tag_25\n      jump\t// in\n    tag_24:\n      tag_26\n      jump\t// in\n    tag_23:\n      stop\n        /* \"contracts/Park.sol\":1056:1331  function healBird(uint256 birdId) external payable {... */\n    tag_6:\n      tag_27\n      0x04\n      dup1\n      calldatasize\n      sub\n      dup2\n      add\n      swap1\n      tag_28\n      swap2\n      swap1\n      tag_25\n      jump\t// in\n    tag_28:\n      tag_29\n      jump\t// in\n    tag_27:\n      stop\n        /* \"contracts/Park.sol\":2023:2260  function mintLegendaryBird() external payable {... */\n    tag_7:\n      tag_30\n      tag_31\n      jump\t// in\n    tag_30:\n      stop\n        /* \"contracts/Park.sol\":169:232  mapping(SpeciesLibrary.Species => uint256) public speciesPrices */\n    tag_12:\n      mstore(0x20, 0x01)\n      dup1\n      0x00\n      mstore\n      keccak256(0x00, 0x40)\n      0x00\n      swap2\n      pop\n      swap1\n      pop\n      sload\n      dup2\n      jump\t// out\n        /* \"contracts/Park.sol\":138:162  Ptak public ptakContract */\n    tag_17:\n      0x00\n      0x00\n      swap1\n      sload\n      swap1\n      0x0100\n      exp\n      swap1\n      div\n      0xffffffffffffffffffffffffffffffffffffffff\n      and\n      dup2\n      jump\t// out\n        /* \"contracts/Park.sol\":1519:2015  function mintRegularBird(SpeciesLibrary.Species species) external payable {... */\n    tag_22:\n        /* \"contracts/Park.sol\":1604:1617  uint256 price */\n      0x00\n        /* \"contracts/Park.sol\":1620:1633  speciesPrices */\n      0x01\n        /* \"contracts/Park.sol\":1620:1642  speciesPrices[species] */\n      0x00\n        /* \"contracts/Park.sol\":1634:1641  species */\n      dup4\n        /* \"contracts/Park.sol\":1620:1642  speciesPrices[species] */\n      0x0a\n      dup2\n      gt\n      iszero\n      tag_33\n      jumpi\n      tag_34\n      tag_35\n      jump\t// in\n    tag_34:\n    tag_33:\n      0x0a\n      dup2\n      gt\n      iszero\n      tag_36\n      jumpi\n      tag_37\n      tag_35\n      jump\t// in\n    tag_37:\n    tag_36:\n      dup2\n      mstore\n      0x20\n      add\n      swap1\n      dup2\n      mstore\n      0x20\n      add\n      0x00\n      keccak256\n      sload\n        /* \"contracts/Park.sol\":1604:1642  uint256 price = speciesPrices[species] */\n      swap1\n      pop\n        /* \"contracts/Park.sol\":1674:1679  price */\n      dup1\n        /* \"contracts/Park.sol\":1661:1670  msg.value */\n      callvalue\n        /* \"contracts/Park.sol\":1661:1679  msg.value >= price */\n      lt\n      iszero\n        /* \"contracts/Park.sol\":1653:1719  require(msg.value >= price, \"Not enough ETH to mint this species\") */\n      tag_38\n      jumpi\n      mload(0x40)\n      0x08c379a000000000000000000000000000000000000000000000000000000000\n      dup2\n      mstore\n      0x04\n      add\n      tag_39\n      swap1\n      tag_40\n      jump\t// in\n    tag_39:\n      mload(0x40)\n      dup1\n      swap2\n      sub\n      swap1\n      revert\n    tag_38:\n        /* \"contracts/Park.sol\":1732:1744  uint256 rand */\n      0x00\n        /* \"contracts/Park.sol\":1815:1819  1000 */\n      0x03e8\n        /* \"contracts/Park.sol\":1782:1797  block.timestamp */\n      timestamp\n        /* \"contracts/Park.sol\":1799:1809  msg.sender */\n      caller\n        /* \"contracts/Park.sol\":1765:1810  abi.encodePacked(block.timestamp, msg.sender) */\n      add(0x20, mload(0x40))\n      tag_41\n      swap3\n      swap2\n      swap1\n      tag_42\n      jump\t// in\n    tag_41:\n      mload(0x40)\n      0x20\n      dup2\n      dup4\n      sub\n      sub\n      dup2\n      mstore\n      swap1\n      0x40\n      mstore\n        /* \"contracts/Park.sol\":1755:1811  keccak256(abi.encodePacked(block.timestamp, msg.sender)) */\n      dup1\n      mload\n      swap1\n      0x20\n      add\n      keccak256\n        /* \"contracts/Park.sol\":1747:1812  uint256(keccak256(abi.encodePacked(block.timestamp, msg.sender))) */\n      0x00\n      shr\n        /* \"contracts/Park.sol\":1747:1819  uint256(keccak256(abi.encodePacked(block.timestamp, msg.sender))) % 1000 */\n      tag_43\n      swap2\n      swap1\n      tag_44\n      jump\t// in\n    tag_43:\n        /* \"contracts/Park.sol\":1732:1819  uint256 rand = uint256(keccak256(abi.encodePacked(block.timestamp, msg.sender))) % 1000 */\n      swap1\n      pop\n        /* \"contracts/Park.sol\":1840:1842  10 */\n      0x0a\n        /* \"contracts/Park.sol\":1833:1837  rand */\n      dup2\n        /* \"contracts/Park.sol\":1833:1842  rand < 10 */\n      lt\n        /* \"contracts/Park.sol\":1830:2008  if(rand < 10) { // 1% szans... */\n      iszero\n      tag_45\n      jumpi\n        /* \"contracts/Park.sol\":1871:1883  ptakContract */\n      0x00\n      0x00\n      swap1\n      sload\n      swap1\n      0x0100\n      exp\n      swap1\n      div\n      0xffffffffffffffffffffffffffffffffffffffff\n      and\n        /* \"contracts/Park.sol\":1871:1892  ptakContract.mintBird */\n      0xffffffffffffffffffffffffffffffffffffffff\n      and\n      0x4d2d7881\n        /* \"contracts/Park.sol\":1893:1924  SpeciesLibrary.Species.Mythical */\n      0x0a\n        /* \"contracts/Park.sol\":1871:1925  ptakContract.mintBird(SpeciesLibrary.Species.Mythical) */\n      mload(0x40)\n      dup3\n      0xffffffff\n      and\n      0xe0\n      shl\n      dup2\n      mstore\n      0x04\n      add\n      tag_46\n      swap2\n      swap1\n      tag_47\n      jump\t// in\n    tag_46:\n      0x20\n      mload(0x40)\n      dup1\n      dup4\n      sub\n      dup2\n      0x00\n      dup8\n      gas\n      call\n      iszero\n      dup1\n      iszero\n      tag_49\n      jumpi\n      returndatacopy(0x00, 0x00, returndatasize)\n      revert(0x00, returndatasize)\n    tag_49:\n      pop\n      pop\n      pop\n      pop\n      mload(0x40)\n      returndatasize\n      not(0x1f)\n      0x1f\n      dup3\n      add\n      and\n      dup3\n      add\n      dup1\n      0x40\n      mstore\n      pop\n      dup2\n      add\n      swap1\n      tag_50\n      swap2\n      swap1\n      tag_51\n      jump\t// in\n    tag_50:\n      pop\n        /* \"contracts/Park.sol\":1830:2008  if(rand < 10) { // 1% szans... */\n      jump(tag_52)\n    tag_45:\n        /* \"contracts/Park.sol\":1966:1978  ptakContract */\n      0x00\n      0x00\n      swap1\n      sload\n      swap1\n      0x0100\n      exp\n      swap1\n      div\n      0xffffffffffffffffffffffffffffffffffffffff\n      and\n        /* \"contracts/Park.sol\":1966:1987  ptakContract.mintBird */\n      0xffffffffffffffffffffffffffffffffffffffff\n      and\n      0x4d2d7881\n        /* \"contracts/Park.sol\":1988:1995  species */\n      dup5\n        /* \"contracts/Park.sol\":1966:1996  ptakContract.mintBird(species) */\n      mload(0x40)\n      dup3\n      0xffffffff\n      and\n      0xe0\n      shl\n      dup2\n      mstore\n      0x04\n      add\n      tag_53\n      swap2\n      swap1\n      tag_47\n      jump\t// in\n    tag_53:\n      0x20\n      mload(0x40)\n      dup1\n      dup4\n      sub\n      dup2\n      0x00\n      dup8\n      gas\n      call\n      iszero\n      dup1\n      iszero\n      tag_55\n      jumpi\n      returndatacopy(0x00, 0x00, returndatasize)\n      revert(0x00, returndatasize)\n    tag_55:\n      pop\n      pop\n      pop\n      pop\n      mload(0x40)\n      returndatasize\n      not(0x1f)\n      0x1f\n      dup3\n      add\n      and\n      dup3\n      add\n      dup1\n      0x40\n      mstore\n      pop\n      dup2\n      add\n      swap1\n      tag_56\n      swap2\n      swap1\n      tag_51\n      jump\t// in\n    tag_56:\n      pop\n        /* \"contracts/Park.sol\":1830:2008  if(rand < 10) { // 1% szans... */\n    tag_52:\n        /* \"contracts/Park.sol\":1593:2015  {... */\n      pop\n      pop\n        /* \"contracts/Park.sol\":1519:2015  function mintRegularBird(SpeciesLibrary.Species species) external payable {... */\n      pop\n      jump\t// out\n        /* \"contracts/Park.sol\":1339:1511  function buyInsurance(uint256 birdId) external payable {... */\n    tag_26:\n        /* \"contracts/Park.sol\":1426:1436  0.02 ether */\n      0x470de4df820000\n        /* \"contracts/Park.sol\":1413:1422  msg.value */\n      callvalue\n        /* \"contracts/Park.sol\":1413:1436  msg.value >= 0.02 ether */\n      lt\n      iszero\n        /* \"contracts/Park.sol\":1405:1465  require(msg.value >= 0.02 ether, \"Insurance costs 0.02 ETH\") */\n      tag_58\n      jumpi\n      mload(0x40)\n      0x08c379a000000000000000000000000000000000000000000000000000000000\n      dup2\n      mstore\n      0x04\n      add\n      tag_59\n      swap1\n      tag_60\n      jump\t// in\n    tag_59:\n      mload(0x40)\n      dup1\n      swap2\n      sub\n      swap1\n      revert\n    tag_58:\n        /* \"contracts/Park.sol\":1476:1488  ptakContract */\n      0x00\n      0x00\n      swap1\n      sload\n      swap1\n      0x0100\n      exp\n      swap1\n      div\n      0xffffffffffffffffffffffffffffffffffffffff\n      and\n        /* \"contracts/Park.sol\":1476:1495  ptakContract.insure */\n      0xffffffffffffffffffffffffffffffffffffffff\n      and\n      0x49b1a0bf\n        /* \"contracts/Park.sol\":1496:1502  birdId */\n      dup3\n        /* \"contracts/Park.sol\":1476:1503  ptakContract.insure(birdId) */\n      mload(0x40)\n      dup3\n      0xffffffff\n      and\n      0xe0\n      shl\n      dup2\n      mstore\n      0x04\n      add\n      tag_61\n      swap2\n      swap1\n      tag_14\n      jump\t// in\n    tag_61:\n      0x00\n      mload(0x40)\n      dup1\n      dup4\n      sub\n      dup2\n      0x00\n      dup8\n      dup1\n      extcodesize\n      iszero\n      dup1\n      iszero\n      tag_62\n      jumpi\n      revert(0x00, 0x00)\n    tag_62:\n      pop\n      gas\n      call\n      iszero\n      dup1\n      iszero\n      tag_64\n      jumpi\n      returndatacopy(0x00, 0x00, returndatasize)\n      revert(0x00, returndatasize)\n    tag_64:\n      pop\n      pop\n      pop\n      pop\n        /* \"contracts/Park.sol\":1339:1511  function buyInsurance(uint256 birdId) external payable {... */\n      pop\n      jump\t// out\n        /* \"contracts/Park.sol\":1056:1331  function healBird(uint256 birdId) external payable {... */\n    tag_29:\n        /* \"contracts/Park.sol\":1139:1150  0.005 ether */\n      0x11c37937e08000\n        /* \"contracts/Park.sol\":1126:1135  msg.value */\n      callvalue\n        /* \"contracts/Park.sol\":1126:1150  msg.value >= 0.005 ether */\n      lt\n      iszero\n        /* \"contracts/Park.sol\":1118:1178  require(msg.value >= 0.005 ether, \"Healing costs 0.005 ETH\") */\n      tag_66\n      jumpi\n      mload(0x40)\n      0x08c379a000000000000000000000000000000000000000000000000000000000\n      dup2\n      mstore\n      0x04\n      add\n      tag_67\n      swap1\n      tag_68\n      jump\t// in\n    tag_67:\n      mload(0x40)\n      dup1\n      swap2\n      sub\n      swap1\n      revert\n    tag_66:\n        /* \"contracts/Park.sol\":1189:1214  Ptak.BirdData memory bird */\n      0x00\n        /* \"contracts/Park.sol\":1217:1229  ptakContract */\n      0x00\n      0x00\n      swap1\n      sload\n      swap1\n      0x0100\n      exp\n      swap1\n      div\n      0xffffffffffffffffffffffffffffffffffffffff\n      and\n        /* \"contracts/Park.sol\":1217:1237  ptakContract.getBird */\n      0xffffffffffffffffffffffffffffffffffffffff\n      and\n      0x6ec88bbd\n        /* \"contracts/Park.sol\":1238:1244  birdId */\n      dup4\n        /* \"contracts/Park.sol\":1217:1245  ptakContract.getBird(birdId) */\n      mload(0x40)\n      dup3\n      0xffffffff\n      and\n      0xe0\n      shl\n      dup2\n      mstore\n      0x04\n      add\n      tag_69\n      swap2\n      swap1\n      tag_14\n      jump\t// in\n    tag_69:\n      0xa0\n      mload(0x40)\n      dup1\n      dup4\n      sub\n      dup2\n      0x00\n      dup8\n      gas\n      call\n      iszero\n      dup1\n      iszero\n      tag_71\n      jumpi\n      returndatacopy(0x00, 0x00, returndatasize)\n      revert(0x00, returndatasize)\n    tag_71:\n      pop\n      pop\n      pop\n      pop\n      mload(0x40)\n      returndatasize\n      not(0x1f)\n      0x1f\n      dup3\n      add\n      and\n      dup3\n      add\n      dup1\n      0x40\n      mstore\n      pop\n      dup2\n      add\n      swap1\n      tag_72\n      swap2\n      swap1\n      tag_73\n      jump\t// in\n    tag_72:\n        /* \"contracts/Park.sol\":1189:1245  Ptak.BirdData memory bird = ptakContract.getBird(birdId) */\n      swap1\n      pop\n        /* \"contracts/Park.sol\":1270:1313  SpeciesLibrary.getSpeciesInfo(bird.species) */\n      tag_74\n        /* \"contracts/Park.sol\":1300:1304  bird */\n      dup2\n        /* \"contracts/Park.sol\":1300:1312  bird.species */\n      0x60\n      add\n      mload\n        /* \"contracts/Park.sol\":1270:1299  SpeciesLibrary.getSpeciesInfo */\n      tag_75\n        /* \"contracts/Park.sol\":1270:1313  SpeciesLibrary.getSpeciesInfo(bird.species) */\n      jump\t// in\n    tag_74:\n        /* \"contracts/Park.sol\":1270:1323  SpeciesLibrary.getSpeciesInfo(bird.species).maxHealth */\n      0x00\n      add\n      mload\n        /* \"contracts/Park.sol\":1256:1260  bird */\n      dup2\n        /* \"contracts/Park.sol\":1256:1267  bird.health */\n      0x40\n      add\n        /* \"contracts/Park.sol\":1256:1323  bird.health = SpeciesLibrary.getSpeciesInfo(bird.species).maxHealth */\n      dup2\n      dup2\n      mstore\n      pop\n      pop\n        /* \"contracts/Park.sol\":1107:1331  {... */\n      pop\n        /* \"contracts/Park.sol\":1056:1331  function healBird(uint256 birdId) external payable {... */\n      pop\n      jump\t// out\n        /* \"contracts/Park.sol\":2023:2260  function mintLegendaryBird() external payable {... */\n    tag_31:\n        /* \"contracts/Park.sol\":2080:2093  uint256 price */\n      0x00\n        /* \"contracts/Park.sol\":2096:2105  0.2 ether */\n      0x02c68af0bb140000\n        /* \"contracts/Park.sol\":2080:2105  uint256 price = 0.2 ether */\n      swap1\n      pop\n        /* \"contracts/Park.sol\":2137:2142  price */\n      dup1\n        /* \"contracts/Park.sol\":2124:2133  msg.value */\n      callvalue\n        /* \"contracts/Park.sol\":2124:2142  msg.value >= price */\n      lt\n      iszero\n        /* \"contracts/Park.sol\":2116:2183  require(msg.value >= price, \"Not enough ETH to mint mythical bird\") */\n      tag_77\n      jumpi\n      mload(0x40)\n      0x08c379a000000000000000000000000000000000000000000000000000000000\n      dup2\n      mstore\n      0x04\n      add\n      tag_78\n      swap1\n      tag_79\n      jump\t// in\n    tag_78:\n      mload(0x40)\n      dup1\n      swap2\n      sub\n      swap1\n      revert\n    tag_77:\n        /* \"contracts/Park.sol\":2198:2210  ptakContract */\n      0x00\n      0x00\n      swap1\n      sload\n      swap1\n      0x0100\n      exp\n      swap1\n      div\n      0xffffffffffffffffffffffffffffffffffffffff\n      and\n        /* \"contracts/Park.sol\":2198:2219  ptakContract.mintBird */\n      0xffffffffffffffffffffffffffffffffffffffff\n      and\n      0x4d2d7881\n        /* \"contracts/Park.sol\":2220:2251  SpeciesLibrary.Species.Mythical */\n      0x0a\n        /* \"contracts/Park.sol\":2198:2252  ptakContract.mintBird(SpeciesLibrary.Species.Mythical) */\n      mload(0x40)\n      dup3\n      0xffffffff\n      and\n      0xe0\n      shl\n      dup2\n      mstore\n      0x04\n      add\n      tag_80\n      swap2\n      swap1\n      tag_47\n      jump\t// in\n    tag_80:\n      0x20\n      mload(0x40)\n      dup1\n      dup4\n      sub\n      dup2\n      0x00\n      dup8\n      gas\n      call\n      iszero\n      dup1\n      iszero\n      tag_82\n      jumpi\n      returndatacopy(0x00, 0x00, returndatasize)\n      revert(0x00, returndatasize)\n    tag_82:\n      pop\n      pop\n      pop\n      pop\n      mload(0x40)\n      returndatasize\n      not(0x1f)\n      0x1f\n      dup3\n      add\n      and\n      dup3\n      add\n      dup1\n      0x40\n      mstore\n      pop\n      dup2\n      add\n      swap1\n      tag_83\n      swap2\n      swap1\n      tag_51\n      jump\t// in\n    tag_83:\n      pop\n        /* \"contracts/Park.sol\":2069:2260  {... */\n      pop\n        /* \"contracts/Park.sol\":2023:2260  function mintLegendaryBird() external payable {... */\n      jump\t// out\n        /* \"contracts/SpeciesLibrary.sol\":779:2340  function getSpeciesInfo(Species species) internal pure returns (SpeciesInfo memory) {... */\n    tag_75:\n        /* \"contracts/SpeciesLibrary.sol\":843:861  SpeciesInfo memory */\n      tag_84\n      tag_85\n      jump\t// in\n    tag_84:\n        /* \"contracts/SpeciesLibrary.sol\":889:905  Species.MuteSwan */\n      0x00\n        /* \"contracts/SpeciesLibrary.sol\":878:905  species == Species.MuteSwan */\n      0x0a\n      dup2\n      gt\n      iszero\n      tag_87\n      jumpi\n      tag_88\n      tag_35\n      jump\t// in\n    tag_88:\n    tag_87:\n        /* \"contracts/SpeciesLibrary.sol\":878:885  species */\n      dup3\n        /* \"contracts/SpeciesLibrary.sol\":878:905  species == Species.MuteSwan */\n      0x0a\n      dup2\n      gt\n      iszero\n      tag_89\n      jumpi\n      tag_90\n      tag_35\n      jump\t// in\n    tag_90:\n    tag_89:\n      sub\n        /* \"contracts/SpeciesLibrary.sol\":874:2297  if (species == Species.MuteSwan) {... */\n      tag_91\n      jumpi\n        /* \"contracts/SpeciesLibrary.sol\":929:1053  SpeciesInfo(200, 150, 3, 1, \"https://gateway.pinata.cloud/ipfs/bafybeia3le4astknh2p4mbkd5w42j522tnse4wxk7w5m7wimoqdp6ouzpy\") */\n      mload(0x40)\n      dup1\n      0xa0\n      add\n      0x40\n      mstore\n      dup1\n        /* \"contracts/SpeciesLibrary.sol\":941:944  200 */\n      0xc8\n        /* \"contracts/SpeciesLibrary.sol\":929:1053  SpeciesInfo(200, 150, 3, 1, \"https://gateway.pinata.cloud/ipfs/bafybeia3le4astknh2p4mbkd5w42j522tnse4wxk7w5m7wimoqdp6ouzpy\") */\n      dup2\n      mstore\n      0x20\n      add\n        /* \"contracts/SpeciesLibrary.sol\":946:949  150 */\n      0x96\n        /* \"contracts/SpeciesLibrary.sol\":929:1053  SpeciesInfo(200, 150, 3, 1, \"https://gateway.pinata.cloud/ipfs/bafybeia3le4astknh2p4mbkd5w42j522tnse4wxk7w5m7wimoqdp6ouzpy\") */\n      dup2\n      mstore\n      0x20\n      add\n        /* \"contracts/SpeciesLibrary.sol\":951:952  3 */\n      0x03\n        /* \"contracts/SpeciesLibrary.sol\":929:1053  SpeciesInfo(200, 150, 3, 1, \"https://gateway.pinata.cloud/ipfs/bafybeia3le4astknh2p4mbkd5w42j522tnse4wxk7w5m7wimoqdp6ouzpy\") */\n      dup2\n      mstore\n      0x20\n      add\n        /* \"contracts/SpeciesLibrary.sol\":954:955  1 */\n      0x01\n        /* \"contracts/SpeciesLibrary.sol\":929:1053  SpeciesInfo(200, 150, 3, 1, \"https://gateway.pinata.cloud/ipfs/bafybeia3le4astknh2p4mbkd5w42j522tnse4wxk7w5m7wimoqdp6ouzpy\") */\n      dup2\n      mstore\n      0x20\n      add\n      mload(0x40)\n      dup1\n      0x80\n      add\n      0x40\n      mstore\n      dup1\n      0x5d\n      dup2\n      mstore\n      0x20\n      add\n      data_1ffc5c99f8ff866cb3cb9bd46d45453badb8f26649052a31a9be49b9b43149da\n      0x5d\n      swap2\n      codecopy\n      dup2\n      mstore\n      pop\n        /* \"contracts/SpeciesLibrary.sol\":922:1053  return SpeciesInfo(200, 150, 3, 1, \"https://gateway.pinata.cloud/ipfs/bafybeia3le4astknh2p4mbkd5w42j522tnse4wxk7w5m7wimoqdp6ouzpy\") */\n      swap1\n      pop\n      jump(tag_86)\n        /* \"contracts/SpeciesLibrary.sol\":874:2297  if (species == Species.MuteSwan) {... */\n    tag_91:\n        /* \"contracts/SpeciesLibrary.sol\":1086:1104  Species.WhiteStork */\n      0x01\n        /* \"contracts/SpeciesLibrary.sol\":1075:1104  species == Species.WhiteStork */\n      0x0a\n      dup2\n      gt\n      iszero\n      tag_93\n      jumpi\n      tag_94\n      tag_35\n      jump\t// in\n    tag_94:\n    tag_93:\n        /* \"contracts/SpeciesLibrary.sol\":1075:1082  species */\n      dup3\n        /* \"contracts/SpeciesLibrary.sol\":1075:1104  species == Species.WhiteStork */\n      0x0a\n      dup2\n      gt\n      iszero\n      tag_95\n      jumpi\n      tag_96\n      tag_35\n      jump\t// in\n    tag_96:\n    tag_95:\n      sub\n        /* \"contracts/SpeciesLibrary.sol\":1071:2297  if (species == Species.WhiteStork) {... */\n      tag_97\n      jumpi\n        /* \"contracts/SpeciesLibrary.sol\":1128:1252  SpeciesInfo(220, 200, 2, 5, \"https://gateway.pinata.cloud/ipfs/bafybeigohotok6k3onvtjyypfnbnzbcso2qcixbwz4wh64vp2n3lq7nksa\") */\n      mload(0x40)\n      dup1\n      0xa0\n      add\n      0x40\n      mstore\n      dup1\n        /* \"contracts/SpeciesLibrary.sol\":1140:1143  220 */\n      0xdc\n        /* \"contracts/SpeciesLibrary.sol\":1128:1252  SpeciesInfo(220, 200, 2, 5, \"https://gateway.pinata.cloud/ipfs/bafybeigohotok6k3onvtjyypfnbnzbcso2qcixbwz4wh64vp2n3lq7nksa\") */\n      dup2\n      mstore\n      0x20\n      add\n        /* \"contracts/SpeciesLibrary.sol\":1145:1148  200 */\n      0xc8\n        /* \"contracts/SpeciesLibrary.sol\":1128:1252  SpeciesInfo(220, 200, 2, 5, \"https://gateway.pinata.cloud/ipfs/bafybeigohotok6k3onvtjyypfnbnzbcso2qcixbwz4wh64vp2n3lq7nksa\") */\n      dup2\n      mstore\n      0x20\n      add\n        /* \"contracts/SpeciesLibrary.sol\":1150:1151  2 */\n      0x02\n        /* \"contracts/SpeciesLibrary.sol\":1128:1252  SpeciesInfo(220, 200, 2, 5, \"https://gateway.pinata.cloud/ipfs/bafybeigohotok6k3onvtjyypfnbnzbcso2qcixbwz4wh64vp2n3lq7nksa\") */\n      dup2\n      mstore\n      0x20\n      add\n        /* \"contracts/SpeciesLibrary.sol\":1153:1154  5 */\n      0x05\n        /* \"contracts/SpeciesLibrary.sol\":1128:1252  SpeciesInfo(220, 200, 2, 5, \"https://gateway.pinata.cloud/ipfs/bafybeigohotok6k3onvtjyypfnbnzbcso2qcixbwz4wh64vp2n3lq7nksa\") */\n      dup2\n      mstore\n      0x20\n      add\n      mload(0x40)\n      dup1\n      0x80\n      add\n      0x40\n      mstore\n      dup1\n      0x5d\n      dup2\n      mstore\n      0x20\n      add\n      data_86e92b1a76e2f297d69c89af4232d1b3e647fd322843457f38b762c99d8ee708\n      0x5d\n      swap2\n      codecopy\n      dup2\n      mstore\n      pop\n        /* \"contracts/SpeciesLibrary.sol\":1121:1252  return SpeciesInfo(220, 200, 2, 5, \"https://gateway.pinata.cloud/ipfs/bafybeigohotok6k3onvtjyypfnbnzbcso2qcixbwz4wh64vp2n3lq7nksa\") */\n      swap1\n      pop\n      jump(tag_86)\n        /* \"contracts/SpeciesLibrary.sol\":1071:2297  if (species == Species.WhiteStork) {... */\n    tag_97:\n        /* \"contracts/SpeciesLibrary.sol\":1285:1304  Species.MallardDuck */\n      0x02\n        /* \"contracts/SpeciesLibrary.sol\":1274:1304  species == Species.MallardDuck */\n      0x0a\n      dup2\n      gt\n      iszero\n      tag_99\n      jumpi\n      tag_100\n      tag_35\n      jump\t// in\n    tag_100:\n    tag_99:\n        /* \"contracts/SpeciesLibrary.sol\":1274:1281  species */\n      dup3\n        /* \"contracts/SpeciesLibrary.sol\":1274:1304  species == Species.MallardDuck */\n      0x0a\n      dup2\n      gt\n      iszero\n      tag_101\n      jumpi\n      tag_102\n      tag_35\n      jump\t// in\n    tag_102:\n    tag_101:\n      sub\n        /* \"contracts/SpeciesLibrary.sol\":1270:2297  if (species == Species.MallardDuck) {... */\n      tag_103\n      jumpi\n        /* \"contracts/SpeciesLibrary.sol\":1328:1450  SpeciesInfo(80, 80, 3, 6, \"https://gateway.pinata.cloud/ipfs/bafybeiev7pucz7yh7x6haidmphp5ieobvcfdclnlwjqa2ivs4y357pvwma\") */\n      mload(0x40)\n      dup1\n      0xa0\n      add\n      0x40\n      mstore\n      dup1\n        /* \"contracts/SpeciesLibrary.sol\":1340:1342  80 */\n      0x50\n        /* \"contracts/SpeciesLibrary.sol\":1328:1450  SpeciesInfo(80, 80, 3, 6, \"https://gateway.pinata.cloud/ipfs/bafybeiev7pucz7yh7x6haidmphp5ieobvcfdclnlwjqa2ivs4y357pvwma\") */\n      dup2\n      mstore\n      0x20\n      add\n        /* \"contracts/SpeciesLibrary.sol\":1344:1346  80 */\n      0x50\n        /* \"contracts/SpeciesLibrary.sol\":1328:1450  SpeciesInfo(80, 80, 3, 6, \"https://gateway.pinata.cloud/ipfs/bafybeiev7pucz7yh7x6haidmphp5ieobvcfdclnlwjqa2ivs4y357pvwma\") */\n      dup2\n      mstore\n      0x20\n      add\n        /* \"contracts/SpeciesLibrary.sol\":1348:1349  3 */\n      0x03\n        /* \"contracts/SpeciesLibrary.sol\":1328:1450  SpeciesInfo(80, 80, 3, 6, \"https://gateway.pinata.cloud/ipfs/bafybeiev7pucz7yh7x6haidmphp5ieobvcfdclnlwjqa2ivs4y357pvwma\") */\n      dup2\n      mstore\n      0x20\n      add\n        /* \"contracts/SpeciesLibrary.sol\":1351:1352  6 */\n      0x06\n        /* \"contracts/SpeciesLibrary.sol\":1328:1450  SpeciesInfo(80, 80, 3, 6, \"https://gateway.pinata.cloud/ipfs/bafybeiev7pucz7yh7x6haidmphp5ieobvcfdclnlwjqa2ivs4y357pvwma\") */\n      dup2\n      mstore\n      0x20\n      add\n      mload(0x40)\n      dup1\n      0x80\n      add\n      0x40\n      mstore\n      dup1\n      0x5d\n      dup2\n      mstore\n      0x20\n      add\n      data_3bbf1c81af77207dbf9db8f891697113273de930322fc10149aebcb2d416dad6\n      0x5d\n      swap2\n      codecopy\n      dup2\n      mstore\n      pop\n        /* \"contracts/SpeciesLibrary.sol\":1321:1450  return SpeciesInfo(80, 80, 3, 6, \"https://gateway.pinata.cloud/ipfs/bafybeiev7pucz7yh7x6haidmphp5ieobvcfdclnlwjqa2ivs4y357pvwma\") */\n      swap1\n      pop\n      jump(tag_86)\n        /* \"contracts/SpeciesLibrary.sol\":1270:2297  if (species == Species.MallardDuck) {... */\n    tag_103:\n        /* \"contracts/SpeciesLibrary.sol\":1483:1499  Species.Mythical */\n      0x0a\n        /* \"contracts/SpeciesLibrary.sol\":1472:1499  species == Species.Mythical */\n      dup1\n      dup2\n      gt\n      iszero\n      tag_105\n      jumpi\n      tag_106\n      tag_35\n      jump\t// in\n    tag_106:\n    tag_105:\n        /* \"contracts/SpeciesLibrary.sol\":1472:1479  species */\n      dup3\n        /* \"contracts/SpeciesLibrary.sol\":1472:1499  species == Species.Mythical */\n      0x0a\n      dup2\n      gt\n      iszero\n      tag_107\n      jumpi\n      tag_108\n      tag_35\n      jump\t// in\n    tag_108:\n    tag_107:\n      sub\n        /* \"contracts/SpeciesLibrary.sol\":1468:2297  if (species == Species.Mythical) {... */\n      tag_109\n      jumpi\n        /* \"contracts/SpeciesLibrary.sol\":1523:1554  SpeciesInfo(300, 300, 1, 0, \"\") */\n      mload(0x40)\n      dup1\n      0xa0\n      add\n      0x40\n      mstore\n      dup1\n        /* \"contracts/SpeciesLibrary.sol\":1535:1538  300 */\n      0x012c\n        /* \"contracts/SpeciesLibrary.sol\":1523:1554  SpeciesInfo(300, 300, 1, 0, \"\") */\n      dup2\n      mstore\n      0x20\n      add\n        /* \"contracts/SpeciesLibrary.sol\":1540:1543  300 */\n      0x012c\n        /* \"contracts/SpeciesLibrary.sol\":1523:1554  SpeciesInfo(300, 300, 1, 0, \"\") */\n      dup2\n      mstore\n      0x20\n      add\n        /* \"contracts/SpeciesLibrary.sol\":1545:1546  1 */\n      0x01\n        /* \"contracts/SpeciesLibrary.sol\":1523:1554  SpeciesInfo(300, 300, 1, 0, \"\") */\n      dup2\n      mstore\n      0x20\n      add\n        /* \"contracts/SpeciesLibrary.sol\":1548:1549  0 */\n      0x00\n        /* \"contracts/SpeciesLibrary.sol\":1523:1554  SpeciesInfo(300, 300, 1, 0, \"\") */\n      dup2\n      mstore\n      0x20\n      add\n      mload(0x40)\n      dup1\n      0x20\n      add\n      0x40\n      mstore\n      dup1\n      0x00\n      dup2\n      mstore\n      pop\n      dup2\n      mstore\n      pop\n        /* \"contracts/SpeciesLibrary.sol\":1516:1554  return SpeciesInfo(300, 300, 1, 0, \"\") */\n      swap1\n      pop\n      jump(tag_86)\n        /* \"contracts/SpeciesLibrary.sol\":1468:2297  if (species == Species.Mythical) {... */\n    tag_109:\n        /* \"contracts/SpeciesLibrary.sol\":1587:1604  Species.GreyHeron */\n      0x03\n        /* \"contracts/SpeciesLibrary.sol\":1576:1604  species == Species.GreyHeron */\n      0x0a\n      dup2\n      gt\n      iszero\n      tag_111\n      jumpi\n      tag_112\n      tag_35\n      jump\t// in\n    tag_112:\n    tag_111:\n        /* \"contracts/SpeciesLibrary.sol\":1576:1583  species */\n      dup3\n        /* \"contracts/SpeciesLibrary.sol\":1576:1604  species == Species.GreyHeron */\n      0x0a\n      dup2\n      gt\n      iszero\n      tag_113\n      jumpi\n      tag_114\n      tag_35\n      jump\t// in\n    tag_114:\n    tag_113:\n      sub\n        /* \"contracts/SpeciesLibrary.sol\":1572:2297  if (species == Species.GreyHeron) {... */\n      tag_115\n      jumpi\n        /* \"contracts/SpeciesLibrary.sol\":1628:1658  SpeciesInfo(180, 90, 2, 4, \"\") */\n      mload(0x40)\n      dup1\n      0xa0\n      add\n      0x40\n      mstore\n      dup1\n        /* \"contracts/SpeciesLibrary.sol\":1640:1643  180 */\n      0xb4\n        /* \"contracts/SpeciesLibrary.sol\":1628:1658  SpeciesInfo(180, 90, 2, 4, \"\") */\n      dup2\n      mstore\n      0x20\n      add\n        /* \"contracts/SpeciesLibrary.sol\":1645:1647  90 */\n      0x5a\n        /* \"contracts/SpeciesLibrary.sol\":1628:1658  SpeciesInfo(180, 90, 2, 4, \"\") */\n      dup2\n      mstore\n      0x20\n      add\n        /* \"contracts/SpeciesLibrary.sol\":1649:1650  2 */\n      0x02\n        /* \"contracts/SpeciesLibrary.sol\":1628:1658  SpeciesInfo(180, 90, 2, 4, \"\") */\n      dup2\n      mstore\n      0x20\n      add\n        /* \"contracts/SpeciesLibrary.sol\":1652:1653  4 */\n      0x04\n        /* \"contracts/SpeciesLibrary.sol\":1628:1658  SpeciesInfo(180, 90, 2, 4, \"\") */\n      dup2\n      mstore\n      0x20\n      add\n      mload(0x40)\n      dup1\n      0x20\n      add\n      0x40\n      mstore\n      dup1\n      0x00\n      dup2\n      mstore\n      pop\n      dup2\n      mstore\n      pop\n        /* \"contracts/SpeciesLibrary.sol\":1621:1658  return SpeciesInfo(180, 90, 2, 4, \"\") */\n      swap1\n      pop\n      jump(tag_86)\n        /* \"contracts/SpeciesLibrary.sol\":1572:2297  if (species == Species.GreyHeron) {... */\n    tag_115:\n        /* \"contracts/SpeciesLibrary.sol\":1691:1713  Species.RedNeckedGrebe */\n      0x04\n        /* \"contracts/SpeciesLibrary.sol\":1680:1713  species == Species.RedNeckedGrebe */\n      0x0a\n      dup2\n      gt\n      iszero\n      tag_117\n      jumpi\n      tag_118\n      tag_35\n      jump\t// in\n    tag_118:\n    tag_117:\n        /* \"contracts/SpeciesLibrary.sol\":1680:1687  species */\n      dup3\n        /* \"contracts/SpeciesLibrary.sol\":1680:1713  species == Species.RedNeckedGrebe */\n      0x0a\n      dup2\n      gt\n      iszero\n      tag_119\n      jumpi\n      tag_120\n      tag_35\n      jump\t// in\n    tag_120:\n    tag_119:\n      sub\n        /* \"contracts/SpeciesLibrary.sol\":1676:2297  if (species == Species.RedNeckedGrebe) {... */\n      tag_121\n      jumpi\n        /* \"contracts/SpeciesLibrary.sol\":1737:1766  SpeciesInfo(80, 70, 2, 8, \"\") */\n      mload(0x40)\n      dup1\n      0xa0\n      add\n      0x40\n      mstore\n      dup1\n        /* \"contracts/SpeciesLibrary.sol\":1749:1751  80 */\n      0x50\n        /* \"contracts/SpeciesLibrary.sol\":1737:1766  SpeciesInfo(80, 70, 2, 8, \"\") */\n      dup2\n      mstore\n      0x20\n      add\n        /* \"contracts/SpeciesLibrary.sol\":1753:1755  70 */\n      0x46\n        /* \"contracts/SpeciesLibrary.sol\":1737:1766  SpeciesInfo(80, 70, 2, 8, \"\") */\n      dup2\n      mstore\n      0x20\n      add\n        /* \"contracts/SpeciesLibrary.sol\":1757:1758  2 */\n      0x02\n        /* \"contracts/SpeciesLibrary.sol\":1737:1766  SpeciesInfo(80, 70, 2, 8, \"\") */\n      dup2\n      mstore\n      0x20\n      add\n        /* \"contracts/SpeciesLibrary.sol\":1760:1761  8 */\n      0x08\n        /* \"contracts/SpeciesLibrary.sol\":1737:1766  SpeciesInfo(80, 70, 2, 8, \"\") */\n      dup2\n      mstore\n      0x20\n      add\n      mload(0x40)\n      dup1\n      0x20\n      add\n      0x40\n      mstore\n      dup1\n      0x00\n      dup2\n      mstore\n      pop\n      dup2\n      mstore\n      pop\n        /* \"contracts/SpeciesLibrary.sol\":1730:1766  return SpeciesInfo(80, 70, 2, 8, \"\") */\n      swap1\n      pop\n      jump(tag_86)\n        /* \"contracts/SpeciesLibrary.sol\":1676:2297  if (species == Species.RedNeckedGrebe) {... */\n    tag_121:\n        /* \"contracts/SpeciesLibrary.sol\":1799:1816  Species.WaterRail */\n      0x05\n        /* \"contracts/SpeciesLibrary.sol\":1788:1816  species == Species.WaterRail */\n      0x0a\n      dup2\n      gt\n      iszero\n      tag_123\n      jumpi\n      tag_124\n      tag_35\n      jump\t// in\n    tag_124:\n    tag_123:\n        /* \"contracts/SpeciesLibrary.sol\":1788:1795  species */\n      dup3\n        /* \"contracts/SpeciesLibrary.sol\":1788:1816  species == Species.WaterRail */\n      0x0a\n      dup2\n      gt\n      iszero\n      tag_125\n      jumpi\n      tag_126\n      tag_35\n      jump\t// in\n    tag_126:\n    tag_125:\n      sub\n        /* \"contracts/SpeciesLibrary.sol\":1784:2297  if (species == Species.WaterRail) {... */\n      tag_127\n      jumpi\n        /* \"contracts/SpeciesLibrary.sol\":1840:1869  SpeciesInfo(50, 60, 4, 5, \"\") */\n      mload(0x40)\n      dup1\n      0xa0\n      add\n      0x40\n      mstore\n      dup1\n        /* \"contracts/SpeciesLibrary.sol\":1852:1854  50 */\n      0x32\n        /* \"contracts/SpeciesLibrary.sol\":1840:1869  SpeciesInfo(50, 60, 4, 5, \"\") */\n      dup2\n      mstore\n      0x20\n      add\n        /* \"contracts/SpeciesLibrary.sol\":1856:1858  60 */\n      0x3c\n        /* \"contracts/SpeciesLibrary.sol\":1840:1869  SpeciesInfo(50, 60, 4, 5, \"\") */\n      dup2\n      mstore\n      0x20\n      add\n        /* \"contracts/SpeciesLibrary.sol\":1860:1861  4 */\n      0x04\n        /* \"contracts/SpeciesLibrary.sol\":1840:1869  SpeciesInfo(50, 60, 4, 5, \"\") */\n      dup2\n      mstore\n      0x20\n      add\n        /* \"contracts/SpeciesLibrary.sol\":1863:1864  5 */\n      0x05\n        /* \"contracts/SpeciesLibrary.sol\":1840:1869  SpeciesInfo(50, 60, 4, 5, \"\") */\n      dup2\n      mstore\n      0x20\n      add\n      mload(0x40)\n      dup1\n      0x20\n      add\n      0x40\n      mstore\n      dup1\n      0x00\n      dup2\n      mstore\n      pop\n      dup2\n      mstore\n      pop\n        /* \"contracts/SpeciesLibrary.sol\":1833:1869  return SpeciesInfo(50, 60, 4, 5, \"\") */\n      swap1\n      pop\n      jump(tag_86)\n        /* \"contracts/SpeciesLibrary.sol\":1784:2297  if (species == Species.WaterRail) {... */\n    tag_127:\n        /* \"contracts/SpeciesLibrary.sol\":1902:1920  Species.CommonTern */\n      0x06\n        /* \"contracts/SpeciesLibrary.sol\":1891:1920  species == Species.CommonTern */\n      0x0a\n      dup2\n      gt\n      iszero\n      tag_129\n      jumpi\n      tag_130\n      tag_35\n      jump\t// in\n    tag_130:\n    tag_129:\n        /* \"contracts/SpeciesLibrary.sol\":1891:1898  species */\n      dup3\n        /* \"contracts/SpeciesLibrary.sol\":1891:1920  species == Species.CommonTern */\n      0x0a\n      dup2\n      gt\n      iszero\n      tag_131\n      jumpi\n      tag_132\n      tag_35\n      jump\t// in\n    tag_132:\n    tag_131:\n      sub\n        /* \"contracts/SpeciesLibrary.sol\":1887:2297  if (species == Species.CommonTern) {... */\n      tag_133\n      jumpi\n        /* \"contracts/SpeciesLibrary.sol\":1944:1973  SpeciesInfo(55, 40, 3, 4, \"\") */\n      mload(0x40)\n      dup1\n      0xa0\n      add\n      0x40\n      mstore\n      dup1\n        /* \"contracts/SpeciesLibrary.sol\":1956:1958  55 */\n      0x37\n        /* \"contracts/SpeciesLibrary.sol\":1944:1973  SpeciesInfo(55, 40, 3, 4, \"\") */\n      dup2\n      mstore\n      0x20\n      add\n        /* \"contracts/SpeciesLibrary.sol\":1960:1962  40 */\n      0x28\n        /* \"contracts/SpeciesLibrary.sol\":1944:1973  SpeciesInfo(55, 40, 3, 4, \"\") */\n      dup2\n      mstore\n      0x20\n      add\n        /* \"contracts/SpeciesLibrary.sol\":1964:1965  3 */\n      0x03\n        /* \"contracts/SpeciesLibrary.sol\":1944:1973  SpeciesInfo(55, 40, 3, 4, \"\") */\n      dup2\n      mstore\n      0x20\n      add\n        /* \"contracts/SpeciesLibrary.sol\":1967:1968  4 */\n      0x04\n        /* \"contracts/SpeciesLibrary.sol\":1944:1973  SpeciesInfo(55, 40, 3, 4, \"\") */\n      dup2\n      mstore\n      0x20\n      add\n      mload(0x40)\n      dup1\n      0x20\n      add\n      0x40\n      mstore\n      dup1\n      0x00\n      dup2\n      mstore\n      pop\n      dup2\n      mstore\n      pop\n        /* \"contracts/SpeciesLibrary.sol\":1937:1973  return SpeciesInfo(55, 40, 3, 4, \"\") */\n      swap1\n      pop\n      jump(tag_86)\n        /* \"contracts/SpeciesLibrary.sol\":1887:2297  if (species == Species.CommonTern) {... */\n    tag_133:\n        /* \"contracts/SpeciesLibrary.sol\":2006:2023  Species.Goosander */\n      0x07\n        /* \"contracts/SpeciesLibrary.sol\":1995:2023  species == Species.Goosander */\n      0x0a\n      dup2\n      gt\n      iszero\n      tag_135\n      jumpi\n      tag_136\n      tag_35\n      jump\t// in\n    tag_136:\n    tag_135:\n        /* \"contracts/SpeciesLibrary.sol\":1995:2002  species */\n      dup3\n        /* \"contracts/SpeciesLibrary.sol\":1995:2023  species == Species.Goosander */\n      0x0a\n      dup2\n      gt\n      iszero\n      tag_137\n      jumpi\n      tag_138\n      tag_35\n      jump\t// in\n    tag_138:\n    tag_137:\n      sub\n        /* \"contracts/SpeciesLibrary.sol\":1991:2297  if (species == Species.Goosander) {... */\n      tag_139\n      jumpi\n        /* \"contracts/SpeciesLibrary.sol\":2047:2076  SpeciesInfo(78, 65, 2, 4, \"\") */\n      mload(0x40)\n      dup1\n      0xa0\n      add\n      0x40\n      mstore\n      dup1\n        /* \"contracts/SpeciesLibrary.sol\":2059:2061  78 */\n      0x4e\n        /* \"contracts/SpeciesLibrary.sol\":2047:2076  SpeciesInfo(78, 65, 2, 4, \"\") */\n      dup2\n      mstore\n      0x20\n      add\n        /* \"contracts/SpeciesLibrary.sol\":2063:2065  65 */\n      0x41\n        /* \"contracts/SpeciesLibrary.sol\":2047:2076  SpeciesInfo(78, 65, 2, 4, \"\") */\n      dup2\n      mstore\n      0x20\n      add\n        /* \"contracts/SpeciesLibrary.sol\":2067:2068  2 */\n      0x02\n        /* \"contracts/SpeciesLibrary.sol\":2047:2076  SpeciesInfo(78, 65, 2, 4, \"\") */\n      dup2\n      mstore\n      0x20\n      add\n        /* \"contracts/SpeciesLibrary.sol\":2070:2071  4 */\n      0x04\n        /* \"contracts/SpeciesLibrary.sol\":2047:2076  SpeciesInfo(78, 65, 2, 4, \"\") */\n      dup2\n      mstore\n      0x20\n      add\n      mload(0x40)\n      dup1\n      0x20\n      add\n      0x40\n      mstore\n      dup1\n      0x00\n      dup2\n      mstore\n      pop\n      dup2\n      mstore\n      pop\n        /* \"contracts/SpeciesLibrary.sol\":2040:2076  return SpeciesInfo(78, 65, 2, 4, \"\") */\n      swap1\n      pop\n      jump(tag_86)\n        /* \"contracts/SpeciesLibrary.sol\":1991:2297  if (species == Species.Goosander) {... */\n    tag_139:\n        /* \"contracts/SpeciesLibrary.sol\":2109:2129  Species.GreylagGoose */\n      0x08\n        /* \"contracts/SpeciesLibrary.sol\":2098:2129  species == Species.GreylagGoose */\n      0x0a\n      dup2\n      gt\n      iszero\n      tag_141\n      jumpi\n      tag_142\n      tag_35\n      jump\t// in\n    tag_142:\n    tag_141:\n        /* \"contracts/SpeciesLibrary.sol\":2098:2105  species */\n      dup3\n        /* \"contracts/SpeciesLibrary.sol\":2098:2129  species == Species.GreylagGoose */\n      0x0a\n      dup2\n      gt\n      iszero\n      tag_143\n      jumpi\n      tag_144\n      tag_35\n      jump\t// in\n    tag_144:\n    tag_143:\n      sub\n        /* \"contracts/SpeciesLibrary.sol\":2094:2297  if (species == Species.GreylagGoose) {... */\n      tag_145\n      jumpi\n        /* \"contracts/SpeciesLibrary.sol\":2153:2184  SpeciesInfo(150, 100, 4, 3, \"\") */\n      mload(0x40)\n      dup1\n      0xa0\n      add\n      0x40\n      mstore\n      dup1\n        /* \"contracts/SpeciesLibrary.sol\":2165:2168  150 */\n      0x96\n        /* \"contracts/SpeciesLibrary.sol\":2153:2184  SpeciesInfo(150, 100, 4, 3, \"\") */\n      dup2\n      mstore\n      0x20\n      add\n        /* \"contracts/SpeciesLibrary.sol\":2170:2173  100 */\n      0x64\n        /* \"contracts/SpeciesLibrary.sol\":2153:2184  SpeciesInfo(150, 100, 4, 3, \"\") */\n      dup2\n      mstore\n      0x20\n      add\n        /* \"contracts/SpeciesLibrary.sol\":2175:2176  4 */\n      0x04\n        /* \"contracts/SpeciesLibrary.sol\":2153:2184  SpeciesInfo(150, 100, 4, 3, \"\") */\n      dup2\n      mstore\n      0x20\n      add\n        /* \"contracts/SpeciesLibrary.sol\":2178:2179  3 */\n      0x03\n        /* \"contracts/SpeciesLibrary.sol\":2153:2184  SpeciesInfo(150, 100, 4, 3, \"\") */\n      dup2\n      mstore\n      0x20\n      add\n      mload(0x40)\n      dup1\n      0x20\n      add\n      0x40\n      mstore\n      dup1\n      0x00\n      dup2\n      mstore\n      pop\n      dup2\n      mstore\n      pop\n        /* \"contracts/SpeciesLibrary.sol\":2146:2184  return SpeciesInfo(150, 100, 4, 3, \"\") */\n      swap1\n      pop\n      jump(tag_86)\n        /* \"contracts/SpeciesLibrary.sol\":2094:2297  if (species == Species.GreylagGoose) {... */\n    tag_145:\n        /* \"contracts/SpeciesLibrary.sol\":2217:2232  Species.Moorhen */\n      0x09\n        /* \"contracts/SpeciesLibrary.sol\":2206:2232  species == Species.Moorhen */\n      0x0a\n      dup2\n      gt\n      iszero\n      tag_147\n      jumpi\n      tag_148\n      tag_35\n      jump\t// in\n    tag_148:\n    tag_147:\n        /* \"contracts/SpeciesLibrary.sol\":2206:2213  species */\n      dup3\n        /* \"contracts/SpeciesLibrary.sol\":2206:2232  species == Species.Moorhen */\n      0x0a\n      dup2\n      gt\n      iszero\n      tag_149\n      jumpi\n      tag_150\n      tag_35\n      jump\t// in\n    tag_150:\n    tag_149:\n      sub\n        /* \"contracts/SpeciesLibrary.sol\":2202:2297  if (species == Species.Moorhen) {... */\n      tag_151\n      jumpi\n        /* \"contracts/SpeciesLibrary.sol\":2256:2285  SpeciesInfo(35, 66, 4, 5, \"\") */\n      mload(0x40)\n      dup1\n      0xa0\n      add\n      0x40\n      mstore\n      dup1\n        /* \"contracts/SpeciesLibrary.sol\":2268:2270  35 */\n      0x23\n        /* \"contracts/SpeciesLibrary.sol\":2256:2285  SpeciesInfo(35, 66, 4, 5, \"\") */\n      dup2\n      mstore\n      0x20\n      add\n        /* \"contracts/SpeciesLibrary.sol\":2272:2274  66 */\n      0x42\n        /* \"contracts/SpeciesLibrary.sol\":2256:2285  SpeciesInfo(35, 66, 4, 5, \"\") */\n      dup2\n      mstore\n      0x20\n      add\n        /* \"contracts/SpeciesLibrary.sol\":2276:2277  4 */\n      0x04\n        /* \"contracts/SpeciesLibrary.sol\":2256:2285  SpeciesInfo(35, 66, 4, 5, \"\") */\n      dup2\n      mstore\n      0x20\n      add\n        /* \"contracts/SpeciesLibrary.sol\":2279:2280  5 */\n      0x05\n        /* \"contracts/SpeciesLibrary.sol\":2256:2285  SpeciesInfo(35, 66, 4, 5, \"\") */\n      dup2\n      mstore\n      0x20\n      add\n      mload(0x40)\n      dup1\n      0x20\n      add\n      0x40\n      mstore\n      dup1\n      0x00\n      dup2\n      mstore\n      pop\n      dup2\n      mstore\n      pop\n        /* \"contracts/SpeciesLibrary.sol\":2249:2285  return SpeciesInfo(35, 66, 4, 5, \"\") */\n      swap1\n      pop\n      jump(tag_86)\n        /* \"contracts/SpeciesLibrary.sol\":2202:2297  if (species == Species.Moorhen) {... */\n    tag_151:\n        /* \"contracts/SpeciesLibrary.sol\":2307:2332  revert(\"Unknown species\") */\n      mload(0x40)\n      0x08c379a000000000000000000000000000000000000000000000000000000000\n      dup2\n      mstore\n      0x04\n      add\n      tag_152\n      swap1\n      tag_153\n      jump\t// in\n    tag_152:\n      mload(0x40)\n      dup1\n      swap2\n      sub\n      swap1\n      revert\n        /* \"contracts/SpeciesLibrary.sol\":779:2340  function getSpeciesInfo(Species species) internal pure returns (SpeciesInfo memory) {... */\n    tag_86:\n      swap2\n      swap1\n      pop\n      jump\t// out\n    tag_85:\n      mload(0x40)\n      dup1\n      0xa0\n      add\n      0x40\n      mstore\n      dup1\n      0x00\n      dup2\n      mstore\n      0x20\n      add\n      0x00\n      dup2\n      mstore\n      0x20\n      add\n      0x00\n      dup2\n      mstore\n      0x20\n      add\n      0x00\n      dup2\n      mstore\n      0x20\n      add\n      0x60\n      dup2\n      mstore\n      pop\n      swap1\n      jump\t// out\n        /* \"#utility.yul\":7:82   */\n    tag_154:\n        /* \"#utility.yul\":40:46   */\n      0x00\n        /* \"#utility.yul\":73:75   */\n      0x40\n        /* \"#utility.yul\":67:76   */\n      mload\n        /* \"#utility.yul\":57:76   */\n      swap1\n      pop\n        /* \"#utility.yul\":7:82   */\n      swap1\n      jump\t// out\n        /* \"#utility.yul\":88:205   */\n    tag_155:\n        /* \"#utility.yul\":197:198   */\n      0x00\n        /* \"#utility.yul\":194:195   */\n      0x00\n        /* \"#utility.yul\":187:199   */\n      revert\n        /* \"#utility.yul\":334:445   */\n    tag_157:\n        /* \"#utility.yul\":418:420   */\n      0x0b\n        /* \"#utility.yul\":411:416   */\n      dup2\n        /* \"#utility.yul\":408:421   */\n      lt\n        /* \"#utility.yul\":398:439   */\n      tag_209\n      jumpi\n        /* \"#utility.yul\":435:436   */\n      0x00\n        /* \"#utility.yul\":432:433   */\n      0x00\n        /* \"#utility.yul\":425:437   */\n      revert\n        /* \"#utility.yul\":398:439   */\n    tag_209:\n        /* \"#utility.yul\":334:445   */\n      pop\n      jump\t// out\n        /* \"#utility.yul\":451:612   */\n    tag_158:\n        /* \"#utility.yul\":508:513   */\n      0x00\n        /* \"#utility.yul\":546:552   */\n      dup2\n        /* \"#utility.yul\":533:553   */\n      calldataload\n        /* \"#utility.yul\":524:553   */\n      swap1\n      pop\n        /* \"#utility.yul\":562:606   */\n      tag_211\n        /* \"#utility.yul\":600:605   */\n      dup2\n        /* \"#utility.yul\":562:606   */\n      tag_157\n      jump\t// in\n    tag_211:\n        /* \"#utility.yul\":451:612   */\n      swap3\n      swap2\n      pop\n      pop\n      jump\t// out\n        /* \"#utility.yul\":618:969   */\n    tag_11:\n        /* \"#utility.yul\":688:694   */\n      0x00\n        /* \"#utility.yul\":737:739   */\n      0x20\n        /* \"#utility.yul\":725:734   */\n      dup3\n        /* \"#utility.yul\":716:723   */\n      dup5\n        /* \"#utility.yul\":712:735   */\n      sub\n        /* \"#utility.yul\":708:740   */\n      slt\n        /* \"#utility.yul\":705:824   */\n      iszero\n      tag_213\n      jumpi\n        /* \"#utility.yul\":743:822   */\n      tag_214\n      tag_155\n      jump\t// in\n    tag_214:\n        /* \"#utility.yul\":705:824   */\n    tag_213:\n        /* \"#utility.yul\":863:864   */\n      0x00\n        /* \"#utility.yul\":888:952   */\n      tag_215\n        /* \"#utility.yul\":944:951   */\n      dup5\n        /* \"#utility.yul\":935:941   */\n      dup3\n        /* \"#utility.yul\":924:933   */\n      dup6\n        /* \"#utility.yul\":920:942   */\n      add\n        /* \"#utility.yul\":888:952   */\n      tag_158\n      jump\t// in\n    tag_215:\n        /* \"#utility.yul\":878:952   */\n      swap2\n      pop\n        /* \"#utility.yul\":834:962   */\n      pop\n        /* \"#utility.yul\":618:969   */\n      swap3\n      swap2\n      pop\n      pop\n      jump\t// out\n        /* \"#utility.yul\":975:1052   */\n    tag_159:\n        /* \"#utility.yul\":1012:1019   */\n      0x00\n        /* \"#utility.yul\":1041:1046   */\n      dup2\n        /* \"#utility.yul\":1030:1046   */\n      swap1\n      pop\n        /* \"#utility.yul\":975:1052   */\n      swap2\n      swap1\n      pop\n      jump\t// out\n        /* \"#utility.yul\":1058:1176   */\n    tag_160:\n        /* \"#utility.yul\":1145:1169   */\n      tag_218\n        /* \"#utility.yul\":1163:1168   */\n      dup2\n        /* \"#utility.yul\":1145:1169   */\n      tag_159\n      jump\t// in\n    tag_218:\n        /* \"#utility.yul\":1140:1143   */\n      dup3\n        /* \"#utility.yul\":1133:1170   */\n      mstore\n        /* \"#utility.yul\":1058:1176   */\n      pop\n      pop\n      jump\t// out\n        /* \"#utility.yul\":1182:1404   */\n    tag_14:\n        /* \"#utility.yul\":1275:1279   */\n      0x00\n        /* \"#utility.yul\":1313:1315   */\n      0x20\n        /* \"#utility.yul\":1302:1311   */\n      dup3\n        /* \"#utility.yul\":1298:1316   */\n      add\n        /* \"#utility.yul\":1290:1316   */\n      swap1\n      pop\n        /* \"#utility.yul\":1326:1397   */\n      tag_220\n        /* \"#utility.yul\":1394:1395   */\n      0x00\n        /* \"#utility.yul\":1383:1392   */\n      dup4\n        /* \"#utility.yul\":1379:1396   */\n      add\n        /* \"#utility.yul\":1370:1376   */\n      dup5\n        /* \"#utility.yul\":1326:1397   */\n      tag_160\n      jump\t// in\n    tag_220:\n        /* \"#utility.yul\":1182:1404   */\n      swap3\n      swap2\n      pop\n      pop\n      jump\t// out\n        /* \"#utility.yul\":1410:1536   */\n    tag_161:\n        /* \"#utility.yul\":1447:1454   */\n      0x00\n        /* \"#utility.yul\":1487:1529   */\n      0xffffffffffffffffffffffffffffffffffffffff\n        /* \"#utility.yul\":1480:1485   */\n      dup3\n        /* \"#utility.yul\":1476:1530   */\n      and\n        /* \"#utility.yul\":1465:1530   */\n      swap1\n      pop\n        /* \"#utility.yul\":1410:1536   */\n      swap2\n      swap1\n      pop\n      jump\t// out\n        /* \"#utility.yul\":1542:1602   */\n    tag_162:\n        /* \"#utility.yul\":1570:1573   */\n      0x00\n        /* \"#utility.yul\":1591:1596   */\n      dup2\n        /* \"#utility.yul\":1584:1596   */\n      swap1\n      pop\n        /* \"#utility.yul\":1542:1602   */\n      swap2\n      swap1\n      pop\n      jump\t// out\n        /* \"#utility.yul\":1608:1750   */\n    tag_163:\n        /* \"#utility.yul\":1658:1667   */\n      0x00\n        /* \"#utility.yul\":1691:1744   */\n      tag_224\n        /* \"#utility.yul\":1709:1743   */\n      tag_225\n        /* \"#utility.yul\":1718:1742   */\n      tag_226\n        /* \"#utility.yul\":1736:1741   */\n      dup5\n        /* \"#utility.yul\":1718:1742   */\n      tag_161\n      jump\t// in\n    tag_226:\n        /* \"#utility.yul\":1709:1743   */\n      tag_162\n      jump\t// in\n    tag_225:\n        /* \"#utility.yul\":1691:1744   */\n      tag_161\n      jump\t// in\n    tag_224:\n        /* \"#utility.yul\":1678:1744   */\n      swap1\n      pop\n        /* \"#utility.yul\":1608:1750   */\n      swap2\n      swap1\n      pop\n      jump\t// out\n        /* \"#utility.yul\":1756:1882   */\n    tag_164:\n        /* \"#utility.yul\":1806:1815   */\n      0x00\n        /* \"#utility.yul\":1839:1876   */\n      tag_228\n        /* \"#utility.yul\":1870:1875   */\n      dup3\n        /* \"#utility.yul\":1839:1876   */\n      tag_163\n      jump\t// in\n    tag_228:\n        /* \"#utility.yul\":1826:1876   */\n      swap1\n      pop\n        /* \"#utility.yul\":1756:1882   */\n      swap2\n      swap1\n      pop\n      jump\t// out\n        /* \"#utility.yul\":1888:2026   */\n    tag_165:\n        /* \"#utility.yul\":1950:1959   */\n      0x00\n        /* \"#utility.yul\":1983:2020   */\n      tag_230\n        /* \"#utility.yul\":2014:2019   */\n      dup3\n        /* \"#utility.yul\":1983:2020   */\n      tag_164\n      jump\t// in\n    tag_230:\n        /* \"#utility.yul\":1970:2020   */\n      swap1\n      pop\n        /* \"#utility.yul\":1888:2026   */\n      swap2\n      swap1\n      pop\n      jump\t// out\n        /* \"#utility.yul\":2032:2187   */\n    tag_166:\n        /* \"#utility.yul\":2131:2180   */\n      tag_232\n        /* \"#utility.yul\":2174:2179   */\n      dup2\n        /* \"#utility.yul\":2131:2180   */\n      tag_165\n      jump\t// in\n    tag_232:\n        /* \"#utility.yul\":2126:2129   */\n      dup3\n        /* \"#utility.yul\":2119:2181   */\n      mstore\n        /* \"#utility.yul\":2032:2187   */\n      pop\n      pop\n      jump\t// out\n        /* \"#utility.yul\":2193:2439   */\n    tag_19:\n        /* \"#utility.yul\":2298:2302   */\n      0x00\n        /* \"#utility.yul\":2336:2338   */\n      0x20\n        /* \"#utility.yul\":2325:2334   */\n      dup3\n        /* \"#utility.yul\":2321:2339   */\n      add\n        /* \"#utility.yul\":2313:2339   */\n      swap1\n      pop\n        /* \"#utility.yul\":2349:2432   */\n      tag_234\n        /* \"#utility.yul\":2429:2430   */\n      0x00\n        /* \"#utility.yul\":2418:2427   */\n      dup4\n        /* \"#utility.yul\":2414:2431   */\n      add\n        /* \"#utility.yul\":2405:2411   */\n      dup5\n        /* \"#utility.yul\":2349:2432   */\n      tag_166\n      jump\t// in\n    tag_234:\n        /* \"#utility.yul\":2193:2439   */\n      swap3\n      swap2\n      pop\n      pop\n      jump\t// out\n        /* \"#utility.yul\":2445:2567   */\n    tag_167:\n        /* \"#utility.yul\":2518:2542   */\n      tag_236\n        /* \"#utility.yul\":2536:2541   */\n      dup2\n        /* \"#utility.yul\":2518:2542   */\n      tag_159\n      jump\t// in\n    tag_236:\n        /* \"#utility.yul\":2511:2516   */\n      dup2\n        /* \"#utility.yul\":2508:2543   */\n      eq\n        /* \"#utility.yul\":2498:2561   */\n      tag_237\n      jumpi\n        /* \"#utility.yul\":2557:2558   */\n      0x00\n        /* \"#utility.yul\":2554:2555   */\n      0x00\n        /* \"#utility.yul\":2547:2559   */\n      revert\n        /* \"#utility.yul\":2498:2561   */\n    tag_237:\n        /* \"#utility.yul\":2445:2567   */\n      pop\n      jump\t// out\n        /* \"#utility.yul\":2573:2712   */\n    tag_168:\n        /* \"#utility.yul\":2619:2624   */\n      0x00\n        /* \"#utility.yul\":2657:2663   */\n      dup2\n        /* \"#utility.yul\":2644:2664   */\n      calldataload\n        /* \"#utility.yul\":2635:2664   */\n      swap1\n      pop\n        /* \"#utility.yul\":2673:2706   */\n      tag_239\n        /* \"#utility.yul\":2700:2705   */\n      dup2\n        /* \"#utility.yul\":2673:2706   */\n      tag_167\n      jump\t// in\n    tag_239:\n        /* \"#utility.yul\":2573:2712   */\n      swap3\n      swap2\n      pop\n      pop\n      jump\t// out\n        /* \"#utility.yul\":2718:3047   */\n    tag_25:\n        /* \"#utility.yul\":2777:2783   */\n      0x00\n        /* \"#utility.yul\":2826:2828   */\n      0x20\n        /* \"#utility.yul\":2814:2823   */\n      dup3\n        /* \"#utility.yul\":2805:2812   */\n      dup5\n        /* \"#utility.yul\":2801:2824   */\n      sub\n        /* \"#utility.yul\":2797:2829   */\n      slt\n        /* \"#utility.yul\":2794:2913   */\n      iszero\n      tag_241\n      jumpi\n        /* \"#utility.yul\":2832:2911   */\n      tag_242\n      tag_155\n      jump\t// in\n    tag_242:\n        /* \"#utility.yul\":2794:2913   */\n    tag_241:\n        /* \"#utility.yul\":2952:2953   */\n      0x00\n        /* \"#utility.yul\":2977:3030   */\n      tag_243\n        /* \"#utility.yul\":3022:3029   */\n      dup5\n        /* \"#utility.yul\":3013:3019   */\n      dup3\n        /* \"#utility.yul\":3002:3011   */\n      dup6\n        /* \"#utility.yul\":2998:3020   */\n      add\n        /* \"#utility.yul\":2977:3030   */\n      tag_168\n      jump\t// in\n    tag_243:\n        /* \"#utility.yul\":2967:3030   */\n      swap2\n      pop\n        /* \"#utility.yul\":2923:3040   */\n      pop\n        /* \"#utility.yul\":2718:3047   */\n      swap3\n      swap2\n      pop\n      pop\n      jump\t// out\n        /* \"#utility.yul\":3053:3233   */\n    tag_35:\n        /* \"#utility.yul\":3101:3178   */\n      0x4e487b7100000000000000000000000000000000000000000000000000000000\n        /* \"#utility.yul\":3098:3099   */\n      0x00\n        /* \"#utility.yul\":3091:3179   */\n      mstore\n        /* \"#utility.yul\":3198:3202   */\n      0x21\n        /* \"#utility.yul\":3195:3196   */\n      0x04\n        /* \"#utility.yul\":3188:3203   */\n      mstore\n        /* \"#utility.yul\":3222:3226   */\n      0x24\n        /* \"#utility.yul\":3219:3220   */\n      0x00\n        /* \"#utility.yul\":3212:3227   */\n      revert\n        /* \"#utility.yul\":3239:3408   */\n    tag_169:\n        /* \"#utility.yul\":3323:3334   */\n      0x00\n        /* \"#utility.yul\":3357:3363   */\n      dup3\n        /* \"#utility.yul\":3352:3355   */\n      dup3\n        /* \"#utility.yul\":3345:3364   */\n      mstore\n        /* \"#utility.yul\":3397:3401   */\n      0x20\n        /* \"#utility.yul\":3392:3395   */\n      dup3\n        /* \"#utility.yul\":3388:3402   */\n      add\n        /* \"#utility.yul\":3373:3402   */\n      swap1\n      pop\n        /* \"#utility.yul\":3239:3408   */\n      swap3\n      swap2\n      pop\n      pop\n      jump\t// out\n        /* \"#utility.yul\":3414:3636   */\n    tag_170:\n        /* \"#utility.yul\":3554:3588   */\n      0x4e6f7420656e6f7567682045544820746f206d696e7420746869732073706563\n        /* \"#utility.yul\":3550:3551   */\n      0x00\n        /* \"#utility.yul\":3542:3548   */\n      dup3\n        /* \"#utility.yul\":3538:3552   */\n      add\n        /* \"#utility.yul\":3531:3589   */\n      mstore\n        /* \"#utility.yul\":3623:3628   */\n      0x6965730000000000000000000000000000000000000000000000000000000000\n        /* \"#utility.yul\":3618:3620   */\n      0x20\n        /* \"#utility.yul\":3610:3616   */\n      dup3\n        /* \"#utility.yul\":3606:3621   */\n      add\n        /* \"#utility.yul\":3599:3629   */\n      mstore\n        /* \"#utility.yul\":3414:3636   */\n      pop\n      jump\t// out\n        /* \"#utility.yul\":3642:4008   */\n    tag_171:\n        /* \"#utility.yul\":3784:3787   */\n      0x00\n        /* \"#utility.yul\":3805:3872   */\n      tag_248\n        /* \"#utility.yul\":3869:3871   */\n      0x23\n        /* \"#utility.yul\":3864:3867   */\n      dup4\n        /* \"#utility.yul\":3805:3872   */\n      tag_169\n      jump\t// in\n    tag_248:\n        /* \"#utility.yul\":3798:3872   */\n      swap2\n      pop\n        /* \"#utility.yul\":3881:3974   */\n      tag_249\n        /* \"#utility.yul\":3970:3973   */\n      dup3\n        /* \"#utility.yul\":3881:3974   */\n      tag_170\n      jump\t// in\n    tag_249:\n        /* \"#utility.yul\":3999:4001   */\n      0x40\n        /* \"#utility.yul\":3994:3997   */\n      dup3\n        /* \"#utility.yul\":3990:4002   */\n      add\n        /* \"#utility.yul\":3983:4002   */\n      swap1\n      pop\n        /* \"#utility.yul\":3642:4008   */\n      swap2\n      swap1\n      pop\n      jump\t// out\n        /* \"#utility.yul\":4014:4433   */\n    tag_40:\n        /* \"#utility.yul\":4180:4184   */\n      0x00\n        /* \"#utility.yul\":4218:4220   */\n      0x20\n        /* \"#utility.yul\":4207:4216   */\n      dup3\n        /* \"#utility.yul\":4203:4221   */\n      add\n        /* \"#utility.yul\":4195:4221   */\n      swap1\n      pop\n        /* \"#utility.yul\":4267:4276   */\n      dup2\n        /* \"#utility.yul\":4261:4265   */\n      dup2\n        /* \"#utility.yul\":4257:4277   */\n      sub\n        /* \"#utility.yul\":4253:4254   */\n      0x00\n        /* \"#utility.yul\":4242:4251   */\n      dup4\n        /* \"#utility.yul\":4238:4255   */\n      add\n        /* \"#utility.yul\":4231:4278   */\n      mstore\n        /* \"#utility.yul\":4295:4426   */\n      tag_251\n        /* \"#utility.yul\":4421:4425   */\n      dup2\n        /* \"#utility.yul\":4295:4426   */\n      tag_171\n      jump\t// in\n    tag_251:\n        /* \"#utility.yul\":4287:4426   */\n      swap1\n      pop\n        /* \"#utility.yul\":4014:4433   */\n      swap2\n      swap1\n      pop\n      jump\t// out\n        /* \"#utility.yul\":4439:4518   */\n    tag_172:\n        /* \"#utility.yul\":4478:4485   */\n      0x00\n        /* \"#utility.yul\":4507:4512   */\n      dup2\n        /* \"#utility.yul\":4496:4512   */\n      swap1\n      pop\n        /* \"#utility.yul\":4439:4518   */\n      swap2\n      swap1\n      pop\n      jump\t// out\n        /* \"#utility.yul\":4524:4681   */\n    tag_173:\n        /* \"#utility.yul\":4629:4674   */\n      tag_254\n        /* \"#utility.yul\":4649:4673   */\n      tag_255\n        /* \"#utility.yul\":4667:4672   */\n      dup3\n        /* \"#utility.yul\":4649:4673   */\n      tag_159\n      jump\t// in\n    tag_255:\n        /* \"#utility.yul\":4629:4674   */\n      tag_172\n      jump\t// in\n    tag_254:\n        /* \"#utility.yul\":4624:4627   */\n      dup3\n        /* \"#utility.yul\":4617:4675   */\n      mstore\n        /* \"#utility.yul\":4524:4681   */\n      pop\n      pop\n      jump\t// out\n        /* \"#utility.yul\":4687:4783   */\n    tag_174:\n        /* \"#utility.yul\":4724:4731   */\n      0x00\n        /* \"#utility.yul\":4753:4777   */\n      tag_257\n        /* \"#utility.yul\":4771:4776   */\n      dup3\n        /* \"#utility.yul\":4753:4777   */\n      tag_161\n      jump\t// in\n    tag_257:\n        /* \"#utility.yul\":4742:4777   */\n      swap1\n      pop\n        /* \"#utility.yul\":4687:4783   */\n      swap2\n      swap1\n      pop\n      jump\t// out\n        /* \"#utility.yul\":4789:4883   */\n    tag_175:\n        /* \"#utility.yul\":4822:4830   */\n      0x00\n        /* \"#utility.yul\":4870:4875   */\n      dup2\n        /* \"#utility.yul\":4866:4868   */\n      0x60\n        /* \"#utility.yul\":4862:4876   */\n      shl\n        /* \"#utility.yul\":4841:4876   */\n      swap1\n      pop\n        /* \"#utility.yul\":4789:4883   */\n      swap2\n      swap1\n      pop\n      jump\t// out\n        /* \"#utility.yul\":4889:4983   */\n    tag_176:\n        /* \"#utility.yul\":4928:4935   */\n      0x00\n        /* \"#utility.yul\":4957:4977   */\n      tag_260\n        /* \"#utility.yul\":4971:4976   */\n      dup3\n        /* \"#utility.yul\":4957:4977   */\n      tag_175\n      jump\t// in\n    tag_260:\n        /* \"#utility.yul\":4946:4977   */\n      swap1\n      pop\n        /* \"#utility.yul\":4889:4983   */\n      swap2\n      swap1\n      pop\n      jump\t// out\n        /* \"#utility.yul\":4989:5089   */\n    tag_177:\n        /* \"#utility.yul\":5028:5035   */\n      0x00\n        /* \"#utility.yul\":5057:5083   */\n      tag_262\n        /* \"#utility.yul\":5077:5082   */\n      dup3\n        /* \"#utility.yul\":5057:5083   */\n      tag_176\n      jump\t// in\n    tag_262:\n        /* \"#utility.yul\":5046:5083   */\n      swap1\n      pop\n        /* \"#utility.yul\":4989:5089   */\n      swap2\n      swap1\n      pop\n      jump\t// out\n        /* \"#utility.yul\":5095:5252   */\n    tag_178:\n        /* \"#utility.yul\":5200:5245   */\n      tag_264\n        /* \"#utility.yul\":5220:5244   */\n      tag_265\n        /* \"#utility.yul\":5238:5243   */\n      dup3\n        /* \"#utility.yul\":5220:5244   */\n      tag_174\n      jump\t// in\n    tag_265:\n        /* \"#utility.yul\":5200:5245   */\n      tag_177\n      jump\t// in\n    tag_264:\n        /* \"#utility.yul\":5195:5198   */\n      dup3\n        /* \"#utility.yul\":5188:5246   */\n      mstore\n        /* \"#utility.yul\":5095:5252   */\n      pop\n      pop\n      jump\t// out\n        /* \"#utility.yul\":5258:5655   */\n    tag_42:\n        /* \"#utility.yul\":5398:5401   */\n      0x00\n        /* \"#utility.yul\":5413:5488   */\n      tag_267\n        /* \"#utility.yul\":5484:5487   */\n      dup3\n        /* \"#utility.yul\":5475:5481   */\n      dup6\n        /* \"#utility.yul\":5413:5488   */\n      tag_173\n      jump\t// in\n    tag_267:\n        /* \"#utility.yul\":5513:5515   */\n      0x20\n        /* \"#utility.yul\":5508:5511   */\n      dup3\n        /* \"#utility.yul\":5504:5516   */\n      add\n        /* \"#utility.yul\":5497:5516   */\n      swap2\n      pop\n        /* \"#utility.yul\":5526:5601   */\n      tag_268\n        /* \"#utility.yul\":5597:5600   */\n      dup3\n        /* \"#utility.yul\":5588:5594   */\n      dup5\n        /* \"#utility.yul\":5526:5601   */\n      tag_178\n      jump\t// in\n    tag_268:\n        /* \"#utility.yul\":5626:5628   */\n      0x14\n        /* \"#utility.yul\":5621:5624   */\n      dup3\n        /* \"#utility.yul\":5617:5629   */\n      add\n        /* \"#utility.yul\":5610:5629   */\n      swap2\n      pop\n        /* \"#utility.yul\":5646:5649   */\n      dup2\n        /* \"#utility.yul\":5639:5649   */\n      swap1\n      pop\n        /* \"#utility.yul\":5258:5655   */\n      swap4\n      swap3\n      pop\n      pop\n      pop\n      jump\t// out\n        /* \"#utility.yul\":5661:5841   */\n    tag_179:\n        /* \"#utility.yul\":5709:5786   */\n      0x4e487b7100000000000000000000000000000000000000000000000000000000\n        /* \"#utility.yul\":5706:5707   */\n      0x00\n        /* \"#utility.yul\":5699:5787   */\n      mstore\n        /* \"#utility.yul\":5806:5810   */\n      0x12\n        /* \"#utility.yul\":5803:5804   */\n      0x04\n        /* \"#utility.yul\":5796:5811   */\n      mstore\n        /* \"#utility.yul\":5830:5834   */\n      0x24\n        /* \"#utility.yul\":5827:5828   */\n      0x00\n        /* \"#utility.yul\":5820:5835   */\n      revert\n        /* \"#utility.yul\":5847:6023   */\n    tag_44:\n        /* \"#utility.yul\":5879:5880   */\n      0x00\n        /* \"#utility.yul\":5896:5916   */\n      tag_271\n        /* \"#utility.yul\":5914:5915   */\n      dup3\n        /* \"#utility.yul\":5896:5916   */\n      tag_159\n      jump\t// in\n    tag_271:\n        /* \"#utility.yul\":5891:5916   */\n      swap2\n      pop\n        /* \"#utility.yul\":5930:5950   */\n      tag_272\n        /* \"#utility.yul\":5948:5949   */\n      dup4\n        /* \"#utility.yul\":5930:5950   */\n      tag_159\n      jump\t// in\n    tag_272:\n        /* \"#utility.yul\":5925:5950   */\n      swap3\n      pop\n        /* \"#utility.yul\":5969:5970   */\n      dup3\n        /* \"#utility.yul\":5959:5994   */\n      tag_273\n      jumpi\n        /* \"#utility.yul\":5974:5992   */\n      tag_274\n      tag_179\n      jump\t// in\n    tag_274:\n        /* \"#utility.yul\":5959:5994   */\n    tag_273:\n        /* \"#utility.yul\":6015:6016   */\n      dup3\n        /* \"#utility.yul\":6012:6013   */\n      dup3\n        /* \"#utility.yul\":6008:6017   */\n      mod\n        /* \"#utility.yul\":6003:6017   */\n      swap1\n      pop\n        /* \"#utility.yul\":5847:6023   */\n      swap3\n      swap2\n      pop\n      pop\n      jump\t// out\n        /* \"#utility.yul\":6029:6146   */\n    tag_180:\n        /* \"#utility.yul\":6113:6115   */\n      0x0b\n        /* \"#utility.yul\":6106:6111   */\n      dup2\n        /* \"#utility.yul\":6103:6116   */\n      lt\n        /* \"#utility.yul\":6093:6140   */\n      tag_276\n      jumpi\n        /* \"#utility.yul\":6120:6138   */\n      tag_277\n      tag_35\n      jump\t// in\n    tag_277:\n        /* \"#utility.yul\":6093:6140   */\n    tag_276:\n        /* \"#utility.yul\":6029:6146   */\n      pop\n      jump\t// out\n        /* \"#utility.yul\":6152:6285   */\n    tag_181:\n        /* \"#utility.yul\":6200:6207   */\n      0x00\n        /* \"#utility.yul\":6229:6234   */\n      dup2\n        /* \"#utility.yul\":6218:6234   */\n      swap1\n      pop\n        /* \"#utility.yul\":6235:6279   */\n      tag_279\n        /* \"#utility.yul\":6273:6278   */\n      dup3\n        /* \"#utility.yul\":6235:6279   */\n      tag_180\n      jump\t// in\n    tag_279:\n        /* \"#utility.yul\":6152:6285   */\n      swap2\n      swap1\n      pop\n      jump\t// out\n        /* \"#utility.yul\":6291:6424   */\n    tag_182:\n        /* \"#utility.yul\":6350:6359   */\n      0x00\n        /* \"#utility.yul\":6383:6418   */\n      tag_281\n        /* \"#utility.yul\":6412:6417   */\n      dup3\n        /* \"#utility.yul\":6383:6418   */\n      tag_181\n      jump\t// in\n    tag_281:\n        /* \"#utility.yul\":6370:6418   */\n      swap1\n      pop\n        /* \"#utility.yul\":6291:6424   */\n      swap2\n      swap1\n      pop\n      jump\t// out\n        /* \"#utility.yul\":6430:6579   */\n    tag_183:\n        /* \"#utility.yul\":6526:6572   */\n      tag_283\n        /* \"#utility.yul\":6566:6571   */\n      dup2\n        /* \"#utility.yul\":6526:6572   */\n      tag_182\n      jump\t// in\n    tag_283:\n        /* \"#utility.yul\":6521:6524   */\n      dup3\n        /* \"#utility.yul\":6514:6573   */\n      mstore\n        /* \"#utility.yul\":6430:6579   */\n      pop\n      pop\n      jump\t// out\n        /* \"#utility.yul\":6585:6825   */\n    tag_47:\n        /* \"#utility.yul\":6687:6691   */\n      0x00\n        /* \"#utility.yul\":6725:6727   */\n      0x20\n        /* \"#utility.yul\":6714:6723   */\n      dup3\n        /* \"#utility.yul\":6710:6728   */\n      add\n        /* \"#utility.yul\":6702:6728   */\n      swap1\n      pop\n        /* \"#utility.yul\":6738:6818   */\n      tag_285\n        /* \"#utility.yul\":6815:6816   */\n      0x00\n        /* \"#utility.yul\":6804:6813   */\n      dup4\n        /* \"#utility.yul\":6800:6817   */\n      add\n        /* \"#utility.yul\":6791:6797   */\n      dup5\n        /* \"#utility.yul\":6738:6818   */\n      tag_183\n      jump\t// in\n    tag_285:\n        /* \"#utility.yul\":6585:6825   */\n      swap3\n      swap2\n      pop\n      pop\n      jump\t// out\n        /* \"#utility.yul\":6831:6907   */\n    tag_184:\n        /* \"#utility.yul\":6867:6874   */\n      0x00\n        /* \"#utility.yul\":6896:6901   */\n      dup2\n        /* \"#utility.yul\":6885:6901   */\n      swap1\n      pop\n        /* \"#utility.yul\":6831:6907   */\n      swap2\n      swap1\n      pop\n      jump\t// out\n        /* \"#utility.yul\":6913:7033   */\n    tag_185:\n        /* \"#utility.yul\":6985:7008   */\n      tag_288\n        /* \"#utility.yul\":7002:7007   */\n      dup2\n        /* \"#utility.yul\":6985:7008   */\n      tag_184\n      jump\t// in\n    tag_288:\n        /* \"#utility.yul\":6978:6983   */\n      dup2\n        /* \"#utility.yul\":6975:7009   */\n      eq\n        /* \"#utility.yul\":6965:7027   */\n      tag_289\n      jumpi\n        /* \"#utility.yul\":7023:7024   */\n      0x00\n        /* \"#utility.yul\":7020:7021   */\n      0x00\n        /* \"#utility.yul\":7013:7025   */\n      revert\n        /* \"#utility.yul\":6965:7027   */\n    tag_289:\n        /* \"#utility.yul\":6913:7033   */\n      pop\n      jump\t// out\n        /* \"#utility.yul\":7039:7180   */\n    tag_186:\n        /* \"#utility.yul\":7095:7100   */\n      0x00\n        /* \"#utility.yul\":7126:7132   */\n      dup2\n        /* \"#utility.yul\":7120:7133   */\n      mload\n        /* \"#utility.yul\":7111:7133   */\n      swap1\n      pop\n        /* \"#utility.yul\":7142:7174   */\n      tag_291\n        /* \"#utility.yul\":7168:7173   */\n      dup2\n        /* \"#utility.yul\":7142:7174   */\n      tag_185\n      jump\t// in\n    tag_291:\n        /* \"#utility.yul\":7039:7180   */\n      swap3\n      swap2\n      pop\n      pop\n      jump\t// out\n        /* \"#utility.yul\":7186:7535   */\n    tag_51:\n        /* \"#utility.yul\":7255:7261   */\n      0x00\n        /* \"#utility.yul\":7304:7306   */\n      0x20\n        /* \"#utility.yul\":7292:7301   */\n      dup3\n        /* \"#utility.yul\":7283:7290   */\n      dup5\n        /* \"#utility.yul\":7279:7302   */\n      sub\n        /* \"#utility.yul\":7275:7307   */\n      slt\n        /* \"#utility.yul\":7272:7391   */\n      iszero\n      tag_293\n      jumpi\n        /* \"#utility.yul\":7310:7389   */\n      tag_294\n      tag_155\n      jump\t// in\n    tag_294:\n        /* \"#utility.yul\":7272:7391   */\n    tag_293:\n        /* \"#utility.yul\":7430:7431   */\n      0x00\n        /* \"#utility.yul\":7455:7518   */\n      tag_295\n        /* \"#utility.yul\":7510:7517   */\n      dup5\n        /* \"#utility.yul\":7501:7507   */\n      dup3\n        /* \"#utility.yul\":7490:7499   */\n      dup6\n        /* \"#utility.yul\":7486:7508   */\n      add\n        /* \"#utility.yul\":7455:7518   */\n      tag_186\n      jump\t// in\n    tag_295:\n        /* \"#utility.yul\":7445:7518   */\n      swap2\n      pop\n        /* \"#utility.yul\":7401:7528   */\n      pop\n        /* \"#utility.yul\":7186:7535   */\n      swap3\n      swap2\n      pop\n      pop\n      jump\t// out\n        /* \"#utility.yul\":7541:7715   */\n    tag_187:\n        /* \"#utility.yul\":7681:7707   */\n      0x496e737572616e636520636f73747320302e3032204554480000000000000000\n        /* \"#utility.yul\":7677:7678   */\n      0x00\n        /* \"#utility.yul\":7669:7675   */\n      dup3\n        /* \"#utility.yul\":7665:7679   */\n      add\n        /* \"#utility.yul\":7658:7708   */\n      mstore\n        /* \"#utility.yul\":7541:7715   */\n      pop\n      jump\t// out\n        /* \"#utility.yul\":7721:8087   */\n    tag_188:\n        /* \"#utility.yul\":7863:7866   */\n      0x00\n        /* \"#utility.yul\":7884:7951   */\n      tag_298\n        /* \"#utility.yul\":7948:7950   */\n      0x18\n        /* \"#utility.yul\":7943:7946   */\n      dup4\n        /* \"#utility.yul\":7884:7951   */\n      tag_169\n      jump\t// in\n    tag_298:\n        /* \"#utility.yul\":7877:7951   */\n      swap2\n      pop\n        /* \"#utility.yul\":7960:8053   */\n      tag_299\n        /* \"#utility.yul\":8049:8052   */\n      dup3\n        /* \"#utility.yul\":7960:8053   */\n      tag_187\n      jump\t// in\n    tag_299:\n        /* \"#utility.yul\":8078:8080   */\n      0x20\n        /* \"#utility.yul\":8073:8076   */\n      dup3\n        /* \"#utility.yul\":8069:8081   */\n      add\n        /* \"#utility.yul\":8062:8081   */\n      swap1\n      pop\n        /* \"#utility.yul\":7721:8087   */\n      swap2\n      swap1\n      pop\n      jump\t// out\n        /* \"#utility.yul\":8093:8512   */\n    tag_60:\n        /* \"#utility.yul\":8259:8263   */\n      0x00\n        /* \"#utility.yul\":8297:8299   */\n      0x20\n        /* \"#utility.yul\":8286:8295   */\n      dup3\n        /* \"#utility.yul\":8282:8300   */\n      add\n        /* \"#utility.yul\":8274:8300   */\n      swap1\n      pop\n        /* \"#utility.yul\":8346:8355   */\n      dup2\n        /* \"#utility.yul\":8340:8344   */\n      dup2\n        /* \"#utility.yul\":8336:8356   */\n      sub\n        /* \"#utility.yul\":8332:8333   */\n      0x00\n        /* \"#utility.yul\":8321:8330   */\n      dup4\n        /* \"#utility.yul\":8317:8334   */\n      add\n        /* \"#utility.yul\":8310:8357   */\n      mstore\n        /* \"#utility.yul\":8374:8505   */\n      tag_301\n        /* \"#utility.yul\":8500:8504   */\n      dup2\n        /* \"#utility.yul\":8374:8505   */\n      tag_188\n      jump\t// in\n    tag_301:\n        /* \"#utility.yul\":8366:8505   */\n      swap1\n      pop\n        /* \"#utility.yul\":8093:8512   */\n      swap2\n      swap1\n      pop\n      jump\t// out\n        /* \"#utility.yul\":8518:8691   */\n    tag_189:\n        /* \"#utility.yul\":8658:8683   */\n      0x4865616c696e6720636f73747320302e30303520455448000000000000000000\n        /* \"#utility.yul\":8654:8655   */\n      0x00\n        /* \"#utility.yul\":8646:8652   */\n      dup3\n        /* \"#utility.yul\":8642:8656   */\n      add\n        /* \"#utility.yul\":8635:8684   */\n      mstore\n        /* \"#utility.yul\":8518:8691   */\n      pop\n      jump\t// out\n        /* \"#utility.yul\":8697:9063   */\n    tag_190:\n        /* \"#utility.yul\":8839:8842   */\n      0x00\n        /* \"#utility.yul\":8860:8927   */\n      tag_304\n        /* \"#utility.yul\":8924:8926   */\n      0x17\n        /* \"#utility.yul\":8919:8922   */\n      dup4\n        /* \"#utility.yul\":8860:8927   */\n      tag_169\n      jump\t// in\n    tag_304:\n        /* \"#utility.yul\":8853:8927   */\n      swap2\n      pop\n        /* \"#utility.yul\":8936:9029   */\n      tag_305\n        /* \"#utility.yul\":9025:9028   */\n      dup3\n        /* \"#utility.yul\":8936:9029   */\n      tag_189\n      jump\t// in\n    tag_305:\n        /* \"#utility.yul\":9054:9056   */\n      0x20\n        /* \"#utility.yul\":9049:9052   */\n      dup3\n        /* \"#utility.yul\":9045:9057   */\n      add\n        /* \"#utility.yul\":9038:9057   */\n      swap1\n      pop\n        /* \"#utility.yul\":8697:9063   */\n      swap2\n      swap1\n      pop\n      jump\t// out\n        /* \"#utility.yul\":9069:9488   */\n    tag_68:\n        /* \"#utility.yul\":9235:9239   */\n      0x00\n        /* \"#utility.yul\":9273:9275   */\n      0x20\n        /* \"#utility.yul\":9262:9271   */\n      dup3\n        /* \"#utility.yul\":9258:9276   */\n      add\n        /* \"#utility.yul\":9250:9276   */\n      swap1\n      pop\n        /* \"#utility.yul\":9322:9331   */\n      dup2\n        /* \"#utility.yul\":9316:9320   */\n      dup2\n        /* \"#utility.yul\":9312:9332   */\n      sub\n        /* \"#utility.yul\":9308:9309   */\n      0x00\n        /* \"#utility.yul\":9297:9306   */\n      dup4\n        /* \"#utility.yul\":9293:9310   */\n      add\n        /* \"#utility.yul\":9286:9333   */\n      mstore\n        /* \"#utility.yul\":9350:9481   */\n      tag_307\n        /* \"#utility.yul\":9476:9480   */\n      dup2\n        /* \"#utility.yul\":9350:9481   */\n      tag_190\n      jump\t// in\n    tag_307:\n        /* \"#utility.yul\":9342:9481   */\n      swap1\n      pop\n        /* \"#utility.yul\":9069:9488   */\n      swap2\n      swap1\n      pop\n      jump\t// out\n        /* \"#utility.yul\":9494:9611   */\n    tag_191:\n        /* \"#utility.yul\":9603:9604   */\n      0x00\n        /* \"#utility.yul\":9600:9601   */\n      0x00\n        /* \"#utility.yul\":9593:9605   */\n      revert\n        /* \"#utility.yul\":9617:9719   */\n    tag_192:\n        /* \"#utility.yul\":9658:9664   */\n      0x00\n        /* \"#utility.yul\":9709:9711   */\n      0x1f\n        /* \"#utility.yul\":9705:9712   */\n      not\n        /* \"#utility.yul\":9700:9702   */\n      0x1f\n        /* \"#utility.yul\":9693:9698   */\n      dup4\n        /* \"#utility.yul\":9689:9703   */\n      add\n        /* \"#utility.yul\":9685:9713   */\n      and\n        /* \"#utility.yul\":9675:9713   */\n      swap1\n      pop\n        /* \"#utility.yul\":9617:9719   */\n      swap2\n      swap1\n      pop\n      jump\t// out\n        /* \"#utility.yul\":9725:9905   */\n    tag_193:\n        /* \"#utility.yul\":9773:9850   */\n      0x4e487b7100000000000000000000000000000000000000000000000000000000\n        /* \"#utility.yul\":9770:9771   */\n      0x00\n        /* \"#utility.yul\":9763:9851   */\n      mstore\n        /* \"#utility.yul\":9870:9874   */\n      0x41\n        /* \"#utility.yul\":9867:9868   */\n      0x04\n        /* \"#utility.yul\":9860:9875   */\n      mstore\n        /* \"#utility.yul\":9894:9898   */\n      0x24\n        /* \"#utility.yul\":9891:9892   */\n      0x00\n        /* \"#utility.yul\":9884:9899   */\n      revert\n        /* \"#utility.yul\":9911:10192   */\n    tag_194:\n        /* \"#utility.yul\":9994:10021   */\n      tag_312\n        /* \"#utility.yul\":10016:10020   */\n      dup3\n        /* \"#utility.yul\":9994:10021   */\n      tag_192\n      jump\t// in\n    tag_312:\n        /* \"#utility.yul\":9986:9992   */\n      dup2\n        /* \"#utility.yul\":9982:10022   */\n      add\n        /* \"#utility.yul\":10124:10130   */\n      dup2\n        /* \"#utility.yul\":10112:10122   */\n      dup2\n        /* \"#utility.yul\":10109:10131   */\n      lt\n        /* \"#utility.yul\":10088:10106   */\n      0xffffffffffffffff\n        /* \"#utility.yul\":10076:10086   */\n      dup3\n        /* \"#utility.yul\":10073:10107   */\n      gt\n        /* \"#utility.yul\":10070:10132   */\n      or\n        /* \"#utility.yul\":10067:10155   */\n      iszero\n      tag_313\n      jumpi\n        /* \"#utility.yul\":10135:10153   */\n      tag_314\n      tag_193\n      jump\t// in\n    tag_314:\n        /* \"#utility.yul\":10067:10155   */\n    tag_313:\n        /* \"#utility.yul\":10175:10185   */\n      dup1\n        /* \"#utility.yul\":10171:10173   */\n      0x40\n        /* \"#utility.yul\":10164:10186   */\n      mstore\n        /* \"#utility.yul\":9954:10192   */\n      pop\n        /* \"#utility.yul\":9911:10192   */\n      pop\n      pop\n      jump\t// out\n        /* \"#utility.yul\":10198:10327   */\n    tag_195:\n        /* \"#utility.yul\":10232:10238   */\n      0x00\n        /* \"#utility.yul\":10259:10279   */\n      tag_316\n      tag_154\n      jump\t// in\n    tag_316:\n        /* \"#utility.yul\":10249:10279   */\n      swap1\n      pop\n        /* \"#utility.yul\":10288:10321   */\n      tag_317\n        /* \"#utility.yul\":10316:10320   */\n      dup3\n        /* \"#utility.yul\":10308:10314   */\n      dup3\n        /* \"#utility.yul\":10288:10321   */\n      tag_194\n      jump\t// in\n    tag_317:\n        /* \"#utility.yul\":10198:10327   */\n      swap2\n      swap1\n      pop\n      jump\t// out\n        /* \"#utility.yul\":10456:10599   */\n    tag_197:\n        /* \"#utility.yul\":10513:10518   */\n      0x00\n        /* \"#utility.yul\":10544:10550   */\n      dup2\n        /* \"#utility.yul\":10538:10551   */\n      mload\n        /* \"#utility.yul\":10529:10551   */\n      swap1\n      pop\n        /* \"#utility.yul\":10560:10593   */\n      tag_320\n        /* \"#utility.yul\":10587:10592   */\n      dup2\n        /* \"#utility.yul\":10560:10593   */\n      tag_167\n      jump\t// in\n    tag_320:\n        /* \"#utility.yul\":10456:10599   */\n      swap3\n      swap2\n      pop\n      pop\n      jump\t// out\n        /* \"#utility.yul\":10605:10770   */\n    tag_198:\n        /* \"#utility.yul\":10673:10678   */\n      0x00\n        /* \"#utility.yul\":10704:10710   */\n      dup2\n        /* \"#utility.yul\":10698:10711   */\n      mload\n        /* \"#utility.yul\":10689:10711   */\n      swap1\n      pop\n        /* \"#utility.yul\":10720:10764   */\n      tag_322\n        /* \"#utility.yul\":10758:10763   */\n      dup2\n        /* \"#utility.yul\":10720:10764   */\n      tag_157\n      jump\t// in\n    tag_322:\n        /* \"#utility.yul\":10605:10770   */\n      swap3\n      swap2\n      pop\n      pop\n      jump\t// out\n        /* \"#utility.yul\":10804:11955   */\n    tag_199:\n        /* \"#utility.yul\":10889:10894   */\n      0x00\n        /* \"#utility.yul\":10933:10937   */\n      0xa0\n        /* \"#utility.yul\":10921:10930   */\n      dup3\n        /* \"#utility.yul\":10916:10919   */\n      dup5\n        /* \"#utility.yul\":10912:10931   */\n      sub\n        /* \"#utility.yul\":10908:10938   */\n      slt\n        /* \"#utility.yul\":10905:11022   */\n      iszero\n      tag_324\n      jumpi\n        /* \"#utility.yul\":10941:11020   */\n      tag_325\n      tag_191\n      jump\t// in\n    tag_325:\n        /* \"#utility.yul\":10905:11022   */\n    tag_324:\n        /* \"#utility.yul\":11040:11061   */\n      tag_326\n        /* \"#utility.yul\":11056:11060   */\n      0xa0\n        /* \"#utility.yul\":11040:11061   */\n      tag_195\n      jump\t// in\n    tag_326:\n        /* \"#utility.yul\":11031:11061   */\n      swap1\n      pop\n        /* \"#utility.yul\":11119:11120   */\n      0x00\n        /* \"#utility.yul\":11159:11219   */\n      tag_327\n        /* \"#utility.yul\":11215:11218   */\n      dup5\n        /* \"#utility.yul\":11206:11212   */\n      dup3\n        /* \"#utility.yul\":11195:11204   */\n      dup6\n        /* \"#utility.yul\":11191:11213   */\n      add\n        /* \"#utility.yul\":11159:11219   */\n      tag_197\n      jump\t// in\n    tag_327:\n        /* \"#utility.yul\":11152:11156   */\n      0x00\n        /* \"#utility.yul\":11145:11150   */\n      dup4\n        /* \"#utility.yul\":11141:11157   */\n      add\n        /* \"#utility.yul\":11134:11220   */\n      mstore\n        /* \"#utility.yul\":11071:11231   */\n      pop\n        /* \"#utility.yul\":11292:11294   */\n      0x20\n        /* \"#utility.yul\":11333:11393   */\n      tag_328\n        /* \"#utility.yul\":11389:11392   */\n      dup5\n        /* \"#utility.yul\":11380:11386   */\n      dup3\n        /* \"#utility.yul\":11369:11378   */\n      dup6\n        /* \"#utility.yul\":11365:11387   */\n      add\n        /* \"#utility.yul\":11333:11393   */\n      tag_197\n      jump\t// in\n    tag_328:\n        /* \"#utility.yul\":11326:11330   */\n      0x20\n        /* \"#utility.yul\":11319:11324   */\n      dup4\n        /* \"#utility.yul\":11315:11331   */\n      add\n        /* \"#utility.yul\":11308:11394   */\n      mstore\n        /* \"#utility.yul\":11241:11405   */\n      pop\n        /* \"#utility.yul\":11466:11468   */\n      0x40\n        /* \"#utility.yul\":11507:11567   */\n      tag_329\n        /* \"#utility.yul\":11563:11566   */\n      dup5\n        /* \"#utility.yul\":11554:11560   */\n      dup3\n        /* \"#utility.yul\":11543:11552   */\n      dup6\n        /* \"#utility.yul\":11539:11561   */\n      add\n        /* \"#utility.yul\":11507:11567   */\n      tag_197\n      jump\t// in\n    tag_329:\n        /* \"#utility.yul\":11500:11504   */\n      0x40\n        /* \"#utility.yul\":11493:11498   */\n      dup4\n        /* \"#utility.yul\":11489:11505   */\n      add\n        /* \"#utility.yul\":11482:11568   */\n      mstore\n        /* \"#utility.yul\":11415:11579   */\n      pop\n        /* \"#utility.yul\":11641:11643   */\n      0x60\n        /* \"#utility.yul\":11682:11753   */\n      tag_330\n        /* \"#utility.yul\":11749:11752   */\n      dup5\n        /* \"#utility.yul\":11740:11746   */\n      dup3\n        /* \"#utility.yul\":11729:11738   */\n      dup6\n        /* \"#utility.yul\":11725:11747   */\n      add\n        /* \"#utility.yul\":11682:11753   */\n      tag_198\n      jump\t// in\n    tag_330:\n        /* \"#utility.yul\":11675:11679   */\n      0x60\n        /* \"#utility.yul\":11668:11673   */\n      dup4\n        /* \"#utility.yul\":11664:11680   */\n      add\n        /* \"#utility.yul\":11657:11754   */\n      mstore\n        /* \"#utility.yul\":11589:11765   */\n      pop\n        /* \"#utility.yul\":11834:11837   */\n      0x80\n        /* \"#utility.yul\":11876:11936   */\n      tag_331\n        /* \"#utility.yul\":11932:11935   */\n      dup5\n        /* \"#utility.yul\":11923:11929   */\n      dup3\n        /* \"#utility.yul\":11912:11921   */\n      dup6\n        /* \"#utility.yul\":11908:11930   */\n      add\n        /* \"#utility.yul\":11876:11936   */\n      tag_197\n      jump\t// in\n    tag_331:\n        /* \"#utility.yul\":11869:11873   */\n      0x80\n        /* \"#utility.yul\":11862:11867   */\n      dup4\n        /* \"#utility.yul\":11858:11874   */\n      add\n        /* \"#utility.yul\":11851:11937   */\n      mstore\n        /* \"#utility.yul\":11775:11948   */\n      pop\n        /* \"#utility.yul\":10804:11955   */\n      swap3\n      swap2\n      pop\n      pop\n      jump\t// out\n        /* \"#utility.yul\":11961:12363   */\n    tag_73:\n        /* \"#utility.yul\":12056:12062   */\n      0x00\n        /* \"#utility.yul\":12105:12108   */\n      0xa0\n        /* \"#utility.yul\":12093:12102   */\n      dup3\n        /* \"#utility.yul\":12084:12091   */\n      dup5\n        /* \"#utility.yul\":12080:12103   */\n      sub\n        /* \"#utility.yul\":12076:12109   */\n      slt\n        /* \"#utility.yul\":12073:12193   */\n      iszero\n      tag_333\n      jumpi\n        /* \"#utility.yul\":12112:12191   */\n      tag_334\n      tag_155\n      jump\t// in\n    tag_334:\n        /* \"#utility.yul\":12073:12193   */\n    tag_333:\n        /* \"#utility.yul\":12232:12233   */\n      0x00\n        /* \"#utility.yul\":12257:12346   */\n      tag_335\n        /* \"#utility.yul\":12338:12345   */\n      dup5\n        /* \"#utility.yul\":12329:12335   */\n      dup3\n        /* \"#utility.yul\":12318:12327   */\n      dup6\n        /* \"#utility.yul\":12314:12336   */\n      add\n        /* \"#utility.yul\":12257:12346   */\n      tag_199\n      jump\t// in\n    tag_335:\n        /* \"#utility.yul\":12247:12346   */\n      swap2\n      pop\n        /* \"#utility.yul\":12203:12356   */\n      pop\n        /* \"#utility.yul\":11961:12363   */\n      swap3\n      swap2\n      pop\n      pop\n      jump\t// out\n        /* \"#utility.yul\":12369:12592   */\n    tag_200:\n        /* \"#utility.yul\":12509:12543   */\n      0x4e6f7420656e6f7567682045544820746f206d696e74206d7974686963616c20\n        /* \"#utility.yul\":12505:12506   */\n      0x00\n        /* \"#utility.yul\":12497:12503   */\n      dup3\n        /* \"#utility.yul\":12493:12507   */\n      add\n        /* \"#utility.yul\":12486:12544   */\n      mstore\n        /* \"#utility.yul\":12578:12584   */\n      0x6269726400000000000000000000000000000000000000000000000000000000\n        /* \"#utility.yul\":12573:12575   */\n      0x20\n        /* \"#utility.yul\":12565:12571   */\n      dup3\n        /* \"#utility.yul\":12561:12576   */\n      add\n        /* \"#utility.yul\":12554:12585   */\n      mstore\n        /* \"#utility.yul\":12369:12592   */\n      pop\n      jump\t// out\n        /* \"#utility.yul\":12598:12964   */\n    tag_201:\n        /* \"#utility.yul\":12740:12743   */\n      0x00\n        /* \"#utility.yul\":12761:12828   */\n      tag_338\n        /* \"#utility.yul\":12825:12827   */\n      0x24\n        /* \"#utility.yul\":12820:12823   */\n      dup4\n        /* \"#utility.yul\":12761:12828   */\n      tag_169\n      jump\t// in\n    tag_338:\n        /* \"#utility.yul\":12754:12828   */\n      swap2\n      pop\n        /* \"#utility.yul\":12837:12930   */\n      tag_339\n        /* \"#utility.yul\":12926:12929   */\n      dup3\n        /* \"#utility.yul\":12837:12930   */\n      tag_200\n      jump\t// in\n    tag_339:\n        /* \"#utility.yul\":12955:12957   */\n      0x40\n        /* \"#utility.yul\":12950:12953   */\n      dup3\n        /* \"#utility.yul\":12946:12958   */\n      add\n        /* \"#utility.yul\":12939:12958   */\n      swap1\n      pop\n        /* \"#utility.yul\":12598:12964   */\n      swap2\n      swap1\n      pop\n      jump\t// out\n        /* \"#utility.yul\":12970:13389   */\n    tag_79:\n        /* \"#utility.yul\":13136:13140   */\n      0x00\n        /* \"#utility.yul\":13174:13176   */\n      0x20\n        /* \"#utility.yul\":13163:13172   */\n      dup3\n        /* \"#utility.yul\":13159:13177   */\n      add\n        /* \"#utility.yul\":13151:13177   */\n      swap1\n      pop\n        /* \"#utility.yul\":13223:13232   */\n      dup2\n        /* \"#utility.yul\":13217:13221   */\n      dup2\n        /* \"#utility.yul\":13213:13233   */\n      sub\n        /* \"#utility.yul\":13209:13210   */\n      0x00\n        /* \"#utility.yul\":13198:13207   */\n      dup4\n        /* \"#utility.yul\":13194:13211   */\n      add\n        /* \"#utility.yul\":13187:13234   */\n      mstore\n        /* \"#utility.yul\":13251:13382   */\n      tag_341\n        /* \"#utility.yul\":13377:13381   */\n      dup2\n        /* \"#utility.yul\":13251:13382   */\n      tag_201\n      jump\t// in\n    tag_341:\n        /* \"#utility.yul\":13243:13382   */\n      swap1\n      pop\n        /* \"#utility.yul\":12970:13389   */\n      swap2\n      swap1\n      pop\n      jump\t// out\n        /* \"#utility.yul\":13395:13560   */\n    tag_202:\n        /* \"#utility.yul\":13535:13552   */\n      0x556e6b6e6f776e20737065636965730000000000000000000000000000000000\n        /* \"#utility.yul\":13531:13532   */\n      0x00\n        /* \"#utility.yul\":13523:13529   */\n      dup3\n        /* \"#utility.yul\":13519:13533   */\n      add\n        /* \"#utility.yul\":13512:13553   */\n      mstore\n        /* \"#utility.yul\":13395:13560   */\n      pop\n      jump\t// out\n        /* \"#utility.yul\":13566:13932   */\n    tag_203:\n        /* \"#utility.yul\":13708:13711   */\n      0x00\n        /* \"#utility.yul\":13729:13796   */\n      tag_344\n        /* \"#utility.yul\":13793:13795   */\n      0x0f\n        /* \"#utility.yul\":13788:13791   */\n      dup4\n        /* \"#utility.yul\":13729:13796   */\n      tag_169\n      jump\t// in\n    tag_344:\n        /* \"#utility.yul\":13722:13796   */\n      swap2\n      pop\n        /* \"#utility.yul\":13805:13898   */\n      tag_345\n        /* \"#utility.yul\":13894:13897   */\n      dup3\n        /* \"#utility.yul\":13805:13898   */\n      tag_202\n      jump\t// in\n    tag_345:\n        /* \"#utility.yul\":13923:13925   */\n      0x20\n        /* \"#utility.yul\":13918:13921   */\n      dup3\n        /* \"#utility.yul\":13914:13926   */\n      add\n        /* \"#utility.yul\":13907:13926   */\n      swap1\n      pop\n        /* \"#utility.yul\":13566:13932   */\n      swap2\n      swap1\n      pop\n      jump\t// out\n        /* \"#utility.yul\":13938:14357   */\n    tag_153:\n        /* \"#utility.yul\":14104:14108   */\n      0x00\n        /* \"#utility.yul\":14142:14144   */\n      0x20\n        /* \"#utility.yul\":14131:14140   */\n      dup3\n        /* \"#utility.yul\":14127:14145   */\n      add\n        /* \"#utility.yul\":14119:14145   */\n      swap1\n      pop\n        /* \"#utility.yul\":14191:14200   */\n      dup2\n        /* \"#utility.yul\":14185:14189   */\n      dup2\n        /* \"#utility.yul\":14181:14201   */\n      sub\n        /* \"#utility.yul\":14177:14178   */\n      0x00\n        /* \"#utility.yul\":14166:14175   */\n      dup4\n        /* \"#utility.yul\":14162:14179   */\n      add\n        /* \"#utility.yul\":14155:14202   */\n      mstore\n        /* \"#utility.yul\":14219:14350   */\n      tag_347\n        /* \"#utility.yul\":14345:14349   */\n      dup2\n        /* \"#utility.yul\":14219:14350   */\n      tag_203\n      jump\t// in\n    tag_347:\n        /* \"#utility.yul\":14211:14350   */\n      swap1\n      pop\n        /* \"#utility.yul\":13938:14357   */\n      swap2\n      swap1\n      pop\n      jump\t// out\n    stop\n    data_1ffc5c99f8ff866cb3cb9bd46d45453badb8f26649052a31a9be49b9b43149da 68747470733a2f2f676174657761792e70696e6174612e636c6f75642f697066732f6261667962656961336c65346173746b6e683270346d626b64357734326a353232746e73653477786b3777356d3777696d6f716470366f757a7079\n    data_3bbf1c81af77207dbf9db8f891697113273de930322fc10149aebcb2d416dad6 68747470733a2f2f676174657761792e70696e6174612e636c6f75642f697066732f626166796265696576377075637a377968377836686169646d7068703569656f6276636664636c6e6c776a71613269767334793335377076776d61\n    data_86e92b1a76e2f297d69c89af4232d1b3e647fd322843457f38b762c99d8ee708 68747470733a2f2f676174657761792e70696e6174612e636c6f75642f697066732f62616679626569676f686f746f6b366b336f6e76746a797970666e626e7a6263736f327163697862777a34776836347670326e336c71376e6b7361\n\n    auxdata: 0xa264697066735822122003f8ee2ea44c8e406c9c3f8a4e8ca40fcd1710d10f921bdca1446ede8068874364736f6c634300081e0033\n}\n",
				"bytecode": {
					"linkReferences": {},
					"object": "608060405234801561000f575f5ffd5b5060405161178d38038061178d83398181016040528101906100319190610367565b805f5f6101000a81548173ffffffffffffffffffffffffffffffffffffffff021916908373ffffffffffffffffffffffffffffffffffffffff16021790555066b1a2bc2ec5000060015f5f600a81111561008e5761008d610392565b5b600a8111156100a05761009f610392565b5b81526020019081526020015f208190555066b1a2bc2ec5000060015f6001600a8111156100d0576100cf610392565b5b600a8111156100e2576100e1610392565b5b81526020019081526020015f208190555066470de4df82000060015f6002600a81111561011257610111610392565b5b600a81111561012457610123610392565b5b81526020019081526020015f2081905550666a94d74f43000060015f6003600a81111561015457610153610392565b5b600a81111561016657610165610392565b5b81526020019081526020015f2081905550663ff2e795f5000060015f6004600a81111561019657610195610392565b5b600a8111156101a8576101a7610392565b5b81526020019081526020015f2081905550662386f26fc1000060015f6005600a8111156101d8576101d7610392565b5b600a8111156101ea576101e9610392565b5b81526020019081526020015f2081905550662386f26fc1000060015f6006600a81111561021a57610219610392565b5b600a81111561022c5761022b610392565b5b81526020019081526020015f2081905550662aa1efb94e000060015f6007600a81111561025c5761025b610392565b5b600a81111561026e5761026d610392565b5b81526020019081526020015f2081905550668e1bc9bf04000060015f6008600a81111561029e5761029d610392565b5b600a8111156102b0576102af610392565b5b81526020019081526020015f2081905550662386f26fc1000060015f6009600a8111156102e0576102df610392565b5b600a8111156102f2576102f1610392565b5b81526020019081526020015f2081905550506103bf565b5f5ffd5b5f73ffffffffffffffffffffffffffffffffffffffff82169050919050565b5f6103368261030d565b9050919050565b6103468161032c565b8114610350575f5ffd5b50565b5f815190506103618161033d565b92915050565b5f6020828403121561037c5761037b610309565b5b5f61038984828501610353565b91505092915050565b7f4e487b71000000000000000000000000000000000000000000000000000000005f52602160045260245ffd5b6113c1806103cc5f395ff3fe608060405260043610610054575f3560e01c80634a7388a3146100585780635361e1d2146100945780639aeb133f146100be578063a86a658c146100da578063bff998f4146100f6578063eb96efa714610112575b5f5ffd5b348015610063575f5ffd5b5061007e60048036038101906100799190610b7c565b61011c565b60405161008b9190610bbf565b60405180910390f35b34801561009f575f5ffd5b506100a8610131565b6040516100b59190610c52565b60405180910390f35b6100d860048036038101906100d39190610b7c565b610155565b005b6100f460048036038101906100ef9190610c95565b610355565b005b610110600480360381019061010b9190610c95565b610428565b005b61011a61052b565b005b6001602052805f5260405f205f915090505481565b5f5f9054906101000a900473ffffffffffffffffffffffffffffffffffffffff1681565b5f60015f83600a81111561016c5761016b610cc0565b5b600a81111561017e5761017d610cc0565b5b81526020019081526020015f20549050803410156101d1576040517f08c379a00000000000000000000000000000000000000000000000000000000081526004016101c890610d6d565b60405180910390fd5b5f6103e842336040516020016101e8929190610e01565b604051602081830303815290604052805190602001205f1c61020a9190610e59565b9050600a8110156102b5575f5f9054906101000a900473ffffffffffffffffffffffffffffffffffffffff1673ffffffffffffffffffffffffffffffffffffffff16634d2d7881600a6040518263ffffffff1660e01b815260040161026f9190610ecf565b6020604051808303815f875af115801561028b573d5f5f3e3d5ffd5b505050506040513d601f19601f820116820180604052508101906102af9190610f1b565b50610350565b5f5f9054906101000a900473ffffffffffffffffffffffffffffffffffffffff1673ffffffffffffffffffffffffffffffffffffffff16634d2d7881846040518263ffffffff1660e01b815260040161030e9190610ecf565b6020604051808303815f875af115801561032a573d5f5f3e3d5ffd5b505050506040513d601f19601f8201168201806040525081019061034e9190610f1b565b505b505050565b66470de4df82000034101561039f576040517f08c379a000000000000000000000000000000000000000000000000000000000815260040161039690610f90565b60405180910390fd5b5f5f9054906101000a900473ffffffffffffffffffffffffffffffffffffffff1673ffffffffffffffffffffffffffffffffffffffff166349b1a0bf826040518263ffffffff1660e01b81526004016103f89190610bbf565b5f604051808303815f87803b15801561040f575f5ffd5b505af1158015610421573d5f5f3e3d5ffd5b5050505050565b6611c37937e08000341015610472576040517f08c379a000000000000000000000000000000000000000000000000000000000815260040161046990610ff8565b60405180910390fd5b5f5f5f9054906101000a900473ffffffffffffffffffffffffffffffffffffffff1673ffffffffffffffffffffffffffffffffffffffff16636ec88bbd836040518263ffffffff1660e01b81526004016104cc9190610bbf565b60a0604051808303815f875af11580156104e8573d5f5f3e3d5ffd5b505050506040513d601f19601f8201168201806040525081019061050c9190611153565b905061051b8160600151610618565b5f01518160400181815250505050565b5f6702c68af0bb14000090508034101561057a576040517f08c379a0000000000000000000000000000000000000000000000000000000008152600401610571906111ee565b60405180910390fd5b5f5f9054906101000a900473ffffffffffffffffffffffffffffffffffffffff1673ffffffffffffffffffffffffffffffffffffffff16634d2d7881600a6040518263ffffffff1660e01b81526004016105d49190610ecf565b6020604051808303815f875af11580156105f0573d5f5f3e3d5ffd5b505050506040513d601f19601f820116820180604052508101906106149190610f1b565b5050565b610620610b21565b5f600a81111561063357610632610cc0565b5b82600a81111561064657610645610cc0565b5b03610695576040518060a0016040528060c881526020016096815260200160038152602001600181526020016040518060800160405280605d8152602001611275605d91398152509050610b1c565b6001600a8111156106a9576106a8610cc0565b5b82600a8111156106bc576106bb610cc0565b5b0361070b576040518060a0016040528060dc815260200160c8815260200160028152602001600581526020016040518060800160405280605d815260200161132f605d91398152509050610b1c565b6002600a81111561071f5761071e610cc0565b5b82600a81111561073257610731610cc0565b5b03610781576040518060a00160405280605081526020016050815260200160038152602001600681526020016040518060800160405280605d81526020016112d2605d91398152509050610b1c565b600a8081111561079457610793610cc0565b5b82600a8111156107a7576107a6610cc0565b5b036107ed576040518060a0016040528061012c815260200161012c8152602001600181526020015f815260200160405180602001604052805f8152508152509050610b1c565b6003600a81111561080157610800610cc0565b5b82600a81111561081457610813610cc0565b5b03610859576040518060a0016040528060b48152602001605a8152602001600281526020016004815260200160405180602001604052805f8152508152509050610b1c565b6004600a81111561086d5761086c610cc0565b5b82600a8111156108805761087f610cc0565b5b036108c5576040518060a001604052806050815260200160468152602001600281526020016008815260200160405180602001604052805f8152508152509050610b1c565b6005600a8111156108d9576108d8610cc0565b5b82600a8111156108ec576108eb610cc0565b5b03610931576040518060a0016040528060328152602001603c8152602001600481526020016005815260200160405180602001604052805f8152508152509050610b1c565b6006600a81111561094557610944610cc0565b5b82600a81111561095857610957610cc0565b5b0361099d576040518060a001604052806037815260200160288152602001600381526020016004815260200160405180602001604052805f8152508152509050610b1c565b6007600a8111156109b1576109b0610cc0565b5b82600a8111156109c4576109c3610cc0565b5b03610a09576040518060a00160405280604e815260200160418152602001600281526020016004815260200160405180602001604052805f8152508152509050610b1c565b6008600a811115610a1d57610a1c610cc0565b5b82600a811115610a3057610a2f610cc0565b5b03610a75576040518060a001604052806096815260200160648152602001600481526020016003815260200160405180602001604052805f8152508152509050610b1c565b6009600a811115610a8957610a88610cc0565b5b82600a811115610a9c57610a9b610cc0565b5b03610ae1576040518060a001604052806023815260200160428152602001600481526020016005815260200160405180602001604052805f8152508152509050610b1c565b6040517f08c379a0000000000000000000000000000000000000000000000000000000008152600401610b1390611256565b60405180910390fd5b919050565b6040518060a001604052805f81526020015f81526020015f81526020015f8152602001606081525090565b5f604051905090565b5f5ffd5b600b8110610b65575f5ffd5b50565b5f81359050610b7681610b59565b92915050565b5f60208284031215610b9157610b90610b55565b5b5f610b9e84828501610b68565b91505092915050565b5f819050919050565b610bb981610ba7565b82525050565b5f602082019050610bd25f830184610bb0565b92915050565b5f73ffffffffffffffffffffffffffffffffffffffff82169050919050565b5f819050919050565b5f610c1a610c15610c1084610bd8565b610bf7565b610bd8565b9050919050565b5f610c2b82610c00565b9050919050565b5f610c3c82610c21565b9050919050565b610c4c81610c32565b82525050565b5f602082019050610c655f830184610c43565b92915050565b610c7481610ba7565b8114610c7e575f5ffd5b50565b5f81359050610c8f81610c6b565b92915050565b5f60208284031215610caa57610ca9610b55565b5b5f610cb784828501610c81565b91505092915050565b7f4e487b71000000000000000000000000000000000000000000000000000000005f52602160045260245ffd5b5f82825260208201905092915050565b7f4e6f7420656e6f7567682045544820746f206d696e74207468697320737065635f8201527f6965730000000000000000000000000000000000000000000000000000000000602082015250565b5f610d57602383610ced565b9150610d6282610cfd565b604082019050919050565b5f6020820190508181035f830152610d8481610d4b565b9050919050565b5f819050919050565b610da5610da082610ba7565b610d8b565b82525050565b5f610db582610bd8565b9050919050565b5f8160601b9050919050565b5f610dd282610dbc565b9050919050565b5f610de382610dc8565b9050919050565b610dfb610df682610dab565b610dd9565b82525050565b5f610e0c8285610d94565b602082019150610e1c8284610dea565b6014820191508190509392505050565b7f4e487b71000000000000000000000000000000000000000000000000000000005f52601260045260245ffd5b5f610e6382610ba7565b9150610e6e83610ba7565b925082610e7e57610e7d610e2c565b5b828206905092915050565b600b8110610e9a57610e99610cc0565b5b50565b5f819050610eaa82610e89565b919050565b5f610eb982610e9d565b9050919050565b610ec981610eaf565b82525050565b5f602082019050610ee25f830184610ec0565b92915050565b5f819050919050565b610efa81610ee8565b8114610f04575f5ffd5b50565b5f81519050610f1581610ef1565b92915050565b5f60208284031215610f3057610f2f610b55565b5b5f610f3d84828501610f07565b91505092915050565b7f496e737572616e636520636f73747320302e30322045544800000000000000005f82015250565b5f610f7a601883610ced565b9150610f8582610f46565b602082019050919050565b5f6020820190508181035f830152610fa781610f6e565b9050919050565b7f4865616c696e6720636f73747320302e303035204554480000000000000000005f82015250565b5f610fe2601783610ced565b9150610fed82610fae565b602082019050919050565b5f6020820190508181035f83015261100f81610fd6565b9050919050565b5f5ffd5b5f601f19601f8301169050919050565b7f4e487b71000000000000000000000000000000000000000000000000000000005f52604160045260245ffd5b6110608261101a565b810181811067ffffffffffffffff8211171561107f5761107e61102a565b5b80604052505050565b5f611091610b4c565b905061109d8282611057565b919050565b5f815190506110b081610c6b565b92915050565b5f815190506110c481610b59565b92915050565b5f60a082840312156110df576110de611016565b5b6110e960a0611088565b90505f6110f8848285016110a2565b5f83015250602061110b848285016110a2565b602083015250604061111f848285016110a2565b6040830152506060611133848285016110b6565b6060830152506080611147848285016110a2565b60808301525092915050565b5f60a0828403121561116857611167610b55565b5b5f611175848285016110ca565b91505092915050565b7f4e6f7420656e6f7567682045544820746f206d696e74206d7974686963616c205f8201527f6269726400000000000000000000000000000000000000000000000000000000602082015250565b5f6111d8602483610ced565b91506111e38261117e565b604082019050919050565b5f6020820190508181035f830152611205816111cc565b9050919050565b7f556e6b6e6f776e207370656369657300000000000000000000000000000000005f82015250565b5f611240600f83610ced565b915061124b8261120c565b602082019050919050565b5f6020820190508181035f83015261126d81611234565b905091905056fe68747470733a2f2f676174657761792e70696e6174612e636c6f75642f697066732f6261667962656961336c65346173746b6e683270346d626b64357734326a353232746e73653477786b3777356d3777696d6f716470366f757a707968747470733a2f2f676174657761792e70696e6174612e636c6f75642f697066732f626166796265696576377075637a377968377836686169646d7068703569656f6276636664636c6e6c776a71613269767334793335377076776d6168747470733a2f2f676174657761792e70696e6174612e636c6f75642f697066732f62616679626569676f686f746f6b366b336f6e76746a797970666e626e7a6263736f327163697862777a34776836347670326e336c71376e6b7361a264697066735822122003f8ee2ea44c8e406c9c3f8a4e8ca40fcd1710d10f921bdca1446ede8068874364736f6c634300081e0033",
					"opcodes": "PUSH1 0x80 PUSH1 0x40 MSTORE CALLVALUE DUP1 ISZERO PUSH2 0xF JUMPI PUSH0 PUSH0 REVERT JUMPDEST POP PUSH1 0x40 MLOAD PUSH2 0x178D CODESIZE SUB DUP1 PUSH2 0x178D DUP4 CODECOPY DUP2 DUP2 ADD PUSH1 0x40 MSTORE DUP2 ADD SWAP1 PUSH2 0x31 SWAP2 SWAP1 PUSH2 0x367 JUMP JUMPDEST DUP1 PUSH0 PUSH0 PUSH2 0x100 EXP DUP2 SLOAD DUP2 PUSH20 0xFFFFFFFFFFFFFFFFFFFFFFFFFFFFFFFFFFFFFFFF MUL NOT AND SWAP1 DUP4 PUSH20 0xFFFFFFFFFFFFFFFFFFFFFFFFFFFFFFFFFFFFFFFF AND MUL OR SWAP1 SSTORE POP PUSH7 0xB1A2BC2EC50000 PUSH1 0x1 PUSH0 PUSH0 PUSH1 0xA DUP2 GT ISZERO PUSH2 0x8E JUMPI PUSH2 0x8D PUSH2 0x392 JUMP JUMPDEST JUMPDEST PUSH1 0xA DUP2 GT ISZERO PUSH2 0xA0 JUMPI PUSH2 0x9F PUSH2 0x392 JUMP JUMPDEST JUMPDEST DUP2 MSTORE PUSH1 0x20 ADD SWAP1 DUP2 MSTORE PUSH1 0x20 ADD PUSH0 KECCAK256 DUP2 SWAP1 SSTORE POP PUSH7 0xB1A2BC2EC50000 PUSH1 0x1 PUSH0 PUSH1 0x1 PUSH1 0xA DUP2 GT ISZERO PUSH2 0xD0 JUMPI PUSH2 0xCF PUSH2 0x392 JUMP JUMPDEST JUMPDEST PUSH1 0xA DUP2 GT ISZERO PUSH2 0xE2 JUMPI PUSH2 0xE1 PUSH2 0x392 JUMP JUMPDEST JUMPDEST DUP2 MSTORE PUSH1 0x20 ADD SWAP1 DUP2 MSTORE PUSH1 0x20 ADD PUSH0 KECCAK256 DUP2 SWAP1 SSTORE POP PUSH7 0x470DE4DF820000 PUSH1 0x1 PUSH0 PUSH1 0x2 PUSH1 0xA DUP2 GT ISZERO PUSH2 0x112 JUMPI PUSH2 0x111 PUSH2 0x392 JUMP JUMPDEST JUMPDEST PUSH1 0xA DUP2 GT ISZERO PUSH2 0x124 JUMPI PUSH2 0x123 PUSH2 0x392 JUMP JUMPDEST JUMPDEST DUP2 MSTORE PUSH1 0x20 ADD SWAP1 DUP2 MSTORE PUSH1 0x20 ADD PUSH0 KECCAK256 DUP2 SWAP1 SSTORE POP PUSH7 0x6A94D74F430000 PUSH1 0x1 PUSH0 PUSH1 0x3 PUSH1 0xA DUP2 GT ISZERO PUSH2 0x154 JUMPI PUSH2 0x153 PUSH2 0x392 JUMP JUMPDEST JUMPDEST PUSH1 0xA DUP2 GT ISZERO PUSH2 0x166 JUMPI PUSH2 0x165 PUSH2 0x392 JUMP JUMPDEST JUMPDEST DUP2 MSTORE PUSH1 0x20 ADD SWAP1 DUP2 MSTORE PUSH1 0x20 ADD PUSH0 KECCAK256 DUP2 SWAP1 SSTORE POP PUSH7 0x3FF2E795F50000 PUSH1 0x1 PUSH0 PUSH1 0x4 PUSH1 0xA DUP2 GT ISZERO PUSH2 0x196 JUMPI PUSH2 0x195 PUSH2 0x392 JUMP JUMPDEST JUMPDEST PUSH1 0xA DUP2 GT ISZERO PUSH2 0x1A8 JUMPI PUSH2 0x1A7 PUSH2 0x392 JUMP JUMPDEST JUMPDEST DUP2 MSTORE PUSH1 0x20 ADD SWAP1 DUP2 MSTORE PUSH1 0x20 ADD PUSH0 KECCAK256 DUP2 SWAP1 SSTORE POP PUSH7 0x2386F26FC10000 PUSH1 0x1 PUSH0 PUSH1 0x5 PUSH1 0xA DUP2 GT ISZERO PUSH2 0x1D8 JUMPI PUSH2 0x1D7 PUSH2 0x392 JUMP JUMPDEST JUMPDEST PUSH1 0xA DUP2 GT ISZERO PUSH2 0x1EA JUMPI PUSH2 0x1E9 PUSH2 0x392 JUMP JUMPDEST JUMPDEST DUP2 MSTORE PUSH1 0x20 ADD SWAP1 DUP2 MSTORE PUSH1 0x20 ADD PUSH0 KECCAK256 DUP2 SWAP1 SSTORE POP PUSH7 0x2386F26FC10000 PUSH1 0x1 PUSH0 PUSH1 0x6 PUSH1 0xA DUP2 GT ISZERO PUSH2 0x21A JUMPI PUSH2 0x219 PUSH2 0x392 JUMP JUMPDEST JUMPDEST PUSH1 0xA DUP2 GT ISZERO PUSH2 0x22C JUMPI PUSH2 0x22B PUSH2 0x392 JUMP JUMPDEST JUMPDEST DUP2 MSTORE PUSH1 0x20 ADD SWAP1 DUP2 MSTORE PUSH1 0x20 ADD PUSH0 KECCAK256 DUP2 SWAP1 SSTORE POP PUSH7 0x2AA1EFB94E0000 PUSH1 0x1 PUSH0 PUSH1 0x7 PUSH1 0xA DUP2 GT ISZERO PUSH2 0x25C JUMPI PUSH2 0x25B PUSH2 0x392 JUMP JUMPDEST JUMPDEST PUSH1 0xA DUP2 GT ISZERO PUSH2 0x26E JUMPI PUSH2 0x26D PUSH2 0x392 JUMP JUMPDEST JUMPDEST DUP2 MSTORE PUSH1 0x20 ADD SWAP1 DUP2 MSTORE PUSH1 0x20 ADD PUSH0 KECCAK256 DUP2 SWAP1 SSTORE POP PUSH7 0x8E1BC9BF040000 PUSH1 0x1 PUSH0 PUSH1 0x8 PUSH1 0xA DUP2 GT ISZERO PUSH2 0x29E JUMPI PUSH2 0x29D PUSH2 0x392 JUMP JUMPDEST JUMPDEST PUSH1 0xA DUP2 GT ISZERO PUSH2 0x2B0 JUMPI PUSH2 0x2AF PUSH2 0x392 JUMP JUMPDEST JUMPDEST DUP2 MSTORE PUSH1 0x20 ADD SWAP1 DUP2 MSTORE PUSH1 0x20 ADD PUSH0 KECCAK256 DUP2 SWAP1 SSTORE POP PUSH7 0x2386F26FC10000 PUSH1 0x1 PUSH0 PUSH1 0x9 PUSH1 0xA DUP2 GT ISZERO PUSH2 0x2E0 JUMPI PUSH2 0x2DF PUSH2 0x392 JUMP JUMPDEST JUMPDEST PUSH1 0xA DUP2 GT ISZERO PUSH2 0x2F2 JUMPI PUSH2 0x2F1 PUSH2 0x392 JUMP JUMPDEST JUMPDEST DUP2 MSTORE PUSH1 0x20 ADD SWAP1 DUP2 MSTORE PUSH1 0x20 ADD PUSH0 KECCAK256 DUP2 SWAP1 SSTORE POP POP PUSH2 0x3BF JUMP JUMPDEST PUSH0 PUSH0 REVERT JUMPDEST PUSH0 PUSH20 0xFFFFFFFFFFFFFFFFFFFFFFFFFFFFFFFFFFFFFFFF DUP3 AND SWAP1 POP SWAP2 SWAP1 POP JUMP JUMPDEST PUSH0 PUSH2 0x336 DUP3 PUSH2 0x30D JUMP JUMPDEST SWAP1 POP SWAP2 SWAP1 POP JUMP JUMPDEST PUSH2 0x346 DUP2 PUSH2 0x32C JUMP JUMPDEST DUP2 EQ PUSH2 0x350 JUMPI PUSH0 PUSH0 REVERT JUMPDEST POP JUMP JUMPDEST PUSH0 DUP2 MLOAD SWAP1 POP PUSH2 0x361 DUP2 PUSH2 0x33D JUMP JUMPDEST SWAP3 SWAP2 POP POP JUMP JUMPDEST PUSH0 PUSH1 0x20 DUP3 DUP5 SUB SLT ISZERO PUSH2 0x37C JUMPI PUSH2 0x37B PUSH2 0x309 JUMP JUMPDEST JUMPDEST PUSH0 PUSH2 0x389 DUP5 DUP3 DUP6 ADD PUSH2 0x353 JUMP JUMPDEST SWAP2 POP POP SWAP3 SWAP2 POP POP JUMP JUMPDEST PUSH32 0x4E487B7100000000000000000000000000000000000000000000000000000000 PUSH0 MSTORE PUSH1 0x21 PUSH1 0x4 MSTORE PUSH1 0x24 PUSH0 REVERT JUMPDEST PUSH2 0x13C1 DUP1 PUSH2 0x3CC PUSH0 CODECOPY PUSH0 RETURN INVALID PUSH1 0x80 PUSH1 0x40 MSTORE PUSH1 0x4 CALLDATASIZE LT PUSH2 0x54 JUMPI PUSH0 CALLDATALOAD PUSH1 0xE0 SHR DUP1 PUSH4 0x4A7388A3 EQ PUSH2 0x58 JUMPI DUP1 PUSH4 0x5361E1D2 EQ PUSH2 0x94 JUMPI DUP1 PUSH4 0x9AEB133F EQ PUSH2 0xBE JUMPI DUP1 PUSH4 0xA86A658C EQ PUSH2 0xDA JUMPI DUP1 PUSH4 0xBFF998F4 EQ PUSH2 0xF6 JUMPI DUP1 PUSH4 0xEB96EFA7 EQ PUSH2 0x112 JUMPI JUMPDEST PUSH0 PUSH0 REVERT JUMPDEST CALLVALUE DUP1 ISZERO PUSH2 0x63 JUMPI PUSH0 PUSH0 REVERT JUMPDEST POP PUSH2 0x7E PUSH1 0x4 DUP1 CALLDATASIZE SUB DUP2 ADD SWAP1 PUSH2 0x79 SWAP2 SWAP1 PUSH2 0xB7C JUMP JUMPDEST PUSH2 0x11C JUMP JUMPDEST PUSH1 0x40 MLOAD PUSH2 0x8B SWAP2 SWAP1 PUSH2 0xBBF JUMP JUMPDEST PUSH1 0x40 MLOAD DUP1 SWAP2 SUB SWAP1 RETURN JUMPDEST CALLVALUE DUP1 ISZERO PUSH2 0x9F JUMPI PUSH0 PUSH0 REVERT JUMPDEST POP PUSH2 0xA8 PUSH2 0x131 JUMP JUMPDEST PUSH1 0x40 MLOAD PUSH2 0xB5 SWAP2 SWAP1 PUSH2 0xC52 JUMP JUMPDEST PUSH1 0x40 MLOAD DUP1 SWAP2 SUB SWAP1 RETURN JUMPDEST PUSH2 0xD8 PUSH1 0x4 DUP1 CALLDATASIZE SUB DUP2 ADD SWAP1 PUSH2 0xD3 SWAP2 SWAP1 PUSH2 0xB7C JUMP JUMPDEST PUSH2 0x155 JUMP JUMPDEST STOP JUMPDEST PUSH2 0xF4 PUSH1 0x4 DUP1 CALLDATASIZE SUB DUP2 ADD SWAP1 PUSH2 0xEF SWAP2 SWAP1 PUSH2 0xC95 JUMP JUMPDEST PUSH2 0x355 JUMP JUMPDEST STOP JUMPDEST PUSH2 0x110 PUSH1 0x4 DUP1 CALLDATASIZE SUB DUP2 ADD SWAP1 PUSH2 0x10B SWAP2 SWAP1 PUSH2 0xC95 JUMP JUMPDEST PUSH2 0x428 JUMP JUMPDEST STOP JUMPDEST PUSH2 0x11A PUSH2 0x52B JUMP JUMPDEST STOP JUMPDEST PUSH1 0x1 PUSH1 0x20 MSTORE DUP1 PUSH0 MSTORE PUSH1 0x40 PUSH0 KECCAK256 PUSH0 SWAP2 POP SWAP1 POP SLOAD DUP2 JUMP JUMPDEST PUSH0 PUSH0 SWAP1 SLOAD SWAP1 PUSH2 0x100 EXP SWAP1 DIV PUSH20 0xFFFFFFFFFFFFFFFFFFFFFFFFFFFFFFFFFFFFFFFF AND DUP2 JUMP JUMPDEST PUSH0 PUSH1 0x1 PUSH0 DUP4 PUSH1 0xA DUP2 GT ISZERO PUSH2 0x16C JUMPI PUSH2 0x16B PUSH2 0xCC0 JUMP JUMPDEST JUMPDEST PUSH1 0xA DUP2 GT ISZERO PUSH2 0x17E JUMPI PUSH2 0x17D PUSH2 0xCC0 JUMP JUMPDEST JUMPDEST DUP2 MSTORE PUSH1 0x20 ADD SWAP1 DUP2 MSTORE PUSH1 0x20 ADD PUSH0 KECCAK256 SLOAD SWAP1 POP DUP1 CALLVALUE LT ISZERO PUSH2 0x1D1 JUMPI PUSH1 0x40 MLOAD PUSH32 0x8C379A000000000000000000000000000000000000000000000000000000000 DUP2 MSTORE PUSH1 0x4 ADD PUSH2 0x1C8 SWAP1 PUSH2 0xD6D JUMP JUMPDEST PUSH1 0x40 MLOAD DUP1 SWAP2 SUB SWAP1 REVERT JUMPDEST PUSH0 PUSH2 0x3E8 TIMESTAMP CALLER PUSH1 0x40 MLOAD PUSH1 0x20 ADD PUSH2 0x1E8 SWAP3 SWAP2 SWAP1 PUSH2 0xE01 JUMP JUMPDEST PUSH1 0x40 MLOAD PUSH1 0x20 DUP2 DUP4 SUB SUB DUP2 MSTORE SWAP1 PUSH1 0x40 MSTORE DUP1 MLOAD SWAP1 PUSH1 0x20 ADD KECCAK256 PUSH0 SHR PUSH2 0x20A SWAP2 SWAP1 PUSH2 0xE59 JUMP JUMPDEST SWAP1 POP PUSH1 0xA DUP2 LT ISZERO PUSH2 0x2B5 JUMPI PUSH0 PUSH0 SWAP1 SLOAD SWAP1 PUSH2 0x100 EXP SWAP1 DIV PUSH20 0xFFFFFFFFFFFFFFFFFFFFFFFFFFFFFFFFFFFFFFFF AND PUSH20 0xFFFFFFFFFFFFFFFFFFFFFFFFFFFFFFFFFFFFFFFF AND PUSH4 0x4D2D7881 PUSH1 0xA PUSH1 0x40 MLOAD DUP3 PUSH4 0xFFFFFFFF AND PUSH1 0xE0 SHL DUP2 MSTORE PUSH1 0x4 ADD PUSH2 0x26F SWAP2 SWAP1 PUSH2 0xECF JUMP JUMPDEST PUSH1 0x20 PUSH1 0x40 MLOAD DUP1 DUP4 SUB DUP2 PUSH0 DUP8 GAS CALL ISZERO DUP1 ISZERO PUSH2 0x28B JUMPI RETURNDATASIZE PUSH0 PUSH0 RETURNDATACOPY RETURNDATASIZE PUSH0 REVERT JUMPDEST POP POP POP POP PUSH1 0x40 MLOAD RETURNDATASIZE PUSH1 0x1F NOT PUSH1 0x1F DUP3 ADD AND DUP3 ADD DUP1 PUSH1 0x40 MSTORE POP DUP2 ADD SWAP1 PUSH2 0x2AF SWAP2 SWAP1 PUSH2 0xF1B JUMP JUMPDEST POP PUSH2 0x350 JUMP JUMPDEST PUSH0 PUSH0 SWAP1 SLOAD SWAP1 PUSH2 0x100 EXP SWAP1 DIV PUSH20 0xFFFFFFFFFFFFFFFFFFFFFFFFFFFFFFFFFFFFFFFF AND PUSH20 0xFFFFFFFFFFFFFFFFFFFFFFFFFFFFFFFFFFFFFFFF AND PUSH4 0x4D2D7881 DUP5 PUSH1 0x40 MLOAD DUP3 PUSH4 0xFFFFFFFF AND PUSH1 0xE0 SHL DUP2 MSTORE PUSH1 0x4 ADD PUSH2 0x30E SWAP2 SWAP1 PUSH2 0xECF JUMP JUMPDEST PUSH1 0x20 PUSH1 0x40 MLOAD DUP1 DUP4 SUB DUP2 PUSH0 DUP8 GAS CALL ISZERO DUP1 ISZERO PUSH2 0x32A JUMPI RETURNDATASIZE PUSH0 PUSH0 RETURNDATACOPY RETURNDATASIZE PUSH0 REVERT JUMPDEST POP POP POP POP PUSH1 0x40 MLOAD RETURNDATASIZE PUSH1 0x1F NOT PUSH1 0x1F DUP3 ADD AND DUP3 ADD DUP1 PUSH1 0x40 MSTORE POP DUP2 ADD SWAP1 PUSH2 0x34E SWAP2 SWAP1 PUSH2 0xF1B JUMP JUMPDEST POP JUMPDEST POP POP POP JUMP JUMPDEST PUSH7 0x470DE4DF820000 CALLVALUE LT ISZERO PUSH2 0x39F JUMPI PUSH1 0x40 MLOAD PUSH32 0x8C379A000000000000000000000000000000000000000000000000000000000 DUP2 MSTORE PUSH1 0x4 ADD PUSH2 0x396 SWAP1 PUSH2 0xF90 JUMP JUMPDEST PUSH1 0x40 MLOAD DUP1 SWAP2 SUB SWAP1 REVERT JUMPDEST PUSH0 PUSH0 SWAP1 SLOAD SWAP1 PUSH2 0x100 EXP SWAP1 DIV PUSH20 0xFFFFFFFFFFFFFFFFFFFFFFFFFFFFFFFFFFFFFFFF AND PUSH20 0xFFFFFFFFFFFFFFFFFFFFFFFFFFFFFFFFFFFFFFFF AND PUSH4 0x49B1A0BF DUP3 PUSH1 0x40 MLOAD DUP3 PUSH4 0xFFFFFFFF AND PUSH1 0xE0 SHL DUP2 MSTORE PUSH1 0x4 ADD PUSH2 0x3F8 SWAP2 SWAP1 PUSH2 0xBBF JUMP JUMPDEST PUSH0 PUSH1 0x40 MLOAD DUP1 DUP4 SUB DUP2 PUSH0 DUP8 DUP1 EXTCODESIZE ISZERO DUP1 ISZERO PUSH2 0x40F JUMPI PUSH0 PUSH0 REVERT JUMPDEST POP GAS CALL ISZERO DUP1 ISZERO PUSH2 0x421 JUMPI RETURNDATASIZE PUSH0 PUSH0 RETURNDATACOPY RETURNDATASIZE PUSH0 REVERT JUMPDEST POP POP POP POP POP JUMP JUMPDEST PUSH7 0x11C37937E08000 CALLVALUE LT ISZERO PUSH2 0x472 JUMPI PUSH1 0x40 MLOAD PUSH32 0x8C379A000000000000000000000000000000000000000000000000000000000 DUP2 MSTORE PUSH1 0x4 ADD PUSH2 0x469 SWAP1 PUSH2 0xFF8 JUMP JUMPDEST PUSH1 0x40 MLOAD DUP1 SWAP2 SUB SWAP1 REVERT JUMPDEST PUSH0 PUSH0 PUSH0 SWAP1 SLOAD SWAP1 PUSH2 0x100 EXP SWAP1 DIV PUSH20 0xFFFFFFFFFFFFFFFFFFFFFFFFFFFFFFFFFFFFFFFF AND PUSH20 0xFFFFFFFFFFFFFFFFFFFFFFFFFFFFFFFFFFFFFFFF AND PUSH4 0x6EC88BBD DUP4 PUSH1 0x40 MLOAD DUP3 PUSH4 0xFFFFFFFF AND PUSH1 0xE0 SHL DUP2 MSTORE PUSH1 0x4 ADD PUSH2 0x4CC SWAP2 SWAP1 PUSH2 0xBBF JUMP JUMPDEST PUSH1 0xA0 PUSH1 0x40 MLOAD DUP1 DUP4 SUB DUP2 PUSH0 DUP8 GAS CALL ISZERO DUP1 ISZERO PUSH2 0x4E8 JUMPI RETURNDATASIZE PUSH0 PUSH0 RETURNDATACOPY RETURNDATASIZE PUSH0 REVERT JUMPDEST POP POP POP POP PUSH1 0x40 MLOAD RETURNDATASIZE PUSH1 0x1F NOT PUSH1 0x1F DUP3 ADD AND DUP3 ADD DUP1 PUSH1 0x40 MSTORE POP DUP2 ADD SWAP1 PUSH2 0x50C SWAP2 SWAP1 PUSH2 0x1153 JUMP JUMPDEST SWAP1 POP PUSH2 0x51B DUP2 PUSH1 0x60 ADD MLOAD PUSH2 0x618 JUMP JUMPDEST PUSH0 ADD MLOAD DUP2 PUSH1 0x40 ADD DUP2 DUP2 MSTORE POP POP POP POP JUMP JUMPDEST PUSH0 PUSH8 0x2C68AF0BB140000 SWAP1 POP DUP1 CALLVALUE LT ISZERO PUSH2 0x57A JUMPI PUSH1 0x40 MLOAD PUSH32 0x8C379A000000000000000000000000000000000000000000000000000000000 DUP2 MSTORE PUSH1 0x4 ADD PUSH2 0x571 SWAP1 PUSH2 0x11EE JUMP JUMPDEST PUSH1 0x40 MLOAD DUP1 SWAP2 SUB SWAP1 REVERT JUMPDEST PUSH0 PUSH0 SWAP1 SLOAD SWAP1 PUSH2 0x100 EXP SWAP1 DIV PUSH20 0xFFFFFFFFFFFFFFFFFFFFFFFFFFFFFFFFFFFFFFFF AND PUSH20 0xFFFFFFFFFFFFFFFFFFFFFFFFFFFFFFFFFFFFFFFF AND PUSH4 0x4D2D7881 PUSH1 0xA PUSH1 0x40 MLOAD DUP3 PUSH4 0xFFFFFFFF AND PUSH1 0xE0 SHL DUP2 MSTORE PUSH1 0x4 ADD PUSH2 0x5D4 SWAP2 SWAP1 PUSH2 0xECF JUMP JUMPDEST PUSH1 0x20 PUSH1 0x40 MLOAD DUP1 DUP4 SUB DUP2 PUSH0 DUP8 GAS CALL ISZERO DUP1 ISZERO PUSH2 0x5F0 JUMPI RETURNDATASIZE PUSH0 PUSH0 RETURNDATACOPY RETURNDATASIZE PUSH0 REVERT JUMPDEST POP POP POP POP PUSH1 0x40 MLOAD RETURNDATASIZE PUSH1 0x1F NOT PUSH1 0x1F DUP3 ADD AND DUP3 ADD DUP1 PUSH1 0x40 MSTORE POP DUP2 ADD SWAP1 PUSH2 0x614 SWAP2 SWAP1 PUSH2 0xF1B JUMP JUMPDEST POP POP JUMP JUMPDEST PUSH2 0x620 PUSH2 0xB21 JUMP JUMPDEST PUSH0 PUSH1 0xA DUP2 GT ISZERO PUSH2 0x633 JUMPI PUSH2 0x632 PUSH2 0xCC0 JUMP JUMPDEST JUMPDEST DUP3 PUSH1 0xA DUP2 GT ISZERO PUSH2 0x646 JUMPI PUSH2 0x645 PUSH2 0xCC0 JUMP JUMPDEST JUMPDEST SUB PUSH2 0x695 JUMPI PUSH1 0x40 MLOAD DUP1 PUSH1 0xA0 ADD PUSH1 0x40 MSTORE DUP1 PUSH1 0xC8 DUP2 MSTORE PUSH1 0x20 ADD PUSH1 0x96 DUP2 MSTORE PUSH1 0x20 ADD PUSH1 0x3 DUP2 MSTORE PUSH1 0x20 ADD PUSH1 0x1 DUP2 MSTORE PUSH1 0x20 ADD PUSH1 0x40 MLOAD DUP1 PUSH1 0x80 ADD PUSH1 0x40 MSTORE DUP1 PUSH1 0x5D DUP2 MSTORE PUSH1 0x20 ADD PUSH2 0x1275 PUSH1 0x5D SWAP2 CODECOPY DUP2 MSTORE POP SWAP1 POP PUSH2 0xB1C JUMP JUMPDEST PUSH1 0x1 PUSH1 0xA DUP2 GT ISZERO PUSH2 0x6A9 JUMPI PUSH2 0x6A8 PUSH2 0xCC0 JUMP JUMPDEST JUMPDEST DUP3 PUSH1 0xA DUP2 GT ISZERO PUSH2 0x6BC JUMPI PUSH2 0x6BB PUSH2 0xCC0 JUMP JUMPDEST JUMPDEST SUB PUSH2 0x70B JUMPI PUSH1 0x40 MLOAD DUP1 PUSH1 0xA0 ADD PUSH1 0x40 MSTORE DUP1 PUSH1 0xDC DUP2 MSTORE PUSH1 0x20 ADD PUSH1 0xC8 DUP2 MSTORE PUSH1 0x20 ADD PUSH1 0x2 DUP2 MSTORE PUSH1 0x20 ADD PUSH1 0x5 DUP2 MSTORE PUSH1 0x20 ADD PUSH1 0x40 MLOAD DUP1 PUSH1 0x80 ADD PUSH1 0x40 MSTORE DUP1 PUSH1 0x5D DUP2 MSTORE PUSH1 0x20 ADD PUSH2 0x132F PUSH1 0x5D SWAP2 CODECOPY DUP2 MSTORE POP SWAP1 POP PUSH2 0xB1C JUMP JUMPDEST PUSH1 0x2 PUSH1 0xA DUP2 GT ISZERO PUSH2 0x71F JUMPI PUSH2 0x71E PUSH2 0xCC0 JUMP JUMPDEST JUMPDEST DUP3 PUSH1 0xA DUP2 GT ISZERO PUSH2 0x732 JUMPI PUSH2 0x731 PUSH2 0xCC0 JUMP JUMPDEST JUMPDEST SUB PUSH2 0x781 JUMPI PUSH1 0x40 MLOAD DUP1 PUSH1 0xA0 ADD PUSH1 0x40 MSTORE DUP1 PUSH1 0x50 DUP2 MSTORE PUSH1 0x20 ADD PUSH1 0x50 DUP2 MSTORE PUSH1 0x20 ADD PUSH1 0x3 DUP2 MSTORE PUSH1 0x20 ADD PUSH1 0x6 DUP2 MSTORE PUSH1 0x20 ADD PUSH1 0x40 MLOAD DUP1 PUSH1 0x80 ADD PUSH1 0x40 MSTORE DUP1 PUSH1 0x5D DUP2 MSTORE PUSH1 0x20 ADD PUSH2 0x12D2 PUSH1 0x5D SWAP2 CODECOPY DUP2 MSTORE POP SWAP1 POP PUSH2 0xB1C JUMP JUMPDEST PUSH1 0xA DUP1 DUP2 GT ISZERO PUSH2 0x794 JUMPI PUSH2 0x793 PUSH2 0xCC0 JUMP JUMPDEST JUMPDEST DUP3 PUSH1 0xA DUP2 GT ISZERO PUSH2 0x7A7 JUMPI PUSH2 0x7A6 PUSH2 0xCC0 JUMP JUMPDEST JUMPDEST SUB PUSH2 0x7ED JUMPI PUSH1 0x40 MLOAD DUP1 PUSH1 0xA0 ADD PUSH1 0x40 MSTORE DUP1 PUSH2 0x12C DUP2 MSTORE PUSH1 0x20 ADD PUSH2 0x12C DUP2 MSTORE PUSH1 0x20 ADD PUSH1 0x1 DUP2 MSTORE PUSH1 0x20 ADD PUSH0 DUP2 MSTORE PUSH1 0x20 ADD PUSH1 0x40 MLOAD DUP1 PUSH1 0x20 ADD PUSH1 0x40 MSTORE DUP1 PUSH0 DUP2 MSTORE POP DUP2 MSTORE POP SWAP1 POP PUSH2 0xB1C JUMP JUMPDEST PUSH1 0x3 PUSH1 0xA DUP2 GT ISZERO PUSH2 0x801 JUMPI PUSH2 0x800 PUSH2 0xCC0 JUMP JUMPDEST JUMPDEST DUP3 PUSH1 0xA DUP2 GT ISZERO PUSH2 0x814 JUMPI PUSH2 0x813 PUSH2 0xCC0 JUMP JUMPDEST JUMPDEST SUB PUSH2 0x859 JUMPI PUSH1 0x40 MLOAD DUP1 PUSH1 0xA0 ADD PUSH1 0x40 MSTORE DUP1 PUSH1 0xB4 DUP2 MSTORE PUSH1 0x20 ADD PUSH1 0x5A DUP2 MSTORE PUSH1 0x20 ADD PUSH1 0x2 DUP2 MSTORE PUSH1 0x20 ADD PUSH1 0x4 DUP2 MSTORE PUSH1 0x20 ADD PUSH1 0x40 MLOAD DUP1 PUSH1 0x20 ADD PUSH1 0x40 MSTORE DUP1 PUSH0 DUP2 MSTORE POP DUP2 MSTORE POP SWAP1 POP PUSH2 0xB1C JUMP JUMPDEST PUSH1 0x4 PUSH1 0xA DUP2 GT ISZERO PUSH2 0x86D JUMPI PUSH2 0x86C PUSH2 0xCC0 JUMP JUMPDEST JUMPDEST DUP3 PUSH1 0xA DUP2 GT ISZERO PUSH2 0x880 JUMPI PUSH2 0x87F PUSH2 0xCC0 JUMP JUMPDEST JUMPDEST SUB PUSH2 0x8C5 JUMPI PUSH1 0x40 MLOAD DUP1 PUSH1 0xA0 ADD PUSH1 0x40 MSTORE DUP1 PUSH1 0x50 DUP2 MSTORE PUSH1 0x20 ADD PUSH1 0x46 DUP2 MSTORE PUSH1 0x20 ADD PUSH1 0x2 DUP2 MSTORE PUSH1 0x20 ADD PUSH1 0x8 DUP2 MSTORE PUSH1 0x20 ADD PUSH1 0x40 MLOAD DUP1 PUSH1 0x20 ADD PUSH1 0x40 MSTORE DUP1 PUSH0 DUP2 MSTORE POP DUP2 MSTORE POP SWAP1 POP PUSH2 0xB1C JUMP JUMPDEST PUSH1 0x5 PUSH1 0xA DUP2 GT ISZERO PUSH2 0x8D9 JUMPI PUSH2 0x8D8 PUSH2 0xCC0 JUMP JUMPDEST JUMPDEST DUP3 PUSH1 0xA DUP2 GT ISZERO PUSH2 0x8EC JUMPI PUSH2 0x8EB PUSH2 0xCC0 JUMP JUMPDEST JUMPDEST SUB PUSH2 0x931 JUMPI PUSH1 0x40 MLOAD DUP1 PUSH1 0xA0 ADD PUSH1 0x40 MSTORE DUP1 PUSH1 0x32 DUP2 MSTORE PUSH1 0x20 ADD PUSH1 0x3C DUP2 MSTORE PUSH1 0x20 ADD PUSH1 0x4 DUP2 MSTORE PUSH1 0x20 ADD PUSH1 0x5 DUP2 MSTORE PUSH1 0x20 ADD PUSH1 0x40 MLOAD DUP1 PUSH1 0x20 ADD PUSH1 0x40 MSTORE DUP1 PUSH0 DUP2 MSTORE POP DUP2 MSTORE POP SWAP1 POP PUSH2 0xB1C JUMP JUMPDEST PUSH1 0x6 PUSH1 0xA DUP2 GT ISZERO PUSH2 0x945 JUMPI PUSH2 0x944 PUSH2 0xCC0 JUMP JUMPDEST JUMPDEST DUP3 PUSH1 0xA DUP2 GT ISZERO PUSH2 0x958 JUMPI PUSH2 0x957 PUSH2 0xCC0 JUMP JUMPDEST JUMPDEST SUB PUSH2 0x99D JUMPI PUSH1 0x40 MLOAD DUP1 PUSH1 0xA0 ADD PUSH1 0x40 MSTORE DUP1 PUSH1 0x37 DUP2 MSTORE PUSH1 0x20 ADD PUSH1 0x28 DUP2 MSTORE PUSH1 0x20 ADD PUSH1 0x3 DUP2 MSTORE PUSH1 0x20 ADD PUSH1 0x4 DUP2 MSTORE PUSH1 0x20 ADD PUSH1 0x40 MLOAD DUP1 PUSH1 0x20 ADD PUSH1 0x40 MSTORE DUP1 PUSH0 DUP2 MSTORE POP DUP2 MSTORE POP SWAP1 POP PUSH2 0xB1C JUMP JUMPDEST PUSH1 0x7 PUSH1 0xA DUP2 GT ISZERO PUSH2 0x9B1 JUMPI PUSH2 0x9B0 PUSH2 0xCC0 JUMP JUMPDEST JUMPDEST DUP3 PUSH1 0xA DUP2 GT ISZERO PUSH2 0x9C4 JUMPI PUSH2 0x9C3 PUSH2 0xCC0 JUMP JUMPDEST JUMPDEST SUB PUSH2 0xA09 JUMPI PUSH1 0x40 MLOAD DUP1 PUSH1 0xA0 ADD PUSH1 0x40 MSTORE DUP1 PUSH1 0x4E DUP2 MSTORE PUSH1 0x20 ADD PUSH1 0x41 DUP2 MSTORE PUSH1 0x20 ADD PUSH1 0x2 DUP2 MSTORE PUSH1 0x20 ADD PUSH1 0x4 DUP2 MSTORE PUSH1 0x20 ADD PUSH1 0x40 MLOAD DUP1 PUSH1 0x20 ADD PUSH1 0x40 MSTORE DUP1 PUSH0 DUP2 MSTORE POP DUP2 MSTORE POP SWAP1 POP PUSH2 0xB1C JUMP JUMPDEST PUSH1 0x8 PUSH1 0xA DUP2 GT ISZERO PUSH2 0xA1D JUMPI PUSH2 0xA1C PUSH2 0xCC0 JUMP JUMPDEST JUMPDEST DUP3 PUSH1 0xA DUP2 GT ISZERO PUSH2 0xA30 JUMPI PUSH2 0xA2F PUSH2 0xCC0 JUMP JUMPDEST JUMPDEST SUB PUSH2 0xA75 JUMPI PUSH1 0x40 MLOAD DUP1 PUSH1 0xA0 ADD PUSH1 0x40 MSTORE DUP1 PUSH1 0x96 DUP2 MSTORE PUSH1 0x20 ADD PUSH1 0x64 DUP2 MSTORE PUSH1 0x20 ADD PUSH1 0x4 DUP2 MSTORE PUSH1 0x20 ADD PUSH1 0x3 DUP2 MSTORE PUSH1 0x20 ADD PUSH1 0x40 MLOAD DUP1 PUSH1 0x20 ADD PUSH1 0x40 MSTORE DUP1 PUSH0 DUP2 MSTORE POP DUP2 MSTORE POP SWAP1 POP PUSH2 0xB1C JUMP JUMPDEST PUSH1 0x9 PUSH1 0xA DUP2 GT ISZERO PUSH2 0xA89 JUMPI PUSH2 0xA88 PUSH2 0xCC0 JUMP JUMPDEST JUMPDEST DUP3 PUSH1 0xA DUP2 GT ISZERO PUSH2 0xA9C JUMPI PUSH2 0xA9B PUSH2 0xCC0 JUMP JUMPDEST JUMPDEST SUB PUSH2 0xAE1 JUMPI PUSH1 0x40 MLOAD DUP1 PUSH1 0xA0 ADD PUSH1 0x40 MSTORE DUP1 PUSH1 0x23 DUP2 MSTORE PUSH1 0x20 ADD PUSH1 0x42 DUP2 MSTORE PUSH1 0x20 ADD PUSH1 0x4 DUP2 MSTORE PUSH1 0x20 ADD PUSH1 0x5 DUP2 MSTORE PUSH1 0x20 ADD PUSH1 0x40 MLOAD DUP1 PUSH1 0x20 ADD PUSH1 0x40 MSTORE DUP1 PUSH0 DUP2 MSTORE POP DUP2 MSTORE POP SWAP1 POP PUSH2 0xB1C JUMP JUMPDEST PUSH1 0x40 MLOAD PUSH32 0x8C379A000000000000000000000000000000000000000000000000000000000 DUP2 MSTORE PUSH1 0x4 ADD PUSH2 0xB13 SWAP1 PUSH2 0x1256 JUMP JUMPDEST PUSH1 0x40 MLOAD DUP1 SWAP2 SUB SWAP1 REVERT JUMPDEST SWAP2 SWAP1 POP JUMP JUMPDEST PUSH1 0x40 MLOAD DUP1 PUSH1 0xA0 ADD PUSH1 0x40 MSTORE DUP1 PUSH0 DUP2 MSTORE PUSH1 0x20 ADD PUSH0 DUP2 MSTORE PUSH1 0x20 ADD PUSH0 DUP2 MSTORE PUSH1 0x20 ADD PUSH0 DUP2 MSTORE PUSH1 0x20 ADD PUSH1 0x60 DUP2 MSTORE POP SWAP1 JUMP JUMPDEST PUSH0 PUSH1 0x40 MLOAD SWAP1 POP SWAP1 JUMP JUMPDEST PUSH0 PUSH0 REVERT JUMPDEST PUSH1 0xB DUP2 LT PUSH2 0xB65 JUMPI PUSH0 PUSH0 REVERT JUMPDEST POP JUMP JUMPDEST PUSH0 DUP2 CALLDATALOAD SWAP1 POP PUSH2 0xB76 DUP2 PUSH2 0xB59 JUMP JUMPDEST SWAP3 SWAP2 POP POP JUMP JUMPDEST PUSH0 PUSH1 0x20 DUP3 DUP5 SUB SLT ISZERO PUSH2 0xB91 JUMPI PUSH2 0xB90 PUSH2 0xB55 JUMP JUMPDEST JUMPDEST PUSH0 PUSH2 0xB9E DUP5 DUP3 DUP6 ADD PUSH2 0xB68 JUMP JUMPDEST SWAP2 POP POP SWAP3 SWAP2 POP POP JUMP JUMPDEST PUSH0 DUP2 SWAP1 POP SWAP2 SWAP1 POP JUMP JUMPDEST PUSH2 0xBB9 DUP2 PUSH2 0xBA7 JUMP JUMPDEST DUP3 MSTORE POP POP JUMP JUMPDEST PUSH0 PUSH1 0x20 DUP3 ADD SWAP1 POP PUSH2 0xBD2 PUSH0 DUP4 ADD DUP5 PUSH2 0xBB0 JUMP JUMPDEST SWAP3 SWAP2 POP POP JUMP JUMPDEST PUSH0 PUSH20 0xFFFFFFFFFFFFFFFFFFFFFFFFFFFFFFFFFFFFFFFF DUP3 AND SWAP1 POP SWAP2 SWAP1 POP JUMP JUMPDEST PUSH0 DUP2 SWAP1 POP SWAP2 SWAP1 POP JUMP JUMPDEST PUSH0 PUSH2 0xC1A PUSH2 0xC15 PUSH2 0xC10 DUP5 PUSH2 0xBD8 JUMP JUMPDEST PUSH2 0xBF7 JUMP JUMPDEST PUSH2 0xBD8 JUMP JUMPDEST SWAP1 POP SWAP2 SWAP1 POP JUMP JUMPDEST PUSH0 PUSH2 0xC2B DUP3 PUSH2 0xC00 JUMP JUMPDEST SWAP1 POP SWAP2 SWAP1 POP JUMP JUMPDEST PUSH0 PUSH2 0xC3C DUP3 PUSH2 0xC21 JUMP JUMPDEST SWAP1 POP SWAP2 SWAP1 POP JUMP JUMPDEST PUSH2 0xC4C DUP2 PUSH2 0xC32 JUMP JUMPDEST DUP3 MSTORE POP POP JUMP JUMPDEST PUSH0 PUSH1 0x20 DUP3 ADD SWAP1 POP PUSH2 0xC65 PUSH0 DUP4 ADD DUP5 PUSH2 0xC43 JUMP JUMPDEST SWAP3 SWAP2 POP POP JUMP JUMPDEST PUSH2 0xC74 DUP2 PUSH2 0xBA7 JUMP JUMPDEST DUP2 EQ PUSH2 0xC7E JUMPI PUSH0 PUSH0 REVERT JUMPDEST POP JUMP JUMPDEST PUSH0 DUP2 CALLDATALOAD SWAP1 POP PUSH2 0xC8F DUP2 PUSH2 0xC6B JUMP JUMPDEST SWAP3 SWAP2 POP POP JUMP JUMPDEST PUSH0 PUSH1 0x20 DUP3 DUP5 SUB SLT ISZERO PUSH2 0xCAA JUMPI PUSH2 0xCA9 PUSH2 0xB55 JUMP JUMPDEST JUMPDEST PUSH0 PUSH2 0xCB7 DUP5 DUP3 DUP6 ADD PUSH2 0xC81 JUMP JUMPDEST SWAP2 POP POP SWAP3 SWAP2 POP POP JUMP JUMPDEST PUSH32 0x4E487B7100000000000000000000000000000000000000000000000000000000 PUSH0 MSTORE PUSH1 0x21 PUSH1 0x4 MSTORE PUSH1 0x24 PUSH0 REVERT JUMPDEST PUSH0 DUP3 DUP3 MSTORE PUSH1 0x20 DUP3 ADD SWAP1 POP SWAP3 SWAP2 POP POP JUMP JUMPDEST PUSH32 0x4E6F7420656E6F7567682045544820746F206D696E7420746869732073706563 PUSH0 DUP3 ADD MSTORE PUSH32 0x6965730000000000000000000000000000000000000000000000000000000000 PUSH1 0x20 DUP3 ADD MSTORE POP JUMP JUMPDEST PUSH0 PUSH2 0xD57 PUSH1 0x23 DUP4 PUSH2 0xCED JUMP JUMPDEST SWAP2 POP PUSH2 0xD62 DUP3 PUSH2 0xCFD JUMP JUMPDEST PUSH1 0x40 DUP3 ADD SWAP1 POP SWAP2 SWAP1 POP JUMP JUMPDEST PUSH0 PUSH1 0x20 DUP3 ADD SWAP1 POP DUP2 DUP2 SUB PUSH0 DUP4 ADD MSTORE PUSH2 0xD84 DUP2 PUSH2 0xD4B JUMP JUMPDEST SWAP1 POP SWAP2 SWAP1 POP JUMP JUMPDEST PUSH0 DUP2 SWAP1 POP SWAP2 SWAP1 POP JUMP JUMPDEST PUSH2 0xDA5 PUSH2 0xDA0 DUP3 PUSH2 0xBA7 JUMP JUMPDEST PUSH2 0xD8B JUMP JUMPDEST DUP3 MSTORE POP POP JUMP JUMPDEST PUSH0 PUSH2 0xDB5 DUP3 PUSH2 0xBD8 JUMP JUMPDEST SWAP1 POP SWAP2 SWAP1 POP JUMP JUMPDEST PUSH0 DUP2 PUSH1 0x60 SHL SWAP1 POP SWAP2 SWAP1 POP JUMP JUMPDEST PUSH0 PUSH2 0xDD2 DUP3 PUSH2 0xDBC JUMP JUMPDEST SWAP1 POP SWAP2 SWAP1 POP JUMP JUMPDEST PUSH0 PUSH2 0xDE3 DUP3 PUSH2 0xDC8 JUMP JUMPDEST SWAP1 POP SWAP2 SWAP1 POP JUMP JUMPDEST PUSH2 0xDFB PUSH2 0xDF6 DUP3 PUSH2 0xDAB JUMP JUMPDEST PUSH2 0xDD9 JUMP JUMPDEST DUP3 MSTORE POP POP JUMP JUMPDEST PUSH0 PUSH2 0xE0C DUP3 DUP6 PUSH2 0xD94 JUMP JUMPDEST PUSH1 0x20 DUP3 ADD SWAP2 POP PUSH2 0xE1C DUP3 DUP5 PUSH2 0xDEA JUMP JUMPDEST PUSH1 0x14 DUP3 ADD SWAP2 POP DUP2 SWAP1 POP SWAP4 SWAP3 POP POP POP JUMP JUMPDEST PUSH32 0x4E487B7100000000000000000000000000000000000000000000000000000000 PUSH0 MSTORE PUSH1 0x12 PUSH1 0x4 MSTORE PUSH1 0x24 PUSH0 REVERT JUMPDEST PUSH0 PUSH2 0xE63 DUP3 PUSH2 0xBA7 JUMP JUMPDEST SWAP2 POP PUSH2 0xE6E DUP4 PUSH2 0xBA7 JUMP JUMPDEST SWAP3 POP DUP3 PUSH2 0xE7E JUMPI PUSH2 0xE7D PUSH2 0xE2C JUMP JUMPDEST JUMPDEST DUP3 DUP3 MOD SWAP1 POP SWAP3 SWAP2 POP POP JUMP JUMPDEST PUSH1 0xB DUP2 LT PUSH2 0xE9A JUMPI PUSH2 0xE99 PUSH2 0xCC0 JUMP JUMPDEST JUMPDEST POP JUMP JUMPDEST PUSH0 DUP2 SWAP1 POP PUSH2 0xEAA DUP3 PUSH2 0xE89 JUMP JUMPDEST SWAP2 SWAP1 POP JUMP JUMPDEST PUSH0 PUSH2 0xEB9 DUP3 PUSH2 0xE9D JUMP JUMPDEST SWAP1 POP SWAP2 SWAP1 POP JUMP JUMPDEST PUSH2 0xEC9 DUP2 PUSH2 0xEAF JUMP JUMPDEST DUP3 MSTORE POP POP JUMP JUMPDEST PUSH0 PUSH1 0x20 DUP3 ADD SWAP1 POP PUSH2 0xEE2 PUSH0 DUP4 ADD DUP5 PUSH2 0xEC0 JUMP JUMPDEST SWAP3 SWAP2 POP POP JUMP JUMPDEST PUSH0 DUP2 SWAP1 POP SWAP2 SWAP1 POP JUMP JUMPDEST PUSH2 0xEFA DUP2 PUSH2 0xEE8 JUMP JUMPDEST DUP2 EQ PUSH2 0xF04 JUMPI PUSH0 PUSH0 REVERT JUMPDEST POP JUMP JUMPDEST PUSH0 DUP2 MLOAD SWAP1 POP PUSH2 0xF15 DUP2 PUSH2 0xEF1 JUMP JUMPDEST SWAP3 SWAP2 POP POP JUMP JUMPDEST PUSH0 PUSH1 0x20 DUP3 DUP5 SUB SLT ISZERO PUSH2 0xF30 JUMPI PUSH2 0xF2F PUSH2 0xB55 JUMP JUMPDEST JUMPDEST PUSH0 PUSH2 0xF3D DUP5 DUP3 DUP6 ADD PUSH2 0xF07 JUMP JUMPDEST SWAP2 POP POP SWAP3 SWAP2 POP POP JUMP JUMPDEST PUSH32 0x496E737572616E636520636F73747320302E3032204554480000000000000000 PUSH0 DUP3 ADD MSTORE POP JUMP JUMPDEST PUSH0 PUSH2 0xF7A PUSH1 0x18 DUP4 PUSH2 0xCED JUMP JUMPDEST SWAP2 POP PUSH2 0xF85 DUP3 PUSH2 0xF46 JUMP JUMPDEST PUSH1 0x20 DUP3 ADD SWAP1 POP SWAP2 SWAP1 POP JUMP JUMPDEST PUSH0 PUSH1 0x20 DUP3 ADD SWAP1 POP DUP2 DUP2 SUB PUSH0 DUP4 ADD MSTORE PUSH2 0xFA7 DUP2 PUSH2 0xF6E JUMP JUMPDEST SWAP1 POP SWAP2 SWAP1 POP JUMP JUMPDEST PUSH32 0x4865616C696E6720636F73747320302E30303520455448000000000000000000 PUSH0 DUP3 ADD MSTORE POP JUMP JUMPDEST PUSH0 PUSH2 0xFE2 PUSH1 0x17 DUP4 PUSH2 0xCED JUMP JUMPDEST SWAP2 POP PUSH2 0xFED DUP3 PUSH2 0xFAE JUMP JUMPDEST PUSH1 0x20 DUP3 ADD SWAP1 POP SWAP2 SWAP1 POP JUMP JUMPDEST PUSH0 PUSH1 0x20 DUP3 ADD SWAP1 POP DUP2 DUP2 SUB PUSH0 DUP4 ADD MSTORE PUSH2 0x100F DUP2 PUSH2 0xFD6 JUMP JUMPDEST SWAP1 POP SWAP2 SWAP1 POP JUMP JUMPDEST PUSH0 PUSH0 REVERT JUMPDEST PUSH0 PUSH1 0x1F NOT PUSH1 0x1F DUP4 ADD AND SWAP1 POP SWAP2 SWAP1 POP JUMP JUMPDEST PUSH32 0x4E487B7100000000000000000000000000000000000000000000000000000000 PUSH0 MSTORE PUSH1 0x41 PUSH1 0x4 MSTORE PUSH1 0x24 PUSH0 REVERT JUMPDEST PUSH2 0x1060 DUP3 PUSH2 0x101A JUMP JUMPDEST DUP2 ADD DUP2 DUP2 LT PUSH8 0xFFFFFFFFFFFFFFFF DUP3 GT OR ISZERO PUSH2 0x107F JUMPI PUSH2 0x107E PUSH2 0x102A JUMP JUMPDEST JUMPDEST DUP1 PUSH1 0x40 MSTORE POP POP POP JUMP JUMPDEST PUSH0 PUSH2 0x1091 PUSH2 0xB4C JUMP JUMPDEST SWAP1 POP PUSH2 0x109D DUP3 DUP3 PUSH2 0x1057 JUMP JUMPDEST SWAP2 SWAP1 POP JUMP JUMPDEST PUSH0 DUP2 MLOAD SWAP1 POP PUSH2 0x10B0 DUP2 PUSH2 0xC6B JUMP JUMPDEST SWAP3 SWAP2 POP POP JUMP JUMPDEST PUSH0 DUP2 MLOAD SWAP1 POP PUSH2 0x10C4 DUP2 PUSH2 0xB59 JUMP JUMPDEST SWAP3 SWAP2 POP POP JUMP JUMPDEST PUSH0 PUSH1 0xA0 DUP3 DUP5 SUB SLT ISZERO PUSH2 0x10DF JUMPI PUSH2 0x10DE PUSH2 0x1016 JUMP JUMPDEST JUMPDEST PUSH2 0x10E9 PUSH1 0xA0 PUSH2 0x1088 JUMP JUMPDEST SWAP1 POP PUSH0 PUSH2 0x10F8 DUP5 DUP3 DUP6 ADD PUSH2 0x10A2 JUMP JUMPDEST PUSH0 DUP4 ADD MSTORE POP PUSH1 0x20 PUSH2 0x110B DUP5 DUP3 DUP6 ADD PUSH2 0x10A2 JUMP JUMPDEST PUSH1 0x20 DUP4 ADD MSTORE POP PUSH1 0x40 PUSH2 0x111F DUP5 DUP3 DUP6 ADD PUSH2 0x10A2 JUMP JUMPDEST PUSH1 0x40 DUP4 ADD MSTORE POP PUSH1 0x60 PUSH2 0x1133 DUP5 DUP3 DUP6 ADD PUSH2 0x10B6 JUMP JUMPDEST PUSH1 0x60 DUP4 ADD MSTORE POP PUSH1 0x80 PUSH2 0x1147 DUP5 DUP3 DUP6 ADD PUSH2 0x10A2 JUMP JUMPDEST PUSH1 0x80 DUP4 ADD MSTORE POP SWAP3 SWAP2 POP POP JUMP JUMPDEST PUSH0 PUSH1 0xA0 DUP3 DUP5 SUB SLT ISZERO PUSH2 0x1168 JUMPI PUSH2 0x1167 PUSH2 0xB55 JUMP JUMPDEST JUMPDEST PUSH0 PUSH2 0x1175 DUP5 DUP3 DUP6 ADD PUSH2 0x10CA JUMP JUMPDEST SWAP2 POP POP SWAP3 SWAP2 POP POP JUMP JUMPDEST PUSH32 0x4E6F7420656E6F7567682045544820746F206D696E74206D7974686963616C20 PUSH0 DUP3 ADD MSTORE PUSH32 0x6269726400000000000000000000000000000000000000000000000000000000 PUSH1 0x20 DUP3 ADD MSTORE POP JUMP JUMPDEST PUSH0 PUSH2 0x11D8 PUSH1 0x24 DUP4 PUSH2 0xCED JUMP JUMPDEST SWAP2 POP PUSH2 0x11E3 DUP3 PUSH2 0x117E JUMP JUMPDEST PUSH1 0x40 DUP3 ADD SWAP1 POP SWAP2 SWAP1 POP JUMP JUMPDEST PUSH0 PUSH1 0x20 DUP3 ADD SWAP1 POP DUP2 DUP2 SUB PUSH0 DUP4 ADD MSTORE PUSH2 0x1205 DUP2 PUSH2 0x11CC JUMP JUMPDEST SWAP1 POP SWAP2 SWAP1 POP JUMP JUMPDEST PUSH32 0x556E6B6E6F776E20737065636965730000000000000000000000000000000000 PUSH0 DUP3 ADD MSTORE POP JUMP JUMPDEST PUSH0 PUSH2 0x1240 PUSH1 0xF DUP4 PUSH2 0xCED JUMP JUMPDEST SWAP2 POP PUSH2 0x124B DUP3 PUSH2 0x120C JUMP JUMPDEST PUSH1 0x20 DUP3 ADD SWAP1 POP SWAP2 SWAP1 POP JUMP JUMPDEST PUSH0 PUSH1 0x20 DUP3 ADD SWAP1 POP DUP2 DUP2 SUB PUSH0 DUP4 ADD MSTORE PUSH2 0x126D DUP2 PUSH2 0x1234 JUMP JUMPDEST SWAP1 POP SWAP2 SWAP1 POP JUMP INVALID PUSH9 0x747470733A2F2F6761 PUSH21 0x657761792E70696E6174612E636C6F75642F697066 PUSH20 0x2F6261667962656961336C65346173746B6E6832 PUSH17 0x346D626B64357734326A353232746E7365 CALLVALUE PUSH24 0x786B3777356D3777696D6F716470366F757A707968747470 PUSH20 0x3A2F2F676174657761792E70696E6174612E636C PUSH16 0x75642F697066732F6261667962656965 PUSH23 0x377075637A377968377836686169646D7068703569656F PUSH3 0x766366 PUSH5 0x636C6E6C77 PUSH11 0x7161326976733479333537 PUSH17 0x76776D6168747470733A2F2F6761746577 PUSH2 0x792E PUSH17 0x696E6174612E636C6F75642F697066732F PUSH3 0x616679 PUSH3 0x656967 PUSH16 0x686F746F6B366B336F6E76746A797970 PUSH7 0x6E626E7A626373 PUSH16 0x327163697862777A3477683634767032 PUSH15 0x336C71376E6B7361A2646970667358 0x22 SLT KECCAK256 SUB EXTCALL RETURNCONTRACT 0x2E LOG4 0x4C DUP15 BLOCKHASH PUSH13 0x9C3F8A4E8CA40FCD1710D10F92 SHL 0xDC LOG1 PREVRANDAO PUSH15 0xDE8068874364736F6C634300081E00 CALLER "
				},
				"gasEstimates": {
					"creation": {
						"codeDepositCost": "1011400",
						"executionCost": "infinite",
						"totalCost": "infinite"
					},
					"external": {
						"buyInsurance(uint256)": "infinite",
						"healBird(uint256)": "infinite",
						"mintLegendaryBird()": "infinite",
						"mintRegularBird(uint8)": "infinite",
						"ptakContract()": "infinite",
						"speciesPrices(uint8)": "2690"
					}
				},
				"methodIdentifiers": {
					"buyInsurance(uint256)": "a86a658c",
					"healBird(uint256)": "bff998f4",
					"mintLegendaryBird()": "eb96efa7",
					"mintRegularBird(uint8)": "9aeb133f",
					"ptakContract()": "5361e1d2",
					"speciesPrices(uint8)": "4a7388a3"
				}
			},
			"storageLayout": {
				"storage": [
					{
						"astId": 6,
						"contract": "contracts/Park.sol:Park",
						"label": "ptakContract",
						"offset": 0,
						"slot": "0",
						"type": "t_contract(Ptak)599"
					},
					{
						"astId": 11,
						"contract": "contracts/Park.sol:Park",
						"label": "speciesPrices",
						"offset": 0,
						"slot": "1",
						"type": "t_mapping(t_enum(Species)613,t_uint256)"
					}
				],
				"types": {
					"t_contract(Ptak)599": {
						"encoding": "inplace",
						"label": "contract Ptak",
						"numberOfBytes": "20"
					},
					"t_enum(Species)613": {
						"encoding": "inplace",
						"label": "enum SpeciesLibrary.Species",
						"numberOfBytes": "1"
					},
					"t_mapping(t_enum(Species)613,t_uint256)": {
						"encoding": "mapping",
						"key": "t_enum(Species)613",
						"label": "mapping(enum SpeciesLibrary.Species => uint256)",
						"numberOfBytes": "32",
						"value": "t_uint256"
					},
					"t_uint256": {
						"encoding": "inplace",
						"label": "uint256",
						"numberOfBytes": "32"
					}
				}
			},
			"userdoc": {
				"kind": "user",
				"methods": {},
				"version": 1
			}
		}
	}
}