{
	"contracts/Ptak.sol": {
		"Ptak": {
			"abi": [
				{
					"inputs": [
						{
							"internalType": "address",
							"name": "_parkContract",
							"type": "address"
						}
					],
					"stateMutability": "nonpayable",
					"type": "constructor"
				},
				{
					"inputs": [
						{
							"internalType": "uint256",
							"name": "",
							"type": "uint256"
						}
					],
					"name": "birds",
					"outputs": [
						{
							"internalType": "uint256",
							"name": "age",
							"type": "uint256"
						},
						{
							"internalType": "uint256",
							"name": "hunger",
							"type": "uint256"
						},
						{
							"internalType": "uint256",
							"name": "health",
							"type": "uint256"
						},
						{
							"internalType": "enum SpeciesLibrary.Species",
							"name": "species",
							"type": "uint8"
						},
						{
							"internalType": "uint256",
							"name": "lastUpdateTime",
							"type": "uint256"
						}
					],
					"stateMutability": "view",
					"type": "function"
				},
				{
					"inputs": [
						{
							"internalType": "uint256",
							"name": "id",
							"type": "uint256"
						},
						{
							"internalType": "uint256",
							"name": "foodAmount",
							"type": "uint256"
						}
					],
					"name": "feedBird",
					"outputs": [],
					"stateMutability": "nonpayable",
					"type": "function"
				},
				{
					"inputs": [
						{
							"internalType": "uint256",
							"name": "id",
							"type": "uint256"
						}
					],
					"name": "getBird",
					"outputs": [
						{
							"components": [
								{
									"internalType": "uint256",
									"name": "age",
									"type": "uint256"
								},
								{
									"internalType": "uint256",
									"name": "hunger",
									"type": "uint256"
								},
								{
									"internalType": "uint256",
									"name": "health",
									"type": "uint256"
								},
								{
									"internalType": "enum SpeciesLibrary.Species",
									"name": "species",
									"type": "uint8"
								},
								{
									"internalType": "uint256",
									"name": "lastUpdateTime",
									"type": "uint256"
								}
							],
							"internalType": "struct Ptak.BirdData",
							"name": "",
							"type": "tuple"
						}
					],
					"stateMutability": "nonpayable",
					"type": "function"
				},
				{
					"inputs": [
						{
							"internalType": "uint256",
							"name": "birdId",
							"type": "uint256"
						}
					],
					"name": "insure",
					"outputs": [],
					"stateMutability": "nonpayable",
					"type": "function"
				},
				{
					"inputs": [
						{
							"internalType": "uint256",
							"name": "",
							"type": "uint256"
						}
					],
					"name": "insured",
					"outputs": [
						{
							"internalType": "bool",
							"name": "",
							"type": "bool"
						}
					],
					"stateMutability": "view",
					"type": "function"
				},
				{
					"inputs": [
						{
							"internalType": "enum SpeciesLibrary.Species",
							"name": "species",
							"type": "uint8"
						}
					],
					"name": "mintBird",
					"outputs": [
						{
							"internalType": "int256",
							"name": "",
							"type": "int256"
						}
					],
					"stateMutability": "nonpayable",
					"type": "function"
				},
				{
					"inputs": [],
					"name": "nextId",
					"outputs": [
						{
							"internalType": "uint256",
							"name": "",
							"type": "uint256"
						}
					],
					"stateMutability": "view",
					"type": "function"
				},
				{
					"inputs": [
						{
							"internalType": "uint256",
							"name": "",
							"type": "uint256"
						}
					],
					"name": "ownerOf",
					"outputs": [
						{
							"internalType": "address",
							"name": "",
							"type": "address"
						}
					],
					"stateMutability": "view",
					"type": "function"
				},
				{
					"inputs": [],
					"name": "parkContract",
					"outputs": [
						{
							"internalType": "address",
							"name": "",
							"type": "address"
						}
					],
					"stateMutability": "view",
					"type": "function"
				},
				{
					"inputs": [
						{
							"internalType": "address",
							"name": "_parkContract",
							"type": "address"
						}
					],
					"name": "setParkContract",
					"outputs": [],
					"stateMutability": "nonpayable",
					"type": "function"
				},
				{
					"inputs": [
						{
							"internalType": "uint256",
							"name": "birdId",
							"type": "uint256"
						},
						{
							"internalType": "address",
							"name": "newOwner",
							"type": "address"
						}
					],
					"name": "transferBird",
					"outputs": [],
					"stateMutability": "nonpayable",
					"type": "function"
				},
				{
					"inputs": [
						{
							"internalType": "uint256",
							"name": "id",
							"type": "uint256"
						}
					],
					"name": "updateHungerAndAge",
					"outputs": [],
					"stateMutability": "nonpayable",
					"type": "function"
				}
			],
			"devdoc": {
				"kind": "dev",
				"methods": {},
				"version": 1
			},
			"evm": {
				"assembly": "    /* \"contracts/Ptak.sol\":95:3566  contract Ptak {... */\n  mstore(0x40, 0x80)\n    /* \"contracts/Ptak.sol\":680:762  constructor(address _parkContract) {... */\n  callvalue\n  dup1\n  iszero\n  tag_1\n  jumpi\n  revert(0x00, 0x00)\ntag_1:\n  pop\n  mload(0x40)\n  sub(codesize, bytecodeSize)\n  dup1\n  bytecodeSize\n  dup4\n  codecopy\n  dup2\n  dup2\n  add\n  0x40\n  mstore\n  dup2\n  add\n  swap1\n  tag_2\n  swap2\n  swap1\n  tag_3\n  jump\t// in\ntag_2:\n    /* \"contracts/Ptak.sol\":741:754  _parkContract */\n  dup1\n    /* \"contracts/Ptak.sol\":726:738  parkContract */\n  0x02\n  0x00\n    /* \"contracts/Ptak.sol\":726:754  parkContract = _parkContract */\n  0x0100\n  exp\n  dup2\n  sload\n  dup2\n  0xffffffffffffffffffffffffffffffffffffffff\n  mul\n  not\n  and\n  swap1\n  dup4\n  0xffffffffffffffffffffffffffffffffffffffff\n  and\n  mul\n  or\n  swap1\n  sstore\n  pop\n    /* \"contracts/Ptak.sol\":680:762  constructor(address _parkContract) {... */\n  pop\n    /* \"contracts/Ptak.sol\":95:3566  contract Ptak {... */\n  jump(tag_6)\n    /* \"#utility.yul\":88:205   */\ntag_8:\n    /* \"#utility.yul\":197:198   */\n  0x00\n    /* \"#utility.yul\":194:195   */\n  0x00\n    /* \"#utility.yul\":187:199   */\n  revert\n    /* \"#utility.yul\":334:460   */\ntag_10:\n    /* \"#utility.yul\":371:378   */\n  0x00\n    /* \"#utility.yul\":411:453   */\n  0xffffffffffffffffffffffffffffffffffffffff\n    /* \"#utility.yul\":404:409   */\n  dup3\n    /* \"#utility.yul\":400:454   */\n  and\n    /* \"#utility.yul\":389:454   */\n  swap1\n  pop\n    /* \"#utility.yul\":334:460   */\n  swap2\n  swap1\n  pop\n  jump\t// out\n    /* \"#utility.yul\":466:562   */\ntag_11:\n    /* \"#utility.yul\":503:510   */\n  0x00\n    /* \"#utility.yul\":532:556   */\n  tag_20\n    /* \"#utility.yul\":550:555   */\n  dup3\n    /* \"#utility.yul\":532:556   */\n  tag_10\n  jump\t// in\ntag_20:\n    /* \"#utility.yul\":521:556   */\n  swap1\n  pop\n    /* \"#utility.yul\":466:562   */\n  swap2\n  swap1\n  pop\n  jump\t// out\n    /* \"#utility.yul\":568:690   */\ntag_12:\n    /* \"#utility.yul\":641:665   */\n  tag_22\n    /* \"#utility.yul\":659:664   */\n  dup2\n    /* \"#utility.yul\":641:665   */\n  tag_11\n  jump\t// in\ntag_22:\n    /* \"#utility.yul\":634:639   */\n  dup2\n    /* \"#utility.yul\":631:666   */\n  eq\n    /* \"#utility.yul\":621:684   */\n  tag_23\n  jumpi\n    /* \"#utility.yul\":680:681   */\n  0x00\n    /* \"#utility.yul\":677:678   */\n  0x00\n    /* \"#utility.yul\":670:682   */\n  revert\n    /* \"#utility.yul\":621:684   */\ntag_23:\n    /* \"#utility.yul\":568:690   */\n  pop\n  jump\t// out\n    /* \"#utility.yul\":696:839   */\ntag_13:\n    /* \"#utility.yul\":753:758   */\n  0x00\n    /* \"#utility.yul\":784:790   */\n  dup2\n    /* \"#utility.yul\":778:791   */\n  mload\n    /* \"#utility.yul\":769:791   */\n  swap1\n  pop\n    /* \"#utility.yul\":800:833   */\n  tag_25\n    /* \"#utility.yul\":827:832   */\n  dup2\n    /* \"#utility.yul\":800:833   */\n  tag_12\n  jump\t// in\ntag_25:\n    /* \"#utility.yul\":696:839   */\n  swap3\n  swap2\n  pop\n  pop\n  jump\t// out\n    /* \"#utility.yul\":845:1196   */\ntag_3:\n    /* \"#utility.yul\":915:921   */\n  0x00\n    /* \"#utility.yul\":964:966   */\n  0x20\n    /* \"#utility.yul\":952:961   */\n  dup3\n    /* \"#utility.yul\":943:950   */\n  dup5\n    /* \"#utility.yul\":939:962   */\n  sub\n    /* \"#utility.yul\":935:967   */\n  slt\n    /* \"#utility.yul\":932:1051   */\n  iszero\n  tag_27\n  jumpi\n    /* \"#utility.yul\":970:1049   */\n  tag_28\n  tag_8\n  jump\t// in\ntag_28:\n    /* \"#utility.yul\":932:1051   */\ntag_27:\n    /* \"#utility.yul\":1090:1091   */\n  0x00\n    /* \"#utility.yul\":1115:1179   */\n  tag_29\n    /* \"#utility.yul\":1171:1178   */\n  dup5\n    /* \"#utility.yul\":1162:1168   */\n  dup3\n    /* \"#utility.yul\":1151:1160   */\n  dup6\n    /* \"#utility.yul\":1147:1169   */\n  add\n    /* \"#utility.yul\":1115:1179   */\n  tag_13\n  jump\t// in\ntag_29:\n    /* \"#utility.yul\":1105:1179   */\n  swap2\n  pop\n    /* \"#utility.yul\":1061:1189   */\n  pop\n    /* \"#utility.yul\":845:1196   */\n  swap3\n  swap2\n  pop\n  pop\n  jump\t// out\n    /* \"contracts/Ptak.sol\":95:3566  contract Ptak {... */\ntag_6:\n  dataSize(sub_0)\n  dup1\n  dataOffset(sub_0)\n  0x00\n  codecopy\n  0x00\n  return\nstop\n\nsub_0: assembly {\n        /* \"contracts/Ptak.sol\":95:3566  contract Ptak {... */\n      mstore(0x40, 0x80)\n      callvalue\n      dup1\n      iszero\n      tag_1\n      jumpi\n      revert(0x00, 0x00)\n    tag_1:\n      pop\n      jumpi(tag_2, lt(calldatasize, 0x04))\n      shr(0xe0, calldataload(0x00))\n      dup1\n      0x6352211e\n      gt\n      tag_15\n      jumpi\n      dup1\n      0x6352211e\n      eq\n      tag_9\n      jumpi\n      dup1\n      0x6ec88bbd\n      eq\n      tag_10\n      jumpi\n      dup1\n      0x72680a77\n      eq\n      tag_11\n      jumpi\n      dup1\n      0x8c652f95\n      eq\n      tag_12\n      jumpi\n      dup1\n      0xa2b7ce6f\n      eq\n      tag_13\n      jumpi\n      dup1\n      0xec1c5955\n      eq\n      tag_14\n      jumpi\n      jump(tag_2)\n    tag_15:\n      dup1\n      0x16cb4a05\n      eq\n      tag_3\n      jumpi\n      dup1\n      0x1942d199\n      eq\n      tag_4\n      jumpi\n      dup1\n      0x49b1a0bf\n      eq\n      tag_5\n      jumpi\n      dup1\n      0x4d2d7881\n      eq\n      tag_6\n      jumpi\n      dup1\n      0x4e9c7df8\n      eq\n      tag_7\n      jumpi\n      dup1\n      0x61b8ce8c\n      eq\n      tag_8\n      jumpi\n    tag_2:\n      revert(0x00, 0x00)\n        /* \"contracts/Ptak.sol\":460:499  mapping(uint256 => bool) public insured */\n    tag_3:\n      tag_16\n      0x04\n      dup1\n      calldatasize\n      sub\n      dup2\n      add\n      swap1\n      tag_17\n      swap2\n      swap1\n      tag_18\n      jump\t// in\n    tag_17:\n      tag_19\n      jump\t// in\n    tag_16:\n      mload(0x40)\n      tag_20\n      swap2\n      swap1\n      tag_21\n      jump\t// in\n    tag_20:\n      mload(0x40)\n      dup1\n      swap2\n      sub\n      swap1\n      return\n        /* \"contracts/Ptak.sol\":2518:2840  function feedBird(uint256 id, uint256 foodAmount) external onlyPark {... */\n    tag_4:\n      tag_22\n      0x04\n      dup1\n      calldatasize\n      sub\n      dup2\n      add\n      swap1\n      tag_23\n      swap2\n      swap1\n      tag_24\n      jump\t// in\n    tag_23:\n      tag_25\n      jump\t// in\n    tag_22:\n      stop\n        /* \"contracts/Ptak.sol\":2848:3000  function insure(uint256 birdId) external {... */\n    tag_5:\n      tag_26\n      0x04\n      dup1\n      calldatasize\n      sub\n      dup2\n      add\n      swap1\n      tag_27\n      swap2\n      swap1\n      tag_18\n      jump\t// in\n    tag_27:\n      tag_28\n      jump\t// in\n    tag_26:\n      stop\n        /* \"contracts/Ptak.sol\":770:1110  function mintBird(SpeciesLibrary.Species species) external onlyPark returns (int) {... */\n    tag_6:\n      tag_29\n      0x04\n      dup1\n      calldatasize\n      sub\n      dup2\n      add\n      swap1\n      tag_30\n      swap2\n      swap1\n      tag_31\n      jump\t// in\n    tag_30:\n      tag_32\n      jump\t// in\n    tag_29:\n      mload(0x40)\n      tag_33\n      swap2\n      swap1\n      tag_34\n      jump\t// in\n    tag_33:\n      mload(0x40)\n      dup1\n      swap2\n      sub\n      swap1\n      return\n        /* \"contracts/Ptak.sol\":3148:3318  function setParkContract(address _parkContract) external {... */\n    tag_7:\n      tag_35\n      0x04\n      dup1\n      calldatasize\n      sub\n      dup2\n      add\n      swap1\n      tag_36\n      swap2\n      swap1\n      tag_37\n      jump\t// in\n    tag_36:\n      tag_38\n      jump\t// in\n    tag_35:\n      stop\n        /* \"contracts/Ptak.sol\":398:419  uint256 public nextId */\n    tag_8:\n      tag_39\n      tag_40\n      jump\t// in\n    tag_39:\n      mload(0x40)\n      tag_41\n      swap2\n      swap1\n      tag_42\n      jump\t// in\n    tag_41:\n      mload(0x40)\n      dup1\n      swap2\n      sub\n      swap1\n      return\n        /* \"contracts/Ptak.sol\":506:548  mapping(uint256 => address) public ownerOf */\n    tag_9:\n      tag_43\n      0x04\n      dup1\n      calldatasize\n      sub\n      dup2\n      add\n      swap1\n      tag_44\n      swap2\n      swap1\n      tag_18\n      jump\t// in\n    tag_44:\n      tag_45\n      jump\t// in\n    tag_43:\n      mload(0x40)\n      tag_46\n      swap2\n      swap1\n      tag_47\n      jump\t// in\n    tag_46:\n      mload(0x40)\n      dup1\n      swap2\n      sub\n      swap1\n      return\n        /* \"contracts/Ptak.sol\":3008:3140  function getBird(uint256 id) external returns (BirdData memory) {... */\n    tag_10:\n      tag_48\n      0x04\n      dup1\n      calldatasize\n      sub\n      dup2\n      add\n      swap1\n      tag_49\n      swap2\n      swap1\n      tag_18\n      jump\t// in\n    tag_49:\n      tag_50\n      jump\t// in\n    tag_48:\n      mload(0x40)\n      tag_51\n      swap2\n      swap1\n      tag_52\n      jump\t// in\n    tag_51:\n      mload(0x40)\n      dup1\n      swap2\n      sub\n      swap1\n      return\n        /* \"contracts/Ptak.sol\":426:453  address public parkContract */\n    tag_11:\n      tag_53\n      tag_54\n      jump\t// in\n    tag_53:\n      mload(0x40)\n      tag_55\n      swap2\n      swap1\n      tag_47\n      jump\t// in\n    tag_55:\n      mload(0x40)\n      dup1\n      swap2\n      sub\n      swap1\n      return\n        /* \"contracts/Ptak.sol\":3326:3563  function transferBird(uint256 birdId, address newOwner) external {... */\n    tag_12:\n      tag_56\n      0x04\n      dup1\n      calldatasize\n      sub\n      dup2\n      add\n      swap1\n      tag_57\n      swap2\n      swap1\n      tag_58\n      jump\t// in\n    tag_57:\n      tag_59\n      jump\t// in\n    tag_56:\n      stop\n        /* \"contracts/Ptak.sol\":1118:1964  function updateHungerAndAge(uint256 id) public {... */\n    tag_13:\n      tag_60\n      0x04\n      dup1\n      calldatasize\n      sub\n      dup2\n      add\n      swap1\n      tag_61\n      swap2\n      swap1\n      tag_18\n      jump\t// in\n    tag_61:\n      tag_62\n      jump\t// in\n    tag_60:\n      stop\n        /* \"contracts/Ptak.sol\":350:391  mapping(uint256 => BirdData) public birds */\n    tag_14:\n      tag_63\n      0x04\n      dup1\n      calldatasize\n      sub\n      dup2\n      add\n      swap1\n      tag_64\n      swap2\n      swap1\n      tag_18\n      jump\t// in\n    tag_64:\n      tag_65\n      jump\t// in\n    tag_63:\n      mload(0x40)\n      tag_66\n      swap6\n      swap5\n      swap4\n      swap3\n      swap2\n      swap1\n      tag_67\n      jump\t// in\n    tag_66:\n      mload(0x40)\n      dup1\n      swap2\n      sub\n      swap1\n      return\n        /* \"contracts/Ptak.sol\":460:499  mapping(uint256 => bool) public insured */\n    tag_19:\n      mstore(0x20, 0x03)\n      dup1\n      0x00\n      mstore\n      keccak256(0x00, 0x40)\n      0x00\n      swap2\n      pop\n      sload\n      swap1\n      0x0100\n      exp\n      swap1\n      div\n      0xff\n      and\n      dup2\n      jump\t// out\n        /* \"contracts/Ptak.sol\":2518:2840  function feedBird(uint256 id, uint256 foodAmount) external onlyPark {... */\n    tag_25:\n        /* \"contracts/Ptak.sol\":612:624  parkContract */\n      0x02\n      0x00\n      swap1\n      sload\n      swap1\n      0x0100\n      exp\n      swap1\n      div\n      0xffffffffffffffffffffffffffffffffffffffff\n      and\n        /* \"contracts/Ptak.sol\":598:624  msg.sender == parkContract */\n      0xffffffffffffffffffffffffffffffffffffffff\n      and\n        /* \"contracts/Ptak.sol\":598:608  msg.sender */\n      caller\n        /* \"contracts/Ptak.sol\":598:624  msg.sender == parkContract */\n      0xffffffffffffffffffffffffffffffffffffffff\n      and\n      eq\n        /* \"contracts/Ptak.sol\":590:652  require(msg.sender == parkContract, \"Only Park can call this\") */\n      tag_69\n      jumpi\n      mload(0x40)\n      0x08c379a000000000000000000000000000000000000000000000000000000000\n      dup2\n      mstore\n      0x04\n      add\n      tag_70\n      swap1\n      tag_71\n      jump\t// in\n    tag_70:\n      mload(0x40)\n      dup1\n      swap2\n      sub\n      swap1\n      revert\n    tag_69:\n        /* \"contracts/Ptak.sol\":2597:2619  updateHungerAndAge(id) */\n      tag_73\n        /* \"contracts/Ptak.sol\":2616:2618  id */\n      dup3\n        /* \"contracts/Ptak.sol\":2597:2615  updateHungerAndAge */\n      tag_62\n        /* \"contracts/Ptak.sol\":2597:2619  updateHungerAndAge(id) */\n      jump\t// in\n    tag_73:\n        /* \"contracts/Ptak.sol\":2630:2651  BirdData storage bird */\n      0x00\n        /* \"contracts/Ptak.sol\":2654:2659  birds */\n      0x00\n        /* \"contracts/Ptak.sol\":2654:2663  birds[id] */\n      0x00\n        /* \"contracts/Ptak.sol\":2660:2662  id */\n      dup5\n        /* \"contracts/Ptak.sol\":2654:2663  birds[id] */\n      dup2\n      mstore\n      0x20\n      add\n      swap1\n      dup2\n      mstore\n      0x20\n      add\n      0x00\n      keccak256\n        /* \"contracts/Ptak.sol\":2630:2663  BirdData storage bird = birds[id] */\n      swap1\n      pop\n        /* \"contracts/Ptak.sol\":2674:2693  randomPoisoning(id) */\n      tag_74\n        /* \"contracts/Ptak.sol\":2690:2692  id */\n      dup4\n        /* \"contracts/Ptak.sol\":2674:2689  randomPoisoning */\n      tag_75\n        /* \"contracts/Ptak.sol\":2674:2693  randomPoisoning(id) */\n      jump\t// in\n    tag_74:\n        /* \"contracts/Ptak.sol\":2722:2732  foodAmount */\n      dup2\n        /* \"contracts/Ptak.sol\":2707:2711  bird */\n      dup2\n        /* \"contracts/Ptak.sol\":2707:2718  bird.hunger */\n      0x01\n      add\n      sload\n        /* \"contracts/Ptak.sol\":2707:2732  bird.hunger >= foodAmount */\n      lt\n        /* \"contracts/Ptak.sol\":2704:2833  if(bird.hunger >= foodAmount){... */\n      tag_76\n      jumpi\n        /* \"contracts/Ptak.sol\":2763:2773  foodAmount */\n      dup2\n        /* \"contracts/Ptak.sol\":2748:2752  bird */\n      dup2\n        /* \"contracts/Ptak.sol\":2748:2759  bird.hunger */\n      0x01\n      add\n      0x00\n        /* \"contracts/Ptak.sol\":2748:2773  bird.hunger -= foodAmount */\n      dup3\n      dup3\n      sload\n      tag_77\n      swap2\n      swap1\n      tag_78\n      jump\t// in\n    tag_77:\n      swap3\n      pop\n      pop\n      dup2\n      swap1\n      sstore\n      pop\n        /* \"contracts/Ptak.sol\":2704:2833  if(bird.hunger >= foodAmount){... */\n      jump(tag_79)\n    tag_76:\n        /* \"contracts/Ptak.sol\":2820:2821  0 */\n      0x00\n        /* \"contracts/Ptak.sol\":2806:2810  bird */\n      dup2\n        /* \"contracts/Ptak.sol\":2806:2817  bird.hunger */\n      0x01\n      add\n        /* \"contracts/Ptak.sol\":2806:2821  bird.hunger = 0 */\n      dup2\n      swap1\n      sstore\n      pop\n        /* \"contracts/Ptak.sol\":2704:2833  if(bird.hunger >= foodAmount){... */\n    tag_79:\n        /* \"contracts/Ptak.sol\":2586:2840  {... */\n      pop\n        /* \"contracts/Ptak.sol\":2518:2840  function feedBird(uint256 id, uint256 foodAmount) external onlyPark {... */\n      pop\n      pop\n      jump\t// out\n        /* \"contracts/Ptak.sol\":2848:3000  function insure(uint256 birdId) external {... */\n    tag_28:\n        /* \"contracts/Ptak.sol\":2922:2934  parkContract */\n      0x02\n      0x00\n      swap1\n      sload\n      swap1\n      0x0100\n      exp\n      swap1\n      div\n      0xffffffffffffffffffffffffffffffffffffffff\n      and\n        /* \"contracts/Ptak.sol\":2908:2934  msg.sender == parkContract */\n      0xffffffffffffffffffffffffffffffffffffffff\n      and\n        /* \"contracts/Ptak.sol\":2908:2918  msg.sender */\n      caller\n        /* \"contracts/Ptak.sol\":2908:2934  msg.sender == parkContract */\n      0xffffffffffffffffffffffffffffffffffffffff\n      and\n      eq\n        /* \"contracts/Ptak.sol\":2900:2959  require(msg.sender == parkContract, \"Only Park can insure\") */\n      tag_81\n      jumpi\n      mload(0x40)\n      0x08c379a000000000000000000000000000000000000000000000000000000000\n      dup2\n      mstore\n      0x04\n      add\n      tag_82\n      swap1\n      tag_83\n      jump\t// in\n    tag_82:\n      mload(0x40)\n      dup1\n      swap2\n      sub\n      swap1\n      revert\n    tag_81:\n        /* \"contracts/Ptak.sol\":2988:2992  true */\n      0x01\n        /* \"contracts/Ptak.sol\":2970:2977  insured */\n      0x03\n        /* \"contracts/Ptak.sol\":2970:2985  insured[birdId] */\n      0x00\n        /* \"contracts/Ptak.sol\":2978:2984  birdId */\n      dup4\n        /* \"contracts/Ptak.sol\":2970:2985  insured[birdId] */\n      dup2\n      mstore\n      0x20\n      add\n      swap1\n      dup2\n      mstore\n      0x20\n      add\n      0x00\n      keccak256\n      0x00\n        /* \"contracts/Ptak.sol\":2970:2992  insured[birdId] = true */\n      0x0100\n      exp\n      dup2\n      sload\n      dup2\n      0xff\n      mul\n      not\n      and\n      swap1\n      dup4\n      iszero\n      iszero\n      mul\n      or\n      swap1\n      sstore\n      pop\n        /* \"contracts/Ptak.sol\":2848:3000  function insure(uint256 birdId) external {... */\n      pop\n      jump\t// out\n        /* \"contracts/Ptak.sol\":770:1110  function mintBird(SpeciesLibrary.Species species) external onlyPark returns (int) {... */\n    tag_32:\n        /* \"contracts/Ptak.sol\":847:850  int */\n      0x00\n        /* \"contracts/Ptak.sol\":612:624  parkContract */\n      0x02\n      0x00\n      swap1\n      sload\n      swap1\n      0x0100\n      exp\n      swap1\n      div\n      0xffffffffffffffffffffffffffffffffffffffff\n      and\n        /* \"contracts/Ptak.sol\":598:624  msg.sender == parkContract */\n      0xffffffffffffffffffffffffffffffffffffffff\n      and\n        /* \"contracts/Ptak.sol\":598:608  msg.sender */\n      caller\n        /* \"contracts/Ptak.sol\":598:624  msg.sender == parkContract */\n      0xffffffffffffffffffffffffffffffffffffffff\n      and\n      eq\n        /* \"contracts/Ptak.sol\":590:652  require(msg.sender == parkContract, \"Only Park can call this\") */\n      tag_85\n      jumpi\n      mload(0x40)\n      0x08c379a000000000000000000000000000000000000000000000000000000000\n      dup2\n      mstore\n      0x04\n      add\n      tag_86\n      swap1\n      tag_71\n      jump\t// in\n    tag_86:\n      mload(0x40)\n      dup1\n      swap2\n      sub\n      swap1\n      revert\n    tag_85:\n        /* \"contracts/Ptak.sol\":863:901  SpeciesLibrary.SpeciesInfo memory info */\n      0x00\n        /* \"contracts/Ptak.sol\":904:942  SpeciesLibrary.getSpeciesInfo(species) */\n      tag_88\n        /* \"contracts/Ptak.sol\":934:941  species */\n      dup4\n        /* \"contracts/Ptak.sol\":904:933  SpeciesLibrary.getSpeciesInfo */\n      tag_89\n        /* \"contracts/Ptak.sol\":904:942  SpeciesLibrary.getSpeciesInfo(species) */\n      jump\t// in\n    tag_88:\n        /* \"contracts/Ptak.sol\":863:942  SpeciesLibrary.SpeciesInfo memory info = SpeciesLibrary.getSpeciesInfo(species) */\n      swap1\n      pop\n        /* \"contracts/Ptak.sol\":969:1025  BirdData(0, 0, info.maxHealth, species, block.timestamp) */\n      mload(0x40)\n      dup1\n      0xa0\n      add\n      0x40\n      mstore\n      dup1\n        /* \"contracts/Ptak.sol\":978:979  0 */\n      0x00\n        /* \"contracts/Ptak.sol\":969:1025  BirdData(0, 0, info.maxHealth, species, block.timestamp) */\n      dup2\n      mstore\n      0x20\n      add\n        /* \"contracts/Ptak.sol\":981:982  0 */\n      0x00\n        /* \"contracts/Ptak.sol\":969:1025  BirdData(0, 0, info.maxHealth, species, block.timestamp) */\n      dup2\n      mstore\n      0x20\n      add\n        /* \"contracts/Ptak.sol\":984:988  info */\n      dup3\n        /* \"contracts/Ptak.sol\":984:998  info.maxHealth */\n      0x00\n      add\n      mload\n        /* \"contracts/Ptak.sol\":969:1025  BirdData(0, 0, info.maxHealth, species, block.timestamp) */\n      dup2\n      mstore\n      0x20\n      add\n        /* \"contracts/Ptak.sol\":1000:1007  species */\n      dup5\n        /* \"contracts/Ptak.sol\":969:1025  BirdData(0, 0, info.maxHealth, species, block.timestamp) */\n      0x0a\n      dup2\n      gt\n      iszero\n      tag_90\n      jumpi\n      tag_91\n      tag_92\n      jump\t// in\n    tag_91:\n    tag_90:\n      dup2\n      mstore\n      0x20\n      add\n        /* \"contracts/Ptak.sol\":1009:1024  block.timestamp */\n      timestamp\n        /* \"contracts/Ptak.sol\":969:1025  BirdData(0, 0, info.maxHealth, species, block.timestamp) */\n      dup2\n      mstore\n      pop\n        /* \"contracts/Ptak.sol\":953:958  birds */\n      0x00\n        /* \"contracts/Ptak.sol\":953:966  birds[nextId] */\n      0x00\n        /* \"contracts/Ptak.sol\":959:965  nextId */\n      sload(0x01)\n        /* \"contracts/Ptak.sol\":953:966  birds[nextId] */\n      dup2\n      mstore\n      0x20\n      add\n      swap1\n      dup2\n      mstore\n      0x20\n      add\n      0x00\n      keccak256\n        /* \"contracts/Ptak.sol\":953:1025  birds[nextId] = BirdData(0, 0, info.maxHealth, species, block.timestamp) */\n      0x00\n      dup3\n      add\n      mload\n      dup2\n      0x00\n      add\n      sstore\n      0x20\n      dup3\n      add\n      mload\n      dup2\n      0x01\n      add\n      sstore\n      0x40\n      dup3\n      add\n      mload\n      dup2\n      0x02\n      add\n      sstore\n      0x60\n      dup3\n      add\n      mload\n      dup2\n      0x03\n      add\n      exp(0x0100, 0x00)\n      dup2\n      sload\n      dup2\n      0xff\n      mul\n      not\n      and\n      swap1\n      dup4\n      0x0a\n      dup2\n      gt\n      iszero\n      tag_93\n      jumpi\n      tag_94\n      tag_92\n      jump\t// in\n    tag_94:\n    tag_93:\n      mul\n      or\n      swap1\n      sstore\n      pop\n      0x80\n      dup3\n      add\n      mload\n      dup2\n      0x04\n      add\n      sstore\n      swap1\n      pop\n      pop\n        /* \"contracts/Ptak.sol\":1054:1064  msg.sender */\n      caller\n        /* \"contracts/Ptak.sol\":1036:1043  ownerOf */\n      0x04\n        /* \"contracts/Ptak.sol\":1036:1051  ownerOf[nextId] */\n      0x00\n        /* \"contracts/Ptak.sol\":1044:1050  nextId */\n      sload(0x01)\n        /* \"contracts/Ptak.sol\":1036:1051  ownerOf[nextId] */\n      dup2\n      mstore\n      0x20\n      add\n      swap1\n      dup2\n      mstore\n      0x20\n      add\n      0x00\n      keccak256\n      0x00\n        /* \"contracts/Ptak.sol\":1036:1064  ownerOf[nextId] = msg.sender */\n      0x0100\n      exp\n      dup2\n      sload\n      dup2\n      0xffffffffffffffffffffffffffffffffffffffff\n      mul\n      not\n      and\n      swap1\n      dup4\n      0xffffffffffffffffffffffffffffffffffffffff\n      and\n      mul\n      or\n      swap1\n      sstore\n      pop\n        /* \"contracts/Ptak.sol\":1075:1081  nextId */\n      0x01\n      0x00\n        /* \"contracts/Ptak.sol\":1075:1083  nextId++ */\n      dup2\n      sload\n      dup1\n      swap3\n      swap2\n      swap1\n      tag_95\n      swap1\n      tag_96\n      jump\t// in\n    tag_95:\n      swap2\n      swap1\n      pop\n      sstore\n      pop\n        /* \"contracts/Ptak.sol\":1101:1102  0 */\n      0x00\n        /* \"contracts/Ptak.sol\":1094:1102  return 0 */\n      swap2\n      pop\n      pop\n        /* \"contracts/Ptak.sol\":770:1110  function mintBird(SpeciesLibrary.Species species) external onlyPark returns (int) {... */\n      swap2\n      swap1\n      pop\n      jump\t// out\n        /* \"contracts/Ptak.sol\":3148:3318  function setParkContract(address _parkContract) external {... */\n    tag_38:\n        /* \"contracts/Ptak.sol\":3248:3249  0 */\n      0x00\n        /* \"contracts/Ptak.sol\":3224:3250  parkContract == address(0) */\n      0xffffffffffffffffffffffffffffffffffffffff\n      and\n        /* \"contracts/Ptak.sol\":3224:3236  parkContract */\n      0x02\n      0x00\n      swap1\n      sload\n      swap1\n      0x0100\n      exp\n      swap1\n      div\n      0xffffffffffffffffffffffffffffffffffffffff\n      and\n        /* \"contracts/Ptak.sol\":3224:3250  parkContract == address(0) */\n      0xffffffffffffffffffffffffffffffffffffffff\n      and\n      eq\n        /* \"contracts/Ptak.sol\":3216:3271  require(parkContract == address(0), \"Park already set\") */\n      tag_98\n      jumpi\n      mload(0x40)\n      0x08c379a000000000000000000000000000000000000000000000000000000000\n      dup2\n      mstore\n      0x04\n      add\n      tag_99\n      swap1\n      tag_100\n      jump\t// in\n    tag_99:\n      mload(0x40)\n      dup1\n      swap2\n      sub\n      swap1\n      revert\n    tag_98:\n        /* \"contracts/Ptak.sol\":3297:3310  _parkContract */\n      dup1\n        /* \"contracts/Ptak.sol\":3282:3294  parkContract */\n      0x02\n      0x00\n        /* \"contracts/Ptak.sol\":3282:3310  parkContract = _parkContract */\n      0x0100\n      exp\n      dup2\n      sload\n      dup2\n      0xffffffffffffffffffffffffffffffffffffffff\n      mul\n      not\n      and\n      swap1\n      dup4\n      0xffffffffffffffffffffffffffffffffffffffff\n      and\n      mul\n      or\n      swap1\n      sstore\n      pop\n        /* \"contracts/Ptak.sol\":3148:3318  function setParkContract(address _parkContract) external {... */\n      pop\n      jump\t// out\n        /* \"contracts/Ptak.sol\":398:419  uint256 public nextId */\n    tag_40:\n      sload(0x01)\n      dup2\n      jump\t// out\n        /* \"contracts/Ptak.sol\":506:548  mapping(uint256 => address) public ownerOf */\n    tag_45:\n      mstore(0x20, 0x04)\n      dup1\n      0x00\n      mstore\n      keccak256(0x00, 0x40)\n      0x00\n      swap2\n      pop\n      sload\n      swap1\n      0x0100\n      exp\n      swap1\n      div\n      0xffffffffffffffffffffffffffffffffffffffff\n      and\n      dup2\n      jump\t// out\n        /* \"contracts/Ptak.sol\":3008:3140  function getBird(uint256 id) external returns (BirdData memory) {... */\n    tag_50:\n        /* \"contracts/Ptak.sol\":3055:3070  BirdData memory */\n      tag_101\n      tag_102\n      jump\t// in\n    tag_101:\n        /* \"contracts/Ptak.sol\":3083:3105  updateHungerAndAge(id) */\n      tag_104\n        /* \"contracts/Ptak.sol\":3102:3104  id */\n      dup3\n        /* \"contracts/Ptak.sol\":3083:3101  updateHungerAndAge */\n      tag_62\n        /* \"contracts/Ptak.sol\":3083:3105  updateHungerAndAge(id) */\n      jump\t// in\n    tag_104:\n        /* \"contracts/Ptak.sol\":3123:3128  birds */\n      0x00\n        /* \"contracts/Ptak.sol\":3123:3132  birds[id] */\n      0x00\n        /* \"contracts/Ptak.sol\":3129:3131  id */\n      dup4\n        /* \"contracts/Ptak.sol\":3123:3132  birds[id] */\n      dup2\n      mstore\n      0x20\n      add\n      swap1\n      dup2\n      mstore\n      0x20\n      add\n      0x00\n      keccak256\n        /* \"contracts/Ptak.sol\":3116:3132  return birds[id] */\n      mload(0x40)\n      dup1\n      0xa0\n      add\n      0x40\n      mstore\n      swap1\n      dup2\n      0x00\n      dup3\n      add\n      sload\n      dup2\n      mstore\n      0x20\n      add\n      0x01\n      dup3\n      add\n      sload\n      dup2\n      mstore\n      0x20\n      add\n      0x02\n      dup3\n      add\n      sload\n      dup2\n      mstore\n      0x20\n      add\n      0x03\n      dup3\n      add\n      0x00\n      swap1\n      sload\n      swap1\n      0x0100\n      exp\n      swap1\n      div\n      0xff\n      and\n      0x0a\n      dup2\n      gt\n      iszero\n      tag_105\n      jumpi\n      tag_106\n      tag_92\n      jump\t// in\n    tag_106:\n    tag_105:\n      0x0a\n      dup2\n      gt\n      iszero\n      tag_107\n      jumpi\n      tag_108\n      tag_92\n      jump\t// in\n    tag_108:\n    tag_107:\n      dup2\n      mstore\n      0x20\n      add\n      0x04\n      dup3\n      add\n      sload\n      dup2\n      mstore\n      pop\n      pop\n      swap1\n      pop\n        /* \"contracts/Ptak.sol\":3008:3140  function getBird(uint256 id) external returns (BirdData memory) {... */\n      swap2\n      swap1\n      pop\n      jump\t// out\n        /* \"contracts/Ptak.sol\":426:453  address public parkContract */\n    tag_54:\n      0x02\n      0x00\n      swap1\n      sload\n      swap1\n      0x0100\n      exp\n      swap1\n      div\n      0xffffffffffffffffffffffffffffffffffffffff\n      and\n      dup2\n      jump\t// out\n        /* \"contracts/Ptak.sol\":3326:3563  function transferBird(uint256 birdId, address newOwner) external {... */\n    tag_59:\n        /* \"contracts/Ptak.sol\":3429:3439  msg.sender */\n      caller\n        /* \"contracts/Ptak.sol\":3410:3439  ownerOf[birdId] == msg.sender */\n      0xffffffffffffffffffffffffffffffffffffffff\n      and\n        /* \"contracts/Ptak.sol\":3410:3417  ownerOf */\n      0x04\n        /* \"contracts/Ptak.sol\":3410:3425  ownerOf[birdId] */\n      0x00\n        /* \"contracts/Ptak.sol\":3418:3424  birdId */\n      dup5\n        /* \"contracts/Ptak.sol\":3410:3425  ownerOf[birdId] */\n      dup2\n      mstore\n      0x20\n      add\n      swap1\n      dup2\n      mstore\n      0x20\n      add\n      0x00\n      keccak256\n      0x00\n      swap1\n      sload\n      swap1\n      0x0100\n      exp\n      swap1\n      div\n      0xffffffffffffffffffffffffffffffffffffffff\n      and\n        /* \"contracts/Ptak.sol\":3410:3439  ownerOf[birdId] == msg.sender */\n      0xffffffffffffffffffffffffffffffffffffffff\n      and\n      eq\n        /* \"contracts/Ptak.sol\":3402:3457  require(ownerOf[birdId] == msg.sender, \"Not the owner\") */\n      tag_110\n      jumpi\n      mload(0x40)\n      0x08c379a000000000000000000000000000000000000000000000000000000000\n      dup2\n      mstore\n      0x04\n      add\n      tag_111\n      swap1\n      tag_112\n      jump\t// in\n    tag_111:\n      mload(0x40)\n      dup1\n      swap2\n      sub\n      swap1\n      revert\n    tag_110:\n        /* \"contracts/Ptak.sol\":3496:3497  0 */\n      0x00\n        /* \"contracts/Ptak.sol\":3476:3498  newOwner != address(0) */\n      0xffffffffffffffffffffffffffffffffffffffff\n      and\n        /* \"contracts/Ptak.sol\":3476:3484  newOwner */\n      dup2\n        /* \"contracts/Ptak.sol\":3476:3498  newOwner != address(0) */\n      0xffffffffffffffffffffffffffffffffffffffff\n      and\n      sub\n        /* \"contracts/Ptak.sol\":3468:3518  require(newOwner != address(0), \"Invalid address\") */\n      tag_113\n      jumpi\n      mload(0x40)\n      0x08c379a000000000000000000000000000000000000000000000000000000000\n      dup2\n      mstore\n      0x04\n      add\n      tag_114\n      swap1\n      tag_115\n      jump\t// in\n    tag_114:\n      mload(0x40)\n      dup1\n      swap2\n      sub\n      swap1\n      revert\n    tag_113:\n        /* \"contracts/Ptak.sol\":3547:3555  newOwner */\n      dup1\n        /* \"contracts/Ptak.sol\":3529:3536  ownerOf */\n      0x04\n        /* \"contracts/Ptak.sol\":3529:3544  ownerOf[birdId] */\n      0x00\n        /* \"contracts/Ptak.sol\":3537:3543  birdId */\n      dup5\n        /* \"contracts/Ptak.sol\":3529:3544  ownerOf[birdId] */\n      dup2\n      mstore\n      0x20\n      add\n      swap1\n      dup2\n      mstore\n      0x20\n      add\n      0x00\n      keccak256\n      0x00\n        /* \"contracts/Ptak.sol\":3529:3555  ownerOf[birdId] = newOwner */\n      0x0100\n      exp\n      dup2\n      sload\n      dup2\n      0xffffffffffffffffffffffffffffffffffffffff\n      mul\n      not\n      and\n      swap1\n      dup4\n      0xffffffffffffffffffffffffffffffffffffffff\n      and\n      mul\n      or\n      swap1\n      sstore\n      pop\n        /* \"contracts/Ptak.sol\":3326:3563  function transferBird(uint256 birdId, address newOwner) external {... */\n      pop\n      pop\n      jump\t// out\n        /* \"contracts/Ptak.sol\":1118:1964  function updateHungerAndAge(uint256 id) public {... */\n    tag_62:\n        /* \"contracts/Ptak.sol\":1176:1197  BirdData storage bird */\n      0x00\n        /* \"contracts/Ptak.sol\":1200:1205  birds */\n      0x00\n        /* \"contracts/Ptak.sol\":1200:1209  birds[id] */\n      0x00\n        /* \"contracts/Ptak.sol\":1206:1208  id */\n      dup4\n        /* \"contracts/Ptak.sol\":1200:1209  birds[id] */\n      dup2\n      mstore\n      0x20\n      add\n      swap1\n      dup2\n      mstore\n      0x20\n      add\n      0x00\n      keccak256\n        /* \"contracts/Ptak.sol\":1176:1209  BirdData storage bird = birds[id] */\n      swap1\n      pop\n        /* \"contracts/Ptak.sol\":1220:1239  uint256 timeElapsed */\n      0x00\n        /* \"contracts/Ptak.sol\":1260:1264  bird */\n      dup2\n        /* \"contracts/Ptak.sol\":1260:1279  bird.lastUpdateTime */\n      0x04\n      add\n      sload\n        /* \"contracts/Ptak.sol\":1242:1257  block.timestamp */\n      timestamp\n        /* \"contracts/Ptak.sol\":1242:1279  block.timestamp - bird.lastUpdateTime */\n      tag_117\n      swap2\n      swap1\n      tag_78\n      jump\t// in\n    tag_117:\n        /* \"contracts/Ptak.sol\":1220:1279  uint256 timeElapsed = block.timestamp - bird.lastUpdateTime */\n      swap1\n      pop\n        /* \"contracts/Ptak.sol\":1321:1322  0 */\n      0x00\n        /* \"contracts/Ptak.sol\":1307:1318  timeElapsed */\n      dup2\n        /* \"contracts/Ptak.sol\":1307:1322  timeElapsed > 0 */\n      gt\n        /* \"contracts/Ptak.sol\":1304:1957  if(timeElapsed > 0) {... */\n      iszero\n      tag_118\n      jumpi\n        /* \"contracts/Ptak.sol\":1339:1361  uint256 hungerIncrease */\n      0x00\n        /* \"contracts/Ptak.sol\":1442:1446  3600 */\n      0x0e10\n        /* \"contracts/Ptak.sol\":1379:1422  SpeciesLibrary.getSpeciesInfo(bird.species) */\n      tag_119\n        /* \"contracts/Ptak.sol\":1409:1413  bird */\n      dup5\n        /* \"contracts/Ptak.sol\":1409:1421  bird.species */\n      0x03\n      add\n      0x00\n      swap1\n      sload\n      swap1\n      0x0100\n      exp\n      swap1\n      div\n      0xff\n      and\n        /* \"contracts/Ptak.sol\":1379:1408  SpeciesLibrary.getSpeciesInfo */\n      tag_89\n        /* \"contracts/Ptak.sol\":1379:1422  SpeciesLibrary.getSpeciesInfo(bird.species) */\n      jump\t// in\n    tag_119:\n        /* \"contracts/Ptak.sol\":1379:1438  SpeciesLibrary.getSpeciesInfo(bird.species).hungerDecayRate */\n      0x40\n      add\n      mload\n        /* \"contracts/Ptak.sol\":1365:1376  timeElapsed */\n      dup4\n        /* \"contracts/Ptak.sol\":1365:1438  timeElapsed * SpeciesLibrary.getSpeciesInfo(bird.species).hungerDecayRate */\n      tag_120\n      swap2\n      swap1\n      tag_121\n      jump\t// in\n    tag_120:\n        /* \"contracts/Ptak.sol\":1364:1446  (timeElapsed * SpeciesLibrary.getSpeciesInfo(bird.species).hungerDecayRate) / 3600 */\n      tag_122\n      swap2\n      swap1\n      tag_123\n      jump\t// in\n    tag_122:\n        /* \"contracts/Ptak.sol\":1339:1446  uint256 hungerIncrease = (timeElapsed * SpeciesLibrary.getSpeciesInfo(bird.species).hungerDecayRate) / 3600 */\n      swap1\n      pop\n        /* \"contracts/Ptak.sol\":1476:1490  hungerIncrease */\n      dup1\n        /* \"contracts/Ptak.sol\":1461:1465  bird */\n      dup4\n        /* \"contracts/Ptak.sol\":1461:1472  bird.hunger */\n      0x01\n      add\n      0x00\n        /* \"contracts/Ptak.sol\":1461:1490  bird.hunger += hungerIncrease */\n      dup3\n      dup3\n      sload\n      tag_124\n      swap2\n      swap1\n      tag_125\n      jump\t// in\n    tag_124:\n      swap3\n      pop\n      pop\n      dup2\n      swap1\n      sstore\n      pop\n        /* \"contracts/Ptak.sol\":1507:1524  uint256 maxHunger */\n      0x00\n        /* \"contracts/Ptak.sol\":1527:1570  SpeciesLibrary.getSpeciesInfo(bird.species) */\n      tag_126\n        /* \"contracts/Ptak.sol\":1557:1561  bird */\n      dup5\n        /* \"contracts/Ptak.sol\":1557:1569  bird.species */\n      0x03\n      add\n      0x00\n      swap1\n      sload\n      swap1\n      0x0100\n      exp\n      swap1\n      div\n      0xff\n      and\n        /* \"contracts/Ptak.sol\":1527:1556  SpeciesLibrary.getSpeciesInfo */\n      tag_89\n        /* \"contracts/Ptak.sol\":1527:1570  SpeciesLibrary.getSpeciesInfo(bird.species) */\n      jump\t// in\n    tag_126:\n        /* \"contracts/Ptak.sol\":1527:1580  SpeciesLibrary.getSpeciesInfo(bird.species).maxHunger */\n      0x20\n      add\n      mload\n        /* \"contracts/Ptak.sol\":1507:1580  uint256 maxHunger = SpeciesLibrary.getSpeciesInfo(bird.species).maxHunger */\n      swap1\n      pop\n        /* \"contracts/Ptak.sol\":1612:1621  maxHunger */\n      dup1\n        /* \"contracts/Ptak.sol\":1598:1602  bird */\n      dup5\n        /* \"contracts/Ptak.sol\":1598:1609  bird.hunger */\n      0x01\n      add\n      sload\n        /* \"contracts/Ptak.sol\":1598:1621  bird.hunger > maxHunger */\n      gt\n        /* \"contracts/Ptak.sol\":1595:1681  if(bird.hunger > maxHunger) {... */\n      iszero\n      tag_127\n      jumpi\n        /* \"contracts/Ptak.sol\":1656:1665  maxHunger */\n      dup1\n        /* \"contracts/Ptak.sol\":1642:1646  bird */\n      dup5\n        /* \"contracts/Ptak.sol\":1642:1653  bird.hunger */\n      0x01\n      add\n        /* \"contracts/Ptak.sol\":1642:1665  bird.hunger = maxHunger */\n      dup2\n      swap1\n      sstore\n      pop\n        /* \"contracts/Ptak.sol\":1595:1681  if(bird.hunger > maxHunger) {... */\n    tag_127:\n        /* \"contracts/Ptak.sol\":1723:1741  uint256 daysPassed */\n      0x00\n        /* \"contracts/Ptak.sol\":1758:1763  86400 */\n      0x015180\n        /* \"contracts/Ptak.sol\":1744:1755  timeElapsed */\n      dup5\n        /* \"contracts/Ptak.sol\":1744:1763  timeElapsed / 86400 */\n      tag_128\n      swap2\n      swap1\n      tag_123\n      jump\t// in\n    tag_128:\n        /* \"contracts/Ptak.sol\":1723:1763  uint256 daysPassed = timeElapsed / 86400 */\n      swap1\n      pop\n        /* \"contracts/Ptak.sol\":1794:1795  0 */\n      0x00\n        /* \"contracts/Ptak.sol\":1781:1791  daysPassed */\n      dup2\n        /* \"contracts/Ptak.sol\":1781:1795  daysPassed > 0 */\n      gt\n        /* \"contracts/Ptak.sol\":1778:1854  if(daysPassed > 0) {... */\n      iszero\n      tag_129\n      jumpi\n        /* \"contracts/Ptak.sol\":1828:1838  daysPassed */\n      dup1\n        /* \"contracts/Ptak.sol\":1816:1820  bird */\n      dup6\n        /* \"contracts/Ptak.sol\":1816:1824  bird.age */\n      0x00\n      add\n      0x00\n        /* \"contracts/Ptak.sol\":1816:1838  bird.age += daysPassed */\n      dup3\n      dup3\n      sload\n      tag_130\n      swap2\n      swap1\n      tag_125\n      jump\t// in\n    tag_130:\n      swap3\n      pop\n      pop\n      dup2\n      swap1\n      sstore\n      pop\n        /* \"contracts/Ptak.sol\":1778:1854  if(daysPassed > 0) {... */\n    tag_129:\n        /* \"contracts/Ptak.sol\":1892:1907  block.timestamp */\n      timestamp\n        /* \"contracts/Ptak.sol\":1870:1874  bird */\n      dup6\n        /* \"contracts/Ptak.sol\":1870:1889  bird.lastUpdateTime */\n      0x04\n      add\n        /* \"contracts/Ptak.sol\":1870:1907  bird.lastUpdateTime = block.timestamp */\n      dup2\n      swap1\n      sstore\n      pop\n        /* \"contracts/Ptak.sol\":1324:1957  {... */\n      pop\n      pop\n      pop\n        /* \"contracts/Ptak.sol\":1304:1957  if(timeElapsed > 0) {... */\n    tag_118:\n        /* \"contracts/Ptak.sol\":1165:1964  {... */\n      pop\n      pop\n        /* \"contracts/Ptak.sol\":1118:1964  function updateHungerAndAge(uint256 id) public {... */\n      pop\n      jump\t// out\n        /* \"contracts/Ptak.sol\":350:391  mapping(uint256 => BirdData) public birds */\n    tag_65:\n      mstore(0x20, 0x00)\n      dup1\n      0x00\n      mstore\n      keccak256(0x00, 0x40)\n      0x00\n      swap2\n      pop\n      swap1\n      pop\n      dup1\n      0x00\n      add\n      sload\n      swap1\n      dup1\n      0x01\n      add\n      sload\n      swap1\n      dup1\n      0x02\n      add\n      sload\n      swap1\n      dup1\n      0x03\n      add\n      0x00\n      swap1\n      sload\n      swap1\n      0x0100\n      exp\n      swap1\n      div\n      0xff\n      and\n      swap1\n      dup1\n      0x04\n      add\n      sload\n      swap1\n      pop\n      dup6\n      jump\t// out\n        /* \"contracts/Ptak.sol\":1972:2510  function randomPoisoning(uint256 birdId) private {... */\n    tag_75:\n        /* \"contracts/Ptak.sol\":2032:2070  SpeciesLibrary.SpeciesInfo memory info */\n      tag_132\n      tag_133\n      jump\t// in\n    tag_132:\n        /* \"contracts/Ptak.sol\":2081:2107  Ptak.BirdData storage bird */\n      0x00\n        /* \"contracts/Ptak.sol\":2110:2115  birds */\n      0x00\n        /* \"contracts/Ptak.sol\":2110:2123  birds[birdId] */\n      0x00\n        /* \"contracts/Ptak.sol\":2116:2122  birdId */\n      dup5\n        /* \"contracts/Ptak.sol\":2110:2123  birds[birdId] */\n      dup2\n      mstore\n      0x20\n      add\n      swap1\n      dup2\n      mstore\n      0x20\n      add\n      0x00\n      keccak256\n        /* \"contracts/Ptak.sol\":2081:2123  Ptak.BirdData storage bird = birds[birdId] */\n      swap1\n      pop\n        /* \"contracts/Ptak.sol\":2141:2184  SpeciesLibrary.getSpeciesInfo(bird.species) */\n      tag_134\n        /* \"contracts/Ptak.sol\":2171:2175  bird */\n      dup2\n        /* \"contracts/Ptak.sol\":2171:2183  bird.species */\n      0x03\n      add\n      0x00\n      swap1\n      sload\n      swap1\n      0x0100\n      exp\n      swap1\n      div\n      0xff\n      and\n        /* \"contracts/Ptak.sol\":2141:2170  SpeciesLibrary.getSpeciesInfo */\n      tag_89\n        /* \"contracts/Ptak.sol\":2141:2184  SpeciesLibrary.getSpeciesInfo(bird.species) */\n      jump\t// in\n    tag_134:\n        /* \"contracts/Ptak.sol\":2134:2184  info = SpeciesLibrary.getSpeciesInfo(bird.species) */\n      swap2\n      pop\n        /* \"contracts/Ptak.sol\":2201:2208  insured */\n      0x03\n        /* \"contracts/Ptak.sol\":2201:2216  insured[birdId] */\n      0x00\n        /* \"contracts/Ptak.sol\":2209:2215  birdId */\n      dup5\n        /* \"contracts/Ptak.sol\":2201:2216  insured[birdId] */\n      dup2\n      mstore\n      0x20\n      add\n      swap1\n      dup2\n      mstore\n      0x20\n      add\n      0x00\n      keccak256\n      0x00\n      swap1\n      sload\n      swap1\n      0x0100\n      exp\n      swap1\n      div\n      0xff\n      and\n        /* \"contracts/Ptak.sol\":2197:2503  if(!insured[birdId]){... */\n      tag_135\n      jumpi\n        /* \"contracts/Ptak.sol\":2232:2246  uint256 chance */\n      0x00\n        /* \"contracts/Ptak.sol\":2249:2292  SpeciesLibrary.getSpeciesInfo(bird.species) */\n      tag_136\n        /* \"contracts/Ptak.sol\":2279:2283  bird */\n      dup3\n        /* \"contracts/Ptak.sol\":2279:2291  bird.species */\n      0x03\n      add\n      0x00\n      swap1\n      sload\n      swap1\n      0x0100\n      exp\n      swap1\n      div\n      0xff\n      and\n        /* \"contracts/Ptak.sol\":2249:2278  SpeciesLibrary.getSpeciesInfo */\n      tag_89\n        /* \"contracts/Ptak.sol\":2249:2292  SpeciesLibrary.getSpeciesInfo(bird.species) */\n      jump\t// in\n    tag_136:\n        /* \"contracts/Ptak.sol\":2249:2308  SpeciesLibrary.getSpeciesInfo(bird.species).poisoningChance */\n      0x60\n      add\n      mload\n        /* \"contracts/Ptak.sol\":2232:2308  uint256 chance = SpeciesLibrary.getSpeciesInfo(bird.species).poisoningChance */\n      swap1\n      pop\n        /* \"contracts/Ptak.sol\":2323:2335  uint256 rand */\n      0x00\n        /* \"contracts/Ptak.sol\":2402:2405  100 */\n      0x64\n        /* \"contracts/Ptak.sol\":2373:2388  block.timestamp */\n      timestamp\n        /* \"contracts/Ptak.sol\":2390:2396  birdId */\n      dup7\n        /* \"contracts/Ptak.sol\":2356:2397  abi.encodePacked(block.timestamp, birdId) */\n      add(0x20, mload(0x40))\n      tag_137\n      swap3\n      swap2\n      swap1\n      tag_138\n      jump\t// in\n    tag_137:\n      mload(0x40)\n      0x20\n      dup2\n      dup4\n      sub\n      sub\n      dup2\n      mstore\n      swap1\n      0x40\n      mstore\n        /* \"contracts/Ptak.sol\":2346:2398  keccak256(abi.encodePacked(block.timestamp, birdId)) */\n      dup1\n      mload\n      swap1\n      0x20\n      add\n      keccak256\n        /* \"contracts/Ptak.sol\":2338:2399  uint256(keccak256(abi.encodePacked(block.timestamp, birdId))) */\n      0x00\n      shr\n        /* \"contracts/Ptak.sol\":2338:2405  uint256(keccak256(abi.encodePacked(block.timestamp, birdId))) % 100 */\n      tag_139\n      swap2\n      swap1\n      tag_140\n      jump\t// in\n    tag_139:\n        /* \"contracts/Ptak.sol\":2323:2405  uint256 rand = uint256(keccak256(abi.encodePacked(block.timestamp, birdId))) % 100 */\n      swap1\n      pop\n        /* \"contracts/Ptak.sol\":2432:2438  chance */\n      dup2\n        /* \"contracts/Ptak.sol\":2425:2429  rand */\n      dup2\n        /* \"contracts/Ptak.sol\":2425:2438  rand < chance */\n      lt\n        /* \"contracts/Ptak.sol\":2422:2492  if(rand < chance) {... */\n      iszero\n      tag_141\n      jumpi\n        /* \"contracts/Ptak.sol\":2474:2476  25 */\n      0x19\n        /* \"contracts/Ptak.sol\":2459:2463  bird */\n      dup4\n        /* \"contracts/Ptak.sol\":2459:2470  bird.health */\n      0x02\n      add\n      0x00\n        /* \"contracts/Ptak.sol\":2459:2476  bird.health -= 25 */\n      dup3\n      dup3\n      sload\n      tag_142\n      swap2\n      swap1\n      tag_78\n      jump\t// in\n    tag_142:\n      swap3\n      pop\n      pop\n      dup2\n      swap1\n      sstore\n      pop\n        /* \"contracts/Ptak.sol\":2422:2492  if(rand < chance) {... */\n    tag_141:\n        /* \"contracts/Ptak.sol\":2217:2503  {... */\n      pop\n      pop\n        /* \"contracts/Ptak.sol\":2197:2503  if(!insured[birdId]){... */\n    tag_135:\n        /* \"contracts/Ptak.sol\":2021:2510  {... */\n      pop\n      pop\n        /* \"contracts/Ptak.sol\":1972:2510  function randomPoisoning(uint256 birdId) private {... */\n      pop\n      jump\t// out\n        /* \"contracts/SpeciesLibrary.sol\":779:2340  function getSpeciesInfo(Species species) internal pure returns (SpeciesInfo memory) {... */\n    tag_89:\n        /* \"contracts/SpeciesLibrary.sol\":843:861  SpeciesInfo memory */\n      tag_143\n      tag_133\n      jump\t// in\n    tag_143:\n        /* \"contracts/SpeciesLibrary.sol\":889:905  Species.MuteSwan */\n      0x00\n        /* \"contracts/SpeciesLibrary.sol\":878:905  species == Species.MuteSwan */\n      0x0a\n      dup2\n      gt\n      iszero\n      tag_145\n      jumpi\n      tag_146\n      tag_92\n      jump\t// in\n    tag_146:\n    tag_145:\n        /* \"contracts/SpeciesLibrary.sol\":878:885  species */\n      dup3\n        /* \"contracts/SpeciesLibrary.sol\":878:905  species == Species.MuteSwan */\n      0x0a\n      dup2\n      gt\n      iszero\n      tag_147\n      jumpi\n      tag_148\n      tag_92\n      jump\t// in\n    tag_148:\n    tag_147:\n      sub\n        /* \"contracts/SpeciesLibrary.sol\":874:2297  if (species == Species.MuteSwan) {... */\n      tag_149\n      jumpi\n        /* \"contracts/SpeciesLibrary.sol\":929:1053  SpeciesInfo(200, 150, 3, 1, \"https://gateway.pinata.cloud/ipfs/bafybeia3le4astknh2p4mbkd5w42j522tnse4wxk7w5m7wimoqdp6ouzpy\") */\n      mload(0x40)\n      dup1\n      0xa0\n      add\n      0x40\n      mstore\n      dup1\n        /* \"contracts/SpeciesLibrary.sol\":941:944  200 */\n      0xc8\n        /* \"contracts/SpeciesLibrary.sol\":929:1053  SpeciesInfo(200, 150, 3, 1, \"https://gateway.pinata.cloud/ipfs/bafybeia3le4astknh2p4mbkd5w42j522tnse4wxk7w5m7wimoqdp6ouzpy\") */\n      dup2\n      mstore\n      0x20\n      add\n        /* \"contracts/SpeciesLibrary.sol\":946:949  150 */\n      0x96\n        /* \"contracts/SpeciesLibrary.sol\":929:1053  SpeciesInfo(200, 150, 3, 1, \"https://gateway.pinata.cloud/ipfs/bafybeia3le4astknh2p4mbkd5w42j522tnse4wxk7w5m7wimoqdp6ouzpy\") */\n      dup2\n      mstore\n      0x20\n      add\n        /* \"contracts/SpeciesLibrary.sol\":951:952  3 */\n      0x03\n        /* \"contracts/SpeciesLibrary.sol\":929:1053  SpeciesInfo(200, 150, 3, 1, \"https://gateway.pinata.cloud/ipfs/bafybeia3le4astknh2p4mbkd5w42j522tnse4wxk7w5m7wimoqdp6ouzpy\") */\n      dup2\n      mstore\n      0x20\n      add\n        /* \"contracts/SpeciesLibrary.sol\":954:955  1 */\n      0x01\n        /* \"contracts/SpeciesLibrary.sol\":929:1053  SpeciesInfo(200, 150, 3, 1, \"https://gateway.pinata.cloud/ipfs/bafybeia3le4astknh2p4mbkd5w42j522tnse4wxk7w5m7wimoqdp6ouzpy\") */\n      dup2\n      mstore\n      0x20\n      add\n      mload(0x40)\n      dup1\n      0x80\n      add\n      0x40\n      mstore\n      dup1\n      0x5d\n      dup2\n      mstore\n      0x20\n      add\n      data_1ffc5c99f8ff866cb3cb9bd46d45453badb8f26649052a31a9be49b9b43149da\n      0x5d\n      swap2\n      codecopy\n      dup2\n      mstore\n      pop\n        /* \"contracts/SpeciesLibrary.sol\":922:1053  return SpeciesInfo(200, 150, 3, 1, \"https://gateway.pinata.cloud/ipfs/bafybeia3le4astknh2p4mbkd5w42j522tnse4wxk7w5m7wimoqdp6ouzpy\") */\n      swap1\n      pop\n      jump(tag_144)\n        /* \"contracts/SpeciesLibrary.sol\":874:2297  if (species == Species.MuteSwan) {... */\n    tag_149:\n        /* \"contracts/SpeciesLibrary.sol\":1086:1104  Species.WhiteStork */\n      0x01\n        /* \"contracts/SpeciesLibrary.sol\":1075:1104  species == Species.WhiteStork */\n      0x0a\n      dup2\n      gt\n      iszero\n      tag_151\n      jumpi\n      tag_152\n      tag_92\n      jump\t// in\n    tag_152:\n    tag_151:\n        /* \"contracts/SpeciesLibrary.sol\":1075:1082  species */\n      dup3\n        /* \"contracts/SpeciesLibrary.sol\":1075:1104  species == Species.WhiteStork */\n      0x0a\n      dup2\n      gt\n      iszero\n      tag_153\n      jumpi\n      tag_154\n      tag_92\n      jump\t// in\n    tag_154:\n    tag_153:\n      sub\n        /* \"contracts/SpeciesLibrary.sol\":1071:2297  if (species == Species.WhiteStork) {... */\n      tag_155\n      jumpi\n        /* \"contracts/SpeciesLibrary.sol\":1128:1252  SpeciesInfo(220, 200, 2, 5, \"https://gateway.pinata.cloud/ipfs/bafybeigohotok6k3onvtjyypfnbnzbcso2qcixbwz4wh64vp2n3lq7nksa\") */\n      mload(0x40)\n      dup1\n      0xa0\n      add\n      0x40\n      mstore\n      dup1\n        /* \"contracts/SpeciesLibrary.sol\":1140:1143  220 */\n      0xdc\n        /* \"contracts/SpeciesLibrary.sol\":1128:1252  SpeciesInfo(220, 200, 2, 5, \"https://gateway.pinata.cloud/ipfs/bafybeigohotok6k3onvtjyypfnbnzbcso2qcixbwz4wh64vp2n3lq7nksa\") */\n      dup2\n      mstore\n      0x20\n      add\n        /* \"contracts/SpeciesLibrary.sol\":1145:1148  200 */\n      0xc8\n        /* \"contracts/SpeciesLibrary.sol\":1128:1252  SpeciesInfo(220, 200, 2, 5, \"https://gateway.pinata.cloud/ipfs/bafybeigohotok6k3onvtjyypfnbnzbcso2qcixbwz4wh64vp2n3lq7nksa\") */\n      dup2\n      mstore\n      0x20\n      add\n        /* \"contracts/SpeciesLibrary.sol\":1150:1151  2 */\n      0x02\n        /* \"contracts/SpeciesLibrary.sol\":1128:1252  SpeciesInfo(220, 200, 2, 5, \"https://gateway.pinata.cloud/ipfs/bafybeigohotok6k3onvtjyypfnbnzbcso2qcixbwz4wh64vp2n3lq7nksa\") */\n      dup2\n      mstore\n      0x20\n      add\n        /* \"contracts/SpeciesLibrary.sol\":1153:1154  5 */\n      0x05\n        /* \"contracts/SpeciesLibrary.sol\":1128:1252  SpeciesInfo(220, 200, 2, 5, \"https://gateway.pinata.cloud/ipfs/bafybeigohotok6k3onvtjyypfnbnzbcso2qcixbwz4wh64vp2n3lq7nksa\") */\n      dup2\n      mstore\n      0x20\n      add\n      mload(0x40)\n      dup1\n      0x80\n      add\n      0x40\n      mstore\n      dup1\n      0x5d\n      dup2\n      mstore\n      0x20\n      add\n      data_86e92b1a76e2f297d69c89af4232d1b3e647fd322843457f38b762c99d8ee708\n      0x5d\n      swap2\n      codecopy\n      dup2\n      mstore\n      pop\n        /* \"contracts/SpeciesLibrary.sol\":1121:1252  return SpeciesInfo(220, 200, 2, 5, \"https://gateway.pinata.cloud/ipfs/bafybeigohotok6k3onvtjyypfnbnzbcso2qcixbwz4wh64vp2n3lq7nksa\") */\n      swap1\n      pop\n      jump(tag_144)\n        /* \"contracts/SpeciesLibrary.sol\":1071:2297  if (species == Species.WhiteStork) {... */\n    tag_155:\n        /* \"contracts/SpeciesLibrary.sol\":1285:1304  Species.MallardDuck */\n      0x02\n        /* \"contracts/SpeciesLibrary.sol\":1274:1304  species == Species.MallardDuck */\n      0x0a\n      dup2\n      gt\n      iszero\n      tag_157\n      jumpi\n      tag_158\n      tag_92\n      jump\t// in\n    tag_158:\n    tag_157:\n        /* \"contracts/SpeciesLibrary.sol\":1274:1281  species */\n      dup3\n        /* \"contracts/SpeciesLibrary.sol\":1274:1304  species == Species.MallardDuck */\n      0x0a\n      dup2\n      gt\n      iszero\n      tag_159\n      jumpi\n      tag_160\n      tag_92\n      jump\t// in\n    tag_160:\n    tag_159:\n      sub\n        /* \"contracts/SpeciesLibrary.sol\":1270:2297  if (species == Species.MallardDuck) {... */\n      tag_161\n      jumpi\n        /* \"contracts/SpeciesLibrary.sol\":1328:1450  SpeciesInfo(80, 80, 3, 6, \"https://gateway.pinata.cloud/ipfs/bafybeiev7pucz7yh7x6haidmphp5ieobvcfdclnlwjqa2ivs4y357pvwma\") */\n      mload(0x40)\n      dup1\n      0xa0\n      add\n      0x40\n      mstore\n      dup1\n        /* \"contracts/SpeciesLibrary.sol\":1340:1342  80 */\n      0x50\n        /* \"contracts/SpeciesLibrary.sol\":1328:1450  SpeciesInfo(80, 80, 3, 6, \"https://gateway.pinata.cloud/ipfs/bafybeiev7pucz7yh7x6haidmphp5ieobvcfdclnlwjqa2ivs4y357pvwma\") */\n      dup2\n      mstore\n      0x20\n      add\n        /* \"contracts/SpeciesLibrary.sol\":1344:1346  80 */\n      0x50\n        /* \"contracts/SpeciesLibrary.sol\":1328:1450  SpeciesInfo(80, 80, 3, 6, \"https://gateway.pinata.cloud/ipfs/bafybeiev7pucz7yh7x6haidmphp5ieobvcfdclnlwjqa2ivs4y357pvwma\") */\n      dup2\n      mstore\n      0x20\n      add\n        /* \"contracts/SpeciesLibrary.sol\":1348:1349  3 */\n      0x03\n        /* \"contracts/SpeciesLibrary.sol\":1328:1450  SpeciesInfo(80, 80, 3, 6, \"https://gateway.pinata.cloud/ipfs/bafybeiev7pucz7yh7x6haidmphp5ieobvcfdclnlwjqa2ivs4y357pvwma\") */\n      dup2\n      mstore\n      0x20\n      add\n        /* \"contracts/SpeciesLibrary.sol\":1351:1352  6 */\n      0x06\n        /* \"contracts/SpeciesLibrary.sol\":1328:1450  SpeciesInfo(80, 80, 3, 6, \"https://gateway.pinata.cloud/ipfs/bafybeiev7pucz7yh7x6haidmphp5ieobvcfdclnlwjqa2ivs4y357pvwma\") */\n      dup2\n      mstore\n      0x20\n      add\n      mload(0x40)\n      dup1\n      0x80\n      add\n      0x40\n      mstore\n      dup1\n      0x5d\n      dup2\n      mstore\n      0x20\n      add\n      data_3bbf1c81af77207dbf9db8f891697113273de930322fc10149aebcb2d416dad6\n      0x5d\n      swap2\n      codecopy\n      dup2\n      mstore\n      pop\n        /* \"contracts/SpeciesLibrary.sol\":1321:1450  return SpeciesInfo(80, 80, 3, 6, \"https://gateway.pinata.cloud/ipfs/bafybeiev7pucz7yh7x6haidmphp5ieobvcfdclnlwjqa2ivs4y357pvwma\") */\n      swap1\n      pop\n      jump(tag_144)\n        /* \"contracts/SpeciesLibrary.sol\":1270:2297  if (species == Species.MallardDuck) {... */\n    tag_161:\n        /* \"contracts/SpeciesLibrary.sol\":1483:1499  Species.Mythical */\n      0x0a\n        /* \"contracts/SpeciesLibrary.sol\":1472:1499  species == Species.Mythical */\n      dup1\n      dup2\n      gt\n      iszero\n      tag_163\n      jumpi\n      tag_164\n      tag_92\n      jump\t// in\n    tag_164:\n    tag_163:\n        /* \"contracts/SpeciesLibrary.sol\":1472:1479  species */\n      dup3\n        /* \"contracts/SpeciesLibrary.sol\":1472:1499  species == Species.Mythical */\n      0x0a\n      dup2\n      gt\n      iszero\n      tag_165\n      jumpi\n      tag_166\n      tag_92\n      jump\t// in\n    tag_166:\n    tag_165:\n      sub\n        /* \"contracts/SpeciesLibrary.sol\":1468:2297  if (species == Species.Mythical) {... */\n      tag_167\n      jumpi\n        /* \"contracts/SpeciesLibrary.sol\":1523:1554  SpeciesInfo(300, 300, 1, 0, \"\") */\n      mload(0x40)\n      dup1\n      0xa0\n      add\n      0x40\n      mstore\n      dup1\n        /* \"contracts/SpeciesLibrary.sol\":1535:1538  300 */\n      0x012c\n        /* \"contracts/SpeciesLibrary.sol\":1523:1554  SpeciesInfo(300, 300, 1, 0, \"\") */\n      dup2\n      mstore\n      0x20\n      add\n        /* \"contracts/SpeciesLibrary.sol\":1540:1543  300 */\n      0x012c\n        /* \"contracts/SpeciesLibrary.sol\":1523:1554  SpeciesInfo(300, 300, 1, 0, \"\") */\n      dup2\n      mstore\n      0x20\n      add\n        /* \"contracts/SpeciesLibrary.sol\":1545:1546  1 */\n      0x01\n        /* \"contracts/SpeciesLibrary.sol\":1523:1554  SpeciesInfo(300, 300, 1, 0, \"\") */\n      dup2\n      mstore\n      0x20\n      add\n        /* \"contracts/SpeciesLibrary.sol\":1548:1549  0 */\n      0x00\n        /* \"contracts/SpeciesLibrary.sol\":1523:1554  SpeciesInfo(300, 300, 1, 0, \"\") */\n      dup2\n      mstore\n      0x20\n      add\n      mload(0x40)\n      dup1\n      0x20\n      add\n      0x40\n      mstore\n      dup1\n      0x00\n      dup2\n      mstore\n      pop\n      dup2\n      mstore\n      pop\n        /* \"contracts/SpeciesLibrary.sol\":1516:1554  return SpeciesInfo(300, 300, 1, 0, \"\") */\n      swap1\n      pop\n      jump(tag_144)\n        /* \"contracts/SpeciesLibrary.sol\":1468:2297  if (species == Species.Mythical) {... */\n    tag_167:\n        /* \"contracts/SpeciesLibrary.sol\":1587:1604  Species.GreyHeron */\n      0x03\n        /* \"contracts/SpeciesLibrary.sol\":1576:1604  species == Species.GreyHeron */\n      0x0a\n      dup2\n      gt\n      iszero\n      tag_169\n      jumpi\n      tag_170\n      tag_92\n      jump\t// in\n    tag_170:\n    tag_169:\n        /* \"contracts/SpeciesLibrary.sol\":1576:1583  species */\n      dup3\n        /* \"contracts/SpeciesLibrary.sol\":1576:1604  species == Species.GreyHeron */\n      0x0a\n      dup2\n      gt\n      iszero\n      tag_171\n      jumpi\n      tag_172\n      tag_92\n      jump\t// in\n    tag_172:\n    tag_171:\n      sub\n        /* \"contracts/SpeciesLibrary.sol\":1572:2297  if (species == Species.GreyHeron) {... */\n      tag_173\n      jumpi\n        /* \"contracts/SpeciesLibrary.sol\":1628:1658  SpeciesInfo(180, 90, 2, 4, \"\") */\n      mload(0x40)\n      dup1\n      0xa0\n      add\n      0x40\n      mstore\n      dup1\n        /* \"contracts/SpeciesLibrary.sol\":1640:1643  180 */\n      0xb4\n        /* \"contracts/SpeciesLibrary.sol\":1628:1658  SpeciesInfo(180, 90, 2, 4, \"\") */\n      dup2\n      mstore\n      0x20\n      add\n        /* \"contracts/SpeciesLibrary.sol\":1645:1647  90 */\n      0x5a\n        /* \"contracts/SpeciesLibrary.sol\":1628:1658  SpeciesInfo(180, 90, 2, 4, \"\") */\n      dup2\n      mstore\n      0x20\n      add\n        /* \"contracts/SpeciesLibrary.sol\":1649:1650  2 */\n      0x02\n        /* \"contracts/SpeciesLibrary.sol\":1628:1658  SpeciesInfo(180, 90, 2, 4, \"\") */\n      dup2\n      mstore\n      0x20\n      add\n        /* \"contracts/SpeciesLibrary.sol\":1652:1653  4 */\n      0x04\n        /* \"contracts/SpeciesLibrary.sol\":1628:1658  SpeciesInfo(180, 90, 2, 4, \"\") */\n      dup2\n      mstore\n      0x20\n      add\n      mload(0x40)\n      dup1\n      0x20\n      add\n      0x40\n      mstore\n      dup1\n      0x00\n      dup2\n      mstore\n      pop\n      dup2\n      mstore\n      pop\n        /* \"contracts/SpeciesLibrary.sol\":1621:1658  return SpeciesInfo(180, 90, 2, 4, \"\") */\n      swap1\n      pop\n      jump(tag_144)\n        /* \"contracts/SpeciesLibrary.sol\":1572:2297  if (species == Species.GreyHeron) {... */\n    tag_173:\n        /* \"contracts/SpeciesLibrary.sol\":1691:1713  Species.RedNeckedGrebe */\n      0x04\n        /* \"contracts/SpeciesLibrary.sol\":1680:1713  species == Species.RedNeckedGrebe */\n      0x0a\n      dup2\n      gt\n      iszero\n      tag_175\n      jumpi\n      tag_176\n      tag_92\n      jump\t// in\n    tag_176:\n    tag_175:\n        /* \"contracts/SpeciesLibrary.sol\":1680:1687  species */\n      dup3\n        /* \"contracts/SpeciesLibrary.sol\":1680:1713  species == Species.RedNeckedGrebe */\n      0x0a\n      dup2\n      gt\n      iszero\n      tag_177\n      jumpi\n      tag_178\n      tag_92\n      jump\t// in\n    tag_178:\n    tag_177:\n      sub\n        /* \"contracts/SpeciesLibrary.sol\":1676:2297  if (species == Species.RedNeckedGrebe) {... */\n      tag_179\n      jumpi\n        /* \"contracts/SpeciesLibrary.sol\":1737:1766  SpeciesInfo(80, 70, 2, 8, \"\") */\n      mload(0x40)\n      dup1\n      0xa0\n      add\n      0x40\n      mstore\n      dup1\n        /* \"contracts/SpeciesLibrary.sol\":1749:1751  80 */\n      0x50\n        /* \"contracts/SpeciesLibrary.sol\":1737:1766  SpeciesInfo(80, 70, 2, 8, \"\") */\n      dup2\n      mstore\n      0x20\n      add\n        /* \"contracts/SpeciesLibrary.sol\":1753:1755  70 */\n      0x46\n        /* \"contracts/SpeciesLibrary.sol\":1737:1766  SpeciesInfo(80, 70, 2, 8, \"\") */\n      dup2\n      mstore\n      0x20\n      add\n        /* \"contracts/SpeciesLibrary.sol\":1757:1758  2 */\n      0x02\n        /* \"contracts/SpeciesLibrary.sol\":1737:1766  SpeciesInfo(80, 70, 2, 8, \"\") */\n      dup2\n      mstore\n      0x20\n      add\n        /* \"contracts/SpeciesLibrary.sol\":1760:1761  8 */\n      0x08\n        /* \"contracts/SpeciesLibrary.sol\":1737:1766  SpeciesInfo(80, 70, 2, 8, \"\") */\n      dup2\n      mstore\n      0x20\n      add\n      mload(0x40)\n      dup1\n      0x20\n      add\n      0x40\n      mstore\n      dup1\n      0x00\n      dup2\n      mstore\n      pop\n      dup2\n      mstore\n      pop\n        /* \"contracts/SpeciesLibrary.sol\":1730:1766  return SpeciesInfo(80, 70, 2, 8, \"\") */\n      swap1\n      pop\n      jump(tag_144)\n        /* \"contracts/SpeciesLibrary.sol\":1676:2297  if (species == Species.RedNeckedGrebe) {... */\n    tag_179:\n        /* \"contracts/SpeciesLibrary.sol\":1799:1816  Species.WaterRail */\n      0x05\n        /* \"contracts/SpeciesLibrary.sol\":1788:1816  species == Species.WaterRail */\n      0x0a\n      dup2\n      gt\n      iszero\n      tag_181\n      jumpi\n      tag_182\n      tag_92\n      jump\t// in\n    tag_182:\n    tag_181:\n        /* \"contracts/SpeciesLibrary.sol\":1788:1795  species */\n      dup3\n        /* \"contracts/SpeciesLibrary.sol\":1788:1816  species == Species.WaterRail */\n      0x0a\n      dup2\n      gt\n      iszero\n      tag_183\n      jumpi\n      tag_184\n      tag_92\n      jump\t// in\n    tag_184:\n    tag_183:\n      sub\n        /* \"contracts/SpeciesLibrary.sol\":1784:2297  if (species == Species.WaterRail) {... */\n      tag_185\n      jumpi\n        /* \"contracts/SpeciesLibrary.sol\":1840:1869  SpeciesInfo(50, 60, 4, 5, \"\") */\n      mload(0x40)\n      dup1\n      0xa0\n      add\n      0x40\n      mstore\n      dup1\n        /* \"contracts/SpeciesLibrary.sol\":1852:1854  50 */\n      0x32\n        /* \"contracts/SpeciesLibrary.sol\":1840:1869  SpeciesInfo(50, 60, 4, 5, \"\") */\n      dup2\n      mstore\n      0x20\n      add\n        /* \"contracts/SpeciesLibrary.sol\":1856:1858  60 */\n      0x3c\n        /* \"contracts/SpeciesLibrary.sol\":1840:1869  SpeciesInfo(50, 60, 4, 5, \"\") */\n      dup2\n      mstore\n      0x20\n      add\n        /* \"contracts/SpeciesLibrary.sol\":1860:1861  4 */\n      0x04\n        /* \"contracts/SpeciesLibrary.sol\":1840:1869  SpeciesInfo(50, 60, 4, 5, \"\") */\n      dup2\n      mstore\n      0x20\n      add\n        /* \"contracts/SpeciesLibrary.sol\":1863:1864  5 */\n      0x05\n        /* \"contracts/SpeciesLibrary.sol\":1840:1869  SpeciesInfo(50, 60, 4, 5, \"\") */\n      dup2\n      mstore\n      0x20\n      add\n      mload(0x40)\n      dup1\n      0x20\n      add\n      0x40\n      mstore\n      dup1\n      0x00\n      dup2\n      mstore\n      pop\n      dup2\n      mstore\n      pop\n        /* \"contracts/SpeciesLibrary.sol\":1833:1869  return SpeciesInfo(50, 60, 4, 5, \"\") */\n      swap1\n      pop\n      jump(tag_144)\n        /* \"contracts/SpeciesLibrary.sol\":1784:2297  if (species == Species.WaterRail) {... */\n    tag_185:\n        /* \"contracts/SpeciesLibrary.sol\":1902:1920  Species.CommonTern */\n      0x06\n        /* \"contracts/SpeciesLibrary.sol\":1891:1920  species == Species.CommonTern */\n      0x0a\n      dup2\n      gt\n      iszero\n      tag_187\n      jumpi\n      tag_188\n      tag_92\n      jump\t// in\n    tag_188:\n    tag_187:\n        /* \"contracts/SpeciesLibrary.sol\":1891:1898  species */\n      dup3\n        /* \"contracts/SpeciesLibrary.sol\":1891:1920  species == Species.CommonTern */\n      0x0a\n      dup2\n      gt\n      iszero\n      tag_189\n      jumpi\n      tag_190\n      tag_92\n      jump\t// in\n    tag_190:\n    tag_189:\n      sub\n        /* \"contracts/SpeciesLibrary.sol\":1887:2297  if (species == Species.CommonTern) {... */\n      tag_191\n      jumpi\n        /* \"contracts/SpeciesLibrary.sol\":1944:1973  SpeciesInfo(55, 40, 3, 4, \"\") */\n      mload(0x40)\n      dup1\n      0xa0\n      add\n      0x40\n      mstore\n      dup1\n        /* \"contracts/SpeciesLibrary.sol\":1956:1958  55 */\n      0x37\n        /* \"contracts/SpeciesLibrary.sol\":1944:1973  SpeciesInfo(55, 40, 3, 4, \"\") */\n      dup2\n      mstore\n      0x20\n      add\n        /* \"contracts/SpeciesLibrary.sol\":1960:1962  40 */\n      0x28\n        /* \"contracts/SpeciesLibrary.sol\":1944:1973  SpeciesInfo(55, 40, 3, 4, \"\") */\n      dup2\n      mstore\n      0x20\n      add\n        /* \"contracts/SpeciesLibrary.sol\":1964:1965  3 */\n      0x03\n        /* \"contracts/SpeciesLibrary.sol\":1944:1973  SpeciesInfo(55, 40, 3, 4, \"\") */\n      dup2\n      mstore\n      0x20\n      add\n        /* \"contracts/SpeciesLibrary.sol\":1967:1968  4 */\n      0x04\n        /* \"contracts/SpeciesLibrary.sol\":1944:1973  SpeciesInfo(55, 40, 3, 4, \"\") */\n      dup2\n      mstore\n      0x20\n      add\n      mload(0x40)\n      dup1\n      0x20\n      add\n      0x40\n      mstore\n      dup1\n      0x00\n      dup2\n      mstore\n      pop\n      dup2\n      mstore\n      pop\n        /* \"contracts/SpeciesLibrary.sol\":1937:1973  return SpeciesInfo(55, 40, 3, 4, \"\") */\n      swap1\n      pop\n      jump(tag_144)\n        /* \"contracts/SpeciesLibrary.sol\":1887:2297  if (species == Species.CommonTern) {... */\n    tag_191:\n        /* \"contracts/SpeciesLibrary.sol\":2006:2023  Species.Goosander */\n      0x07\n        /* \"contracts/SpeciesLibrary.sol\":1995:2023  species == Species.Goosander */\n      0x0a\n      dup2\n      gt\n      iszero\n      tag_193\n      jumpi\n      tag_194\n      tag_92\n      jump\t// in\n    tag_194:\n    tag_193:\n        /* \"contracts/SpeciesLibrary.sol\":1995:2002  species */\n      dup3\n        /* \"contracts/SpeciesLibrary.sol\":1995:2023  species == Species.Goosander */\n      0x0a\n      dup2\n      gt\n      iszero\n      tag_195\n      jumpi\n      tag_196\n      tag_92\n      jump\t// in\n    tag_196:\n    tag_195:\n      sub\n        /* \"contracts/SpeciesLibrary.sol\":1991:2297  if (species == Species.Goosander) {... */\n      tag_197\n      jumpi\n        /* \"contracts/SpeciesLibrary.sol\":2047:2076  SpeciesInfo(78, 65, 2, 4, \"\") */\n      mload(0x40)\n      dup1\n      0xa0\n      add\n      0x40\n      mstore\n      dup1\n        /* \"contracts/SpeciesLibrary.sol\":2059:2061  78 */\n      0x4e\n        /* \"contracts/SpeciesLibrary.sol\":2047:2076  SpeciesInfo(78, 65, 2, 4, \"\") */\n      dup2\n      mstore\n      0x20\n      add\n        /* \"contracts/SpeciesLibrary.sol\":2063:2065  65 */\n      0x41\n        /* \"contracts/SpeciesLibrary.sol\":2047:2076  SpeciesInfo(78, 65, 2, 4, \"\") */\n      dup2\n      mstore\n      0x20\n      add\n        /* \"contracts/SpeciesLibrary.sol\":2067:2068  2 */\n      0x02\n        /* \"contracts/SpeciesLibrary.sol\":2047:2076  SpeciesInfo(78, 65, 2, 4, \"\") */\n      dup2\n      mstore\n      0x20\n      add\n        /* \"contracts/SpeciesLibrary.sol\":2070:2071  4 */\n      0x04\n        /* \"contracts/SpeciesLibrary.sol\":2047:2076  SpeciesInfo(78, 65, 2, 4, \"\") */\n      dup2\n      mstore\n      0x20\n      add\n      mload(0x40)\n      dup1\n      0x20\n      add\n      0x40\n      mstore\n      dup1\n      0x00\n      dup2\n      mstore\n      pop\n      dup2\n      mstore\n      pop\n        /* \"contracts/SpeciesLibrary.sol\":2040:2076  return SpeciesInfo(78, 65, 2, 4, \"\") */\n      swap1\n      pop\n      jump(tag_144)\n        /* \"contracts/SpeciesLibrary.sol\":1991:2297  if (species == Species.Goosander) {... */\n    tag_197:\n        /* \"contracts/SpeciesLibrary.sol\":2109:2129  Species.GreylagGoose */\n      0x08\n        /* \"contracts/SpeciesLibrary.sol\":2098:2129  species == Species.GreylagGoose */\n      0x0a\n      dup2\n      gt\n      iszero\n      tag_199\n      jumpi\n      tag_200\n      tag_92\n      jump\t// in\n    tag_200:\n    tag_199:\n        /* \"contracts/SpeciesLibrary.sol\":2098:2105  species */\n      dup3\n        /* \"contracts/SpeciesLibrary.sol\":2098:2129  species == Species.GreylagGoose */\n      0x0a\n      dup2\n      gt\n      iszero\n      tag_201\n      jumpi\n      tag_202\n      tag_92\n      jump\t// in\n    tag_202:\n    tag_201:\n      sub\n        /* \"contracts/SpeciesLibrary.sol\":2094:2297  if (species == Species.GreylagGoose) {... */\n      tag_203\n      jumpi\n        /* \"contracts/SpeciesLibrary.sol\":2153:2184  SpeciesInfo(150, 100, 4, 3, \"\") */\n      mload(0x40)\n      dup1\n      0xa0\n      add\n      0x40\n      mstore\n      dup1\n        /* \"contracts/SpeciesLibrary.sol\":2165:2168  150 */\n      0x96\n        /* \"contracts/SpeciesLibrary.sol\":2153:2184  SpeciesInfo(150, 100, 4, 3, \"\") */\n      dup2\n      mstore\n      0x20\n      add\n        /* \"contracts/SpeciesLibrary.sol\":2170:2173  100 */\n      0x64\n        /* \"contracts/SpeciesLibrary.sol\":2153:2184  SpeciesInfo(150, 100, 4, 3, \"\") */\n      dup2\n      mstore\n      0x20\n      add\n        /* \"contracts/SpeciesLibrary.sol\":2175:2176  4 */\n      0x04\n        /* \"contracts/SpeciesLibrary.sol\":2153:2184  SpeciesInfo(150, 100, 4, 3, \"\") */\n      dup2\n      mstore\n      0x20\n      add\n        /* \"contracts/SpeciesLibrary.sol\":2178:2179  3 */\n      0x03\n        /* \"contracts/SpeciesLibrary.sol\":2153:2184  SpeciesInfo(150, 100, 4, 3, \"\") */\n      dup2\n      mstore\n      0x20\n      add\n      mload(0x40)\n      dup1\n      0x20\n      add\n      0x40\n      mstore\n      dup1\n      0x00\n      dup2\n      mstore\n      pop\n      dup2\n      mstore\n      pop\n        /* \"contracts/SpeciesLibrary.sol\":2146:2184  return SpeciesInfo(150, 100, 4, 3, \"\") */\n      swap1\n      pop\n      jump(tag_144)\n        /* \"contracts/SpeciesLibrary.sol\":2094:2297  if (species == Species.GreylagGoose) {... */\n    tag_203:\n        /* \"contracts/SpeciesLibrary.sol\":2217:2232  Species.Moorhen */\n      0x09\n        /* \"contracts/SpeciesLibrary.sol\":2206:2232  species == Species.Moorhen */\n      0x0a\n      dup2\n      gt\n      iszero\n      tag_205\n      jumpi\n      tag_206\n      tag_92\n      jump\t// in\n    tag_206:\n    tag_205:\n        /* \"contracts/SpeciesLibrary.sol\":2206:2213  species */\n      dup3\n        /* \"contracts/SpeciesLibrary.sol\":2206:2232  species == Species.Moorhen */\n      0x0a\n      dup2\n      gt\n      iszero\n      tag_207\n      jumpi\n      tag_208\n      tag_92\n      jump\t// in\n    tag_208:\n    tag_207:\n      sub\n        /* \"contracts/SpeciesLibrary.sol\":2202:2297  if (species == Species.Moorhen) {... */\n      tag_209\n      jumpi\n        /* \"contracts/SpeciesLibrary.sol\":2256:2285  SpeciesInfo(35, 66, 4, 5, \"\") */\n      mload(0x40)\n      dup1\n      0xa0\n      add\n      0x40\n      mstore\n      dup1\n        /* \"contracts/SpeciesLibrary.sol\":2268:2270  35 */\n      0x23\n        /* \"contracts/SpeciesLibrary.sol\":2256:2285  SpeciesInfo(35, 66, 4, 5, \"\") */\n      dup2\n      mstore\n      0x20\n      add\n        /* \"contracts/SpeciesLibrary.sol\":2272:2274  66 */\n      0x42\n        /* \"contracts/SpeciesLibrary.sol\":2256:2285  SpeciesInfo(35, 66, 4, 5, \"\") */\n      dup2\n      mstore\n      0x20\n      add\n        /* \"contracts/SpeciesLibrary.sol\":2276:2277  4 */\n      0x04\n        /* \"contracts/SpeciesLibrary.sol\":2256:2285  SpeciesInfo(35, 66, 4, 5, \"\") */\n      dup2\n      mstore\n      0x20\n      add\n        /* \"contracts/SpeciesLibrary.sol\":2279:2280  5 */\n      0x05\n        /* \"contracts/SpeciesLibrary.sol\":2256:2285  SpeciesInfo(35, 66, 4, 5, \"\") */\n      dup2\n      mstore\n      0x20\n      add\n      mload(0x40)\n      dup1\n      0x20\n      add\n      0x40\n      mstore\n      dup1\n      0x00\n      dup2\n      mstore\n      pop\n      dup2\n      mstore\n      pop\n        /* \"contracts/SpeciesLibrary.sol\":2249:2285  return SpeciesInfo(35, 66, 4, 5, \"\") */\n      swap1\n      pop\n      jump(tag_144)\n        /* \"contracts/SpeciesLibrary.sol\":2202:2297  if (species == Species.Moorhen) {... */\n    tag_209:\n        /* \"contracts/SpeciesLibrary.sol\":2307:2332  revert(\"Unknown species\") */\n      mload(0x40)\n      0x08c379a000000000000000000000000000000000000000000000000000000000\n      dup2\n      mstore\n      0x04\n      add\n      tag_210\n      swap1\n      tag_211\n      jump\t// in\n    tag_210:\n      mload(0x40)\n      dup1\n      swap2\n      sub\n      swap1\n      revert\n        /* \"contracts/SpeciesLibrary.sol\":779:2340  function getSpeciesInfo(Species species) internal pure returns (SpeciesInfo memory) {... */\n    tag_144:\n      swap2\n      swap1\n      pop\n      jump\t// out\n    tag_102:\n      mload(0x40)\n      dup1\n      0xa0\n      add\n      0x40\n      mstore\n      dup1\n      0x00\n      dup2\n      mstore\n      0x20\n      add\n      0x00\n      dup2\n      mstore\n      0x20\n      add\n      0x00\n      dup2\n      mstore\n      0x20\n      add\n      0x00\n      0x0a\n      dup2\n      gt\n      iszero\n      tag_212\n      jumpi\n      tag_213\n      tag_92\n      jump\t// in\n    tag_213:\n    tag_212:\n      dup2\n      mstore\n      0x20\n      add\n      0x00\n      dup2\n      mstore\n      pop\n      swap1\n      jump\t// out\n    tag_133:\n      mload(0x40)\n      dup1\n      0xa0\n      add\n      0x40\n      mstore\n      dup1\n      0x00\n      dup2\n      mstore\n      0x20\n      add\n      0x00\n      dup2\n      mstore\n      0x20\n      add\n      0x00\n      dup2\n      mstore\n      0x20\n      add\n      0x00\n      dup2\n      mstore\n      0x20\n      add\n      0x60\n      dup2\n      mstore\n      pop\n      swap1\n      jump\t// out\n        /* \"#utility.yul\":88:205   */\n    tag_215:\n        /* \"#utility.yul\":197:198   */\n      0x00\n        /* \"#utility.yul\":194:195   */\n      0x00\n        /* \"#utility.yul\":187:199   */\n      revert\n        /* \"#utility.yul\":334:411   */\n    tag_217:\n        /* \"#utility.yul\":371:378   */\n      0x00\n        /* \"#utility.yul\":400:405   */\n      dup2\n        /* \"#utility.yul\":389:405   */\n      swap1\n      pop\n        /* \"#utility.yul\":334:411   */\n      swap2\n      swap1\n      pop\n      jump\t// out\n        /* \"#utility.yul\":417:539   */\n    tag_218:\n        /* \"#utility.yul\":490:514   */\n      tag_262\n        /* \"#utility.yul\":508:513   */\n      dup2\n        /* \"#utility.yul\":490:514   */\n      tag_217\n      jump\t// in\n    tag_262:\n        /* \"#utility.yul\":483:488   */\n      dup2\n        /* \"#utility.yul\":480:515   */\n      eq\n        /* \"#utility.yul\":470:533   */\n      tag_263\n      jumpi\n        /* \"#utility.yul\":529:530   */\n      0x00\n        /* \"#utility.yul\":526:527   */\n      0x00\n        /* \"#utility.yul\":519:531   */\n      revert\n        /* \"#utility.yul\":470:533   */\n    tag_263:\n        /* \"#utility.yul\":417:539   */\n      pop\n      jump\t// out\n        /* \"#utility.yul\":545:684   */\n    tag_219:\n        /* \"#utility.yul\":591:596   */\n      0x00\n        /* \"#utility.yul\":629:635   */\n      dup2\n        /* \"#utility.yul\":616:636   */\n      calldataload\n        /* \"#utility.yul\":607:636   */\n      swap1\n      pop\n        /* \"#utility.yul\":645:678   */\n      tag_265\n        /* \"#utility.yul\":672:677   */\n      dup2\n        /* \"#utility.yul\":645:678   */\n      tag_218\n      jump\t// in\n    tag_265:\n        /* \"#utility.yul\":545:684   */\n      swap3\n      swap2\n      pop\n      pop\n      jump\t// out\n        /* \"#utility.yul\":690:1019   */\n    tag_18:\n        /* \"#utility.yul\":749:755   */\n      0x00\n        /* \"#utility.yul\":798:800   */\n      0x20\n        /* \"#utility.yul\":786:795   */\n      dup3\n        /* \"#utility.yul\":777:784   */\n      dup5\n        /* \"#utility.yul\":773:796   */\n      sub\n        /* \"#utility.yul\":769:801   */\n      slt\n        /* \"#utility.yul\":766:885   */\n      iszero\n      tag_267\n      jumpi\n        /* \"#utility.yul\":804:883   */\n      tag_268\n      tag_215\n      jump\t// in\n    tag_268:\n        /* \"#utility.yul\":766:885   */\n    tag_267:\n        /* \"#utility.yul\":924:925   */\n      0x00\n        /* \"#utility.yul\":949:1002   */\n      tag_269\n        /* \"#utility.yul\":994:1001   */\n      dup5\n        /* \"#utility.yul\":985:991   */\n      dup3\n        /* \"#utility.yul\":974:983   */\n      dup6\n        /* \"#utility.yul\":970:992   */\n      add\n        /* \"#utility.yul\":949:1002   */\n      tag_219\n      jump\t// in\n    tag_269:\n        /* \"#utility.yul\":939:1002   */\n      swap2\n      pop\n        /* \"#utility.yul\":895:1012   */\n      pop\n        /* \"#utility.yul\":690:1019   */\n      swap3\n      swap2\n      pop\n      pop\n      jump\t// out\n        /* \"#utility.yul\":1025:1115   */\n    tag_220:\n        /* \"#utility.yul\":1059:1066   */\n      0x00\n        /* \"#utility.yul\":1102:1107   */\n      dup2\n        /* \"#utility.yul\":1095:1108   */\n      iszero\n        /* \"#utility.yul\":1088:1109   */\n      iszero\n        /* \"#utility.yul\":1077:1109   */\n      swap1\n      pop\n        /* \"#utility.yul\":1025:1115   */\n      swap2\n      swap1\n      pop\n      jump\t// out\n        /* \"#utility.yul\":1121:1230   */\n    tag_221:\n        /* \"#utility.yul\":1202:1223   */\n      tag_272\n        /* \"#utility.yul\":1217:1222   */\n      dup2\n        /* \"#utility.yul\":1202:1223   */\n      tag_220\n      jump\t// in\n    tag_272:\n        /* \"#utility.yul\":1197:1200   */\n      dup3\n        /* \"#utility.yul\":1190:1224   */\n      mstore\n        /* \"#utility.yul\":1121:1230   */\n      pop\n      pop\n      jump\t// out\n        /* \"#utility.yul\":1236:1446   */\n    tag_21:\n        /* \"#utility.yul\":1323:1327   */\n      0x00\n        /* \"#utility.yul\":1361:1363   */\n      0x20\n        /* \"#utility.yul\":1350:1359   */\n      dup3\n        /* \"#utility.yul\":1346:1364   */\n      add\n        /* \"#utility.yul\":1338:1364   */\n      swap1\n      pop\n        /* \"#utility.yul\":1374:1439   */\n      tag_274\n        /* \"#utility.yul\":1436:1437   */\n      0x00\n        /* \"#utility.yul\":1425:1434   */\n      dup4\n        /* \"#utility.yul\":1421:1438   */\n      add\n        /* \"#utility.yul\":1412:1418   */\n      dup5\n        /* \"#utility.yul\":1374:1439   */\n      tag_221\n      jump\t// in\n    tag_274:\n        /* \"#utility.yul\":1236:1446   */\n      swap3\n      swap2\n      pop\n      pop\n      jump\t// out\n        /* \"#utility.yul\":1452:1926   */\n    tag_24:\n        /* \"#utility.yul\":1520:1526   */\n      0x00\n        /* \"#utility.yul\":1528:1534   */\n      0x00\n        /* \"#utility.yul\":1577:1579   */\n      0x40\n        /* \"#utility.yul\":1565:1574   */\n      dup4\n        /* \"#utility.yul\":1556:1563   */\n      dup6\n        /* \"#utility.yul\":1552:1575   */\n      sub\n        /* \"#utility.yul\":1548:1580   */\n      slt\n        /* \"#utility.yul\":1545:1664   */\n      iszero\n      tag_276\n      jumpi\n        /* \"#utility.yul\":1583:1662   */\n      tag_277\n      tag_215\n      jump\t// in\n    tag_277:\n        /* \"#utility.yul\":1545:1664   */\n    tag_276:\n        /* \"#utility.yul\":1703:1704   */\n      0x00\n        /* \"#utility.yul\":1728:1781   */\n      tag_278\n        /* \"#utility.yul\":1773:1780   */\n      dup6\n        /* \"#utility.yul\":1764:1770   */\n      dup3\n        /* \"#utility.yul\":1753:1762   */\n      dup7\n        /* \"#utility.yul\":1749:1771   */\n      add\n        /* \"#utility.yul\":1728:1781   */\n      tag_219\n      jump\t// in\n    tag_278:\n        /* \"#utility.yul\":1718:1781   */\n      swap3\n      pop\n        /* \"#utility.yul\":1674:1791   */\n      pop\n        /* \"#utility.yul\":1830:1832   */\n      0x20\n        /* \"#utility.yul\":1856:1909   */\n      tag_279\n        /* \"#utility.yul\":1901:1908   */\n      dup6\n        /* \"#utility.yul\":1892:1898   */\n      dup3\n        /* \"#utility.yul\":1881:1890   */\n      dup7\n        /* \"#utility.yul\":1877:1899   */\n      add\n        /* \"#utility.yul\":1856:1909   */\n      tag_219\n      jump\t// in\n    tag_279:\n        /* \"#utility.yul\":1846:1909   */\n      swap2\n      pop\n        /* \"#utility.yul\":1801:1919   */\n      pop\n        /* \"#utility.yul\":1452:1926   */\n      swap3\n      pop\n      swap3\n      swap1\n      pop\n      jump\t// out\n        /* \"#utility.yul\":1932:2043   */\n    tag_222:\n        /* \"#utility.yul\":2016:2018   */\n      0x0b\n        /* \"#utility.yul\":2009:2014   */\n      dup2\n        /* \"#utility.yul\":2006:2019   */\n      lt\n        /* \"#utility.yul\":1996:2037   */\n      tag_281\n      jumpi\n        /* \"#utility.yul\":2033:2034   */\n      0x00\n        /* \"#utility.yul\":2030:2031   */\n      0x00\n        /* \"#utility.yul\":2023:2035   */\n      revert\n        /* \"#utility.yul\":1996:2037   */\n    tag_281:\n        /* \"#utility.yul\":1932:2043   */\n      pop\n      jump\t// out\n        /* \"#utility.yul\":2049:2210   */\n    tag_223:\n        /* \"#utility.yul\":2106:2111   */\n      0x00\n        /* \"#utility.yul\":2144:2150   */\n      dup2\n        /* \"#utility.yul\":2131:2151   */\n      calldataload\n        /* \"#utility.yul\":2122:2151   */\n      swap1\n      pop\n        /* \"#utility.yul\":2160:2204   */\n      tag_283\n        /* \"#utility.yul\":2198:2203   */\n      dup2\n        /* \"#utility.yul\":2160:2204   */\n      tag_222\n      jump\t// in\n    tag_283:\n        /* \"#utility.yul\":2049:2210   */\n      swap3\n      swap2\n      pop\n      pop\n      jump\t// out\n        /* \"#utility.yul\":2216:2567   */\n    tag_31:\n        /* \"#utility.yul\":2286:2292   */\n      0x00\n        /* \"#utility.yul\":2335:2337   */\n      0x20\n        /* \"#utility.yul\":2323:2332   */\n      dup3\n        /* \"#utility.yul\":2314:2321   */\n      dup5\n        /* \"#utility.yul\":2310:2333   */\n      sub\n        /* \"#utility.yul\":2306:2338   */\n      slt\n        /* \"#utility.yul\":2303:2422   */\n      iszero\n      tag_285\n      jumpi\n        /* \"#utility.yul\":2341:2420   */\n      tag_286\n      tag_215\n      jump\t// in\n    tag_286:\n        /* \"#utility.yul\":2303:2422   */\n    tag_285:\n        /* \"#utility.yul\":2461:2462   */\n      0x00\n        /* \"#utility.yul\":2486:2550   */\n      tag_287\n        /* \"#utility.yul\":2542:2549   */\n      dup5\n        /* \"#utility.yul\":2533:2539   */\n      dup3\n        /* \"#utility.yul\":2522:2531   */\n      dup6\n        /* \"#utility.yul\":2518:2540   */\n      add\n        /* \"#utility.yul\":2486:2550   */\n      tag_223\n      jump\t// in\n    tag_287:\n        /* \"#utility.yul\":2476:2550   */\n      swap2\n      pop\n        /* \"#utility.yul\":2432:2560   */\n      pop\n        /* \"#utility.yul\":2216:2567   */\n      swap3\n      swap2\n      pop\n      pop\n      jump\t// out\n        /* \"#utility.yul\":2573:2649   */\n    tag_224:\n        /* \"#utility.yul\":2609:2616   */\n      0x00\n        /* \"#utility.yul\":2638:2643   */\n      dup2\n        /* \"#utility.yul\":2627:2643   */\n      swap1\n      pop\n        /* \"#utility.yul\":2573:2649   */\n      swap2\n      swap1\n      pop\n      jump\t// out\n        /* \"#utility.yul\":2655:2770   */\n    tag_225:\n        /* \"#utility.yul\":2740:2763   */\n      tag_290\n        /* \"#utility.yul\":2757:2762   */\n      dup2\n        /* \"#utility.yul\":2740:2763   */\n      tag_224\n      jump\t// in\n    tag_290:\n        /* \"#utility.yul\":2735:2738   */\n      dup3\n        /* \"#utility.yul\":2728:2764   */\n      mstore\n        /* \"#utility.yul\":2655:2770   */\n      pop\n      pop\n      jump\t// out\n        /* \"#utility.yul\":2776:2994   */\n    tag_34:\n        /* \"#utility.yul\":2867:2871   */\n      0x00\n        /* \"#utility.yul\":2905:2907   */\n      0x20\n        /* \"#utility.yul\":2894:2903   */\n      dup3\n        /* \"#utility.yul\":2890:2908   */\n      add\n        /* \"#utility.yul\":2882:2908   */\n      swap1\n      pop\n        /* \"#utility.yul\":2918:2987   */\n      tag_292\n        /* \"#utility.yul\":2984:2985   */\n      0x00\n        /* \"#utility.yul\":2973:2982   */\n      dup4\n        /* \"#utility.yul\":2969:2986   */\n      add\n        /* \"#utility.yul\":2960:2966   */\n      dup5\n        /* \"#utility.yul\":2918:2987   */\n      tag_225\n      jump\t// in\n    tag_292:\n        /* \"#utility.yul\":2776:2994   */\n      swap3\n      swap2\n      pop\n      pop\n      jump\t// out\n        /* \"#utility.yul\":3000:3126   */\n    tag_226:\n        /* \"#utility.yul\":3037:3044   */\n      0x00\n        /* \"#utility.yul\":3077:3119   */\n      0xffffffffffffffffffffffffffffffffffffffff\n        /* \"#utility.yul\":3070:3075   */\n      dup3\n        /* \"#utility.yul\":3066:3120   */\n      and\n        /* \"#utility.yul\":3055:3120   */\n      swap1\n      pop\n        /* \"#utility.yul\":3000:3126   */\n      swap2\n      swap1\n      pop\n      jump\t// out\n        /* \"#utility.yul\":3132:3228   */\n    tag_227:\n        /* \"#utility.yul\":3169:3176   */\n      0x00\n        /* \"#utility.yul\":3198:3222   */\n      tag_295\n        /* \"#utility.yul\":3216:3221   */\n      dup3\n        /* \"#utility.yul\":3198:3222   */\n      tag_226\n      jump\t// in\n    tag_295:\n        /* \"#utility.yul\":3187:3222   */\n      swap1\n      pop\n        /* \"#utility.yul\":3132:3228   */\n      swap2\n      swap1\n      pop\n      jump\t// out\n        /* \"#utility.yul\":3234:3356   */\n    tag_228:\n        /* \"#utility.yul\":3307:3331   */\n      tag_297\n        /* \"#utility.yul\":3325:3330   */\n      dup2\n        /* \"#utility.yul\":3307:3331   */\n      tag_227\n      jump\t// in\n    tag_297:\n        /* \"#utility.yul\":3300:3305   */\n      dup2\n        /* \"#utility.yul\":3297:3332   */\n      eq\n        /* \"#utility.yul\":3287:3350   */\n      tag_298\n      jumpi\n        /* \"#utility.yul\":3346:3347   */\n      0x00\n        /* \"#utility.yul\":3343:3344   */\n      0x00\n        /* \"#utility.yul\":3336:3348   */\n      revert\n        /* \"#utility.yul\":3287:3350   */\n    tag_298:\n        /* \"#utility.yul\":3234:3356   */\n      pop\n      jump\t// out\n        /* \"#utility.yul\":3362:3501   */\n    tag_229:\n        /* \"#utility.yul\":3408:3413   */\n      0x00\n        /* \"#utility.yul\":3446:3452   */\n      dup2\n        /* \"#utility.yul\":3433:3453   */\n      calldataload\n        /* \"#utility.yul\":3424:3453   */\n      swap1\n      pop\n        /* \"#utility.yul\":3462:3495   */\n      tag_300\n        /* \"#utility.yul\":3489:3494   */\n      dup2\n        /* \"#utility.yul\":3462:3495   */\n      tag_228\n      jump\t// in\n    tag_300:\n        /* \"#utility.yul\":3362:3501   */\n      swap3\n      swap2\n      pop\n      pop\n      jump\t// out\n        /* \"#utility.yul\":3507:3836   */\n    tag_37:\n        /* \"#utility.yul\":3566:3572   */\n      0x00\n        /* \"#utility.yul\":3615:3617   */\n      0x20\n        /* \"#utility.yul\":3603:3612   */\n      dup3\n        /* \"#utility.yul\":3594:3601   */\n      dup5\n        /* \"#utility.yul\":3590:3613   */\n      sub\n        /* \"#utility.yul\":3586:3618   */\n      slt\n        /* \"#utility.yul\":3583:3702   */\n      iszero\n      tag_302\n      jumpi\n        /* \"#utility.yul\":3621:3700   */\n      tag_303\n      tag_215\n      jump\t// in\n    tag_303:\n        /* \"#utility.yul\":3583:3702   */\n    tag_302:\n        /* \"#utility.yul\":3741:3742   */\n      0x00\n        /* \"#utility.yul\":3766:3819   */\n      tag_304\n        /* \"#utility.yul\":3811:3818   */\n      dup5\n        /* \"#utility.yul\":3802:3808   */\n      dup3\n        /* \"#utility.yul\":3791:3800   */\n      dup6\n        /* \"#utility.yul\":3787:3809   */\n      add\n        /* \"#utility.yul\":3766:3819   */\n      tag_229\n      jump\t// in\n    tag_304:\n        /* \"#utility.yul\":3756:3819   */\n      swap2\n      pop\n        /* \"#utility.yul\":3712:3829   */\n      pop\n        /* \"#utility.yul\":3507:3836   */\n      swap3\n      swap2\n      pop\n      pop\n      jump\t// out\n        /* \"#utility.yul\":3842:3960   */\n    tag_230:\n        /* \"#utility.yul\":3929:3953   */\n      tag_306\n        /* \"#utility.yul\":3947:3952   */\n      dup2\n        /* \"#utility.yul\":3929:3953   */\n      tag_217\n      jump\t// in\n    tag_306:\n        /* \"#utility.yul\":3924:3927   */\n      dup3\n        /* \"#utility.yul\":3917:3954   */\n      mstore\n        /* \"#utility.yul\":3842:3960   */\n      pop\n      pop\n      jump\t// out\n        /* \"#utility.yul\":3966:4188   */\n    tag_42:\n        /* \"#utility.yul\":4059:4063   */\n      0x00\n        /* \"#utility.yul\":4097:4099   */\n      0x20\n        /* \"#utility.yul\":4086:4095   */\n      dup3\n        /* \"#utility.yul\":4082:4100   */\n      add\n        /* \"#utility.yul\":4074:4100   */\n      swap1\n      pop\n        /* \"#utility.yul\":4110:4181   */\n      tag_308\n        /* \"#utility.yul\":4178:4179   */\n      0x00\n        /* \"#utility.yul\":4167:4176   */\n      dup4\n        /* \"#utility.yul\":4163:4180   */\n      add\n        /* \"#utility.yul\":4154:4160   */\n      dup5\n        /* \"#utility.yul\":4110:4181   */\n      tag_230\n      jump\t// in\n    tag_308:\n        /* \"#utility.yul\":3966:4188   */\n      swap3\n      swap2\n      pop\n      pop\n      jump\t// out\n        /* \"#utility.yul\":4194:4312   */\n    tag_231:\n        /* \"#utility.yul\":4281:4305   */\n      tag_310\n        /* \"#utility.yul\":4299:4304   */\n      dup2\n        /* \"#utility.yul\":4281:4305   */\n      tag_227\n      jump\t// in\n    tag_310:\n        /* \"#utility.yul\":4276:4279   */\n      dup3\n        /* \"#utility.yul\":4269:4306   */\n      mstore\n        /* \"#utility.yul\":4194:4312   */\n      pop\n      pop\n      jump\t// out\n        /* \"#utility.yul\":4318:4540   */\n    tag_47:\n        /* \"#utility.yul\":4411:4415   */\n      0x00\n        /* \"#utility.yul\":4449:4451   */\n      0x20\n        /* \"#utility.yul\":4438:4447   */\n      dup3\n        /* \"#utility.yul\":4434:4452   */\n      add\n        /* \"#utility.yul\":4426:4452   */\n      swap1\n      pop\n        /* \"#utility.yul\":4462:4533   */\n      tag_312\n        /* \"#utility.yul\":4530:4531   */\n      0x00\n        /* \"#utility.yul\":4519:4528   */\n      dup4\n        /* \"#utility.yul\":4515:4532   */\n      add\n        /* \"#utility.yul\":4506:4512   */\n      dup5\n        /* \"#utility.yul\":4462:4533   */\n      tag_231\n      jump\t// in\n    tag_312:\n        /* \"#utility.yul\":4318:4540   */\n      swap3\n      swap2\n      pop\n      pop\n      jump\t// out\n        /* \"#utility.yul\":4546:4654   */\n    tag_232:\n        /* \"#utility.yul\":4623:4647   */\n      tag_314\n        /* \"#utility.yul\":4641:4646   */\n      dup2\n        /* \"#utility.yul\":4623:4647   */\n      tag_217\n      jump\t// in\n    tag_314:\n        /* \"#utility.yul\":4618:4621   */\n      dup3\n        /* \"#utility.yul\":4611:4648   */\n      mstore\n        /* \"#utility.yul\":4546:4654   */\n      pop\n      pop\n      jump\t// out\n        /* \"#utility.yul\":4660:4840   */\n    tag_92:\n        /* \"#utility.yul\":4708:4785   */\n      0x4e487b7100000000000000000000000000000000000000000000000000000000\n        /* \"#utility.yul\":4705:4706   */\n      0x00\n        /* \"#utility.yul\":4698:4786   */\n      mstore\n        /* \"#utility.yul\":4805:4809   */\n      0x21\n        /* \"#utility.yul\":4802:4803   */\n      0x04\n        /* \"#utility.yul\":4795:4810   */\n      mstore\n        /* \"#utility.yul\":4829:4833   */\n      0x24\n        /* \"#utility.yul\":4826:4827   */\n      0x00\n        /* \"#utility.yul\":4819:4834   */\n      revert\n        /* \"#utility.yul\":4846:4963   */\n    tag_233:\n        /* \"#utility.yul\":4930:4932   */\n      0x0b\n        /* \"#utility.yul\":4923:4928   */\n      dup2\n        /* \"#utility.yul\":4920:4933   */\n      lt\n        /* \"#utility.yul\":4910:4957   */\n      tag_317\n      jumpi\n        /* \"#utility.yul\":4937:4955   */\n      tag_318\n      tag_92\n      jump\t// in\n    tag_318:\n        /* \"#utility.yul\":4910:4957   */\n    tag_317:\n        /* \"#utility.yul\":4846:4963   */\n      pop\n      jump\t// out\n        /* \"#utility.yul\":4969:5102   */\n    tag_234:\n        /* \"#utility.yul\":5017:5024   */\n      0x00\n        /* \"#utility.yul\":5046:5051   */\n      dup2\n        /* \"#utility.yul\":5035:5051   */\n      swap1\n      pop\n        /* \"#utility.yul\":5052:5096   */\n      tag_320\n        /* \"#utility.yul\":5090:5095   */\n      dup3\n        /* \"#utility.yul\":5052:5096   */\n      tag_233\n      jump\t// in\n    tag_320:\n        /* \"#utility.yul\":4969:5102   */\n      swap2\n      swap1\n      pop\n      jump\t// out\n        /* \"#utility.yul\":5108:5241   */\n    tag_235:\n        /* \"#utility.yul\":5167:5176   */\n      0x00\n        /* \"#utility.yul\":5200:5235   */\n      tag_322\n        /* \"#utility.yul\":5229:5234   */\n      dup3\n        /* \"#utility.yul\":5200:5235   */\n      tag_234\n      jump\t// in\n    tag_322:\n        /* \"#utility.yul\":5187:5235   */\n      swap1\n      pop\n        /* \"#utility.yul\":5108:5241   */\n      swap2\n      swap1\n      pop\n      jump\t// out\n        /* \"#utility.yul\":5247:5386   */\n    tag_236:\n        /* \"#utility.yul\":5333:5379   */\n      tag_324\n        /* \"#utility.yul\":5373:5378   */\n      dup2\n        /* \"#utility.yul\":5333:5379   */\n      tag_235\n      jump\t// in\n    tag_324:\n        /* \"#utility.yul\":5328:5331   */\n      dup3\n        /* \"#utility.yul\":5321:5380   */\n      mstore\n        /* \"#utility.yul\":5247:5386   */\n      pop\n      pop\n      jump\t// out\n        /* \"#utility.yul\":5444:6496   */\n    tag_237:\n        /* \"#utility.yul\":5589:5593   */\n      0xa0\n        /* \"#utility.yul\":5584:5587   */\n      dup3\n        /* \"#utility.yul\":5580:5594   */\n      add\n        /* \"#utility.yul\":5675:5679   */\n      0x00\n        /* \"#utility.yul\":5668:5673   */\n      dup3\n        /* \"#utility.yul\":5664:5680   */\n      add\n        /* \"#utility.yul\":5658:5681   */\n      mload\n        /* \"#utility.yul\":5694:5757   */\n      tag_326\n        /* \"#utility.yul\":5751:5755   */\n      0x00\n        /* \"#utility.yul\":5746:5749   */\n      dup6\n        /* \"#utility.yul\":5742:5756   */\n      add\n        /* \"#utility.yul\":5728:5740   */\n      dup3\n        /* \"#utility.yul\":5694:5757   */\n      tag_232\n      jump\t// in\n    tag_326:\n        /* \"#utility.yul\":5604:5767   */\n      pop\n        /* \"#utility.yul\":5851:5855   */\n      0x20\n        /* \"#utility.yul\":5844:5849   */\n      dup3\n        /* \"#utility.yul\":5840:5856   */\n      add\n        /* \"#utility.yul\":5834:5857   */\n      mload\n        /* \"#utility.yul\":5870:5933   */\n      tag_327\n        /* \"#utility.yul\":5927:5931   */\n      0x20\n        /* \"#utility.yul\":5922:5925   */\n      dup6\n        /* \"#utility.yul\":5918:5932   */\n      add\n        /* \"#utility.yul\":5904:5916   */\n      dup3\n        /* \"#utility.yul\":5870:5933   */\n      tag_232\n      jump\t// in\n    tag_327:\n        /* \"#utility.yul\":5777:5943   */\n      pop\n        /* \"#utility.yul\":6027:6031   */\n      0x40\n        /* \"#utility.yul\":6020:6025   */\n      dup3\n        /* \"#utility.yul\":6016:6032   */\n      add\n        /* \"#utility.yul\":6010:6033   */\n      mload\n        /* \"#utility.yul\":6046:6109   */\n      tag_328\n        /* \"#utility.yul\":6103:6107   */\n      0x40\n        /* \"#utility.yul\":6098:6101   */\n      dup6\n        /* \"#utility.yul\":6094:6108   */\n      add\n        /* \"#utility.yul\":6080:6092   */\n      dup3\n        /* \"#utility.yul\":6046:6109   */\n      tag_232\n      jump\t// in\n    tag_328:\n        /* \"#utility.yul\":5953:6119   */\n      pop\n        /* \"#utility.yul\":6204:6208   */\n      0x60\n        /* \"#utility.yul\":6197:6202   */\n      dup3\n        /* \"#utility.yul\":6193:6209   */\n      add\n        /* \"#utility.yul\":6187:6210   */\n      mload\n        /* \"#utility.yul\":6223:6295   */\n      tag_329\n        /* \"#utility.yul\":6289:6293   */\n      0x60\n        /* \"#utility.yul\":6284:6287   */\n      dup6\n        /* \"#utility.yul\":6280:6294   */\n      add\n        /* \"#utility.yul\":6266:6278   */\n      dup3\n        /* \"#utility.yul\":6223:6295   */\n      tag_236\n      jump\t// in\n    tag_329:\n        /* \"#utility.yul\":6129:6305   */\n      pop\n        /* \"#utility.yul\":6397:6401   */\n      0x80\n        /* \"#utility.yul\":6390:6395   */\n      dup3\n        /* \"#utility.yul\":6386:6402   */\n      add\n        /* \"#utility.yul\":6380:6403   */\n      mload\n        /* \"#utility.yul\":6416:6479   */\n      tag_330\n        /* \"#utility.yul\":6473:6477   */\n      0x80\n        /* \"#utility.yul\":6468:6471   */\n      dup6\n        /* \"#utility.yul\":6464:6478   */\n      add\n        /* \"#utility.yul\":6450:6462   */\n      dup3\n        /* \"#utility.yul\":6416:6479   */\n      tag_232\n      jump\t// in\n    tag_330:\n        /* \"#utility.yul\":6315:6489   */\n      pop\n        /* \"#utility.yul\":5558:6496   */\n      pop\n        /* \"#utility.yul\":5444:6496   */\n      pop\n      pop\n      jump\t// out\n        /* \"#utility.yul\":6502:6821   */\n    tag_52:\n        /* \"#utility.yul\":6643:6647   */\n      0x00\n        /* \"#utility.yul\":6681:6684   */\n      0xa0\n        /* \"#utility.yul\":6670:6679   */\n      dup3\n        /* \"#utility.yul\":6666:6685   */\n      add\n        /* \"#utility.yul\":6658:6685   */\n      swap1\n      pop\n        /* \"#utility.yul\":6695:6814   */\n      tag_332\n        /* \"#utility.yul\":6811:6812   */\n      0x00\n        /* \"#utility.yul\":6800:6809   */\n      dup4\n        /* \"#utility.yul\":6796:6813   */\n      add\n        /* \"#utility.yul\":6787:6793   */\n      dup5\n        /* \"#utility.yul\":6695:6814   */\n      tag_237\n      jump\t// in\n    tag_332:\n        /* \"#utility.yul\":6502:6821   */\n      swap3\n      swap2\n      pop\n      pop\n      jump\t// out\n        /* \"#utility.yul\":6827:7301   */\n    tag_58:\n        /* \"#utility.yul\":6895:6901   */\n      0x00\n        /* \"#utility.yul\":6903:6909   */\n      0x00\n        /* \"#utility.yul\":6952:6954   */\n      0x40\n        /* \"#utility.yul\":6940:6949   */\n      dup4\n        /* \"#utility.yul\":6931:6938   */\n      dup6\n        /* \"#utility.yul\":6927:6950   */\n      sub\n        /* \"#utility.yul\":6923:6955   */\n      slt\n        /* \"#utility.yul\":6920:7039   */\n      iszero\n      tag_334\n      jumpi\n        /* \"#utility.yul\":6958:7037   */\n      tag_335\n      tag_215\n      jump\t// in\n    tag_335:\n        /* \"#utility.yul\":6920:7039   */\n    tag_334:\n        /* \"#utility.yul\":7078:7079   */\n      0x00\n        /* \"#utility.yul\":7103:7156   */\n      tag_336\n        /* \"#utility.yul\":7148:7155   */\n      dup6\n        /* \"#utility.yul\":7139:7145   */\n      dup3\n        /* \"#utility.yul\":7128:7137   */\n      dup7\n        /* \"#utility.yul\":7124:7146   */\n      add\n        /* \"#utility.yul\":7103:7156   */\n      tag_219\n      jump\t// in\n    tag_336:\n        /* \"#utility.yul\":7093:7156   */\n      swap3\n      pop\n        /* \"#utility.yul\":7049:7166   */\n      pop\n        /* \"#utility.yul\":7205:7207   */\n      0x20\n        /* \"#utility.yul\":7231:7284   */\n      tag_337\n        /* \"#utility.yul\":7276:7283   */\n      dup6\n        /* \"#utility.yul\":7267:7273   */\n      dup3\n        /* \"#utility.yul\":7256:7265   */\n      dup7\n        /* \"#utility.yul\":7252:7274   */\n      add\n        /* \"#utility.yul\":7231:7284   */\n      tag_229\n      jump\t// in\n    tag_337:\n        /* \"#utility.yul\":7221:7284   */\n      swap2\n      pop\n        /* \"#utility.yul\":7176:7294   */\n      pop\n        /* \"#utility.yul\":6827:7301   */\n      swap3\n      pop\n      swap3\n      swap1\n      pop\n      jump\t// out\n        /* \"#utility.yul\":7307:7456   */\n    tag_238:\n        /* \"#utility.yul\":7403:7449   */\n      tag_339\n        /* \"#utility.yul\":7443:7448   */\n      dup2\n        /* \"#utility.yul\":7403:7449   */\n      tag_235\n      jump\t// in\n    tag_339:\n        /* \"#utility.yul\":7398:7401   */\n      dup3\n        /* \"#utility.yul\":7391:7450   */\n      mstore\n        /* \"#utility.yul\":7307:7456   */\n      pop\n      pop\n      jump\t// out\n        /* \"#utility.yul\":7462:8144   */\n    tag_67:\n        /* \"#utility.yul\":7676:7680   */\n      0x00\n        /* \"#utility.yul\":7714:7717   */\n      0xa0\n        /* \"#utility.yul\":7703:7712   */\n      dup3\n        /* \"#utility.yul\":7699:7718   */\n      add\n        /* \"#utility.yul\":7691:7718   */\n      swap1\n      pop\n        /* \"#utility.yul\":7728:7799   */\n      tag_341\n        /* \"#utility.yul\":7796:7797   */\n      0x00\n        /* \"#utility.yul\":7785:7794   */\n      dup4\n        /* \"#utility.yul\":7781:7798   */\n      add\n        /* \"#utility.yul\":7772:7778   */\n      dup9\n        /* \"#utility.yul\":7728:7799   */\n      tag_230\n      jump\t// in\n    tag_341:\n        /* \"#utility.yul\":7809:7881   */\n      tag_342\n        /* \"#utility.yul\":7877:7879   */\n      0x20\n        /* \"#utility.yul\":7866:7875   */\n      dup4\n        /* \"#utility.yul\":7862:7880   */\n      add\n        /* \"#utility.yul\":7853:7859   */\n      dup8\n        /* \"#utility.yul\":7809:7881   */\n      tag_230\n      jump\t// in\n    tag_342:\n        /* \"#utility.yul\":7891:7963   */\n      tag_343\n        /* \"#utility.yul\":7959:7961   */\n      0x40\n        /* \"#utility.yul\":7948:7957   */\n      dup4\n        /* \"#utility.yul\":7944:7962   */\n      add\n        /* \"#utility.yul\":7935:7941   */\n      dup7\n        /* \"#utility.yul\":7891:7963   */\n      tag_230\n      jump\t// in\n    tag_343:\n        /* \"#utility.yul\":7973:8054   */\n      tag_344\n        /* \"#utility.yul\":8050:8052   */\n      0x60\n        /* \"#utility.yul\":8039:8048   */\n      dup4\n        /* \"#utility.yul\":8035:8053   */\n      add\n        /* \"#utility.yul\":8026:8032   */\n      dup6\n        /* \"#utility.yul\":7973:8054   */\n      tag_238\n      jump\t// in\n    tag_344:\n        /* \"#utility.yul\":8064:8137   */\n      tag_345\n        /* \"#utility.yul\":8132:8135   */\n      0x80\n        /* \"#utility.yul\":8121:8130   */\n      dup4\n        /* \"#utility.yul\":8117:8136   */\n      add\n        /* \"#utility.yul\":8108:8114   */\n      dup5\n        /* \"#utility.yul\":8064:8137   */\n      tag_230\n      jump\t// in\n    tag_345:\n        /* \"#utility.yul\":7462:8144   */\n      swap7\n      swap6\n      pop\n      pop\n      pop\n      pop\n      pop\n      pop\n      jump\t// out\n        /* \"#utility.yul\":8150:8319   */\n    tag_239:\n        /* \"#utility.yul\":8234:8245   */\n      0x00\n        /* \"#utility.yul\":8268:8274   */\n      dup3\n        /* \"#utility.yul\":8263:8266   */\n      dup3\n        /* \"#utility.yul\":8256:8275   */\n      mstore\n        /* \"#utility.yul\":8308:8312   */\n      0x20\n        /* \"#utility.yul\":8303:8306   */\n      dup3\n        /* \"#utility.yul\":8299:8313   */\n      add\n        /* \"#utility.yul\":8284:8313   */\n      swap1\n      pop\n        /* \"#utility.yul\":8150:8319   */\n      swap3\n      swap2\n      pop\n      pop\n      jump\t// out\n        /* \"#utility.yul\":8325:8498   */\n    tag_240:\n        /* \"#utility.yul\":8465:8490   */\n      0x4f6e6c79205061726b2063616e2063616c6c2074686973000000000000000000\n        /* \"#utility.yul\":8461:8462   */\n      0x00\n        /* \"#utility.yul\":8453:8459   */\n      dup3\n        /* \"#utility.yul\":8449:8463   */\n      add\n        /* \"#utility.yul\":8442:8491   */\n      mstore\n        /* \"#utility.yul\":8325:8498   */\n      pop\n      jump\t// out\n        /* \"#utility.yul\":8504:8870   */\n    tag_241:\n        /* \"#utility.yul\":8646:8649   */\n      0x00\n        /* \"#utility.yul\":8667:8734   */\n      tag_349\n        /* \"#utility.yul\":8731:8733   */\n      0x17\n        /* \"#utility.yul\":8726:8729   */\n      dup4\n        /* \"#utility.yul\":8667:8734   */\n      tag_239\n      jump\t// in\n    tag_349:\n        /* \"#utility.yul\":8660:8734   */\n      swap2\n      pop\n        /* \"#utility.yul\":8743:8836   */\n      tag_350\n        /* \"#utility.yul\":8832:8835   */\n      dup3\n        /* \"#utility.yul\":8743:8836   */\n      tag_240\n      jump\t// in\n    tag_350:\n        /* \"#utility.yul\":8861:8863   */\n      0x20\n        /* \"#utility.yul\":8856:8859   */\n      dup3\n        /* \"#utility.yul\":8852:8864   */\n      add\n        /* \"#utility.yul\":8845:8864   */\n      swap1\n      pop\n        /* \"#utility.yul\":8504:8870   */\n      swap2\n      swap1\n      pop\n      jump\t// out\n        /* \"#utility.yul\":8876:9295   */\n    tag_71:\n        /* \"#utility.yul\":9042:9046   */\n      0x00\n        /* \"#utility.yul\":9080:9082   */\n      0x20\n        /* \"#utility.yul\":9069:9078   */\n      dup3\n        /* \"#utility.yul\":9065:9083   */\n      add\n        /* \"#utility.yul\":9057:9083   */\n      swap1\n      pop\n        /* \"#utility.yul\":9129:9138   */\n      dup2\n        /* \"#utility.yul\":9123:9127   */\n      dup2\n        /* \"#utility.yul\":9119:9139   */\n      sub\n        /* \"#utility.yul\":9115:9116   */\n      0x00\n        /* \"#utility.yul\":9104:9113   */\n      dup4\n        /* \"#utility.yul\":9100:9117   */\n      add\n        /* \"#utility.yul\":9093:9140   */\n      mstore\n        /* \"#utility.yul\":9157:9288   */\n      tag_352\n        /* \"#utility.yul\":9283:9287   */\n      dup2\n        /* \"#utility.yul\":9157:9288   */\n      tag_241\n      jump\t// in\n    tag_352:\n        /* \"#utility.yul\":9149:9288   */\n      swap1\n      pop\n        /* \"#utility.yul\":8876:9295   */\n      swap2\n      swap1\n      pop\n      jump\t// out\n        /* \"#utility.yul\":9301:9481   */\n    tag_242:\n        /* \"#utility.yul\":9349:9426   */\n      0x4e487b7100000000000000000000000000000000000000000000000000000000\n        /* \"#utility.yul\":9346:9347   */\n      0x00\n        /* \"#utility.yul\":9339:9427   */\n      mstore\n        /* \"#utility.yul\":9446:9450   */\n      0x11\n        /* \"#utility.yul\":9443:9444   */\n      0x04\n        /* \"#utility.yul\":9436:9451   */\n      mstore\n        /* \"#utility.yul\":9470:9474   */\n      0x24\n        /* \"#utility.yul\":9467:9468   */\n      0x00\n        /* \"#utility.yul\":9460:9475   */\n      revert\n        /* \"#utility.yul\":9487:9681   */\n    tag_78:\n        /* \"#utility.yul\":9527:9531   */\n      0x00\n        /* \"#utility.yul\":9547:9567   */\n      tag_355\n        /* \"#utility.yul\":9565:9566   */\n      dup3\n        /* \"#utility.yul\":9547:9567   */\n      tag_217\n      jump\t// in\n    tag_355:\n        /* \"#utility.yul\":9542:9567   */\n      swap2\n      pop\n        /* \"#utility.yul\":9581:9601   */\n      tag_356\n        /* \"#utility.yul\":9599:9600   */\n      dup4\n        /* \"#utility.yul\":9581:9601   */\n      tag_217\n      jump\t// in\n    tag_356:\n        /* \"#utility.yul\":9576:9601   */\n      swap3\n      pop\n        /* \"#utility.yul\":9625:9626   */\n      dup3\n        /* \"#utility.yul\":9622:9623   */\n      dup3\n        /* \"#utility.yul\":9618:9627   */\n      sub\n        /* \"#utility.yul\":9610:9627   */\n      swap1\n      pop\n        /* \"#utility.yul\":9649:9650   */\n      dup2\n        /* \"#utility.yul\":9643:9647   */\n      dup2\n        /* \"#utility.yul\":9640:9651   */\n      gt\n        /* \"#utility.yul\":9637:9674   */\n      iszero\n      tag_357\n      jumpi\n        /* \"#utility.yul\":9654:9672   */\n      tag_358\n      tag_242\n      jump\t// in\n    tag_358:\n        /* \"#utility.yul\":9637:9674   */\n    tag_357:\n        /* \"#utility.yul\":9487:9681   */\n      swap3\n      swap2\n      pop\n      pop\n      jump\t// out\n        /* \"#utility.yul\":9687:9857   */\n    tag_243:\n        /* \"#utility.yul\":9827:9849   */\n      0x4f6e6c79205061726b2063616e20696e73757265000000000000000000000000\n        /* \"#utility.yul\":9823:9824   */\n      0x00\n        /* \"#utility.yul\":9815:9821   */\n      dup3\n        /* \"#utility.yul\":9811:9825   */\n      add\n        /* \"#utility.yul\":9804:9850   */\n      mstore\n        /* \"#utility.yul\":9687:9857   */\n      pop\n      jump\t// out\n        /* \"#utility.yul\":9863:10229   */\n    tag_244:\n        /* \"#utility.yul\":10005:10008   */\n      0x00\n        /* \"#utility.yul\":10026:10093   */\n      tag_361\n        /* \"#utility.yul\":10090:10092   */\n      0x14\n        /* \"#utility.yul\":10085:10088   */\n      dup4\n        /* \"#utility.yul\":10026:10093   */\n      tag_239\n      jump\t// in\n    tag_361:\n        /* \"#utility.yul\":10019:10093   */\n      swap2\n      pop\n        /* \"#utility.yul\":10102:10195   */\n      tag_362\n        /* \"#utility.yul\":10191:10194   */\n      dup3\n        /* \"#utility.yul\":10102:10195   */\n      tag_243\n      jump\t// in\n    tag_362:\n        /* \"#utility.yul\":10220:10222   */\n      0x20\n        /* \"#utility.yul\":10215:10218   */\n      dup3\n        /* \"#utility.yul\":10211:10223   */\n      add\n        /* \"#utility.yul\":10204:10223   */\n      swap1\n      pop\n        /* \"#utility.yul\":9863:10229   */\n      swap2\n      swap1\n      pop\n      jump\t// out\n        /* \"#utility.yul\":10235:10654   */\n    tag_83:\n        /* \"#utility.yul\":10401:10405   */\n      0x00\n        /* \"#utility.yul\":10439:10441   */\n      0x20\n        /* \"#utility.yul\":10428:10437   */\n      dup3\n        /* \"#utility.yul\":10424:10442   */\n      add\n        /* \"#utility.yul\":10416:10442   */\n      swap1\n      pop\n        /* \"#utility.yul\":10488:10497   */\n      dup2\n        /* \"#utility.yul\":10482:10486   */\n      dup2\n        /* \"#utility.yul\":10478:10498   */\n      sub\n        /* \"#utility.yul\":10474:10475   */\n      0x00\n        /* \"#utility.yul\":10463:10472   */\n      dup4\n        /* \"#utility.yul\":10459:10476   */\n      add\n        /* \"#utility.yul\":10452:10499   */\n      mstore\n        /* \"#utility.yul\":10516:10647   */\n      tag_364\n        /* \"#utility.yul\":10642:10646   */\n      dup2\n        /* \"#utility.yul\":10516:10647   */\n      tag_244\n      jump\t// in\n    tag_364:\n        /* \"#utility.yul\":10508:10647   */\n      swap1\n      pop\n        /* \"#utility.yul\":10235:10654   */\n      swap2\n      swap1\n      pop\n      jump\t// out\n        /* \"#utility.yul\":10660:10893   */\n    tag_96:\n        /* \"#utility.yul\":10699:10702   */\n      0x00\n        /* \"#utility.yul\":10722:10746   */\n      tag_366\n        /* \"#utility.yul\":10740:10745   */\n      dup3\n        /* \"#utility.yul\":10722:10746   */\n      tag_217\n      jump\t// in\n    tag_366:\n        /* \"#utility.yul\":10713:10746   */\n      swap2\n      pop\n        /* \"#utility.yul\":10768:10834   */\n      0xffffffffffffffffffffffffffffffffffffffffffffffffffffffffffffffff\n        /* \"#utility.yul\":10761:10766   */\n      dup3\n        /* \"#utility.yul\":10758:10835   */\n      sub\n        /* \"#utility.yul\":10755:10858   */\n      tag_367\n      jumpi\n        /* \"#utility.yul\":10838:10856   */\n      tag_368\n      tag_242\n      jump\t// in\n    tag_368:\n        /* \"#utility.yul\":10755:10858   */\n    tag_367:\n        /* \"#utility.yul\":10885:10886   */\n      0x01\n        /* \"#utility.yul\":10878:10883   */\n      dup3\n        /* \"#utility.yul\":10874:10887   */\n      add\n        /* \"#utility.yul\":10867:10887   */\n      swap1\n      pop\n        /* \"#utility.yul\":10660:10893   */\n      swap2\n      swap1\n      pop\n      jump\t// out\n        /* \"#utility.yul\":10899:11065   */\n    tag_245:\n        /* \"#utility.yul\":11039:11057   */\n      0x5061726b20616c72656164792073657400000000000000000000000000000000\n        /* \"#utility.yul\":11035:11036   */\n      0x00\n        /* \"#utility.yul\":11027:11033   */\n      dup3\n        /* \"#utility.yul\":11023:11037   */\n      add\n        /* \"#utility.yul\":11016:11058   */\n      mstore\n        /* \"#utility.yul\":10899:11065   */\n      pop\n      jump\t// out\n        /* \"#utility.yul\":11071:11437   */\n    tag_246:\n        /* \"#utility.yul\":11213:11216   */\n      0x00\n        /* \"#utility.yul\":11234:11301   */\n      tag_371\n        /* \"#utility.yul\":11298:11300   */\n      0x10\n        /* \"#utility.yul\":11293:11296   */\n      dup4\n        /* \"#utility.yul\":11234:11301   */\n      tag_239\n      jump\t// in\n    tag_371:\n        /* \"#utility.yul\":11227:11301   */\n      swap2\n      pop\n        /* \"#utility.yul\":11310:11403   */\n      tag_372\n        /* \"#utility.yul\":11399:11402   */\n      dup3\n        /* \"#utility.yul\":11310:11403   */\n      tag_245\n      jump\t// in\n    tag_372:\n        /* \"#utility.yul\":11428:11430   */\n      0x20\n        /* \"#utility.yul\":11423:11426   */\n      dup3\n        /* \"#utility.yul\":11419:11431   */\n      add\n        /* \"#utility.yul\":11412:11431   */\n      swap1\n      pop\n        /* \"#utility.yul\":11071:11437   */\n      swap2\n      swap1\n      pop\n      jump\t// out\n        /* \"#utility.yul\":11443:11862   */\n    tag_100:\n        /* \"#utility.yul\":11609:11613   */\n      0x00\n        /* \"#utility.yul\":11647:11649   */\n      0x20\n        /* \"#utility.yul\":11636:11645   */\n      dup3\n        /* \"#utility.yul\":11632:11650   */\n      add\n        /* \"#utility.yul\":11624:11650   */\n      swap1\n      pop\n        /* \"#utility.yul\":11696:11705   */\n      dup2\n        /* \"#utility.yul\":11690:11694   */\n      dup2\n        /* \"#utility.yul\":11686:11706   */\n      sub\n        /* \"#utility.yul\":11682:11683   */\n      0x00\n        /* \"#utility.yul\":11671:11680   */\n      dup4\n        /* \"#utility.yul\":11667:11684   */\n      add\n        /* \"#utility.yul\":11660:11707   */\n      mstore\n        /* \"#utility.yul\":11724:11855   */\n      tag_374\n        /* \"#utility.yul\":11850:11854   */\n      dup2\n        /* \"#utility.yul\":11724:11855   */\n      tag_246\n      jump\t// in\n    tag_374:\n        /* \"#utility.yul\":11716:11855   */\n      swap1\n      pop\n        /* \"#utility.yul\":11443:11862   */\n      swap2\n      swap1\n      pop\n      jump\t// out\n        /* \"#utility.yul\":11868:12031   */\n    tag_247:\n        /* \"#utility.yul\":12008:12023   */\n      0x4e6f7420746865206f776e657200000000000000000000000000000000000000\n        /* \"#utility.yul\":12004:12005   */\n      0x00\n        /* \"#utility.yul\":11996:12002   */\n      dup3\n        /* \"#utility.yul\":11992:12006   */\n      add\n        /* \"#utility.yul\":11985:12024   */\n      mstore\n        /* \"#utility.yul\":11868:12031   */\n      pop\n      jump\t// out\n        /* \"#utility.yul\":12037:12403   */\n    tag_248:\n        /* \"#utility.yul\":12179:12182   */\n      0x00\n        /* \"#utility.yul\":12200:12267   */\n      tag_377\n        /* \"#utility.yul\":12264:12266   */\n      0x0d\n        /* \"#utility.yul\":12259:12262   */\n      dup4\n        /* \"#utility.yul\":12200:12267   */\n      tag_239\n      jump\t// in\n    tag_377:\n        /* \"#utility.yul\":12193:12267   */\n      swap2\n      pop\n        /* \"#utility.yul\":12276:12369   */\n      tag_378\n        /* \"#utility.yul\":12365:12368   */\n      dup3\n        /* \"#utility.yul\":12276:12369   */\n      tag_247\n      jump\t// in\n    tag_378:\n        /* \"#utility.yul\":12394:12396   */\n      0x20\n        /* \"#utility.yul\":12389:12392   */\n      dup3\n        /* \"#utility.yul\":12385:12397   */\n      add\n        /* \"#utility.yul\":12378:12397   */\n      swap1\n      pop\n        /* \"#utility.yul\":12037:12403   */\n      swap2\n      swap1\n      pop\n      jump\t// out\n        /* \"#utility.yul\":12409:12828   */\n    tag_112:\n        /* \"#utility.yul\":12575:12579   */\n      0x00\n        /* \"#utility.yul\":12613:12615   */\n      0x20\n        /* \"#utility.yul\":12602:12611   */\n      dup3\n        /* \"#utility.yul\":12598:12616   */\n      add\n        /* \"#utility.yul\":12590:12616   */\n      swap1\n      pop\n        /* \"#utility.yul\":12662:12671   */\n      dup2\n        /* \"#utility.yul\":12656:12660   */\n      dup2\n        /* \"#utility.yul\":12652:12672   */\n      sub\n        /* \"#utility.yul\":12648:12649   */\n      0x00\n        /* \"#utility.yul\":12637:12646   */\n      dup4\n        /* \"#utility.yul\":12633:12650   */\n      add\n        /* \"#utility.yul\":12626:12673   */\n      mstore\n        /* \"#utility.yul\":12690:12821   */\n      tag_380\n        /* \"#utility.yul\":12816:12820   */\n      dup2\n        /* \"#utility.yul\":12690:12821   */\n      tag_248\n      jump\t// in\n    tag_380:\n        /* \"#utility.yul\":12682:12821   */\n      swap1\n      pop\n        /* \"#utility.yul\":12409:12828   */\n      swap2\n      swap1\n      pop\n      jump\t// out\n        /* \"#utility.yul\":12834:12999   */\n    tag_249:\n        /* \"#utility.yul\":12974:12991   */\n      0x496e76616c696420616464726573730000000000000000000000000000000000\n        /* \"#utility.yul\":12970:12971   */\n      0x00\n        /* \"#utility.yul\":12962:12968   */\n      dup3\n        /* \"#utility.yul\":12958:12972   */\n      add\n        /* \"#utility.yul\":12951:12992   */\n      mstore\n        /* \"#utility.yul\":12834:12999   */\n      pop\n      jump\t// out\n        /* \"#utility.yul\":13005:13371   */\n    tag_250:\n        /* \"#utility.yul\":13147:13150   */\n      0x00\n        /* \"#utility.yul\":13168:13235   */\n      tag_383\n        /* \"#utility.yul\":13232:13234   */\n      0x0f\n        /* \"#utility.yul\":13227:13230   */\n      dup4\n        /* \"#utility.yul\":13168:13235   */\n      tag_239\n      jump\t// in\n    tag_383:\n        /* \"#utility.yul\":13161:13235   */\n      swap2\n      pop\n        /* \"#utility.yul\":13244:13337   */\n      tag_384\n        /* \"#utility.yul\":13333:13336   */\n      dup3\n        /* \"#utility.yul\":13244:13337   */\n      tag_249\n      jump\t// in\n    tag_384:\n        /* \"#utility.yul\":13362:13364   */\n      0x20\n        /* \"#utility.yul\":13357:13360   */\n      dup3\n        /* \"#utility.yul\":13353:13365   */\n      add\n        /* \"#utility.yul\":13346:13365   */\n      swap1\n      pop\n        /* \"#utility.yul\":13005:13371   */\n      swap2\n      swap1\n      pop\n      jump\t// out\n        /* \"#utility.yul\":13377:13796   */\n    tag_115:\n        /* \"#utility.yul\":13543:13547   */\n      0x00\n        /* \"#utility.yul\":13581:13583   */\n      0x20\n        /* \"#utility.yul\":13570:13579   */\n      dup3\n        /* \"#utility.yul\":13566:13584   */\n      add\n        /* \"#utility.yul\":13558:13584   */\n      swap1\n      pop\n        /* \"#utility.yul\":13630:13639   */\n      dup2\n        /* \"#utility.yul\":13624:13628   */\n      dup2\n        /* \"#utility.yul\":13620:13640   */\n      sub\n        /* \"#utility.yul\":13616:13617   */\n      0x00\n        /* \"#utility.yul\":13605:13614   */\n      dup4\n        /* \"#utility.yul\":13601:13618   */\n      add\n        /* \"#utility.yul\":13594:13641   */\n      mstore\n        /* \"#utility.yul\":13658:13789   */\n      tag_386\n        /* \"#utility.yul\":13784:13788   */\n      dup2\n        /* \"#utility.yul\":13658:13789   */\n      tag_250\n      jump\t// in\n    tag_386:\n        /* \"#utility.yul\":13650:13789   */\n      swap1\n      pop\n        /* \"#utility.yul\":13377:13796   */\n      swap2\n      swap1\n      pop\n      jump\t// out\n        /* \"#utility.yul\":13802:14212   */\n    tag_121:\n        /* \"#utility.yul\":13842:13849   */\n      0x00\n        /* \"#utility.yul\":13865:13885   */\n      tag_388\n        /* \"#utility.yul\":13883:13884   */\n      dup3\n        /* \"#utility.yul\":13865:13885   */\n      tag_217\n      jump\t// in\n    tag_388:\n        /* \"#utility.yul\":13860:13885   */\n      swap2\n      pop\n        /* \"#utility.yul\":13899:13919   */\n      tag_389\n        /* \"#utility.yul\":13917:13918   */\n      dup4\n        /* \"#utility.yul\":13899:13919   */\n      tag_217\n      jump\t// in\n    tag_389:\n        /* \"#utility.yul\":13894:13919   */\n      swap3\n      pop\n        /* \"#utility.yul\":13954:13955   */\n      dup3\n        /* \"#utility.yul\":13951:13952   */\n      dup3\n        /* \"#utility.yul\":13947:13956   */\n      mul\n        /* \"#utility.yul\":13976:14006   */\n      tag_390\n        /* \"#utility.yul\":13994:14005   */\n      dup2\n        /* \"#utility.yul\":13976:14006   */\n      tag_217\n      jump\t// in\n    tag_390:\n        /* \"#utility.yul\":13965:14006   */\n      swap2\n      pop\n        /* \"#utility.yul\":14155:14156   */\n      dup3\n        /* \"#utility.yul\":14146:14153   */\n      dup3\n        /* \"#utility.yul\":14142:14157   */\n      div\n        /* \"#utility.yul\":14139:14140   */\n      dup5\n        /* \"#utility.yul\":14136:14158   */\n      eq\n        /* \"#utility.yul\":14116:14117   */\n      dup4\n        /* \"#utility.yul\":14109:14118   */\n      iszero\n        /* \"#utility.yul\":14089:14172   */\n      or\n        /* \"#utility.yul\":14066:14205   */\n      tag_391\n      jumpi\n        /* \"#utility.yul\":14185:14203   */\n      tag_392\n      tag_242\n      jump\t// in\n    tag_392:\n        /* \"#utility.yul\":14066:14205   */\n    tag_391:\n        /* \"#utility.yul\":13850:14212   */\n      pop\n        /* \"#utility.yul\":13802:14212   */\n      swap3\n      swap2\n      pop\n      pop\n      jump\t// out\n        /* \"#utility.yul\":14218:14398   */\n    tag_251:\n        /* \"#utility.yul\":14266:14343   */\n      0x4e487b7100000000000000000000000000000000000000000000000000000000\n        /* \"#utility.yul\":14263:14264   */\n      0x00\n        /* \"#utility.yul\":14256:14344   */\n      mstore\n        /* \"#utility.yul\":14363:14367   */\n      0x12\n        /* \"#utility.yul\":14360:14361   */\n      0x04\n        /* \"#utility.yul\":14353:14368   */\n      mstore\n        /* \"#utility.yul\":14387:14391   */\n      0x24\n        /* \"#utility.yul\":14384:14385   */\n      0x00\n        /* \"#utility.yul\":14377:14392   */\n      revert\n        /* \"#utility.yul\":14404:14589   */\n    tag_123:\n        /* \"#utility.yul\":14444:14445   */\n      0x00\n        /* \"#utility.yul\":14461:14481   */\n      tag_395\n        /* \"#utility.yul\":14479:14480   */\n      dup3\n        /* \"#utility.yul\":14461:14481   */\n      tag_217\n      jump\t// in\n    tag_395:\n        /* \"#utility.yul\":14456:14481   */\n      swap2\n      pop\n        /* \"#utility.yul\":14495:14515   */\n      tag_396\n        /* \"#utility.yul\":14513:14514   */\n      dup4\n        /* \"#utility.yul\":14495:14515   */\n      tag_217\n      jump\t// in\n    tag_396:\n        /* \"#utility.yul\":14490:14515   */\n      swap3\n      pop\n        /* \"#utility.yul\":14534:14535   */\n      dup3\n        /* \"#utility.yul\":14524:14559   */\n      tag_397\n      jumpi\n        /* \"#utility.yul\":14539:14557   */\n      tag_398\n      tag_251\n      jump\t// in\n    tag_398:\n        /* \"#utility.yul\":14524:14559   */\n    tag_397:\n        /* \"#utility.yul\":14581:14582   */\n      dup3\n        /* \"#utility.yul\":14578:14579   */\n      dup3\n        /* \"#utility.yul\":14574:14583   */\n      div\n        /* \"#utility.yul\":14569:14583   */\n      swap1\n      pop\n        /* \"#utility.yul\":14404:14589   */\n      swap3\n      swap2\n      pop\n      pop\n      jump\t// out\n        /* \"#utility.yul\":14595:14786   */\n    tag_125:\n        /* \"#utility.yul\":14635:14638   */\n      0x00\n        /* \"#utility.yul\":14654:14674   */\n      tag_400\n        /* \"#utility.yul\":14672:14673   */\n      dup3\n        /* \"#utility.yul\":14654:14674   */\n      tag_217\n      jump\t// in\n    tag_400:\n        /* \"#utility.yul\":14649:14674   */\n      swap2\n      pop\n        /* \"#utility.yul\":14688:14708   */\n      tag_401\n        /* \"#utility.yul\":14706:14707   */\n      dup4\n        /* \"#utility.yul\":14688:14708   */\n      tag_217\n      jump\t// in\n    tag_401:\n        /* \"#utility.yul\":14683:14708   */\n      swap3\n      pop\n        /* \"#utility.yul\":14731:14732   */\n      dup3\n        /* \"#utility.yul\":14728:14729   */\n      dup3\n        /* \"#utility.yul\":14724:14733   */\n      add\n        /* \"#utility.yul\":14717:14733   */\n      swap1\n      pop\n        /* \"#utility.yul\":14752:14755   */\n      dup1\n        /* \"#utility.yul\":14749:14750   */\n      dup3\n        /* \"#utility.yul\":14746:14756   */\n      gt\n        /* \"#utility.yul\":14743:14779   */\n      iszero\n      tag_402\n      jumpi\n        /* \"#utility.yul\":14759:14777   */\n      tag_403\n      tag_242\n      jump\t// in\n    tag_403:\n        /* \"#utility.yul\":14743:14779   */\n    tag_402:\n        /* \"#utility.yul\":14595:14786   */\n      swap3\n      swap2\n      pop\n      pop\n      jump\t// out\n        /* \"#utility.yul\":14792:14871   */\n    tag_252:\n        /* \"#utility.yul\":14831:14838   */\n      0x00\n        /* \"#utility.yul\":14860:14865   */\n      dup2\n        /* \"#utility.yul\":14849:14865   */\n      swap1\n      pop\n        /* \"#utility.yul\":14792:14871   */\n      swap2\n      swap1\n      pop\n      jump\t// out\n        /* \"#utility.yul\":14877:15034   */\n    tag_253:\n        /* \"#utility.yul\":14982:15027   */\n      tag_406\n        /* \"#utility.yul\":15002:15026   */\n      tag_407\n        /* \"#utility.yul\":15020:15025   */\n      dup3\n        /* \"#utility.yul\":15002:15026   */\n      tag_217\n      jump\t// in\n    tag_407:\n        /* \"#utility.yul\":14982:15027   */\n      tag_252\n      jump\t// in\n    tag_406:\n        /* \"#utility.yul\":14977:14980   */\n      dup3\n        /* \"#utility.yul\":14970:15028   */\n      mstore\n        /* \"#utility.yul\":14877:15034   */\n      pop\n      pop\n      jump\t// out\n        /* \"#utility.yul\":15040:15437   */\n    tag_138:\n        /* \"#utility.yul\":15180:15183   */\n      0x00\n        /* \"#utility.yul\":15195:15270   */\n      tag_409\n        /* \"#utility.yul\":15266:15269   */\n      dup3\n        /* \"#utility.yul\":15257:15263   */\n      dup6\n        /* \"#utility.yul\":15195:15270   */\n      tag_253\n      jump\t// in\n    tag_409:\n        /* \"#utility.yul\":15295:15297   */\n      0x20\n        /* \"#utility.yul\":15290:15293   */\n      dup3\n        /* \"#utility.yul\":15286:15298   */\n      add\n        /* \"#utility.yul\":15279:15298   */\n      swap2\n      pop\n        /* \"#utility.yul\":15308:15383   */\n      tag_410\n        /* \"#utility.yul\":15379:15382   */\n      dup3\n        /* \"#utility.yul\":15370:15376   */\n      dup5\n        /* \"#utility.yul\":15308:15383   */\n      tag_253\n      jump\t// in\n    tag_410:\n        /* \"#utility.yul\":15408:15410   */\n      0x20\n        /* \"#utility.yul\":15403:15406   */\n      dup3\n        /* \"#utility.yul\":15399:15411   */\n      add\n        /* \"#utility.yul\":15392:15411   */\n      swap2\n      pop\n        /* \"#utility.yul\":15428:15431   */\n      dup2\n        /* \"#utility.yul\":15421:15431   */\n      swap1\n      pop\n        /* \"#utility.yul\":15040:15437   */\n      swap4\n      swap3\n      pop\n      pop\n      pop\n      jump\t// out\n        /* \"#utility.yul\":15443:15619   */\n    tag_140:\n        /* \"#utility.yul\":15475:15476   */\n      0x00\n        /* \"#utility.yul\":15492:15512   */\n      tag_412\n        /* \"#utility.yul\":15510:15511   */\n      dup3\n        /* \"#utility.yul\":15492:15512   */\n      tag_217\n      jump\t// in\n    tag_412:\n        /* \"#utility.yul\":15487:15512   */\n      swap2\n      pop\n        /* \"#utility.yul\":15526:15546   */\n      tag_413\n        /* \"#utility.yul\":15544:15545   */\n      dup4\n        /* \"#utility.yul\":15526:15546   */\n      tag_217\n      jump\t// in\n    tag_413:\n        /* \"#utility.yul\":15521:15546   */\n      swap3\n      pop\n        /* \"#utility.yul\":15565:15566   */\n      dup3\n        /* \"#utility.yul\":15555:15590   */\n      tag_414\n      jumpi\n        /* \"#utility.yul\":15570:15588   */\n      tag_415\n      tag_251\n      jump\t// in\n    tag_415:\n        /* \"#utility.yul\":15555:15590   */\n    tag_414:\n        /* \"#utility.yul\":15611:15612   */\n      dup3\n        /* \"#utility.yul\":15608:15609   */\n      dup3\n        /* \"#utility.yul\":15604:15613   */\n      mod\n        /* \"#utility.yul\":15599:15613   */\n      swap1\n      pop\n        /* \"#utility.yul\":15443:15619   */\n      swap3\n      swap2\n      pop\n      pop\n      jump\t// out\n        /* \"#utility.yul\":15625:15790   */\n    tag_254:\n        /* \"#utility.yul\":15765:15782   */\n      0x556e6b6e6f776e20737065636965730000000000000000000000000000000000\n        /* \"#utility.yul\":15761:15762   */\n      0x00\n        /* \"#utility.yul\":15753:15759   */\n      dup3\n        /* \"#utility.yul\":15749:15763   */\n      add\n        /* \"#utility.yul\":15742:15783   */\n      mstore\n        /* \"#utility.yul\":15625:15790   */\n      pop\n      jump\t// out\n        /* \"#utility.yul\":15796:16162   */\n    tag_255:\n        /* \"#utility.yul\":15938:15941   */\n      0x00\n        /* \"#utility.yul\":15959:16026   */\n      tag_418\n        /* \"#utility.yul\":16023:16025   */\n      0x0f\n        /* \"#utility.yul\":16018:16021   */\n      dup4\n        /* \"#utility.yul\":15959:16026   */\n      tag_239\n      jump\t// in\n    tag_418:\n        /* \"#utility.yul\":15952:16026   */\n      swap2\n      pop\n        /* \"#utility.yul\":16035:16128   */\n      tag_419\n        /* \"#utility.yul\":16124:16127   */\n      dup3\n        /* \"#utility.yul\":16035:16128   */\n      tag_254\n      jump\t// in\n    tag_419:\n        /* \"#utility.yul\":16153:16155   */\n      0x20\n        /* \"#utility.yul\":16148:16151   */\n      dup3\n        /* \"#utility.yul\":16144:16156   */\n      add\n        /* \"#utility.yul\":16137:16156   */\n      swap1\n      pop\n        /* \"#utility.yul\":15796:16162   */\n      swap2\n      swap1\n      pop\n      jump\t// out\n        /* \"#utility.yul\":16168:16587   */\n    tag_211:\n        /* \"#utility.yul\":16334:16338   */\n      0x00\n        /* \"#utility.yul\":16372:16374   */\n      0x20\n        /* \"#utility.yul\":16361:16370   */\n      dup3\n        /* \"#utility.yul\":16357:16375   */\n      add\n        /* \"#utility.yul\":16349:16375   */\n      swap1\n      pop\n        /* \"#utility.yul\":16421:16430   */\n      dup2\n        /* \"#utility.yul\":16415:16419   */\n      dup2\n        /* \"#utility.yul\":16411:16431   */\n      sub\n        /* \"#utility.yul\":16407:16408   */\n      0x00\n        /* \"#utility.yul\":16396:16405   */\n      dup4\n        /* \"#utility.yul\":16392:16409   */\n      add\n        /* \"#utility.yul\":16385:16432   */\n      mstore\n        /* \"#utility.yul\":16449:16580   */\n      tag_421\n        /* \"#utility.yul\":16575:16579   */\n      dup2\n        /* \"#utility.yul\":16449:16580   */\n      tag_255\n      jump\t// in\n    tag_421:\n        /* \"#utility.yul\":16441:16580   */\n      swap1\n      pop\n        /* \"#utility.yul\":16168:16587   */\n      swap2\n      swap1\n      pop\n      jump\t// out\n    stop\n    data_1ffc5c99f8ff866cb3cb9bd46d45453badb8f26649052a31a9be49b9b43149da 68747470733a2f2f676174657761792e70696e6174612e636c6f75642f697066732f6261667962656961336c65346173746b6e683270346d626b64357734326a353232746e73653477786b3777356d3777696d6f716470366f757a7079\n    data_3bbf1c81af77207dbf9db8f891697113273de930322fc10149aebcb2d416dad6 68747470733a2f2f676174657761792e70696e6174612e636c6f75642f697066732f626166796265696576377075637a377968377836686169646d7068703569656f6276636664636c6e6c776a71613269767334793335377076776d61\n    data_86e92b1a76e2f297d69c89af4232d1b3e647fd322843457f38b762c99d8ee708 68747470733a2f2f676174657761792e70696e6174612e636c6f75642f697066732f62616679626569676f686f746f6b366b336f6e76746a797970666e626e7a6263736f327163697862777a34776836347670326e336c71376e6b7361\n\n    auxdata: 0xa26469706673582212205f4fb83b1ea4205dab03e34bae8a0c6ea0981a6b5b1b3493034d68560c39b17064736f6c634300081e0033\n}\n",
				"bytecode": {
					"linkReferences": {},
					"object": "608060405234801561000f575f5ffd5b50604051611b24380380611b24833981810160405281019061003191906100d5565b8060025f6101000a81548173ffffffffffffffffffffffffffffffffffffffff021916908373ffffffffffffffffffffffffffffffffffffffff16021790555050610100565b5f5ffd5b5f73ffffffffffffffffffffffffffffffffffffffff82169050919050565b5f6100a48261007b565b9050919050565b6100b48161009a565b81146100be575f5ffd5b50565b5f815190506100cf816100ab565b92915050565b5f602082840312156100ea576100e9610077565b5b5f6100f7848285016100c1565b91505092915050565b611a178061010d5f395ff3fe608060405234801561000f575f5ffd5b50600436106100b2575f3560e01c80636352211e1161006f5780636352211e146101885780636ec88bbd146101b857806372680a77146101e85780638c652f9514610206578063a2b7ce6f14610222578063ec1c59551461023e576100b2565b806316cb4a05146100b65780631942d199146100e657806349b1a0bf146101025780634d2d78811461011e5780634e9c7df81461014e57806361b8ce8c1461016a575b5f5ffd5b6100d060048036038101906100cb91906110c8565b610272565b6040516100dd919061110d565b60405180910390f35b61010060048036038101906100fb9190611126565b61028f565b005b61011c600480360381019061011791906110c8565b61037c565b005b61013860048036038101906101339190611187565b610437565b60405161014591906111ca565b60405180910390f35b6101686004803603810190610163919061123d565b6105ea565b005b6101726106bc565b60405161017f9190611277565b60405180910390f35b6101a2600480360381019061019d91906110c8565b6106c2565b6040516101af919061129f565b60405180910390f35b6101d260048036038101906101cd91906110c8565b6106f2565b6040516101df91906113a0565b60405180910390f35b6101f0610786565b6040516101fd919061129f565b60405180910390f35b610220600480360381019061021b91906113b9565b6107ab565b005b61023c600480360381019061023791906110c8565b61090a565b005b610258600480360381019061025391906110c8565b610a06565b604051610269959493929190611406565b60405180910390f35b6003602052805f5260405f205f915054906101000a900460ff1681565b60025f9054906101000a900473ffffffffffffffffffffffffffffffffffffffff1673ffffffffffffffffffffffffffffffffffffffff163373ffffffffffffffffffffffffffffffffffffffff161461031e576040517f08c379a0000000000000000000000000000000000000000000000000000000008152600401610315906114b1565b60405180910390fd5b6103278261090a565b5f5f5f8481526020019081526020015f20905061034383610a43565b8181600101541061036d5781816001015f82825461036191906114fc565b92505081905550610377565b5f81600101819055505b505050565b60025f9054906101000a900473ffffffffffffffffffffffffffffffffffffffff1673ffffffffffffffffffffffffffffffffffffffff163373ffffffffffffffffffffffffffffffffffffffff161461040b576040517f08c379a000000000000000000000000000000000000000000000000000000000815260040161040290611579565b60405180910390fd5b600160035f8381526020019081526020015f205f6101000a81548160ff02191690831515021790555050565b5f60025f9054906101000a900473ffffffffffffffffffffffffffffffffffffffff1673ffffffffffffffffffffffffffffffffffffffff163373ffffffffffffffffffffffffffffffffffffffff16146104c7576040517f08c379a00000000000000000000000000000000000000000000000000000000081526004016104be906114b1565b60405180910390fd5b5f6104d183610b21565b90506040518060a001604052805f81526020015f8152602001825f0151815260200184600a811115610506576105056112c7565b5b8152602001428152505f5f60015481526020019081526020015f205f820151815f015560208201518160010155604082015181600201556060820151816003015f6101000a81548160ff0219169083600a811115610567576105666112c7565b5b0217905550608082015181600401559050503360045f60015481526020019081526020015f205f6101000a81548173ffffffffffffffffffffffffffffffffffffffff021916908373ffffffffffffffffffffffffffffffffffffffff16021790555060015f8154809291906105dc90611597565b91905055505f915050919050565b5f73ffffffffffffffffffffffffffffffffffffffff1660025f9054906101000a900473ffffffffffffffffffffffffffffffffffffffff1673ffffffffffffffffffffffffffffffffffffffff1614610679576040517f08c379a000000000000000000000000000000000000000000000000000000000815260040161067090611628565b60405180910390fd5b8060025f6101000a81548173ffffffffffffffffffffffffffffffffffffffff021916908373ffffffffffffffffffffffffffffffffffffffff16021790555050565b60015481565b6004602052805f5260405f205f915054906101000a900473ffffffffffffffffffffffffffffffffffffffff1681565b6106fa61102a565b6107038261090a565b5f5f8381526020019081526020015f206040518060a00160405290815f82015481526020016001820154815260200160028201548152602001600382015f9054906101000a900460ff16600a81111561075f5761075e6112c7565b5b600a811115610771576107706112c7565b5b81526020016004820154815250509050919050565b60025f9054906101000a900473ffffffffffffffffffffffffffffffffffffffff1681565b3373ffffffffffffffffffffffffffffffffffffffff1660045f8481526020019081526020015f205f9054906101000a900473ffffffffffffffffffffffffffffffffffffffff1673ffffffffffffffffffffffffffffffffffffffff1614610849576040517f08c379a000000000000000000000000000000000000000000000000000000000815260040161084090611690565b60405180910390fd5b5f73ffffffffffffffffffffffffffffffffffffffff168173ffffffffffffffffffffffffffffffffffffffff16036108b7576040517f08c379a00000000000000000000000000000000000000000000000000000000081526004016108ae906116f8565b60405180910390fd5b8060045f8481526020019081526020015f205f6101000a81548173ffffffffffffffffffffffffffffffffffffffff021916908373ffffffffffffffffffffffffffffffffffffffff1602179055505050565b5f5f5f8381526020019081526020015f2090505f81600401544261092e91906114fc565b90505f811115610a01575f610e10610955846003015f9054906101000a900460ff16610b21565b60400151836109649190611716565b61096e9190611784565b905080836001015f82825461098391906117b4565b925050819055505f6109a4846003015f9054906101000a900460ff16610b21565b60200151905080846001015411156109c0578084600101819055505b5f62015180846109d09190611784565b90505f8111156109f45780855f015f8282546109ec91906117b4565b925050819055505b4285600401819055505050505b505050565b5f602052805f5260405f205f91509050805f015490806001015490806002015490806003015f9054906101000a900460ff16908060040154905085565b610a4b611066565b5f5f5f8481526020019081526020015f209050610a77816003015f9054906101000a900460ff16610b21565b915060035f8481526020019081526020015f205f9054906101000a900460ff16610b1c575f610ab5826003015f9054906101000a900460ff16610b21565b6060015190505f60644286604051602001610ad1929190611807565b604051602081830303815290604052805190602001205f1c610af39190611832565b905081811015610b19576019836002015f828254610b1191906114fc565b925050819055505b50505b505050565b610b29611066565b5f600a811115610b3c57610b3b6112c7565b5b82600a811115610b4f57610b4e6112c7565b5b03610b9e576040518060a0016040528060c881526020016096815260200160038152602001600181526020016040518060800160405280605d81526020016118cb605d91398152509050611025565b6001600a811115610bb257610bb16112c7565b5b82600a811115610bc557610bc46112c7565b5b03610c14576040518060a0016040528060dc815260200160c8815260200160028152602001600581526020016040518060800160405280605d8152602001611985605d91398152509050611025565b6002600a811115610c2857610c276112c7565b5b82600a811115610c3b57610c3a6112c7565b5b03610c8a576040518060a00160405280605081526020016050815260200160038152602001600681526020016040518060800160405280605d8152602001611928605d91398152509050611025565b600a80811115610c9d57610c9c6112c7565b5b82600a811115610cb057610caf6112c7565b5b03610cf6576040518060a0016040528061012c815260200161012c8152602001600181526020015f815260200160405180602001604052805f8152508152509050611025565b6003600a811115610d0a57610d096112c7565b5b82600a811115610d1d57610d1c6112c7565b5b03610d62576040518060a0016040528060b48152602001605a8152602001600281526020016004815260200160405180602001604052805f8152508152509050611025565b6004600a811115610d7657610d756112c7565b5b82600a811115610d8957610d886112c7565b5b03610dce576040518060a001604052806050815260200160468152602001600281526020016008815260200160405180602001604052805f8152508152509050611025565b6005600a811115610de257610de16112c7565b5b82600a811115610df557610df46112c7565b5b03610e3a576040518060a0016040528060328152602001603c8152602001600481526020016005815260200160405180602001604052805f8152508152509050611025565b6006600a811115610e4e57610e4d6112c7565b5b82600a811115610e6157610e606112c7565b5b03610ea6576040518060a001604052806037815260200160288152602001600381526020016004815260200160405180602001604052805f8152508152509050611025565b6007600a811115610eba57610eb96112c7565b5b82600a811115610ecd57610ecc6112c7565b5b03610f12576040518060a00160405280604e815260200160418152602001600281526020016004815260200160405180602001604052805f8152508152509050611025565b6008600a811115610f2657610f256112c7565b5b82600a811115610f3957610f386112c7565b5b03610f7e576040518060a001604052806096815260200160648152602001600481526020016003815260200160405180602001604052805f8152508152509050611025565b6009600a811115610f9257610f916112c7565b5b82600a811115610fa557610fa46112c7565b5b03610fea576040518060a001604052806023815260200160428152602001600481526020016005815260200160405180602001604052805f8152508152509050611025565b6040517f08c379a000000000000000000000000000000000000000000000000000000000815260040161101c906118ac565b60405180910390fd5b919050565b6040518060a001604052805f81526020015f81526020015f81526020015f600a81111561105a576110596112c7565b5b81526020015f81525090565b6040518060a001604052805f81526020015f81526020015f81526020015f8152602001606081525090565b5f5ffd5b5f819050919050565b6110a781611095565b81146110b1575f5ffd5b50565b5f813590506110c28161109e565b92915050565b5f602082840312156110dd576110dc611091565b5b5f6110ea848285016110b4565b91505092915050565b5f8115159050919050565b611107816110f3565b82525050565b5f6020820190506111205f8301846110fe565b92915050565b5f5f6040838503121561113c5761113b611091565b5b5f611149858286016110b4565b925050602061115a858286016110b4565b9150509250929050565b600b8110611170575f5ffd5b50565b5f8135905061118181611164565b92915050565b5f6020828403121561119c5761119b611091565b5b5f6111a984828501611173565b91505092915050565b5f819050919050565b6111c4816111b2565b82525050565b5f6020820190506111dd5f8301846111bb565b92915050565b5f73ffffffffffffffffffffffffffffffffffffffff82169050919050565b5f61120c826111e3565b9050919050565b61121c81611202565b8114611226575f5ffd5b50565b5f8135905061123781611213565b92915050565b5f6020828403121561125257611251611091565b5b5f61125f84828501611229565b91505092915050565b61127181611095565b82525050565b5f60208201905061128a5f830184611268565b92915050565b61129981611202565b82525050565b5f6020820190506112b25f830184611290565b92915050565b6112c181611095565b82525050565b7f4e487b71000000000000000000000000000000000000000000000000000000005f52602160045260245ffd5b600b8110611305576113046112c7565b5b50565b5f819050611315826112f4565b919050565b5f61132482611308565b9050919050565b6113348161131a565b82525050565b60a082015f82015161134e5f8501826112b8565b50602082015161136160208501826112b8565b50604082015161137460408501826112b8565b506060820151611387606085018261132b565b50608082015161139a60808501826112b8565b50505050565b5f60a0820190506113b35f83018461133a565b92915050565b5f5f604083850312156113cf576113ce611091565b5b5f6113dc858286016110b4565b92505060206113ed85828601611229565b9150509250929050565b6114008161131a565b82525050565b5f60a0820190506114195f830188611268565b6114266020830187611268565b6114336040830186611268565b61144060608301856113f7565b61144d6080830184611268565b9695505050505050565b5f82825260208201905092915050565b7f4f6e6c79205061726b2063616e2063616c6c20746869730000000000000000005f82015250565b5f61149b601783611457565b91506114a682611467565b602082019050919050565b5f6020820190508181035f8301526114c88161148f565b9050919050565b7f4e487b71000000000000000000000000000000000000000000000000000000005f52601160045260245ffd5b5f61150682611095565b915061151183611095565b9250828203905081811115611529576115286114cf565b5b92915050565b7f4f6e6c79205061726b2063616e20696e737572650000000000000000000000005f82015250565b5f611563601483611457565b915061156e8261152f565b602082019050919050565b5f6020820190508181035f83015261159081611557565b9050919050565b5f6115a182611095565b91507fffffffffffffffffffffffffffffffffffffffffffffffffffffffffffffffff82036115d3576115d26114cf565b5b600182019050919050565b7f5061726b20616c726561647920736574000000000000000000000000000000005f82015250565b5f611612601083611457565b915061161d826115de565b602082019050919050565b5f6020820190508181035f83015261163f81611606565b9050919050565b7f4e6f7420746865206f776e6572000000000000000000000000000000000000005f82015250565b5f61167a600d83611457565b915061168582611646565b602082019050919050565b5f6020820190508181035f8301526116a78161166e565b9050919050565b7f496e76616c6964206164647265737300000000000000000000000000000000005f82015250565b5f6116e2600f83611457565b91506116ed826116ae565b602082019050919050565b5f6020820190508181035f83015261170f816116d6565b9050919050565b5f61172082611095565b915061172b83611095565b925082820261173981611095565b915082820484148315176117505761174f6114cf565b5b5092915050565b7f4e487b71000000000000000000000000000000000000000000000000000000005f52601260045260245ffd5b5f61178e82611095565b915061179983611095565b9250826117a9576117a8611757565b5b828204905092915050565b5f6117be82611095565b91506117c983611095565b92508282019050808211156117e1576117e06114cf565b5b92915050565b5f819050919050565b6118016117fc82611095565b6117e7565b82525050565b5f61181282856117f0565b60208201915061182282846117f0565b6020820191508190509392505050565b5f61183c82611095565b915061184783611095565b92508261185757611856611757565b5b828206905092915050565b7f556e6b6e6f776e207370656369657300000000000000000000000000000000005f82015250565b5f611896600f83611457565b91506118a182611862565b602082019050919050565b5f6020820190508181035f8301526118c38161188a565b905091905056fe68747470733a2f2f676174657761792e70696e6174612e636c6f75642f697066732f6261667962656961336c65346173746b6e683270346d626b64357734326a353232746e73653477786b3777356d3777696d6f716470366f757a707968747470733a2f2f676174657761792e70696e6174612e636c6f75642f697066732f626166796265696576377075637a377968377836686169646d7068703569656f6276636664636c6e6c776a71613269767334793335377076776d6168747470733a2f2f676174657761792e70696e6174612e636c6f75642f697066732f62616679626569676f686f746f6b366b336f6e76746a797970666e626e7a6263736f327163697862777a34776836347670326e336c71376e6b7361a26469706673582212205f4fb83b1ea4205dab03e34bae8a0c6ea0981a6b5b1b3493034d68560c39b17064736f6c634300081e0033",
					"opcodes": "PUSH1 0x80 PUSH1 0x40 MSTORE CALLVALUE DUP1 ISZERO PUSH2 0xF JUMPI PUSH0 PUSH0 REVERT JUMPDEST POP PUSH1 0x40 MLOAD PUSH2 0x1B24 CODESIZE SUB DUP1 PUSH2 0x1B24 DUP4 CODECOPY DUP2 DUP2 ADD PUSH1 0x40 MSTORE DUP2 ADD SWAP1 PUSH2 0x31 SWAP2 SWAP1 PUSH2 0xD5 JUMP JUMPDEST DUP1 PUSH1 0x2 PUSH0 PUSH2 0x100 EXP DUP2 SLOAD DUP2 PUSH20 0xFFFFFFFFFFFFFFFFFFFFFFFFFFFFFFFFFFFFFFFF MUL NOT AND SWAP1 DUP4 PUSH20 0xFFFFFFFFFFFFFFFFFFFFFFFFFFFFFFFFFFFFFFFF AND MUL OR SWAP1 SSTORE POP POP PUSH2 0x100 JUMP JUMPDEST PUSH0 PUSH0 REVERT JUMPDEST PUSH0 PUSH20 0xFFFFFFFFFFFFFFFFFFFFFFFFFFFFFFFFFFFFFFFF DUP3 AND SWAP1 POP SWAP2 SWAP1 POP JUMP JUMPDEST PUSH0 PUSH2 0xA4 DUP3 PUSH2 0x7B JUMP JUMPDEST SWAP1 POP SWAP2 SWAP1 POP JUMP JUMPDEST PUSH2 0xB4 DUP2 PUSH2 0x9A JUMP JUMPDEST DUP2 EQ PUSH2 0xBE JUMPI PUSH0 PUSH0 REVERT JUMPDEST POP JUMP JUMPDEST PUSH0 DUP2 MLOAD SWAP1 POP PUSH2 0xCF DUP2 PUSH2 0xAB JUMP JUMPDEST SWAP3 SWAP2 POP POP JUMP JUMPDEST PUSH0 PUSH1 0x20 DUP3 DUP5 SUB SLT ISZERO PUSH2 0xEA JUMPI PUSH2 0xE9 PUSH2 0x77 JUMP JUMPDEST JUMPDEST PUSH0 PUSH2 0xF7 DUP5 DUP3 DUP6 ADD PUSH2 0xC1 JUMP JUMPDEST SWAP2 POP POP SWAP3 SWAP2 POP POP JUMP JUMPDEST PUSH2 0x1A17 DUP1 PUSH2 0x10D PUSH0 CODECOPY PUSH0 RETURN INVALID PUSH1 0x80 PUSH1 0x40 MSTORE CALLVALUE DUP1 ISZERO PUSH2 0xF JUMPI PUSH0 PUSH0 REVERT JUMPDEST POP PUSH1 0x4 CALLDATASIZE LT PUSH2 0xB2 JUMPI PUSH0 CALLDATALOAD PUSH1 0xE0 SHR DUP1 PUSH4 0x6352211E GT PUSH2 0x6F JUMPI DUP1 PUSH4 0x6352211E EQ PUSH2 0x188 JUMPI DUP1 PUSH4 0x6EC88BBD EQ PUSH2 0x1B8 JUMPI DUP1 PUSH4 0x72680A77 EQ PUSH2 0x1E8 JUMPI DUP1 PUSH4 0x8C652F95 EQ PUSH2 0x206 JUMPI DUP1 PUSH4 0xA2B7CE6F EQ PUSH2 0x222 JUMPI DUP1 PUSH4 0xEC1C5955 EQ PUSH2 0x23E JUMPI PUSH2 0xB2 JUMP JUMPDEST DUP1 PUSH4 0x16CB4A05 EQ PUSH2 0xB6 JUMPI DUP1 PUSH4 0x1942D199 EQ PUSH2 0xE6 JUMPI DUP1 PUSH4 0x49B1A0BF EQ PUSH2 0x102 JUMPI DUP1 PUSH4 0x4D2D7881 EQ PUSH2 0x11E JUMPI DUP1 PUSH4 0x4E9C7DF8 EQ PUSH2 0x14E JUMPI DUP1 PUSH4 0x61B8CE8C EQ PUSH2 0x16A JUMPI JUMPDEST PUSH0 PUSH0 REVERT JUMPDEST PUSH2 0xD0 PUSH1 0x4 DUP1 CALLDATASIZE SUB DUP2 ADD SWAP1 PUSH2 0xCB SWAP2 SWAP1 PUSH2 0x10C8 JUMP JUMPDEST PUSH2 0x272 JUMP JUMPDEST PUSH1 0x40 MLOAD PUSH2 0xDD SWAP2 SWAP1 PUSH2 0x110D JUMP JUMPDEST PUSH1 0x40 MLOAD DUP1 SWAP2 SUB SWAP1 RETURN JUMPDEST PUSH2 0x100 PUSH1 0x4 DUP1 CALLDATASIZE SUB DUP2 ADD SWAP1 PUSH2 0xFB SWAP2 SWAP1 PUSH2 0x1126 JUMP JUMPDEST PUSH2 0x28F JUMP JUMPDEST STOP JUMPDEST PUSH2 0x11C PUSH1 0x4 DUP1 CALLDATASIZE SUB DUP2 ADD SWAP1 PUSH2 0x117 SWAP2 SWAP1 PUSH2 0x10C8 JUMP JUMPDEST PUSH2 0x37C JUMP JUMPDEST STOP JUMPDEST PUSH2 0x138 PUSH1 0x4 DUP1 CALLDATASIZE SUB DUP2 ADD SWAP1 PUSH2 0x133 SWAP2 SWAP1 PUSH2 0x1187 JUMP JUMPDEST PUSH2 0x437 JUMP JUMPDEST PUSH1 0x40 MLOAD PUSH2 0x145 SWAP2 SWAP1 PUSH2 0x11CA JUMP JUMPDEST PUSH1 0x40 MLOAD DUP1 SWAP2 SUB SWAP1 RETURN JUMPDEST PUSH2 0x168 PUSH1 0x4 DUP1 CALLDATASIZE SUB DUP2 ADD SWAP1 PUSH2 0x163 SWAP2 SWAP1 PUSH2 0x123D JUMP JUMPDEST PUSH2 0x5EA JUMP JUMPDEST STOP JUMPDEST PUSH2 0x172 PUSH2 0x6BC JUMP JUMPDEST PUSH1 0x40 MLOAD PUSH2 0x17F SWAP2 SWAP1 PUSH2 0x1277 JUMP JUMPDEST PUSH1 0x40 MLOAD DUP1 SWAP2 SUB SWAP1 RETURN JUMPDEST PUSH2 0x1A2 PUSH1 0x4 DUP1 CALLDATASIZE SUB DUP2 ADD SWAP1 PUSH2 0x19D SWAP2 SWAP1 PUSH2 0x10C8 JUMP JUMPDEST PUSH2 0x6C2 JUMP JUMPDEST PUSH1 0x40 MLOAD PUSH2 0x1AF SWAP2 SWAP1 PUSH2 0x129F JUMP JUMPDEST PUSH1 0x40 MLOAD DUP1 SWAP2 SUB SWAP1 RETURN JUMPDEST PUSH2 0x1D2 PUSH1 0x4 DUP1 CALLDATASIZE SUB DUP2 ADD SWAP1 PUSH2 0x1CD SWAP2 SWAP1 PUSH2 0x10C8 JUMP JUMPDEST PUSH2 0x6F2 JUMP JUMPDEST PUSH1 0x40 MLOAD PUSH2 0x1DF SWAP2 SWAP1 PUSH2 0x13A0 JUMP JUMPDEST PUSH1 0x40 MLOAD DUP1 SWAP2 SUB SWAP1 RETURN JUMPDEST PUSH2 0x1F0 PUSH2 0x786 JUMP JUMPDEST PUSH1 0x40 MLOAD PUSH2 0x1FD SWAP2 SWAP1 PUSH2 0x129F JUMP JUMPDEST PUSH1 0x40 MLOAD DUP1 SWAP2 SUB SWAP1 RETURN JUMPDEST PUSH2 0x220 PUSH1 0x4 DUP1 CALLDATASIZE SUB DUP2 ADD SWAP1 PUSH2 0x21B SWAP2 SWAP1 PUSH2 0x13B9 JUMP JUMPDEST PUSH2 0x7AB JUMP JUMPDEST STOP JUMPDEST PUSH2 0x23C PUSH1 0x4 DUP1 CALLDATASIZE SUB DUP2 ADD SWAP1 PUSH2 0x237 SWAP2 SWAP1 PUSH2 0x10C8 JUMP JUMPDEST PUSH2 0x90A JUMP JUMPDEST STOP JUMPDEST PUSH2 0x258 PUSH1 0x4 DUP1 CALLDATASIZE SUB DUP2 ADD SWAP1 PUSH2 0x253 SWAP2 SWAP1 PUSH2 0x10C8 JUMP JUMPDEST PUSH2 0xA06 JUMP JUMPDEST PUSH1 0x40 MLOAD PUSH2 0x269 SWAP6 SWAP5 SWAP4 SWAP3 SWAP2 SWAP1 PUSH2 0x1406 JUMP JUMPDEST PUSH1 0x40 MLOAD DUP1 SWAP2 SUB SWAP1 RETURN JUMPDEST PUSH1 0x3 PUSH1 0x20 MSTORE DUP1 PUSH0 MSTORE PUSH1 0x40 PUSH0 KECCAK256 PUSH0 SWAP2 POP SLOAD SWAP1 PUSH2 0x100 EXP SWAP1 DIV PUSH1 0xFF AND DUP2 JUMP JUMPDEST PUSH1 0x2 PUSH0 SWAP1 SLOAD SWAP1 PUSH2 0x100 EXP SWAP1 DIV PUSH20 0xFFFFFFFFFFFFFFFFFFFFFFFFFFFFFFFFFFFFFFFF AND PUSH20 0xFFFFFFFFFFFFFFFFFFFFFFFFFFFFFFFFFFFFFFFF AND CALLER PUSH20 0xFFFFFFFFFFFFFFFFFFFFFFFFFFFFFFFFFFFFFFFF AND EQ PUSH2 0x31E JUMPI PUSH1 0x40 MLOAD PUSH32 0x8C379A000000000000000000000000000000000000000000000000000000000 DUP2 MSTORE PUSH1 0x4 ADD PUSH2 0x315 SWAP1 PUSH2 0x14B1 JUMP JUMPDEST PUSH1 0x40 MLOAD DUP1 SWAP2 SUB SWAP1 REVERT JUMPDEST PUSH2 0x327 DUP3 PUSH2 0x90A JUMP JUMPDEST PUSH0 PUSH0 PUSH0 DUP5 DUP2 MSTORE PUSH1 0x20 ADD SWAP1 DUP2 MSTORE PUSH1 0x20 ADD PUSH0 KECCAK256 SWAP1 POP PUSH2 0x343 DUP4 PUSH2 0xA43 JUMP JUMPDEST DUP2 DUP2 PUSH1 0x1 ADD SLOAD LT PUSH2 0x36D JUMPI DUP2 DUP2 PUSH1 0x1 ADD PUSH0 DUP3 DUP3 SLOAD PUSH2 0x361 SWAP2 SWAP1 PUSH2 0x14FC JUMP JUMPDEST SWAP3 POP POP DUP2 SWAP1 SSTORE POP PUSH2 0x377 JUMP JUMPDEST PUSH0 DUP2 PUSH1 0x1 ADD DUP2 SWAP1 SSTORE POP JUMPDEST POP POP POP JUMP JUMPDEST PUSH1 0x2 PUSH0 SWAP1 SLOAD SWAP1 PUSH2 0x100 EXP SWAP1 DIV PUSH20 0xFFFFFFFFFFFFFFFFFFFFFFFFFFFFFFFFFFFFFFFF AND PUSH20 0xFFFFFFFFFFFFFFFFFFFFFFFFFFFFFFFFFFFFFFFF AND CALLER PUSH20 0xFFFFFFFFFFFFFFFFFFFFFFFFFFFFFFFFFFFFFFFF AND EQ PUSH2 0x40B JUMPI PUSH1 0x40 MLOAD PUSH32 0x8C379A000000000000000000000000000000000000000000000000000000000 DUP2 MSTORE PUSH1 0x4 ADD PUSH2 0x402 SWAP1 PUSH2 0x1579 JUMP JUMPDEST PUSH1 0x40 MLOAD DUP1 SWAP2 SUB SWAP1 REVERT JUMPDEST PUSH1 0x1 PUSH1 0x3 PUSH0 DUP4 DUP2 MSTORE PUSH1 0x20 ADD SWAP1 DUP2 MSTORE PUSH1 0x20 ADD PUSH0 KECCAK256 PUSH0 PUSH2 0x100 EXP DUP2 SLOAD DUP2 PUSH1 0xFF MUL NOT AND SWAP1 DUP4 ISZERO ISZERO MUL OR SWAP1 SSTORE POP POP JUMP JUMPDEST PUSH0 PUSH1 0x2 PUSH0 SWAP1 SLOAD SWAP1 PUSH2 0x100 EXP SWAP1 DIV PUSH20 0xFFFFFFFFFFFFFFFFFFFFFFFFFFFFFFFFFFFFFFFF AND PUSH20 0xFFFFFFFFFFFFFFFFFFFFFFFFFFFFFFFFFFFFFFFF AND CALLER PUSH20 0xFFFFFFFFFFFFFFFFFFFFFFFFFFFFFFFFFFFFFFFF AND EQ PUSH2 0x4C7 JUMPI PUSH1 0x40 MLOAD PUSH32 0x8C379A000000000000000000000000000000000000000000000000000000000 DUP2 MSTORE PUSH1 0x4 ADD PUSH2 0x4BE SWAP1 PUSH2 0x14B1 JUMP JUMPDEST PUSH1 0x40 MLOAD DUP1 SWAP2 SUB SWAP1 REVERT JUMPDEST PUSH0 PUSH2 0x4D1 DUP4 PUSH2 0xB21 JUMP JUMPDEST SWAP1 POP PUSH1 0x40 MLOAD DUP1 PUSH1 0xA0 ADD PUSH1 0x40 MSTORE DUP1 PUSH0 DUP2 MSTORE PUSH1 0x20 ADD PUSH0 DUP2 MSTORE PUSH1 0x20 ADD DUP3 PUSH0 ADD MLOAD DUP2 MSTORE PUSH1 0x20 ADD DUP5 PUSH1 0xA DUP2 GT ISZERO PUSH2 0x506 JUMPI PUSH2 0x505 PUSH2 0x12C7 JUMP JUMPDEST JUMPDEST DUP2 MSTORE PUSH1 0x20 ADD TIMESTAMP DUP2 MSTORE POP PUSH0 PUSH0 PUSH1 0x1 SLOAD DUP2 MSTORE PUSH1 0x20 ADD SWAP1 DUP2 MSTORE PUSH1 0x20 ADD PUSH0 KECCAK256 PUSH0 DUP3 ADD MLOAD DUP2 PUSH0 ADD SSTORE PUSH1 0x20 DUP3 ADD MLOAD DUP2 PUSH1 0x1 ADD SSTORE PUSH1 0x40 DUP3 ADD MLOAD DUP2 PUSH1 0x2 ADD SSTORE PUSH1 0x60 DUP3 ADD MLOAD DUP2 PUSH1 0x3 ADD PUSH0 PUSH2 0x100 EXP DUP2 SLOAD DUP2 PUSH1 0xFF MUL NOT AND SWAP1 DUP4 PUSH1 0xA DUP2 GT ISZERO PUSH2 0x567 JUMPI PUSH2 0x566 PUSH2 0x12C7 JUMP JUMPDEST JUMPDEST MUL OR SWAP1 SSTORE POP PUSH1 0x80 DUP3 ADD MLOAD DUP2 PUSH1 0x4 ADD SSTORE SWAP1 POP POP CALLER PUSH1 0x4 PUSH0 PUSH1 0x1 SLOAD DUP2 MSTORE PUSH1 0x20 ADD SWAP1 DUP2 MSTORE PUSH1 0x20 ADD PUSH0 KECCAK256 PUSH0 PUSH2 0x100 EXP DUP2 SLOAD DUP2 PUSH20 0xFFFFFFFFFFFFFFFFFFFFFFFFFFFFFFFFFFFFFFFF MUL NOT AND SWAP1 DUP4 PUSH20 0xFFFFFFFFFFFFFFFFFFFFFFFFFFFFFFFFFFFFFFFF AND MUL OR SWAP1 SSTORE POP PUSH1 0x1 PUSH0 DUP2 SLOAD DUP1 SWAP3 SWAP2 SWAP1 PUSH2 0x5DC SWAP1 PUSH2 0x1597 JUMP JUMPDEST SWAP2 SWAP1 POP SSTORE POP PUSH0 SWAP2 POP POP SWAP2 SWAP1 POP JUMP JUMPDEST PUSH0 PUSH20 0xFFFFFFFFFFFFFFFFFFFFFFFFFFFFFFFFFFFFFFFF AND PUSH1 0x2 PUSH0 SWAP1 SLOAD SWAP1 PUSH2 0x100 EXP SWAP1 DIV PUSH20 0xFFFFFFFFFFFFFFFFFFFFFFFFFFFFFFFFFFFFFFFF AND PUSH20 0xFFFFFFFFFFFFFFFFFFFFFFFFFFFFFFFFFFFFFFFF AND EQ PUSH2 0x679 JUMPI PUSH1 0x40 MLOAD PUSH32 0x8C379A000000000000000000000000000000000000000000000000000000000 DUP2 MSTORE PUSH1 0x4 ADD PUSH2 0x670 SWAP1 PUSH2 0x1628 JUMP JUMPDEST PUSH1 0x40 MLOAD DUP1 SWAP2 SUB SWAP1 REVERT JUMPDEST DUP1 PUSH1 0x2 PUSH0 PUSH2 0x100 EXP DUP2 SLOAD DUP2 PUSH20 0xFFFFFFFFFFFFFFFFFFFFFFFFFFFFFFFFFFFFFFFF MUL NOT AND SWAP1 DUP4 PUSH20 0xFFFFFFFFFFFFFFFFFFFFFFFFFFFFFFFFFFFFFFFF AND MUL OR SWAP1 SSTORE POP POP JUMP JUMPDEST PUSH1 0x1 SLOAD DUP2 JUMP JUMPDEST PUSH1 0x4 PUSH1 0x20 MSTORE DUP1 PUSH0 MSTORE PUSH1 0x40 PUSH0 KECCAK256 PUSH0 SWAP2 POP SLOAD SWAP1 PUSH2 0x100 EXP SWAP1 DIV PUSH20 0xFFFFFFFFFFFFFFFFFFFFFFFFFFFFFFFFFFFFFFFF AND DUP2 JUMP JUMPDEST PUSH2 0x6FA PUSH2 0x102A JUMP JUMPDEST PUSH2 0x703 DUP3 PUSH2 0x90A JUMP JUMPDEST PUSH0 PUSH0 DUP4 DUP2 MSTORE PUSH1 0x20 ADD SWAP1 DUP2 MSTORE PUSH1 0x20 ADD PUSH0 KECCAK256 PUSH1 0x40 MLOAD DUP1 PUSH1 0xA0 ADD PUSH1 0x40 MSTORE SWAP1 DUP2 PUSH0 DUP3 ADD SLOAD DUP2 MSTORE PUSH1 0x20 ADD PUSH1 0x1 DUP3 ADD SLOAD DUP2 MSTORE PUSH1 0x20 ADD PUSH1 0x2 DUP3 ADD SLOAD DUP2 MSTORE PUSH1 0x20 ADD PUSH1 0x3 DUP3 ADD PUSH0 SWAP1 SLOAD SWAP1 PUSH2 0x100 EXP SWAP1 DIV PUSH1 0xFF AND PUSH1 0xA DUP2 GT ISZERO PUSH2 0x75F JUMPI PUSH2 0x75E PUSH2 0x12C7 JUMP JUMPDEST JUMPDEST PUSH1 0xA DUP2 GT ISZERO PUSH2 0x771 JUMPI PUSH2 0x770 PUSH2 0x12C7 JUMP JUMPDEST JUMPDEST DUP2 MSTORE PUSH1 0x20 ADD PUSH1 0x4 DUP3 ADD SLOAD DUP2 MSTORE POP POP SWAP1 POP SWAP2 SWAP1 POP JUMP JUMPDEST PUSH1 0x2 PUSH0 SWAP1 SLOAD SWAP1 PUSH2 0x100 EXP SWAP1 DIV PUSH20 0xFFFFFFFFFFFFFFFFFFFFFFFFFFFFFFFFFFFFFFFF AND DUP2 JUMP JUMPDEST CALLER PUSH20 0xFFFFFFFFFFFFFFFFFFFFFFFFFFFFFFFFFFFFFFFF AND PUSH1 0x4 PUSH0 DUP5 DUP2 MSTORE PUSH1 0x20 ADD SWAP1 DUP2 MSTORE PUSH1 0x20 ADD PUSH0 KECCAK256 PUSH0 SWAP1 SLOAD SWAP1 PUSH2 0x100 EXP SWAP1 DIV PUSH20 0xFFFFFFFFFFFFFFFFFFFFFFFFFFFFFFFFFFFFFFFF AND PUSH20 0xFFFFFFFFFFFFFFFFFFFFFFFFFFFFFFFFFFFFFFFF AND EQ PUSH2 0x849 JUMPI PUSH1 0x40 MLOAD PUSH32 0x8C379A000000000000000000000000000000000000000000000000000000000 DUP2 MSTORE PUSH1 0x4 ADD PUSH2 0x840 SWAP1 PUSH2 0x1690 JUMP JUMPDEST PUSH1 0x40 MLOAD DUP1 SWAP2 SUB SWAP1 REVERT JUMPDEST PUSH0 PUSH20 0xFFFFFFFFFFFFFFFFFFFFFFFFFFFFFFFFFFFFFFFF AND DUP2 PUSH20 0xFFFFFFFFFFFFFFFFFFFFFFFFFFFFFFFFFFFFFFFF AND SUB PUSH2 0x8B7 JUMPI PUSH1 0x40 MLOAD PUSH32 0x8C379A000000000000000000000000000000000000000000000000000000000 DUP2 MSTORE PUSH1 0x4 ADD PUSH2 0x8AE SWAP1 PUSH2 0x16F8 JUMP JUMPDEST PUSH1 0x40 MLOAD DUP1 SWAP2 SUB SWAP1 REVERT JUMPDEST DUP1 PUSH1 0x4 PUSH0 DUP5 DUP2 MSTORE PUSH1 0x20 ADD SWAP1 DUP2 MSTORE PUSH1 0x20 ADD PUSH0 KECCAK256 PUSH0 PUSH2 0x100 EXP DUP2 SLOAD DUP2 PUSH20 0xFFFFFFFFFFFFFFFFFFFFFFFFFFFFFFFFFFFFFFFF MUL NOT AND SWAP1 DUP4 PUSH20 0xFFFFFFFFFFFFFFFFFFFFFFFFFFFFFFFFFFFFFFFF AND MUL OR SWAP1 SSTORE POP POP POP JUMP JUMPDEST PUSH0 PUSH0 PUSH0 DUP4 DUP2 MSTORE PUSH1 0x20 ADD SWAP1 DUP2 MSTORE PUSH1 0x20 ADD PUSH0 KECCAK256 SWAP1 POP PUSH0 DUP2 PUSH1 0x4 ADD SLOAD TIMESTAMP PUSH2 0x92E SWAP2 SWAP1 PUSH2 0x14FC JUMP JUMPDEST SWAP1 POP PUSH0 DUP2 GT ISZERO PUSH2 0xA01 JUMPI PUSH0 PUSH2 0xE10 PUSH2 0x955 DUP5 PUSH1 0x3 ADD PUSH0 SWAP1 SLOAD SWAP1 PUSH2 0x100 EXP SWAP1 DIV PUSH1 0xFF AND PUSH2 0xB21 JUMP JUMPDEST PUSH1 0x40 ADD MLOAD DUP4 PUSH2 0x964 SWAP2 SWAP1 PUSH2 0x1716 JUMP JUMPDEST PUSH2 0x96E SWAP2 SWAP1 PUSH2 0x1784 JUMP JUMPDEST SWAP1 POP DUP1 DUP4 PUSH1 0x1 ADD PUSH0 DUP3 DUP3 SLOAD PUSH2 0x983 SWAP2 SWAP1 PUSH2 0x17B4 JUMP JUMPDEST SWAP3 POP POP DUP2 SWAP1 SSTORE POP PUSH0 PUSH2 0x9A4 DUP5 PUSH1 0x3 ADD PUSH0 SWAP1 SLOAD SWAP1 PUSH2 0x100 EXP SWAP1 DIV PUSH1 0xFF AND PUSH2 0xB21 JUMP JUMPDEST PUSH1 0x20 ADD MLOAD SWAP1 POP DUP1 DUP5 PUSH1 0x1 ADD SLOAD GT ISZERO PUSH2 0x9C0 JUMPI DUP1 DUP5 PUSH1 0x1 ADD DUP2 SWAP1 SSTORE POP JUMPDEST PUSH0 PUSH3 0x15180 DUP5 PUSH2 0x9D0 SWAP2 SWAP1 PUSH2 0x1784 JUMP JUMPDEST SWAP1 POP PUSH0 DUP2 GT ISZERO PUSH2 0x9F4 JUMPI DUP1 DUP6 PUSH0 ADD PUSH0 DUP3 DUP3 SLOAD PUSH2 0x9EC SWAP2 SWAP1 PUSH2 0x17B4 JUMP JUMPDEST SWAP3 POP POP DUP2 SWAP1 SSTORE POP JUMPDEST TIMESTAMP DUP6 PUSH1 0x4 ADD DUP2 SWAP1 SSTORE POP POP POP POP JUMPDEST POP POP POP JUMP JUMPDEST PUSH0 PUSH1 0x20 MSTORE DUP1 PUSH0 MSTORE PUSH1 0x40 PUSH0 KECCAK256 PUSH0 SWAP2 POP SWAP1 POP DUP1 PUSH0 ADD SLOAD SWAP1 DUP1 PUSH1 0x1 ADD SLOAD SWAP1 DUP1 PUSH1 0x2 ADD SLOAD SWAP1 DUP1 PUSH1 0x3 ADD PUSH0 SWAP1 SLOAD SWAP1 PUSH2 0x100 EXP SWAP1 DIV PUSH1 0xFF AND SWAP1 DUP1 PUSH1 0x4 ADD SLOAD SWAP1 POP DUP6 JUMP JUMPDEST PUSH2 0xA4B PUSH2 0x1066 JUMP JUMPDEST PUSH0 PUSH0 PUSH0 DUP5 DUP2 MSTORE PUSH1 0x20 ADD SWAP1 DUP2 MSTORE PUSH1 0x20 ADD PUSH0 KECCAK256 SWAP1 POP PUSH2 0xA77 DUP2 PUSH1 0x3 ADD PUSH0 SWAP1 SLOAD SWAP1 PUSH2 0x100 EXP SWAP1 DIV PUSH1 0xFF AND PUSH2 0xB21 JUMP JUMPDEST SWAP2 POP PUSH1 0x3 PUSH0 DUP5 DUP2 MSTORE PUSH1 0x20 ADD SWAP1 DUP2 MSTORE PUSH1 0x20 ADD PUSH0 KECCAK256 PUSH0 SWAP1 SLOAD SWAP1 PUSH2 0x100 EXP SWAP1 DIV PUSH1 0xFF AND PUSH2 0xB1C JUMPI PUSH0 PUSH2 0xAB5 DUP3 PUSH1 0x3 ADD PUSH0 SWAP1 SLOAD SWAP1 PUSH2 0x100 EXP SWAP1 DIV PUSH1 0xFF AND PUSH2 0xB21 JUMP JUMPDEST PUSH1 0x60 ADD MLOAD SWAP1 POP PUSH0 PUSH1 0x64 TIMESTAMP DUP7 PUSH1 0x40 MLOAD PUSH1 0x20 ADD PUSH2 0xAD1 SWAP3 SWAP2 SWAP1 PUSH2 0x1807 JUMP JUMPDEST PUSH1 0x40 MLOAD PUSH1 0x20 DUP2 DUP4 SUB SUB DUP2 MSTORE SWAP1 PUSH1 0x40 MSTORE DUP1 MLOAD SWAP1 PUSH1 0x20 ADD KECCAK256 PUSH0 SHR PUSH2 0xAF3 SWAP2 SWAP1 PUSH2 0x1832 JUMP JUMPDEST SWAP1 POP DUP2 DUP2 LT ISZERO PUSH2 0xB19 JUMPI PUSH1 0x19 DUP4 PUSH1 0x2 ADD PUSH0 DUP3 DUP3 SLOAD PUSH2 0xB11 SWAP2 SWAP1 PUSH2 0x14FC JUMP JUMPDEST SWAP3 POP POP DUP2 SWAP1 SSTORE POP JUMPDEST POP POP JUMPDEST POP POP POP JUMP JUMPDEST PUSH2 0xB29 PUSH2 0x1066 JUMP JUMPDEST PUSH0 PUSH1 0xA DUP2 GT ISZERO PUSH2 0xB3C JUMPI PUSH2 0xB3B PUSH2 0x12C7 JUMP JUMPDEST JUMPDEST DUP3 PUSH1 0xA DUP2 GT ISZERO PUSH2 0xB4F JUMPI PUSH2 0xB4E PUSH2 0x12C7 JUMP JUMPDEST JUMPDEST SUB PUSH2 0xB9E JUMPI PUSH1 0x40 MLOAD DUP1 PUSH1 0xA0 ADD PUSH1 0x40 MSTORE DUP1 PUSH1 0xC8 DUP2 MSTORE PUSH1 0x20 ADD PUSH1 0x96 DUP2 MSTORE PUSH1 0x20 ADD PUSH1 0x3 DUP2 MSTORE PUSH1 0x20 ADD PUSH1 0x1 DUP2 MSTORE PUSH1 0x20 ADD PUSH1 0x40 MLOAD DUP1 PUSH1 0x80 ADD PUSH1 0x40 MSTORE DUP1 PUSH1 0x5D DUP2 MSTORE PUSH1 0x20 ADD PUSH2 0x18CB PUSH1 0x5D SWAP2 CODECOPY DUP2 MSTORE POP SWAP1 POP PUSH2 0x1025 JUMP JUMPDEST PUSH1 0x1 PUSH1 0xA DUP2 GT ISZERO PUSH2 0xBB2 JUMPI PUSH2 0xBB1 PUSH2 0x12C7 JUMP JUMPDEST JUMPDEST DUP3 PUSH1 0xA DUP2 GT ISZERO PUSH2 0xBC5 JUMPI PUSH2 0xBC4 PUSH2 0x12C7 JUMP JUMPDEST JUMPDEST SUB PUSH2 0xC14 JUMPI PUSH1 0x40 MLOAD DUP1 PUSH1 0xA0 ADD PUSH1 0x40 MSTORE DUP1 PUSH1 0xDC DUP2 MSTORE PUSH1 0x20 ADD PUSH1 0xC8 DUP2 MSTORE PUSH1 0x20 ADD PUSH1 0x2 DUP2 MSTORE PUSH1 0x20 ADD PUSH1 0x5 DUP2 MSTORE PUSH1 0x20 ADD PUSH1 0x40 MLOAD DUP1 PUSH1 0x80 ADD PUSH1 0x40 MSTORE DUP1 PUSH1 0x5D DUP2 MSTORE PUSH1 0x20 ADD PUSH2 0x1985 PUSH1 0x5D SWAP2 CODECOPY DUP2 MSTORE POP SWAP1 POP PUSH2 0x1025 JUMP JUMPDEST PUSH1 0x2 PUSH1 0xA DUP2 GT ISZERO PUSH2 0xC28 JUMPI PUSH2 0xC27 PUSH2 0x12C7 JUMP JUMPDEST JUMPDEST DUP3 PUSH1 0xA DUP2 GT ISZERO PUSH2 0xC3B JUMPI PUSH2 0xC3A PUSH2 0x12C7 JUMP JUMPDEST JUMPDEST SUB PUSH2 0xC8A JUMPI PUSH1 0x40 MLOAD DUP1 PUSH1 0xA0 ADD PUSH1 0x40 MSTORE DUP1 PUSH1 0x50 DUP2 MSTORE PUSH1 0x20 ADD PUSH1 0x50 DUP2 MSTORE PUSH1 0x20 ADD PUSH1 0x3 DUP2 MSTORE PUSH1 0x20 ADD PUSH1 0x6 DUP2 MSTORE PUSH1 0x20 ADD PUSH1 0x40 MLOAD DUP1 PUSH1 0x80 ADD PUSH1 0x40 MSTORE DUP1 PUSH1 0x5D DUP2 MSTORE PUSH1 0x20 ADD PUSH2 0x1928 PUSH1 0x5D SWAP2 CODECOPY DUP2 MSTORE POP SWAP1 POP PUSH2 0x1025 JUMP JUMPDEST PUSH1 0xA DUP1 DUP2 GT ISZERO PUSH2 0xC9D JUMPI PUSH2 0xC9C PUSH2 0x12C7 JUMP JUMPDEST JUMPDEST DUP3 PUSH1 0xA DUP2 GT ISZERO PUSH2 0xCB0 JUMPI PUSH2 0xCAF PUSH2 0x12C7 JUMP JUMPDEST JUMPDEST SUB PUSH2 0xCF6 JUMPI PUSH1 0x40 MLOAD DUP1 PUSH1 0xA0 ADD PUSH1 0x40 MSTORE DUP1 PUSH2 0x12C DUP2 MSTORE PUSH1 0x20 ADD PUSH2 0x12C DUP2 MSTORE PUSH1 0x20 ADD PUSH1 0x1 DUP2 MSTORE PUSH1 0x20 ADD PUSH0 DUP2 MSTORE PUSH1 0x20 ADD PUSH1 0x40 MLOAD DUP1 PUSH1 0x20 ADD PUSH1 0x40 MSTORE DUP1 PUSH0 DUP2 MSTORE POP DUP2 MSTORE POP SWAP1 POP PUSH2 0x1025 JUMP JUMPDEST PUSH1 0x3 PUSH1 0xA DUP2 GT ISZERO PUSH2 0xD0A JUMPI PUSH2 0xD09 PUSH2 0x12C7 JUMP JUMPDEST JUMPDEST DUP3 PUSH1 0xA DUP2 GT ISZERO PUSH2 0xD1D JUMPI PUSH2 0xD1C PUSH2 0x12C7 JUMP JUMPDEST JUMPDEST SUB PUSH2 0xD62 JUMPI PUSH1 0x40 MLOAD DUP1 PUSH1 0xA0 ADD PUSH1 0x40 MSTORE DUP1 PUSH1 0xB4 DUP2 MSTORE PUSH1 0x20 ADD PUSH1 0x5A DUP2 MSTORE PUSH1 0x20 ADD PUSH1 0x2 DUP2 MSTORE PUSH1 0x20 ADD PUSH1 0x4 DUP2 MSTORE PUSH1 0x20 ADD PUSH1 0x40 MLOAD DUP1 PUSH1 0x20 ADD PUSH1 0x40 MSTORE DUP1 PUSH0 DUP2 MSTORE POP DUP2 MSTORE POP SWAP1 POP PUSH2 0x1025 JUMP JUMPDEST PUSH1 0x4 PUSH1 0xA DUP2 GT ISZERO PUSH2 0xD76 JUMPI PUSH2 0xD75 PUSH2 0x12C7 JUMP JUMPDEST JUMPDEST DUP3 PUSH1 0xA DUP2 GT ISZERO PUSH2 0xD89 JUMPI PUSH2 0xD88 PUSH2 0x12C7 JUMP JUMPDEST JUMPDEST SUB PUSH2 0xDCE JUMPI PUSH1 0x40 MLOAD DUP1 PUSH1 0xA0 ADD PUSH1 0x40 MSTORE DUP1 PUSH1 0x50 DUP2 MSTORE PUSH1 0x20 ADD PUSH1 0x46 DUP2 MSTORE PUSH1 0x20 ADD PUSH1 0x2 DUP2 MSTORE PUSH1 0x20 ADD PUSH1 0x8 DUP2 MSTORE PUSH1 0x20 ADD PUSH1 0x40 MLOAD DUP1 PUSH1 0x20 ADD PUSH1 0x40 MSTORE DUP1 PUSH0 DUP2 MSTORE POP DUP2 MSTORE POP SWAP1 POP PUSH2 0x1025 JUMP JUMPDEST PUSH1 0x5 PUSH1 0xA DUP2 GT ISZERO PUSH2 0xDE2 JUMPI PUSH2 0xDE1 PUSH2 0x12C7 JUMP JUMPDEST JUMPDEST DUP3 PUSH1 0xA DUP2 GT ISZERO PUSH2 0xDF5 JUMPI PUSH2 0xDF4 PUSH2 0x12C7 JUMP JUMPDEST JUMPDEST SUB PUSH2 0xE3A JUMPI PUSH1 0x40 MLOAD DUP1 PUSH1 0xA0 ADD PUSH1 0x40 MSTORE DUP1 PUSH1 0x32 DUP2 MSTORE PUSH1 0x20 ADD PUSH1 0x3C DUP2 MSTORE PUSH1 0x20 ADD PUSH1 0x4 DUP2 MSTORE PUSH1 0x20 ADD PUSH1 0x5 DUP2 MSTORE PUSH1 0x20 ADD PUSH1 0x40 MLOAD DUP1 PUSH1 0x20 ADD PUSH1 0x40 MSTORE DUP1 PUSH0 DUP2 MSTORE POP DUP2 MSTORE POP SWAP1 POP PUSH2 0x1025 JUMP JUMPDEST PUSH1 0x6 PUSH1 0xA DUP2 GT ISZERO PUSH2 0xE4E JUMPI PUSH2 0xE4D PUSH2 0x12C7 JUMP JUMPDEST JUMPDEST DUP3 PUSH1 0xA DUP2 GT ISZERO PUSH2 0xE61 JUMPI PUSH2 0xE60 PUSH2 0x12C7 JUMP JUMPDEST JUMPDEST SUB PUSH2 0xEA6 JUMPI PUSH1 0x40 MLOAD DUP1 PUSH1 0xA0 ADD PUSH1 0x40 MSTORE DUP1 PUSH1 0x37 DUP2 MSTORE PUSH1 0x20 ADD PUSH1 0x28 DUP2 MSTORE PUSH1 0x20 ADD PUSH1 0x3 DUP2 MSTORE PUSH1 0x20 ADD PUSH1 0x4 DUP2 MSTORE PUSH1 0x20 ADD PUSH1 0x40 MLOAD DUP1 PUSH1 0x20 ADD PUSH1 0x40 MSTORE DUP1 PUSH0 DUP2 MSTORE POP DUP2 MSTORE POP SWAP1 POP PUSH2 0x1025 JUMP JUMPDEST PUSH1 0x7 PUSH1 0xA DUP2 GT ISZERO PUSH2 0xEBA JUMPI PUSH2 0xEB9 PUSH2 0x12C7 JUMP JUMPDEST JUMPDEST DUP3 PUSH1 0xA DUP2 GT ISZERO PUSH2 0xECD JUMPI PUSH2 0xECC PUSH2 0x12C7 JUMP JUMPDEST JUMPDEST SUB PUSH2 0xF12 JUMPI PUSH1 0x40 MLOAD DUP1 PUSH1 0xA0 ADD PUSH1 0x40 MSTORE DUP1 PUSH1 0x4E DUP2 MSTORE PUSH1 0x20 ADD PUSH1 0x41 DUP2 MSTORE PUSH1 0x20 ADD PUSH1 0x2 DUP2 MSTORE PUSH1 0x20 ADD PUSH1 0x4 DUP2 MSTORE PUSH1 0x20 ADD PUSH1 0x40 MLOAD DUP1 PUSH1 0x20 ADD PUSH1 0x40 MSTORE DUP1 PUSH0 DUP2 MSTORE POP DUP2 MSTORE POP SWAP1 POP PUSH2 0x1025 JUMP JUMPDEST PUSH1 0x8 PUSH1 0xA DUP2 GT ISZERO PUSH2 0xF26 JUMPI PUSH2 0xF25 PUSH2 0x12C7 JUMP JUMPDEST JUMPDEST DUP3 PUSH1 0xA DUP2 GT ISZERO PUSH2 0xF39 JUMPI PUSH2 0xF38 PUSH2 0x12C7 JUMP JUMPDEST JUMPDEST SUB PUSH2 0xF7E JUMPI PUSH1 0x40 MLOAD DUP1 PUSH1 0xA0 ADD PUSH1 0x40 MSTORE DUP1 PUSH1 0x96 DUP2 MSTORE PUSH1 0x20 ADD PUSH1 0x64 DUP2 MSTORE PUSH1 0x20 ADD PUSH1 0x4 DUP2 MSTORE PUSH1 0x20 ADD PUSH1 0x3 DUP2 MSTORE PUSH1 0x20 ADD PUSH1 0x40 MLOAD DUP1 PUSH1 0x20 ADD PUSH1 0x40 MSTORE DUP1 PUSH0 DUP2 MSTORE POP DUP2 MSTORE POP SWAP1 POP PUSH2 0x1025 JUMP JUMPDEST PUSH1 0x9 PUSH1 0xA DUP2 GT ISZERO PUSH2 0xF92 JUMPI PUSH2 0xF91 PUSH2 0x12C7 JUMP JUMPDEST JUMPDEST DUP3 PUSH1 0xA DUP2 GT ISZERO PUSH2 0xFA5 JUMPI PUSH2 0xFA4 PUSH2 0x12C7 JUMP JUMPDEST JUMPDEST SUB PUSH2 0xFEA JUMPI PUSH1 0x40 MLOAD DUP1 PUSH1 0xA0 ADD PUSH1 0x40 MSTORE DUP1 PUSH1 0x23 DUP2 MSTORE PUSH1 0x20 ADD PUSH1 0x42 DUP2 MSTORE PUSH1 0x20 ADD PUSH1 0x4 DUP2 MSTORE PUSH1 0x20 ADD PUSH1 0x5 DUP2 MSTORE PUSH1 0x20 ADD PUSH1 0x40 MLOAD DUP1 PUSH1 0x20 ADD PUSH1 0x40 MSTORE DUP1 PUSH0 DUP2 MSTORE POP DUP2 MSTORE POP SWAP1 POP PUSH2 0x1025 JUMP JUMPDEST PUSH1 0x40 MLOAD PUSH32 0x8C379A000000000000000000000000000000000000000000000000000000000 DUP2 MSTORE PUSH1 0x4 ADD PUSH2 0x101C SWAP1 PUSH2 0x18AC JUMP JUMPDEST PUSH1 0x40 MLOAD DUP1 SWAP2 SUB SWAP1 REVERT JUMPDEST SWAP2 SWAP1 POP JUMP JUMPDEST PUSH1 0x40 MLOAD DUP1 PUSH1 0xA0 ADD PUSH1 0x40 MSTORE DUP1 PUSH0 DUP2 MSTORE PUSH1 0x20 ADD PUSH0 DUP2 MSTORE PUSH1 0x20 ADD PUSH0 DUP2 MSTORE PUSH1 0x20 ADD PUSH0 PUSH1 0xA DUP2 GT ISZERO PUSH2 0x105A JUMPI PUSH2 0x1059 PUSH2 0x12C7 JUMP JUMPDEST JUMPDEST DUP2 MSTORE PUSH1 0x20 ADD PUSH0 DUP2 MSTORE POP SWAP1 JUMP JUMPDEST PUSH1 0x40 MLOAD DUP1 PUSH1 0xA0 ADD PUSH1 0x40 MSTORE DUP1 PUSH0 DUP2 MSTORE PUSH1 0x20 ADD PUSH0 DUP2 MSTORE PUSH1 0x20 ADD PUSH0 DUP2 MSTORE PUSH1 0x20 ADD PUSH0 DUP2 MSTORE PUSH1 0x20 ADD PUSH1 0x60 DUP2 MSTORE POP SWAP1 JUMP JUMPDEST PUSH0 PUSH0 REVERT JUMPDEST PUSH0 DUP2 SWAP1 POP SWAP2 SWAP1 POP JUMP JUMPDEST PUSH2 0x10A7 DUP2 PUSH2 0x1095 JUMP JUMPDEST DUP2 EQ PUSH2 0x10B1 JUMPI PUSH0 PUSH0 REVERT JUMPDEST POP JUMP JUMPDEST PUSH0 DUP2 CALLDATALOAD SWAP1 POP PUSH2 0x10C2 DUP2 PUSH2 0x109E JUMP JUMPDEST SWAP3 SWAP2 POP POP JUMP JUMPDEST PUSH0 PUSH1 0x20 DUP3 DUP5 SUB SLT ISZERO PUSH2 0x10DD JUMPI PUSH2 0x10DC PUSH2 0x1091 JUMP JUMPDEST JUMPDEST PUSH0 PUSH2 0x10EA DUP5 DUP3 DUP6 ADD PUSH2 0x10B4 JUMP JUMPDEST SWAP2 POP POP SWAP3 SWAP2 POP POP JUMP JUMPDEST PUSH0 DUP2 ISZERO ISZERO SWAP1 POP SWAP2 SWAP1 POP JUMP JUMPDEST PUSH2 0x1107 DUP2 PUSH2 0x10F3 JUMP JUMPDEST DUP3 MSTORE POP POP JUMP JUMPDEST PUSH0 PUSH1 0x20 DUP3 ADD SWAP1 POP PUSH2 0x1120 PUSH0 DUP4 ADD DUP5 PUSH2 0x10FE JUMP JUMPDEST SWAP3 SWAP2 POP POP JUMP JUMPDEST PUSH0 PUSH0 PUSH1 0x40 DUP4 DUP6 SUB SLT ISZERO PUSH2 0x113C JUMPI PUSH2 0x113B PUSH2 0x1091 JUMP JUMPDEST JUMPDEST PUSH0 PUSH2 0x1149 DUP6 DUP3 DUP7 ADD PUSH2 0x10B4 JUMP JUMPDEST SWAP3 POP POP PUSH1 0x20 PUSH2 0x115A DUP6 DUP3 DUP7 ADD PUSH2 0x10B4 JUMP JUMPDEST SWAP2 POP POP SWAP3 POP SWAP3 SWAP1 POP JUMP JUMPDEST PUSH1 0xB DUP2 LT PUSH2 0x1170 JUMPI PUSH0 PUSH0 REVERT JUMPDEST POP JUMP JUMPDEST PUSH0 DUP2 CALLDATALOAD SWAP1 POP PUSH2 0x1181 DUP2 PUSH2 0x1164 JUMP JUMPDEST SWAP3 SWAP2 POP POP JUMP JUMPDEST PUSH0 PUSH1 0x20 DUP3 DUP5 SUB SLT ISZERO PUSH2 0x119C JUMPI PUSH2 0x119B PUSH2 0x1091 JUMP JUMPDEST JUMPDEST PUSH0 PUSH2 0x11A9 DUP5 DUP3 DUP6 ADD PUSH2 0x1173 JUMP JUMPDEST SWAP2 POP POP SWAP3 SWAP2 POP POP JUMP JUMPDEST PUSH0 DUP2 SWAP1 POP SWAP2 SWAP1 POP JUMP JUMPDEST PUSH2 0x11C4 DUP2 PUSH2 0x11B2 JUMP JUMPDEST DUP3 MSTORE POP POP JUMP JUMPDEST PUSH0 PUSH1 0x20 DUP3 ADD SWAP1 POP PUSH2 0x11DD PUSH0 DUP4 ADD DUP5 PUSH2 0x11BB JUMP JUMPDEST SWAP3 SWAP2 POP POP JUMP JUMPDEST PUSH0 PUSH20 0xFFFFFFFFFFFFFFFFFFFFFFFFFFFFFFFFFFFFFFFF DUP3 AND SWAP1 POP SWAP2 SWAP1 POP JUMP JUMPDEST PUSH0 PUSH2 0x120C DUP3 PUSH2 0x11E3 JUMP JUMPDEST SWAP1 POP SWAP2 SWAP1 POP JUMP JUMPDEST PUSH2 0x121C DUP2 PUSH2 0x1202 JUMP JUMPDEST DUP2 EQ PUSH2 0x1226 JUMPI PUSH0 PUSH0 REVERT JUMPDEST POP JUMP JUMPDEST PUSH0 DUP2 CALLDATALOAD SWAP1 POP PUSH2 0x1237 DUP2 PUSH2 0x1213 JUMP JUMPDEST SWAP3 SWAP2 POP POP JUMP JUMPDEST PUSH0 PUSH1 0x20 DUP3 DUP5 SUB SLT ISZERO PUSH2 0x1252 JUMPI PUSH2 0x1251 PUSH2 0x1091 JUMP JUMPDEST JUMPDEST PUSH0 PUSH2 0x125F DUP5 DUP3 DUP6 ADD PUSH2 0x1229 JUMP JUMPDEST SWAP2 POP POP SWAP3 SWAP2 POP POP JUMP JUMPDEST PUSH2 0x1271 DUP2 PUSH2 0x1095 JUMP JUMPDEST DUP3 MSTORE POP POP JUMP JUMPDEST PUSH0 PUSH1 0x20 DUP3 ADD SWAP1 POP PUSH2 0x128A PUSH0 DUP4 ADD DUP5 PUSH2 0x1268 JUMP JUMPDEST SWAP3 SWAP2 POP POP JUMP JUMPDEST PUSH2 0x1299 DUP2 PUSH2 0x1202 JUMP JUMPDEST DUP3 MSTORE POP POP JUMP JUMPDEST PUSH0 PUSH1 0x20 DUP3 ADD SWAP1 POP PUSH2 0x12B2 PUSH0 DUP4 ADD DUP5 PUSH2 0x1290 JUMP JUMPDEST SWAP3 SWAP2 POP POP JUMP JUMPDEST PUSH2 0x12C1 DUP2 PUSH2 0x1095 JUMP JUMPDEST DUP3 MSTORE POP POP JUMP JUMPDEST PUSH32 0x4E487B7100000000000000000000000000000000000000000000000000000000 PUSH0 MSTORE PUSH1 0x21 PUSH1 0x4 MSTORE PUSH1 0x24 PUSH0 REVERT JUMPDEST PUSH1 0xB DUP2 LT PUSH2 0x1305 JUMPI PUSH2 0x1304 PUSH2 0x12C7 JUMP JUMPDEST JUMPDEST POP JUMP JUMPDEST PUSH0 DUP2 SWAP1 POP PUSH2 0x1315 DUP3 PUSH2 0x12F4 JUMP JUMPDEST SWAP2 SWAP1 POP JUMP JUMPDEST PUSH0 PUSH2 0x1324 DUP3 PUSH2 0x1308 JUMP JUMPDEST SWAP1 POP SWAP2 SWAP1 POP JUMP JUMPDEST PUSH2 0x1334 DUP2 PUSH2 0x131A JUMP JUMPDEST DUP3 MSTORE POP POP JUMP JUMPDEST PUSH1 0xA0 DUP3 ADD PUSH0 DUP3 ADD MLOAD PUSH2 0x134E PUSH0 DUP6 ADD DUP3 PUSH2 0x12B8 JUMP JUMPDEST POP PUSH1 0x20 DUP3 ADD MLOAD PUSH2 0x1361 PUSH1 0x20 DUP6 ADD DUP3 PUSH2 0x12B8 JUMP JUMPDEST POP PUSH1 0x40 DUP3 ADD MLOAD PUSH2 0x1374 PUSH1 0x40 DUP6 ADD DUP3 PUSH2 0x12B8 JUMP JUMPDEST POP PUSH1 0x60 DUP3 ADD MLOAD PUSH2 0x1387 PUSH1 0x60 DUP6 ADD DUP3 PUSH2 0x132B JUMP JUMPDEST POP PUSH1 0x80 DUP3 ADD MLOAD PUSH2 0x139A PUSH1 0x80 DUP6 ADD DUP3 PUSH2 0x12B8 JUMP JUMPDEST POP POP POP POP JUMP JUMPDEST PUSH0 PUSH1 0xA0 DUP3 ADD SWAP1 POP PUSH2 0x13B3 PUSH0 DUP4 ADD DUP5 PUSH2 0x133A JUMP JUMPDEST SWAP3 SWAP2 POP POP JUMP JUMPDEST PUSH0 PUSH0 PUSH1 0x40 DUP4 DUP6 SUB SLT ISZERO PUSH2 0x13CF JUMPI PUSH2 0x13CE PUSH2 0x1091 JUMP JUMPDEST JUMPDEST PUSH0 PUSH2 0x13DC DUP6 DUP3 DUP7 ADD PUSH2 0x10B4 JUMP JUMPDEST SWAP3 POP POP PUSH1 0x20 PUSH2 0x13ED DUP6 DUP3 DUP7 ADD PUSH2 0x1229 JUMP JUMPDEST SWAP2 POP POP SWAP3 POP SWAP3 SWAP1 POP JUMP JUMPDEST PUSH2 0x1400 DUP2 PUSH2 0x131A JUMP JUMPDEST DUP3 MSTORE POP POP JUMP JUMPDEST PUSH0 PUSH1 0xA0 DUP3 ADD SWAP1 POP PUSH2 0x1419 PUSH0 DUP4 ADD DUP9 PUSH2 0x1268 JUMP JUMPDEST PUSH2 0x1426 PUSH1 0x20 DUP4 ADD DUP8 PUSH2 0x1268 JUMP JUMPDEST PUSH2 0x1433 PUSH1 0x40 DUP4 ADD DUP7 PUSH2 0x1268 JUMP JUMPDEST PUSH2 0x1440 PUSH1 0x60 DUP4 ADD DUP6 PUSH2 0x13F7 JUMP JUMPDEST PUSH2 0x144D PUSH1 0x80 DUP4 ADD DUP5 PUSH2 0x1268 JUMP JUMPDEST SWAP7 SWAP6 POP POP POP POP POP POP JUMP JUMPDEST PUSH0 DUP3 DUP3 MSTORE PUSH1 0x20 DUP3 ADD SWAP1 POP SWAP3 SWAP2 POP POP JUMP JUMPDEST PUSH32 0x4F6E6C79205061726B2063616E2063616C6C2074686973000000000000000000 PUSH0 DUP3 ADD MSTORE POP JUMP JUMPDEST PUSH0 PUSH2 0x149B PUSH1 0x17 DUP4 PUSH2 0x1457 JUMP JUMPDEST SWAP2 POP PUSH2 0x14A6 DUP3 PUSH2 0x1467 JUMP JUMPDEST PUSH1 0x20 DUP3 ADD SWAP1 POP SWAP2 SWAP1 POP JUMP JUMPDEST PUSH0 PUSH1 0x20 DUP3 ADD SWAP1 POP DUP2 DUP2 SUB PUSH0 DUP4 ADD MSTORE PUSH2 0x14C8 DUP2 PUSH2 0x148F JUMP JUMPDEST SWAP1 POP SWAP2 SWAP1 POP JUMP JUMPDEST PUSH32 0x4E487B7100000000000000000000000000000000000000000000000000000000 PUSH0 MSTORE PUSH1 0x11 PUSH1 0x4 MSTORE PUSH1 0x24 PUSH0 REVERT JUMPDEST PUSH0 PUSH2 0x1506 DUP3 PUSH2 0x1095 JUMP JUMPDEST SWAP2 POP PUSH2 0x1511 DUP4 PUSH2 0x1095 JUMP JUMPDEST SWAP3 POP DUP3 DUP3 SUB SWAP1 POP DUP2 DUP2 GT ISZERO PUSH2 0x1529 JUMPI PUSH2 0x1528 PUSH2 0x14CF JUMP JUMPDEST JUMPDEST SWAP3 SWAP2 POP POP JUMP JUMPDEST PUSH32 0x4F6E6C79205061726B2063616E20696E73757265000000000000000000000000 PUSH0 DUP3 ADD MSTORE POP JUMP JUMPDEST PUSH0 PUSH2 0x1563 PUSH1 0x14 DUP4 PUSH2 0x1457 JUMP JUMPDEST SWAP2 POP PUSH2 0x156E DUP3 PUSH2 0x152F JUMP JUMPDEST PUSH1 0x20 DUP3 ADD SWAP1 POP SWAP2 SWAP1 POP JUMP JUMPDEST PUSH0 PUSH1 0x20 DUP3 ADD SWAP1 POP DUP2 DUP2 SUB PUSH0 DUP4 ADD MSTORE PUSH2 0x1590 DUP2 PUSH2 0x1557 JUMP JUMPDEST SWAP1 POP SWAP2 SWAP1 POP JUMP JUMPDEST PUSH0 PUSH2 0x15A1 DUP3 PUSH2 0x1095 JUMP JUMPDEST SWAP2 POP PUSH32 0xFFFFFFFFFFFFFFFFFFFFFFFFFFFFFFFFFFFFFFFFFFFFFFFFFFFFFFFFFFFFFFFF DUP3 SUB PUSH2 0x15D3 JUMPI PUSH2 0x15D2 PUSH2 0x14CF JUMP JUMPDEST JUMPDEST PUSH1 0x1 DUP3 ADD SWAP1 POP SWAP2 SWAP1 POP JUMP JUMPDEST PUSH32 0x5061726B20616C72656164792073657400000000000000000000000000000000 PUSH0 DUP3 ADD MSTORE POP JUMP JUMPDEST PUSH0 PUSH2 0x1612 PUSH1 0x10 DUP4 PUSH2 0x1457 JUMP JUMPDEST SWAP2 POP PUSH2 0x161D DUP3 PUSH2 0x15DE JUMP JUMPDEST PUSH1 0x20 DUP3 ADD SWAP1 POP SWAP2 SWAP1 POP JUMP JUMPDEST PUSH0 PUSH1 0x20 DUP3 ADD SWAP1 POP DUP2 DUP2 SUB PUSH0 DUP4 ADD MSTORE PUSH2 0x163F DUP2 PUSH2 0x1606 JUMP JUMPDEST SWAP1 POP SWAP2 SWAP1 POP JUMP JUMPDEST PUSH32 0x4E6F7420746865206F776E657200000000000000000000000000000000000000 PUSH0 DUP3 ADD MSTORE POP JUMP JUMPDEST PUSH0 PUSH2 0x167A PUSH1 0xD DUP4 PUSH2 0x1457 JUMP JUMPDEST SWAP2 POP PUSH2 0x1685 DUP3 PUSH2 0x1646 JUMP JUMPDEST PUSH1 0x20 DUP3 ADD SWAP1 POP SWAP2 SWAP1 POP JUMP JUMPDEST PUSH0 PUSH1 0x20 DUP3 ADD SWAP1 POP DUP2 DUP2 SUB PUSH0 DUP4 ADD MSTORE PUSH2 0x16A7 DUP2 PUSH2 0x166E JUMP JUMPDEST SWAP1 POP SWAP2 SWAP1 POP JUMP JUMPDEST PUSH32 0x496E76616C696420616464726573730000000000000000000000000000000000 PUSH0 DUP3 ADD MSTORE POP JUMP JUMPDEST PUSH0 PUSH2 0x16E2 PUSH1 0xF DUP4 PUSH2 0x1457 JUMP JUMPDEST SWAP2 POP PUSH2 0x16ED DUP3 PUSH2 0x16AE JUMP JUMPDEST PUSH1 0x20 DUP3 ADD SWAP1 POP SWAP2 SWAP1 POP JUMP JUMPDEST PUSH0 PUSH1 0x20 DUP3 ADD SWAP1 POP DUP2 DUP2 SUB PUSH0 DUP4 ADD MSTORE PUSH2 0x170F DUP2 PUSH2 0x16D6 JUMP JUMPDEST SWAP1 POP SWAP2 SWAP1 POP JUMP JUMPDEST PUSH0 PUSH2 0x1720 DUP3 PUSH2 0x1095 JUMP JUMPDEST SWAP2 POP PUSH2 0x172B DUP4 PUSH2 0x1095 JUMP JUMPDEST SWAP3 POP DUP3 DUP3 MUL PUSH2 0x1739 DUP2 PUSH2 0x1095 JUMP JUMPDEST SWAP2 POP DUP3 DUP3 DIV DUP5 EQ DUP4 ISZERO OR PUSH2 0x1750 JUMPI PUSH2 0x174F PUSH2 0x14CF JUMP JUMPDEST JUMPDEST POP SWAP3 SWAP2 POP POP JUMP JUMPDEST PUSH32 0x4E487B7100000000000000000000000000000000000000000000000000000000 PUSH0 MSTORE PUSH1 0x12 PUSH1 0x4 MSTORE PUSH1 0x24 PUSH0 REVERT JUMPDEST PUSH0 PUSH2 0x178E DUP3 PUSH2 0x1095 JUMP JUMPDEST SWAP2 POP PUSH2 0x1799 DUP4 PUSH2 0x1095 JUMP JUMPDEST SWAP3 POP DUP3 PUSH2 0x17A9 JUMPI PUSH2 0x17A8 PUSH2 0x1757 JUMP JUMPDEST JUMPDEST DUP3 DUP3 DIV SWAP1 POP SWAP3 SWAP2 POP POP JUMP JUMPDEST PUSH0 PUSH2 0x17BE DUP3 PUSH2 0x1095 JUMP JUMPDEST SWAP2 POP PUSH2 0x17C9 DUP4 PUSH2 0x1095 JUMP JUMPDEST SWAP3 POP DUP3 DUP3 ADD SWAP1 POP DUP1 DUP3 GT ISZERO PUSH2 0x17E1 JUMPI PUSH2 0x17E0 PUSH2 0x14CF JUMP JUMPDEST JUMPDEST SWAP3 SWAP2 POP POP JUMP JUMPDEST PUSH0 DUP2 SWAP1 POP SWAP2 SWAP1 POP JUMP JUMPDEST PUSH2 0x1801 PUSH2 0x17FC DUP3 PUSH2 0x1095 JUMP JUMPDEST PUSH2 0x17E7 JUMP JUMPDEST DUP3 MSTORE POP POP JUMP JUMPDEST PUSH0 PUSH2 0x1812 DUP3 DUP6 PUSH2 0x17F0 JUMP JUMPDEST PUSH1 0x20 DUP3 ADD SWAP2 POP PUSH2 0x1822 DUP3 DUP5 PUSH2 0x17F0 JUMP JUMPDEST PUSH1 0x20 DUP3 ADD SWAP2 POP DUP2 SWAP1 POP SWAP4 SWAP3 POP POP POP JUMP JUMPDEST PUSH0 PUSH2 0x183C DUP3 PUSH2 0x1095 JUMP JUMPDEST SWAP2 POP PUSH2 0x1847 DUP4 PUSH2 0x1095 JUMP JUMPDEST SWAP3 POP DUP3 PUSH2 0x1857 JUMPI PUSH2 0x1856 PUSH2 0x1757 JUMP JUMPDEST JUMPDEST DUP3 DUP3 MOD SWAP1 POP SWAP3 SWAP2 POP POP JUMP JUMPDEST PUSH32 0x556E6B6E6F776E20737065636965730000000000000000000000000000000000 PUSH0 DUP3 ADD MSTORE POP JUMP JUMPDEST PUSH0 PUSH2 0x1896 PUSH1 0xF DUP4 PUSH2 0x1457 JUMP JUMPDEST SWAP2 POP PUSH2 0x18A1 DUP3 PUSH2 0x1862 JUMP JUMPDEST PUSH1 0x20 DUP3 ADD SWAP1 POP SWAP2 SWAP1 POP JUMP JUMPDEST PUSH0 PUSH1 0x20 DUP3 ADD SWAP1 POP DUP2 DUP2 SUB PUSH0 DUP4 ADD MSTORE PUSH2 0x18C3 DUP2 PUSH2 0x188A JUMP JUMPDEST SWAP1 POP SWAP2 SWAP1 POP JUMP INVALID PUSH9 0x747470733A2F2F6761 PUSH21 0x657761792E70696E6174612E636C6F75642F697066 PUSH20 0x2F6261667962656961336C65346173746B6E6832 PUSH17 0x346D626B64357734326A353232746E7365 CALLVALUE PUSH24 0x786B3777356D3777696D6F716470366F757A707968747470 PUSH20 0x3A2F2F676174657761792E70696E6174612E636C PUSH16 0x75642F697066732F6261667962656965 PUSH23 0x377075637A377968377836686169646D7068703569656F PUSH3 0x766366 PUSH5 0x636C6E6C77 PUSH11 0x7161326976733479333537 PUSH17 0x76776D6168747470733A2F2F6761746577 PUSH2 0x792E PUSH17 0x696E6174612E636C6F75642F697066732F PUSH3 0x616679 PUSH3 0x656967 PUSH16 0x686F746F6B366B336F6E76746A797970 PUSH7 0x6E626E7A626373 PUSH16 0x327163697862777A3477683634767032 PUSH15 0x336C71376E6B7361A2646970667358 0x22 SLT KECCAK256 PUSH0 0x4F 0xB8 EXTCODESIZE 0x1E LOG4 KECCAK256 TSTORE 0xAB SUB CALLF 0x4BAE DUP11 0xC PUSH15 0xA0981A6B5B1B3493034D68560C39B1 PUSH17 0x64736F6C634300081E0033000000000000 "
				},
				"gasEstimates": {
					"creation": {
						"codeDepositCost": "1335800",
						"executionCost": "infinite",
						"totalCost": "infinite"
					},
					"external": {
						"birds(uint256)": "infinite",
						"feedBird(uint256,uint256)": "infinite",
						"getBird(uint256)": "infinite",
						"insure(uint256)": "26957",
						"insured(uint256)": "2786",
						"mintBird(uint8)": "135651",
						"nextId()": "2536",
						"ownerOf(uint256)": "2827",
						"parkContract()": "2552",
						"setParkContract(address)": "26973",
						"transferBird(uint256,address)": "27306",
						"updateHungerAndAge(uint256)": "infinite"
					},
					"internal": {
						"randomPoisoning(uint256)": "infinite"
					}
				},
				"methodIdentifiers": {
					"birds(uint256)": "ec1c5955",
					"feedBird(uint256,uint256)": "1942d199",
					"getBird(uint256)": "6ec88bbd",
					"insure(uint256)": "49b1a0bf",
					"insured(uint256)": "16cb4a05",
					"mintBird(uint8)": "4d2d7881",
					"nextId()": "61b8ce8c",
					"ownerOf(uint256)": "6352211e",
					"parkContract()": "72680a77",
					"setParkContract(address)": "4e9c7df8",
					"transferBird(uint256,address)": "8c652f95",
					"updateHungerAndAge(uint256)": "a2b7ce6f"
				}
			},
			"storageLayout": {
				"storage": [
					{
						"astId": 23,
						"contract": "contracts/Ptak.sol:Ptak",
						"label": "birds",
						"offset": 0,
						"slot": "0",
						"type": "t_mapping(t_uint256,t_struct(BirdData)18_storage)"
					},
					{
						"astId": 25,
						"contract": "contracts/Ptak.sol:Ptak",
						"label": "nextId",
						"offset": 0,
						"slot": "1",
						"type": "t_uint256"
					},
					{
						"astId": 27,
						"contract": "contracts/Ptak.sol:Ptak",
						"label": "parkContract",
						"offset": 0,
						"slot": "2",
						"type": "t_address"
					},
					{
						"astId": 31,
						"contract": "contracts/Ptak.sol:Ptak",
						"label": "insured",
						"offset": 0,
						"slot": "3",
						"type": "t_mapping(t_uint256,t_bool)"
					},
					{
						"astId": 35,
						"contract": "contracts/Ptak.sol:Ptak",
						"label": "ownerOf",
						"offset": 0,
						"slot": "4",
						"type": "t_mapping(t_uint256,t_address)"
					}
				],
				"types": {
					"t_address": {
						"encoding": "inplace",
						"label": "address",
						"numberOfBytes": "20"
					},
					"t_bool": {
						"encoding": "inplace",
						"label": "bool",
						"numberOfBytes": "1"
					},
					"t_enum(Species)416": {
						"encoding": "inplace",
						"label": "enum SpeciesLibrary.Species",
						"numberOfBytes": "1"
					},
					"t_mapping(t_uint256,t_address)": {
						"encoding": "mapping",
						"key": "t_uint256",
						"label": "mapping(uint256 => address)",
						"numberOfBytes": "32",
						"value": "t_address"
					},
					"t_mapping(t_uint256,t_bool)": {
						"encoding": "mapping",
						"key": "t_uint256",
						"label": "mapping(uint256 => bool)",
						"numberOfBytes": "32",
						"value": "t_bool"
					},
					"t_mapping(t_uint256,t_struct(BirdData)18_storage)": {
						"encoding": "mapping",
						"key": "t_uint256",
						"label": "mapping(uint256 => struct Ptak.BirdData)",
						"numberOfBytes": "32",
						"value": "t_struct(BirdData)18_storage"
					},
					"t_struct(BirdData)18_storage": {
						"encoding": "inplace",
						"label": "struct Ptak.BirdData",
						"members": [
							{
								"astId": 8,
								"contract": "contracts/Ptak.sol:Ptak",
								"label": "age",
								"offset": 0,
								"slot": "0",
								"type": "t_uint256"
							},
							{
								"astId": 10,
								"contract": "contracts/Ptak.sol:Ptak",
								"label": "hunger",
								"offset": 0,
								"slot": "1",
								"type": "t_uint256"
							},
							{
								"astId": 12,
								"contract": "contracts/Ptak.sol:Ptak",
								"label": "health",
								"offset": 0,
								"slot": "2",
								"type": "t_uint256"
							},
							{
								"astId": 15,
								"contract": "contracts/Ptak.sol:Ptak",
								"label": "species",
								"offset": 0,
								"slot": "3",
								"type": "t_enum(Species)416"
							},
							{
								"astId": 17,
								"contract": "contracts/Ptak.sol:Ptak",
								"label": "lastUpdateTime",
								"offset": 0,
								"slot": "4",
								"type": "t_uint256"
							}
						],
						"numberOfBytes": "160"
					},
					"t_uint256": {
						"encoding": "inplace",
						"label": "uint256",
						"numberOfBytes": "32"
					}
				}
			},
			"userdoc": {
				"kind": "user",
				"methods": {},
				"version": 1
			}
		}
	}
}