{
	"contracts/Ptak.sol": {
		"Ptak": {
			"abi": [
				{
					"inputs": [
						{
							"internalType": "address",
							"name": "_parkContract",
							"type": "address"
						}
					],
					"stateMutability": "nonpayable",
					"type": "constructor"
				},
				{
					"inputs": [
						{
							"internalType": "uint256",
							"name": "",
							"type": "uint256"
						}
					],
					"name": "birds",
					"outputs": [
						{
							"internalType": "uint256",
							"name": "age",
							"type": "uint256"
						},
						{
							"internalType": "uint256",
							"name": "hunger",
							"type": "uint256"
						},
						{
							"internalType": "uint256",
							"name": "health",
							"type": "uint256"
						},
						{
							"internalType": "enum SpeciesLibrary.Species",
							"name": "species",
							"type": "uint8"
						},
						{
							"internalType": "uint256",
							"name": "lastUpdateTime",
							"type": "uint256"
						},
						{
							"internalType": "bool",
							"name": "isDead",
							"type": "bool"
						},
						{
							"internalType": "uint256",
							"name": "deathTimestamp",
							"type": "uint256"
						}
					],
					"stateMutability": "view",
					"type": "function"
				},
				{
					"inputs": [
						{
							"internalType": "uint256",
							"name": "id",
							"type": "uint256"
						},
						{
							"internalType": "uint256",
							"name": "foodAmount",
							"type": "uint256"
						}
					],
					"name": "feedBird",
					"outputs": [],
					"stateMutability": "nonpayable",
					"type": "function"
				},
				{
					"inputs": [
						{
							"internalType": "uint256",
							"name": "id",
							"type": "uint256"
						}
					],
					"name": "getBird",
					"outputs": [
						{
							"components": [
								{
									"internalType": "uint256",
									"name": "age",
									"type": "uint256"
								},
								{
									"internalType": "uint256",
									"name": "hunger",
									"type": "uint256"
								},
								{
									"internalType": "uint256",
									"name": "health",
									"type": "uint256"
								},
								{
									"internalType": "enum SpeciesLibrary.Species",
									"name": "species",
									"type": "uint8"
								},
								{
									"internalType": "uint256",
									"name": "lastUpdateTime",
									"type": "uint256"
								},
								{
									"internalType": "bool",
									"name": "isDead",
									"type": "bool"
								},
								{
									"internalType": "uint256",
									"name": "deathTimestamp",
									"type": "uint256"
								}
							],
							"internalType": "struct Ptak.BirdData",
							"name": "",
							"type": "tuple"
						}
					],
					"stateMutability": "nonpayable",
					"type": "function"
				},
				{
					"inputs": [
						{
							"internalType": "uint256",
							"name": "birdId",
							"type": "uint256"
						}
					],
					"name": "getBirdImage",
					"outputs": [
						{
							"internalType": "string",
							"name": "",
							"type": "string"
						}
					],
					"stateMutability": "view",
					"type": "function"
				},
				{
					"inputs": [
						{
							"internalType": "uint256",
							"name": "birdId",
							"type": "uint256"
						}
					],
					"name": "healBird",
					"outputs": [],
					"stateMutability": "nonpayable",
					"type": "function"
				},
				{
					"inputs": [
						{
							"internalType": "uint256",
							"name": "birdId",
							"type": "uint256"
						}
					],
					"name": "insure",
					"outputs": [],
					"stateMutability": "nonpayable",
					"type": "function"
				},
				{
					"inputs": [
						{
							"internalType": "uint256",
							"name": "",
							"type": "uint256"
						}
					],
					"name": "insured",
					"outputs": [
						{
							"internalType": "bool",
							"name": "",
							"type": "bool"
						}
					],
					"stateMutability": "view",
					"type": "function"
				},
				{
					"inputs": [
						{
							"internalType": "enum SpeciesLibrary.Species",
							"name": "species",
							"type": "uint8"
						}
					],
					"name": "mintBird",
					"outputs": [
						{
							"internalType": "uint256",
							"name": "",
							"type": "uint256"
						}
					],
					"stateMutability": "nonpayable",
					"type": "function"
				},
				{
					"inputs": [],
					"name": "nextId",
					"outputs": [
						{
							"internalType": "uint256",
							"name": "",
							"type": "uint256"
						}
					],
					"stateMutability": "view",
					"type": "function"
				},
				{
					"inputs": [
						{
							"internalType": "uint256",
							"name": "",
							"type": "uint256"
						}
					],
					"name": "ownerOf",
					"outputs": [
						{
							"internalType": "address",
							"name": "",
							"type": "address"
						}
					],
					"stateMutability": "view",
					"type": "function"
				},
				{
					"inputs": [],
					"name": "parkContract",
					"outputs": [
						{
							"internalType": "address",
							"name": "",
							"type": "address"
						}
					],
					"stateMutability": "view",
					"type": "function"
				},
				{
					"inputs": [
						{
							"internalType": "uint256",
							"name": "birdId",
							"type": "uint256"
						}
					],
					"name": "revive",
					"outputs": [],
					"stateMutability": "nonpayable",
					"type": "function"
				},
				{
					"inputs": [
						{
							"internalType": "address",
							"name": "_parkContract",
							"type": "address"
						}
					],
					"name": "setParkContract",
					"outputs": [],
					"stateMutability": "nonpayable",
					"type": "function"
				},
				{
					"inputs": [
						{
							"internalType": "uint256",
							"name": "birdId",
							"type": "uint256"
						},
						{
							"internalType": "address",
							"name": "newOwner",
							"type": "address"
						}
					],
					"name": "transferBird",
					"outputs": [],
					"stateMutability": "nonpayable",
					"type": "function"
				},
				{
					"inputs": [
						{
							"internalType": "uint256",
							"name": "id",
							"type": "uint256"
						}
					],
					"name": "updateHungerAndAge",
					"outputs": [],
					"stateMutability": "nonpayable",
					"type": "function"
				}
			],
			"devdoc": {
				"kind": "dev",
				"methods": {},
				"version": 1
			},
			"evm": {
				"assembly": "    /* \"contracts/Ptak.sol\":95:4828  contract Ptak {... */\n  mstore(0x40, 0x80)\n    /* \"contracts/Ptak.sol\":735:817  constructor(address _parkContract) {... */\n  callvalue\n  dup1\n  iszero\n  tag_1\n  jumpi\n  revert(0x00, 0x00)\ntag_1:\n  pop\n  mload(0x40)\n  sub(codesize, bytecodeSize)\n  dup1\n  bytecodeSize\n  dup4\n  codecopy\n  dup2\n  dup2\n  add\n  0x40\n  mstore\n  dup2\n  add\n  swap1\n  tag_2\n  swap2\n  swap1\n  tag_3\n  jump\t// in\ntag_2:\n    /* \"contracts/Ptak.sol\":796:809  _parkContract */\n  dup1\n    /* \"contracts/Ptak.sol\":781:793  parkContract */\n  0x02\n  0x00\n    /* \"contracts/Ptak.sol\":781:809  parkContract = _parkContract */\n  0x0100\n  exp\n  dup2\n  sload\n  dup2\n  0xffffffffffffffffffffffffffffffffffffffff\n  mul\n  not\n  and\n  swap1\n  dup4\n  0xffffffffffffffffffffffffffffffffffffffff\n  and\n  mul\n  or\n  swap1\n  sstore\n  pop\n    /* \"contracts/Ptak.sol\":735:817  constructor(address _parkContract) {... */\n  pop\n    /* \"contracts/Ptak.sol\":95:4828  contract Ptak {... */\n  jump(tag_6)\n    /* \"#utility.yul\":88:205   */\ntag_8:\n    /* \"#utility.yul\":197:198   */\n  0x00\n    /* \"#utility.yul\":194:195   */\n  0x00\n    /* \"#utility.yul\":187:199   */\n  revert\n    /* \"#utility.yul\":334:460   */\ntag_10:\n    /* \"#utility.yul\":371:378   */\n  0x00\n    /* \"#utility.yul\":411:453   */\n  0xffffffffffffffffffffffffffffffffffffffff\n    /* \"#utility.yul\":404:409   */\n  dup3\n    /* \"#utility.yul\":400:454   */\n  and\n    /* \"#utility.yul\":389:454   */\n  swap1\n  pop\n    /* \"#utility.yul\":334:460   */\n  swap2\n  swap1\n  pop\n  jump\t// out\n    /* \"#utility.yul\":466:562   */\ntag_11:\n    /* \"#utility.yul\":503:510   */\n  0x00\n    /* \"#utility.yul\":532:556   */\n  tag_20\n    /* \"#utility.yul\":550:555   */\n  dup3\n    /* \"#utility.yul\":532:556   */\n  tag_10\n  jump\t// in\ntag_20:\n    /* \"#utility.yul\":521:556   */\n  swap1\n  pop\n    /* \"#utility.yul\":466:562   */\n  swap2\n  swap1\n  pop\n  jump\t// out\n    /* \"#utility.yul\":568:690   */\ntag_12:\n    /* \"#utility.yul\":641:665   */\n  tag_22\n    /* \"#utility.yul\":659:664   */\n  dup2\n    /* \"#utility.yul\":641:665   */\n  tag_11\n  jump\t// in\ntag_22:\n    /* \"#utility.yul\":634:639   */\n  dup2\n    /* \"#utility.yul\":631:666   */\n  eq\n    /* \"#utility.yul\":621:684   */\n  tag_23\n  jumpi\n    /* \"#utility.yul\":680:681   */\n  0x00\n    /* \"#utility.yul\":677:678   */\n  0x00\n    /* \"#utility.yul\":670:682   */\n  revert\n    /* \"#utility.yul\":621:684   */\ntag_23:\n    /* \"#utility.yul\":568:690   */\n  pop\n  jump\t// out\n    /* \"#utility.yul\":696:839   */\ntag_13:\n    /* \"#utility.yul\":753:758   */\n  0x00\n    /* \"#utility.yul\":784:790   */\n  dup2\n    /* \"#utility.yul\":778:791   */\n  mload\n    /* \"#utility.yul\":769:791   */\n  swap1\n  pop\n    /* \"#utility.yul\":800:833   */\n  tag_25\n    /* \"#utility.yul\":827:832   */\n  dup2\n    /* \"#utility.yul\":800:833   */\n  tag_12\n  jump\t// in\ntag_25:\n    /* \"#utility.yul\":696:839   */\n  swap3\n  swap2\n  pop\n  pop\n  jump\t// out\n    /* \"#utility.yul\":845:1196   */\ntag_3:\n    /* \"#utility.yul\":915:921   */\n  0x00\n    /* \"#utility.yul\":964:966   */\n  0x20\n    /* \"#utility.yul\":952:961   */\n  dup3\n    /* \"#utility.yul\":943:950   */\n  dup5\n    /* \"#utility.yul\":939:962   */\n  sub\n    /* \"#utility.yul\":935:967   */\n  slt\n    /* \"#utility.yul\":932:1051   */\n  iszero\n  tag_27\n  jumpi\n    /* \"#utility.yul\":970:1049   */\n  tag_28\n  tag_8\n  jump\t// in\ntag_28:\n    /* \"#utility.yul\":932:1051   */\ntag_27:\n    /* \"#utility.yul\":1090:1091   */\n  0x00\n    /* \"#utility.yul\":1115:1179   */\n  tag_29\n    /* \"#utility.yul\":1171:1178   */\n  dup5\n    /* \"#utility.yul\":1162:1168   */\n  dup3\n    /* \"#utility.yul\":1151:1160   */\n  dup6\n    /* \"#utility.yul\":1147:1169   */\n  add\n    /* \"#utility.yul\":1115:1179   */\n  tag_13\n  jump\t// in\ntag_29:\n    /* \"#utility.yul\":1105:1179   */\n  swap2\n  pop\n    /* \"#utility.yul\":1061:1189   */\n  pop\n    /* \"#utility.yul\":845:1196   */\n  swap3\n  swap2\n  pop\n  pop\n  jump\t// out\n    /* \"contracts/Ptak.sol\":95:4828  contract Ptak {... */\ntag_6:\n  dataSize(sub_0)\n  dup1\n  dataOffset(sub_0)\n  0x00\n  codecopy\n  0x00\n  return\nstop\n\nsub_0: assembly {\n        /* \"contracts/Ptak.sol\":95:4828  contract Ptak {... */\n      mstore(0x40, 0x80)\n      callvalue\n      dup1\n      iszero\n      tag_1\n      jumpi\n      revert(0x00, 0x00)\n    tag_1:\n      pop\n      jumpi(tag_2, lt(calldatasize, 0x04))\n      shr(0xe0, calldataload(0x00))\n      dup1\n      0x6ec88bbd\n      gt\n      tag_18\n      jumpi\n      dup1\n      0xa2b7ce6f\n      gt\n      tag_19\n      jumpi\n      dup1\n      0xa2b7ce6f\n      eq\n      tag_14\n      jumpi\n      dup1\n      0xbff998f4\n      eq\n      tag_15\n      jumpi\n      dup1\n      0xec1c5955\n      eq\n      tag_16\n      jumpi\n      dup1\n      0xf64ff064\n      eq\n      tag_17\n      jumpi\n      jump(tag_2)\n    tag_19:\n      dup1\n      0x6ec88bbd\n      eq\n      tag_10\n      jumpi\n      dup1\n      0x72680a77\n      eq\n      tag_11\n      jumpi\n      dup1\n      0x8baecc21\n      eq\n      tag_12\n      jumpi\n      dup1\n      0x8c652f95\n      eq\n      tag_13\n      jumpi\n      jump(tag_2)\n    tag_18:\n      dup1\n      0x4d2d7881\n      gt\n      tag_20\n      jumpi\n      dup1\n      0x4d2d7881\n      eq\n      tag_6\n      jumpi\n      dup1\n      0x4e9c7df8\n      eq\n      tag_7\n      jumpi\n      dup1\n      0x61b8ce8c\n      eq\n      tag_8\n      jumpi\n      dup1\n      0x6352211e\n      eq\n      tag_9\n      jumpi\n      jump(tag_2)\n    tag_20:\n      dup1\n      0x16cb4a05\n      eq\n      tag_3\n      jumpi\n      dup1\n      0x1942d199\n      eq\n      tag_4\n      jumpi\n      dup1\n      0x49b1a0bf\n      eq\n      tag_5\n      jumpi\n    tag_2:\n      revert(0x00, 0x00)\n        /* \"contracts/Ptak.sol\":515:554  mapping(uint256 => bool) public insured */\n    tag_3:\n      tag_21\n      0x04\n      dup1\n      calldatasize\n      sub\n      dup2\n      add\n      swap1\n      tag_22\n      swap2\n      swap1\n      tag_23\n      jump\t// in\n    tag_22:\n      tag_24\n      jump\t// in\n    tag_21:\n      mload(0x40)\n      tag_25\n      swap2\n      swap1\n      tag_26\n      jump\t// in\n    tag_25:\n      mload(0x40)\n      dup1\n      swap2\n      sub\n      swap1\n      return\n        /* \"contracts/Ptak.sol\":3397:3782  function feedBird(uint256 id, uint256 foodAmount) external onlyPark {... */\n    tag_4:\n      tag_27\n      0x04\n      dup1\n      calldatasize\n      sub\n      dup2\n      add\n      swap1\n      tag_28\n      swap2\n      swap1\n      tag_29\n      jump\t// in\n    tag_28:\n      tag_30\n      jump\t// in\n    tag_27:\n      stop\n        /* \"contracts/Ptak.sol\":4163:4254  function insure(uint256 birdId) external onlyPark {... */\n    tag_5:\n      tag_31\n      0x04\n      dup1\n      calldatasize\n      sub\n      dup2\n      add\n      swap1\n      tag_32\n      swap2\n      swap1\n      tag_23\n      jump\t// in\n    tag_32:\n      tag_33\n      jump\t// in\n    tag_31:\n      stop\n        /* \"contracts/Ptak.sol\":825:1218  function mintBird(SpeciesLibrary.Species species) external onlyPark returns (uint) {... */\n    tag_6:\n      tag_34\n      0x04\n      dup1\n      calldatasize\n      sub\n      dup2\n      add\n      swap1\n      tag_35\n      swap2\n      swap1\n      tag_36\n      jump\t// in\n    tag_35:\n      tag_37\n      jump\t// in\n    tag_34:\n      mload(0x40)\n      tag_38\n      swap2\n      swap1\n      tag_39\n      jump\t// in\n    tag_38:\n      mload(0x40)\n      dup1\n      swap2\n      sub\n      swap1\n      return\n        /* \"contracts/Ptak.sol\":4402:4572  function setParkContract(address _parkContract) external {... */\n    tag_7:\n      tag_40\n      0x04\n      dup1\n      calldatasize\n      sub\n      dup2\n      add\n      swap1\n      tag_41\n      swap2\n      swap1\n      tag_42\n      jump\t// in\n    tag_41:\n      tag_43\n      jump\t// in\n    tag_40:\n      stop\n        /* \"contracts/Ptak.sol\":453:474  uint256 public nextId */\n    tag_8:\n      tag_44\n      tag_45\n      jump\t// in\n    tag_44:\n      mload(0x40)\n      tag_46\n      swap2\n      swap1\n      tag_39\n      jump\t// in\n    tag_46:\n      mload(0x40)\n      dup1\n      swap2\n      sub\n      swap1\n      return\n        /* \"contracts/Ptak.sol\":561:603  mapping(uint256 => address) public ownerOf */\n    tag_9:\n      tag_47\n      0x04\n      dup1\n      calldatasize\n      sub\n      dup2\n      add\n      swap1\n      tag_48\n      swap2\n      swap1\n      tag_23\n      jump\t// in\n    tag_48:\n      tag_49\n      jump\t// in\n    tag_47:\n      mload(0x40)\n      tag_50\n      swap2\n      swap1\n      tag_51\n      jump\t// in\n    tag_50:\n      mload(0x40)\n      dup1\n      swap2\n      sub\n      swap1\n      return\n        /* \"contracts/Ptak.sol\":4262:4394  function getBird(uint256 id) external returns (BirdData memory) {... */\n    tag_10:\n      tag_52\n      0x04\n      dup1\n      calldatasize\n      sub\n      dup2\n      add\n      swap1\n      tag_53\n      swap2\n      swap1\n      tag_23\n      jump\t// in\n    tag_53:\n      tag_54\n      jump\t// in\n    tag_52:\n      mload(0x40)\n      tag_55\n      swap2\n      swap1\n      tag_56\n      jump\t// in\n    tag_55:\n      mload(0x40)\n      dup1\n      swap2\n      sub\n      swap1\n      return\n        /* \"contracts/Ptak.sol\":481:508  address public parkContract */\n    tag_11:\n      tag_57\n      tag_58\n      jump\t// in\n    tag_57:\n      mload(0x40)\n      tag_59\n      swap2\n      swap1\n      tag_51\n      jump\t// in\n    tag_59:\n      mload(0x40)\n      dup1\n      swap2\n      sub\n      swap1\n      return\n        /* \"contracts/Ptak.sol\":3790:4155  function revive(uint256 birdId) external onlyPark {... */\n    tag_12:\n      tag_60\n      0x04\n      dup1\n      calldatasize\n      sub\n      dup2\n      add\n      swap1\n      tag_61\n      swap2\n      swap1\n      tag_23\n      jump\t// in\n    tag_61:\n      tag_62\n      jump\t// in\n    tag_60:\n      stop\n        /* \"contracts/Ptak.sol\":4580:4825  function transferBird(uint256 birdId, address newOwner) external onlyPark {... */\n    tag_13:\n      tag_63\n      0x04\n      dup1\n      calldatasize\n      sub\n      dup2\n      add\n      swap1\n      tag_64\n      swap2\n      swap1\n      tag_65\n      jump\t// in\n    tag_64:\n      tag_66\n      jump\t// in\n    tag_63:\n      stop\n        /* \"contracts/Ptak.sol\":1226:2361  function updateHungerAndAge(uint256 id) public {... */\n    tag_14:\n      tag_67\n      0x04\n      dup1\n      calldatasize\n      sub\n      dup2\n      add\n      swap1\n      tag_68\n      swap2\n      swap1\n      tag_23\n      jump\t// in\n    tag_68:\n      tag_69\n      jump\t// in\n    tag_67:\n      stop\n        /* \"contracts/Ptak.sol\":2579:2843  function healBird(uint256 birdId) external onlyPark {... */\n    tag_15:\n      tag_70\n      0x04\n      dup1\n      calldatasize\n      sub\n      dup2\n      add\n      swap1\n      tag_71\n      swap2\n      swap1\n      tag_23\n      jump\t// in\n    tag_71:\n      tag_72\n      jump\t// in\n    tag_70:\n      stop\n        /* \"contracts/Ptak.sol\":405:446  mapping(uint256 => BirdData) public birds */\n    tag_16:\n      tag_73\n      0x04\n      dup1\n      calldatasize\n      sub\n      dup2\n      add\n      swap1\n      tag_74\n      swap2\n      swap1\n      tag_23\n      jump\t// in\n    tag_74:\n      tag_75\n      jump\t// in\n    tag_73:\n      mload(0x40)\n      tag_76\n      swap8\n      swap7\n      swap6\n      swap5\n      swap4\n      swap3\n      swap2\n      swap1\n      tag_77\n      jump\t// in\n    tag_76:\n      mload(0x40)\n      dup1\n      swap2\n      sub\n      swap1\n      return\n        /* \"contracts/Ptak.sol\":2369:2571  function getBirdImage(uint256 birdId) external view returns (string memory) {... */\n    tag_17:\n      tag_78\n      0x04\n      dup1\n      calldatasize\n      sub\n      dup2\n      add\n      swap1\n      tag_79\n      swap2\n      swap1\n      tag_23\n      jump\t// in\n    tag_79:\n      tag_80\n      jump\t// in\n    tag_78:\n      mload(0x40)\n      tag_81\n      swap2\n      swap1\n      tag_82\n      jump\t// in\n    tag_81:\n      mload(0x40)\n      dup1\n      swap2\n      sub\n      swap1\n      return\n        /* \"contracts/Ptak.sol\":515:554  mapping(uint256 => bool) public insured */\n    tag_24:\n      mstore(0x20, 0x03)\n      dup1\n      0x00\n      mstore\n      keccak256(0x00, 0x40)\n      0x00\n      swap2\n      pop\n      sload\n      swap1\n      0x0100\n      exp\n      swap1\n      div\n      0xff\n      and\n      dup2\n      jump\t// out\n        /* \"contracts/Ptak.sol\":3397:3782  function feedBird(uint256 id, uint256 foodAmount) external onlyPark {... */\n    tag_30:\n        /* \"contracts/Ptak.sol\":667:679  parkContract */\n      0x02\n      0x00\n      swap1\n      sload\n      swap1\n      0x0100\n      exp\n      swap1\n      div\n      0xffffffffffffffffffffffffffffffffffffffff\n      and\n        /* \"contracts/Ptak.sol\":653:679  msg.sender == parkContract */\n      0xffffffffffffffffffffffffffffffffffffffff\n      and\n        /* \"contracts/Ptak.sol\":653:663  msg.sender */\n      caller\n        /* \"contracts/Ptak.sol\":653:679  msg.sender == parkContract */\n      0xffffffffffffffffffffffffffffffffffffffff\n      and\n      eq\n        /* \"contracts/Ptak.sol\":645:707  require(msg.sender == parkContract, \"Only Park can call this\") */\n      tag_84\n      jumpi\n      mload(0x40)\n      0x08c379a000000000000000000000000000000000000000000000000000000000\n      dup2\n      mstore\n      0x04\n      add\n      tag_85\n      swap1\n      tag_86\n      jump\t// in\n    tag_85:\n      mload(0x40)\n      dup1\n      swap2\n      sub\n      swap1\n      revert\n    tag_84:\n        /* \"contracts/Ptak.sol\":3476:3498  updateHungerAndAge(id) */\n      tag_88\n        /* \"contracts/Ptak.sol\":3495:3497  id */\n      dup3\n        /* \"contracts/Ptak.sol\":3476:3494  updateHungerAndAge */\n      tag_69\n        /* \"contracts/Ptak.sol\":3476:3498  updateHungerAndAge(id) */\n      jump\t// in\n    tag_88:\n        /* \"contracts/Ptak.sol\":3509:3530  BirdData storage bird */\n      0x00\n        /* \"contracts/Ptak.sol\":3533:3538  birds */\n      0x00\n        /* \"contracts/Ptak.sol\":3533:3542  birds[id] */\n      0x00\n        /* \"contracts/Ptak.sol\":3539:3541  id */\n      dup5\n        /* \"contracts/Ptak.sol\":3533:3542  birds[id] */\n      dup2\n      mstore\n      0x20\n      add\n      swap1\n      dup2\n      mstore\n      0x20\n      add\n      0x00\n      keccak256\n        /* \"contracts/Ptak.sol\":3509:3542  BirdData storage bird = birds[id] */\n      swap1\n      pop\n        /* \"contracts/Ptak.sol\":3553:3572  randomPoisoning(id) */\n      tag_89\n        /* \"contracts/Ptak.sol\":3569:3571  id */\n      dup4\n        /* \"contracts/Ptak.sol\":3553:3568  randomPoisoning */\n      tag_90\n        /* \"contracts/Ptak.sol\":3553:3572  randomPoisoning(id) */\n      jump\t// in\n    tag_89:\n        /* \"contracts/Ptak.sol\":3594:3598  bird */\n      dup1\n        /* \"contracts/Ptak.sol\":3594:3605  bird.isDead */\n      0x05\n      add\n      0x00\n      swap1\n      sload\n      swap1\n      0x0100\n      exp\n      swap1\n      div\n      0xff\n      and\n        /* \"contracts/Ptak.sol\":3593:3605  !bird.isDead */\n      iszero\n        /* \"contracts/Ptak.sol\":3585:3633  require(!bird.isDead, \"Cannot feed a dead bird\") */\n      tag_91\n      jumpi\n      mload(0x40)\n      0x08c379a000000000000000000000000000000000000000000000000000000000\n      dup2\n      mstore\n      0x04\n      add\n      tag_92\n      swap1\n      tag_93\n      jump\t// in\n    tag_92:\n      mload(0x40)\n      dup1\n      swap2\n      sub\n      swap1\n      revert\n    tag_91:\n        /* \"contracts/Ptak.sol\":3664:3674  foodAmount */\n      dup2\n        /* \"contracts/Ptak.sol\":3649:3653  bird */\n      dup2\n        /* \"contracts/Ptak.sol\":3649:3660  bird.hunger */\n      0x01\n      add\n      sload\n        /* \"contracts/Ptak.sol\":3649:3674  bird.hunger >= foodAmount */\n      lt\n        /* \"contracts/Ptak.sol\":3646:3775  if(bird.hunger >= foodAmount){... */\n      tag_94\n      jumpi\n        /* \"contracts/Ptak.sol\":3705:3715  foodAmount */\n      dup2\n        /* \"contracts/Ptak.sol\":3690:3694  bird */\n      dup2\n        /* \"contracts/Ptak.sol\":3690:3701  bird.hunger */\n      0x01\n      add\n      0x00\n        /* \"contracts/Ptak.sol\":3690:3715  bird.hunger -= foodAmount */\n      dup3\n      dup3\n      sload\n      tag_95\n      swap2\n      swap1\n      tag_96\n      jump\t// in\n    tag_95:\n      swap3\n      pop\n      pop\n      dup2\n      swap1\n      sstore\n      pop\n        /* \"contracts/Ptak.sol\":3646:3775  if(bird.hunger >= foodAmount){... */\n      jump(tag_97)\n    tag_94:\n        /* \"contracts/Ptak.sol\":3762:3763  0 */\n      0x00\n        /* \"contracts/Ptak.sol\":3748:3752  bird */\n      dup2\n        /* \"contracts/Ptak.sol\":3748:3759  bird.hunger */\n      0x01\n      add\n        /* \"contracts/Ptak.sol\":3748:3763  bird.hunger = 0 */\n      dup2\n      swap1\n      sstore\n      pop\n        /* \"contracts/Ptak.sol\":3646:3775  if(bird.hunger >= foodAmount){... */\n    tag_97:\n        /* \"contracts/Ptak.sol\":3465:3782  {... */\n      pop\n        /* \"contracts/Ptak.sol\":3397:3782  function feedBird(uint256 id, uint256 foodAmount) external onlyPark {... */\n      pop\n      pop\n      jump\t// out\n        /* \"contracts/Ptak.sol\":4163:4254  function insure(uint256 birdId) external onlyPark {... */\n    tag_33:\n        /* \"contracts/Ptak.sol\":667:679  parkContract */\n      0x02\n      0x00\n      swap1\n      sload\n      swap1\n      0x0100\n      exp\n      swap1\n      div\n      0xffffffffffffffffffffffffffffffffffffffff\n      and\n        /* \"contracts/Ptak.sol\":653:679  msg.sender == parkContract */\n      0xffffffffffffffffffffffffffffffffffffffff\n      and\n        /* \"contracts/Ptak.sol\":653:663  msg.sender */\n      caller\n        /* \"contracts/Ptak.sol\":653:679  msg.sender == parkContract */\n      0xffffffffffffffffffffffffffffffffffffffff\n      and\n      eq\n        /* \"contracts/Ptak.sol\":645:707  require(msg.sender == parkContract, \"Only Park can call this\") */\n      tag_99\n      jumpi\n      mload(0x40)\n      0x08c379a000000000000000000000000000000000000000000000000000000000\n      dup2\n      mstore\n      0x04\n      add\n      tag_100\n      swap1\n      tag_86\n      jump\t// in\n    tag_100:\n      mload(0x40)\n      dup1\n      swap2\n      sub\n      swap1\n      revert\n    tag_99:\n        /* \"contracts/Ptak.sol\":4242:4246  true */\n      0x01\n        /* \"contracts/Ptak.sol\":4224:4231  insured */\n      0x03\n        /* \"contracts/Ptak.sol\":4224:4239  insured[birdId] */\n      0x00\n        /* \"contracts/Ptak.sol\":4232:4238  birdId */\n      dup4\n        /* \"contracts/Ptak.sol\":4224:4239  insured[birdId] */\n      dup2\n      mstore\n      0x20\n      add\n      swap1\n      dup2\n      mstore\n      0x20\n      add\n      0x00\n      keccak256\n      0x00\n        /* \"contracts/Ptak.sol\":4224:4246  insured[birdId] = true */\n      0x0100\n      exp\n      dup2\n      sload\n      dup2\n      0xff\n      mul\n      not\n      and\n      swap1\n      dup4\n      iszero\n      iszero\n      mul\n      or\n      swap1\n      sstore\n      pop\n        /* \"contracts/Ptak.sol\":4163:4254  function insure(uint256 birdId) external onlyPark {... */\n      pop\n      jump\t// out\n        /* \"contracts/Ptak.sol\":825:1218  function mintBird(SpeciesLibrary.Species species) external onlyPark returns (uint) {... */\n    tag_37:\n        /* \"contracts/Ptak.sol\":902:906  uint */\n      0x00\n        /* \"contracts/Ptak.sol\":667:679  parkContract */\n      0x02\n      0x00\n      swap1\n      sload\n      swap1\n      0x0100\n      exp\n      swap1\n      div\n      0xffffffffffffffffffffffffffffffffffffffff\n      and\n        /* \"contracts/Ptak.sol\":653:679  msg.sender == parkContract */\n      0xffffffffffffffffffffffffffffffffffffffff\n      and\n        /* \"contracts/Ptak.sol\":653:663  msg.sender */\n      caller\n        /* \"contracts/Ptak.sol\":653:679  msg.sender == parkContract */\n      0xffffffffffffffffffffffffffffffffffffffff\n      and\n      eq\n        /* \"contracts/Ptak.sol\":645:707  require(msg.sender == parkContract, \"Only Park can call this\") */\n      tag_103\n      jumpi\n      mload(0x40)\n      0x08c379a000000000000000000000000000000000000000000000000000000000\n      dup2\n      mstore\n      0x04\n      add\n      tag_104\n      swap1\n      tag_86\n      jump\t// in\n    tag_104:\n      mload(0x40)\n      dup1\n      swap2\n      sub\n      swap1\n      revert\n    tag_103:\n        /* \"contracts/Ptak.sol\":919:957  SpeciesLibrary.SpeciesInfo memory info */\n      0x00\n        /* \"contracts/Ptak.sol\":960:998  SpeciesLibrary.getSpeciesInfo(species) */\n      tag_106\n        /* \"contracts/Ptak.sol\":990:997  species */\n      dup4\n        /* \"contracts/Ptak.sol\":960:989  SpeciesLibrary.getSpeciesInfo */\n      tag_107\n        /* \"contracts/Ptak.sol\":960:998  SpeciesLibrary.getSpeciesInfo(species) */\n      jump\t// in\n    tag_106:\n        /* \"contracts/Ptak.sol\":919:998  SpeciesLibrary.SpeciesInfo memory info = SpeciesLibrary.getSpeciesInfo(species) */\n      swap1\n      pop\n        /* \"contracts/Ptak.sol\":1025:1091  BirdData(0, 0, info.maxHealth, species, block.timestamp, false, 0) */\n      mload(0x40)\n      dup1\n      0xe0\n      add\n      0x40\n      mstore\n      dup1\n        /* \"contracts/Ptak.sol\":1034:1035  0 */\n      0x00\n        /* \"contracts/Ptak.sol\":1025:1091  BirdData(0, 0, info.maxHealth, species, block.timestamp, false, 0) */\n      dup2\n      mstore\n      0x20\n      add\n        /* \"contracts/Ptak.sol\":1037:1038  0 */\n      0x00\n        /* \"contracts/Ptak.sol\":1025:1091  BirdData(0, 0, info.maxHealth, species, block.timestamp, false, 0) */\n      dup2\n      mstore\n      0x20\n      add\n        /* \"contracts/Ptak.sol\":1040:1044  info */\n      dup3\n        /* \"contracts/Ptak.sol\":1040:1054  info.maxHealth */\n      0x00\n      add\n      mload\n        /* \"contracts/Ptak.sol\":1025:1091  BirdData(0, 0, info.maxHealth, species, block.timestamp, false, 0) */\n      dup2\n      mstore\n      0x20\n      add\n        /* \"contracts/Ptak.sol\":1056:1063  species */\n      dup5\n        /* \"contracts/Ptak.sol\":1025:1091  BirdData(0, 0, info.maxHealth, species, block.timestamp, false, 0) */\n      0x0a\n      dup2\n      gt\n      iszero\n      tag_108\n      jumpi\n      tag_109\n      tag_110\n      jump\t// in\n    tag_109:\n    tag_108:\n      dup2\n      mstore\n      0x20\n      add\n        /* \"contracts/Ptak.sol\":1065:1080  block.timestamp */\n      timestamp\n        /* \"contracts/Ptak.sol\":1025:1091  BirdData(0, 0, info.maxHealth, species, block.timestamp, false, 0) */\n      dup2\n      mstore\n      0x20\n      add\n        /* \"contracts/Ptak.sol\":1082:1087  false */\n      0x00\n        /* \"contracts/Ptak.sol\":1025:1091  BirdData(0, 0, info.maxHealth, species, block.timestamp, false, 0) */\n      iszero\n      iszero\n      dup2\n      mstore\n      0x20\n      add\n        /* \"contracts/Ptak.sol\":1089:1090  0 */\n      0x00\n        /* \"contracts/Ptak.sol\":1025:1091  BirdData(0, 0, info.maxHealth, species, block.timestamp, false, 0) */\n      dup2\n      mstore\n      pop\n        /* \"contracts/Ptak.sol\":1009:1014  birds */\n      0x00\n        /* \"contracts/Ptak.sol\":1009:1022  birds[nextId] */\n      0x00\n        /* \"contracts/Ptak.sol\":1015:1021  nextId */\n      sload(0x01)\n        /* \"contracts/Ptak.sol\":1009:1022  birds[nextId] */\n      dup2\n      mstore\n      0x20\n      add\n      swap1\n      dup2\n      mstore\n      0x20\n      add\n      0x00\n      keccak256\n        /* \"contracts/Ptak.sol\":1009:1091  birds[nextId] = BirdData(0, 0, info.maxHealth, species, block.timestamp, false, 0) */\n      0x00\n      dup3\n      add\n      mload\n      dup2\n      0x00\n      add\n      sstore\n      0x20\n      dup3\n      add\n      mload\n      dup2\n      0x01\n      add\n      sstore\n      0x40\n      dup3\n      add\n      mload\n      dup2\n      0x02\n      add\n      sstore\n      0x60\n      dup3\n      add\n      mload\n      dup2\n      0x03\n      add\n      exp(0x0100, 0x00)\n      dup2\n      sload\n      dup2\n      0xff\n      mul\n      not\n      and\n      swap1\n      dup4\n      0x0a\n      dup2\n      gt\n      iszero\n      tag_111\n      jumpi\n      tag_112\n      tag_110\n      jump\t// in\n    tag_112:\n    tag_111:\n      mul\n      or\n      swap1\n      sstore\n      pop\n      0x80\n      dup3\n      add\n      mload\n      dup2\n      0x04\n      add\n      sstore\n      0xa0\n      dup3\n      add\n      mload\n      dup2\n      0x05\n      add\n      exp(0x0100, 0x00)\n      dup2\n      sload\n      dup2\n      0xff\n      mul\n      not\n      and\n      swap1\n      dup4\n      iszero\n      iszero\n      mul\n      or\n      swap1\n      sstore\n      pop\n      0xc0\n      dup3\n      add\n      mload\n      dup2\n      0x06\n      add\n      sstore\n      swap1\n      pop\n      pop\n        /* \"contracts/Ptak.sol\":1120:1129  tx.origin */\n      origin\n        /* \"contracts/Ptak.sol\":1102:1109  ownerOf */\n      0x04\n        /* \"contracts/Ptak.sol\":1102:1117  ownerOf[nextId] */\n      0x00\n        /* \"contracts/Ptak.sol\":1110:1116  nextId */\n      sload(0x01)\n        /* \"contracts/Ptak.sol\":1102:1117  ownerOf[nextId] */\n      dup2\n      mstore\n      0x20\n      add\n      swap1\n      dup2\n      mstore\n      0x20\n      add\n      0x00\n      keccak256\n      0x00\n        /* \"contracts/Ptak.sol\":1102:1129  ownerOf[nextId] = tx.origin */\n      0x0100\n      exp\n      dup2\n      sload\n      dup2\n      0xffffffffffffffffffffffffffffffffffffffff\n      mul\n      not\n      and\n      swap1\n      dup4\n      0xffffffffffffffffffffffffffffffffffffffff\n      and\n      mul\n      or\n      swap1\n      sstore\n      pop\n        /* \"contracts/Ptak.sol\":1140:1156  uint256 mintedId */\n      0x00\n        /* \"contracts/Ptak.sol\":1159:1165  nextId */\n      sload(0x01)\n        /* \"contracts/Ptak.sol\":1140:1165  uint256 mintedId = nextId */\n      swap1\n      pop\n        /* \"contracts/Ptak.sol\":1176:1182  nextId */\n      0x01\n      0x00\n        /* \"contracts/Ptak.sol\":1176:1184  nextId++ */\n      dup2\n      sload\n      dup1\n      swap3\n      swap2\n      swap1\n      tag_113\n      swap1\n      tag_114\n      jump\t// in\n    tag_113:\n      swap2\n      swap1\n      pop\n      sstore\n      pop\n        /* \"contracts/Ptak.sol\":1202:1210  mintedId */\n      dup1\n        /* \"contracts/Ptak.sol\":1195:1210  return mintedId */\n      swap3\n      pop\n      pop\n      pop\n        /* \"contracts/Ptak.sol\":825:1218  function mintBird(SpeciesLibrary.Species species) external onlyPark returns (uint) {... */\n      swap2\n      swap1\n      pop\n      jump\t// out\n        /* \"contracts/Ptak.sol\":4402:4572  function setParkContract(address _parkContract) external {... */\n    tag_43:\n        /* \"contracts/Ptak.sol\":4502:4503  0 */\n      0x00\n        /* \"contracts/Ptak.sol\":4478:4504  parkContract == address(0) */\n      0xffffffffffffffffffffffffffffffffffffffff\n      and\n        /* \"contracts/Ptak.sol\":4478:4490  parkContract */\n      0x02\n      0x00\n      swap1\n      sload\n      swap1\n      0x0100\n      exp\n      swap1\n      div\n      0xffffffffffffffffffffffffffffffffffffffff\n      and\n        /* \"contracts/Ptak.sol\":4478:4504  parkContract == address(0) */\n      0xffffffffffffffffffffffffffffffffffffffff\n      and\n      eq\n        /* \"contracts/Ptak.sol\":4470:4525  require(parkContract == address(0), \"Park already set\") */\n      tag_116\n      jumpi\n      mload(0x40)\n      0x08c379a000000000000000000000000000000000000000000000000000000000\n      dup2\n      mstore\n      0x04\n      add\n      tag_117\n      swap1\n      tag_118\n      jump\t// in\n    tag_117:\n      mload(0x40)\n      dup1\n      swap2\n      sub\n      swap1\n      revert\n    tag_116:\n        /* \"contracts/Ptak.sol\":4551:4564  _parkContract */\n      dup1\n        /* \"contracts/Ptak.sol\":4536:4548  parkContract */\n      0x02\n      0x00\n        /* \"contracts/Ptak.sol\":4536:4564  parkContract = _parkContract */\n      0x0100\n      exp\n      dup2\n      sload\n      dup2\n      0xffffffffffffffffffffffffffffffffffffffff\n      mul\n      not\n      and\n      swap1\n      dup4\n      0xffffffffffffffffffffffffffffffffffffffff\n      and\n      mul\n      or\n      swap1\n      sstore\n      pop\n        /* \"contracts/Ptak.sol\":4402:4572  function setParkContract(address _parkContract) external {... */\n      pop\n      jump\t// out\n        /* \"contracts/Ptak.sol\":453:474  uint256 public nextId */\n    tag_45:\n      sload(0x01)\n      dup2\n      jump\t// out\n        /* \"contracts/Ptak.sol\":561:603  mapping(uint256 => address) public ownerOf */\n    tag_49:\n      mstore(0x20, 0x04)\n      dup1\n      0x00\n      mstore\n      keccak256(0x00, 0x40)\n      0x00\n      swap2\n      pop\n      sload\n      swap1\n      0x0100\n      exp\n      swap1\n      div\n      0xffffffffffffffffffffffffffffffffffffffff\n      and\n      dup2\n      jump\t// out\n        /* \"contracts/Ptak.sol\":4262:4394  function getBird(uint256 id) external returns (BirdData memory) {... */\n    tag_54:\n        /* \"contracts/Ptak.sol\":4309:4324  BirdData memory */\n      tag_119\n      tag_120\n      jump\t// in\n    tag_119:\n        /* \"contracts/Ptak.sol\":4337:4359  updateHungerAndAge(id) */\n      tag_122\n        /* \"contracts/Ptak.sol\":4356:4358  id */\n      dup3\n        /* \"contracts/Ptak.sol\":4337:4355  updateHungerAndAge */\n      tag_69\n        /* \"contracts/Ptak.sol\":4337:4359  updateHungerAndAge(id) */\n      jump\t// in\n    tag_122:\n        /* \"contracts/Ptak.sol\":4377:4382  birds */\n      0x00\n        /* \"contracts/Ptak.sol\":4377:4386  birds[id] */\n      0x00\n        /* \"contracts/Ptak.sol\":4383:4385  id */\n      dup4\n        /* \"contracts/Ptak.sol\":4377:4386  birds[id] */\n      dup2\n      mstore\n      0x20\n      add\n      swap1\n      dup2\n      mstore\n      0x20\n      add\n      0x00\n      keccak256\n        /* \"contracts/Ptak.sol\":4370:4386  return birds[id] */\n      mload(0x40)\n      dup1\n      0xe0\n      add\n      0x40\n      mstore\n      swap1\n      dup2\n      0x00\n      dup3\n      add\n      sload\n      dup2\n      mstore\n      0x20\n      add\n      0x01\n      dup3\n      add\n      sload\n      dup2\n      mstore\n      0x20\n      add\n      0x02\n      dup3\n      add\n      sload\n      dup2\n      mstore\n      0x20\n      add\n      0x03\n      dup3\n      add\n      0x00\n      swap1\n      sload\n      swap1\n      0x0100\n      exp\n      swap1\n      div\n      0xff\n      and\n      0x0a\n      dup2\n      gt\n      iszero\n      tag_123\n      jumpi\n      tag_124\n      tag_110\n      jump\t// in\n    tag_124:\n    tag_123:\n      0x0a\n      dup2\n      gt\n      iszero\n      tag_125\n      jumpi\n      tag_126\n      tag_110\n      jump\t// in\n    tag_126:\n    tag_125:\n      dup2\n      mstore\n      0x20\n      add\n      0x04\n      dup3\n      add\n      sload\n      dup2\n      mstore\n      0x20\n      add\n      0x05\n      dup3\n      add\n      0x00\n      swap1\n      sload\n      swap1\n      0x0100\n      exp\n      swap1\n      div\n      0xff\n      and\n      iszero\n      iszero\n      iszero\n      iszero\n      dup2\n      mstore\n      0x20\n      add\n      0x06\n      dup3\n      add\n      sload\n      dup2\n      mstore\n      pop\n      pop\n      swap1\n      pop\n        /* \"contracts/Ptak.sol\":4262:4394  function getBird(uint256 id) external returns (BirdData memory) {... */\n      swap2\n      swap1\n      pop\n      jump\t// out\n        /* \"contracts/Ptak.sol\":481:508  address public parkContract */\n    tag_58:\n      0x02\n      0x00\n      swap1\n      sload\n      swap1\n      0x0100\n      exp\n      swap1\n      div\n      0xffffffffffffffffffffffffffffffffffffffff\n      and\n      dup2\n      jump\t// out\n        /* \"contracts/Ptak.sol\":3790:4155  function revive(uint256 birdId) external onlyPark {... */\n    tag_62:\n        /* \"contracts/Ptak.sol\":667:679  parkContract */\n      0x02\n      0x00\n      swap1\n      sload\n      swap1\n      0x0100\n      exp\n      swap1\n      div\n      0xffffffffffffffffffffffffffffffffffffffff\n      and\n        /* \"contracts/Ptak.sol\":653:679  msg.sender == parkContract */\n      0xffffffffffffffffffffffffffffffffffffffff\n      and\n        /* \"contracts/Ptak.sol\":653:663  msg.sender */\n      caller\n        /* \"contracts/Ptak.sol\":653:679  msg.sender == parkContract */\n      0xffffffffffffffffffffffffffffffffffffffff\n      and\n      eq\n        /* \"contracts/Ptak.sol\":645:707  require(msg.sender == parkContract, \"Only Park can call this\") */\n      tag_128\n      jumpi\n      mload(0x40)\n      0x08c379a000000000000000000000000000000000000000000000000000000000\n      dup2\n      mstore\n      0x04\n      add\n      tag_129\n      swap1\n      tag_86\n      jump\t// in\n    tag_129:\n      mload(0x40)\n      dup1\n      swap2\n      sub\n      swap1\n      revert\n    tag_128:\n        /* \"contracts/Ptak.sol\":3851:3872  BirdData storage bird */\n      0x00\n        /* \"contracts/Ptak.sol\":3875:3880  birds */\n      0x00\n        /* \"contracts/Ptak.sol\":3875:3888  birds[birdId] */\n      0x00\n        /* \"contracts/Ptak.sol\":3881:3887  birdId */\n      dup4\n        /* \"contracts/Ptak.sol\":3875:3888  birds[birdId] */\n      dup2\n      mstore\n      0x20\n      add\n      swap1\n      dup2\n      mstore\n      0x20\n      add\n      0x00\n      keccak256\n        /* \"contracts/Ptak.sol\":3851:3888  BirdData storage bird = birds[birdId] */\n      swap1\n      pop\n        /* \"contracts/Ptak.sol\":3907:3911  bird */\n      dup1\n        /* \"contracts/Ptak.sol\":3907:3918  bird.isDead */\n      0x05\n      add\n      0x00\n      swap1\n      sload\n      swap1\n      0x0100\n      exp\n      swap1\n      div\n      0xff\n      and\n        /* \"contracts/Ptak.sol\":3899:3931  require(bird.isDead, \"Not dead\") */\n      tag_131\n      jumpi\n      mload(0x40)\n      0x08c379a000000000000000000000000000000000000000000000000000000000\n      dup2\n      mstore\n      0x04\n      add\n      tag_132\n      swap1\n      tag_133\n      jump\t// in\n    tag_132:\n      mload(0x40)\n      dup1\n      swap2\n      sub\n      swap1\n      revert\n    tag_131:\n        /* \"contracts/Ptak.sol\":3956:3999  SpeciesLibrary.getSpeciesInfo(bird.species) */\n      tag_134\n        /* \"contracts/Ptak.sol\":3986:3990  bird */\n      dup2\n        /* \"contracts/Ptak.sol\":3986:3998  bird.species */\n      0x03\n      add\n      0x00\n      swap1\n      sload\n      swap1\n      0x0100\n      exp\n      swap1\n      div\n      0xff\n      and\n        /* \"contracts/Ptak.sol\":3956:3985  SpeciesLibrary.getSpeciesInfo */\n      tag_107\n        /* \"contracts/Ptak.sol\":3956:3999  SpeciesLibrary.getSpeciesInfo(bird.species) */\n      jump\t// in\n    tag_134:\n        /* \"contracts/Ptak.sol\":3956:4009  SpeciesLibrary.getSpeciesInfo(bird.species).maxHealth */\n      0x00\n      add\n      mload\n        /* \"contracts/Ptak.sol\":3942:3946  bird */\n      dup2\n        /* \"contracts/Ptak.sol\":3942:3953  bird.health */\n      0x02\n      add\n        /* \"contracts/Ptak.sol\":3942:4009  bird.health = SpeciesLibrary.getSpeciesInfo(bird.species).maxHealth */\n      dup2\n      swap1\n      sstore\n      pop\n        /* \"contracts/Ptak.sol\":4034:4035  0 */\n      0x00\n        /* \"contracts/Ptak.sol\":4020:4024  bird */\n      dup2\n        /* \"contracts/Ptak.sol\":4020:4031  bird.hunger */\n      0x01\n      add\n        /* \"contracts/Ptak.sol\":4020:4035  bird.hunger = 0 */\n      dup2\n      swap1\n      sstore\n      pop\n        /* \"contracts/Ptak.sol\":4060:4065  false */\n      0x00\n        /* \"contracts/Ptak.sol\":4046:4050  bird */\n      dup2\n        /* \"contracts/Ptak.sol\":4046:4057  bird.isDead */\n      0x05\n      add\n      0x00\n        /* \"contracts/Ptak.sol\":4046:4065  bird.isDead = false */\n      0x0100\n      exp\n      dup2\n      sload\n      dup2\n      0xff\n      mul\n      not\n      and\n      swap1\n      dup4\n      iszero\n      iszero\n      mul\n      or\n      swap1\n      sstore\n      pop\n        /* \"contracts/Ptak.sol\":4098:4099  0 */\n      0x00\n        /* \"contracts/Ptak.sol\":4076:4080  bird */\n      dup2\n        /* \"contracts/Ptak.sol\":4076:4095  bird.deathTimestamp */\n      0x06\n      add\n        /* \"contracts/Ptak.sol\":4076:4099  bird.deathTimestamp = 0 */\n      dup2\n      swap1\n      sstore\n      pop\n        /* \"contracts/Ptak.sol\":4132:4147  block.timestamp */\n      timestamp\n        /* \"contracts/Ptak.sol\":4110:4114  bird */\n      dup2\n        /* \"contracts/Ptak.sol\":4110:4129  bird.lastUpdateTime */\n      0x04\n      add\n        /* \"contracts/Ptak.sol\":4110:4147  bird.lastUpdateTime = block.timestamp */\n      dup2\n      swap1\n      sstore\n      pop\n        /* \"contracts/Ptak.sol\":3840:4155  {... */\n      pop\n        /* \"contracts/Ptak.sol\":3790:4155  function revive(uint256 birdId) external onlyPark {... */\n      pop\n      jump\t// out\n        /* \"contracts/Ptak.sol\":4580:4825  function transferBird(uint256 birdId, address newOwner) external onlyPark {... */\n    tag_66:\n        /* \"contracts/Ptak.sol\":667:679  parkContract */\n      0x02\n      0x00\n      swap1\n      sload\n      swap1\n      0x0100\n      exp\n      swap1\n      div\n      0xffffffffffffffffffffffffffffffffffffffff\n      and\n        /* \"contracts/Ptak.sol\":653:679  msg.sender == parkContract */\n      0xffffffffffffffffffffffffffffffffffffffff\n      and\n        /* \"contracts/Ptak.sol\":653:663  msg.sender */\n      caller\n        /* \"contracts/Ptak.sol\":653:679  msg.sender == parkContract */\n      0xffffffffffffffffffffffffffffffffffffffff\n      and\n      eq\n        /* \"contracts/Ptak.sol\":645:707  require(msg.sender == parkContract, \"Only Park can call this\") */\n      tag_136\n      jumpi\n      mload(0x40)\n      0x08c379a000000000000000000000000000000000000000000000000000000000\n      dup2\n      mstore\n      0x04\n      add\n      tag_137\n      swap1\n      tag_86\n      jump\t// in\n    tag_137:\n      mload(0x40)\n      dup1\n      swap2\n      sub\n      swap1\n      revert\n    tag_136:\n        /* \"contracts/Ptak.sol\":4692:4701  tx.origin */\n      origin\n        /* \"contracts/Ptak.sol\":4673:4701  ownerOf[birdId] == tx.origin */\n      0xffffffffffffffffffffffffffffffffffffffff\n      and\n        /* \"contracts/Ptak.sol\":4673:4680  ownerOf */\n      0x04\n        /* \"contracts/Ptak.sol\":4673:4688  ownerOf[birdId] */\n      0x00\n        /* \"contracts/Ptak.sol\":4681:4687  birdId */\n      dup5\n        /* \"contracts/Ptak.sol\":4673:4688  ownerOf[birdId] */\n      dup2\n      mstore\n      0x20\n      add\n      swap1\n      dup2\n      mstore\n      0x20\n      add\n      0x00\n      keccak256\n      0x00\n      swap1\n      sload\n      swap1\n      0x0100\n      exp\n      swap1\n      div\n      0xffffffffffffffffffffffffffffffffffffffff\n      and\n        /* \"contracts/Ptak.sol\":4673:4701  ownerOf[birdId] == tx.origin */\n      0xffffffffffffffffffffffffffffffffffffffff\n      and\n      eq\n        /* \"contracts/Ptak.sol\":4665:4719  require(ownerOf[birdId] == tx.origin, \"Not the owner\") */\n      tag_139\n      jumpi\n      mload(0x40)\n      0x08c379a000000000000000000000000000000000000000000000000000000000\n      dup2\n      mstore\n      0x04\n      add\n      tag_140\n      swap1\n      tag_141\n      jump\t// in\n    tag_140:\n      mload(0x40)\n      dup1\n      swap2\n      sub\n      swap1\n      revert\n    tag_139:\n        /* \"contracts/Ptak.sol\":4758:4759  0 */\n      0x00\n        /* \"contracts/Ptak.sol\":4738:4760  newOwner != address(0) */\n      0xffffffffffffffffffffffffffffffffffffffff\n      and\n        /* \"contracts/Ptak.sol\":4738:4746  newOwner */\n      dup2\n        /* \"contracts/Ptak.sol\":4738:4760  newOwner != address(0) */\n      0xffffffffffffffffffffffffffffffffffffffff\n      and\n      sub\n        /* \"contracts/Ptak.sol\":4730:4780  require(newOwner != address(0), \"Invalid address\") */\n      tag_142\n      jumpi\n      mload(0x40)\n      0x08c379a000000000000000000000000000000000000000000000000000000000\n      dup2\n      mstore\n      0x04\n      add\n      tag_143\n      swap1\n      tag_144\n      jump\t// in\n    tag_143:\n      mload(0x40)\n      dup1\n      swap2\n      sub\n      swap1\n      revert\n    tag_142:\n        /* \"contracts/Ptak.sol\":4809:4817  newOwner */\n      dup1\n        /* \"contracts/Ptak.sol\":4791:4798  ownerOf */\n      0x04\n        /* \"contracts/Ptak.sol\":4791:4806  ownerOf[birdId] */\n      0x00\n        /* \"contracts/Ptak.sol\":4799:4805  birdId */\n      dup5\n        /* \"contracts/Ptak.sol\":4791:4806  ownerOf[birdId] */\n      dup2\n      mstore\n      0x20\n      add\n      swap1\n      dup2\n      mstore\n      0x20\n      add\n      0x00\n      keccak256\n      0x00\n        /* \"contracts/Ptak.sol\":4791:4817  ownerOf[birdId] = newOwner */\n      0x0100\n      exp\n      dup2\n      sload\n      dup2\n      0xffffffffffffffffffffffffffffffffffffffff\n      mul\n      not\n      and\n      swap1\n      dup4\n      0xffffffffffffffffffffffffffffffffffffffff\n      and\n      mul\n      or\n      swap1\n      sstore\n      pop\n        /* \"contracts/Ptak.sol\":4580:4825  function transferBird(uint256 birdId, address newOwner) external onlyPark {... */\n      pop\n      pop\n      jump\t// out\n        /* \"contracts/Ptak.sol\":1226:2361  function updateHungerAndAge(uint256 id) public {... */\n    tag_69:\n        /* \"contracts/Ptak.sol\":1284:1305  BirdData storage bird */\n      0x00\n        /* \"contracts/Ptak.sol\":1308:1313  birds */\n      0x00\n        /* \"contracts/Ptak.sol\":1308:1317  birds[id] */\n      0x00\n        /* \"contracts/Ptak.sol\":1314:1316  id */\n      dup4\n        /* \"contracts/Ptak.sol\":1308:1317  birds[id] */\n      dup2\n      mstore\n      0x20\n      add\n      swap1\n      dup2\n      mstore\n      0x20\n      add\n      0x00\n      keccak256\n        /* \"contracts/Ptak.sol\":1284:1317  BirdData storage bird = birds[id] */\n      swap1\n      pop\n        /* \"contracts/Ptak.sol\":1332:1336  bird */\n      dup1\n        /* \"contracts/Ptak.sol\":1332:1343  bird.isDead */\n      0x05\n      add\n      0x00\n      swap1\n      sload\n      swap1\n      0x0100\n      exp\n      swap1\n      div\n      0xff\n      and\n        /* \"contracts/Ptak.sol\":1328:1352  if (bird.isDead) return; */\n      iszero\n      tag_146\n      jumpi\n        /* \"contracts/Ptak.sol\":1345:1352  return; */\n      pop\n      jump(tag_145)\n        /* \"contracts/Ptak.sol\":1328:1352  if (bird.isDead) return; */\n    tag_146:\n        /* \"contracts/Ptak.sol\":1364:1383  uint256 timeElapsed */\n      0x00\n        /* \"contracts/Ptak.sol\":1404:1408  bird */\n      dup2\n        /* \"contracts/Ptak.sol\":1404:1423  bird.lastUpdateTime */\n      0x04\n      add\n      sload\n        /* \"contracts/Ptak.sol\":1386:1401  block.timestamp */\n      timestamp\n        /* \"contracts/Ptak.sol\":1386:1423  block.timestamp - bird.lastUpdateTime */\n      tag_147\n      swap2\n      swap1\n      tag_96\n      jump\t// in\n    tag_147:\n        /* \"contracts/Ptak.sol\":1364:1423  uint256 timeElapsed = block.timestamp - bird.lastUpdateTime */\n      swap1\n      pop\n        /* \"contracts/Ptak.sol\":1452:1453  0 */\n      0x00\n        /* \"contracts/Ptak.sol\":1438:1449  timeElapsed */\n      dup2\n        /* \"contracts/Ptak.sol\":1438:1453  timeElapsed > 0 */\n      gt\n        /* \"contracts/Ptak.sol\":1434:2354  if (timeElapsed > 0) {... */\n      iszero\n      tag_148\n      jumpi\n        /* \"contracts/Ptak.sol\":1470:1508  SpeciesLibrary.SpeciesInfo memory info */\n      0x00\n        /* \"contracts/Ptak.sol\":1511:1554  SpeciesLibrary.getSpeciesInfo(bird.species) */\n      tag_149\n        /* \"contracts/Ptak.sol\":1541:1545  bird */\n      dup4\n        /* \"contracts/Ptak.sol\":1541:1553  bird.species */\n      0x03\n      add\n      0x00\n      swap1\n      sload\n      swap1\n      0x0100\n      exp\n      swap1\n      div\n      0xff\n      and\n        /* \"contracts/Ptak.sol\":1511:1540  SpeciesLibrary.getSpeciesInfo */\n      tag_107\n        /* \"contracts/Ptak.sol\":1511:1554  SpeciesLibrary.getSpeciesInfo(bird.species) */\n      jump\t// in\n    tag_149:\n        /* \"contracts/Ptak.sol\":1470:1554  SpeciesLibrary.SpeciesInfo memory info = SpeciesLibrary.getSpeciesInfo(bird.species) */\n      swap1\n      pop\n        /* \"contracts/Ptak.sol\":1571:1593  uint256 hungerIncrease */\n      0x00\n        /* \"contracts/Ptak.sol\":1635:1639  3600 */\n      0x0e10\n        /* \"contracts/Ptak.sol\":1611:1615  info */\n      dup3\n        /* \"contracts/Ptak.sol\":1611:1631  info.hungerDecayRate */\n      0x40\n      add\n      mload\n        /* \"contracts/Ptak.sol\":1597:1608  timeElapsed */\n      dup5\n        /* \"contracts/Ptak.sol\":1597:1631  timeElapsed * info.hungerDecayRate */\n      tag_150\n      swap2\n      swap1\n      tag_151\n      jump\t// in\n    tag_150:\n        /* \"contracts/Ptak.sol\":1596:1639  (timeElapsed * info.hungerDecayRate) / 3600 */\n      tag_152\n      swap2\n      swap1\n      tag_153\n      jump\t// in\n    tag_152:\n        /* \"contracts/Ptak.sol\":1571:1639  uint256 hungerIncrease = (timeElapsed * info.hungerDecayRate) / 3600 */\n      swap1\n      pop\n        /* \"contracts/Ptak.sol\":1669:1683  hungerIncrease */\n      dup1\n        /* \"contracts/Ptak.sol\":1654:1658  bird */\n      dup5\n        /* \"contracts/Ptak.sol\":1654:1665  bird.hunger */\n      0x01\n      add\n      0x00\n        /* \"contracts/Ptak.sol\":1654:1683  bird.hunger += hungerIncrease */\n      dup3\n      dup3\n      sload\n      tag_154\n      swap2\n      swap1\n      tag_155\n      jump\t// in\n    tag_154:\n      swap3\n      pop\n      pop\n      dup2\n      swap1\n      sstore\n      pop\n        /* \"contracts/Ptak.sol\":1718:1722  info */\n      dup2\n        /* \"contracts/Ptak.sol\":1718:1732  info.maxHunger */\n      0x20\n      add\n      mload\n        /* \"contracts/Ptak.sol\":1704:1708  bird */\n      dup5\n        /* \"contracts/Ptak.sol\":1704:1715  bird.hunger */\n      0x01\n      add\n      sload\n        /* \"contracts/Ptak.sol\":1704:1732  bird.hunger > info.maxHunger */\n      gt\n        /* \"contracts/Ptak.sol\":1700:2141  if (bird.hunger > info.maxHunger) {... */\n      iszero\n      tag_156\n      jumpi\n        /* \"contracts/Ptak.sol\":1753:1769  uint256 overflow */\n      0x00\n        /* \"contracts/Ptak.sol\":1786:1790  info */\n      dup3\n        /* \"contracts/Ptak.sol\":1786:1800  info.maxHunger */\n      0x20\n      add\n      mload\n        /* \"contracts/Ptak.sol\":1772:1776  bird */\n      dup6\n        /* \"contracts/Ptak.sol\":1772:1783  bird.hunger */\n      0x01\n      add\n      sload\n        /* \"contracts/Ptak.sol\":1772:1800  bird.hunger - info.maxHunger */\n      tag_157\n      swap2\n      swap1\n      tag_96\n      jump\t// in\n    tag_157:\n        /* \"contracts/Ptak.sol\":1753:1800  uint256 overflow = bird.hunger - info.maxHunger */\n      swap1\n      pop\n        /* \"contracts/Ptak.sol\":1833:1837  info */\n      dup3\n        /* \"contracts/Ptak.sol\":1833:1847  info.maxHunger */\n      0x20\n      add\n      mload\n        /* \"contracts/Ptak.sol\":1819:1823  bird */\n      dup6\n        /* \"contracts/Ptak.sol\":1819:1830  bird.hunger */\n      0x01\n      add\n        /* \"contracts/Ptak.sol\":1819:1847  bird.hunger = info.maxHunger */\n      dup2\n      swap1\n      sstore\n      pop\n        /* \"contracts/Ptak.sol\":1885:1893  overflow */\n      dup1\n        /* \"contracts/Ptak.sol\":1870:1874  bird */\n      dup6\n        /* \"contracts/Ptak.sol\":1870:1881  bird.health */\n      0x02\n      add\n      sload\n        /* \"contracts/Ptak.sol\":1870:1893  bird.health <= overflow */\n      gt\n        /* \"contracts/Ptak.sol\":1866:2126  if (bird.health <= overflow) {... */\n      tag_158\n      jumpi\n        /* \"contracts/Ptak.sol\":1932:1933  0 */\n      0x00\n        /* \"contracts/Ptak.sol\":1918:1922  bird */\n      dup6\n        /* \"contracts/Ptak.sol\":1918:1929  bird.health */\n      0x02\n      add\n        /* \"contracts/Ptak.sol\":1918:1933  bird.health = 0 */\n      dup2\n      swap1\n      sstore\n      pop\n        /* \"contracts/Ptak.sol\":1970:1974  true */\n      0x01\n        /* \"contracts/Ptak.sol\":1956:1960  bird */\n      dup6\n        /* \"contracts/Ptak.sol\":1956:1967  bird.isDead */\n      0x05\n      add\n      0x00\n        /* \"contracts/Ptak.sol\":1956:1974  bird.isDead = true */\n      0x0100\n      exp\n      dup2\n      sload\n      dup2\n      0xff\n      mul\n      not\n      and\n      swap1\n      dup4\n      iszero\n      iszero\n      mul\n      or\n      swap1\n      sstore\n      pop\n        /* \"contracts/Ptak.sol\":2019:2034  block.timestamp */\n      timestamp\n        /* \"contracts/Ptak.sol\":1997:2001  bird */\n      dup6\n        /* \"contracts/Ptak.sol\":1997:2016  bird.deathTimestamp */\n      0x06\n      add\n        /* \"contracts/Ptak.sol\":1997:2034  bird.deathTimestamp = block.timestamp */\n      dup2\n      swap1\n      sstore\n      pop\n        /* \"contracts/Ptak.sol\":1866:2126  if (bird.health <= overflow) {... */\n      jump(tag_159)\n    tag_158:\n        /* \"contracts/Ptak.sol\":2098:2106  overflow */\n      dup1\n        /* \"contracts/Ptak.sol\":2083:2087  bird */\n      dup6\n        /* \"contracts/Ptak.sol\":2083:2094  bird.health */\n      0x02\n      add\n      0x00\n        /* \"contracts/Ptak.sol\":2083:2106  bird.health -= overflow */\n      dup3\n      dup3\n      sload\n      tag_160\n      swap2\n      swap1\n      tag_96\n      jump\t// in\n    tag_160:\n      swap3\n      pop\n      pop\n      dup2\n      swap1\n      sstore\n      pop\n        /* \"contracts/Ptak.sol\":1866:2126  if (bird.health <= overflow) {... */\n    tag_159:\n        /* \"contracts/Ptak.sol\":1734:2141  {... */\n      pop\n        /* \"contracts/Ptak.sol\":1700:2141  if (bird.hunger > info.maxHunger) {... */\n    tag_156:\n        /* \"contracts/Ptak.sol\":2157:2175  uint256 daysPassed */\n      0x00\n        /* \"contracts/Ptak.sol\":2192:2197  86400 */\n      0x015180\n        /* \"contracts/Ptak.sol\":2178:2189  timeElapsed */\n      dup5\n        /* \"contracts/Ptak.sol\":2178:2197  timeElapsed / 86400 */\n      tag_161\n      swap2\n      swap1\n      tag_153\n      jump\t// in\n    tag_161:\n        /* \"contracts/Ptak.sol\":2157:2197  uint256 daysPassed = timeElapsed / 86400 */\n      swap1\n      pop\n        /* \"contracts/Ptak.sol\":2229:2230  0 */\n      0x00\n        /* \"contracts/Ptak.sol\":2216:2226  daysPassed */\n      dup2\n        /* \"contracts/Ptak.sol\":2216:2230  daysPassed > 0 */\n      gt\n        /* \"contracts/Ptak.sol\":2212:2289  if (daysPassed > 0) {... */\n      iszero\n      tag_162\n      jumpi\n        /* \"contracts/Ptak.sol\":2263:2273  daysPassed */\n      dup1\n        /* \"contracts/Ptak.sol\":2251:2255  bird */\n      dup6\n        /* \"contracts/Ptak.sol\":2251:2259  bird.age */\n      0x00\n      add\n      0x00\n        /* \"contracts/Ptak.sol\":2251:2273  bird.age += daysPassed */\n      dup3\n      dup3\n      sload\n      tag_163\n      swap2\n      swap1\n      tag_155\n      jump\t// in\n    tag_163:\n      swap3\n      pop\n      pop\n      dup2\n      swap1\n      sstore\n      pop\n        /* \"contracts/Ptak.sol\":2212:2289  if (daysPassed > 0) {... */\n    tag_162:\n        /* \"contracts/Ptak.sol\":2327:2342  block.timestamp */\n      timestamp\n        /* \"contracts/Ptak.sol\":2305:2309  bird */\n      dup6\n        /* \"contracts/Ptak.sol\":2305:2324  bird.lastUpdateTime */\n      0x04\n      add\n        /* \"contracts/Ptak.sol\":2305:2342  bird.lastUpdateTime = block.timestamp */\n      dup2\n      swap1\n      sstore\n      pop\n        /* \"contracts/Ptak.sol\":1455:2354  {... */\n      pop\n      pop\n      pop\n        /* \"contracts/Ptak.sol\":1434:2354  if (timeElapsed > 0) {... */\n    tag_148:\n        /* \"contracts/Ptak.sol\":1273:2361  {... */\n      pop\n      pop\n        /* \"contracts/Ptak.sol\":1226:2361  function updateHungerAndAge(uint256 id) public {... */\n    tag_145:\n      pop\n      jump\t// out\n        /* \"contracts/Ptak.sol\":2579:2843  function healBird(uint256 birdId) external onlyPark {... */\n    tag_72:\n        /* \"contracts/Ptak.sol\":667:679  parkContract */\n      0x02\n      0x00\n      swap1\n      sload\n      swap1\n      0x0100\n      exp\n      swap1\n      div\n      0xffffffffffffffffffffffffffffffffffffffff\n      and\n        /* \"contracts/Ptak.sol\":653:679  msg.sender == parkContract */\n      0xffffffffffffffffffffffffffffffffffffffff\n      and\n        /* \"contracts/Ptak.sol\":653:663  msg.sender */\n      caller\n        /* \"contracts/Ptak.sol\":653:679  msg.sender == parkContract */\n      0xffffffffffffffffffffffffffffffffffffffff\n      and\n      eq\n        /* \"contracts/Ptak.sol\":645:707  require(msg.sender == parkContract, \"Only Park can call this\") */\n      tag_165\n      jumpi\n      mload(0x40)\n      0x08c379a000000000000000000000000000000000000000000000000000000000\n      dup2\n      mstore\n      0x04\n      add\n      tag_166\n      swap1\n      tag_86\n      jump\t// in\n    tag_166:\n      mload(0x40)\n      dup1\n      swap2\n      sub\n      swap1\n      revert\n    tag_165:\n        /* \"contracts/Ptak.sol\":2642:2663  BirdData storage bird */\n      0x00\n        /* \"contracts/Ptak.sol\":2666:2671  birds */\n      0x00\n        /* \"contracts/Ptak.sol\":2666:2679  birds[birdId] */\n      0x00\n        /* \"contracts/Ptak.sol\":2672:2678  birdId */\n      dup4\n        /* \"contracts/Ptak.sol\":2666:2679  birds[birdId] */\n      dup2\n      mstore\n      0x20\n      add\n      swap1\n      dup2\n      mstore\n      0x20\n      add\n      0x00\n      keccak256\n        /* \"contracts/Ptak.sol\":2642:2679  BirdData storage bird = birds[birdId] */\n      swap1\n      pop\n        /* \"contracts/Ptak.sol\":2699:2703  bird */\n      dup1\n        /* \"contracts/Ptak.sol\":2699:2710  bird.isDead */\n      0x05\n      add\n      0x00\n      swap1\n      sload\n      swap1\n      0x0100\n      exp\n      swap1\n      div\n      0xff\n      and\n        /* \"contracts/Ptak.sol\":2698:2710  !bird.isDead */\n      iszero\n        /* \"contracts/Ptak.sol\":2690:2755  require(!bird.isDead, \"Cannot heal a dead bird; revive it first\") */\n      tag_168\n      jumpi\n      mload(0x40)\n      0x08c379a000000000000000000000000000000000000000000000000000000000\n      dup2\n      mstore\n      0x04\n      add\n      tag_169\n      swap1\n      tag_170\n      jump\t// in\n    tag_169:\n      mload(0x40)\n      dup1\n      swap2\n      sub\n      swap1\n      revert\n    tag_168:\n        /* \"contracts/Ptak.sol\":2782:2825  SpeciesLibrary.getSpeciesInfo(bird.species) */\n      tag_171\n        /* \"contracts/Ptak.sol\":2812:2816  bird */\n      dup2\n        /* \"contracts/Ptak.sol\":2812:2824  bird.species */\n      0x03\n      add\n      0x00\n      swap1\n      sload\n      swap1\n      0x0100\n      exp\n      swap1\n      div\n      0xff\n      and\n        /* \"contracts/Ptak.sol\":2782:2811  SpeciesLibrary.getSpeciesInfo */\n      tag_107\n        /* \"contracts/Ptak.sol\":2782:2825  SpeciesLibrary.getSpeciesInfo(bird.species) */\n      jump\t// in\n    tag_171:\n        /* \"contracts/Ptak.sol\":2782:2835  SpeciesLibrary.getSpeciesInfo(bird.species).maxHealth */\n      0x00\n      add\n      mload\n        /* \"contracts/Ptak.sol\":2768:2772  bird */\n      dup2\n        /* \"contracts/Ptak.sol\":2768:2779  bird.health */\n      0x02\n      add\n        /* \"contracts/Ptak.sol\":2768:2835  bird.health = SpeciesLibrary.getSpeciesInfo(bird.species).maxHealth */\n      dup2\n      swap1\n      sstore\n      pop\n        /* \"contracts/Ptak.sol\":2631:2843  {... */\n      pop\n        /* \"contracts/Ptak.sol\":2579:2843  function healBird(uint256 birdId) external onlyPark {... */\n      pop\n      jump\t// out\n        /* \"contracts/Ptak.sol\":405:446  mapping(uint256 => BirdData) public birds */\n    tag_75:\n      mstore(0x20, 0x00)\n      dup1\n      0x00\n      mstore\n      keccak256(0x00, 0x40)\n      0x00\n      swap2\n      pop\n      swap1\n      pop\n      dup1\n      0x00\n      add\n      sload\n      swap1\n      dup1\n      0x01\n      add\n      sload\n      swap1\n      dup1\n      0x02\n      add\n      sload\n      swap1\n      dup1\n      0x03\n      add\n      0x00\n      swap1\n      sload\n      swap1\n      0x0100\n      exp\n      swap1\n      div\n      0xff\n      and\n      swap1\n      dup1\n      0x04\n      add\n      sload\n      swap1\n      dup1\n      0x05\n      add\n      0x00\n      swap1\n      sload\n      swap1\n      0x0100\n      exp\n      swap1\n      div\n      0xff\n      and\n      swap1\n      dup1\n      0x06\n      add\n      sload\n      swap1\n      pop\n      dup8\n      jump\t// out\n        /* \"contracts/Ptak.sol\":2369:2571  function getBirdImage(uint256 birdId) external view returns (string memory) {... */\n    tag_80:\n        /* \"contracts/Ptak.sol\":2430:2443  string memory */\n      0x60\n        /* \"contracts/Ptak.sol\":2456:2477  BirdData storage bird */\n      0x00\n        /* \"contracts/Ptak.sol\":2480:2485  birds */\n      0x00\n        /* \"contracts/Ptak.sol\":2480:2493  birds[birdId] */\n      0x00\n        /* \"contracts/Ptak.sol\":2486:2492  birdId */\n      dup5\n        /* \"contracts/Ptak.sol\":2480:2493  birds[birdId] */\n      dup2\n      mstore\n      0x20\n      add\n      swap1\n      dup2\n      mstore\n      0x20\n      add\n      0x00\n      keccak256\n        /* \"contracts/Ptak.sol\":2456:2493  BirdData storage bird = birds[birdId] */\n      swap1\n      pop\n        /* \"contracts/Ptak.sol\":2511:2554  SpeciesLibrary.getSpeciesInfo(bird.species) */\n      tag_173\n        /* \"contracts/Ptak.sol\":2541:2545  bird */\n      dup2\n        /* \"contracts/Ptak.sol\":2541:2553  bird.species */\n      0x03\n      add\n      0x00\n      swap1\n      sload\n      swap1\n      0x0100\n      exp\n      swap1\n      div\n      0xff\n      and\n        /* \"contracts/Ptak.sol\":2511:2540  SpeciesLibrary.getSpeciesInfo */\n      tag_107\n        /* \"contracts/Ptak.sol\":2511:2554  SpeciesLibrary.getSpeciesInfo(bird.species) */\n      jump\t// in\n    tag_173:\n        /* \"contracts/Ptak.sol\":2511:2563  SpeciesLibrary.getSpeciesInfo(bird.species).imageUrl */\n      0x80\n      add\n      mload\n        /* \"contracts/Ptak.sol\":2504:2563  return SpeciesLibrary.getSpeciesInfo(bird.species).imageUrl */\n      swap2\n      pop\n      pop\n        /* \"contracts/Ptak.sol\":2369:2571  function getBirdImage(uint256 birdId) external view returns (string memory) {... */\n      swap2\n      swap1\n      pop\n      jump\t// out\n        /* \"contracts/Ptak.sol\":2851:3389  function randomPoisoning(uint256 birdId) private {... */\n    tag_90:\n        /* \"contracts/Ptak.sol\":2911:2949  SpeciesLibrary.SpeciesInfo memory info */\n      tag_175\n      tag_176\n      jump\t// in\n    tag_175:\n        /* \"contracts/Ptak.sol\":2960:2986  Ptak.BirdData storage bird */\n      0x00\n        /* \"contracts/Ptak.sol\":2989:2994  birds */\n      0x00\n        /* \"contracts/Ptak.sol\":2989:3002  birds[birdId] */\n      0x00\n        /* \"contracts/Ptak.sol\":2995:3001  birdId */\n      dup5\n        /* \"contracts/Ptak.sol\":2989:3002  birds[birdId] */\n      dup2\n      mstore\n      0x20\n      add\n      swap1\n      dup2\n      mstore\n      0x20\n      add\n      0x00\n      keccak256\n        /* \"contracts/Ptak.sol\":2960:3002  Ptak.BirdData storage bird = birds[birdId] */\n      swap1\n      pop\n        /* \"contracts/Ptak.sol\":3020:3063  SpeciesLibrary.getSpeciesInfo(bird.species) */\n      tag_177\n        /* \"contracts/Ptak.sol\":3050:3054  bird */\n      dup2\n        /* \"contracts/Ptak.sol\":3050:3062  bird.species */\n      0x03\n      add\n      0x00\n      swap1\n      sload\n      swap1\n      0x0100\n      exp\n      swap1\n      div\n      0xff\n      and\n        /* \"contracts/Ptak.sol\":3020:3049  SpeciesLibrary.getSpeciesInfo */\n      tag_107\n        /* \"contracts/Ptak.sol\":3020:3063  SpeciesLibrary.getSpeciesInfo(bird.species) */\n      jump\t// in\n    tag_177:\n        /* \"contracts/Ptak.sol\":3013:3063  info = SpeciesLibrary.getSpeciesInfo(bird.species) */\n      swap2\n      pop\n        /* \"contracts/Ptak.sol\":3080:3087  insured */\n      0x03\n        /* \"contracts/Ptak.sol\":3080:3095  insured[birdId] */\n      0x00\n        /* \"contracts/Ptak.sol\":3088:3094  birdId */\n      dup5\n        /* \"contracts/Ptak.sol\":3080:3095  insured[birdId] */\n      dup2\n      mstore\n      0x20\n      add\n      swap1\n      dup2\n      mstore\n      0x20\n      add\n      0x00\n      keccak256\n      0x00\n      swap1\n      sload\n      swap1\n      0x0100\n      exp\n      swap1\n      div\n      0xff\n      and\n        /* \"contracts/Ptak.sol\":3076:3382  if(!insured[birdId]){... */\n      tag_178\n      jumpi\n        /* \"contracts/Ptak.sol\":3111:3125  uint256 chance */\n      0x00\n        /* \"contracts/Ptak.sol\":3128:3171  SpeciesLibrary.getSpeciesInfo(bird.species) */\n      tag_179\n        /* \"contracts/Ptak.sol\":3158:3162  bird */\n      dup3\n        /* \"contracts/Ptak.sol\":3158:3170  bird.species */\n      0x03\n      add\n      0x00\n      swap1\n      sload\n      swap1\n      0x0100\n      exp\n      swap1\n      div\n      0xff\n      and\n        /* \"contracts/Ptak.sol\":3128:3157  SpeciesLibrary.getSpeciesInfo */\n      tag_107\n        /* \"contracts/Ptak.sol\":3128:3171  SpeciesLibrary.getSpeciesInfo(bird.species) */\n      jump\t// in\n    tag_179:\n        /* \"contracts/Ptak.sol\":3128:3187  SpeciesLibrary.getSpeciesInfo(bird.species).poisoningChance */\n      0x60\n      add\n      mload\n        /* \"contracts/Ptak.sol\":3111:3187  uint256 chance = SpeciesLibrary.getSpeciesInfo(bird.species).poisoningChance */\n      swap1\n      pop\n        /* \"contracts/Ptak.sol\":3202:3214  uint256 rand */\n      0x00\n        /* \"contracts/Ptak.sol\":3281:3284  100 */\n      0x64\n        /* \"contracts/Ptak.sol\":3252:3267  block.timestamp */\n      timestamp\n        /* \"contracts/Ptak.sol\":3269:3275  birdId */\n      dup7\n        /* \"contracts/Ptak.sol\":3235:3276  abi.encodePacked(block.timestamp, birdId) */\n      add(0x20, mload(0x40))\n      tag_180\n      swap3\n      swap2\n      swap1\n      tag_181\n      jump\t// in\n    tag_180:\n      mload(0x40)\n      0x20\n      dup2\n      dup4\n      sub\n      sub\n      dup2\n      mstore\n      swap1\n      0x40\n      mstore\n        /* \"contracts/Ptak.sol\":3225:3277  keccak256(abi.encodePacked(block.timestamp, birdId)) */\n      dup1\n      mload\n      swap1\n      0x20\n      add\n      keccak256\n        /* \"contracts/Ptak.sol\":3217:3278  uint256(keccak256(abi.encodePacked(block.timestamp, birdId))) */\n      0x00\n      shr\n        /* \"contracts/Ptak.sol\":3217:3284  uint256(keccak256(abi.encodePacked(block.timestamp, birdId))) % 100 */\n      tag_182\n      swap2\n      swap1\n      tag_183\n      jump\t// in\n    tag_182:\n        /* \"contracts/Ptak.sol\":3202:3284  uint256 rand = uint256(keccak256(abi.encodePacked(block.timestamp, birdId))) % 100 */\n      swap1\n      pop\n        /* \"contracts/Ptak.sol\":3311:3317  chance */\n      dup2\n        /* \"contracts/Ptak.sol\":3304:3308  rand */\n      dup2\n        /* \"contracts/Ptak.sol\":3304:3317  rand < chance */\n      lt\n        /* \"contracts/Ptak.sol\":3301:3371  if(rand < chance) {... */\n      iszero\n      tag_184\n      jumpi\n        /* \"contracts/Ptak.sol\":3353:3355  25 */\n      0x19\n        /* \"contracts/Ptak.sol\":3338:3342  bird */\n      dup4\n        /* \"contracts/Ptak.sol\":3338:3349  bird.health */\n      0x02\n      add\n      0x00\n        /* \"contracts/Ptak.sol\":3338:3355  bird.health -= 25 */\n      dup3\n      dup3\n      sload\n      tag_185\n      swap2\n      swap1\n      tag_96\n      jump\t// in\n    tag_185:\n      swap3\n      pop\n      pop\n      dup2\n      swap1\n      sstore\n      pop\n        /* \"contracts/Ptak.sol\":3301:3371  if(rand < chance) {... */\n    tag_184:\n        /* \"contracts/Ptak.sol\":3096:3382  {... */\n      pop\n      pop\n        /* \"contracts/Ptak.sol\":3076:3382  if(!insured[birdId]){... */\n    tag_178:\n        /* \"contracts/Ptak.sol\":2900:3389  {... */\n      pop\n      pop\n        /* \"contracts/Ptak.sol\":2851:3389  function randomPoisoning(uint256 birdId) private {... */\n      pop\n      jump\t// out\n        /* \"contracts/SpeciesLibrary.sol\":1361:3666  function getSpeciesInfo(Species species) internal pure returns (SpeciesInfo memory) {... */\n    tag_107:\n        /* \"contracts/SpeciesLibrary.sol\":1425:1443  SpeciesInfo memory */\n      tag_186\n      tag_176\n      jump\t// in\n    tag_186:\n        /* \"contracts/SpeciesLibrary.sol\":1471:1487  Species.MuteSwan */\n      0x00\n        /* \"contracts/SpeciesLibrary.sol\":1460:1487  species == Species.MuteSwan */\n      0x0a\n      dup2\n      gt\n      iszero\n      tag_188\n      jumpi\n      tag_189\n      tag_110\n      jump\t// in\n    tag_189:\n    tag_188:\n        /* \"contracts/SpeciesLibrary.sol\":1460:1467  species */\n      dup3\n        /* \"contracts/SpeciesLibrary.sol\":1460:1487  species == Species.MuteSwan */\n      0x0a\n      dup2\n      gt\n      iszero\n      tag_190\n      jumpi\n      tag_191\n      tag_110\n      jump\t// in\n    tag_191:\n    tag_190:\n      sub\n        /* \"contracts/SpeciesLibrary.sol\":1456:3623  if (species == Species.MuteSwan) {... */\n      tag_192\n      jumpi\n        /* \"contracts/SpeciesLibrary.sol\":1511:1635  SpeciesInfo(200, 150, 3, 1, \"https://gateway.pinata.cloud/ipfs/bafybeia3le4astknh2p4mbkd5w42j522tnse4wxk7w5m7wimoqdp6ouzpy\") */\n      mload(0x40)\n      dup1\n      0xa0\n      add\n      0x40\n      mstore\n      dup1\n        /* \"contracts/SpeciesLibrary.sol\":1523:1526  200 */\n      0xc8\n        /* \"contracts/SpeciesLibrary.sol\":1511:1635  SpeciesInfo(200, 150, 3, 1, \"https://gateway.pinata.cloud/ipfs/bafybeia3le4astknh2p4mbkd5w42j522tnse4wxk7w5m7wimoqdp6ouzpy\") */\n      dup2\n      mstore\n      0x20\n      add\n        /* \"contracts/SpeciesLibrary.sol\":1528:1531  150 */\n      0x96\n        /* \"contracts/SpeciesLibrary.sol\":1511:1635  SpeciesInfo(200, 150, 3, 1, \"https://gateway.pinata.cloud/ipfs/bafybeia3le4astknh2p4mbkd5w42j522tnse4wxk7w5m7wimoqdp6ouzpy\") */\n      dup2\n      mstore\n      0x20\n      add\n        /* \"contracts/SpeciesLibrary.sol\":1533:1534  3 */\n      0x03\n        /* \"contracts/SpeciesLibrary.sol\":1511:1635  SpeciesInfo(200, 150, 3, 1, \"https://gateway.pinata.cloud/ipfs/bafybeia3le4astknh2p4mbkd5w42j522tnse4wxk7w5m7wimoqdp6ouzpy\") */\n      dup2\n      mstore\n      0x20\n      add\n        /* \"contracts/SpeciesLibrary.sol\":1536:1537  1 */\n      0x01\n        /* \"contracts/SpeciesLibrary.sol\":1511:1635  SpeciesInfo(200, 150, 3, 1, \"https://gateway.pinata.cloud/ipfs/bafybeia3le4astknh2p4mbkd5w42j522tnse4wxk7w5m7wimoqdp6ouzpy\") */\n      dup2\n      mstore\n      0x20\n      add\n      mload(0x40)\n      dup1\n      0x80\n      add\n      0x40\n      mstore\n      dup1\n      0x5d\n      dup2\n      mstore\n      0x20\n      add\n      data_1ffc5c99f8ff866cb3cb9bd46d45453badb8f26649052a31a9be49b9b43149da\n      0x5d\n      swap2\n      codecopy\n      dup2\n      mstore\n      pop\n        /* \"contracts/SpeciesLibrary.sol\":1504:1635  return SpeciesInfo(200, 150, 3, 1, \"https://gateway.pinata.cloud/ipfs/bafybeia3le4astknh2p4mbkd5w42j522tnse4wxk7w5m7wimoqdp6ouzpy\") */\n      swap1\n      pop\n      jump(tag_187)\n        /* \"contracts/SpeciesLibrary.sol\":1456:3623  if (species == Species.MuteSwan) {... */\n    tag_192:\n        /* \"contracts/SpeciesLibrary.sol\":1668:1686  Species.WhiteStork */\n      0x01\n        /* \"contracts/SpeciesLibrary.sol\":1657:1686  species == Species.WhiteStork */\n      0x0a\n      dup2\n      gt\n      iszero\n      tag_194\n      jumpi\n      tag_195\n      tag_110\n      jump\t// in\n    tag_195:\n    tag_194:\n        /* \"contracts/SpeciesLibrary.sol\":1657:1664  species */\n      dup3\n        /* \"contracts/SpeciesLibrary.sol\":1657:1686  species == Species.WhiteStork */\n      0x0a\n      dup2\n      gt\n      iszero\n      tag_196\n      jumpi\n      tag_197\n      tag_110\n      jump\t// in\n    tag_197:\n    tag_196:\n      sub\n        /* \"contracts/SpeciesLibrary.sol\":1653:3623  if (species == Species.WhiteStork) {... */\n      tag_198\n      jumpi\n        /* \"contracts/SpeciesLibrary.sol\":1710:1834  SpeciesInfo(220, 200, 2, 5, \"https://gateway.pinata.cloud/ipfs/bafybeigohotok6k3onvtjyypfnbnzbcso2qcixbwz4wh64vp2n3lq7nksa\") */\n      mload(0x40)\n      dup1\n      0xa0\n      add\n      0x40\n      mstore\n      dup1\n        /* \"contracts/SpeciesLibrary.sol\":1722:1725  220 */\n      0xdc\n        /* \"contracts/SpeciesLibrary.sol\":1710:1834  SpeciesInfo(220, 200, 2, 5, \"https://gateway.pinata.cloud/ipfs/bafybeigohotok6k3onvtjyypfnbnzbcso2qcixbwz4wh64vp2n3lq7nksa\") */\n      dup2\n      mstore\n      0x20\n      add\n        /* \"contracts/SpeciesLibrary.sol\":1727:1730  200 */\n      0xc8\n        /* \"contracts/SpeciesLibrary.sol\":1710:1834  SpeciesInfo(220, 200, 2, 5, \"https://gateway.pinata.cloud/ipfs/bafybeigohotok6k3onvtjyypfnbnzbcso2qcixbwz4wh64vp2n3lq7nksa\") */\n      dup2\n      mstore\n      0x20\n      add\n        /* \"contracts/SpeciesLibrary.sol\":1732:1733  2 */\n      0x02\n        /* \"contracts/SpeciesLibrary.sol\":1710:1834  SpeciesInfo(220, 200, 2, 5, \"https://gateway.pinata.cloud/ipfs/bafybeigohotok6k3onvtjyypfnbnzbcso2qcixbwz4wh64vp2n3lq7nksa\") */\n      dup2\n      mstore\n      0x20\n      add\n        /* \"contracts/SpeciesLibrary.sol\":1735:1736  5 */\n      0x05\n        /* \"contracts/SpeciesLibrary.sol\":1710:1834  SpeciesInfo(220, 200, 2, 5, \"https://gateway.pinata.cloud/ipfs/bafybeigohotok6k3onvtjyypfnbnzbcso2qcixbwz4wh64vp2n3lq7nksa\") */\n      dup2\n      mstore\n      0x20\n      add\n      mload(0x40)\n      dup1\n      0x80\n      add\n      0x40\n      mstore\n      dup1\n      0x5d\n      dup2\n      mstore\n      0x20\n      add\n      data_86e92b1a76e2f297d69c89af4232d1b3e647fd322843457f38b762c99d8ee708\n      0x5d\n      swap2\n      codecopy\n      dup2\n      mstore\n      pop\n        /* \"contracts/SpeciesLibrary.sol\":1703:1834  return SpeciesInfo(220, 200, 2, 5, \"https://gateway.pinata.cloud/ipfs/bafybeigohotok6k3onvtjyypfnbnzbcso2qcixbwz4wh64vp2n3lq7nksa\") */\n      swap1\n      pop\n      jump(tag_187)\n        /* \"contracts/SpeciesLibrary.sol\":1653:3623  if (species == Species.WhiteStork) {... */\n    tag_198:\n        /* \"contracts/SpeciesLibrary.sol\":1867:1886  Species.MallardDuck */\n      0x02\n        /* \"contracts/SpeciesLibrary.sol\":1856:1886  species == Species.MallardDuck */\n      0x0a\n      dup2\n      gt\n      iszero\n      tag_200\n      jumpi\n      tag_201\n      tag_110\n      jump\t// in\n    tag_201:\n    tag_200:\n        /* \"contracts/SpeciesLibrary.sol\":1856:1863  species */\n      dup3\n        /* \"contracts/SpeciesLibrary.sol\":1856:1886  species == Species.MallardDuck */\n      0x0a\n      dup2\n      gt\n      iszero\n      tag_202\n      jumpi\n      tag_203\n      tag_110\n      jump\t// in\n    tag_203:\n    tag_202:\n      sub\n        /* \"contracts/SpeciesLibrary.sol\":1852:3623  if (species == Species.MallardDuck) {... */\n      tag_204\n      jumpi\n        /* \"contracts/SpeciesLibrary.sol\":1910:2032  SpeciesInfo(80, 80, 3, 6, \"https://gateway.pinata.cloud/ipfs/bafybeiev7pucz7yh7x6haidmphp5ieobvcfdclnlwjqa2ivs4y357pvwma\") */\n      mload(0x40)\n      dup1\n      0xa0\n      add\n      0x40\n      mstore\n      dup1\n        /* \"contracts/SpeciesLibrary.sol\":1922:1924  80 */\n      0x50\n        /* \"contracts/SpeciesLibrary.sol\":1910:2032  SpeciesInfo(80, 80, 3, 6, \"https://gateway.pinata.cloud/ipfs/bafybeiev7pucz7yh7x6haidmphp5ieobvcfdclnlwjqa2ivs4y357pvwma\") */\n      dup2\n      mstore\n      0x20\n      add\n        /* \"contracts/SpeciesLibrary.sol\":1926:1928  80 */\n      0x50\n        /* \"contracts/SpeciesLibrary.sol\":1910:2032  SpeciesInfo(80, 80, 3, 6, \"https://gateway.pinata.cloud/ipfs/bafybeiev7pucz7yh7x6haidmphp5ieobvcfdclnlwjqa2ivs4y357pvwma\") */\n      dup2\n      mstore\n      0x20\n      add\n        /* \"contracts/SpeciesLibrary.sol\":1930:1931  3 */\n      0x03\n        /* \"contracts/SpeciesLibrary.sol\":1910:2032  SpeciesInfo(80, 80, 3, 6, \"https://gateway.pinata.cloud/ipfs/bafybeiev7pucz7yh7x6haidmphp5ieobvcfdclnlwjqa2ivs4y357pvwma\") */\n      dup2\n      mstore\n      0x20\n      add\n        /* \"contracts/SpeciesLibrary.sol\":1933:1934  6 */\n      0x06\n        /* \"contracts/SpeciesLibrary.sol\":1910:2032  SpeciesInfo(80, 80, 3, 6, \"https://gateway.pinata.cloud/ipfs/bafybeiev7pucz7yh7x6haidmphp5ieobvcfdclnlwjqa2ivs4y357pvwma\") */\n      dup2\n      mstore\n      0x20\n      add\n      mload(0x40)\n      dup1\n      0x80\n      add\n      0x40\n      mstore\n      dup1\n      0x5d\n      dup2\n      mstore\n      0x20\n      add\n      data_3bbf1c81af77207dbf9db8f891697113273de930322fc10149aebcb2d416dad6\n      0x5d\n      swap2\n      codecopy\n      dup2\n      mstore\n      pop\n        /* \"contracts/SpeciesLibrary.sol\":1903:2032  return SpeciesInfo(80, 80, 3, 6, \"https://gateway.pinata.cloud/ipfs/bafybeiev7pucz7yh7x6haidmphp5ieobvcfdclnlwjqa2ivs4y357pvwma\") */\n      swap1\n      pop\n      jump(tag_187)\n        /* \"contracts/SpeciesLibrary.sol\":1852:3623  if (species == Species.MallardDuck) {... */\n    tag_204:\n        /* \"contracts/SpeciesLibrary.sol\":2065:2081  Species.Mythical */\n      0x0a\n        /* \"contracts/SpeciesLibrary.sol\":2054:2081  species == Species.Mythical */\n      dup1\n      dup2\n      gt\n      iszero\n      tag_206\n      jumpi\n      tag_207\n      tag_110\n      jump\t// in\n    tag_207:\n    tag_206:\n        /* \"contracts/SpeciesLibrary.sol\":2054:2061  species */\n      dup3\n        /* \"contracts/SpeciesLibrary.sol\":2054:2081  species == Species.Mythical */\n      0x0a\n      dup2\n      gt\n      iszero\n      tag_208\n      jumpi\n      tag_209\n      tag_110\n      jump\t// in\n    tag_209:\n    tag_208:\n      sub\n        /* \"contracts/SpeciesLibrary.sol\":2050:3623  if (species == Species.Mythical) {... */\n      tag_210\n      jumpi\n        /* \"contracts/SpeciesLibrary.sol\":2105:2229  SpeciesInfo(300, 300, 1, 0, \"https://gateway.pinata.cloud/ipfs/bafybeietbf5qosrybqgkq2cd4czv66dww6st4wj5xloze4enb2d5xyj6pm\") */\n      mload(0x40)\n      dup1\n      0xa0\n      add\n      0x40\n      mstore\n      dup1\n        /* \"contracts/SpeciesLibrary.sol\":2117:2120  300 */\n      0x012c\n        /* \"contracts/SpeciesLibrary.sol\":2105:2229  SpeciesInfo(300, 300, 1, 0, \"https://gateway.pinata.cloud/ipfs/bafybeietbf5qosrybqgkq2cd4czv66dww6st4wj5xloze4enb2d5xyj6pm\") */\n      dup2\n      mstore\n      0x20\n      add\n        /* \"contracts/SpeciesLibrary.sol\":2122:2125  300 */\n      0x012c\n        /* \"contracts/SpeciesLibrary.sol\":2105:2229  SpeciesInfo(300, 300, 1, 0, \"https://gateway.pinata.cloud/ipfs/bafybeietbf5qosrybqgkq2cd4czv66dww6st4wj5xloze4enb2d5xyj6pm\") */\n      dup2\n      mstore\n      0x20\n      add\n        /* \"contracts/SpeciesLibrary.sol\":2127:2128  1 */\n      0x01\n        /* \"contracts/SpeciesLibrary.sol\":2105:2229  SpeciesInfo(300, 300, 1, 0, \"https://gateway.pinata.cloud/ipfs/bafybeietbf5qosrybqgkq2cd4czv66dww6st4wj5xloze4enb2d5xyj6pm\") */\n      dup2\n      mstore\n      0x20\n      add\n        /* \"contracts/SpeciesLibrary.sol\":2130:2131  0 */\n      0x00\n        /* \"contracts/SpeciesLibrary.sol\":2105:2229  SpeciesInfo(300, 300, 1, 0, \"https://gateway.pinata.cloud/ipfs/bafybeietbf5qosrybqgkq2cd4czv66dww6st4wj5xloze4enb2d5xyj6pm\") */\n      dup2\n      mstore\n      0x20\n      add\n      mload(0x40)\n      dup1\n      0x80\n      add\n      0x40\n      mstore\n      dup1\n      0x5d\n      dup2\n      mstore\n      0x20\n      add\n      data_bf1e0c883d5045b15993c31eb358768c2346e70fb0546c814a2e5325206e2434\n      0x5d\n      swap2\n      codecopy\n      dup2\n      mstore\n      pop\n        /* \"contracts/SpeciesLibrary.sol\":2098:2229  return SpeciesInfo(300, 300, 1, 0, \"https://gateway.pinata.cloud/ipfs/bafybeietbf5qosrybqgkq2cd4czv66dww6st4wj5xloze4enb2d5xyj6pm\") */\n      swap1\n      pop\n      jump(tag_187)\n        /* \"contracts/SpeciesLibrary.sol\":2050:3623  if (species == Species.Mythical) {... */\n    tag_210:\n        /* \"contracts/SpeciesLibrary.sol\":2262:2279  Species.GreyHeron */\n      0x03\n        /* \"contracts/SpeciesLibrary.sol\":2251:2279  species == Species.GreyHeron */\n      0x0a\n      dup2\n      gt\n      iszero\n      tag_212\n      jumpi\n      tag_213\n      tag_110\n      jump\t// in\n    tag_213:\n    tag_212:\n        /* \"contracts/SpeciesLibrary.sol\":2251:2258  species */\n      dup3\n        /* \"contracts/SpeciesLibrary.sol\":2251:2279  species == Species.GreyHeron */\n      0x0a\n      dup2\n      gt\n      iszero\n      tag_214\n      jumpi\n      tag_215\n      tag_110\n      jump\t// in\n    tag_215:\n    tag_214:\n      sub\n        /* \"contracts/SpeciesLibrary.sol\":2247:3623  if (species == Species.GreyHeron) {... */\n      tag_216\n      jumpi\n        /* \"contracts/SpeciesLibrary.sol\":2303:2426  SpeciesInfo(180, 90, 2, 4, \"https://gateway.pinata.cloud/ipfs/bafybeifxnqrpp3afajntrnwyynu2lcrzvmdmsthwab6x2wn23wcnbdjn6m\") */\n      mload(0x40)\n      dup1\n      0xa0\n      add\n      0x40\n      mstore\n      dup1\n        /* \"contracts/SpeciesLibrary.sol\":2315:2318  180 */\n      0xb4\n        /* \"contracts/SpeciesLibrary.sol\":2303:2426  SpeciesInfo(180, 90, 2, 4, \"https://gateway.pinata.cloud/ipfs/bafybeifxnqrpp3afajntrnwyynu2lcrzvmdmsthwab6x2wn23wcnbdjn6m\") */\n      dup2\n      mstore\n      0x20\n      add\n        /* \"contracts/SpeciesLibrary.sol\":2320:2322  90 */\n      0x5a\n        /* \"contracts/SpeciesLibrary.sol\":2303:2426  SpeciesInfo(180, 90, 2, 4, \"https://gateway.pinata.cloud/ipfs/bafybeifxnqrpp3afajntrnwyynu2lcrzvmdmsthwab6x2wn23wcnbdjn6m\") */\n      dup2\n      mstore\n      0x20\n      add\n        /* \"contracts/SpeciesLibrary.sol\":2324:2325  2 */\n      0x02\n        /* \"contracts/SpeciesLibrary.sol\":2303:2426  SpeciesInfo(180, 90, 2, 4, \"https://gateway.pinata.cloud/ipfs/bafybeifxnqrpp3afajntrnwyynu2lcrzvmdmsthwab6x2wn23wcnbdjn6m\") */\n      dup2\n      mstore\n      0x20\n      add\n        /* \"contracts/SpeciesLibrary.sol\":2327:2328  4 */\n      0x04\n        /* \"contracts/SpeciesLibrary.sol\":2303:2426  SpeciesInfo(180, 90, 2, 4, \"https://gateway.pinata.cloud/ipfs/bafybeifxnqrpp3afajntrnwyynu2lcrzvmdmsthwab6x2wn23wcnbdjn6m\") */\n      dup2\n      mstore\n      0x20\n      add\n      mload(0x40)\n      dup1\n      0x80\n      add\n      0x40\n      mstore\n      dup1\n      0x5d\n      dup2\n      mstore\n      0x20\n      add\n      data_3aaee52e591491d0c37d609e70d05ae7f1f2d7910d54c05cb9fcdcf49c54ca0d\n      0x5d\n      swap2\n      codecopy\n      dup2\n      mstore\n      pop\n        /* \"contracts/SpeciesLibrary.sol\":2296:2426  return SpeciesInfo(180, 90, 2, 4, \"https://gateway.pinata.cloud/ipfs/bafybeifxnqrpp3afajntrnwyynu2lcrzvmdmsthwab6x2wn23wcnbdjn6m\") */\n      swap1\n      pop\n      jump(tag_187)\n        /* \"contracts/SpeciesLibrary.sol\":2247:3623  if (species == Species.GreyHeron) {... */\n    tag_216:\n        /* \"contracts/SpeciesLibrary.sol\":2459:2481  Species.RedNeckedGrebe */\n      0x04\n        /* \"contracts/SpeciesLibrary.sol\":2448:2481  species == Species.RedNeckedGrebe */\n      0x0a\n      dup2\n      gt\n      iszero\n      tag_218\n      jumpi\n      tag_219\n      tag_110\n      jump\t// in\n    tag_219:\n    tag_218:\n        /* \"contracts/SpeciesLibrary.sol\":2448:2455  species */\n      dup3\n        /* \"contracts/SpeciesLibrary.sol\":2448:2481  species == Species.RedNeckedGrebe */\n      0x0a\n      dup2\n      gt\n      iszero\n      tag_220\n      jumpi\n      tag_221\n      tag_110\n      jump\t// in\n    tag_221:\n    tag_220:\n      sub\n        /* \"contracts/SpeciesLibrary.sol\":2444:3623  if (species == Species.RedNeckedGrebe) {... */\n      tag_222\n      jumpi\n        /* \"contracts/SpeciesLibrary.sol\":2505:2627  SpeciesInfo(80, 70, 2, 8, \"https://gateway.pinata.cloud/ipfs/bafybeibcdpzpyg6mqae2ogowuumymqmqxb2usniu75geej4ptr467ot2nm\") */\n      mload(0x40)\n      dup1\n      0xa0\n      add\n      0x40\n      mstore\n      dup1\n        /* \"contracts/SpeciesLibrary.sol\":2517:2519  80 */\n      0x50\n        /* \"contracts/SpeciesLibrary.sol\":2505:2627  SpeciesInfo(80, 70, 2, 8, \"https://gateway.pinata.cloud/ipfs/bafybeibcdpzpyg6mqae2ogowuumymqmqxb2usniu75geej4ptr467ot2nm\") */\n      dup2\n      mstore\n      0x20\n      add\n        /* \"contracts/SpeciesLibrary.sol\":2521:2523  70 */\n      0x46\n        /* \"contracts/SpeciesLibrary.sol\":2505:2627  SpeciesInfo(80, 70, 2, 8, \"https://gateway.pinata.cloud/ipfs/bafybeibcdpzpyg6mqae2ogowuumymqmqxb2usniu75geej4ptr467ot2nm\") */\n      dup2\n      mstore\n      0x20\n      add\n        /* \"contracts/SpeciesLibrary.sol\":2525:2526  2 */\n      0x02\n        /* \"contracts/SpeciesLibrary.sol\":2505:2627  SpeciesInfo(80, 70, 2, 8, \"https://gateway.pinata.cloud/ipfs/bafybeibcdpzpyg6mqae2ogowuumymqmqxb2usniu75geej4ptr467ot2nm\") */\n      dup2\n      mstore\n      0x20\n      add\n        /* \"contracts/SpeciesLibrary.sol\":2528:2529  8 */\n      0x08\n        /* \"contracts/SpeciesLibrary.sol\":2505:2627  SpeciesInfo(80, 70, 2, 8, \"https://gateway.pinata.cloud/ipfs/bafybeibcdpzpyg6mqae2ogowuumymqmqxb2usniu75geej4ptr467ot2nm\") */\n      dup2\n      mstore\n      0x20\n      add\n      mload(0x40)\n      dup1\n      0x80\n      add\n      0x40\n      mstore\n      dup1\n      0x5d\n      dup2\n      mstore\n      0x20\n      add\n      data_7b2fdb6759a9cafb5eeb6df22876dcecec368957dc7b6a1b5455e59a53ccd8b3\n      0x5d\n      swap2\n      codecopy\n      dup2\n      mstore\n      pop\n        /* \"contracts/SpeciesLibrary.sol\":2498:2627  return SpeciesInfo(80, 70, 2, 8, \"https://gateway.pinata.cloud/ipfs/bafybeibcdpzpyg6mqae2ogowuumymqmqxb2usniu75geej4ptr467ot2nm\") */\n      swap1\n      pop\n      jump(tag_187)\n        /* \"contracts/SpeciesLibrary.sol\":2444:3623  if (species == Species.RedNeckedGrebe) {... */\n    tag_222:\n        /* \"contracts/SpeciesLibrary.sol\":2660:2677  Species.WaterRail */\n      0x05\n        /* \"contracts/SpeciesLibrary.sol\":2649:2677  species == Species.WaterRail */\n      0x0a\n      dup2\n      gt\n      iszero\n      tag_224\n      jumpi\n      tag_225\n      tag_110\n      jump\t// in\n    tag_225:\n    tag_224:\n        /* \"contracts/SpeciesLibrary.sol\":2649:2656  species */\n      dup3\n        /* \"contracts/SpeciesLibrary.sol\":2649:2677  species == Species.WaterRail */\n      0x0a\n      dup2\n      gt\n      iszero\n      tag_226\n      jumpi\n      tag_227\n      tag_110\n      jump\t// in\n    tag_227:\n    tag_226:\n      sub\n        /* \"contracts/SpeciesLibrary.sol\":2645:3623  if (species == Species.WaterRail) {... */\n      tag_228\n      jumpi\n        /* \"contracts/SpeciesLibrary.sol\":2701:2823  SpeciesInfo(50, 60, 4, 5, \"https://gateway.pinata.cloud/ipfs/bafkreida4apspxtnpb63oqyzv3tin5owc45lgctkdqv74hjas4fytookta\") */\n      mload(0x40)\n      dup1\n      0xa0\n      add\n      0x40\n      mstore\n      dup1\n        /* \"contracts/SpeciesLibrary.sol\":2713:2715  50 */\n      0x32\n        /* \"contracts/SpeciesLibrary.sol\":2701:2823  SpeciesInfo(50, 60, 4, 5, \"https://gateway.pinata.cloud/ipfs/bafkreida4apspxtnpb63oqyzv3tin5owc45lgctkdqv74hjas4fytookta\") */\n      dup2\n      mstore\n      0x20\n      add\n        /* \"contracts/SpeciesLibrary.sol\":2717:2719  60 */\n      0x3c\n        /* \"contracts/SpeciesLibrary.sol\":2701:2823  SpeciesInfo(50, 60, 4, 5, \"https://gateway.pinata.cloud/ipfs/bafkreida4apspxtnpb63oqyzv3tin5owc45lgctkdqv74hjas4fytookta\") */\n      dup2\n      mstore\n      0x20\n      add\n        /* \"contracts/SpeciesLibrary.sol\":2721:2722  4 */\n      0x04\n        /* \"contracts/SpeciesLibrary.sol\":2701:2823  SpeciesInfo(50, 60, 4, 5, \"https://gateway.pinata.cloud/ipfs/bafkreida4apspxtnpb63oqyzv3tin5owc45lgctkdqv74hjas4fytookta\") */\n      dup2\n      mstore\n      0x20\n      add\n        /* \"contracts/SpeciesLibrary.sol\":2724:2725  5 */\n      0x05\n        /* \"contracts/SpeciesLibrary.sol\":2701:2823  SpeciesInfo(50, 60, 4, 5, \"https://gateway.pinata.cloud/ipfs/bafkreida4apspxtnpb63oqyzv3tin5owc45lgctkdqv74hjas4fytookta\") */\n      dup2\n      mstore\n      0x20\n      add\n      mload(0x40)\n      dup1\n      0x80\n      add\n      0x40\n      mstore\n      dup1\n      0x5d\n      dup2\n      mstore\n      0x20\n      add\n      data_9935abd004c219a89d3fd74f576ad80b96c6baa47d216c49a0c7e2425bfa795d\n      0x5d\n      swap2\n      codecopy\n      dup2\n      mstore\n      pop\n        /* \"contracts/SpeciesLibrary.sol\":2694:2823  return SpeciesInfo(50, 60, 4, 5, \"https://gateway.pinata.cloud/ipfs/bafkreida4apspxtnpb63oqyzv3tin5owc45lgctkdqv74hjas4fytookta\") */\n      swap1\n      pop\n      jump(tag_187)\n        /* \"contracts/SpeciesLibrary.sol\":2645:3623  if (species == Species.WaterRail) {... */\n    tag_228:\n        /* \"contracts/SpeciesLibrary.sol\":2856:2874  Species.CommonTern */\n      0x06\n        /* \"contracts/SpeciesLibrary.sol\":2845:2874  species == Species.CommonTern */\n      0x0a\n      dup2\n      gt\n      iszero\n      tag_230\n      jumpi\n      tag_231\n      tag_110\n      jump\t// in\n    tag_231:\n    tag_230:\n        /* \"contracts/SpeciesLibrary.sol\":2845:2852  species */\n      dup3\n        /* \"contracts/SpeciesLibrary.sol\":2845:2874  species == Species.CommonTern */\n      0x0a\n      dup2\n      gt\n      iszero\n      tag_232\n      jumpi\n      tag_233\n      tag_110\n      jump\t// in\n    tag_233:\n    tag_232:\n      sub\n        /* \"contracts/SpeciesLibrary.sol\":2841:3623  if (species == Species.CommonTern) {... */\n      tag_234\n      jumpi\n        /* \"contracts/SpeciesLibrary.sol\":2898:3020  SpeciesInfo(55, 40, 3, 4, \"https://gateway.pinata.cloud/ipfs/bafkreih2fmxu3ayscr7xez2u2ashawifc3oj4qa26j56ch46vez7zyaej4\") */\n      mload(0x40)\n      dup1\n      0xa0\n      add\n      0x40\n      mstore\n      dup1\n        /* \"contracts/SpeciesLibrary.sol\":2910:2912  55 */\n      0x37\n        /* \"contracts/SpeciesLibrary.sol\":2898:3020  SpeciesInfo(55, 40, 3, 4, \"https://gateway.pinata.cloud/ipfs/bafkreih2fmxu3ayscr7xez2u2ashawifc3oj4qa26j56ch46vez7zyaej4\") */\n      dup2\n      mstore\n      0x20\n      add\n        /* \"contracts/SpeciesLibrary.sol\":2914:2916  40 */\n      0x28\n        /* \"contracts/SpeciesLibrary.sol\":2898:3020  SpeciesInfo(55, 40, 3, 4, \"https://gateway.pinata.cloud/ipfs/bafkreih2fmxu3ayscr7xez2u2ashawifc3oj4qa26j56ch46vez7zyaej4\") */\n      dup2\n      mstore\n      0x20\n      add\n        /* \"contracts/SpeciesLibrary.sol\":2918:2919  3 */\n      0x03\n        /* \"contracts/SpeciesLibrary.sol\":2898:3020  SpeciesInfo(55, 40, 3, 4, \"https://gateway.pinata.cloud/ipfs/bafkreih2fmxu3ayscr7xez2u2ashawifc3oj4qa26j56ch46vez7zyaej4\") */\n      dup2\n      mstore\n      0x20\n      add\n        /* \"contracts/SpeciesLibrary.sol\":2921:2922  4 */\n      0x04\n        /* \"contracts/SpeciesLibrary.sol\":2898:3020  SpeciesInfo(55, 40, 3, 4, \"https://gateway.pinata.cloud/ipfs/bafkreih2fmxu3ayscr7xez2u2ashawifc3oj4qa26j56ch46vez7zyaej4\") */\n      dup2\n      mstore\n      0x20\n      add\n      mload(0x40)\n      dup1\n      0x80\n      add\n      0x40\n      mstore\n      dup1\n      0x5d\n      dup2\n      mstore\n      0x20\n      add\n      data_b8dd308e09aa92114d02e95d8f8ec31b44f463debae17577b531822d02a7acf8\n      0x5d\n      swap2\n      codecopy\n      dup2\n      mstore\n      pop\n        /* \"contracts/SpeciesLibrary.sol\":2891:3020  return SpeciesInfo(55, 40, 3, 4, \"https://gateway.pinata.cloud/ipfs/bafkreih2fmxu3ayscr7xez2u2ashawifc3oj4qa26j56ch46vez7zyaej4\") */\n      swap1\n      pop\n      jump(tag_187)\n        /* \"contracts/SpeciesLibrary.sol\":2841:3623  if (species == Species.CommonTern) {... */\n    tag_234:\n        /* \"contracts/SpeciesLibrary.sol\":3053:3070  Species.Goosander */\n      0x07\n        /* \"contracts/SpeciesLibrary.sol\":3042:3070  species == Species.Goosander */\n      0x0a\n      dup2\n      gt\n      iszero\n      tag_236\n      jumpi\n      tag_237\n      tag_110\n      jump\t// in\n    tag_237:\n    tag_236:\n        /* \"contracts/SpeciesLibrary.sol\":3042:3049  species */\n      dup3\n        /* \"contracts/SpeciesLibrary.sol\":3042:3070  species == Species.Goosander */\n      0x0a\n      dup2\n      gt\n      iszero\n      tag_238\n      jumpi\n      tag_239\n      tag_110\n      jump\t// in\n    tag_239:\n    tag_238:\n      sub\n        /* \"contracts/SpeciesLibrary.sol\":3038:3623  if (species == Species.Goosander) {... */\n      tag_240\n      jumpi\n        /* \"contracts/SpeciesLibrary.sol\":3094:3216  SpeciesInfo(78, 65, 2, 4, \"https://gateway.pinata.cloud/ipfs/bafkreid3mdymzsjtudm56zrovitxouvgsjbzzkyarsq7t2i2biwyg6rhtq\") */\n      mload(0x40)\n      dup1\n      0xa0\n      add\n      0x40\n      mstore\n      dup1\n        /* \"contracts/SpeciesLibrary.sol\":3106:3108  78 */\n      0x4e\n        /* \"contracts/SpeciesLibrary.sol\":3094:3216  SpeciesInfo(78, 65, 2, 4, \"https://gateway.pinata.cloud/ipfs/bafkreid3mdymzsjtudm56zrovitxouvgsjbzzkyarsq7t2i2biwyg6rhtq\") */\n      dup2\n      mstore\n      0x20\n      add\n        /* \"contracts/SpeciesLibrary.sol\":3110:3112  65 */\n      0x41\n        /* \"contracts/SpeciesLibrary.sol\":3094:3216  SpeciesInfo(78, 65, 2, 4, \"https://gateway.pinata.cloud/ipfs/bafkreid3mdymzsjtudm56zrovitxouvgsjbzzkyarsq7t2i2biwyg6rhtq\") */\n      dup2\n      mstore\n      0x20\n      add\n        /* \"contracts/SpeciesLibrary.sol\":3114:3115  2 */\n      0x02\n        /* \"contracts/SpeciesLibrary.sol\":3094:3216  SpeciesInfo(78, 65, 2, 4, \"https://gateway.pinata.cloud/ipfs/bafkreid3mdymzsjtudm56zrovitxouvgsjbzzkyarsq7t2i2biwyg6rhtq\") */\n      dup2\n      mstore\n      0x20\n      add\n        /* \"contracts/SpeciesLibrary.sol\":3117:3118  4 */\n      0x04\n        /* \"contracts/SpeciesLibrary.sol\":3094:3216  SpeciesInfo(78, 65, 2, 4, \"https://gateway.pinata.cloud/ipfs/bafkreid3mdymzsjtudm56zrovitxouvgsjbzzkyarsq7t2i2biwyg6rhtq\") */\n      dup2\n      mstore\n      0x20\n      add\n      mload(0x40)\n      dup1\n      0x80\n      add\n      0x40\n      mstore\n      dup1\n      0x5d\n      dup2\n      mstore\n      0x20\n      add\n      data_06b72c80ee2ecbcbf44477b5df17c9ca845658c2f59600eacfa2a1e2c77fc0c0\n      0x5d\n      swap2\n      codecopy\n      dup2\n      mstore\n      pop\n        /* \"contracts/SpeciesLibrary.sol\":3087:3216  return SpeciesInfo(78, 65, 2, 4, \"https://gateway.pinata.cloud/ipfs/bafkreid3mdymzsjtudm56zrovitxouvgsjbzzkyarsq7t2i2biwyg6rhtq\") */\n      swap1\n      pop\n      jump(tag_187)\n        /* \"contracts/SpeciesLibrary.sol\":3038:3623  if (species == Species.Goosander) {... */\n    tag_240:\n        /* \"contracts/SpeciesLibrary.sol\":3249:3269  Species.GreylagGoose */\n      0x08\n        /* \"contracts/SpeciesLibrary.sol\":3238:3269  species == Species.GreylagGoose */\n      0x0a\n      dup2\n      gt\n      iszero\n      tag_242\n      jumpi\n      tag_243\n      tag_110\n      jump\t// in\n    tag_243:\n    tag_242:\n        /* \"contracts/SpeciesLibrary.sol\":3238:3245  species */\n      dup3\n        /* \"contracts/SpeciesLibrary.sol\":3238:3269  species == Species.GreylagGoose */\n      0x0a\n      dup2\n      gt\n      iszero\n      tag_244\n      jumpi\n      tag_245\n      tag_110\n      jump\t// in\n    tag_245:\n    tag_244:\n      sub\n        /* \"contracts/SpeciesLibrary.sol\":3234:3623  if (species == Species.GreylagGoose) {... */\n      tag_246\n      jumpi\n        /* \"contracts/SpeciesLibrary.sol\":3293:3417  SpeciesInfo(150, 100, 4, 3, \"https://gateway.pinata.cloud/ipfs/bafkreif6eno2qjj3xc7mebql2s66ol6yxrwx7gwavz44qn2dlz3cnw7f24\") */\n      mload(0x40)\n      dup1\n      0xa0\n      add\n      0x40\n      mstore\n      dup1\n        /* \"contracts/SpeciesLibrary.sol\":3305:3308  150 */\n      0x96\n        /* \"contracts/SpeciesLibrary.sol\":3293:3417  SpeciesInfo(150, 100, 4, 3, \"https://gateway.pinata.cloud/ipfs/bafkreif6eno2qjj3xc7mebql2s66ol6yxrwx7gwavz44qn2dlz3cnw7f24\") */\n      dup2\n      mstore\n      0x20\n      add\n        /* \"contracts/SpeciesLibrary.sol\":3310:3313  100 */\n      0x64\n        /* \"contracts/SpeciesLibrary.sol\":3293:3417  SpeciesInfo(150, 100, 4, 3, \"https://gateway.pinata.cloud/ipfs/bafkreif6eno2qjj3xc7mebql2s66ol6yxrwx7gwavz44qn2dlz3cnw7f24\") */\n      dup2\n      mstore\n      0x20\n      add\n        /* \"contracts/SpeciesLibrary.sol\":3315:3316  4 */\n      0x04\n        /* \"contracts/SpeciesLibrary.sol\":3293:3417  SpeciesInfo(150, 100, 4, 3, \"https://gateway.pinata.cloud/ipfs/bafkreif6eno2qjj3xc7mebql2s66ol6yxrwx7gwavz44qn2dlz3cnw7f24\") */\n      dup2\n      mstore\n      0x20\n      add\n        /* \"contracts/SpeciesLibrary.sol\":3318:3319  3 */\n      0x03\n        /* \"contracts/SpeciesLibrary.sol\":3293:3417  SpeciesInfo(150, 100, 4, 3, \"https://gateway.pinata.cloud/ipfs/bafkreif6eno2qjj3xc7mebql2s66ol6yxrwx7gwavz44qn2dlz3cnw7f24\") */\n      dup2\n      mstore\n      0x20\n      add\n      mload(0x40)\n      dup1\n      0x80\n      add\n      0x40\n      mstore\n      dup1\n      0x5d\n      dup2\n      mstore\n      0x20\n      add\n      data_4de8576ed651b45ee8b8de37ab230acfe5a77f3bcefa3b601e95aeedc205cf9f\n      0x5d\n      swap2\n      codecopy\n      dup2\n      mstore\n      pop\n        /* \"contracts/SpeciesLibrary.sol\":3286:3417  return SpeciesInfo(150, 100, 4, 3, \"https://gateway.pinata.cloud/ipfs/bafkreif6eno2qjj3xc7mebql2s66ol6yxrwx7gwavz44qn2dlz3cnw7f24\") */\n      swap1\n      pop\n      jump(tag_187)\n        /* \"contracts/SpeciesLibrary.sol\":3234:3623  if (species == Species.GreylagGoose) {... */\n    tag_246:\n        /* \"contracts/SpeciesLibrary.sol\":3450:3465  Species.Moorhen */\n      0x09\n        /* \"contracts/SpeciesLibrary.sol\":3439:3465  species == Species.Moorhen */\n      0x0a\n      dup2\n      gt\n      iszero\n      tag_248\n      jumpi\n      tag_249\n      tag_110\n      jump\t// in\n    tag_249:\n    tag_248:\n        /* \"contracts/SpeciesLibrary.sol\":3439:3446  species */\n      dup3\n        /* \"contracts/SpeciesLibrary.sol\":3439:3465  species == Species.Moorhen */\n      0x0a\n      dup2\n      gt\n      iszero\n      tag_250\n      jumpi\n      tag_251\n      tag_110\n      jump\t// in\n    tag_251:\n    tag_250:\n      sub\n        /* \"contracts/SpeciesLibrary.sol\":3435:3623  if (species == Species.Moorhen) {... */\n      tag_252\n      jumpi\n        /* \"contracts/SpeciesLibrary.sol\":3489:3611  SpeciesInfo(35, 66, 4, 5, \"https://gateway.pinata.cloud/ipfs/bafybeifpajbivhhemjefgiamnvh7oe27lextqj7agpznchqeujcn46i5ca\") */\n      mload(0x40)\n      dup1\n      0xa0\n      add\n      0x40\n      mstore\n      dup1\n        /* \"contracts/SpeciesLibrary.sol\":3501:3503  35 */\n      0x23\n        /* \"contracts/SpeciesLibrary.sol\":3489:3611  SpeciesInfo(35, 66, 4, 5, \"https://gateway.pinata.cloud/ipfs/bafybeifpajbivhhemjefgiamnvh7oe27lextqj7agpznchqeujcn46i5ca\") */\n      dup2\n      mstore\n      0x20\n      add\n        /* \"contracts/SpeciesLibrary.sol\":3505:3507  66 */\n      0x42\n        /* \"contracts/SpeciesLibrary.sol\":3489:3611  SpeciesInfo(35, 66, 4, 5, \"https://gateway.pinata.cloud/ipfs/bafybeifpajbivhhemjefgiamnvh7oe27lextqj7agpznchqeujcn46i5ca\") */\n      dup2\n      mstore\n      0x20\n      add\n        /* \"contracts/SpeciesLibrary.sol\":3509:3510  4 */\n      0x04\n        /* \"contracts/SpeciesLibrary.sol\":3489:3611  SpeciesInfo(35, 66, 4, 5, \"https://gateway.pinata.cloud/ipfs/bafybeifpajbivhhemjefgiamnvh7oe27lextqj7agpznchqeujcn46i5ca\") */\n      dup2\n      mstore\n      0x20\n      add\n        /* \"contracts/SpeciesLibrary.sol\":3512:3513  5 */\n      0x05\n        /* \"contracts/SpeciesLibrary.sol\":3489:3611  SpeciesInfo(35, 66, 4, 5, \"https://gateway.pinata.cloud/ipfs/bafybeifpajbivhhemjefgiamnvh7oe27lextqj7agpznchqeujcn46i5ca\") */\n      dup2\n      mstore\n      0x20\n      add\n      mload(0x40)\n      dup1\n      0x80\n      add\n      0x40\n      mstore\n      dup1\n      0x5d\n      dup2\n      mstore\n      0x20\n      add\n      data_4bffd64c369afa296df94915c3530d23c4bb62ed5947a16d0436ecf77d5e47b7\n      0x5d\n      swap2\n      codecopy\n      dup2\n      mstore\n      pop\n        /* \"contracts/SpeciesLibrary.sol\":3482:3611  return SpeciesInfo(35, 66, 4, 5, \"https://gateway.pinata.cloud/ipfs/bafybeifpajbivhhemjefgiamnvh7oe27lextqj7agpznchqeujcn46i5ca\") */\n      swap1\n      pop\n      jump(tag_187)\n        /* \"contracts/SpeciesLibrary.sol\":3435:3623  if (species == Species.Moorhen) {... */\n    tag_252:\n        /* \"contracts/SpeciesLibrary.sol\":3633:3658  revert(\"Unknown species\") */\n      mload(0x40)\n      0x08c379a000000000000000000000000000000000000000000000000000000000\n      dup2\n      mstore\n      0x04\n      add\n      tag_253\n      swap1\n      tag_254\n      jump\t// in\n    tag_253:\n      mload(0x40)\n      dup1\n      swap2\n      sub\n      swap1\n      revert\n        /* \"contracts/SpeciesLibrary.sol\":1361:3666  function getSpeciesInfo(Species species) internal pure returns (SpeciesInfo memory) {... */\n    tag_187:\n      swap2\n      swap1\n      pop\n      jump\t// out\n    tag_120:\n      mload(0x40)\n      dup1\n      0xe0\n      add\n      0x40\n      mstore\n      dup1\n      0x00\n      dup2\n      mstore\n      0x20\n      add\n      0x00\n      dup2\n      mstore\n      0x20\n      add\n      0x00\n      dup2\n      mstore\n      0x20\n      add\n      0x00\n      0x0a\n      dup2\n      gt\n      iszero\n      tag_255\n      jumpi\n      tag_256\n      tag_110\n      jump\t// in\n    tag_256:\n    tag_255:\n      dup2\n      mstore\n      0x20\n      add\n      0x00\n      dup2\n      mstore\n      0x20\n      add\n      iszero(iszero(0x00))\n      dup2\n      mstore\n      0x20\n      add\n      0x00\n      dup2\n      mstore\n      pop\n      swap1\n      jump\t// out\n    tag_176:\n      mload(0x40)\n      dup1\n      0xa0\n      add\n      0x40\n      mstore\n      dup1\n      0x00\n      dup2\n      mstore\n      0x20\n      add\n      0x00\n      dup2\n      mstore\n      0x20\n      add\n      0x00\n      dup2\n      mstore\n      0x20\n      add\n      0x00\n      dup2\n      mstore\n      0x20\n      add\n      0x60\n      dup2\n      mstore\n      pop\n      swap1\n      jump\t// out\n        /* \"#utility.yul\":88:205   */\n    tag_258:\n        /* \"#utility.yul\":197:198   */\n      0x00\n        /* \"#utility.yul\":194:195   */\n      0x00\n        /* \"#utility.yul\":187:199   */\n      revert\n        /* \"#utility.yul\":334:411   */\n    tag_260:\n        /* \"#utility.yul\":371:378   */\n      0x00\n        /* \"#utility.yul\":400:405   */\n      dup2\n        /* \"#utility.yul\":389:405   */\n      swap1\n      pop\n        /* \"#utility.yul\":334:411   */\n      swap2\n      swap1\n      pop\n      jump\t// out\n        /* \"#utility.yul\":417:539   */\n    tag_261:\n        /* \"#utility.yul\":490:514   */\n      tag_312\n        /* \"#utility.yul\":508:513   */\n      dup2\n        /* \"#utility.yul\":490:514   */\n      tag_260\n      jump\t// in\n    tag_312:\n        /* \"#utility.yul\":483:488   */\n      dup2\n        /* \"#utility.yul\":480:515   */\n      eq\n        /* \"#utility.yul\":470:533   */\n      tag_313\n      jumpi\n        /* \"#utility.yul\":529:530   */\n      0x00\n        /* \"#utility.yul\":526:527   */\n      0x00\n        /* \"#utility.yul\":519:531   */\n      revert\n        /* \"#utility.yul\":470:533   */\n    tag_313:\n        /* \"#utility.yul\":417:539   */\n      pop\n      jump\t// out\n        /* \"#utility.yul\":545:684   */\n    tag_262:\n        /* \"#utility.yul\":591:596   */\n      0x00\n        /* \"#utility.yul\":629:635   */\n      dup2\n        /* \"#utility.yul\":616:636   */\n      calldataload\n        /* \"#utility.yul\":607:636   */\n      swap1\n      pop\n        /* \"#utility.yul\":645:678   */\n      tag_315\n        /* \"#utility.yul\":672:677   */\n      dup2\n        /* \"#utility.yul\":645:678   */\n      tag_261\n      jump\t// in\n    tag_315:\n        /* \"#utility.yul\":545:684   */\n      swap3\n      swap2\n      pop\n      pop\n      jump\t// out\n        /* \"#utility.yul\":690:1019   */\n    tag_23:\n        /* \"#utility.yul\":749:755   */\n      0x00\n        /* \"#utility.yul\":798:800   */\n      0x20\n        /* \"#utility.yul\":786:795   */\n      dup3\n        /* \"#utility.yul\":777:784   */\n      dup5\n        /* \"#utility.yul\":773:796   */\n      sub\n        /* \"#utility.yul\":769:801   */\n      slt\n        /* \"#utility.yul\":766:885   */\n      iszero\n      tag_317\n      jumpi\n        /* \"#utility.yul\":804:883   */\n      tag_318\n      tag_258\n      jump\t// in\n    tag_318:\n        /* \"#utility.yul\":766:885   */\n    tag_317:\n        /* \"#utility.yul\":924:925   */\n      0x00\n        /* \"#utility.yul\":949:1002   */\n      tag_319\n        /* \"#utility.yul\":994:1001   */\n      dup5\n        /* \"#utility.yul\":985:991   */\n      dup3\n        /* \"#utility.yul\":974:983   */\n      dup6\n        /* \"#utility.yul\":970:992   */\n      add\n        /* \"#utility.yul\":949:1002   */\n      tag_262\n      jump\t// in\n    tag_319:\n        /* \"#utility.yul\":939:1002   */\n      swap2\n      pop\n        /* \"#utility.yul\":895:1012   */\n      pop\n        /* \"#utility.yul\":690:1019   */\n      swap3\n      swap2\n      pop\n      pop\n      jump\t// out\n        /* \"#utility.yul\":1025:1115   */\n    tag_263:\n        /* \"#utility.yul\":1059:1066   */\n      0x00\n        /* \"#utility.yul\":1102:1107   */\n      dup2\n        /* \"#utility.yul\":1095:1108   */\n      iszero\n        /* \"#utility.yul\":1088:1109   */\n      iszero\n        /* \"#utility.yul\":1077:1109   */\n      swap1\n      pop\n        /* \"#utility.yul\":1025:1115   */\n      swap2\n      swap1\n      pop\n      jump\t// out\n        /* \"#utility.yul\":1121:1230   */\n    tag_264:\n        /* \"#utility.yul\":1202:1223   */\n      tag_322\n        /* \"#utility.yul\":1217:1222   */\n      dup2\n        /* \"#utility.yul\":1202:1223   */\n      tag_263\n      jump\t// in\n    tag_322:\n        /* \"#utility.yul\":1197:1200   */\n      dup3\n        /* \"#utility.yul\":1190:1224   */\n      mstore\n        /* \"#utility.yul\":1121:1230   */\n      pop\n      pop\n      jump\t// out\n        /* \"#utility.yul\":1236:1446   */\n    tag_26:\n        /* \"#utility.yul\":1323:1327   */\n      0x00\n        /* \"#utility.yul\":1361:1363   */\n      0x20\n        /* \"#utility.yul\":1350:1359   */\n      dup3\n        /* \"#utility.yul\":1346:1364   */\n      add\n        /* \"#utility.yul\":1338:1364   */\n      swap1\n      pop\n        /* \"#utility.yul\":1374:1439   */\n      tag_324\n        /* \"#utility.yul\":1436:1437   */\n      0x00\n        /* \"#utility.yul\":1425:1434   */\n      dup4\n        /* \"#utility.yul\":1421:1438   */\n      add\n        /* \"#utility.yul\":1412:1418   */\n      dup5\n        /* \"#utility.yul\":1374:1439   */\n      tag_264\n      jump\t// in\n    tag_324:\n        /* \"#utility.yul\":1236:1446   */\n      swap3\n      swap2\n      pop\n      pop\n      jump\t// out\n        /* \"#utility.yul\":1452:1926   */\n    tag_29:\n        /* \"#utility.yul\":1520:1526   */\n      0x00\n        /* \"#utility.yul\":1528:1534   */\n      0x00\n        /* \"#utility.yul\":1577:1579   */\n      0x40\n        /* \"#utility.yul\":1565:1574   */\n      dup4\n        /* \"#utility.yul\":1556:1563   */\n      dup6\n        /* \"#utility.yul\":1552:1575   */\n      sub\n        /* \"#utility.yul\":1548:1580   */\n      slt\n        /* \"#utility.yul\":1545:1664   */\n      iszero\n      tag_326\n      jumpi\n        /* \"#utility.yul\":1583:1662   */\n      tag_327\n      tag_258\n      jump\t// in\n    tag_327:\n        /* \"#utility.yul\":1545:1664   */\n    tag_326:\n        /* \"#utility.yul\":1703:1704   */\n      0x00\n        /* \"#utility.yul\":1728:1781   */\n      tag_328\n        /* \"#utility.yul\":1773:1780   */\n      dup6\n        /* \"#utility.yul\":1764:1770   */\n      dup3\n        /* \"#utility.yul\":1753:1762   */\n      dup7\n        /* \"#utility.yul\":1749:1771   */\n      add\n        /* \"#utility.yul\":1728:1781   */\n      tag_262\n      jump\t// in\n    tag_328:\n        /* \"#utility.yul\":1718:1781   */\n      swap3\n      pop\n        /* \"#utility.yul\":1674:1791   */\n      pop\n        /* \"#utility.yul\":1830:1832   */\n      0x20\n        /* \"#utility.yul\":1856:1909   */\n      tag_329\n        /* \"#utility.yul\":1901:1908   */\n      dup6\n        /* \"#utility.yul\":1892:1898   */\n      dup3\n        /* \"#utility.yul\":1881:1890   */\n      dup7\n        /* \"#utility.yul\":1877:1899   */\n      add\n        /* \"#utility.yul\":1856:1909   */\n      tag_262\n      jump\t// in\n    tag_329:\n        /* \"#utility.yul\":1846:1909   */\n      swap2\n      pop\n        /* \"#utility.yul\":1801:1919   */\n      pop\n        /* \"#utility.yul\":1452:1926   */\n      swap3\n      pop\n      swap3\n      swap1\n      pop\n      jump\t// out\n        /* \"#utility.yul\":1932:2043   */\n    tag_265:\n        /* \"#utility.yul\":2016:2018   */\n      0x0b\n        /* \"#utility.yul\":2009:2014   */\n      dup2\n        /* \"#utility.yul\":2006:2019   */\n      lt\n        /* \"#utility.yul\":1996:2037   */\n      tag_331\n      jumpi\n        /* \"#utility.yul\":2033:2034   */\n      0x00\n        /* \"#utility.yul\":2030:2031   */\n      0x00\n        /* \"#utility.yul\":2023:2035   */\n      revert\n        /* \"#utility.yul\":1996:2037   */\n    tag_331:\n        /* \"#utility.yul\":1932:2043   */\n      pop\n      jump\t// out\n        /* \"#utility.yul\":2049:2210   */\n    tag_266:\n        /* \"#utility.yul\":2106:2111   */\n      0x00\n        /* \"#utility.yul\":2144:2150   */\n      dup2\n        /* \"#utility.yul\":2131:2151   */\n      calldataload\n        /* \"#utility.yul\":2122:2151   */\n      swap1\n      pop\n        /* \"#utility.yul\":2160:2204   */\n      tag_333\n        /* \"#utility.yul\":2198:2203   */\n      dup2\n        /* \"#utility.yul\":2160:2204   */\n      tag_265\n      jump\t// in\n    tag_333:\n        /* \"#utility.yul\":2049:2210   */\n      swap3\n      swap2\n      pop\n      pop\n      jump\t// out\n        /* \"#utility.yul\":2216:2567   */\n    tag_36:\n        /* \"#utility.yul\":2286:2292   */\n      0x00\n        /* \"#utility.yul\":2335:2337   */\n      0x20\n        /* \"#utility.yul\":2323:2332   */\n      dup3\n        /* \"#utility.yul\":2314:2321   */\n      dup5\n        /* \"#utility.yul\":2310:2333   */\n      sub\n        /* \"#utility.yul\":2306:2338   */\n      slt\n        /* \"#utility.yul\":2303:2422   */\n      iszero\n      tag_335\n      jumpi\n        /* \"#utility.yul\":2341:2420   */\n      tag_336\n      tag_258\n      jump\t// in\n    tag_336:\n        /* \"#utility.yul\":2303:2422   */\n    tag_335:\n        /* \"#utility.yul\":2461:2462   */\n      0x00\n        /* \"#utility.yul\":2486:2550   */\n      tag_337\n        /* \"#utility.yul\":2542:2549   */\n      dup5\n        /* \"#utility.yul\":2533:2539   */\n      dup3\n        /* \"#utility.yul\":2522:2531   */\n      dup6\n        /* \"#utility.yul\":2518:2540   */\n      add\n        /* \"#utility.yul\":2486:2550   */\n      tag_266\n      jump\t// in\n    tag_337:\n        /* \"#utility.yul\":2476:2550   */\n      swap2\n      pop\n        /* \"#utility.yul\":2432:2560   */\n      pop\n        /* \"#utility.yul\":2216:2567   */\n      swap3\n      swap2\n      pop\n      pop\n      jump\t// out\n        /* \"#utility.yul\":2573:2691   */\n    tag_267:\n        /* \"#utility.yul\":2660:2684   */\n      tag_339\n        /* \"#utility.yul\":2678:2683   */\n      dup2\n        /* \"#utility.yul\":2660:2684   */\n      tag_260\n      jump\t// in\n    tag_339:\n        /* \"#utility.yul\":2655:2658   */\n      dup3\n        /* \"#utility.yul\":2648:2685   */\n      mstore\n        /* \"#utility.yul\":2573:2691   */\n      pop\n      pop\n      jump\t// out\n        /* \"#utility.yul\":2697:2919   */\n    tag_39:\n        /* \"#utility.yul\":2790:2794   */\n      0x00\n        /* \"#utility.yul\":2828:2830   */\n      0x20\n        /* \"#utility.yul\":2817:2826   */\n      dup3\n        /* \"#utility.yul\":2813:2831   */\n      add\n        /* \"#utility.yul\":2805:2831   */\n      swap1\n      pop\n        /* \"#utility.yul\":2841:2912   */\n      tag_341\n        /* \"#utility.yul\":2909:2910   */\n      0x00\n        /* \"#utility.yul\":2898:2907   */\n      dup4\n        /* \"#utility.yul\":2894:2911   */\n      add\n        /* \"#utility.yul\":2885:2891   */\n      dup5\n        /* \"#utility.yul\":2841:2912   */\n      tag_267\n      jump\t// in\n    tag_341:\n        /* \"#utility.yul\":2697:2919   */\n      swap3\n      swap2\n      pop\n      pop\n      jump\t// out\n        /* \"#utility.yul\":2925:3051   */\n    tag_268:\n        /* \"#utility.yul\":2962:2969   */\n      0x00\n        /* \"#utility.yul\":3002:3044   */\n      0xffffffffffffffffffffffffffffffffffffffff\n        /* \"#utility.yul\":2995:3000   */\n      dup3\n        /* \"#utility.yul\":2991:3045   */\n      and\n        /* \"#utility.yul\":2980:3045   */\n      swap1\n      pop\n        /* \"#utility.yul\":2925:3051   */\n      swap2\n      swap1\n      pop\n      jump\t// out\n        /* \"#utility.yul\":3057:3153   */\n    tag_269:\n        /* \"#utility.yul\":3094:3101   */\n      0x00\n        /* \"#utility.yul\":3123:3147   */\n      tag_344\n        /* \"#utility.yul\":3141:3146   */\n      dup3\n        /* \"#utility.yul\":3123:3147   */\n      tag_268\n      jump\t// in\n    tag_344:\n        /* \"#utility.yul\":3112:3147   */\n      swap1\n      pop\n        /* \"#utility.yul\":3057:3153   */\n      swap2\n      swap1\n      pop\n      jump\t// out\n        /* \"#utility.yul\":3159:3281   */\n    tag_270:\n        /* \"#utility.yul\":3232:3256   */\n      tag_346\n        /* \"#utility.yul\":3250:3255   */\n      dup2\n        /* \"#utility.yul\":3232:3256   */\n      tag_269\n      jump\t// in\n    tag_346:\n        /* \"#utility.yul\":3225:3230   */\n      dup2\n        /* \"#utility.yul\":3222:3257   */\n      eq\n        /* \"#utility.yul\":3212:3275   */\n      tag_347\n      jumpi\n        /* \"#utility.yul\":3271:3272   */\n      0x00\n        /* \"#utility.yul\":3268:3269   */\n      0x00\n        /* \"#utility.yul\":3261:3273   */\n      revert\n        /* \"#utility.yul\":3212:3275   */\n    tag_347:\n        /* \"#utility.yul\":3159:3281   */\n      pop\n      jump\t// out\n        /* \"#utility.yul\":3287:3426   */\n    tag_271:\n        /* \"#utility.yul\":3333:3338   */\n      0x00\n        /* \"#utility.yul\":3371:3377   */\n      dup2\n        /* \"#utility.yul\":3358:3378   */\n      calldataload\n        /* \"#utility.yul\":3349:3378   */\n      swap1\n      pop\n        /* \"#utility.yul\":3387:3420   */\n      tag_349\n        /* \"#utility.yul\":3414:3419   */\n      dup2\n        /* \"#utility.yul\":3387:3420   */\n      tag_270\n      jump\t// in\n    tag_349:\n        /* \"#utility.yul\":3287:3426   */\n      swap3\n      swap2\n      pop\n      pop\n      jump\t// out\n        /* \"#utility.yul\":3432:3761   */\n    tag_42:\n        /* \"#utility.yul\":3491:3497   */\n      0x00\n        /* \"#utility.yul\":3540:3542   */\n      0x20\n        /* \"#utility.yul\":3528:3537   */\n      dup3\n        /* \"#utility.yul\":3519:3526   */\n      dup5\n        /* \"#utility.yul\":3515:3538   */\n      sub\n        /* \"#utility.yul\":3511:3543   */\n      slt\n        /* \"#utility.yul\":3508:3627   */\n      iszero\n      tag_351\n      jumpi\n        /* \"#utility.yul\":3546:3625   */\n      tag_352\n      tag_258\n      jump\t// in\n    tag_352:\n        /* \"#utility.yul\":3508:3627   */\n    tag_351:\n        /* \"#utility.yul\":3666:3667   */\n      0x00\n        /* \"#utility.yul\":3691:3744   */\n      tag_353\n        /* \"#utility.yul\":3736:3743   */\n      dup5\n        /* \"#utility.yul\":3727:3733   */\n      dup3\n        /* \"#utility.yul\":3716:3725   */\n      dup6\n        /* \"#utility.yul\":3712:3734   */\n      add\n        /* \"#utility.yul\":3691:3744   */\n      tag_271\n      jump\t// in\n    tag_353:\n        /* \"#utility.yul\":3681:3744   */\n      swap2\n      pop\n        /* \"#utility.yul\":3637:3754   */\n      pop\n        /* \"#utility.yul\":3432:3761   */\n      swap3\n      swap2\n      pop\n      pop\n      jump\t// out\n        /* \"#utility.yul\":3767:3885   */\n    tag_272:\n        /* \"#utility.yul\":3854:3878   */\n      tag_355\n        /* \"#utility.yul\":3872:3877   */\n      dup2\n        /* \"#utility.yul\":3854:3878   */\n      tag_269\n      jump\t// in\n    tag_355:\n        /* \"#utility.yul\":3849:3852   */\n      dup3\n        /* \"#utility.yul\":3842:3879   */\n      mstore\n        /* \"#utility.yul\":3767:3885   */\n      pop\n      pop\n      jump\t// out\n        /* \"#utility.yul\":3891:4113   */\n    tag_51:\n        /* \"#utility.yul\":3984:3988   */\n      0x00\n        /* \"#utility.yul\":4022:4024   */\n      0x20\n        /* \"#utility.yul\":4011:4020   */\n      dup3\n        /* \"#utility.yul\":4007:4025   */\n      add\n        /* \"#utility.yul\":3999:4025   */\n      swap1\n      pop\n        /* \"#utility.yul\":4035:4106   */\n      tag_357\n        /* \"#utility.yul\":4103:4104   */\n      0x00\n        /* \"#utility.yul\":4092:4101   */\n      dup4\n        /* \"#utility.yul\":4088:4105   */\n      add\n        /* \"#utility.yul\":4079:4085   */\n      dup5\n        /* \"#utility.yul\":4035:4106   */\n      tag_272\n      jump\t// in\n    tag_357:\n        /* \"#utility.yul\":3891:4113   */\n      swap3\n      swap2\n      pop\n      pop\n      jump\t// out\n        /* \"#utility.yul\":4119:4227   */\n    tag_273:\n        /* \"#utility.yul\":4196:4220   */\n      tag_359\n        /* \"#utility.yul\":4214:4219   */\n      dup2\n        /* \"#utility.yul\":4196:4220   */\n      tag_260\n      jump\t// in\n    tag_359:\n        /* \"#utility.yul\":4191:4194   */\n      dup3\n        /* \"#utility.yul\":4184:4221   */\n      mstore\n        /* \"#utility.yul\":4119:4227   */\n      pop\n      pop\n      jump\t// out\n        /* \"#utility.yul\":4233:4413   */\n    tag_110:\n        /* \"#utility.yul\":4281:4358   */\n      0x4e487b7100000000000000000000000000000000000000000000000000000000\n        /* \"#utility.yul\":4278:4279   */\n      0x00\n        /* \"#utility.yul\":4271:4359   */\n      mstore\n        /* \"#utility.yul\":4378:4382   */\n      0x21\n        /* \"#utility.yul\":4375:4376   */\n      0x04\n        /* \"#utility.yul\":4368:4383   */\n      mstore\n        /* \"#utility.yul\":4402:4406   */\n      0x24\n        /* \"#utility.yul\":4399:4400   */\n      0x00\n        /* \"#utility.yul\":4392:4407   */\n      revert\n        /* \"#utility.yul\":4419:4536   */\n    tag_274:\n        /* \"#utility.yul\":4503:4505   */\n      0x0b\n        /* \"#utility.yul\":4496:4501   */\n      dup2\n        /* \"#utility.yul\":4493:4506   */\n      lt\n        /* \"#utility.yul\":4483:4530   */\n      tag_362\n      jumpi\n        /* \"#utility.yul\":4510:4528   */\n      tag_363\n      tag_110\n      jump\t// in\n    tag_363:\n        /* \"#utility.yul\":4483:4530   */\n    tag_362:\n        /* \"#utility.yul\":4419:4536   */\n      pop\n      jump\t// out\n        /* \"#utility.yul\":4542:4675   */\n    tag_275:\n        /* \"#utility.yul\":4590:4597   */\n      0x00\n        /* \"#utility.yul\":4619:4624   */\n      dup2\n        /* \"#utility.yul\":4608:4624   */\n      swap1\n      pop\n        /* \"#utility.yul\":4625:4669   */\n      tag_365\n        /* \"#utility.yul\":4663:4668   */\n      dup3\n        /* \"#utility.yul\":4625:4669   */\n      tag_274\n      jump\t// in\n    tag_365:\n        /* \"#utility.yul\":4542:4675   */\n      swap2\n      swap1\n      pop\n      jump\t// out\n        /* \"#utility.yul\":4681:4814   */\n    tag_276:\n        /* \"#utility.yul\":4740:4749   */\n      0x00\n        /* \"#utility.yul\":4773:4808   */\n      tag_367\n        /* \"#utility.yul\":4802:4807   */\n      dup3\n        /* \"#utility.yul\":4773:4808   */\n      tag_275\n      jump\t// in\n    tag_367:\n        /* \"#utility.yul\":4760:4808   */\n      swap1\n      pop\n        /* \"#utility.yul\":4681:4814   */\n      swap2\n      swap1\n      pop\n      jump\t// out\n        /* \"#utility.yul\":4820:4959   */\n    tag_277:\n        /* \"#utility.yul\":4906:4952   */\n      tag_369\n        /* \"#utility.yul\":4946:4951   */\n      dup2\n        /* \"#utility.yul\":4906:4952   */\n      tag_276\n      jump\t// in\n    tag_369:\n        /* \"#utility.yul\":4901:4904   */\n      dup3\n        /* \"#utility.yul\":4894:4953   */\n      mstore\n        /* \"#utility.yul\":4820:4959   */\n      pop\n      pop\n      jump\t// out\n        /* \"#utility.yul\":4965:5064   */\n    tag_278:\n        /* \"#utility.yul\":5036:5057   */\n      tag_371\n        /* \"#utility.yul\":5051:5056   */\n      dup2\n        /* \"#utility.yul\":5036:5057   */\n      tag_263\n      jump\t// in\n    tag_371:\n        /* \"#utility.yul\":5031:5034   */\n      dup3\n        /* \"#utility.yul\":5024:5058   */\n      mstore\n        /* \"#utility.yul\":4965:5064   */\n      pop\n      pop\n      jump\t// out\n        /* \"#utility.yul\":5122:6528   */\n    tag_279:\n        /* \"#utility.yul\":5267:5271   */\n      0xe0\n        /* \"#utility.yul\":5262:5265   */\n      dup3\n        /* \"#utility.yul\":5258:5272   */\n      add\n        /* \"#utility.yul\":5353:5357   */\n      0x00\n        /* \"#utility.yul\":5346:5351   */\n      dup3\n        /* \"#utility.yul\":5342:5358   */\n      add\n        /* \"#utility.yul\":5336:5359   */\n      mload\n        /* \"#utility.yul\":5372:5435   */\n      tag_373\n        /* \"#utility.yul\":5429:5433   */\n      0x00\n        /* \"#utility.yul\":5424:5427   */\n      dup6\n        /* \"#utility.yul\":5420:5434   */\n      add\n        /* \"#utility.yul\":5406:5418   */\n      dup3\n        /* \"#utility.yul\":5372:5435   */\n      tag_273\n      jump\t// in\n    tag_373:\n        /* \"#utility.yul\":5282:5445   */\n      pop\n        /* \"#utility.yul\":5529:5533   */\n      0x20\n        /* \"#utility.yul\":5522:5527   */\n      dup3\n        /* \"#utility.yul\":5518:5534   */\n      add\n        /* \"#utility.yul\":5512:5535   */\n      mload\n        /* \"#utility.yul\":5548:5611   */\n      tag_374\n        /* \"#utility.yul\":5605:5609   */\n      0x20\n        /* \"#utility.yul\":5600:5603   */\n      dup6\n        /* \"#utility.yul\":5596:5610   */\n      add\n        /* \"#utility.yul\":5582:5594   */\n      dup3\n        /* \"#utility.yul\":5548:5611   */\n      tag_273\n      jump\t// in\n    tag_374:\n        /* \"#utility.yul\":5455:5621   */\n      pop\n        /* \"#utility.yul\":5705:5709   */\n      0x40\n        /* \"#utility.yul\":5698:5703   */\n      dup3\n        /* \"#utility.yul\":5694:5710   */\n      add\n        /* \"#utility.yul\":5688:5711   */\n      mload\n        /* \"#utility.yul\":5724:5787   */\n      tag_375\n        /* \"#utility.yul\":5781:5785   */\n      0x40\n        /* \"#utility.yul\":5776:5779   */\n      dup6\n        /* \"#utility.yul\":5772:5786   */\n      add\n        /* \"#utility.yul\":5758:5770   */\n      dup3\n        /* \"#utility.yul\":5724:5787   */\n      tag_273\n      jump\t// in\n    tag_375:\n        /* \"#utility.yul\":5631:5797   */\n      pop\n        /* \"#utility.yul\":5882:5886   */\n      0x60\n        /* \"#utility.yul\":5875:5880   */\n      dup3\n        /* \"#utility.yul\":5871:5887   */\n      add\n        /* \"#utility.yul\":5865:5888   */\n      mload\n        /* \"#utility.yul\":5901:5973   */\n      tag_376\n        /* \"#utility.yul\":5967:5971   */\n      0x60\n        /* \"#utility.yul\":5962:5965   */\n      dup6\n        /* \"#utility.yul\":5958:5972   */\n      add\n        /* \"#utility.yul\":5944:5956   */\n      dup3\n        /* \"#utility.yul\":5901:5973   */\n      tag_277\n      jump\t// in\n    tag_376:\n        /* \"#utility.yul\":5807:5983   */\n      pop\n        /* \"#utility.yul\":6075:6079   */\n      0x80\n        /* \"#utility.yul\":6068:6073   */\n      dup3\n        /* \"#utility.yul\":6064:6080   */\n      add\n        /* \"#utility.yul\":6058:6081   */\n      mload\n        /* \"#utility.yul\":6094:6157   */\n      tag_377\n        /* \"#utility.yul\":6151:6155   */\n      0x80\n        /* \"#utility.yul\":6146:6149   */\n      dup6\n        /* \"#utility.yul\":6142:6156   */\n      add\n        /* \"#utility.yul\":6128:6140   */\n      dup3\n        /* \"#utility.yul\":6094:6157   */\n      tag_273\n      jump\t// in\n    tag_377:\n        /* \"#utility.yul\":5993:6167   */\n      pop\n        /* \"#utility.yul\":6251:6255   */\n      0xa0\n        /* \"#utility.yul\":6244:6249   */\n      dup3\n        /* \"#utility.yul\":6240:6256   */\n      add\n        /* \"#utility.yul\":6234:6257   */\n      mload\n        /* \"#utility.yul\":6270:6327   */\n      tag_378\n        /* \"#utility.yul\":6321:6325   */\n      0xa0\n        /* \"#utility.yul\":6316:6319   */\n      dup6\n        /* \"#utility.yul\":6312:6326   */\n      add\n        /* \"#utility.yul\":6298:6310   */\n      dup3\n        /* \"#utility.yul\":6270:6327   */\n      tag_278\n      jump\t// in\n    tag_378:\n        /* \"#utility.yul\":6177:6337   */\n      pop\n        /* \"#utility.yul\":6429:6433   */\n      0xc0\n        /* \"#utility.yul\":6422:6427   */\n      dup3\n        /* \"#utility.yul\":6418:6434   */\n      add\n        /* \"#utility.yul\":6412:6435   */\n      mload\n        /* \"#utility.yul\":6448:6511   */\n      tag_379\n        /* \"#utility.yul\":6505:6509   */\n      0xc0\n        /* \"#utility.yul\":6500:6503   */\n      dup6\n        /* \"#utility.yul\":6496:6510   */\n      add\n        /* \"#utility.yul\":6482:6494   */\n      dup3\n        /* \"#utility.yul\":6448:6511   */\n      tag_273\n      jump\t// in\n    tag_379:\n        /* \"#utility.yul\":6347:6521   */\n      pop\n        /* \"#utility.yul\":5236:6528   */\n      pop\n        /* \"#utility.yul\":5122:6528   */\n      pop\n      pop\n      jump\t// out\n        /* \"#utility.yul\":6534:6853   */\n    tag_56:\n        /* \"#utility.yul\":6675:6679   */\n      0x00\n        /* \"#utility.yul\":6713:6716   */\n      0xe0\n        /* \"#utility.yul\":6702:6711   */\n      dup3\n        /* \"#utility.yul\":6698:6717   */\n      add\n        /* \"#utility.yul\":6690:6717   */\n      swap1\n      pop\n        /* \"#utility.yul\":6727:6846   */\n      tag_381\n        /* \"#utility.yul\":6843:6844   */\n      0x00\n        /* \"#utility.yul\":6832:6841   */\n      dup4\n        /* \"#utility.yul\":6828:6845   */\n      add\n        /* \"#utility.yul\":6819:6825   */\n      dup5\n        /* \"#utility.yul\":6727:6846   */\n      tag_279\n      jump\t// in\n    tag_381:\n        /* \"#utility.yul\":6534:6853   */\n      swap3\n      swap2\n      pop\n      pop\n      jump\t// out\n        /* \"#utility.yul\":6859:7333   */\n    tag_65:\n        /* \"#utility.yul\":6927:6933   */\n      0x00\n        /* \"#utility.yul\":6935:6941   */\n      0x00\n        /* \"#utility.yul\":6984:6986   */\n      0x40\n        /* \"#utility.yul\":6972:6981   */\n      dup4\n        /* \"#utility.yul\":6963:6970   */\n      dup6\n        /* \"#utility.yul\":6959:6982   */\n      sub\n        /* \"#utility.yul\":6955:6987   */\n      slt\n        /* \"#utility.yul\":6952:7071   */\n      iszero\n      tag_383\n      jumpi\n        /* \"#utility.yul\":6990:7069   */\n      tag_384\n      tag_258\n      jump\t// in\n    tag_384:\n        /* \"#utility.yul\":6952:7071   */\n    tag_383:\n        /* \"#utility.yul\":7110:7111   */\n      0x00\n        /* \"#utility.yul\":7135:7188   */\n      tag_385\n        /* \"#utility.yul\":7180:7187   */\n      dup6\n        /* \"#utility.yul\":7171:7177   */\n      dup3\n        /* \"#utility.yul\":7160:7169   */\n      dup7\n        /* \"#utility.yul\":7156:7178   */\n      add\n        /* \"#utility.yul\":7135:7188   */\n      tag_262\n      jump\t// in\n    tag_385:\n        /* \"#utility.yul\":7125:7188   */\n      swap3\n      pop\n        /* \"#utility.yul\":7081:7198   */\n      pop\n        /* \"#utility.yul\":7237:7239   */\n      0x20\n        /* \"#utility.yul\":7263:7316   */\n      tag_386\n        /* \"#utility.yul\":7308:7315   */\n      dup6\n        /* \"#utility.yul\":7299:7305   */\n      dup3\n        /* \"#utility.yul\":7288:7297   */\n      dup7\n        /* \"#utility.yul\":7284:7306   */\n      add\n        /* \"#utility.yul\":7263:7316   */\n      tag_271\n      jump\t// in\n    tag_386:\n        /* \"#utility.yul\":7253:7316   */\n      swap2\n      pop\n        /* \"#utility.yul\":7208:7326   */\n      pop\n        /* \"#utility.yul\":6859:7333   */\n      swap3\n      pop\n      swap3\n      swap1\n      pop\n      jump\t// out\n        /* \"#utility.yul\":7339:7488   */\n    tag_280:\n        /* \"#utility.yul\":7435:7481   */\n      tag_388\n        /* \"#utility.yul\":7475:7480   */\n      dup2\n        /* \"#utility.yul\":7435:7481   */\n      tag_276\n      jump\t// in\n    tag_388:\n        /* \"#utility.yul\":7430:7433   */\n      dup3\n        /* \"#utility.yul\":7423:7482   */\n      mstore\n        /* \"#utility.yul\":7339:7488   */\n      pop\n      pop\n      jump\t// out\n        /* \"#utility.yul\":7494:8386   */\n    tag_77:\n        /* \"#utility.yul\":7758:7762   */\n      0x00\n        /* \"#utility.yul\":7796:7799   */\n      0xe0\n        /* \"#utility.yul\":7785:7794   */\n      dup3\n        /* \"#utility.yul\":7781:7800   */\n      add\n        /* \"#utility.yul\":7773:7800   */\n      swap1\n      pop\n        /* \"#utility.yul\":7810:7881   */\n      tag_390\n        /* \"#utility.yul\":7878:7879   */\n      0x00\n        /* \"#utility.yul\":7867:7876   */\n      dup4\n        /* \"#utility.yul\":7863:7880   */\n      add\n        /* \"#utility.yul\":7854:7860   */\n      dup11\n        /* \"#utility.yul\":7810:7881   */\n      tag_267\n      jump\t// in\n    tag_390:\n        /* \"#utility.yul\":7891:7963   */\n      tag_391\n        /* \"#utility.yul\":7959:7961   */\n      0x20\n        /* \"#utility.yul\":7948:7957   */\n      dup4\n        /* \"#utility.yul\":7944:7962   */\n      add\n        /* \"#utility.yul\":7935:7941   */\n      dup10\n        /* \"#utility.yul\":7891:7963   */\n      tag_267\n      jump\t// in\n    tag_391:\n        /* \"#utility.yul\":7973:8045   */\n      tag_392\n        /* \"#utility.yul\":8041:8043   */\n      0x40\n        /* \"#utility.yul\":8030:8039   */\n      dup4\n        /* \"#utility.yul\":8026:8044   */\n      add\n        /* \"#utility.yul\":8017:8023   */\n      dup9\n        /* \"#utility.yul\":7973:8045   */\n      tag_267\n      jump\t// in\n    tag_392:\n        /* \"#utility.yul\":8055:8136   */\n      tag_393\n        /* \"#utility.yul\":8132:8134   */\n      0x60\n        /* \"#utility.yul\":8121:8130   */\n      dup4\n        /* \"#utility.yul\":8117:8135   */\n      add\n        /* \"#utility.yul\":8108:8114   */\n      dup8\n        /* \"#utility.yul\":8055:8136   */\n      tag_280\n      jump\t// in\n    tag_393:\n        /* \"#utility.yul\":8146:8219   */\n      tag_394\n        /* \"#utility.yul\":8214:8217   */\n      0x80\n        /* \"#utility.yul\":8203:8212   */\n      dup4\n        /* \"#utility.yul\":8199:8218   */\n      add\n        /* \"#utility.yul\":8190:8196   */\n      dup7\n        /* \"#utility.yul\":8146:8219   */\n      tag_267\n      jump\t// in\n    tag_394:\n        /* \"#utility.yul\":8229:8296   */\n      tag_395\n        /* \"#utility.yul\":8291:8294   */\n      0xa0\n        /* \"#utility.yul\":8280:8289   */\n      dup4\n        /* \"#utility.yul\":8276:8295   */\n      add\n        /* \"#utility.yul\":8267:8273   */\n      dup6\n        /* \"#utility.yul\":8229:8296   */\n      tag_264\n      jump\t// in\n    tag_395:\n        /* \"#utility.yul\":8306:8379   */\n      tag_396\n        /* \"#utility.yul\":8374:8377   */\n      0xc0\n        /* \"#utility.yul\":8363:8372   */\n      dup4\n        /* \"#utility.yul\":8359:8378   */\n      add\n        /* \"#utility.yul\":8350:8356   */\n      dup5\n        /* \"#utility.yul\":8306:8379   */\n      tag_267\n      jump\t// in\n    tag_396:\n        /* \"#utility.yul\":7494:8386   */\n      swap9\n      swap8\n      pop\n      pop\n      pop\n      pop\n      pop\n      pop\n      pop\n      pop\n      jump\t// out\n        /* \"#utility.yul\":8392:8491   */\n    tag_281:\n        /* \"#utility.yul\":8444:8450   */\n      0x00\n        /* \"#utility.yul\":8478:8483   */\n      dup2\n        /* \"#utility.yul\":8472:8484   */\n      mload\n        /* \"#utility.yul\":8462:8484   */\n      swap1\n      pop\n        /* \"#utility.yul\":8392:8491   */\n      swap2\n      swap1\n      pop\n      jump\t// out\n        /* \"#utility.yul\":8497:8666   */\n    tag_282:\n        /* \"#utility.yul\":8581:8592   */\n      0x00\n        /* \"#utility.yul\":8615:8621   */\n      dup3\n        /* \"#utility.yul\":8610:8613   */\n      dup3\n        /* \"#utility.yul\":8603:8622   */\n      mstore\n        /* \"#utility.yul\":8655:8659   */\n      0x20\n        /* \"#utility.yul\":8650:8653   */\n      dup3\n        /* \"#utility.yul\":8646:8660   */\n      add\n        /* \"#utility.yul\":8631:8660   */\n      swap1\n      pop\n        /* \"#utility.yul\":8497:8666   */\n      swap3\n      swap2\n      pop\n      pop\n      jump\t// out\n        /* \"#utility.yul\":8672:8811   */\n    tag_283:\n        /* \"#utility.yul\":8761:8767   */\n      dup3\n        /* \"#utility.yul\":8756:8759   */\n      dup2\n        /* \"#utility.yul\":8751:8754   */\n      dup4\n        /* \"#utility.yul\":8745:8768   */\n      mcopy\n        /* \"#utility.yul\":8802:8803   */\n      0x00\n        /* \"#utility.yul\":8793:8799   */\n      dup4\n        /* \"#utility.yul\":8788:8791   */\n      dup4\n        /* \"#utility.yul\":8784:8800   */\n      add\n        /* \"#utility.yul\":8777:8804   */\n      mstore\n        /* \"#utility.yul\":8672:8811   */\n      pop\n      pop\n      pop\n      jump\t// out\n        /* \"#utility.yul\":8817:8919   */\n    tag_284:\n        /* \"#utility.yul\":8858:8864   */\n      0x00\n        /* \"#utility.yul\":8909:8911   */\n      0x1f\n        /* \"#utility.yul\":8905:8912   */\n      not\n        /* \"#utility.yul\":8900:8902   */\n      0x1f\n        /* \"#utility.yul\":8893:8898   */\n      dup4\n        /* \"#utility.yul\":8889:8903   */\n      add\n        /* \"#utility.yul\":8885:8913   */\n      and\n        /* \"#utility.yul\":8875:8913   */\n      swap1\n      pop\n        /* \"#utility.yul\":8817:8919   */\n      swap2\n      swap1\n      pop\n      jump\t// out\n        /* \"#utility.yul\":8925:9302   */\n    tag_285:\n        /* \"#utility.yul\":9013:9016   */\n      0x00\n        /* \"#utility.yul\":9041:9080   */\n      tag_402\n        /* \"#utility.yul\":9074:9079   */\n      dup3\n        /* \"#utility.yul\":9041:9080   */\n      tag_281\n      jump\t// in\n    tag_402:\n        /* \"#utility.yul\":9096:9167   */\n      tag_403\n        /* \"#utility.yul\":9160:9166   */\n      dup2\n        /* \"#utility.yul\":9155:9158   */\n      dup6\n        /* \"#utility.yul\":9096:9167   */\n      tag_282\n      jump\t// in\n    tag_403:\n        /* \"#utility.yul\":9089:9167   */\n      swap4\n      pop\n        /* \"#utility.yul\":9176:9241   */\n      tag_404\n        /* \"#utility.yul\":9234:9240   */\n      dup2\n        /* \"#utility.yul\":9229:9232   */\n      dup6\n        /* \"#utility.yul\":9222:9226   */\n      0x20\n        /* \"#utility.yul\":9215:9220   */\n      dup7\n        /* \"#utility.yul\":9211:9227   */\n      add\n        /* \"#utility.yul\":9176:9241   */\n      tag_283\n      jump\t// in\n    tag_404:\n        /* \"#utility.yul\":9266:9295   */\n      tag_405\n        /* \"#utility.yul\":9288:9294   */\n      dup2\n        /* \"#utility.yul\":9266:9295   */\n      tag_284\n      jump\t// in\n    tag_405:\n        /* \"#utility.yul\":9261:9264   */\n      dup5\n        /* \"#utility.yul\":9257:9296   */\n      add\n        /* \"#utility.yul\":9250:9296   */\n      swap2\n      pop\n        /* \"#utility.yul\":9017:9302   */\n      pop\n        /* \"#utility.yul\":8925:9302   */\n      swap3\n      swap2\n      pop\n      pop\n      jump\t// out\n        /* \"#utility.yul\":9308:9621   */\n    tag_82:\n        /* \"#utility.yul\":9421:9425   */\n      0x00\n        /* \"#utility.yul\":9459:9461   */\n      0x20\n        /* \"#utility.yul\":9448:9457   */\n      dup3\n        /* \"#utility.yul\":9444:9462   */\n      add\n        /* \"#utility.yul\":9436:9462   */\n      swap1\n      pop\n        /* \"#utility.yul\":9508:9517   */\n      dup2\n        /* \"#utility.yul\":9502:9506   */\n      dup2\n        /* \"#utility.yul\":9498:9518   */\n      sub\n        /* \"#utility.yul\":9494:9495   */\n      0x00\n        /* \"#utility.yul\":9483:9492   */\n      dup4\n        /* \"#utility.yul\":9479:9496   */\n      add\n        /* \"#utility.yul\":9472:9519   */\n      mstore\n        /* \"#utility.yul\":9536:9614   */\n      tag_407\n        /* \"#utility.yul\":9609:9613   */\n      dup2\n        /* \"#utility.yul\":9600:9606   */\n      dup5\n        /* \"#utility.yul\":9536:9614   */\n      tag_285\n      jump\t// in\n    tag_407:\n        /* \"#utility.yul\":9528:9614   */\n      swap1\n      pop\n        /* \"#utility.yul\":9308:9621   */\n      swap3\n      swap2\n      pop\n      pop\n      jump\t// out\n        /* \"#utility.yul\":9627:9800   */\n    tag_286:\n        /* \"#utility.yul\":9767:9792   */\n      0x4f6e6c79205061726b2063616e2063616c6c2074686973000000000000000000\n        /* \"#utility.yul\":9763:9764   */\n      0x00\n        /* \"#utility.yul\":9755:9761   */\n      dup3\n        /* \"#utility.yul\":9751:9765   */\n      add\n        /* \"#utility.yul\":9744:9793   */\n      mstore\n        /* \"#utility.yul\":9627:9800   */\n      pop\n      jump\t// out\n        /* \"#utility.yul\":9806:10172   */\n    tag_287:\n        /* \"#utility.yul\":9948:9951   */\n      0x00\n        /* \"#utility.yul\":9969:10036   */\n      tag_410\n        /* \"#utility.yul\":10033:10035   */\n      0x17\n        /* \"#utility.yul\":10028:10031   */\n      dup4\n        /* \"#utility.yul\":9969:10036   */\n      tag_282\n      jump\t// in\n    tag_410:\n        /* \"#utility.yul\":9962:10036   */\n      swap2\n      pop\n        /* \"#utility.yul\":10045:10138   */\n      tag_411\n        /* \"#utility.yul\":10134:10137   */\n      dup3\n        /* \"#utility.yul\":10045:10138   */\n      tag_286\n      jump\t// in\n    tag_411:\n        /* \"#utility.yul\":10163:10165   */\n      0x20\n        /* \"#utility.yul\":10158:10161   */\n      dup3\n        /* \"#utility.yul\":10154:10166   */\n      add\n        /* \"#utility.yul\":10147:10166   */\n      swap1\n      pop\n        /* \"#utility.yul\":9806:10172   */\n      swap2\n      swap1\n      pop\n      jump\t// out\n        /* \"#utility.yul\":10178:10597   */\n    tag_86:\n        /* \"#utility.yul\":10344:10348   */\n      0x00\n        /* \"#utility.yul\":10382:10384   */\n      0x20\n        /* \"#utility.yul\":10371:10380   */\n      dup3\n        /* \"#utility.yul\":10367:10385   */\n      add\n        /* \"#utility.yul\":10359:10385   */\n      swap1\n      pop\n        /* \"#utility.yul\":10431:10440   */\n      dup2\n        /* \"#utility.yul\":10425:10429   */\n      dup2\n        /* \"#utility.yul\":10421:10441   */\n      sub\n        /* \"#utility.yul\":10417:10418   */\n      0x00\n        /* \"#utility.yul\":10406:10415   */\n      dup4\n        /* \"#utility.yul\":10402:10419   */\n      add\n        /* \"#utility.yul\":10395:10442   */\n      mstore\n        /* \"#utility.yul\":10459:10590   */\n      tag_413\n        /* \"#utility.yul\":10585:10589   */\n      dup2\n        /* \"#utility.yul\":10459:10590   */\n      tag_287\n      jump\t// in\n    tag_413:\n        /* \"#utility.yul\":10451:10590   */\n      swap1\n      pop\n        /* \"#utility.yul\":10178:10597   */\n      swap2\n      swap1\n      pop\n      jump\t// out\n        /* \"#utility.yul\":10603:10776   */\n    tag_288:\n        /* \"#utility.yul\":10743:10768   */\n      0x43616e6e6f742066656564206120646561642062697264000000000000000000\n        /* \"#utility.yul\":10739:10740   */\n      0x00\n        /* \"#utility.yul\":10731:10737   */\n      dup3\n        /* \"#utility.yul\":10727:10741   */\n      add\n        /* \"#utility.yul\":10720:10769   */\n      mstore\n        /* \"#utility.yul\":10603:10776   */\n      pop\n      jump\t// out\n        /* \"#utility.yul\":10782:11148   */\n    tag_289:\n        /* \"#utility.yul\":10924:10927   */\n      0x00\n        /* \"#utility.yul\":10945:11012   */\n      tag_416\n        /* \"#utility.yul\":11009:11011   */\n      0x17\n        /* \"#utility.yul\":11004:11007   */\n      dup4\n        /* \"#utility.yul\":10945:11012   */\n      tag_282\n      jump\t// in\n    tag_416:\n        /* \"#utility.yul\":10938:11012   */\n      swap2\n      pop\n        /* \"#utility.yul\":11021:11114   */\n      tag_417\n        /* \"#utility.yul\":11110:11113   */\n      dup3\n        /* \"#utility.yul\":11021:11114   */\n      tag_288\n      jump\t// in\n    tag_417:\n        /* \"#utility.yul\":11139:11141   */\n      0x20\n        /* \"#utility.yul\":11134:11137   */\n      dup3\n        /* \"#utility.yul\":11130:11142   */\n      add\n        /* \"#utility.yul\":11123:11142   */\n      swap1\n      pop\n        /* \"#utility.yul\":10782:11148   */\n      swap2\n      swap1\n      pop\n      jump\t// out\n        /* \"#utility.yul\":11154:11573   */\n    tag_93:\n        /* \"#utility.yul\":11320:11324   */\n      0x00\n        /* \"#utility.yul\":11358:11360   */\n      0x20\n        /* \"#utility.yul\":11347:11356   */\n      dup3\n        /* \"#utility.yul\":11343:11361   */\n      add\n        /* \"#utility.yul\":11335:11361   */\n      swap1\n      pop\n        /* \"#utility.yul\":11407:11416   */\n      dup2\n        /* \"#utility.yul\":11401:11405   */\n      dup2\n        /* \"#utility.yul\":11397:11417   */\n      sub\n        /* \"#utility.yul\":11393:11394   */\n      0x00\n        /* \"#utility.yul\":11382:11391   */\n      dup4\n        /* \"#utility.yul\":11378:11395   */\n      add\n        /* \"#utility.yul\":11371:11418   */\n      mstore\n        /* \"#utility.yul\":11435:11566   */\n      tag_419\n        /* \"#utility.yul\":11561:11565   */\n      dup2\n        /* \"#utility.yul\":11435:11566   */\n      tag_289\n      jump\t// in\n    tag_419:\n        /* \"#utility.yul\":11427:11566   */\n      swap1\n      pop\n        /* \"#utility.yul\":11154:11573   */\n      swap2\n      swap1\n      pop\n      jump\t// out\n        /* \"#utility.yul\":11579:11759   */\n    tag_290:\n        /* \"#utility.yul\":11627:11704   */\n      0x4e487b7100000000000000000000000000000000000000000000000000000000\n        /* \"#utility.yul\":11624:11625   */\n      0x00\n        /* \"#utility.yul\":11617:11705   */\n      mstore\n        /* \"#utility.yul\":11724:11728   */\n      0x11\n        /* \"#utility.yul\":11721:11722   */\n      0x04\n        /* \"#utility.yul\":11714:11729   */\n      mstore\n        /* \"#utility.yul\":11748:11752   */\n      0x24\n        /* \"#utility.yul\":11745:11746   */\n      0x00\n        /* \"#utility.yul\":11738:11753   */\n      revert\n        /* \"#utility.yul\":11765:11959   */\n    tag_96:\n        /* \"#utility.yul\":11805:11809   */\n      0x00\n        /* \"#utility.yul\":11825:11845   */\n      tag_422\n        /* \"#utility.yul\":11843:11844   */\n      dup3\n        /* \"#utility.yul\":11825:11845   */\n      tag_260\n      jump\t// in\n    tag_422:\n        /* \"#utility.yul\":11820:11845   */\n      swap2\n      pop\n        /* \"#utility.yul\":11859:11879   */\n      tag_423\n        /* \"#utility.yul\":11877:11878   */\n      dup4\n        /* \"#utility.yul\":11859:11879   */\n      tag_260\n      jump\t// in\n    tag_423:\n        /* \"#utility.yul\":11854:11879   */\n      swap3\n      pop\n        /* \"#utility.yul\":11903:11904   */\n      dup3\n        /* \"#utility.yul\":11900:11901   */\n      dup3\n        /* \"#utility.yul\":11896:11905   */\n      sub\n        /* \"#utility.yul\":11888:11905   */\n      swap1\n      pop\n        /* \"#utility.yul\":11927:11928   */\n      dup2\n        /* \"#utility.yul\":11921:11925   */\n      dup2\n        /* \"#utility.yul\":11918:11929   */\n      gt\n        /* \"#utility.yul\":11915:11952   */\n      iszero\n      tag_424\n      jumpi\n        /* \"#utility.yul\":11932:11950   */\n      tag_425\n      tag_290\n      jump\t// in\n    tag_425:\n        /* \"#utility.yul\":11915:11952   */\n    tag_424:\n        /* \"#utility.yul\":11765:11959   */\n      swap3\n      swap2\n      pop\n      pop\n      jump\t// out\n        /* \"#utility.yul\":11965:12198   */\n    tag_114:\n        /* \"#utility.yul\":12004:12007   */\n      0x00\n        /* \"#utility.yul\":12027:12051   */\n      tag_427\n        /* \"#utility.yul\":12045:12050   */\n      dup3\n        /* \"#utility.yul\":12027:12051   */\n      tag_260\n      jump\t// in\n    tag_427:\n        /* \"#utility.yul\":12018:12051   */\n      swap2\n      pop\n        /* \"#utility.yul\":12073:12139   */\n      0xffffffffffffffffffffffffffffffffffffffffffffffffffffffffffffffff\n        /* \"#utility.yul\":12066:12071   */\n      dup3\n        /* \"#utility.yul\":12063:12140   */\n      sub\n        /* \"#utility.yul\":12060:12163   */\n      tag_428\n      jumpi\n        /* \"#utility.yul\":12143:12161   */\n      tag_429\n      tag_290\n      jump\t// in\n    tag_429:\n        /* \"#utility.yul\":12060:12163   */\n    tag_428:\n        /* \"#utility.yul\":12190:12191   */\n      0x01\n        /* \"#utility.yul\":12183:12188   */\n      dup3\n        /* \"#utility.yul\":12179:12192   */\n      add\n        /* \"#utility.yul\":12172:12192   */\n      swap1\n      pop\n        /* \"#utility.yul\":11965:12198   */\n      swap2\n      swap1\n      pop\n      jump\t// out\n        /* \"#utility.yul\":12204:12370   */\n    tag_291:\n        /* \"#utility.yul\":12344:12362   */\n      0x5061726b20616c72656164792073657400000000000000000000000000000000\n        /* \"#utility.yul\":12340:12341   */\n      0x00\n        /* \"#utility.yul\":12332:12338   */\n      dup3\n        /* \"#utility.yul\":12328:12342   */\n      add\n        /* \"#utility.yul\":12321:12363   */\n      mstore\n        /* \"#utility.yul\":12204:12370   */\n      pop\n      jump\t// out\n        /* \"#utility.yul\":12376:12742   */\n    tag_292:\n        /* \"#utility.yul\":12518:12521   */\n      0x00\n        /* \"#utility.yul\":12539:12606   */\n      tag_432\n        /* \"#utility.yul\":12603:12605   */\n      0x10\n        /* \"#utility.yul\":12598:12601   */\n      dup4\n        /* \"#utility.yul\":12539:12606   */\n      tag_282\n      jump\t// in\n    tag_432:\n        /* \"#utility.yul\":12532:12606   */\n      swap2\n      pop\n        /* \"#utility.yul\":12615:12708   */\n      tag_433\n        /* \"#utility.yul\":12704:12707   */\n      dup3\n        /* \"#utility.yul\":12615:12708   */\n      tag_291\n      jump\t// in\n    tag_433:\n        /* \"#utility.yul\":12733:12735   */\n      0x20\n        /* \"#utility.yul\":12728:12731   */\n      dup3\n        /* \"#utility.yul\":12724:12736   */\n      add\n        /* \"#utility.yul\":12717:12736   */\n      swap1\n      pop\n        /* \"#utility.yul\":12376:12742   */\n      swap2\n      swap1\n      pop\n      jump\t// out\n        /* \"#utility.yul\":12748:13167   */\n    tag_118:\n        /* \"#utility.yul\":12914:12918   */\n      0x00\n        /* \"#utility.yul\":12952:12954   */\n      0x20\n        /* \"#utility.yul\":12941:12950   */\n      dup3\n        /* \"#utility.yul\":12937:12955   */\n      add\n        /* \"#utility.yul\":12929:12955   */\n      swap1\n      pop\n        /* \"#utility.yul\":13001:13010   */\n      dup2\n        /* \"#utility.yul\":12995:12999   */\n      dup2\n        /* \"#utility.yul\":12991:13011   */\n      sub\n        /* \"#utility.yul\":12987:12988   */\n      0x00\n        /* \"#utility.yul\":12976:12985   */\n      dup4\n        /* \"#utility.yul\":12972:12989   */\n      add\n        /* \"#utility.yul\":12965:13012   */\n      mstore\n        /* \"#utility.yul\":13029:13160   */\n      tag_435\n        /* \"#utility.yul\":13155:13159   */\n      dup2\n        /* \"#utility.yul\":13029:13160   */\n      tag_292\n      jump\t// in\n    tag_435:\n        /* \"#utility.yul\":13021:13160   */\n      swap1\n      pop\n        /* \"#utility.yul\":12748:13167   */\n      swap2\n      swap1\n      pop\n      jump\t// out\n        /* \"#utility.yul\":13173:13331   */\n    tag_293:\n        /* \"#utility.yul\":13313:13323   */\n      0x4e6f742064656164000000000000000000000000000000000000000000000000\n        /* \"#utility.yul\":13309:13310   */\n      0x00\n        /* \"#utility.yul\":13301:13307   */\n      dup3\n        /* \"#utility.yul\":13297:13311   */\n      add\n        /* \"#utility.yul\":13290:13324   */\n      mstore\n        /* \"#utility.yul\":13173:13331   */\n      pop\n      jump\t// out\n        /* \"#utility.yul\":13337:13702   */\n    tag_294:\n        /* \"#utility.yul\":13479:13482   */\n      0x00\n        /* \"#utility.yul\":13500:13566   */\n      tag_438\n        /* \"#utility.yul\":13564:13565   */\n      0x08\n        /* \"#utility.yul\":13559:13562   */\n      dup4\n        /* \"#utility.yul\":13500:13566   */\n      tag_282\n      jump\t// in\n    tag_438:\n        /* \"#utility.yul\":13493:13566   */\n      swap2\n      pop\n        /* \"#utility.yul\":13575:13668   */\n      tag_439\n        /* \"#utility.yul\":13664:13667   */\n      dup3\n        /* \"#utility.yul\":13575:13668   */\n      tag_293\n      jump\t// in\n    tag_439:\n        /* \"#utility.yul\":13693:13695   */\n      0x20\n        /* \"#utility.yul\":13688:13691   */\n      dup3\n        /* \"#utility.yul\":13684:13696   */\n      add\n        /* \"#utility.yul\":13677:13696   */\n      swap1\n      pop\n        /* \"#utility.yul\":13337:13702   */\n      swap2\n      swap1\n      pop\n      jump\t// out\n        /* \"#utility.yul\":13708:14127   */\n    tag_133:\n        /* \"#utility.yul\":13874:13878   */\n      0x00\n        /* \"#utility.yul\":13912:13914   */\n      0x20\n        /* \"#utility.yul\":13901:13910   */\n      dup3\n        /* \"#utility.yul\":13897:13915   */\n      add\n        /* \"#utility.yul\":13889:13915   */\n      swap1\n      pop\n        /* \"#utility.yul\":13961:13970   */\n      dup2\n        /* \"#utility.yul\":13955:13959   */\n      dup2\n        /* \"#utility.yul\":13951:13971   */\n      sub\n        /* \"#utility.yul\":13947:13948   */\n      0x00\n        /* \"#utility.yul\":13936:13945   */\n      dup4\n        /* \"#utility.yul\":13932:13949   */\n      add\n        /* \"#utility.yul\":13925:13972   */\n      mstore\n        /* \"#utility.yul\":13989:14120   */\n      tag_441\n        /* \"#utility.yul\":14115:14119   */\n      dup2\n        /* \"#utility.yul\":13989:14120   */\n      tag_294\n      jump\t// in\n    tag_441:\n        /* \"#utility.yul\":13981:14120   */\n      swap1\n      pop\n        /* \"#utility.yul\":13708:14127   */\n      swap2\n      swap1\n      pop\n      jump\t// out\n        /* \"#utility.yul\":14133:14296   */\n    tag_295:\n        /* \"#utility.yul\":14273:14288   */\n      0x4e6f7420746865206f776e657200000000000000000000000000000000000000\n        /* \"#utility.yul\":14269:14270   */\n      0x00\n        /* \"#utility.yul\":14261:14267   */\n      dup3\n        /* \"#utility.yul\":14257:14271   */\n      add\n        /* \"#utility.yul\":14250:14289   */\n      mstore\n        /* \"#utility.yul\":14133:14296   */\n      pop\n      jump\t// out\n        /* \"#utility.yul\":14302:14668   */\n    tag_296:\n        /* \"#utility.yul\":14444:14447   */\n      0x00\n        /* \"#utility.yul\":14465:14532   */\n      tag_444\n        /* \"#utility.yul\":14529:14531   */\n      0x0d\n        /* \"#utility.yul\":14524:14527   */\n      dup4\n        /* \"#utility.yul\":14465:14532   */\n      tag_282\n      jump\t// in\n    tag_444:\n        /* \"#utility.yul\":14458:14532   */\n      swap2\n      pop\n        /* \"#utility.yul\":14541:14634   */\n      tag_445\n        /* \"#utility.yul\":14630:14633   */\n      dup3\n        /* \"#utility.yul\":14541:14634   */\n      tag_295\n      jump\t// in\n    tag_445:\n        /* \"#utility.yul\":14659:14661   */\n      0x20\n        /* \"#utility.yul\":14654:14657   */\n      dup3\n        /* \"#utility.yul\":14650:14662   */\n      add\n        /* \"#utility.yul\":14643:14662   */\n      swap1\n      pop\n        /* \"#utility.yul\":14302:14668   */\n      swap2\n      swap1\n      pop\n      jump\t// out\n        /* \"#utility.yul\":14674:15093   */\n    tag_141:\n        /* \"#utility.yul\":14840:14844   */\n      0x00\n        /* \"#utility.yul\":14878:14880   */\n      0x20\n        /* \"#utility.yul\":14867:14876   */\n      dup3\n        /* \"#utility.yul\":14863:14881   */\n      add\n        /* \"#utility.yul\":14855:14881   */\n      swap1\n      pop\n        /* \"#utility.yul\":14927:14936   */\n      dup2\n        /* \"#utility.yul\":14921:14925   */\n      dup2\n        /* \"#utility.yul\":14917:14937   */\n      sub\n        /* \"#utility.yul\":14913:14914   */\n      0x00\n        /* \"#utility.yul\":14902:14911   */\n      dup4\n        /* \"#utility.yul\":14898:14915   */\n      add\n        /* \"#utility.yul\":14891:14938   */\n      mstore\n        /* \"#utility.yul\":14955:15086   */\n      tag_447\n        /* \"#utility.yul\":15081:15085   */\n      dup2\n        /* \"#utility.yul\":14955:15086   */\n      tag_296\n      jump\t// in\n    tag_447:\n        /* \"#utility.yul\":14947:15086   */\n      swap1\n      pop\n        /* \"#utility.yul\":14674:15093   */\n      swap2\n      swap1\n      pop\n      jump\t// out\n        /* \"#utility.yul\":15099:15264   */\n    tag_297:\n        /* \"#utility.yul\":15239:15256   */\n      0x496e76616c696420616464726573730000000000000000000000000000000000\n        /* \"#utility.yul\":15235:15236   */\n      0x00\n        /* \"#utility.yul\":15227:15233   */\n      dup3\n        /* \"#utility.yul\":15223:15237   */\n      add\n        /* \"#utility.yul\":15216:15257   */\n      mstore\n        /* \"#utility.yul\":15099:15264   */\n      pop\n      jump\t// out\n        /* \"#utility.yul\":15270:15636   */\n    tag_298:\n        /* \"#utility.yul\":15412:15415   */\n      0x00\n        /* \"#utility.yul\":15433:15500   */\n      tag_450\n        /* \"#utility.yul\":15497:15499   */\n      0x0f\n        /* \"#utility.yul\":15492:15495   */\n      dup4\n        /* \"#utility.yul\":15433:15500   */\n      tag_282\n      jump\t// in\n    tag_450:\n        /* \"#utility.yul\":15426:15500   */\n      swap2\n      pop\n        /* \"#utility.yul\":15509:15602   */\n      tag_451\n        /* \"#utility.yul\":15598:15601   */\n      dup3\n        /* \"#utility.yul\":15509:15602   */\n      tag_297\n      jump\t// in\n    tag_451:\n        /* \"#utility.yul\":15627:15629   */\n      0x20\n        /* \"#utility.yul\":15622:15625   */\n      dup3\n        /* \"#utility.yul\":15618:15630   */\n      add\n        /* \"#utility.yul\":15611:15630   */\n      swap1\n      pop\n        /* \"#utility.yul\":15270:15636   */\n      swap2\n      swap1\n      pop\n      jump\t// out\n        /* \"#utility.yul\":15642:16061   */\n    tag_144:\n        /* \"#utility.yul\":15808:15812   */\n      0x00\n        /* \"#utility.yul\":15846:15848   */\n      0x20\n        /* \"#utility.yul\":15835:15844   */\n      dup3\n        /* \"#utility.yul\":15831:15849   */\n      add\n        /* \"#utility.yul\":15823:15849   */\n      swap1\n      pop\n        /* \"#utility.yul\":15895:15904   */\n      dup2\n        /* \"#utility.yul\":15889:15893   */\n      dup2\n        /* \"#utility.yul\":15885:15905   */\n      sub\n        /* \"#utility.yul\":15881:15882   */\n      0x00\n        /* \"#utility.yul\":15870:15879   */\n      dup4\n        /* \"#utility.yul\":15866:15883   */\n      add\n        /* \"#utility.yul\":15859:15906   */\n      mstore\n        /* \"#utility.yul\":15923:16054   */\n      tag_453\n        /* \"#utility.yul\":16049:16053   */\n      dup2\n        /* \"#utility.yul\":15923:16054   */\n      tag_298\n      jump\t// in\n    tag_453:\n        /* \"#utility.yul\":15915:16054   */\n      swap1\n      pop\n        /* \"#utility.yul\":15642:16061   */\n      swap2\n      swap1\n      pop\n      jump\t// out\n        /* \"#utility.yul\":16067:16477   */\n    tag_151:\n        /* \"#utility.yul\":16107:16114   */\n      0x00\n        /* \"#utility.yul\":16130:16150   */\n      tag_455\n        /* \"#utility.yul\":16148:16149   */\n      dup3\n        /* \"#utility.yul\":16130:16150   */\n      tag_260\n      jump\t// in\n    tag_455:\n        /* \"#utility.yul\":16125:16150   */\n      swap2\n      pop\n        /* \"#utility.yul\":16164:16184   */\n      tag_456\n        /* \"#utility.yul\":16182:16183   */\n      dup4\n        /* \"#utility.yul\":16164:16184   */\n      tag_260\n      jump\t// in\n    tag_456:\n        /* \"#utility.yul\":16159:16184   */\n      swap3\n      pop\n        /* \"#utility.yul\":16219:16220   */\n      dup3\n        /* \"#utility.yul\":16216:16217   */\n      dup3\n        /* \"#utility.yul\":16212:16221   */\n      mul\n        /* \"#utility.yul\":16241:16271   */\n      tag_457\n        /* \"#utility.yul\":16259:16270   */\n      dup2\n        /* \"#utility.yul\":16241:16271   */\n      tag_260\n      jump\t// in\n    tag_457:\n        /* \"#utility.yul\":16230:16271   */\n      swap2\n      pop\n        /* \"#utility.yul\":16420:16421   */\n      dup3\n        /* \"#utility.yul\":16411:16418   */\n      dup3\n        /* \"#utility.yul\":16407:16422   */\n      div\n        /* \"#utility.yul\":16404:16405   */\n      dup5\n        /* \"#utility.yul\":16401:16423   */\n      eq\n        /* \"#utility.yul\":16381:16382   */\n      dup4\n        /* \"#utility.yul\":16374:16383   */\n      iszero\n        /* \"#utility.yul\":16354:16437   */\n      or\n        /* \"#utility.yul\":16331:16470   */\n      tag_458\n      jumpi\n        /* \"#utility.yul\":16450:16468   */\n      tag_459\n      tag_290\n      jump\t// in\n    tag_459:\n        /* \"#utility.yul\":16331:16470   */\n    tag_458:\n        /* \"#utility.yul\":16115:16477   */\n      pop\n        /* \"#utility.yul\":16067:16477   */\n      swap3\n      swap2\n      pop\n      pop\n      jump\t// out\n        /* \"#utility.yul\":16483:16663   */\n    tag_299:\n        /* \"#utility.yul\":16531:16608   */\n      0x4e487b7100000000000000000000000000000000000000000000000000000000\n        /* \"#utility.yul\":16528:16529   */\n      0x00\n        /* \"#utility.yul\":16521:16609   */\n      mstore\n        /* \"#utility.yul\":16628:16632   */\n      0x12\n        /* \"#utility.yul\":16625:16626   */\n      0x04\n        /* \"#utility.yul\":16618:16633   */\n      mstore\n        /* \"#utility.yul\":16652:16656   */\n      0x24\n        /* \"#utility.yul\":16649:16650   */\n      0x00\n        /* \"#utility.yul\":16642:16657   */\n      revert\n        /* \"#utility.yul\":16669:16854   */\n    tag_153:\n        /* \"#utility.yul\":16709:16710   */\n      0x00\n        /* \"#utility.yul\":16726:16746   */\n      tag_462\n        /* \"#utility.yul\":16744:16745   */\n      dup3\n        /* \"#utility.yul\":16726:16746   */\n      tag_260\n      jump\t// in\n    tag_462:\n        /* \"#utility.yul\":16721:16746   */\n      swap2\n      pop\n        /* \"#utility.yul\":16760:16780   */\n      tag_463\n        /* \"#utility.yul\":16778:16779   */\n      dup4\n        /* \"#utility.yul\":16760:16780   */\n      tag_260\n      jump\t// in\n    tag_463:\n        /* \"#utility.yul\":16755:16780   */\n      swap3\n      pop\n        /* \"#utility.yul\":16799:16800   */\n      dup3\n        /* \"#utility.yul\":16789:16824   */\n      tag_464\n      jumpi\n        /* \"#utility.yul\":16804:16822   */\n      tag_465\n      tag_299\n      jump\t// in\n    tag_465:\n        /* \"#utility.yul\":16789:16824   */\n    tag_464:\n        /* \"#utility.yul\":16846:16847   */\n      dup3\n        /* \"#utility.yul\":16843:16844   */\n      dup3\n        /* \"#utility.yul\":16839:16848   */\n      div\n        /* \"#utility.yul\":16834:16848   */\n      swap1\n      pop\n        /* \"#utility.yul\":16669:16854   */\n      swap3\n      swap2\n      pop\n      pop\n      jump\t// out\n        /* \"#utility.yul\":16860:17051   */\n    tag_155:\n        /* \"#utility.yul\":16900:16903   */\n      0x00\n        /* \"#utility.yul\":16919:16939   */\n      tag_467\n        /* \"#utility.yul\":16937:16938   */\n      dup3\n        /* \"#utility.yul\":16919:16939   */\n      tag_260\n      jump\t// in\n    tag_467:\n        /* \"#utility.yul\":16914:16939   */\n      swap2\n      pop\n        /* \"#utility.yul\":16953:16973   */\n      tag_468\n        /* \"#utility.yul\":16971:16972   */\n      dup4\n        /* \"#utility.yul\":16953:16973   */\n      tag_260\n      jump\t// in\n    tag_468:\n        /* \"#utility.yul\":16948:16973   */\n      swap3\n      pop\n        /* \"#utility.yul\":16996:16997   */\n      dup3\n        /* \"#utility.yul\":16993:16994   */\n      dup3\n        /* \"#utility.yul\":16989:16998   */\n      add\n        /* \"#utility.yul\":16982:16998   */\n      swap1\n      pop\n        /* \"#utility.yul\":17017:17020   */\n      dup1\n        /* \"#utility.yul\":17014:17015   */\n      dup3\n        /* \"#utility.yul\":17011:17021   */\n      gt\n        /* \"#utility.yul\":17008:17044   */\n      iszero\n      tag_469\n      jumpi\n        /* \"#utility.yul\":17024:17042   */\n      tag_470\n      tag_290\n      jump\t// in\n    tag_470:\n        /* \"#utility.yul\":17008:17044   */\n    tag_469:\n        /* \"#utility.yul\":16860:17051   */\n      swap3\n      swap2\n      pop\n      pop\n      jump\t// out\n        /* \"#utility.yul\":17057:17284   */\n    tag_300:\n        /* \"#utility.yul\":17197:17231   */\n      0x43616e6e6f74206865616c2061206465616420626972643b2072657669766520\n        /* \"#utility.yul\":17193:17194   */\n      0x00\n        /* \"#utility.yul\":17185:17191   */\n      dup3\n        /* \"#utility.yul\":17181:17195   */\n      add\n        /* \"#utility.yul\":17174:17232   */\n      mstore\n        /* \"#utility.yul\":17266:17276   */\n      0x6974206669727374000000000000000000000000000000000000000000000000\n        /* \"#utility.yul\":17261:17263   */\n      0x20\n        /* \"#utility.yul\":17253:17259   */\n      dup3\n        /* \"#utility.yul\":17249:17264   */\n      add\n        /* \"#utility.yul\":17242:17277   */\n      mstore\n        /* \"#utility.yul\":17057:17284   */\n      pop\n      jump\t// out\n        /* \"#utility.yul\":17290:17656   */\n    tag_301:\n        /* \"#utility.yul\":17432:17435   */\n      0x00\n        /* \"#utility.yul\":17453:17520   */\n      tag_473\n        /* \"#utility.yul\":17517:17519   */\n      0x28\n        /* \"#utility.yul\":17512:17515   */\n      dup4\n        /* \"#utility.yul\":17453:17520   */\n      tag_282\n      jump\t// in\n    tag_473:\n        /* \"#utility.yul\":17446:17520   */\n      swap2\n      pop\n        /* \"#utility.yul\":17529:17622   */\n      tag_474\n        /* \"#utility.yul\":17618:17621   */\n      dup3\n        /* \"#utility.yul\":17529:17622   */\n      tag_300\n      jump\t// in\n    tag_474:\n        /* \"#utility.yul\":17647:17649   */\n      0x40\n        /* \"#utility.yul\":17642:17645   */\n      dup3\n        /* \"#utility.yul\":17638:17650   */\n      add\n        /* \"#utility.yul\":17631:17650   */\n      swap1\n      pop\n        /* \"#utility.yul\":17290:17656   */\n      swap2\n      swap1\n      pop\n      jump\t// out\n        /* \"#utility.yul\":17662:18081   */\n    tag_170:\n        /* \"#utility.yul\":17828:17832   */\n      0x00\n        /* \"#utility.yul\":17866:17868   */\n      0x20\n        /* \"#utility.yul\":17855:17864   */\n      dup3\n        /* \"#utility.yul\":17851:17869   */\n      add\n        /* \"#utility.yul\":17843:17869   */\n      swap1\n      pop\n        /* \"#utility.yul\":17915:17924   */\n      dup2\n        /* \"#utility.yul\":17909:17913   */\n      dup2\n        /* \"#utility.yul\":17905:17925   */\n      sub\n        /* \"#utility.yul\":17901:17902   */\n      0x00\n        /* \"#utility.yul\":17890:17899   */\n      dup4\n        /* \"#utility.yul\":17886:17903   */\n      add\n        /* \"#utility.yul\":17879:17926   */\n      mstore\n        /* \"#utility.yul\":17943:18074   */\n      tag_476\n        /* \"#utility.yul\":18069:18073   */\n      dup2\n        /* \"#utility.yul\":17943:18074   */\n      tag_301\n      jump\t// in\n    tag_476:\n        /* \"#utility.yul\":17935:18074   */\n      swap1\n      pop\n        /* \"#utility.yul\":17662:18081   */\n      swap2\n      swap1\n      pop\n      jump\t// out\n        /* \"#utility.yul\":18087:18166   */\n    tag_302:\n        /* \"#utility.yul\":18126:18133   */\n      0x00\n        /* \"#utility.yul\":18155:18160   */\n      dup2\n        /* \"#utility.yul\":18144:18160   */\n      swap1\n      pop\n        /* \"#utility.yul\":18087:18166   */\n      swap2\n      swap1\n      pop\n      jump\t// out\n        /* \"#utility.yul\":18172:18329   */\n    tag_303:\n        /* \"#utility.yul\":18277:18322   */\n      tag_479\n        /* \"#utility.yul\":18297:18321   */\n      tag_480\n        /* \"#utility.yul\":18315:18320   */\n      dup3\n        /* \"#utility.yul\":18297:18321   */\n      tag_260\n      jump\t// in\n    tag_480:\n        /* \"#utility.yul\":18277:18322   */\n      tag_302\n      jump\t// in\n    tag_479:\n        /* \"#utility.yul\":18272:18275   */\n      dup3\n        /* \"#utility.yul\":18265:18323   */\n      mstore\n        /* \"#utility.yul\":18172:18329   */\n      pop\n      pop\n      jump\t// out\n        /* \"#utility.yul\":18335:18732   */\n    tag_181:\n        /* \"#utility.yul\":18475:18478   */\n      0x00\n        /* \"#utility.yul\":18490:18565   */\n      tag_482\n        /* \"#utility.yul\":18561:18564   */\n      dup3\n        /* \"#utility.yul\":18552:18558   */\n      dup6\n        /* \"#utility.yul\":18490:18565   */\n      tag_303\n      jump\t// in\n    tag_482:\n        /* \"#utility.yul\":18590:18592   */\n      0x20\n        /* \"#utility.yul\":18585:18588   */\n      dup3\n        /* \"#utility.yul\":18581:18593   */\n      add\n        /* \"#utility.yul\":18574:18593   */\n      swap2\n      pop\n        /* \"#utility.yul\":18603:18678   */\n      tag_483\n        /* \"#utility.yul\":18674:18677   */\n      dup3\n        /* \"#utility.yul\":18665:18671   */\n      dup5\n        /* \"#utility.yul\":18603:18678   */\n      tag_303\n      jump\t// in\n    tag_483:\n        /* \"#utility.yul\":18703:18705   */\n      0x20\n        /* \"#utility.yul\":18698:18701   */\n      dup3\n        /* \"#utility.yul\":18694:18706   */\n      add\n        /* \"#utility.yul\":18687:18706   */\n      swap2\n      pop\n        /* \"#utility.yul\":18723:18726   */\n      dup2\n        /* \"#utility.yul\":18716:18726   */\n      swap1\n      pop\n        /* \"#utility.yul\":18335:18732   */\n      swap4\n      swap3\n      pop\n      pop\n      pop\n      jump\t// out\n        /* \"#utility.yul\":18738:18914   */\n    tag_183:\n        /* \"#utility.yul\":18770:18771   */\n      0x00\n        /* \"#utility.yul\":18787:18807   */\n      tag_485\n        /* \"#utility.yul\":18805:18806   */\n      dup3\n        /* \"#utility.yul\":18787:18807   */\n      tag_260\n      jump\t// in\n    tag_485:\n        /* \"#utility.yul\":18782:18807   */\n      swap2\n      pop\n        /* \"#utility.yul\":18821:18841   */\n      tag_486\n        /* \"#utility.yul\":18839:18840   */\n      dup4\n        /* \"#utility.yul\":18821:18841   */\n      tag_260\n      jump\t// in\n    tag_486:\n        /* \"#utility.yul\":18816:18841   */\n      swap3\n      pop\n        /* \"#utility.yul\":18860:18861   */\n      dup3\n        /* \"#utility.yul\":18850:18885   */\n      tag_487\n      jumpi\n        /* \"#utility.yul\":18865:18883   */\n      tag_488\n      tag_299\n      jump\t// in\n    tag_488:\n        /* \"#utility.yul\":18850:18885   */\n    tag_487:\n        /* \"#utility.yul\":18906:18907   */\n      dup3\n        /* \"#utility.yul\":18903:18904   */\n      dup3\n        /* \"#utility.yul\":18899:18908   */\n      mod\n        /* \"#utility.yul\":18894:18908   */\n      swap1\n      pop\n        /* \"#utility.yul\":18738:18914   */\n      swap3\n      swap2\n      pop\n      pop\n      jump\t// out\n        /* \"#utility.yul\":18920:19085   */\n    tag_304:\n        /* \"#utility.yul\":19060:19077   */\n      0x556e6b6e6f776e20737065636965730000000000000000000000000000000000\n        /* \"#utility.yul\":19056:19057   */\n      0x00\n        /* \"#utility.yul\":19048:19054   */\n      dup3\n        /* \"#utility.yul\":19044:19058   */\n      add\n        /* \"#utility.yul\":19037:19078   */\n      mstore\n        /* \"#utility.yul\":18920:19085   */\n      pop\n      jump\t// out\n        /* \"#utility.yul\":19091:19457   */\n    tag_305:\n        /* \"#utility.yul\":19233:19236   */\n      0x00\n        /* \"#utility.yul\":19254:19321   */\n      tag_491\n        /* \"#utility.yul\":19318:19320   */\n      0x0f\n        /* \"#utility.yul\":19313:19316   */\n      dup4\n        /* \"#utility.yul\":19254:19321   */\n      tag_282\n      jump\t// in\n    tag_491:\n        /* \"#utility.yul\":19247:19321   */\n      swap2\n      pop\n        /* \"#utility.yul\":19330:19423   */\n      tag_492\n        /* \"#utility.yul\":19419:19422   */\n      dup3\n        /* \"#utility.yul\":19330:19423   */\n      tag_304\n      jump\t// in\n    tag_492:\n        /* \"#utility.yul\":19448:19450   */\n      0x20\n        /* \"#utility.yul\":19443:19446   */\n      dup3\n        /* \"#utility.yul\":19439:19451   */\n      add\n        /* \"#utility.yul\":19432:19451   */\n      swap1\n      pop\n        /* \"#utility.yul\":19091:19457   */\n      swap2\n      swap1\n      pop\n      jump\t// out\n        /* \"#utility.yul\":19463:19882   */\n    tag_254:\n        /* \"#utility.yul\":19629:19633   */\n      0x00\n        /* \"#utility.yul\":19667:19669   */\n      0x20\n        /* \"#utility.yul\":19656:19665   */\n      dup3\n        /* \"#utility.yul\":19652:19670   */\n      add\n        /* \"#utility.yul\":19644:19670   */\n      swap1\n      pop\n        /* \"#utility.yul\":19716:19725   */\n      dup2\n        /* \"#utility.yul\":19710:19714   */\n      dup2\n        /* \"#utility.yul\":19706:19726   */\n      sub\n        /* \"#utility.yul\":19702:19703   */\n      0x00\n        /* \"#utility.yul\":19691:19700   */\n      dup4\n        /* \"#utility.yul\":19687:19704   */\n      add\n        /* \"#utility.yul\":19680:19727   */\n      mstore\n        /* \"#utility.yul\":19744:19875   */\n      tag_494\n        /* \"#utility.yul\":19870:19874   */\n      dup2\n        /* \"#utility.yul\":19744:19875   */\n      tag_305\n      jump\t// in\n    tag_494:\n        /* \"#utility.yul\":19736:19875   */\n      swap1\n      pop\n        /* \"#utility.yul\":19463:19882   */\n      swap2\n      swap1\n      pop\n      jump\t// out\n    stop\n    data_06b72c80ee2ecbcbf44477b5df17c9ca845658c2f59600eacfa2a1e2c77fc0c0 68747470733a2f2f676174657761792e70696e6174612e636c6f75642f697066732f6261666b72656964336d64796d7a736a7475646d35367a726f766974786f757667736a627a7a6b7961727371377432693262697779673672687471\n    data_1ffc5c99f8ff866cb3cb9bd46d45453badb8f26649052a31a9be49b9b43149da 68747470733a2f2f676174657761792e70696e6174612e636c6f75642f697066732f6261667962656961336c65346173746b6e683270346d626b64357734326a353232746e73653477786b3777356d3777696d6f716470366f757a7079\n    data_3aaee52e591491d0c37d609e70d05ae7f1f2d7910d54c05cb9fcdcf49c54ca0d 68747470733a2f2f676174657761792e70696e6174612e636c6f75642f697066732f6261667962656966786e71727070336166616a6e74726e7779796e75326c63727a766d646d737468776162367832776e323377636e62646a6e366d\n    data_3bbf1c81af77207dbf9db8f891697113273de930322fc10149aebcb2d416dad6 68747470733a2f2f676174657761792e70696e6174612e636c6f75642f697066732f626166796265696576377075637a377968377836686169646d7068703569656f6276636664636c6e6c776a71613269767334793335377076776d61\n    data_4bffd64c369afa296df94915c3530d23c4bb62ed5947a16d0436ecf77d5e47b7 68747470733a2f2f676174657761792e70696e6174612e636c6f75642f697066732f626166796265696670616a6269766868656d6a65666769616d6e7668376f6532376c657874716a376167707a6e63687165756a636e343669356361\n    data_4de8576ed651b45ee8b8de37ab230acfe5a77f3bcefa3b601e95aeedc205cf9f 68747470733a2f2f676174657761792e70696e6174612e636c6f75642f697066732f6261666b7265696636656e6f32716a6a337863376d6562716c327336366f6c36797872777837677761767a3434716e32646c7a33636e7737663234\n    data_7b2fdb6759a9cafb5eeb6df22876dcecec368957dc7b6a1b5455e59a53ccd8b3 68747470733a2f2f676174657761792e70696e6174612e636c6f75642f697066732f62616679626569626364707a707967366d716165326f676f7775756d796d716d7178623275736e697537356765656a347074723436376f74326e6d\n    data_86e92b1a76e2f297d69c89af4232d1b3e647fd322843457f38b762c99d8ee708 68747470733a2f2f676174657761792e70696e6174612e636c6f75642f697066732f62616679626569676f686f746f6b366b336f6e76746a797970666e626e7a6263736f327163697862777a34776836347670326e336c71376e6b7361\n    data_9935abd004c219a89d3fd74f576ad80b96c6baa47d216c49a0c7e2425bfa795d 68747470733a2f2f676174657761792e70696e6174612e636c6f75642f697066732f6261666b7265696461346170737078746e706236336f71797a763374696e356f776334356c6763746b6471763734686a6173346679746f6f6b7461\n    data_b8dd308e09aa92114d02e95d8f8ec31b44f463debae17577b531822d02a7acf8 68747470733a2f2f676174657761792e70696e6174612e636c6f75642f697066732f6261666b7265696832666d78753361797363723778657a3275326173686177696663336f6a34716132366a35366368343676657a377a7961656a34\n    data_bf1e0c883d5045b15993c31eb358768c2346e70fb0546c814a2e5325206e2434 68747470733a2f2f676174657761792e70696e6174612e636c6f75642f697066732f626166796265696574626635716f7372796271676b7132636434637a76363664777736737434776a35786c6f7a6534656e6232643578796a36706d\n\n    auxdata: 0xa26469706673582212204db3ce81fdff2f614bb7446e8eaa8973618f4ab94e291ce552fc07099e007c6e64736f6c634300081e0033\n}\n",
				"bytecode": {
					"linkReferences": {},
					"object": "608060405234801561000f575f5ffd5b50604051612524380380612524833981810160405281019061003191906100d5565b8060025f6101000a81548173ffffffffffffffffffffffffffffffffffffffff021916908373ffffffffffffffffffffffffffffffffffffffff16021790555050610100565b5f5ffd5b5f73ffffffffffffffffffffffffffffffffffffffff82169050919050565b5f6100a48261007b565b9050919050565b6100b48161009a565b81146100be575f5ffd5b50565b5f815190506100cf816100ab565b92915050565b5f602082840312156100ea576100e9610077565b5b5f6100f7848285016100c1565b91505092915050565b6124178061010d5f395ff3fe608060405234801561000f575f5ffd5b50600436106100f3575f3560e01c80636ec88bbd11610095578063a2b7ce6f11610064578063a2b7ce6f1461027f578063bff998f41461029b578063ec1c5955146102b7578063f64ff064146102ed576100f3565b80636ec88bbd146101f957806372680a77146102295780638baecc21146102475780638c652f9514610263576100f3565b80634d2d7881116100d15780634d2d78811461015f5780634e9c7df81461018f57806361b8ce8c146101ab5780636352211e146101c9576100f3565b806316cb4a05146100f75780631942d1991461012757806349b1a0bf14610143575b5f5ffd5b610111600480360381019061010c919061164a565b61031d565b60405161011e919061168f565b60405180910390f35b610141600480360381019061013c91906116a8565b61033a565b005b61015d6004803603810190610158919061164a565b610478565b005b61017960048036038101906101749190611709565b610533565b6040516101869190611743565b60405180910390f35b6101a960048036038101906101a491906117b6565b610724565b005b6101b36107f6565b6040516101c09190611743565b60405180910390f35b6101e360048036038101906101de919061164a565b6107fc565b6040516101f091906117f0565b60405180910390f35b610213600480360381019061020e919061164a565b61082c565b6040516102209190611926565b60405180910390f35b6102316108e4565b60405161023e91906117f0565b60405180910390f35b610261600480360381019061025c919061164a565b610909565b005b61027d6004803603810190610278919061193f565b610a59565b005b6102996004803603810190610294919061164a565b610c47565b005b6102b560048036038101906102b0919061164a565b610dbd565b005b6102d160048036038101906102cc919061164a565b610ed8565b6040516102e4979695949392919061198c565b60405180910390f35b6103076004803603810190610302919061164a565b610f2d565b6040516103149190611a69565b60405180910390f35b6003602052805f5260405f205f915054906101000a900460ff1681565b60025f9054906101000a900473ffffffffffffffffffffffffffffffffffffffff1673ffffffffffffffffffffffffffffffffffffffff163373ffffffffffffffffffffffffffffffffffffffff16146103c9576040517f08c379a00000000000000000000000000000000000000000000000000000000081526004016103c090611ad3565b60405180910390fd5b6103d282610c47565b5f5f5f8481526020019081526020015f2090506103ee83610f67565b806005015f9054906101000a900460ff161561043f576040517f08c379a000000000000000000000000000000000000000000000000000000000815260040161043690611b3b565b60405180910390fd5b818160010154106104695781816001015f82825461045d9190611b86565b92505081905550610473565b5f81600101819055505b505050565b60025f9054906101000a900473ffffffffffffffffffffffffffffffffffffffff1673ffffffffffffffffffffffffffffffffffffffff163373ffffffffffffffffffffffffffffffffffffffff1614610507576040517f08c379a00000000000000000000000000000000000000000000000000000000081526004016104fe90611ad3565b60405180910390fd5b600160035f8381526020019081526020015f205f6101000a81548160ff02191690831515021790555050565b5f60025f9054906101000a900473ffffffffffffffffffffffffffffffffffffffff1673ffffffffffffffffffffffffffffffffffffffff163373ffffffffffffffffffffffffffffffffffffffff16146105c3576040517f08c379a00000000000000000000000000000000000000000000000000000000081526004016105ba90611ad3565b60405180910390fd5b5f6105cd83611045565b90506040518060e001604052805f81526020015f8152602001825f0151815260200184600a81111561060257610601611818565b5b81526020014281526020015f151581526020015f8152505f5f60015481526020019081526020015f205f820151815f015560208201518160010155604082015181600201556060820151816003015f6101000a81548160ff0219169083600a81111561067157610670611818565b5b02179055506080820151816004015560a0820151816005015f6101000a81548160ff02191690831515021790555060c082015181600601559050503260045f60015481526020019081526020015f205f6101000a81548173ffffffffffffffffffffffffffffffffffffffff021916908373ffffffffffffffffffffffffffffffffffffffff1602179055505f600154905060015f81548092919061071590611bb9565b91905055508092505050919050565b5f73ffffffffffffffffffffffffffffffffffffffff1660025f9054906101000a900473ffffffffffffffffffffffffffffffffffffffff1673ffffffffffffffffffffffffffffffffffffffff16146107b3576040517f08c379a00000000000000000000000000000000000000000000000000000000081526004016107aa90611c4a565b60405180910390fd5b8060025f6101000a81548173ffffffffffffffffffffffffffffffffffffffff021916908373ffffffffffffffffffffffffffffffffffffffff16021790555050565b60015481565b6004602052805f5260405f205f915054906101000a900473ffffffffffffffffffffffffffffffffffffffff1681565b61083461159e565b61083d82610c47565b5f5f8381526020019081526020015f206040518060e00160405290815f82015481526020016001820154815260200160028201548152602001600382015f9054906101000a900460ff16600a81111561089957610898611818565b5b600a8111156108ab576108aa611818565b5b815260200160048201548152602001600582015f9054906101000a900460ff161515151581526020016006820154815250509050919050565b60025f9054906101000a900473ffffffffffffffffffffffffffffffffffffffff1681565b60025f9054906101000a900473ffffffffffffffffffffffffffffffffffffffff1673ffffffffffffffffffffffffffffffffffffffff163373ffffffffffffffffffffffffffffffffffffffff1614610998576040517f08c379a000000000000000000000000000000000000000000000000000000000815260040161098f90611ad3565b60405180910390fd5b5f5f5f8381526020019081526020015f209050806005015f9054906101000a900460ff166109fb576040517f08c379a00000000000000000000000000000000000000000000000000000000081526004016109f290611cb2565b60405180910390fd5b610a14816003015f9054906101000a900460ff16611045565b5f015181600201819055505f81600101819055505f816005015f6101000a81548160ff0219169083151502179055505f81600601819055504281600401819055505050565b60025f9054906101000a900473ffffffffffffffffffffffffffffffffffffffff1673ffffffffffffffffffffffffffffffffffffffff163373ffffffffffffffffffffffffffffffffffffffff1614610ae8576040517f08c379a0000000000000000000000000000000000000000000000000000000008152600401610adf90611ad3565b60405180910390fd5b3273ffffffffffffffffffffffffffffffffffffffff1660045f8481526020019081526020015f205f9054906101000a900473ffffffffffffffffffffffffffffffffffffffff1673ffffffffffffffffffffffffffffffffffffffff1614610b86576040517f08c379a0000000000000000000000000000000000000000000000000000000008152600401610b7d90611d1a565b60405180910390fd5b5f73ffffffffffffffffffffffffffffffffffffffff168173ffffffffffffffffffffffffffffffffffffffff1603610bf4576040517f08c379a0000000000000000000000000000000000000000000000000000000008152600401610beb90611d82565b60405180910390fd5b8060045f8481526020019081526020015f205f6101000a81548173ffffffffffffffffffffffffffffffffffffffff021916908373ffffffffffffffffffffffffffffffffffffffff1602179055505050565b5f5f5f8381526020019081526020015f209050806005015f9054906101000a900460ff1615610c765750610dba565b5f816004015442610c879190611b86565b90505f811115610db7575f610cab836003015f9054906101000a900460ff16611045565b90505f610e10826040015184610cc19190611da0565b610ccb9190611e0e565b905080846001015f828254610ce09190611e3e565b92505081905550816020015184600101541115610d76575f82602001518560010154610d0c9190611b86565b90508260200151856001018190555080856002015411610d59575f85600201819055506001856005015f6101000a81548160ff021916908315150217905550428560060181905550610d74565b80856002015f828254610d6c9190611b86565b925050819055505b505b5f6201518084610d869190611e0e565b90505f811115610daa5780855f015f828254610da29190611e3e565b925050819055505b4285600401819055505050505b50505b50565b60025f9054906101000a900473ffffffffffffffffffffffffffffffffffffffff1673ffffffffffffffffffffffffffffffffffffffff163373ffffffffffffffffffffffffffffffffffffffff1614610e4c576040517f08c379a0000000000000000000000000000000000000000000000000000000008152600401610e4390611ad3565b60405180910390fd5b5f5f5f8381526020019081526020015f209050806005015f9054906101000a900460ff1615610eb0576040517f08c379a0000000000000000000000000000000000000000000000000000000008152600401610ea790611ee1565b60405180910390fd5b610ec9816003015f9054906101000a900460ff16611045565b5f015181600201819055505050565b5f602052805f5260405f205f91509050805f015490806001015490806002015490806003015f9054906101000a900460ff1690806004015490806005015f9054906101000a900460ff16908060060154905087565b60605f5f5f8481526020019081526020015f209050610f5b816003015f9054906101000a900460ff16611045565b60800151915050919050565b610f6f6115e8565b5f5f5f8481526020019081526020015f209050610f9b816003015f9054906101000a900460ff16611045565b915060035f8481526020019081526020015f205f9054906101000a900460ff16611040575f610fd9826003015f9054906101000a900460ff16611045565b6060015190505f60644286604051602001610ff5929190611f1f565b604051602081830303815290604052805190602001205f1c6110179190611f4a565b90508181101561103d576019836002015f8282546110359190611b86565b925050819055505b50505b505050565b61104d6115e8565b5f600a8111156110605761105f611818565b5b82600a81111561107357611072611818565b5b036110c2576040518060a0016040528060c881526020016096815260200160038152602001600181526020016040518060800160405280605d8152602001612040605d91398152509050611599565b6001600a8111156110d6576110d5611818565b5b82600a8111156110e9576110e8611818565b5b03611138576040518060a0016040528060dc815260200160c8815260200160028152602001600581526020016040518060800160405280605d815260200161226e605d91398152509050611599565b6002600a81111561114c5761114b611818565b5b82600a81111561115f5761115e611818565b5b036111ae576040518060a00160405280605081526020016050815260200160038152602001600681526020016040518060800160405280605d81526020016120fa605d91398152509050611599565b600a808111156111c1576111c0611818565b5b82600a8111156111d4576111d3611818565b5b03611224576040518060a0016040528061012c815260200161012c8152602001600181526020015f81526020016040518060800160405280605d8152602001612385605d91398152509050611599565b6003600a81111561123857611237611818565b5b82600a81111561124b5761124a611818565b5b0361129a576040518060a0016040528060b48152602001605a815260200160028152602001600481526020016040518060800160405280605d815260200161209d605d91398152509050611599565b6004600a8111156112ae576112ad611818565b5b82600a8111156112c1576112c0611818565b5b03611310576040518060a00160405280605081526020016046815260200160028152602001600881526020016040518060800160405280605d8152602001612211605d91398152509050611599565b6005600a81111561132457611323611818565b5b82600a81111561133757611336611818565b5b03611386576040518060a0016040528060328152602001603c815260200160048152602001600581526020016040518060800160405280605d81526020016122cb605d91398152509050611599565b6006600a81111561139a57611399611818565b5b82600a8111156113ad576113ac611818565b5b036113fc576040518060a00160405280603781526020016028815260200160038152602001600481526020016040518060800160405280605d8152602001612328605d91398152509050611599565b6007600a8111156114105761140f611818565b5b82600a81111561142357611422611818565b5b03611472576040518060a00160405280604e81526020016041815260200160028152602001600481526020016040518060800160405280605d8152602001611fe3605d91398152509050611599565b6008600a81111561148657611485611818565b5b82600a81111561149957611498611818565b5b036114e8576040518060a00160405280609681526020016064815260200160048152602001600381526020016040518060800160405280605d81526020016121b4605d91398152509050611599565b6009600a8111156114fc576114fb611818565b5b82600a81111561150f5761150e611818565b5b0361155e576040518060a00160405280602381526020016042815260200160048152602001600581526020016040518060800160405280605d8152602001612157605d91398152509050611599565b6040517f08c379a000000000000000000000000000000000000000000000000000000000815260040161159090611fc4565b60405180910390fd5b919050565b6040518060e001604052805f81526020015f81526020015f81526020015f600a8111156115ce576115cd611818565b5b81526020015f81526020015f151581526020015f81525090565b6040518060a001604052805f81526020015f81526020015f81526020015f8152602001606081525090565b5f5ffd5b5f819050919050565b61162981611617565b8114611633575f5ffd5b50565b5f8135905061164481611620565b92915050565b5f6020828403121561165f5761165e611613565b5b5f61166c84828501611636565b91505092915050565b5f8115159050919050565b61168981611675565b82525050565b5f6020820190506116a25f830184611680565b92915050565b5f5f604083850312156116be576116bd611613565b5b5f6116cb85828601611636565b92505060206116dc85828601611636565b9150509250929050565b600b81106116f2575f5ffd5b50565b5f81359050611703816116e6565b92915050565b5f6020828403121561171e5761171d611613565b5b5f61172b848285016116f5565b91505092915050565b61173d81611617565b82525050565b5f6020820190506117565f830184611734565b92915050565b5f73ffffffffffffffffffffffffffffffffffffffff82169050919050565b5f6117858261175c565b9050919050565b6117958161177b565b811461179f575f5ffd5b50565b5f813590506117b08161178c565b92915050565b5f602082840312156117cb576117ca611613565b5b5f6117d8848285016117a2565b91505092915050565b6117ea8161177b565b82525050565b5f6020820190506118035f8301846117e1565b92915050565b61181281611617565b82525050565b7f4e487b71000000000000000000000000000000000000000000000000000000005f52602160045260245ffd5b600b811061185657611855611818565b5b50565b5f81905061186682611845565b919050565b5f61187582611859565b9050919050565b6118858161186b565b82525050565b61189481611675565b82525050565b60e082015f8201516118ae5f850182611809565b5060208201516118c16020850182611809565b5060408201516118d46040850182611809565b5060608201516118e7606085018261187c565b5060808201516118fa6080850182611809565b5060a082015161190d60a085018261188b565b5060c082015161192060c0850182611809565b50505050565b5f60e0820190506119395f83018461189a565b92915050565b5f5f6040838503121561195557611954611613565b5b5f61196285828601611636565b9250506020611973858286016117a2565b9150509250929050565b6119868161186b565b82525050565b5f60e08201905061199f5f83018a611734565b6119ac6020830189611734565b6119b96040830188611734565b6119c6606083018761197d565b6119d36080830186611734565b6119e060a0830185611680565b6119ed60c0830184611734565b98975050505050505050565b5f81519050919050565b5f82825260208201905092915050565b8281835e5f83830152505050565b5f601f19601f8301169050919050565b5f611a3b826119f9565b611a458185611a03565b9350611a55818560208601611a13565b611a5e81611a21565b840191505092915050565b5f6020820190508181035f830152611a818184611a31565b905092915050565b7f4f6e6c79205061726b2063616e2063616c6c20746869730000000000000000005f82015250565b5f611abd601783611a03565b9150611ac882611a89565b602082019050919050565b5f6020820190508181035f830152611aea81611ab1565b9050919050565b7f43616e6e6f7420666565642061206465616420626972640000000000000000005f82015250565b5f611b25601783611a03565b9150611b3082611af1565b602082019050919050565b5f6020820190508181035f830152611b5281611b19565b9050919050565b7f4e487b71000000000000000000000000000000000000000000000000000000005f52601160045260245ffd5b5f611b9082611617565b9150611b9b83611617565b9250828203905081811115611bb357611bb2611b59565b5b92915050565b5f611bc382611617565b91507fffffffffffffffffffffffffffffffffffffffffffffffffffffffffffffffff8203611bf557611bf4611b59565b5b600182019050919050565b7f5061726b20616c726561647920736574000000000000000000000000000000005f82015250565b5f611c34601083611a03565b9150611c3f82611c00565b602082019050919050565b5f6020820190508181035f830152611c6181611c28565b9050919050565b7f4e6f7420646561640000000000000000000000000000000000000000000000005f82015250565b5f611c9c600883611a03565b9150611ca782611c68565b602082019050919050565b5f6020820190508181035f830152611cc981611c90565b9050919050565b7f4e6f7420746865206f776e6572000000000000000000000000000000000000005f82015250565b5f611d04600d83611a03565b9150611d0f82611cd0565b602082019050919050565b5f6020820190508181035f830152611d3181611cf8565b9050919050565b7f496e76616c6964206164647265737300000000000000000000000000000000005f82015250565b5f611d6c600f83611a03565b9150611d7782611d38565b602082019050919050565b5f6020820190508181035f830152611d9981611d60565b9050919050565b5f611daa82611617565b9150611db583611617565b9250828202611dc381611617565b91508282048414831517611dda57611dd9611b59565b5b5092915050565b7f4e487b71000000000000000000000000000000000000000000000000000000005f52601260045260245ffd5b5f611e1882611617565b9150611e2383611617565b925082611e3357611e32611de1565b5b828204905092915050565b5f611e4882611617565b9150611e5383611617565b9250828201905080821115611e6b57611e6a611b59565b5b92915050565b7f43616e6e6f74206865616c2061206465616420626972643b20726576697665205f8201527f6974206669727374000000000000000000000000000000000000000000000000602082015250565b5f611ecb602883611a03565b9150611ed682611e71565b604082019050919050565b5f6020820190508181035f830152611ef881611ebf565b9050919050565b5f819050919050565b611f19611f1482611617565b611eff565b82525050565b5f611f2a8285611f08565b602082019150611f3a8284611f08565b6020820191508190509392505050565b5f611f5482611617565b9150611f5f83611617565b925082611f6f57611f6e611de1565b5b828206905092915050565b7f556e6b6e6f776e207370656369657300000000000000000000000000000000005f82015250565b5f611fae600f83611a03565b9150611fb982611f7a565b602082019050919050565b5f6020820190508181035f830152611fdb81611fa2565b905091905056fe68747470733a2f2f676174657761792e70696e6174612e636c6f75642f697066732f6261666b72656964336d64796d7a736a7475646d35367a726f766974786f757667736a627a7a6b796172737137743269326269777967367268747168747470733a2f2f676174657761792e70696e6174612e636c6f75642f697066732f6261667962656961336c65346173746b6e683270346d626b64357734326a353232746e73653477786b3777356d3777696d6f716470366f757a707968747470733a2f2f676174657761792e70696e6174612e636c6f75642f697066732f6261667962656966786e71727070336166616a6e74726e7779796e75326c63727a766d646d737468776162367832776e323377636e62646a6e366d68747470733a2f2f676174657761792e70696e6174612e636c6f75642f697066732f626166796265696576377075637a377968377836686169646d7068703569656f6276636664636c6e6c776a71613269767334793335377076776d6168747470733a2f2f676174657761792e70696e6174612e636c6f75642f697066732f626166796265696670616a6269766868656d6a65666769616d6e7668376f6532376c657874716a376167707a6e63687165756a636e34366935636168747470733a2f2f676174657761792e70696e6174612e636c6f75642f697066732f6261666b7265696636656e6f32716a6a337863376d6562716c327336366f6c36797872777837677761767a3434716e32646c7a33636e773766323468747470733a2f2f676174657761792e70696e6174612e636c6f75642f697066732f62616679626569626364707a707967366d716165326f676f7775756d796d716d7178623275736e697537356765656a347074723436376f74326e6d68747470733a2f2f676174657761792e70696e6174612e636c6f75642f697066732f62616679626569676f686f746f6b366b336f6e76746a797970666e626e7a6263736f327163697862777a34776836347670326e336c71376e6b736168747470733a2f2f676174657761792e70696e6174612e636c6f75642f697066732f6261666b7265696461346170737078746e706236336f71797a763374696e356f776334356c6763746b6471763734686a6173346679746f6f6b746168747470733a2f2f676174657761792e70696e6174612e636c6f75642f697066732f6261666b7265696832666d78753361797363723778657a3275326173686177696663336f6a34716132366a35366368343676657a377a7961656a3468747470733a2f2f676174657761792e70696e6174612e636c6f75642f697066732f626166796265696574626635716f7372796271676b7132636434637a76363664777736737434776a35786c6f7a6534656e6232643578796a36706da26469706673582212204db3ce81fdff2f614bb7446e8eaa8973618f4ab94e291ce552fc07099e007c6e64736f6c634300081e0033",
					"opcodes": "PUSH1 0x80 PUSH1 0x40 MSTORE CALLVALUE DUP1 ISZERO PUSH2 0xF JUMPI PUSH0 PUSH0 REVERT JUMPDEST POP PUSH1 0x40 MLOAD PUSH2 0x2524 CODESIZE SUB DUP1 PUSH2 0x2524 DUP4 CODECOPY DUP2 DUP2 ADD PUSH1 0x40 MSTORE DUP2 ADD SWAP1 PUSH2 0x31 SWAP2 SWAP1 PUSH2 0xD5 JUMP JUMPDEST DUP1 PUSH1 0x2 PUSH0 PUSH2 0x100 EXP DUP2 SLOAD DUP2 PUSH20 0xFFFFFFFFFFFFFFFFFFFFFFFFFFFFFFFFFFFFFFFF MUL NOT AND SWAP1 DUP4 PUSH20 0xFFFFFFFFFFFFFFFFFFFFFFFFFFFFFFFFFFFFFFFF AND MUL OR SWAP1 SSTORE POP POP PUSH2 0x100 JUMP JUMPDEST PUSH0 PUSH0 REVERT JUMPDEST PUSH0 PUSH20 0xFFFFFFFFFFFFFFFFFFFFFFFFFFFFFFFFFFFFFFFF DUP3 AND SWAP1 POP SWAP2 SWAP1 POP JUMP JUMPDEST PUSH0 PUSH2 0xA4 DUP3 PUSH2 0x7B JUMP JUMPDEST SWAP1 POP SWAP2 SWAP1 POP JUMP JUMPDEST PUSH2 0xB4 DUP2 PUSH2 0x9A JUMP JUMPDEST DUP2 EQ PUSH2 0xBE JUMPI PUSH0 PUSH0 REVERT JUMPDEST POP JUMP JUMPDEST PUSH0 DUP2 MLOAD SWAP1 POP PUSH2 0xCF DUP2 PUSH2 0xAB JUMP JUMPDEST SWAP3 SWAP2 POP POP JUMP JUMPDEST PUSH0 PUSH1 0x20 DUP3 DUP5 SUB SLT ISZERO PUSH2 0xEA JUMPI PUSH2 0xE9 PUSH2 0x77 JUMP JUMPDEST JUMPDEST PUSH0 PUSH2 0xF7 DUP5 DUP3 DUP6 ADD PUSH2 0xC1 JUMP JUMPDEST SWAP2 POP POP SWAP3 SWAP2 POP POP JUMP JUMPDEST PUSH2 0x2417 DUP1 PUSH2 0x10D PUSH0 CODECOPY PUSH0 RETURN INVALID PUSH1 0x80 PUSH1 0x40 MSTORE CALLVALUE DUP1 ISZERO PUSH2 0xF JUMPI PUSH0 PUSH0 REVERT JUMPDEST POP PUSH1 0x4 CALLDATASIZE LT PUSH2 0xF3 JUMPI PUSH0 CALLDATALOAD PUSH1 0xE0 SHR DUP1 PUSH4 0x6EC88BBD GT PUSH2 0x95 JUMPI DUP1 PUSH4 0xA2B7CE6F GT PUSH2 0x64 JUMPI DUP1 PUSH4 0xA2B7CE6F EQ PUSH2 0x27F JUMPI DUP1 PUSH4 0xBFF998F4 EQ PUSH2 0x29B JUMPI DUP1 PUSH4 0xEC1C5955 EQ PUSH2 0x2B7 JUMPI DUP1 PUSH4 0xF64FF064 EQ PUSH2 0x2ED JUMPI PUSH2 0xF3 JUMP JUMPDEST DUP1 PUSH4 0x6EC88BBD EQ PUSH2 0x1F9 JUMPI DUP1 PUSH4 0x72680A77 EQ PUSH2 0x229 JUMPI DUP1 PUSH4 0x8BAECC21 EQ PUSH2 0x247 JUMPI DUP1 PUSH4 0x8C652F95 EQ PUSH2 0x263 JUMPI PUSH2 0xF3 JUMP JUMPDEST DUP1 PUSH4 0x4D2D7881 GT PUSH2 0xD1 JUMPI DUP1 PUSH4 0x4D2D7881 EQ PUSH2 0x15F JUMPI DUP1 PUSH4 0x4E9C7DF8 EQ PUSH2 0x18F JUMPI DUP1 PUSH4 0x61B8CE8C EQ PUSH2 0x1AB JUMPI DUP1 PUSH4 0x6352211E EQ PUSH2 0x1C9 JUMPI PUSH2 0xF3 JUMP JUMPDEST DUP1 PUSH4 0x16CB4A05 EQ PUSH2 0xF7 JUMPI DUP1 PUSH4 0x1942D199 EQ PUSH2 0x127 JUMPI DUP1 PUSH4 0x49B1A0BF EQ PUSH2 0x143 JUMPI JUMPDEST PUSH0 PUSH0 REVERT JUMPDEST PUSH2 0x111 PUSH1 0x4 DUP1 CALLDATASIZE SUB DUP2 ADD SWAP1 PUSH2 0x10C SWAP2 SWAP1 PUSH2 0x164A JUMP JUMPDEST PUSH2 0x31D JUMP JUMPDEST PUSH1 0x40 MLOAD PUSH2 0x11E SWAP2 SWAP1 PUSH2 0x168F JUMP JUMPDEST PUSH1 0x40 MLOAD DUP1 SWAP2 SUB SWAP1 RETURN JUMPDEST PUSH2 0x141 PUSH1 0x4 DUP1 CALLDATASIZE SUB DUP2 ADD SWAP1 PUSH2 0x13C SWAP2 SWAP1 PUSH2 0x16A8 JUMP JUMPDEST PUSH2 0x33A JUMP JUMPDEST STOP JUMPDEST PUSH2 0x15D PUSH1 0x4 DUP1 CALLDATASIZE SUB DUP2 ADD SWAP1 PUSH2 0x158 SWAP2 SWAP1 PUSH2 0x164A JUMP JUMPDEST PUSH2 0x478 JUMP JUMPDEST STOP JUMPDEST PUSH2 0x179 PUSH1 0x4 DUP1 CALLDATASIZE SUB DUP2 ADD SWAP1 PUSH2 0x174 SWAP2 SWAP1 PUSH2 0x1709 JUMP JUMPDEST PUSH2 0x533 JUMP JUMPDEST PUSH1 0x40 MLOAD PUSH2 0x186 SWAP2 SWAP1 PUSH2 0x1743 JUMP JUMPDEST PUSH1 0x40 MLOAD DUP1 SWAP2 SUB SWAP1 RETURN JUMPDEST PUSH2 0x1A9 PUSH1 0x4 DUP1 CALLDATASIZE SUB DUP2 ADD SWAP1 PUSH2 0x1A4 SWAP2 SWAP1 PUSH2 0x17B6 JUMP JUMPDEST PUSH2 0x724 JUMP JUMPDEST STOP JUMPDEST PUSH2 0x1B3 PUSH2 0x7F6 JUMP JUMPDEST PUSH1 0x40 MLOAD PUSH2 0x1C0 SWAP2 SWAP1 PUSH2 0x1743 JUMP JUMPDEST PUSH1 0x40 MLOAD DUP1 SWAP2 SUB SWAP1 RETURN JUMPDEST PUSH2 0x1E3 PUSH1 0x4 DUP1 CALLDATASIZE SUB DUP2 ADD SWAP1 PUSH2 0x1DE SWAP2 SWAP1 PUSH2 0x164A JUMP JUMPDEST PUSH2 0x7FC JUMP JUMPDEST PUSH1 0x40 MLOAD PUSH2 0x1F0 SWAP2 SWAP1 PUSH2 0x17F0 JUMP JUMPDEST PUSH1 0x40 MLOAD DUP1 SWAP2 SUB SWAP1 RETURN JUMPDEST PUSH2 0x213 PUSH1 0x4 DUP1 CALLDATASIZE SUB DUP2 ADD SWAP1 PUSH2 0x20E SWAP2 SWAP1 PUSH2 0x164A JUMP JUMPDEST PUSH2 0x82C JUMP JUMPDEST PUSH1 0x40 MLOAD PUSH2 0x220 SWAP2 SWAP1 PUSH2 0x1926 JUMP JUMPDEST PUSH1 0x40 MLOAD DUP1 SWAP2 SUB SWAP1 RETURN JUMPDEST PUSH2 0x231 PUSH2 0x8E4 JUMP JUMPDEST PUSH1 0x40 MLOAD PUSH2 0x23E SWAP2 SWAP1 PUSH2 0x17F0 JUMP JUMPDEST PUSH1 0x40 MLOAD DUP1 SWAP2 SUB SWAP1 RETURN JUMPDEST PUSH2 0x261 PUSH1 0x4 DUP1 CALLDATASIZE SUB DUP2 ADD SWAP1 PUSH2 0x25C SWAP2 SWAP1 PUSH2 0x164A JUMP JUMPDEST PUSH2 0x909 JUMP JUMPDEST STOP JUMPDEST PUSH2 0x27D PUSH1 0x4 DUP1 CALLDATASIZE SUB DUP2 ADD SWAP1 PUSH2 0x278 SWAP2 SWAP1 PUSH2 0x193F JUMP JUMPDEST PUSH2 0xA59 JUMP JUMPDEST STOP JUMPDEST PUSH2 0x299 PUSH1 0x4 DUP1 CALLDATASIZE SUB DUP2 ADD SWAP1 PUSH2 0x294 SWAP2 SWAP1 PUSH2 0x164A JUMP JUMPDEST PUSH2 0xC47 JUMP JUMPDEST STOP JUMPDEST PUSH2 0x2B5 PUSH1 0x4 DUP1 CALLDATASIZE SUB DUP2 ADD SWAP1 PUSH2 0x2B0 SWAP2 SWAP1 PUSH2 0x164A JUMP JUMPDEST PUSH2 0xDBD JUMP JUMPDEST STOP JUMPDEST PUSH2 0x2D1 PUSH1 0x4 DUP1 CALLDATASIZE SUB DUP2 ADD SWAP1 PUSH2 0x2CC SWAP2 SWAP1 PUSH2 0x164A JUMP JUMPDEST PUSH2 0xED8 JUMP JUMPDEST PUSH1 0x40 MLOAD PUSH2 0x2E4 SWAP8 SWAP7 SWAP6 SWAP5 SWAP4 SWAP3 SWAP2 SWAP1 PUSH2 0x198C JUMP JUMPDEST PUSH1 0x40 MLOAD DUP1 SWAP2 SUB SWAP1 RETURN JUMPDEST PUSH2 0x307 PUSH1 0x4 DUP1 CALLDATASIZE SUB DUP2 ADD SWAP1 PUSH2 0x302 SWAP2 SWAP1 PUSH2 0x164A JUMP JUMPDEST PUSH2 0xF2D JUMP JUMPDEST PUSH1 0x40 MLOAD PUSH2 0x314 SWAP2 SWAP1 PUSH2 0x1A69 JUMP JUMPDEST PUSH1 0x40 MLOAD DUP1 SWAP2 SUB SWAP1 RETURN JUMPDEST PUSH1 0x3 PUSH1 0x20 MSTORE DUP1 PUSH0 MSTORE PUSH1 0x40 PUSH0 KECCAK256 PUSH0 SWAP2 POP SLOAD SWAP1 PUSH2 0x100 EXP SWAP1 DIV PUSH1 0xFF AND DUP2 JUMP JUMPDEST PUSH1 0x2 PUSH0 SWAP1 SLOAD SWAP1 PUSH2 0x100 EXP SWAP1 DIV PUSH20 0xFFFFFFFFFFFFFFFFFFFFFFFFFFFFFFFFFFFFFFFF AND PUSH20 0xFFFFFFFFFFFFFFFFFFFFFFFFFFFFFFFFFFFFFFFF AND CALLER PUSH20 0xFFFFFFFFFFFFFFFFFFFFFFFFFFFFFFFFFFFFFFFF AND EQ PUSH2 0x3C9 JUMPI PUSH1 0x40 MLOAD PUSH32 0x8C379A000000000000000000000000000000000000000000000000000000000 DUP2 MSTORE PUSH1 0x4 ADD PUSH2 0x3C0 SWAP1 PUSH2 0x1AD3 JUMP JUMPDEST PUSH1 0x40 MLOAD DUP1 SWAP2 SUB SWAP1 REVERT JUMPDEST PUSH2 0x3D2 DUP3 PUSH2 0xC47 JUMP JUMPDEST PUSH0 PUSH0 PUSH0 DUP5 DUP2 MSTORE PUSH1 0x20 ADD SWAP1 DUP2 MSTORE PUSH1 0x20 ADD PUSH0 KECCAK256 SWAP1 POP PUSH2 0x3EE DUP4 PUSH2 0xF67 JUMP JUMPDEST DUP1 PUSH1 0x5 ADD PUSH0 SWAP1 SLOAD SWAP1 PUSH2 0x100 EXP SWAP1 DIV PUSH1 0xFF AND ISZERO PUSH2 0x43F JUMPI PUSH1 0x40 MLOAD PUSH32 0x8C379A000000000000000000000000000000000000000000000000000000000 DUP2 MSTORE PUSH1 0x4 ADD PUSH2 0x436 SWAP1 PUSH2 0x1B3B JUMP JUMPDEST PUSH1 0x40 MLOAD DUP1 SWAP2 SUB SWAP1 REVERT JUMPDEST DUP2 DUP2 PUSH1 0x1 ADD SLOAD LT PUSH2 0x469 JUMPI DUP2 DUP2 PUSH1 0x1 ADD PUSH0 DUP3 DUP3 SLOAD PUSH2 0x45D SWAP2 SWAP1 PUSH2 0x1B86 JUMP JUMPDEST SWAP3 POP POP DUP2 SWAP1 SSTORE POP PUSH2 0x473 JUMP JUMPDEST PUSH0 DUP2 PUSH1 0x1 ADD DUP2 SWAP1 SSTORE POP JUMPDEST POP POP POP JUMP JUMPDEST PUSH1 0x2 PUSH0 SWAP1 SLOAD SWAP1 PUSH2 0x100 EXP SWAP1 DIV PUSH20 0xFFFFFFFFFFFFFFFFFFFFFFFFFFFFFFFFFFFFFFFF AND PUSH20 0xFFFFFFFFFFFFFFFFFFFFFFFFFFFFFFFFFFFFFFFF AND CALLER PUSH20 0xFFFFFFFFFFFFFFFFFFFFFFFFFFFFFFFFFFFFFFFF AND EQ PUSH2 0x507 JUMPI PUSH1 0x40 MLOAD PUSH32 0x8C379A000000000000000000000000000000000000000000000000000000000 DUP2 MSTORE PUSH1 0x4 ADD PUSH2 0x4FE SWAP1 PUSH2 0x1AD3 JUMP JUMPDEST PUSH1 0x40 MLOAD DUP1 SWAP2 SUB SWAP1 REVERT JUMPDEST PUSH1 0x1 PUSH1 0x3 PUSH0 DUP4 DUP2 MSTORE PUSH1 0x20 ADD SWAP1 DUP2 MSTORE PUSH1 0x20 ADD PUSH0 KECCAK256 PUSH0 PUSH2 0x100 EXP DUP2 SLOAD DUP2 PUSH1 0xFF MUL NOT AND SWAP1 DUP4 ISZERO ISZERO MUL OR SWAP1 SSTORE POP POP JUMP JUMPDEST PUSH0 PUSH1 0x2 PUSH0 SWAP1 SLOAD SWAP1 PUSH2 0x100 EXP SWAP1 DIV PUSH20 0xFFFFFFFFFFFFFFFFFFFFFFFFFFFFFFFFFFFFFFFF AND PUSH20 0xFFFFFFFFFFFFFFFFFFFFFFFFFFFFFFFFFFFFFFFF AND CALLER PUSH20 0xFFFFFFFFFFFFFFFFFFFFFFFFFFFFFFFFFFFFFFFF AND EQ PUSH2 0x5C3 JUMPI PUSH1 0x40 MLOAD PUSH32 0x8C379A000000000000000000000000000000000000000000000000000000000 DUP2 MSTORE PUSH1 0x4 ADD PUSH2 0x5BA SWAP1 PUSH2 0x1AD3 JUMP JUMPDEST PUSH1 0x40 MLOAD DUP1 SWAP2 SUB SWAP1 REVERT JUMPDEST PUSH0 PUSH2 0x5CD DUP4 PUSH2 0x1045 JUMP JUMPDEST SWAP1 POP PUSH1 0x40 MLOAD DUP1 PUSH1 0xE0 ADD PUSH1 0x40 MSTORE DUP1 PUSH0 DUP2 MSTORE PUSH1 0x20 ADD PUSH0 DUP2 MSTORE PUSH1 0x20 ADD DUP3 PUSH0 ADD MLOAD DUP2 MSTORE PUSH1 0x20 ADD DUP5 PUSH1 0xA DUP2 GT ISZERO PUSH2 0x602 JUMPI PUSH2 0x601 PUSH2 0x1818 JUMP JUMPDEST JUMPDEST DUP2 MSTORE PUSH1 0x20 ADD TIMESTAMP DUP2 MSTORE PUSH1 0x20 ADD PUSH0 ISZERO ISZERO DUP2 MSTORE PUSH1 0x20 ADD PUSH0 DUP2 MSTORE POP PUSH0 PUSH0 PUSH1 0x1 SLOAD DUP2 MSTORE PUSH1 0x20 ADD SWAP1 DUP2 MSTORE PUSH1 0x20 ADD PUSH0 KECCAK256 PUSH0 DUP3 ADD MLOAD DUP2 PUSH0 ADD SSTORE PUSH1 0x20 DUP3 ADD MLOAD DUP2 PUSH1 0x1 ADD SSTORE PUSH1 0x40 DUP3 ADD MLOAD DUP2 PUSH1 0x2 ADD SSTORE PUSH1 0x60 DUP3 ADD MLOAD DUP2 PUSH1 0x3 ADD PUSH0 PUSH2 0x100 EXP DUP2 SLOAD DUP2 PUSH1 0xFF MUL NOT AND SWAP1 DUP4 PUSH1 0xA DUP2 GT ISZERO PUSH2 0x671 JUMPI PUSH2 0x670 PUSH2 0x1818 JUMP JUMPDEST JUMPDEST MUL OR SWAP1 SSTORE POP PUSH1 0x80 DUP3 ADD MLOAD DUP2 PUSH1 0x4 ADD SSTORE PUSH1 0xA0 DUP3 ADD MLOAD DUP2 PUSH1 0x5 ADD PUSH0 PUSH2 0x100 EXP DUP2 SLOAD DUP2 PUSH1 0xFF MUL NOT AND SWAP1 DUP4 ISZERO ISZERO MUL OR SWAP1 SSTORE POP PUSH1 0xC0 DUP3 ADD MLOAD DUP2 PUSH1 0x6 ADD SSTORE SWAP1 POP POP ORIGIN PUSH1 0x4 PUSH0 PUSH1 0x1 SLOAD DUP2 MSTORE PUSH1 0x20 ADD SWAP1 DUP2 MSTORE PUSH1 0x20 ADD PUSH0 KECCAK256 PUSH0 PUSH2 0x100 EXP DUP2 SLOAD DUP2 PUSH20 0xFFFFFFFFFFFFFFFFFFFFFFFFFFFFFFFFFFFFFFFF MUL NOT AND SWAP1 DUP4 PUSH20 0xFFFFFFFFFFFFFFFFFFFFFFFFFFFFFFFFFFFFFFFF AND MUL OR SWAP1 SSTORE POP PUSH0 PUSH1 0x1 SLOAD SWAP1 POP PUSH1 0x1 PUSH0 DUP2 SLOAD DUP1 SWAP3 SWAP2 SWAP1 PUSH2 0x715 SWAP1 PUSH2 0x1BB9 JUMP JUMPDEST SWAP2 SWAP1 POP SSTORE POP DUP1 SWAP3 POP POP POP SWAP2 SWAP1 POP JUMP JUMPDEST PUSH0 PUSH20 0xFFFFFFFFFFFFFFFFFFFFFFFFFFFFFFFFFFFFFFFF AND PUSH1 0x2 PUSH0 SWAP1 SLOAD SWAP1 PUSH2 0x100 EXP SWAP1 DIV PUSH20 0xFFFFFFFFFFFFFFFFFFFFFFFFFFFFFFFFFFFFFFFF AND PUSH20 0xFFFFFFFFFFFFFFFFFFFFFFFFFFFFFFFFFFFFFFFF AND EQ PUSH2 0x7B3 JUMPI PUSH1 0x40 MLOAD PUSH32 0x8C379A000000000000000000000000000000000000000000000000000000000 DUP2 MSTORE PUSH1 0x4 ADD PUSH2 0x7AA SWAP1 PUSH2 0x1C4A JUMP JUMPDEST PUSH1 0x40 MLOAD DUP1 SWAP2 SUB SWAP1 REVERT JUMPDEST DUP1 PUSH1 0x2 PUSH0 PUSH2 0x100 EXP DUP2 SLOAD DUP2 PUSH20 0xFFFFFFFFFFFFFFFFFFFFFFFFFFFFFFFFFFFFFFFF MUL NOT AND SWAP1 DUP4 PUSH20 0xFFFFFFFFFFFFFFFFFFFFFFFFFFFFFFFFFFFFFFFF AND MUL OR SWAP1 SSTORE POP POP JUMP JUMPDEST PUSH1 0x1 SLOAD DUP2 JUMP JUMPDEST PUSH1 0x4 PUSH1 0x20 MSTORE DUP1 PUSH0 MSTORE PUSH1 0x40 PUSH0 KECCAK256 PUSH0 SWAP2 POP SLOAD SWAP1 PUSH2 0x100 EXP SWAP1 DIV PUSH20 0xFFFFFFFFFFFFFFFFFFFFFFFFFFFFFFFFFFFFFFFF AND DUP2 JUMP JUMPDEST PUSH2 0x834 PUSH2 0x159E JUMP JUMPDEST PUSH2 0x83D DUP3 PUSH2 0xC47 JUMP JUMPDEST PUSH0 PUSH0 DUP4 DUP2 MSTORE PUSH1 0x20 ADD SWAP1 DUP2 MSTORE PUSH1 0x20 ADD PUSH0 KECCAK256 PUSH1 0x40 MLOAD DUP1 PUSH1 0xE0 ADD PUSH1 0x40 MSTORE SWAP1 DUP2 PUSH0 DUP3 ADD SLOAD DUP2 MSTORE PUSH1 0x20 ADD PUSH1 0x1 DUP3 ADD SLOAD DUP2 MSTORE PUSH1 0x20 ADD PUSH1 0x2 DUP3 ADD SLOAD DUP2 MSTORE PUSH1 0x20 ADD PUSH1 0x3 DUP3 ADD PUSH0 SWAP1 SLOAD SWAP1 PUSH2 0x100 EXP SWAP1 DIV PUSH1 0xFF AND PUSH1 0xA DUP2 GT ISZERO PUSH2 0x899 JUMPI PUSH2 0x898 PUSH2 0x1818 JUMP JUMPDEST JUMPDEST PUSH1 0xA DUP2 GT ISZERO PUSH2 0x8AB JUMPI PUSH2 0x8AA PUSH2 0x1818 JUMP JUMPDEST JUMPDEST DUP2 MSTORE PUSH1 0x20 ADD PUSH1 0x4 DUP3 ADD SLOAD DUP2 MSTORE PUSH1 0x20 ADD PUSH1 0x5 DUP3 ADD PUSH0 SWAP1 SLOAD SWAP1 PUSH2 0x100 EXP SWAP1 DIV PUSH1 0xFF AND ISZERO ISZERO ISZERO ISZERO DUP2 MSTORE PUSH1 0x20 ADD PUSH1 0x6 DUP3 ADD SLOAD DUP2 MSTORE POP POP SWAP1 POP SWAP2 SWAP1 POP JUMP JUMPDEST PUSH1 0x2 PUSH0 SWAP1 SLOAD SWAP1 PUSH2 0x100 EXP SWAP1 DIV PUSH20 0xFFFFFFFFFFFFFFFFFFFFFFFFFFFFFFFFFFFFFFFF AND DUP2 JUMP JUMPDEST PUSH1 0x2 PUSH0 SWAP1 SLOAD SWAP1 PUSH2 0x100 EXP SWAP1 DIV PUSH20 0xFFFFFFFFFFFFFFFFFFFFFFFFFFFFFFFFFFFFFFFF AND PUSH20 0xFFFFFFFFFFFFFFFFFFFFFFFFFFFFFFFFFFFFFFFF AND CALLER PUSH20 0xFFFFFFFFFFFFFFFFFFFFFFFFFFFFFFFFFFFFFFFF AND EQ PUSH2 0x998 JUMPI PUSH1 0x40 MLOAD PUSH32 0x8C379A000000000000000000000000000000000000000000000000000000000 DUP2 MSTORE PUSH1 0x4 ADD PUSH2 0x98F SWAP1 PUSH2 0x1AD3 JUMP JUMPDEST PUSH1 0x40 MLOAD DUP1 SWAP2 SUB SWAP1 REVERT JUMPDEST PUSH0 PUSH0 PUSH0 DUP4 DUP2 MSTORE PUSH1 0x20 ADD SWAP1 DUP2 MSTORE PUSH1 0x20 ADD PUSH0 KECCAK256 SWAP1 POP DUP1 PUSH1 0x5 ADD PUSH0 SWAP1 SLOAD SWAP1 PUSH2 0x100 EXP SWAP1 DIV PUSH1 0xFF AND PUSH2 0x9FB JUMPI PUSH1 0x40 MLOAD PUSH32 0x8C379A000000000000000000000000000000000000000000000000000000000 DUP2 MSTORE PUSH1 0x4 ADD PUSH2 0x9F2 SWAP1 PUSH2 0x1CB2 JUMP JUMPDEST PUSH1 0x40 MLOAD DUP1 SWAP2 SUB SWAP1 REVERT JUMPDEST PUSH2 0xA14 DUP2 PUSH1 0x3 ADD PUSH0 SWAP1 SLOAD SWAP1 PUSH2 0x100 EXP SWAP1 DIV PUSH1 0xFF AND PUSH2 0x1045 JUMP JUMPDEST PUSH0 ADD MLOAD DUP2 PUSH1 0x2 ADD DUP2 SWAP1 SSTORE POP PUSH0 DUP2 PUSH1 0x1 ADD DUP2 SWAP1 SSTORE POP PUSH0 DUP2 PUSH1 0x5 ADD PUSH0 PUSH2 0x100 EXP DUP2 SLOAD DUP2 PUSH1 0xFF MUL NOT AND SWAP1 DUP4 ISZERO ISZERO MUL OR SWAP1 SSTORE POP PUSH0 DUP2 PUSH1 0x6 ADD DUP2 SWAP1 SSTORE POP TIMESTAMP DUP2 PUSH1 0x4 ADD DUP2 SWAP1 SSTORE POP POP POP JUMP JUMPDEST PUSH1 0x2 PUSH0 SWAP1 SLOAD SWAP1 PUSH2 0x100 EXP SWAP1 DIV PUSH20 0xFFFFFFFFFFFFFFFFFFFFFFFFFFFFFFFFFFFFFFFF AND PUSH20 0xFFFFFFFFFFFFFFFFFFFFFFFFFFFFFFFFFFFFFFFF AND CALLER PUSH20 0xFFFFFFFFFFFFFFFFFFFFFFFFFFFFFFFFFFFFFFFF AND EQ PUSH2 0xAE8 JUMPI PUSH1 0x40 MLOAD PUSH32 0x8C379A000000000000000000000000000000000000000000000000000000000 DUP2 MSTORE PUSH1 0x4 ADD PUSH2 0xADF SWAP1 PUSH2 0x1AD3 JUMP JUMPDEST PUSH1 0x40 MLOAD DUP1 SWAP2 SUB SWAP1 REVERT JUMPDEST ORIGIN PUSH20 0xFFFFFFFFFFFFFFFFFFFFFFFFFFFFFFFFFFFFFFFF AND PUSH1 0x4 PUSH0 DUP5 DUP2 MSTORE PUSH1 0x20 ADD SWAP1 DUP2 MSTORE PUSH1 0x20 ADD PUSH0 KECCAK256 PUSH0 SWAP1 SLOAD SWAP1 PUSH2 0x100 EXP SWAP1 DIV PUSH20 0xFFFFFFFFFFFFFFFFFFFFFFFFFFFFFFFFFFFFFFFF AND PUSH20 0xFFFFFFFFFFFFFFFFFFFFFFFFFFFFFFFFFFFFFFFF AND EQ PUSH2 0xB86 JUMPI PUSH1 0x40 MLOAD PUSH32 0x8C379A000000000000000000000000000000000000000000000000000000000 DUP2 MSTORE PUSH1 0x4 ADD PUSH2 0xB7D SWAP1 PUSH2 0x1D1A JUMP JUMPDEST PUSH1 0x40 MLOAD DUP1 SWAP2 SUB SWAP1 REVERT JUMPDEST PUSH0 PUSH20 0xFFFFFFFFFFFFFFFFFFFFFFFFFFFFFFFFFFFFFFFF AND DUP2 PUSH20 0xFFFFFFFFFFFFFFFFFFFFFFFFFFFFFFFFFFFFFFFF AND SUB PUSH2 0xBF4 JUMPI PUSH1 0x40 MLOAD PUSH32 0x8C379A000000000000000000000000000000000000000000000000000000000 DUP2 MSTORE PUSH1 0x4 ADD PUSH2 0xBEB SWAP1 PUSH2 0x1D82 JUMP JUMPDEST PUSH1 0x40 MLOAD DUP1 SWAP2 SUB SWAP1 REVERT JUMPDEST DUP1 PUSH1 0x4 PUSH0 DUP5 DUP2 MSTORE PUSH1 0x20 ADD SWAP1 DUP2 MSTORE PUSH1 0x20 ADD PUSH0 KECCAK256 PUSH0 PUSH2 0x100 EXP DUP2 SLOAD DUP2 PUSH20 0xFFFFFFFFFFFFFFFFFFFFFFFFFFFFFFFFFFFFFFFF MUL NOT AND SWAP1 DUP4 PUSH20 0xFFFFFFFFFFFFFFFFFFFFFFFFFFFFFFFFFFFFFFFF AND MUL OR SWAP1 SSTORE POP POP POP JUMP JUMPDEST PUSH0 PUSH0 PUSH0 DUP4 DUP2 MSTORE PUSH1 0x20 ADD SWAP1 DUP2 MSTORE PUSH1 0x20 ADD PUSH0 KECCAK256 SWAP1 POP DUP1 PUSH1 0x5 ADD PUSH0 SWAP1 SLOAD SWAP1 PUSH2 0x100 EXP SWAP1 DIV PUSH1 0xFF AND ISZERO PUSH2 0xC76 JUMPI POP PUSH2 0xDBA JUMP JUMPDEST PUSH0 DUP2 PUSH1 0x4 ADD SLOAD TIMESTAMP PUSH2 0xC87 SWAP2 SWAP1 PUSH2 0x1B86 JUMP JUMPDEST SWAP1 POP PUSH0 DUP2 GT ISZERO PUSH2 0xDB7 JUMPI PUSH0 PUSH2 0xCAB DUP4 PUSH1 0x3 ADD PUSH0 SWAP1 SLOAD SWAP1 PUSH2 0x100 EXP SWAP1 DIV PUSH1 0xFF AND PUSH2 0x1045 JUMP JUMPDEST SWAP1 POP PUSH0 PUSH2 0xE10 DUP3 PUSH1 0x40 ADD MLOAD DUP5 PUSH2 0xCC1 SWAP2 SWAP1 PUSH2 0x1DA0 JUMP JUMPDEST PUSH2 0xCCB SWAP2 SWAP1 PUSH2 0x1E0E JUMP JUMPDEST SWAP1 POP DUP1 DUP5 PUSH1 0x1 ADD PUSH0 DUP3 DUP3 SLOAD PUSH2 0xCE0 SWAP2 SWAP1 PUSH2 0x1E3E JUMP JUMPDEST SWAP3 POP POP DUP2 SWAP1 SSTORE POP DUP2 PUSH1 0x20 ADD MLOAD DUP5 PUSH1 0x1 ADD SLOAD GT ISZERO PUSH2 0xD76 JUMPI PUSH0 DUP3 PUSH1 0x20 ADD MLOAD DUP6 PUSH1 0x1 ADD SLOAD PUSH2 0xD0C SWAP2 SWAP1 PUSH2 0x1B86 JUMP JUMPDEST SWAP1 POP DUP3 PUSH1 0x20 ADD MLOAD DUP6 PUSH1 0x1 ADD DUP2 SWAP1 SSTORE POP DUP1 DUP6 PUSH1 0x2 ADD SLOAD GT PUSH2 0xD59 JUMPI PUSH0 DUP6 PUSH1 0x2 ADD DUP2 SWAP1 SSTORE POP PUSH1 0x1 DUP6 PUSH1 0x5 ADD PUSH0 PUSH2 0x100 EXP DUP2 SLOAD DUP2 PUSH1 0xFF MUL NOT AND SWAP1 DUP4 ISZERO ISZERO MUL OR SWAP1 SSTORE POP TIMESTAMP DUP6 PUSH1 0x6 ADD DUP2 SWAP1 SSTORE POP PUSH2 0xD74 JUMP JUMPDEST DUP1 DUP6 PUSH1 0x2 ADD PUSH0 DUP3 DUP3 SLOAD PUSH2 0xD6C SWAP2 SWAP1 PUSH2 0x1B86 JUMP JUMPDEST SWAP3 POP POP DUP2 SWAP1 SSTORE POP JUMPDEST POP JUMPDEST PUSH0 PUSH3 0x15180 DUP5 PUSH2 0xD86 SWAP2 SWAP1 PUSH2 0x1E0E JUMP JUMPDEST SWAP1 POP PUSH0 DUP2 GT ISZERO PUSH2 0xDAA JUMPI DUP1 DUP6 PUSH0 ADD PUSH0 DUP3 DUP3 SLOAD PUSH2 0xDA2 SWAP2 SWAP1 PUSH2 0x1E3E JUMP JUMPDEST SWAP3 POP POP DUP2 SWAP1 SSTORE POP JUMPDEST TIMESTAMP DUP6 PUSH1 0x4 ADD DUP2 SWAP1 SSTORE POP POP POP POP JUMPDEST POP POP JUMPDEST POP JUMP JUMPDEST PUSH1 0x2 PUSH0 SWAP1 SLOAD SWAP1 PUSH2 0x100 EXP SWAP1 DIV PUSH20 0xFFFFFFFFFFFFFFFFFFFFFFFFFFFFFFFFFFFFFFFF AND PUSH20 0xFFFFFFFFFFFFFFFFFFFFFFFFFFFFFFFFFFFFFFFF AND CALLER PUSH20 0xFFFFFFFFFFFFFFFFFFFFFFFFFFFFFFFFFFFFFFFF AND EQ PUSH2 0xE4C JUMPI PUSH1 0x40 MLOAD PUSH32 0x8C379A000000000000000000000000000000000000000000000000000000000 DUP2 MSTORE PUSH1 0x4 ADD PUSH2 0xE43 SWAP1 PUSH2 0x1AD3 JUMP JUMPDEST PUSH1 0x40 MLOAD DUP1 SWAP2 SUB SWAP1 REVERT JUMPDEST PUSH0 PUSH0 PUSH0 DUP4 DUP2 MSTORE PUSH1 0x20 ADD SWAP1 DUP2 MSTORE PUSH1 0x20 ADD PUSH0 KECCAK256 SWAP1 POP DUP1 PUSH1 0x5 ADD PUSH0 SWAP1 SLOAD SWAP1 PUSH2 0x100 EXP SWAP1 DIV PUSH1 0xFF AND ISZERO PUSH2 0xEB0 JUMPI PUSH1 0x40 MLOAD PUSH32 0x8C379A000000000000000000000000000000000000000000000000000000000 DUP2 MSTORE PUSH1 0x4 ADD PUSH2 0xEA7 SWAP1 PUSH2 0x1EE1 JUMP JUMPDEST PUSH1 0x40 MLOAD DUP1 SWAP2 SUB SWAP1 REVERT JUMPDEST PUSH2 0xEC9 DUP2 PUSH1 0x3 ADD PUSH0 SWAP1 SLOAD SWAP1 PUSH2 0x100 EXP SWAP1 DIV PUSH1 0xFF AND PUSH2 0x1045 JUMP JUMPDEST PUSH0 ADD MLOAD DUP2 PUSH1 0x2 ADD DUP2 SWAP1 SSTORE POP POP POP JUMP JUMPDEST PUSH0 PUSH1 0x20 MSTORE DUP1 PUSH0 MSTORE PUSH1 0x40 PUSH0 KECCAK256 PUSH0 SWAP2 POP SWAP1 POP DUP1 PUSH0 ADD SLOAD SWAP1 DUP1 PUSH1 0x1 ADD SLOAD SWAP1 DUP1 PUSH1 0x2 ADD SLOAD SWAP1 DUP1 PUSH1 0x3 ADD PUSH0 SWAP1 SLOAD SWAP1 PUSH2 0x100 EXP SWAP1 DIV PUSH1 0xFF AND SWAP1 DUP1 PUSH1 0x4 ADD SLOAD SWAP1 DUP1 PUSH1 0x5 ADD PUSH0 SWAP1 SLOAD SWAP1 PUSH2 0x100 EXP SWAP1 DIV PUSH1 0xFF AND SWAP1 DUP1 PUSH1 0x6 ADD SLOAD SWAP1 POP DUP8 JUMP JUMPDEST PUSH1 0x60 PUSH0 PUSH0 PUSH0 DUP5 DUP2 MSTORE PUSH1 0x20 ADD SWAP1 DUP2 MSTORE PUSH1 0x20 ADD PUSH0 KECCAK256 SWAP1 POP PUSH2 0xF5B DUP2 PUSH1 0x3 ADD PUSH0 SWAP1 SLOAD SWAP1 PUSH2 0x100 EXP SWAP1 DIV PUSH1 0xFF AND PUSH2 0x1045 JUMP JUMPDEST PUSH1 0x80 ADD MLOAD SWAP2 POP POP SWAP2 SWAP1 POP JUMP JUMPDEST PUSH2 0xF6F PUSH2 0x15E8 JUMP JUMPDEST PUSH0 PUSH0 PUSH0 DUP5 DUP2 MSTORE PUSH1 0x20 ADD SWAP1 DUP2 MSTORE PUSH1 0x20 ADD PUSH0 KECCAK256 SWAP1 POP PUSH2 0xF9B DUP2 PUSH1 0x3 ADD PUSH0 SWAP1 SLOAD SWAP1 PUSH2 0x100 EXP SWAP1 DIV PUSH1 0xFF AND PUSH2 0x1045 JUMP JUMPDEST SWAP2 POP PUSH1 0x3 PUSH0 DUP5 DUP2 MSTORE PUSH1 0x20 ADD SWAP1 DUP2 MSTORE PUSH1 0x20 ADD PUSH0 KECCAK256 PUSH0 SWAP1 SLOAD SWAP1 PUSH2 0x100 EXP SWAP1 DIV PUSH1 0xFF AND PUSH2 0x1040 JUMPI PUSH0 PUSH2 0xFD9 DUP3 PUSH1 0x3 ADD PUSH0 SWAP1 SLOAD SWAP1 PUSH2 0x100 EXP SWAP1 DIV PUSH1 0xFF AND PUSH2 0x1045 JUMP JUMPDEST PUSH1 0x60 ADD MLOAD SWAP1 POP PUSH0 PUSH1 0x64 TIMESTAMP DUP7 PUSH1 0x40 MLOAD PUSH1 0x20 ADD PUSH2 0xFF5 SWAP3 SWAP2 SWAP1 PUSH2 0x1F1F JUMP JUMPDEST PUSH1 0x40 MLOAD PUSH1 0x20 DUP2 DUP4 SUB SUB DUP2 MSTORE SWAP1 PUSH1 0x40 MSTORE DUP1 MLOAD SWAP1 PUSH1 0x20 ADD KECCAK256 PUSH0 SHR PUSH2 0x1017 SWAP2 SWAP1 PUSH2 0x1F4A JUMP JUMPDEST SWAP1 POP DUP2 DUP2 LT ISZERO PUSH2 0x103D JUMPI PUSH1 0x19 DUP4 PUSH1 0x2 ADD PUSH0 DUP3 DUP3 SLOAD PUSH2 0x1035 SWAP2 SWAP1 PUSH2 0x1B86 JUMP JUMPDEST SWAP3 POP POP DUP2 SWAP1 SSTORE POP JUMPDEST POP POP JUMPDEST POP POP POP JUMP JUMPDEST PUSH2 0x104D PUSH2 0x15E8 JUMP JUMPDEST PUSH0 PUSH1 0xA DUP2 GT ISZERO PUSH2 0x1060 JUMPI PUSH2 0x105F PUSH2 0x1818 JUMP JUMPDEST JUMPDEST DUP3 PUSH1 0xA DUP2 GT ISZERO PUSH2 0x1073 JUMPI PUSH2 0x1072 PUSH2 0x1818 JUMP JUMPDEST JUMPDEST SUB PUSH2 0x10C2 JUMPI PUSH1 0x40 MLOAD DUP1 PUSH1 0xA0 ADD PUSH1 0x40 MSTORE DUP1 PUSH1 0xC8 DUP2 MSTORE PUSH1 0x20 ADD PUSH1 0x96 DUP2 MSTORE PUSH1 0x20 ADD PUSH1 0x3 DUP2 MSTORE PUSH1 0x20 ADD PUSH1 0x1 DUP2 MSTORE PUSH1 0x20 ADD PUSH1 0x40 MLOAD DUP1 PUSH1 0x80 ADD PUSH1 0x40 MSTORE DUP1 PUSH1 0x5D DUP2 MSTORE PUSH1 0x20 ADD PUSH2 0x2040 PUSH1 0x5D SWAP2 CODECOPY DUP2 MSTORE POP SWAP1 POP PUSH2 0x1599 JUMP JUMPDEST PUSH1 0x1 PUSH1 0xA DUP2 GT ISZERO PUSH2 0x10D6 JUMPI PUSH2 0x10D5 PUSH2 0x1818 JUMP JUMPDEST JUMPDEST DUP3 PUSH1 0xA DUP2 GT ISZERO PUSH2 0x10E9 JUMPI PUSH2 0x10E8 PUSH2 0x1818 JUMP JUMPDEST JUMPDEST SUB PUSH2 0x1138 JUMPI PUSH1 0x40 MLOAD DUP1 PUSH1 0xA0 ADD PUSH1 0x40 MSTORE DUP1 PUSH1 0xDC DUP2 MSTORE PUSH1 0x20 ADD PUSH1 0xC8 DUP2 MSTORE PUSH1 0x20 ADD PUSH1 0x2 DUP2 MSTORE PUSH1 0x20 ADD PUSH1 0x5 DUP2 MSTORE PUSH1 0x20 ADD PUSH1 0x40 MLOAD DUP1 PUSH1 0x80 ADD PUSH1 0x40 MSTORE DUP1 PUSH1 0x5D DUP2 MSTORE PUSH1 0x20 ADD PUSH2 0x226E PUSH1 0x5D SWAP2 CODECOPY DUP2 MSTORE POP SWAP1 POP PUSH2 0x1599 JUMP JUMPDEST PUSH1 0x2 PUSH1 0xA DUP2 GT ISZERO PUSH2 0x114C JUMPI PUSH2 0x114B PUSH2 0x1818 JUMP JUMPDEST JUMPDEST DUP3 PUSH1 0xA DUP2 GT ISZERO PUSH2 0x115F JUMPI PUSH2 0x115E PUSH2 0x1818 JUMP JUMPDEST JUMPDEST SUB PUSH2 0x11AE JUMPI PUSH1 0x40 MLOAD DUP1 PUSH1 0xA0 ADD PUSH1 0x40 MSTORE DUP1 PUSH1 0x50 DUP2 MSTORE PUSH1 0x20 ADD PUSH1 0x50 DUP2 MSTORE PUSH1 0x20 ADD PUSH1 0x3 DUP2 MSTORE PUSH1 0x20 ADD PUSH1 0x6 DUP2 MSTORE PUSH1 0x20 ADD PUSH1 0x40 MLOAD DUP1 PUSH1 0x80 ADD PUSH1 0x40 MSTORE DUP1 PUSH1 0x5D DUP2 MSTORE PUSH1 0x20 ADD PUSH2 0x20FA PUSH1 0x5D SWAP2 CODECOPY DUP2 MSTORE POP SWAP1 POP PUSH2 0x1599 JUMP JUMPDEST PUSH1 0xA DUP1 DUP2 GT ISZERO PUSH2 0x11C1 JUMPI PUSH2 0x11C0 PUSH2 0x1818 JUMP JUMPDEST JUMPDEST DUP3 PUSH1 0xA DUP2 GT ISZERO PUSH2 0x11D4 JUMPI PUSH2 0x11D3 PUSH2 0x1818 JUMP JUMPDEST JUMPDEST SUB PUSH2 0x1224 JUMPI PUSH1 0x40 MLOAD DUP1 PUSH1 0xA0 ADD PUSH1 0x40 MSTORE DUP1 PUSH2 0x12C DUP2 MSTORE PUSH1 0x20 ADD PUSH2 0x12C DUP2 MSTORE PUSH1 0x20 ADD PUSH1 0x1 DUP2 MSTORE PUSH1 0x20 ADD PUSH0 DUP2 MSTORE PUSH1 0x20 ADD PUSH1 0x40 MLOAD DUP1 PUSH1 0x80 ADD PUSH1 0x40 MSTORE DUP1 PUSH1 0x5D DUP2 MSTORE PUSH1 0x20 ADD PUSH2 0x2385 PUSH1 0x5D SWAP2 CODECOPY DUP2 MSTORE POP SWAP1 POP PUSH2 0x1599 JUMP JUMPDEST PUSH1 0x3 PUSH1 0xA DUP2 GT ISZERO PUSH2 0x1238 JUMPI PUSH2 0x1237 PUSH2 0x1818 JUMP JUMPDEST JUMPDEST DUP3 PUSH1 0xA DUP2 GT ISZERO PUSH2 0x124B JUMPI PUSH2 0x124A PUSH2 0x1818 JUMP JUMPDEST JUMPDEST SUB PUSH2 0x129A JUMPI PUSH1 0x40 MLOAD DUP1 PUSH1 0xA0 ADD PUSH1 0x40 MSTORE DUP1 PUSH1 0xB4 DUP2 MSTORE PUSH1 0x20 ADD PUSH1 0x5A DUP2 MSTORE PUSH1 0x20 ADD PUSH1 0x2 DUP2 MSTORE PUSH1 0x20 ADD PUSH1 0x4 DUP2 MSTORE PUSH1 0x20 ADD PUSH1 0x40 MLOAD DUP1 PUSH1 0x80 ADD PUSH1 0x40 MSTORE DUP1 PUSH1 0x5D DUP2 MSTORE PUSH1 0x20 ADD PUSH2 0x209D PUSH1 0x5D SWAP2 CODECOPY DUP2 MSTORE POP SWAP1 POP PUSH2 0x1599 JUMP JUMPDEST PUSH1 0x4 PUSH1 0xA DUP2 GT ISZERO PUSH2 0x12AE JUMPI PUSH2 0x12AD PUSH2 0x1818 JUMP JUMPDEST JUMPDEST DUP3 PUSH1 0xA DUP2 GT ISZERO PUSH2 0x12C1 JUMPI PUSH2 0x12C0 PUSH2 0x1818 JUMP JUMPDEST JUMPDEST SUB PUSH2 0x1310 JUMPI PUSH1 0x40 MLOAD DUP1 PUSH1 0xA0 ADD PUSH1 0x40 MSTORE DUP1 PUSH1 0x50 DUP2 MSTORE PUSH1 0x20 ADD PUSH1 0x46 DUP2 MSTORE PUSH1 0x20 ADD PUSH1 0x2 DUP2 MSTORE PUSH1 0x20 ADD PUSH1 0x8 DUP2 MSTORE PUSH1 0x20 ADD PUSH1 0x40 MLOAD DUP1 PUSH1 0x80 ADD PUSH1 0x40 MSTORE DUP1 PUSH1 0x5D DUP2 MSTORE PUSH1 0x20 ADD PUSH2 0x2211 PUSH1 0x5D SWAP2 CODECOPY DUP2 MSTORE POP SWAP1 POP PUSH2 0x1599 JUMP JUMPDEST PUSH1 0x5 PUSH1 0xA DUP2 GT ISZERO PUSH2 0x1324 JUMPI PUSH2 0x1323 PUSH2 0x1818 JUMP JUMPDEST JUMPDEST DUP3 PUSH1 0xA DUP2 GT ISZERO PUSH2 0x1337 JUMPI PUSH2 0x1336 PUSH2 0x1818 JUMP JUMPDEST JUMPDEST SUB PUSH2 0x1386 JUMPI PUSH1 0x40 MLOAD DUP1 PUSH1 0xA0 ADD PUSH1 0x40 MSTORE DUP1 PUSH1 0x32 DUP2 MSTORE PUSH1 0x20 ADD PUSH1 0x3C DUP2 MSTORE PUSH1 0x20 ADD PUSH1 0x4 DUP2 MSTORE PUSH1 0x20 ADD PUSH1 0x5 DUP2 MSTORE PUSH1 0x20 ADD PUSH1 0x40 MLOAD DUP1 PUSH1 0x80 ADD PUSH1 0x40 MSTORE DUP1 PUSH1 0x5D DUP2 MSTORE PUSH1 0x20 ADD PUSH2 0x22CB PUSH1 0x5D SWAP2 CODECOPY DUP2 MSTORE POP SWAP1 POP PUSH2 0x1599 JUMP JUMPDEST PUSH1 0x6 PUSH1 0xA DUP2 GT ISZERO PUSH2 0x139A JUMPI PUSH2 0x1399 PUSH2 0x1818 JUMP JUMPDEST JUMPDEST DUP3 PUSH1 0xA DUP2 GT ISZERO PUSH2 0x13AD JUMPI PUSH2 0x13AC PUSH2 0x1818 JUMP JUMPDEST JUMPDEST SUB PUSH2 0x13FC JUMPI PUSH1 0x40 MLOAD DUP1 PUSH1 0xA0 ADD PUSH1 0x40 MSTORE DUP1 PUSH1 0x37 DUP2 MSTORE PUSH1 0x20 ADD PUSH1 0x28 DUP2 MSTORE PUSH1 0x20 ADD PUSH1 0x3 DUP2 MSTORE PUSH1 0x20 ADD PUSH1 0x4 DUP2 MSTORE PUSH1 0x20 ADD PUSH1 0x40 MLOAD DUP1 PUSH1 0x80 ADD PUSH1 0x40 MSTORE DUP1 PUSH1 0x5D DUP2 MSTORE PUSH1 0x20 ADD PUSH2 0x2328 PUSH1 0x5D SWAP2 CODECOPY DUP2 MSTORE POP SWAP1 POP PUSH2 0x1599 JUMP JUMPDEST PUSH1 0x7 PUSH1 0xA DUP2 GT ISZERO PUSH2 0x1410 JUMPI PUSH2 0x140F PUSH2 0x1818 JUMP JUMPDEST JUMPDEST DUP3 PUSH1 0xA DUP2 GT ISZERO PUSH2 0x1423 JUMPI PUSH2 0x1422 PUSH2 0x1818 JUMP JUMPDEST JUMPDEST SUB PUSH2 0x1472 JUMPI PUSH1 0x40 MLOAD DUP1 PUSH1 0xA0 ADD PUSH1 0x40 MSTORE DUP1 PUSH1 0x4E DUP2 MSTORE PUSH1 0x20 ADD PUSH1 0x41 DUP2 MSTORE PUSH1 0x20 ADD PUSH1 0x2 DUP2 MSTORE PUSH1 0x20 ADD PUSH1 0x4 DUP2 MSTORE PUSH1 0x20 ADD PUSH1 0x40 MLOAD DUP1 PUSH1 0x80 ADD PUSH1 0x40 MSTORE DUP1 PUSH1 0x5D DUP2 MSTORE PUSH1 0x20 ADD PUSH2 0x1FE3 PUSH1 0x5D SWAP2 CODECOPY DUP2 MSTORE POP SWAP1 POP PUSH2 0x1599 JUMP JUMPDEST PUSH1 0x8 PUSH1 0xA DUP2 GT ISZERO PUSH2 0x1486 JUMPI PUSH2 0x1485 PUSH2 0x1818 JUMP JUMPDEST JUMPDEST DUP3 PUSH1 0xA DUP2 GT ISZERO PUSH2 0x1499 JUMPI PUSH2 0x1498 PUSH2 0x1818 JUMP JUMPDEST JUMPDEST SUB PUSH2 0x14E8 JUMPI PUSH1 0x40 MLOAD DUP1 PUSH1 0xA0 ADD PUSH1 0x40 MSTORE DUP1 PUSH1 0x96 DUP2 MSTORE PUSH1 0x20 ADD PUSH1 0x64 DUP2 MSTORE PUSH1 0x20 ADD PUSH1 0x4 DUP2 MSTORE PUSH1 0x20 ADD PUSH1 0x3 DUP2 MSTORE PUSH1 0x20 ADD PUSH1 0x40 MLOAD DUP1 PUSH1 0x80 ADD PUSH1 0x40 MSTORE DUP1 PUSH1 0x5D DUP2 MSTORE PUSH1 0x20 ADD PUSH2 0x21B4 PUSH1 0x5D SWAP2 CODECOPY DUP2 MSTORE POP SWAP1 POP PUSH2 0x1599 JUMP JUMPDEST PUSH1 0x9 PUSH1 0xA DUP2 GT ISZERO PUSH2 0x14FC JUMPI PUSH2 0x14FB PUSH2 0x1818 JUMP JUMPDEST JUMPDEST DUP3 PUSH1 0xA DUP2 GT ISZERO PUSH2 0x150F JUMPI PUSH2 0x150E PUSH2 0x1818 JUMP JUMPDEST JUMPDEST SUB PUSH2 0x155E JUMPI PUSH1 0x40 MLOAD DUP1 PUSH1 0xA0 ADD PUSH1 0x40 MSTORE DUP1 PUSH1 0x23 DUP2 MSTORE PUSH1 0x20 ADD PUSH1 0x42 DUP2 MSTORE PUSH1 0x20 ADD PUSH1 0x4 DUP2 MSTORE PUSH1 0x20 ADD PUSH1 0x5 DUP2 MSTORE PUSH1 0x20 ADD PUSH1 0x40 MLOAD DUP1 PUSH1 0x80 ADD PUSH1 0x40 MSTORE DUP1 PUSH1 0x5D DUP2 MSTORE PUSH1 0x20 ADD PUSH2 0x2157 PUSH1 0x5D SWAP2 CODECOPY DUP2 MSTORE POP SWAP1 POP PUSH2 0x1599 JUMP JUMPDEST PUSH1 0x40 MLOAD PUSH32 0x8C379A000000000000000000000000000000000000000000000000000000000 DUP2 MSTORE PUSH1 0x4 ADD PUSH2 0x1590 SWAP1 PUSH2 0x1FC4 JUMP JUMPDEST PUSH1 0x40 MLOAD DUP1 SWAP2 SUB SWAP1 REVERT JUMPDEST SWAP2 SWAP1 POP JUMP JUMPDEST PUSH1 0x40 MLOAD DUP1 PUSH1 0xE0 ADD PUSH1 0x40 MSTORE DUP1 PUSH0 DUP2 MSTORE PUSH1 0x20 ADD PUSH0 DUP2 MSTORE PUSH1 0x20 ADD PUSH0 DUP2 MSTORE PUSH1 0x20 ADD PUSH0 PUSH1 0xA DUP2 GT ISZERO PUSH2 0x15CE JUMPI PUSH2 0x15CD PUSH2 0x1818 JUMP JUMPDEST JUMPDEST DUP2 MSTORE PUSH1 0x20 ADD PUSH0 DUP2 MSTORE PUSH1 0x20 ADD PUSH0 ISZERO ISZERO DUP2 MSTORE PUSH1 0x20 ADD PUSH0 DUP2 MSTORE POP SWAP1 JUMP JUMPDEST PUSH1 0x40 MLOAD DUP1 PUSH1 0xA0 ADD PUSH1 0x40 MSTORE DUP1 PUSH0 DUP2 MSTORE PUSH1 0x20 ADD PUSH0 DUP2 MSTORE PUSH1 0x20 ADD PUSH0 DUP2 MSTORE PUSH1 0x20 ADD PUSH0 DUP2 MSTORE PUSH1 0x20 ADD PUSH1 0x60 DUP2 MSTORE POP SWAP1 JUMP JUMPDEST PUSH0 PUSH0 REVERT JUMPDEST PUSH0 DUP2 SWAP1 POP SWAP2 SWAP1 POP JUMP JUMPDEST PUSH2 0x1629 DUP2 PUSH2 0x1617 JUMP JUMPDEST DUP2 EQ PUSH2 0x1633 JUMPI PUSH0 PUSH0 REVERT JUMPDEST POP JUMP JUMPDEST PUSH0 DUP2 CALLDATALOAD SWAP1 POP PUSH2 0x1644 DUP2 PUSH2 0x1620 JUMP JUMPDEST SWAP3 SWAP2 POP POP JUMP JUMPDEST PUSH0 PUSH1 0x20 DUP3 DUP5 SUB SLT ISZERO PUSH2 0x165F JUMPI PUSH2 0x165E PUSH2 0x1613 JUMP JUMPDEST JUMPDEST PUSH0 PUSH2 0x166C DUP5 DUP3 DUP6 ADD PUSH2 0x1636 JUMP JUMPDEST SWAP2 POP POP SWAP3 SWAP2 POP POP JUMP JUMPDEST PUSH0 DUP2 ISZERO ISZERO SWAP1 POP SWAP2 SWAP1 POP JUMP JUMPDEST PUSH2 0x1689 DUP2 PUSH2 0x1675 JUMP JUMPDEST DUP3 MSTORE POP POP JUMP JUMPDEST PUSH0 PUSH1 0x20 DUP3 ADD SWAP1 POP PUSH2 0x16A2 PUSH0 DUP4 ADD DUP5 PUSH2 0x1680 JUMP JUMPDEST SWAP3 SWAP2 POP POP JUMP JUMPDEST PUSH0 PUSH0 PUSH1 0x40 DUP4 DUP6 SUB SLT ISZERO PUSH2 0x16BE JUMPI PUSH2 0x16BD PUSH2 0x1613 JUMP JUMPDEST JUMPDEST PUSH0 PUSH2 0x16CB DUP6 DUP3 DUP7 ADD PUSH2 0x1636 JUMP JUMPDEST SWAP3 POP POP PUSH1 0x20 PUSH2 0x16DC DUP6 DUP3 DUP7 ADD PUSH2 0x1636 JUMP JUMPDEST SWAP2 POP POP SWAP3 POP SWAP3 SWAP1 POP JUMP JUMPDEST PUSH1 0xB DUP2 LT PUSH2 0x16F2 JUMPI PUSH0 PUSH0 REVERT JUMPDEST POP JUMP JUMPDEST PUSH0 DUP2 CALLDATALOAD SWAP1 POP PUSH2 0x1703 DUP2 PUSH2 0x16E6 JUMP JUMPDEST SWAP3 SWAP2 POP POP JUMP JUMPDEST PUSH0 PUSH1 0x20 DUP3 DUP5 SUB SLT ISZERO PUSH2 0x171E JUMPI PUSH2 0x171D PUSH2 0x1613 JUMP JUMPDEST JUMPDEST PUSH0 PUSH2 0x172B DUP5 DUP3 DUP6 ADD PUSH2 0x16F5 JUMP JUMPDEST SWAP2 POP POP SWAP3 SWAP2 POP POP JUMP JUMPDEST PUSH2 0x173D DUP2 PUSH2 0x1617 JUMP JUMPDEST DUP3 MSTORE POP POP JUMP JUMPDEST PUSH0 PUSH1 0x20 DUP3 ADD SWAP1 POP PUSH2 0x1756 PUSH0 DUP4 ADD DUP5 PUSH2 0x1734 JUMP JUMPDEST SWAP3 SWAP2 POP POP JUMP JUMPDEST PUSH0 PUSH20 0xFFFFFFFFFFFFFFFFFFFFFFFFFFFFFFFFFFFFFFFF DUP3 AND SWAP1 POP SWAP2 SWAP1 POP JUMP JUMPDEST PUSH0 PUSH2 0x1785 DUP3 PUSH2 0x175C JUMP JUMPDEST SWAP1 POP SWAP2 SWAP1 POP JUMP JUMPDEST PUSH2 0x1795 DUP2 PUSH2 0x177B JUMP JUMPDEST DUP2 EQ PUSH2 0x179F JUMPI PUSH0 PUSH0 REVERT JUMPDEST POP JUMP JUMPDEST PUSH0 DUP2 CALLDATALOAD SWAP1 POP PUSH2 0x17B0 DUP2 PUSH2 0x178C JUMP JUMPDEST SWAP3 SWAP2 POP POP JUMP JUMPDEST PUSH0 PUSH1 0x20 DUP3 DUP5 SUB SLT ISZERO PUSH2 0x17CB JUMPI PUSH2 0x17CA PUSH2 0x1613 JUMP JUMPDEST JUMPDEST PUSH0 PUSH2 0x17D8 DUP5 DUP3 DUP6 ADD PUSH2 0x17A2 JUMP JUMPDEST SWAP2 POP POP SWAP3 SWAP2 POP POP JUMP JUMPDEST PUSH2 0x17EA DUP2 PUSH2 0x177B JUMP JUMPDEST DUP3 MSTORE POP POP JUMP JUMPDEST PUSH0 PUSH1 0x20 DUP3 ADD SWAP1 POP PUSH2 0x1803 PUSH0 DUP4 ADD DUP5 PUSH2 0x17E1 JUMP JUMPDEST SWAP3 SWAP2 POP POP JUMP JUMPDEST PUSH2 0x1812 DUP2 PUSH2 0x1617 JUMP JUMPDEST DUP3 MSTORE POP POP JUMP JUMPDEST PUSH32 0x4E487B7100000000000000000000000000000000000000000000000000000000 PUSH0 MSTORE PUSH1 0x21 PUSH1 0x4 MSTORE PUSH1 0x24 PUSH0 REVERT JUMPDEST PUSH1 0xB DUP2 LT PUSH2 0x1856 JUMPI PUSH2 0x1855 PUSH2 0x1818 JUMP JUMPDEST JUMPDEST POP JUMP JUMPDEST PUSH0 DUP2 SWAP1 POP PUSH2 0x1866 DUP3 PUSH2 0x1845 JUMP JUMPDEST SWAP2 SWAP1 POP JUMP JUMPDEST PUSH0 PUSH2 0x1875 DUP3 PUSH2 0x1859 JUMP JUMPDEST SWAP1 POP SWAP2 SWAP1 POP JUMP JUMPDEST PUSH2 0x1885 DUP2 PUSH2 0x186B JUMP JUMPDEST DUP3 MSTORE POP POP JUMP JUMPDEST PUSH2 0x1894 DUP2 PUSH2 0x1675 JUMP JUMPDEST DUP3 MSTORE POP POP JUMP JUMPDEST PUSH1 0xE0 DUP3 ADD PUSH0 DUP3 ADD MLOAD PUSH2 0x18AE PUSH0 DUP6 ADD DUP3 PUSH2 0x1809 JUMP JUMPDEST POP PUSH1 0x20 DUP3 ADD MLOAD PUSH2 0x18C1 PUSH1 0x20 DUP6 ADD DUP3 PUSH2 0x1809 JUMP JUMPDEST POP PUSH1 0x40 DUP3 ADD MLOAD PUSH2 0x18D4 PUSH1 0x40 DUP6 ADD DUP3 PUSH2 0x1809 JUMP JUMPDEST POP PUSH1 0x60 DUP3 ADD MLOAD PUSH2 0x18E7 PUSH1 0x60 DUP6 ADD DUP3 PUSH2 0x187C JUMP JUMPDEST POP PUSH1 0x80 DUP3 ADD MLOAD PUSH2 0x18FA PUSH1 0x80 DUP6 ADD DUP3 PUSH2 0x1809 JUMP JUMPDEST POP PUSH1 0xA0 DUP3 ADD MLOAD PUSH2 0x190D PUSH1 0xA0 DUP6 ADD DUP3 PUSH2 0x188B JUMP JUMPDEST POP PUSH1 0xC0 DUP3 ADD MLOAD PUSH2 0x1920 PUSH1 0xC0 DUP6 ADD DUP3 PUSH2 0x1809 JUMP JUMPDEST POP POP POP POP JUMP JUMPDEST PUSH0 PUSH1 0xE0 DUP3 ADD SWAP1 POP PUSH2 0x1939 PUSH0 DUP4 ADD DUP5 PUSH2 0x189A JUMP JUMPDEST SWAP3 SWAP2 POP POP JUMP JUMPDEST PUSH0 PUSH0 PUSH1 0x40 DUP4 DUP6 SUB SLT ISZERO PUSH2 0x1955 JUMPI PUSH2 0x1954 PUSH2 0x1613 JUMP JUMPDEST JUMPDEST PUSH0 PUSH2 0x1962 DUP6 DUP3 DUP7 ADD PUSH2 0x1636 JUMP JUMPDEST SWAP3 POP POP PUSH1 0x20 PUSH2 0x1973 DUP6 DUP3 DUP7 ADD PUSH2 0x17A2 JUMP JUMPDEST SWAP2 POP POP SWAP3 POP SWAP3 SWAP1 POP JUMP JUMPDEST PUSH2 0x1986 DUP2 PUSH2 0x186B JUMP JUMPDEST DUP3 MSTORE POP POP JUMP JUMPDEST PUSH0 PUSH1 0xE0 DUP3 ADD SWAP1 POP PUSH2 0x199F PUSH0 DUP4 ADD DUP11 PUSH2 0x1734 JUMP JUMPDEST PUSH2 0x19AC PUSH1 0x20 DUP4 ADD DUP10 PUSH2 0x1734 JUMP JUMPDEST PUSH2 0x19B9 PUSH1 0x40 DUP4 ADD DUP9 PUSH2 0x1734 JUMP JUMPDEST PUSH2 0x19C6 PUSH1 0x60 DUP4 ADD DUP8 PUSH2 0x197D JUMP JUMPDEST PUSH2 0x19D3 PUSH1 0x80 DUP4 ADD DUP7 PUSH2 0x1734 JUMP JUMPDEST PUSH2 0x19E0 PUSH1 0xA0 DUP4 ADD DUP6 PUSH2 0x1680 JUMP JUMPDEST PUSH2 0x19ED PUSH1 0xC0 DUP4 ADD DUP5 PUSH2 0x1734 JUMP JUMPDEST SWAP9 SWAP8 POP POP POP POP POP POP POP POP JUMP JUMPDEST PUSH0 DUP2 MLOAD SWAP1 POP SWAP2 SWAP1 POP JUMP JUMPDEST PUSH0 DUP3 DUP3 MSTORE PUSH1 0x20 DUP3 ADD SWAP1 POP SWAP3 SWAP2 POP POP JUMP JUMPDEST DUP3 DUP2 DUP4 MCOPY PUSH0 DUP4 DUP4 ADD MSTORE POP POP POP JUMP JUMPDEST PUSH0 PUSH1 0x1F NOT PUSH1 0x1F DUP4 ADD AND SWAP1 POP SWAP2 SWAP1 POP JUMP JUMPDEST PUSH0 PUSH2 0x1A3B DUP3 PUSH2 0x19F9 JUMP JUMPDEST PUSH2 0x1A45 DUP2 DUP6 PUSH2 0x1A03 JUMP JUMPDEST SWAP4 POP PUSH2 0x1A55 DUP2 DUP6 PUSH1 0x20 DUP7 ADD PUSH2 0x1A13 JUMP JUMPDEST PUSH2 0x1A5E DUP2 PUSH2 0x1A21 JUMP JUMPDEST DUP5 ADD SWAP2 POP POP SWAP3 SWAP2 POP POP JUMP JUMPDEST PUSH0 PUSH1 0x20 DUP3 ADD SWAP1 POP DUP2 DUP2 SUB PUSH0 DUP4 ADD MSTORE PUSH2 0x1A81 DUP2 DUP5 PUSH2 0x1A31 JUMP JUMPDEST SWAP1 POP SWAP3 SWAP2 POP POP JUMP JUMPDEST PUSH32 0x4F6E6C79205061726B2063616E2063616C6C2074686973000000000000000000 PUSH0 DUP3 ADD MSTORE POP JUMP JUMPDEST PUSH0 PUSH2 0x1ABD PUSH1 0x17 DUP4 PUSH2 0x1A03 JUMP JUMPDEST SWAP2 POP PUSH2 0x1AC8 DUP3 PUSH2 0x1A89 JUMP JUMPDEST PUSH1 0x20 DUP3 ADD SWAP1 POP SWAP2 SWAP1 POP JUMP JUMPDEST PUSH0 PUSH1 0x20 DUP3 ADD SWAP1 POP DUP2 DUP2 SUB PUSH0 DUP4 ADD MSTORE PUSH2 0x1AEA DUP2 PUSH2 0x1AB1 JUMP JUMPDEST SWAP1 POP SWAP2 SWAP1 POP JUMP JUMPDEST PUSH32 0x43616E6E6F742066656564206120646561642062697264000000000000000000 PUSH0 DUP3 ADD MSTORE POP JUMP JUMPDEST PUSH0 PUSH2 0x1B25 PUSH1 0x17 DUP4 PUSH2 0x1A03 JUMP JUMPDEST SWAP2 POP PUSH2 0x1B30 DUP3 PUSH2 0x1AF1 JUMP JUMPDEST PUSH1 0x20 DUP3 ADD SWAP1 POP SWAP2 SWAP1 POP JUMP JUMPDEST PUSH0 PUSH1 0x20 DUP3 ADD SWAP1 POP DUP2 DUP2 SUB PUSH0 DUP4 ADD MSTORE PUSH2 0x1B52 DUP2 PUSH2 0x1B19 JUMP JUMPDEST SWAP1 POP SWAP2 SWAP1 POP JUMP JUMPDEST PUSH32 0x4E487B7100000000000000000000000000000000000000000000000000000000 PUSH0 MSTORE PUSH1 0x11 PUSH1 0x4 MSTORE PUSH1 0x24 PUSH0 REVERT JUMPDEST PUSH0 PUSH2 0x1B90 DUP3 PUSH2 0x1617 JUMP JUMPDEST SWAP2 POP PUSH2 0x1B9B DUP4 PUSH2 0x1617 JUMP JUMPDEST SWAP3 POP DUP3 DUP3 SUB SWAP1 POP DUP2 DUP2 GT ISZERO PUSH2 0x1BB3 JUMPI PUSH2 0x1BB2 PUSH2 0x1B59 JUMP JUMPDEST JUMPDEST SWAP3 SWAP2 POP POP JUMP JUMPDEST PUSH0 PUSH2 0x1BC3 DUP3 PUSH2 0x1617 JUMP JUMPDEST SWAP2 POP PUSH32 0xFFFFFFFFFFFFFFFFFFFFFFFFFFFFFFFFFFFFFFFFFFFFFFFFFFFFFFFFFFFFFFFF DUP3 SUB PUSH2 0x1BF5 JUMPI PUSH2 0x1BF4 PUSH2 0x1B59 JUMP JUMPDEST JUMPDEST PUSH1 0x1 DUP3 ADD SWAP1 POP SWAP2 SWAP1 POP JUMP JUMPDEST PUSH32 0x5061726B20616C72656164792073657400000000000000000000000000000000 PUSH0 DUP3 ADD MSTORE POP JUMP JUMPDEST PUSH0 PUSH2 0x1C34 PUSH1 0x10 DUP4 PUSH2 0x1A03 JUMP JUMPDEST SWAP2 POP PUSH2 0x1C3F DUP3 PUSH2 0x1C00 JUMP JUMPDEST PUSH1 0x20 DUP3 ADD SWAP1 POP SWAP2 SWAP1 POP JUMP JUMPDEST PUSH0 PUSH1 0x20 DUP3 ADD SWAP1 POP DUP2 DUP2 SUB PUSH0 DUP4 ADD MSTORE PUSH2 0x1C61 DUP2 PUSH2 0x1C28 JUMP JUMPDEST SWAP1 POP SWAP2 SWAP1 POP JUMP JUMPDEST PUSH32 0x4E6F742064656164000000000000000000000000000000000000000000000000 PUSH0 DUP3 ADD MSTORE POP JUMP JUMPDEST PUSH0 PUSH2 0x1C9C PUSH1 0x8 DUP4 PUSH2 0x1A03 JUMP JUMPDEST SWAP2 POP PUSH2 0x1CA7 DUP3 PUSH2 0x1C68 JUMP JUMPDEST PUSH1 0x20 DUP3 ADD SWAP1 POP SWAP2 SWAP1 POP JUMP JUMPDEST PUSH0 PUSH1 0x20 DUP3 ADD SWAP1 POP DUP2 DUP2 SUB PUSH0 DUP4 ADD MSTORE PUSH2 0x1CC9 DUP2 PUSH2 0x1C90 JUMP JUMPDEST SWAP1 POP SWAP2 SWAP1 POP JUMP JUMPDEST PUSH32 0x4E6F7420746865206F776E657200000000000000000000000000000000000000 PUSH0 DUP3 ADD MSTORE POP JUMP JUMPDEST PUSH0 PUSH2 0x1D04 PUSH1 0xD DUP4 PUSH2 0x1A03 JUMP JUMPDEST SWAP2 POP PUSH2 0x1D0F DUP3 PUSH2 0x1CD0 JUMP JUMPDEST PUSH1 0x20 DUP3 ADD SWAP1 POP SWAP2 SWAP1 POP JUMP JUMPDEST PUSH0 PUSH1 0x20 DUP3 ADD SWAP1 POP DUP2 DUP2 SUB PUSH0 DUP4 ADD MSTORE PUSH2 0x1D31 DUP2 PUSH2 0x1CF8 JUMP JUMPDEST SWAP1 POP SWAP2 SWAP1 POP JUMP JUMPDEST PUSH32 0x496E76616C696420616464726573730000000000000000000000000000000000 PUSH0 DUP3 ADD MSTORE POP JUMP JUMPDEST PUSH0 PUSH2 0x1D6C PUSH1 0xF DUP4 PUSH2 0x1A03 JUMP JUMPDEST SWAP2 POP PUSH2 0x1D77 DUP3 PUSH2 0x1D38 JUMP JUMPDEST PUSH1 0x20 DUP3 ADD SWAP1 POP SWAP2 SWAP1 POP JUMP JUMPDEST PUSH0 PUSH1 0x20 DUP3 ADD SWAP1 POP DUP2 DUP2 SUB PUSH0 DUP4 ADD MSTORE PUSH2 0x1D99 DUP2 PUSH2 0x1D60 JUMP JUMPDEST SWAP1 POP SWAP2 SWAP1 POP JUMP JUMPDEST PUSH0 PUSH2 0x1DAA DUP3 PUSH2 0x1617 JUMP JUMPDEST SWAP2 POP PUSH2 0x1DB5 DUP4 PUSH2 0x1617 JUMP JUMPDEST SWAP3 POP DUP3 DUP3 MUL PUSH2 0x1DC3 DUP2 PUSH2 0x1617 JUMP JUMPDEST SWAP2 POP DUP3 DUP3 DIV DUP5 EQ DUP4 ISZERO OR PUSH2 0x1DDA JUMPI PUSH2 0x1DD9 PUSH2 0x1B59 JUMP JUMPDEST JUMPDEST POP SWAP3 SWAP2 POP POP JUMP JUMPDEST PUSH32 0x4E487B7100000000000000000000000000000000000000000000000000000000 PUSH0 MSTORE PUSH1 0x12 PUSH1 0x4 MSTORE PUSH1 0x24 PUSH0 REVERT JUMPDEST PUSH0 PUSH2 0x1E18 DUP3 PUSH2 0x1617 JUMP JUMPDEST SWAP2 POP PUSH2 0x1E23 DUP4 PUSH2 0x1617 JUMP JUMPDEST SWAP3 POP DUP3 PUSH2 0x1E33 JUMPI PUSH2 0x1E32 PUSH2 0x1DE1 JUMP JUMPDEST JUMPDEST DUP3 DUP3 DIV SWAP1 POP SWAP3 SWAP2 POP POP JUMP JUMPDEST PUSH0 PUSH2 0x1E48 DUP3 PUSH2 0x1617 JUMP JUMPDEST SWAP2 POP PUSH2 0x1E53 DUP4 PUSH2 0x1617 JUMP JUMPDEST SWAP3 POP DUP3 DUP3 ADD SWAP1 POP DUP1 DUP3 GT ISZERO PUSH2 0x1E6B JUMPI PUSH2 0x1E6A PUSH2 0x1B59 JUMP JUMPDEST JUMPDEST SWAP3 SWAP2 POP POP JUMP JUMPDEST PUSH32 0x43616E6E6F74206865616C2061206465616420626972643B2072657669766520 PUSH0 DUP3 ADD MSTORE PUSH32 0x6974206669727374000000000000000000000000000000000000000000000000 PUSH1 0x20 DUP3 ADD MSTORE POP JUMP JUMPDEST PUSH0 PUSH2 0x1ECB PUSH1 0x28 DUP4 PUSH2 0x1A03 JUMP JUMPDEST SWAP2 POP PUSH2 0x1ED6 DUP3 PUSH2 0x1E71 JUMP JUMPDEST PUSH1 0x40 DUP3 ADD SWAP1 POP SWAP2 SWAP1 POP JUMP JUMPDEST PUSH0 PUSH1 0x20 DUP3 ADD SWAP1 POP DUP2 DUP2 SUB PUSH0 DUP4 ADD MSTORE PUSH2 0x1EF8 DUP2 PUSH2 0x1EBF JUMP JUMPDEST SWAP1 POP SWAP2 SWAP1 POP JUMP JUMPDEST PUSH0 DUP2 SWAP1 POP SWAP2 SWAP1 POP JUMP JUMPDEST PUSH2 0x1F19 PUSH2 0x1F14 DUP3 PUSH2 0x1617 JUMP JUMPDEST PUSH2 0x1EFF JUMP JUMPDEST DUP3 MSTORE POP POP JUMP JUMPDEST PUSH0 PUSH2 0x1F2A DUP3 DUP6 PUSH2 0x1F08 JUMP JUMPDEST PUSH1 0x20 DUP3 ADD SWAP2 POP PUSH2 0x1F3A DUP3 DUP5 PUSH2 0x1F08 JUMP JUMPDEST PUSH1 0x20 DUP3 ADD SWAP2 POP DUP2 SWAP1 POP SWAP4 SWAP3 POP POP POP JUMP JUMPDEST PUSH0 PUSH2 0x1F54 DUP3 PUSH2 0x1617 JUMP JUMPDEST SWAP2 POP PUSH2 0x1F5F DUP4 PUSH2 0x1617 JUMP JUMPDEST SWAP3 POP DUP3 PUSH2 0x1F6F JUMPI PUSH2 0x1F6E PUSH2 0x1DE1 JUMP JUMPDEST JUMPDEST DUP3 DUP3 MOD SWAP1 POP SWAP3 SWAP2 POP POP JUMP JUMPDEST PUSH32 0x556E6B6E6F776E20737065636965730000000000000000000000000000000000 PUSH0 DUP3 ADD MSTORE POP JUMP JUMPDEST PUSH0 PUSH2 0x1FAE PUSH1 0xF DUP4 PUSH2 0x1A03 JUMP JUMPDEST SWAP2 POP PUSH2 0x1FB9 DUP3 PUSH2 0x1F7A JUMP JUMPDEST PUSH1 0x20 DUP3 ADD SWAP1 POP SWAP2 SWAP1 POP JUMP JUMPDEST PUSH0 PUSH1 0x20 DUP3 ADD SWAP1 POP DUP2 DUP2 SUB PUSH0 DUP4 ADD MSTORE PUSH2 0x1FDB DUP2 PUSH2 0x1FA2 JUMP JUMPDEST SWAP1 POP SWAP2 SWAP1 POP JUMP INVALID PUSH9 0x747470733A2F2F6761 PUSH21 0x657761792E70696E6174612E636C6F75642F697066 PUSH20 0x2F6261666B72656964336D64796D7A736A747564 PUSH14 0x35367A726F766974786F75766773 PUSH11 0x627A7A6B79617273713774 ORIGIN PUSH10 0x32626977796736726874 PUSH18 0x68747470733A2F2F676174657761792E7069 PUSH15 0x6174612E636C6F75642F697066732F PUSH3 0x616679 PUSH3 0x656961 CALLER PUSH13 0x65346173746B6E683270346D62 PUSH12 0x64357734326A353232746E73 PUSH6 0x3477786B3777 CALLDATALOAD PUSH14 0x3777696D6F716470366F757A7079 PUSH9 0x747470733A2F2F6761 PUSH21 0x657761792E70696E6174612E636C6F75642F697066 PUSH20 0x2F6261667962656966786E71727070336166616A PUSH15 0x74726E7779796E75326C63727A766D PUSH5 0x6D73746877 PUSH2 0x6236 PUSH25 0x32776E323377636E62646A6E366D68747470733A2F2F676174 PUSH6 0x7761792E7069 PUSH15 0x6174612E636C6F75642F697066732F PUSH3 0x616679 PUSH3 0x656965 PUSH23 0x377075637A377968377836686169646D7068703569656F PUSH3 0x766366 PUSH5 0x636C6E6C77 PUSH11 0x7161326976733479333537 PUSH17 0x76776D6168747470733A2F2F6761746577 PUSH2 0x792E PUSH17 0x696E6174612E636C6F75642F697066732F PUSH3 0x616679 PUSH3 0x656966 PUSH17 0x616A6269766868656D6A65666769616D6E PUSH23 0x68376F6532376C657874716A376167707A6E6368716575 PUSH11 0x636E343669356361687474 PUSH17 0x733A2F2F676174657761792E70696E6174 PUSH2 0x2E63 PUSH13 0x6F75642F697066732F6261666B PUSH19 0x65696636656E6F32716A6A337863376D656271 PUSH13 0x327336366F6C36797872777837 PUSH8 0x7761767A3434716E ORIGIN PUSH5 0x6C7A33636E PUSH24 0x3766323468747470733A2F2F676174657761792E70696E61 PUSH21 0x612E636C6F75642F697066732F6261667962656962 PUSH4 0x64707A70 PUSH26 0x67366D716165326F676F7775756D796D716D7178623275736E69 PUSH22 0x37356765656A347074723436376F74326E6D68747470 PUSH20 0x3A2F2F676174657761792E70696E6174612E636C PUSH16 0x75642F697066732F6261667962656967 PUSH16 0x686F746F6B366B336F6E76746A797970 PUSH7 0x6E626E7A626373 PUSH16 0x327163697862777A3477683634767032 PUSH15 0x336C71376E6B736168747470733A2F 0x2F PUSH8 0x6174657761792E70 PUSH10 0x6E6174612E636C6F7564 0x2F PUSH10 0x7066732F6261666B7265 PUSH10 0x6461346170737078746E PUSH17 0x6236336F71797A763374696E356F776334 CALLDATALOAD PUSH13 0x6763746B6471763734686A6173 CALLVALUE PUSH7 0x79746F6F6B7461 PUSH9 0x747470733A2F2F6761 PUSH21 0x657761792E70696E6174612E636C6F75642F697066 PUSH20 0x2F6261666B7265696832666D7875336179736372 CALLDATACOPY PUSH25 0x657A3275326173686177696663336F6A34716132366A353663 PUSH9 0x343676657A377A7961 PUSH6 0x6A3468747470 PUSH20 0x3A2F2F676174657761792E70696E6174612E636C PUSH16 0x75642F697066732F6261667962656965 PUSH21 0x626635716F7372796271676B7132636434637A7636 CALLDATASIZE PUSH5 0x7777367374 CALLVALUE PUSH24 0x6A35786C6F7A6534656E6232643578796A36706DA2646970 PUSH7 0x73582212204DB3 0xCE DUP2 REVERT SELFDESTRUCT 0x2F PUSH2 0x4BB7 PREVRANDAO PUSH15 0x8EAA8973618F4AB94E291CE552FC07 MULMOD SWAP15 STOP PUSH29 0x6E64736F6C634300081E00330000000000000000000000000000000000 "
				},
				"gasEstimates": {
					"creation": {
						"codeDepositCost": "1847800",
						"executionCost": "infinite",
						"totalCost": "infinite"
					},
					"external": {
						"birds(uint256)": "infinite",
						"feedBird(uint256,uint256)": "infinite",
						"getBird(uint256)": "infinite",
						"getBirdImage(uint256)": "infinite",
						"healBird(uint256)": "30318",
						"insure(uint256)": "26980",
						"insured(uint256)": "2809",
						"mintBird(uint8)": "infinite",
						"nextId()": "2492",
						"ownerOf(uint256)": "2916",
						"parkContract()": "2553",
						"revive(uint256)": "86766",
						"setParkContract(address)": "26929",
						"transferBird(uint256,address)": "29498",
						"updateHungerAndAge(uint256)": "infinite"
					},
					"internal": {
						"randomPoisoning(uint256)": "infinite"
					}
				},
				"methodIdentifiers": {
					"birds(uint256)": "ec1c5955",
					"feedBird(uint256,uint256)": "1942d199",
					"getBird(uint256)": "6ec88bbd",
					"getBirdImage(uint256)": "f64ff064",
					"healBird(uint256)": "bff998f4",
					"insure(uint256)": "49b1a0bf",
					"insured(uint256)": "16cb4a05",
					"mintBird(uint8)": "4d2d7881",
					"nextId()": "61b8ce8c",
					"ownerOf(uint256)": "6352211e",
					"parkContract()": "72680a77",
					"revive(uint256)": "8baecc21",
					"setParkContract(address)": "4e9c7df8",
					"transferBird(uint256,address)": "8c652f95",
					"updateHungerAndAge(uint256)": "a2b7ce6f"
				}
			},
			"storageLayout": {
				"storage": [
					{
						"astId": 27,
						"contract": "contracts/Ptak.sol:Ptak",
						"label": "birds",
						"offset": 0,
						"slot": "0",
						"type": "t_mapping(t_uint256,t_struct(BirdData)22_storage)"
					},
					{
						"astId": 29,
						"contract": "contracts/Ptak.sol:Ptak",
						"label": "nextId",
						"offset": 0,
						"slot": "1",
						"type": "t_uint256"
					},
					{
						"astId": 31,
						"contract": "contracts/Ptak.sol:Ptak",
						"label": "parkContract",
						"offset": 0,
						"slot": "2",
						"type": "t_address"
					},
					{
						"astId": 35,
						"contract": "contracts/Ptak.sol:Ptak",
						"label": "insured",
						"offset": 0,
						"slot": "3",
						"type": "t_mapping(t_uint256,t_bool)"
					},
					{
						"astId": 39,
						"contract": "contracts/Ptak.sol:Ptak",
						"label": "ownerOf",
						"offset": 0,
						"slot": "4",
						"type": "t_mapping(t_uint256,t_address)"
					}
				],
				"types": {
					"t_address": {
						"encoding": "inplace",
						"label": "address",
						"numberOfBytes": "20"
					},
					"t_bool": {
						"encoding": "inplace",
						"label": "bool",
						"numberOfBytes": "1"
					},
					"t_enum(Species)585": {
						"encoding": "inplace",
						"label": "enum SpeciesLibrary.Species",
						"numberOfBytes": "1"
					},
					"t_mapping(t_uint256,t_address)": {
						"encoding": "mapping",
						"key": "t_uint256",
						"label": "mapping(uint256 => address)",
						"numberOfBytes": "32",
						"value": "t_address"
					},
					"t_mapping(t_uint256,t_bool)": {
						"encoding": "mapping",
						"key": "t_uint256",
						"label": "mapping(uint256 => bool)",
						"numberOfBytes": "32",
						"value": "t_bool"
					},
					"t_mapping(t_uint256,t_struct(BirdData)22_storage)": {
						"encoding": "mapping",
						"key": "t_uint256",
						"label": "mapping(uint256 => struct Ptak.BirdData)",
						"numberOfBytes": "32",
						"value": "t_struct(BirdData)22_storage"
					},
					"t_struct(BirdData)22_storage": {
						"encoding": "inplace",
						"label": "struct Ptak.BirdData",
						"members": [
							{
								"astId": 8,
								"contract": "contracts/Ptak.sol:Ptak",
								"label": "age",
								"offset": 0,
								"slot": "0",
								"type": "t_uint256"
							},
							{
								"astId": 10,
								"contract": "contracts/Ptak.sol:Ptak",
								"label": "hunger",
								"offset": 0,
								"slot": "1",
								"type": "t_uint256"
							},
							{
								"astId": 12,
								"contract": "contracts/Ptak.sol:Ptak",
								"label": "health",
								"offset": 0,
								"slot": "2",
								"type": "t_uint256"
							},
							{
								"astId": 15,
								"contract": "contracts/Ptak.sol:Ptak",
								"label": "species",
								"offset": 0,
								"slot": "3",
								"type": "t_enum(Species)585"
							},
							{
								"astId": 17,
								"contract": "contracts/Ptak.sol:Ptak",
								"label": "lastUpdateTime",
								"offset": 0,
								"slot": "4",
								"type": "t_uint256"
							},
							{
								"astId": 19,
								"contract": "contracts/Ptak.sol:Ptak",
								"label": "isDead",
								"offset": 0,
								"slot": "5",
								"type": "t_bool"
							},
							{
								"astId": 21,
								"contract": "contracts/Ptak.sol:Ptak",
								"label": "deathTimestamp",
								"offset": 0,
								"slot": "6",
								"type": "t_uint256"
							}
						],
						"numberOfBytes": "224"
					},
					"t_uint256": {
						"encoding": "inplace",
						"label": "uint256",
						"numberOfBytes": "32"
					}
				}
			},
			"userdoc": {
				"kind": "user",
				"methods": {},
				"version": 1
			}
		}
	}
}