{
	"contracts/Ptak.sol": {
		"Ptak": {
			"abi": [
				{
					"inputs": [
						{
							"internalType": "address",
							"name": "_parkContract",
							"type": "address"
						}
					],
					"stateMutability": "nonpayable",
					"type": "constructor"
				},
				{
					"inputs": [
						{
							"internalType": "uint256",
							"name": "",
							"type": "uint256"
						}
					],
					"name": "birds",
					"outputs": [
						{
							"internalType": "uint256",
							"name": "age",
							"type": "uint256"
						},
						{
							"internalType": "uint256",
							"name": "hunger",
							"type": "uint256"
						},
						{
							"internalType": "uint256",
							"name": "health",
							"type": "uint256"
						},
						{
							"internalType": "enum SpeciesLibrary.Species",
							"name": "species",
							"type": "uint8"
						},
						{
							"internalType": "uint256",
							"name": "lastUpdateTime",
							"type": "uint256"
						},
						{
							"internalType": "bool",
							"name": "isDead",
							"type": "bool"
						},
						{
							"internalType": "uint256",
							"name": "deathTimestamp",
							"type": "uint256"
						}
					],
					"stateMutability": "view",
					"type": "function"
				},
				{
					"inputs": [
						{
							"internalType": "uint256",
							"name": "id",
							"type": "uint256"
						},
						{
							"internalType": "uint256",
							"name": "foodAmount",
							"type": "uint256"
						}
					],
					"name": "feedBird",
					"outputs": [],
					"stateMutability": "nonpayable",
					"type": "function"
				},
				{
					"inputs": [
						{
							"internalType": "uint256",
							"name": "id",
							"type": "uint256"
						}
					],
					"name": "getBird",
					"outputs": [
						{
							"components": [
								{
									"internalType": "uint256",
									"name": "age",
									"type": "uint256"
								},
								{
									"internalType": "uint256",
									"name": "hunger",
									"type": "uint256"
								},
								{
									"internalType": "uint256",
									"name": "health",
									"type": "uint256"
								},
								{
									"internalType": "enum SpeciesLibrary.Species",
									"name": "species",
									"type": "uint8"
								},
								{
									"internalType": "uint256",
									"name": "lastUpdateTime",
									"type": "uint256"
								},
								{
									"internalType": "bool",
									"name": "isDead",
									"type": "bool"
								},
								{
									"internalType": "uint256",
									"name": "deathTimestamp",
									"type": "uint256"
								}
							],
							"internalType": "struct Ptak.BirdData",
							"name": "",
							"type": "tuple"
						}
					],
					"stateMutability": "nonpayable",
					"type": "function"
				},
				{
					"inputs": [
						{
							"internalType": "uint256",
							"name": "birdId",
							"type": "uint256"
						}
					],
					"name": "getBirdImage",
					"outputs": [
						{
							"internalType": "string",
							"name": "",
							"type": "string"
						}
					],
					"stateMutability": "view",
					"type": "function"
				},
				{
					"inputs": [
						{
							"internalType": "uint256",
							"name": "birdId",
							"type": "uint256"
						}
					],
					"name": "healBird",
					"outputs": [],
					"stateMutability": "nonpayable",
					"type": "function"
				},
				{
					"inputs": [
						{
							"internalType": "uint256",
							"name": "birdId",
							"type": "uint256"
						}
					],
					"name": "insure",
					"outputs": [],
					"stateMutability": "nonpayable",
					"type": "function"
				},
				{
					"inputs": [
						{
							"internalType": "uint256",
							"name": "",
							"type": "uint256"
						}
					],
					"name": "insured",
					"outputs": [
						{
							"internalType": "bool",
							"name": "",
							"type": "bool"
						}
					],
					"stateMutability": "view",
					"type": "function"
				},
				{
					"inputs": [
						{
							"internalType": "enum SpeciesLibrary.Species",
							"name": "species",
							"type": "uint8"
						}
					],
					"name": "mintBird",
					"outputs": [
						{
							"internalType": "int256",
							"name": "",
							"type": "int256"
						}
					],
					"stateMutability": "nonpayable",
					"type": "function"
				},
				{
					"inputs": [],
					"name": "nextId",
					"outputs": [
						{
							"internalType": "uint256",
							"name": "",
							"type": "uint256"
						}
					],
					"stateMutability": "view",
					"type": "function"
				},
				{
					"inputs": [
						{
							"internalType": "uint256",
							"name": "",
							"type": "uint256"
						}
					],
					"name": "ownerOf",
					"outputs": [
						{
							"internalType": "address",
							"name": "",
							"type": "address"
						}
					],
					"stateMutability": "view",
					"type": "function"
				},
				{
					"inputs": [],
					"name": "parkContract",
					"outputs": [
						{
							"internalType": "address",
							"name": "",
							"type": "address"
						}
					],
					"stateMutability": "view",
					"type": "function"
				},
				{
					"inputs": [
						{
							"internalType": "uint256",
							"name": "birdId",
							"type": "uint256"
						}
					],
					"name": "revive",
					"outputs": [],
					"stateMutability": "nonpayable",
					"type": "function"
				},
				{
					"inputs": [
						{
							"internalType": "address",
							"name": "_parkContract",
							"type": "address"
						}
					],
					"name": "setParkContract",
					"outputs": [],
					"stateMutability": "nonpayable",
					"type": "function"
				},
				{
					"inputs": [
						{
							"internalType": "uint256",
							"name": "birdId",
							"type": "uint256"
						},
						{
							"internalType": "address",
							"name": "newOwner",
							"type": "address"
						}
					],
					"name": "transferBird",
					"outputs": [],
					"stateMutability": "nonpayable",
					"type": "function"
				},
				{
					"inputs": [
						{
							"internalType": "uint256",
							"name": "id",
							"type": "uint256"
						}
					],
					"name": "updateHungerAndAge",
					"outputs": [],
					"stateMutability": "nonpayable",
					"type": "function"
				}
			],
			"devdoc": {
				"kind": "dev",
				"methods": {},
				"version": 1
			},
			"evm": {
				"assembly": "    /* \"contracts/Ptak.sol\":95:4785  contract Ptak {... */\n  mstore(0x40, 0x80)\n    /* \"contracts/Ptak.sol\":735:817  constructor(address _parkContract) {... */\n  callvalue\n  dup1\n  iszero\n  tag_1\n  jumpi\n  revert(0x00, 0x00)\ntag_1:\n  pop\n  mload(0x40)\n  sub(codesize, bytecodeSize)\n  dup1\n  bytecodeSize\n  dup4\n  codecopy\n  dup2\n  dup2\n  add\n  0x40\n  mstore\n  dup2\n  add\n  swap1\n  tag_2\n  swap2\n  swap1\n  tag_3\n  jump\t// in\ntag_2:\n    /* \"contracts/Ptak.sol\":796:809  _parkContract */\n  dup1\n    /* \"contracts/Ptak.sol\":781:793  parkContract */\n  0x02\n  0x00\n    /* \"contracts/Ptak.sol\":781:809  parkContract = _parkContract */\n  0x0100\n  exp\n  dup2\n  sload\n  dup2\n  0xffffffffffffffffffffffffffffffffffffffff\n  mul\n  not\n  and\n  swap1\n  dup4\n  0xffffffffffffffffffffffffffffffffffffffff\n  and\n  mul\n  or\n  swap1\n  sstore\n  pop\n    /* \"contracts/Ptak.sol\":735:817  constructor(address _parkContract) {... */\n  pop\n    /* \"contracts/Ptak.sol\":95:4785  contract Ptak {... */\n  jump(tag_6)\n    /* \"#utility.yul\":88:205   */\ntag_8:\n    /* \"#utility.yul\":197:198   */\n  0x00\n    /* \"#utility.yul\":194:195   */\n  0x00\n    /* \"#utility.yul\":187:199   */\n  revert\n    /* \"#utility.yul\":334:460   */\ntag_10:\n    /* \"#utility.yul\":371:378   */\n  0x00\n    /* \"#utility.yul\":411:453   */\n  0xffffffffffffffffffffffffffffffffffffffff\n    /* \"#utility.yul\":404:409   */\n  dup3\n    /* \"#utility.yul\":400:454   */\n  and\n    /* \"#utility.yul\":389:454   */\n  swap1\n  pop\n    /* \"#utility.yul\":334:460   */\n  swap2\n  swap1\n  pop\n  jump\t// out\n    /* \"#utility.yul\":466:562   */\ntag_11:\n    /* \"#utility.yul\":503:510   */\n  0x00\n    /* \"#utility.yul\":532:556   */\n  tag_20\n    /* \"#utility.yul\":550:555   */\n  dup3\n    /* \"#utility.yul\":532:556   */\n  tag_10\n  jump\t// in\ntag_20:\n    /* \"#utility.yul\":521:556   */\n  swap1\n  pop\n    /* \"#utility.yul\":466:562   */\n  swap2\n  swap1\n  pop\n  jump\t// out\n    /* \"#utility.yul\":568:690   */\ntag_12:\n    /* \"#utility.yul\":641:665   */\n  tag_22\n    /* \"#utility.yul\":659:664   */\n  dup2\n    /* \"#utility.yul\":641:665   */\n  tag_11\n  jump\t// in\ntag_22:\n    /* \"#utility.yul\":634:639   */\n  dup2\n    /* \"#utility.yul\":631:666   */\n  eq\n    /* \"#utility.yul\":621:684   */\n  tag_23\n  jumpi\n    /* \"#utility.yul\":680:681   */\n  0x00\n    /* \"#utility.yul\":677:678   */\n  0x00\n    /* \"#utility.yul\":670:682   */\n  revert\n    /* \"#utility.yul\":621:684   */\ntag_23:\n    /* \"#utility.yul\":568:690   */\n  pop\n  jump\t// out\n    /* \"#utility.yul\":696:839   */\ntag_13:\n    /* \"#utility.yul\":753:758   */\n  0x00\n    /* \"#utility.yul\":784:790   */\n  dup2\n    /* \"#utility.yul\":778:791   */\n  mload\n    /* \"#utility.yul\":769:791   */\n  swap1\n  pop\n    /* \"#utility.yul\":800:833   */\n  tag_25\n    /* \"#utility.yul\":827:832   */\n  dup2\n    /* \"#utility.yul\":800:833   */\n  tag_12\n  jump\t// in\ntag_25:\n    /* \"#utility.yul\":696:839   */\n  swap3\n  swap2\n  pop\n  pop\n  jump\t// out\n    /* \"#utility.yul\":845:1196   */\ntag_3:\n    /* \"#utility.yul\":915:921   */\n  0x00\n    /* \"#utility.yul\":964:966   */\n  0x20\n    /* \"#utility.yul\":952:961   */\n  dup3\n    /* \"#utility.yul\":943:950   */\n  dup5\n    /* \"#utility.yul\":939:962   */\n  sub\n    /* \"#utility.yul\":935:967   */\n  slt\n    /* \"#utility.yul\":932:1051   */\n  iszero\n  tag_27\n  jumpi\n    /* \"#utility.yul\":970:1049   */\n  tag_28\n  tag_8\n  jump\t// in\ntag_28:\n    /* \"#utility.yul\":932:1051   */\ntag_27:\n    /* \"#utility.yul\":1090:1091   */\n  0x00\n    /* \"#utility.yul\":1115:1179   */\n  tag_29\n    /* \"#utility.yul\":1171:1178   */\n  dup5\n    /* \"#utility.yul\":1162:1168   */\n  dup3\n    /* \"#utility.yul\":1151:1160   */\n  dup6\n    /* \"#utility.yul\":1147:1169   */\n  add\n    /* \"#utility.yul\":1115:1179   */\n  tag_13\n  jump\t// in\ntag_29:\n    /* \"#utility.yul\":1105:1179   */\n  swap2\n  pop\n    /* \"#utility.yul\":1061:1189   */\n  pop\n    /* \"#utility.yul\":845:1196   */\n  swap3\n  swap2\n  pop\n  pop\n  jump\t// out\n    /* \"contracts/Ptak.sol\":95:4785  contract Ptak {... */\ntag_6:\n  dataSize(sub_0)\n  dup1\n  dataOffset(sub_0)\n  0x00\n  codecopy\n  0x00\n  return\nstop\n\nsub_0: assembly {\n        /* \"contracts/Ptak.sol\":95:4785  contract Ptak {... */\n      mstore(0x40, 0x80)\n      callvalue\n      dup1\n      iszero\n      tag_1\n      jumpi\n      revert(0x00, 0x00)\n    tag_1:\n      pop\n      jumpi(tag_2, lt(calldatasize, 0x04))\n      shr(0xe0, calldataload(0x00))\n      dup1\n      0x6ec88bbd\n      gt\n      tag_18\n      jumpi\n      dup1\n      0xa2b7ce6f\n      gt\n      tag_19\n      jumpi\n      dup1\n      0xa2b7ce6f\n      eq\n      tag_14\n      jumpi\n      dup1\n      0xbff998f4\n      eq\n      tag_15\n      jumpi\n      dup1\n      0xec1c5955\n      eq\n      tag_16\n      jumpi\n      dup1\n      0xf64ff064\n      eq\n      tag_17\n      jumpi\n      jump(tag_2)\n    tag_19:\n      dup1\n      0x6ec88bbd\n      eq\n      tag_10\n      jumpi\n      dup1\n      0x72680a77\n      eq\n      tag_11\n      jumpi\n      dup1\n      0x8baecc21\n      eq\n      tag_12\n      jumpi\n      dup1\n      0x8c652f95\n      eq\n      tag_13\n      jumpi\n      jump(tag_2)\n    tag_18:\n      dup1\n      0x4d2d7881\n      gt\n      tag_20\n      jumpi\n      dup1\n      0x4d2d7881\n      eq\n      tag_6\n      jumpi\n      dup1\n      0x4e9c7df8\n      eq\n      tag_7\n      jumpi\n      dup1\n      0x61b8ce8c\n      eq\n      tag_8\n      jumpi\n      dup1\n      0x6352211e\n      eq\n      tag_9\n      jumpi\n      jump(tag_2)\n    tag_20:\n      dup1\n      0x16cb4a05\n      eq\n      tag_3\n      jumpi\n      dup1\n      0x1942d199\n      eq\n      tag_4\n      jumpi\n      dup1\n      0x49b1a0bf\n      eq\n      tag_5\n      jumpi\n    tag_2:\n      revert(0x00, 0x00)\n        /* \"contracts/Ptak.sol\":515:554  mapping(uint256 => bool) public insured */\n    tag_3:\n      tag_21\n      0x04\n      dup1\n      calldatasize\n      sub\n      dup2\n      add\n      swap1\n      tag_22\n      swap2\n      swap1\n      tag_23\n      jump\t// in\n    tag_22:\n      tag_24\n      jump\t// in\n    tag_21:\n      mload(0x40)\n      tag_25\n      swap2\n      swap1\n      tag_26\n      jump\t// in\n    tag_25:\n      mload(0x40)\n      dup1\n      swap2\n      sub\n      swap1\n      return\n        /* \"contracts/Ptak.sol\":3354:3739  function feedBird(uint256 id, uint256 foodAmount) external onlyPark {... */\n    tag_4:\n      tag_27\n      0x04\n      dup1\n      calldatasize\n      sub\n      dup2\n      add\n      swap1\n      tag_28\n      swap2\n      swap1\n      tag_29\n      jump\t// in\n    tag_28:\n      tag_30\n      jump\t// in\n    tag_27:\n      stop\n        /* \"contracts/Ptak.sol\":4120:4211  function insure(uint256 birdId) external onlyPark {... */\n    tag_5:\n      tag_31\n      0x04\n      dup1\n      calldatasize\n      sub\n      dup2\n      add\n      swap1\n      tag_32\n      swap2\n      swap1\n      tag_23\n      jump\t// in\n    tag_32:\n      tag_33\n      jump\t// in\n    tag_31:\n      stop\n        /* \"contracts/Ptak.sol\":825:1175  function mintBird(SpeciesLibrary.Species species) external onlyPark returns (int) {... */\n    tag_6:\n      tag_34\n      0x04\n      dup1\n      calldatasize\n      sub\n      dup2\n      add\n      swap1\n      tag_35\n      swap2\n      swap1\n      tag_36\n      jump\t// in\n    tag_35:\n      tag_37\n      jump\t// in\n    tag_34:\n      mload(0x40)\n      tag_38\n      swap2\n      swap1\n      tag_39\n      jump\t// in\n    tag_38:\n      mload(0x40)\n      dup1\n      swap2\n      sub\n      swap1\n      return\n        /* \"contracts/Ptak.sol\":4359:4529  function setParkContract(address _parkContract) external {... */\n    tag_7:\n      tag_40\n      0x04\n      dup1\n      calldatasize\n      sub\n      dup2\n      add\n      swap1\n      tag_41\n      swap2\n      swap1\n      tag_42\n      jump\t// in\n    tag_41:\n      tag_43\n      jump\t// in\n    tag_40:\n      stop\n        /* \"contracts/Ptak.sol\":453:474  uint256 public nextId */\n    tag_8:\n      tag_44\n      tag_45\n      jump\t// in\n    tag_44:\n      mload(0x40)\n      tag_46\n      swap2\n      swap1\n      tag_47\n      jump\t// in\n    tag_46:\n      mload(0x40)\n      dup1\n      swap2\n      sub\n      swap1\n      return\n        /* \"contracts/Ptak.sol\":561:603  mapping(uint256 => address) public ownerOf */\n    tag_9:\n      tag_48\n      0x04\n      dup1\n      calldatasize\n      sub\n      dup2\n      add\n      swap1\n      tag_49\n      swap2\n      swap1\n      tag_23\n      jump\t// in\n    tag_49:\n      tag_50\n      jump\t// in\n    tag_48:\n      mload(0x40)\n      tag_51\n      swap2\n      swap1\n      tag_52\n      jump\t// in\n    tag_51:\n      mload(0x40)\n      dup1\n      swap2\n      sub\n      swap1\n      return\n        /* \"contracts/Ptak.sol\":4219:4351  function getBird(uint256 id) external returns (BirdData memory) {... */\n    tag_10:\n      tag_53\n      0x04\n      dup1\n      calldatasize\n      sub\n      dup2\n      add\n      swap1\n      tag_54\n      swap2\n      swap1\n      tag_23\n      jump\t// in\n    tag_54:\n      tag_55\n      jump\t// in\n    tag_53:\n      mload(0x40)\n      tag_56\n      swap2\n      swap1\n      tag_57\n      jump\t// in\n    tag_56:\n      mload(0x40)\n      dup1\n      swap2\n      sub\n      swap1\n      return\n        /* \"contracts/Ptak.sol\":481:508  address public parkContract */\n    tag_11:\n      tag_58\n      tag_59\n      jump\t// in\n    tag_58:\n      mload(0x40)\n      tag_60\n      swap2\n      swap1\n      tag_52\n      jump\t// in\n    tag_60:\n      mload(0x40)\n      dup1\n      swap2\n      sub\n      swap1\n      return\n        /* \"contracts/Ptak.sol\":3747:4112  function revive(uint256 birdId) external onlyPark {... */\n    tag_12:\n      tag_61\n      0x04\n      dup1\n      calldatasize\n      sub\n      dup2\n      add\n      swap1\n      tag_62\n      swap2\n      swap1\n      tag_23\n      jump\t// in\n    tag_62:\n      tag_63\n      jump\t// in\n    tag_61:\n      stop\n        /* \"contracts/Ptak.sol\":4537:4782  function transferBird(uint256 birdId, address newOwner) external onlyPark {... */\n    tag_13:\n      tag_64\n      0x04\n      dup1\n      calldatasize\n      sub\n      dup2\n      add\n      swap1\n      tag_65\n      swap2\n      swap1\n      tag_66\n      jump\t// in\n    tag_65:\n      tag_67\n      jump\t// in\n    tag_64:\n      stop\n        /* \"contracts/Ptak.sol\":1183:2318  function updateHungerAndAge(uint256 id) public {... */\n    tag_14:\n      tag_68\n      0x04\n      dup1\n      calldatasize\n      sub\n      dup2\n      add\n      swap1\n      tag_69\n      swap2\n      swap1\n      tag_23\n      jump\t// in\n    tag_69:\n      tag_70\n      jump\t// in\n    tag_68:\n      stop\n        /* \"contracts/Ptak.sol\":2536:2800  function healBird(uint256 birdId) external onlyPark {... */\n    tag_15:\n      tag_71\n      0x04\n      dup1\n      calldatasize\n      sub\n      dup2\n      add\n      swap1\n      tag_72\n      swap2\n      swap1\n      tag_23\n      jump\t// in\n    tag_72:\n      tag_73\n      jump\t// in\n    tag_71:\n      stop\n        /* \"contracts/Ptak.sol\":405:446  mapping(uint256 => BirdData) public birds */\n    tag_16:\n      tag_74\n      0x04\n      dup1\n      calldatasize\n      sub\n      dup2\n      add\n      swap1\n      tag_75\n      swap2\n      swap1\n      tag_23\n      jump\t// in\n    tag_75:\n      tag_76\n      jump\t// in\n    tag_74:\n      mload(0x40)\n      tag_77\n      swap8\n      swap7\n      swap6\n      swap5\n      swap4\n      swap3\n      swap2\n      swap1\n      tag_78\n      jump\t// in\n    tag_77:\n      mload(0x40)\n      dup1\n      swap2\n      sub\n      swap1\n      return\n        /* \"contracts/Ptak.sol\":2326:2528  function getBirdImage(uint256 birdId) external view returns (string memory) {... */\n    tag_17:\n      tag_79\n      0x04\n      dup1\n      calldatasize\n      sub\n      dup2\n      add\n      swap1\n      tag_80\n      swap2\n      swap1\n      tag_23\n      jump\t// in\n    tag_80:\n      tag_81\n      jump\t// in\n    tag_79:\n      mload(0x40)\n      tag_82\n      swap2\n      swap1\n      tag_83\n      jump\t// in\n    tag_82:\n      mload(0x40)\n      dup1\n      swap2\n      sub\n      swap1\n      return\n        /* \"contracts/Ptak.sol\":515:554  mapping(uint256 => bool) public insured */\n    tag_24:\n      mstore(0x20, 0x03)\n      dup1\n      0x00\n      mstore\n      keccak256(0x00, 0x40)\n      0x00\n      swap2\n      pop\n      sload\n      swap1\n      0x0100\n      exp\n      swap1\n      div\n      0xff\n      and\n      dup2\n      jump\t// out\n        /* \"contracts/Ptak.sol\":3354:3739  function feedBird(uint256 id, uint256 foodAmount) external onlyPark {... */\n    tag_30:\n        /* \"contracts/Ptak.sol\":667:679  parkContract */\n      0x02\n      0x00\n      swap1\n      sload\n      swap1\n      0x0100\n      exp\n      swap1\n      div\n      0xffffffffffffffffffffffffffffffffffffffff\n      and\n        /* \"contracts/Ptak.sol\":653:679  msg.sender == parkContract */\n      0xffffffffffffffffffffffffffffffffffffffff\n      and\n        /* \"contracts/Ptak.sol\":653:663  msg.sender */\n      caller\n        /* \"contracts/Ptak.sol\":653:679  msg.sender == parkContract */\n      0xffffffffffffffffffffffffffffffffffffffff\n      and\n      eq\n        /* \"contracts/Ptak.sol\":645:707  require(msg.sender == parkContract, \"Only Park can call this\") */\n      tag_85\n      jumpi\n      mload(0x40)\n      0x08c379a000000000000000000000000000000000000000000000000000000000\n      dup2\n      mstore\n      0x04\n      add\n      tag_86\n      swap1\n      tag_87\n      jump\t// in\n    tag_86:\n      mload(0x40)\n      dup1\n      swap2\n      sub\n      swap1\n      revert\n    tag_85:\n        /* \"contracts/Ptak.sol\":3433:3455  updateHungerAndAge(id) */\n      tag_89\n        /* \"contracts/Ptak.sol\":3452:3454  id */\n      dup3\n        /* \"contracts/Ptak.sol\":3433:3451  updateHungerAndAge */\n      tag_70\n        /* \"contracts/Ptak.sol\":3433:3455  updateHungerAndAge(id) */\n      jump\t// in\n    tag_89:\n        /* \"contracts/Ptak.sol\":3466:3487  BirdData storage bird */\n      0x00\n        /* \"contracts/Ptak.sol\":3490:3495  birds */\n      0x00\n        /* \"contracts/Ptak.sol\":3490:3499  birds[id] */\n      0x00\n        /* \"contracts/Ptak.sol\":3496:3498  id */\n      dup5\n        /* \"contracts/Ptak.sol\":3490:3499  birds[id] */\n      dup2\n      mstore\n      0x20\n      add\n      swap1\n      dup2\n      mstore\n      0x20\n      add\n      0x00\n      keccak256\n        /* \"contracts/Ptak.sol\":3466:3499  BirdData storage bird = birds[id] */\n      swap1\n      pop\n        /* \"contracts/Ptak.sol\":3510:3529  randomPoisoning(id) */\n      tag_90\n        /* \"contracts/Ptak.sol\":3526:3528  id */\n      dup4\n        /* \"contracts/Ptak.sol\":3510:3525  randomPoisoning */\n      tag_91\n        /* \"contracts/Ptak.sol\":3510:3529  randomPoisoning(id) */\n      jump\t// in\n    tag_90:\n        /* \"contracts/Ptak.sol\":3551:3555  bird */\n      dup1\n        /* \"contracts/Ptak.sol\":3551:3562  bird.isDead */\n      0x05\n      add\n      0x00\n      swap1\n      sload\n      swap1\n      0x0100\n      exp\n      swap1\n      div\n      0xff\n      and\n        /* \"contracts/Ptak.sol\":3550:3562  !bird.isDead */\n      iszero\n        /* \"contracts/Ptak.sol\":3542:3590  require(!bird.isDead, \"Cannot feed a dead bird\") */\n      tag_92\n      jumpi\n      mload(0x40)\n      0x08c379a000000000000000000000000000000000000000000000000000000000\n      dup2\n      mstore\n      0x04\n      add\n      tag_93\n      swap1\n      tag_94\n      jump\t// in\n    tag_93:\n      mload(0x40)\n      dup1\n      swap2\n      sub\n      swap1\n      revert\n    tag_92:\n        /* \"contracts/Ptak.sol\":3621:3631  foodAmount */\n      dup2\n        /* \"contracts/Ptak.sol\":3606:3610  bird */\n      dup2\n        /* \"contracts/Ptak.sol\":3606:3617  bird.hunger */\n      0x01\n      add\n      sload\n        /* \"contracts/Ptak.sol\":3606:3631  bird.hunger >= foodAmount */\n      lt\n        /* \"contracts/Ptak.sol\":3603:3732  if(bird.hunger >= foodAmount){... */\n      tag_95\n      jumpi\n        /* \"contracts/Ptak.sol\":3662:3672  foodAmount */\n      dup2\n        /* \"contracts/Ptak.sol\":3647:3651  bird */\n      dup2\n        /* \"contracts/Ptak.sol\":3647:3658  bird.hunger */\n      0x01\n      add\n      0x00\n        /* \"contracts/Ptak.sol\":3647:3672  bird.hunger -= foodAmount */\n      dup3\n      dup3\n      sload\n      tag_96\n      swap2\n      swap1\n      tag_97\n      jump\t// in\n    tag_96:\n      swap3\n      pop\n      pop\n      dup2\n      swap1\n      sstore\n      pop\n        /* \"contracts/Ptak.sol\":3603:3732  if(bird.hunger >= foodAmount){... */\n      jump(tag_98)\n    tag_95:\n        /* \"contracts/Ptak.sol\":3719:3720  0 */\n      0x00\n        /* \"contracts/Ptak.sol\":3705:3709  bird */\n      dup2\n        /* \"contracts/Ptak.sol\":3705:3716  bird.hunger */\n      0x01\n      add\n        /* \"contracts/Ptak.sol\":3705:3720  bird.hunger = 0 */\n      dup2\n      swap1\n      sstore\n      pop\n        /* \"contracts/Ptak.sol\":3603:3732  if(bird.hunger >= foodAmount){... */\n    tag_98:\n        /* \"contracts/Ptak.sol\":3422:3739  {... */\n      pop\n        /* \"contracts/Ptak.sol\":3354:3739  function feedBird(uint256 id, uint256 foodAmount) external onlyPark {... */\n      pop\n      pop\n      jump\t// out\n        /* \"contracts/Ptak.sol\":4120:4211  function insure(uint256 birdId) external onlyPark {... */\n    tag_33:\n        /* \"contracts/Ptak.sol\":667:679  parkContract */\n      0x02\n      0x00\n      swap1\n      sload\n      swap1\n      0x0100\n      exp\n      swap1\n      div\n      0xffffffffffffffffffffffffffffffffffffffff\n      and\n        /* \"contracts/Ptak.sol\":653:679  msg.sender == parkContract */\n      0xffffffffffffffffffffffffffffffffffffffff\n      and\n        /* \"contracts/Ptak.sol\":653:663  msg.sender */\n      caller\n        /* \"contracts/Ptak.sol\":653:679  msg.sender == parkContract */\n      0xffffffffffffffffffffffffffffffffffffffff\n      and\n      eq\n        /* \"contracts/Ptak.sol\":645:707  require(msg.sender == parkContract, \"Only Park can call this\") */\n      tag_100\n      jumpi\n      mload(0x40)\n      0x08c379a000000000000000000000000000000000000000000000000000000000\n      dup2\n      mstore\n      0x04\n      add\n      tag_101\n      swap1\n      tag_87\n      jump\t// in\n    tag_101:\n      mload(0x40)\n      dup1\n      swap2\n      sub\n      swap1\n      revert\n    tag_100:\n        /* \"contracts/Ptak.sol\":4199:4203  true */\n      0x01\n        /* \"contracts/Ptak.sol\":4181:4188  insured */\n      0x03\n        /* \"contracts/Ptak.sol\":4181:4196  insured[birdId] */\n      0x00\n        /* \"contracts/Ptak.sol\":4189:4195  birdId */\n      dup4\n        /* \"contracts/Ptak.sol\":4181:4196  insured[birdId] */\n      dup2\n      mstore\n      0x20\n      add\n      swap1\n      dup2\n      mstore\n      0x20\n      add\n      0x00\n      keccak256\n      0x00\n        /* \"contracts/Ptak.sol\":4181:4203  insured[birdId] = true */\n      0x0100\n      exp\n      dup2\n      sload\n      dup2\n      0xff\n      mul\n      not\n      and\n      swap1\n      dup4\n      iszero\n      iszero\n      mul\n      or\n      swap1\n      sstore\n      pop\n        /* \"contracts/Ptak.sol\":4120:4211  function insure(uint256 birdId) external onlyPark {... */\n      pop\n      jump\t// out\n        /* \"contracts/Ptak.sol\":825:1175  function mintBird(SpeciesLibrary.Species species) external onlyPark returns (int) {... */\n    tag_37:\n        /* \"contracts/Ptak.sol\":902:905  int */\n      0x00\n        /* \"contracts/Ptak.sol\":667:679  parkContract */\n      0x02\n      0x00\n      swap1\n      sload\n      swap1\n      0x0100\n      exp\n      swap1\n      div\n      0xffffffffffffffffffffffffffffffffffffffff\n      and\n        /* \"contracts/Ptak.sol\":653:679  msg.sender == parkContract */\n      0xffffffffffffffffffffffffffffffffffffffff\n      and\n        /* \"contracts/Ptak.sol\":653:663  msg.sender */\n      caller\n        /* \"contracts/Ptak.sol\":653:679  msg.sender == parkContract */\n      0xffffffffffffffffffffffffffffffffffffffff\n      and\n      eq\n        /* \"contracts/Ptak.sol\":645:707  require(msg.sender == parkContract, \"Only Park can call this\") */\n      tag_104\n      jumpi\n      mload(0x40)\n      0x08c379a000000000000000000000000000000000000000000000000000000000\n      dup2\n      mstore\n      0x04\n      add\n      tag_105\n      swap1\n      tag_87\n      jump\t// in\n    tag_105:\n      mload(0x40)\n      dup1\n      swap2\n      sub\n      swap1\n      revert\n    tag_104:\n        /* \"contracts/Ptak.sol\":918:956  SpeciesLibrary.SpeciesInfo memory info */\n      0x00\n        /* \"contracts/Ptak.sol\":959:997  SpeciesLibrary.getSpeciesInfo(species) */\n      tag_107\n        /* \"contracts/Ptak.sol\":989:996  species */\n      dup4\n        /* \"contracts/Ptak.sol\":959:988  SpeciesLibrary.getSpeciesInfo */\n      tag_108\n        /* \"contracts/Ptak.sol\":959:997  SpeciesLibrary.getSpeciesInfo(species) */\n      jump\t// in\n    tag_107:\n        /* \"contracts/Ptak.sol\":918:997  SpeciesLibrary.SpeciesInfo memory info = SpeciesLibrary.getSpeciesInfo(species) */\n      swap1\n      pop\n        /* \"contracts/Ptak.sol\":1024:1090  BirdData(0, 0, info.maxHealth, species, block.timestamp, false, 0) */\n      mload(0x40)\n      dup1\n      0xe0\n      add\n      0x40\n      mstore\n      dup1\n        /* \"contracts/Ptak.sol\":1033:1034  0 */\n      0x00\n        /* \"contracts/Ptak.sol\":1024:1090  BirdData(0, 0, info.maxHealth, species, block.timestamp, false, 0) */\n      dup2\n      mstore\n      0x20\n      add\n        /* \"contracts/Ptak.sol\":1036:1037  0 */\n      0x00\n        /* \"contracts/Ptak.sol\":1024:1090  BirdData(0, 0, info.maxHealth, species, block.timestamp, false, 0) */\n      dup2\n      mstore\n      0x20\n      add\n        /* \"contracts/Ptak.sol\":1039:1043  info */\n      dup3\n        /* \"contracts/Ptak.sol\":1039:1053  info.maxHealth */\n      0x00\n      add\n      mload\n        /* \"contracts/Ptak.sol\":1024:1090  BirdData(0, 0, info.maxHealth, species, block.timestamp, false, 0) */\n      dup2\n      mstore\n      0x20\n      add\n        /* \"contracts/Ptak.sol\":1055:1062  species */\n      dup5\n        /* \"contracts/Ptak.sol\":1024:1090  BirdData(0, 0, info.maxHealth, species, block.timestamp, false, 0) */\n      0x0a\n      dup2\n      gt\n      iszero\n      tag_109\n      jumpi\n      tag_110\n      tag_111\n      jump\t// in\n    tag_110:\n    tag_109:\n      dup2\n      mstore\n      0x20\n      add\n        /* \"contracts/Ptak.sol\":1064:1079  block.timestamp */\n      timestamp\n        /* \"contracts/Ptak.sol\":1024:1090  BirdData(0, 0, info.maxHealth, species, block.timestamp, false, 0) */\n      dup2\n      mstore\n      0x20\n      add\n        /* \"contracts/Ptak.sol\":1081:1086  false */\n      0x00\n        /* \"contracts/Ptak.sol\":1024:1090  BirdData(0, 0, info.maxHealth, species, block.timestamp, false, 0) */\n      iszero\n      iszero\n      dup2\n      mstore\n      0x20\n      add\n        /* \"contracts/Ptak.sol\":1088:1089  0 */\n      0x00\n        /* \"contracts/Ptak.sol\":1024:1090  BirdData(0, 0, info.maxHealth, species, block.timestamp, false, 0) */\n      dup2\n      mstore\n      pop\n        /* \"contracts/Ptak.sol\":1008:1013  birds */\n      0x00\n        /* \"contracts/Ptak.sol\":1008:1021  birds[nextId] */\n      0x00\n        /* \"contracts/Ptak.sol\":1014:1020  nextId */\n      sload(0x01)\n        /* \"contracts/Ptak.sol\":1008:1021  birds[nextId] */\n      dup2\n      mstore\n      0x20\n      add\n      swap1\n      dup2\n      mstore\n      0x20\n      add\n      0x00\n      keccak256\n        /* \"contracts/Ptak.sol\":1008:1090  birds[nextId] = BirdData(0, 0, info.maxHealth, species, block.timestamp, false, 0) */\n      0x00\n      dup3\n      add\n      mload\n      dup2\n      0x00\n      add\n      sstore\n      0x20\n      dup3\n      add\n      mload\n      dup2\n      0x01\n      add\n      sstore\n      0x40\n      dup3\n      add\n      mload\n      dup2\n      0x02\n      add\n      sstore\n      0x60\n      dup3\n      add\n      mload\n      dup2\n      0x03\n      add\n      exp(0x0100, 0x00)\n      dup2\n      sload\n      dup2\n      0xff\n      mul\n      not\n      and\n      swap1\n      dup4\n      0x0a\n      dup2\n      gt\n      iszero\n      tag_112\n      jumpi\n      tag_113\n      tag_111\n      jump\t// in\n    tag_113:\n    tag_112:\n      mul\n      or\n      swap1\n      sstore\n      pop\n      0x80\n      dup3\n      add\n      mload\n      dup2\n      0x04\n      add\n      sstore\n      0xa0\n      dup3\n      add\n      mload\n      dup2\n      0x05\n      add\n      exp(0x0100, 0x00)\n      dup2\n      sload\n      dup2\n      0xff\n      mul\n      not\n      and\n      swap1\n      dup4\n      iszero\n      iszero\n      mul\n      or\n      swap1\n      sstore\n      pop\n      0xc0\n      dup3\n      add\n      mload\n      dup2\n      0x06\n      add\n      sstore\n      swap1\n      pop\n      pop\n        /* \"contracts/Ptak.sol\":1119:1129  msg.sender */\n      caller\n        /* \"contracts/Ptak.sol\":1101:1108  ownerOf */\n      0x04\n        /* \"contracts/Ptak.sol\":1101:1116  ownerOf[nextId] */\n      0x00\n        /* \"contracts/Ptak.sol\":1109:1115  nextId */\n      sload(0x01)\n        /* \"contracts/Ptak.sol\":1101:1116  ownerOf[nextId] */\n      dup2\n      mstore\n      0x20\n      add\n      swap1\n      dup2\n      mstore\n      0x20\n      add\n      0x00\n      keccak256\n      0x00\n        /* \"contracts/Ptak.sol\":1101:1129  ownerOf[nextId] = msg.sender */\n      0x0100\n      exp\n      dup2\n      sload\n      dup2\n      0xffffffffffffffffffffffffffffffffffffffff\n      mul\n      not\n      and\n      swap1\n      dup4\n      0xffffffffffffffffffffffffffffffffffffffff\n      and\n      mul\n      or\n      swap1\n      sstore\n      pop\n        /* \"contracts/Ptak.sol\":1140:1146  nextId */\n      0x01\n      0x00\n        /* \"contracts/Ptak.sol\":1140:1148  nextId++ */\n      dup2\n      sload\n      dup1\n      swap3\n      swap2\n      swap1\n      tag_114\n      swap1\n      tag_115\n      jump\t// in\n    tag_114:\n      swap2\n      swap1\n      pop\n      sstore\n      pop\n        /* \"contracts/Ptak.sol\":1166:1167  0 */\n      0x00\n        /* \"contracts/Ptak.sol\":1159:1167  return 0 */\n      swap2\n      pop\n      pop\n        /* \"contracts/Ptak.sol\":825:1175  function mintBird(SpeciesLibrary.Species species) external onlyPark returns (int) {... */\n      swap2\n      swap1\n      pop\n      jump\t// out\n        /* \"contracts/Ptak.sol\":4359:4529  function setParkContract(address _parkContract) external {... */\n    tag_43:\n        /* \"contracts/Ptak.sol\":4459:4460  0 */\n      0x00\n        /* \"contracts/Ptak.sol\":4435:4461  parkContract == address(0) */\n      0xffffffffffffffffffffffffffffffffffffffff\n      and\n        /* \"contracts/Ptak.sol\":4435:4447  parkContract */\n      0x02\n      0x00\n      swap1\n      sload\n      swap1\n      0x0100\n      exp\n      swap1\n      div\n      0xffffffffffffffffffffffffffffffffffffffff\n      and\n        /* \"contracts/Ptak.sol\":4435:4461  parkContract == address(0) */\n      0xffffffffffffffffffffffffffffffffffffffff\n      and\n      eq\n        /* \"contracts/Ptak.sol\":4427:4482  require(parkContract == address(0), \"Park already set\") */\n      tag_117\n      jumpi\n      mload(0x40)\n      0x08c379a000000000000000000000000000000000000000000000000000000000\n      dup2\n      mstore\n      0x04\n      add\n      tag_118\n      swap1\n      tag_119\n      jump\t// in\n    tag_118:\n      mload(0x40)\n      dup1\n      swap2\n      sub\n      swap1\n      revert\n    tag_117:\n        /* \"contracts/Ptak.sol\":4508:4521  _parkContract */\n      dup1\n        /* \"contracts/Ptak.sol\":4493:4505  parkContract */\n      0x02\n      0x00\n        /* \"contracts/Ptak.sol\":4493:4521  parkContract = _parkContract */\n      0x0100\n      exp\n      dup2\n      sload\n      dup2\n      0xffffffffffffffffffffffffffffffffffffffff\n      mul\n      not\n      and\n      swap1\n      dup4\n      0xffffffffffffffffffffffffffffffffffffffff\n      and\n      mul\n      or\n      swap1\n      sstore\n      pop\n        /* \"contracts/Ptak.sol\":4359:4529  function setParkContract(address _parkContract) external {... */\n      pop\n      jump\t// out\n        /* \"contracts/Ptak.sol\":453:474  uint256 public nextId */\n    tag_45:\n      sload(0x01)\n      dup2\n      jump\t// out\n        /* \"contracts/Ptak.sol\":561:603  mapping(uint256 => address) public ownerOf */\n    tag_50:\n      mstore(0x20, 0x04)\n      dup1\n      0x00\n      mstore\n      keccak256(0x00, 0x40)\n      0x00\n      swap2\n      pop\n      sload\n      swap1\n      0x0100\n      exp\n      swap1\n      div\n      0xffffffffffffffffffffffffffffffffffffffff\n      and\n      dup2\n      jump\t// out\n        /* \"contracts/Ptak.sol\":4219:4351  function getBird(uint256 id) external returns (BirdData memory) {... */\n    tag_55:\n        /* \"contracts/Ptak.sol\":4266:4281  BirdData memory */\n      tag_120\n      tag_121\n      jump\t// in\n    tag_120:\n        /* \"contracts/Ptak.sol\":4294:4316  updateHungerAndAge(id) */\n      tag_123\n        /* \"contracts/Ptak.sol\":4313:4315  id */\n      dup3\n        /* \"contracts/Ptak.sol\":4294:4312  updateHungerAndAge */\n      tag_70\n        /* \"contracts/Ptak.sol\":4294:4316  updateHungerAndAge(id) */\n      jump\t// in\n    tag_123:\n        /* \"contracts/Ptak.sol\":4334:4339  birds */\n      0x00\n        /* \"contracts/Ptak.sol\":4334:4343  birds[id] */\n      0x00\n        /* \"contracts/Ptak.sol\":4340:4342  id */\n      dup4\n        /* \"contracts/Ptak.sol\":4334:4343  birds[id] */\n      dup2\n      mstore\n      0x20\n      add\n      swap1\n      dup2\n      mstore\n      0x20\n      add\n      0x00\n      keccak256\n        /* \"contracts/Ptak.sol\":4327:4343  return birds[id] */\n      mload(0x40)\n      dup1\n      0xe0\n      add\n      0x40\n      mstore\n      swap1\n      dup2\n      0x00\n      dup3\n      add\n      sload\n      dup2\n      mstore\n      0x20\n      add\n      0x01\n      dup3\n      add\n      sload\n      dup2\n      mstore\n      0x20\n      add\n      0x02\n      dup3\n      add\n      sload\n      dup2\n      mstore\n      0x20\n      add\n      0x03\n      dup3\n      add\n      0x00\n      swap1\n      sload\n      swap1\n      0x0100\n      exp\n      swap1\n      div\n      0xff\n      and\n      0x0a\n      dup2\n      gt\n      iszero\n      tag_124\n      jumpi\n      tag_125\n      tag_111\n      jump\t// in\n    tag_125:\n    tag_124:\n      0x0a\n      dup2\n      gt\n      iszero\n      tag_126\n      jumpi\n      tag_127\n      tag_111\n      jump\t// in\n    tag_127:\n    tag_126:\n      dup2\n      mstore\n      0x20\n      add\n      0x04\n      dup3\n      add\n      sload\n      dup2\n      mstore\n      0x20\n      add\n      0x05\n      dup3\n      add\n      0x00\n      swap1\n      sload\n      swap1\n      0x0100\n      exp\n      swap1\n      div\n      0xff\n      and\n      iszero\n      iszero\n      iszero\n      iszero\n      dup2\n      mstore\n      0x20\n      add\n      0x06\n      dup3\n      add\n      sload\n      dup2\n      mstore\n      pop\n      pop\n      swap1\n      pop\n        /* \"contracts/Ptak.sol\":4219:4351  function getBird(uint256 id) external returns (BirdData memory) {... */\n      swap2\n      swap1\n      pop\n      jump\t// out\n        /* \"contracts/Ptak.sol\":481:508  address public parkContract */\n    tag_59:\n      0x02\n      0x00\n      swap1\n      sload\n      swap1\n      0x0100\n      exp\n      swap1\n      div\n      0xffffffffffffffffffffffffffffffffffffffff\n      and\n      dup2\n      jump\t// out\n        /* \"contracts/Ptak.sol\":3747:4112  function revive(uint256 birdId) external onlyPark {... */\n    tag_63:\n        /* \"contracts/Ptak.sol\":667:679  parkContract */\n      0x02\n      0x00\n      swap1\n      sload\n      swap1\n      0x0100\n      exp\n      swap1\n      div\n      0xffffffffffffffffffffffffffffffffffffffff\n      and\n        /* \"contracts/Ptak.sol\":653:679  msg.sender == parkContract */\n      0xffffffffffffffffffffffffffffffffffffffff\n      and\n        /* \"contracts/Ptak.sol\":653:663  msg.sender */\n      caller\n        /* \"contracts/Ptak.sol\":653:679  msg.sender == parkContract */\n      0xffffffffffffffffffffffffffffffffffffffff\n      and\n      eq\n        /* \"contracts/Ptak.sol\":645:707  require(msg.sender == parkContract, \"Only Park can call this\") */\n      tag_129\n      jumpi\n      mload(0x40)\n      0x08c379a000000000000000000000000000000000000000000000000000000000\n      dup2\n      mstore\n      0x04\n      add\n      tag_130\n      swap1\n      tag_87\n      jump\t// in\n    tag_130:\n      mload(0x40)\n      dup1\n      swap2\n      sub\n      swap1\n      revert\n    tag_129:\n        /* \"contracts/Ptak.sol\":3808:3829  BirdData storage bird */\n      0x00\n        /* \"contracts/Ptak.sol\":3832:3837  birds */\n      0x00\n        /* \"contracts/Ptak.sol\":3832:3845  birds[birdId] */\n      0x00\n        /* \"contracts/Ptak.sol\":3838:3844  birdId */\n      dup4\n        /* \"contracts/Ptak.sol\":3832:3845  birds[birdId] */\n      dup2\n      mstore\n      0x20\n      add\n      swap1\n      dup2\n      mstore\n      0x20\n      add\n      0x00\n      keccak256\n        /* \"contracts/Ptak.sol\":3808:3845  BirdData storage bird = birds[birdId] */\n      swap1\n      pop\n        /* \"contracts/Ptak.sol\":3864:3868  bird */\n      dup1\n        /* \"contracts/Ptak.sol\":3864:3875  bird.isDead */\n      0x05\n      add\n      0x00\n      swap1\n      sload\n      swap1\n      0x0100\n      exp\n      swap1\n      div\n      0xff\n      and\n        /* \"contracts/Ptak.sol\":3856:3888  require(bird.isDead, \"Not dead\") */\n      tag_132\n      jumpi\n      mload(0x40)\n      0x08c379a000000000000000000000000000000000000000000000000000000000\n      dup2\n      mstore\n      0x04\n      add\n      tag_133\n      swap1\n      tag_134\n      jump\t// in\n    tag_133:\n      mload(0x40)\n      dup1\n      swap2\n      sub\n      swap1\n      revert\n    tag_132:\n        /* \"contracts/Ptak.sol\":3913:3956  SpeciesLibrary.getSpeciesInfo(bird.species) */\n      tag_135\n        /* \"contracts/Ptak.sol\":3943:3947  bird */\n      dup2\n        /* \"contracts/Ptak.sol\":3943:3955  bird.species */\n      0x03\n      add\n      0x00\n      swap1\n      sload\n      swap1\n      0x0100\n      exp\n      swap1\n      div\n      0xff\n      and\n        /* \"contracts/Ptak.sol\":3913:3942  SpeciesLibrary.getSpeciesInfo */\n      tag_108\n        /* \"contracts/Ptak.sol\":3913:3956  SpeciesLibrary.getSpeciesInfo(bird.species) */\n      jump\t// in\n    tag_135:\n        /* \"contracts/Ptak.sol\":3913:3966  SpeciesLibrary.getSpeciesInfo(bird.species).maxHealth */\n      0x00\n      add\n      mload\n        /* \"contracts/Ptak.sol\":3899:3903  bird */\n      dup2\n        /* \"contracts/Ptak.sol\":3899:3910  bird.health */\n      0x02\n      add\n        /* \"contracts/Ptak.sol\":3899:3966  bird.health = SpeciesLibrary.getSpeciesInfo(bird.species).maxHealth */\n      dup2\n      swap1\n      sstore\n      pop\n        /* \"contracts/Ptak.sol\":3991:3992  0 */\n      0x00\n        /* \"contracts/Ptak.sol\":3977:3981  bird */\n      dup2\n        /* \"contracts/Ptak.sol\":3977:3988  bird.hunger */\n      0x01\n      add\n        /* \"contracts/Ptak.sol\":3977:3992  bird.hunger = 0 */\n      dup2\n      swap1\n      sstore\n      pop\n        /* \"contracts/Ptak.sol\":4017:4022  false */\n      0x00\n        /* \"contracts/Ptak.sol\":4003:4007  bird */\n      dup2\n        /* \"contracts/Ptak.sol\":4003:4014  bird.isDead */\n      0x05\n      add\n      0x00\n        /* \"contracts/Ptak.sol\":4003:4022  bird.isDead = false */\n      0x0100\n      exp\n      dup2\n      sload\n      dup2\n      0xff\n      mul\n      not\n      and\n      swap1\n      dup4\n      iszero\n      iszero\n      mul\n      or\n      swap1\n      sstore\n      pop\n        /* \"contracts/Ptak.sol\":4055:4056  0 */\n      0x00\n        /* \"contracts/Ptak.sol\":4033:4037  bird */\n      dup2\n        /* \"contracts/Ptak.sol\":4033:4052  bird.deathTimestamp */\n      0x06\n      add\n        /* \"contracts/Ptak.sol\":4033:4056  bird.deathTimestamp = 0 */\n      dup2\n      swap1\n      sstore\n      pop\n        /* \"contracts/Ptak.sol\":4089:4104  block.timestamp */\n      timestamp\n        /* \"contracts/Ptak.sol\":4067:4071  bird */\n      dup2\n        /* \"contracts/Ptak.sol\":4067:4086  bird.lastUpdateTime */\n      0x04\n      add\n        /* \"contracts/Ptak.sol\":4067:4104  bird.lastUpdateTime = block.timestamp */\n      dup2\n      swap1\n      sstore\n      pop\n        /* \"contracts/Ptak.sol\":3797:4112  {... */\n      pop\n        /* \"contracts/Ptak.sol\":3747:4112  function revive(uint256 birdId) external onlyPark {... */\n      pop\n      jump\t// out\n        /* \"contracts/Ptak.sol\":4537:4782  function transferBird(uint256 birdId, address newOwner) external onlyPark {... */\n    tag_67:\n        /* \"contracts/Ptak.sol\":667:679  parkContract */\n      0x02\n      0x00\n      swap1\n      sload\n      swap1\n      0x0100\n      exp\n      swap1\n      div\n      0xffffffffffffffffffffffffffffffffffffffff\n      and\n        /* \"contracts/Ptak.sol\":653:679  msg.sender == parkContract */\n      0xffffffffffffffffffffffffffffffffffffffff\n      and\n        /* \"contracts/Ptak.sol\":653:663  msg.sender */\n      caller\n        /* \"contracts/Ptak.sol\":653:679  msg.sender == parkContract */\n      0xffffffffffffffffffffffffffffffffffffffff\n      and\n      eq\n        /* \"contracts/Ptak.sol\":645:707  require(msg.sender == parkContract, \"Only Park can call this\") */\n      tag_137\n      jumpi\n      mload(0x40)\n      0x08c379a000000000000000000000000000000000000000000000000000000000\n      dup2\n      mstore\n      0x04\n      add\n      tag_138\n      swap1\n      tag_87\n      jump\t// in\n    tag_138:\n      mload(0x40)\n      dup1\n      swap2\n      sub\n      swap1\n      revert\n    tag_137:\n        /* \"contracts/Ptak.sol\":4649:4658  tx.origin */\n      origin\n        /* \"contracts/Ptak.sol\":4630:4658  ownerOf[birdId] == tx.origin */\n      0xffffffffffffffffffffffffffffffffffffffff\n      and\n        /* \"contracts/Ptak.sol\":4630:4637  ownerOf */\n      0x04\n        /* \"contracts/Ptak.sol\":4630:4645  ownerOf[birdId] */\n      0x00\n        /* \"contracts/Ptak.sol\":4638:4644  birdId */\n      dup5\n        /* \"contracts/Ptak.sol\":4630:4645  ownerOf[birdId] */\n      dup2\n      mstore\n      0x20\n      add\n      swap1\n      dup2\n      mstore\n      0x20\n      add\n      0x00\n      keccak256\n      0x00\n      swap1\n      sload\n      swap1\n      0x0100\n      exp\n      swap1\n      div\n      0xffffffffffffffffffffffffffffffffffffffff\n      and\n        /* \"contracts/Ptak.sol\":4630:4658  ownerOf[birdId] == tx.origin */\n      0xffffffffffffffffffffffffffffffffffffffff\n      and\n      eq\n        /* \"contracts/Ptak.sol\":4622:4676  require(ownerOf[birdId] == tx.origin, \"Not the owner\") */\n      tag_140\n      jumpi\n      mload(0x40)\n      0x08c379a000000000000000000000000000000000000000000000000000000000\n      dup2\n      mstore\n      0x04\n      add\n      tag_141\n      swap1\n      tag_142\n      jump\t// in\n    tag_141:\n      mload(0x40)\n      dup1\n      swap2\n      sub\n      swap1\n      revert\n    tag_140:\n        /* \"contracts/Ptak.sol\":4715:4716  0 */\n      0x00\n        /* \"contracts/Ptak.sol\":4695:4717  newOwner != address(0) */\n      0xffffffffffffffffffffffffffffffffffffffff\n      and\n        /* \"contracts/Ptak.sol\":4695:4703  newOwner */\n      dup2\n        /* \"contracts/Ptak.sol\":4695:4717  newOwner != address(0) */\n      0xffffffffffffffffffffffffffffffffffffffff\n      and\n      sub\n        /* \"contracts/Ptak.sol\":4687:4737  require(newOwner != address(0), \"Invalid address\") */\n      tag_143\n      jumpi\n      mload(0x40)\n      0x08c379a000000000000000000000000000000000000000000000000000000000\n      dup2\n      mstore\n      0x04\n      add\n      tag_144\n      swap1\n      tag_145\n      jump\t// in\n    tag_144:\n      mload(0x40)\n      dup1\n      swap2\n      sub\n      swap1\n      revert\n    tag_143:\n        /* \"contracts/Ptak.sol\":4766:4774  newOwner */\n      dup1\n        /* \"contracts/Ptak.sol\":4748:4755  ownerOf */\n      0x04\n        /* \"contracts/Ptak.sol\":4748:4763  ownerOf[birdId] */\n      0x00\n        /* \"contracts/Ptak.sol\":4756:4762  birdId */\n      dup5\n        /* \"contracts/Ptak.sol\":4748:4763  ownerOf[birdId] */\n      dup2\n      mstore\n      0x20\n      add\n      swap1\n      dup2\n      mstore\n      0x20\n      add\n      0x00\n      keccak256\n      0x00\n        /* \"contracts/Ptak.sol\":4748:4774  ownerOf[birdId] = newOwner */\n      0x0100\n      exp\n      dup2\n      sload\n      dup2\n      0xffffffffffffffffffffffffffffffffffffffff\n      mul\n      not\n      and\n      swap1\n      dup4\n      0xffffffffffffffffffffffffffffffffffffffff\n      and\n      mul\n      or\n      swap1\n      sstore\n      pop\n        /* \"contracts/Ptak.sol\":4537:4782  function transferBird(uint256 birdId, address newOwner) external onlyPark {... */\n      pop\n      pop\n      jump\t// out\n        /* \"contracts/Ptak.sol\":1183:2318  function updateHungerAndAge(uint256 id) public {... */\n    tag_70:\n        /* \"contracts/Ptak.sol\":1241:1262  BirdData storage bird */\n      0x00\n        /* \"contracts/Ptak.sol\":1265:1270  birds */\n      0x00\n        /* \"contracts/Ptak.sol\":1265:1274  birds[id] */\n      0x00\n        /* \"contracts/Ptak.sol\":1271:1273  id */\n      dup4\n        /* \"contracts/Ptak.sol\":1265:1274  birds[id] */\n      dup2\n      mstore\n      0x20\n      add\n      swap1\n      dup2\n      mstore\n      0x20\n      add\n      0x00\n      keccak256\n        /* \"contracts/Ptak.sol\":1241:1274  BirdData storage bird = birds[id] */\n      swap1\n      pop\n        /* \"contracts/Ptak.sol\":1289:1293  bird */\n      dup1\n        /* \"contracts/Ptak.sol\":1289:1300  bird.isDead */\n      0x05\n      add\n      0x00\n      swap1\n      sload\n      swap1\n      0x0100\n      exp\n      swap1\n      div\n      0xff\n      and\n        /* \"contracts/Ptak.sol\":1285:1309  if (bird.isDead) return; */\n      iszero\n      tag_147\n      jumpi\n        /* \"contracts/Ptak.sol\":1302:1309  return; */\n      pop\n      jump(tag_146)\n        /* \"contracts/Ptak.sol\":1285:1309  if (bird.isDead) return; */\n    tag_147:\n        /* \"contracts/Ptak.sol\":1321:1340  uint256 timeElapsed */\n      0x00\n        /* \"contracts/Ptak.sol\":1361:1365  bird */\n      dup2\n        /* \"contracts/Ptak.sol\":1361:1380  bird.lastUpdateTime */\n      0x04\n      add\n      sload\n        /* \"contracts/Ptak.sol\":1343:1358  block.timestamp */\n      timestamp\n        /* \"contracts/Ptak.sol\":1343:1380  block.timestamp - bird.lastUpdateTime */\n      tag_148\n      swap2\n      swap1\n      tag_97\n      jump\t// in\n    tag_148:\n        /* \"contracts/Ptak.sol\":1321:1380  uint256 timeElapsed = block.timestamp - bird.lastUpdateTime */\n      swap1\n      pop\n        /* \"contracts/Ptak.sol\":1409:1410  0 */\n      0x00\n        /* \"contracts/Ptak.sol\":1395:1406  timeElapsed */\n      dup2\n        /* \"contracts/Ptak.sol\":1395:1410  timeElapsed > 0 */\n      gt\n        /* \"contracts/Ptak.sol\":1391:2311  if (timeElapsed > 0) {... */\n      iszero\n      tag_149\n      jumpi\n        /* \"contracts/Ptak.sol\":1427:1465  SpeciesLibrary.SpeciesInfo memory info */\n      0x00\n        /* \"contracts/Ptak.sol\":1468:1511  SpeciesLibrary.getSpeciesInfo(bird.species) */\n      tag_150\n        /* \"contracts/Ptak.sol\":1498:1502  bird */\n      dup4\n        /* \"contracts/Ptak.sol\":1498:1510  bird.species */\n      0x03\n      add\n      0x00\n      swap1\n      sload\n      swap1\n      0x0100\n      exp\n      swap1\n      div\n      0xff\n      and\n        /* \"contracts/Ptak.sol\":1468:1497  SpeciesLibrary.getSpeciesInfo */\n      tag_108\n        /* \"contracts/Ptak.sol\":1468:1511  SpeciesLibrary.getSpeciesInfo(bird.species) */\n      jump\t// in\n    tag_150:\n        /* \"contracts/Ptak.sol\":1427:1511  SpeciesLibrary.SpeciesInfo memory info = SpeciesLibrary.getSpeciesInfo(bird.species) */\n      swap1\n      pop\n        /* \"contracts/Ptak.sol\":1528:1550  uint256 hungerIncrease */\n      0x00\n        /* \"contracts/Ptak.sol\":1592:1596  3600 */\n      0x0e10\n        /* \"contracts/Ptak.sol\":1568:1572  info */\n      dup3\n        /* \"contracts/Ptak.sol\":1568:1588  info.hungerDecayRate */\n      0x40\n      add\n      mload\n        /* \"contracts/Ptak.sol\":1554:1565  timeElapsed */\n      dup5\n        /* \"contracts/Ptak.sol\":1554:1588  timeElapsed * info.hungerDecayRate */\n      tag_151\n      swap2\n      swap1\n      tag_152\n      jump\t// in\n    tag_151:\n        /* \"contracts/Ptak.sol\":1553:1596  (timeElapsed * info.hungerDecayRate) / 3600 */\n      tag_153\n      swap2\n      swap1\n      tag_154\n      jump\t// in\n    tag_153:\n        /* \"contracts/Ptak.sol\":1528:1596  uint256 hungerIncrease = (timeElapsed * info.hungerDecayRate) / 3600 */\n      swap1\n      pop\n        /* \"contracts/Ptak.sol\":1626:1640  hungerIncrease */\n      dup1\n        /* \"contracts/Ptak.sol\":1611:1615  bird */\n      dup5\n        /* \"contracts/Ptak.sol\":1611:1622  bird.hunger */\n      0x01\n      add\n      0x00\n        /* \"contracts/Ptak.sol\":1611:1640  bird.hunger += hungerIncrease */\n      dup3\n      dup3\n      sload\n      tag_155\n      swap2\n      swap1\n      tag_156\n      jump\t// in\n    tag_155:\n      swap3\n      pop\n      pop\n      dup2\n      swap1\n      sstore\n      pop\n        /* \"contracts/Ptak.sol\":1675:1679  info */\n      dup2\n        /* \"contracts/Ptak.sol\":1675:1689  info.maxHunger */\n      0x20\n      add\n      mload\n        /* \"contracts/Ptak.sol\":1661:1665  bird */\n      dup5\n        /* \"contracts/Ptak.sol\":1661:1672  bird.hunger */\n      0x01\n      add\n      sload\n        /* \"contracts/Ptak.sol\":1661:1689  bird.hunger > info.maxHunger */\n      gt\n        /* \"contracts/Ptak.sol\":1657:2098  if (bird.hunger > info.maxHunger) {... */\n      iszero\n      tag_157\n      jumpi\n        /* \"contracts/Ptak.sol\":1710:1726  uint256 overflow */\n      0x00\n        /* \"contracts/Ptak.sol\":1743:1747  info */\n      dup3\n        /* \"contracts/Ptak.sol\":1743:1757  info.maxHunger */\n      0x20\n      add\n      mload\n        /* \"contracts/Ptak.sol\":1729:1733  bird */\n      dup6\n        /* \"contracts/Ptak.sol\":1729:1740  bird.hunger */\n      0x01\n      add\n      sload\n        /* \"contracts/Ptak.sol\":1729:1757  bird.hunger - info.maxHunger */\n      tag_158\n      swap2\n      swap1\n      tag_97\n      jump\t// in\n    tag_158:\n        /* \"contracts/Ptak.sol\":1710:1757  uint256 overflow = bird.hunger - info.maxHunger */\n      swap1\n      pop\n        /* \"contracts/Ptak.sol\":1790:1794  info */\n      dup3\n        /* \"contracts/Ptak.sol\":1790:1804  info.maxHunger */\n      0x20\n      add\n      mload\n        /* \"contracts/Ptak.sol\":1776:1780  bird */\n      dup6\n        /* \"contracts/Ptak.sol\":1776:1787  bird.hunger */\n      0x01\n      add\n        /* \"contracts/Ptak.sol\":1776:1804  bird.hunger = info.maxHunger */\n      dup2\n      swap1\n      sstore\n      pop\n        /* \"contracts/Ptak.sol\":1842:1850  overflow */\n      dup1\n        /* \"contracts/Ptak.sol\":1827:1831  bird */\n      dup6\n        /* \"contracts/Ptak.sol\":1827:1838  bird.health */\n      0x02\n      add\n      sload\n        /* \"contracts/Ptak.sol\":1827:1850  bird.health <= overflow */\n      gt\n        /* \"contracts/Ptak.sol\":1823:2083  if (bird.health <= overflow) {... */\n      tag_159\n      jumpi\n        /* \"contracts/Ptak.sol\":1889:1890  0 */\n      0x00\n        /* \"contracts/Ptak.sol\":1875:1879  bird */\n      dup6\n        /* \"contracts/Ptak.sol\":1875:1886  bird.health */\n      0x02\n      add\n        /* \"contracts/Ptak.sol\":1875:1890  bird.health = 0 */\n      dup2\n      swap1\n      sstore\n      pop\n        /* \"contracts/Ptak.sol\":1927:1931  true */\n      0x01\n        /* \"contracts/Ptak.sol\":1913:1917  bird */\n      dup6\n        /* \"contracts/Ptak.sol\":1913:1924  bird.isDead */\n      0x05\n      add\n      0x00\n        /* \"contracts/Ptak.sol\":1913:1931  bird.isDead = true */\n      0x0100\n      exp\n      dup2\n      sload\n      dup2\n      0xff\n      mul\n      not\n      and\n      swap1\n      dup4\n      iszero\n      iszero\n      mul\n      or\n      swap1\n      sstore\n      pop\n        /* \"contracts/Ptak.sol\":1976:1991  block.timestamp */\n      timestamp\n        /* \"contracts/Ptak.sol\":1954:1958  bird */\n      dup6\n        /* \"contracts/Ptak.sol\":1954:1973  bird.deathTimestamp */\n      0x06\n      add\n        /* \"contracts/Ptak.sol\":1954:1991  bird.deathTimestamp = block.timestamp */\n      dup2\n      swap1\n      sstore\n      pop\n        /* \"contracts/Ptak.sol\":1823:2083  if (bird.health <= overflow) {... */\n      jump(tag_160)\n    tag_159:\n        /* \"contracts/Ptak.sol\":2055:2063  overflow */\n      dup1\n        /* \"contracts/Ptak.sol\":2040:2044  bird */\n      dup6\n        /* \"contracts/Ptak.sol\":2040:2051  bird.health */\n      0x02\n      add\n      0x00\n        /* \"contracts/Ptak.sol\":2040:2063  bird.health -= overflow */\n      dup3\n      dup3\n      sload\n      tag_161\n      swap2\n      swap1\n      tag_97\n      jump\t// in\n    tag_161:\n      swap3\n      pop\n      pop\n      dup2\n      swap1\n      sstore\n      pop\n        /* \"contracts/Ptak.sol\":1823:2083  if (bird.health <= overflow) {... */\n    tag_160:\n        /* \"contracts/Ptak.sol\":1691:2098  {... */\n      pop\n        /* \"contracts/Ptak.sol\":1657:2098  if (bird.hunger > info.maxHunger) {... */\n    tag_157:\n        /* \"contracts/Ptak.sol\":2114:2132  uint256 daysPassed */\n      0x00\n        /* \"contracts/Ptak.sol\":2149:2154  86400 */\n      0x015180\n        /* \"contracts/Ptak.sol\":2135:2146  timeElapsed */\n      dup5\n        /* \"contracts/Ptak.sol\":2135:2154  timeElapsed / 86400 */\n      tag_162\n      swap2\n      swap1\n      tag_154\n      jump\t// in\n    tag_162:\n        /* \"contracts/Ptak.sol\":2114:2154  uint256 daysPassed = timeElapsed / 86400 */\n      swap1\n      pop\n        /* \"contracts/Ptak.sol\":2186:2187  0 */\n      0x00\n        /* \"contracts/Ptak.sol\":2173:2183  daysPassed */\n      dup2\n        /* \"contracts/Ptak.sol\":2173:2187  daysPassed > 0 */\n      gt\n        /* \"contracts/Ptak.sol\":2169:2246  if (daysPassed > 0) {... */\n      iszero\n      tag_163\n      jumpi\n        /* \"contracts/Ptak.sol\":2220:2230  daysPassed */\n      dup1\n        /* \"contracts/Ptak.sol\":2208:2212  bird */\n      dup6\n        /* \"contracts/Ptak.sol\":2208:2216  bird.age */\n      0x00\n      add\n      0x00\n        /* \"contracts/Ptak.sol\":2208:2230  bird.age += daysPassed */\n      dup3\n      dup3\n      sload\n      tag_164\n      swap2\n      swap1\n      tag_156\n      jump\t// in\n    tag_164:\n      swap3\n      pop\n      pop\n      dup2\n      swap1\n      sstore\n      pop\n        /* \"contracts/Ptak.sol\":2169:2246  if (daysPassed > 0) {... */\n    tag_163:\n        /* \"contracts/Ptak.sol\":2284:2299  block.timestamp */\n      timestamp\n        /* \"contracts/Ptak.sol\":2262:2266  bird */\n      dup6\n        /* \"contracts/Ptak.sol\":2262:2281  bird.lastUpdateTime */\n      0x04\n      add\n        /* \"contracts/Ptak.sol\":2262:2299  bird.lastUpdateTime = block.timestamp */\n      dup2\n      swap1\n      sstore\n      pop\n        /* \"contracts/Ptak.sol\":1412:2311  {... */\n      pop\n      pop\n      pop\n        /* \"contracts/Ptak.sol\":1391:2311  if (timeElapsed > 0) {... */\n    tag_149:\n        /* \"contracts/Ptak.sol\":1230:2318  {... */\n      pop\n      pop\n        /* \"contracts/Ptak.sol\":1183:2318  function updateHungerAndAge(uint256 id) public {... */\n    tag_146:\n      pop\n      jump\t// out\n        /* \"contracts/Ptak.sol\":2536:2800  function healBird(uint256 birdId) external onlyPark {... */\n    tag_73:\n        /* \"contracts/Ptak.sol\":667:679  parkContract */\n      0x02\n      0x00\n      swap1\n      sload\n      swap1\n      0x0100\n      exp\n      swap1\n      div\n      0xffffffffffffffffffffffffffffffffffffffff\n      and\n        /* \"contracts/Ptak.sol\":653:679  msg.sender == parkContract */\n      0xffffffffffffffffffffffffffffffffffffffff\n      and\n        /* \"contracts/Ptak.sol\":653:663  msg.sender */\n      caller\n        /* \"contracts/Ptak.sol\":653:679  msg.sender == parkContract */\n      0xffffffffffffffffffffffffffffffffffffffff\n      and\n      eq\n        /* \"contracts/Ptak.sol\":645:707  require(msg.sender == parkContract, \"Only Park can call this\") */\n      tag_166\n      jumpi\n      mload(0x40)\n      0x08c379a000000000000000000000000000000000000000000000000000000000\n      dup2\n      mstore\n      0x04\n      add\n      tag_167\n      swap1\n      tag_87\n      jump\t// in\n    tag_167:\n      mload(0x40)\n      dup1\n      swap2\n      sub\n      swap1\n      revert\n    tag_166:\n        /* \"contracts/Ptak.sol\":2599:2620  BirdData storage bird */\n      0x00\n        /* \"contracts/Ptak.sol\":2623:2628  birds */\n      0x00\n        /* \"contracts/Ptak.sol\":2623:2636  birds[birdId] */\n      0x00\n        /* \"contracts/Ptak.sol\":2629:2635  birdId */\n      dup4\n        /* \"contracts/Ptak.sol\":2623:2636  birds[birdId] */\n      dup2\n      mstore\n      0x20\n      add\n      swap1\n      dup2\n      mstore\n      0x20\n      add\n      0x00\n      keccak256\n        /* \"contracts/Ptak.sol\":2599:2636  BirdData storage bird = birds[birdId] */\n      swap1\n      pop\n        /* \"contracts/Ptak.sol\":2656:2660  bird */\n      dup1\n        /* \"contracts/Ptak.sol\":2656:2667  bird.isDead */\n      0x05\n      add\n      0x00\n      swap1\n      sload\n      swap1\n      0x0100\n      exp\n      swap1\n      div\n      0xff\n      and\n        /* \"contracts/Ptak.sol\":2655:2667  !bird.isDead */\n      iszero\n        /* \"contracts/Ptak.sol\":2647:2712  require(!bird.isDead, \"Cannot heal a dead bird; revive it first\") */\n      tag_169\n      jumpi\n      mload(0x40)\n      0x08c379a000000000000000000000000000000000000000000000000000000000\n      dup2\n      mstore\n      0x04\n      add\n      tag_170\n      swap1\n      tag_171\n      jump\t// in\n    tag_170:\n      mload(0x40)\n      dup1\n      swap2\n      sub\n      swap1\n      revert\n    tag_169:\n        /* \"contracts/Ptak.sol\":2739:2782  SpeciesLibrary.getSpeciesInfo(bird.species) */\n      tag_172\n        /* \"contracts/Ptak.sol\":2769:2773  bird */\n      dup2\n        /* \"contracts/Ptak.sol\":2769:2781  bird.species */\n      0x03\n      add\n      0x00\n      swap1\n      sload\n      swap1\n      0x0100\n      exp\n      swap1\n      div\n      0xff\n      and\n        /* \"contracts/Ptak.sol\":2739:2768  SpeciesLibrary.getSpeciesInfo */\n      tag_108\n        /* \"contracts/Ptak.sol\":2739:2782  SpeciesLibrary.getSpeciesInfo(bird.species) */\n      jump\t// in\n    tag_172:\n        /* \"contracts/Ptak.sol\":2739:2792  SpeciesLibrary.getSpeciesInfo(bird.species).maxHealth */\n      0x00\n      add\n      mload\n        /* \"contracts/Ptak.sol\":2725:2729  bird */\n      dup2\n        /* \"contracts/Ptak.sol\":2725:2736  bird.health */\n      0x02\n      add\n        /* \"contracts/Ptak.sol\":2725:2792  bird.health = SpeciesLibrary.getSpeciesInfo(bird.species).maxHealth */\n      dup2\n      swap1\n      sstore\n      pop\n        /* \"contracts/Ptak.sol\":2588:2800  {... */\n      pop\n        /* \"contracts/Ptak.sol\":2536:2800  function healBird(uint256 birdId) external onlyPark {... */\n      pop\n      jump\t// out\n        /* \"contracts/Ptak.sol\":405:446  mapping(uint256 => BirdData) public birds */\n    tag_76:\n      mstore(0x20, 0x00)\n      dup1\n      0x00\n      mstore\n      keccak256(0x00, 0x40)\n      0x00\n      swap2\n      pop\n      swap1\n      pop\n      dup1\n      0x00\n      add\n      sload\n      swap1\n      dup1\n      0x01\n      add\n      sload\n      swap1\n      dup1\n      0x02\n      add\n      sload\n      swap1\n      dup1\n      0x03\n      add\n      0x00\n      swap1\n      sload\n      swap1\n      0x0100\n      exp\n      swap1\n      div\n      0xff\n      and\n      swap1\n      dup1\n      0x04\n      add\n      sload\n      swap1\n      dup1\n      0x05\n      add\n      0x00\n      swap1\n      sload\n      swap1\n      0x0100\n      exp\n      swap1\n      div\n      0xff\n      and\n      swap1\n      dup1\n      0x06\n      add\n      sload\n      swap1\n      pop\n      dup8\n      jump\t// out\n        /* \"contracts/Ptak.sol\":2326:2528  function getBirdImage(uint256 birdId) external view returns (string memory) {... */\n    tag_81:\n        /* \"contracts/Ptak.sol\":2387:2400  string memory */\n      0x60\n        /* \"contracts/Ptak.sol\":2413:2434  BirdData storage bird */\n      0x00\n        /* \"contracts/Ptak.sol\":2437:2442  birds */\n      0x00\n        /* \"contracts/Ptak.sol\":2437:2450  birds[birdId] */\n      0x00\n        /* \"contracts/Ptak.sol\":2443:2449  birdId */\n      dup5\n        /* \"contracts/Ptak.sol\":2437:2450  birds[birdId] */\n      dup2\n      mstore\n      0x20\n      add\n      swap1\n      dup2\n      mstore\n      0x20\n      add\n      0x00\n      keccak256\n        /* \"contracts/Ptak.sol\":2413:2450  BirdData storage bird = birds[birdId] */\n      swap1\n      pop\n        /* \"contracts/Ptak.sol\":2468:2511  SpeciesLibrary.getSpeciesInfo(bird.species) */\n      tag_174\n        /* \"contracts/Ptak.sol\":2498:2502  bird */\n      dup2\n        /* \"contracts/Ptak.sol\":2498:2510  bird.species */\n      0x03\n      add\n      0x00\n      swap1\n      sload\n      swap1\n      0x0100\n      exp\n      swap1\n      div\n      0xff\n      and\n        /* \"contracts/Ptak.sol\":2468:2497  SpeciesLibrary.getSpeciesInfo */\n      tag_108\n        /* \"contracts/Ptak.sol\":2468:2511  SpeciesLibrary.getSpeciesInfo(bird.species) */\n      jump\t// in\n    tag_174:\n        /* \"contracts/Ptak.sol\":2468:2520  SpeciesLibrary.getSpeciesInfo(bird.species).imageUrl */\n      0x80\n      add\n      mload\n        /* \"contracts/Ptak.sol\":2461:2520  return SpeciesLibrary.getSpeciesInfo(bird.species).imageUrl */\n      swap2\n      pop\n      pop\n        /* \"contracts/Ptak.sol\":2326:2528  function getBirdImage(uint256 birdId) external view returns (string memory) {... */\n      swap2\n      swap1\n      pop\n      jump\t// out\n        /* \"contracts/Ptak.sol\":2808:3346  function randomPoisoning(uint256 birdId) private {... */\n    tag_91:\n        /* \"contracts/Ptak.sol\":2868:2906  SpeciesLibrary.SpeciesInfo memory info */\n      tag_176\n      tag_177\n      jump\t// in\n    tag_176:\n        /* \"contracts/Ptak.sol\":2917:2943  Ptak.BirdData storage bird */\n      0x00\n        /* \"contracts/Ptak.sol\":2946:2951  birds */\n      0x00\n        /* \"contracts/Ptak.sol\":2946:2959  birds[birdId] */\n      0x00\n        /* \"contracts/Ptak.sol\":2952:2958  birdId */\n      dup5\n        /* \"contracts/Ptak.sol\":2946:2959  birds[birdId] */\n      dup2\n      mstore\n      0x20\n      add\n      swap1\n      dup2\n      mstore\n      0x20\n      add\n      0x00\n      keccak256\n        /* \"contracts/Ptak.sol\":2917:2959  Ptak.BirdData storage bird = birds[birdId] */\n      swap1\n      pop\n        /* \"contracts/Ptak.sol\":2977:3020  SpeciesLibrary.getSpeciesInfo(bird.species) */\n      tag_178\n        /* \"contracts/Ptak.sol\":3007:3011  bird */\n      dup2\n        /* \"contracts/Ptak.sol\":3007:3019  bird.species */\n      0x03\n      add\n      0x00\n      swap1\n      sload\n      swap1\n      0x0100\n      exp\n      swap1\n      div\n      0xff\n      and\n        /* \"contracts/Ptak.sol\":2977:3006  SpeciesLibrary.getSpeciesInfo */\n      tag_108\n        /* \"contracts/Ptak.sol\":2977:3020  SpeciesLibrary.getSpeciesInfo(bird.species) */\n      jump\t// in\n    tag_178:\n        /* \"contracts/Ptak.sol\":2970:3020  info = SpeciesLibrary.getSpeciesInfo(bird.species) */\n      swap2\n      pop\n        /* \"contracts/Ptak.sol\":3037:3044  insured */\n      0x03\n        /* \"contracts/Ptak.sol\":3037:3052  insured[birdId] */\n      0x00\n        /* \"contracts/Ptak.sol\":3045:3051  birdId */\n      dup5\n        /* \"contracts/Ptak.sol\":3037:3052  insured[birdId] */\n      dup2\n      mstore\n      0x20\n      add\n      swap1\n      dup2\n      mstore\n      0x20\n      add\n      0x00\n      keccak256\n      0x00\n      swap1\n      sload\n      swap1\n      0x0100\n      exp\n      swap1\n      div\n      0xff\n      and\n        /* \"contracts/Ptak.sol\":3033:3339  if(!insured[birdId]){... */\n      tag_179\n      jumpi\n        /* \"contracts/Ptak.sol\":3068:3082  uint256 chance */\n      0x00\n        /* \"contracts/Ptak.sol\":3085:3128  SpeciesLibrary.getSpeciesInfo(bird.species) */\n      tag_180\n        /* \"contracts/Ptak.sol\":3115:3119  bird */\n      dup3\n        /* \"contracts/Ptak.sol\":3115:3127  bird.species */\n      0x03\n      add\n      0x00\n      swap1\n      sload\n      swap1\n      0x0100\n      exp\n      swap1\n      div\n      0xff\n      and\n        /* \"contracts/Ptak.sol\":3085:3114  SpeciesLibrary.getSpeciesInfo */\n      tag_108\n        /* \"contracts/Ptak.sol\":3085:3128  SpeciesLibrary.getSpeciesInfo(bird.species) */\n      jump\t// in\n    tag_180:\n        /* \"contracts/Ptak.sol\":3085:3144  SpeciesLibrary.getSpeciesInfo(bird.species).poisoningChance */\n      0x60\n      add\n      mload\n        /* \"contracts/Ptak.sol\":3068:3144  uint256 chance = SpeciesLibrary.getSpeciesInfo(bird.species).poisoningChance */\n      swap1\n      pop\n        /* \"contracts/Ptak.sol\":3159:3171  uint256 rand */\n      0x00\n        /* \"contracts/Ptak.sol\":3238:3241  100 */\n      0x64\n        /* \"contracts/Ptak.sol\":3209:3224  block.timestamp */\n      timestamp\n        /* \"contracts/Ptak.sol\":3226:3232  birdId */\n      dup7\n        /* \"contracts/Ptak.sol\":3192:3233  abi.encodePacked(block.timestamp, birdId) */\n      add(0x20, mload(0x40))\n      tag_181\n      swap3\n      swap2\n      swap1\n      tag_182\n      jump\t// in\n    tag_181:\n      mload(0x40)\n      0x20\n      dup2\n      dup4\n      sub\n      sub\n      dup2\n      mstore\n      swap1\n      0x40\n      mstore\n        /* \"contracts/Ptak.sol\":3182:3234  keccak256(abi.encodePacked(block.timestamp, birdId)) */\n      dup1\n      mload\n      swap1\n      0x20\n      add\n      keccak256\n        /* \"contracts/Ptak.sol\":3174:3235  uint256(keccak256(abi.encodePacked(block.timestamp, birdId))) */\n      0x00\n      shr\n        /* \"contracts/Ptak.sol\":3174:3241  uint256(keccak256(abi.encodePacked(block.timestamp, birdId))) % 100 */\n      tag_183\n      swap2\n      swap1\n      tag_184\n      jump\t// in\n    tag_183:\n        /* \"contracts/Ptak.sol\":3159:3241  uint256 rand = uint256(keccak256(abi.encodePacked(block.timestamp, birdId))) % 100 */\n      swap1\n      pop\n        /* \"contracts/Ptak.sol\":3268:3274  chance */\n      dup2\n        /* \"contracts/Ptak.sol\":3261:3265  rand */\n      dup2\n        /* \"contracts/Ptak.sol\":3261:3274  rand < chance */\n      lt\n        /* \"contracts/Ptak.sol\":3258:3328  if(rand < chance) {... */\n      iszero\n      tag_185\n      jumpi\n        /* \"contracts/Ptak.sol\":3310:3312  25 */\n      0x19\n        /* \"contracts/Ptak.sol\":3295:3299  bird */\n      dup4\n        /* \"contracts/Ptak.sol\":3295:3306  bird.health */\n      0x02\n      add\n      0x00\n        /* \"contracts/Ptak.sol\":3295:3312  bird.health -= 25 */\n      dup3\n      dup3\n      sload\n      tag_186\n      swap2\n      swap1\n      tag_97\n      jump\t// in\n    tag_186:\n      swap3\n      pop\n      pop\n      dup2\n      swap1\n      sstore\n      pop\n        /* \"contracts/Ptak.sol\":3258:3328  if(rand < chance) {... */\n    tag_185:\n        /* \"contracts/Ptak.sol\":3053:3339  {... */\n      pop\n      pop\n        /* \"contracts/Ptak.sol\":3033:3339  if(!insured[birdId]){... */\n    tag_179:\n        /* \"contracts/Ptak.sol\":2857:3346  {... */\n      pop\n      pop\n        /* \"contracts/Ptak.sol\":2808:3346  function randomPoisoning(uint256 birdId) private {... */\n      pop\n      jump\t// out\n        /* \"contracts/SpeciesLibrary.sol\":1361:3666  function getSpeciesInfo(Species species) internal pure returns (SpeciesInfo memory) {... */\n    tag_108:\n        /* \"contracts/SpeciesLibrary.sol\":1425:1443  SpeciesInfo memory */\n      tag_187\n      tag_177\n      jump\t// in\n    tag_187:\n        /* \"contracts/SpeciesLibrary.sol\":1471:1487  Species.MuteSwan */\n      0x00\n        /* \"contracts/SpeciesLibrary.sol\":1460:1487  species == Species.MuteSwan */\n      0x0a\n      dup2\n      gt\n      iszero\n      tag_189\n      jumpi\n      tag_190\n      tag_111\n      jump\t// in\n    tag_190:\n    tag_189:\n        /* \"contracts/SpeciesLibrary.sol\":1460:1467  species */\n      dup3\n        /* \"contracts/SpeciesLibrary.sol\":1460:1487  species == Species.MuteSwan */\n      0x0a\n      dup2\n      gt\n      iszero\n      tag_191\n      jumpi\n      tag_192\n      tag_111\n      jump\t// in\n    tag_192:\n    tag_191:\n      sub\n        /* \"contracts/SpeciesLibrary.sol\":1456:3623  if (species == Species.MuteSwan) {... */\n      tag_193\n      jumpi\n        /* \"contracts/SpeciesLibrary.sol\":1511:1635  SpeciesInfo(200, 150, 3, 1, \"https://gateway.pinata.cloud/ipfs/bafybeia3le4astknh2p4mbkd5w42j522tnse4wxk7w5m7wimoqdp6ouzpy\") */\n      mload(0x40)\n      dup1\n      0xa0\n      add\n      0x40\n      mstore\n      dup1\n        /* \"contracts/SpeciesLibrary.sol\":1523:1526  200 */\n      0xc8\n        /* \"contracts/SpeciesLibrary.sol\":1511:1635  SpeciesInfo(200, 150, 3, 1, \"https://gateway.pinata.cloud/ipfs/bafybeia3le4astknh2p4mbkd5w42j522tnse4wxk7w5m7wimoqdp6ouzpy\") */\n      dup2\n      mstore\n      0x20\n      add\n        /* \"contracts/SpeciesLibrary.sol\":1528:1531  150 */\n      0x96\n        /* \"contracts/SpeciesLibrary.sol\":1511:1635  SpeciesInfo(200, 150, 3, 1, \"https://gateway.pinata.cloud/ipfs/bafybeia3le4astknh2p4mbkd5w42j522tnse4wxk7w5m7wimoqdp6ouzpy\") */\n      dup2\n      mstore\n      0x20\n      add\n        /* \"contracts/SpeciesLibrary.sol\":1533:1534  3 */\n      0x03\n        /* \"contracts/SpeciesLibrary.sol\":1511:1635  SpeciesInfo(200, 150, 3, 1, \"https://gateway.pinata.cloud/ipfs/bafybeia3le4astknh2p4mbkd5w42j522tnse4wxk7w5m7wimoqdp6ouzpy\") */\n      dup2\n      mstore\n      0x20\n      add\n        /* \"contracts/SpeciesLibrary.sol\":1536:1537  1 */\n      0x01\n        /* \"contracts/SpeciesLibrary.sol\":1511:1635  SpeciesInfo(200, 150, 3, 1, \"https://gateway.pinata.cloud/ipfs/bafybeia3le4astknh2p4mbkd5w42j522tnse4wxk7w5m7wimoqdp6ouzpy\") */\n      dup2\n      mstore\n      0x20\n      add\n      mload(0x40)\n      dup1\n      0x80\n      add\n      0x40\n      mstore\n      dup1\n      0x5d\n      dup2\n      mstore\n      0x20\n      add\n      data_1ffc5c99f8ff866cb3cb9bd46d45453badb8f26649052a31a9be49b9b43149da\n      0x5d\n      swap2\n      codecopy\n      dup2\n      mstore\n      pop\n        /* \"contracts/SpeciesLibrary.sol\":1504:1635  return SpeciesInfo(200, 150, 3, 1, \"https://gateway.pinata.cloud/ipfs/bafybeia3le4astknh2p4mbkd5w42j522tnse4wxk7w5m7wimoqdp6ouzpy\") */\n      swap1\n      pop\n      jump(tag_188)\n        /* \"contracts/SpeciesLibrary.sol\":1456:3623  if (species == Species.MuteSwan) {... */\n    tag_193:\n        /* \"contracts/SpeciesLibrary.sol\":1668:1686  Species.WhiteStork */\n      0x01\n        /* \"contracts/SpeciesLibrary.sol\":1657:1686  species == Species.WhiteStork */\n      0x0a\n      dup2\n      gt\n      iszero\n      tag_195\n      jumpi\n      tag_196\n      tag_111\n      jump\t// in\n    tag_196:\n    tag_195:\n        /* \"contracts/SpeciesLibrary.sol\":1657:1664  species */\n      dup3\n        /* \"contracts/SpeciesLibrary.sol\":1657:1686  species == Species.WhiteStork */\n      0x0a\n      dup2\n      gt\n      iszero\n      tag_197\n      jumpi\n      tag_198\n      tag_111\n      jump\t// in\n    tag_198:\n    tag_197:\n      sub\n        /* \"contracts/SpeciesLibrary.sol\":1653:3623  if (species == Species.WhiteStork) {... */\n      tag_199\n      jumpi\n        /* \"contracts/SpeciesLibrary.sol\":1710:1834  SpeciesInfo(220, 200, 2, 5, \"https://gateway.pinata.cloud/ipfs/bafybeigohotok6k3onvtjyypfnbnzbcso2qcixbwz4wh64vp2n3lq7nksa\") */\n      mload(0x40)\n      dup1\n      0xa0\n      add\n      0x40\n      mstore\n      dup1\n        /* \"contracts/SpeciesLibrary.sol\":1722:1725  220 */\n      0xdc\n        /* \"contracts/SpeciesLibrary.sol\":1710:1834  SpeciesInfo(220, 200, 2, 5, \"https://gateway.pinata.cloud/ipfs/bafybeigohotok6k3onvtjyypfnbnzbcso2qcixbwz4wh64vp2n3lq7nksa\") */\n      dup2\n      mstore\n      0x20\n      add\n        /* \"contracts/SpeciesLibrary.sol\":1727:1730  200 */\n      0xc8\n        /* \"contracts/SpeciesLibrary.sol\":1710:1834  SpeciesInfo(220, 200, 2, 5, \"https://gateway.pinata.cloud/ipfs/bafybeigohotok6k3onvtjyypfnbnzbcso2qcixbwz4wh64vp2n3lq7nksa\") */\n      dup2\n      mstore\n      0x20\n      add\n        /* \"contracts/SpeciesLibrary.sol\":1732:1733  2 */\n      0x02\n        /* \"contracts/SpeciesLibrary.sol\":1710:1834  SpeciesInfo(220, 200, 2, 5, \"https://gateway.pinata.cloud/ipfs/bafybeigohotok6k3onvtjyypfnbnzbcso2qcixbwz4wh64vp2n3lq7nksa\") */\n      dup2\n      mstore\n      0x20\n      add\n        /* \"contracts/SpeciesLibrary.sol\":1735:1736  5 */\n      0x05\n        /* \"contracts/SpeciesLibrary.sol\":1710:1834  SpeciesInfo(220, 200, 2, 5, \"https://gateway.pinata.cloud/ipfs/bafybeigohotok6k3onvtjyypfnbnzbcso2qcixbwz4wh64vp2n3lq7nksa\") */\n      dup2\n      mstore\n      0x20\n      add\n      mload(0x40)\n      dup1\n      0x80\n      add\n      0x40\n      mstore\n      dup1\n      0x5d\n      dup2\n      mstore\n      0x20\n      add\n      data_86e92b1a76e2f297d69c89af4232d1b3e647fd322843457f38b762c99d8ee708\n      0x5d\n      swap2\n      codecopy\n      dup2\n      mstore\n      pop\n        /* \"contracts/SpeciesLibrary.sol\":1703:1834  return SpeciesInfo(220, 200, 2, 5, \"https://gateway.pinata.cloud/ipfs/bafybeigohotok6k3onvtjyypfnbnzbcso2qcixbwz4wh64vp2n3lq7nksa\") */\n      swap1\n      pop\n      jump(tag_188)\n        /* \"contracts/SpeciesLibrary.sol\":1653:3623  if (species == Species.WhiteStork) {... */\n    tag_199:\n        /* \"contracts/SpeciesLibrary.sol\":1867:1886  Species.MallardDuck */\n      0x02\n        /* \"contracts/SpeciesLibrary.sol\":1856:1886  species == Species.MallardDuck */\n      0x0a\n      dup2\n      gt\n      iszero\n      tag_201\n      jumpi\n      tag_202\n      tag_111\n      jump\t// in\n    tag_202:\n    tag_201:\n        /* \"contracts/SpeciesLibrary.sol\":1856:1863  species */\n      dup3\n        /* \"contracts/SpeciesLibrary.sol\":1856:1886  species == Species.MallardDuck */\n      0x0a\n      dup2\n      gt\n      iszero\n      tag_203\n      jumpi\n      tag_204\n      tag_111\n      jump\t// in\n    tag_204:\n    tag_203:\n      sub\n        /* \"contracts/SpeciesLibrary.sol\":1852:3623  if (species == Species.MallardDuck) {... */\n      tag_205\n      jumpi\n        /* \"contracts/SpeciesLibrary.sol\":1910:2032  SpeciesInfo(80, 80, 3, 6, \"https://gateway.pinata.cloud/ipfs/bafybeiev7pucz7yh7x6haidmphp5ieobvcfdclnlwjqa2ivs4y357pvwma\") */\n      mload(0x40)\n      dup1\n      0xa0\n      add\n      0x40\n      mstore\n      dup1\n        /* \"contracts/SpeciesLibrary.sol\":1922:1924  80 */\n      0x50\n        /* \"contracts/SpeciesLibrary.sol\":1910:2032  SpeciesInfo(80, 80, 3, 6, \"https://gateway.pinata.cloud/ipfs/bafybeiev7pucz7yh7x6haidmphp5ieobvcfdclnlwjqa2ivs4y357pvwma\") */\n      dup2\n      mstore\n      0x20\n      add\n        /* \"contracts/SpeciesLibrary.sol\":1926:1928  80 */\n      0x50\n        /* \"contracts/SpeciesLibrary.sol\":1910:2032  SpeciesInfo(80, 80, 3, 6, \"https://gateway.pinata.cloud/ipfs/bafybeiev7pucz7yh7x6haidmphp5ieobvcfdclnlwjqa2ivs4y357pvwma\") */\n      dup2\n      mstore\n      0x20\n      add\n        /* \"contracts/SpeciesLibrary.sol\":1930:1931  3 */\n      0x03\n        /* \"contracts/SpeciesLibrary.sol\":1910:2032  SpeciesInfo(80, 80, 3, 6, \"https://gateway.pinata.cloud/ipfs/bafybeiev7pucz7yh7x6haidmphp5ieobvcfdclnlwjqa2ivs4y357pvwma\") */\n      dup2\n      mstore\n      0x20\n      add\n        /* \"contracts/SpeciesLibrary.sol\":1933:1934  6 */\n      0x06\n        /* \"contracts/SpeciesLibrary.sol\":1910:2032  SpeciesInfo(80, 80, 3, 6, \"https://gateway.pinata.cloud/ipfs/bafybeiev7pucz7yh7x6haidmphp5ieobvcfdclnlwjqa2ivs4y357pvwma\") */\n      dup2\n      mstore\n      0x20\n      add\n      mload(0x40)\n      dup1\n      0x80\n      add\n      0x40\n      mstore\n      dup1\n      0x5d\n      dup2\n      mstore\n      0x20\n      add\n      data_3bbf1c81af77207dbf9db8f891697113273de930322fc10149aebcb2d416dad6\n      0x5d\n      swap2\n      codecopy\n      dup2\n      mstore\n      pop\n        /* \"contracts/SpeciesLibrary.sol\":1903:2032  return SpeciesInfo(80, 80, 3, 6, \"https://gateway.pinata.cloud/ipfs/bafybeiev7pucz7yh7x6haidmphp5ieobvcfdclnlwjqa2ivs4y357pvwma\") */\n      swap1\n      pop\n      jump(tag_188)\n        /* \"contracts/SpeciesLibrary.sol\":1852:3623  if (species == Species.MallardDuck) {... */\n    tag_205:\n        /* \"contracts/SpeciesLibrary.sol\":2065:2081  Species.Mythical */\n      0x0a\n        /* \"contracts/SpeciesLibrary.sol\":2054:2081  species == Species.Mythical */\n      dup1\n      dup2\n      gt\n      iszero\n      tag_207\n      jumpi\n      tag_208\n      tag_111\n      jump\t// in\n    tag_208:\n    tag_207:\n        /* \"contracts/SpeciesLibrary.sol\":2054:2061  species */\n      dup3\n        /* \"contracts/SpeciesLibrary.sol\":2054:2081  species == Species.Mythical */\n      0x0a\n      dup2\n      gt\n      iszero\n      tag_209\n      jumpi\n      tag_210\n      tag_111\n      jump\t// in\n    tag_210:\n    tag_209:\n      sub\n        /* \"contracts/SpeciesLibrary.sol\":2050:3623  if (species == Species.Mythical) {... */\n      tag_211\n      jumpi\n        /* \"contracts/SpeciesLibrary.sol\":2105:2229  SpeciesInfo(300, 300, 1, 0, \"https://gateway.pinata.cloud/ipfs/bafybeietbf5qosrybqgkq2cd4czv66dww6st4wj5xloze4enb2d5xyj6pm\") */\n      mload(0x40)\n      dup1\n      0xa0\n      add\n      0x40\n      mstore\n      dup1\n        /* \"contracts/SpeciesLibrary.sol\":2117:2120  300 */\n      0x012c\n        /* \"contracts/SpeciesLibrary.sol\":2105:2229  SpeciesInfo(300, 300, 1, 0, \"https://gateway.pinata.cloud/ipfs/bafybeietbf5qosrybqgkq2cd4czv66dww6st4wj5xloze4enb2d5xyj6pm\") */\n      dup2\n      mstore\n      0x20\n      add\n        /* \"contracts/SpeciesLibrary.sol\":2122:2125  300 */\n      0x012c\n        /* \"contracts/SpeciesLibrary.sol\":2105:2229  SpeciesInfo(300, 300, 1, 0, \"https://gateway.pinata.cloud/ipfs/bafybeietbf5qosrybqgkq2cd4czv66dww6st4wj5xloze4enb2d5xyj6pm\") */\n      dup2\n      mstore\n      0x20\n      add\n        /* \"contracts/SpeciesLibrary.sol\":2127:2128  1 */\n      0x01\n        /* \"contracts/SpeciesLibrary.sol\":2105:2229  SpeciesInfo(300, 300, 1, 0, \"https://gateway.pinata.cloud/ipfs/bafybeietbf5qosrybqgkq2cd4czv66dww6st4wj5xloze4enb2d5xyj6pm\") */\n      dup2\n      mstore\n      0x20\n      add\n        /* \"contracts/SpeciesLibrary.sol\":2130:2131  0 */\n      0x00\n        /* \"contracts/SpeciesLibrary.sol\":2105:2229  SpeciesInfo(300, 300, 1, 0, \"https://gateway.pinata.cloud/ipfs/bafybeietbf5qosrybqgkq2cd4czv66dww6st4wj5xloze4enb2d5xyj6pm\") */\n      dup2\n      mstore\n      0x20\n      add\n      mload(0x40)\n      dup1\n      0x80\n      add\n      0x40\n      mstore\n      dup1\n      0x5d\n      dup2\n      mstore\n      0x20\n      add\n      data_bf1e0c883d5045b15993c31eb358768c2346e70fb0546c814a2e5325206e2434\n      0x5d\n      swap2\n      codecopy\n      dup2\n      mstore\n      pop\n        /* \"contracts/SpeciesLibrary.sol\":2098:2229  return SpeciesInfo(300, 300, 1, 0, \"https://gateway.pinata.cloud/ipfs/bafybeietbf5qosrybqgkq2cd4czv66dww6st4wj5xloze4enb2d5xyj6pm\") */\n      swap1\n      pop\n      jump(tag_188)\n        /* \"contracts/SpeciesLibrary.sol\":2050:3623  if (species == Species.Mythical) {... */\n    tag_211:\n        /* \"contracts/SpeciesLibrary.sol\":2262:2279  Species.GreyHeron */\n      0x03\n        /* \"contracts/SpeciesLibrary.sol\":2251:2279  species == Species.GreyHeron */\n      0x0a\n      dup2\n      gt\n      iszero\n      tag_213\n      jumpi\n      tag_214\n      tag_111\n      jump\t// in\n    tag_214:\n    tag_213:\n        /* \"contracts/SpeciesLibrary.sol\":2251:2258  species */\n      dup3\n        /* \"contracts/SpeciesLibrary.sol\":2251:2279  species == Species.GreyHeron */\n      0x0a\n      dup2\n      gt\n      iszero\n      tag_215\n      jumpi\n      tag_216\n      tag_111\n      jump\t// in\n    tag_216:\n    tag_215:\n      sub\n        /* \"contracts/SpeciesLibrary.sol\":2247:3623  if (species == Species.GreyHeron) {... */\n      tag_217\n      jumpi\n        /* \"contracts/SpeciesLibrary.sol\":2303:2426  SpeciesInfo(180, 90, 2, 4, \"https://gateway.pinata.cloud/ipfs/bafybeifxnqrpp3afajntrnwyynu2lcrzvmdmsthwab6x2wn23wcnbdjn6m\") */\n      mload(0x40)\n      dup1\n      0xa0\n      add\n      0x40\n      mstore\n      dup1\n        /* \"contracts/SpeciesLibrary.sol\":2315:2318  180 */\n      0xb4\n        /* \"contracts/SpeciesLibrary.sol\":2303:2426  SpeciesInfo(180, 90, 2, 4, \"https://gateway.pinata.cloud/ipfs/bafybeifxnqrpp3afajntrnwyynu2lcrzvmdmsthwab6x2wn23wcnbdjn6m\") */\n      dup2\n      mstore\n      0x20\n      add\n        /* \"contracts/SpeciesLibrary.sol\":2320:2322  90 */\n      0x5a\n        /* \"contracts/SpeciesLibrary.sol\":2303:2426  SpeciesInfo(180, 90, 2, 4, \"https://gateway.pinata.cloud/ipfs/bafybeifxnqrpp3afajntrnwyynu2lcrzvmdmsthwab6x2wn23wcnbdjn6m\") */\n      dup2\n      mstore\n      0x20\n      add\n        /* \"contracts/SpeciesLibrary.sol\":2324:2325  2 */\n      0x02\n        /* \"contracts/SpeciesLibrary.sol\":2303:2426  SpeciesInfo(180, 90, 2, 4, \"https://gateway.pinata.cloud/ipfs/bafybeifxnqrpp3afajntrnwyynu2lcrzvmdmsthwab6x2wn23wcnbdjn6m\") */\n      dup2\n      mstore\n      0x20\n      add\n        /* \"contracts/SpeciesLibrary.sol\":2327:2328  4 */\n      0x04\n        /* \"contracts/SpeciesLibrary.sol\":2303:2426  SpeciesInfo(180, 90, 2, 4, \"https://gateway.pinata.cloud/ipfs/bafybeifxnqrpp3afajntrnwyynu2lcrzvmdmsthwab6x2wn23wcnbdjn6m\") */\n      dup2\n      mstore\n      0x20\n      add\n      mload(0x40)\n      dup1\n      0x80\n      add\n      0x40\n      mstore\n      dup1\n      0x5d\n      dup2\n      mstore\n      0x20\n      add\n      data_3aaee52e591491d0c37d609e70d05ae7f1f2d7910d54c05cb9fcdcf49c54ca0d\n      0x5d\n      swap2\n      codecopy\n      dup2\n      mstore\n      pop\n        /* \"contracts/SpeciesLibrary.sol\":2296:2426  return SpeciesInfo(180, 90, 2, 4, \"https://gateway.pinata.cloud/ipfs/bafybeifxnqrpp3afajntrnwyynu2lcrzvmdmsthwab6x2wn23wcnbdjn6m\") */\n      swap1\n      pop\n      jump(tag_188)\n        /* \"contracts/SpeciesLibrary.sol\":2247:3623  if (species == Species.GreyHeron) {... */\n    tag_217:\n        /* \"contracts/SpeciesLibrary.sol\":2459:2481  Species.RedNeckedGrebe */\n      0x04\n        /* \"contracts/SpeciesLibrary.sol\":2448:2481  species == Species.RedNeckedGrebe */\n      0x0a\n      dup2\n      gt\n      iszero\n      tag_219\n      jumpi\n      tag_220\n      tag_111\n      jump\t// in\n    tag_220:\n    tag_219:\n        /* \"contracts/SpeciesLibrary.sol\":2448:2455  species */\n      dup3\n        /* \"contracts/SpeciesLibrary.sol\":2448:2481  species == Species.RedNeckedGrebe */\n      0x0a\n      dup2\n      gt\n      iszero\n      tag_221\n      jumpi\n      tag_222\n      tag_111\n      jump\t// in\n    tag_222:\n    tag_221:\n      sub\n        /* \"contracts/SpeciesLibrary.sol\":2444:3623  if (species == Species.RedNeckedGrebe) {... */\n      tag_223\n      jumpi\n        /* \"contracts/SpeciesLibrary.sol\":2505:2627  SpeciesInfo(80, 70, 2, 8, \"https://gateway.pinata.cloud/ipfs/bafybeibcdpzpyg6mqae2ogowuumymqmqxb2usniu75geej4ptr467ot2nm\") */\n      mload(0x40)\n      dup1\n      0xa0\n      add\n      0x40\n      mstore\n      dup1\n        /* \"contracts/SpeciesLibrary.sol\":2517:2519  80 */\n      0x50\n        /* \"contracts/SpeciesLibrary.sol\":2505:2627  SpeciesInfo(80, 70, 2, 8, \"https://gateway.pinata.cloud/ipfs/bafybeibcdpzpyg6mqae2ogowuumymqmqxb2usniu75geej4ptr467ot2nm\") */\n      dup2\n      mstore\n      0x20\n      add\n        /* \"contracts/SpeciesLibrary.sol\":2521:2523  70 */\n      0x46\n        /* \"contracts/SpeciesLibrary.sol\":2505:2627  SpeciesInfo(80, 70, 2, 8, \"https://gateway.pinata.cloud/ipfs/bafybeibcdpzpyg6mqae2ogowuumymqmqxb2usniu75geej4ptr467ot2nm\") */\n      dup2\n      mstore\n      0x20\n      add\n        /* \"contracts/SpeciesLibrary.sol\":2525:2526  2 */\n      0x02\n        /* \"contracts/SpeciesLibrary.sol\":2505:2627  SpeciesInfo(80, 70, 2, 8, \"https://gateway.pinata.cloud/ipfs/bafybeibcdpzpyg6mqae2ogowuumymqmqxb2usniu75geej4ptr467ot2nm\") */\n      dup2\n      mstore\n      0x20\n      add\n        /* \"contracts/SpeciesLibrary.sol\":2528:2529  8 */\n      0x08\n        /* \"contracts/SpeciesLibrary.sol\":2505:2627  SpeciesInfo(80, 70, 2, 8, \"https://gateway.pinata.cloud/ipfs/bafybeibcdpzpyg6mqae2ogowuumymqmqxb2usniu75geej4ptr467ot2nm\") */\n      dup2\n      mstore\n      0x20\n      add\n      mload(0x40)\n      dup1\n      0x80\n      add\n      0x40\n      mstore\n      dup1\n      0x5d\n      dup2\n      mstore\n      0x20\n      add\n      data_7b2fdb6759a9cafb5eeb6df22876dcecec368957dc7b6a1b5455e59a53ccd8b3\n      0x5d\n      swap2\n      codecopy\n      dup2\n      mstore\n      pop\n        /* \"contracts/SpeciesLibrary.sol\":2498:2627  return SpeciesInfo(80, 70, 2, 8, \"https://gateway.pinata.cloud/ipfs/bafybeibcdpzpyg6mqae2ogowuumymqmqxb2usniu75geej4ptr467ot2nm\") */\n      swap1\n      pop\n      jump(tag_188)\n        /* \"contracts/SpeciesLibrary.sol\":2444:3623  if (species == Species.RedNeckedGrebe) {... */\n    tag_223:\n        /* \"contracts/SpeciesLibrary.sol\":2660:2677  Species.WaterRail */\n      0x05\n        /* \"contracts/SpeciesLibrary.sol\":2649:2677  species == Species.WaterRail */\n      0x0a\n      dup2\n      gt\n      iszero\n      tag_225\n      jumpi\n      tag_226\n      tag_111\n      jump\t// in\n    tag_226:\n    tag_225:\n        /* \"contracts/SpeciesLibrary.sol\":2649:2656  species */\n      dup3\n        /* \"contracts/SpeciesLibrary.sol\":2649:2677  species == Species.WaterRail */\n      0x0a\n      dup2\n      gt\n      iszero\n      tag_227\n      jumpi\n      tag_228\n      tag_111\n      jump\t// in\n    tag_228:\n    tag_227:\n      sub\n        /* \"contracts/SpeciesLibrary.sol\":2645:3623  if (species == Species.WaterRail) {... */\n      tag_229\n      jumpi\n        /* \"contracts/SpeciesLibrary.sol\":2701:2823  SpeciesInfo(50, 60, 4, 5, \"https://gateway.pinata.cloud/ipfs/bafkreida4apspxtnpb63oqyzv3tin5owc45lgctkdqv74hjas4fytookta\") */\n      mload(0x40)\n      dup1\n      0xa0\n      add\n      0x40\n      mstore\n      dup1\n        /* \"contracts/SpeciesLibrary.sol\":2713:2715  50 */\n      0x32\n        /* \"contracts/SpeciesLibrary.sol\":2701:2823  SpeciesInfo(50, 60, 4, 5, \"https://gateway.pinata.cloud/ipfs/bafkreida4apspxtnpb63oqyzv3tin5owc45lgctkdqv74hjas4fytookta\") */\n      dup2\n      mstore\n      0x20\n      add\n        /* \"contracts/SpeciesLibrary.sol\":2717:2719  60 */\n      0x3c\n        /* \"contracts/SpeciesLibrary.sol\":2701:2823  SpeciesInfo(50, 60, 4, 5, \"https://gateway.pinata.cloud/ipfs/bafkreida4apspxtnpb63oqyzv3tin5owc45lgctkdqv74hjas4fytookta\") */\n      dup2\n      mstore\n      0x20\n      add\n        /* \"contracts/SpeciesLibrary.sol\":2721:2722  4 */\n      0x04\n        /* \"contracts/SpeciesLibrary.sol\":2701:2823  SpeciesInfo(50, 60, 4, 5, \"https://gateway.pinata.cloud/ipfs/bafkreida4apspxtnpb63oqyzv3tin5owc45lgctkdqv74hjas4fytookta\") */\n      dup2\n      mstore\n      0x20\n      add\n        /* \"contracts/SpeciesLibrary.sol\":2724:2725  5 */\n      0x05\n        /* \"contracts/SpeciesLibrary.sol\":2701:2823  SpeciesInfo(50, 60, 4, 5, \"https://gateway.pinata.cloud/ipfs/bafkreida4apspxtnpb63oqyzv3tin5owc45lgctkdqv74hjas4fytookta\") */\n      dup2\n      mstore\n      0x20\n      add\n      mload(0x40)\n      dup1\n      0x80\n      add\n      0x40\n      mstore\n      dup1\n      0x5d\n      dup2\n      mstore\n      0x20\n      add\n      data_9935abd004c219a89d3fd74f576ad80b96c6baa47d216c49a0c7e2425bfa795d\n      0x5d\n      swap2\n      codecopy\n      dup2\n      mstore\n      pop\n        /* \"contracts/SpeciesLibrary.sol\":2694:2823  return SpeciesInfo(50, 60, 4, 5, \"https://gateway.pinata.cloud/ipfs/bafkreida4apspxtnpb63oqyzv3tin5owc45lgctkdqv74hjas4fytookta\") */\n      swap1\n      pop\n      jump(tag_188)\n        /* \"contracts/SpeciesLibrary.sol\":2645:3623  if (species == Species.WaterRail) {... */\n    tag_229:\n        /* \"contracts/SpeciesLibrary.sol\":2856:2874  Species.CommonTern */\n      0x06\n        /* \"contracts/SpeciesLibrary.sol\":2845:2874  species == Species.CommonTern */\n      0x0a\n      dup2\n      gt\n      iszero\n      tag_231\n      jumpi\n      tag_232\n      tag_111\n      jump\t// in\n    tag_232:\n    tag_231:\n        /* \"contracts/SpeciesLibrary.sol\":2845:2852  species */\n      dup3\n        /* \"contracts/SpeciesLibrary.sol\":2845:2874  species == Species.CommonTern */\n      0x0a\n      dup2\n      gt\n      iszero\n      tag_233\n      jumpi\n      tag_234\n      tag_111\n      jump\t// in\n    tag_234:\n    tag_233:\n      sub\n        /* \"contracts/SpeciesLibrary.sol\":2841:3623  if (species == Species.CommonTern) {... */\n      tag_235\n      jumpi\n        /* \"contracts/SpeciesLibrary.sol\":2898:3020  SpeciesInfo(55, 40, 3, 4, \"https://gateway.pinata.cloud/ipfs/bafkreih2fmxu3ayscr7xez2u2ashawifc3oj4qa26j56ch46vez7zyaej4\") */\n      mload(0x40)\n      dup1\n      0xa0\n      add\n      0x40\n      mstore\n      dup1\n        /* \"contracts/SpeciesLibrary.sol\":2910:2912  55 */\n      0x37\n        /* \"contracts/SpeciesLibrary.sol\":2898:3020  SpeciesInfo(55, 40, 3, 4, \"https://gateway.pinata.cloud/ipfs/bafkreih2fmxu3ayscr7xez2u2ashawifc3oj4qa26j56ch46vez7zyaej4\") */\n      dup2\n      mstore\n      0x20\n      add\n        /* \"contracts/SpeciesLibrary.sol\":2914:2916  40 */\n      0x28\n        /* \"contracts/SpeciesLibrary.sol\":2898:3020  SpeciesInfo(55, 40, 3, 4, \"https://gateway.pinata.cloud/ipfs/bafkreih2fmxu3ayscr7xez2u2ashawifc3oj4qa26j56ch46vez7zyaej4\") */\n      dup2\n      mstore\n      0x20\n      add\n        /* \"contracts/SpeciesLibrary.sol\":2918:2919  3 */\n      0x03\n        /* \"contracts/SpeciesLibrary.sol\":2898:3020  SpeciesInfo(55, 40, 3, 4, \"https://gateway.pinata.cloud/ipfs/bafkreih2fmxu3ayscr7xez2u2ashawifc3oj4qa26j56ch46vez7zyaej4\") */\n      dup2\n      mstore\n      0x20\n      add\n        /* \"contracts/SpeciesLibrary.sol\":2921:2922  4 */\n      0x04\n        /* \"contracts/SpeciesLibrary.sol\":2898:3020  SpeciesInfo(55, 40, 3, 4, \"https://gateway.pinata.cloud/ipfs/bafkreih2fmxu3ayscr7xez2u2ashawifc3oj4qa26j56ch46vez7zyaej4\") */\n      dup2\n      mstore\n      0x20\n      add\n      mload(0x40)\n      dup1\n      0x80\n      add\n      0x40\n      mstore\n      dup1\n      0x5d\n      dup2\n      mstore\n      0x20\n      add\n      data_b8dd308e09aa92114d02e95d8f8ec31b44f463debae17577b531822d02a7acf8\n      0x5d\n      swap2\n      codecopy\n      dup2\n      mstore\n      pop\n        /* \"contracts/SpeciesLibrary.sol\":2891:3020  return SpeciesInfo(55, 40, 3, 4, \"https://gateway.pinata.cloud/ipfs/bafkreih2fmxu3ayscr7xez2u2ashawifc3oj4qa26j56ch46vez7zyaej4\") */\n      swap1\n      pop\n      jump(tag_188)\n        /* \"contracts/SpeciesLibrary.sol\":2841:3623  if (species == Species.CommonTern) {... */\n    tag_235:\n        /* \"contracts/SpeciesLibrary.sol\":3053:3070  Species.Goosander */\n      0x07\n        /* \"contracts/SpeciesLibrary.sol\":3042:3070  species == Species.Goosander */\n      0x0a\n      dup2\n      gt\n      iszero\n      tag_237\n      jumpi\n      tag_238\n      tag_111\n      jump\t// in\n    tag_238:\n    tag_237:\n        /* \"contracts/SpeciesLibrary.sol\":3042:3049  species */\n      dup3\n        /* \"contracts/SpeciesLibrary.sol\":3042:3070  species == Species.Goosander */\n      0x0a\n      dup2\n      gt\n      iszero\n      tag_239\n      jumpi\n      tag_240\n      tag_111\n      jump\t// in\n    tag_240:\n    tag_239:\n      sub\n        /* \"contracts/SpeciesLibrary.sol\":3038:3623  if (species == Species.Goosander) {... */\n      tag_241\n      jumpi\n        /* \"contracts/SpeciesLibrary.sol\":3094:3216  SpeciesInfo(78, 65, 2, 4, \"https://gateway.pinata.cloud/ipfs/bafkreid3mdymzsjtudm56zrovitxouvgsjbzzkyarsq7t2i2biwyg6rhtq\") */\n      mload(0x40)\n      dup1\n      0xa0\n      add\n      0x40\n      mstore\n      dup1\n        /* \"contracts/SpeciesLibrary.sol\":3106:3108  78 */\n      0x4e\n        /* \"contracts/SpeciesLibrary.sol\":3094:3216  SpeciesInfo(78, 65, 2, 4, \"https://gateway.pinata.cloud/ipfs/bafkreid3mdymzsjtudm56zrovitxouvgsjbzzkyarsq7t2i2biwyg6rhtq\") */\n      dup2\n      mstore\n      0x20\n      add\n        /* \"contracts/SpeciesLibrary.sol\":3110:3112  65 */\n      0x41\n        /* \"contracts/SpeciesLibrary.sol\":3094:3216  SpeciesInfo(78, 65, 2, 4, \"https://gateway.pinata.cloud/ipfs/bafkreid3mdymzsjtudm56zrovitxouvgsjbzzkyarsq7t2i2biwyg6rhtq\") */\n      dup2\n      mstore\n      0x20\n      add\n        /* \"contracts/SpeciesLibrary.sol\":3114:3115  2 */\n      0x02\n        /* \"contracts/SpeciesLibrary.sol\":3094:3216  SpeciesInfo(78, 65, 2, 4, \"https://gateway.pinata.cloud/ipfs/bafkreid3mdymzsjtudm56zrovitxouvgsjbzzkyarsq7t2i2biwyg6rhtq\") */\n      dup2\n      mstore\n      0x20\n      add\n        /* \"contracts/SpeciesLibrary.sol\":3117:3118  4 */\n      0x04\n        /* \"contracts/SpeciesLibrary.sol\":3094:3216  SpeciesInfo(78, 65, 2, 4, \"https://gateway.pinata.cloud/ipfs/bafkreid3mdymzsjtudm56zrovitxouvgsjbzzkyarsq7t2i2biwyg6rhtq\") */\n      dup2\n      mstore\n      0x20\n      add\n      mload(0x40)\n      dup1\n      0x80\n      add\n      0x40\n      mstore\n      dup1\n      0x5d\n      dup2\n      mstore\n      0x20\n      add\n      data_06b72c80ee2ecbcbf44477b5df17c9ca845658c2f59600eacfa2a1e2c77fc0c0\n      0x5d\n      swap2\n      codecopy\n      dup2\n      mstore\n      pop\n        /* \"contracts/SpeciesLibrary.sol\":3087:3216  return SpeciesInfo(78, 65, 2, 4, \"https://gateway.pinata.cloud/ipfs/bafkreid3mdymzsjtudm56zrovitxouvgsjbzzkyarsq7t2i2biwyg6rhtq\") */\n      swap1\n      pop\n      jump(tag_188)\n        /* \"contracts/SpeciesLibrary.sol\":3038:3623  if (species == Species.Goosander) {... */\n    tag_241:\n        /* \"contracts/SpeciesLibrary.sol\":3249:3269  Species.GreylagGoose */\n      0x08\n        /* \"contracts/SpeciesLibrary.sol\":3238:3269  species == Species.GreylagGoose */\n      0x0a\n      dup2\n      gt\n      iszero\n      tag_243\n      jumpi\n      tag_244\n      tag_111\n      jump\t// in\n    tag_244:\n    tag_243:\n        /* \"contracts/SpeciesLibrary.sol\":3238:3245  species */\n      dup3\n        /* \"contracts/SpeciesLibrary.sol\":3238:3269  species == Species.GreylagGoose */\n      0x0a\n      dup2\n      gt\n      iszero\n      tag_245\n      jumpi\n      tag_246\n      tag_111\n      jump\t// in\n    tag_246:\n    tag_245:\n      sub\n        /* \"contracts/SpeciesLibrary.sol\":3234:3623  if (species == Species.GreylagGoose) {... */\n      tag_247\n      jumpi\n        /* \"contracts/SpeciesLibrary.sol\":3293:3417  SpeciesInfo(150, 100, 4, 3, \"https://gateway.pinata.cloud/ipfs/bafkreif6eno2qjj3xc7mebql2s66ol6yxrwx7gwavz44qn2dlz3cnw7f24\") */\n      mload(0x40)\n      dup1\n      0xa0\n      add\n      0x40\n      mstore\n      dup1\n        /* \"contracts/SpeciesLibrary.sol\":3305:3308  150 */\n      0x96\n        /* \"contracts/SpeciesLibrary.sol\":3293:3417  SpeciesInfo(150, 100, 4, 3, \"https://gateway.pinata.cloud/ipfs/bafkreif6eno2qjj3xc7mebql2s66ol6yxrwx7gwavz44qn2dlz3cnw7f24\") */\n      dup2\n      mstore\n      0x20\n      add\n        /* \"contracts/SpeciesLibrary.sol\":3310:3313  100 */\n      0x64\n        /* \"contracts/SpeciesLibrary.sol\":3293:3417  SpeciesInfo(150, 100, 4, 3, \"https://gateway.pinata.cloud/ipfs/bafkreif6eno2qjj3xc7mebql2s66ol6yxrwx7gwavz44qn2dlz3cnw7f24\") */\n      dup2\n      mstore\n      0x20\n      add\n        /* \"contracts/SpeciesLibrary.sol\":3315:3316  4 */\n      0x04\n        /* \"contracts/SpeciesLibrary.sol\":3293:3417  SpeciesInfo(150, 100, 4, 3, \"https://gateway.pinata.cloud/ipfs/bafkreif6eno2qjj3xc7mebql2s66ol6yxrwx7gwavz44qn2dlz3cnw7f24\") */\n      dup2\n      mstore\n      0x20\n      add\n        /* \"contracts/SpeciesLibrary.sol\":3318:3319  3 */\n      0x03\n        /* \"contracts/SpeciesLibrary.sol\":3293:3417  SpeciesInfo(150, 100, 4, 3, \"https://gateway.pinata.cloud/ipfs/bafkreif6eno2qjj3xc7mebql2s66ol6yxrwx7gwavz44qn2dlz3cnw7f24\") */\n      dup2\n      mstore\n      0x20\n      add\n      mload(0x40)\n      dup1\n      0x80\n      add\n      0x40\n      mstore\n      dup1\n      0x5d\n      dup2\n      mstore\n      0x20\n      add\n      data_4de8576ed651b45ee8b8de37ab230acfe5a77f3bcefa3b601e95aeedc205cf9f\n      0x5d\n      swap2\n      codecopy\n      dup2\n      mstore\n      pop\n        /* \"contracts/SpeciesLibrary.sol\":3286:3417  return SpeciesInfo(150, 100, 4, 3, \"https://gateway.pinata.cloud/ipfs/bafkreif6eno2qjj3xc7mebql2s66ol6yxrwx7gwavz44qn2dlz3cnw7f24\") */\n      swap1\n      pop\n      jump(tag_188)\n        /* \"contracts/SpeciesLibrary.sol\":3234:3623  if (species == Species.GreylagGoose) {... */\n    tag_247:\n        /* \"contracts/SpeciesLibrary.sol\":3450:3465  Species.Moorhen */\n      0x09\n        /* \"contracts/SpeciesLibrary.sol\":3439:3465  species == Species.Moorhen */\n      0x0a\n      dup2\n      gt\n      iszero\n      tag_249\n      jumpi\n      tag_250\n      tag_111\n      jump\t// in\n    tag_250:\n    tag_249:\n        /* \"contracts/SpeciesLibrary.sol\":3439:3446  species */\n      dup3\n        /* \"contracts/SpeciesLibrary.sol\":3439:3465  species == Species.Moorhen */\n      0x0a\n      dup2\n      gt\n      iszero\n      tag_251\n      jumpi\n      tag_252\n      tag_111\n      jump\t// in\n    tag_252:\n    tag_251:\n      sub\n        /* \"contracts/SpeciesLibrary.sol\":3435:3623  if (species == Species.Moorhen) {... */\n      tag_253\n      jumpi\n        /* \"contracts/SpeciesLibrary.sol\":3489:3611  SpeciesInfo(35, 66, 4, 5, \"https://gateway.pinata.cloud/ipfs/bafybeifpajbivhhemjefgiamnvh7oe27lextqj7agpznchqeujcn46i5ca\") */\n      mload(0x40)\n      dup1\n      0xa0\n      add\n      0x40\n      mstore\n      dup1\n        /* \"contracts/SpeciesLibrary.sol\":3501:3503  35 */\n      0x23\n        /* \"contracts/SpeciesLibrary.sol\":3489:3611  SpeciesInfo(35, 66, 4, 5, \"https://gateway.pinata.cloud/ipfs/bafybeifpajbivhhemjefgiamnvh7oe27lextqj7agpznchqeujcn46i5ca\") */\n      dup2\n      mstore\n      0x20\n      add\n        /* \"contracts/SpeciesLibrary.sol\":3505:3507  66 */\n      0x42\n        /* \"contracts/SpeciesLibrary.sol\":3489:3611  SpeciesInfo(35, 66, 4, 5, \"https://gateway.pinata.cloud/ipfs/bafybeifpajbivhhemjefgiamnvh7oe27lextqj7agpznchqeujcn46i5ca\") */\n      dup2\n      mstore\n      0x20\n      add\n        /* \"contracts/SpeciesLibrary.sol\":3509:3510  4 */\n      0x04\n        /* \"contracts/SpeciesLibrary.sol\":3489:3611  SpeciesInfo(35, 66, 4, 5, \"https://gateway.pinata.cloud/ipfs/bafybeifpajbivhhemjefgiamnvh7oe27lextqj7agpznchqeujcn46i5ca\") */\n      dup2\n      mstore\n      0x20\n      add\n        /* \"contracts/SpeciesLibrary.sol\":3512:3513  5 */\n      0x05\n        /* \"contracts/SpeciesLibrary.sol\":3489:3611  SpeciesInfo(35, 66, 4, 5, \"https://gateway.pinata.cloud/ipfs/bafybeifpajbivhhemjefgiamnvh7oe27lextqj7agpznchqeujcn46i5ca\") */\n      dup2\n      mstore\n      0x20\n      add\n      mload(0x40)\n      dup1\n      0x80\n      add\n      0x40\n      mstore\n      dup1\n      0x5d\n      dup2\n      mstore\n      0x20\n      add\n      data_4bffd64c369afa296df94915c3530d23c4bb62ed5947a16d0436ecf77d5e47b7\n      0x5d\n      swap2\n      codecopy\n      dup2\n      mstore\n      pop\n        /* \"contracts/SpeciesLibrary.sol\":3482:3611  return SpeciesInfo(35, 66, 4, 5, \"https://gateway.pinata.cloud/ipfs/bafybeifpajbivhhemjefgiamnvh7oe27lextqj7agpznchqeujcn46i5ca\") */\n      swap1\n      pop\n      jump(tag_188)\n        /* \"contracts/SpeciesLibrary.sol\":3435:3623  if (species == Species.Moorhen) {... */\n    tag_253:\n        /* \"contracts/SpeciesLibrary.sol\":3633:3658  revert(\"Unknown species\") */\n      mload(0x40)\n      0x08c379a000000000000000000000000000000000000000000000000000000000\n      dup2\n      mstore\n      0x04\n      add\n      tag_254\n      swap1\n      tag_255\n      jump\t// in\n    tag_254:\n      mload(0x40)\n      dup1\n      swap2\n      sub\n      swap1\n      revert\n        /* \"contracts/SpeciesLibrary.sol\":1361:3666  function getSpeciesInfo(Species species) internal pure returns (SpeciesInfo memory) {... */\n    tag_188:\n      swap2\n      swap1\n      pop\n      jump\t// out\n    tag_121:\n      mload(0x40)\n      dup1\n      0xe0\n      add\n      0x40\n      mstore\n      dup1\n      0x00\n      dup2\n      mstore\n      0x20\n      add\n      0x00\n      dup2\n      mstore\n      0x20\n      add\n      0x00\n      dup2\n      mstore\n      0x20\n      add\n      0x00\n      0x0a\n      dup2\n      gt\n      iszero\n      tag_256\n      jumpi\n      tag_257\n      tag_111\n      jump\t// in\n    tag_257:\n    tag_256:\n      dup2\n      mstore\n      0x20\n      add\n      0x00\n      dup2\n      mstore\n      0x20\n      add\n      iszero(iszero(0x00))\n      dup2\n      mstore\n      0x20\n      add\n      0x00\n      dup2\n      mstore\n      pop\n      swap1\n      jump\t// out\n    tag_177:\n      mload(0x40)\n      dup1\n      0xa0\n      add\n      0x40\n      mstore\n      dup1\n      0x00\n      dup2\n      mstore\n      0x20\n      add\n      0x00\n      dup2\n      mstore\n      0x20\n      add\n      0x00\n      dup2\n      mstore\n      0x20\n      add\n      0x00\n      dup2\n      mstore\n      0x20\n      add\n      0x60\n      dup2\n      mstore\n      pop\n      swap1\n      jump\t// out\n        /* \"#utility.yul\":88:205   */\n    tag_259:\n        /* \"#utility.yul\":197:198   */\n      0x00\n        /* \"#utility.yul\":194:195   */\n      0x00\n        /* \"#utility.yul\":187:199   */\n      revert\n        /* \"#utility.yul\":334:411   */\n    tag_261:\n        /* \"#utility.yul\":371:378   */\n      0x00\n        /* \"#utility.yul\":400:405   */\n      dup2\n        /* \"#utility.yul\":389:405   */\n      swap1\n      pop\n        /* \"#utility.yul\":334:411   */\n      swap2\n      swap1\n      pop\n      jump\t// out\n        /* \"#utility.yul\":417:539   */\n    tag_262:\n        /* \"#utility.yul\":490:514   */\n      tag_315\n        /* \"#utility.yul\":508:513   */\n      dup2\n        /* \"#utility.yul\":490:514   */\n      tag_261\n      jump\t// in\n    tag_315:\n        /* \"#utility.yul\":483:488   */\n      dup2\n        /* \"#utility.yul\":480:515   */\n      eq\n        /* \"#utility.yul\":470:533   */\n      tag_316\n      jumpi\n        /* \"#utility.yul\":529:530   */\n      0x00\n        /* \"#utility.yul\":526:527   */\n      0x00\n        /* \"#utility.yul\":519:531   */\n      revert\n        /* \"#utility.yul\":470:533   */\n    tag_316:\n        /* \"#utility.yul\":417:539   */\n      pop\n      jump\t// out\n        /* \"#utility.yul\":545:684   */\n    tag_263:\n        /* \"#utility.yul\":591:596   */\n      0x00\n        /* \"#utility.yul\":629:635   */\n      dup2\n        /* \"#utility.yul\":616:636   */\n      calldataload\n        /* \"#utility.yul\":607:636   */\n      swap1\n      pop\n        /* \"#utility.yul\":645:678   */\n      tag_318\n        /* \"#utility.yul\":672:677   */\n      dup2\n        /* \"#utility.yul\":645:678   */\n      tag_262\n      jump\t// in\n    tag_318:\n        /* \"#utility.yul\":545:684   */\n      swap3\n      swap2\n      pop\n      pop\n      jump\t// out\n        /* \"#utility.yul\":690:1019   */\n    tag_23:\n        /* \"#utility.yul\":749:755   */\n      0x00\n        /* \"#utility.yul\":798:800   */\n      0x20\n        /* \"#utility.yul\":786:795   */\n      dup3\n        /* \"#utility.yul\":777:784   */\n      dup5\n        /* \"#utility.yul\":773:796   */\n      sub\n        /* \"#utility.yul\":769:801   */\n      slt\n        /* \"#utility.yul\":766:885   */\n      iszero\n      tag_320\n      jumpi\n        /* \"#utility.yul\":804:883   */\n      tag_321\n      tag_259\n      jump\t// in\n    tag_321:\n        /* \"#utility.yul\":766:885   */\n    tag_320:\n        /* \"#utility.yul\":924:925   */\n      0x00\n        /* \"#utility.yul\":949:1002   */\n      tag_322\n        /* \"#utility.yul\":994:1001   */\n      dup5\n        /* \"#utility.yul\":985:991   */\n      dup3\n        /* \"#utility.yul\":974:983   */\n      dup6\n        /* \"#utility.yul\":970:992   */\n      add\n        /* \"#utility.yul\":949:1002   */\n      tag_263\n      jump\t// in\n    tag_322:\n        /* \"#utility.yul\":939:1002   */\n      swap2\n      pop\n        /* \"#utility.yul\":895:1012   */\n      pop\n        /* \"#utility.yul\":690:1019   */\n      swap3\n      swap2\n      pop\n      pop\n      jump\t// out\n        /* \"#utility.yul\":1025:1115   */\n    tag_264:\n        /* \"#utility.yul\":1059:1066   */\n      0x00\n        /* \"#utility.yul\":1102:1107   */\n      dup2\n        /* \"#utility.yul\":1095:1108   */\n      iszero\n        /* \"#utility.yul\":1088:1109   */\n      iszero\n        /* \"#utility.yul\":1077:1109   */\n      swap1\n      pop\n        /* \"#utility.yul\":1025:1115   */\n      swap2\n      swap1\n      pop\n      jump\t// out\n        /* \"#utility.yul\":1121:1230   */\n    tag_265:\n        /* \"#utility.yul\":1202:1223   */\n      tag_325\n        /* \"#utility.yul\":1217:1222   */\n      dup2\n        /* \"#utility.yul\":1202:1223   */\n      tag_264\n      jump\t// in\n    tag_325:\n        /* \"#utility.yul\":1197:1200   */\n      dup3\n        /* \"#utility.yul\":1190:1224   */\n      mstore\n        /* \"#utility.yul\":1121:1230   */\n      pop\n      pop\n      jump\t// out\n        /* \"#utility.yul\":1236:1446   */\n    tag_26:\n        /* \"#utility.yul\":1323:1327   */\n      0x00\n        /* \"#utility.yul\":1361:1363   */\n      0x20\n        /* \"#utility.yul\":1350:1359   */\n      dup3\n        /* \"#utility.yul\":1346:1364   */\n      add\n        /* \"#utility.yul\":1338:1364   */\n      swap1\n      pop\n        /* \"#utility.yul\":1374:1439   */\n      tag_327\n        /* \"#utility.yul\":1436:1437   */\n      0x00\n        /* \"#utility.yul\":1425:1434   */\n      dup4\n        /* \"#utility.yul\":1421:1438   */\n      add\n        /* \"#utility.yul\":1412:1418   */\n      dup5\n        /* \"#utility.yul\":1374:1439   */\n      tag_265\n      jump\t// in\n    tag_327:\n        /* \"#utility.yul\":1236:1446   */\n      swap3\n      swap2\n      pop\n      pop\n      jump\t// out\n        /* \"#utility.yul\":1452:1926   */\n    tag_29:\n        /* \"#utility.yul\":1520:1526   */\n      0x00\n        /* \"#utility.yul\":1528:1534   */\n      0x00\n        /* \"#utility.yul\":1577:1579   */\n      0x40\n        /* \"#utility.yul\":1565:1574   */\n      dup4\n        /* \"#utility.yul\":1556:1563   */\n      dup6\n        /* \"#utility.yul\":1552:1575   */\n      sub\n        /* \"#utility.yul\":1548:1580   */\n      slt\n        /* \"#utility.yul\":1545:1664   */\n      iszero\n      tag_329\n      jumpi\n        /* \"#utility.yul\":1583:1662   */\n      tag_330\n      tag_259\n      jump\t// in\n    tag_330:\n        /* \"#utility.yul\":1545:1664   */\n    tag_329:\n        /* \"#utility.yul\":1703:1704   */\n      0x00\n        /* \"#utility.yul\":1728:1781   */\n      tag_331\n        /* \"#utility.yul\":1773:1780   */\n      dup6\n        /* \"#utility.yul\":1764:1770   */\n      dup3\n        /* \"#utility.yul\":1753:1762   */\n      dup7\n        /* \"#utility.yul\":1749:1771   */\n      add\n        /* \"#utility.yul\":1728:1781   */\n      tag_263\n      jump\t// in\n    tag_331:\n        /* \"#utility.yul\":1718:1781   */\n      swap3\n      pop\n        /* \"#utility.yul\":1674:1791   */\n      pop\n        /* \"#utility.yul\":1830:1832   */\n      0x20\n        /* \"#utility.yul\":1856:1909   */\n      tag_332\n        /* \"#utility.yul\":1901:1908   */\n      dup6\n        /* \"#utility.yul\":1892:1898   */\n      dup3\n        /* \"#utility.yul\":1881:1890   */\n      dup7\n        /* \"#utility.yul\":1877:1899   */\n      add\n        /* \"#utility.yul\":1856:1909   */\n      tag_263\n      jump\t// in\n    tag_332:\n        /* \"#utility.yul\":1846:1909   */\n      swap2\n      pop\n        /* \"#utility.yul\":1801:1919   */\n      pop\n        /* \"#utility.yul\":1452:1926   */\n      swap3\n      pop\n      swap3\n      swap1\n      pop\n      jump\t// out\n        /* \"#utility.yul\":1932:2043   */\n    tag_266:\n        /* \"#utility.yul\":2016:2018   */\n      0x0b\n        /* \"#utility.yul\":2009:2014   */\n      dup2\n        /* \"#utility.yul\":2006:2019   */\n      lt\n        /* \"#utility.yul\":1996:2037   */\n      tag_334\n      jumpi\n        /* \"#utility.yul\":2033:2034   */\n      0x00\n        /* \"#utility.yul\":2030:2031   */\n      0x00\n        /* \"#utility.yul\":2023:2035   */\n      revert\n        /* \"#utility.yul\":1996:2037   */\n    tag_334:\n        /* \"#utility.yul\":1932:2043   */\n      pop\n      jump\t// out\n        /* \"#utility.yul\":2049:2210   */\n    tag_267:\n        /* \"#utility.yul\":2106:2111   */\n      0x00\n        /* \"#utility.yul\":2144:2150   */\n      dup2\n        /* \"#utility.yul\":2131:2151   */\n      calldataload\n        /* \"#utility.yul\":2122:2151   */\n      swap1\n      pop\n        /* \"#utility.yul\":2160:2204   */\n      tag_336\n        /* \"#utility.yul\":2198:2203   */\n      dup2\n        /* \"#utility.yul\":2160:2204   */\n      tag_266\n      jump\t// in\n    tag_336:\n        /* \"#utility.yul\":2049:2210   */\n      swap3\n      swap2\n      pop\n      pop\n      jump\t// out\n        /* \"#utility.yul\":2216:2567   */\n    tag_36:\n        /* \"#utility.yul\":2286:2292   */\n      0x00\n        /* \"#utility.yul\":2335:2337   */\n      0x20\n        /* \"#utility.yul\":2323:2332   */\n      dup3\n        /* \"#utility.yul\":2314:2321   */\n      dup5\n        /* \"#utility.yul\":2310:2333   */\n      sub\n        /* \"#utility.yul\":2306:2338   */\n      slt\n        /* \"#utility.yul\":2303:2422   */\n      iszero\n      tag_338\n      jumpi\n        /* \"#utility.yul\":2341:2420   */\n      tag_339\n      tag_259\n      jump\t// in\n    tag_339:\n        /* \"#utility.yul\":2303:2422   */\n    tag_338:\n        /* \"#utility.yul\":2461:2462   */\n      0x00\n        /* \"#utility.yul\":2486:2550   */\n      tag_340\n        /* \"#utility.yul\":2542:2549   */\n      dup5\n        /* \"#utility.yul\":2533:2539   */\n      dup3\n        /* \"#utility.yul\":2522:2531   */\n      dup6\n        /* \"#utility.yul\":2518:2540   */\n      add\n        /* \"#utility.yul\":2486:2550   */\n      tag_267\n      jump\t// in\n    tag_340:\n        /* \"#utility.yul\":2476:2550   */\n      swap2\n      pop\n        /* \"#utility.yul\":2432:2560   */\n      pop\n        /* \"#utility.yul\":2216:2567   */\n      swap3\n      swap2\n      pop\n      pop\n      jump\t// out\n        /* \"#utility.yul\":2573:2649   */\n    tag_268:\n        /* \"#utility.yul\":2609:2616   */\n      0x00\n        /* \"#utility.yul\":2638:2643   */\n      dup2\n        /* \"#utility.yul\":2627:2643   */\n      swap1\n      pop\n        /* \"#utility.yul\":2573:2649   */\n      swap2\n      swap1\n      pop\n      jump\t// out\n        /* \"#utility.yul\":2655:2770   */\n    tag_269:\n        /* \"#utility.yul\":2740:2763   */\n      tag_343\n        /* \"#utility.yul\":2757:2762   */\n      dup2\n        /* \"#utility.yul\":2740:2763   */\n      tag_268\n      jump\t// in\n    tag_343:\n        /* \"#utility.yul\":2735:2738   */\n      dup3\n        /* \"#utility.yul\":2728:2764   */\n      mstore\n        /* \"#utility.yul\":2655:2770   */\n      pop\n      pop\n      jump\t// out\n        /* \"#utility.yul\":2776:2994   */\n    tag_39:\n        /* \"#utility.yul\":2867:2871   */\n      0x00\n        /* \"#utility.yul\":2905:2907   */\n      0x20\n        /* \"#utility.yul\":2894:2903   */\n      dup3\n        /* \"#utility.yul\":2890:2908   */\n      add\n        /* \"#utility.yul\":2882:2908   */\n      swap1\n      pop\n        /* \"#utility.yul\":2918:2987   */\n      tag_345\n        /* \"#utility.yul\":2984:2985   */\n      0x00\n        /* \"#utility.yul\":2973:2982   */\n      dup4\n        /* \"#utility.yul\":2969:2986   */\n      add\n        /* \"#utility.yul\":2960:2966   */\n      dup5\n        /* \"#utility.yul\":2918:2987   */\n      tag_269\n      jump\t// in\n    tag_345:\n        /* \"#utility.yul\":2776:2994   */\n      swap3\n      swap2\n      pop\n      pop\n      jump\t// out\n        /* \"#utility.yul\":3000:3126   */\n    tag_270:\n        /* \"#utility.yul\":3037:3044   */\n      0x00\n        /* \"#utility.yul\":3077:3119   */\n      0xffffffffffffffffffffffffffffffffffffffff\n        /* \"#utility.yul\":3070:3075   */\n      dup3\n        /* \"#utility.yul\":3066:3120   */\n      and\n        /* \"#utility.yul\":3055:3120   */\n      swap1\n      pop\n        /* \"#utility.yul\":3000:3126   */\n      swap2\n      swap1\n      pop\n      jump\t// out\n        /* \"#utility.yul\":3132:3228   */\n    tag_271:\n        /* \"#utility.yul\":3169:3176   */\n      0x00\n        /* \"#utility.yul\":3198:3222   */\n      tag_348\n        /* \"#utility.yul\":3216:3221   */\n      dup3\n        /* \"#utility.yul\":3198:3222   */\n      tag_270\n      jump\t// in\n    tag_348:\n        /* \"#utility.yul\":3187:3222   */\n      swap1\n      pop\n        /* \"#utility.yul\":3132:3228   */\n      swap2\n      swap1\n      pop\n      jump\t// out\n        /* \"#utility.yul\":3234:3356   */\n    tag_272:\n        /* \"#utility.yul\":3307:3331   */\n      tag_350\n        /* \"#utility.yul\":3325:3330   */\n      dup2\n        /* \"#utility.yul\":3307:3331   */\n      tag_271\n      jump\t// in\n    tag_350:\n        /* \"#utility.yul\":3300:3305   */\n      dup2\n        /* \"#utility.yul\":3297:3332   */\n      eq\n        /* \"#utility.yul\":3287:3350   */\n      tag_351\n      jumpi\n        /* \"#utility.yul\":3346:3347   */\n      0x00\n        /* \"#utility.yul\":3343:3344   */\n      0x00\n        /* \"#utility.yul\":3336:3348   */\n      revert\n        /* \"#utility.yul\":3287:3350   */\n    tag_351:\n        /* \"#utility.yul\":3234:3356   */\n      pop\n      jump\t// out\n        /* \"#utility.yul\":3362:3501   */\n    tag_273:\n        /* \"#utility.yul\":3408:3413   */\n      0x00\n        /* \"#utility.yul\":3446:3452   */\n      dup2\n        /* \"#utility.yul\":3433:3453   */\n      calldataload\n        /* \"#utility.yul\":3424:3453   */\n      swap1\n      pop\n        /* \"#utility.yul\":3462:3495   */\n      tag_353\n        /* \"#utility.yul\":3489:3494   */\n      dup2\n        /* \"#utility.yul\":3462:3495   */\n      tag_272\n      jump\t// in\n    tag_353:\n        /* \"#utility.yul\":3362:3501   */\n      swap3\n      swap2\n      pop\n      pop\n      jump\t// out\n        /* \"#utility.yul\":3507:3836   */\n    tag_42:\n        /* \"#utility.yul\":3566:3572   */\n      0x00\n        /* \"#utility.yul\":3615:3617   */\n      0x20\n        /* \"#utility.yul\":3603:3612   */\n      dup3\n        /* \"#utility.yul\":3594:3601   */\n      dup5\n        /* \"#utility.yul\":3590:3613   */\n      sub\n        /* \"#utility.yul\":3586:3618   */\n      slt\n        /* \"#utility.yul\":3583:3702   */\n      iszero\n      tag_355\n      jumpi\n        /* \"#utility.yul\":3621:3700   */\n      tag_356\n      tag_259\n      jump\t// in\n    tag_356:\n        /* \"#utility.yul\":3583:3702   */\n    tag_355:\n        /* \"#utility.yul\":3741:3742   */\n      0x00\n        /* \"#utility.yul\":3766:3819   */\n      tag_357\n        /* \"#utility.yul\":3811:3818   */\n      dup5\n        /* \"#utility.yul\":3802:3808   */\n      dup3\n        /* \"#utility.yul\":3791:3800   */\n      dup6\n        /* \"#utility.yul\":3787:3809   */\n      add\n        /* \"#utility.yul\":3766:3819   */\n      tag_273\n      jump\t// in\n    tag_357:\n        /* \"#utility.yul\":3756:3819   */\n      swap2\n      pop\n        /* \"#utility.yul\":3712:3829   */\n      pop\n        /* \"#utility.yul\":3507:3836   */\n      swap3\n      swap2\n      pop\n      pop\n      jump\t// out\n        /* \"#utility.yul\":3842:3960   */\n    tag_274:\n        /* \"#utility.yul\":3929:3953   */\n      tag_359\n        /* \"#utility.yul\":3947:3952   */\n      dup2\n        /* \"#utility.yul\":3929:3953   */\n      tag_261\n      jump\t// in\n    tag_359:\n        /* \"#utility.yul\":3924:3927   */\n      dup3\n        /* \"#utility.yul\":3917:3954   */\n      mstore\n        /* \"#utility.yul\":3842:3960   */\n      pop\n      pop\n      jump\t// out\n        /* \"#utility.yul\":3966:4188   */\n    tag_47:\n        /* \"#utility.yul\":4059:4063   */\n      0x00\n        /* \"#utility.yul\":4097:4099   */\n      0x20\n        /* \"#utility.yul\":4086:4095   */\n      dup3\n        /* \"#utility.yul\":4082:4100   */\n      add\n        /* \"#utility.yul\":4074:4100   */\n      swap1\n      pop\n        /* \"#utility.yul\":4110:4181   */\n      tag_361\n        /* \"#utility.yul\":4178:4179   */\n      0x00\n        /* \"#utility.yul\":4167:4176   */\n      dup4\n        /* \"#utility.yul\":4163:4180   */\n      add\n        /* \"#utility.yul\":4154:4160   */\n      dup5\n        /* \"#utility.yul\":4110:4181   */\n      tag_274\n      jump\t// in\n    tag_361:\n        /* \"#utility.yul\":3966:4188   */\n      swap3\n      swap2\n      pop\n      pop\n      jump\t// out\n        /* \"#utility.yul\":4194:4312   */\n    tag_275:\n        /* \"#utility.yul\":4281:4305   */\n      tag_363\n        /* \"#utility.yul\":4299:4304   */\n      dup2\n        /* \"#utility.yul\":4281:4305   */\n      tag_271\n      jump\t// in\n    tag_363:\n        /* \"#utility.yul\":4276:4279   */\n      dup3\n        /* \"#utility.yul\":4269:4306   */\n      mstore\n        /* \"#utility.yul\":4194:4312   */\n      pop\n      pop\n      jump\t// out\n        /* \"#utility.yul\":4318:4540   */\n    tag_52:\n        /* \"#utility.yul\":4411:4415   */\n      0x00\n        /* \"#utility.yul\":4449:4451   */\n      0x20\n        /* \"#utility.yul\":4438:4447   */\n      dup3\n        /* \"#utility.yul\":4434:4452   */\n      add\n        /* \"#utility.yul\":4426:4452   */\n      swap1\n      pop\n        /* \"#utility.yul\":4462:4533   */\n      tag_365\n        /* \"#utility.yul\":4530:4531   */\n      0x00\n        /* \"#utility.yul\":4519:4528   */\n      dup4\n        /* \"#utility.yul\":4515:4532   */\n      add\n        /* \"#utility.yul\":4506:4512   */\n      dup5\n        /* \"#utility.yul\":4462:4533   */\n      tag_275\n      jump\t// in\n    tag_365:\n        /* \"#utility.yul\":4318:4540   */\n      swap3\n      swap2\n      pop\n      pop\n      jump\t// out\n        /* \"#utility.yul\":4546:4654   */\n    tag_276:\n        /* \"#utility.yul\":4623:4647   */\n      tag_367\n        /* \"#utility.yul\":4641:4646   */\n      dup2\n        /* \"#utility.yul\":4623:4647   */\n      tag_261\n      jump\t// in\n    tag_367:\n        /* \"#utility.yul\":4618:4621   */\n      dup3\n        /* \"#utility.yul\":4611:4648   */\n      mstore\n        /* \"#utility.yul\":4546:4654   */\n      pop\n      pop\n      jump\t// out\n        /* \"#utility.yul\":4660:4840   */\n    tag_111:\n        /* \"#utility.yul\":4708:4785   */\n      0x4e487b7100000000000000000000000000000000000000000000000000000000\n        /* \"#utility.yul\":4705:4706   */\n      0x00\n        /* \"#utility.yul\":4698:4786   */\n      mstore\n        /* \"#utility.yul\":4805:4809   */\n      0x21\n        /* \"#utility.yul\":4802:4803   */\n      0x04\n        /* \"#utility.yul\":4795:4810   */\n      mstore\n        /* \"#utility.yul\":4829:4833   */\n      0x24\n        /* \"#utility.yul\":4826:4827   */\n      0x00\n        /* \"#utility.yul\":4819:4834   */\n      revert\n        /* \"#utility.yul\":4846:4963   */\n    tag_277:\n        /* \"#utility.yul\":4930:4932   */\n      0x0b\n        /* \"#utility.yul\":4923:4928   */\n      dup2\n        /* \"#utility.yul\":4920:4933   */\n      lt\n        /* \"#utility.yul\":4910:4957   */\n      tag_370\n      jumpi\n        /* \"#utility.yul\":4937:4955   */\n      tag_371\n      tag_111\n      jump\t// in\n    tag_371:\n        /* \"#utility.yul\":4910:4957   */\n    tag_370:\n        /* \"#utility.yul\":4846:4963   */\n      pop\n      jump\t// out\n        /* \"#utility.yul\":4969:5102   */\n    tag_278:\n        /* \"#utility.yul\":5017:5024   */\n      0x00\n        /* \"#utility.yul\":5046:5051   */\n      dup2\n        /* \"#utility.yul\":5035:5051   */\n      swap1\n      pop\n        /* \"#utility.yul\":5052:5096   */\n      tag_373\n        /* \"#utility.yul\":5090:5095   */\n      dup3\n        /* \"#utility.yul\":5052:5096   */\n      tag_277\n      jump\t// in\n    tag_373:\n        /* \"#utility.yul\":4969:5102   */\n      swap2\n      swap1\n      pop\n      jump\t// out\n        /* \"#utility.yul\":5108:5241   */\n    tag_279:\n        /* \"#utility.yul\":5167:5176   */\n      0x00\n        /* \"#utility.yul\":5200:5235   */\n      tag_375\n        /* \"#utility.yul\":5229:5234   */\n      dup3\n        /* \"#utility.yul\":5200:5235   */\n      tag_278\n      jump\t// in\n    tag_375:\n        /* \"#utility.yul\":5187:5235   */\n      swap1\n      pop\n        /* \"#utility.yul\":5108:5241   */\n      swap2\n      swap1\n      pop\n      jump\t// out\n        /* \"#utility.yul\":5247:5386   */\n    tag_280:\n        /* \"#utility.yul\":5333:5379   */\n      tag_377\n        /* \"#utility.yul\":5373:5378   */\n      dup2\n        /* \"#utility.yul\":5333:5379   */\n      tag_279\n      jump\t// in\n    tag_377:\n        /* \"#utility.yul\":5328:5331   */\n      dup3\n        /* \"#utility.yul\":5321:5380   */\n      mstore\n        /* \"#utility.yul\":5247:5386   */\n      pop\n      pop\n      jump\t// out\n        /* \"#utility.yul\":5392:5491   */\n    tag_281:\n        /* \"#utility.yul\":5463:5484   */\n      tag_379\n        /* \"#utility.yul\":5478:5483   */\n      dup2\n        /* \"#utility.yul\":5463:5484   */\n      tag_264\n      jump\t// in\n    tag_379:\n        /* \"#utility.yul\":5458:5461   */\n      dup3\n        /* \"#utility.yul\":5451:5485   */\n      mstore\n        /* \"#utility.yul\":5392:5491   */\n      pop\n      pop\n      jump\t// out\n        /* \"#utility.yul\":5549:6957   */\n    tag_282:\n        /* \"#utility.yul\":5696:5700   */\n      0xe0\n        /* \"#utility.yul\":5691:5694   */\n      dup3\n        /* \"#utility.yul\":5687:5701   */\n      add\n        /* \"#utility.yul\":5782:5786   */\n      0x00\n        /* \"#utility.yul\":5775:5780   */\n      dup3\n        /* \"#utility.yul\":5771:5787   */\n      add\n        /* \"#utility.yul\":5765:5788   */\n      mload\n        /* \"#utility.yul\":5801:5864   */\n      tag_381\n        /* \"#utility.yul\":5858:5862   */\n      0x00\n        /* \"#utility.yul\":5853:5856   */\n      dup6\n        /* \"#utility.yul\":5849:5863   */\n      add\n        /* \"#utility.yul\":5835:5847   */\n      dup3\n        /* \"#utility.yul\":5801:5864   */\n      tag_276\n      jump\t// in\n    tag_381:\n        /* \"#utility.yul\":5711:5874   */\n      pop\n        /* \"#utility.yul\":5958:5962   */\n      0x20\n        /* \"#utility.yul\":5951:5956   */\n      dup3\n        /* \"#utility.yul\":5947:5963   */\n      add\n        /* \"#utility.yul\":5941:5964   */\n      mload\n        /* \"#utility.yul\":5977:6040   */\n      tag_382\n        /* \"#utility.yul\":6034:6038   */\n      0x20\n        /* \"#utility.yul\":6029:6032   */\n      dup6\n        /* \"#utility.yul\":6025:6039   */\n      add\n        /* \"#utility.yul\":6011:6023   */\n      dup3\n        /* \"#utility.yul\":5977:6040   */\n      tag_276\n      jump\t// in\n    tag_382:\n        /* \"#utility.yul\":5884:6050   */\n      pop\n        /* \"#utility.yul\":6134:6138   */\n      0x40\n        /* \"#utility.yul\":6127:6132   */\n      dup3\n        /* \"#utility.yul\":6123:6139   */\n      add\n        /* \"#utility.yul\":6117:6140   */\n      mload\n        /* \"#utility.yul\":6153:6216   */\n      tag_383\n        /* \"#utility.yul\":6210:6214   */\n      0x40\n        /* \"#utility.yul\":6205:6208   */\n      dup6\n        /* \"#utility.yul\":6201:6215   */\n      add\n        /* \"#utility.yul\":6187:6199   */\n      dup3\n        /* \"#utility.yul\":6153:6216   */\n      tag_276\n      jump\t// in\n    tag_383:\n        /* \"#utility.yul\":6060:6226   */\n      pop\n        /* \"#utility.yul\":6311:6315   */\n      0x60\n        /* \"#utility.yul\":6304:6309   */\n      dup3\n        /* \"#utility.yul\":6300:6316   */\n      add\n        /* \"#utility.yul\":6294:6317   */\n      mload\n        /* \"#utility.yul\":6330:6402   */\n      tag_384\n        /* \"#utility.yul\":6396:6400   */\n      0x60\n        /* \"#utility.yul\":6391:6394   */\n      dup6\n        /* \"#utility.yul\":6387:6401   */\n      add\n        /* \"#utility.yul\":6373:6385   */\n      dup3\n        /* \"#utility.yul\":6330:6402   */\n      tag_280\n      jump\t// in\n    tag_384:\n        /* \"#utility.yul\":6236:6412   */\n      pop\n        /* \"#utility.yul\":6504:6508   */\n      0x80\n        /* \"#utility.yul\":6497:6502   */\n      dup3\n        /* \"#utility.yul\":6493:6509   */\n      add\n        /* \"#utility.yul\":6487:6510   */\n      mload\n        /* \"#utility.yul\":6523:6586   */\n      tag_385\n        /* \"#utility.yul\":6580:6584   */\n      0x80\n        /* \"#utility.yul\":6575:6578   */\n      dup6\n        /* \"#utility.yul\":6571:6585   */\n      add\n        /* \"#utility.yul\":6557:6569   */\n      dup3\n        /* \"#utility.yul\":6523:6586   */\n      tag_276\n      jump\t// in\n    tag_385:\n        /* \"#utility.yul\":6422:6596   */\n      pop\n        /* \"#utility.yul\":6680:6684   */\n      0xa0\n        /* \"#utility.yul\":6673:6678   */\n      dup3\n        /* \"#utility.yul\":6669:6685   */\n      add\n        /* \"#utility.yul\":6663:6686   */\n      mload\n        /* \"#utility.yul\":6699:6756   */\n      tag_386\n        /* \"#utility.yul\":6750:6754   */\n      0xa0\n        /* \"#utility.yul\":6745:6748   */\n      dup6\n        /* \"#utility.yul\":6741:6755   */\n      add\n        /* \"#utility.yul\":6727:6739   */\n      dup3\n        /* \"#utility.yul\":6699:6756   */\n      tag_281\n      jump\t// in\n    tag_386:\n        /* \"#utility.yul\":6606:6766   */\n      pop\n        /* \"#utility.yul\":6858:6862   */\n      0xc0\n        /* \"#utility.yul\":6851:6856   */\n      dup3\n        /* \"#utility.yul\":6847:6863   */\n      add\n        /* \"#utility.yul\":6841:6864   */\n      mload\n        /* \"#utility.yul\":6877:6940   */\n      tag_387\n        /* \"#utility.yul\":6934:6938   */\n      0xc0\n        /* \"#utility.yul\":6929:6932   */\n      dup6\n        /* \"#utility.yul\":6925:6939   */\n      add\n        /* \"#utility.yul\":6911:6923   */\n      dup3\n        /* \"#utility.yul\":6877:6940   */\n      tag_276\n      jump\t// in\n    tag_387:\n        /* \"#utility.yul\":6776:6950   */\n      pop\n        /* \"#utility.yul\":5665:6957   */\n      pop\n        /* \"#utility.yul\":5549:6957   */\n      pop\n      pop\n      jump\t// out\n        /* \"#utility.yul\":6963:7286   */\n    tag_57:\n        /* \"#utility.yul\":7106:7110   */\n      0x00\n        /* \"#utility.yul\":7144:7147   */\n      0xe0\n        /* \"#utility.yul\":7133:7142   */\n      dup3\n        /* \"#utility.yul\":7129:7148   */\n      add\n        /* \"#utility.yul\":7121:7148   */\n      swap1\n      pop\n        /* \"#utility.yul\":7158:7279   */\n      tag_389\n        /* \"#utility.yul\":7276:7277   */\n      0x00\n        /* \"#utility.yul\":7265:7274   */\n      dup4\n        /* \"#utility.yul\":7261:7278   */\n      add\n        /* \"#utility.yul\":7252:7258   */\n      dup5\n        /* \"#utility.yul\":7158:7279   */\n      tag_282\n      jump\t// in\n    tag_389:\n        /* \"#utility.yul\":6963:7286   */\n      swap3\n      swap2\n      pop\n      pop\n      jump\t// out\n        /* \"#utility.yul\":7292:7766   */\n    tag_66:\n        /* \"#utility.yul\":7360:7366   */\n      0x00\n        /* \"#utility.yul\":7368:7374   */\n      0x00\n        /* \"#utility.yul\":7417:7419   */\n      0x40\n        /* \"#utility.yul\":7405:7414   */\n      dup4\n        /* \"#utility.yul\":7396:7403   */\n      dup6\n        /* \"#utility.yul\":7392:7415   */\n      sub\n        /* \"#utility.yul\":7388:7420   */\n      slt\n        /* \"#utility.yul\":7385:7504   */\n      iszero\n      tag_391\n      jumpi\n        /* \"#utility.yul\":7423:7502   */\n      tag_392\n      tag_259\n      jump\t// in\n    tag_392:\n        /* \"#utility.yul\":7385:7504   */\n    tag_391:\n        /* \"#utility.yul\":7543:7544   */\n      0x00\n        /* \"#utility.yul\":7568:7621   */\n      tag_393\n        /* \"#utility.yul\":7613:7620   */\n      dup6\n        /* \"#utility.yul\":7604:7610   */\n      dup3\n        /* \"#utility.yul\":7593:7602   */\n      dup7\n        /* \"#utility.yul\":7589:7611   */\n      add\n        /* \"#utility.yul\":7568:7621   */\n      tag_263\n      jump\t// in\n    tag_393:\n        /* \"#utility.yul\":7558:7621   */\n      swap3\n      pop\n        /* \"#utility.yul\":7514:7631   */\n      pop\n        /* \"#utility.yul\":7670:7672   */\n      0x20\n        /* \"#utility.yul\":7696:7749   */\n      tag_394\n        /* \"#utility.yul\":7741:7748   */\n      dup6\n        /* \"#utility.yul\":7732:7738   */\n      dup3\n        /* \"#utility.yul\":7721:7730   */\n      dup7\n        /* \"#utility.yul\":7717:7739   */\n      add\n        /* \"#utility.yul\":7696:7749   */\n      tag_273\n      jump\t// in\n    tag_394:\n        /* \"#utility.yul\":7686:7749   */\n      swap2\n      pop\n        /* \"#utility.yul\":7641:7759   */\n      pop\n        /* \"#utility.yul\":7292:7766   */\n      swap3\n      pop\n      swap3\n      swap1\n      pop\n      jump\t// out\n        /* \"#utility.yul\":7772:7921   */\n    tag_283:\n        /* \"#utility.yul\":7868:7914   */\n      tag_396\n        /* \"#utility.yul\":7908:7913   */\n      dup2\n        /* \"#utility.yul\":7868:7914   */\n      tag_279\n      jump\t// in\n    tag_396:\n        /* \"#utility.yul\":7863:7866   */\n      dup3\n        /* \"#utility.yul\":7856:7915   */\n      mstore\n        /* \"#utility.yul\":7772:7921   */\n      pop\n      pop\n      jump\t// out\n        /* \"#utility.yul\":7927:8819   */\n    tag_78:\n        /* \"#utility.yul\":8191:8195   */\n      0x00\n        /* \"#utility.yul\":8229:8232   */\n      0xe0\n        /* \"#utility.yul\":8218:8227   */\n      dup3\n        /* \"#utility.yul\":8214:8233   */\n      add\n        /* \"#utility.yul\":8206:8233   */\n      swap1\n      pop\n        /* \"#utility.yul\":8243:8314   */\n      tag_398\n        /* \"#utility.yul\":8311:8312   */\n      0x00\n        /* \"#utility.yul\":8300:8309   */\n      dup4\n        /* \"#utility.yul\":8296:8313   */\n      add\n        /* \"#utility.yul\":8287:8293   */\n      dup11\n        /* \"#utility.yul\":8243:8314   */\n      tag_274\n      jump\t// in\n    tag_398:\n        /* \"#utility.yul\":8324:8396   */\n      tag_399\n        /* \"#utility.yul\":8392:8394   */\n      0x20\n        /* \"#utility.yul\":8381:8390   */\n      dup4\n        /* \"#utility.yul\":8377:8395   */\n      add\n        /* \"#utility.yul\":8368:8374   */\n      dup10\n        /* \"#utility.yul\":8324:8396   */\n      tag_274\n      jump\t// in\n    tag_399:\n        /* \"#utility.yul\":8406:8478   */\n      tag_400\n        /* \"#utility.yul\":8474:8476   */\n      0x40\n        /* \"#utility.yul\":8463:8472   */\n      dup4\n        /* \"#utility.yul\":8459:8477   */\n      add\n        /* \"#utility.yul\":8450:8456   */\n      dup9\n        /* \"#utility.yul\":8406:8478   */\n      tag_274\n      jump\t// in\n    tag_400:\n        /* \"#utility.yul\":8488:8569   */\n      tag_401\n        /* \"#utility.yul\":8565:8567   */\n      0x60\n        /* \"#utility.yul\":8554:8563   */\n      dup4\n        /* \"#utility.yul\":8550:8568   */\n      add\n        /* \"#utility.yul\":8541:8547   */\n      dup8\n        /* \"#utility.yul\":8488:8569   */\n      tag_283\n      jump\t// in\n    tag_401:\n        /* \"#utility.yul\":8579:8652   */\n      tag_402\n        /* \"#utility.yul\":8647:8650   */\n      0x80\n        /* \"#utility.yul\":8636:8645   */\n      dup4\n        /* \"#utility.yul\":8632:8651   */\n      add\n        /* \"#utility.yul\":8623:8629   */\n      dup7\n        /* \"#utility.yul\":8579:8652   */\n      tag_274\n      jump\t// in\n    tag_402:\n        /* \"#utility.yul\":8662:8729   */\n      tag_403\n        /* \"#utility.yul\":8724:8727   */\n      0xa0\n        /* \"#utility.yul\":8713:8722   */\n      dup4\n        /* \"#utility.yul\":8709:8728   */\n      add\n        /* \"#utility.yul\":8700:8706   */\n      dup6\n        /* \"#utility.yul\":8662:8729   */\n      tag_265\n      jump\t// in\n    tag_403:\n        /* \"#utility.yul\":8739:8812   */\n      tag_404\n        /* \"#utility.yul\":8807:8810   */\n      0xc0\n        /* \"#utility.yul\":8796:8805   */\n      dup4\n        /* \"#utility.yul\":8792:8811   */\n      add\n        /* \"#utility.yul\":8783:8789   */\n      dup5\n        /* \"#utility.yul\":8739:8812   */\n      tag_274\n      jump\t// in\n    tag_404:\n        /* \"#utility.yul\":7927:8819   */\n      swap9\n      swap8\n      pop\n      pop\n      pop\n      pop\n      pop\n      pop\n      pop\n      pop\n      jump\t// out\n        /* \"#utility.yul\":8825:8924   */\n    tag_284:\n        /* \"#utility.yul\":8877:8883   */\n      0x00\n        /* \"#utility.yul\":8911:8916   */\n      dup2\n        /* \"#utility.yul\":8905:8917   */\n      mload\n        /* \"#utility.yul\":8895:8917   */\n      swap1\n      pop\n        /* \"#utility.yul\":8825:8924   */\n      swap2\n      swap1\n      pop\n      jump\t// out\n        /* \"#utility.yul\":8930:9099   */\n    tag_285:\n        /* \"#utility.yul\":9014:9025   */\n      0x00\n        /* \"#utility.yul\":9048:9054   */\n      dup3\n        /* \"#utility.yul\":9043:9046   */\n      dup3\n        /* \"#utility.yul\":9036:9055   */\n      mstore\n        /* \"#utility.yul\":9088:9092   */\n      0x20\n        /* \"#utility.yul\":9083:9086   */\n      dup3\n        /* \"#utility.yul\":9079:9093   */\n      add\n        /* \"#utility.yul\":9064:9093   */\n      swap1\n      pop\n        /* \"#utility.yul\":8930:9099   */\n      swap3\n      swap2\n      pop\n      pop\n      jump\t// out\n        /* \"#utility.yul\":9105:9244   */\n    tag_286:\n        /* \"#utility.yul\":9194:9200   */\n      dup3\n        /* \"#utility.yul\":9189:9192   */\n      dup2\n        /* \"#utility.yul\":9184:9187   */\n      dup4\n        /* \"#utility.yul\":9178:9201   */\n      mcopy\n        /* \"#utility.yul\":9235:9236   */\n      0x00\n        /* \"#utility.yul\":9226:9232   */\n      dup4\n        /* \"#utility.yul\":9221:9224   */\n      dup4\n        /* \"#utility.yul\":9217:9233   */\n      add\n        /* \"#utility.yul\":9210:9237   */\n      mstore\n        /* \"#utility.yul\":9105:9244   */\n      pop\n      pop\n      pop\n      jump\t// out\n        /* \"#utility.yul\":9250:9352   */\n    tag_287:\n        /* \"#utility.yul\":9291:9297   */\n      0x00\n        /* \"#utility.yul\":9342:9344   */\n      0x1f\n        /* \"#utility.yul\":9338:9345   */\n      not\n        /* \"#utility.yul\":9333:9335   */\n      0x1f\n        /* \"#utility.yul\":9326:9331   */\n      dup4\n        /* \"#utility.yul\":9322:9336   */\n      add\n        /* \"#utility.yul\":9318:9346   */\n      and\n        /* \"#utility.yul\":9308:9346   */\n      swap1\n      pop\n        /* \"#utility.yul\":9250:9352   */\n      swap2\n      swap1\n      pop\n      jump\t// out\n        /* \"#utility.yul\":9358:9735   */\n    tag_288:\n        /* \"#utility.yul\":9446:9449   */\n      0x00\n        /* \"#utility.yul\":9474:9513   */\n      tag_410\n        /* \"#utility.yul\":9507:9512   */\n      dup3\n        /* \"#utility.yul\":9474:9513   */\n      tag_284\n      jump\t// in\n    tag_410:\n        /* \"#utility.yul\":9529:9600   */\n      tag_411\n        /* \"#utility.yul\":9593:9599   */\n      dup2\n        /* \"#utility.yul\":9588:9591   */\n      dup6\n        /* \"#utility.yul\":9529:9600   */\n      tag_285\n      jump\t// in\n    tag_411:\n        /* \"#utility.yul\":9522:9600   */\n      swap4\n      pop\n        /* \"#utility.yul\":9609:9674   */\n      tag_412\n        /* \"#utility.yul\":9667:9673   */\n      dup2\n        /* \"#utility.yul\":9662:9665   */\n      dup6\n        /* \"#utility.yul\":9655:9659   */\n      0x20\n        /* \"#utility.yul\":9648:9653   */\n      dup7\n        /* \"#utility.yul\":9644:9660   */\n      add\n        /* \"#utility.yul\":9609:9674   */\n      tag_286\n      jump\t// in\n    tag_412:\n        /* \"#utility.yul\":9699:9728   */\n      tag_413\n        /* \"#utility.yul\":9721:9727   */\n      dup2\n        /* \"#utility.yul\":9699:9728   */\n      tag_287\n      jump\t// in\n    tag_413:\n        /* \"#utility.yul\":9694:9697   */\n      dup5\n        /* \"#utility.yul\":9690:9729   */\n      add\n        /* \"#utility.yul\":9683:9729   */\n      swap2\n      pop\n        /* \"#utility.yul\":9450:9735   */\n      pop\n        /* \"#utility.yul\":9358:9735   */\n      swap3\n      swap2\n      pop\n      pop\n      jump\t// out\n        /* \"#utility.yul\":9741:10054   */\n    tag_83:\n        /* \"#utility.yul\":9854:9858   */\n      0x00\n        /* \"#utility.yul\":9892:9894   */\n      0x20\n        /* \"#utility.yul\":9881:9890   */\n      dup3\n        /* \"#utility.yul\":9877:9895   */\n      add\n        /* \"#utility.yul\":9869:9895   */\n      swap1\n      pop\n        /* \"#utility.yul\":9941:9950   */\n      dup2\n        /* \"#utility.yul\":9935:9939   */\n      dup2\n        /* \"#utility.yul\":9931:9951   */\n      sub\n        /* \"#utility.yul\":9927:9928   */\n      0x00\n        /* \"#utility.yul\":9916:9925   */\n      dup4\n        /* \"#utility.yul\":9912:9929   */\n      add\n        /* \"#utility.yul\":9905:9952   */\n      mstore\n        /* \"#utility.yul\":9969:10047   */\n      tag_415\n        /* \"#utility.yul\":10042:10046   */\n      dup2\n        /* \"#utility.yul\":10033:10039   */\n      dup5\n        /* \"#utility.yul\":9969:10047   */\n      tag_288\n      jump\t// in\n    tag_415:\n        /* \"#utility.yul\":9961:10047   */\n      swap1\n      pop\n        /* \"#utility.yul\":9741:10054   */\n      swap3\n      swap2\n      pop\n      pop\n      jump\t// out\n        /* \"#utility.yul\":10060:10233   */\n    tag_289:\n        /* \"#utility.yul\":10200:10225   */\n      0x4f6e6c79205061726b2063616e2063616c6c2074686973000000000000000000\n        /* \"#utility.yul\":10196:10197   */\n      0x00\n        /* \"#utility.yul\":10188:10194   */\n      dup3\n        /* \"#utility.yul\":10184:10198   */\n      add\n        /* \"#utility.yul\":10177:10226   */\n      mstore\n        /* \"#utility.yul\":10060:10233   */\n      pop\n      jump\t// out\n        /* \"#utility.yul\":10239:10605   */\n    tag_290:\n        /* \"#utility.yul\":10381:10384   */\n      0x00\n        /* \"#utility.yul\":10402:10469   */\n      tag_418\n        /* \"#utility.yul\":10466:10468   */\n      0x17\n        /* \"#utility.yul\":10461:10464   */\n      dup4\n        /* \"#utility.yul\":10402:10469   */\n      tag_285\n      jump\t// in\n    tag_418:\n        /* \"#utility.yul\":10395:10469   */\n      swap2\n      pop\n        /* \"#utility.yul\":10478:10571   */\n      tag_419\n        /* \"#utility.yul\":10567:10570   */\n      dup3\n        /* \"#utility.yul\":10478:10571   */\n      tag_289\n      jump\t// in\n    tag_419:\n        /* \"#utility.yul\":10596:10598   */\n      0x20\n        /* \"#utility.yul\":10591:10594   */\n      dup3\n        /* \"#utility.yul\":10587:10599   */\n      add\n        /* \"#utility.yul\":10580:10599   */\n      swap1\n      pop\n        /* \"#utility.yul\":10239:10605   */\n      swap2\n      swap1\n      pop\n      jump\t// out\n        /* \"#utility.yul\":10611:11030   */\n    tag_87:\n        /* \"#utility.yul\":10777:10781   */\n      0x00\n        /* \"#utility.yul\":10815:10817   */\n      0x20\n        /* \"#utility.yul\":10804:10813   */\n      dup3\n        /* \"#utility.yul\":10800:10818   */\n      add\n        /* \"#utility.yul\":10792:10818   */\n      swap1\n      pop\n        /* \"#utility.yul\":10864:10873   */\n      dup2\n        /* \"#utility.yul\":10858:10862   */\n      dup2\n        /* \"#utility.yul\":10854:10874   */\n      sub\n        /* \"#utility.yul\":10850:10851   */\n      0x00\n        /* \"#utility.yul\":10839:10848   */\n      dup4\n        /* \"#utility.yul\":10835:10852   */\n      add\n        /* \"#utility.yul\":10828:10875   */\n      mstore\n        /* \"#utility.yul\":10892:11023   */\n      tag_421\n        /* \"#utility.yul\":11018:11022   */\n      dup2\n        /* \"#utility.yul\":10892:11023   */\n      tag_290\n      jump\t// in\n    tag_421:\n        /* \"#utility.yul\":10884:11023   */\n      swap1\n      pop\n        /* \"#utility.yul\":10611:11030   */\n      swap2\n      swap1\n      pop\n      jump\t// out\n        /* \"#utility.yul\":11036:11209   */\n    tag_291:\n        /* \"#utility.yul\":11176:11201   */\n      0x43616e6e6f742066656564206120646561642062697264000000000000000000\n        /* \"#utility.yul\":11172:11173   */\n      0x00\n        /* \"#utility.yul\":11164:11170   */\n      dup3\n        /* \"#utility.yul\":11160:11174   */\n      add\n        /* \"#utility.yul\":11153:11202   */\n      mstore\n        /* \"#utility.yul\":11036:11209   */\n      pop\n      jump\t// out\n        /* \"#utility.yul\":11215:11581   */\n    tag_292:\n        /* \"#utility.yul\":11357:11360   */\n      0x00\n        /* \"#utility.yul\":11378:11445   */\n      tag_424\n        /* \"#utility.yul\":11442:11444   */\n      0x17\n        /* \"#utility.yul\":11437:11440   */\n      dup4\n        /* \"#utility.yul\":11378:11445   */\n      tag_285\n      jump\t// in\n    tag_424:\n        /* \"#utility.yul\":11371:11445   */\n      swap2\n      pop\n        /* \"#utility.yul\":11454:11547   */\n      tag_425\n        /* \"#utility.yul\":11543:11546   */\n      dup3\n        /* \"#utility.yul\":11454:11547   */\n      tag_291\n      jump\t// in\n    tag_425:\n        /* \"#utility.yul\":11572:11574   */\n      0x20\n        /* \"#utility.yul\":11567:11570   */\n      dup3\n        /* \"#utility.yul\":11563:11575   */\n      add\n        /* \"#utility.yul\":11556:11575   */\n      swap1\n      pop\n        /* \"#utility.yul\":11215:11581   */\n      swap2\n      swap1\n      pop\n      jump\t// out\n        /* \"#utility.yul\":11587:12006   */\n    tag_94:\n        /* \"#utility.yul\":11753:11757   */\n      0x00\n        /* \"#utility.yul\":11791:11793   */\n      0x20\n        /* \"#utility.yul\":11780:11789   */\n      dup3\n        /* \"#utility.yul\":11776:11794   */\n      add\n        /* \"#utility.yul\":11768:11794   */\n      swap1\n      pop\n        /* \"#utility.yul\":11840:11849   */\n      dup2\n        /* \"#utility.yul\":11834:11838   */\n      dup2\n        /* \"#utility.yul\":11830:11850   */\n      sub\n        /* \"#utility.yul\":11826:11827   */\n      0x00\n        /* \"#utility.yul\":11815:11824   */\n      dup4\n        /* \"#utility.yul\":11811:11828   */\n      add\n        /* \"#utility.yul\":11804:11851   */\n      mstore\n        /* \"#utility.yul\":11868:11999   */\n      tag_427\n        /* \"#utility.yul\":11994:11998   */\n      dup2\n        /* \"#utility.yul\":11868:11999   */\n      tag_292\n      jump\t// in\n    tag_427:\n        /* \"#utility.yul\":11860:11999   */\n      swap1\n      pop\n        /* \"#utility.yul\":11587:12006   */\n      swap2\n      swap1\n      pop\n      jump\t// out\n        /* \"#utility.yul\":12012:12192   */\n    tag_293:\n        /* \"#utility.yul\":12060:12137   */\n      0x4e487b7100000000000000000000000000000000000000000000000000000000\n        /* \"#utility.yul\":12057:12058   */\n      0x00\n        /* \"#utility.yul\":12050:12138   */\n      mstore\n        /* \"#utility.yul\":12157:12161   */\n      0x11\n        /* \"#utility.yul\":12154:12155   */\n      0x04\n        /* \"#utility.yul\":12147:12162   */\n      mstore\n        /* \"#utility.yul\":12181:12185   */\n      0x24\n        /* \"#utility.yul\":12178:12179   */\n      0x00\n        /* \"#utility.yul\":12171:12186   */\n      revert\n        /* \"#utility.yul\":12198:12392   */\n    tag_97:\n        /* \"#utility.yul\":12238:12242   */\n      0x00\n        /* \"#utility.yul\":12258:12278   */\n      tag_430\n        /* \"#utility.yul\":12276:12277   */\n      dup3\n        /* \"#utility.yul\":12258:12278   */\n      tag_261\n      jump\t// in\n    tag_430:\n        /* \"#utility.yul\":12253:12278   */\n      swap2\n      pop\n        /* \"#utility.yul\":12292:12312   */\n      tag_431\n        /* \"#utility.yul\":12310:12311   */\n      dup4\n        /* \"#utility.yul\":12292:12312   */\n      tag_261\n      jump\t// in\n    tag_431:\n        /* \"#utility.yul\":12287:12312   */\n      swap3\n      pop\n        /* \"#utility.yul\":12336:12337   */\n      dup3\n        /* \"#utility.yul\":12333:12334   */\n      dup3\n        /* \"#utility.yul\":12329:12338   */\n      sub\n        /* \"#utility.yul\":12321:12338   */\n      swap1\n      pop\n        /* \"#utility.yul\":12360:12361   */\n      dup2\n        /* \"#utility.yul\":12354:12358   */\n      dup2\n        /* \"#utility.yul\":12351:12362   */\n      gt\n        /* \"#utility.yul\":12348:12385   */\n      iszero\n      tag_432\n      jumpi\n        /* \"#utility.yul\":12365:12383   */\n      tag_433\n      tag_293\n      jump\t// in\n    tag_433:\n        /* \"#utility.yul\":12348:12385   */\n    tag_432:\n        /* \"#utility.yul\":12198:12392   */\n      swap3\n      swap2\n      pop\n      pop\n      jump\t// out\n        /* \"#utility.yul\":12398:12631   */\n    tag_115:\n        /* \"#utility.yul\":12437:12440   */\n      0x00\n        /* \"#utility.yul\":12460:12484   */\n      tag_435\n        /* \"#utility.yul\":12478:12483   */\n      dup3\n        /* \"#utility.yul\":12460:12484   */\n      tag_261\n      jump\t// in\n    tag_435:\n        /* \"#utility.yul\":12451:12484   */\n      swap2\n      pop\n        /* \"#utility.yul\":12506:12572   */\n      0xffffffffffffffffffffffffffffffffffffffffffffffffffffffffffffffff\n        /* \"#utility.yul\":12499:12504   */\n      dup3\n        /* \"#utility.yul\":12496:12573   */\n      sub\n        /* \"#utility.yul\":12493:12596   */\n      tag_436\n      jumpi\n        /* \"#utility.yul\":12576:12594   */\n      tag_437\n      tag_293\n      jump\t// in\n    tag_437:\n        /* \"#utility.yul\":12493:12596   */\n    tag_436:\n        /* \"#utility.yul\":12623:12624   */\n      0x01\n        /* \"#utility.yul\":12616:12621   */\n      dup3\n        /* \"#utility.yul\":12612:12625   */\n      add\n        /* \"#utility.yul\":12605:12625   */\n      swap1\n      pop\n        /* \"#utility.yul\":12398:12631   */\n      swap2\n      swap1\n      pop\n      jump\t// out\n        /* \"#utility.yul\":12637:12803   */\n    tag_294:\n        /* \"#utility.yul\":12777:12795   */\n      0x5061726b20616c72656164792073657400000000000000000000000000000000\n        /* \"#utility.yul\":12773:12774   */\n      0x00\n        /* \"#utility.yul\":12765:12771   */\n      dup3\n        /* \"#utility.yul\":12761:12775   */\n      add\n        /* \"#utility.yul\":12754:12796   */\n      mstore\n        /* \"#utility.yul\":12637:12803   */\n      pop\n      jump\t// out\n        /* \"#utility.yul\":12809:13175   */\n    tag_295:\n        /* \"#utility.yul\":12951:12954   */\n      0x00\n        /* \"#utility.yul\":12972:13039   */\n      tag_440\n        /* \"#utility.yul\":13036:13038   */\n      0x10\n        /* \"#utility.yul\":13031:13034   */\n      dup4\n        /* \"#utility.yul\":12972:13039   */\n      tag_285\n      jump\t// in\n    tag_440:\n        /* \"#utility.yul\":12965:13039   */\n      swap2\n      pop\n        /* \"#utility.yul\":13048:13141   */\n      tag_441\n        /* \"#utility.yul\":13137:13140   */\n      dup3\n        /* \"#utility.yul\":13048:13141   */\n      tag_294\n      jump\t// in\n    tag_441:\n        /* \"#utility.yul\":13166:13168   */\n      0x20\n        /* \"#utility.yul\":13161:13164   */\n      dup3\n        /* \"#utility.yul\":13157:13169   */\n      add\n        /* \"#utility.yul\":13150:13169   */\n      swap1\n      pop\n        /* \"#utility.yul\":12809:13175   */\n      swap2\n      swap1\n      pop\n      jump\t// out\n        /* \"#utility.yul\":13181:13600   */\n    tag_119:\n        /* \"#utility.yul\":13347:13351   */\n      0x00\n        /* \"#utility.yul\":13385:13387   */\n      0x20\n        /* \"#utility.yul\":13374:13383   */\n      dup3\n        /* \"#utility.yul\":13370:13388   */\n      add\n        /* \"#utility.yul\":13362:13388   */\n      swap1\n      pop\n        /* \"#utility.yul\":13434:13443   */\n      dup2\n        /* \"#utility.yul\":13428:13432   */\n      dup2\n        /* \"#utility.yul\":13424:13444   */\n      sub\n        /* \"#utility.yul\":13420:13421   */\n      0x00\n        /* \"#utility.yul\":13409:13418   */\n      dup4\n        /* \"#utility.yul\":13405:13422   */\n      add\n        /* \"#utility.yul\":13398:13445   */\n      mstore\n        /* \"#utility.yul\":13462:13593   */\n      tag_443\n        /* \"#utility.yul\":13588:13592   */\n      dup2\n        /* \"#utility.yul\":13462:13593   */\n      tag_295\n      jump\t// in\n    tag_443:\n        /* \"#utility.yul\":13454:13593   */\n      swap1\n      pop\n        /* \"#utility.yul\":13181:13600   */\n      swap2\n      swap1\n      pop\n      jump\t// out\n        /* \"#utility.yul\":13606:13764   */\n    tag_296:\n        /* \"#utility.yul\":13746:13756   */\n      0x4e6f742064656164000000000000000000000000000000000000000000000000\n        /* \"#utility.yul\":13742:13743   */\n      0x00\n        /* \"#utility.yul\":13734:13740   */\n      dup3\n        /* \"#utility.yul\":13730:13744   */\n      add\n        /* \"#utility.yul\":13723:13757   */\n      mstore\n        /* \"#utility.yul\":13606:13764   */\n      pop\n      jump\t// out\n        /* \"#utility.yul\":13770:14135   */\n    tag_297:\n        /* \"#utility.yul\":13912:13915   */\n      0x00\n        /* \"#utility.yul\":13933:13999   */\n      tag_446\n        /* \"#utility.yul\":13997:13998   */\n      0x08\n        /* \"#utility.yul\":13992:13995   */\n      dup4\n        /* \"#utility.yul\":13933:13999   */\n      tag_285\n      jump\t// in\n    tag_446:\n        /* \"#utility.yul\":13926:13999   */\n      swap2\n      pop\n        /* \"#utility.yul\":14008:14101   */\n      tag_447\n        /* \"#utility.yul\":14097:14100   */\n      dup3\n        /* \"#utility.yul\":14008:14101   */\n      tag_296\n      jump\t// in\n    tag_447:\n        /* \"#utility.yul\":14126:14128   */\n      0x20\n        /* \"#utility.yul\":14121:14124   */\n      dup3\n        /* \"#utility.yul\":14117:14129   */\n      add\n        /* \"#utility.yul\":14110:14129   */\n      swap1\n      pop\n        /* \"#utility.yul\":13770:14135   */\n      swap2\n      swap1\n      pop\n      jump\t// out\n        /* \"#utility.yul\":14141:14560   */\n    tag_134:\n        /* \"#utility.yul\":14307:14311   */\n      0x00\n        /* \"#utility.yul\":14345:14347   */\n      0x20\n        /* \"#utility.yul\":14334:14343   */\n      dup3\n        /* \"#utility.yul\":14330:14348   */\n      add\n        /* \"#utility.yul\":14322:14348   */\n      swap1\n      pop\n        /* \"#utility.yul\":14394:14403   */\n      dup2\n        /* \"#utility.yul\":14388:14392   */\n      dup2\n        /* \"#utility.yul\":14384:14404   */\n      sub\n        /* \"#utility.yul\":14380:14381   */\n      0x00\n        /* \"#utility.yul\":14369:14378   */\n      dup4\n        /* \"#utility.yul\":14365:14382   */\n      add\n        /* \"#utility.yul\":14358:14405   */\n      mstore\n        /* \"#utility.yul\":14422:14553   */\n      tag_449\n        /* \"#utility.yul\":14548:14552   */\n      dup2\n        /* \"#utility.yul\":14422:14553   */\n      tag_297\n      jump\t// in\n    tag_449:\n        /* \"#utility.yul\":14414:14553   */\n      swap1\n      pop\n        /* \"#utility.yul\":14141:14560   */\n      swap2\n      swap1\n      pop\n      jump\t// out\n        /* \"#utility.yul\":14566:14729   */\n    tag_298:\n        /* \"#utility.yul\":14706:14721   */\n      0x4e6f7420746865206f776e657200000000000000000000000000000000000000\n        /* \"#utility.yul\":14702:14703   */\n      0x00\n        /* \"#utility.yul\":14694:14700   */\n      dup3\n        /* \"#utility.yul\":14690:14704   */\n      add\n        /* \"#utility.yul\":14683:14722   */\n      mstore\n        /* \"#utility.yul\":14566:14729   */\n      pop\n      jump\t// out\n        /* \"#utility.yul\":14735:15101   */\n    tag_299:\n        /* \"#utility.yul\":14877:14880   */\n      0x00\n        /* \"#utility.yul\":14898:14965   */\n      tag_452\n        /* \"#utility.yul\":14962:14964   */\n      0x0d\n        /* \"#utility.yul\":14957:14960   */\n      dup4\n        /* \"#utility.yul\":14898:14965   */\n      tag_285\n      jump\t// in\n    tag_452:\n        /* \"#utility.yul\":14891:14965   */\n      swap2\n      pop\n        /* \"#utility.yul\":14974:15067   */\n      tag_453\n        /* \"#utility.yul\":15063:15066   */\n      dup3\n        /* \"#utility.yul\":14974:15067   */\n      tag_298\n      jump\t// in\n    tag_453:\n        /* \"#utility.yul\":15092:15094   */\n      0x20\n        /* \"#utility.yul\":15087:15090   */\n      dup3\n        /* \"#utility.yul\":15083:15095   */\n      add\n        /* \"#utility.yul\":15076:15095   */\n      swap1\n      pop\n        /* \"#utility.yul\":14735:15101   */\n      swap2\n      swap1\n      pop\n      jump\t// out\n        /* \"#utility.yul\":15107:15526   */\n    tag_142:\n        /* \"#utility.yul\":15273:15277   */\n      0x00\n        /* \"#utility.yul\":15311:15313   */\n      0x20\n        /* \"#utility.yul\":15300:15309   */\n      dup3\n        /* \"#utility.yul\":15296:15314   */\n      add\n        /* \"#utility.yul\":15288:15314   */\n      swap1\n      pop\n        /* \"#utility.yul\":15360:15369   */\n      dup2\n        /* \"#utility.yul\":15354:15358   */\n      dup2\n        /* \"#utility.yul\":15350:15370   */\n      sub\n        /* \"#utility.yul\":15346:15347   */\n      0x00\n        /* \"#utility.yul\":15335:15344   */\n      dup4\n        /* \"#utility.yul\":15331:15348   */\n      add\n        /* \"#utility.yul\":15324:15371   */\n      mstore\n        /* \"#utility.yul\":15388:15519   */\n      tag_455\n        /* \"#utility.yul\":15514:15518   */\n      dup2\n        /* \"#utility.yul\":15388:15519   */\n      tag_299\n      jump\t// in\n    tag_455:\n        /* \"#utility.yul\":15380:15519   */\n      swap1\n      pop\n        /* \"#utility.yul\":15107:15526   */\n      swap2\n      swap1\n      pop\n      jump\t// out\n        /* \"#utility.yul\":15532:15697   */\n    tag_300:\n        /* \"#utility.yul\":15672:15689   */\n      0x496e76616c696420616464726573730000000000000000000000000000000000\n        /* \"#utility.yul\":15668:15669   */\n      0x00\n        /* \"#utility.yul\":15660:15666   */\n      dup3\n        /* \"#utility.yul\":15656:15670   */\n      add\n        /* \"#utility.yul\":15649:15690   */\n      mstore\n        /* \"#utility.yul\":15532:15697   */\n      pop\n      jump\t// out\n        /* \"#utility.yul\":15703:16069   */\n    tag_301:\n        /* \"#utility.yul\":15845:15848   */\n      0x00\n        /* \"#utility.yul\":15866:15933   */\n      tag_458\n        /* \"#utility.yul\":15930:15932   */\n      0x0f\n        /* \"#utility.yul\":15925:15928   */\n      dup4\n        /* \"#utility.yul\":15866:15933   */\n      tag_285\n      jump\t// in\n    tag_458:\n        /* \"#utility.yul\":15859:15933   */\n      swap2\n      pop\n        /* \"#utility.yul\":15942:16035   */\n      tag_459\n        /* \"#utility.yul\":16031:16034   */\n      dup3\n        /* \"#utility.yul\":15942:16035   */\n      tag_300\n      jump\t// in\n    tag_459:\n        /* \"#utility.yul\":16060:16062   */\n      0x20\n        /* \"#utility.yul\":16055:16058   */\n      dup3\n        /* \"#utility.yul\":16051:16063   */\n      add\n        /* \"#utility.yul\":16044:16063   */\n      swap1\n      pop\n        /* \"#utility.yul\":15703:16069   */\n      swap2\n      swap1\n      pop\n      jump\t// out\n        /* \"#utility.yul\":16075:16494   */\n    tag_145:\n        /* \"#utility.yul\":16241:16245   */\n      0x00\n        /* \"#utility.yul\":16279:16281   */\n      0x20\n        /* \"#utility.yul\":16268:16277   */\n      dup3\n        /* \"#utility.yul\":16264:16282   */\n      add\n        /* \"#utility.yul\":16256:16282   */\n      swap1\n      pop\n        /* \"#utility.yul\":16328:16337   */\n      dup2\n        /* \"#utility.yul\":16322:16326   */\n      dup2\n        /* \"#utility.yul\":16318:16338   */\n      sub\n        /* \"#utility.yul\":16314:16315   */\n      0x00\n        /* \"#utility.yul\":16303:16312   */\n      dup4\n        /* \"#utility.yul\":16299:16316   */\n      add\n        /* \"#utility.yul\":16292:16339   */\n      mstore\n        /* \"#utility.yul\":16356:16487   */\n      tag_461\n        /* \"#utility.yul\":16482:16486   */\n      dup2\n        /* \"#utility.yul\":16356:16487   */\n      tag_301\n      jump\t// in\n    tag_461:\n        /* \"#utility.yul\":16348:16487   */\n      swap1\n      pop\n        /* \"#utility.yul\":16075:16494   */\n      swap2\n      swap1\n      pop\n      jump\t// out\n        /* \"#utility.yul\":16500:16910   */\n    tag_152:\n        /* \"#utility.yul\":16540:16547   */\n      0x00\n        /* \"#utility.yul\":16563:16583   */\n      tag_463\n        /* \"#utility.yul\":16581:16582   */\n      dup3\n        /* \"#utility.yul\":16563:16583   */\n      tag_261\n      jump\t// in\n    tag_463:\n        /* \"#utility.yul\":16558:16583   */\n      swap2\n      pop\n        /* \"#utility.yul\":16597:16617   */\n      tag_464\n        /* \"#utility.yul\":16615:16616   */\n      dup4\n        /* \"#utility.yul\":16597:16617   */\n      tag_261\n      jump\t// in\n    tag_464:\n        /* \"#utility.yul\":16592:16617   */\n      swap3\n      pop\n        /* \"#utility.yul\":16652:16653   */\n      dup3\n        /* \"#utility.yul\":16649:16650   */\n      dup3\n        /* \"#utility.yul\":16645:16654   */\n      mul\n        /* \"#utility.yul\":16674:16704   */\n      tag_465\n        /* \"#utility.yul\":16692:16703   */\n      dup2\n        /* \"#utility.yul\":16674:16704   */\n      tag_261\n      jump\t// in\n    tag_465:\n        /* \"#utility.yul\":16663:16704   */\n      swap2\n      pop\n        /* \"#utility.yul\":16853:16854   */\n      dup3\n        /* \"#utility.yul\":16844:16851   */\n      dup3\n        /* \"#utility.yul\":16840:16855   */\n      div\n        /* \"#utility.yul\":16837:16838   */\n      dup5\n        /* \"#utility.yul\":16834:16856   */\n      eq\n        /* \"#utility.yul\":16814:16815   */\n      dup4\n        /* \"#utility.yul\":16807:16816   */\n      iszero\n        /* \"#utility.yul\":16787:16870   */\n      or\n        /* \"#utility.yul\":16764:16903   */\n      tag_466\n      jumpi\n        /* \"#utility.yul\":16883:16901   */\n      tag_467\n      tag_293\n      jump\t// in\n    tag_467:\n        /* \"#utility.yul\":16764:16903   */\n    tag_466:\n        /* \"#utility.yul\":16548:16910   */\n      pop\n        /* \"#utility.yul\":16500:16910   */\n      swap3\n      swap2\n      pop\n      pop\n      jump\t// out\n        /* \"#utility.yul\":16916:17096   */\n    tag_302:\n        /* \"#utility.yul\":16964:17041   */\n      0x4e487b7100000000000000000000000000000000000000000000000000000000\n        /* \"#utility.yul\":16961:16962   */\n      0x00\n        /* \"#utility.yul\":16954:17042   */\n      mstore\n        /* \"#utility.yul\":17061:17065   */\n      0x12\n        /* \"#utility.yul\":17058:17059   */\n      0x04\n        /* \"#utility.yul\":17051:17066   */\n      mstore\n        /* \"#utility.yul\":17085:17089   */\n      0x24\n        /* \"#utility.yul\":17082:17083   */\n      0x00\n        /* \"#utility.yul\":17075:17090   */\n      revert\n        /* \"#utility.yul\":17102:17287   */\n    tag_154:\n        /* \"#utility.yul\":17142:17143   */\n      0x00\n        /* \"#utility.yul\":17159:17179   */\n      tag_470\n        /* \"#utility.yul\":17177:17178   */\n      dup3\n        /* \"#utility.yul\":17159:17179   */\n      tag_261\n      jump\t// in\n    tag_470:\n        /* \"#utility.yul\":17154:17179   */\n      swap2\n      pop\n        /* \"#utility.yul\":17193:17213   */\n      tag_471\n        /* \"#utility.yul\":17211:17212   */\n      dup4\n        /* \"#utility.yul\":17193:17213   */\n      tag_261\n      jump\t// in\n    tag_471:\n        /* \"#utility.yul\":17188:17213   */\n      swap3\n      pop\n        /* \"#utility.yul\":17232:17233   */\n      dup3\n        /* \"#utility.yul\":17222:17257   */\n      tag_472\n      jumpi\n        /* \"#utility.yul\":17237:17255   */\n      tag_473\n      tag_302\n      jump\t// in\n    tag_473:\n        /* \"#utility.yul\":17222:17257   */\n    tag_472:\n        /* \"#utility.yul\":17279:17280   */\n      dup3\n        /* \"#utility.yul\":17276:17277   */\n      dup3\n        /* \"#utility.yul\":17272:17281   */\n      div\n        /* \"#utility.yul\":17267:17281   */\n      swap1\n      pop\n        /* \"#utility.yul\":17102:17287   */\n      swap3\n      swap2\n      pop\n      pop\n      jump\t// out\n        /* \"#utility.yul\":17293:17484   */\n    tag_156:\n        /* \"#utility.yul\":17333:17336   */\n      0x00\n        /* \"#utility.yul\":17352:17372   */\n      tag_475\n        /* \"#utility.yul\":17370:17371   */\n      dup3\n        /* \"#utility.yul\":17352:17372   */\n      tag_261\n      jump\t// in\n    tag_475:\n        /* \"#utility.yul\":17347:17372   */\n      swap2\n      pop\n        /* \"#utility.yul\":17386:17406   */\n      tag_476\n        /* \"#utility.yul\":17404:17405   */\n      dup4\n        /* \"#utility.yul\":17386:17406   */\n      tag_261\n      jump\t// in\n    tag_476:\n        /* \"#utility.yul\":17381:17406   */\n      swap3\n      pop\n        /* \"#utility.yul\":17429:17430   */\n      dup3\n        /* \"#utility.yul\":17426:17427   */\n      dup3\n        /* \"#utility.yul\":17422:17431   */\n      add\n        /* \"#utility.yul\":17415:17431   */\n      swap1\n      pop\n        /* \"#utility.yul\":17450:17453   */\n      dup1\n        /* \"#utility.yul\":17447:17448   */\n      dup3\n        /* \"#utility.yul\":17444:17454   */\n      gt\n        /* \"#utility.yul\":17441:17477   */\n      iszero\n      tag_477\n      jumpi\n        /* \"#utility.yul\":17457:17475   */\n      tag_478\n      tag_293\n      jump\t// in\n    tag_478:\n        /* \"#utility.yul\":17441:17477   */\n    tag_477:\n        /* \"#utility.yul\":17293:17484   */\n      swap3\n      swap2\n      pop\n      pop\n      jump\t// out\n        /* \"#utility.yul\":17490:17717   */\n    tag_303:\n        /* \"#utility.yul\":17630:17664   */\n      0x43616e6e6f74206865616c2061206465616420626972643b2072657669766520\n        /* \"#utility.yul\":17626:17627   */\n      0x00\n        /* \"#utility.yul\":17618:17624   */\n      dup3\n        /* \"#utility.yul\":17614:17628   */\n      add\n        /* \"#utility.yul\":17607:17665   */\n      mstore\n        /* \"#utility.yul\":17699:17709   */\n      0x6974206669727374000000000000000000000000000000000000000000000000\n        /* \"#utility.yul\":17694:17696   */\n      0x20\n        /* \"#utility.yul\":17686:17692   */\n      dup3\n        /* \"#utility.yul\":17682:17697   */\n      add\n        /* \"#utility.yul\":17675:17710   */\n      mstore\n        /* \"#utility.yul\":17490:17717   */\n      pop\n      jump\t// out\n        /* \"#utility.yul\":17723:18089   */\n    tag_304:\n        /* \"#utility.yul\":17865:17868   */\n      0x00\n        /* \"#utility.yul\":17886:17953   */\n      tag_481\n        /* \"#utility.yul\":17950:17952   */\n      0x28\n        /* \"#utility.yul\":17945:17948   */\n      dup4\n        /* \"#utility.yul\":17886:17953   */\n      tag_285\n      jump\t// in\n    tag_481:\n        /* \"#utility.yul\":17879:17953   */\n      swap2\n      pop\n        /* \"#utility.yul\":17962:18055   */\n      tag_482\n        /* \"#utility.yul\":18051:18054   */\n      dup3\n        /* \"#utility.yul\":17962:18055   */\n      tag_303\n      jump\t// in\n    tag_482:\n        /* \"#utility.yul\":18080:18082   */\n      0x40\n        /* \"#utility.yul\":18075:18078   */\n      dup3\n        /* \"#utility.yul\":18071:18083   */\n      add\n        /* \"#utility.yul\":18064:18083   */\n      swap1\n      pop\n        /* \"#utility.yul\":17723:18089   */\n      swap2\n      swap1\n      pop\n      jump\t// out\n        /* \"#utility.yul\":18095:18514   */\n    tag_171:\n        /* \"#utility.yul\":18261:18265   */\n      0x00\n        /* \"#utility.yul\":18299:18301   */\n      0x20\n        /* \"#utility.yul\":18288:18297   */\n      dup3\n        /* \"#utility.yul\":18284:18302   */\n      add\n        /* \"#utility.yul\":18276:18302   */\n      swap1\n      pop\n        /* \"#utility.yul\":18348:18357   */\n      dup2\n        /* \"#utility.yul\":18342:18346   */\n      dup2\n        /* \"#utility.yul\":18338:18358   */\n      sub\n        /* \"#utility.yul\":18334:18335   */\n      0x00\n        /* \"#utility.yul\":18323:18332   */\n      dup4\n        /* \"#utility.yul\":18319:18336   */\n      add\n        /* \"#utility.yul\":18312:18359   */\n      mstore\n        /* \"#utility.yul\":18376:18507   */\n      tag_484\n        /* \"#utility.yul\":18502:18506   */\n      dup2\n        /* \"#utility.yul\":18376:18507   */\n      tag_304\n      jump\t// in\n    tag_484:\n        /* \"#utility.yul\":18368:18507   */\n      swap1\n      pop\n        /* \"#utility.yul\":18095:18514   */\n      swap2\n      swap1\n      pop\n      jump\t// out\n        /* \"#utility.yul\":18520:18599   */\n    tag_305:\n        /* \"#utility.yul\":18559:18566   */\n      0x00\n        /* \"#utility.yul\":18588:18593   */\n      dup2\n        /* \"#utility.yul\":18577:18593   */\n      swap1\n      pop\n        /* \"#utility.yul\":18520:18599   */\n      swap2\n      swap1\n      pop\n      jump\t// out\n        /* \"#utility.yul\":18605:18762   */\n    tag_306:\n        /* \"#utility.yul\":18710:18755   */\n      tag_487\n        /* \"#utility.yul\":18730:18754   */\n      tag_488\n        /* \"#utility.yul\":18748:18753   */\n      dup3\n        /* \"#utility.yul\":18730:18754   */\n      tag_261\n      jump\t// in\n    tag_488:\n        /* \"#utility.yul\":18710:18755   */\n      tag_305\n      jump\t// in\n    tag_487:\n        /* \"#utility.yul\":18705:18708   */\n      dup3\n        /* \"#utility.yul\":18698:18756   */\n      mstore\n        /* \"#utility.yul\":18605:18762   */\n      pop\n      pop\n      jump\t// out\n        /* \"#utility.yul\":18768:19165   */\n    tag_182:\n        /* \"#utility.yul\":18908:18911   */\n      0x00\n        /* \"#utility.yul\":18923:18998   */\n      tag_490\n        /* \"#utility.yul\":18994:18997   */\n      dup3\n        /* \"#utility.yul\":18985:18991   */\n      dup6\n        /* \"#utility.yul\":18923:18998   */\n      tag_306\n      jump\t// in\n    tag_490:\n        /* \"#utility.yul\":19023:19025   */\n      0x20\n        /* \"#utility.yul\":19018:19021   */\n      dup3\n        /* \"#utility.yul\":19014:19026   */\n      add\n        /* \"#utility.yul\":19007:19026   */\n      swap2\n      pop\n        /* \"#utility.yul\":19036:19111   */\n      tag_491\n        /* \"#utility.yul\":19107:19110   */\n      dup3\n        /* \"#utility.yul\":19098:19104   */\n      dup5\n        /* \"#utility.yul\":19036:19111   */\n      tag_306\n      jump\t// in\n    tag_491:\n        /* \"#utility.yul\":19136:19138   */\n      0x20\n        /* \"#utility.yul\":19131:19134   */\n      dup3\n        /* \"#utility.yul\":19127:19139   */\n      add\n        /* \"#utility.yul\":19120:19139   */\n      swap2\n      pop\n        /* \"#utility.yul\":19156:19159   */\n      dup2\n        /* \"#utility.yul\":19149:19159   */\n      swap1\n      pop\n        /* \"#utility.yul\":18768:19165   */\n      swap4\n      swap3\n      pop\n      pop\n      pop\n      jump\t// out\n        /* \"#utility.yul\":19171:19347   */\n    tag_184:\n        /* \"#utility.yul\":19203:19204   */\n      0x00\n        /* \"#utility.yul\":19220:19240   */\n      tag_493\n        /* \"#utility.yul\":19238:19239   */\n      dup3\n        /* \"#utility.yul\":19220:19240   */\n      tag_261\n      jump\t// in\n    tag_493:\n        /* \"#utility.yul\":19215:19240   */\n      swap2\n      pop\n        /* \"#utility.yul\":19254:19274   */\n      tag_494\n        /* \"#utility.yul\":19272:19273   */\n      dup4\n        /* \"#utility.yul\":19254:19274   */\n      tag_261\n      jump\t// in\n    tag_494:\n        /* \"#utility.yul\":19249:19274   */\n      swap3\n      pop\n        /* \"#utility.yul\":19293:19294   */\n      dup3\n        /* \"#utility.yul\":19283:19318   */\n      tag_495\n      jumpi\n        /* \"#utility.yul\":19298:19316   */\n      tag_496\n      tag_302\n      jump\t// in\n    tag_496:\n        /* \"#utility.yul\":19283:19318   */\n    tag_495:\n        /* \"#utility.yul\":19339:19340   */\n      dup3\n        /* \"#utility.yul\":19336:19337   */\n      dup3\n        /* \"#utility.yul\":19332:19341   */\n      mod\n        /* \"#utility.yul\":19327:19341   */\n      swap1\n      pop\n        /* \"#utility.yul\":19171:19347   */\n      swap3\n      swap2\n      pop\n      pop\n      jump\t// out\n        /* \"#utility.yul\":19353:19518   */\n    tag_307:\n        /* \"#utility.yul\":19493:19510   */\n      0x556e6b6e6f776e20737065636965730000000000000000000000000000000000\n        /* \"#utility.yul\":19489:19490   */\n      0x00\n        /* \"#utility.yul\":19481:19487   */\n      dup3\n        /* \"#utility.yul\":19477:19491   */\n      add\n        /* \"#utility.yul\":19470:19511   */\n      mstore\n        /* \"#utility.yul\":19353:19518   */\n      pop\n      jump\t// out\n        /* \"#utility.yul\":19524:19890   */\n    tag_308:\n        /* \"#utility.yul\":19666:19669   */\n      0x00\n        /* \"#utility.yul\":19687:19754   */\n      tag_499\n        /* \"#utility.yul\":19751:19753   */\n      0x0f\n        /* \"#utility.yul\":19746:19749   */\n      dup4\n        /* \"#utility.yul\":19687:19754   */\n      tag_285\n      jump\t// in\n    tag_499:\n        /* \"#utility.yul\":19680:19754   */\n      swap2\n      pop\n        /* \"#utility.yul\":19763:19856   */\n      tag_500\n        /* \"#utility.yul\":19852:19855   */\n      dup3\n        /* \"#utility.yul\":19763:19856   */\n      tag_307\n      jump\t// in\n    tag_500:\n        /* \"#utility.yul\":19881:19883   */\n      0x20\n        /* \"#utility.yul\":19876:19879   */\n      dup3\n        /* \"#utility.yul\":19872:19884   */\n      add\n        /* \"#utility.yul\":19865:19884   */\n      swap1\n      pop\n        /* \"#utility.yul\":19524:19890   */\n      swap2\n      swap1\n      pop\n      jump\t// out\n        /* \"#utility.yul\":19896:20315   */\n    tag_255:\n        /* \"#utility.yul\":20062:20066   */\n      0x00\n        /* \"#utility.yul\":20100:20102   */\n      0x20\n        /* \"#utility.yul\":20089:20098   */\n      dup3\n        /* \"#utility.yul\":20085:20103   */\n      add\n        /* \"#utility.yul\":20077:20103   */\n      swap1\n      pop\n        /* \"#utility.yul\":20149:20158   */\n      dup2\n        /* \"#utility.yul\":20143:20147   */\n      dup2\n        /* \"#utility.yul\":20139:20159   */\n      sub\n        /* \"#utility.yul\":20135:20136   */\n      0x00\n        /* \"#utility.yul\":20124:20133   */\n      dup4\n        /* \"#utility.yul\":20120:20137   */\n      add\n        /* \"#utility.yul\":20113:20160   */\n      mstore\n        /* \"#utility.yul\":20177:20308   */\n      tag_502\n        /* \"#utility.yul\":20303:20307   */\n      dup2\n        /* \"#utility.yul\":20177:20308   */\n      tag_308\n      jump\t// in\n    tag_502:\n        /* \"#utility.yul\":20169:20308   */\n      swap1\n      pop\n        /* \"#utility.yul\":19896:20315   */\n      swap2\n      swap1\n      pop\n      jump\t// out\n    stop\n    data_06b72c80ee2ecbcbf44477b5df17c9ca845658c2f59600eacfa2a1e2c77fc0c0 68747470733a2f2f676174657761792e70696e6174612e636c6f75642f697066732f6261666b72656964336d64796d7a736a7475646d35367a726f766974786f757667736a627a7a6b7961727371377432693262697779673672687471\n    data_1ffc5c99f8ff866cb3cb9bd46d45453badb8f26649052a31a9be49b9b43149da 68747470733a2f2f676174657761792e70696e6174612e636c6f75642f697066732f6261667962656961336c65346173746b6e683270346d626b64357734326a353232746e73653477786b3777356d3777696d6f716470366f757a7079\n    data_3aaee52e591491d0c37d609e70d05ae7f1f2d7910d54c05cb9fcdcf49c54ca0d 68747470733a2f2f676174657761792e70696e6174612e636c6f75642f697066732f6261667962656966786e71727070336166616a6e74726e7779796e75326c63727a766d646d737468776162367832776e323377636e62646a6e366d\n    data_3bbf1c81af77207dbf9db8f891697113273de930322fc10149aebcb2d416dad6 68747470733a2f2f676174657761792e70696e6174612e636c6f75642f697066732f626166796265696576377075637a377968377836686169646d7068703569656f6276636664636c6e6c776a71613269767334793335377076776d61\n    data_4bffd64c369afa296df94915c3530d23c4bb62ed5947a16d0436ecf77d5e47b7 68747470733a2f2f676174657761792e70696e6174612e636c6f75642f697066732f626166796265696670616a6269766868656d6a65666769616d6e7668376f6532376c657874716a376167707a6e63687165756a636e343669356361\n    data_4de8576ed651b45ee8b8de37ab230acfe5a77f3bcefa3b601e95aeedc205cf9f 68747470733a2f2f676174657761792e70696e6174612e636c6f75642f697066732f6261666b7265696636656e6f32716a6a337863376d6562716c327336366f6c36797872777837677761767a3434716e32646c7a33636e7737663234\n    data_7b2fdb6759a9cafb5eeb6df22876dcecec368957dc7b6a1b5455e59a53ccd8b3 68747470733a2f2f676174657761792e70696e6174612e636c6f75642f697066732f62616679626569626364707a707967366d716165326f676f7775756d796d716d7178623275736e697537356765656a347074723436376f74326e6d\n    data_86e92b1a76e2f297d69c89af4232d1b3e647fd322843457f38b762c99d8ee708 68747470733a2f2f676174657761792e70696e6174612e636c6f75642f697066732f62616679626569676f686f746f6b366b336f6e76746a797970666e626e7a6263736f327163697862777a34776836347670326e336c71376e6b7361\n    data_9935abd004c219a89d3fd74f576ad80b96c6baa47d216c49a0c7e2425bfa795d 68747470733a2f2f676174657761792e70696e6174612e636c6f75642f697066732f6261666b7265696461346170737078746e706236336f71797a763374696e356f776334356c6763746b6471763734686a6173346679746f6f6b7461\n    data_b8dd308e09aa92114d02e95d8f8ec31b44f463debae17577b531822d02a7acf8 68747470733a2f2f676174657761792e70696e6174612e636c6f75642f697066732f6261666b7265696832666d78753361797363723778657a3275326173686177696663336f6a34716132366a35366368343676657a377a7961656a34\n    data_bf1e0c883d5045b15993c31eb358768c2346e70fb0546c814a2e5325206e2434 68747470733a2f2f676174657761792e70696e6174612e636c6f75642f697066732f626166796265696574626635716f7372796271676b7132636434637a76363664777736737434776a35786c6f7a6534656e6232643578796a36706d\n\n    auxdata: 0xa264697066735822122074ae26c9b2d5ceb2430dd2cb9a53ea8e8f9eb5064084d9837dd4ecb664bb03c264736f6c634300081e0033\n}\n",
				"bytecode": {
					"linkReferences": {},
					"object": "608060405234801561000f575f5ffd5b5060405161254e38038061254e833981810160405281019061003191906100d5565b8060025f6101000a81548173ffffffffffffffffffffffffffffffffffffffff021916908373ffffffffffffffffffffffffffffffffffffffff16021790555050610100565b5f5ffd5b5f73ffffffffffffffffffffffffffffffffffffffff82169050919050565b5f6100a48261007b565b9050919050565b6100b48161009a565b81146100be575f5ffd5b50565b5f815190506100cf816100ab565b92915050565b5f602082840312156100ea576100e9610077565b5b5f6100f7848285016100c1565b91505092915050565b6124418061010d5f395ff3fe608060405234801561000f575f5ffd5b50600436106100f3575f3560e01c80636ec88bbd11610095578063a2b7ce6f11610064578063a2b7ce6f1461027f578063bff998f41461029b578063ec1c5955146102b7578063f64ff064146102ed576100f3565b80636ec88bbd146101f957806372680a77146102295780638baecc21146102475780638c652f9514610263576100f3565b80634d2d7881116100d15780634d2d78811461015f5780634e9c7df81461018f57806361b8ce8c146101ab5780636352211e146101c9576100f3565b806316cb4a05146100f75780631942d1991461012757806349b1a0bf14610143575b5f5ffd5b610111600480360381019061010c9190611643565b61031d565b60405161011e9190611688565b60405180910390f35b610141600480360381019061013c91906116a1565b61033a565b005b61015d60048036038101906101589190611643565b610478565b005b61017960048036038101906101749190611702565b610533565b6040516101869190611745565b60405180910390f35b6101a960048036038101906101a491906117b8565b61071d565b005b6101b36107ef565b6040516101c091906117f2565b60405180910390f35b6101e360048036038101906101de9190611643565b6107f5565b6040516101f0919061181a565b60405180910390f35b610213600480360381019061020e9190611643565b610825565b6040516102209190611950565b60405180910390f35b6102316108dd565b60405161023e919061181a565b60405180910390f35b610261600480360381019061025c9190611643565b610902565b005b61027d60048036038101906102789190611969565b610a52565b005b61029960048036038101906102949190611643565b610c40565b005b6102b560048036038101906102b09190611643565b610db6565b005b6102d160048036038101906102cc9190611643565b610ed1565b6040516102e497969594939291906119b6565b60405180910390f35b61030760048036038101906103029190611643565b610f26565b6040516103149190611a93565b60405180910390f35b6003602052805f5260405f205f915054906101000a900460ff1681565b60025f9054906101000a900473ffffffffffffffffffffffffffffffffffffffff1673ffffffffffffffffffffffffffffffffffffffff163373ffffffffffffffffffffffffffffffffffffffff16146103c9576040517f08c379a00000000000000000000000000000000000000000000000000000000081526004016103c090611afd565b60405180910390fd5b6103d282610c40565b5f5f5f8481526020019081526020015f2090506103ee83610f60565b806005015f9054906101000a900460ff161561043f576040517f08c379a000000000000000000000000000000000000000000000000000000000815260040161043690611b65565b60405180910390fd5b818160010154106104695781816001015f82825461045d9190611bb0565b92505081905550610473565b5f81600101819055505b505050565b60025f9054906101000a900473ffffffffffffffffffffffffffffffffffffffff1673ffffffffffffffffffffffffffffffffffffffff163373ffffffffffffffffffffffffffffffffffffffff1614610507576040517f08c379a00000000000000000000000000000000000000000000000000000000081526004016104fe90611afd565b60405180910390fd5b600160035f8381526020019081526020015f205f6101000a81548160ff02191690831515021790555050565b5f60025f9054906101000a900473ffffffffffffffffffffffffffffffffffffffff1673ffffffffffffffffffffffffffffffffffffffff163373ffffffffffffffffffffffffffffffffffffffff16146105c3576040517f08c379a00000000000000000000000000000000000000000000000000000000081526004016105ba90611afd565b60405180910390fd5b5f6105cd8361103e565b90506040518060e001604052805f81526020015f8152602001825f0151815260200184600a81111561060257610601611842565b5b81526020014281526020015f151581526020015f8152505f5f60015481526020019081526020015f205f820151815f015560208201518160010155604082015181600201556060820151816003015f6101000a81548160ff0219169083600a81111561067157610670611842565b5b02179055506080820151816004015560a0820151816005015f6101000a81548160ff02191690831515021790555060c082015181600601559050503360045f60015481526020019081526020015f205f6101000a81548173ffffffffffffffffffffffffffffffffffffffff021916908373ffffffffffffffffffffffffffffffffffffffff16021790555060015f81548092919061070f90611be3565b91905055505f915050919050565b5f73ffffffffffffffffffffffffffffffffffffffff1660025f9054906101000a900473ffffffffffffffffffffffffffffffffffffffff1673ffffffffffffffffffffffffffffffffffffffff16146107ac576040517f08c379a00000000000000000000000000000000000000000000000000000000081526004016107a390611c74565b60405180910390fd5b8060025f6101000a81548173ffffffffffffffffffffffffffffffffffffffff021916908373ffffffffffffffffffffffffffffffffffffffff16021790555050565b60015481565b6004602052805f5260405f205f915054906101000a900473ffffffffffffffffffffffffffffffffffffffff1681565b61082d611597565b61083682610c40565b5f5f8381526020019081526020015f206040518060e00160405290815f82015481526020016001820154815260200160028201548152602001600382015f9054906101000a900460ff16600a81111561089257610891611842565b5b600a8111156108a4576108a3611842565b5b815260200160048201548152602001600582015f9054906101000a900460ff161515151581526020016006820154815250509050919050565b60025f9054906101000a900473ffffffffffffffffffffffffffffffffffffffff1681565b60025f9054906101000a900473ffffffffffffffffffffffffffffffffffffffff1673ffffffffffffffffffffffffffffffffffffffff163373ffffffffffffffffffffffffffffffffffffffff1614610991576040517f08c379a000000000000000000000000000000000000000000000000000000000815260040161098890611afd565b60405180910390fd5b5f5f5f8381526020019081526020015f209050806005015f9054906101000a900460ff166109f4576040517f08c379a00000000000000000000000000000000000000000000000000000000081526004016109eb90611cdc565b60405180910390fd5b610a0d816003015f9054906101000a900460ff1661103e565b5f015181600201819055505f81600101819055505f816005015f6101000a81548160ff0219169083151502179055505f81600601819055504281600401819055505050565b60025f9054906101000a900473ffffffffffffffffffffffffffffffffffffffff1673ffffffffffffffffffffffffffffffffffffffff163373ffffffffffffffffffffffffffffffffffffffff1614610ae1576040517f08c379a0000000000000000000000000000000000000000000000000000000008152600401610ad890611afd565b60405180910390fd5b3273ffffffffffffffffffffffffffffffffffffffff1660045f8481526020019081526020015f205f9054906101000a900473ffffffffffffffffffffffffffffffffffffffff1673ffffffffffffffffffffffffffffffffffffffff1614610b7f576040517f08c379a0000000000000000000000000000000000000000000000000000000008152600401610b7690611d44565b60405180910390fd5b5f73ffffffffffffffffffffffffffffffffffffffff168173ffffffffffffffffffffffffffffffffffffffff1603610bed576040517f08c379a0000000000000000000000000000000000000000000000000000000008152600401610be490611dac565b60405180910390fd5b8060045f8481526020019081526020015f205f6101000a81548173ffffffffffffffffffffffffffffffffffffffff021916908373ffffffffffffffffffffffffffffffffffffffff1602179055505050565b5f5f5f8381526020019081526020015f209050806005015f9054906101000a900460ff1615610c6f5750610db3565b5f816004015442610c809190611bb0565b90505f811115610db0575f610ca4836003015f9054906101000a900460ff1661103e565b90505f610e10826040015184610cba9190611dca565b610cc49190611e38565b905080846001015f828254610cd99190611e68565b92505081905550816020015184600101541115610d6f575f82602001518560010154610d059190611bb0565b90508260200151856001018190555080856002015411610d52575f85600201819055506001856005015f6101000a81548160ff021916908315150217905550428560060181905550610d6d565b80856002015f828254610d659190611bb0565b925050819055505b505b5f6201518084610d7f9190611e38565b90505f811115610da35780855f015f828254610d9b9190611e68565b925050819055505b4285600401819055505050505b50505b50565b60025f9054906101000a900473ffffffffffffffffffffffffffffffffffffffff1673ffffffffffffffffffffffffffffffffffffffff163373ffffffffffffffffffffffffffffffffffffffff1614610e45576040517f08c379a0000000000000000000000000000000000000000000000000000000008152600401610e3c90611afd565b60405180910390fd5b5f5f5f8381526020019081526020015f209050806005015f9054906101000a900460ff1615610ea9576040517f08c379a0000000000000000000000000000000000000000000000000000000008152600401610ea090611f0b565b60405180910390fd5b610ec2816003015f9054906101000a900460ff1661103e565b5f015181600201819055505050565b5f602052805f5260405f205f91509050805f015490806001015490806002015490806003015f9054906101000a900460ff1690806004015490806005015f9054906101000a900460ff16908060060154905087565b60605f5f5f8481526020019081526020015f209050610f54816003015f9054906101000a900460ff1661103e565b60800151915050919050565b610f686115e1565b5f5f5f8481526020019081526020015f209050610f94816003015f9054906101000a900460ff1661103e565b915060035f8481526020019081526020015f205f9054906101000a900460ff16611039575f610fd2826003015f9054906101000a900460ff1661103e565b6060015190505f60644286604051602001610fee929190611f49565b604051602081830303815290604052805190602001205f1c6110109190611f74565b905081811015611036576019836002015f82825461102e9190611bb0565b925050819055505b50505b505050565b6110466115e1565b5f600a81111561105957611058611842565b5b82600a81111561106c5761106b611842565b5b036110bb576040518060a0016040528060c881526020016096815260200160038152602001600181526020016040518060800160405280605d815260200161206a605d91398152509050611592565b6001600a8111156110cf576110ce611842565b5b82600a8111156110e2576110e1611842565b5b03611131576040518060a0016040528060dc815260200160c8815260200160028152602001600581526020016040518060800160405280605d8152602001612298605d91398152509050611592565b6002600a81111561114557611144611842565b5b82600a81111561115857611157611842565b5b036111a7576040518060a00160405280605081526020016050815260200160038152602001600681526020016040518060800160405280605d8152602001612124605d91398152509050611592565b600a808111156111ba576111b9611842565b5b82600a8111156111cd576111cc611842565b5b0361121d576040518060a0016040528061012c815260200161012c8152602001600181526020015f81526020016040518060800160405280605d81526020016123af605d91398152509050611592565b6003600a81111561123157611230611842565b5b82600a81111561124457611243611842565b5b03611293576040518060a0016040528060b48152602001605a815260200160028152602001600481526020016040518060800160405280605d81526020016120c7605d91398152509050611592565b6004600a8111156112a7576112a6611842565b5b82600a8111156112ba576112b9611842565b5b03611309576040518060a00160405280605081526020016046815260200160028152602001600881526020016040518060800160405280605d815260200161223b605d91398152509050611592565b6005600a81111561131d5761131c611842565b5b82600a8111156113305761132f611842565b5b0361137f576040518060a0016040528060328152602001603c815260200160048152602001600581526020016040518060800160405280605d81526020016122f5605d91398152509050611592565b6006600a81111561139357611392611842565b5b82600a8111156113a6576113a5611842565b5b036113f5576040518060a00160405280603781526020016028815260200160038152602001600481526020016040518060800160405280605d8152602001612352605d91398152509050611592565b6007600a81111561140957611408611842565b5b82600a81111561141c5761141b611842565b5b0361146b576040518060a00160405280604e81526020016041815260200160028152602001600481526020016040518060800160405280605d815260200161200d605d91398152509050611592565b6008600a81111561147f5761147e611842565b5b82600a81111561149257611491611842565b5b036114e1576040518060a00160405280609681526020016064815260200160048152602001600381526020016040518060800160405280605d81526020016121de605d91398152509050611592565b6009600a8111156114f5576114f4611842565b5b82600a81111561150857611507611842565b5b03611557576040518060a00160405280602381526020016042815260200160048152602001600581526020016040518060800160405280605d8152602001612181605d91398152509050611592565b6040517f08c379a000000000000000000000000000000000000000000000000000000000815260040161158990611fee565b60405180910390fd5b919050565b6040518060e001604052805f81526020015f81526020015f81526020015f600a8111156115c7576115c6611842565b5b81526020015f81526020015f151581526020015f81525090565b6040518060a001604052805f81526020015f81526020015f81526020015f8152602001606081525090565b5f5ffd5b5f819050919050565b61162281611610565b811461162c575f5ffd5b50565b5f8135905061163d81611619565b92915050565b5f602082840312156116585761165761160c565b5b5f6116658482850161162f565b91505092915050565b5f8115159050919050565b6116828161166e565b82525050565b5f60208201905061169b5f830184611679565b92915050565b5f5f604083850312156116b7576116b661160c565b5b5f6116c48582860161162f565b92505060206116d58582860161162f565b9150509250929050565b600b81106116eb575f5ffd5b50565b5f813590506116fc816116df565b92915050565b5f602082840312156117175761171661160c565b5b5f611724848285016116ee565b91505092915050565b5f819050919050565b61173f8161172d565b82525050565b5f6020820190506117585f830184611736565b92915050565b5f73ffffffffffffffffffffffffffffffffffffffff82169050919050565b5f6117878261175e565b9050919050565b6117978161177d565b81146117a1575f5ffd5b50565b5f813590506117b28161178e565b92915050565b5f602082840312156117cd576117cc61160c565b5b5f6117da848285016117a4565b91505092915050565b6117ec81611610565b82525050565b5f6020820190506118055f8301846117e3565b92915050565b6118148161177d565b82525050565b5f60208201905061182d5f83018461180b565b92915050565b61183c81611610565b82525050565b7f4e487b71000000000000000000000000000000000000000000000000000000005f52602160045260245ffd5b600b81106118805761187f611842565b5b50565b5f8190506118908261186f565b919050565b5f61189f82611883565b9050919050565b6118af81611895565b82525050565b6118be8161166e565b82525050565b60e082015f8201516118d85f850182611833565b5060208201516118eb6020850182611833565b5060408201516118fe6040850182611833565b50606082015161191160608501826118a6565b5060808201516119246080850182611833565b5060a082015161193760a08501826118b5565b5060c082015161194a60c0850182611833565b50505050565b5f60e0820190506119635f8301846118c4565b92915050565b5f5f6040838503121561197f5761197e61160c565b5b5f61198c8582860161162f565b925050602061199d858286016117a4565b9150509250929050565b6119b081611895565b82525050565b5f60e0820190506119c95f83018a6117e3565b6119d660208301896117e3565b6119e360408301886117e3565b6119f060608301876119a7565b6119fd60808301866117e3565b611a0a60a0830185611679565b611a1760c08301846117e3565b98975050505050505050565b5f81519050919050565b5f82825260208201905092915050565b8281835e5f83830152505050565b5f601f19601f8301169050919050565b5f611a6582611a23565b611a6f8185611a2d565b9350611a7f818560208601611a3d565b611a8881611a4b565b840191505092915050565b5f6020820190508181035f830152611aab8184611a5b565b905092915050565b7f4f6e6c79205061726b2063616e2063616c6c20746869730000000000000000005f82015250565b5f611ae7601783611a2d565b9150611af282611ab3565b602082019050919050565b5f6020820190508181035f830152611b1481611adb565b9050919050565b7f43616e6e6f7420666565642061206465616420626972640000000000000000005f82015250565b5f611b4f601783611a2d565b9150611b5a82611b1b565b602082019050919050565b5f6020820190508181035f830152611b7c81611b43565b9050919050565b7f4e487b71000000000000000000000000000000000000000000000000000000005f52601160045260245ffd5b5f611bba82611610565b9150611bc583611610565b9250828203905081811115611bdd57611bdc611b83565b5b92915050565b5f611bed82611610565b91507fffffffffffffffffffffffffffffffffffffffffffffffffffffffffffffffff8203611c1f57611c1e611b83565b5b600182019050919050565b7f5061726b20616c726561647920736574000000000000000000000000000000005f82015250565b5f611c5e601083611a2d565b9150611c6982611c2a565b602082019050919050565b5f6020820190508181035f830152611c8b81611c52565b9050919050565b7f4e6f7420646561640000000000000000000000000000000000000000000000005f82015250565b5f611cc6600883611a2d565b9150611cd182611c92565b602082019050919050565b5f6020820190508181035f830152611cf381611cba565b9050919050565b7f4e6f7420746865206f776e6572000000000000000000000000000000000000005f82015250565b5f611d2e600d83611a2d565b9150611d3982611cfa565b602082019050919050565b5f6020820190508181035f830152611d5b81611d22565b9050919050565b7f496e76616c6964206164647265737300000000000000000000000000000000005f82015250565b5f611d96600f83611a2d565b9150611da182611d62565b602082019050919050565b5f6020820190508181035f830152611dc381611d8a565b9050919050565b5f611dd482611610565b9150611ddf83611610565b9250828202611ded81611610565b91508282048414831517611e0457611e03611b83565b5b5092915050565b7f4e487b71000000000000000000000000000000000000000000000000000000005f52601260045260245ffd5b5f611e4282611610565b9150611e4d83611610565b925082611e5d57611e5c611e0b565b5b828204905092915050565b5f611e7282611610565b9150611e7d83611610565b9250828201905080821115611e9557611e94611b83565b5b92915050565b7f43616e6e6f74206865616c2061206465616420626972643b20726576697665205f8201527f6974206669727374000000000000000000000000000000000000000000000000602082015250565b5f611ef5602883611a2d565b9150611f0082611e9b565b604082019050919050565b5f6020820190508181035f830152611f2281611ee9565b9050919050565b5f819050919050565b611f43611f3e82611610565b611f29565b82525050565b5f611f548285611f32565b602082019150611f648284611f32565b6020820191508190509392505050565b5f611f7e82611610565b9150611f8983611610565b925082611f9957611f98611e0b565b5b828206905092915050565b7f556e6b6e6f776e207370656369657300000000000000000000000000000000005f82015250565b5f611fd8600f83611a2d565b9150611fe382611fa4565b602082019050919050565b5f6020820190508181035f83015261200581611fcc565b905091905056fe68747470733a2f2f676174657761792e70696e6174612e636c6f75642f697066732f6261666b72656964336d64796d7a736a7475646d35367a726f766974786f757667736a627a7a6b796172737137743269326269777967367268747168747470733a2f2f676174657761792e70696e6174612e636c6f75642f697066732f6261667962656961336c65346173746b6e683270346d626b64357734326a353232746e73653477786b3777356d3777696d6f716470366f757a707968747470733a2f2f676174657761792e70696e6174612e636c6f75642f697066732f6261667962656966786e71727070336166616a6e74726e7779796e75326c63727a766d646d737468776162367832776e323377636e62646a6e366d68747470733a2f2f676174657761792e70696e6174612e636c6f75642f697066732f626166796265696576377075637a377968377836686169646d7068703569656f6276636664636c6e6c776a71613269767334793335377076776d6168747470733a2f2f676174657761792e70696e6174612e636c6f75642f697066732f626166796265696670616a6269766868656d6a65666769616d6e7668376f6532376c657874716a376167707a6e63687165756a636e34366935636168747470733a2f2f676174657761792e70696e6174612e636c6f75642f697066732f6261666b7265696636656e6f32716a6a337863376d6562716c327336366f6c36797872777837677761767a3434716e32646c7a33636e773766323468747470733a2f2f676174657761792e70696e6174612e636c6f75642f697066732f62616679626569626364707a707967366d716165326f676f7775756d796d716d7178623275736e697537356765656a347074723436376f74326e6d68747470733a2f2f676174657761792e70696e6174612e636c6f75642f697066732f62616679626569676f686f746f6b366b336f6e76746a797970666e626e7a6263736f327163697862777a34776836347670326e336c71376e6b736168747470733a2f2f676174657761792e70696e6174612e636c6f75642f697066732f6261666b7265696461346170737078746e706236336f71797a763374696e356f776334356c6763746b6471763734686a6173346679746f6f6b746168747470733a2f2f676174657761792e70696e6174612e636c6f75642f697066732f6261666b7265696832666d78753361797363723778657a3275326173686177696663336f6a34716132366a35366368343676657a377a7961656a3468747470733a2f2f676174657761792e70696e6174612e636c6f75642f697066732f626166796265696574626635716f7372796271676b7132636434637a76363664777736737434776a35786c6f7a6534656e6232643578796a36706da264697066735822122074ae26c9b2d5ceb2430dd2cb9a53ea8e8f9eb5064084d9837dd4ecb664bb03c264736f6c634300081e0033",
					"opcodes": "PUSH1 0x80 PUSH1 0x40 MSTORE CALLVALUE DUP1 ISZERO PUSH2 0xF JUMPI PUSH0 PUSH0 REVERT JUMPDEST POP PUSH1 0x40 MLOAD PUSH2 0x254E CODESIZE SUB DUP1 PUSH2 0x254E DUP4 CODECOPY DUP2 DUP2 ADD PUSH1 0x40 MSTORE DUP2 ADD SWAP1 PUSH2 0x31 SWAP2 SWAP1 PUSH2 0xD5 JUMP JUMPDEST DUP1 PUSH1 0x2 PUSH0 PUSH2 0x100 EXP DUP2 SLOAD DUP2 PUSH20 0xFFFFFFFFFFFFFFFFFFFFFFFFFFFFFFFFFFFFFFFF MUL NOT AND SWAP1 DUP4 PUSH20 0xFFFFFFFFFFFFFFFFFFFFFFFFFFFFFFFFFFFFFFFF AND MUL OR SWAP1 SSTORE POP POP PUSH2 0x100 JUMP JUMPDEST PUSH0 PUSH0 REVERT JUMPDEST PUSH0 PUSH20 0xFFFFFFFFFFFFFFFFFFFFFFFFFFFFFFFFFFFFFFFF DUP3 AND SWAP1 POP SWAP2 SWAP1 POP JUMP JUMPDEST PUSH0 PUSH2 0xA4 DUP3 PUSH2 0x7B JUMP JUMPDEST SWAP1 POP SWAP2 SWAP1 POP JUMP JUMPDEST PUSH2 0xB4 DUP2 PUSH2 0x9A JUMP JUMPDEST DUP2 EQ PUSH2 0xBE JUMPI PUSH0 PUSH0 REVERT JUMPDEST POP JUMP JUMPDEST PUSH0 DUP2 MLOAD SWAP1 POP PUSH2 0xCF DUP2 PUSH2 0xAB JUMP JUMPDEST SWAP3 SWAP2 POP POP JUMP JUMPDEST PUSH0 PUSH1 0x20 DUP3 DUP5 SUB SLT ISZERO PUSH2 0xEA JUMPI PUSH2 0xE9 PUSH2 0x77 JUMP JUMPDEST JUMPDEST PUSH0 PUSH2 0xF7 DUP5 DUP3 DUP6 ADD PUSH2 0xC1 JUMP JUMPDEST SWAP2 POP POP SWAP3 SWAP2 POP POP JUMP JUMPDEST PUSH2 0x2441 DUP1 PUSH2 0x10D PUSH0 CODECOPY PUSH0 RETURN INVALID PUSH1 0x80 PUSH1 0x40 MSTORE CALLVALUE DUP1 ISZERO PUSH2 0xF JUMPI PUSH0 PUSH0 REVERT JUMPDEST POP PUSH1 0x4 CALLDATASIZE LT PUSH2 0xF3 JUMPI PUSH0 CALLDATALOAD PUSH1 0xE0 SHR DUP1 PUSH4 0x6EC88BBD GT PUSH2 0x95 JUMPI DUP1 PUSH4 0xA2B7CE6F GT PUSH2 0x64 JUMPI DUP1 PUSH4 0xA2B7CE6F EQ PUSH2 0x27F JUMPI DUP1 PUSH4 0xBFF998F4 EQ PUSH2 0x29B JUMPI DUP1 PUSH4 0xEC1C5955 EQ PUSH2 0x2B7 JUMPI DUP1 PUSH4 0xF64FF064 EQ PUSH2 0x2ED JUMPI PUSH2 0xF3 JUMP JUMPDEST DUP1 PUSH4 0x6EC88BBD EQ PUSH2 0x1F9 JUMPI DUP1 PUSH4 0x72680A77 EQ PUSH2 0x229 JUMPI DUP1 PUSH4 0x8BAECC21 EQ PUSH2 0x247 JUMPI DUP1 PUSH4 0x8C652F95 EQ PUSH2 0x263 JUMPI PUSH2 0xF3 JUMP JUMPDEST DUP1 PUSH4 0x4D2D7881 GT PUSH2 0xD1 JUMPI DUP1 PUSH4 0x4D2D7881 EQ PUSH2 0x15F JUMPI DUP1 PUSH4 0x4E9C7DF8 EQ PUSH2 0x18F JUMPI DUP1 PUSH4 0x61B8CE8C EQ PUSH2 0x1AB JUMPI DUP1 PUSH4 0x6352211E EQ PUSH2 0x1C9 JUMPI PUSH2 0xF3 JUMP JUMPDEST DUP1 PUSH4 0x16CB4A05 EQ PUSH2 0xF7 JUMPI DUP1 PUSH4 0x1942D199 EQ PUSH2 0x127 JUMPI DUP1 PUSH4 0x49B1A0BF EQ PUSH2 0x143 JUMPI JUMPDEST PUSH0 PUSH0 REVERT JUMPDEST PUSH2 0x111 PUSH1 0x4 DUP1 CALLDATASIZE SUB DUP2 ADD SWAP1 PUSH2 0x10C SWAP2 SWAP1 PUSH2 0x1643 JUMP JUMPDEST PUSH2 0x31D JUMP JUMPDEST PUSH1 0x40 MLOAD PUSH2 0x11E SWAP2 SWAP1 PUSH2 0x1688 JUMP JUMPDEST PUSH1 0x40 MLOAD DUP1 SWAP2 SUB SWAP1 RETURN JUMPDEST PUSH2 0x141 PUSH1 0x4 DUP1 CALLDATASIZE SUB DUP2 ADD SWAP1 PUSH2 0x13C SWAP2 SWAP1 PUSH2 0x16A1 JUMP JUMPDEST PUSH2 0x33A JUMP JUMPDEST STOP JUMPDEST PUSH2 0x15D PUSH1 0x4 DUP1 CALLDATASIZE SUB DUP2 ADD SWAP1 PUSH2 0x158 SWAP2 SWAP1 PUSH2 0x1643 JUMP JUMPDEST PUSH2 0x478 JUMP JUMPDEST STOP JUMPDEST PUSH2 0x179 PUSH1 0x4 DUP1 CALLDATASIZE SUB DUP2 ADD SWAP1 PUSH2 0x174 SWAP2 SWAP1 PUSH2 0x1702 JUMP JUMPDEST PUSH2 0x533 JUMP JUMPDEST PUSH1 0x40 MLOAD PUSH2 0x186 SWAP2 SWAP1 PUSH2 0x1745 JUMP JUMPDEST PUSH1 0x40 MLOAD DUP1 SWAP2 SUB SWAP1 RETURN JUMPDEST PUSH2 0x1A9 PUSH1 0x4 DUP1 CALLDATASIZE SUB DUP2 ADD SWAP1 PUSH2 0x1A4 SWAP2 SWAP1 PUSH2 0x17B8 JUMP JUMPDEST PUSH2 0x71D JUMP JUMPDEST STOP JUMPDEST PUSH2 0x1B3 PUSH2 0x7EF JUMP JUMPDEST PUSH1 0x40 MLOAD PUSH2 0x1C0 SWAP2 SWAP1 PUSH2 0x17F2 JUMP JUMPDEST PUSH1 0x40 MLOAD DUP1 SWAP2 SUB SWAP1 RETURN JUMPDEST PUSH2 0x1E3 PUSH1 0x4 DUP1 CALLDATASIZE SUB DUP2 ADD SWAP1 PUSH2 0x1DE SWAP2 SWAP1 PUSH2 0x1643 JUMP JUMPDEST PUSH2 0x7F5 JUMP JUMPDEST PUSH1 0x40 MLOAD PUSH2 0x1F0 SWAP2 SWAP1 PUSH2 0x181A JUMP JUMPDEST PUSH1 0x40 MLOAD DUP1 SWAP2 SUB SWAP1 RETURN JUMPDEST PUSH2 0x213 PUSH1 0x4 DUP1 CALLDATASIZE SUB DUP2 ADD SWAP1 PUSH2 0x20E SWAP2 SWAP1 PUSH2 0x1643 JUMP JUMPDEST PUSH2 0x825 JUMP JUMPDEST PUSH1 0x40 MLOAD PUSH2 0x220 SWAP2 SWAP1 PUSH2 0x1950 JUMP JUMPDEST PUSH1 0x40 MLOAD DUP1 SWAP2 SUB SWAP1 RETURN JUMPDEST PUSH2 0x231 PUSH2 0x8DD JUMP JUMPDEST PUSH1 0x40 MLOAD PUSH2 0x23E SWAP2 SWAP1 PUSH2 0x181A JUMP JUMPDEST PUSH1 0x40 MLOAD DUP1 SWAP2 SUB SWAP1 RETURN JUMPDEST PUSH2 0x261 PUSH1 0x4 DUP1 CALLDATASIZE SUB DUP2 ADD SWAP1 PUSH2 0x25C SWAP2 SWAP1 PUSH2 0x1643 JUMP JUMPDEST PUSH2 0x902 JUMP JUMPDEST STOP JUMPDEST PUSH2 0x27D PUSH1 0x4 DUP1 CALLDATASIZE SUB DUP2 ADD SWAP1 PUSH2 0x278 SWAP2 SWAP1 PUSH2 0x1969 JUMP JUMPDEST PUSH2 0xA52 JUMP JUMPDEST STOP JUMPDEST PUSH2 0x299 PUSH1 0x4 DUP1 CALLDATASIZE SUB DUP2 ADD SWAP1 PUSH2 0x294 SWAP2 SWAP1 PUSH2 0x1643 JUMP JUMPDEST PUSH2 0xC40 JUMP JUMPDEST STOP JUMPDEST PUSH2 0x2B5 PUSH1 0x4 DUP1 CALLDATASIZE SUB DUP2 ADD SWAP1 PUSH2 0x2B0 SWAP2 SWAP1 PUSH2 0x1643 JUMP JUMPDEST PUSH2 0xDB6 JUMP JUMPDEST STOP JUMPDEST PUSH2 0x2D1 PUSH1 0x4 DUP1 CALLDATASIZE SUB DUP2 ADD SWAP1 PUSH2 0x2CC SWAP2 SWAP1 PUSH2 0x1643 JUMP JUMPDEST PUSH2 0xED1 JUMP JUMPDEST PUSH1 0x40 MLOAD PUSH2 0x2E4 SWAP8 SWAP7 SWAP6 SWAP5 SWAP4 SWAP3 SWAP2 SWAP1 PUSH2 0x19B6 JUMP JUMPDEST PUSH1 0x40 MLOAD DUP1 SWAP2 SUB SWAP1 RETURN JUMPDEST PUSH2 0x307 PUSH1 0x4 DUP1 CALLDATASIZE SUB DUP2 ADD SWAP1 PUSH2 0x302 SWAP2 SWAP1 PUSH2 0x1643 JUMP JUMPDEST PUSH2 0xF26 JUMP JUMPDEST PUSH1 0x40 MLOAD PUSH2 0x314 SWAP2 SWAP1 PUSH2 0x1A93 JUMP JUMPDEST PUSH1 0x40 MLOAD DUP1 SWAP2 SUB SWAP1 RETURN JUMPDEST PUSH1 0x3 PUSH1 0x20 MSTORE DUP1 PUSH0 MSTORE PUSH1 0x40 PUSH0 KECCAK256 PUSH0 SWAP2 POP SLOAD SWAP1 PUSH2 0x100 EXP SWAP1 DIV PUSH1 0xFF AND DUP2 JUMP JUMPDEST PUSH1 0x2 PUSH0 SWAP1 SLOAD SWAP1 PUSH2 0x100 EXP SWAP1 DIV PUSH20 0xFFFFFFFFFFFFFFFFFFFFFFFFFFFFFFFFFFFFFFFF AND PUSH20 0xFFFFFFFFFFFFFFFFFFFFFFFFFFFFFFFFFFFFFFFF AND CALLER PUSH20 0xFFFFFFFFFFFFFFFFFFFFFFFFFFFFFFFFFFFFFFFF AND EQ PUSH2 0x3C9 JUMPI PUSH1 0x40 MLOAD PUSH32 0x8C379A000000000000000000000000000000000000000000000000000000000 DUP2 MSTORE PUSH1 0x4 ADD PUSH2 0x3C0 SWAP1 PUSH2 0x1AFD JUMP JUMPDEST PUSH1 0x40 MLOAD DUP1 SWAP2 SUB SWAP1 REVERT JUMPDEST PUSH2 0x3D2 DUP3 PUSH2 0xC40 JUMP JUMPDEST PUSH0 PUSH0 PUSH0 DUP5 DUP2 MSTORE PUSH1 0x20 ADD SWAP1 DUP2 MSTORE PUSH1 0x20 ADD PUSH0 KECCAK256 SWAP1 POP PUSH2 0x3EE DUP4 PUSH2 0xF60 JUMP JUMPDEST DUP1 PUSH1 0x5 ADD PUSH0 SWAP1 SLOAD SWAP1 PUSH2 0x100 EXP SWAP1 DIV PUSH1 0xFF AND ISZERO PUSH2 0x43F JUMPI PUSH1 0x40 MLOAD PUSH32 0x8C379A000000000000000000000000000000000000000000000000000000000 DUP2 MSTORE PUSH1 0x4 ADD PUSH2 0x436 SWAP1 PUSH2 0x1B65 JUMP JUMPDEST PUSH1 0x40 MLOAD DUP1 SWAP2 SUB SWAP1 REVERT JUMPDEST DUP2 DUP2 PUSH1 0x1 ADD SLOAD LT PUSH2 0x469 JUMPI DUP2 DUP2 PUSH1 0x1 ADD PUSH0 DUP3 DUP3 SLOAD PUSH2 0x45D SWAP2 SWAP1 PUSH2 0x1BB0 JUMP JUMPDEST SWAP3 POP POP DUP2 SWAP1 SSTORE POP PUSH2 0x473 JUMP JUMPDEST PUSH0 DUP2 PUSH1 0x1 ADD DUP2 SWAP1 SSTORE POP JUMPDEST POP POP POP JUMP JUMPDEST PUSH1 0x2 PUSH0 SWAP1 SLOAD SWAP1 PUSH2 0x100 EXP SWAP1 DIV PUSH20 0xFFFFFFFFFFFFFFFFFFFFFFFFFFFFFFFFFFFFFFFF AND PUSH20 0xFFFFFFFFFFFFFFFFFFFFFFFFFFFFFFFFFFFFFFFF AND CALLER PUSH20 0xFFFFFFFFFFFFFFFFFFFFFFFFFFFFFFFFFFFFFFFF AND EQ PUSH2 0x507 JUMPI PUSH1 0x40 MLOAD PUSH32 0x8C379A000000000000000000000000000000000000000000000000000000000 DUP2 MSTORE PUSH1 0x4 ADD PUSH2 0x4FE SWAP1 PUSH2 0x1AFD JUMP JUMPDEST PUSH1 0x40 MLOAD DUP1 SWAP2 SUB SWAP1 REVERT JUMPDEST PUSH1 0x1 PUSH1 0x3 PUSH0 DUP4 DUP2 MSTORE PUSH1 0x20 ADD SWAP1 DUP2 MSTORE PUSH1 0x20 ADD PUSH0 KECCAK256 PUSH0 PUSH2 0x100 EXP DUP2 SLOAD DUP2 PUSH1 0xFF MUL NOT AND SWAP1 DUP4 ISZERO ISZERO MUL OR SWAP1 SSTORE POP POP JUMP JUMPDEST PUSH0 PUSH1 0x2 PUSH0 SWAP1 SLOAD SWAP1 PUSH2 0x100 EXP SWAP1 DIV PUSH20 0xFFFFFFFFFFFFFFFFFFFFFFFFFFFFFFFFFFFFFFFF AND PUSH20 0xFFFFFFFFFFFFFFFFFFFFFFFFFFFFFFFFFFFFFFFF AND CALLER PUSH20 0xFFFFFFFFFFFFFFFFFFFFFFFFFFFFFFFFFFFFFFFF AND EQ PUSH2 0x5C3 JUMPI PUSH1 0x40 MLOAD PUSH32 0x8C379A000000000000000000000000000000000000000000000000000000000 DUP2 MSTORE PUSH1 0x4 ADD PUSH2 0x5BA SWAP1 PUSH2 0x1AFD JUMP JUMPDEST PUSH1 0x40 MLOAD DUP1 SWAP2 SUB SWAP1 REVERT JUMPDEST PUSH0 PUSH2 0x5CD DUP4 PUSH2 0x103E JUMP JUMPDEST SWAP1 POP PUSH1 0x40 MLOAD DUP1 PUSH1 0xE0 ADD PUSH1 0x40 MSTORE DUP1 PUSH0 DUP2 MSTORE PUSH1 0x20 ADD PUSH0 DUP2 MSTORE PUSH1 0x20 ADD DUP3 PUSH0 ADD MLOAD DUP2 MSTORE PUSH1 0x20 ADD DUP5 PUSH1 0xA DUP2 GT ISZERO PUSH2 0x602 JUMPI PUSH2 0x601 PUSH2 0x1842 JUMP JUMPDEST JUMPDEST DUP2 MSTORE PUSH1 0x20 ADD TIMESTAMP DUP2 MSTORE PUSH1 0x20 ADD PUSH0 ISZERO ISZERO DUP2 MSTORE PUSH1 0x20 ADD PUSH0 DUP2 MSTORE POP PUSH0 PUSH0 PUSH1 0x1 SLOAD DUP2 MSTORE PUSH1 0x20 ADD SWAP1 DUP2 MSTORE PUSH1 0x20 ADD PUSH0 KECCAK256 PUSH0 DUP3 ADD MLOAD DUP2 PUSH0 ADD SSTORE PUSH1 0x20 DUP3 ADD MLOAD DUP2 PUSH1 0x1 ADD SSTORE PUSH1 0x40 DUP3 ADD MLOAD DUP2 PUSH1 0x2 ADD SSTORE PUSH1 0x60 DUP3 ADD MLOAD DUP2 PUSH1 0x3 ADD PUSH0 PUSH2 0x100 EXP DUP2 SLOAD DUP2 PUSH1 0xFF MUL NOT AND SWAP1 DUP4 PUSH1 0xA DUP2 GT ISZERO PUSH2 0x671 JUMPI PUSH2 0x670 PUSH2 0x1842 JUMP JUMPDEST JUMPDEST MUL OR SWAP1 SSTORE POP PUSH1 0x80 DUP3 ADD MLOAD DUP2 PUSH1 0x4 ADD SSTORE PUSH1 0xA0 DUP3 ADD MLOAD DUP2 PUSH1 0x5 ADD PUSH0 PUSH2 0x100 EXP DUP2 SLOAD DUP2 PUSH1 0xFF MUL NOT AND SWAP1 DUP4 ISZERO ISZERO MUL OR SWAP1 SSTORE POP PUSH1 0xC0 DUP3 ADD MLOAD DUP2 PUSH1 0x6 ADD SSTORE SWAP1 POP POP CALLER PUSH1 0x4 PUSH0 PUSH1 0x1 SLOAD DUP2 MSTORE PUSH1 0x20 ADD SWAP1 DUP2 MSTORE PUSH1 0x20 ADD PUSH0 KECCAK256 PUSH0 PUSH2 0x100 EXP DUP2 SLOAD DUP2 PUSH20 0xFFFFFFFFFFFFFFFFFFFFFFFFFFFFFFFFFFFFFFFF MUL NOT AND SWAP1 DUP4 PUSH20 0xFFFFFFFFFFFFFFFFFFFFFFFFFFFFFFFFFFFFFFFF AND MUL OR SWAP1 SSTORE POP PUSH1 0x1 PUSH0 DUP2 SLOAD DUP1 SWAP3 SWAP2 SWAP1 PUSH2 0x70F SWAP1 PUSH2 0x1BE3 JUMP JUMPDEST SWAP2 SWAP1 POP SSTORE POP PUSH0 SWAP2 POP POP SWAP2 SWAP1 POP JUMP JUMPDEST PUSH0 PUSH20 0xFFFFFFFFFFFFFFFFFFFFFFFFFFFFFFFFFFFFFFFF AND PUSH1 0x2 PUSH0 SWAP1 SLOAD SWAP1 PUSH2 0x100 EXP SWAP1 DIV PUSH20 0xFFFFFFFFFFFFFFFFFFFFFFFFFFFFFFFFFFFFFFFF AND PUSH20 0xFFFFFFFFFFFFFFFFFFFFFFFFFFFFFFFFFFFFFFFF AND EQ PUSH2 0x7AC JUMPI PUSH1 0x40 MLOAD PUSH32 0x8C379A000000000000000000000000000000000000000000000000000000000 DUP2 MSTORE PUSH1 0x4 ADD PUSH2 0x7A3 SWAP1 PUSH2 0x1C74 JUMP JUMPDEST PUSH1 0x40 MLOAD DUP1 SWAP2 SUB SWAP1 REVERT JUMPDEST DUP1 PUSH1 0x2 PUSH0 PUSH2 0x100 EXP DUP2 SLOAD DUP2 PUSH20 0xFFFFFFFFFFFFFFFFFFFFFFFFFFFFFFFFFFFFFFFF MUL NOT AND SWAP1 DUP4 PUSH20 0xFFFFFFFFFFFFFFFFFFFFFFFFFFFFFFFFFFFFFFFF AND MUL OR SWAP1 SSTORE POP POP JUMP JUMPDEST PUSH1 0x1 SLOAD DUP2 JUMP JUMPDEST PUSH1 0x4 PUSH1 0x20 MSTORE DUP1 PUSH0 MSTORE PUSH1 0x40 PUSH0 KECCAK256 PUSH0 SWAP2 POP SLOAD SWAP1 PUSH2 0x100 EXP SWAP1 DIV PUSH20 0xFFFFFFFFFFFFFFFFFFFFFFFFFFFFFFFFFFFFFFFF AND DUP2 JUMP JUMPDEST PUSH2 0x82D PUSH2 0x1597 JUMP JUMPDEST PUSH2 0x836 DUP3 PUSH2 0xC40 JUMP JUMPDEST PUSH0 PUSH0 DUP4 DUP2 MSTORE PUSH1 0x20 ADD SWAP1 DUP2 MSTORE PUSH1 0x20 ADD PUSH0 KECCAK256 PUSH1 0x40 MLOAD DUP1 PUSH1 0xE0 ADD PUSH1 0x40 MSTORE SWAP1 DUP2 PUSH0 DUP3 ADD SLOAD DUP2 MSTORE PUSH1 0x20 ADD PUSH1 0x1 DUP3 ADD SLOAD DUP2 MSTORE PUSH1 0x20 ADD PUSH1 0x2 DUP3 ADD SLOAD DUP2 MSTORE PUSH1 0x20 ADD PUSH1 0x3 DUP3 ADD PUSH0 SWAP1 SLOAD SWAP1 PUSH2 0x100 EXP SWAP1 DIV PUSH1 0xFF AND PUSH1 0xA DUP2 GT ISZERO PUSH2 0x892 JUMPI PUSH2 0x891 PUSH2 0x1842 JUMP JUMPDEST JUMPDEST PUSH1 0xA DUP2 GT ISZERO PUSH2 0x8A4 JUMPI PUSH2 0x8A3 PUSH2 0x1842 JUMP JUMPDEST JUMPDEST DUP2 MSTORE PUSH1 0x20 ADD PUSH1 0x4 DUP3 ADD SLOAD DUP2 MSTORE PUSH1 0x20 ADD PUSH1 0x5 DUP3 ADD PUSH0 SWAP1 SLOAD SWAP1 PUSH2 0x100 EXP SWAP1 DIV PUSH1 0xFF AND ISZERO ISZERO ISZERO ISZERO DUP2 MSTORE PUSH1 0x20 ADD PUSH1 0x6 DUP3 ADD SLOAD DUP2 MSTORE POP POP SWAP1 POP SWAP2 SWAP1 POP JUMP JUMPDEST PUSH1 0x2 PUSH0 SWAP1 SLOAD SWAP1 PUSH2 0x100 EXP SWAP1 DIV PUSH20 0xFFFFFFFFFFFFFFFFFFFFFFFFFFFFFFFFFFFFFFFF AND DUP2 JUMP JUMPDEST PUSH1 0x2 PUSH0 SWAP1 SLOAD SWAP1 PUSH2 0x100 EXP SWAP1 DIV PUSH20 0xFFFFFFFFFFFFFFFFFFFFFFFFFFFFFFFFFFFFFFFF AND PUSH20 0xFFFFFFFFFFFFFFFFFFFFFFFFFFFFFFFFFFFFFFFF AND CALLER PUSH20 0xFFFFFFFFFFFFFFFFFFFFFFFFFFFFFFFFFFFFFFFF AND EQ PUSH2 0x991 JUMPI PUSH1 0x40 MLOAD PUSH32 0x8C379A000000000000000000000000000000000000000000000000000000000 DUP2 MSTORE PUSH1 0x4 ADD PUSH2 0x988 SWAP1 PUSH2 0x1AFD JUMP JUMPDEST PUSH1 0x40 MLOAD DUP1 SWAP2 SUB SWAP1 REVERT JUMPDEST PUSH0 PUSH0 PUSH0 DUP4 DUP2 MSTORE PUSH1 0x20 ADD SWAP1 DUP2 MSTORE PUSH1 0x20 ADD PUSH0 KECCAK256 SWAP1 POP DUP1 PUSH1 0x5 ADD PUSH0 SWAP1 SLOAD SWAP1 PUSH2 0x100 EXP SWAP1 DIV PUSH1 0xFF AND PUSH2 0x9F4 JUMPI PUSH1 0x40 MLOAD PUSH32 0x8C379A000000000000000000000000000000000000000000000000000000000 DUP2 MSTORE PUSH1 0x4 ADD PUSH2 0x9EB SWAP1 PUSH2 0x1CDC JUMP JUMPDEST PUSH1 0x40 MLOAD DUP1 SWAP2 SUB SWAP1 REVERT JUMPDEST PUSH2 0xA0D DUP2 PUSH1 0x3 ADD PUSH0 SWAP1 SLOAD SWAP1 PUSH2 0x100 EXP SWAP1 DIV PUSH1 0xFF AND PUSH2 0x103E JUMP JUMPDEST PUSH0 ADD MLOAD DUP2 PUSH1 0x2 ADD DUP2 SWAP1 SSTORE POP PUSH0 DUP2 PUSH1 0x1 ADD DUP2 SWAP1 SSTORE POP PUSH0 DUP2 PUSH1 0x5 ADD PUSH0 PUSH2 0x100 EXP DUP2 SLOAD DUP2 PUSH1 0xFF MUL NOT AND SWAP1 DUP4 ISZERO ISZERO MUL OR SWAP1 SSTORE POP PUSH0 DUP2 PUSH1 0x6 ADD DUP2 SWAP1 SSTORE POP TIMESTAMP DUP2 PUSH1 0x4 ADD DUP2 SWAP1 SSTORE POP POP POP JUMP JUMPDEST PUSH1 0x2 PUSH0 SWAP1 SLOAD SWAP1 PUSH2 0x100 EXP SWAP1 DIV PUSH20 0xFFFFFFFFFFFFFFFFFFFFFFFFFFFFFFFFFFFFFFFF AND PUSH20 0xFFFFFFFFFFFFFFFFFFFFFFFFFFFFFFFFFFFFFFFF AND CALLER PUSH20 0xFFFFFFFFFFFFFFFFFFFFFFFFFFFFFFFFFFFFFFFF AND EQ PUSH2 0xAE1 JUMPI PUSH1 0x40 MLOAD PUSH32 0x8C379A000000000000000000000000000000000000000000000000000000000 DUP2 MSTORE PUSH1 0x4 ADD PUSH2 0xAD8 SWAP1 PUSH2 0x1AFD JUMP JUMPDEST PUSH1 0x40 MLOAD DUP1 SWAP2 SUB SWAP1 REVERT JUMPDEST ORIGIN PUSH20 0xFFFFFFFFFFFFFFFFFFFFFFFFFFFFFFFFFFFFFFFF AND PUSH1 0x4 PUSH0 DUP5 DUP2 MSTORE PUSH1 0x20 ADD SWAP1 DUP2 MSTORE PUSH1 0x20 ADD PUSH0 KECCAK256 PUSH0 SWAP1 SLOAD SWAP1 PUSH2 0x100 EXP SWAP1 DIV PUSH20 0xFFFFFFFFFFFFFFFFFFFFFFFFFFFFFFFFFFFFFFFF AND PUSH20 0xFFFFFFFFFFFFFFFFFFFFFFFFFFFFFFFFFFFFFFFF AND EQ PUSH2 0xB7F JUMPI PUSH1 0x40 MLOAD PUSH32 0x8C379A000000000000000000000000000000000000000000000000000000000 DUP2 MSTORE PUSH1 0x4 ADD PUSH2 0xB76 SWAP1 PUSH2 0x1D44 JUMP JUMPDEST PUSH1 0x40 MLOAD DUP1 SWAP2 SUB SWAP1 REVERT JUMPDEST PUSH0 PUSH20 0xFFFFFFFFFFFFFFFFFFFFFFFFFFFFFFFFFFFFFFFF AND DUP2 PUSH20 0xFFFFFFFFFFFFFFFFFFFFFFFFFFFFFFFFFFFFFFFF AND SUB PUSH2 0xBED JUMPI PUSH1 0x40 MLOAD PUSH32 0x8C379A000000000000000000000000000000000000000000000000000000000 DUP2 MSTORE PUSH1 0x4 ADD PUSH2 0xBE4 SWAP1 PUSH2 0x1DAC JUMP JUMPDEST PUSH1 0x40 MLOAD DUP1 SWAP2 SUB SWAP1 REVERT JUMPDEST DUP1 PUSH1 0x4 PUSH0 DUP5 DUP2 MSTORE PUSH1 0x20 ADD SWAP1 DUP2 MSTORE PUSH1 0x20 ADD PUSH0 KECCAK256 PUSH0 PUSH2 0x100 EXP DUP2 SLOAD DUP2 PUSH20 0xFFFFFFFFFFFFFFFFFFFFFFFFFFFFFFFFFFFFFFFF MUL NOT AND SWAP1 DUP4 PUSH20 0xFFFFFFFFFFFFFFFFFFFFFFFFFFFFFFFFFFFFFFFF AND MUL OR SWAP1 SSTORE POP POP POP JUMP JUMPDEST PUSH0 PUSH0 PUSH0 DUP4 DUP2 MSTORE PUSH1 0x20 ADD SWAP1 DUP2 MSTORE PUSH1 0x20 ADD PUSH0 KECCAK256 SWAP1 POP DUP1 PUSH1 0x5 ADD PUSH0 SWAP1 SLOAD SWAP1 PUSH2 0x100 EXP SWAP1 DIV PUSH1 0xFF AND ISZERO PUSH2 0xC6F JUMPI POP PUSH2 0xDB3 JUMP JUMPDEST PUSH0 DUP2 PUSH1 0x4 ADD SLOAD TIMESTAMP PUSH2 0xC80 SWAP2 SWAP1 PUSH2 0x1BB0 JUMP JUMPDEST SWAP1 POP PUSH0 DUP2 GT ISZERO PUSH2 0xDB0 JUMPI PUSH0 PUSH2 0xCA4 DUP4 PUSH1 0x3 ADD PUSH0 SWAP1 SLOAD SWAP1 PUSH2 0x100 EXP SWAP1 DIV PUSH1 0xFF AND PUSH2 0x103E JUMP JUMPDEST SWAP1 POP PUSH0 PUSH2 0xE10 DUP3 PUSH1 0x40 ADD MLOAD DUP5 PUSH2 0xCBA SWAP2 SWAP1 PUSH2 0x1DCA JUMP JUMPDEST PUSH2 0xCC4 SWAP2 SWAP1 PUSH2 0x1E38 JUMP JUMPDEST SWAP1 POP DUP1 DUP5 PUSH1 0x1 ADD PUSH0 DUP3 DUP3 SLOAD PUSH2 0xCD9 SWAP2 SWAP1 PUSH2 0x1E68 JUMP JUMPDEST SWAP3 POP POP DUP2 SWAP1 SSTORE POP DUP2 PUSH1 0x20 ADD MLOAD DUP5 PUSH1 0x1 ADD SLOAD GT ISZERO PUSH2 0xD6F JUMPI PUSH0 DUP3 PUSH1 0x20 ADD MLOAD DUP6 PUSH1 0x1 ADD SLOAD PUSH2 0xD05 SWAP2 SWAP1 PUSH2 0x1BB0 JUMP JUMPDEST SWAP1 POP DUP3 PUSH1 0x20 ADD MLOAD DUP6 PUSH1 0x1 ADD DUP2 SWAP1 SSTORE POP DUP1 DUP6 PUSH1 0x2 ADD SLOAD GT PUSH2 0xD52 JUMPI PUSH0 DUP6 PUSH1 0x2 ADD DUP2 SWAP1 SSTORE POP PUSH1 0x1 DUP6 PUSH1 0x5 ADD PUSH0 PUSH2 0x100 EXP DUP2 SLOAD DUP2 PUSH1 0xFF MUL NOT AND SWAP1 DUP4 ISZERO ISZERO MUL OR SWAP1 SSTORE POP TIMESTAMP DUP6 PUSH1 0x6 ADD DUP2 SWAP1 SSTORE POP PUSH2 0xD6D JUMP JUMPDEST DUP1 DUP6 PUSH1 0x2 ADD PUSH0 DUP3 DUP3 SLOAD PUSH2 0xD65 SWAP2 SWAP1 PUSH2 0x1BB0 JUMP JUMPDEST SWAP3 POP POP DUP2 SWAP1 SSTORE POP JUMPDEST POP JUMPDEST PUSH0 PUSH3 0x15180 DUP5 PUSH2 0xD7F SWAP2 SWAP1 PUSH2 0x1E38 JUMP JUMPDEST SWAP1 POP PUSH0 DUP2 GT ISZERO PUSH2 0xDA3 JUMPI DUP1 DUP6 PUSH0 ADD PUSH0 DUP3 DUP3 SLOAD PUSH2 0xD9B SWAP2 SWAP1 PUSH2 0x1E68 JUMP JUMPDEST SWAP3 POP POP DUP2 SWAP1 SSTORE POP JUMPDEST TIMESTAMP DUP6 PUSH1 0x4 ADD DUP2 SWAP1 SSTORE POP POP POP POP JUMPDEST POP POP JUMPDEST POP JUMP JUMPDEST PUSH1 0x2 PUSH0 SWAP1 SLOAD SWAP1 PUSH2 0x100 EXP SWAP1 DIV PUSH20 0xFFFFFFFFFFFFFFFFFFFFFFFFFFFFFFFFFFFFFFFF AND PUSH20 0xFFFFFFFFFFFFFFFFFFFFFFFFFFFFFFFFFFFFFFFF AND CALLER PUSH20 0xFFFFFFFFFFFFFFFFFFFFFFFFFFFFFFFFFFFFFFFF AND EQ PUSH2 0xE45 JUMPI PUSH1 0x40 MLOAD PUSH32 0x8C379A000000000000000000000000000000000000000000000000000000000 DUP2 MSTORE PUSH1 0x4 ADD PUSH2 0xE3C SWAP1 PUSH2 0x1AFD JUMP JUMPDEST PUSH1 0x40 MLOAD DUP1 SWAP2 SUB SWAP1 REVERT JUMPDEST PUSH0 PUSH0 PUSH0 DUP4 DUP2 MSTORE PUSH1 0x20 ADD SWAP1 DUP2 MSTORE PUSH1 0x20 ADD PUSH0 KECCAK256 SWAP1 POP DUP1 PUSH1 0x5 ADD PUSH0 SWAP1 SLOAD SWAP1 PUSH2 0x100 EXP SWAP1 DIV PUSH1 0xFF AND ISZERO PUSH2 0xEA9 JUMPI PUSH1 0x40 MLOAD PUSH32 0x8C379A000000000000000000000000000000000000000000000000000000000 DUP2 MSTORE PUSH1 0x4 ADD PUSH2 0xEA0 SWAP1 PUSH2 0x1F0B JUMP JUMPDEST PUSH1 0x40 MLOAD DUP1 SWAP2 SUB SWAP1 REVERT JUMPDEST PUSH2 0xEC2 DUP2 PUSH1 0x3 ADD PUSH0 SWAP1 SLOAD SWAP1 PUSH2 0x100 EXP SWAP1 DIV PUSH1 0xFF AND PUSH2 0x103E JUMP JUMPDEST PUSH0 ADD MLOAD DUP2 PUSH1 0x2 ADD DUP2 SWAP1 SSTORE POP POP POP JUMP JUMPDEST PUSH0 PUSH1 0x20 MSTORE DUP1 PUSH0 MSTORE PUSH1 0x40 PUSH0 KECCAK256 PUSH0 SWAP2 POP SWAP1 POP DUP1 PUSH0 ADD SLOAD SWAP1 DUP1 PUSH1 0x1 ADD SLOAD SWAP1 DUP1 PUSH1 0x2 ADD SLOAD SWAP1 DUP1 PUSH1 0x3 ADD PUSH0 SWAP1 SLOAD SWAP1 PUSH2 0x100 EXP SWAP1 DIV PUSH1 0xFF AND SWAP1 DUP1 PUSH1 0x4 ADD SLOAD SWAP1 DUP1 PUSH1 0x5 ADD PUSH0 SWAP1 SLOAD SWAP1 PUSH2 0x100 EXP SWAP1 DIV PUSH1 0xFF AND SWAP1 DUP1 PUSH1 0x6 ADD SLOAD SWAP1 POP DUP8 JUMP JUMPDEST PUSH1 0x60 PUSH0 PUSH0 PUSH0 DUP5 DUP2 MSTORE PUSH1 0x20 ADD SWAP1 DUP2 MSTORE PUSH1 0x20 ADD PUSH0 KECCAK256 SWAP1 POP PUSH2 0xF54 DUP2 PUSH1 0x3 ADD PUSH0 SWAP1 SLOAD SWAP1 PUSH2 0x100 EXP SWAP1 DIV PUSH1 0xFF AND PUSH2 0x103E JUMP JUMPDEST PUSH1 0x80 ADD MLOAD SWAP2 POP POP SWAP2 SWAP1 POP JUMP JUMPDEST PUSH2 0xF68 PUSH2 0x15E1 JUMP JUMPDEST PUSH0 PUSH0 PUSH0 DUP5 DUP2 MSTORE PUSH1 0x20 ADD SWAP1 DUP2 MSTORE PUSH1 0x20 ADD PUSH0 KECCAK256 SWAP1 POP PUSH2 0xF94 DUP2 PUSH1 0x3 ADD PUSH0 SWAP1 SLOAD SWAP1 PUSH2 0x100 EXP SWAP1 DIV PUSH1 0xFF AND PUSH2 0x103E JUMP JUMPDEST SWAP2 POP PUSH1 0x3 PUSH0 DUP5 DUP2 MSTORE PUSH1 0x20 ADD SWAP1 DUP2 MSTORE PUSH1 0x20 ADD PUSH0 KECCAK256 PUSH0 SWAP1 SLOAD SWAP1 PUSH2 0x100 EXP SWAP1 DIV PUSH1 0xFF AND PUSH2 0x1039 JUMPI PUSH0 PUSH2 0xFD2 DUP3 PUSH1 0x3 ADD PUSH0 SWAP1 SLOAD SWAP1 PUSH2 0x100 EXP SWAP1 DIV PUSH1 0xFF AND PUSH2 0x103E JUMP JUMPDEST PUSH1 0x60 ADD MLOAD SWAP1 POP PUSH0 PUSH1 0x64 TIMESTAMP DUP7 PUSH1 0x40 MLOAD PUSH1 0x20 ADD PUSH2 0xFEE SWAP3 SWAP2 SWAP1 PUSH2 0x1F49 JUMP JUMPDEST PUSH1 0x40 MLOAD PUSH1 0x20 DUP2 DUP4 SUB SUB DUP2 MSTORE SWAP1 PUSH1 0x40 MSTORE DUP1 MLOAD SWAP1 PUSH1 0x20 ADD KECCAK256 PUSH0 SHR PUSH2 0x1010 SWAP2 SWAP1 PUSH2 0x1F74 JUMP JUMPDEST SWAP1 POP DUP2 DUP2 LT ISZERO PUSH2 0x1036 JUMPI PUSH1 0x19 DUP4 PUSH1 0x2 ADD PUSH0 DUP3 DUP3 SLOAD PUSH2 0x102E SWAP2 SWAP1 PUSH2 0x1BB0 JUMP JUMPDEST SWAP3 POP POP DUP2 SWAP1 SSTORE POP JUMPDEST POP POP JUMPDEST POP POP POP JUMP JUMPDEST PUSH2 0x1046 PUSH2 0x15E1 JUMP JUMPDEST PUSH0 PUSH1 0xA DUP2 GT ISZERO PUSH2 0x1059 JUMPI PUSH2 0x1058 PUSH2 0x1842 JUMP JUMPDEST JUMPDEST DUP3 PUSH1 0xA DUP2 GT ISZERO PUSH2 0x106C JUMPI PUSH2 0x106B PUSH2 0x1842 JUMP JUMPDEST JUMPDEST SUB PUSH2 0x10BB JUMPI PUSH1 0x40 MLOAD DUP1 PUSH1 0xA0 ADD PUSH1 0x40 MSTORE DUP1 PUSH1 0xC8 DUP2 MSTORE PUSH1 0x20 ADD PUSH1 0x96 DUP2 MSTORE PUSH1 0x20 ADD PUSH1 0x3 DUP2 MSTORE PUSH1 0x20 ADD PUSH1 0x1 DUP2 MSTORE PUSH1 0x20 ADD PUSH1 0x40 MLOAD DUP1 PUSH1 0x80 ADD PUSH1 0x40 MSTORE DUP1 PUSH1 0x5D DUP2 MSTORE PUSH1 0x20 ADD PUSH2 0x206A PUSH1 0x5D SWAP2 CODECOPY DUP2 MSTORE POP SWAP1 POP PUSH2 0x1592 JUMP JUMPDEST PUSH1 0x1 PUSH1 0xA DUP2 GT ISZERO PUSH2 0x10CF JUMPI PUSH2 0x10CE PUSH2 0x1842 JUMP JUMPDEST JUMPDEST DUP3 PUSH1 0xA DUP2 GT ISZERO PUSH2 0x10E2 JUMPI PUSH2 0x10E1 PUSH2 0x1842 JUMP JUMPDEST JUMPDEST SUB PUSH2 0x1131 JUMPI PUSH1 0x40 MLOAD DUP1 PUSH1 0xA0 ADD PUSH1 0x40 MSTORE DUP1 PUSH1 0xDC DUP2 MSTORE PUSH1 0x20 ADD PUSH1 0xC8 DUP2 MSTORE PUSH1 0x20 ADD PUSH1 0x2 DUP2 MSTORE PUSH1 0x20 ADD PUSH1 0x5 DUP2 MSTORE PUSH1 0x20 ADD PUSH1 0x40 MLOAD DUP1 PUSH1 0x80 ADD PUSH1 0x40 MSTORE DUP1 PUSH1 0x5D DUP2 MSTORE PUSH1 0x20 ADD PUSH2 0x2298 PUSH1 0x5D SWAP2 CODECOPY DUP2 MSTORE POP SWAP1 POP PUSH2 0x1592 JUMP JUMPDEST PUSH1 0x2 PUSH1 0xA DUP2 GT ISZERO PUSH2 0x1145 JUMPI PUSH2 0x1144 PUSH2 0x1842 JUMP JUMPDEST JUMPDEST DUP3 PUSH1 0xA DUP2 GT ISZERO PUSH2 0x1158 JUMPI PUSH2 0x1157 PUSH2 0x1842 JUMP JUMPDEST JUMPDEST SUB PUSH2 0x11A7 JUMPI PUSH1 0x40 MLOAD DUP1 PUSH1 0xA0 ADD PUSH1 0x40 MSTORE DUP1 PUSH1 0x50 DUP2 MSTORE PUSH1 0x20 ADD PUSH1 0x50 DUP2 MSTORE PUSH1 0x20 ADD PUSH1 0x3 DUP2 MSTORE PUSH1 0x20 ADD PUSH1 0x6 DUP2 MSTORE PUSH1 0x20 ADD PUSH1 0x40 MLOAD DUP1 PUSH1 0x80 ADD PUSH1 0x40 MSTORE DUP1 PUSH1 0x5D DUP2 MSTORE PUSH1 0x20 ADD PUSH2 0x2124 PUSH1 0x5D SWAP2 CODECOPY DUP2 MSTORE POP SWAP1 POP PUSH2 0x1592 JUMP JUMPDEST PUSH1 0xA DUP1 DUP2 GT ISZERO PUSH2 0x11BA JUMPI PUSH2 0x11B9 PUSH2 0x1842 JUMP JUMPDEST JUMPDEST DUP3 PUSH1 0xA DUP2 GT ISZERO PUSH2 0x11CD JUMPI PUSH2 0x11CC PUSH2 0x1842 JUMP JUMPDEST JUMPDEST SUB PUSH2 0x121D JUMPI PUSH1 0x40 MLOAD DUP1 PUSH1 0xA0 ADD PUSH1 0x40 MSTORE DUP1 PUSH2 0x12C DUP2 MSTORE PUSH1 0x20 ADD PUSH2 0x12C DUP2 MSTORE PUSH1 0x20 ADD PUSH1 0x1 DUP2 MSTORE PUSH1 0x20 ADD PUSH0 DUP2 MSTORE PUSH1 0x20 ADD PUSH1 0x40 MLOAD DUP1 PUSH1 0x80 ADD PUSH1 0x40 MSTORE DUP1 PUSH1 0x5D DUP2 MSTORE PUSH1 0x20 ADD PUSH2 0x23AF PUSH1 0x5D SWAP2 CODECOPY DUP2 MSTORE POP SWAP1 POP PUSH2 0x1592 JUMP JUMPDEST PUSH1 0x3 PUSH1 0xA DUP2 GT ISZERO PUSH2 0x1231 JUMPI PUSH2 0x1230 PUSH2 0x1842 JUMP JUMPDEST JUMPDEST DUP3 PUSH1 0xA DUP2 GT ISZERO PUSH2 0x1244 JUMPI PUSH2 0x1243 PUSH2 0x1842 JUMP JUMPDEST JUMPDEST SUB PUSH2 0x1293 JUMPI PUSH1 0x40 MLOAD DUP1 PUSH1 0xA0 ADD PUSH1 0x40 MSTORE DUP1 PUSH1 0xB4 DUP2 MSTORE PUSH1 0x20 ADD PUSH1 0x5A DUP2 MSTORE PUSH1 0x20 ADD PUSH1 0x2 DUP2 MSTORE PUSH1 0x20 ADD PUSH1 0x4 DUP2 MSTORE PUSH1 0x20 ADD PUSH1 0x40 MLOAD DUP1 PUSH1 0x80 ADD PUSH1 0x40 MSTORE DUP1 PUSH1 0x5D DUP2 MSTORE PUSH1 0x20 ADD PUSH2 0x20C7 PUSH1 0x5D SWAP2 CODECOPY DUP2 MSTORE POP SWAP1 POP PUSH2 0x1592 JUMP JUMPDEST PUSH1 0x4 PUSH1 0xA DUP2 GT ISZERO PUSH2 0x12A7 JUMPI PUSH2 0x12A6 PUSH2 0x1842 JUMP JUMPDEST JUMPDEST DUP3 PUSH1 0xA DUP2 GT ISZERO PUSH2 0x12BA JUMPI PUSH2 0x12B9 PUSH2 0x1842 JUMP JUMPDEST JUMPDEST SUB PUSH2 0x1309 JUMPI PUSH1 0x40 MLOAD DUP1 PUSH1 0xA0 ADD PUSH1 0x40 MSTORE DUP1 PUSH1 0x50 DUP2 MSTORE PUSH1 0x20 ADD PUSH1 0x46 DUP2 MSTORE PUSH1 0x20 ADD PUSH1 0x2 DUP2 MSTORE PUSH1 0x20 ADD PUSH1 0x8 DUP2 MSTORE PUSH1 0x20 ADD PUSH1 0x40 MLOAD DUP1 PUSH1 0x80 ADD PUSH1 0x40 MSTORE DUP1 PUSH1 0x5D DUP2 MSTORE PUSH1 0x20 ADD PUSH2 0x223B PUSH1 0x5D SWAP2 CODECOPY DUP2 MSTORE POP SWAP1 POP PUSH2 0x1592 JUMP JUMPDEST PUSH1 0x5 PUSH1 0xA DUP2 GT ISZERO PUSH2 0x131D JUMPI PUSH2 0x131C PUSH2 0x1842 JUMP JUMPDEST JUMPDEST DUP3 PUSH1 0xA DUP2 GT ISZERO PUSH2 0x1330 JUMPI PUSH2 0x132F PUSH2 0x1842 JUMP JUMPDEST JUMPDEST SUB PUSH2 0x137F JUMPI PUSH1 0x40 MLOAD DUP1 PUSH1 0xA0 ADD PUSH1 0x40 MSTORE DUP1 PUSH1 0x32 DUP2 MSTORE PUSH1 0x20 ADD PUSH1 0x3C DUP2 MSTORE PUSH1 0x20 ADD PUSH1 0x4 DUP2 MSTORE PUSH1 0x20 ADD PUSH1 0x5 DUP2 MSTORE PUSH1 0x20 ADD PUSH1 0x40 MLOAD DUP1 PUSH1 0x80 ADD PUSH1 0x40 MSTORE DUP1 PUSH1 0x5D DUP2 MSTORE PUSH1 0x20 ADD PUSH2 0x22F5 PUSH1 0x5D SWAP2 CODECOPY DUP2 MSTORE POP SWAP1 POP PUSH2 0x1592 JUMP JUMPDEST PUSH1 0x6 PUSH1 0xA DUP2 GT ISZERO PUSH2 0x1393 JUMPI PUSH2 0x1392 PUSH2 0x1842 JUMP JUMPDEST JUMPDEST DUP3 PUSH1 0xA DUP2 GT ISZERO PUSH2 0x13A6 JUMPI PUSH2 0x13A5 PUSH2 0x1842 JUMP JUMPDEST JUMPDEST SUB PUSH2 0x13F5 JUMPI PUSH1 0x40 MLOAD DUP1 PUSH1 0xA0 ADD PUSH1 0x40 MSTORE DUP1 PUSH1 0x37 DUP2 MSTORE PUSH1 0x20 ADD PUSH1 0x28 DUP2 MSTORE PUSH1 0x20 ADD PUSH1 0x3 DUP2 MSTORE PUSH1 0x20 ADD PUSH1 0x4 DUP2 MSTORE PUSH1 0x20 ADD PUSH1 0x40 MLOAD DUP1 PUSH1 0x80 ADD PUSH1 0x40 MSTORE DUP1 PUSH1 0x5D DUP2 MSTORE PUSH1 0x20 ADD PUSH2 0x2352 PUSH1 0x5D SWAP2 CODECOPY DUP2 MSTORE POP SWAP1 POP PUSH2 0x1592 JUMP JUMPDEST PUSH1 0x7 PUSH1 0xA DUP2 GT ISZERO PUSH2 0x1409 JUMPI PUSH2 0x1408 PUSH2 0x1842 JUMP JUMPDEST JUMPDEST DUP3 PUSH1 0xA DUP2 GT ISZERO PUSH2 0x141C JUMPI PUSH2 0x141B PUSH2 0x1842 JUMP JUMPDEST JUMPDEST SUB PUSH2 0x146B JUMPI PUSH1 0x40 MLOAD DUP1 PUSH1 0xA0 ADD PUSH1 0x40 MSTORE DUP1 PUSH1 0x4E DUP2 MSTORE PUSH1 0x20 ADD PUSH1 0x41 DUP2 MSTORE PUSH1 0x20 ADD PUSH1 0x2 DUP2 MSTORE PUSH1 0x20 ADD PUSH1 0x4 DUP2 MSTORE PUSH1 0x20 ADD PUSH1 0x40 MLOAD DUP1 PUSH1 0x80 ADD PUSH1 0x40 MSTORE DUP1 PUSH1 0x5D DUP2 MSTORE PUSH1 0x20 ADD PUSH2 0x200D PUSH1 0x5D SWAP2 CODECOPY DUP2 MSTORE POP SWAP1 POP PUSH2 0x1592 JUMP JUMPDEST PUSH1 0x8 PUSH1 0xA DUP2 GT ISZERO PUSH2 0x147F JUMPI PUSH2 0x147E PUSH2 0x1842 JUMP JUMPDEST JUMPDEST DUP3 PUSH1 0xA DUP2 GT ISZERO PUSH2 0x1492 JUMPI PUSH2 0x1491 PUSH2 0x1842 JUMP JUMPDEST JUMPDEST SUB PUSH2 0x14E1 JUMPI PUSH1 0x40 MLOAD DUP1 PUSH1 0xA0 ADD PUSH1 0x40 MSTORE DUP1 PUSH1 0x96 DUP2 MSTORE PUSH1 0x20 ADD PUSH1 0x64 DUP2 MSTORE PUSH1 0x20 ADD PUSH1 0x4 DUP2 MSTORE PUSH1 0x20 ADD PUSH1 0x3 DUP2 MSTORE PUSH1 0x20 ADD PUSH1 0x40 MLOAD DUP1 PUSH1 0x80 ADD PUSH1 0x40 MSTORE DUP1 PUSH1 0x5D DUP2 MSTORE PUSH1 0x20 ADD PUSH2 0x21DE PUSH1 0x5D SWAP2 CODECOPY DUP2 MSTORE POP SWAP1 POP PUSH2 0x1592 JUMP JUMPDEST PUSH1 0x9 PUSH1 0xA DUP2 GT ISZERO PUSH2 0x14F5 JUMPI PUSH2 0x14F4 PUSH2 0x1842 JUMP JUMPDEST JUMPDEST DUP3 PUSH1 0xA DUP2 GT ISZERO PUSH2 0x1508 JUMPI PUSH2 0x1507 PUSH2 0x1842 JUMP JUMPDEST JUMPDEST SUB PUSH2 0x1557 JUMPI PUSH1 0x40 MLOAD DUP1 PUSH1 0xA0 ADD PUSH1 0x40 MSTORE DUP1 PUSH1 0x23 DUP2 MSTORE PUSH1 0x20 ADD PUSH1 0x42 DUP2 MSTORE PUSH1 0x20 ADD PUSH1 0x4 DUP2 MSTORE PUSH1 0x20 ADD PUSH1 0x5 DUP2 MSTORE PUSH1 0x20 ADD PUSH1 0x40 MLOAD DUP1 PUSH1 0x80 ADD PUSH1 0x40 MSTORE DUP1 PUSH1 0x5D DUP2 MSTORE PUSH1 0x20 ADD PUSH2 0x2181 PUSH1 0x5D SWAP2 CODECOPY DUP2 MSTORE POP SWAP1 POP PUSH2 0x1592 JUMP JUMPDEST PUSH1 0x40 MLOAD PUSH32 0x8C379A000000000000000000000000000000000000000000000000000000000 DUP2 MSTORE PUSH1 0x4 ADD PUSH2 0x1589 SWAP1 PUSH2 0x1FEE JUMP JUMPDEST PUSH1 0x40 MLOAD DUP1 SWAP2 SUB SWAP1 REVERT JUMPDEST SWAP2 SWAP1 POP JUMP JUMPDEST PUSH1 0x40 MLOAD DUP1 PUSH1 0xE0 ADD PUSH1 0x40 MSTORE DUP1 PUSH0 DUP2 MSTORE PUSH1 0x20 ADD PUSH0 DUP2 MSTORE PUSH1 0x20 ADD PUSH0 DUP2 MSTORE PUSH1 0x20 ADD PUSH0 PUSH1 0xA DUP2 GT ISZERO PUSH2 0x15C7 JUMPI PUSH2 0x15C6 PUSH2 0x1842 JUMP JUMPDEST JUMPDEST DUP2 MSTORE PUSH1 0x20 ADD PUSH0 DUP2 MSTORE PUSH1 0x20 ADD PUSH0 ISZERO ISZERO DUP2 MSTORE PUSH1 0x20 ADD PUSH0 DUP2 MSTORE POP SWAP1 JUMP JUMPDEST PUSH1 0x40 MLOAD DUP1 PUSH1 0xA0 ADD PUSH1 0x40 MSTORE DUP1 PUSH0 DUP2 MSTORE PUSH1 0x20 ADD PUSH0 DUP2 MSTORE PUSH1 0x20 ADD PUSH0 DUP2 MSTORE PUSH1 0x20 ADD PUSH0 DUP2 MSTORE PUSH1 0x20 ADD PUSH1 0x60 DUP2 MSTORE POP SWAP1 JUMP JUMPDEST PUSH0 PUSH0 REVERT JUMPDEST PUSH0 DUP2 SWAP1 POP SWAP2 SWAP1 POP JUMP JUMPDEST PUSH2 0x1622 DUP2 PUSH2 0x1610 JUMP JUMPDEST DUP2 EQ PUSH2 0x162C JUMPI PUSH0 PUSH0 REVERT JUMPDEST POP JUMP JUMPDEST PUSH0 DUP2 CALLDATALOAD SWAP1 POP PUSH2 0x163D DUP2 PUSH2 0x1619 JUMP JUMPDEST SWAP3 SWAP2 POP POP JUMP JUMPDEST PUSH0 PUSH1 0x20 DUP3 DUP5 SUB SLT ISZERO PUSH2 0x1658 JUMPI PUSH2 0x1657 PUSH2 0x160C JUMP JUMPDEST JUMPDEST PUSH0 PUSH2 0x1665 DUP5 DUP3 DUP6 ADD PUSH2 0x162F JUMP JUMPDEST SWAP2 POP POP SWAP3 SWAP2 POP POP JUMP JUMPDEST PUSH0 DUP2 ISZERO ISZERO SWAP1 POP SWAP2 SWAP1 POP JUMP JUMPDEST PUSH2 0x1682 DUP2 PUSH2 0x166E JUMP JUMPDEST DUP3 MSTORE POP POP JUMP JUMPDEST PUSH0 PUSH1 0x20 DUP3 ADD SWAP1 POP PUSH2 0x169B PUSH0 DUP4 ADD DUP5 PUSH2 0x1679 JUMP JUMPDEST SWAP3 SWAP2 POP POP JUMP JUMPDEST PUSH0 PUSH0 PUSH1 0x40 DUP4 DUP6 SUB SLT ISZERO PUSH2 0x16B7 JUMPI PUSH2 0x16B6 PUSH2 0x160C JUMP JUMPDEST JUMPDEST PUSH0 PUSH2 0x16C4 DUP6 DUP3 DUP7 ADD PUSH2 0x162F JUMP JUMPDEST SWAP3 POP POP PUSH1 0x20 PUSH2 0x16D5 DUP6 DUP3 DUP7 ADD PUSH2 0x162F JUMP JUMPDEST SWAP2 POP POP SWAP3 POP SWAP3 SWAP1 POP JUMP JUMPDEST PUSH1 0xB DUP2 LT PUSH2 0x16EB JUMPI PUSH0 PUSH0 REVERT JUMPDEST POP JUMP JUMPDEST PUSH0 DUP2 CALLDATALOAD SWAP1 POP PUSH2 0x16FC DUP2 PUSH2 0x16DF JUMP JUMPDEST SWAP3 SWAP2 POP POP JUMP JUMPDEST PUSH0 PUSH1 0x20 DUP3 DUP5 SUB SLT ISZERO PUSH2 0x1717 JUMPI PUSH2 0x1716 PUSH2 0x160C JUMP JUMPDEST JUMPDEST PUSH0 PUSH2 0x1724 DUP5 DUP3 DUP6 ADD PUSH2 0x16EE JUMP JUMPDEST SWAP2 POP POP SWAP3 SWAP2 POP POP JUMP JUMPDEST PUSH0 DUP2 SWAP1 POP SWAP2 SWAP1 POP JUMP JUMPDEST PUSH2 0x173F DUP2 PUSH2 0x172D JUMP JUMPDEST DUP3 MSTORE POP POP JUMP JUMPDEST PUSH0 PUSH1 0x20 DUP3 ADD SWAP1 POP PUSH2 0x1758 PUSH0 DUP4 ADD DUP5 PUSH2 0x1736 JUMP JUMPDEST SWAP3 SWAP2 POP POP JUMP JUMPDEST PUSH0 PUSH20 0xFFFFFFFFFFFFFFFFFFFFFFFFFFFFFFFFFFFFFFFF DUP3 AND SWAP1 POP SWAP2 SWAP1 POP JUMP JUMPDEST PUSH0 PUSH2 0x1787 DUP3 PUSH2 0x175E JUMP JUMPDEST SWAP1 POP SWAP2 SWAP1 POP JUMP JUMPDEST PUSH2 0x1797 DUP2 PUSH2 0x177D JUMP JUMPDEST DUP2 EQ PUSH2 0x17A1 JUMPI PUSH0 PUSH0 REVERT JUMPDEST POP JUMP JUMPDEST PUSH0 DUP2 CALLDATALOAD SWAP1 POP PUSH2 0x17B2 DUP2 PUSH2 0x178E JUMP JUMPDEST SWAP3 SWAP2 POP POP JUMP JUMPDEST PUSH0 PUSH1 0x20 DUP3 DUP5 SUB SLT ISZERO PUSH2 0x17CD JUMPI PUSH2 0x17CC PUSH2 0x160C JUMP JUMPDEST JUMPDEST PUSH0 PUSH2 0x17DA DUP5 DUP3 DUP6 ADD PUSH2 0x17A4 JUMP JUMPDEST SWAP2 POP POP SWAP3 SWAP2 POP POP JUMP JUMPDEST PUSH2 0x17EC DUP2 PUSH2 0x1610 JUMP JUMPDEST DUP3 MSTORE POP POP JUMP JUMPDEST PUSH0 PUSH1 0x20 DUP3 ADD SWAP1 POP PUSH2 0x1805 PUSH0 DUP4 ADD DUP5 PUSH2 0x17E3 JUMP JUMPDEST SWAP3 SWAP2 POP POP JUMP JUMPDEST PUSH2 0x1814 DUP2 PUSH2 0x177D JUMP JUMPDEST DUP3 MSTORE POP POP JUMP JUMPDEST PUSH0 PUSH1 0x20 DUP3 ADD SWAP1 POP PUSH2 0x182D PUSH0 DUP4 ADD DUP5 PUSH2 0x180B JUMP JUMPDEST SWAP3 SWAP2 POP POP JUMP JUMPDEST PUSH2 0x183C DUP2 PUSH2 0x1610 JUMP JUMPDEST DUP3 MSTORE POP POP JUMP JUMPDEST PUSH32 0x4E487B7100000000000000000000000000000000000000000000000000000000 PUSH0 MSTORE PUSH1 0x21 PUSH1 0x4 MSTORE PUSH1 0x24 PUSH0 REVERT JUMPDEST PUSH1 0xB DUP2 LT PUSH2 0x1880 JUMPI PUSH2 0x187F PUSH2 0x1842 JUMP JUMPDEST JUMPDEST POP JUMP JUMPDEST PUSH0 DUP2 SWAP1 POP PUSH2 0x1890 DUP3 PUSH2 0x186F JUMP JUMPDEST SWAP2 SWAP1 POP JUMP JUMPDEST PUSH0 PUSH2 0x189F DUP3 PUSH2 0x1883 JUMP JUMPDEST SWAP1 POP SWAP2 SWAP1 POP JUMP JUMPDEST PUSH2 0x18AF DUP2 PUSH2 0x1895 JUMP JUMPDEST DUP3 MSTORE POP POP JUMP JUMPDEST PUSH2 0x18BE DUP2 PUSH2 0x166E JUMP JUMPDEST DUP3 MSTORE POP POP JUMP JUMPDEST PUSH1 0xE0 DUP3 ADD PUSH0 DUP3 ADD MLOAD PUSH2 0x18D8 PUSH0 DUP6 ADD DUP3 PUSH2 0x1833 JUMP JUMPDEST POP PUSH1 0x20 DUP3 ADD MLOAD PUSH2 0x18EB PUSH1 0x20 DUP6 ADD DUP3 PUSH2 0x1833 JUMP JUMPDEST POP PUSH1 0x40 DUP3 ADD MLOAD PUSH2 0x18FE PUSH1 0x40 DUP6 ADD DUP3 PUSH2 0x1833 JUMP JUMPDEST POP PUSH1 0x60 DUP3 ADD MLOAD PUSH2 0x1911 PUSH1 0x60 DUP6 ADD DUP3 PUSH2 0x18A6 JUMP JUMPDEST POP PUSH1 0x80 DUP3 ADD MLOAD PUSH2 0x1924 PUSH1 0x80 DUP6 ADD DUP3 PUSH2 0x1833 JUMP JUMPDEST POP PUSH1 0xA0 DUP3 ADD MLOAD PUSH2 0x1937 PUSH1 0xA0 DUP6 ADD DUP3 PUSH2 0x18B5 JUMP JUMPDEST POP PUSH1 0xC0 DUP3 ADD MLOAD PUSH2 0x194A PUSH1 0xC0 DUP6 ADD DUP3 PUSH2 0x1833 JUMP JUMPDEST POP POP POP POP JUMP JUMPDEST PUSH0 PUSH1 0xE0 DUP3 ADD SWAP1 POP PUSH2 0x1963 PUSH0 DUP4 ADD DUP5 PUSH2 0x18C4 JUMP JUMPDEST SWAP3 SWAP2 POP POP JUMP JUMPDEST PUSH0 PUSH0 PUSH1 0x40 DUP4 DUP6 SUB SLT ISZERO PUSH2 0x197F JUMPI PUSH2 0x197E PUSH2 0x160C JUMP JUMPDEST JUMPDEST PUSH0 PUSH2 0x198C DUP6 DUP3 DUP7 ADD PUSH2 0x162F JUMP JUMPDEST SWAP3 POP POP PUSH1 0x20 PUSH2 0x199D DUP6 DUP3 DUP7 ADD PUSH2 0x17A4 JUMP JUMPDEST SWAP2 POP POP SWAP3 POP SWAP3 SWAP1 POP JUMP JUMPDEST PUSH2 0x19B0 DUP2 PUSH2 0x1895 JUMP JUMPDEST DUP3 MSTORE POP POP JUMP JUMPDEST PUSH0 PUSH1 0xE0 DUP3 ADD SWAP1 POP PUSH2 0x19C9 PUSH0 DUP4 ADD DUP11 PUSH2 0x17E3 JUMP JUMPDEST PUSH2 0x19D6 PUSH1 0x20 DUP4 ADD DUP10 PUSH2 0x17E3 JUMP JUMPDEST PUSH2 0x19E3 PUSH1 0x40 DUP4 ADD DUP9 PUSH2 0x17E3 JUMP JUMPDEST PUSH2 0x19F0 PUSH1 0x60 DUP4 ADD DUP8 PUSH2 0x19A7 JUMP JUMPDEST PUSH2 0x19FD PUSH1 0x80 DUP4 ADD DUP7 PUSH2 0x17E3 JUMP JUMPDEST PUSH2 0x1A0A PUSH1 0xA0 DUP4 ADD DUP6 PUSH2 0x1679 JUMP JUMPDEST PUSH2 0x1A17 PUSH1 0xC0 DUP4 ADD DUP5 PUSH2 0x17E3 JUMP JUMPDEST SWAP9 SWAP8 POP POP POP POP POP POP POP POP JUMP JUMPDEST PUSH0 DUP2 MLOAD SWAP1 POP SWAP2 SWAP1 POP JUMP JUMPDEST PUSH0 DUP3 DUP3 MSTORE PUSH1 0x20 DUP3 ADD SWAP1 POP SWAP3 SWAP2 POP POP JUMP JUMPDEST DUP3 DUP2 DUP4 MCOPY PUSH0 DUP4 DUP4 ADD MSTORE POP POP POP JUMP JUMPDEST PUSH0 PUSH1 0x1F NOT PUSH1 0x1F DUP4 ADD AND SWAP1 POP SWAP2 SWAP1 POP JUMP JUMPDEST PUSH0 PUSH2 0x1A65 DUP3 PUSH2 0x1A23 JUMP JUMPDEST PUSH2 0x1A6F DUP2 DUP6 PUSH2 0x1A2D JUMP JUMPDEST SWAP4 POP PUSH2 0x1A7F DUP2 DUP6 PUSH1 0x20 DUP7 ADD PUSH2 0x1A3D JUMP JUMPDEST PUSH2 0x1A88 DUP2 PUSH2 0x1A4B JUMP JUMPDEST DUP5 ADD SWAP2 POP POP SWAP3 SWAP2 POP POP JUMP JUMPDEST PUSH0 PUSH1 0x20 DUP3 ADD SWAP1 POP DUP2 DUP2 SUB PUSH0 DUP4 ADD MSTORE PUSH2 0x1AAB DUP2 DUP5 PUSH2 0x1A5B JUMP JUMPDEST SWAP1 POP SWAP3 SWAP2 POP POP JUMP JUMPDEST PUSH32 0x4F6E6C79205061726B2063616E2063616C6C2074686973000000000000000000 PUSH0 DUP3 ADD MSTORE POP JUMP JUMPDEST PUSH0 PUSH2 0x1AE7 PUSH1 0x17 DUP4 PUSH2 0x1A2D JUMP JUMPDEST SWAP2 POP PUSH2 0x1AF2 DUP3 PUSH2 0x1AB3 JUMP JUMPDEST PUSH1 0x20 DUP3 ADD SWAP1 POP SWAP2 SWAP1 POP JUMP JUMPDEST PUSH0 PUSH1 0x20 DUP3 ADD SWAP1 POP DUP2 DUP2 SUB PUSH0 DUP4 ADD MSTORE PUSH2 0x1B14 DUP2 PUSH2 0x1ADB JUMP JUMPDEST SWAP1 POP SWAP2 SWAP1 POP JUMP JUMPDEST PUSH32 0x43616E6E6F742066656564206120646561642062697264000000000000000000 PUSH0 DUP3 ADD MSTORE POP JUMP JUMPDEST PUSH0 PUSH2 0x1B4F PUSH1 0x17 DUP4 PUSH2 0x1A2D JUMP JUMPDEST SWAP2 POP PUSH2 0x1B5A DUP3 PUSH2 0x1B1B JUMP JUMPDEST PUSH1 0x20 DUP3 ADD SWAP1 POP SWAP2 SWAP1 POP JUMP JUMPDEST PUSH0 PUSH1 0x20 DUP3 ADD SWAP1 POP DUP2 DUP2 SUB PUSH0 DUP4 ADD MSTORE PUSH2 0x1B7C DUP2 PUSH2 0x1B43 JUMP JUMPDEST SWAP1 POP SWAP2 SWAP1 POP JUMP JUMPDEST PUSH32 0x4E487B7100000000000000000000000000000000000000000000000000000000 PUSH0 MSTORE PUSH1 0x11 PUSH1 0x4 MSTORE PUSH1 0x24 PUSH0 REVERT JUMPDEST PUSH0 PUSH2 0x1BBA DUP3 PUSH2 0x1610 JUMP JUMPDEST SWAP2 POP PUSH2 0x1BC5 DUP4 PUSH2 0x1610 JUMP JUMPDEST SWAP3 POP DUP3 DUP3 SUB SWAP1 POP DUP2 DUP2 GT ISZERO PUSH2 0x1BDD JUMPI PUSH2 0x1BDC PUSH2 0x1B83 JUMP JUMPDEST JUMPDEST SWAP3 SWAP2 POP POP JUMP JUMPDEST PUSH0 PUSH2 0x1BED DUP3 PUSH2 0x1610 JUMP JUMPDEST SWAP2 POP PUSH32 0xFFFFFFFFFFFFFFFFFFFFFFFFFFFFFFFFFFFFFFFFFFFFFFFFFFFFFFFFFFFFFFFF DUP3 SUB PUSH2 0x1C1F JUMPI PUSH2 0x1C1E PUSH2 0x1B83 JUMP JUMPDEST JUMPDEST PUSH1 0x1 DUP3 ADD SWAP1 POP SWAP2 SWAP1 POP JUMP JUMPDEST PUSH32 0x5061726B20616C72656164792073657400000000000000000000000000000000 PUSH0 DUP3 ADD MSTORE POP JUMP JUMPDEST PUSH0 PUSH2 0x1C5E PUSH1 0x10 DUP4 PUSH2 0x1A2D JUMP JUMPDEST SWAP2 POP PUSH2 0x1C69 DUP3 PUSH2 0x1C2A JUMP JUMPDEST PUSH1 0x20 DUP3 ADD SWAP1 POP SWAP2 SWAP1 POP JUMP JUMPDEST PUSH0 PUSH1 0x20 DUP3 ADD SWAP1 POP DUP2 DUP2 SUB PUSH0 DUP4 ADD MSTORE PUSH2 0x1C8B DUP2 PUSH2 0x1C52 JUMP JUMPDEST SWAP1 POP SWAP2 SWAP1 POP JUMP JUMPDEST PUSH32 0x4E6F742064656164000000000000000000000000000000000000000000000000 PUSH0 DUP3 ADD MSTORE POP JUMP JUMPDEST PUSH0 PUSH2 0x1CC6 PUSH1 0x8 DUP4 PUSH2 0x1A2D JUMP JUMPDEST SWAP2 POP PUSH2 0x1CD1 DUP3 PUSH2 0x1C92 JUMP JUMPDEST PUSH1 0x20 DUP3 ADD SWAP1 POP SWAP2 SWAP1 POP JUMP JUMPDEST PUSH0 PUSH1 0x20 DUP3 ADD SWAP1 POP DUP2 DUP2 SUB PUSH0 DUP4 ADD MSTORE PUSH2 0x1CF3 DUP2 PUSH2 0x1CBA JUMP JUMPDEST SWAP1 POP SWAP2 SWAP1 POP JUMP JUMPDEST PUSH32 0x4E6F7420746865206F776E657200000000000000000000000000000000000000 PUSH0 DUP3 ADD MSTORE POP JUMP JUMPDEST PUSH0 PUSH2 0x1D2E PUSH1 0xD DUP4 PUSH2 0x1A2D JUMP JUMPDEST SWAP2 POP PUSH2 0x1D39 DUP3 PUSH2 0x1CFA JUMP JUMPDEST PUSH1 0x20 DUP3 ADD SWAP1 POP SWAP2 SWAP1 POP JUMP JUMPDEST PUSH0 PUSH1 0x20 DUP3 ADD SWAP1 POP DUP2 DUP2 SUB PUSH0 DUP4 ADD MSTORE PUSH2 0x1D5B DUP2 PUSH2 0x1D22 JUMP JUMPDEST SWAP1 POP SWAP2 SWAP1 POP JUMP JUMPDEST PUSH32 0x496E76616C696420616464726573730000000000000000000000000000000000 PUSH0 DUP3 ADD MSTORE POP JUMP JUMPDEST PUSH0 PUSH2 0x1D96 PUSH1 0xF DUP4 PUSH2 0x1A2D JUMP JUMPDEST SWAP2 POP PUSH2 0x1DA1 DUP3 PUSH2 0x1D62 JUMP JUMPDEST PUSH1 0x20 DUP3 ADD SWAP1 POP SWAP2 SWAP1 POP JUMP JUMPDEST PUSH0 PUSH1 0x20 DUP3 ADD SWAP1 POP DUP2 DUP2 SUB PUSH0 DUP4 ADD MSTORE PUSH2 0x1DC3 DUP2 PUSH2 0x1D8A JUMP JUMPDEST SWAP1 POP SWAP2 SWAP1 POP JUMP JUMPDEST PUSH0 PUSH2 0x1DD4 DUP3 PUSH2 0x1610 JUMP JUMPDEST SWAP2 POP PUSH2 0x1DDF DUP4 PUSH2 0x1610 JUMP JUMPDEST SWAP3 POP DUP3 DUP3 MUL PUSH2 0x1DED DUP2 PUSH2 0x1610 JUMP JUMPDEST SWAP2 POP DUP3 DUP3 DIV DUP5 EQ DUP4 ISZERO OR PUSH2 0x1E04 JUMPI PUSH2 0x1E03 PUSH2 0x1B83 JUMP JUMPDEST JUMPDEST POP SWAP3 SWAP2 POP POP JUMP JUMPDEST PUSH32 0x4E487B7100000000000000000000000000000000000000000000000000000000 PUSH0 MSTORE PUSH1 0x12 PUSH1 0x4 MSTORE PUSH1 0x24 PUSH0 REVERT JUMPDEST PUSH0 PUSH2 0x1E42 DUP3 PUSH2 0x1610 JUMP JUMPDEST SWAP2 POP PUSH2 0x1E4D DUP4 PUSH2 0x1610 JUMP JUMPDEST SWAP3 POP DUP3 PUSH2 0x1E5D JUMPI PUSH2 0x1E5C PUSH2 0x1E0B JUMP JUMPDEST JUMPDEST DUP3 DUP3 DIV SWAP1 POP SWAP3 SWAP2 POP POP JUMP JUMPDEST PUSH0 PUSH2 0x1E72 DUP3 PUSH2 0x1610 JUMP JUMPDEST SWAP2 POP PUSH2 0x1E7D DUP4 PUSH2 0x1610 JUMP JUMPDEST SWAP3 POP DUP3 DUP3 ADD SWAP1 POP DUP1 DUP3 GT ISZERO PUSH2 0x1E95 JUMPI PUSH2 0x1E94 PUSH2 0x1B83 JUMP JUMPDEST JUMPDEST SWAP3 SWAP2 POP POP JUMP JUMPDEST PUSH32 0x43616E6E6F74206865616C2061206465616420626972643B2072657669766520 PUSH0 DUP3 ADD MSTORE PUSH32 0x6974206669727374000000000000000000000000000000000000000000000000 PUSH1 0x20 DUP3 ADD MSTORE POP JUMP JUMPDEST PUSH0 PUSH2 0x1EF5 PUSH1 0x28 DUP4 PUSH2 0x1A2D JUMP JUMPDEST SWAP2 POP PUSH2 0x1F00 DUP3 PUSH2 0x1E9B JUMP JUMPDEST PUSH1 0x40 DUP3 ADD SWAP1 POP SWAP2 SWAP1 POP JUMP JUMPDEST PUSH0 PUSH1 0x20 DUP3 ADD SWAP1 POP DUP2 DUP2 SUB PUSH0 DUP4 ADD MSTORE PUSH2 0x1F22 DUP2 PUSH2 0x1EE9 JUMP JUMPDEST SWAP1 POP SWAP2 SWAP1 POP JUMP JUMPDEST PUSH0 DUP2 SWAP1 POP SWAP2 SWAP1 POP JUMP JUMPDEST PUSH2 0x1F43 PUSH2 0x1F3E DUP3 PUSH2 0x1610 JUMP JUMPDEST PUSH2 0x1F29 JUMP JUMPDEST DUP3 MSTORE POP POP JUMP JUMPDEST PUSH0 PUSH2 0x1F54 DUP3 DUP6 PUSH2 0x1F32 JUMP JUMPDEST PUSH1 0x20 DUP3 ADD SWAP2 POP PUSH2 0x1F64 DUP3 DUP5 PUSH2 0x1F32 JUMP JUMPDEST PUSH1 0x20 DUP3 ADD SWAP2 POP DUP2 SWAP1 POP SWAP4 SWAP3 POP POP POP JUMP JUMPDEST PUSH0 PUSH2 0x1F7E DUP3 PUSH2 0x1610 JUMP JUMPDEST SWAP2 POP PUSH2 0x1F89 DUP4 PUSH2 0x1610 JUMP JUMPDEST SWAP3 POP DUP3 PUSH2 0x1F99 JUMPI PUSH2 0x1F98 PUSH2 0x1E0B JUMP JUMPDEST JUMPDEST DUP3 DUP3 MOD SWAP1 POP SWAP3 SWAP2 POP POP JUMP JUMPDEST PUSH32 0x556E6B6E6F776E20737065636965730000000000000000000000000000000000 PUSH0 DUP3 ADD MSTORE POP JUMP JUMPDEST PUSH0 PUSH2 0x1FD8 PUSH1 0xF DUP4 PUSH2 0x1A2D JUMP JUMPDEST SWAP2 POP PUSH2 0x1FE3 DUP3 PUSH2 0x1FA4 JUMP JUMPDEST PUSH1 0x20 DUP3 ADD SWAP1 POP SWAP2 SWAP1 POP JUMP JUMPDEST PUSH0 PUSH1 0x20 DUP3 ADD SWAP1 POP DUP2 DUP2 SUB PUSH0 DUP4 ADD MSTORE PUSH2 0x2005 DUP2 PUSH2 0x1FCC JUMP JUMPDEST SWAP1 POP SWAP2 SWAP1 POP JUMP INVALID PUSH9 0x747470733A2F2F6761 PUSH21 0x657761792E70696E6174612E636C6F75642F697066 PUSH20 0x2F6261666B72656964336D64796D7A736A747564 PUSH14 0x35367A726F766974786F75766773 PUSH11 0x627A7A6B79617273713774 ORIGIN PUSH10 0x32626977796736726874 PUSH18 0x68747470733A2F2F676174657761792E7069 PUSH15 0x6174612E636C6F75642F697066732F PUSH3 0x616679 PUSH3 0x656961 CALLER PUSH13 0x65346173746B6E683270346D62 PUSH12 0x64357734326A353232746E73 PUSH6 0x3477786B3777 CALLDATALOAD PUSH14 0x3777696D6F716470366F757A7079 PUSH9 0x747470733A2F2F6761 PUSH21 0x657761792E70696E6174612E636C6F75642F697066 PUSH20 0x2F6261667962656966786E71727070336166616A PUSH15 0x74726E7779796E75326C63727A766D PUSH5 0x6D73746877 PUSH2 0x6236 PUSH25 0x32776E323377636E62646A6E366D68747470733A2F2F676174 PUSH6 0x7761792E7069 PUSH15 0x6174612E636C6F75642F697066732F PUSH3 0x616679 PUSH3 0x656965 PUSH23 0x377075637A377968377836686169646D7068703569656F PUSH3 0x766366 PUSH5 0x636C6E6C77 PUSH11 0x7161326976733479333537 PUSH17 0x76776D6168747470733A2F2F6761746577 PUSH2 0x792E PUSH17 0x696E6174612E636C6F75642F697066732F PUSH3 0x616679 PUSH3 0x656966 PUSH17 0x616A6269766868656D6A65666769616D6E PUSH23 0x68376F6532376C657874716A376167707A6E6368716575 PUSH11 0x636E343669356361687474 PUSH17 0x733A2F2F676174657761792E70696E6174 PUSH2 0x2E63 PUSH13 0x6F75642F697066732F6261666B PUSH19 0x65696636656E6F32716A6A337863376D656271 PUSH13 0x327336366F6C36797872777837 PUSH8 0x7761767A3434716E ORIGIN PUSH5 0x6C7A33636E PUSH24 0x3766323468747470733A2F2F676174657761792E70696E61 PUSH21 0x612E636C6F75642F697066732F6261667962656962 PUSH4 0x64707A70 PUSH26 0x67366D716165326F676F7775756D796D716D7178623275736E69 PUSH22 0x37356765656A347074723436376F74326E6D68747470 PUSH20 0x3A2F2F676174657761792E70696E6174612E636C PUSH16 0x75642F697066732F6261667962656967 PUSH16 0x686F746F6B366B336F6E76746A797970 PUSH7 0x6E626E7A626373 PUSH16 0x327163697862777A3477683634767032 PUSH15 0x336C71376E6B736168747470733A2F 0x2F PUSH8 0x6174657761792E70 PUSH10 0x6E6174612E636C6F7564 0x2F PUSH10 0x7066732F6261666B7265 PUSH10 0x6461346170737078746E PUSH17 0x6236336F71797A763374696E356F776334 CALLDATALOAD PUSH13 0x6763746B6471763734686A6173 CALLVALUE PUSH7 0x79746F6F6B7461 PUSH9 0x747470733A2F2F6761 PUSH21 0x657761792E70696E6174612E636C6F75642F697066 PUSH20 0x2F6261666B7265696832666D7875336179736372 CALLDATACOPY PUSH25 0x657A3275326173686177696663336F6A34716132366A353663 PUSH9 0x343676657A377A7961 PUSH6 0x6A3468747470 PUSH20 0x3A2F2F676174657761792E70696E6174612E636C PUSH16 0x75642F697066732F6261667962656965 PUSH21 0x626635716F7372796271676B7132636434637A7636 CALLDATASIZE PUSH5 0x7777367374 CALLVALUE PUSH24 0x6A35786C6F7A6534656E6232643578796A36706DA2646970 PUSH7 0x735822122074AE 0x26 0xC9 0xB2 0xD5 0xCE 0xB2 NUMBER 0xD 0xD2 0xCB SWAP11 MSTORE8 0xEA DUP15 DUP16 SWAP15 0xB5 MOD BLOCKHASH DUP5 0xD9 DUP4 PUSH30 0xD4ECB664BB03C264736F6C634300081E0033000000000000000000000000 "
				},
				"gasEstimates": {
					"creation": {
						"codeDepositCost": "1856200",
						"executionCost": "infinite",
						"totalCost": "infinite"
					},
					"external": {
						"birds(uint256)": "infinite",
						"feedBird(uint256,uint256)": "infinite",
						"getBird(uint256)": "infinite",
						"getBirdImage(uint256)": "infinite",
						"healBird(uint256)": "30318",
						"insure(uint256)": "26980",
						"insured(uint256)": "2809",
						"mintBird(uint8)": "infinite",
						"nextId()": "2492",
						"ownerOf(uint256)": "2916",
						"parkContract()": "2553",
						"revive(uint256)": "86766",
						"setParkContract(address)": "26929",
						"transferBird(uint256,address)": "29498",
						"updateHungerAndAge(uint256)": "infinite"
					},
					"internal": {
						"randomPoisoning(uint256)": "infinite"
					}
				},
				"methodIdentifiers": {
					"birds(uint256)": "ec1c5955",
					"feedBird(uint256,uint256)": "1942d199",
					"getBird(uint256)": "6ec88bbd",
					"getBirdImage(uint256)": "f64ff064",
					"healBird(uint256)": "bff998f4",
					"insure(uint256)": "49b1a0bf",
					"insured(uint256)": "16cb4a05",
					"mintBird(uint8)": "4d2d7881",
					"nextId()": "61b8ce8c",
					"ownerOf(uint256)": "6352211e",
					"parkContract()": "72680a77",
					"revive(uint256)": "8baecc21",
					"setParkContract(address)": "4e9c7df8",
					"transferBird(uint256,address)": "8c652f95",
					"updateHungerAndAge(uint256)": "a2b7ce6f"
				}
			},
			"storageLayout": {
				"storage": [
					{
						"astId": 304,
						"contract": "contracts/Ptak.sol:Ptak",
						"label": "birds",
						"offset": 0,
						"slot": "0",
						"type": "t_mapping(t_uint256,t_struct(BirdData)299_storage)"
					},
					{
						"astId": 306,
						"contract": "contracts/Ptak.sol:Ptak",
						"label": "nextId",
						"offset": 0,
						"slot": "1",
						"type": "t_uint256"
					},
					{
						"astId": 308,
						"contract": "contracts/Ptak.sol:Ptak",
						"label": "parkContract",
						"offset": 0,
						"slot": "2",
						"type": "t_address"
					},
					{
						"astId": 312,
						"contract": "contracts/Ptak.sol:Ptak",
						"label": "insured",
						"offset": 0,
						"slot": "3",
						"type": "t_mapping(t_uint256,t_bool)"
					},
					{
						"astId": 316,
						"contract": "contracts/Ptak.sol:Ptak",
						"label": "ownerOf",
						"offset": 0,
						"slot": "4",
						"type": "t_mapping(t_uint256,t_address)"
					}
				],
				"types": {
					"t_address": {
						"encoding": "inplace",
						"label": "address",
						"numberOfBytes": "20"
					},
					"t_bool": {
						"encoding": "inplace",
						"label": "bool",
						"numberOfBytes": "1"
					},
					"t_enum(Species)858": {
						"encoding": "inplace",
						"label": "enum SpeciesLibrary.Species",
						"numberOfBytes": "1"
					},
					"t_mapping(t_uint256,t_address)": {
						"encoding": "mapping",
						"key": "t_uint256",
						"label": "mapping(uint256 => address)",
						"numberOfBytes": "32",
						"value": "t_address"
					},
					"t_mapping(t_uint256,t_bool)": {
						"encoding": "mapping",
						"key": "t_uint256",
						"label": "mapping(uint256 => bool)",
						"numberOfBytes": "32",
						"value": "t_bool"
					},
					"t_mapping(t_uint256,t_struct(BirdData)299_storage)": {
						"encoding": "mapping",
						"key": "t_uint256",
						"label": "mapping(uint256 => struct Ptak.BirdData)",
						"numberOfBytes": "32",
						"value": "t_struct(BirdData)299_storage"
					},
					"t_struct(BirdData)299_storage": {
						"encoding": "inplace",
						"label": "struct Ptak.BirdData",
						"members": [
							{
								"astId": 285,
								"contract": "contracts/Ptak.sol:Ptak",
								"label": "age",
								"offset": 0,
								"slot": "0",
								"type": "t_uint256"
							},
							{
								"astId": 287,
								"contract": "contracts/Ptak.sol:Ptak",
								"label": "hunger",
								"offset": 0,
								"slot": "1",
								"type": "t_uint256"
							},
							{
								"astId": 289,
								"contract": "contracts/Ptak.sol:Ptak",
								"label": "health",
								"offset": 0,
								"slot": "2",
								"type": "t_uint256"
							},
							{
								"astId": 292,
								"contract": "contracts/Ptak.sol:Ptak",
								"label": "species",
								"offset": 0,
								"slot": "3",
								"type": "t_enum(Species)858"
							},
							{
								"astId": 294,
								"contract": "contracts/Ptak.sol:Ptak",
								"label": "lastUpdateTime",
								"offset": 0,
								"slot": "4",
								"type": "t_uint256"
							},
							{
								"astId": 296,
								"contract": "contracts/Ptak.sol:Ptak",
								"label": "isDead",
								"offset": 0,
								"slot": "5",
								"type": "t_bool"
							},
							{
								"astId": 298,
								"contract": "contracts/Ptak.sol:Ptak",
								"label": "deathTimestamp",
								"offset": 0,
								"slot": "6",
								"type": "t_uint256"
							}
						],
						"numberOfBytes": "224"
					},
					"t_uint256": {
						"encoding": "inplace",
						"label": "uint256",
						"numberOfBytes": "32"
					}
				}
			},
			"userdoc": {
				"kind": "user",
				"methods": {},
				"version": 1
			}
		}
	}
}