{
	"contracts/Park.sol": {
		"Park": {
			"abi": [
				{
					"inputs": [
						{
							"internalType": "address",
							"name": "_ptakAddress",
							"type": "address"
						}
					],
					"stateMutability": "nonpayable",
					"type": "constructor"
				},
				{
					"inputs": [
						{
							"internalType": "uint256",
							"name": "birdId",
							"type": "uint256"
						}
					],
					"name": "buyInsurance",
					"outputs": [],
					"stateMutability": "payable",
					"type": "function"
				},
				{
					"inputs": [
						{
							"internalType": "uint256",
							"name": "birdId",
							"type": "uint256"
						},
						{
							"internalType": "uint256",
							"name": "amount",
							"type": "uint256"
						}
					],
					"name": "feedBird",
					"outputs": [],
					"stateMutability": "payable",
					"type": "function"
				},
				{
					"inputs": [
						{
							"internalType": "uint256",
							"name": "birdId",
							"type": "uint256"
						}
					],
					"name": "healBird",
					"outputs": [],
					"stateMutability": "payable",
					"type": "function"
				},
				{
					"inputs": [],
					"name": "mintLegendaryBird",
					"outputs": [],
					"stateMutability": "payable",
					"type": "function"
				},
				{
					"inputs": [
						{
							"internalType": "enum SpeciesLibrary.Species",
							"name": "species",
							"type": "uint8"
						}
					],
					"name": "mintRegularBird",
					"outputs": [],
					"stateMutability": "payable",
					"type": "function"
				},
				{
					"inputs": [],
					"name": "owner",
					"outputs": [
						{
							"internalType": "address",
							"name": "",
							"type": "address"
						}
					],
					"stateMutability": "view",
					"type": "function"
				},
				{
					"inputs": [],
					"name": "ptakContract",
					"outputs": [
						{
							"internalType": "contract Ptak",
							"name": "",
							"type": "address"
						}
					],
					"stateMutability": "view",
					"type": "function"
				},
				{
					"inputs": [
						{
							"internalType": "uint256",
							"name": "birdId",
							"type": "uint256"
						}
					],
					"name": "reviveBird",
					"outputs": [],
					"stateMutability": "payable",
					"type": "function"
				},
				{
					"inputs": [],
					"name": "withdraw",
					"outputs": [],
					"stateMutability": "nonpayable",
					"type": "function"
				}
			],
			"devdoc": {
				"kind": "dev",
				"methods": {},
				"version": 1
			},
			"evm": {
				"assembly": "    /* \"contracts/Park.sol\":117:2470  contract Park {... */\n  mstore(0x40, 0x80)\n    /* \"contracts/Park.sol\":200:315  constructor(address _ptakAddress) {... */\n  callvalue\n  dup1\n  iszero\n  tag_1\n  jumpi\n  revert(0x00, 0x00)\ntag_1:\n  pop\n  mload(0x40)\n  sub(codesize, bytecodeSize)\n  dup1\n  bytecodeSize\n  dup4\n  codecopy\n  dup2\n  dup2\n  add\n  0x40\n  mstore\n  dup2\n  add\n  swap1\n  tag_2\n  swap2\n  swap1\n  tag_3\n  jump\t// in\ntag_2:\n    /* \"contracts/Park.sol\":265:277  _ptakAddress */\n  dup1\n    /* \"contracts/Park.sol\":245:257  ptakContract */\n  0x00\n  0x00\n    /* \"contracts/Park.sol\":245:278  ptakContract = Ptak(_ptakAddress) */\n  0x0100\n  exp\n  dup2\n  sload\n  dup2\n  0xffffffffffffffffffffffffffffffffffffffff\n  mul\n  not\n  and\n  swap1\n  dup4\n  0xffffffffffffffffffffffffffffffffffffffff\n  and\n  mul\n  or\n  swap1\n  sstore\n  pop\n    /* \"contracts/Park.sol\":297:307  msg.sender */\n  caller\n    /* \"contracts/Park.sol\":289:294  owner */\n  0x01\n  0x00\n    /* \"contracts/Park.sol\":289:307  owner = msg.sender */\n  0x0100\n  exp\n  dup2\n  sload\n  dup2\n  0xffffffffffffffffffffffffffffffffffffffff\n  mul\n  not\n  and\n  swap1\n  dup4\n  0xffffffffffffffffffffffffffffffffffffffff\n  and\n  mul\n  or\n  swap1\n  sstore\n  pop\n    /* \"contracts/Park.sol\":200:315  constructor(address _ptakAddress) {... */\n  pop\n    /* \"contracts/Park.sol\":117:2470  contract Park {... */\n  jump(tag_6)\n    /* \"#utility.yul\":88:205   */\ntag_8:\n    /* \"#utility.yul\":197:198   */\n  0x00\n    /* \"#utility.yul\":194:195   */\n  0x00\n    /* \"#utility.yul\":187:199   */\n  revert\n    /* \"#utility.yul\":334:460   */\ntag_10:\n    /* \"#utility.yul\":371:378   */\n  0x00\n    /* \"#utility.yul\":411:453   */\n  0xffffffffffffffffffffffffffffffffffffffff\n    /* \"#utility.yul\":404:409   */\n  dup3\n    /* \"#utility.yul\":400:454   */\n  and\n    /* \"#utility.yul\":389:454   */\n  swap1\n  pop\n    /* \"#utility.yul\":334:460   */\n  swap2\n  swap1\n  pop\n  jump\t// out\n    /* \"#utility.yul\":466:562   */\ntag_11:\n    /* \"#utility.yul\":503:510   */\n  0x00\n    /* \"#utility.yul\":532:556   */\n  tag_20\n    /* \"#utility.yul\":550:555   */\n  dup3\n    /* \"#utility.yul\":532:556   */\n  tag_10\n  jump\t// in\ntag_20:\n    /* \"#utility.yul\":521:556   */\n  swap1\n  pop\n    /* \"#utility.yul\":466:562   */\n  swap2\n  swap1\n  pop\n  jump\t// out\n    /* \"#utility.yul\":568:690   */\ntag_12:\n    /* \"#utility.yul\":641:665   */\n  tag_22\n    /* \"#utility.yul\":659:664   */\n  dup2\n    /* \"#utility.yul\":641:665   */\n  tag_11\n  jump\t// in\ntag_22:\n    /* \"#utility.yul\":634:639   */\n  dup2\n    /* \"#utility.yul\":631:666   */\n  eq\n    /* \"#utility.yul\":621:684   */\n  tag_23\n  jumpi\n    /* \"#utility.yul\":680:681   */\n  0x00\n    /* \"#utility.yul\":677:678   */\n  0x00\n    /* \"#utility.yul\":670:682   */\n  revert\n    /* \"#utility.yul\":621:684   */\ntag_23:\n    /* \"#utility.yul\":568:690   */\n  pop\n  jump\t// out\n    /* \"#utility.yul\":696:839   */\ntag_13:\n    /* \"#utility.yul\":753:758   */\n  0x00\n    /* \"#utility.yul\":784:790   */\n  dup2\n    /* \"#utility.yul\":778:791   */\n  mload\n    /* \"#utility.yul\":769:791   */\n  swap1\n  pop\n    /* \"#utility.yul\":800:833   */\n  tag_25\n    /* \"#utility.yul\":827:832   */\n  dup2\n    /* \"#utility.yul\":800:833   */\n  tag_12\n  jump\t// in\ntag_25:\n    /* \"#utility.yul\":696:839   */\n  swap3\n  swap2\n  pop\n  pop\n  jump\t// out\n    /* \"#utility.yul\":845:1196   */\ntag_3:\n    /* \"#utility.yul\":915:921   */\n  0x00\n    /* \"#utility.yul\":964:966   */\n  0x20\n    /* \"#utility.yul\":952:961   */\n  dup3\n    /* \"#utility.yul\":943:950   */\n  dup5\n    /* \"#utility.yul\":939:962   */\n  sub\n    /* \"#utility.yul\":935:967   */\n  slt\n    /* \"#utility.yul\":932:1051   */\n  iszero\n  tag_27\n  jumpi\n    /* \"#utility.yul\":970:1049   */\n  tag_28\n  tag_8\n  jump\t// in\ntag_28:\n    /* \"#utility.yul\":932:1051   */\ntag_27:\n    /* \"#utility.yul\":1090:1091   */\n  0x00\n    /* \"#utility.yul\":1115:1179   */\n  tag_29\n    /* \"#utility.yul\":1171:1178   */\n  dup5\n    /* \"#utility.yul\":1162:1168   */\n  dup3\n    /* \"#utility.yul\":1151:1160   */\n  dup6\n    /* \"#utility.yul\":1147:1169   */\n  add\n    /* \"#utility.yul\":1115:1179   */\n  tag_13\n  jump\t// in\ntag_29:\n    /* \"#utility.yul\":1105:1179   */\n  swap2\n  pop\n    /* \"#utility.yul\":1061:1189   */\n  pop\n    /* \"#utility.yul\":845:1196   */\n  swap3\n  swap2\n  pop\n  pop\n  jump\t// out\n    /* \"contracts/Park.sol\":117:2470  contract Park {... */\ntag_6:\n  dataSize(sub_0)\n  dup1\n  dataOffset(sub_0)\n  0x00\n  codecopy\n  0x00\n  return\nstop\n\nsub_0: assembly {\n        /* \"contracts/Park.sol\":117:2470  contract Park {... */\n      mstore(0x40, 0x80)\n      jumpi(tag_1, lt(calldatasize, 0x04))\n      shr(0xe0, calldataload(0x00))\n      dup1\n      0x8da5cb5b\n      gt\n      tag_11\n      jumpi\n      dup1\n      0x8da5cb5b\n      eq\n      tag_6\n      jumpi\n      dup1\n      0x9aeb133f\n      eq\n      tag_7\n      jumpi\n      dup1\n      0xa86a658c\n      eq\n      tag_8\n      jumpi\n      dup1\n      0xbff998f4\n      eq\n      tag_9\n      jumpi\n      dup1\n      0xeb96efa7\n      eq\n      tag_10\n      jumpi\n      jump(tag_1)\n    tag_11:\n      dup1\n      0x192812a0\n      eq\n      tag_2\n      jumpi\n      dup1\n      0x1942d199\n      eq\n      tag_3\n      jumpi\n      dup1\n      0x3ccfd60b\n      eq\n      tag_4\n      jumpi\n      dup1\n      0x5361e1d2\n      eq\n      tag_5\n      jumpi\n    tag_1:\n      revert(0x00, 0x00)\n        /* \"contracts/Park.sol\":835:1397  function reviveBird(uint256 birdId) external payable {... */\n    tag_2:\n      tag_12\n      0x04\n      dup1\n      calldatasize\n      sub\n      dup2\n      add\n      swap1\n      tag_13\n      swap2\n      swap1\n      tag_14\n      jump\t// in\n    tag_13:\n      tag_15\n      jump\t// in\n    tag_12:\n      stop\n        /* \"contracts/Park.sol\":1405:1697  function feedBird(uint256 birdId, uint256 amount) external payable {... */\n    tag_3:\n      tag_16\n      0x04\n      dup1\n      calldatasize\n      sub\n      dup2\n      add\n      swap1\n      tag_17\n      swap2\n      swap1\n      tag_18\n      jump\t// in\n    tag_17:\n      tag_19\n      jump\t// in\n    tag_16:\n      stop\n        /* \"contracts/Park.sol\":323:469  function withdraw() external {... */\n    tag_4:\n      callvalue\n      dup1\n      iszero\n      tag_20\n      jumpi\n      revert(0x00, 0x00)\n    tag_20:\n      pop\n      tag_21\n      tag_22\n      jump\t// in\n    tag_21:\n      stop\n        /* \"contracts/Park.sol\":138:162  Ptak public ptakContract */\n    tag_5:\n      callvalue\n      dup1\n      iszero\n      tag_23\n      jumpi\n      revert(0x00, 0x00)\n    tag_23:\n      pop\n      tag_24\n      tag_25\n      jump\t// in\n    tag_24:\n      mload(0x40)\n      tag_26\n      swap2\n      swap1\n      tag_27\n      jump\t// in\n    tag_26:\n      mload(0x40)\n      dup1\n      swap2\n      sub\n      swap1\n      return\n        /* \"contracts/Park.sol\":171:191  address public owner */\n    tag_6:\n      callvalue\n      dup1\n      iszero\n      tag_28\n      jumpi\n      revert(0x00, 0x00)\n    tag_28:\n      pop\n      tag_29\n      tag_30\n      jump\t// in\n    tag_29:\n      mload(0x40)\n      tag_31\n      swap2\n      swap1\n      tag_32\n      jump\t// in\n    tag_31:\n      mload(0x40)\n      dup1\n      swap2\n      sub\n      swap1\n      return\n        /* \"contracts/Park.sol\":1709:2222  function mintRegularBird(SpeciesLibrary.Species species) external payable {... */\n    tag_7:\n      tag_33\n      0x04\n      dup1\n      calldatasize\n      sub\n      dup2\n      add\n      swap1\n      tag_34\n      swap2\n      swap1\n      tag_35\n      jump\t// in\n    tag_34:\n      tag_36\n      jump\t// in\n    tag_33:\n      stop\n        /* \"contracts/Park.sol\":655:827  function buyInsurance(uint256 birdId) external payable {... */\n    tag_8:\n      tag_37\n      0x04\n      dup1\n      calldatasize\n      sub\n      dup2\n      add\n      swap1\n      tag_38\n      swap2\n      swap1\n      tag_14\n      jump\t// in\n    tag_38:\n      tag_39\n      jump\t// in\n    tag_37:\n      stop\n        /* \"contracts/Park.sol\":477:647  function healBird(uint256 birdId) external payable {... */\n    tag_9:\n      tag_40\n      0x04\n      dup1\n      calldatasize\n      sub\n      dup2\n      add\n      swap1\n      tag_41\n      swap2\n      swap1\n      tag_14\n      jump\t// in\n    tag_41:\n      tag_42\n      jump\t// in\n    tag_40:\n      stop\n        /* \"contracts/Park.sol\":2230:2467  function mintLegendaryBird() external payable {... */\n    tag_10:\n      tag_43\n      tag_44\n      jump\t// in\n    tag_43:\n      stop\n        /* \"contracts/Park.sol\":835:1397  function reviveBird(uint256 birdId) external payable {... */\n    tag_15:\n        /* \"contracts/Park.sol\":899:924  Ptak.BirdData memory bird */\n      0x00\n        /* \"contracts/Park.sol\":927:939  ptakContract */\n      0x00\n      0x00\n      swap1\n      sload\n      swap1\n      0x0100\n      exp\n      swap1\n      div\n      0xffffffffffffffffffffffffffffffffffffffff\n      and\n        /* \"contracts/Park.sol\":927:947  ptakContract.getBird */\n      0xffffffffffffffffffffffffffffffffffffffff\n      and\n      0x6ec88bbd\n        /* \"contracts/Park.sol\":948:954  birdId */\n      dup4\n        /* \"contracts/Park.sol\":927:955  ptakContract.getBird(birdId) */\n      mload(0x40)\n      dup3\n      0xffffffff\n      and\n      0xe0\n      shl\n      dup2\n      mstore\n      0x04\n      add\n      tag_46\n      swap2\n      swap1\n      tag_47\n      jump\t// in\n    tag_46:\n      0xe0\n      mload(0x40)\n      dup1\n      dup4\n      sub\n      dup2\n      0x00\n      dup8\n      gas\n      call\n      iszero\n      dup1\n      iszero\n      tag_49\n      jumpi\n      returndatacopy(0x00, 0x00, returndatasize)\n      revert(0x00, returndatasize)\n    tag_49:\n      pop\n      pop\n      pop\n      pop\n      mload(0x40)\n      returndatasize\n      not(0x1f)\n      0x1f\n      dup3\n      add\n      and\n      dup3\n      add\n      dup1\n      0x40\n      mstore\n      pop\n      dup2\n      add\n      swap1\n      tag_50\n      swap2\n      swap1\n      tag_51\n      jump\t// in\n    tag_50:\n        /* \"contracts/Park.sol\":899:955  Ptak.BirdData memory bird = ptakContract.getBird(birdId) */\n      swap1\n      pop\n        /* \"contracts/Park.sol\":974:978  bird */\n      dup1\n        /* \"contracts/Park.sol\":974:985  bird.isDead */\n      0xa0\n      add\n      mload\n        /* \"contracts/Park.sol\":966:1006  require(bird.isDead, \"Bird is not dead\") */\n      tag_52\n      jumpi\n      mload(0x40)\n      0x08c379a000000000000000000000000000000000000000000000000000000000\n      dup2\n      mstore\n      0x04\n      add\n      tag_53\n      swap1\n      tag_54\n      jump\t// in\n    tag_53:\n      mload(0x40)\n      dup1\n      swap2\n      sub\n      swap1\n      revert\n    tag_52:\n        /* \"contracts/Park.sol\":1019:1036  uint256 basePrice */\n      0x00\n        /* \"contracts/Park.sol\":1039:1083  SpeciesLibrary.getSpeciesPrice(bird.species) */\n      tag_55\n        /* \"contracts/Park.sol\":1070:1074  bird */\n      dup3\n        /* \"contracts/Park.sol\":1070:1082  bird.species */\n      0x60\n      add\n      mload\n        /* \"contracts/Park.sol\":1039:1069  SpeciesLibrary.getSpeciesPrice */\n      tag_56\n        /* \"contracts/Park.sol\":1039:1083  SpeciesLibrary.getSpeciesPrice(bird.species) */\n      jump\t// in\n    tag_55:\n        /* \"contracts/Park.sol\":1019:1083  uint256 basePrice = SpeciesLibrary.getSpeciesPrice(bird.species) */\n      swap1\n      pop\n        /* \"contracts/Park.sol\":1094:1113  uint256 revivePrice */\n      0x00\n        /* \"contracts/Park.sol\":1128:1129  5 */\n      0x05\n        /* \"contracts/Park.sol\":1116:1125  basePrice */\n      dup3\n        /* \"contracts/Park.sol\":1116:1129  basePrice * 5 */\n      tag_57\n      swap2\n      swap1\n      tag_58\n      jump\t// in\n    tag_57:\n        /* \"contracts/Park.sol\":1094:1129  uint256 revivePrice = basePrice * 5 */\n      swap1\n      pop\n        /* \"contracts/Park.sol\":1142:1158  uint256 daysDead */\n      0x00\n        /* \"contracts/Park.sol\":1203:1209  1 days */\n      0x015180\n        /* \"contracts/Park.sol\":1180:1184  bird */\n      dup5\n        /* \"contracts/Park.sol\":1180:1199  bird.deathTimestamp */\n      0xc0\n      add\n      mload\n        /* \"contracts/Park.sol\":1162:1177  block.timestamp */\n      timestamp\n        /* \"contracts/Park.sol\":1162:1199  block.timestamp - bird.deathTimestamp */\n      tag_59\n      swap2\n      swap1\n      tag_60\n      jump\t// in\n    tag_59:\n        /* \"contracts/Park.sol\":1161:1209  (block.timestamp - bird.deathTimestamp) / 1 days */\n      tag_61\n      swap2\n      swap1\n      tag_62\n      jump\t// in\n    tag_61:\n        /* \"contracts/Park.sol\":1142:1209  uint256 daysDead = (block.timestamp - bird.deathTimestamp) / 1 days */\n      swap1\n      pop\n        /* \"contracts/Park.sol\":1262:1265  100 */\n      0x64\n        /* \"contracts/Park.sol\":1250:1258  daysDead */\n      dup2\n        /* \"contracts/Park.sol\":1236:1247  revivePrice */\n      dup4\n        /* \"contracts/Park.sol\":1236:1258  revivePrice * daysDead */\n      tag_63\n      swap2\n      swap1\n      tag_58\n      jump\t// in\n    tag_63:\n        /* \"contracts/Park.sol\":1235:1265  (revivePrice * daysDead) / 100 */\n      tag_64\n      swap2\n      swap1\n      tag_62\n      jump\t// in\n    tag_64:\n        /* \"contracts/Park.sol\":1220:1265  revivePrice += (revivePrice * daysDead) / 100 */\n      dup3\n      tag_65\n      swap2\n      swap1\n      tag_66\n      jump\t// in\n    tag_65:\n      swap2\n      pop\n        /* \"contracts/Park.sol\":1299:1310  revivePrice */\n      dup2\n        /* \"contracts/Park.sol\":1286:1295  msg.value */\n      callvalue\n        /* \"contracts/Park.sol\":1286:1310  msg.value >= revivePrice */\n      lt\n      iszero\n        /* \"contracts/Park.sol\":1278:1349  require(msg.value >= revivePrice, \"Not enough ETH to revive this bird\") */\n      tag_67\n      jumpi\n      mload(0x40)\n      0x08c379a000000000000000000000000000000000000000000000000000000000\n      dup2\n      mstore\n      0x04\n      add\n      tag_68\n      swap1\n      tag_69\n      jump\t// in\n    tag_68:\n      mload(0x40)\n      dup1\n      swap2\n      sub\n      swap1\n      revert\n    tag_67:\n        /* \"contracts/Park.sol\":1362:1374  ptakContract */\n      0x00\n      0x00\n      swap1\n      sload\n      swap1\n      0x0100\n      exp\n      swap1\n      div\n      0xffffffffffffffffffffffffffffffffffffffff\n      and\n        /* \"contracts/Park.sol\":1362:1381  ptakContract.revive */\n      0xffffffffffffffffffffffffffffffffffffffff\n      and\n      0x8baecc21\n        /* \"contracts/Park.sol\":1382:1388  birdId */\n      dup7\n        /* \"contracts/Park.sol\":1362:1389  ptakContract.revive(birdId) */\n      mload(0x40)\n      dup3\n      0xffffffff\n      and\n      0xe0\n      shl\n      dup2\n      mstore\n      0x04\n      add\n      tag_70\n      swap2\n      swap1\n      tag_47\n      jump\t// in\n    tag_70:\n      0x00\n      mload(0x40)\n      dup1\n      dup4\n      sub\n      dup2\n      0x00\n      dup8\n      dup1\n      extcodesize\n      iszero\n      dup1\n      iszero\n      tag_71\n      jumpi\n      revert(0x00, 0x00)\n    tag_71:\n      pop\n      gas\n      call\n      iszero\n      dup1\n      iszero\n      tag_73\n      jumpi\n      returndatacopy(0x00, 0x00, returndatasize)\n      revert(0x00, returndatasize)\n    tag_73:\n      pop\n      pop\n      pop\n      pop\n        /* \"contracts/Park.sol\":888:1397  {... */\n      pop\n      pop\n      pop\n      pop\n        /* \"contracts/Park.sol\":835:1397  function reviveBird(uint256 birdId) external payable {... */\n      pop\n      jump\t// out\n        /* \"contracts/Park.sol\":1405:1697  function feedBird(uint256 birdId, uint256 amount) external payable {... */\n    tag_19:\n        /* \"contracts/Park.sol\":1483:1502  uint256 costPerUnit */\n      0x00\n        /* \"contracts/Park.sol\":1505:1518  0.00001 ether */\n      0x09184e72a000\n        /* \"contracts/Park.sol\":1483:1518  uint256 costPerUnit = 0.00001 ether */\n      swap1\n      pop\n        /* \"contracts/Park.sol\":1529:1546  uint256 totalCost */\n      0x00\n        /* \"contracts/Park.sol\":1558:1569  costPerUnit */\n      dup2\n        /* \"contracts/Park.sol\":1549:1555  amount */\n      dup4\n        /* \"contracts/Park.sol\":1549:1569  amount * costPerUnit */\n      tag_75\n      swap2\n      swap1\n      tag_58\n      jump\t// in\n    tag_75:\n        /* \"contracts/Park.sol\":1529:1569  uint256 totalCost = amount * costPerUnit */\n      swap1\n      pop\n        /* \"contracts/Park.sol\":1603:1612  totalCost */\n      dup1\n        /* \"contracts/Park.sol\":1590:1599  msg.value */\n      callvalue\n        /* \"contracts/Park.sol\":1590:1612  msg.value >= totalCost */\n      lt\n      iszero\n        /* \"contracts/Park.sol\":1582:1639  require(msg.value >= totalCost, \"Not enough ETH to feed\") */\n      tag_76\n      jumpi\n      mload(0x40)\n      0x08c379a000000000000000000000000000000000000000000000000000000000\n      dup2\n      mstore\n      0x04\n      add\n      tag_77\n      swap1\n      tag_78\n      jump\t// in\n    tag_77:\n      mload(0x40)\n      dup1\n      swap2\n      sub\n      swap1\n      revert\n    tag_76:\n        /* \"contracts/Park.sol\":1652:1664  ptakContract */\n      0x00\n      0x00\n      swap1\n      sload\n      swap1\n      0x0100\n      exp\n      swap1\n      div\n      0xffffffffffffffffffffffffffffffffffffffff\n      and\n        /* \"contracts/Park.sol\":1652:1673  ptakContract.feedBird */\n      0xffffffffffffffffffffffffffffffffffffffff\n      and\n      0x1942d199\n        /* \"contracts/Park.sol\":1674:1680  birdId */\n      dup6\n        /* \"contracts/Park.sol\":1682:1688  amount */\n      dup6\n        /* \"contracts/Park.sol\":1652:1689  ptakContract.feedBird(birdId, amount) */\n      mload(0x40)\n      dup4\n      0xffffffff\n      and\n      0xe0\n      shl\n      dup2\n      mstore\n      0x04\n      add\n      tag_79\n      swap3\n      swap2\n      swap1\n      tag_80\n      jump\t// in\n    tag_79:\n      0x00\n      mload(0x40)\n      dup1\n      dup4\n      sub\n      dup2\n      0x00\n      dup8\n      dup1\n      extcodesize\n      iszero\n      dup1\n      iszero\n      tag_81\n      jumpi\n      revert(0x00, 0x00)\n    tag_81:\n      pop\n      gas\n      call\n      iszero\n      dup1\n      iszero\n      tag_83\n      jumpi\n      returndatacopy(0x00, 0x00, returndatasize)\n      revert(0x00, returndatasize)\n    tag_83:\n      pop\n      pop\n      pop\n      pop\n        /* \"contracts/Park.sol\":1472:1697  {... */\n      pop\n      pop\n        /* \"contracts/Park.sol\":1405:1697  function feedBird(uint256 birdId, uint256 amount) external payable {... */\n      pop\n      pop\n      jump\t// out\n        /* \"contracts/Park.sol\":323:469  function withdraw() external {... */\n    tag_22:\n        /* \"contracts/Park.sol\":385:390  owner */\n      0x01\n      0x00\n      swap1\n      sload\n      swap1\n      0x0100\n      exp\n      swap1\n      div\n      0xffffffffffffffffffffffffffffffffffffffff\n      and\n        /* \"contracts/Park.sol\":371:390  msg.sender == owner */\n      0xffffffffffffffffffffffffffffffffffffffff\n      and\n        /* \"contracts/Park.sol\":371:381  msg.sender */\n      caller\n        /* \"contracts/Park.sol\":371:390  msg.sender == owner */\n      0xffffffffffffffffffffffffffffffffffffffff\n      and\n      eq\n        /* \"contracts/Park.sol\":363:404  require(msg.sender == owner, \"Not owner\") */\n      tag_85\n      jumpi\n      mload(0x40)\n      0x08c379a000000000000000000000000000000000000000000000000000000000\n      dup2\n      mstore\n      0x04\n      add\n      tag_86\n      swap1\n      tag_87\n      jump\t// in\n    tag_86:\n      mload(0x40)\n      dup1\n      swap2\n      sub\n      swap1\n      revert\n    tag_85:\n        /* \"contracts/Park.sol\":423:428  owner */\n      0x01\n      0x00\n      swap1\n      sload\n      swap1\n      0x0100\n      exp\n      swap1\n      div\n      0xffffffffffffffffffffffffffffffffffffffff\n      and\n        /* \"contracts/Park.sol\":415:438  payable(owner).transfer */\n      0xffffffffffffffffffffffffffffffffffffffff\n      and\n        /* \"contracts/Park.sol\":415:461  payable(owner).transfer(address(this).balance) */\n      0x08fc\n        /* \"contracts/Park.sol\":439:460  address(this).balance */\n      selfbalance\n        /* \"contracts/Park.sol\":415:461  payable(owner).transfer(address(this).balance) */\n      swap1\n      dup2\n      iszero\n      mul\n      swap1\n      mload(0x40)\n      0x00\n      mload(0x40)\n      dup1\n      dup4\n      sub\n      dup2\n      dup6\n      dup9\n      dup9\n      call\n      swap4\n      pop\n      pop\n      pop\n      pop\n      iszero\n      dup1\n      iszero\n      tag_89\n      jumpi\n      returndatacopy(0x00, 0x00, returndatasize)\n      revert(0x00, returndatasize)\n    tag_89:\n      pop\n        /* \"contracts/Park.sol\":323:469  function withdraw() external {... */\n      jump\t// out\n        /* \"contracts/Park.sol\":138:162  Ptak public ptakContract */\n    tag_25:\n      0x00\n      0x00\n      swap1\n      sload\n      swap1\n      0x0100\n      exp\n      swap1\n      div\n      0xffffffffffffffffffffffffffffffffffffffff\n      and\n      dup2\n      jump\t// out\n        /* \"contracts/Park.sol\":171:191  address public owner */\n    tag_30:\n      0x01\n      0x00\n      swap1\n      sload\n      swap1\n      0x0100\n      exp\n      swap1\n      div\n      0xffffffffffffffffffffffffffffffffffffffff\n      and\n      dup2\n      jump\t// out\n        /* \"contracts/Park.sol\":1709:2222  function mintRegularBird(SpeciesLibrary.Species species) external payable {... */\n    tag_36:\n        /* \"contracts/Park.sol\":1794:1807  uint256 price */\n      0x00\n        /* \"contracts/Park.sol\":1810:1849  SpeciesLibrary.getSpeciesPrice(species) */\n      tag_91\n        /* \"contracts/Park.sol\":1841:1848  species */\n      dup3\n        /* \"contracts/Park.sol\":1810:1840  SpeciesLibrary.getSpeciesPrice */\n      tag_56\n        /* \"contracts/Park.sol\":1810:1849  SpeciesLibrary.getSpeciesPrice(species) */\n      jump\t// in\n    tag_91:\n        /* \"contracts/Park.sol\":1794:1849  uint256 price = SpeciesLibrary.getSpeciesPrice(species) */\n      swap1\n      pop\n        /* \"contracts/Park.sol\":1881:1886  price */\n      dup1\n        /* \"contracts/Park.sol\":1868:1877  msg.value */\n      callvalue\n        /* \"contracts/Park.sol\":1868:1886  msg.value >= price */\n      lt\n      iszero\n        /* \"contracts/Park.sol\":1860:1926  require(msg.value >= price, \"Not enough ETH to mint this species\") */\n      tag_92\n      jumpi\n      mload(0x40)\n      0x08c379a000000000000000000000000000000000000000000000000000000000\n      dup2\n      mstore\n      0x04\n      add\n      tag_93\n      swap1\n      tag_94\n      jump\t// in\n    tag_93:\n      mload(0x40)\n      dup1\n      swap2\n      sub\n      swap1\n      revert\n    tag_92:\n        /* \"contracts/Park.sol\":1939:1951  uint256 rand */\n      0x00\n        /* \"contracts/Park.sol\":2022:2026  1000 */\n      0x03e8\n        /* \"contracts/Park.sol\":1989:2004  block.timestamp */\n      timestamp\n        /* \"contracts/Park.sol\":2006:2016  msg.sender */\n      caller\n        /* \"contracts/Park.sol\":1972:2017  abi.encodePacked(block.timestamp, msg.sender) */\n      add(0x20, mload(0x40))\n      tag_95\n      swap3\n      swap2\n      swap1\n      tag_96\n      jump\t// in\n    tag_95:\n      mload(0x40)\n      0x20\n      dup2\n      dup4\n      sub\n      sub\n      dup2\n      mstore\n      swap1\n      0x40\n      mstore\n        /* \"contracts/Park.sol\":1962:2018  keccak256(abi.encodePacked(block.timestamp, msg.sender)) */\n      dup1\n      mload\n      swap1\n      0x20\n      add\n      keccak256\n        /* \"contracts/Park.sol\":1954:2019  uint256(keccak256(abi.encodePacked(block.timestamp, msg.sender))) */\n      0x00\n      shr\n        /* \"contracts/Park.sol\":1954:2026  uint256(keccak256(abi.encodePacked(block.timestamp, msg.sender))) % 1000 */\n      tag_97\n      swap2\n      swap1\n      tag_98\n      jump\t// in\n    tag_97:\n        /* \"contracts/Park.sol\":1939:2026  uint256 rand = uint256(keccak256(abi.encodePacked(block.timestamp, msg.sender))) % 1000 */\n      swap1\n      pop\n        /* \"contracts/Park.sol\":2047:2049  10 */\n      0x0a\n        /* \"contracts/Park.sol\":2040:2044  rand */\n      dup2\n        /* \"contracts/Park.sol\":2040:2049  rand < 10 */\n      lt\n        /* \"contracts/Park.sol\":2037:2215  if(rand < 10) { // 1% szans... */\n      iszero\n      tag_99\n      jumpi\n        /* \"contracts/Park.sol\":2078:2090  ptakContract */\n      0x00\n      0x00\n      swap1\n      sload\n      swap1\n      0x0100\n      exp\n      swap1\n      div\n      0xffffffffffffffffffffffffffffffffffffffff\n      and\n        /* \"contracts/Park.sol\":2078:2099  ptakContract.mintBird */\n      0xffffffffffffffffffffffffffffffffffffffff\n      and\n      0x4d2d7881\n        /* \"contracts/Park.sol\":2100:2131  SpeciesLibrary.Species.Mythical */\n      0x0a\n        /* \"contracts/Park.sol\":2078:2132  ptakContract.mintBird(SpeciesLibrary.Species.Mythical) */\n      mload(0x40)\n      dup3\n      0xffffffff\n      and\n      0xe0\n      shl\n      dup2\n      mstore\n      0x04\n      add\n      tag_100\n      swap2\n      swap1\n      tag_101\n      jump\t// in\n    tag_100:\n      0x20\n      mload(0x40)\n      dup1\n      dup4\n      sub\n      dup2\n      0x00\n      dup8\n      gas\n      call\n      iszero\n      dup1\n      iszero\n      tag_103\n      jumpi\n      returndatacopy(0x00, 0x00, returndatasize)\n      revert(0x00, returndatasize)\n    tag_103:\n      pop\n      pop\n      pop\n      pop\n      mload(0x40)\n      returndatasize\n      not(0x1f)\n      0x1f\n      dup3\n      add\n      and\n      dup3\n      add\n      dup1\n      0x40\n      mstore\n      pop\n      dup2\n      add\n      swap1\n      tag_104\n      swap2\n      swap1\n      tag_105\n      jump\t// in\n    tag_104:\n      pop\n        /* \"contracts/Park.sol\":2037:2215  if(rand < 10) { // 1% szans... */\n      jump(tag_106)\n    tag_99:\n        /* \"contracts/Park.sol\":2173:2185  ptakContract */\n      0x00\n      0x00\n      swap1\n      sload\n      swap1\n      0x0100\n      exp\n      swap1\n      div\n      0xffffffffffffffffffffffffffffffffffffffff\n      and\n        /* \"contracts/Park.sol\":2173:2194  ptakContract.mintBird */\n      0xffffffffffffffffffffffffffffffffffffffff\n      and\n      0x4d2d7881\n        /* \"contracts/Park.sol\":2195:2202  species */\n      dup5\n        /* \"contracts/Park.sol\":2173:2203  ptakContract.mintBird(species) */\n      mload(0x40)\n      dup3\n      0xffffffff\n      and\n      0xe0\n      shl\n      dup2\n      mstore\n      0x04\n      add\n      tag_107\n      swap2\n      swap1\n      tag_101\n      jump\t// in\n    tag_107:\n      0x20\n      mload(0x40)\n      dup1\n      dup4\n      sub\n      dup2\n      0x00\n      dup8\n      gas\n      call\n      iszero\n      dup1\n      iszero\n      tag_109\n      jumpi\n      returndatacopy(0x00, 0x00, returndatasize)\n      revert(0x00, returndatasize)\n    tag_109:\n      pop\n      pop\n      pop\n      pop\n      mload(0x40)\n      returndatasize\n      not(0x1f)\n      0x1f\n      dup3\n      add\n      and\n      dup3\n      add\n      dup1\n      0x40\n      mstore\n      pop\n      dup2\n      add\n      swap1\n      tag_110\n      swap2\n      swap1\n      tag_105\n      jump\t// in\n    tag_110:\n      pop\n        /* \"contracts/Park.sol\":2037:2215  if(rand < 10) { // 1% szans... */\n    tag_106:\n        /* \"contracts/Park.sol\":1783:2222  {... */\n      pop\n      pop\n        /* \"contracts/Park.sol\":1709:2222  function mintRegularBird(SpeciesLibrary.Species species) external payable {... */\n      pop\n      jump\t// out\n        /* \"contracts/Park.sol\":655:827  function buyInsurance(uint256 birdId) external payable {... */\n    tag_39:\n        /* \"contracts/Park.sol\":742:752  0.02 ether */\n      0x470de4df820000\n        /* \"contracts/Park.sol\":729:738  msg.value */\n      callvalue\n        /* \"contracts/Park.sol\":729:752  msg.value >= 0.02 ether */\n      lt\n      iszero\n        /* \"contracts/Park.sol\":721:781  require(msg.value >= 0.02 ether, \"Insurance costs 0.02 ETH\") */\n      tag_112\n      jumpi\n      mload(0x40)\n      0x08c379a000000000000000000000000000000000000000000000000000000000\n      dup2\n      mstore\n      0x04\n      add\n      tag_113\n      swap1\n      tag_114\n      jump\t// in\n    tag_113:\n      mload(0x40)\n      dup1\n      swap2\n      sub\n      swap1\n      revert\n    tag_112:\n        /* \"contracts/Park.sol\":792:804  ptakContract */\n      0x00\n      0x00\n      swap1\n      sload\n      swap1\n      0x0100\n      exp\n      swap1\n      div\n      0xffffffffffffffffffffffffffffffffffffffff\n      and\n        /* \"contracts/Park.sol\":792:811  ptakContract.insure */\n      0xffffffffffffffffffffffffffffffffffffffff\n      and\n      0x49b1a0bf\n        /* \"contracts/Park.sol\":812:818  birdId */\n      dup3\n        /* \"contracts/Park.sol\":792:819  ptakContract.insure(birdId) */\n      mload(0x40)\n      dup3\n      0xffffffff\n      and\n      0xe0\n      shl\n      dup2\n      mstore\n      0x04\n      add\n      tag_115\n      swap2\n      swap1\n      tag_47\n      jump\t// in\n    tag_115:\n      0x00\n      mload(0x40)\n      dup1\n      dup4\n      sub\n      dup2\n      0x00\n      dup8\n      dup1\n      extcodesize\n      iszero\n      dup1\n      iszero\n      tag_116\n      jumpi\n      revert(0x00, 0x00)\n    tag_116:\n      pop\n      gas\n      call\n      iszero\n      dup1\n      iszero\n      tag_118\n      jumpi\n      returndatacopy(0x00, 0x00, returndatasize)\n      revert(0x00, returndatasize)\n    tag_118:\n      pop\n      pop\n      pop\n      pop\n        /* \"contracts/Park.sol\":655:827  function buyInsurance(uint256 birdId) external payable {... */\n      pop\n      jump\t// out\n        /* \"contracts/Park.sol\":477:647  function healBird(uint256 birdId) external payable {... */\n    tag_42:\n        /* \"contracts/Park.sol\":560:571  0.005 ether */\n      0x11c37937e08000\n        /* \"contracts/Park.sol\":547:556  msg.value */\n      callvalue\n        /* \"contracts/Park.sol\":547:571  msg.value >= 0.005 ether */\n      lt\n      iszero\n        /* \"contracts/Park.sol\":539:599  require(msg.value >= 0.005 ether, \"Healing costs 0.005 ETH\") */\n      tag_120\n      jumpi\n      mload(0x40)\n      0x08c379a000000000000000000000000000000000000000000000000000000000\n      dup2\n      mstore\n      0x04\n      add\n      tag_121\n      swap1\n      tag_122\n      jump\t// in\n    tag_121:\n      mload(0x40)\n      dup1\n      swap2\n      sub\n      swap1\n      revert\n    tag_120:\n        /* \"contracts/Park.sol\":610:622  ptakContract */\n      0x00\n      0x00\n      swap1\n      sload\n      swap1\n      0x0100\n      exp\n      swap1\n      div\n      0xffffffffffffffffffffffffffffffffffffffff\n      and\n        /* \"contracts/Park.sol\":610:631  ptakContract.healBird */\n      0xffffffffffffffffffffffffffffffffffffffff\n      and\n      0xbff998f4\n        /* \"contracts/Park.sol\":632:638  birdId */\n      dup3\n        /* \"contracts/Park.sol\":610:639  ptakContract.healBird(birdId) */\n      mload(0x40)\n      dup3\n      0xffffffff\n      and\n      0xe0\n      shl\n      dup2\n      mstore\n      0x04\n      add\n      tag_123\n      swap2\n      swap1\n      tag_47\n      jump\t// in\n    tag_123:\n      0x00\n      mload(0x40)\n      dup1\n      dup4\n      sub\n      dup2\n      0x00\n      dup8\n      dup1\n      extcodesize\n      iszero\n      dup1\n      iszero\n      tag_124\n      jumpi\n      revert(0x00, 0x00)\n    tag_124:\n      pop\n      gas\n      call\n      iszero\n      dup1\n      iszero\n      tag_126\n      jumpi\n      returndatacopy(0x00, 0x00, returndatasize)\n      revert(0x00, returndatasize)\n    tag_126:\n      pop\n      pop\n      pop\n      pop\n        /* \"contracts/Park.sol\":477:647  function healBird(uint256 birdId) external payable {... */\n      pop\n      jump\t// out\n        /* \"contracts/Park.sol\":2230:2467  function mintLegendaryBird() external payable {... */\n    tag_44:\n        /* \"contracts/Park.sol\":2287:2300  uint256 price */\n      0x00\n        /* \"contracts/Park.sol\":2303:2312  0.2 ether */\n      0x02c68af0bb140000\n        /* \"contracts/Park.sol\":2287:2312  uint256 price = 0.2 ether */\n      swap1\n      pop\n        /* \"contracts/Park.sol\":2344:2349  price */\n      dup1\n        /* \"contracts/Park.sol\":2331:2340  msg.value */\n      callvalue\n        /* \"contracts/Park.sol\":2331:2349  msg.value >= price */\n      lt\n      iszero\n        /* \"contracts/Park.sol\":2323:2390  require(msg.value >= price, \"Not enough ETH to mint mythical bird\") */\n      tag_128\n      jumpi\n      mload(0x40)\n      0x08c379a000000000000000000000000000000000000000000000000000000000\n      dup2\n      mstore\n      0x04\n      add\n      tag_129\n      swap1\n      tag_130\n      jump\t// in\n    tag_129:\n      mload(0x40)\n      dup1\n      swap2\n      sub\n      swap1\n      revert\n    tag_128:\n        /* \"contracts/Park.sol\":2405:2417  ptakContract */\n      0x00\n      0x00\n      swap1\n      sload\n      swap1\n      0x0100\n      exp\n      swap1\n      div\n      0xffffffffffffffffffffffffffffffffffffffff\n      and\n        /* \"contracts/Park.sol\":2405:2426  ptakContract.mintBird */\n      0xffffffffffffffffffffffffffffffffffffffff\n      and\n      0x4d2d7881\n        /* \"contracts/Park.sol\":2427:2458  SpeciesLibrary.Species.Mythical */\n      0x0a\n        /* \"contracts/Park.sol\":2405:2459  ptakContract.mintBird(SpeciesLibrary.Species.Mythical) */\n      mload(0x40)\n      dup3\n      0xffffffff\n      and\n      0xe0\n      shl\n      dup2\n      mstore\n      0x04\n      add\n      tag_131\n      swap2\n      swap1\n      tag_101\n      jump\t// in\n    tag_131:\n      0x20\n      mload(0x40)\n      dup1\n      dup4\n      sub\n      dup2\n      0x00\n      dup8\n      gas\n      call\n      iszero\n      dup1\n      iszero\n      tag_133\n      jumpi\n      returndatacopy(0x00, 0x00, returndatasize)\n      revert(0x00, returndatasize)\n    tag_133:\n      pop\n      pop\n      pop\n      pop\n      mload(0x40)\n      returndatasize\n      not(0x1f)\n      0x1f\n      dup3\n      add\n      and\n      dup3\n      add\n      dup1\n      0x40\n      mstore\n      pop\n      dup2\n      add\n      swap1\n      tag_134\n      swap2\n      swap1\n      tag_105\n      jump\t// in\n    tag_134:\n      pop\n        /* \"contracts/Park.sol\":2276:2467  {... */\n      pop\n        /* \"contracts/Park.sol\":2230:2467  function mintLegendaryBird() external payable {... */\n      jump\t// out\n        /* \"contracts/SpeciesLibrary.sol\":544:1353  function getSpeciesPrice(Species species) internal pure returns (uint256) {... */\n    tag_56:\n        /* \"contracts/SpeciesLibrary.sol\":609:616  uint256 */\n      0x00\n        /* \"contracts/SpeciesLibrary.sol\":644:660  Species.MuteSwan */\n      0x00\n        /* \"contracts/SpeciesLibrary.sol\":633:660  species == Species.MuteSwan */\n      0x0a\n      dup2\n      gt\n      iszero\n      tag_136\n      jumpi\n      tag_137\n      tag_138\n      jump\t// in\n    tag_137:\n    tag_136:\n        /* \"contracts/SpeciesLibrary.sol\":633:640  species */\n      dup3\n        /* \"contracts/SpeciesLibrary.sol\":633:660  species == Species.MuteSwan */\n      0x0a\n      dup2\n      gt\n      iszero\n      tag_139\n      jumpi\n      tag_140\n      tag_138\n      jump\t// in\n    tag_140:\n    tag_139:\n      sub\n        /* \"contracts/SpeciesLibrary.sol\":629:679  if (species == Species.MuteSwan) return 0.05 ether */\n      tag_141\n      jumpi\n        /* \"contracts/SpeciesLibrary.sol\":669:679  0.05 ether */\n      0xb1a2bc2ec50000\n        /* \"contracts/SpeciesLibrary.sol\":662:679  return 0.05 ether */\n      swap1\n      pop\n      jump(tag_135)\n        /* \"contracts/SpeciesLibrary.sol\":629:679  if (species == Species.MuteSwan) return 0.05 ether */\n    tag_141:\n        /* \"contracts/SpeciesLibrary.sol\":705:723  Species.WhiteStork */\n      0x01\n        /* \"contracts/SpeciesLibrary.sol\":694:723  species == Species.WhiteStork */\n      0x0a\n      dup2\n      gt\n      iszero\n      tag_142\n      jumpi\n      tag_143\n      tag_138\n      jump\t// in\n    tag_143:\n    tag_142:\n        /* \"contracts/SpeciesLibrary.sol\":694:701  species */\n      dup3\n        /* \"contracts/SpeciesLibrary.sol\":694:723  species == Species.WhiteStork */\n      0x0a\n      dup2\n      gt\n      iszero\n      tag_144\n      jumpi\n      tag_145\n      tag_138\n      jump\t// in\n    tag_145:\n    tag_144:\n      sub\n        /* \"contracts/SpeciesLibrary.sol\":690:742  if (species == Species.WhiteStork) return 0.05 ether */\n      tag_146\n      jumpi\n        /* \"contracts/SpeciesLibrary.sol\":732:742  0.05 ether */\n      0xb1a2bc2ec50000\n        /* \"contracts/SpeciesLibrary.sol\":725:742  return 0.05 ether */\n      swap1\n      pop\n      jump(tag_135)\n        /* \"contracts/SpeciesLibrary.sol\":690:742  if (species == Species.WhiteStork) return 0.05 ether */\n    tag_146:\n        /* \"contracts/SpeciesLibrary.sol\":768:787  Species.MallardDuck */\n      0x02\n        /* \"contracts/SpeciesLibrary.sol\":757:787  species == Species.MallardDuck */\n      0x0a\n      dup2\n      gt\n      iszero\n      tag_147\n      jumpi\n      tag_148\n      tag_138\n      jump\t// in\n    tag_148:\n    tag_147:\n        /* \"contracts/SpeciesLibrary.sol\":757:764  species */\n      dup3\n        /* \"contracts/SpeciesLibrary.sol\":757:787  species == Species.MallardDuck */\n      0x0a\n      dup2\n      gt\n      iszero\n      tag_149\n      jumpi\n      tag_150\n      tag_138\n      jump\t// in\n    tag_150:\n    tag_149:\n      sub\n        /* \"contracts/SpeciesLibrary.sol\":753:806  if (species == Species.MallardDuck) return 0.02 ether */\n      tag_151\n      jumpi\n        /* \"contracts/SpeciesLibrary.sol\":796:806  0.02 ether */\n      0x470de4df820000\n        /* \"contracts/SpeciesLibrary.sol\":789:806  return 0.02 ether */\n      swap1\n      pop\n      jump(tag_135)\n        /* \"contracts/SpeciesLibrary.sol\":753:806  if (species == Species.MallardDuck) return 0.02 ether */\n    tag_151:\n        /* \"contracts/SpeciesLibrary.sol\":832:849  Species.GreyHeron */\n      0x03\n        /* \"contracts/SpeciesLibrary.sol\":821:849  species == Species.GreyHeron */\n      0x0a\n      dup2\n      gt\n      iszero\n      tag_152\n      jumpi\n      tag_153\n      tag_138\n      jump\t// in\n    tag_153:\n    tag_152:\n        /* \"contracts/SpeciesLibrary.sol\":821:828  species */\n      dup3\n        /* \"contracts/SpeciesLibrary.sol\":821:849  species == Species.GreyHeron */\n      0x0a\n      dup2\n      gt\n      iszero\n      tag_154\n      jumpi\n      tag_155\n      tag_138\n      jump\t// in\n    tag_155:\n    tag_154:\n      sub\n        /* \"contracts/SpeciesLibrary.sol\":817:868  if (species == Species.GreyHeron) return 0.03 ether */\n      tag_156\n      jumpi\n        /* \"contracts/SpeciesLibrary.sol\":858:868  0.03 ether */\n      0x6a94d74f430000\n        /* \"contracts/SpeciesLibrary.sol\":851:868  return 0.03 ether */\n      swap1\n      pop\n      jump(tag_135)\n        /* \"contracts/SpeciesLibrary.sol\":817:868  if (species == Species.GreyHeron) return 0.03 ether */\n    tag_156:\n        /* \"contracts/SpeciesLibrary.sol\":894:916  Species.RedNeckedGrebe */\n      0x04\n        /* \"contracts/SpeciesLibrary.sol\":883:916  species == Species.RedNeckedGrebe */\n      0x0a\n      dup2\n      gt\n      iszero\n      tag_157\n      jumpi\n      tag_158\n      tag_138\n      jump\t// in\n    tag_158:\n    tag_157:\n        /* \"contracts/SpeciesLibrary.sol\":883:890  species */\n      dup3\n        /* \"contracts/SpeciesLibrary.sol\":883:916  species == Species.RedNeckedGrebe */\n      0x0a\n      dup2\n      gt\n      iszero\n      tag_159\n      jumpi\n      tag_160\n      tag_138\n      jump\t// in\n    tag_160:\n    tag_159:\n      sub\n        /* \"contracts/SpeciesLibrary.sol\":879:936  if (species == Species.RedNeckedGrebe) return 0.018 ether */\n      tag_161\n      jumpi\n        /* \"contracts/SpeciesLibrary.sol\":925:936  0.018 ether */\n      0x3ff2e795f50000\n        /* \"contracts/SpeciesLibrary.sol\":918:936  return 0.018 ether */\n      swap1\n      pop\n      jump(tag_135)\n        /* \"contracts/SpeciesLibrary.sol\":879:936  if (species == Species.RedNeckedGrebe) return 0.018 ether */\n    tag_161:\n        /* \"contracts/SpeciesLibrary.sol\":962:979  Species.WaterRail */\n      0x05\n        /* \"contracts/SpeciesLibrary.sol\":951:979  species == Species.WaterRail */\n      0x0a\n      dup2\n      gt\n      iszero\n      tag_162\n      jumpi\n      tag_163\n      tag_138\n      jump\t// in\n    tag_163:\n    tag_162:\n        /* \"contracts/SpeciesLibrary.sol\":951:958  species */\n      dup3\n        /* \"contracts/SpeciesLibrary.sol\":951:979  species == Species.WaterRail */\n      0x0a\n      dup2\n      gt\n      iszero\n      tag_164\n      jumpi\n      tag_165\n      tag_138\n      jump\t// in\n    tag_165:\n    tag_164:\n      sub\n        /* \"contracts/SpeciesLibrary.sol\":947:998  if (species == Species.WaterRail) return 0.01 ether */\n      tag_166\n      jumpi\n        /* \"contracts/SpeciesLibrary.sol\":988:998  0.01 ether */\n      0x2386f26fc10000\n        /* \"contracts/SpeciesLibrary.sol\":981:998  return 0.01 ether */\n      swap1\n      pop\n      jump(tag_135)\n        /* \"contracts/SpeciesLibrary.sol\":947:998  if (species == Species.WaterRail) return 0.01 ether */\n    tag_166:\n        /* \"contracts/SpeciesLibrary.sol\":1024:1042  Species.CommonTern */\n      0x06\n        /* \"contracts/SpeciesLibrary.sol\":1013:1042  species == Species.CommonTern */\n      0x0a\n      dup2\n      gt\n      iszero\n      tag_167\n      jumpi\n      tag_168\n      tag_138\n      jump\t// in\n    tag_168:\n    tag_167:\n        /* \"contracts/SpeciesLibrary.sol\":1013:1020  species */\n      dup3\n        /* \"contracts/SpeciesLibrary.sol\":1013:1042  species == Species.CommonTern */\n      0x0a\n      dup2\n      gt\n      iszero\n      tag_169\n      jumpi\n      tag_170\n      tag_138\n      jump\t// in\n    tag_170:\n    tag_169:\n      sub\n        /* \"contracts/SpeciesLibrary.sol\":1009:1061  if (species == Species.CommonTern) return 0.01 ether */\n      tag_171\n      jumpi\n        /* \"contracts/SpeciesLibrary.sol\":1051:1061  0.01 ether */\n      0x2386f26fc10000\n        /* \"contracts/SpeciesLibrary.sol\":1044:1061  return 0.01 ether */\n      swap1\n      pop\n      jump(tag_135)\n        /* \"contracts/SpeciesLibrary.sol\":1009:1061  if (species == Species.CommonTern) return 0.01 ether */\n    tag_171:\n        /* \"contracts/SpeciesLibrary.sol\":1087:1104  Species.Goosander */\n      0x07\n        /* \"contracts/SpeciesLibrary.sol\":1076:1104  species == Species.Goosander */\n      0x0a\n      dup2\n      gt\n      iszero\n      tag_172\n      jumpi\n      tag_173\n      tag_138\n      jump\t// in\n    tag_173:\n    tag_172:\n        /* \"contracts/SpeciesLibrary.sol\":1076:1083  species */\n      dup3\n        /* \"contracts/SpeciesLibrary.sol\":1076:1104  species == Species.Goosander */\n      0x0a\n      dup2\n      gt\n      iszero\n      tag_174\n      jumpi\n      tag_175\n      tag_138\n      jump\t// in\n    tag_175:\n    tag_174:\n      sub\n        /* \"contracts/SpeciesLibrary.sol\":1072:1124  if (species == Species.Goosander) return 0.012 ether */\n      tag_176\n      jumpi\n        /* \"contracts/SpeciesLibrary.sol\":1113:1124  0.012 ether */\n      0x2aa1efb94e0000\n        /* \"contracts/SpeciesLibrary.sol\":1106:1124  return 0.012 ether */\n      swap1\n      pop\n      jump(tag_135)\n        /* \"contracts/SpeciesLibrary.sol\":1072:1124  if (species == Species.Goosander) return 0.012 ether */\n    tag_176:\n        /* \"contracts/SpeciesLibrary.sol\":1150:1170  Species.GreylagGoose */\n      0x08\n        /* \"contracts/SpeciesLibrary.sol\":1139:1170  species == Species.GreylagGoose */\n      0x0a\n      dup2\n      gt\n      iszero\n      tag_177\n      jumpi\n      tag_178\n      tag_138\n      jump\t// in\n    tag_178:\n    tag_177:\n        /* \"contracts/SpeciesLibrary.sol\":1139:1146  species */\n      dup3\n        /* \"contracts/SpeciesLibrary.sol\":1139:1170  species == Species.GreylagGoose */\n      0x0a\n      dup2\n      gt\n      iszero\n      tag_179\n      jumpi\n      tag_180\n      tag_138\n      jump\t// in\n    tag_180:\n    tag_179:\n      sub\n        /* \"contracts/SpeciesLibrary.sol\":1135:1189  if (species == Species.GreylagGoose) return 0.04 ether */\n      tag_181\n      jumpi\n        /* \"contracts/SpeciesLibrary.sol\":1179:1189  0.04 ether */\n      0x8e1bc9bf040000\n        /* \"contracts/SpeciesLibrary.sol\":1172:1189  return 0.04 ether */\n      swap1\n      pop\n      jump(tag_135)\n        /* \"contracts/SpeciesLibrary.sol\":1135:1189  if (species == Species.GreylagGoose) return 0.04 ether */\n    tag_181:\n        /* \"contracts/SpeciesLibrary.sol\":1215:1230  Species.Moorhen */\n      0x09\n        /* \"contracts/SpeciesLibrary.sol\":1204:1230  species == Species.Moorhen */\n      0x0a\n      dup2\n      gt\n      iszero\n      tag_182\n      jumpi\n      tag_183\n      tag_138\n      jump\t// in\n    tag_183:\n    tag_182:\n        /* \"contracts/SpeciesLibrary.sol\":1204:1211  species */\n      dup3\n        /* \"contracts/SpeciesLibrary.sol\":1204:1230  species == Species.Moorhen */\n      0x0a\n      dup2\n      gt\n      iszero\n      tag_184\n      jumpi\n      tag_185\n      tag_138\n      jump\t// in\n    tag_185:\n    tag_184:\n      sub\n        /* \"contracts/SpeciesLibrary.sol\":1200:1249  if (species == Species.Moorhen) return 0.01 ether */\n      tag_186\n      jumpi\n        /* \"contracts/SpeciesLibrary.sol\":1239:1249  0.01 ether */\n      0x2386f26fc10000\n        /* \"contracts/SpeciesLibrary.sol\":1232:1249  return 0.01 ether */\n      swap1\n      pop\n      jump(tag_135)\n        /* \"contracts/SpeciesLibrary.sol\":1200:1249  if (species == Species.Moorhen) return 0.01 ether */\n    tag_186:\n        /* \"contracts/SpeciesLibrary.sol\":1275:1291  Species.Mythical */\n      0x0a\n        /* \"contracts/SpeciesLibrary.sol\":1264:1291  species == Species.Mythical */\n      dup1\n      dup2\n      gt\n      iszero\n      tag_187\n      jumpi\n      tag_188\n      tag_138\n      jump\t// in\n    tag_188:\n    tag_187:\n        /* \"contracts/SpeciesLibrary.sol\":1264:1271  species */\n      dup3\n        /* \"contracts/SpeciesLibrary.sol\":1264:1291  species == Species.Mythical */\n      0x0a\n      dup2\n      gt\n      iszero\n      tag_189\n      jumpi\n      tag_190\n      tag_138\n      jump\t// in\n    tag_190:\n    tag_189:\n      sub\n        /* \"contracts/SpeciesLibrary.sol\":1260:1309  if (species == Species.Mythical) return 0.2 ether */\n      tag_191\n      jumpi\n        /* \"contracts/SpeciesLibrary.sol\":1300:1309  0.2 ether */\n      0x02c68af0bb140000\n        /* \"contracts/SpeciesLibrary.sol\":1293:1309  return 0.2 ether */\n      swap1\n      pop\n      jump(tag_135)\n        /* \"contracts/SpeciesLibrary.sol\":1260:1309  if (species == Species.Mythical) return 0.2 ether */\n    tag_191:\n        /* \"contracts/SpeciesLibrary.sol\":1320:1345  revert(\"Unknown species\") */\n      mload(0x40)\n      0x08c379a000000000000000000000000000000000000000000000000000000000\n      dup2\n      mstore\n      0x04\n      add\n      tag_192\n      swap1\n      tag_193\n      jump\t// in\n    tag_192:\n      mload(0x40)\n      dup1\n      swap2\n      sub\n      swap1\n      revert\n        /* \"contracts/SpeciesLibrary.sol\":544:1353  function getSpeciesPrice(Species species) internal pure returns (uint256) {... */\n    tag_135:\n      swap2\n      swap1\n      pop\n      jump\t// out\n        /* \"#utility.yul\":7:82   */\n    tag_194:\n        /* \"#utility.yul\":40:46   */\n      0x00\n        /* \"#utility.yul\":73:75   */\n      0x40\n        /* \"#utility.yul\":67:76   */\n      mload\n        /* \"#utility.yul\":57:76   */\n      swap1\n      pop\n        /* \"#utility.yul\":7:82   */\n      swap1\n      jump\t// out\n        /* \"#utility.yul\":88:205   */\n    tag_195:\n        /* \"#utility.yul\":197:198   */\n      0x00\n        /* \"#utility.yul\":194:195   */\n      0x00\n        /* \"#utility.yul\":187:199   */\n      revert\n        /* \"#utility.yul\":334:411   */\n    tag_197:\n        /* \"#utility.yul\":371:378   */\n      0x00\n        /* \"#utility.yul\":400:405   */\n      dup2\n        /* \"#utility.yul\":389:405   */\n      swap1\n      pop\n        /* \"#utility.yul\":334:411   */\n      swap2\n      swap1\n      pop\n      jump\t// out\n        /* \"#utility.yul\":417:539   */\n    tag_198:\n        /* \"#utility.yul\":490:514   */\n      tag_263\n        /* \"#utility.yul\":508:513   */\n      dup2\n        /* \"#utility.yul\":490:514   */\n      tag_197\n      jump\t// in\n    tag_263:\n        /* \"#utility.yul\":483:488   */\n      dup2\n        /* \"#utility.yul\":480:515   */\n      eq\n        /* \"#utility.yul\":470:533   */\n      tag_264\n      jumpi\n        /* \"#utility.yul\":529:530   */\n      0x00\n        /* \"#utility.yul\":526:527   */\n      0x00\n        /* \"#utility.yul\":519:531   */\n      revert\n        /* \"#utility.yul\":470:533   */\n    tag_264:\n        /* \"#utility.yul\":417:539   */\n      pop\n      jump\t// out\n        /* \"#utility.yul\":545:684   */\n    tag_199:\n        /* \"#utility.yul\":591:596   */\n      0x00\n        /* \"#utility.yul\":629:635   */\n      dup2\n        /* \"#utility.yul\":616:636   */\n      calldataload\n        /* \"#utility.yul\":607:636   */\n      swap1\n      pop\n        /* \"#utility.yul\":645:678   */\n      tag_266\n        /* \"#utility.yul\":672:677   */\n      dup2\n        /* \"#utility.yul\":645:678   */\n      tag_198\n      jump\t// in\n    tag_266:\n        /* \"#utility.yul\":545:684   */\n      swap3\n      swap2\n      pop\n      pop\n      jump\t// out\n        /* \"#utility.yul\":690:1019   */\n    tag_14:\n        /* \"#utility.yul\":749:755   */\n      0x00\n        /* \"#utility.yul\":798:800   */\n      0x20\n        /* \"#utility.yul\":786:795   */\n      dup3\n        /* \"#utility.yul\":777:784   */\n      dup5\n        /* \"#utility.yul\":773:796   */\n      sub\n        /* \"#utility.yul\":769:801   */\n      slt\n        /* \"#utility.yul\":766:885   */\n      iszero\n      tag_268\n      jumpi\n        /* \"#utility.yul\":804:883   */\n      tag_269\n      tag_195\n      jump\t// in\n    tag_269:\n        /* \"#utility.yul\":766:885   */\n    tag_268:\n        /* \"#utility.yul\":924:925   */\n      0x00\n        /* \"#utility.yul\":949:1002   */\n      tag_270\n        /* \"#utility.yul\":994:1001   */\n      dup5\n        /* \"#utility.yul\":985:991   */\n      dup3\n        /* \"#utility.yul\":974:983   */\n      dup6\n        /* \"#utility.yul\":970:992   */\n      add\n        /* \"#utility.yul\":949:1002   */\n      tag_199\n      jump\t// in\n    tag_270:\n        /* \"#utility.yul\":939:1002   */\n      swap2\n      pop\n        /* \"#utility.yul\":895:1012   */\n      pop\n        /* \"#utility.yul\":690:1019   */\n      swap3\n      swap2\n      pop\n      pop\n      jump\t// out\n        /* \"#utility.yul\":1025:1499   */\n    tag_18:\n        /* \"#utility.yul\":1093:1099   */\n      0x00\n        /* \"#utility.yul\":1101:1107   */\n      0x00\n        /* \"#utility.yul\":1150:1152   */\n      0x40\n        /* \"#utility.yul\":1138:1147   */\n      dup4\n        /* \"#utility.yul\":1129:1136   */\n      dup6\n        /* \"#utility.yul\":1125:1148   */\n      sub\n        /* \"#utility.yul\":1121:1153   */\n      slt\n        /* \"#utility.yul\":1118:1237   */\n      iszero\n      tag_272\n      jumpi\n        /* \"#utility.yul\":1156:1235   */\n      tag_273\n      tag_195\n      jump\t// in\n    tag_273:\n        /* \"#utility.yul\":1118:1237   */\n    tag_272:\n        /* \"#utility.yul\":1276:1277   */\n      0x00\n        /* \"#utility.yul\":1301:1354   */\n      tag_274\n        /* \"#utility.yul\":1346:1353   */\n      dup6\n        /* \"#utility.yul\":1337:1343   */\n      dup3\n        /* \"#utility.yul\":1326:1335   */\n      dup7\n        /* \"#utility.yul\":1322:1344   */\n      add\n        /* \"#utility.yul\":1301:1354   */\n      tag_199\n      jump\t// in\n    tag_274:\n        /* \"#utility.yul\":1291:1354   */\n      swap3\n      pop\n        /* \"#utility.yul\":1247:1364   */\n      pop\n        /* \"#utility.yul\":1403:1405   */\n      0x20\n        /* \"#utility.yul\":1429:1482   */\n      tag_275\n        /* \"#utility.yul\":1474:1481   */\n      dup6\n        /* \"#utility.yul\":1465:1471   */\n      dup3\n        /* \"#utility.yul\":1454:1463   */\n      dup7\n        /* \"#utility.yul\":1450:1472   */\n      add\n        /* \"#utility.yul\":1429:1482   */\n      tag_199\n      jump\t// in\n    tag_275:\n        /* \"#utility.yul\":1419:1482   */\n      swap2\n      pop\n        /* \"#utility.yul\":1374:1492   */\n      pop\n        /* \"#utility.yul\":1025:1499   */\n      swap3\n      pop\n      swap3\n      swap1\n      pop\n      jump\t// out\n        /* \"#utility.yul\":1505:1631   */\n    tag_200:\n        /* \"#utility.yul\":1542:1549   */\n      0x00\n        /* \"#utility.yul\":1582:1624   */\n      0xffffffffffffffffffffffffffffffffffffffff\n        /* \"#utility.yul\":1575:1580   */\n      dup3\n        /* \"#utility.yul\":1571:1625   */\n      and\n        /* \"#utility.yul\":1560:1625   */\n      swap1\n      pop\n        /* \"#utility.yul\":1505:1631   */\n      swap2\n      swap1\n      pop\n      jump\t// out\n        /* \"#utility.yul\":1637:1697   */\n    tag_201:\n        /* \"#utility.yul\":1665:1668   */\n      0x00\n        /* \"#utility.yul\":1686:1691   */\n      dup2\n        /* \"#utility.yul\":1679:1691   */\n      swap1\n      pop\n        /* \"#utility.yul\":1637:1697   */\n      swap2\n      swap1\n      pop\n      jump\t// out\n        /* \"#utility.yul\":1703:1845   */\n    tag_202:\n        /* \"#utility.yul\":1753:1762   */\n      0x00\n        /* \"#utility.yul\":1786:1839   */\n      tag_279\n        /* \"#utility.yul\":1804:1838   */\n      tag_280\n        /* \"#utility.yul\":1813:1837   */\n      tag_281\n        /* \"#utility.yul\":1831:1836   */\n      dup5\n        /* \"#utility.yul\":1813:1837   */\n      tag_200\n      jump\t// in\n    tag_281:\n        /* \"#utility.yul\":1804:1838   */\n      tag_201\n      jump\t// in\n    tag_280:\n        /* \"#utility.yul\":1786:1839   */\n      tag_200\n      jump\t// in\n    tag_279:\n        /* \"#utility.yul\":1773:1839   */\n      swap1\n      pop\n        /* \"#utility.yul\":1703:1845   */\n      swap2\n      swap1\n      pop\n      jump\t// out\n        /* \"#utility.yul\":1851:1977   */\n    tag_203:\n        /* \"#utility.yul\":1901:1910   */\n      0x00\n        /* \"#utility.yul\":1934:1971   */\n      tag_283\n        /* \"#utility.yul\":1965:1970   */\n      dup3\n        /* \"#utility.yul\":1934:1971   */\n      tag_202\n      jump\t// in\n    tag_283:\n        /* \"#utility.yul\":1921:1971   */\n      swap1\n      pop\n        /* \"#utility.yul\":1851:1977   */\n      swap2\n      swap1\n      pop\n      jump\t// out\n        /* \"#utility.yul\":1983:2121   */\n    tag_204:\n        /* \"#utility.yul\":2045:2054   */\n      0x00\n        /* \"#utility.yul\":2078:2115   */\n      tag_285\n        /* \"#utility.yul\":2109:2114   */\n      dup3\n        /* \"#utility.yul\":2078:2115   */\n      tag_203\n      jump\t// in\n    tag_285:\n        /* \"#utility.yul\":2065:2115   */\n      swap1\n      pop\n        /* \"#utility.yul\":1983:2121   */\n      swap2\n      swap1\n      pop\n      jump\t// out\n        /* \"#utility.yul\":2127:2282   */\n    tag_205:\n        /* \"#utility.yul\":2226:2275   */\n      tag_287\n        /* \"#utility.yul\":2269:2274   */\n      dup2\n        /* \"#utility.yul\":2226:2275   */\n      tag_204\n      jump\t// in\n    tag_287:\n        /* \"#utility.yul\":2221:2224   */\n      dup3\n        /* \"#utility.yul\":2214:2276   */\n      mstore\n        /* \"#utility.yul\":2127:2282   */\n      pop\n      pop\n      jump\t// out\n        /* \"#utility.yul\":2288:2534   */\n    tag_27:\n        /* \"#utility.yul\":2393:2397   */\n      0x00\n        /* \"#utility.yul\":2431:2433   */\n      0x20\n        /* \"#utility.yul\":2420:2429   */\n      dup3\n        /* \"#utility.yul\":2416:2434   */\n      add\n        /* \"#utility.yul\":2408:2434   */\n      swap1\n      pop\n        /* \"#utility.yul\":2444:2527   */\n      tag_289\n        /* \"#utility.yul\":2524:2525   */\n      0x00\n        /* \"#utility.yul\":2513:2522   */\n      dup4\n        /* \"#utility.yul\":2509:2526   */\n      add\n        /* \"#utility.yul\":2500:2506   */\n      dup5\n        /* \"#utility.yul\":2444:2527   */\n      tag_205\n      jump\t// in\n    tag_289:\n        /* \"#utility.yul\":2288:2534   */\n      swap3\n      swap2\n      pop\n      pop\n      jump\t// out\n        /* \"#utility.yul\":2540:2636   */\n    tag_206:\n        /* \"#utility.yul\":2577:2584   */\n      0x00\n        /* \"#utility.yul\":2606:2630   */\n      tag_291\n        /* \"#utility.yul\":2624:2629   */\n      dup3\n        /* \"#utility.yul\":2606:2630   */\n      tag_200\n      jump\t// in\n    tag_291:\n        /* \"#utility.yul\":2595:2630   */\n      swap1\n      pop\n        /* \"#utility.yul\":2540:2636   */\n      swap2\n      swap1\n      pop\n      jump\t// out\n        /* \"#utility.yul\":2642:2760   */\n    tag_207:\n        /* \"#utility.yul\":2729:2753   */\n      tag_293\n        /* \"#utility.yul\":2747:2752   */\n      dup2\n        /* \"#utility.yul\":2729:2753   */\n      tag_206\n      jump\t// in\n    tag_293:\n        /* \"#utility.yul\":2724:2727   */\n      dup3\n        /* \"#utility.yul\":2717:2754   */\n      mstore\n        /* \"#utility.yul\":2642:2760   */\n      pop\n      pop\n      jump\t// out\n        /* \"#utility.yul\":2766:2988   */\n    tag_32:\n        /* \"#utility.yul\":2859:2863   */\n      0x00\n        /* \"#utility.yul\":2897:2899   */\n      0x20\n        /* \"#utility.yul\":2886:2895   */\n      dup3\n        /* \"#utility.yul\":2882:2900   */\n      add\n        /* \"#utility.yul\":2874:2900   */\n      swap1\n      pop\n        /* \"#utility.yul\":2910:2981   */\n      tag_295\n        /* \"#utility.yul\":2978:2979   */\n      0x00\n        /* \"#utility.yul\":2967:2976   */\n      dup4\n        /* \"#utility.yul\":2963:2980   */\n      add\n        /* \"#utility.yul\":2954:2960   */\n      dup5\n        /* \"#utility.yul\":2910:2981   */\n      tag_207\n      jump\t// in\n    tag_295:\n        /* \"#utility.yul\":2766:2988   */\n      swap3\n      swap2\n      pop\n      pop\n      jump\t// out\n        /* \"#utility.yul\":2994:3105   */\n    tag_208:\n        /* \"#utility.yul\":3078:3080   */\n      0x0b\n        /* \"#utility.yul\":3071:3076   */\n      dup2\n        /* \"#utility.yul\":3068:3081   */\n      lt\n        /* \"#utility.yul\":3058:3099   */\n      tag_297\n      jumpi\n        /* \"#utility.yul\":3095:3096   */\n      0x00\n        /* \"#utility.yul\":3092:3093   */\n      0x00\n        /* \"#utility.yul\":3085:3097   */\n      revert\n        /* \"#utility.yul\":3058:3099   */\n    tag_297:\n        /* \"#utility.yul\":2994:3105   */\n      pop\n      jump\t// out\n        /* \"#utility.yul\":3111:3272   */\n    tag_209:\n        /* \"#utility.yul\":3168:3173   */\n      0x00\n        /* \"#utility.yul\":3206:3212   */\n      dup2\n        /* \"#utility.yul\":3193:3213   */\n      calldataload\n        /* \"#utility.yul\":3184:3213   */\n      swap1\n      pop\n        /* \"#utility.yul\":3222:3266   */\n      tag_299\n        /* \"#utility.yul\":3260:3265   */\n      dup2\n        /* \"#utility.yul\":3222:3266   */\n      tag_208\n      jump\t// in\n    tag_299:\n        /* \"#utility.yul\":3111:3272   */\n      swap3\n      swap2\n      pop\n      pop\n      jump\t// out\n        /* \"#utility.yul\":3278:3629   */\n    tag_35:\n        /* \"#utility.yul\":3348:3354   */\n      0x00\n        /* \"#utility.yul\":3397:3399   */\n      0x20\n        /* \"#utility.yul\":3385:3394   */\n      dup3\n        /* \"#utility.yul\":3376:3383   */\n      dup5\n        /* \"#utility.yul\":3372:3395   */\n      sub\n        /* \"#utility.yul\":3368:3400   */\n      slt\n        /* \"#utility.yul\":3365:3484   */\n      iszero\n      tag_301\n      jumpi\n        /* \"#utility.yul\":3403:3482   */\n      tag_302\n      tag_195\n      jump\t// in\n    tag_302:\n        /* \"#utility.yul\":3365:3484   */\n    tag_301:\n        /* \"#utility.yul\":3523:3524   */\n      0x00\n        /* \"#utility.yul\":3548:3612   */\n      tag_303\n        /* \"#utility.yul\":3604:3611   */\n      dup5\n        /* \"#utility.yul\":3595:3601   */\n      dup3\n        /* \"#utility.yul\":3584:3593   */\n      dup6\n        /* \"#utility.yul\":3580:3602   */\n      add\n        /* \"#utility.yul\":3548:3612   */\n      tag_209\n      jump\t// in\n    tag_303:\n        /* \"#utility.yul\":3538:3612   */\n      swap2\n      pop\n        /* \"#utility.yul\":3494:3622   */\n      pop\n        /* \"#utility.yul\":3278:3629   */\n      swap3\n      swap2\n      pop\n      pop\n      jump\t// out\n        /* \"#utility.yul\":3635:3753   */\n    tag_210:\n        /* \"#utility.yul\":3722:3746   */\n      tag_305\n        /* \"#utility.yul\":3740:3745   */\n      dup2\n        /* \"#utility.yul\":3722:3746   */\n      tag_197\n      jump\t// in\n    tag_305:\n        /* \"#utility.yul\":3717:3720   */\n      dup3\n        /* \"#utility.yul\":3710:3747   */\n      mstore\n        /* \"#utility.yul\":3635:3753   */\n      pop\n      pop\n      jump\t// out\n        /* \"#utility.yul\":3759:3981   */\n    tag_47:\n        /* \"#utility.yul\":3852:3856   */\n      0x00\n        /* \"#utility.yul\":3890:3892   */\n      0x20\n        /* \"#utility.yul\":3879:3888   */\n      dup3\n        /* \"#utility.yul\":3875:3893   */\n      add\n        /* \"#utility.yul\":3867:3893   */\n      swap1\n      pop\n        /* \"#utility.yul\":3903:3974   */\n      tag_307\n        /* \"#utility.yul\":3971:3972   */\n      0x00\n        /* \"#utility.yul\":3960:3969   */\n      dup4\n        /* \"#utility.yul\":3956:3973   */\n      add\n        /* \"#utility.yul\":3947:3953   */\n      dup5\n        /* \"#utility.yul\":3903:3974   */\n      tag_210\n      jump\t// in\n    tag_307:\n        /* \"#utility.yul\":3759:3981   */\n      swap3\n      swap2\n      pop\n      pop\n      jump\t// out\n        /* \"#utility.yul\":3987:4104   */\n    tag_211:\n        /* \"#utility.yul\":4096:4097   */\n      0x00\n        /* \"#utility.yul\":4093:4094   */\n      0x00\n        /* \"#utility.yul\":4086:4098   */\n      revert\n        /* \"#utility.yul\":4110:4212   */\n    tag_212:\n        /* \"#utility.yul\":4151:4157   */\n      0x00\n        /* \"#utility.yul\":4202:4204   */\n      0x1f\n        /* \"#utility.yul\":4198:4205   */\n      not\n        /* \"#utility.yul\":4193:4195   */\n      0x1f\n        /* \"#utility.yul\":4186:4191   */\n      dup4\n        /* \"#utility.yul\":4182:4196   */\n      add\n        /* \"#utility.yul\":4178:4206   */\n      and\n        /* \"#utility.yul\":4168:4206   */\n      swap1\n      pop\n        /* \"#utility.yul\":4110:4212   */\n      swap2\n      swap1\n      pop\n      jump\t// out\n        /* \"#utility.yul\":4218:4398   */\n    tag_213:\n        /* \"#utility.yul\":4266:4343   */\n      0x4e487b7100000000000000000000000000000000000000000000000000000000\n        /* \"#utility.yul\":4263:4264   */\n      0x00\n        /* \"#utility.yul\":4256:4344   */\n      mstore\n        /* \"#utility.yul\":4363:4367   */\n      0x41\n        /* \"#utility.yul\":4360:4361   */\n      0x04\n        /* \"#utility.yul\":4353:4368   */\n      mstore\n        /* \"#utility.yul\":4387:4391   */\n      0x24\n        /* \"#utility.yul\":4384:4385   */\n      0x00\n        /* \"#utility.yul\":4377:4392   */\n      revert\n        /* \"#utility.yul\":4404:4685   */\n    tag_214:\n        /* \"#utility.yul\":4487:4514   */\n      tag_312\n        /* \"#utility.yul\":4509:4513   */\n      dup3\n        /* \"#utility.yul\":4487:4514   */\n      tag_212\n      jump\t// in\n    tag_312:\n        /* \"#utility.yul\":4479:4485   */\n      dup2\n        /* \"#utility.yul\":4475:4515   */\n      add\n        /* \"#utility.yul\":4617:4623   */\n      dup2\n        /* \"#utility.yul\":4605:4615   */\n      dup2\n        /* \"#utility.yul\":4602:4624   */\n      lt\n        /* \"#utility.yul\":4581:4599   */\n      0xffffffffffffffff\n        /* \"#utility.yul\":4569:4579   */\n      dup3\n        /* \"#utility.yul\":4566:4600   */\n      gt\n        /* \"#utility.yul\":4563:4625   */\n      or\n        /* \"#utility.yul\":4560:4648   */\n      iszero\n      tag_313\n      jumpi\n        /* \"#utility.yul\":4628:4646   */\n      tag_314\n      tag_213\n      jump\t// in\n    tag_314:\n        /* \"#utility.yul\":4560:4648   */\n    tag_313:\n        /* \"#utility.yul\":4668:4678   */\n      dup1\n        /* \"#utility.yul\":4664:4666   */\n      0x40\n        /* \"#utility.yul\":4657:4679   */\n      mstore\n        /* \"#utility.yul\":4447:4685   */\n      pop\n        /* \"#utility.yul\":4404:4685   */\n      pop\n      pop\n      jump\t// out\n        /* \"#utility.yul\":4691:4820   */\n    tag_215:\n        /* \"#utility.yul\":4725:4731   */\n      0x00\n        /* \"#utility.yul\":4752:4772   */\n      tag_316\n      tag_194\n      jump\t// in\n    tag_316:\n        /* \"#utility.yul\":4742:4772   */\n      swap1\n      pop\n        /* \"#utility.yul\":4781:4814   */\n      tag_317\n        /* \"#utility.yul\":4809:4813   */\n      dup3\n        /* \"#utility.yul\":4801:4807   */\n      dup3\n        /* \"#utility.yul\":4781:4814   */\n      tag_214\n      jump\t// in\n    tag_317:\n        /* \"#utility.yul\":4691:4820   */\n      swap2\n      swap1\n      pop\n      jump\t// out\n        /* \"#utility.yul\":4949:5092   */\n    tag_217:\n        /* \"#utility.yul\":5006:5011   */\n      0x00\n        /* \"#utility.yul\":5037:5043   */\n      dup2\n        /* \"#utility.yul\":5031:5044   */\n      mload\n        /* \"#utility.yul\":5022:5044   */\n      swap1\n      pop\n        /* \"#utility.yul\":5053:5086   */\n      tag_320\n        /* \"#utility.yul\":5080:5085   */\n      dup2\n        /* \"#utility.yul\":5053:5086   */\n      tag_198\n      jump\t// in\n    tag_320:\n        /* \"#utility.yul\":4949:5092   */\n      swap3\n      swap2\n      pop\n      pop\n      jump\t// out\n        /* \"#utility.yul\":5098:5263   */\n    tag_218:\n        /* \"#utility.yul\":5166:5171   */\n      0x00\n        /* \"#utility.yul\":5197:5203   */\n      dup2\n        /* \"#utility.yul\":5191:5204   */\n      mload\n        /* \"#utility.yul\":5182:5204   */\n      swap1\n      pop\n        /* \"#utility.yul\":5213:5257   */\n      tag_322\n        /* \"#utility.yul\":5251:5256   */\n      dup2\n        /* \"#utility.yul\":5213:5257   */\n      tag_208\n      jump\t// in\n    tag_322:\n        /* \"#utility.yul\":5098:5263   */\n      swap3\n      swap2\n      pop\n      pop\n      jump\t// out\n        /* \"#utility.yul\":5269:5359   */\n    tag_219:\n        /* \"#utility.yul\":5303:5310   */\n      0x00\n        /* \"#utility.yul\":5346:5351   */\n      dup2\n        /* \"#utility.yul\":5339:5352   */\n      iszero\n        /* \"#utility.yul\":5332:5353   */\n      iszero\n        /* \"#utility.yul\":5321:5353   */\n      swap1\n      pop\n        /* \"#utility.yul\":5269:5359   */\n      swap2\n      swap1\n      pop\n      jump\t// out\n        /* \"#utility.yul\":5365:5481   */\n    tag_220:\n        /* \"#utility.yul\":5435:5456   */\n      tag_325\n        /* \"#utility.yul\":5450:5455   */\n      dup2\n        /* \"#utility.yul\":5435:5456   */\n      tag_219\n      jump\t// in\n    tag_325:\n        /* \"#utility.yul\":5428:5433   */\n      dup2\n        /* \"#utility.yul\":5425:5457   */\n      eq\n        /* \"#utility.yul\":5415:5475   */\n      tag_326\n      jumpi\n        /* \"#utility.yul\":5471:5472   */\n      0x00\n        /* \"#utility.yul\":5468:5469   */\n      0x00\n        /* \"#utility.yul\":5461:5473   */\n      revert\n        /* \"#utility.yul\":5415:5475   */\n    tag_326:\n        /* \"#utility.yul\":5365:5481   */\n      pop\n      jump\t// out\n        /* \"#utility.yul\":5487:5624   */\n    tag_221:\n        /* \"#utility.yul\":5541:5546   */\n      0x00\n        /* \"#utility.yul\":5572:5578   */\n      dup2\n        /* \"#utility.yul\":5566:5579   */\n      mload\n        /* \"#utility.yul\":5557:5579   */\n      swap1\n      pop\n        /* \"#utility.yul\":5588:5618   */\n      tag_328\n        /* \"#utility.yul\":5612:5617   */\n      dup2\n        /* \"#utility.yul\":5588:5618   */\n      tag_220\n      jump\t// in\n    tag_328:\n        /* \"#utility.yul\":5487:5624   */\n      swap3\n      swap2\n      pop\n      pop\n      jump\t// out\n        /* \"#utility.yul\":5658:7164   */\n    tag_222:\n        /* \"#utility.yul\":5743:5748   */\n      0x00\n        /* \"#utility.yul\":5787:5791   */\n      0xe0\n        /* \"#utility.yul\":5775:5784   */\n      dup3\n        /* \"#utility.yul\":5770:5773   */\n      dup5\n        /* \"#utility.yul\":5766:5785   */\n      sub\n        /* \"#utility.yul\":5762:5792   */\n      slt\n        /* \"#utility.yul\":5759:5876   */\n      iszero\n      tag_330\n      jumpi\n        /* \"#utility.yul\":5795:5874   */\n      tag_331\n      tag_211\n      jump\t// in\n    tag_331:\n        /* \"#utility.yul\":5759:5876   */\n    tag_330:\n        /* \"#utility.yul\":5894:5915   */\n      tag_332\n        /* \"#utility.yul\":5910:5914   */\n      0xe0\n        /* \"#utility.yul\":5894:5915   */\n      tag_215\n      jump\t// in\n    tag_332:\n        /* \"#utility.yul\":5885:5915   */\n      swap1\n      pop\n        /* \"#utility.yul\":5973:5974   */\n      0x00\n        /* \"#utility.yul\":6013:6073   */\n      tag_333\n        /* \"#utility.yul\":6069:6072   */\n      dup5\n        /* \"#utility.yul\":6060:6066   */\n      dup3\n        /* \"#utility.yul\":6049:6058   */\n      dup6\n        /* \"#utility.yul\":6045:6067   */\n      add\n        /* \"#utility.yul\":6013:6073   */\n      tag_217\n      jump\t// in\n    tag_333:\n        /* \"#utility.yul\":6006:6010   */\n      0x00\n        /* \"#utility.yul\":5999:6004   */\n      dup4\n        /* \"#utility.yul\":5995:6011   */\n      add\n        /* \"#utility.yul\":5988:6074   */\n      mstore\n        /* \"#utility.yul\":5925:6085   */\n      pop\n        /* \"#utility.yul\":6146:6148   */\n      0x20\n        /* \"#utility.yul\":6187:6247   */\n      tag_334\n        /* \"#utility.yul\":6243:6246   */\n      dup5\n        /* \"#utility.yul\":6234:6240   */\n      dup3\n        /* \"#utility.yul\":6223:6232   */\n      dup6\n        /* \"#utility.yul\":6219:6241   */\n      add\n        /* \"#utility.yul\":6187:6247   */\n      tag_217\n      jump\t// in\n    tag_334:\n        /* \"#utility.yul\":6180:6184   */\n      0x20\n        /* \"#utility.yul\":6173:6178   */\n      dup4\n        /* \"#utility.yul\":6169:6185   */\n      add\n        /* \"#utility.yul\":6162:6248   */\n      mstore\n        /* \"#utility.yul\":6095:6259   */\n      pop\n        /* \"#utility.yul\":6320:6322   */\n      0x40\n        /* \"#utility.yul\":6361:6421   */\n      tag_335\n        /* \"#utility.yul\":6417:6420   */\n      dup5\n        /* \"#utility.yul\":6408:6414   */\n      dup3\n        /* \"#utility.yul\":6397:6406   */\n      dup6\n        /* \"#utility.yul\":6393:6415   */\n      add\n        /* \"#utility.yul\":6361:6421   */\n      tag_217\n      jump\t// in\n    tag_335:\n        /* \"#utility.yul\":6354:6358   */\n      0x40\n        /* \"#utility.yul\":6347:6352   */\n      dup4\n        /* \"#utility.yul\":6343:6359   */\n      add\n        /* \"#utility.yul\":6336:6422   */\n      mstore\n        /* \"#utility.yul\":6269:6433   */\n      pop\n        /* \"#utility.yul\":6495:6497   */\n      0x60\n        /* \"#utility.yul\":6536:6607   */\n      tag_336\n        /* \"#utility.yul\":6603:6606   */\n      dup5\n        /* \"#utility.yul\":6594:6600   */\n      dup3\n        /* \"#utility.yul\":6583:6592   */\n      dup6\n        /* \"#utility.yul\":6579:6601   */\n      add\n        /* \"#utility.yul\":6536:6607   */\n      tag_218\n      jump\t// in\n    tag_336:\n        /* \"#utility.yul\":6529:6533   */\n      0x60\n        /* \"#utility.yul\":6522:6527   */\n      dup4\n        /* \"#utility.yul\":6518:6534   */\n      add\n        /* \"#utility.yul\":6511:6608   */\n      mstore\n        /* \"#utility.yul\":6443:6619   */\n      pop\n        /* \"#utility.yul\":6688:6691   */\n      0x80\n        /* \"#utility.yul\":6730:6790   */\n      tag_337\n        /* \"#utility.yul\":6786:6789   */\n      dup5\n        /* \"#utility.yul\":6777:6783   */\n      dup3\n        /* \"#utility.yul\":6766:6775   */\n      dup6\n        /* \"#utility.yul\":6762:6784   */\n      add\n        /* \"#utility.yul\":6730:6790   */\n      tag_217\n      jump\t// in\n    tag_337:\n        /* \"#utility.yul\":6723:6727   */\n      0x80\n        /* \"#utility.yul\":6716:6721   */\n      dup4\n        /* \"#utility.yul\":6712:6728   */\n      add\n        /* \"#utility.yul\":6705:6791   */\n      mstore\n        /* \"#utility.yul\":6629:6802   */\n      pop\n        /* \"#utility.yul\":6863:6866   */\n      0xa0\n        /* \"#utility.yul\":6905:6962   */\n      tag_338\n        /* \"#utility.yul\":6958:6961   */\n      dup5\n        /* \"#utility.yul\":6949:6955   */\n      dup3\n        /* \"#utility.yul\":6938:6947   */\n      dup6\n        /* \"#utility.yul\":6934:6956   */\n      add\n        /* \"#utility.yul\":6905:6962   */\n      tag_221\n      jump\t// in\n    tag_338:\n        /* \"#utility.yul\":6898:6902   */\n      0xa0\n        /* \"#utility.yul\":6891:6896   */\n      dup4\n        /* \"#utility.yul\":6887:6903   */\n      add\n        /* \"#utility.yul\":6880:6963   */\n      mstore\n        /* \"#utility.yul\":6812:6974   */\n      pop\n        /* \"#utility.yul\":7043:7046   */\n      0xc0\n        /* \"#utility.yul\":7085:7145   */\n      tag_339\n        /* \"#utility.yul\":7141:7144   */\n      dup5\n        /* \"#utility.yul\":7132:7138   */\n      dup3\n        /* \"#utility.yul\":7121:7130   */\n      dup6\n        /* \"#utility.yul\":7117:7139   */\n      add\n        /* \"#utility.yul\":7085:7145   */\n      tag_217\n      jump\t// in\n    tag_339:\n        /* \"#utility.yul\":7078:7082   */\n      0xc0\n        /* \"#utility.yul\":7071:7076   */\n      dup4\n        /* \"#utility.yul\":7067:7083   */\n      add\n        /* \"#utility.yul\":7060:7146   */\n      mstore\n        /* \"#utility.yul\":6984:7157   */\n      pop\n        /* \"#utility.yul\":5658:7164   */\n      swap3\n      swap2\n      pop\n      pop\n      jump\t// out\n        /* \"#utility.yul\":7170:7572   */\n    tag_51:\n        /* \"#utility.yul\":7265:7271   */\n      0x00\n        /* \"#utility.yul\":7314:7317   */\n      0xe0\n        /* \"#utility.yul\":7302:7311   */\n      dup3\n        /* \"#utility.yul\":7293:7300   */\n      dup5\n        /* \"#utility.yul\":7289:7312   */\n      sub\n        /* \"#utility.yul\":7285:7318   */\n      slt\n        /* \"#utility.yul\":7282:7402   */\n      iszero\n      tag_341\n      jumpi\n        /* \"#utility.yul\":7321:7400   */\n      tag_342\n      tag_195\n      jump\t// in\n    tag_342:\n        /* \"#utility.yul\":7282:7402   */\n    tag_341:\n        /* \"#utility.yul\":7441:7442   */\n      0x00\n        /* \"#utility.yul\":7466:7555   */\n      tag_343\n        /* \"#utility.yul\":7547:7554   */\n      dup5\n        /* \"#utility.yul\":7538:7544   */\n      dup3\n        /* \"#utility.yul\":7527:7536   */\n      dup6\n        /* \"#utility.yul\":7523:7545   */\n      add\n        /* \"#utility.yul\":7466:7555   */\n      tag_222\n      jump\t// in\n    tag_343:\n        /* \"#utility.yul\":7456:7555   */\n      swap2\n      pop\n        /* \"#utility.yul\":7412:7565   */\n      pop\n        /* \"#utility.yul\":7170:7572   */\n      swap3\n      swap2\n      pop\n      pop\n      jump\t// out\n        /* \"#utility.yul\":7578:7747   */\n    tag_223:\n        /* \"#utility.yul\":7662:7673   */\n      0x00\n        /* \"#utility.yul\":7696:7702   */\n      dup3\n        /* \"#utility.yul\":7691:7694   */\n      dup3\n        /* \"#utility.yul\":7684:7703   */\n      mstore\n        /* \"#utility.yul\":7736:7740   */\n      0x20\n        /* \"#utility.yul\":7731:7734   */\n      dup3\n        /* \"#utility.yul\":7727:7741   */\n      add\n        /* \"#utility.yul\":7712:7741   */\n      swap1\n      pop\n        /* \"#utility.yul\":7578:7747   */\n      swap3\n      swap2\n      pop\n      pop\n      jump\t// out\n        /* \"#utility.yul\":7753:7919   */\n    tag_224:\n        /* \"#utility.yul\":7893:7911   */\n      0x42697264206973206e6f74206465616400000000000000000000000000000000\n        /* \"#utility.yul\":7889:7890   */\n      0x00\n        /* \"#utility.yul\":7881:7887   */\n      dup3\n        /* \"#utility.yul\":7877:7891   */\n      add\n        /* \"#utility.yul\":7870:7912   */\n      mstore\n        /* \"#utility.yul\":7753:7919   */\n      pop\n      jump\t// out\n        /* \"#utility.yul\":7925:8291   */\n    tag_225:\n        /* \"#utility.yul\":8067:8070   */\n      0x00\n        /* \"#utility.yul\":8088:8155   */\n      tag_347\n        /* \"#utility.yul\":8152:8154   */\n      0x10\n        /* \"#utility.yul\":8147:8150   */\n      dup4\n        /* \"#utility.yul\":8088:8155   */\n      tag_223\n      jump\t// in\n    tag_347:\n        /* \"#utility.yul\":8081:8155   */\n      swap2\n      pop\n        /* \"#utility.yul\":8164:8257   */\n      tag_348\n        /* \"#utility.yul\":8253:8256   */\n      dup3\n        /* \"#utility.yul\":8164:8257   */\n      tag_224\n      jump\t// in\n    tag_348:\n        /* \"#utility.yul\":8282:8284   */\n      0x20\n        /* \"#utility.yul\":8277:8280   */\n      dup3\n        /* \"#utility.yul\":8273:8285   */\n      add\n        /* \"#utility.yul\":8266:8285   */\n      swap1\n      pop\n        /* \"#utility.yul\":7925:8291   */\n      swap2\n      swap1\n      pop\n      jump\t// out\n        /* \"#utility.yul\":8297:8716   */\n    tag_54:\n        /* \"#utility.yul\":8463:8467   */\n      0x00\n        /* \"#utility.yul\":8501:8503   */\n      0x20\n        /* \"#utility.yul\":8490:8499   */\n      dup3\n        /* \"#utility.yul\":8486:8504   */\n      add\n        /* \"#utility.yul\":8478:8504   */\n      swap1\n      pop\n        /* \"#utility.yul\":8550:8559   */\n      dup2\n        /* \"#utility.yul\":8544:8548   */\n      dup2\n        /* \"#utility.yul\":8540:8560   */\n      sub\n        /* \"#utility.yul\":8536:8537   */\n      0x00\n        /* \"#utility.yul\":8525:8534   */\n      dup4\n        /* \"#utility.yul\":8521:8538   */\n      add\n        /* \"#utility.yul\":8514:8561   */\n      mstore\n        /* \"#utility.yul\":8578:8709   */\n      tag_350\n        /* \"#utility.yul\":8704:8708   */\n      dup2\n        /* \"#utility.yul\":8578:8709   */\n      tag_225\n      jump\t// in\n    tag_350:\n        /* \"#utility.yul\":8570:8709   */\n      swap1\n      pop\n        /* \"#utility.yul\":8297:8716   */\n      swap2\n      swap1\n      pop\n      jump\t// out\n        /* \"#utility.yul\":8722:8902   */\n    tag_226:\n        /* \"#utility.yul\":8770:8847   */\n      0x4e487b7100000000000000000000000000000000000000000000000000000000\n        /* \"#utility.yul\":8767:8768   */\n      0x00\n        /* \"#utility.yul\":8760:8848   */\n      mstore\n        /* \"#utility.yul\":8867:8871   */\n      0x11\n        /* \"#utility.yul\":8864:8865   */\n      0x04\n        /* \"#utility.yul\":8857:8872   */\n      mstore\n        /* \"#utility.yul\":8891:8895   */\n      0x24\n        /* \"#utility.yul\":8888:8889   */\n      0x00\n        /* \"#utility.yul\":8881:8896   */\n      revert\n        /* \"#utility.yul\":8908:9318   */\n    tag_58:\n        /* \"#utility.yul\":8948:8955   */\n      0x00\n        /* \"#utility.yul\":8971:8991   */\n      tag_353\n        /* \"#utility.yul\":8989:8990   */\n      dup3\n        /* \"#utility.yul\":8971:8991   */\n      tag_197\n      jump\t// in\n    tag_353:\n        /* \"#utility.yul\":8966:8991   */\n      swap2\n      pop\n        /* \"#utility.yul\":9005:9025   */\n      tag_354\n        /* \"#utility.yul\":9023:9024   */\n      dup4\n        /* \"#utility.yul\":9005:9025   */\n      tag_197\n      jump\t// in\n    tag_354:\n        /* \"#utility.yul\":9000:9025   */\n      swap3\n      pop\n        /* \"#utility.yul\":9060:9061   */\n      dup3\n        /* \"#utility.yul\":9057:9058   */\n      dup3\n        /* \"#utility.yul\":9053:9062   */\n      mul\n        /* \"#utility.yul\":9082:9112   */\n      tag_355\n        /* \"#utility.yul\":9100:9111   */\n      dup2\n        /* \"#utility.yul\":9082:9112   */\n      tag_197\n      jump\t// in\n    tag_355:\n        /* \"#utility.yul\":9071:9112   */\n      swap2\n      pop\n        /* \"#utility.yul\":9261:9262   */\n      dup3\n        /* \"#utility.yul\":9252:9259   */\n      dup3\n        /* \"#utility.yul\":9248:9263   */\n      div\n        /* \"#utility.yul\":9245:9246   */\n      dup5\n        /* \"#utility.yul\":9242:9264   */\n      eq\n        /* \"#utility.yul\":9222:9223   */\n      dup4\n        /* \"#utility.yul\":9215:9224   */\n      iszero\n        /* \"#utility.yul\":9195:9278   */\n      or\n        /* \"#utility.yul\":9172:9311   */\n      tag_356\n      jumpi\n        /* \"#utility.yul\":9291:9309   */\n      tag_357\n      tag_226\n      jump\t// in\n    tag_357:\n        /* \"#utility.yul\":9172:9311   */\n    tag_356:\n        /* \"#utility.yul\":8956:9318   */\n      pop\n        /* \"#utility.yul\":8908:9318   */\n      swap3\n      swap2\n      pop\n      pop\n      jump\t// out\n        /* \"#utility.yul\":9324:9518   */\n    tag_60:\n        /* \"#utility.yul\":9364:9368   */\n      0x00\n        /* \"#utility.yul\":9384:9404   */\n      tag_359\n        /* \"#utility.yul\":9402:9403   */\n      dup3\n        /* \"#utility.yul\":9384:9404   */\n      tag_197\n      jump\t// in\n    tag_359:\n        /* \"#utility.yul\":9379:9404   */\n      swap2\n      pop\n        /* \"#utility.yul\":9418:9438   */\n      tag_360\n        /* \"#utility.yul\":9436:9437   */\n      dup4\n        /* \"#utility.yul\":9418:9438   */\n      tag_197\n      jump\t// in\n    tag_360:\n        /* \"#utility.yul\":9413:9438   */\n      swap3\n      pop\n        /* \"#utility.yul\":9462:9463   */\n      dup3\n        /* \"#utility.yul\":9459:9460   */\n      dup3\n        /* \"#utility.yul\":9455:9464   */\n      sub\n        /* \"#utility.yul\":9447:9464   */\n      swap1\n      pop\n        /* \"#utility.yul\":9486:9487   */\n      dup2\n        /* \"#utility.yul\":9480:9484   */\n      dup2\n        /* \"#utility.yul\":9477:9488   */\n      gt\n        /* \"#utility.yul\":9474:9511   */\n      iszero\n      tag_361\n      jumpi\n        /* \"#utility.yul\":9491:9509   */\n      tag_362\n      tag_226\n      jump\t// in\n    tag_362:\n        /* \"#utility.yul\":9474:9511   */\n    tag_361:\n        /* \"#utility.yul\":9324:9518   */\n      swap3\n      swap2\n      pop\n      pop\n      jump\t// out\n        /* \"#utility.yul\":9524:9704   */\n    tag_227:\n        /* \"#utility.yul\":9572:9649   */\n      0x4e487b7100000000000000000000000000000000000000000000000000000000\n        /* \"#utility.yul\":9569:9570   */\n      0x00\n        /* \"#utility.yul\":9562:9650   */\n      mstore\n        /* \"#utility.yul\":9669:9673   */\n      0x12\n        /* \"#utility.yul\":9666:9667   */\n      0x04\n        /* \"#utility.yul\":9659:9674   */\n      mstore\n        /* \"#utility.yul\":9693:9697   */\n      0x24\n        /* \"#utility.yul\":9690:9691   */\n      0x00\n        /* \"#utility.yul\":9683:9698   */\n      revert\n        /* \"#utility.yul\":9710:9895   */\n    tag_62:\n        /* \"#utility.yul\":9750:9751   */\n      0x00\n        /* \"#utility.yul\":9767:9787   */\n      tag_365\n        /* \"#utility.yul\":9785:9786   */\n      dup3\n        /* \"#utility.yul\":9767:9787   */\n      tag_197\n      jump\t// in\n    tag_365:\n        /* \"#utility.yul\":9762:9787   */\n      swap2\n      pop\n        /* \"#utility.yul\":9801:9821   */\n      tag_366\n        /* \"#utility.yul\":9819:9820   */\n      dup4\n        /* \"#utility.yul\":9801:9821   */\n      tag_197\n      jump\t// in\n    tag_366:\n        /* \"#utility.yul\":9796:9821   */\n      swap3\n      pop\n        /* \"#utility.yul\":9840:9841   */\n      dup3\n        /* \"#utility.yul\":9830:9865   */\n      tag_367\n      jumpi\n        /* \"#utility.yul\":9845:9863   */\n      tag_368\n      tag_227\n      jump\t// in\n    tag_368:\n        /* \"#utility.yul\":9830:9865   */\n    tag_367:\n        /* \"#utility.yul\":9887:9888   */\n      dup3\n        /* \"#utility.yul\":9884:9885   */\n      dup3\n        /* \"#utility.yul\":9880:9889   */\n      div\n        /* \"#utility.yul\":9875:9889   */\n      swap1\n      pop\n        /* \"#utility.yul\":9710:9895   */\n      swap3\n      swap2\n      pop\n      pop\n      jump\t// out\n        /* \"#utility.yul\":9901:10092   */\n    tag_66:\n        /* \"#utility.yul\":9941:9944   */\n      0x00\n        /* \"#utility.yul\":9960:9980   */\n      tag_370\n        /* \"#utility.yul\":9978:9979   */\n      dup3\n        /* \"#utility.yul\":9960:9980   */\n      tag_197\n      jump\t// in\n    tag_370:\n        /* \"#utility.yul\":9955:9980   */\n      swap2\n      pop\n        /* \"#utility.yul\":9994:10014   */\n      tag_371\n        /* \"#utility.yul\":10012:10013   */\n      dup4\n        /* \"#utility.yul\":9994:10014   */\n      tag_197\n      jump\t// in\n    tag_371:\n        /* \"#utility.yul\":9989:10014   */\n      swap3\n      pop\n        /* \"#utility.yul\":10037:10038   */\n      dup3\n        /* \"#utility.yul\":10034:10035   */\n      dup3\n        /* \"#utility.yul\":10030:10039   */\n      add\n        /* \"#utility.yul\":10023:10039   */\n      swap1\n      pop\n        /* \"#utility.yul\":10058:10061   */\n      dup1\n        /* \"#utility.yul\":10055:10056   */\n      dup3\n        /* \"#utility.yul\":10052:10062   */\n      gt\n        /* \"#utility.yul\":10049:10085   */\n      iszero\n      tag_372\n      jumpi\n        /* \"#utility.yul\":10065:10083   */\n      tag_373\n      tag_226\n      jump\t// in\n    tag_373:\n        /* \"#utility.yul\":10049:10085   */\n    tag_372:\n        /* \"#utility.yul\":9901:10092   */\n      swap3\n      swap2\n      pop\n      pop\n      jump\t// out\n        /* \"#utility.yul\":10098:10319   */\n    tag_228:\n        /* \"#utility.yul\":10238:10272   */\n      0x4e6f7420656e6f7567682045544820746f207265766976652074686973206269\n        /* \"#utility.yul\":10234:10235   */\n      0x00\n        /* \"#utility.yul\":10226:10232   */\n      dup3\n        /* \"#utility.yul\":10222:10236   */\n      add\n        /* \"#utility.yul\":10215:10273   */\n      mstore\n        /* \"#utility.yul\":10307:10311   */\n      0x7264000000000000000000000000000000000000000000000000000000000000\n        /* \"#utility.yul\":10302:10304   */\n      0x20\n        /* \"#utility.yul\":10294:10300   */\n      dup3\n        /* \"#utility.yul\":10290:10305   */\n      add\n        /* \"#utility.yul\":10283:10312   */\n      mstore\n        /* \"#utility.yul\":10098:10319   */\n      pop\n      jump\t// out\n        /* \"#utility.yul\":10325:10691   */\n    tag_229:\n        /* \"#utility.yul\":10467:10470   */\n      0x00\n        /* \"#utility.yul\":10488:10555   */\n      tag_376\n        /* \"#utility.yul\":10552:10554   */\n      0x22\n        /* \"#utility.yul\":10547:10550   */\n      dup4\n        /* \"#utility.yul\":10488:10555   */\n      tag_223\n      jump\t// in\n    tag_376:\n        /* \"#utility.yul\":10481:10555   */\n      swap2\n      pop\n        /* \"#utility.yul\":10564:10657   */\n      tag_377\n        /* \"#utility.yul\":10653:10656   */\n      dup3\n        /* \"#utility.yul\":10564:10657   */\n      tag_228\n      jump\t// in\n    tag_377:\n        /* \"#utility.yul\":10682:10684   */\n      0x40\n        /* \"#utility.yul\":10677:10680   */\n      dup3\n        /* \"#utility.yul\":10673:10685   */\n      add\n        /* \"#utility.yul\":10666:10685   */\n      swap1\n      pop\n        /* \"#utility.yul\":10325:10691   */\n      swap2\n      swap1\n      pop\n      jump\t// out\n        /* \"#utility.yul\":10697:11116   */\n    tag_69:\n        /* \"#utility.yul\":10863:10867   */\n      0x00\n        /* \"#utility.yul\":10901:10903   */\n      0x20\n        /* \"#utility.yul\":10890:10899   */\n      dup3\n        /* \"#utility.yul\":10886:10904   */\n      add\n        /* \"#utility.yul\":10878:10904   */\n      swap1\n      pop\n        /* \"#utility.yul\":10950:10959   */\n      dup2\n        /* \"#utility.yul\":10944:10948   */\n      dup2\n        /* \"#utility.yul\":10940:10960   */\n      sub\n        /* \"#utility.yul\":10936:10937   */\n      0x00\n        /* \"#utility.yul\":10925:10934   */\n      dup4\n        /* \"#utility.yul\":10921:10938   */\n      add\n        /* \"#utility.yul\":10914:10961   */\n      mstore\n        /* \"#utility.yul\":10978:11109   */\n      tag_379\n        /* \"#utility.yul\":11104:11108   */\n      dup2\n        /* \"#utility.yul\":10978:11109   */\n      tag_229\n      jump\t// in\n    tag_379:\n        /* \"#utility.yul\":10970:11109   */\n      swap1\n      pop\n        /* \"#utility.yul\":10697:11116   */\n      swap2\n      swap1\n      pop\n      jump\t// out\n        /* \"#utility.yul\":11122:11294   */\n    tag_230:\n        /* \"#utility.yul\":11262:11286   */\n      0x4e6f7420656e6f7567682045544820746f206665656400000000000000000000\n        /* \"#utility.yul\":11258:11259   */\n      0x00\n        /* \"#utility.yul\":11250:11256   */\n      dup3\n        /* \"#utility.yul\":11246:11260   */\n      add\n        /* \"#utility.yul\":11239:11287   */\n      mstore\n        /* \"#utility.yul\":11122:11294   */\n      pop\n      jump\t// out\n        /* \"#utility.yul\":11300:11666   */\n    tag_231:\n        /* \"#utility.yul\":11442:11445   */\n      0x00\n        /* \"#utility.yul\":11463:11530   */\n      tag_382\n        /* \"#utility.yul\":11527:11529   */\n      0x16\n        /* \"#utility.yul\":11522:11525   */\n      dup4\n        /* \"#utility.yul\":11463:11530   */\n      tag_223\n      jump\t// in\n    tag_382:\n        /* \"#utility.yul\":11456:11530   */\n      swap2\n      pop\n        /* \"#utility.yul\":11539:11632   */\n      tag_383\n        /* \"#utility.yul\":11628:11631   */\n      dup3\n        /* \"#utility.yul\":11539:11632   */\n      tag_230\n      jump\t// in\n    tag_383:\n        /* \"#utility.yul\":11657:11659   */\n      0x20\n        /* \"#utility.yul\":11652:11655   */\n      dup3\n        /* \"#utility.yul\":11648:11660   */\n      add\n        /* \"#utility.yul\":11641:11660   */\n      swap1\n      pop\n        /* \"#utility.yul\":11300:11666   */\n      swap2\n      swap1\n      pop\n      jump\t// out\n        /* \"#utility.yul\":11672:12091   */\n    tag_78:\n        /* \"#utility.yul\":11838:11842   */\n      0x00\n        /* \"#utility.yul\":11876:11878   */\n      0x20\n        /* \"#utility.yul\":11865:11874   */\n      dup3\n        /* \"#utility.yul\":11861:11879   */\n      add\n        /* \"#utility.yul\":11853:11879   */\n      swap1\n      pop\n        /* \"#utility.yul\":11925:11934   */\n      dup2\n        /* \"#utility.yul\":11919:11923   */\n      dup2\n        /* \"#utility.yul\":11915:11935   */\n      sub\n        /* \"#utility.yul\":11911:11912   */\n      0x00\n        /* \"#utility.yul\":11900:11909   */\n      dup4\n        /* \"#utility.yul\":11896:11913   */\n      add\n        /* \"#utility.yul\":11889:11936   */\n      mstore\n        /* \"#utility.yul\":11953:12084   */\n      tag_385\n        /* \"#utility.yul\":12079:12083   */\n      dup2\n        /* \"#utility.yul\":11953:12084   */\n      tag_231\n      jump\t// in\n    tag_385:\n        /* \"#utility.yul\":11945:12084   */\n      swap1\n      pop\n        /* \"#utility.yul\":11672:12091   */\n      swap2\n      swap1\n      pop\n      jump\t// out\n        /* \"#utility.yul\":12097:12429   */\n    tag_80:\n        /* \"#utility.yul\":12218:12222   */\n      0x00\n        /* \"#utility.yul\":12256:12258   */\n      0x40\n        /* \"#utility.yul\":12245:12254   */\n      dup3\n        /* \"#utility.yul\":12241:12259   */\n      add\n        /* \"#utility.yul\":12233:12259   */\n      swap1\n      pop\n        /* \"#utility.yul\":12269:12340   */\n      tag_387\n        /* \"#utility.yul\":12337:12338   */\n      0x00\n        /* \"#utility.yul\":12326:12335   */\n      dup4\n        /* \"#utility.yul\":12322:12339   */\n      add\n        /* \"#utility.yul\":12313:12319   */\n      dup6\n        /* \"#utility.yul\":12269:12340   */\n      tag_210\n      jump\t// in\n    tag_387:\n        /* \"#utility.yul\":12350:12422   */\n      tag_388\n        /* \"#utility.yul\":12418:12420   */\n      0x20\n        /* \"#utility.yul\":12407:12416   */\n      dup4\n        /* \"#utility.yul\":12403:12421   */\n      add\n        /* \"#utility.yul\":12394:12400   */\n      dup5\n        /* \"#utility.yul\":12350:12422   */\n      tag_210\n      jump\t// in\n    tag_388:\n        /* \"#utility.yul\":12097:12429   */\n      swap4\n      swap3\n      pop\n      pop\n      pop\n      jump\t// out\n        /* \"#utility.yul\":12435:12594   */\n    tag_232:\n        /* \"#utility.yul\":12575:12586   */\n      0x4e6f74206f776e65720000000000000000000000000000000000000000000000\n        /* \"#utility.yul\":12571:12572   */\n      0x00\n        /* \"#utility.yul\":12563:12569   */\n      dup3\n        /* \"#utility.yul\":12559:12573   */\n      add\n        /* \"#utility.yul\":12552:12587   */\n      mstore\n        /* \"#utility.yul\":12435:12594   */\n      pop\n      jump\t// out\n        /* \"#utility.yul\":12600:12965   */\n    tag_233:\n        /* \"#utility.yul\":12742:12745   */\n      0x00\n        /* \"#utility.yul\":12763:12829   */\n      tag_391\n        /* \"#utility.yul\":12827:12828   */\n      0x09\n        /* \"#utility.yul\":12822:12825   */\n      dup4\n        /* \"#utility.yul\":12763:12829   */\n      tag_223\n      jump\t// in\n    tag_391:\n        /* \"#utility.yul\":12756:12829   */\n      swap2\n      pop\n        /* \"#utility.yul\":12838:12931   */\n      tag_392\n        /* \"#utility.yul\":12927:12930   */\n      dup3\n        /* \"#utility.yul\":12838:12931   */\n      tag_232\n      jump\t// in\n    tag_392:\n        /* \"#utility.yul\":12956:12958   */\n      0x20\n        /* \"#utility.yul\":12951:12954   */\n      dup3\n        /* \"#utility.yul\":12947:12959   */\n      add\n        /* \"#utility.yul\":12940:12959   */\n      swap1\n      pop\n        /* \"#utility.yul\":12600:12965   */\n      swap2\n      swap1\n      pop\n      jump\t// out\n        /* \"#utility.yul\":12971:13390   */\n    tag_87:\n        /* \"#utility.yul\":13137:13141   */\n      0x00\n        /* \"#utility.yul\":13175:13177   */\n      0x20\n        /* \"#utility.yul\":13164:13173   */\n      dup3\n        /* \"#utility.yul\":13160:13178   */\n      add\n        /* \"#utility.yul\":13152:13178   */\n      swap1\n      pop\n        /* \"#utility.yul\":13224:13233   */\n      dup2\n        /* \"#utility.yul\":13218:13222   */\n      dup2\n        /* \"#utility.yul\":13214:13234   */\n      sub\n        /* \"#utility.yul\":13210:13211   */\n      0x00\n        /* \"#utility.yul\":13199:13208   */\n      dup4\n        /* \"#utility.yul\":13195:13212   */\n      add\n        /* \"#utility.yul\":13188:13235   */\n      mstore\n        /* \"#utility.yul\":13252:13383   */\n      tag_394\n        /* \"#utility.yul\":13378:13382   */\n      dup2\n        /* \"#utility.yul\":13252:13383   */\n      tag_233\n      jump\t// in\n    tag_394:\n        /* \"#utility.yul\":13244:13383   */\n      swap1\n      pop\n        /* \"#utility.yul\":12971:13390   */\n      swap2\n      swap1\n      pop\n      jump\t// out\n        /* \"#utility.yul\":13396:13618   */\n    tag_234:\n        /* \"#utility.yul\":13536:13570   */\n      0x4e6f7420656e6f7567682045544820746f206d696e7420746869732073706563\n        /* \"#utility.yul\":13532:13533   */\n      0x00\n        /* \"#utility.yul\":13524:13530   */\n      dup3\n        /* \"#utility.yul\":13520:13534   */\n      add\n        /* \"#utility.yul\":13513:13571   */\n      mstore\n        /* \"#utility.yul\":13605:13610   */\n      0x6965730000000000000000000000000000000000000000000000000000000000\n        /* \"#utility.yul\":13600:13602   */\n      0x20\n        /* \"#utility.yul\":13592:13598   */\n      dup3\n        /* \"#utility.yul\":13588:13603   */\n      add\n        /* \"#utility.yul\":13581:13611   */\n      mstore\n        /* \"#utility.yul\":13396:13618   */\n      pop\n      jump\t// out\n        /* \"#utility.yul\":13624:13990   */\n    tag_235:\n        /* \"#utility.yul\":13766:13769   */\n      0x00\n        /* \"#utility.yul\":13787:13854   */\n      tag_397\n        /* \"#utility.yul\":13851:13853   */\n      0x23\n        /* \"#utility.yul\":13846:13849   */\n      dup4\n        /* \"#utility.yul\":13787:13854   */\n      tag_223\n      jump\t// in\n    tag_397:\n        /* \"#utility.yul\":13780:13854   */\n      swap2\n      pop\n        /* \"#utility.yul\":13863:13956   */\n      tag_398\n        /* \"#utility.yul\":13952:13955   */\n      dup3\n        /* \"#utility.yul\":13863:13956   */\n      tag_234\n      jump\t// in\n    tag_398:\n        /* \"#utility.yul\":13981:13983   */\n      0x40\n        /* \"#utility.yul\":13976:13979   */\n      dup3\n        /* \"#utility.yul\":13972:13984   */\n      add\n        /* \"#utility.yul\":13965:13984   */\n      swap1\n      pop\n        /* \"#utility.yul\":13624:13990   */\n      swap2\n      swap1\n      pop\n      jump\t// out\n        /* \"#utility.yul\":13996:14415   */\n    tag_94:\n        /* \"#utility.yul\":14162:14166   */\n      0x00\n        /* \"#utility.yul\":14200:14202   */\n      0x20\n        /* \"#utility.yul\":14189:14198   */\n      dup3\n        /* \"#utility.yul\":14185:14203   */\n      add\n        /* \"#utility.yul\":14177:14203   */\n      swap1\n      pop\n        /* \"#utility.yul\":14249:14258   */\n      dup2\n        /* \"#utility.yul\":14243:14247   */\n      dup2\n        /* \"#utility.yul\":14239:14259   */\n      sub\n        /* \"#utility.yul\":14235:14236   */\n      0x00\n        /* \"#utility.yul\":14224:14233   */\n      dup4\n        /* \"#utility.yul\":14220:14237   */\n      add\n        /* \"#utility.yul\":14213:14260   */\n      mstore\n        /* \"#utility.yul\":14277:14408   */\n      tag_400\n        /* \"#utility.yul\":14403:14407   */\n      dup2\n        /* \"#utility.yul\":14277:14408   */\n      tag_235\n      jump\t// in\n    tag_400:\n        /* \"#utility.yul\":14269:14408   */\n      swap1\n      pop\n        /* \"#utility.yul\":13996:14415   */\n      swap2\n      swap1\n      pop\n      jump\t// out\n        /* \"#utility.yul\":14421:14500   */\n    tag_236:\n        /* \"#utility.yul\":14460:14467   */\n      0x00\n        /* \"#utility.yul\":14489:14494   */\n      dup2\n        /* \"#utility.yul\":14478:14494   */\n      swap1\n      pop\n        /* \"#utility.yul\":14421:14500   */\n      swap2\n      swap1\n      pop\n      jump\t// out\n        /* \"#utility.yul\":14506:14663   */\n    tag_237:\n        /* \"#utility.yul\":14611:14656   */\n      tag_403\n        /* \"#utility.yul\":14631:14655   */\n      tag_404\n        /* \"#utility.yul\":14649:14654   */\n      dup3\n        /* \"#utility.yul\":14631:14655   */\n      tag_197\n      jump\t// in\n    tag_404:\n        /* \"#utility.yul\":14611:14656   */\n      tag_236\n      jump\t// in\n    tag_403:\n        /* \"#utility.yul\":14606:14609   */\n      dup3\n        /* \"#utility.yul\":14599:14657   */\n      mstore\n        /* \"#utility.yul\":14506:14663   */\n      pop\n      pop\n      jump\t// out\n        /* \"#utility.yul\":14669:14763   */\n    tag_238:\n        /* \"#utility.yul\":14702:14710   */\n      0x00\n        /* \"#utility.yul\":14750:14755   */\n      dup2\n        /* \"#utility.yul\":14746:14748   */\n      0x60\n        /* \"#utility.yul\":14742:14756   */\n      shl\n        /* \"#utility.yul\":14721:14756   */\n      swap1\n      pop\n        /* \"#utility.yul\":14669:14763   */\n      swap2\n      swap1\n      pop\n      jump\t// out\n        /* \"#utility.yul\":14769:14863   */\n    tag_239:\n        /* \"#utility.yul\":14808:14815   */\n      0x00\n        /* \"#utility.yul\":14837:14857   */\n      tag_407\n        /* \"#utility.yul\":14851:14856   */\n      dup3\n        /* \"#utility.yul\":14837:14857   */\n      tag_238\n      jump\t// in\n    tag_407:\n        /* \"#utility.yul\":14826:14857   */\n      swap1\n      pop\n        /* \"#utility.yul\":14769:14863   */\n      swap2\n      swap1\n      pop\n      jump\t// out\n        /* \"#utility.yul\":14869:14969   */\n    tag_240:\n        /* \"#utility.yul\":14908:14915   */\n      0x00\n        /* \"#utility.yul\":14937:14963   */\n      tag_409\n        /* \"#utility.yul\":14957:14962   */\n      dup3\n        /* \"#utility.yul\":14937:14963   */\n      tag_239\n      jump\t// in\n    tag_409:\n        /* \"#utility.yul\":14926:14963   */\n      swap1\n      pop\n        /* \"#utility.yul\":14869:14969   */\n      swap2\n      swap1\n      pop\n      jump\t// out\n        /* \"#utility.yul\":14975:15132   */\n    tag_241:\n        /* \"#utility.yul\":15080:15125   */\n      tag_411\n        /* \"#utility.yul\":15100:15124   */\n      tag_412\n        /* \"#utility.yul\":15118:15123   */\n      dup3\n        /* \"#utility.yul\":15100:15124   */\n      tag_206\n      jump\t// in\n    tag_412:\n        /* \"#utility.yul\":15080:15125   */\n      tag_240\n      jump\t// in\n    tag_411:\n        /* \"#utility.yul\":15075:15078   */\n      dup3\n        /* \"#utility.yul\":15068:15126   */\n      mstore\n        /* \"#utility.yul\":14975:15132   */\n      pop\n      pop\n      jump\t// out\n        /* \"#utility.yul\":15138:15535   */\n    tag_96:\n        /* \"#utility.yul\":15278:15281   */\n      0x00\n        /* \"#utility.yul\":15293:15368   */\n      tag_414\n        /* \"#utility.yul\":15364:15367   */\n      dup3\n        /* \"#utility.yul\":15355:15361   */\n      dup6\n        /* \"#utility.yul\":15293:15368   */\n      tag_237\n      jump\t// in\n    tag_414:\n        /* \"#utility.yul\":15393:15395   */\n      0x20\n        /* \"#utility.yul\":15388:15391   */\n      dup3\n        /* \"#utility.yul\":15384:15396   */\n      add\n        /* \"#utility.yul\":15377:15396   */\n      swap2\n      pop\n        /* \"#utility.yul\":15406:15481   */\n      tag_415\n        /* \"#utility.yul\":15477:15480   */\n      dup3\n        /* \"#utility.yul\":15468:15474   */\n      dup5\n        /* \"#utility.yul\":15406:15481   */\n      tag_241\n      jump\t// in\n    tag_415:\n        /* \"#utility.yul\":15506:15508   */\n      0x14\n        /* \"#utility.yul\":15501:15504   */\n      dup3\n        /* \"#utility.yul\":15497:15509   */\n      add\n        /* \"#utility.yul\":15490:15509   */\n      swap2\n      pop\n        /* \"#utility.yul\":15526:15529   */\n      dup2\n        /* \"#utility.yul\":15519:15529   */\n      swap1\n      pop\n        /* \"#utility.yul\":15138:15535   */\n      swap4\n      swap3\n      pop\n      pop\n      pop\n      jump\t// out\n        /* \"#utility.yul\":15541:15717   */\n    tag_98:\n        /* \"#utility.yul\":15573:15574   */\n      0x00\n        /* \"#utility.yul\":15590:15610   */\n      tag_417\n        /* \"#utility.yul\":15608:15609   */\n      dup3\n        /* \"#utility.yul\":15590:15610   */\n      tag_197\n      jump\t// in\n    tag_417:\n        /* \"#utility.yul\":15585:15610   */\n      swap2\n      pop\n        /* \"#utility.yul\":15624:15644   */\n      tag_418\n        /* \"#utility.yul\":15642:15643   */\n      dup4\n        /* \"#utility.yul\":15624:15644   */\n      tag_197\n      jump\t// in\n    tag_418:\n        /* \"#utility.yul\":15619:15644   */\n      swap3\n      pop\n        /* \"#utility.yul\":15663:15664   */\n      dup3\n        /* \"#utility.yul\":15653:15688   */\n      tag_419\n      jumpi\n        /* \"#utility.yul\":15668:15686   */\n      tag_420\n      tag_227\n      jump\t// in\n    tag_420:\n        /* \"#utility.yul\":15653:15688   */\n    tag_419:\n        /* \"#utility.yul\":15709:15710   */\n      dup3\n        /* \"#utility.yul\":15706:15707   */\n      dup3\n        /* \"#utility.yul\":15702:15711   */\n      mod\n        /* \"#utility.yul\":15697:15711   */\n      swap1\n      pop\n        /* \"#utility.yul\":15541:15717   */\n      swap3\n      swap2\n      pop\n      pop\n      jump\t// out\n        /* \"#utility.yul\":15723:15903   */\n    tag_138:\n        /* \"#utility.yul\":15771:15848   */\n      0x4e487b7100000000000000000000000000000000000000000000000000000000\n        /* \"#utility.yul\":15768:15769   */\n      0x00\n        /* \"#utility.yul\":15761:15849   */\n      mstore\n        /* \"#utility.yul\":15868:15872   */\n      0x21\n        /* \"#utility.yul\":15865:15866   */\n      0x04\n        /* \"#utility.yul\":15858:15873   */\n      mstore\n        /* \"#utility.yul\":15892:15896   */\n      0x24\n        /* \"#utility.yul\":15889:15890   */\n      0x00\n        /* \"#utility.yul\":15882:15897   */\n      revert\n        /* \"#utility.yul\":15909:16026   */\n    tag_242:\n        /* \"#utility.yul\":15993:15995   */\n      0x0b\n        /* \"#utility.yul\":15986:15991   */\n      dup2\n        /* \"#utility.yul\":15983:15996   */\n      lt\n        /* \"#utility.yul\":15973:16020   */\n      tag_423\n      jumpi\n        /* \"#utility.yul\":16000:16018   */\n      tag_424\n      tag_138\n      jump\t// in\n    tag_424:\n        /* \"#utility.yul\":15973:16020   */\n    tag_423:\n        /* \"#utility.yul\":15909:16026   */\n      pop\n      jump\t// out\n        /* \"#utility.yul\":16032:16165   */\n    tag_243:\n        /* \"#utility.yul\":16080:16087   */\n      0x00\n        /* \"#utility.yul\":16109:16114   */\n      dup2\n        /* \"#utility.yul\":16098:16114   */\n      swap1\n      pop\n        /* \"#utility.yul\":16115:16159   */\n      tag_426\n        /* \"#utility.yul\":16153:16158   */\n      dup3\n        /* \"#utility.yul\":16115:16159   */\n      tag_242\n      jump\t// in\n    tag_426:\n        /* \"#utility.yul\":16032:16165   */\n      swap2\n      swap1\n      pop\n      jump\t// out\n        /* \"#utility.yul\":16171:16304   */\n    tag_244:\n        /* \"#utility.yul\":16230:16239   */\n      0x00\n        /* \"#utility.yul\":16263:16298   */\n      tag_428\n        /* \"#utility.yul\":16292:16297   */\n      dup3\n        /* \"#utility.yul\":16263:16298   */\n      tag_243\n      jump\t// in\n    tag_428:\n        /* \"#utility.yul\":16250:16298   */\n      swap1\n      pop\n        /* \"#utility.yul\":16171:16304   */\n      swap2\n      swap1\n      pop\n      jump\t// out\n        /* \"#utility.yul\":16310:16459   */\n    tag_245:\n        /* \"#utility.yul\":16406:16452   */\n      tag_430\n        /* \"#utility.yul\":16446:16451   */\n      dup2\n        /* \"#utility.yul\":16406:16452   */\n      tag_244\n      jump\t// in\n    tag_430:\n        /* \"#utility.yul\":16401:16404   */\n      dup3\n        /* \"#utility.yul\":16394:16453   */\n      mstore\n        /* \"#utility.yul\":16310:16459   */\n      pop\n      pop\n      jump\t// out\n        /* \"#utility.yul\":16465:16705   */\n    tag_101:\n        /* \"#utility.yul\":16567:16571   */\n      0x00\n        /* \"#utility.yul\":16605:16607   */\n      0x20\n        /* \"#utility.yul\":16594:16603   */\n      dup3\n        /* \"#utility.yul\":16590:16608   */\n      add\n        /* \"#utility.yul\":16582:16608   */\n      swap1\n      pop\n        /* \"#utility.yul\":16618:16698   */\n      tag_432\n        /* \"#utility.yul\":16695:16696   */\n      0x00\n        /* \"#utility.yul\":16684:16693   */\n      dup4\n        /* \"#utility.yul\":16680:16697   */\n      add\n        /* \"#utility.yul\":16671:16677   */\n      dup5\n        /* \"#utility.yul\":16618:16698   */\n      tag_245\n      jump\t// in\n    tag_432:\n        /* \"#utility.yul\":16465:16705   */\n      swap3\n      swap2\n      pop\n      pop\n      jump\t// out\n        /* \"#utility.yul\":16711:16787   */\n    tag_246:\n        /* \"#utility.yul\":16747:16754   */\n      0x00\n        /* \"#utility.yul\":16776:16781   */\n      dup2\n        /* \"#utility.yul\":16765:16781   */\n      swap1\n      pop\n        /* \"#utility.yul\":16711:16787   */\n      swap2\n      swap1\n      pop\n      jump\t// out\n        /* \"#utility.yul\":16793:16913   */\n    tag_247:\n        /* \"#utility.yul\":16865:16888   */\n      tag_435\n        /* \"#utility.yul\":16882:16887   */\n      dup2\n        /* \"#utility.yul\":16865:16888   */\n      tag_246\n      jump\t// in\n    tag_435:\n        /* \"#utility.yul\":16858:16863   */\n      dup2\n        /* \"#utility.yul\":16855:16889   */\n      eq\n        /* \"#utility.yul\":16845:16907   */\n      tag_436\n      jumpi\n        /* \"#utility.yul\":16903:16904   */\n      0x00\n        /* \"#utility.yul\":16900:16901   */\n      0x00\n        /* \"#utility.yul\":16893:16905   */\n      revert\n        /* \"#utility.yul\":16845:16907   */\n    tag_436:\n        /* \"#utility.yul\":16793:16913   */\n      pop\n      jump\t// out\n        /* \"#utility.yul\":16919:17060   */\n    tag_248:\n        /* \"#utility.yul\":16975:16980   */\n      0x00\n        /* \"#utility.yul\":17006:17012   */\n      dup2\n        /* \"#utility.yul\":17000:17013   */\n      mload\n        /* \"#utility.yul\":16991:17013   */\n      swap1\n      pop\n        /* \"#utility.yul\":17022:17054   */\n      tag_438\n        /* \"#utility.yul\":17048:17053   */\n      dup2\n        /* \"#utility.yul\":17022:17054   */\n      tag_247\n      jump\t// in\n    tag_438:\n        /* \"#utility.yul\":16919:17060   */\n      swap3\n      swap2\n      pop\n      pop\n      jump\t// out\n        /* \"#utility.yul\":17066:17415   */\n    tag_105:\n        /* \"#utility.yul\":17135:17141   */\n      0x00\n        /* \"#utility.yul\":17184:17186   */\n      0x20\n        /* \"#utility.yul\":17172:17181   */\n      dup3\n        /* \"#utility.yul\":17163:17170   */\n      dup5\n        /* \"#utility.yul\":17159:17182   */\n      sub\n        /* \"#utility.yul\":17155:17187   */\n      slt\n        /* \"#utility.yul\":17152:17271   */\n      iszero\n      tag_440\n      jumpi\n        /* \"#utility.yul\":17190:17269   */\n      tag_441\n      tag_195\n      jump\t// in\n    tag_441:\n        /* \"#utility.yul\":17152:17271   */\n    tag_440:\n        /* \"#utility.yul\":17310:17311   */\n      0x00\n        /* \"#utility.yul\":17335:17398   */\n      tag_442\n        /* \"#utility.yul\":17390:17397   */\n      dup5\n        /* \"#utility.yul\":17381:17387   */\n      dup3\n        /* \"#utility.yul\":17370:17379   */\n      dup6\n        /* \"#utility.yul\":17366:17388   */\n      add\n        /* \"#utility.yul\":17335:17398   */\n      tag_248\n      jump\t// in\n    tag_442:\n        /* \"#utility.yul\":17325:17398   */\n      swap2\n      pop\n        /* \"#utility.yul\":17281:17408   */\n      pop\n        /* \"#utility.yul\":17066:17415   */\n      swap3\n      swap2\n      pop\n      pop\n      jump\t// out\n        /* \"#utility.yul\":17421:17595   */\n    tag_249:\n        /* \"#utility.yul\":17561:17587   */\n      0x496e737572616e636520636f73747320302e3032204554480000000000000000\n        /* \"#utility.yul\":17557:17558   */\n      0x00\n        /* \"#utility.yul\":17549:17555   */\n      dup3\n        /* \"#utility.yul\":17545:17559   */\n      add\n        /* \"#utility.yul\":17538:17588   */\n      mstore\n        /* \"#utility.yul\":17421:17595   */\n      pop\n      jump\t// out\n        /* \"#utility.yul\":17601:17967   */\n    tag_250:\n        /* \"#utility.yul\":17743:17746   */\n      0x00\n        /* \"#utility.yul\":17764:17831   */\n      tag_445\n        /* \"#utility.yul\":17828:17830   */\n      0x18\n        /* \"#utility.yul\":17823:17826   */\n      dup4\n        /* \"#utility.yul\":17764:17831   */\n      tag_223\n      jump\t// in\n    tag_445:\n        /* \"#utility.yul\":17757:17831   */\n      swap2\n      pop\n        /* \"#utility.yul\":17840:17933   */\n      tag_446\n        /* \"#utility.yul\":17929:17932   */\n      dup3\n        /* \"#utility.yul\":17840:17933   */\n      tag_249\n      jump\t// in\n    tag_446:\n        /* \"#utility.yul\":17958:17960   */\n      0x20\n        /* \"#utility.yul\":17953:17956   */\n      dup3\n        /* \"#utility.yul\":17949:17961   */\n      add\n        /* \"#utility.yul\":17942:17961   */\n      swap1\n      pop\n        /* \"#utility.yul\":17601:17967   */\n      swap2\n      swap1\n      pop\n      jump\t// out\n        /* \"#utility.yul\":17973:18392   */\n    tag_114:\n        /* \"#utility.yul\":18139:18143   */\n      0x00\n        /* \"#utility.yul\":18177:18179   */\n      0x20\n        /* \"#utility.yul\":18166:18175   */\n      dup3\n        /* \"#utility.yul\":18162:18180   */\n      add\n        /* \"#utility.yul\":18154:18180   */\n      swap1\n      pop\n        /* \"#utility.yul\":18226:18235   */\n      dup2\n        /* \"#utility.yul\":18220:18224   */\n      dup2\n        /* \"#utility.yul\":18216:18236   */\n      sub\n        /* \"#utility.yul\":18212:18213   */\n      0x00\n        /* \"#utility.yul\":18201:18210   */\n      dup4\n        /* \"#utility.yul\":18197:18214   */\n      add\n        /* \"#utility.yul\":18190:18237   */\n      mstore\n        /* \"#utility.yul\":18254:18385   */\n      tag_448\n        /* \"#utility.yul\":18380:18384   */\n      dup2\n        /* \"#utility.yul\":18254:18385   */\n      tag_250\n      jump\t// in\n    tag_448:\n        /* \"#utility.yul\":18246:18385   */\n      swap1\n      pop\n        /* \"#utility.yul\":17973:18392   */\n      swap2\n      swap1\n      pop\n      jump\t// out\n        /* \"#utility.yul\":18398:18571   */\n    tag_251:\n        /* \"#utility.yul\":18538:18563   */\n      0x4865616c696e6720636f73747320302e30303520455448000000000000000000\n        /* \"#utility.yul\":18534:18535   */\n      0x00\n        /* \"#utility.yul\":18526:18532   */\n      dup3\n        /* \"#utility.yul\":18522:18536   */\n      add\n        /* \"#utility.yul\":18515:18564   */\n      mstore\n        /* \"#utility.yul\":18398:18571   */\n      pop\n      jump\t// out\n        /* \"#utility.yul\":18577:18943   */\n    tag_252:\n        /* \"#utility.yul\":18719:18722   */\n      0x00\n        /* \"#utility.yul\":18740:18807   */\n      tag_451\n        /* \"#utility.yul\":18804:18806   */\n      0x17\n        /* \"#utility.yul\":18799:18802   */\n      dup4\n        /* \"#utility.yul\":18740:18807   */\n      tag_223\n      jump\t// in\n    tag_451:\n        /* \"#utility.yul\":18733:18807   */\n      swap2\n      pop\n        /* \"#utility.yul\":18816:18909   */\n      tag_452\n        /* \"#utility.yul\":18905:18908   */\n      dup3\n        /* \"#utility.yul\":18816:18909   */\n      tag_251\n      jump\t// in\n    tag_452:\n        /* \"#utility.yul\":18934:18936   */\n      0x20\n        /* \"#utility.yul\":18929:18932   */\n      dup3\n        /* \"#utility.yul\":18925:18937   */\n      add\n        /* \"#utility.yul\":18918:18937   */\n      swap1\n      pop\n        /* \"#utility.yul\":18577:18943   */\n      swap2\n      swap1\n      pop\n      jump\t// out\n        /* \"#utility.yul\":18949:19368   */\n    tag_122:\n        /* \"#utility.yul\":19115:19119   */\n      0x00\n        /* \"#utility.yul\":19153:19155   */\n      0x20\n        /* \"#utility.yul\":19142:19151   */\n      dup3\n        /* \"#utility.yul\":19138:19156   */\n      add\n        /* \"#utility.yul\":19130:19156   */\n      swap1\n      pop\n        /* \"#utility.yul\":19202:19211   */\n      dup2\n        /* \"#utility.yul\":19196:19200   */\n      dup2\n        /* \"#utility.yul\":19192:19212   */\n      sub\n        /* \"#utility.yul\":19188:19189   */\n      0x00\n        /* \"#utility.yul\":19177:19186   */\n      dup4\n        /* \"#utility.yul\":19173:19190   */\n      add\n        /* \"#utility.yul\":19166:19213   */\n      mstore\n        /* \"#utility.yul\":19230:19361   */\n      tag_454\n        /* \"#utility.yul\":19356:19360   */\n      dup2\n        /* \"#utility.yul\":19230:19361   */\n      tag_252\n      jump\t// in\n    tag_454:\n        /* \"#utility.yul\":19222:19361   */\n      swap1\n      pop\n        /* \"#utility.yul\":18949:19368   */\n      swap2\n      swap1\n      pop\n      jump\t// out\n        /* \"#utility.yul\":19374:19597   */\n    tag_253:\n        /* \"#utility.yul\":19514:19548   */\n      0x4e6f7420656e6f7567682045544820746f206d696e74206d7974686963616c20\n        /* \"#utility.yul\":19510:19511   */\n      0x00\n        /* \"#utility.yul\":19502:19508   */\n      dup3\n        /* \"#utility.yul\":19498:19512   */\n      add\n        /* \"#utility.yul\":19491:19549   */\n      mstore\n        /* \"#utility.yul\":19583:19589   */\n      0x6269726400000000000000000000000000000000000000000000000000000000\n        /* \"#utility.yul\":19578:19580   */\n      0x20\n        /* \"#utility.yul\":19570:19576   */\n      dup3\n        /* \"#utility.yul\":19566:19581   */\n      add\n        /* \"#utility.yul\":19559:19590   */\n      mstore\n        /* \"#utility.yul\":19374:19597   */\n      pop\n      jump\t// out\n        /* \"#utility.yul\":19603:19969   */\n    tag_254:\n        /* \"#utility.yul\":19745:19748   */\n      0x00\n        /* \"#utility.yul\":19766:19833   */\n      tag_457\n        /* \"#utility.yul\":19830:19832   */\n      0x24\n        /* \"#utility.yul\":19825:19828   */\n      dup4\n        /* \"#utility.yul\":19766:19833   */\n      tag_223\n      jump\t// in\n    tag_457:\n        /* \"#utility.yul\":19759:19833   */\n      swap2\n      pop\n        /* \"#utility.yul\":19842:19935   */\n      tag_458\n        /* \"#utility.yul\":19931:19934   */\n      dup3\n        /* \"#utility.yul\":19842:19935   */\n      tag_253\n      jump\t// in\n    tag_458:\n        /* \"#utility.yul\":19960:19962   */\n      0x40\n        /* \"#utility.yul\":19955:19958   */\n      dup3\n        /* \"#utility.yul\":19951:19963   */\n      add\n        /* \"#utility.yul\":19944:19963   */\n      swap1\n      pop\n        /* \"#utility.yul\":19603:19969   */\n      swap2\n      swap1\n      pop\n      jump\t// out\n        /* \"#utility.yul\":19975:20394   */\n    tag_130:\n        /* \"#utility.yul\":20141:20145   */\n      0x00\n        /* \"#utility.yul\":20179:20181   */\n      0x20\n        /* \"#utility.yul\":20168:20177   */\n      dup3\n        /* \"#utility.yul\":20164:20182   */\n      add\n        /* \"#utility.yul\":20156:20182   */\n      swap1\n      pop\n        /* \"#utility.yul\":20228:20237   */\n      dup2\n        /* \"#utility.yul\":20222:20226   */\n      dup2\n        /* \"#utility.yul\":20218:20238   */\n      sub\n        /* \"#utility.yul\":20214:20215   */\n      0x00\n        /* \"#utility.yul\":20203:20212   */\n      dup4\n        /* \"#utility.yul\":20199:20216   */\n      add\n        /* \"#utility.yul\":20192:20239   */\n      mstore\n        /* \"#utility.yul\":20256:20387   */\n      tag_460\n        /* \"#utility.yul\":20382:20386   */\n      dup2\n        /* \"#utility.yul\":20256:20387   */\n      tag_254\n      jump\t// in\n    tag_460:\n        /* \"#utility.yul\":20248:20387   */\n      swap1\n      pop\n        /* \"#utility.yul\":19975:20394   */\n      swap2\n      swap1\n      pop\n      jump\t// out\n        /* \"#utility.yul\":20400:20565   */\n    tag_255:\n        /* \"#utility.yul\":20540:20557   */\n      0x556e6b6e6f776e20737065636965730000000000000000000000000000000000\n        /* \"#utility.yul\":20536:20537   */\n      0x00\n        /* \"#utility.yul\":20528:20534   */\n      dup3\n        /* \"#utility.yul\":20524:20538   */\n      add\n        /* \"#utility.yul\":20517:20558   */\n      mstore\n        /* \"#utility.yul\":20400:20565   */\n      pop\n      jump\t// out\n        /* \"#utility.yul\":20571:20937   */\n    tag_256:\n        /* \"#utility.yul\":20713:20716   */\n      0x00\n        /* \"#utility.yul\":20734:20801   */\n      tag_463\n        /* \"#utility.yul\":20798:20800   */\n      0x0f\n        /* \"#utility.yul\":20793:20796   */\n      dup4\n        /* \"#utility.yul\":20734:20801   */\n      tag_223\n      jump\t// in\n    tag_463:\n        /* \"#utility.yul\":20727:20801   */\n      swap2\n      pop\n        /* \"#utility.yul\":20810:20903   */\n      tag_464\n        /* \"#utility.yul\":20899:20902   */\n      dup3\n        /* \"#utility.yul\":20810:20903   */\n      tag_255\n      jump\t// in\n    tag_464:\n        /* \"#utility.yul\":20928:20930   */\n      0x20\n        /* \"#utility.yul\":20923:20926   */\n      dup3\n        /* \"#utility.yul\":20919:20931   */\n      add\n        /* \"#utility.yul\":20912:20931   */\n      swap1\n      pop\n        /* \"#utility.yul\":20571:20937   */\n      swap2\n      swap1\n      pop\n      jump\t// out\n        /* \"#utility.yul\":20943:21362   */\n    tag_193:\n        /* \"#utility.yul\":21109:21113   */\n      0x00\n        /* \"#utility.yul\":21147:21149   */\n      0x20\n        /* \"#utility.yul\":21136:21145   */\n      dup3\n        /* \"#utility.yul\":21132:21150   */\n      add\n        /* \"#utility.yul\":21124:21150   */\n      swap1\n      pop\n        /* \"#utility.yul\":21196:21205   */\n      dup2\n        /* \"#utility.yul\":21190:21194   */\n      dup2\n        /* \"#utility.yul\":21186:21206   */\n      sub\n        /* \"#utility.yul\":21182:21183   */\n      0x00\n        /* \"#utility.yul\":21171:21180   */\n      dup4\n        /* \"#utility.yul\":21167:21184   */\n      add\n        /* \"#utility.yul\":21160:21207   */\n      mstore\n        /* \"#utility.yul\":21224:21355   */\n      tag_466\n        /* \"#utility.yul\":21350:21354   */\n      dup2\n        /* \"#utility.yul\":21224:21355   */\n      tag_256\n      jump\t// in\n    tag_466:\n        /* \"#utility.yul\":21216:21355   */\n      swap1\n      pop\n        /* \"#utility.yul\":20943:21362   */\n      swap2\n      swap1\n      pop\n      jump\t// out\n\n    auxdata: 0xa2646970667358221220cf29c929225f828e612fed5c005423e415257f3172fb69e05860c4312162564064736f6c634300081e0033\n}\n",
				"bytecode": {
					"linkReferences": {},
					"object": "608060405234801561000f575f5ffd5b5060405161195538038061195583398181016040528101906100319190610114565b805f5f6101000a81548173ffffffffffffffffffffffffffffffffffffffff021916908373ffffffffffffffffffffffffffffffffffffffff1602179055503360015f6101000a81548173ffffffffffffffffffffffffffffffffffffffff021916908373ffffffffffffffffffffffffffffffffffffffff1602179055505061013f565b5f5ffd5b5f73ffffffffffffffffffffffffffffffffffffffff82169050919050565b5f6100e3826100ba565b9050919050565b6100f3816100d9565b81146100fd575f5ffd5b50565b5f8151905061010e816100ea565b92915050565b5f60208284031215610129576101286100b6565b5b5f61013684828501610100565b91505092915050565b6118098061014c5f395ff3fe608060405260043610610085575f3560e01c80638da5cb5b116100585780638da5cb5b146101015780639aeb133f1461012b578063a86a658c14610147578063bff998f414610163578063eb96efa71461017f57610085565b8063192812a0146100895780631942d199146100a55780633ccfd60b146100c15780635361e1d2146100d7575b5f5ffd5b6100a3600480360381019061009e9190610d37565b610189565b005b6100bf60048036038101906100ba9190610d62565b61039f565b005b3480156100cc575f5ffd5b506100d5610489565b005b3480156100e2575f5ffd5b506100eb61057f565b6040516100f89190610e1a565b60405180910390f35b34801561010c575f5ffd5b506101156105a3565b6040516101229190610e53565b60405180910390f35b61014560048036038101906101409190610e8f565b6105c8565b005b610161600480360381019061015c9190610d37565b61079b565b005b61017d60048036038101906101789190610d37565b61086e565b005b610187610941565b005b5f5f5f9054906101000a900473ffffffffffffffffffffffffffffffffffffffff1673ffffffffffffffffffffffffffffffffffffffff16636ec88bbd836040518263ffffffff1660e01b81526004016101e39190610ec9565b60e0604051808303815f875af11580156101ff573d5f5f3e3d5ffd5b505050506040513d601f19601f82011682018060405250810190610223919061107c565b90508060a00151610269576040517f08c379a000000000000000000000000000000000000000000000000000000000815260040161026090611101565b60405180910390fd5b5f6102778260600151610a2e565b90505f600582610287919061114c565b90505f620151808460c001514261029e919061118d565b6102a891906111ed565b9050606481836102b8919061114c565b6102c291906111ed565b826102cd919061121d565b915081341015610312576040517f08c379a0000000000000000000000000000000000000000000000000000000008152600401610309906112c0565b60405180910390fd5b5f5f9054906101000a900473ffffffffffffffffffffffffffffffffffffffff1673ffffffffffffffffffffffffffffffffffffffff16638baecc21866040518263ffffffff1660e01b815260040161036b9190610ec9565b5f604051808303815f87803b158015610382575f5ffd5b505af1158015610394573d5f5f3e3d5ffd5b505050505050505050565b5f6509184e72a00090505f81836103b6919061114c565b9050803410156103fb576040517f08c379a00000000000000000000000000000000000000000000000000000000081526004016103f290611328565b60405180910390fd5b5f5f9054906101000a900473ffffffffffffffffffffffffffffffffffffffff1673ffffffffffffffffffffffffffffffffffffffff16631942d19985856040518363ffffffff1660e01b8152600401610456929190611346565b5f604051808303815f87803b15801561046d575f5ffd5b505af115801561047f573d5f5f3e3d5ffd5b5050505050505050565b60015f9054906101000a900473ffffffffffffffffffffffffffffffffffffffff1673ffffffffffffffffffffffffffffffffffffffff163373ffffffffffffffffffffffffffffffffffffffff1614610518576040517f08c379a000000000000000000000000000000000000000000000000000000000815260040161050f906113b7565b60405180910390fd5b60015f9054906101000a900473ffffffffffffffffffffffffffffffffffffffff1673ffffffffffffffffffffffffffffffffffffffff166108fc4790811502906040515f60405180830381858888f1935050505015801561057c573d5f5f3e3d5ffd5b50565b5f5f9054906101000a900473ffffffffffffffffffffffffffffffffffffffff1681565b60015f9054906101000a900473ffffffffffffffffffffffffffffffffffffffff1681565b5f6105d282610a2e565b905080341015610617576040517f08c379a000000000000000000000000000000000000000000000000000000000815260040161060e90611445565b60405180910390fd5b5f6103e8423360405160200161062e9291906114c8565b604051602081830303815290604052805190602001205f1c61065091906114f3565b9050600a8110156106fb575f5f9054906101000a900473ffffffffffffffffffffffffffffffffffffffff1673ffffffffffffffffffffffffffffffffffffffff16634d2d7881600a6040518263ffffffff1660e01b81526004016106b59190611596565b6020604051808303815f875af11580156106d1573d5f5f3e3d5ffd5b505050506040513d601f19601f820116820180604052508101906106f591906115e2565b50610796565b5f5f9054906101000a900473ffffffffffffffffffffffffffffffffffffffff1673ffffffffffffffffffffffffffffffffffffffff16634d2d7881846040518263ffffffff1660e01b81526004016107549190611596565b6020604051808303815f875af1158015610770573d5f5f3e3d5ffd5b505050506040513d601f19601f8201168201806040525081019061079491906115e2565b505b505050565b66470de4df8200003410156107e5576040517f08c379a00000000000000000000000000000000000000000000000000000000081526004016107dc90611657565b60405180910390fd5b5f5f9054906101000a900473ffffffffffffffffffffffffffffffffffffffff1673ffffffffffffffffffffffffffffffffffffffff166349b1a0bf826040518263ffffffff1660e01b815260040161083e9190610ec9565b5f604051808303815f87803b158015610855575f5ffd5b505af1158015610867573d5f5f3e3d5ffd5b5050505050565b6611c37937e080003410156108b8576040517f08c379a00000000000000000000000000000000000000000000000000000000081526004016108af906116bf565b60405180910390fd5b5f5f9054906101000a900473ffffffffffffffffffffffffffffffffffffffff1673ffffffffffffffffffffffffffffffffffffffff1663bff998f4826040518263ffffffff1660e01b81526004016109119190610ec9565b5f604051808303815f87803b158015610928575f5ffd5b505af115801561093a573d5f5f3e3d5ffd5b5050505050565b5f6702c68af0bb140000905080341015610990576040517f08c379a00000000000000000000000000000000000000000000000000000000081526004016109879061174d565b60405180910390fd5b5f5f9054906101000a900473ffffffffffffffffffffffffffffffffffffffff1673ffffffffffffffffffffffffffffffffffffffff16634d2d7881600a6040518263ffffffff1660e01b81526004016109ea9190611596565b6020604051808303815f875af1158015610a06573d5f5f3e3d5ffd5b505050506040513d601f19601f82011682018060405250810190610a2a91906115e2565b5050565b5f5f600a811115610a4257610a41611523565b5b82600a811115610a5557610a54611523565b5b03610a695766b1a2bc2ec500009050610cf2565b6001600a811115610a7d57610a7c611523565b5b82600a811115610a9057610a8f611523565b5b03610aa45766b1a2bc2ec500009050610cf2565b6002600a811115610ab857610ab7611523565b5b82600a811115610acb57610aca611523565b5b03610adf5766470de4df8200009050610cf2565b6003600a811115610af357610af2611523565b5b82600a811115610b0657610b05611523565b5b03610b1a57666a94d74f4300009050610cf2565b6004600a811115610b2e57610b2d611523565b5b82600a811115610b4157610b40611523565b5b03610b5557663ff2e795f500009050610cf2565b6005600a811115610b6957610b68611523565b5b82600a811115610b7c57610b7b611523565b5b03610b9057662386f26fc100009050610cf2565b6006600a811115610ba457610ba3611523565b5b82600a811115610bb757610bb6611523565b5b03610bcb57662386f26fc100009050610cf2565b6007600a811115610bdf57610bde611523565b5b82600a811115610bf257610bf1611523565b5b03610c0657662aa1efb94e00009050610cf2565b6008600a811115610c1a57610c19611523565b5b82600a811115610c2d57610c2c611523565b5b03610c4157668e1bc9bf0400009050610cf2565b6009600a811115610c5557610c54611523565b5b82600a811115610c6857610c67611523565b5b03610c7c57662386f26fc100009050610cf2565b600a80811115610c8f57610c8e611523565b5b82600a811115610ca257610ca1611523565b5b03610cb7576702c68af0bb1400009050610cf2565b6040517f08c379a0000000000000000000000000000000000000000000000000000000008152600401610ce9906117b5565b60405180910390fd5b919050565b5f604051905090565b5f5ffd5b5f819050919050565b610d1681610d04565b8114610d20575f5ffd5b50565b5f81359050610d3181610d0d565b92915050565b5f60208284031215610d4c57610d4b610d00565b5b5f610d5984828501610d23565b91505092915050565b5f5f60408385031215610d7857610d77610d00565b5b5f610d8585828601610d23565b9250506020610d9685828601610d23565b9150509250929050565b5f73ffffffffffffffffffffffffffffffffffffffff82169050919050565b5f819050919050565b5f610de2610ddd610dd884610da0565b610dbf565b610da0565b9050919050565b5f610df382610dc8565b9050919050565b5f610e0482610de9565b9050919050565b610e1481610dfa565b82525050565b5f602082019050610e2d5f830184610e0b565b92915050565b5f610e3d82610da0565b9050919050565b610e4d81610e33565b82525050565b5f602082019050610e665f830184610e44565b92915050565b600b8110610e78575f5ffd5b50565b5f81359050610e8981610e6c565b92915050565b5f60208284031215610ea457610ea3610d00565b5b5f610eb184828501610e7b565b91505092915050565b610ec381610d04565b82525050565b5f602082019050610edc5f830184610eba565b92915050565b5f5ffd5b5f601f19601f8301169050919050565b7f4e487b71000000000000000000000000000000000000000000000000000000005f52604160045260245ffd5b610f2c82610ee6565b810181811067ffffffffffffffff82111715610f4b57610f4a610ef6565b5b80604052505050565b5f610f5d610cf7565b9050610f698282610f23565b919050565b5f81519050610f7c81610d0d565b92915050565b5f81519050610f9081610e6c565b92915050565b5f8115159050919050565b610faa81610f96565b8114610fb4575f5ffd5b50565b5f81519050610fc581610fa1565b92915050565b5f60e08284031215610fe057610fdf610ee2565b5b610fea60e0610f54565b90505f610ff984828501610f6e565b5f83015250602061100c84828501610f6e565b602083015250604061102084828501610f6e565b604083015250606061103484828501610f82565b606083015250608061104884828501610f6e565b60808301525060a061105c84828501610fb7565b60a08301525060c061107084828501610f6e565b60c08301525092915050565b5f60e0828403121561109157611090610d00565b5b5f61109e84828501610fcb565b91505092915050565b5f82825260208201905092915050565b7f42697264206973206e6f742064656164000000000000000000000000000000005f82015250565b5f6110eb6010836110a7565b91506110f6826110b7565b602082019050919050565b5f6020820190508181035f830152611118816110df565b9050919050565b7f4e487b71000000000000000000000000000000000000000000000000000000005f52601160045260245ffd5b5f61115682610d04565b915061116183610d04565b925082820261116f81610d04565b915082820484148315176111865761118561111f565b5b5092915050565b5f61119782610d04565b91506111a283610d04565b92508282039050818111156111ba576111b961111f565b5b92915050565b7f4e487b71000000000000000000000000000000000000000000000000000000005f52601260045260245ffd5b5f6111f782610d04565b915061120283610d04565b925082611212576112116111c0565b5b828204905092915050565b5f61122782610d04565b915061123283610d04565b925082820190508082111561124a5761124961111f565b5b92915050565b7f4e6f7420656e6f7567682045544820746f2072657669766520746869732062695f8201527f7264000000000000000000000000000000000000000000000000000000000000602082015250565b5f6112aa6022836110a7565b91506112b582611250565b604082019050919050565b5f6020820190508181035f8301526112d78161129e565b9050919050565b7f4e6f7420656e6f7567682045544820746f2066656564000000000000000000005f82015250565b5f6113126016836110a7565b915061131d826112de565b602082019050919050565b5f6020820190508181035f83015261133f81611306565b9050919050565b5f6040820190506113595f830185610eba565b6113666020830184610eba565b9392505050565b7f4e6f74206f776e657200000000000000000000000000000000000000000000005f82015250565b5f6113a16009836110a7565b91506113ac8261136d565b602082019050919050565b5f6020820190508181035f8301526113ce81611395565b9050919050565b7f4e6f7420656e6f7567682045544820746f206d696e74207468697320737065635f8201527f6965730000000000000000000000000000000000000000000000000000000000602082015250565b5f61142f6023836110a7565b915061143a826113d5565b604082019050919050565b5f6020820190508181035f83015261145c81611423565b9050919050565b5f819050919050565b61147d61147882610d04565b611463565b82525050565b5f8160601b9050919050565b5f61149982611483565b9050919050565b5f6114aa8261148f565b9050919050565b6114c26114bd82610e33565b6114a0565b82525050565b5f6114d3828561146c565b6020820191506114e382846114b1565b6014820191508190509392505050565b5f6114fd82610d04565b915061150883610d04565b925082611518576115176111c0565b5b828206905092915050565b7f4e487b71000000000000000000000000000000000000000000000000000000005f52602160045260245ffd5b600b811061156157611560611523565b5b50565b5f81905061157182611550565b919050565b5f61158082611564565b9050919050565b61159081611576565b82525050565b5f6020820190506115a95f830184611587565b92915050565b5f819050919050565b6115c1816115af565b81146115cb575f5ffd5b50565b5f815190506115dc816115b8565b92915050565b5f602082840312156115f7576115f6610d00565b5b5f611604848285016115ce565b91505092915050565b7f496e737572616e636520636f73747320302e30322045544800000000000000005f82015250565b5f6116416018836110a7565b915061164c8261160d565b602082019050919050565b5f6020820190508181035f83015261166e81611635565b9050919050565b7f4865616c696e6720636f73747320302e303035204554480000000000000000005f82015250565b5f6116a96017836110a7565b91506116b482611675565b602082019050919050565b5f6020820190508181035f8301526116d68161169d565b9050919050565b7f4e6f7420656e6f7567682045544820746f206d696e74206d7974686963616c205f8201527f6269726400000000000000000000000000000000000000000000000000000000602082015250565b5f6117376024836110a7565b9150611742826116dd565b604082019050919050565b5f6020820190508181035f8301526117648161172b565b9050919050565b7f556e6b6e6f776e207370656369657300000000000000000000000000000000005f82015250565b5f61179f600f836110a7565b91506117aa8261176b565b602082019050919050565b5f6020820190508181035f8301526117cc81611793565b905091905056fea2646970667358221220cf29c929225f828e612fed5c005423e415257f3172fb69e05860c4312162564064736f6c634300081e0033",
					"opcodes": "PUSH1 0x80 PUSH1 0x40 MSTORE CALLVALUE DUP1 ISZERO PUSH2 0xF JUMPI PUSH0 PUSH0 REVERT JUMPDEST POP PUSH1 0x40 MLOAD PUSH2 0x1955 CODESIZE SUB DUP1 PUSH2 0x1955 DUP4 CODECOPY DUP2 DUP2 ADD PUSH1 0x40 MSTORE DUP2 ADD SWAP1 PUSH2 0x31 SWAP2 SWAP1 PUSH2 0x114 JUMP JUMPDEST DUP1 PUSH0 PUSH0 PUSH2 0x100 EXP DUP2 SLOAD DUP2 PUSH20 0xFFFFFFFFFFFFFFFFFFFFFFFFFFFFFFFFFFFFFFFF MUL NOT AND SWAP1 DUP4 PUSH20 0xFFFFFFFFFFFFFFFFFFFFFFFFFFFFFFFFFFFFFFFF AND MUL OR SWAP1 SSTORE POP CALLER PUSH1 0x1 PUSH0 PUSH2 0x100 EXP DUP2 SLOAD DUP2 PUSH20 0xFFFFFFFFFFFFFFFFFFFFFFFFFFFFFFFFFFFFFFFF MUL NOT AND SWAP1 DUP4 PUSH20 0xFFFFFFFFFFFFFFFFFFFFFFFFFFFFFFFFFFFFFFFF AND MUL OR SWAP1 SSTORE POP POP PUSH2 0x13F JUMP JUMPDEST PUSH0 PUSH0 REVERT JUMPDEST PUSH0 PUSH20 0xFFFFFFFFFFFFFFFFFFFFFFFFFFFFFFFFFFFFFFFF DUP3 AND SWAP1 POP SWAP2 SWAP1 POP JUMP JUMPDEST PUSH0 PUSH2 0xE3 DUP3 PUSH2 0xBA JUMP JUMPDEST SWAP1 POP SWAP2 SWAP1 POP JUMP JUMPDEST PUSH2 0xF3 DUP2 PUSH2 0xD9 JUMP JUMPDEST DUP2 EQ PUSH2 0xFD JUMPI PUSH0 PUSH0 REVERT JUMPDEST POP JUMP JUMPDEST PUSH0 DUP2 MLOAD SWAP1 POP PUSH2 0x10E DUP2 PUSH2 0xEA JUMP JUMPDEST SWAP3 SWAP2 POP POP JUMP JUMPDEST PUSH0 PUSH1 0x20 DUP3 DUP5 SUB SLT ISZERO PUSH2 0x129 JUMPI PUSH2 0x128 PUSH2 0xB6 JUMP JUMPDEST JUMPDEST PUSH0 PUSH2 0x136 DUP5 DUP3 DUP6 ADD PUSH2 0x100 JUMP JUMPDEST SWAP2 POP POP SWAP3 SWAP2 POP POP JUMP JUMPDEST PUSH2 0x1809 DUP1 PUSH2 0x14C PUSH0 CODECOPY PUSH0 RETURN INVALID PUSH1 0x80 PUSH1 0x40 MSTORE PUSH1 0x4 CALLDATASIZE LT PUSH2 0x85 JUMPI PUSH0 CALLDATALOAD PUSH1 0xE0 SHR DUP1 PUSH4 0x8DA5CB5B GT PUSH2 0x58 JUMPI DUP1 PUSH4 0x8DA5CB5B EQ PUSH2 0x101 JUMPI DUP1 PUSH4 0x9AEB133F EQ PUSH2 0x12B JUMPI DUP1 PUSH4 0xA86A658C EQ PUSH2 0x147 JUMPI DUP1 PUSH4 0xBFF998F4 EQ PUSH2 0x163 JUMPI DUP1 PUSH4 0xEB96EFA7 EQ PUSH2 0x17F JUMPI PUSH2 0x85 JUMP JUMPDEST DUP1 PUSH4 0x192812A0 EQ PUSH2 0x89 JUMPI DUP1 PUSH4 0x1942D199 EQ PUSH2 0xA5 JUMPI DUP1 PUSH4 0x3CCFD60B EQ PUSH2 0xC1 JUMPI DUP1 PUSH4 0x5361E1D2 EQ PUSH2 0xD7 JUMPI JUMPDEST PUSH0 PUSH0 REVERT JUMPDEST PUSH2 0xA3 PUSH1 0x4 DUP1 CALLDATASIZE SUB DUP2 ADD SWAP1 PUSH2 0x9E SWAP2 SWAP1 PUSH2 0xD37 JUMP JUMPDEST PUSH2 0x189 JUMP JUMPDEST STOP JUMPDEST PUSH2 0xBF PUSH1 0x4 DUP1 CALLDATASIZE SUB DUP2 ADD SWAP1 PUSH2 0xBA SWAP2 SWAP1 PUSH2 0xD62 JUMP JUMPDEST PUSH2 0x39F JUMP JUMPDEST STOP JUMPDEST CALLVALUE DUP1 ISZERO PUSH2 0xCC JUMPI PUSH0 PUSH0 REVERT JUMPDEST POP PUSH2 0xD5 PUSH2 0x489 JUMP JUMPDEST STOP JUMPDEST CALLVALUE DUP1 ISZERO PUSH2 0xE2 JUMPI PUSH0 PUSH0 REVERT JUMPDEST POP PUSH2 0xEB PUSH2 0x57F JUMP JUMPDEST PUSH1 0x40 MLOAD PUSH2 0xF8 SWAP2 SWAP1 PUSH2 0xE1A JUMP JUMPDEST PUSH1 0x40 MLOAD DUP1 SWAP2 SUB SWAP1 RETURN JUMPDEST CALLVALUE DUP1 ISZERO PUSH2 0x10C JUMPI PUSH0 PUSH0 REVERT JUMPDEST POP PUSH2 0x115 PUSH2 0x5A3 JUMP JUMPDEST PUSH1 0x40 MLOAD PUSH2 0x122 SWAP2 SWAP1 PUSH2 0xE53 JUMP JUMPDEST PUSH1 0x40 MLOAD DUP1 SWAP2 SUB SWAP1 RETURN JUMPDEST PUSH2 0x145 PUSH1 0x4 DUP1 CALLDATASIZE SUB DUP2 ADD SWAP1 PUSH2 0x140 SWAP2 SWAP1 PUSH2 0xE8F JUMP JUMPDEST PUSH2 0x5C8 JUMP JUMPDEST STOP JUMPDEST PUSH2 0x161 PUSH1 0x4 DUP1 CALLDATASIZE SUB DUP2 ADD SWAP1 PUSH2 0x15C SWAP2 SWAP1 PUSH2 0xD37 JUMP JUMPDEST PUSH2 0x79B JUMP JUMPDEST STOP JUMPDEST PUSH2 0x17D PUSH1 0x4 DUP1 CALLDATASIZE SUB DUP2 ADD SWAP1 PUSH2 0x178 SWAP2 SWAP1 PUSH2 0xD37 JUMP JUMPDEST PUSH2 0x86E JUMP JUMPDEST STOP JUMPDEST PUSH2 0x187 PUSH2 0x941 JUMP JUMPDEST STOP JUMPDEST PUSH0 PUSH0 PUSH0 SWAP1 SLOAD SWAP1 PUSH2 0x100 EXP SWAP1 DIV PUSH20 0xFFFFFFFFFFFFFFFFFFFFFFFFFFFFFFFFFFFFFFFF AND PUSH20 0xFFFFFFFFFFFFFFFFFFFFFFFFFFFFFFFFFFFFFFFF AND PUSH4 0x6EC88BBD DUP4 PUSH1 0x40 MLOAD DUP3 PUSH4 0xFFFFFFFF AND PUSH1 0xE0 SHL DUP2 MSTORE PUSH1 0x4 ADD PUSH2 0x1E3 SWAP2 SWAP1 PUSH2 0xEC9 JUMP JUMPDEST PUSH1 0xE0 PUSH1 0x40 MLOAD DUP1 DUP4 SUB DUP2 PUSH0 DUP8 GAS CALL ISZERO DUP1 ISZERO PUSH2 0x1FF JUMPI RETURNDATASIZE PUSH0 PUSH0 RETURNDATACOPY RETURNDATASIZE PUSH0 REVERT JUMPDEST POP POP POP POP PUSH1 0x40 MLOAD RETURNDATASIZE PUSH1 0x1F NOT PUSH1 0x1F DUP3 ADD AND DUP3 ADD DUP1 PUSH1 0x40 MSTORE POP DUP2 ADD SWAP1 PUSH2 0x223 SWAP2 SWAP1 PUSH2 0x107C JUMP JUMPDEST SWAP1 POP DUP1 PUSH1 0xA0 ADD MLOAD PUSH2 0x269 JUMPI PUSH1 0x40 MLOAD PUSH32 0x8C379A000000000000000000000000000000000000000000000000000000000 DUP2 MSTORE PUSH1 0x4 ADD PUSH2 0x260 SWAP1 PUSH2 0x1101 JUMP JUMPDEST PUSH1 0x40 MLOAD DUP1 SWAP2 SUB SWAP1 REVERT JUMPDEST PUSH0 PUSH2 0x277 DUP3 PUSH1 0x60 ADD MLOAD PUSH2 0xA2E JUMP JUMPDEST SWAP1 POP PUSH0 PUSH1 0x5 DUP3 PUSH2 0x287 SWAP2 SWAP1 PUSH2 0x114C JUMP JUMPDEST SWAP1 POP PUSH0 PUSH3 0x15180 DUP5 PUSH1 0xC0 ADD MLOAD TIMESTAMP PUSH2 0x29E SWAP2 SWAP1 PUSH2 0x118D JUMP JUMPDEST PUSH2 0x2A8 SWAP2 SWAP1 PUSH2 0x11ED JUMP JUMPDEST SWAP1 POP PUSH1 0x64 DUP2 DUP4 PUSH2 0x2B8 SWAP2 SWAP1 PUSH2 0x114C JUMP JUMPDEST PUSH2 0x2C2 SWAP2 SWAP1 PUSH2 0x11ED JUMP JUMPDEST DUP3 PUSH2 0x2CD SWAP2 SWAP1 PUSH2 0x121D JUMP JUMPDEST SWAP2 POP DUP2 CALLVALUE LT ISZERO PUSH2 0x312 JUMPI PUSH1 0x40 MLOAD PUSH32 0x8C379A000000000000000000000000000000000000000000000000000000000 DUP2 MSTORE PUSH1 0x4 ADD PUSH2 0x309 SWAP1 PUSH2 0x12C0 JUMP JUMPDEST PUSH1 0x40 MLOAD DUP1 SWAP2 SUB SWAP1 REVERT JUMPDEST PUSH0 PUSH0 SWAP1 SLOAD SWAP1 PUSH2 0x100 EXP SWAP1 DIV PUSH20 0xFFFFFFFFFFFFFFFFFFFFFFFFFFFFFFFFFFFFFFFF AND PUSH20 0xFFFFFFFFFFFFFFFFFFFFFFFFFFFFFFFFFFFFFFFF AND PUSH4 0x8BAECC21 DUP7 PUSH1 0x40 MLOAD DUP3 PUSH4 0xFFFFFFFF AND PUSH1 0xE0 SHL DUP2 MSTORE PUSH1 0x4 ADD PUSH2 0x36B SWAP2 SWAP1 PUSH2 0xEC9 JUMP JUMPDEST PUSH0 PUSH1 0x40 MLOAD DUP1 DUP4 SUB DUP2 PUSH0 DUP8 DUP1 EXTCODESIZE ISZERO DUP1 ISZERO PUSH2 0x382 JUMPI PUSH0 PUSH0 REVERT JUMPDEST POP GAS CALL ISZERO DUP1 ISZERO PUSH2 0x394 JUMPI RETURNDATASIZE PUSH0 PUSH0 RETURNDATACOPY RETURNDATASIZE PUSH0 REVERT JUMPDEST POP POP POP POP POP POP POP POP POP JUMP JUMPDEST PUSH0 PUSH6 0x9184E72A000 SWAP1 POP PUSH0 DUP2 DUP4 PUSH2 0x3B6 SWAP2 SWAP1 PUSH2 0x114C JUMP JUMPDEST SWAP1 POP DUP1 CALLVALUE LT ISZERO PUSH2 0x3FB JUMPI PUSH1 0x40 MLOAD PUSH32 0x8C379A000000000000000000000000000000000000000000000000000000000 DUP2 MSTORE PUSH1 0x4 ADD PUSH2 0x3F2 SWAP1 PUSH2 0x1328 JUMP JUMPDEST PUSH1 0x40 MLOAD DUP1 SWAP2 SUB SWAP1 REVERT JUMPDEST PUSH0 PUSH0 SWAP1 SLOAD SWAP1 PUSH2 0x100 EXP SWAP1 DIV PUSH20 0xFFFFFFFFFFFFFFFFFFFFFFFFFFFFFFFFFFFFFFFF AND PUSH20 0xFFFFFFFFFFFFFFFFFFFFFFFFFFFFFFFFFFFFFFFF AND PUSH4 0x1942D199 DUP6 DUP6 PUSH1 0x40 MLOAD DUP4 PUSH4 0xFFFFFFFF AND PUSH1 0xE0 SHL DUP2 MSTORE PUSH1 0x4 ADD PUSH2 0x456 SWAP3 SWAP2 SWAP1 PUSH2 0x1346 JUMP JUMPDEST PUSH0 PUSH1 0x40 MLOAD DUP1 DUP4 SUB DUP2 PUSH0 DUP8 DUP1 EXTCODESIZE ISZERO DUP1 ISZERO PUSH2 0x46D JUMPI PUSH0 PUSH0 REVERT JUMPDEST POP GAS CALL ISZERO DUP1 ISZERO PUSH2 0x47F JUMPI RETURNDATASIZE PUSH0 PUSH0 RETURNDATACOPY RETURNDATASIZE PUSH0 REVERT JUMPDEST POP POP POP POP POP POP POP POP JUMP JUMPDEST PUSH1 0x1 PUSH0 SWAP1 SLOAD SWAP1 PUSH2 0x100 EXP SWAP1 DIV PUSH20 0xFFFFFFFFFFFFFFFFFFFFFFFFFFFFFFFFFFFFFFFF AND PUSH20 0xFFFFFFFFFFFFFFFFFFFFFFFFFFFFFFFFFFFFFFFF AND CALLER PUSH20 0xFFFFFFFFFFFFFFFFFFFFFFFFFFFFFFFFFFFFFFFF AND EQ PUSH2 0x518 JUMPI PUSH1 0x40 MLOAD PUSH32 0x8C379A000000000000000000000000000000000000000000000000000000000 DUP2 MSTORE PUSH1 0x4 ADD PUSH2 0x50F SWAP1 PUSH2 0x13B7 JUMP JUMPDEST PUSH1 0x40 MLOAD DUP1 SWAP2 SUB SWAP1 REVERT JUMPDEST PUSH1 0x1 PUSH0 SWAP1 SLOAD SWAP1 PUSH2 0x100 EXP SWAP1 DIV PUSH20 0xFFFFFFFFFFFFFFFFFFFFFFFFFFFFFFFFFFFFFFFF AND PUSH20 0xFFFFFFFFFFFFFFFFFFFFFFFFFFFFFFFFFFFFFFFF AND PUSH2 0x8FC SELFBALANCE SWAP1 DUP2 ISZERO MUL SWAP1 PUSH1 0x40 MLOAD PUSH0 PUSH1 0x40 MLOAD DUP1 DUP4 SUB DUP2 DUP6 DUP9 DUP9 CALL SWAP4 POP POP POP POP ISZERO DUP1 ISZERO PUSH2 0x57C JUMPI RETURNDATASIZE PUSH0 PUSH0 RETURNDATACOPY RETURNDATASIZE PUSH0 REVERT JUMPDEST POP JUMP JUMPDEST PUSH0 PUSH0 SWAP1 SLOAD SWAP1 PUSH2 0x100 EXP SWAP1 DIV PUSH20 0xFFFFFFFFFFFFFFFFFFFFFFFFFFFFFFFFFFFFFFFF AND DUP2 JUMP JUMPDEST PUSH1 0x1 PUSH0 SWAP1 SLOAD SWAP1 PUSH2 0x100 EXP SWAP1 DIV PUSH20 0xFFFFFFFFFFFFFFFFFFFFFFFFFFFFFFFFFFFFFFFF AND DUP2 JUMP JUMPDEST PUSH0 PUSH2 0x5D2 DUP3 PUSH2 0xA2E JUMP JUMPDEST SWAP1 POP DUP1 CALLVALUE LT ISZERO PUSH2 0x617 JUMPI PUSH1 0x40 MLOAD PUSH32 0x8C379A000000000000000000000000000000000000000000000000000000000 DUP2 MSTORE PUSH1 0x4 ADD PUSH2 0x60E SWAP1 PUSH2 0x1445 JUMP JUMPDEST PUSH1 0x40 MLOAD DUP1 SWAP2 SUB SWAP1 REVERT JUMPDEST PUSH0 PUSH2 0x3E8 TIMESTAMP CALLER PUSH1 0x40 MLOAD PUSH1 0x20 ADD PUSH2 0x62E SWAP3 SWAP2 SWAP1 PUSH2 0x14C8 JUMP JUMPDEST PUSH1 0x40 MLOAD PUSH1 0x20 DUP2 DUP4 SUB SUB DUP2 MSTORE SWAP1 PUSH1 0x40 MSTORE DUP1 MLOAD SWAP1 PUSH1 0x20 ADD KECCAK256 PUSH0 SHR PUSH2 0x650 SWAP2 SWAP1 PUSH2 0x14F3 JUMP JUMPDEST SWAP1 POP PUSH1 0xA DUP2 LT ISZERO PUSH2 0x6FB JUMPI PUSH0 PUSH0 SWAP1 SLOAD SWAP1 PUSH2 0x100 EXP SWAP1 DIV PUSH20 0xFFFFFFFFFFFFFFFFFFFFFFFFFFFFFFFFFFFFFFFF AND PUSH20 0xFFFFFFFFFFFFFFFFFFFFFFFFFFFFFFFFFFFFFFFF AND PUSH4 0x4D2D7881 PUSH1 0xA PUSH1 0x40 MLOAD DUP3 PUSH4 0xFFFFFFFF AND PUSH1 0xE0 SHL DUP2 MSTORE PUSH1 0x4 ADD PUSH2 0x6B5 SWAP2 SWAP1 PUSH2 0x1596 JUMP JUMPDEST PUSH1 0x20 PUSH1 0x40 MLOAD DUP1 DUP4 SUB DUP2 PUSH0 DUP8 GAS CALL ISZERO DUP1 ISZERO PUSH2 0x6D1 JUMPI RETURNDATASIZE PUSH0 PUSH0 RETURNDATACOPY RETURNDATASIZE PUSH0 REVERT JUMPDEST POP POP POP POP PUSH1 0x40 MLOAD RETURNDATASIZE PUSH1 0x1F NOT PUSH1 0x1F DUP3 ADD AND DUP3 ADD DUP1 PUSH1 0x40 MSTORE POP DUP2 ADD SWAP1 PUSH2 0x6F5 SWAP2 SWAP1 PUSH2 0x15E2 JUMP JUMPDEST POP PUSH2 0x796 JUMP JUMPDEST PUSH0 PUSH0 SWAP1 SLOAD SWAP1 PUSH2 0x100 EXP SWAP1 DIV PUSH20 0xFFFFFFFFFFFFFFFFFFFFFFFFFFFFFFFFFFFFFFFF AND PUSH20 0xFFFFFFFFFFFFFFFFFFFFFFFFFFFFFFFFFFFFFFFF AND PUSH4 0x4D2D7881 DUP5 PUSH1 0x40 MLOAD DUP3 PUSH4 0xFFFFFFFF AND PUSH1 0xE0 SHL DUP2 MSTORE PUSH1 0x4 ADD PUSH2 0x754 SWAP2 SWAP1 PUSH2 0x1596 JUMP JUMPDEST PUSH1 0x20 PUSH1 0x40 MLOAD DUP1 DUP4 SUB DUP2 PUSH0 DUP8 GAS CALL ISZERO DUP1 ISZERO PUSH2 0x770 JUMPI RETURNDATASIZE PUSH0 PUSH0 RETURNDATACOPY RETURNDATASIZE PUSH0 REVERT JUMPDEST POP POP POP POP PUSH1 0x40 MLOAD RETURNDATASIZE PUSH1 0x1F NOT PUSH1 0x1F DUP3 ADD AND DUP3 ADD DUP1 PUSH1 0x40 MSTORE POP DUP2 ADD SWAP1 PUSH2 0x794 SWAP2 SWAP1 PUSH2 0x15E2 JUMP JUMPDEST POP JUMPDEST POP POP POP JUMP JUMPDEST PUSH7 0x470DE4DF820000 CALLVALUE LT ISZERO PUSH2 0x7E5 JUMPI PUSH1 0x40 MLOAD PUSH32 0x8C379A000000000000000000000000000000000000000000000000000000000 DUP2 MSTORE PUSH1 0x4 ADD PUSH2 0x7DC SWAP1 PUSH2 0x1657 JUMP JUMPDEST PUSH1 0x40 MLOAD DUP1 SWAP2 SUB SWAP1 REVERT JUMPDEST PUSH0 PUSH0 SWAP1 SLOAD SWAP1 PUSH2 0x100 EXP SWAP1 DIV PUSH20 0xFFFFFFFFFFFFFFFFFFFFFFFFFFFFFFFFFFFFFFFF AND PUSH20 0xFFFFFFFFFFFFFFFFFFFFFFFFFFFFFFFFFFFFFFFF AND PUSH4 0x49B1A0BF DUP3 PUSH1 0x40 MLOAD DUP3 PUSH4 0xFFFFFFFF AND PUSH1 0xE0 SHL DUP2 MSTORE PUSH1 0x4 ADD PUSH2 0x83E SWAP2 SWAP1 PUSH2 0xEC9 JUMP JUMPDEST PUSH0 PUSH1 0x40 MLOAD DUP1 DUP4 SUB DUP2 PUSH0 DUP8 DUP1 EXTCODESIZE ISZERO DUP1 ISZERO PUSH2 0x855 JUMPI PUSH0 PUSH0 REVERT JUMPDEST POP GAS CALL ISZERO DUP1 ISZERO PUSH2 0x867 JUMPI RETURNDATASIZE PUSH0 PUSH0 RETURNDATACOPY RETURNDATASIZE PUSH0 REVERT JUMPDEST POP POP POP POP POP JUMP JUMPDEST PUSH7 0x11C37937E08000 CALLVALUE LT ISZERO PUSH2 0x8B8 JUMPI PUSH1 0x40 MLOAD PUSH32 0x8C379A000000000000000000000000000000000000000000000000000000000 DUP2 MSTORE PUSH1 0x4 ADD PUSH2 0x8AF SWAP1 PUSH2 0x16BF JUMP JUMPDEST PUSH1 0x40 MLOAD DUP1 SWAP2 SUB SWAP1 REVERT JUMPDEST PUSH0 PUSH0 SWAP1 SLOAD SWAP1 PUSH2 0x100 EXP SWAP1 DIV PUSH20 0xFFFFFFFFFFFFFFFFFFFFFFFFFFFFFFFFFFFFFFFF AND PUSH20 0xFFFFFFFFFFFFFFFFFFFFFFFFFFFFFFFFFFFFFFFF AND PUSH4 0xBFF998F4 DUP3 PUSH1 0x40 MLOAD DUP3 PUSH4 0xFFFFFFFF AND PUSH1 0xE0 SHL DUP2 MSTORE PUSH1 0x4 ADD PUSH2 0x911 SWAP2 SWAP1 PUSH2 0xEC9 JUMP JUMPDEST PUSH0 PUSH1 0x40 MLOAD DUP1 DUP4 SUB DUP2 PUSH0 DUP8 DUP1 EXTCODESIZE ISZERO DUP1 ISZERO PUSH2 0x928 JUMPI PUSH0 PUSH0 REVERT JUMPDEST POP GAS CALL ISZERO DUP1 ISZERO PUSH2 0x93A JUMPI RETURNDATASIZE PUSH0 PUSH0 RETURNDATACOPY RETURNDATASIZE PUSH0 REVERT JUMPDEST POP POP POP POP POP JUMP JUMPDEST PUSH0 PUSH8 0x2C68AF0BB140000 SWAP1 POP DUP1 CALLVALUE LT ISZERO PUSH2 0x990 JUMPI PUSH1 0x40 MLOAD PUSH32 0x8C379A000000000000000000000000000000000000000000000000000000000 DUP2 MSTORE PUSH1 0x4 ADD PUSH2 0x987 SWAP1 PUSH2 0x174D JUMP JUMPDEST PUSH1 0x40 MLOAD DUP1 SWAP2 SUB SWAP1 REVERT JUMPDEST PUSH0 PUSH0 SWAP1 SLOAD SWAP1 PUSH2 0x100 EXP SWAP1 DIV PUSH20 0xFFFFFFFFFFFFFFFFFFFFFFFFFFFFFFFFFFFFFFFF AND PUSH20 0xFFFFFFFFFFFFFFFFFFFFFFFFFFFFFFFFFFFFFFFF AND PUSH4 0x4D2D7881 PUSH1 0xA PUSH1 0x40 MLOAD DUP3 PUSH4 0xFFFFFFFF AND PUSH1 0xE0 SHL DUP2 MSTORE PUSH1 0x4 ADD PUSH2 0x9EA SWAP2 SWAP1 PUSH2 0x1596 JUMP JUMPDEST PUSH1 0x20 PUSH1 0x40 MLOAD DUP1 DUP4 SUB DUP2 PUSH0 DUP8 GAS CALL ISZERO DUP1 ISZERO PUSH2 0xA06 JUMPI RETURNDATASIZE PUSH0 PUSH0 RETURNDATACOPY RETURNDATASIZE PUSH0 REVERT JUMPDEST POP POP POP POP PUSH1 0x40 MLOAD RETURNDATASIZE PUSH1 0x1F NOT PUSH1 0x1F DUP3 ADD AND DUP3 ADD DUP1 PUSH1 0x40 MSTORE POP DUP2 ADD SWAP1 PUSH2 0xA2A SWAP2 SWAP1 PUSH2 0x15E2 JUMP JUMPDEST POP POP JUMP JUMPDEST PUSH0 PUSH0 PUSH1 0xA DUP2 GT ISZERO PUSH2 0xA42 JUMPI PUSH2 0xA41 PUSH2 0x1523 JUMP JUMPDEST JUMPDEST DUP3 PUSH1 0xA DUP2 GT ISZERO PUSH2 0xA55 JUMPI PUSH2 0xA54 PUSH2 0x1523 JUMP JUMPDEST JUMPDEST SUB PUSH2 0xA69 JUMPI PUSH7 0xB1A2BC2EC50000 SWAP1 POP PUSH2 0xCF2 JUMP JUMPDEST PUSH1 0x1 PUSH1 0xA DUP2 GT ISZERO PUSH2 0xA7D JUMPI PUSH2 0xA7C PUSH2 0x1523 JUMP JUMPDEST JUMPDEST DUP3 PUSH1 0xA DUP2 GT ISZERO PUSH2 0xA90 JUMPI PUSH2 0xA8F PUSH2 0x1523 JUMP JUMPDEST JUMPDEST SUB PUSH2 0xAA4 JUMPI PUSH7 0xB1A2BC2EC50000 SWAP1 POP PUSH2 0xCF2 JUMP JUMPDEST PUSH1 0x2 PUSH1 0xA DUP2 GT ISZERO PUSH2 0xAB8 JUMPI PUSH2 0xAB7 PUSH2 0x1523 JUMP JUMPDEST JUMPDEST DUP3 PUSH1 0xA DUP2 GT ISZERO PUSH2 0xACB JUMPI PUSH2 0xACA PUSH2 0x1523 JUMP JUMPDEST JUMPDEST SUB PUSH2 0xADF JUMPI PUSH7 0x470DE4DF820000 SWAP1 POP PUSH2 0xCF2 JUMP JUMPDEST PUSH1 0x3 PUSH1 0xA DUP2 GT ISZERO PUSH2 0xAF3 JUMPI PUSH2 0xAF2 PUSH2 0x1523 JUMP JUMPDEST JUMPDEST DUP3 PUSH1 0xA DUP2 GT ISZERO PUSH2 0xB06 JUMPI PUSH2 0xB05 PUSH2 0x1523 JUMP JUMPDEST JUMPDEST SUB PUSH2 0xB1A JUMPI PUSH7 0x6A94D74F430000 SWAP1 POP PUSH2 0xCF2 JUMP JUMPDEST PUSH1 0x4 PUSH1 0xA DUP2 GT ISZERO PUSH2 0xB2E JUMPI PUSH2 0xB2D PUSH2 0x1523 JUMP JUMPDEST JUMPDEST DUP3 PUSH1 0xA DUP2 GT ISZERO PUSH2 0xB41 JUMPI PUSH2 0xB40 PUSH2 0x1523 JUMP JUMPDEST JUMPDEST SUB PUSH2 0xB55 JUMPI PUSH7 0x3FF2E795F50000 SWAP1 POP PUSH2 0xCF2 JUMP JUMPDEST PUSH1 0x5 PUSH1 0xA DUP2 GT ISZERO PUSH2 0xB69 JUMPI PUSH2 0xB68 PUSH2 0x1523 JUMP JUMPDEST JUMPDEST DUP3 PUSH1 0xA DUP2 GT ISZERO PUSH2 0xB7C JUMPI PUSH2 0xB7B PUSH2 0x1523 JUMP JUMPDEST JUMPDEST SUB PUSH2 0xB90 JUMPI PUSH7 0x2386F26FC10000 SWAP1 POP PUSH2 0xCF2 JUMP JUMPDEST PUSH1 0x6 PUSH1 0xA DUP2 GT ISZERO PUSH2 0xBA4 JUMPI PUSH2 0xBA3 PUSH2 0x1523 JUMP JUMPDEST JUMPDEST DUP3 PUSH1 0xA DUP2 GT ISZERO PUSH2 0xBB7 JUMPI PUSH2 0xBB6 PUSH2 0x1523 JUMP JUMPDEST JUMPDEST SUB PUSH2 0xBCB JUMPI PUSH7 0x2386F26FC10000 SWAP1 POP PUSH2 0xCF2 JUMP JUMPDEST PUSH1 0x7 PUSH1 0xA DUP2 GT ISZERO PUSH2 0xBDF JUMPI PUSH2 0xBDE PUSH2 0x1523 JUMP JUMPDEST JUMPDEST DUP3 PUSH1 0xA DUP2 GT ISZERO PUSH2 0xBF2 JUMPI PUSH2 0xBF1 PUSH2 0x1523 JUMP JUMPDEST JUMPDEST SUB PUSH2 0xC06 JUMPI PUSH7 0x2AA1EFB94E0000 SWAP1 POP PUSH2 0xCF2 JUMP JUMPDEST PUSH1 0x8 PUSH1 0xA DUP2 GT ISZERO PUSH2 0xC1A JUMPI PUSH2 0xC19 PUSH2 0x1523 JUMP JUMPDEST JUMPDEST DUP3 PUSH1 0xA DUP2 GT ISZERO PUSH2 0xC2D JUMPI PUSH2 0xC2C PUSH2 0x1523 JUMP JUMPDEST JUMPDEST SUB PUSH2 0xC41 JUMPI PUSH7 0x8E1BC9BF040000 SWAP1 POP PUSH2 0xCF2 JUMP JUMPDEST PUSH1 0x9 PUSH1 0xA DUP2 GT ISZERO PUSH2 0xC55 JUMPI PUSH2 0xC54 PUSH2 0x1523 JUMP JUMPDEST JUMPDEST DUP3 PUSH1 0xA DUP2 GT ISZERO PUSH2 0xC68 JUMPI PUSH2 0xC67 PUSH2 0x1523 JUMP JUMPDEST JUMPDEST SUB PUSH2 0xC7C JUMPI PUSH7 0x2386F26FC10000 SWAP1 POP PUSH2 0xCF2 JUMP JUMPDEST PUSH1 0xA DUP1 DUP2 GT ISZERO PUSH2 0xC8F JUMPI PUSH2 0xC8E PUSH2 0x1523 JUMP JUMPDEST JUMPDEST DUP3 PUSH1 0xA DUP2 GT ISZERO PUSH2 0xCA2 JUMPI PUSH2 0xCA1 PUSH2 0x1523 JUMP JUMPDEST JUMPDEST SUB PUSH2 0xCB7 JUMPI PUSH8 0x2C68AF0BB140000 SWAP1 POP PUSH2 0xCF2 JUMP JUMPDEST PUSH1 0x40 MLOAD PUSH32 0x8C379A000000000000000000000000000000000000000000000000000000000 DUP2 MSTORE PUSH1 0x4 ADD PUSH2 0xCE9 SWAP1 PUSH2 0x17B5 JUMP JUMPDEST PUSH1 0x40 MLOAD DUP1 SWAP2 SUB SWAP1 REVERT JUMPDEST SWAP2 SWAP1 POP JUMP JUMPDEST PUSH0 PUSH1 0x40 MLOAD SWAP1 POP SWAP1 JUMP JUMPDEST PUSH0 PUSH0 REVERT JUMPDEST PUSH0 DUP2 SWAP1 POP SWAP2 SWAP1 POP JUMP JUMPDEST PUSH2 0xD16 DUP2 PUSH2 0xD04 JUMP JUMPDEST DUP2 EQ PUSH2 0xD20 JUMPI PUSH0 PUSH0 REVERT JUMPDEST POP JUMP JUMPDEST PUSH0 DUP2 CALLDATALOAD SWAP1 POP PUSH2 0xD31 DUP2 PUSH2 0xD0D JUMP JUMPDEST SWAP3 SWAP2 POP POP JUMP JUMPDEST PUSH0 PUSH1 0x20 DUP3 DUP5 SUB SLT ISZERO PUSH2 0xD4C JUMPI PUSH2 0xD4B PUSH2 0xD00 JUMP JUMPDEST JUMPDEST PUSH0 PUSH2 0xD59 DUP5 DUP3 DUP6 ADD PUSH2 0xD23 JUMP JUMPDEST SWAP2 POP POP SWAP3 SWAP2 POP POP JUMP JUMPDEST PUSH0 PUSH0 PUSH1 0x40 DUP4 DUP6 SUB SLT ISZERO PUSH2 0xD78 JUMPI PUSH2 0xD77 PUSH2 0xD00 JUMP JUMPDEST JUMPDEST PUSH0 PUSH2 0xD85 DUP6 DUP3 DUP7 ADD PUSH2 0xD23 JUMP JUMPDEST SWAP3 POP POP PUSH1 0x20 PUSH2 0xD96 DUP6 DUP3 DUP7 ADD PUSH2 0xD23 JUMP JUMPDEST SWAP2 POP POP SWAP3 POP SWAP3 SWAP1 POP JUMP JUMPDEST PUSH0 PUSH20 0xFFFFFFFFFFFFFFFFFFFFFFFFFFFFFFFFFFFFFFFF DUP3 AND SWAP1 POP SWAP2 SWAP1 POP JUMP JUMPDEST PUSH0 DUP2 SWAP1 POP SWAP2 SWAP1 POP JUMP JUMPDEST PUSH0 PUSH2 0xDE2 PUSH2 0xDDD PUSH2 0xDD8 DUP5 PUSH2 0xDA0 JUMP JUMPDEST PUSH2 0xDBF JUMP JUMPDEST PUSH2 0xDA0 JUMP JUMPDEST SWAP1 POP SWAP2 SWAP1 POP JUMP JUMPDEST PUSH0 PUSH2 0xDF3 DUP3 PUSH2 0xDC8 JUMP JUMPDEST SWAP1 POP SWAP2 SWAP1 POP JUMP JUMPDEST PUSH0 PUSH2 0xE04 DUP3 PUSH2 0xDE9 JUMP JUMPDEST SWAP1 POP SWAP2 SWAP1 POP JUMP JUMPDEST PUSH2 0xE14 DUP2 PUSH2 0xDFA JUMP JUMPDEST DUP3 MSTORE POP POP JUMP JUMPDEST PUSH0 PUSH1 0x20 DUP3 ADD SWAP1 POP PUSH2 0xE2D PUSH0 DUP4 ADD DUP5 PUSH2 0xE0B JUMP JUMPDEST SWAP3 SWAP2 POP POP JUMP JUMPDEST PUSH0 PUSH2 0xE3D DUP3 PUSH2 0xDA0 JUMP JUMPDEST SWAP1 POP SWAP2 SWAP1 POP JUMP JUMPDEST PUSH2 0xE4D DUP2 PUSH2 0xE33 JUMP JUMPDEST DUP3 MSTORE POP POP JUMP JUMPDEST PUSH0 PUSH1 0x20 DUP3 ADD SWAP1 POP PUSH2 0xE66 PUSH0 DUP4 ADD DUP5 PUSH2 0xE44 JUMP JUMPDEST SWAP3 SWAP2 POP POP JUMP JUMPDEST PUSH1 0xB DUP2 LT PUSH2 0xE78 JUMPI PUSH0 PUSH0 REVERT JUMPDEST POP JUMP JUMPDEST PUSH0 DUP2 CALLDATALOAD SWAP1 POP PUSH2 0xE89 DUP2 PUSH2 0xE6C JUMP JUMPDEST SWAP3 SWAP2 POP POP JUMP JUMPDEST PUSH0 PUSH1 0x20 DUP3 DUP5 SUB SLT ISZERO PUSH2 0xEA4 JUMPI PUSH2 0xEA3 PUSH2 0xD00 JUMP JUMPDEST JUMPDEST PUSH0 PUSH2 0xEB1 DUP5 DUP3 DUP6 ADD PUSH2 0xE7B JUMP JUMPDEST SWAP2 POP POP SWAP3 SWAP2 POP POP JUMP JUMPDEST PUSH2 0xEC3 DUP2 PUSH2 0xD04 JUMP JUMPDEST DUP3 MSTORE POP POP JUMP JUMPDEST PUSH0 PUSH1 0x20 DUP3 ADD SWAP1 POP PUSH2 0xEDC PUSH0 DUP4 ADD DUP5 PUSH2 0xEBA JUMP JUMPDEST SWAP3 SWAP2 POP POP JUMP JUMPDEST PUSH0 PUSH0 REVERT JUMPDEST PUSH0 PUSH1 0x1F NOT PUSH1 0x1F DUP4 ADD AND SWAP1 POP SWAP2 SWAP1 POP JUMP JUMPDEST PUSH32 0x4E487B7100000000000000000000000000000000000000000000000000000000 PUSH0 MSTORE PUSH1 0x41 PUSH1 0x4 MSTORE PUSH1 0x24 PUSH0 REVERT JUMPDEST PUSH2 0xF2C DUP3 PUSH2 0xEE6 JUMP JUMPDEST DUP2 ADD DUP2 DUP2 LT PUSH8 0xFFFFFFFFFFFFFFFF DUP3 GT OR ISZERO PUSH2 0xF4B JUMPI PUSH2 0xF4A PUSH2 0xEF6 JUMP JUMPDEST JUMPDEST DUP1 PUSH1 0x40 MSTORE POP POP POP JUMP JUMPDEST PUSH0 PUSH2 0xF5D PUSH2 0xCF7 JUMP JUMPDEST SWAP1 POP PUSH2 0xF69 DUP3 DUP3 PUSH2 0xF23 JUMP JUMPDEST SWAP2 SWAP1 POP JUMP JUMPDEST PUSH0 DUP2 MLOAD SWAP1 POP PUSH2 0xF7C DUP2 PUSH2 0xD0D JUMP JUMPDEST SWAP3 SWAP2 POP POP JUMP JUMPDEST PUSH0 DUP2 MLOAD SWAP1 POP PUSH2 0xF90 DUP2 PUSH2 0xE6C JUMP JUMPDEST SWAP3 SWAP2 POP POP JUMP JUMPDEST PUSH0 DUP2 ISZERO ISZERO SWAP1 POP SWAP2 SWAP1 POP JUMP JUMPDEST PUSH2 0xFAA DUP2 PUSH2 0xF96 JUMP JUMPDEST DUP2 EQ PUSH2 0xFB4 JUMPI PUSH0 PUSH0 REVERT JUMPDEST POP JUMP JUMPDEST PUSH0 DUP2 MLOAD SWAP1 POP PUSH2 0xFC5 DUP2 PUSH2 0xFA1 JUMP JUMPDEST SWAP3 SWAP2 POP POP JUMP JUMPDEST PUSH0 PUSH1 0xE0 DUP3 DUP5 SUB SLT ISZERO PUSH2 0xFE0 JUMPI PUSH2 0xFDF PUSH2 0xEE2 JUMP JUMPDEST JUMPDEST PUSH2 0xFEA PUSH1 0xE0 PUSH2 0xF54 JUMP JUMPDEST SWAP1 POP PUSH0 PUSH2 0xFF9 DUP5 DUP3 DUP6 ADD PUSH2 0xF6E JUMP JUMPDEST PUSH0 DUP4 ADD MSTORE POP PUSH1 0x20 PUSH2 0x100C DUP5 DUP3 DUP6 ADD PUSH2 0xF6E JUMP JUMPDEST PUSH1 0x20 DUP4 ADD MSTORE POP PUSH1 0x40 PUSH2 0x1020 DUP5 DUP3 DUP6 ADD PUSH2 0xF6E JUMP JUMPDEST PUSH1 0x40 DUP4 ADD MSTORE POP PUSH1 0x60 PUSH2 0x1034 DUP5 DUP3 DUP6 ADD PUSH2 0xF82 JUMP JUMPDEST PUSH1 0x60 DUP4 ADD MSTORE POP PUSH1 0x80 PUSH2 0x1048 DUP5 DUP3 DUP6 ADD PUSH2 0xF6E JUMP JUMPDEST PUSH1 0x80 DUP4 ADD MSTORE POP PUSH1 0xA0 PUSH2 0x105C DUP5 DUP3 DUP6 ADD PUSH2 0xFB7 JUMP JUMPDEST PUSH1 0xA0 DUP4 ADD MSTORE POP PUSH1 0xC0 PUSH2 0x1070 DUP5 DUP3 DUP6 ADD PUSH2 0xF6E JUMP JUMPDEST PUSH1 0xC0 DUP4 ADD MSTORE POP SWAP3 SWAP2 POP POP JUMP JUMPDEST PUSH0 PUSH1 0xE0 DUP3 DUP5 SUB SLT ISZERO PUSH2 0x1091 JUMPI PUSH2 0x1090 PUSH2 0xD00 JUMP JUMPDEST JUMPDEST PUSH0 PUSH2 0x109E DUP5 DUP3 DUP6 ADD PUSH2 0xFCB JUMP JUMPDEST SWAP2 POP POP SWAP3 SWAP2 POP POP JUMP JUMPDEST PUSH0 DUP3 DUP3 MSTORE PUSH1 0x20 DUP3 ADD SWAP1 POP SWAP3 SWAP2 POP POP JUMP JUMPDEST PUSH32 0x42697264206973206E6F74206465616400000000000000000000000000000000 PUSH0 DUP3 ADD MSTORE POP JUMP JUMPDEST PUSH0 PUSH2 0x10EB PUSH1 0x10 DUP4 PUSH2 0x10A7 JUMP JUMPDEST SWAP2 POP PUSH2 0x10F6 DUP3 PUSH2 0x10B7 JUMP JUMPDEST PUSH1 0x20 DUP3 ADD SWAP1 POP SWAP2 SWAP1 POP JUMP JUMPDEST PUSH0 PUSH1 0x20 DUP3 ADD SWAP1 POP DUP2 DUP2 SUB PUSH0 DUP4 ADD MSTORE PUSH2 0x1118 DUP2 PUSH2 0x10DF JUMP JUMPDEST SWAP1 POP SWAP2 SWAP1 POP JUMP JUMPDEST PUSH32 0x4E487B7100000000000000000000000000000000000000000000000000000000 PUSH0 MSTORE PUSH1 0x11 PUSH1 0x4 MSTORE PUSH1 0x24 PUSH0 REVERT JUMPDEST PUSH0 PUSH2 0x1156 DUP3 PUSH2 0xD04 JUMP JUMPDEST SWAP2 POP PUSH2 0x1161 DUP4 PUSH2 0xD04 JUMP JUMPDEST SWAP3 POP DUP3 DUP3 MUL PUSH2 0x116F DUP2 PUSH2 0xD04 JUMP JUMPDEST SWAP2 POP DUP3 DUP3 DIV DUP5 EQ DUP4 ISZERO OR PUSH2 0x1186 JUMPI PUSH2 0x1185 PUSH2 0x111F JUMP JUMPDEST JUMPDEST POP SWAP3 SWAP2 POP POP JUMP JUMPDEST PUSH0 PUSH2 0x1197 DUP3 PUSH2 0xD04 JUMP JUMPDEST SWAP2 POP PUSH2 0x11A2 DUP4 PUSH2 0xD04 JUMP JUMPDEST SWAP3 POP DUP3 DUP3 SUB SWAP1 POP DUP2 DUP2 GT ISZERO PUSH2 0x11BA JUMPI PUSH2 0x11B9 PUSH2 0x111F JUMP JUMPDEST JUMPDEST SWAP3 SWAP2 POP POP JUMP JUMPDEST PUSH32 0x4E487B7100000000000000000000000000000000000000000000000000000000 PUSH0 MSTORE PUSH1 0x12 PUSH1 0x4 MSTORE PUSH1 0x24 PUSH0 REVERT JUMPDEST PUSH0 PUSH2 0x11F7 DUP3 PUSH2 0xD04 JUMP JUMPDEST SWAP2 POP PUSH2 0x1202 DUP4 PUSH2 0xD04 JUMP JUMPDEST SWAP3 POP DUP3 PUSH2 0x1212 JUMPI PUSH2 0x1211 PUSH2 0x11C0 JUMP JUMPDEST JUMPDEST DUP3 DUP3 DIV SWAP1 POP SWAP3 SWAP2 POP POP JUMP JUMPDEST PUSH0 PUSH2 0x1227 DUP3 PUSH2 0xD04 JUMP JUMPDEST SWAP2 POP PUSH2 0x1232 DUP4 PUSH2 0xD04 JUMP JUMPDEST SWAP3 POP DUP3 DUP3 ADD SWAP1 POP DUP1 DUP3 GT ISZERO PUSH2 0x124A JUMPI PUSH2 0x1249 PUSH2 0x111F JUMP JUMPDEST JUMPDEST SWAP3 SWAP2 POP POP JUMP JUMPDEST PUSH32 0x4E6F7420656E6F7567682045544820746F207265766976652074686973206269 PUSH0 DUP3 ADD MSTORE PUSH32 0x7264000000000000000000000000000000000000000000000000000000000000 PUSH1 0x20 DUP3 ADD MSTORE POP JUMP JUMPDEST PUSH0 PUSH2 0x12AA PUSH1 0x22 DUP4 PUSH2 0x10A7 JUMP JUMPDEST SWAP2 POP PUSH2 0x12B5 DUP3 PUSH2 0x1250 JUMP JUMPDEST PUSH1 0x40 DUP3 ADD SWAP1 POP SWAP2 SWAP1 POP JUMP JUMPDEST PUSH0 PUSH1 0x20 DUP3 ADD SWAP1 POP DUP2 DUP2 SUB PUSH0 DUP4 ADD MSTORE PUSH2 0x12D7 DUP2 PUSH2 0x129E JUMP JUMPDEST SWAP1 POP SWAP2 SWAP1 POP JUMP JUMPDEST PUSH32 0x4E6F7420656E6F7567682045544820746F206665656400000000000000000000 PUSH0 DUP3 ADD MSTORE POP JUMP JUMPDEST PUSH0 PUSH2 0x1312 PUSH1 0x16 DUP4 PUSH2 0x10A7 JUMP JUMPDEST SWAP2 POP PUSH2 0x131D DUP3 PUSH2 0x12DE JUMP JUMPDEST PUSH1 0x20 DUP3 ADD SWAP1 POP SWAP2 SWAP1 POP JUMP JUMPDEST PUSH0 PUSH1 0x20 DUP3 ADD SWAP1 POP DUP2 DUP2 SUB PUSH0 DUP4 ADD MSTORE PUSH2 0x133F DUP2 PUSH2 0x1306 JUMP JUMPDEST SWAP1 POP SWAP2 SWAP1 POP JUMP JUMPDEST PUSH0 PUSH1 0x40 DUP3 ADD SWAP1 POP PUSH2 0x1359 PUSH0 DUP4 ADD DUP6 PUSH2 0xEBA JUMP JUMPDEST PUSH2 0x1366 PUSH1 0x20 DUP4 ADD DUP5 PUSH2 0xEBA JUMP JUMPDEST SWAP4 SWAP3 POP POP POP JUMP JUMPDEST PUSH32 0x4E6F74206F776E65720000000000000000000000000000000000000000000000 PUSH0 DUP3 ADD MSTORE POP JUMP JUMPDEST PUSH0 PUSH2 0x13A1 PUSH1 0x9 DUP4 PUSH2 0x10A7 JUMP JUMPDEST SWAP2 POP PUSH2 0x13AC DUP3 PUSH2 0x136D JUMP JUMPDEST PUSH1 0x20 DUP3 ADD SWAP1 POP SWAP2 SWAP1 POP JUMP JUMPDEST PUSH0 PUSH1 0x20 DUP3 ADD SWAP1 POP DUP2 DUP2 SUB PUSH0 DUP4 ADD MSTORE PUSH2 0x13CE DUP2 PUSH2 0x1395 JUMP JUMPDEST SWAP1 POP SWAP2 SWAP1 POP JUMP JUMPDEST PUSH32 0x4E6F7420656E6F7567682045544820746F206D696E7420746869732073706563 PUSH0 DUP3 ADD MSTORE PUSH32 0x6965730000000000000000000000000000000000000000000000000000000000 PUSH1 0x20 DUP3 ADD MSTORE POP JUMP JUMPDEST PUSH0 PUSH2 0x142F PUSH1 0x23 DUP4 PUSH2 0x10A7 JUMP JUMPDEST SWAP2 POP PUSH2 0x143A DUP3 PUSH2 0x13D5 JUMP JUMPDEST PUSH1 0x40 DUP3 ADD SWAP1 POP SWAP2 SWAP1 POP JUMP JUMPDEST PUSH0 PUSH1 0x20 DUP3 ADD SWAP1 POP DUP2 DUP2 SUB PUSH0 DUP4 ADD MSTORE PUSH2 0x145C DUP2 PUSH2 0x1423 JUMP JUMPDEST SWAP1 POP SWAP2 SWAP1 POP JUMP JUMPDEST PUSH0 DUP2 SWAP1 POP SWAP2 SWAP1 POP JUMP JUMPDEST PUSH2 0x147D PUSH2 0x1478 DUP3 PUSH2 0xD04 JUMP JUMPDEST PUSH2 0x1463 JUMP JUMPDEST DUP3 MSTORE POP POP JUMP JUMPDEST PUSH0 DUP2 PUSH1 0x60 SHL SWAP1 POP SWAP2 SWAP1 POP JUMP JUMPDEST PUSH0 PUSH2 0x1499 DUP3 PUSH2 0x1483 JUMP JUMPDEST SWAP1 POP SWAP2 SWAP1 POP JUMP JUMPDEST PUSH0 PUSH2 0x14AA DUP3 PUSH2 0x148F JUMP JUMPDEST SWAP1 POP SWAP2 SWAP1 POP JUMP JUMPDEST PUSH2 0x14C2 PUSH2 0x14BD DUP3 PUSH2 0xE33 JUMP JUMPDEST PUSH2 0x14A0 JUMP JUMPDEST DUP3 MSTORE POP POP JUMP JUMPDEST PUSH0 PUSH2 0x14D3 DUP3 DUP6 PUSH2 0x146C JUMP JUMPDEST PUSH1 0x20 DUP3 ADD SWAP2 POP PUSH2 0x14E3 DUP3 DUP5 PUSH2 0x14B1 JUMP JUMPDEST PUSH1 0x14 DUP3 ADD SWAP2 POP DUP2 SWAP1 POP SWAP4 SWAP3 POP POP POP JUMP JUMPDEST PUSH0 PUSH2 0x14FD DUP3 PUSH2 0xD04 JUMP JUMPDEST SWAP2 POP PUSH2 0x1508 DUP4 PUSH2 0xD04 JUMP JUMPDEST SWAP3 POP DUP3 PUSH2 0x1518 JUMPI PUSH2 0x1517 PUSH2 0x11C0 JUMP JUMPDEST JUMPDEST DUP3 DUP3 MOD SWAP1 POP SWAP3 SWAP2 POP POP JUMP JUMPDEST PUSH32 0x4E487B7100000000000000000000000000000000000000000000000000000000 PUSH0 MSTORE PUSH1 0x21 PUSH1 0x4 MSTORE PUSH1 0x24 PUSH0 REVERT JUMPDEST PUSH1 0xB DUP2 LT PUSH2 0x1561 JUMPI PUSH2 0x1560 PUSH2 0x1523 JUMP JUMPDEST JUMPDEST POP JUMP JUMPDEST PUSH0 DUP2 SWAP1 POP PUSH2 0x1571 DUP3 PUSH2 0x1550 JUMP JUMPDEST SWAP2 SWAP1 POP JUMP JUMPDEST PUSH0 PUSH2 0x1580 DUP3 PUSH2 0x1564 JUMP JUMPDEST SWAP1 POP SWAP2 SWAP1 POP JUMP JUMPDEST PUSH2 0x1590 DUP2 PUSH2 0x1576 JUMP JUMPDEST DUP3 MSTORE POP POP JUMP JUMPDEST PUSH0 PUSH1 0x20 DUP3 ADD SWAP1 POP PUSH2 0x15A9 PUSH0 DUP4 ADD DUP5 PUSH2 0x1587 JUMP JUMPDEST SWAP3 SWAP2 POP POP JUMP JUMPDEST PUSH0 DUP2 SWAP1 POP SWAP2 SWAP1 POP JUMP JUMPDEST PUSH2 0x15C1 DUP2 PUSH2 0x15AF JUMP JUMPDEST DUP2 EQ PUSH2 0x15CB JUMPI PUSH0 PUSH0 REVERT JUMPDEST POP JUMP JUMPDEST PUSH0 DUP2 MLOAD SWAP1 POP PUSH2 0x15DC DUP2 PUSH2 0x15B8 JUMP JUMPDEST SWAP3 SWAP2 POP POP JUMP JUMPDEST PUSH0 PUSH1 0x20 DUP3 DUP5 SUB SLT ISZERO PUSH2 0x15F7 JUMPI PUSH2 0x15F6 PUSH2 0xD00 JUMP JUMPDEST JUMPDEST PUSH0 PUSH2 0x1604 DUP5 DUP3 DUP6 ADD PUSH2 0x15CE JUMP JUMPDEST SWAP2 POP POP SWAP3 SWAP2 POP POP JUMP JUMPDEST PUSH32 0x496E737572616E636520636F73747320302E3032204554480000000000000000 PUSH0 DUP3 ADD MSTORE POP JUMP JUMPDEST PUSH0 PUSH2 0x1641 PUSH1 0x18 DUP4 PUSH2 0x10A7 JUMP JUMPDEST SWAP2 POP PUSH2 0x164C DUP3 PUSH2 0x160D JUMP JUMPDEST PUSH1 0x20 DUP3 ADD SWAP1 POP SWAP2 SWAP1 POP JUMP JUMPDEST PUSH0 PUSH1 0x20 DUP3 ADD SWAP1 POP DUP2 DUP2 SUB PUSH0 DUP4 ADD MSTORE PUSH2 0x166E DUP2 PUSH2 0x1635 JUMP JUMPDEST SWAP1 POP SWAP2 SWAP1 POP JUMP JUMPDEST PUSH32 0x4865616C696E6720636F73747320302E30303520455448000000000000000000 PUSH0 DUP3 ADD MSTORE POP JUMP JUMPDEST PUSH0 PUSH2 0x16A9 PUSH1 0x17 DUP4 PUSH2 0x10A7 JUMP JUMPDEST SWAP2 POP PUSH2 0x16B4 DUP3 PUSH2 0x1675 JUMP JUMPDEST PUSH1 0x20 DUP3 ADD SWAP1 POP SWAP2 SWAP1 POP JUMP JUMPDEST PUSH0 PUSH1 0x20 DUP3 ADD SWAP1 POP DUP2 DUP2 SUB PUSH0 DUP4 ADD MSTORE PUSH2 0x16D6 DUP2 PUSH2 0x169D JUMP JUMPDEST SWAP1 POP SWAP2 SWAP1 POP JUMP JUMPDEST PUSH32 0x4E6F7420656E6F7567682045544820746F206D696E74206D7974686963616C20 PUSH0 DUP3 ADD MSTORE PUSH32 0x6269726400000000000000000000000000000000000000000000000000000000 PUSH1 0x20 DUP3 ADD MSTORE POP JUMP JUMPDEST PUSH0 PUSH2 0x1737 PUSH1 0x24 DUP4 PUSH2 0x10A7 JUMP JUMPDEST SWAP2 POP PUSH2 0x1742 DUP3 PUSH2 0x16DD JUMP JUMPDEST PUSH1 0x40 DUP3 ADD SWAP1 POP SWAP2 SWAP1 POP JUMP JUMPDEST PUSH0 PUSH1 0x20 DUP3 ADD SWAP1 POP DUP2 DUP2 SUB PUSH0 DUP4 ADD MSTORE PUSH2 0x1764 DUP2 PUSH2 0x172B JUMP JUMPDEST SWAP1 POP SWAP2 SWAP1 POP JUMP JUMPDEST PUSH32 0x556E6B6E6F776E20737065636965730000000000000000000000000000000000 PUSH0 DUP3 ADD MSTORE POP JUMP JUMPDEST PUSH0 PUSH2 0x179F PUSH1 0xF DUP4 PUSH2 0x10A7 JUMP JUMPDEST SWAP2 POP PUSH2 0x17AA DUP3 PUSH2 0x176B JUMP JUMPDEST PUSH1 0x20 DUP3 ADD SWAP1 POP SWAP2 SWAP1 POP JUMP JUMPDEST PUSH0 PUSH1 0x20 DUP3 ADD SWAP1 POP DUP2 DUP2 SUB PUSH0 DUP4 ADD MSTORE PUSH2 0x17CC DUP2 PUSH2 0x1793 JUMP JUMPDEST SWAP1 POP SWAP2 SWAP1 POP JUMP INVALID LOG2 PUSH5 0x6970667358 0x22 SLT KECCAK256 0xCF 0x29 0xC9 0x29 0x22 PUSH0 DUP3 DUP15 PUSH2 0x2FED TLOAD STOP SLOAD 0x23 RETF ISZERO 0x25 PUSH32 0x3172FB69E05860C4312162564064736F6C634300081E00330000000000000000 "
				},
				"gasEstimates": {
					"creation": {
						"codeDepositCost": "1230600",
						"executionCost": "infinite",
						"totalCost": "infinite"
					},
					"external": {
						"buyInsurance(uint256)": "infinite",
						"feedBird(uint256,uint256)": "infinite",
						"healBird(uint256)": "infinite",
						"mintLegendaryBird()": "infinite",
						"mintRegularBird(uint8)": "infinite",
						"owner()": "2508",
						"ptakContract()": "infinite",
						"reviveBird(uint256)": "infinite",
						"withdraw()": "infinite"
					}
				},
				"methodIdentifiers": {
					"buyInsurance(uint256)": "a86a658c",
					"feedBird(uint256,uint256)": "1942d199",
					"healBird(uint256)": "bff998f4",
					"mintLegendaryBird()": "eb96efa7",
					"mintRegularBird(uint8)": "9aeb133f",
					"owner()": "8da5cb5b",
					"ptakContract()": "5361e1d2",
					"reviveBird(uint256)": "192812a0",
					"withdraw()": "3ccfd60b"
				}
			},
			"storageLayout": {
				"storage": [
					{
						"astId": 6,
						"contract": "contracts/Park.sol:Park",
						"label": "ptakContract",
						"offset": 0,
						"slot": "0",
						"type": "t_contract(Ptak)844"
					},
					{
						"astId": 8,
						"contract": "contracts/Park.sol:Park",
						"label": "owner",
						"offset": 0,
						"slot": "1",
						"type": "t_address"
					}
				],
				"types": {
					"t_address": {
						"encoding": "inplace",
						"label": "address",
						"numberOfBytes": "20"
					},
					"t_contract(Ptak)844": {
						"encoding": "inplace",
						"label": "contract Ptak",
						"numberOfBytes": "20"
					}
				}
			},
			"userdoc": {
				"kind": "user",
				"methods": {},
				"version": 1
			}
		}
	}
}