{
	"contracts/Ptak.sol": {
		"Ptak": {
			"abi": [
				{
					"inputs": [
						{
							"internalType": "address",
							"name": "_parkContract",
							"type": "address"
						}
					],
					"stateMutability": "nonpayable",
					"type": "constructor"
				},
				{
					"inputs": [
						{
							"internalType": "uint256",
							"name": "",
							"type": "uint256"
						}
					],
					"name": "birds",
					"outputs": [
						{
							"internalType": "uint256",
							"name": "age",
							"type": "uint256"
						},
						{
							"internalType": "uint256",
							"name": "hunger",
							"type": "uint256"
						},
						{
							"internalType": "uint256",
							"name": "health",
							"type": "uint256"
						},
						{
							"internalType": "enum SpeciesLibrary.Species",
							"name": "species",
							"type": "uint8"
						},
						{
							"internalType": "uint256",
							"name": "lastUpdateTime",
							"type": "uint256"
						}
					],
					"stateMutability": "view",
					"type": "function"
				},
				{
					"inputs": [
						{
							"internalType": "uint256",
							"name": "id",
							"type": "uint256"
						},
						{
							"internalType": "uint256",
							"name": "foodAmount",
							"type": "uint256"
						}
					],
					"name": "feedBird",
					"outputs": [],
					"stateMutability": "nonpayable",
					"type": "function"
				},
				{
					"inputs": [
						{
							"internalType": "uint256",
							"name": "id",
							"type": "uint256"
						}
					],
					"name": "getBird",
					"outputs": [
						{
							"components": [
								{
									"internalType": "uint256",
									"name": "age",
									"type": "uint256"
								},
								{
									"internalType": "uint256",
									"name": "hunger",
									"type": "uint256"
								},
								{
									"internalType": "uint256",
									"name": "health",
									"type": "uint256"
								},
								{
									"internalType": "enum SpeciesLibrary.Species",
									"name": "species",
									"type": "uint8"
								},
								{
									"internalType": "uint256",
									"name": "lastUpdateTime",
									"type": "uint256"
								}
							],
							"internalType": "struct Ptak.BirdData",
							"name": "",
							"type": "tuple"
						}
					],
					"stateMutability": "nonpayable",
					"type": "function"
				},
				{
					"inputs": [
						{
							"internalType": "uint256",
							"name": "birdId",
							"type": "uint256"
						}
					],
					"name": "insure",
					"outputs": [],
					"stateMutability": "nonpayable",
					"type": "function"
				},
				{
					"inputs": [
						{
							"internalType": "uint256",
							"name": "",
							"type": "uint256"
						}
					],
					"name": "insured",
					"outputs": [
						{
							"internalType": "bool",
							"name": "",
							"type": "bool"
						}
					],
					"stateMutability": "view",
					"type": "function"
				},
				{
					"inputs": [
						{
							"internalType": "enum SpeciesLibrary.Species",
							"name": "species",
							"type": "uint8"
						}
					],
					"name": "mintBird",
					"outputs": [
						{
							"internalType": "int256",
							"name": "",
							"type": "int256"
						}
					],
					"stateMutability": "nonpayable",
					"type": "function"
				},
				{
					"inputs": [],
					"name": "nextId",
					"outputs": [
						{
							"internalType": "uint256",
							"name": "",
							"type": "uint256"
						}
					],
					"stateMutability": "view",
					"type": "function"
				},
				{
					"inputs": [],
					"name": "parkContract",
					"outputs": [
						{
							"internalType": "address",
							"name": "",
							"type": "address"
						}
					],
					"stateMutability": "view",
					"type": "function"
				},
				{
					"inputs": [
						{
							"internalType": "uint256",
							"name": "id",
							"type": "uint256"
						}
					],
					"name": "updateHungerAndAge",
					"outputs": [],
					"stateMutability": "nonpayable",
					"type": "function"
				}
			],
			"devdoc": {
				"kind": "dev",
				"methods": {},
				"version": 1
			},
			"evm": {
				"assembly": "    /* \"contracts/Ptak.sol\":95:3207  contract Ptak {... */\n  mstore(0x40, 0x80)\n    /* \"contracts/Ptak.sol\":629:711  constructor(address _parkContract) {... */\n  callvalue\n  dup1\n  iszero\n  tag_1\n  jumpi\n  revert(0x00, 0x00)\ntag_1:\n  pop\n  mload(0x40)\n  sub(codesize, bytecodeSize)\n  dup1\n  bytecodeSize\n  dup4\n  codecopy\n  dup2\n  dup2\n  add\n  0x40\n  mstore\n  dup2\n  add\n  swap1\n  tag_2\n  swap2\n  swap1\n  tag_3\n  jump\t// in\ntag_2:\n    /* \"contracts/Ptak.sol\":690:703  _parkContract */\n  dup1\n    /* \"contracts/Ptak.sol\":675:687  parkContract */\n  0x02\n  0x00\n    /* \"contracts/Ptak.sol\":675:703  parkContract = _parkContract */\n  0x0100\n  exp\n  dup2\n  sload\n  dup2\n  0xffffffffffffffffffffffffffffffffffffffff\n  mul\n  not\n  and\n  swap1\n  dup4\n  0xffffffffffffffffffffffffffffffffffffffff\n  and\n  mul\n  or\n  swap1\n  sstore\n  pop\n    /* \"contracts/Ptak.sol\":629:711  constructor(address _parkContract) {... */\n  pop\n    /* \"contracts/Ptak.sol\":95:3207  contract Ptak {... */\n  jump(tag_6)\n    /* \"#utility.yul\":88:205   */\ntag_8:\n    /* \"#utility.yul\":197:198   */\n  0x00\n    /* \"#utility.yul\":194:195   */\n  0x00\n    /* \"#utility.yul\":187:199   */\n  revert\n    /* \"#utility.yul\":334:460   */\ntag_10:\n    /* \"#utility.yul\":371:378   */\n  0x00\n    /* \"#utility.yul\":411:453   */\n  0xffffffffffffffffffffffffffffffffffffffff\n    /* \"#utility.yul\":404:409   */\n  dup3\n    /* \"#utility.yul\":400:454   */\n  and\n    /* \"#utility.yul\":389:454   */\n  swap1\n  pop\n    /* \"#utility.yul\":334:460   */\n  swap2\n  swap1\n  pop\n  jump\t// out\n    /* \"#utility.yul\":466:562   */\ntag_11:\n    /* \"#utility.yul\":503:510   */\n  0x00\n    /* \"#utility.yul\":532:556   */\n  tag_20\n    /* \"#utility.yul\":550:555   */\n  dup3\n    /* \"#utility.yul\":532:556   */\n  tag_10\n  jump\t// in\ntag_20:\n    /* \"#utility.yul\":521:556   */\n  swap1\n  pop\n    /* \"#utility.yul\":466:562   */\n  swap2\n  swap1\n  pop\n  jump\t// out\n    /* \"#utility.yul\":568:690   */\ntag_12:\n    /* \"#utility.yul\":641:665   */\n  tag_22\n    /* \"#utility.yul\":659:664   */\n  dup2\n    /* \"#utility.yul\":641:665   */\n  tag_11\n  jump\t// in\ntag_22:\n    /* \"#utility.yul\":634:639   */\n  dup2\n    /* \"#utility.yul\":631:666   */\n  eq\n    /* \"#utility.yul\":621:684   */\n  tag_23\n  jumpi\n    /* \"#utility.yul\":680:681   */\n  0x00\n    /* \"#utility.yul\":677:678   */\n  0x00\n    /* \"#utility.yul\":670:682   */\n  revert\n    /* \"#utility.yul\":621:684   */\ntag_23:\n    /* \"#utility.yul\":568:690   */\n  pop\n  jump\t// out\n    /* \"#utility.yul\":696:839   */\ntag_13:\n    /* \"#utility.yul\":753:758   */\n  0x00\n    /* \"#utility.yul\":784:790   */\n  dup2\n    /* \"#utility.yul\":778:791   */\n  mload\n    /* \"#utility.yul\":769:791   */\n  swap1\n  pop\n    /* \"#utility.yul\":800:833   */\n  tag_25\n    /* \"#utility.yul\":827:832   */\n  dup2\n    /* \"#utility.yul\":800:833   */\n  tag_12\n  jump\t// in\ntag_25:\n    /* \"#utility.yul\":696:839   */\n  swap3\n  swap2\n  pop\n  pop\n  jump\t// out\n    /* \"#utility.yul\":845:1196   */\ntag_3:\n    /* \"#utility.yul\":915:921   */\n  0x00\n    /* \"#utility.yul\":964:966   */\n  0x20\n    /* \"#utility.yul\":952:961   */\n  dup3\n    /* \"#utility.yul\":943:950   */\n  dup5\n    /* \"#utility.yul\":939:962   */\n  sub\n    /* \"#utility.yul\":935:967   */\n  slt\n    /* \"#utility.yul\":932:1051   */\n  iszero\n  tag_27\n  jumpi\n    /* \"#utility.yul\":970:1049   */\n  tag_28\n  tag_8\n  jump\t// in\ntag_28:\n    /* \"#utility.yul\":932:1051   */\ntag_27:\n    /* \"#utility.yul\":1090:1091   */\n  0x00\n    /* \"#utility.yul\":1115:1179   */\n  tag_29\n    /* \"#utility.yul\":1171:1178   */\n  dup5\n    /* \"#utility.yul\":1162:1168   */\n  dup3\n    /* \"#utility.yul\":1151:1160   */\n  dup6\n    /* \"#utility.yul\":1147:1169   */\n  add\n    /* \"#utility.yul\":1115:1179   */\n  tag_13\n  jump\t// in\ntag_29:\n    /* \"#utility.yul\":1105:1179   */\n  swap2\n  pop\n    /* \"#utility.yul\":1061:1189   */\n  pop\n    /* \"#utility.yul\":845:1196   */\n  swap3\n  swap2\n  pop\n  pop\n  jump\t// out\n    /* \"contracts/Ptak.sol\":95:3207  contract Ptak {... */\ntag_6:\n  dataSize(sub_0)\n  dup1\n  dataOffset(sub_0)\n  0x00\n  codecopy\n  0x00\n  return\nstop\n\nsub_0: assembly {\n        /* \"contracts/Ptak.sol\":95:3207  contract Ptak {... */\n      mstore(0x40, 0x80)\n      callvalue\n      dup1\n      iszero\n      tag_1\n      jumpi\n      revert(0x00, 0x00)\n    tag_1:\n      pop\n      jumpi(tag_2, lt(calldatasize, 0x04))\n      shr(0xe0, calldataload(0x00))\n      dup1\n      0x61b8ce8c\n      gt\n      tag_12\n      jumpi\n      dup1\n      0x61b8ce8c\n      eq\n      tag_7\n      jumpi\n      dup1\n      0x6ec88bbd\n      eq\n      tag_8\n      jumpi\n      dup1\n      0x72680a77\n      eq\n      tag_9\n      jumpi\n      dup1\n      0xa2b7ce6f\n      eq\n      tag_10\n      jumpi\n      dup1\n      0xec1c5955\n      eq\n      tag_11\n      jumpi\n      jump(tag_2)\n    tag_12:\n      dup1\n      0x16cb4a05\n      eq\n      tag_3\n      jumpi\n      dup1\n      0x1942d199\n      eq\n      tag_4\n      jumpi\n      dup1\n      0x49b1a0bf\n      eq\n      tag_5\n      jumpi\n      dup1\n      0x4d2d7881\n      eq\n      tag_6\n      jumpi\n    tag_2:\n      revert(0x00, 0x00)\n        /* \"contracts/Ptak.sol\":460:499  mapping(uint256 => bool) public insured */\n    tag_3:\n      tag_13\n      0x04\n      dup1\n      calldatasize\n      sub\n      dup2\n      add\n      swap1\n      tag_14\n      swap2\n      swap1\n      tag_15\n      jump\t// in\n    tag_14:\n      tag_16\n      jump\t// in\n    tag_13:\n      mload(0x40)\n      tag_17\n      swap2\n      swap1\n      tag_18\n      jump\t// in\n    tag_17:\n      mload(0x40)\n      dup1\n      swap2\n      sub\n      swap1\n      return\n        /* \"contracts/Ptak.sol\":2552:2902  function feedBird(uint256 id, uint256 foodAmount) external onlyPark {... */\n    tag_4:\n      tag_19\n      0x04\n      dup1\n      calldatasize\n      sub\n      dup2\n      add\n      swap1\n      tag_20\n      swap2\n      swap1\n      tag_21\n      jump\t// in\n    tag_20:\n      tag_22\n      jump\t// in\n    tag_19:\n      stop\n        /* \"contracts/Ptak.sol\":2910:3062  function insure(uint256 birdId) external {... */\n    tag_5:\n      tag_23\n      0x04\n      dup1\n      calldatasize\n      sub\n      dup2\n      add\n      swap1\n      tag_24\n      swap2\n      swap1\n      tag_15\n      jump\t// in\n    tag_24:\n      tag_25\n      jump\t// in\n    tag_23:\n      stop\n        /* \"contracts/Ptak.sol\":719:1031  function mintBird(SpeciesLibrary.Species species) external onlyPark returns (int) {... */\n    tag_6:\n      tag_26\n      0x04\n      dup1\n      calldatasize\n      sub\n      dup2\n      add\n      swap1\n      tag_27\n      swap2\n      swap1\n      tag_28\n      jump\t// in\n    tag_27:\n      tag_29\n      jump\t// in\n    tag_26:\n      mload(0x40)\n      tag_30\n      swap2\n      swap1\n      tag_31\n      jump\t// in\n    tag_30:\n      mload(0x40)\n      dup1\n      swap2\n      sub\n      swap1\n      return\n        /* \"contracts/Ptak.sol\":398:419  uint256 public nextId */\n    tag_7:\n      tag_32\n      tag_33\n      jump\t// in\n    tag_32:\n      mload(0x40)\n      tag_34\n      swap2\n      swap1\n      tag_35\n      jump\t// in\n    tag_34:\n      mload(0x40)\n      dup1\n      swap2\n      sub\n      swap1\n      return\n        /* \"contracts/Ptak.sol\":3070:3202  function getBird(uint256 id) external returns (BirdData memory) {... */\n    tag_8:\n      tag_36\n      0x04\n      dup1\n      calldatasize\n      sub\n      dup2\n      add\n      swap1\n      tag_37\n      swap2\n      swap1\n      tag_15\n      jump\t// in\n    tag_37:\n      tag_38\n      jump\t// in\n    tag_36:\n      mload(0x40)\n      tag_39\n      swap2\n      swap1\n      tag_40\n      jump\t// in\n    tag_39:\n      mload(0x40)\n      dup1\n      swap2\n      sub\n      swap1\n      return\n        /* \"contracts/Ptak.sol\":426:453  address public parkContract */\n    tag_9:\n      tag_41\n      tag_42\n      jump\t// in\n    tag_41:\n      mload(0x40)\n      tag_43\n      swap2\n      swap1\n      tag_44\n      jump\t// in\n    tag_43:\n      mload(0x40)\n      dup1\n      swap2\n      sub\n      swap1\n      return\n        /* \"contracts/Ptak.sol\":1039:1998  function updateHungerAndAge(uint256 id) public {... */\n    tag_10:\n      tag_45\n      0x04\n      dup1\n      calldatasize\n      sub\n      dup2\n      add\n      swap1\n      tag_46\n      swap2\n      swap1\n      tag_15\n      jump\t// in\n    tag_46:\n      tag_47\n      jump\t// in\n    tag_45:\n      stop\n        /* \"contracts/Ptak.sol\":350:391  mapping(uint256 => BirdData) public birds */\n    tag_11:\n      tag_48\n      0x04\n      dup1\n      calldatasize\n      sub\n      dup2\n      add\n      swap1\n      tag_49\n      swap2\n      swap1\n      tag_15\n      jump\t// in\n    tag_49:\n      tag_50\n      jump\t// in\n    tag_48:\n      mload(0x40)\n      tag_51\n      swap6\n      swap5\n      swap4\n      swap3\n      swap2\n      swap1\n      tag_52\n      jump\t// in\n    tag_51:\n      mload(0x40)\n      dup1\n      swap2\n      sub\n      swap1\n      return\n        /* \"contracts/Ptak.sol\":460:499  mapping(uint256 => bool) public insured */\n    tag_16:\n      mstore(0x20, 0x03)\n      dup1\n      0x00\n      mstore\n      keccak256(0x00, 0x40)\n      0x00\n      swap2\n      pop\n      sload\n      swap1\n      0x0100\n      exp\n      swap1\n      div\n      0xff\n      and\n      dup2\n      jump\t// out\n        /* \"contracts/Ptak.sol\":2552:2902  function feedBird(uint256 id, uint256 foodAmount) external onlyPark {... */\n    tag_22:\n        /* \"contracts/Ptak.sol\":561:573  parkContract */\n      0x02\n      0x00\n      swap1\n      sload\n      swap1\n      0x0100\n      exp\n      swap1\n      div\n      0xffffffffffffffffffffffffffffffffffffffff\n      and\n        /* \"contracts/Ptak.sol\":547:573  msg.sender == parkContract */\n      0xffffffffffffffffffffffffffffffffffffffff\n      and\n        /* \"contracts/Ptak.sol\":547:557  msg.sender */\n      caller\n        /* \"contracts/Ptak.sol\":547:573  msg.sender == parkContract */\n      0xffffffffffffffffffffffffffffffffffffffff\n      and\n      eq\n        /* \"contracts/Ptak.sol\":539:601  require(msg.sender == parkContract, \"Only Park can call this\") */\n      tag_54\n      jumpi\n      mload(0x40)\n      0x08c379a000000000000000000000000000000000000000000000000000000000\n      dup2\n      mstore\n      0x04\n      add\n      tag_55\n      swap1\n      tag_56\n      jump\t// in\n    tag_55:\n      mload(0x40)\n      dup1\n      swap2\n      sub\n      swap1\n      revert\n    tag_54:\n        /* \"contracts/Ptak.sol\":2631:2653  updateHungerAndAge(id) */\n      tag_58\n        /* \"contracts/Ptak.sol\":2650:2652  id */\n      dup3\n        /* \"contracts/Ptak.sol\":2631:2649  updateHungerAndAge */\n      tag_47\n        /* \"contracts/Ptak.sol\":2631:2653  updateHungerAndAge(id) */\n      jump\t// in\n    tag_58:\n        /* \"contracts/Ptak.sol\":2664:2685  BirdData storage bird */\n      0x00\n        /* \"contracts/Ptak.sol\":2688:2693  birds */\n      0x00\n        /* \"contracts/Ptak.sol\":2688:2697  birds[id] */\n      0x00\n        /* \"contracts/Ptak.sol\":2694:2696  id */\n      dup5\n        /* \"contracts/Ptak.sol\":2688:2697  birds[id] */\n      dup2\n      mstore\n      0x20\n      add\n      swap1\n      dup2\n      mstore\n      0x20\n      add\n      0x00\n      keccak256\n        /* \"contracts/Ptak.sol\":2664:2697  BirdData storage bird = birds[id] */\n      swap1\n      pop\n        /* \"contracts/Ptak.sol\":2708:2727  randomPoisoning(id) */\n      tag_59\n        /* \"contracts/Ptak.sol\":2724:2726  id */\n      dup4\n        /* \"contracts/Ptak.sol\":2708:2723  randomPoisoning */\n      tag_60\n        /* \"contracts/Ptak.sol\":2708:2727  randomPoisoning(id) */\n      jump\t// in\n    tag_59:\n        /* \"contracts/Ptak.sol\":2756:2766  foodAmount */\n      dup2\n        /* \"contracts/Ptak.sol\":2741:2745  bird */\n      dup2\n        /* \"contracts/Ptak.sol\":2741:2752  bird.hunger */\n      0x01\n      add\n      sload\n        /* \"contracts/Ptak.sol\":2741:2766  bird.hunger >= foodAmount */\n      lt\n        /* \"contracts/Ptak.sol\":2738:2895  if(bird.hunger >= foodAmount){... */\n      tag_61\n      jumpi\n        /* \"contracts/Ptak.sol\":2797:2807  foodAmount */\n      dup2\n        /* \"contracts/Ptak.sol\":2782:2786  bird */\n      dup2\n        /* \"contracts/Ptak.sol\":2782:2793  bird.hunger */\n      0x01\n      add\n      0x00\n        /* \"contracts/Ptak.sol\":2782:2807  bird.hunger -= foodAmount */\n      dup3\n      dup3\n      sload\n      tag_62\n      swap2\n      swap1\n      tag_63\n      jump\t// in\n    tag_62:\n      swap3\n      pop\n      pop\n      dup2\n      swap1\n      sstore\n      pop\n        /* \"contracts/Ptak.sol\":2738:2895  if(bird.hunger >= foodAmount){... */\n      jump(tag_64)\n    tag_61:\n        /* \"contracts/Ptak.sol\":2854:2855  0 */\n      0x00\n        /* \"contracts/Ptak.sol\":2840:2844  bird */\n      dup2\n        /* \"contracts/Ptak.sol\":2840:2851  bird.hunger */\n      0x01\n      add\n        /* \"contracts/Ptak.sol\":2840:2855  bird.hunger = 0 */\n      dup2\n      swap1\n      sstore\n      pop\n        /* \"contracts/Ptak.sol\":2738:2895  if(bird.hunger >= foodAmount){... */\n    tag_64:\n        /* \"contracts/Ptak.sol\":2620:2902  {... */\n      pop\n        /* \"contracts/Ptak.sol\":2552:2902  function feedBird(uint256 id, uint256 foodAmount) external onlyPark {... */\n      pop\n      pop\n      jump\t// out\n        /* \"contracts/Ptak.sol\":2910:3062  function insure(uint256 birdId) external {... */\n    tag_25:\n        /* \"contracts/Ptak.sol\":2984:2996  parkContract */\n      0x02\n      0x00\n      swap1\n      sload\n      swap1\n      0x0100\n      exp\n      swap1\n      div\n      0xffffffffffffffffffffffffffffffffffffffff\n      and\n        /* \"contracts/Ptak.sol\":2970:2996  msg.sender == parkContract */\n      0xffffffffffffffffffffffffffffffffffffffff\n      and\n        /* \"contracts/Ptak.sol\":2970:2980  msg.sender */\n      caller\n        /* \"contracts/Ptak.sol\":2970:2996  msg.sender == parkContract */\n      0xffffffffffffffffffffffffffffffffffffffff\n      and\n      eq\n        /* \"contracts/Ptak.sol\":2962:3021  require(msg.sender == parkContract, \"Only Park can insure\") */\n      tag_66\n      jumpi\n      mload(0x40)\n      0x08c379a000000000000000000000000000000000000000000000000000000000\n      dup2\n      mstore\n      0x04\n      add\n      tag_67\n      swap1\n      tag_68\n      jump\t// in\n    tag_67:\n      mload(0x40)\n      dup1\n      swap2\n      sub\n      swap1\n      revert\n    tag_66:\n        /* \"contracts/Ptak.sol\":3050:3054  true */\n      0x01\n        /* \"contracts/Ptak.sol\":3032:3039  insured */\n      0x03\n        /* \"contracts/Ptak.sol\":3032:3047  insured[birdId] */\n      0x00\n        /* \"contracts/Ptak.sol\":3040:3046  birdId */\n      dup4\n        /* \"contracts/Ptak.sol\":3032:3047  insured[birdId] */\n      dup2\n      mstore\n      0x20\n      add\n      swap1\n      dup2\n      mstore\n      0x20\n      add\n      0x00\n      keccak256\n      0x00\n        /* \"contracts/Ptak.sol\":3032:3054  insured[birdId] = true */\n      0x0100\n      exp\n      dup2\n      sload\n      dup2\n      0xff\n      mul\n      not\n      and\n      swap1\n      dup4\n      iszero\n      iszero\n      mul\n      or\n      swap1\n      sstore\n      pop\n        /* \"contracts/Ptak.sol\":2910:3062  function insure(uint256 birdId) external {... */\n      pop\n      jump\t// out\n        /* \"contracts/Ptak.sol\":719:1031  function mintBird(SpeciesLibrary.Species species) external onlyPark returns (int) {... */\n    tag_29:\n        /* \"contracts/Ptak.sol\":796:799  int */\n      0x00\n        /* \"contracts/Ptak.sol\":561:573  parkContract */\n      0x02\n      0x00\n      swap1\n      sload\n      swap1\n      0x0100\n      exp\n      swap1\n      div\n      0xffffffffffffffffffffffffffffffffffffffff\n      and\n        /* \"contracts/Ptak.sol\":547:573  msg.sender == parkContract */\n      0xffffffffffffffffffffffffffffffffffffffff\n      and\n        /* \"contracts/Ptak.sol\":547:557  msg.sender */\n      caller\n        /* \"contracts/Ptak.sol\":547:573  msg.sender == parkContract */\n      0xffffffffffffffffffffffffffffffffffffffff\n      and\n      eq\n        /* \"contracts/Ptak.sol\":539:601  require(msg.sender == parkContract, \"Only Park can call this\") */\n      tag_70\n      jumpi\n      mload(0x40)\n      0x08c379a000000000000000000000000000000000000000000000000000000000\n      dup2\n      mstore\n      0x04\n      add\n      tag_71\n      swap1\n      tag_56\n      jump\t// in\n    tag_71:\n      mload(0x40)\n      dup1\n      swap2\n      sub\n      swap1\n      revert\n    tag_70:\n        /* \"contracts/Ptak.sol\":812:850  SpeciesLibrary.SpeciesInfo memory info */\n      0x00\n        /* \"contracts/Ptak.sol\":853:891  SpeciesLibrary.getSpeciesInfo(species) */\n      tag_73\n        /* \"contracts/Ptak.sol\":883:890  species */\n      dup4\n        /* \"contracts/Ptak.sol\":853:882  SpeciesLibrary.getSpeciesInfo */\n      tag_74\n        /* \"contracts/Ptak.sol\":853:891  SpeciesLibrary.getSpeciesInfo(species) */\n      jump\t// in\n    tag_73:\n        /* \"contracts/Ptak.sol\":812:891  SpeciesLibrary.SpeciesInfo memory info = SpeciesLibrary.getSpeciesInfo(species) */\n      swap1\n      pop\n        /* \"contracts/Ptak.sol\":918:974  BirdData(0, 0, info.maxHealth, species, block.timestamp) */\n      mload(0x40)\n      dup1\n      0xa0\n      add\n      0x40\n      mstore\n      dup1\n        /* \"contracts/Ptak.sol\":927:928  0 */\n      0x00\n        /* \"contracts/Ptak.sol\":918:974  BirdData(0, 0, info.maxHealth, species, block.timestamp) */\n      dup2\n      mstore\n      0x20\n      add\n        /* \"contracts/Ptak.sol\":930:931  0 */\n      0x00\n        /* \"contracts/Ptak.sol\":918:974  BirdData(0, 0, info.maxHealth, species, block.timestamp) */\n      dup2\n      mstore\n      0x20\n      add\n        /* \"contracts/Ptak.sol\":933:937  info */\n      dup3\n        /* \"contracts/Ptak.sol\":933:947  info.maxHealth */\n      0x00\n      add\n      mload\n        /* \"contracts/Ptak.sol\":918:974  BirdData(0, 0, info.maxHealth, species, block.timestamp) */\n      dup2\n      mstore\n      0x20\n      add\n        /* \"contracts/Ptak.sol\":949:956  species */\n      dup5\n        /* \"contracts/Ptak.sol\":918:974  BirdData(0, 0, info.maxHealth, species, block.timestamp) */\n      0x0a\n      dup2\n      gt\n      iszero\n      tag_75\n      jumpi\n      tag_76\n      tag_77\n      jump\t// in\n    tag_76:\n    tag_75:\n      dup2\n      mstore\n      0x20\n      add\n        /* \"contracts/Ptak.sol\":958:973  block.timestamp */\n      timestamp\n        /* \"contracts/Ptak.sol\":918:974  BirdData(0, 0, info.maxHealth, species, block.timestamp) */\n      dup2\n      mstore\n      pop\n        /* \"contracts/Ptak.sol\":902:907  birds */\n      0x00\n        /* \"contracts/Ptak.sol\":902:915  birds[nextId] */\n      0x00\n        /* \"contracts/Ptak.sol\":908:914  nextId */\n      sload(0x01)\n        /* \"contracts/Ptak.sol\":902:915  birds[nextId] */\n      dup2\n      mstore\n      0x20\n      add\n      swap1\n      dup2\n      mstore\n      0x20\n      add\n      0x00\n      keccak256\n        /* \"contracts/Ptak.sol\":902:974  birds[nextId] = BirdData(0, 0, info.maxHealth, species, block.timestamp) */\n      0x00\n      dup3\n      add\n      mload\n      dup2\n      0x00\n      add\n      sstore\n      0x20\n      dup3\n      add\n      mload\n      dup2\n      0x01\n      add\n      sstore\n      0x40\n      dup3\n      add\n      mload\n      dup2\n      0x02\n      add\n      sstore\n      0x60\n      dup3\n      add\n      mload\n      dup2\n      0x03\n      add\n      exp(0x0100, 0x00)\n      dup2\n      sload\n      dup2\n      0xff\n      mul\n      not\n      and\n      swap1\n      dup4\n      0x0a\n      dup2\n      gt\n      iszero\n      tag_78\n      jumpi\n      tag_79\n      tag_77\n      jump\t// in\n    tag_79:\n    tag_78:\n      mul\n      or\n      swap1\n      sstore\n      pop\n      0x80\n      dup3\n      add\n      mload\n      dup2\n      0x04\n      add\n      sstore\n      swap1\n      pop\n      pop\n        /* \"contracts/Ptak.sol\":985:991  nextId */\n      0x01\n      0x00\n        /* \"contracts/Ptak.sol\":985:993  nextId++ */\n      dup2\n      sload\n      dup1\n      swap3\n      swap2\n      swap1\n      tag_80\n      swap1\n      tag_81\n      jump\t// in\n    tag_80:\n      swap2\n      swap1\n      pop\n      sstore\n      pop\n        /* \"contracts/Ptak.sol\":1011:1012  0 */\n      0x00\n        /* \"contracts/Ptak.sol\":1004:1012  return 0 */\n      swap2\n      pop\n      pop\n        /* \"contracts/Ptak.sol\":719:1031  function mintBird(SpeciesLibrary.Species species) external onlyPark returns (int) {... */\n      swap2\n      swap1\n      pop\n      jump\t// out\n        /* \"contracts/Ptak.sol\":398:419  uint256 public nextId */\n    tag_33:\n      sload(0x01)\n      dup2\n      jump\t// out\n        /* \"contracts/Ptak.sol\":3070:3202  function getBird(uint256 id) external returns (BirdData memory) {... */\n    tag_38:\n        /* \"contracts/Ptak.sol\":3117:3132  BirdData memory */\n      tag_82\n      tag_83\n      jump\t// in\n    tag_82:\n        /* \"contracts/Ptak.sol\":3145:3167  updateHungerAndAge(id) */\n      tag_85\n        /* \"contracts/Ptak.sol\":3164:3166  id */\n      dup3\n        /* \"contracts/Ptak.sol\":3145:3163  updateHungerAndAge */\n      tag_47\n        /* \"contracts/Ptak.sol\":3145:3167  updateHungerAndAge(id) */\n      jump\t// in\n    tag_85:\n        /* \"contracts/Ptak.sol\":3185:3190  birds */\n      0x00\n        /* \"contracts/Ptak.sol\":3185:3194  birds[id] */\n      0x00\n        /* \"contracts/Ptak.sol\":3191:3193  id */\n      dup4\n        /* \"contracts/Ptak.sol\":3185:3194  birds[id] */\n      dup2\n      mstore\n      0x20\n      add\n      swap1\n      dup2\n      mstore\n      0x20\n      add\n      0x00\n      keccak256\n        /* \"contracts/Ptak.sol\":3178:3194  return birds[id] */\n      mload(0x40)\n      dup1\n      0xa0\n      add\n      0x40\n      mstore\n      swap1\n      dup2\n      0x00\n      dup3\n      add\n      sload\n      dup2\n      mstore\n      0x20\n      add\n      0x01\n      dup3\n      add\n      sload\n      dup2\n      mstore\n      0x20\n      add\n      0x02\n      dup3\n      add\n      sload\n      dup2\n      mstore\n      0x20\n      add\n      0x03\n      dup3\n      add\n      0x00\n      swap1\n      sload\n      swap1\n      0x0100\n      exp\n      swap1\n      div\n      0xff\n      and\n      0x0a\n      dup2\n      gt\n      iszero\n      tag_86\n      jumpi\n      tag_87\n      tag_77\n      jump\t// in\n    tag_87:\n    tag_86:\n      0x0a\n      dup2\n      gt\n      iszero\n      tag_88\n      jumpi\n      tag_89\n      tag_77\n      jump\t// in\n    tag_89:\n    tag_88:\n      dup2\n      mstore\n      0x20\n      add\n      0x04\n      dup3\n      add\n      sload\n      dup2\n      mstore\n      pop\n      pop\n      swap1\n      pop\n        /* \"contracts/Ptak.sol\":3070:3202  function getBird(uint256 id) external returns (BirdData memory) {... */\n      swap2\n      swap1\n      pop\n      jump\t// out\n        /* \"contracts/Ptak.sol\":426:453  address public parkContract */\n    tag_42:\n      0x02\n      0x00\n      swap1\n      sload\n      swap1\n      0x0100\n      exp\n      swap1\n      div\n      0xffffffffffffffffffffffffffffffffffffffff\n      and\n      dup2\n      jump\t// out\n        /* \"contracts/Ptak.sol\":1039:1998  function updateHungerAndAge(uint256 id) public {... */\n    tag_47:\n        /* \"contracts/Ptak.sol\":1097:1118  BirdData storage bird */\n      0x00\n        /* \"contracts/Ptak.sol\":1121:1126  birds */\n      0x00\n        /* \"contracts/Ptak.sol\":1121:1130  birds[id] */\n      0x00\n        /* \"contracts/Ptak.sol\":1127:1129  id */\n      dup4\n        /* \"contracts/Ptak.sol\":1121:1130  birds[id] */\n      dup2\n      mstore\n      0x20\n      add\n      swap1\n      dup2\n      mstore\n      0x20\n      add\n      0x00\n      keccak256\n        /* \"contracts/Ptak.sol\":1097:1130  BirdData storage bird = birds[id] */\n      swap1\n      pop\n        /* \"contracts/Ptak.sol\":1141:1160  uint256 timeElapsed */\n      0x00\n        /* \"contracts/Ptak.sol\":1181:1185  bird */\n      dup2\n        /* \"contracts/Ptak.sol\":1181:1200  bird.lastUpdateTime */\n      0x04\n      add\n      sload\n        /* \"contracts/Ptak.sol\":1163:1178  block.timestamp */\n      timestamp\n        /* \"contracts/Ptak.sol\":1163:1200  block.timestamp - bird.lastUpdateTime */\n      tag_91\n      swap2\n      swap1\n      tag_63\n      jump\t// in\n    tag_91:\n        /* \"contracts/Ptak.sol\":1141:1200  uint256 timeElapsed = block.timestamp - bird.lastUpdateTime */\n      swap1\n      pop\n        /* \"contracts/Ptak.sol\":1243:1244  0 */\n      0x00\n        /* \"contracts/Ptak.sol\":1229:1240  timeElapsed */\n      dup2\n        /* \"contracts/Ptak.sol\":1229:1244  timeElapsed > 0 */\n      gt\n        /* \"contracts/Ptak.sol\":1226:1991  if(timeElapsed > 0) {... */\n      iszero\n      tag_92\n      jumpi\n        /* \"contracts/Ptak.sol\":1344:1366  uint256 hungerIncrease */\n      0x00\n        /* \"contracts/Ptak.sol\":1447:1451  3600 */\n      0x0e10\n        /* \"contracts/Ptak.sol\":1384:1427  SpeciesLibrary.getSpeciesInfo(bird.species) */\n      tag_93\n        /* \"contracts/Ptak.sol\":1414:1418  bird */\n      dup5\n        /* \"contracts/Ptak.sol\":1414:1426  bird.species */\n      0x03\n      add\n      0x00\n      swap1\n      sload\n      swap1\n      0x0100\n      exp\n      swap1\n      div\n      0xff\n      and\n        /* \"contracts/Ptak.sol\":1384:1413  SpeciesLibrary.getSpeciesInfo */\n      tag_74\n        /* \"contracts/Ptak.sol\":1384:1427  SpeciesLibrary.getSpeciesInfo(bird.species) */\n      jump\t// in\n    tag_93:\n        /* \"contracts/Ptak.sol\":1384:1443  SpeciesLibrary.getSpeciesInfo(bird.species).hungerDecayRate */\n      0x40\n      add\n      mload\n        /* \"contracts/Ptak.sol\":1370:1381  timeElapsed */\n      dup4\n        /* \"contracts/Ptak.sol\":1370:1443  timeElapsed * SpeciesLibrary.getSpeciesInfo(bird.species).hungerDecayRate */\n      tag_94\n      swap2\n      swap1\n      tag_95\n      jump\t// in\n    tag_94:\n        /* \"contracts/Ptak.sol\":1369:1451  (timeElapsed * SpeciesLibrary.getSpeciesInfo(bird.species).hungerDecayRate) / 3600 */\n      tag_96\n      swap2\n      swap1\n      tag_97\n      jump\t// in\n    tag_96:\n        /* \"contracts/Ptak.sol\":1344:1451  uint256 hungerIncrease = (timeElapsed * SpeciesLibrary.getSpeciesInfo(bird.species).hungerDecayRate) / 3600 */\n      swap1\n      pop\n        /* \"contracts/Ptak.sol\":1481:1495  hungerIncrease */\n      dup1\n        /* \"contracts/Ptak.sol\":1466:1470  bird */\n      dup4\n        /* \"contracts/Ptak.sol\":1466:1477  bird.hunger */\n      0x01\n      add\n      0x00\n        /* \"contracts/Ptak.sol\":1466:1495  bird.hunger += hungerIncrease */\n      dup3\n      dup3\n      sload\n      tag_98\n      swap2\n      swap1\n      tag_99\n      jump\t// in\n    tag_98:\n      swap3\n      pop\n      pop\n      dup2\n      swap1\n      sstore\n      pop\n        /* \"contracts/Ptak.sol\":1512:1529  uint256 maxHunger */\n      0x00\n        /* \"contracts/Ptak.sol\":1532:1575  SpeciesLibrary.getSpeciesInfo(bird.species) */\n      tag_100\n        /* \"contracts/Ptak.sol\":1562:1566  bird */\n      dup5\n        /* \"contracts/Ptak.sol\":1562:1574  bird.species */\n      0x03\n      add\n      0x00\n      swap1\n      sload\n      swap1\n      0x0100\n      exp\n      swap1\n      div\n      0xff\n      and\n        /* \"contracts/Ptak.sol\":1532:1561  SpeciesLibrary.getSpeciesInfo */\n      tag_74\n        /* \"contracts/Ptak.sol\":1532:1575  SpeciesLibrary.getSpeciesInfo(bird.species) */\n      jump\t// in\n    tag_100:\n        /* \"contracts/Ptak.sol\":1532:1585  SpeciesLibrary.getSpeciesInfo(bird.species).maxHunger */\n      0x20\n      add\n      mload\n        /* \"contracts/Ptak.sol\":1512:1585  uint256 maxHunger = SpeciesLibrary.getSpeciesInfo(bird.species).maxHunger */\n      swap1\n      pop\n        /* \"contracts/Ptak.sol\":1617:1626  maxHunger */\n      dup1\n        /* \"contracts/Ptak.sol\":1603:1607  bird */\n      dup5\n        /* \"contracts/Ptak.sol\":1603:1614  bird.hunger */\n      0x01\n      add\n      sload\n        /* \"contracts/Ptak.sol\":1603:1626  bird.hunger > maxHunger */\n      gt\n        /* \"contracts/Ptak.sol\":1600:1686  if(bird.hunger > maxHunger) {... */\n      iszero\n      tag_101\n      jumpi\n        /* \"contracts/Ptak.sol\":1661:1670  maxHunger */\n      dup1\n        /* \"contracts/Ptak.sol\":1647:1651  bird */\n      dup5\n        /* \"contracts/Ptak.sol\":1647:1658  bird.hunger */\n      0x01\n      add\n        /* \"contracts/Ptak.sol\":1647:1670  bird.hunger = maxHunger */\n      dup2\n      swap1\n      sstore\n      pop\n        /* \"contracts/Ptak.sol\":1600:1686  if(bird.hunger > maxHunger) {... */\n    tag_101:\n        /* \"contracts/Ptak.sol\":1757:1775  uint256 daysPassed */\n      0x00\n        /* \"contracts/Ptak.sol\":1792:1797  86400 */\n      0x015180\n        /* \"contracts/Ptak.sol\":1778:1789  timeElapsed */\n      dup5\n        /* \"contracts/Ptak.sol\":1778:1797  timeElapsed / 86400 */\n      tag_102\n      swap2\n      swap1\n      tag_97\n      jump\t// in\n    tag_102:\n        /* \"contracts/Ptak.sol\":1757:1797  uint256 daysPassed = timeElapsed / 86400 */\n      swap1\n      pop\n        /* \"contracts/Ptak.sol\":1828:1829  0 */\n      0x00\n        /* \"contracts/Ptak.sol\":1815:1825  daysPassed */\n      dup2\n        /* \"contracts/Ptak.sol\":1815:1829  daysPassed > 0 */\n      gt\n        /* \"contracts/Ptak.sol\":1812:1888  if(daysPassed > 0) {... */\n      iszero\n      tag_103\n      jumpi\n        /* \"contracts/Ptak.sol\":1862:1872  daysPassed */\n      dup1\n        /* \"contracts/Ptak.sol\":1850:1854  bird */\n      dup6\n        /* \"contracts/Ptak.sol\":1850:1858  bird.age */\n      0x00\n      add\n      0x00\n        /* \"contracts/Ptak.sol\":1850:1872  bird.age += daysPassed */\n      dup3\n      dup3\n      sload\n      tag_104\n      swap2\n      swap1\n      tag_99\n      jump\t// in\n    tag_104:\n      swap3\n      pop\n      pop\n      dup2\n      swap1\n      sstore\n      pop\n        /* \"contracts/Ptak.sol\":1812:1888  if(daysPassed > 0) {... */\n    tag_103:\n        /* \"contracts/Ptak.sol\":1926:1941  block.timestamp */\n      timestamp\n        /* \"contracts/Ptak.sol\":1904:1908  bird */\n      dup6\n        /* \"contracts/Ptak.sol\":1904:1923  bird.lastUpdateTime */\n      0x04\n      add\n        /* \"contracts/Ptak.sol\":1904:1941  bird.lastUpdateTime = block.timestamp */\n      dup2\n      swap1\n      sstore\n      pop\n        /* \"contracts/Ptak.sol\":1246:1991  {... */\n      pop\n      pop\n      pop\n        /* \"contracts/Ptak.sol\":1226:1991  if(timeElapsed > 0) {... */\n    tag_92:\n        /* \"contracts/Ptak.sol\":1086:1998  {... */\n      pop\n      pop\n        /* \"contracts/Ptak.sol\":1039:1998  function updateHungerAndAge(uint256 id) public {... */\n      pop\n      jump\t// out\n        /* \"contracts/Ptak.sol\":350:391  mapping(uint256 => BirdData) public birds */\n    tag_50:\n      mstore(0x20, 0x00)\n      dup1\n      0x00\n      mstore\n      keccak256(0x00, 0x40)\n      0x00\n      swap2\n      pop\n      swap1\n      pop\n      dup1\n      0x00\n      add\n      sload\n      swap1\n      dup1\n      0x01\n      add\n      sload\n      swap1\n      dup1\n      0x02\n      add\n      sload\n      swap1\n      dup1\n      0x03\n      add\n      0x00\n      swap1\n      sload\n      swap1\n      0x0100\n      exp\n      swap1\n      div\n      0xff\n      and\n      swap1\n      dup1\n      0x04\n      add\n      sload\n      swap1\n      pop\n      dup6\n      jump\t// out\n        /* \"contracts/Ptak.sol\":2006:2544  function randomPoisoning(uint256 birdId) private {... */\n    tag_60:\n        /* \"contracts/Ptak.sol\":2066:2104  SpeciesLibrary.SpeciesInfo memory info */\n      tag_106\n      tag_107\n      jump\t// in\n    tag_106:\n        /* \"contracts/Ptak.sol\":2115:2141  Ptak.BirdData storage bird */\n      0x00\n        /* \"contracts/Ptak.sol\":2144:2149  birds */\n      0x00\n        /* \"contracts/Ptak.sol\":2144:2157  birds[birdId] */\n      0x00\n        /* \"contracts/Ptak.sol\":2150:2156  birdId */\n      dup5\n        /* \"contracts/Ptak.sol\":2144:2157  birds[birdId] */\n      dup2\n      mstore\n      0x20\n      add\n      swap1\n      dup2\n      mstore\n      0x20\n      add\n      0x00\n      keccak256\n        /* \"contracts/Ptak.sol\":2115:2157  Ptak.BirdData storage bird = birds[birdId] */\n      swap1\n      pop\n        /* \"contracts/Ptak.sol\":2175:2218  SpeciesLibrary.getSpeciesInfo(bird.species) */\n      tag_108\n        /* \"contracts/Ptak.sol\":2205:2209  bird */\n      dup2\n        /* \"contracts/Ptak.sol\":2205:2217  bird.species */\n      0x03\n      add\n      0x00\n      swap1\n      sload\n      swap1\n      0x0100\n      exp\n      swap1\n      div\n      0xff\n      and\n        /* \"contracts/Ptak.sol\":2175:2204  SpeciesLibrary.getSpeciesInfo */\n      tag_74\n        /* \"contracts/Ptak.sol\":2175:2218  SpeciesLibrary.getSpeciesInfo(bird.species) */\n      jump\t// in\n    tag_108:\n        /* \"contracts/Ptak.sol\":2168:2218  info = SpeciesLibrary.getSpeciesInfo(bird.species) */\n      swap2\n      pop\n        /* \"contracts/Ptak.sol\":2235:2242  insured */\n      0x03\n        /* \"contracts/Ptak.sol\":2235:2250  insured[birdId] */\n      0x00\n        /* \"contracts/Ptak.sol\":2243:2249  birdId */\n      dup5\n        /* \"contracts/Ptak.sol\":2235:2250  insured[birdId] */\n      dup2\n      mstore\n      0x20\n      add\n      swap1\n      dup2\n      mstore\n      0x20\n      add\n      0x00\n      keccak256\n      0x00\n      swap1\n      sload\n      swap1\n      0x0100\n      exp\n      swap1\n      div\n      0xff\n      and\n        /* \"contracts/Ptak.sol\":2231:2537  if(!insured[birdId]){... */\n      tag_109\n      jumpi\n        /* \"contracts/Ptak.sol\":2266:2280  uint256 chance */\n      0x00\n        /* \"contracts/Ptak.sol\":2283:2326  SpeciesLibrary.getSpeciesInfo(bird.species) */\n      tag_110\n        /* \"contracts/Ptak.sol\":2313:2317  bird */\n      dup3\n        /* \"contracts/Ptak.sol\":2313:2325  bird.species */\n      0x03\n      add\n      0x00\n      swap1\n      sload\n      swap1\n      0x0100\n      exp\n      swap1\n      div\n      0xff\n      and\n        /* \"contracts/Ptak.sol\":2283:2312  SpeciesLibrary.getSpeciesInfo */\n      tag_74\n        /* \"contracts/Ptak.sol\":2283:2326  SpeciesLibrary.getSpeciesInfo(bird.species) */\n      jump\t// in\n    tag_110:\n        /* \"contracts/Ptak.sol\":2283:2342  SpeciesLibrary.getSpeciesInfo(bird.species).poisoningChance */\n      0x60\n      add\n      mload\n        /* \"contracts/Ptak.sol\":2266:2342  uint256 chance = SpeciesLibrary.getSpeciesInfo(bird.species).poisoningChance */\n      swap1\n      pop\n        /* \"contracts/Ptak.sol\":2357:2369  uint256 rand */\n      0x00\n        /* \"contracts/Ptak.sol\":2436:2439  100 */\n      0x64\n        /* \"contracts/Ptak.sol\":2407:2422  block.timestamp */\n      timestamp\n        /* \"contracts/Ptak.sol\":2424:2430  birdId */\n      dup7\n        /* \"contracts/Ptak.sol\":2390:2431  abi.encodePacked(block.timestamp, birdId) */\n      add(0x20, mload(0x40))\n      tag_111\n      swap3\n      swap2\n      swap1\n      tag_112\n      jump\t// in\n    tag_111:\n      mload(0x40)\n      0x20\n      dup2\n      dup4\n      sub\n      sub\n      dup2\n      mstore\n      swap1\n      0x40\n      mstore\n        /* \"contracts/Ptak.sol\":2380:2432  keccak256(abi.encodePacked(block.timestamp, birdId)) */\n      dup1\n      mload\n      swap1\n      0x20\n      add\n      keccak256\n        /* \"contracts/Ptak.sol\":2372:2433  uint256(keccak256(abi.encodePacked(block.timestamp, birdId))) */\n      0x00\n      shr\n        /* \"contracts/Ptak.sol\":2372:2439  uint256(keccak256(abi.encodePacked(block.timestamp, birdId))) % 100 */\n      tag_113\n      swap2\n      swap1\n      tag_114\n      jump\t// in\n    tag_113:\n        /* \"contracts/Ptak.sol\":2357:2439  uint256 rand = uint256(keccak256(abi.encodePacked(block.timestamp, birdId))) % 100 */\n      swap1\n      pop\n        /* \"contracts/Ptak.sol\":2466:2472  chance */\n      dup2\n        /* \"contracts/Ptak.sol\":2459:2463  rand */\n      dup2\n        /* \"contracts/Ptak.sol\":2459:2472  rand < chance */\n      lt\n        /* \"contracts/Ptak.sol\":2456:2526  if(rand < chance) {... */\n      iszero\n      tag_115\n      jumpi\n        /* \"contracts/Ptak.sol\":2508:2510  25 */\n      0x19\n        /* \"contracts/Ptak.sol\":2493:2497  bird */\n      dup4\n        /* \"contracts/Ptak.sol\":2493:2504  bird.health */\n      0x02\n      add\n      0x00\n        /* \"contracts/Ptak.sol\":2493:2510  bird.health -= 25 */\n      dup3\n      dup3\n      sload\n      tag_116\n      swap2\n      swap1\n      tag_63\n      jump\t// in\n    tag_116:\n      swap3\n      pop\n      pop\n      dup2\n      swap1\n      sstore\n      pop\n        /* \"contracts/Ptak.sol\":2456:2526  if(rand < chance) {... */\n    tag_115:\n        /* \"contracts/Ptak.sol\":2251:2537  {... */\n      pop\n      pop\n        /* \"contracts/Ptak.sol\":2231:2537  if(!insured[birdId]){... */\n    tag_109:\n        /* \"contracts/Ptak.sol\":2055:2544  {... */\n      pop\n      pop\n        /* \"contracts/Ptak.sol\":2006:2544  function randomPoisoning(uint256 birdId) private {... */\n      pop\n      jump\t// out\n        /* \"contracts/SpeciesLibrary.sol\":781:2342  function getSpeciesInfo(Species species) internal pure returns (SpeciesInfo memory) {... */\n    tag_74:\n        /* \"contracts/SpeciesLibrary.sol\":845:863  SpeciesInfo memory */\n      tag_117\n      tag_107\n      jump\t// in\n    tag_117:\n        /* \"contracts/SpeciesLibrary.sol\":891:907  Species.MuteSwan */\n      0x00\n        /* \"contracts/SpeciesLibrary.sol\":880:907  species == Species.MuteSwan */\n      0x0a\n      dup2\n      gt\n      iszero\n      tag_119\n      jumpi\n      tag_120\n      tag_77\n      jump\t// in\n    tag_120:\n    tag_119:\n        /* \"contracts/SpeciesLibrary.sol\":880:887  species */\n      dup3\n        /* \"contracts/SpeciesLibrary.sol\":880:907  species == Species.MuteSwan */\n      0x0a\n      dup2\n      gt\n      iszero\n      tag_121\n      jumpi\n      tag_122\n      tag_77\n      jump\t// in\n    tag_122:\n    tag_121:\n      sub\n        /* \"contracts/SpeciesLibrary.sol\":876:2299  if (species == Species.MuteSwan) {... */\n      tag_123\n      jumpi\n        /* \"contracts/SpeciesLibrary.sol\":931:1055  SpeciesInfo(200, 150, 3, 1, \"https://gateway.pinata.cloud/ipfs/bafybeia3le4astknh2p4mbkd5w42j522tnse4wxk7w5m7wimoqdp6ouzpy\") */\n      mload(0x40)\n      dup1\n      0xa0\n      add\n      0x40\n      mstore\n      dup1\n        /* \"contracts/SpeciesLibrary.sol\":943:946  200 */\n      0xc8\n        /* \"contracts/SpeciesLibrary.sol\":931:1055  SpeciesInfo(200, 150, 3, 1, \"https://gateway.pinata.cloud/ipfs/bafybeia3le4astknh2p4mbkd5w42j522tnse4wxk7w5m7wimoqdp6ouzpy\") */\n      dup2\n      mstore\n      0x20\n      add\n        /* \"contracts/SpeciesLibrary.sol\":948:951  150 */\n      0x96\n        /* \"contracts/SpeciesLibrary.sol\":931:1055  SpeciesInfo(200, 150, 3, 1, \"https://gateway.pinata.cloud/ipfs/bafybeia3le4astknh2p4mbkd5w42j522tnse4wxk7w5m7wimoqdp6ouzpy\") */\n      dup2\n      mstore\n      0x20\n      add\n        /* \"contracts/SpeciesLibrary.sol\":953:954  3 */\n      0x03\n        /* \"contracts/SpeciesLibrary.sol\":931:1055  SpeciesInfo(200, 150, 3, 1, \"https://gateway.pinata.cloud/ipfs/bafybeia3le4astknh2p4mbkd5w42j522tnse4wxk7w5m7wimoqdp6ouzpy\") */\n      dup2\n      mstore\n      0x20\n      add\n        /* \"contracts/SpeciesLibrary.sol\":956:957  1 */\n      0x01\n        /* \"contracts/SpeciesLibrary.sol\":931:1055  SpeciesInfo(200, 150, 3, 1, \"https://gateway.pinata.cloud/ipfs/bafybeia3le4astknh2p4mbkd5w42j522tnse4wxk7w5m7wimoqdp6ouzpy\") */\n      dup2\n      mstore\n      0x20\n      add\n      mload(0x40)\n      dup1\n      0x80\n      add\n      0x40\n      mstore\n      dup1\n      0x5d\n      dup2\n      mstore\n      0x20\n      add\n      data_1ffc5c99f8ff866cb3cb9bd46d45453badb8f26649052a31a9be49b9b43149da\n      0x5d\n      swap2\n      codecopy\n      dup2\n      mstore\n      pop\n        /* \"contracts/SpeciesLibrary.sol\":924:1055  return SpeciesInfo(200, 150, 3, 1, \"https://gateway.pinata.cloud/ipfs/bafybeia3le4astknh2p4mbkd5w42j522tnse4wxk7w5m7wimoqdp6ouzpy\") */\n      swap1\n      pop\n      jump(tag_118)\n        /* \"contracts/SpeciesLibrary.sol\":876:2299  if (species == Species.MuteSwan) {... */\n    tag_123:\n        /* \"contracts/SpeciesLibrary.sol\":1088:1106  Species.WhiteStork */\n      0x01\n        /* \"contracts/SpeciesLibrary.sol\":1077:1106  species == Species.WhiteStork */\n      0x0a\n      dup2\n      gt\n      iszero\n      tag_125\n      jumpi\n      tag_126\n      tag_77\n      jump\t// in\n    tag_126:\n    tag_125:\n        /* \"contracts/SpeciesLibrary.sol\":1077:1084  species */\n      dup3\n        /* \"contracts/SpeciesLibrary.sol\":1077:1106  species == Species.WhiteStork */\n      0x0a\n      dup2\n      gt\n      iszero\n      tag_127\n      jumpi\n      tag_128\n      tag_77\n      jump\t// in\n    tag_128:\n    tag_127:\n      sub\n        /* \"contracts/SpeciesLibrary.sol\":1073:2299  if (species == Species.WhiteStork) {... */\n      tag_129\n      jumpi\n        /* \"contracts/SpeciesLibrary.sol\":1130:1254  SpeciesInfo(220, 200, 2, 5, \"https://gateway.pinata.cloud/ipfs/bafybeigohotok6k3onvtjyypfnbnzbcso2qcixbwz4wh64vp2n3lq7nksa\") */\n      mload(0x40)\n      dup1\n      0xa0\n      add\n      0x40\n      mstore\n      dup1\n        /* \"contracts/SpeciesLibrary.sol\":1142:1145  220 */\n      0xdc\n        /* \"contracts/SpeciesLibrary.sol\":1130:1254  SpeciesInfo(220, 200, 2, 5, \"https://gateway.pinata.cloud/ipfs/bafybeigohotok6k3onvtjyypfnbnzbcso2qcixbwz4wh64vp2n3lq7nksa\") */\n      dup2\n      mstore\n      0x20\n      add\n        /* \"contracts/SpeciesLibrary.sol\":1147:1150  200 */\n      0xc8\n        /* \"contracts/SpeciesLibrary.sol\":1130:1254  SpeciesInfo(220, 200, 2, 5, \"https://gateway.pinata.cloud/ipfs/bafybeigohotok6k3onvtjyypfnbnzbcso2qcixbwz4wh64vp2n3lq7nksa\") */\n      dup2\n      mstore\n      0x20\n      add\n        /* \"contracts/SpeciesLibrary.sol\":1152:1153  2 */\n      0x02\n        /* \"contracts/SpeciesLibrary.sol\":1130:1254  SpeciesInfo(220, 200, 2, 5, \"https://gateway.pinata.cloud/ipfs/bafybeigohotok6k3onvtjyypfnbnzbcso2qcixbwz4wh64vp2n3lq7nksa\") */\n      dup2\n      mstore\n      0x20\n      add\n        /* \"contracts/SpeciesLibrary.sol\":1155:1156  5 */\n      0x05\n        /* \"contracts/SpeciesLibrary.sol\":1130:1254  SpeciesInfo(220, 200, 2, 5, \"https://gateway.pinata.cloud/ipfs/bafybeigohotok6k3onvtjyypfnbnzbcso2qcixbwz4wh64vp2n3lq7nksa\") */\n      dup2\n      mstore\n      0x20\n      add\n      mload(0x40)\n      dup1\n      0x80\n      add\n      0x40\n      mstore\n      dup1\n      0x5d\n      dup2\n      mstore\n      0x20\n      add\n      data_86e92b1a76e2f297d69c89af4232d1b3e647fd322843457f38b762c99d8ee708\n      0x5d\n      swap2\n      codecopy\n      dup2\n      mstore\n      pop\n        /* \"contracts/SpeciesLibrary.sol\":1123:1254  return SpeciesInfo(220, 200, 2, 5, \"https://gateway.pinata.cloud/ipfs/bafybeigohotok6k3onvtjyypfnbnzbcso2qcixbwz4wh64vp2n3lq7nksa\") */\n      swap1\n      pop\n      jump(tag_118)\n        /* \"contracts/SpeciesLibrary.sol\":1073:2299  if (species == Species.WhiteStork) {... */\n    tag_129:\n        /* \"contracts/SpeciesLibrary.sol\":1287:1306  Species.MallardDuck */\n      0x02\n        /* \"contracts/SpeciesLibrary.sol\":1276:1306  species == Species.MallardDuck */\n      0x0a\n      dup2\n      gt\n      iszero\n      tag_131\n      jumpi\n      tag_132\n      tag_77\n      jump\t// in\n    tag_132:\n    tag_131:\n        /* \"contracts/SpeciesLibrary.sol\":1276:1283  species */\n      dup3\n        /* \"contracts/SpeciesLibrary.sol\":1276:1306  species == Species.MallardDuck */\n      0x0a\n      dup2\n      gt\n      iszero\n      tag_133\n      jumpi\n      tag_134\n      tag_77\n      jump\t// in\n    tag_134:\n    tag_133:\n      sub\n        /* \"contracts/SpeciesLibrary.sol\":1272:2299  if (species == Species.MallardDuck) {... */\n      tag_135\n      jumpi\n        /* \"contracts/SpeciesLibrary.sol\":1330:1452  SpeciesInfo(80, 80, 3, 6, \"https://gateway.pinata.cloud/ipfs/bafybeiev7pucz7yh7x6haidmphp5ieobvcfdclnlwjqa2ivs4y357pvwma\") */\n      mload(0x40)\n      dup1\n      0xa0\n      add\n      0x40\n      mstore\n      dup1\n        /* \"contracts/SpeciesLibrary.sol\":1342:1344  80 */\n      0x50\n        /* \"contracts/SpeciesLibrary.sol\":1330:1452  SpeciesInfo(80, 80, 3, 6, \"https://gateway.pinata.cloud/ipfs/bafybeiev7pucz7yh7x6haidmphp5ieobvcfdclnlwjqa2ivs4y357pvwma\") */\n      dup2\n      mstore\n      0x20\n      add\n        /* \"contracts/SpeciesLibrary.sol\":1346:1348  80 */\n      0x50\n        /* \"contracts/SpeciesLibrary.sol\":1330:1452  SpeciesInfo(80, 80, 3, 6, \"https://gateway.pinata.cloud/ipfs/bafybeiev7pucz7yh7x6haidmphp5ieobvcfdclnlwjqa2ivs4y357pvwma\") */\n      dup2\n      mstore\n      0x20\n      add\n        /* \"contracts/SpeciesLibrary.sol\":1350:1351  3 */\n      0x03\n        /* \"contracts/SpeciesLibrary.sol\":1330:1452  SpeciesInfo(80, 80, 3, 6, \"https://gateway.pinata.cloud/ipfs/bafybeiev7pucz7yh7x6haidmphp5ieobvcfdclnlwjqa2ivs4y357pvwma\") */\n      dup2\n      mstore\n      0x20\n      add\n        /* \"contracts/SpeciesLibrary.sol\":1353:1354  6 */\n      0x06\n        /* \"contracts/SpeciesLibrary.sol\":1330:1452  SpeciesInfo(80, 80, 3, 6, \"https://gateway.pinata.cloud/ipfs/bafybeiev7pucz7yh7x6haidmphp5ieobvcfdclnlwjqa2ivs4y357pvwma\") */\n      dup2\n      mstore\n      0x20\n      add\n      mload(0x40)\n      dup1\n      0x80\n      add\n      0x40\n      mstore\n      dup1\n      0x5d\n      dup2\n      mstore\n      0x20\n      add\n      data_3bbf1c81af77207dbf9db8f891697113273de930322fc10149aebcb2d416dad6\n      0x5d\n      swap2\n      codecopy\n      dup2\n      mstore\n      pop\n        /* \"contracts/SpeciesLibrary.sol\":1323:1452  return SpeciesInfo(80, 80, 3, 6, \"https://gateway.pinata.cloud/ipfs/bafybeiev7pucz7yh7x6haidmphp5ieobvcfdclnlwjqa2ivs4y357pvwma\") */\n      swap1\n      pop\n      jump(tag_118)\n        /* \"contracts/SpeciesLibrary.sol\":1272:2299  if (species == Species.MallardDuck) {... */\n    tag_135:\n        /* \"contracts/SpeciesLibrary.sol\":1485:1501  Species.Mythical */\n      0x03\n        /* \"contracts/SpeciesLibrary.sol\":1474:1501  species == Species.Mythical */\n      0x0a\n      dup2\n      gt\n      iszero\n      tag_137\n      jumpi\n      tag_138\n      tag_77\n      jump\t// in\n    tag_138:\n    tag_137:\n        /* \"contracts/SpeciesLibrary.sol\":1474:1481  species */\n      dup3\n        /* \"contracts/SpeciesLibrary.sol\":1474:1501  species == Species.Mythical */\n      0x0a\n      dup2\n      gt\n      iszero\n      tag_139\n      jumpi\n      tag_140\n      tag_77\n      jump\t// in\n    tag_140:\n    tag_139:\n      sub\n        /* \"contracts/SpeciesLibrary.sol\":1470:2299  if (species == Species.Mythical) {... */\n      tag_141\n      jumpi\n        /* \"contracts/SpeciesLibrary.sol\":1525:1556  SpeciesInfo(300, 300, 1, 0, \"\") */\n      mload(0x40)\n      dup1\n      0xa0\n      add\n      0x40\n      mstore\n      dup1\n        /* \"contracts/SpeciesLibrary.sol\":1537:1540  300 */\n      0x012c\n        /* \"contracts/SpeciesLibrary.sol\":1525:1556  SpeciesInfo(300, 300, 1, 0, \"\") */\n      dup2\n      mstore\n      0x20\n      add\n        /* \"contracts/SpeciesLibrary.sol\":1542:1545  300 */\n      0x012c\n        /* \"contracts/SpeciesLibrary.sol\":1525:1556  SpeciesInfo(300, 300, 1, 0, \"\") */\n      dup2\n      mstore\n      0x20\n      add\n        /* \"contracts/SpeciesLibrary.sol\":1547:1548  1 */\n      0x01\n        /* \"contracts/SpeciesLibrary.sol\":1525:1556  SpeciesInfo(300, 300, 1, 0, \"\") */\n      dup2\n      mstore\n      0x20\n      add\n        /* \"contracts/SpeciesLibrary.sol\":1550:1551  0 */\n      0x00\n        /* \"contracts/SpeciesLibrary.sol\":1525:1556  SpeciesInfo(300, 300, 1, 0, \"\") */\n      dup2\n      mstore\n      0x20\n      add\n      mload(0x40)\n      dup1\n      0x20\n      add\n      0x40\n      mstore\n      dup1\n      0x00\n      dup2\n      mstore\n      pop\n      dup2\n      mstore\n      pop\n        /* \"contracts/SpeciesLibrary.sol\":1518:1556  return SpeciesInfo(300, 300, 1, 0, \"\") */\n      swap1\n      pop\n      jump(tag_118)\n        /* \"contracts/SpeciesLibrary.sol\":1470:2299  if (species == Species.Mythical) {... */\n    tag_141:\n        /* \"contracts/SpeciesLibrary.sol\":1589:1606  Species.GreyHeron */\n      0x04\n        /* \"contracts/SpeciesLibrary.sol\":1578:1606  species == Species.GreyHeron */\n      0x0a\n      dup2\n      gt\n      iszero\n      tag_143\n      jumpi\n      tag_144\n      tag_77\n      jump\t// in\n    tag_144:\n    tag_143:\n        /* \"contracts/SpeciesLibrary.sol\":1578:1585  species */\n      dup3\n        /* \"contracts/SpeciesLibrary.sol\":1578:1606  species == Species.GreyHeron */\n      0x0a\n      dup2\n      gt\n      iszero\n      tag_145\n      jumpi\n      tag_146\n      tag_77\n      jump\t// in\n    tag_146:\n    tag_145:\n      sub\n        /* \"contracts/SpeciesLibrary.sol\":1574:2299  if (species == Species.GreyHeron) {... */\n      tag_147\n      jumpi\n        /* \"contracts/SpeciesLibrary.sol\":1630:1660  SpeciesInfo(180, 90, 2, 4, \"\") */\n      mload(0x40)\n      dup1\n      0xa0\n      add\n      0x40\n      mstore\n      dup1\n        /* \"contracts/SpeciesLibrary.sol\":1642:1645  180 */\n      0xb4\n        /* \"contracts/SpeciesLibrary.sol\":1630:1660  SpeciesInfo(180, 90, 2, 4, \"\") */\n      dup2\n      mstore\n      0x20\n      add\n        /* \"contracts/SpeciesLibrary.sol\":1647:1649  90 */\n      0x5a\n        /* \"contracts/SpeciesLibrary.sol\":1630:1660  SpeciesInfo(180, 90, 2, 4, \"\") */\n      dup2\n      mstore\n      0x20\n      add\n        /* \"contracts/SpeciesLibrary.sol\":1651:1652  2 */\n      0x02\n        /* \"contracts/SpeciesLibrary.sol\":1630:1660  SpeciesInfo(180, 90, 2, 4, \"\") */\n      dup2\n      mstore\n      0x20\n      add\n        /* \"contracts/SpeciesLibrary.sol\":1654:1655  4 */\n      0x04\n        /* \"contracts/SpeciesLibrary.sol\":1630:1660  SpeciesInfo(180, 90, 2, 4, \"\") */\n      dup2\n      mstore\n      0x20\n      add\n      mload(0x40)\n      dup1\n      0x20\n      add\n      0x40\n      mstore\n      dup1\n      0x00\n      dup2\n      mstore\n      pop\n      dup2\n      mstore\n      pop\n        /* \"contracts/SpeciesLibrary.sol\":1623:1660  return SpeciesInfo(180, 90, 2, 4, \"\") */\n      swap1\n      pop\n      jump(tag_118)\n        /* \"contracts/SpeciesLibrary.sol\":1574:2299  if (species == Species.GreyHeron) {... */\n    tag_147:\n        /* \"contracts/SpeciesLibrary.sol\":1693:1715  Species.RedNeckedGrebe */\n      0x05\n        /* \"contracts/SpeciesLibrary.sol\":1682:1715  species == Species.RedNeckedGrebe */\n      0x0a\n      dup2\n      gt\n      iszero\n      tag_149\n      jumpi\n      tag_150\n      tag_77\n      jump\t// in\n    tag_150:\n    tag_149:\n        /* \"contracts/SpeciesLibrary.sol\":1682:1689  species */\n      dup3\n        /* \"contracts/SpeciesLibrary.sol\":1682:1715  species == Species.RedNeckedGrebe */\n      0x0a\n      dup2\n      gt\n      iszero\n      tag_151\n      jumpi\n      tag_152\n      tag_77\n      jump\t// in\n    tag_152:\n    tag_151:\n      sub\n        /* \"contracts/SpeciesLibrary.sol\":1678:2299  if (species == Species.RedNeckedGrebe) {... */\n      tag_153\n      jumpi\n        /* \"contracts/SpeciesLibrary.sol\":1739:1768  SpeciesInfo(80, 70, 2, 8, \"\") */\n      mload(0x40)\n      dup1\n      0xa0\n      add\n      0x40\n      mstore\n      dup1\n        /* \"contracts/SpeciesLibrary.sol\":1751:1753  80 */\n      0x50\n        /* \"contracts/SpeciesLibrary.sol\":1739:1768  SpeciesInfo(80, 70, 2, 8, \"\") */\n      dup2\n      mstore\n      0x20\n      add\n        /* \"contracts/SpeciesLibrary.sol\":1755:1757  70 */\n      0x46\n        /* \"contracts/SpeciesLibrary.sol\":1739:1768  SpeciesInfo(80, 70, 2, 8, \"\") */\n      dup2\n      mstore\n      0x20\n      add\n        /* \"contracts/SpeciesLibrary.sol\":1759:1760  2 */\n      0x02\n        /* \"contracts/SpeciesLibrary.sol\":1739:1768  SpeciesInfo(80, 70, 2, 8, \"\") */\n      dup2\n      mstore\n      0x20\n      add\n        /* \"contracts/SpeciesLibrary.sol\":1762:1763  8 */\n      0x08\n        /* \"contracts/SpeciesLibrary.sol\":1739:1768  SpeciesInfo(80, 70, 2, 8, \"\") */\n      dup2\n      mstore\n      0x20\n      add\n      mload(0x40)\n      dup1\n      0x20\n      add\n      0x40\n      mstore\n      dup1\n      0x00\n      dup2\n      mstore\n      pop\n      dup2\n      mstore\n      pop\n        /* \"contracts/SpeciesLibrary.sol\":1732:1768  return SpeciesInfo(80, 70, 2, 8, \"\") */\n      swap1\n      pop\n      jump(tag_118)\n        /* \"contracts/SpeciesLibrary.sol\":1678:2299  if (species == Species.RedNeckedGrebe) {... */\n    tag_153:\n        /* \"contracts/SpeciesLibrary.sol\":1801:1818  Species.WaterRail */\n      0x06\n        /* \"contracts/SpeciesLibrary.sol\":1790:1818  species == Species.WaterRail */\n      0x0a\n      dup2\n      gt\n      iszero\n      tag_155\n      jumpi\n      tag_156\n      tag_77\n      jump\t// in\n    tag_156:\n    tag_155:\n        /* \"contracts/SpeciesLibrary.sol\":1790:1797  species */\n      dup3\n        /* \"contracts/SpeciesLibrary.sol\":1790:1818  species == Species.WaterRail */\n      0x0a\n      dup2\n      gt\n      iszero\n      tag_157\n      jumpi\n      tag_158\n      tag_77\n      jump\t// in\n    tag_158:\n    tag_157:\n      sub\n        /* \"contracts/SpeciesLibrary.sol\":1786:2299  if (species == Species.WaterRail) {... */\n      tag_159\n      jumpi\n        /* \"contracts/SpeciesLibrary.sol\":1842:1871  SpeciesInfo(50, 60, 4, 5, \"\") */\n      mload(0x40)\n      dup1\n      0xa0\n      add\n      0x40\n      mstore\n      dup1\n        /* \"contracts/SpeciesLibrary.sol\":1854:1856  50 */\n      0x32\n        /* \"contracts/SpeciesLibrary.sol\":1842:1871  SpeciesInfo(50, 60, 4, 5, \"\") */\n      dup2\n      mstore\n      0x20\n      add\n        /* \"contracts/SpeciesLibrary.sol\":1858:1860  60 */\n      0x3c\n        /* \"contracts/SpeciesLibrary.sol\":1842:1871  SpeciesInfo(50, 60, 4, 5, \"\") */\n      dup2\n      mstore\n      0x20\n      add\n        /* \"contracts/SpeciesLibrary.sol\":1862:1863  4 */\n      0x04\n        /* \"contracts/SpeciesLibrary.sol\":1842:1871  SpeciesInfo(50, 60, 4, 5, \"\") */\n      dup2\n      mstore\n      0x20\n      add\n        /* \"contracts/SpeciesLibrary.sol\":1865:1866  5 */\n      0x05\n        /* \"contracts/SpeciesLibrary.sol\":1842:1871  SpeciesInfo(50, 60, 4, 5, \"\") */\n      dup2\n      mstore\n      0x20\n      add\n      mload(0x40)\n      dup1\n      0x20\n      add\n      0x40\n      mstore\n      dup1\n      0x00\n      dup2\n      mstore\n      pop\n      dup2\n      mstore\n      pop\n        /* \"contracts/SpeciesLibrary.sol\":1835:1871  return SpeciesInfo(50, 60, 4, 5, \"\") */\n      swap1\n      pop\n      jump(tag_118)\n        /* \"contracts/SpeciesLibrary.sol\":1786:2299  if (species == Species.WaterRail) {... */\n    tag_159:\n        /* \"contracts/SpeciesLibrary.sol\":1904:1922  Species.CommonTern */\n      0x07\n        /* \"contracts/SpeciesLibrary.sol\":1893:1922  species == Species.CommonTern */\n      0x0a\n      dup2\n      gt\n      iszero\n      tag_161\n      jumpi\n      tag_162\n      tag_77\n      jump\t// in\n    tag_162:\n    tag_161:\n        /* \"contracts/SpeciesLibrary.sol\":1893:1900  species */\n      dup3\n        /* \"contracts/SpeciesLibrary.sol\":1893:1922  species == Species.CommonTern */\n      0x0a\n      dup2\n      gt\n      iszero\n      tag_163\n      jumpi\n      tag_164\n      tag_77\n      jump\t// in\n    tag_164:\n    tag_163:\n      sub\n        /* \"contracts/SpeciesLibrary.sol\":1889:2299  if (species == Species.CommonTern) {... */\n      tag_165\n      jumpi\n        /* \"contracts/SpeciesLibrary.sol\":1946:1975  SpeciesInfo(55, 40, 3, 4, \"\") */\n      mload(0x40)\n      dup1\n      0xa0\n      add\n      0x40\n      mstore\n      dup1\n        /* \"contracts/SpeciesLibrary.sol\":1958:1960  55 */\n      0x37\n        /* \"contracts/SpeciesLibrary.sol\":1946:1975  SpeciesInfo(55, 40, 3, 4, \"\") */\n      dup2\n      mstore\n      0x20\n      add\n        /* \"contracts/SpeciesLibrary.sol\":1962:1964  40 */\n      0x28\n        /* \"contracts/SpeciesLibrary.sol\":1946:1975  SpeciesInfo(55, 40, 3, 4, \"\") */\n      dup2\n      mstore\n      0x20\n      add\n        /* \"contracts/SpeciesLibrary.sol\":1966:1967  3 */\n      0x03\n        /* \"contracts/SpeciesLibrary.sol\":1946:1975  SpeciesInfo(55, 40, 3, 4, \"\") */\n      dup2\n      mstore\n      0x20\n      add\n        /* \"contracts/SpeciesLibrary.sol\":1969:1970  4 */\n      0x04\n        /* \"contracts/SpeciesLibrary.sol\":1946:1975  SpeciesInfo(55, 40, 3, 4, \"\") */\n      dup2\n      mstore\n      0x20\n      add\n      mload(0x40)\n      dup1\n      0x20\n      add\n      0x40\n      mstore\n      dup1\n      0x00\n      dup2\n      mstore\n      pop\n      dup2\n      mstore\n      pop\n        /* \"contracts/SpeciesLibrary.sol\":1939:1975  return SpeciesInfo(55, 40, 3, 4, \"\") */\n      swap1\n      pop\n      jump(tag_118)\n        /* \"contracts/SpeciesLibrary.sol\":1889:2299  if (species == Species.CommonTern) {... */\n    tag_165:\n        /* \"contracts/SpeciesLibrary.sol\":2008:2025  Species.Goosander */\n      0x08\n        /* \"contracts/SpeciesLibrary.sol\":1997:2025  species == Species.Goosander */\n      0x0a\n      dup2\n      gt\n      iszero\n      tag_167\n      jumpi\n      tag_168\n      tag_77\n      jump\t// in\n    tag_168:\n    tag_167:\n        /* \"contracts/SpeciesLibrary.sol\":1997:2004  species */\n      dup3\n        /* \"contracts/SpeciesLibrary.sol\":1997:2025  species == Species.Goosander */\n      0x0a\n      dup2\n      gt\n      iszero\n      tag_169\n      jumpi\n      tag_170\n      tag_77\n      jump\t// in\n    tag_170:\n    tag_169:\n      sub\n        /* \"contracts/SpeciesLibrary.sol\":1993:2299  if (species == Species.Goosander) {... */\n      tag_171\n      jumpi\n        /* \"contracts/SpeciesLibrary.sol\":2049:2078  SpeciesInfo(78, 65, 2, 4, \"\") */\n      mload(0x40)\n      dup1\n      0xa0\n      add\n      0x40\n      mstore\n      dup1\n        /* \"contracts/SpeciesLibrary.sol\":2061:2063  78 */\n      0x4e\n        /* \"contracts/SpeciesLibrary.sol\":2049:2078  SpeciesInfo(78, 65, 2, 4, \"\") */\n      dup2\n      mstore\n      0x20\n      add\n        /* \"contracts/SpeciesLibrary.sol\":2065:2067  65 */\n      0x41\n        /* \"contracts/SpeciesLibrary.sol\":2049:2078  SpeciesInfo(78, 65, 2, 4, \"\") */\n      dup2\n      mstore\n      0x20\n      add\n        /* \"contracts/SpeciesLibrary.sol\":2069:2070  2 */\n      0x02\n        /* \"contracts/SpeciesLibrary.sol\":2049:2078  SpeciesInfo(78, 65, 2, 4, \"\") */\n      dup2\n      mstore\n      0x20\n      add\n        /* \"contracts/SpeciesLibrary.sol\":2072:2073  4 */\n      0x04\n        /* \"contracts/SpeciesLibrary.sol\":2049:2078  SpeciesInfo(78, 65, 2, 4, \"\") */\n      dup2\n      mstore\n      0x20\n      add\n      mload(0x40)\n      dup1\n      0x20\n      add\n      0x40\n      mstore\n      dup1\n      0x00\n      dup2\n      mstore\n      pop\n      dup2\n      mstore\n      pop\n        /* \"contracts/SpeciesLibrary.sol\":2042:2078  return SpeciesInfo(78, 65, 2, 4, \"\") */\n      swap1\n      pop\n      jump(tag_118)\n        /* \"contracts/SpeciesLibrary.sol\":1993:2299  if (species == Species.Goosander) {... */\n    tag_171:\n        /* \"contracts/SpeciesLibrary.sol\":2111:2131  Species.GreylagGoose */\n      0x09\n        /* \"contracts/SpeciesLibrary.sol\":2100:2131  species == Species.GreylagGoose */\n      0x0a\n      dup2\n      gt\n      iszero\n      tag_173\n      jumpi\n      tag_174\n      tag_77\n      jump\t// in\n    tag_174:\n    tag_173:\n        /* \"contracts/SpeciesLibrary.sol\":2100:2107  species */\n      dup3\n        /* \"contracts/SpeciesLibrary.sol\":2100:2131  species == Species.GreylagGoose */\n      0x0a\n      dup2\n      gt\n      iszero\n      tag_175\n      jumpi\n      tag_176\n      tag_77\n      jump\t// in\n    tag_176:\n    tag_175:\n      sub\n        /* \"contracts/SpeciesLibrary.sol\":2096:2299  if (species == Species.GreylagGoose) {... */\n      tag_177\n      jumpi\n        /* \"contracts/SpeciesLibrary.sol\":2155:2186  SpeciesInfo(150, 100, 4, 3, \"\") */\n      mload(0x40)\n      dup1\n      0xa0\n      add\n      0x40\n      mstore\n      dup1\n        /* \"contracts/SpeciesLibrary.sol\":2167:2170  150 */\n      0x96\n        /* \"contracts/SpeciesLibrary.sol\":2155:2186  SpeciesInfo(150, 100, 4, 3, \"\") */\n      dup2\n      mstore\n      0x20\n      add\n        /* \"contracts/SpeciesLibrary.sol\":2172:2175  100 */\n      0x64\n        /* \"contracts/SpeciesLibrary.sol\":2155:2186  SpeciesInfo(150, 100, 4, 3, \"\") */\n      dup2\n      mstore\n      0x20\n      add\n        /* \"contracts/SpeciesLibrary.sol\":2177:2178  4 */\n      0x04\n        /* \"contracts/SpeciesLibrary.sol\":2155:2186  SpeciesInfo(150, 100, 4, 3, \"\") */\n      dup2\n      mstore\n      0x20\n      add\n        /* \"contracts/SpeciesLibrary.sol\":2180:2181  3 */\n      0x03\n        /* \"contracts/SpeciesLibrary.sol\":2155:2186  SpeciesInfo(150, 100, 4, 3, \"\") */\n      dup2\n      mstore\n      0x20\n      add\n      mload(0x40)\n      dup1\n      0x20\n      add\n      0x40\n      mstore\n      dup1\n      0x00\n      dup2\n      mstore\n      pop\n      dup2\n      mstore\n      pop\n        /* \"contracts/SpeciesLibrary.sol\":2148:2186  return SpeciesInfo(150, 100, 4, 3, \"\") */\n      swap1\n      pop\n      jump(tag_118)\n        /* \"contracts/SpeciesLibrary.sol\":2096:2299  if (species == Species.GreylagGoose) {... */\n    tag_177:\n        /* \"contracts/SpeciesLibrary.sol\":2219:2234  Species.Moorhen */\n      0x0a\n        /* \"contracts/SpeciesLibrary.sol\":2208:2234  species == Species.Moorhen */\n      dup1\n      dup2\n      gt\n      iszero\n      tag_179\n      jumpi\n      tag_180\n      tag_77\n      jump\t// in\n    tag_180:\n    tag_179:\n        /* \"contracts/SpeciesLibrary.sol\":2208:2215  species */\n      dup3\n        /* \"contracts/SpeciesLibrary.sol\":2208:2234  species == Species.Moorhen */\n      0x0a\n      dup2\n      gt\n      iszero\n      tag_181\n      jumpi\n      tag_182\n      tag_77\n      jump\t// in\n    tag_182:\n    tag_181:\n      sub\n        /* \"contracts/SpeciesLibrary.sol\":2204:2299  if (species == Species.Moorhen) {... */\n      tag_183\n      jumpi\n        /* \"contracts/SpeciesLibrary.sol\":2258:2287  SpeciesInfo(35, 66, 4, 5, \"\") */\n      mload(0x40)\n      dup1\n      0xa0\n      add\n      0x40\n      mstore\n      dup1\n        /* \"contracts/SpeciesLibrary.sol\":2270:2272  35 */\n      0x23\n        /* \"contracts/SpeciesLibrary.sol\":2258:2287  SpeciesInfo(35, 66, 4, 5, \"\") */\n      dup2\n      mstore\n      0x20\n      add\n        /* \"contracts/SpeciesLibrary.sol\":2274:2276  66 */\n      0x42\n        /* \"contracts/SpeciesLibrary.sol\":2258:2287  SpeciesInfo(35, 66, 4, 5, \"\") */\n      dup2\n      mstore\n      0x20\n      add\n        /* \"contracts/SpeciesLibrary.sol\":2278:2279  4 */\n      0x04\n        /* \"contracts/SpeciesLibrary.sol\":2258:2287  SpeciesInfo(35, 66, 4, 5, \"\") */\n      dup2\n      mstore\n      0x20\n      add\n        /* \"contracts/SpeciesLibrary.sol\":2281:2282  5 */\n      0x05\n        /* \"contracts/SpeciesLibrary.sol\":2258:2287  SpeciesInfo(35, 66, 4, 5, \"\") */\n      dup2\n      mstore\n      0x20\n      add\n      mload(0x40)\n      dup1\n      0x20\n      add\n      0x40\n      mstore\n      dup1\n      0x00\n      dup2\n      mstore\n      pop\n      dup2\n      mstore\n      pop\n        /* \"contracts/SpeciesLibrary.sol\":2251:2287  return SpeciesInfo(35, 66, 4, 5, \"\") */\n      swap1\n      pop\n      jump(tag_118)\n        /* \"contracts/SpeciesLibrary.sol\":2204:2299  if (species == Species.Moorhen) {... */\n    tag_183:\n        /* \"contracts/SpeciesLibrary.sol\":2309:2334  revert(\"Unknown species\") */\n      mload(0x40)\n      0x08c379a000000000000000000000000000000000000000000000000000000000\n      dup2\n      mstore\n      0x04\n      add\n      tag_184\n      swap1\n      tag_185\n      jump\t// in\n    tag_184:\n      mload(0x40)\n      dup1\n      swap2\n      sub\n      swap1\n      revert\n        /* \"contracts/SpeciesLibrary.sol\":781:2342  function getSpeciesInfo(Species species) internal pure returns (SpeciesInfo memory) {... */\n    tag_118:\n      swap2\n      swap1\n      pop\n      jump\t// out\n    tag_83:\n      mload(0x40)\n      dup1\n      0xa0\n      add\n      0x40\n      mstore\n      dup1\n      0x00\n      dup2\n      mstore\n      0x20\n      add\n      0x00\n      dup2\n      mstore\n      0x20\n      add\n      0x00\n      dup2\n      mstore\n      0x20\n      add\n      0x00\n      0x0a\n      dup2\n      gt\n      iszero\n      tag_186\n      jumpi\n      tag_187\n      tag_77\n      jump\t// in\n    tag_187:\n    tag_186:\n      dup2\n      mstore\n      0x20\n      add\n      0x00\n      dup2\n      mstore\n      pop\n      swap1\n      jump\t// out\n    tag_107:\n      mload(0x40)\n      dup1\n      0xa0\n      add\n      0x40\n      mstore\n      dup1\n      0x00\n      dup2\n      mstore\n      0x20\n      add\n      0x00\n      dup2\n      mstore\n      0x20\n      add\n      0x00\n      dup2\n      mstore\n      0x20\n      add\n      0x00\n      dup2\n      mstore\n      0x20\n      add\n      0x60\n      dup2\n      mstore\n      pop\n      swap1\n      jump\t// out\n        /* \"#utility.yul\":88:205   */\n    tag_189:\n        /* \"#utility.yul\":197:198   */\n      0x00\n        /* \"#utility.yul\":194:195   */\n      0x00\n        /* \"#utility.yul\":187:199   */\n      revert\n        /* \"#utility.yul\":334:411   */\n    tag_191:\n        /* \"#utility.yul\":371:378   */\n      0x00\n        /* \"#utility.yul\":400:405   */\n      dup2\n        /* \"#utility.yul\":389:405   */\n      swap1\n      pop\n        /* \"#utility.yul\":334:411   */\n      swap2\n      swap1\n      pop\n      jump\t// out\n        /* \"#utility.yul\":417:539   */\n    tag_192:\n        /* \"#utility.yul\":490:514   */\n      tag_228\n        /* \"#utility.yul\":508:513   */\n      dup2\n        /* \"#utility.yul\":490:514   */\n      tag_191\n      jump\t// in\n    tag_228:\n        /* \"#utility.yul\":483:488   */\n      dup2\n        /* \"#utility.yul\":480:515   */\n      eq\n        /* \"#utility.yul\":470:533   */\n      tag_229\n      jumpi\n        /* \"#utility.yul\":529:530   */\n      0x00\n        /* \"#utility.yul\":526:527   */\n      0x00\n        /* \"#utility.yul\":519:531   */\n      revert\n        /* \"#utility.yul\":470:533   */\n    tag_229:\n        /* \"#utility.yul\":417:539   */\n      pop\n      jump\t// out\n        /* \"#utility.yul\":545:684   */\n    tag_193:\n        /* \"#utility.yul\":591:596   */\n      0x00\n        /* \"#utility.yul\":629:635   */\n      dup2\n        /* \"#utility.yul\":616:636   */\n      calldataload\n        /* \"#utility.yul\":607:636   */\n      swap1\n      pop\n        /* \"#utility.yul\":645:678   */\n      tag_231\n        /* \"#utility.yul\":672:677   */\n      dup2\n        /* \"#utility.yul\":645:678   */\n      tag_192\n      jump\t// in\n    tag_231:\n        /* \"#utility.yul\":545:684   */\n      swap3\n      swap2\n      pop\n      pop\n      jump\t// out\n        /* \"#utility.yul\":690:1019   */\n    tag_15:\n        /* \"#utility.yul\":749:755   */\n      0x00\n        /* \"#utility.yul\":798:800   */\n      0x20\n        /* \"#utility.yul\":786:795   */\n      dup3\n        /* \"#utility.yul\":777:784   */\n      dup5\n        /* \"#utility.yul\":773:796   */\n      sub\n        /* \"#utility.yul\":769:801   */\n      slt\n        /* \"#utility.yul\":766:885   */\n      iszero\n      tag_233\n      jumpi\n        /* \"#utility.yul\":804:883   */\n      tag_234\n      tag_189\n      jump\t// in\n    tag_234:\n        /* \"#utility.yul\":766:885   */\n    tag_233:\n        /* \"#utility.yul\":924:925   */\n      0x00\n        /* \"#utility.yul\":949:1002   */\n      tag_235\n        /* \"#utility.yul\":994:1001   */\n      dup5\n        /* \"#utility.yul\":985:991   */\n      dup3\n        /* \"#utility.yul\":974:983   */\n      dup6\n        /* \"#utility.yul\":970:992   */\n      add\n        /* \"#utility.yul\":949:1002   */\n      tag_193\n      jump\t// in\n    tag_235:\n        /* \"#utility.yul\":939:1002   */\n      swap2\n      pop\n        /* \"#utility.yul\":895:1012   */\n      pop\n        /* \"#utility.yul\":690:1019   */\n      swap3\n      swap2\n      pop\n      pop\n      jump\t// out\n        /* \"#utility.yul\":1025:1115   */\n    tag_194:\n        /* \"#utility.yul\":1059:1066   */\n      0x00\n        /* \"#utility.yul\":1102:1107   */\n      dup2\n        /* \"#utility.yul\":1095:1108   */\n      iszero\n        /* \"#utility.yul\":1088:1109   */\n      iszero\n        /* \"#utility.yul\":1077:1109   */\n      swap1\n      pop\n        /* \"#utility.yul\":1025:1115   */\n      swap2\n      swap1\n      pop\n      jump\t// out\n        /* \"#utility.yul\":1121:1230   */\n    tag_195:\n        /* \"#utility.yul\":1202:1223   */\n      tag_238\n        /* \"#utility.yul\":1217:1222   */\n      dup2\n        /* \"#utility.yul\":1202:1223   */\n      tag_194\n      jump\t// in\n    tag_238:\n        /* \"#utility.yul\":1197:1200   */\n      dup3\n        /* \"#utility.yul\":1190:1224   */\n      mstore\n        /* \"#utility.yul\":1121:1230   */\n      pop\n      pop\n      jump\t// out\n        /* \"#utility.yul\":1236:1446   */\n    tag_18:\n        /* \"#utility.yul\":1323:1327   */\n      0x00\n        /* \"#utility.yul\":1361:1363   */\n      0x20\n        /* \"#utility.yul\":1350:1359   */\n      dup3\n        /* \"#utility.yul\":1346:1364   */\n      add\n        /* \"#utility.yul\":1338:1364   */\n      swap1\n      pop\n        /* \"#utility.yul\":1374:1439   */\n      tag_240\n        /* \"#utility.yul\":1436:1437   */\n      0x00\n        /* \"#utility.yul\":1425:1434   */\n      dup4\n        /* \"#utility.yul\":1421:1438   */\n      add\n        /* \"#utility.yul\":1412:1418   */\n      dup5\n        /* \"#utility.yul\":1374:1439   */\n      tag_195\n      jump\t// in\n    tag_240:\n        /* \"#utility.yul\":1236:1446   */\n      swap3\n      swap2\n      pop\n      pop\n      jump\t// out\n        /* \"#utility.yul\":1452:1926   */\n    tag_21:\n        /* \"#utility.yul\":1520:1526   */\n      0x00\n        /* \"#utility.yul\":1528:1534   */\n      0x00\n        /* \"#utility.yul\":1577:1579   */\n      0x40\n        /* \"#utility.yul\":1565:1574   */\n      dup4\n        /* \"#utility.yul\":1556:1563   */\n      dup6\n        /* \"#utility.yul\":1552:1575   */\n      sub\n        /* \"#utility.yul\":1548:1580   */\n      slt\n        /* \"#utility.yul\":1545:1664   */\n      iszero\n      tag_242\n      jumpi\n        /* \"#utility.yul\":1583:1662   */\n      tag_243\n      tag_189\n      jump\t// in\n    tag_243:\n        /* \"#utility.yul\":1545:1664   */\n    tag_242:\n        /* \"#utility.yul\":1703:1704   */\n      0x00\n        /* \"#utility.yul\":1728:1781   */\n      tag_244\n        /* \"#utility.yul\":1773:1780   */\n      dup6\n        /* \"#utility.yul\":1764:1770   */\n      dup3\n        /* \"#utility.yul\":1753:1762   */\n      dup7\n        /* \"#utility.yul\":1749:1771   */\n      add\n        /* \"#utility.yul\":1728:1781   */\n      tag_193\n      jump\t// in\n    tag_244:\n        /* \"#utility.yul\":1718:1781   */\n      swap3\n      pop\n        /* \"#utility.yul\":1674:1791   */\n      pop\n        /* \"#utility.yul\":1830:1832   */\n      0x20\n        /* \"#utility.yul\":1856:1909   */\n      tag_245\n        /* \"#utility.yul\":1901:1908   */\n      dup6\n        /* \"#utility.yul\":1892:1898   */\n      dup3\n        /* \"#utility.yul\":1881:1890   */\n      dup7\n        /* \"#utility.yul\":1877:1899   */\n      add\n        /* \"#utility.yul\":1856:1909   */\n      tag_193\n      jump\t// in\n    tag_245:\n        /* \"#utility.yul\":1846:1909   */\n      swap2\n      pop\n        /* \"#utility.yul\":1801:1919   */\n      pop\n        /* \"#utility.yul\":1452:1926   */\n      swap3\n      pop\n      swap3\n      swap1\n      pop\n      jump\t// out\n        /* \"#utility.yul\":1932:2043   */\n    tag_196:\n        /* \"#utility.yul\":2016:2018   */\n      0x0b\n        /* \"#utility.yul\":2009:2014   */\n      dup2\n        /* \"#utility.yul\":2006:2019   */\n      lt\n        /* \"#utility.yul\":1996:2037   */\n      tag_247\n      jumpi\n        /* \"#utility.yul\":2033:2034   */\n      0x00\n        /* \"#utility.yul\":2030:2031   */\n      0x00\n        /* \"#utility.yul\":2023:2035   */\n      revert\n        /* \"#utility.yul\":1996:2037   */\n    tag_247:\n        /* \"#utility.yul\":1932:2043   */\n      pop\n      jump\t// out\n        /* \"#utility.yul\":2049:2210   */\n    tag_197:\n        /* \"#utility.yul\":2106:2111   */\n      0x00\n        /* \"#utility.yul\":2144:2150   */\n      dup2\n        /* \"#utility.yul\":2131:2151   */\n      calldataload\n        /* \"#utility.yul\":2122:2151   */\n      swap1\n      pop\n        /* \"#utility.yul\":2160:2204   */\n      tag_249\n        /* \"#utility.yul\":2198:2203   */\n      dup2\n        /* \"#utility.yul\":2160:2204   */\n      tag_196\n      jump\t// in\n    tag_249:\n        /* \"#utility.yul\":2049:2210   */\n      swap3\n      swap2\n      pop\n      pop\n      jump\t// out\n        /* \"#utility.yul\":2216:2567   */\n    tag_28:\n        /* \"#utility.yul\":2286:2292   */\n      0x00\n        /* \"#utility.yul\":2335:2337   */\n      0x20\n        /* \"#utility.yul\":2323:2332   */\n      dup3\n        /* \"#utility.yul\":2314:2321   */\n      dup5\n        /* \"#utility.yul\":2310:2333   */\n      sub\n        /* \"#utility.yul\":2306:2338   */\n      slt\n        /* \"#utility.yul\":2303:2422   */\n      iszero\n      tag_251\n      jumpi\n        /* \"#utility.yul\":2341:2420   */\n      tag_252\n      tag_189\n      jump\t// in\n    tag_252:\n        /* \"#utility.yul\":2303:2422   */\n    tag_251:\n        /* \"#utility.yul\":2461:2462   */\n      0x00\n        /* \"#utility.yul\":2486:2550   */\n      tag_253\n        /* \"#utility.yul\":2542:2549   */\n      dup5\n        /* \"#utility.yul\":2533:2539   */\n      dup3\n        /* \"#utility.yul\":2522:2531   */\n      dup6\n        /* \"#utility.yul\":2518:2540   */\n      add\n        /* \"#utility.yul\":2486:2550   */\n      tag_197\n      jump\t// in\n    tag_253:\n        /* \"#utility.yul\":2476:2550   */\n      swap2\n      pop\n        /* \"#utility.yul\":2432:2560   */\n      pop\n        /* \"#utility.yul\":2216:2567   */\n      swap3\n      swap2\n      pop\n      pop\n      jump\t// out\n        /* \"#utility.yul\":2573:2649   */\n    tag_198:\n        /* \"#utility.yul\":2609:2616   */\n      0x00\n        /* \"#utility.yul\":2638:2643   */\n      dup2\n        /* \"#utility.yul\":2627:2643   */\n      swap1\n      pop\n        /* \"#utility.yul\":2573:2649   */\n      swap2\n      swap1\n      pop\n      jump\t// out\n        /* \"#utility.yul\":2655:2770   */\n    tag_199:\n        /* \"#utility.yul\":2740:2763   */\n      tag_256\n        /* \"#utility.yul\":2757:2762   */\n      dup2\n        /* \"#utility.yul\":2740:2763   */\n      tag_198\n      jump\t// in\n    tag_256:\n        /* \"#utility.yul\":2735:2738   */\n      dup3\n        /* \"#utility.yul\":2728:2764   */\n      mstore\n        /* \"#utility.yul\":2655:2770   */\n      pop\n      pop\n      jump\t// out\n        /* \"#utility.yul\":2776:2994   */\n    tag_31:\n        /* \"#utility.yul\":2867:2871   */\n      0x00\n        /* \"#utility.yul\":2905:2907   */\n      0x20\n        /* \"#utility.yul\":2894:2903   */\n      dup3\n        /* \"#utility.yul\":2890:2908   */\n      add\n        /* \"#utility.yul\":2882:2908   */\n      swap1\n      pop\n        /* \"#utility.yul\":2918:2987   */\n      tag_258\n        /* \"#utility.yul\":2984:2985   */\n      0x00\n        /* \"#utility.yul\":2973:2982   */\n      dup4\n        /* \"#utility.yul\":2969:2986   */\n      add\n        /* \"#utility.yul\":2960:2966   */\n      dup5\n        /* \"#utility.yul\":2918:2987   */\n      tag_199\n      jump\t// in\n    tag_258:\n        /* \"#utility.yul\":2776:2994   */\n      swap3\n      swap2\n      pop\n      pop\n      jump\t// out\n        /* \"#utility.yul\":3000:3118   */\n    tag_200:\n        /* \"#utility.yul\":3087:3111   */\n      tag_260\n        /* \"#utility.yul\":3105:3110   */\n      dup2\n        /* \"#utility.yul\":3087:3111   */\n      tag_191\n      jump\t// in\n    tag_260:\n        /* \"#utility.yul\":3082:3085   */\n      dup3\n        /* \"#utility.yul\":3075:3112   */\n      mstore\n        /* \"#utility.yul\":3000:3118   */\n      pop\n      pop\n      jump\t// out\n        /* \"#utility.yul\":3124:3346   */\n    tag_35:\n        /* \"#utility.yul\":3217:3221   */\n      0x00\n        /* \"#utility.yul\":3255:3257   */\n      0x20\n        /* \"#utility.yul\":3244:3253   */\n      dup3\n        /* \"#utility.yul\":3240:3258   */\n      add\n        /* \"#utility.yul\":3232:3258   */\n      swap1\n      pop\n        /* \"#utility.yul\":3268:3339   */\n      tag_262\n        /* \"#utility.yul\":3336:3337   */\n      0x00\n        /* \"#utility.yul\":3325:3334   */\n      dup4\n        /* \"#utility.yul\":3321:3338   */\n      add\n        /* \"#utility.yul\":3312:3318   */\n      dup5\n        /* \"#utility.yul\":3268:3339   */\n      tag_200\n      jump\t// in\n    tag_262:\n        /* \"#utility.yul\":3124:3346   */\n      swap3\n      swap2\n      pop\n      pop\n      jump\t// out\n        /* \"#utility.yul\":3352:3460   */\n    tag_201:\n        /* \"#utility.yul\":3429:3453   */\n      tag_264\n        /* \"#utility.yul\":3447:3452   */\n      dup2\n        /* \"#utility.yul\":3429:3453   */\n      tag_191\n      jump\t// in\n    tag_264:\n        /* \"#utility.yul\":3424:3427   */\n      dup3\n        /* \"#utility.yul\":3417:3454   */\n      mstore\n        /* \"#utility.yul\":3352:3460   */\n      pop\n      pop\n      jump\t// out\n        /* \"#utility.yul\":3466:3646   */\n    tag_77:\n        /* \"#utility.yul\":3514:3591   */\n      0x4e487b7100000000000000000000000000000000000000000000000000000000\n        /* \"#utility.yul\":3511:3512   */\n      0x00\n        /* \"#utility.yul\":3504:3592   */\n      mstore\n        /* \"#utility.yul\":3611:3615   */\n      0x21\n        /* \"#utility.yul\":3608:3609   */\n      0x04\n        /* \"#utility.yul\":3601:3616   */\n      mstore\n        /* \"#utility.yul\":3635:3639   */\n      0x24\n        /* \"#utility.yul\":3632:3633   */\n      0x00\n        /* \"#utility.yul\":3625:3640   */\n      revert\n        /* \"#utility.yul\":3652:3769   */\n    tag_202:\n        /* \"#utility.yul\":3736:3738   */\n      0x0b\n        /* \"#utility.yul\":3729:3734   */\n      dup2\n        /* \"#utility.yul\":3726:3739   */\n      lt\n        /* \"#utility.yul\":3716:3763   */\n      tag_267\n      jumpi\n        /* \"#utility.yul\":3743:3761   */\n      tag_268\n      tag_77\n      jump\t// in\n    tag_268:\n        /* \"#utility.yul\":3716:3763   */\n    tag_267:\n        /* \"#utility.yul\":3652:3769   */\n      pop\n      jump\t// out\n        /* \"#utility.yul\":3775:3908   */\n    tag_203:\n        /* \"#utility.yul\":3823:3830   */\n      0x00\n        /* \"#utility.yul\":3852:3857   */\n      dup2\n        /* \"#utility.yul\":3841:3857   */\n      swap1\n      pop\n        /* \"#utility.yul\":3858:3902   */\n      tag_270\n        /* \"#utility.yul\":3896:3901   */\n      dup3\n        /* \"#utility.yul\":3858:3902   */\n      tag_202\n      jump\t// in\n    tag_270:\n        /* \"#utility.yul\":3775:3908   */\n      swap2\n      swap1\n      pop\n      jump\t// out\n        /* \"#utility.yul\":3914:4047   */\n    tag_204:\n        /* \"#utility.yul\":3973:3982   */\n      0x00\n        /* \"#utility.yul\":4006:4041   */\n      tag_272\n        /* \"#utility.yul\":4035:4040   */\n      dup3\n        /* \"#utility.yul\":4006:4041   */\n      tag_203\n      jump\t// in\n    tag_272:\n        /* \"#utility.yul\":3993:4041   */\n      swap1\n      pop\n        /* \"#utility.yul\":3914:4047   */\n      swap2\n      swap1\n      pop\n      jump\t// out\n        /* \"#utility.yul\":4053:4192   */\n    tag_205:\n        /* \"#utility.yul\":4139:4185   */\n      tag_274\n        /* \"#utility.yul\":4179:4184   */\n      dup2\n        /* \"#utility.yul\":4139:4185   */\n      tag_204\n      jump\t// in\n    tag_274:\n        /* \"#utility.yul\":4134:4137   */\n      dup3\n        /* \"#utility.yul\":4127:4186   */\n      mstore\n        /* \"#utility.yul\":4053:4192   */\n      pop\n      pop\n      jump\t// out\n        /* \"#utility.yul\":4250:5304   */\n    tag_206:\n        /* \"#utility.yul\":4397:4401   */\n      0xa0\n        /* \"#utility.yul\":4392:4395   */\n      dup3\n        /* \"#utility.yul\":4388:4402   */\n      add\n        /* \"#utility.yul\":4483:4487   */\n      0x00\n        /* \"#utility.yul\":4476:4481   */\n      dup3\n        /* \"#utility.yul\":4472:4488   */\n      add\n        /* \"#utility.yul\":4466:4489   */\n      mload\n        /* \"#utility.yul\":4502:4565   */\n      tag_276\n        /* \"#utility.yul\":4559:4563   */\n      0x00\n        /* \"#utility.yul\":4554:4557   */\n      dup6\n        /* \"#utility.yul\":4550:4564   */\n      add\n        /* \"#utility.yul\":4536:4548   */\n      dup3\n        /* \"#utility.yul\":4502:4565   */\n      tag_201\n      jump\t// in\n    tag_276:\n        /* \"#utility.yul\":4412:4575   */\n      pop\n        /* \"#utility.yul\":4659:4663   */\n      0x20\n        /* \"#utility.yul\":4652:4657   */\n      dup3\n        /* \"#utility.yul\":4648:4664   */\n      add\n        /* \"#utility.yul\":4642:4665   */\n      mload\n        /* \"#utility.yul\":4678:4741   */\n      tag_277\n        /* \"#utility.yul\":4735:4739   */\n      0x20\n        /* \"#utility.yul\":4730:4733   */\n      dup6\n        /* \"#utility.yul\":4726:4740   */\n      add\n        /* \"#utility.yul\":4712:4724   */\n      dup3\n        /* \"#utility.yul\":4678:4741   */\n      tag_201\n      jump\t// in\n    tag_277:\n        /* \"#utility.yul\":4585:4751   */\n      pop\n        /* \"#utility.yul\":4835:4839   */\n      0x40\n        /* \"#utility.yul\":4828:4833   */\n      dup3\n        /* \"#utility.yul\":4824:4840   */\n      add\n        /* \"#utility.yul\":4818:4841   */\n      mload\n        /* \"#utility.yul\":4854:4917   */\n      tag_278\n        /* \"#utility.yul\":4911:4915   */\n      0x40\n        /* \"#utility.yul\":4906:4909   */\n      dup6\n        /* \"#utility.yul\":4902:4916   */\n      add\n        /* \"#utility.yul\":4888:4900   */\n      dup3\n        /* \"#utility.yul\":4854:4917   */\n      tag_201\n      jump\t// in\n    tag_278:\n        /* \"#utility.yul\":4761:4927   */\n      pop\n        /* \"#utility.yul\":5012:5016   */\n      0x60\n        /* \"#utility.yul\":5005:5010   */\n      dup3\n        /* \"#utility.yul\":5001:5017   */\n      add\n        /* \"#utility.yul\":4995:5018   */\n      mload\n        /* \"#utility.yul\":5031:5103   */\n      tag_279\n        /* \"#utility.yul\":5097:5101   */\n      0x60\n        /* \"#utility.yul\":5092:5095   */\n      dup6\n        /* \"#utility.yul\":5088:5102   */\n      add\n        /* \"#utility.yul\":5074:5086   */\n      dup3\n        /* \"#utility.yul\":5031:5103   */\n      tag_205\n      jump\t// in\n    tag_279:\n        /* \"#utility.yul\":4937:5113   */\n      pop\n        /* \"#utility.yul\":5205:5209   */\n      0x80\n        /* \"#utility.yul\":5198:5203   */\n      dup3\n        /* \"#utility.yul\":5194:5210   */\n      add\n        /* \"#utility.yul\":5188:5211   */\n      mload\n        /* \"#utility.yul\":5224:5287   */\n      tag_280\n        /* \"#utility.yul\":5281:5285   */\n      0x80\n        /* \"#utility.yul\":5276:5279   */\n      dup6\n        /* \"#utility.yul\":5272:5286   */\n      add\n        /* \"#utility.yul\":5258:5270   */\n      dup3\n        /* \"#utility.yul\":5224:5287   */\n      tag_201\n      jump\t// in\n    tag_280:\n        /* \"#utility.yul\":5123:5297   */\n      pop\n        /* \"#utility.yul\":4366:5304   */\n      pop\n        /* \"#utility.yul\":4250:5304   */\n      pop\n      pop\n      jump\t// out\n        /* \"#utility.yul\":5310:5633   */\n    tag_40:\n        /* \"#utility.yul\":5453:5457   */\n      0x00\n        /* \"#utility.yul\":5491:5494   */\n      0xa0\n        /* \"#utility.yul\":5480:5489   */\n      dup3\n        /* \"#utility.yul\":5476:5495   */\n      add\n        /* \"#utility.yul\":5468:5495   */\n      swap1\n      pop\n        /* \"#utility.yul\":5505:5626   */\n      tag_282\n        /* \"#utility.yul\":5623:5624   */\n      0x00\n        /* \"#utility.yul\":5612:5621   */\n      dup4\n        /* \"#utility.yul\":5608:5625   */\n      add\n        /* \"#utility.yul\":5599:5605   */\n      dup5\n        /* \"#utility.yul\":5505:5626   */\n      tag_206\n      jump\t// in\n    tag_282:\n        /* \"#utility.yul\":5310:5633   */\n      swap3\n      swap2\n      pop\n      pop\n      jump\t// out\n        /* \"#utility.yul\":5639:5765   */\n    tag_207:\n        /* \"#utility.yul\":5676:5683   */\n      0x00\n        /* \"#utility.yul\":5716:5758   */\n      0xffffffffffffffffffffffffffffffffffffffff\n        /* \"#utility.yul\":5709:5714   */\n      dup3\n        /* \"#utility.yul\":5705:5759   */\n      and\n        /* \"#utility.yul\":5694:5759   */\n      swap1\n      pop\n        /* \"#utility.yul\":5639:5765   */\n      swap2\n      swap1\n      pop\n      jump\t// out\n        /* \"#utility.yul\":5771:5867   */\n    tag_208:\n        /* \"#utility.yul\":5808:5815   */\n      0x00\n        /* \"#utility.yul\":5837:5861   */\n      tag_285\n        /* \"#utility.yul\":5855:5860   */\n      dup3\n        /* \"#utility.yul\":5837:5861   */\n      tag_207\n      jump\t// in\n    tag_285:\n        /* \"#utility.yul\":5826:5861   */\n      swap1\n      pop\n        /* \"#utility.yul\":5771:5867   */\n      swap2\n      swap1\n      pop\n      jump\t// out\n        /* \"#utility.yul\":5873:5991   */\n    tag_209:\n        /* \"#utility.yul\":5960:5984   */\n      tag_287\n        /* \"#utility.yul\":5978:5983   */\n      dup2\n        /* \"#utility.yul\":5960:5984   */\n      tag_208\n      jump\t// in\n    tag_287:\n        /* \"#utility.yul\":5955:5958   */\n      dup3\n        /* \"#utility.yul\":5948:5985   */\n      mstore\n        /* \"#utility.yul\":5873:5991   */\n      pop\n      pop\n      jump\t// out\n        /* \"#utility.yul\":5997:6219   */\n    tag_44:\n        /* \"#utility.yul\":6090:6094   */\n      0x00\n        /* \"#utility.yul\":6128:6130   */\n      0x20\n        /* \"#utility.yul\":6117:6126   */\n      dup3\n        /* \"#utility.yul\":6113:6131   */\n      add\n        /* \"#utility.yul\":6105:6131   */\n      swap1\n      pop\n        /* \"#utility.yul\":6141:6212   */\n      tag_289\n        /* \"#utility.yul\":6209:6210   */\n      0x00\n        /* \"#utility.yul\":6198:6207   */\n      dup4\n        /* \"#utility.yul\":6194:6211   */\n      add\n        /* \"#utility.yul\":6185:6191   */\n      dup5\n        /* \"#utility.yul\":6141:6212   */\n      tag_209\n      jump\t// in\n    tag_289:\n        /* \"#utility.yul\":5997:6219   */\n      swap3\n      swap2\n      pop\n      pop\n      jump\t// out\n        /* \"#utility.yul\":6225:6374   */\n    tag_210:\n        /* \"#utility.yul\":6321:6367   */\n      tag_291\n        /* \"#utility.yul\":6361:6366   */\n      dup2\n        /* \"#utility.yul\":6321:6367   */\n      tag_204\n      jump\t// in\n    tag_291:\n        /* \"#utility.yul\":6316:6319   */\n      dup3\n        /* \"#utility.yul\":6309:6368   */\n      mstore\n        /* \"#utility.yul\":6225:6374   */\n      pop\n      pop\n      jump\t// out\n        /* \"#utility.yul\":6380:7062   */\n    tag_52:\n        /* \"#utility.yul\":6594:6598   */\n      0x00\n        /* \"#utility.yul\":6632:6635   */\n      0xa0\n        /* \"#utility.yul\":6621:6630   */\n      dup3\n        /* \"#utility.yul\":6617:6636   */\n      add\n        /* \"#utility.yul\":6609:6636   */\n      swap1\n      pop\n        /* \"#utility.yul\":6646:6717   */\n      tag_293\n        /* \"#utility.yul\":6714:6715   */\n      0x00\n        /* \"#utility.yul\":6703:6712   */\n      dup4\n        /* \"#utility.yul\":6699:6716   */\n      add\n        /* \"#utility.yul\":6690:6696   */\n      dup9\n        /* \"#utility.yul\":6646:6717   */\n      tag_200\n      jump\t// in\n    tag_293:\n        /* \"#utility.yul\":6727:6799   */\n      tag_294\n        /* \"#utility.yul\":6795:6797   */\n      0x20\n        /* \"#utility.yul\":6784:6793   */\n      dup4\n        /* \"#utility.yul\":6780:6798   */\n      add\n        /* \"#utility.yul\":6771:6777   */\n      dup8\n        /* \"#utility.yul\":6727:6799   */\n      tag_200\n      jump\t// in\n    tag_294:\n        /* \"#utility.yul\":6809:6881   */\n      tag_295\n        /* \"#utility.yul\":6877:6879   */\n      0x40\n        /* \"#utility.yul\":6866:6875   */\n      dup4\n        /* \"#utility.yul\":6862:6880   */\n      add\n        /* \"#utility.yul\":6853:6859   */\n      dup7\n        /* \"#utility.yul\":6809:6881   */\n      tag_200\n      jump\t// in\n    tag_295:\n        /* \"#utility.yul\":6891:6972   */\n      tag_296\n        /* \"#utility.yul\":6968:6970   */\n      0x60\n        /* \"#utility.yul\":6957:6966   */\n      dup4\n        /* \"#utility.yul\":6953:6971   */\n      add\n        /* \"#utility.yul\":6944:6950   */\n      dup6\n        /* \"#utility.yul\":6891:6972   */\n      tag_210\n      jump\t// in\n    tag_296:\n        /* \"#utility.yul\":6982:7055   */\n      tag_297\n        /* \"#utility.yul\":7050:7053   */\n      0x80\n        /* \"#utility.yul\":7039:7048   */\n      dup4\n        /* \"#utility.yul\":7035:7054   */\n      add\n        /* \"#utility.yul\":7026:7032   */\n      dup5\n        /* \"#utility.yul\":6982:7055   */\n      tag_200\n      jump\t// in\n    tag_297:\n        /* \"#utility.yul\":6380:7062   */\n      swap7\n      swap6\n      pop\n      pop\n      pop\n      pop\n      pop\n      pop\n      jump\t// out\n        /* \"#utility.yul\":7068:7237   */\n    tag_211:\n        /* \"#utility.yul\":7152:7163   */\n      0x00\n        /* \"#utility.yul\":7186:7192   */\n      dup3\n        /* \"#utility.yul\":7181:7184   */\n      dup3\n        /* \"#utility.yul\":7174:7193   */\n      mstore\n        /* \"#utility.yul\":7226:7230   */\n      0x20\n        /* \"#utility.yul\":7221:7224   */\n      dup3\n        /* \"#utility.yul\":7217:7231   */\n      add\n        /* \"#utility.yul\":7202:7231   */\n      swap1\n      pop\n        /* \"#utility.yul\":7068:7237   */\n      swap3\n      swap2\n      pop\n      pop\n      jump\t// out\n        /* \"#utility.yul\":7243:7416   */\n    tag_212:\n        /* \"#utility.yul\":7383:7408   */\n      0x4f6e6c79205061726b2063616e2063616c6c2074686973000000000000000000\n        /* \"#utility.yul\":7379:7380   */\n      0x00\n        /* \"#utility.yul\":7371:7377   */\n      dup3\n        /* \"#utility.yul\":7367:7381   */\n      add\n        /* \"#utility.yul\":7360:7409   */\n      mstore\n        /* \"#utility.yul\":7243:7416   */\n      pop\n      jump\t// out\n        /* \"#utility.yul\":7422:7788   */\n    tag_213:\n        /* \"#utility.yul\":7564:7567   */\n      0x00\n        /* \"#utility.yul\":7585:7652   */\n      tag_301\n        /* \"#utility.yul\":7649:7651   */\n      0x17\n        /* \"#utility.yul\":7644:7647   */\n      dup4\n        /* \"#utility.yul\":7585:7652   */\n      tag_211\n      jump\t// in\n    tag_301:\n        /* \"#utility.yul\":7578:7652   */\n      swap2\n      pop\n        /* \"#utility.yul\":7661:7754   */\n      tag_302\n        /* \"#utility.yul\":7750:7753   */\n      dup3\n        /* \"#utility.yul\":7661:7754   */\n      tag_212\n      jump\t// in\n    tag_302:\n        /* \"#utility.yul\":7779:7781   */\n      0x20\n        /* \"#utility.yul\":7774:7777   */\n      dup3\n        /* \"#utility.yul\":7770:7782   */\n      add\n        /* \"#utility.yul\":7763:7782   */\n      swap1\n      pop\n        /* \"#utility.yul\":7422:7788   */\n      swap2\n      swap1\n      pop\n      jump\t// out\n        /* \"#utility.yul\":7794:8213   */\n    tag_56:\n        /* \"#utility.yul\":7960:7964   */\n      0x00\n        /* \"#utility.yul\":7998:8000   */\n      0x20\n        /* \"#utility.yul\":7987:7996   */\n      dup3\n        /* \"#utility.yul\":7983:8001   */\n      add\n        /* \"#utility.yul\":7975:8001   */\n      swap1\n      pop\n        /* \"#utility.yul\":8047:8056   */\n      dup2\n        /* \"#utility.yul\":8041:8045   */\n      dup2\n        /* \"#utility.yul\":8037:8057   */\n      sub\n        /* \"#utility.yul\":8033:8034   */\n      0x00\n        /* \"#utility.yul\":8022:8031   */\n      dup4\n        /* \"#utility.yul\":8018:8035   */\n      add\n        /* \"#utility.yul\":8011:8058   */\n      mstore\n        /* \"#utility.yul\":8075:8206   */\n      tag_304\n        /* \"#utility.yul\":8201:8205   */\n      dup2\n        /* \"#utility.yul\":8075:8206   */\n      tag_213\n      jump\t// in\n    tag_304:\n        /* \"#utility.yul\":8067:8206   */\n      swap1\n      pop\n        /* \"#utility.yul\":7794:8213   */\n      swap2\n      swap1\n      pop\n      jump\t// out\n        /* \"#utility.yul\":8219:8399   */\n    tag_214:\n        /* \"#utility.yul\":8267:8344   */\n      0x4e487b7100000000000000000000000000000000000000000000000000000000\n        /* \"#utility.yul\":8264:8265   */\n      0x00\n        /* \"#utility.yul\":8257:8345   */\n      mstore\n        /* \"#utility.yul\":8364:8368   */\n      0x11\n        /* \"#utility.yul\":8361:8362   */\n      0x04\n        /* \"#utility.yul\":8354:8369   */\n      mstore\n        /* \"#utility.yul\":8388:8392   */\n      0x24\n        /* \"#utility.yul\":8385:8386   */\n      0x00\n        /* \"#utility.yul\":8378:8393   */\n      revert\n        /* \"#utility.yul\":8405:8599   */\n    tag_63:\n        /* \"#utility.yul\":8445:8449   */\n      0x00\n        /* \"#utility.yul\":8465:8485   */\n      tag_307\n        /* \"#utility.yul\":8483:8484   */\n      dup3\n        /* \"#utility.yul\":8465:8485   */\n      tag_191\n      jump\t// in\n    tag_307:\n        /* \"#utility.yul\":8460:8485   */\n      swap2\n      pop\n        /* \"#utility.yul\":8499:8519   */\n      tag_308\n        /* \"#utility.yul\":8517:8518   */\n      dup4\n        /* \"#utility.yul\":8499:8519   */\n      tag_191\n      jump\t// in\n    tag_308:\n        /* \"#utility.yul\":8494:8519   */\n      swap3\n      pop\n        /* \"#utility.yul\":8543:8544   */\n      dup3\n        /* \"#utility.yul\":8540:8541   */\n      dup3\n        /* \"#utility.yul\":8536:8545   */\n      sub\n        /* \"#utility.yul\":8528:8545   */\n      swap1\n      pop\n        /* \"#utility.yul\":8567:8568   */\n      dup2\n        /* \"#utility.yul\":8561:8565   */\n      dup2\n        /* \"#utility.yul\":8558:8569   */\n      gt\n        /* \"#utility.yul\":8555:8592   */\n      iszero\n      tag_309\n      jumpi\n        /* \"#utility.yul\":8572:8590   */\n      tag_310\n      tag_214\n      jump\t// in\n    tag_310:\n        /* \"#utility.yul\":8555:8592   */\n    tag_309:\n        /* \"#utility.yul\":8405:8599   */\n      swap3\n      swap2\n      pop\n      pop\n      jump\t// out\n        /* \"#utility.yul\":8605:8775   */\n    tag_215:\n        /* \"#utility.yul\":8745:8767   */\n      0x4f6e6c79205061726b2063616e20696e73757265000000000000000000000000\n        /* \"#utility.yul\":8741:8742   */\n      0x00\n        /* \"#utility.yul\":8733:8739   */\n      dup3\n        /* \"#utility.yul\":8729:8743   */\n      add\n        /* \"#utility.yul\":8722:8768   */\n      mstore\n        /* \"#utility.yul\":8605:8775   */\n      pop\n      jump\t// out\n        /* \"#utility.yul\":8781:9147   */\n    tag_216:\n        /* \"#utility.yul\":8923:8926   */\n      0x00\n        /* \"#utility.yul\":8944:9011   */\n      tag_313\n        /* \"#utility.yul\":9008:9010   */\n      0x14\n        /* \"#utility.yul\":9003:9006   */\n      dup4\n        /* \"#utility.yul\":8944:9011   */\n      tag_211\n      jump\t// in\n    tag_313:\n        /* \"#utility.yul\":8937:9011   */\n      swap2\n      pop\n        /* \"#utility.yul\":9020:9113   */\n      tag_314\n        /* \"#utility.yul\":9109:9112   */\n      dup3\n        /* \"#utility.yul\":9020:9113   */\n      tag_215\n      jump\t// in\n    tag_314:\n        /* \"#utility.yul\":9138:9140   */\n      0x20\n        /* \"#utility.yul\":9133:9136   */\n      dup3\n        /* \"#utility.yul\":9129:9141   */\n      add\n        /* \"#utility.yul\":9122:9141   */\n      swap1\n      pop\n        /* \"#utility.yul\":8781:9147   */\n      swap2\n      swap1\n      pop\n      jump\t// out\n        /* \"#utility.yul\":9153:9572   */\n    tag_68:\n        /* \"#utility.yul\":9319:9323   */\n      0x00\n        /* \"#utility.yul\":9357:9359   */\n      0x20\n        /* \"#utility.yul\":9346:9355   */\n      dup3\n        /* \"#utility.yul\":9342:9360   */\n      add\n        /* \"#utility.yul\":9334:9360   */\n      swap1\n      pop\n        /* \"#utility.yul\":9406:9415   */\n      dup2\n        /* \"#utility.yul\":9400:9404   */\n      dup2\n        /* \"#utility.yul\":9396:9416   */\n      sub\n        /* \"#utility.yul\":9392:9393   */\n      0x00\n        /* \"#utility.yul\":9381:9390   */\n      dup4\n        /* \"#utility.yul\":9377:9394   */\n      add\n        /* \"#utility.yul\":9370:9417   */\n      mstore\n        /* \"#utility.yul\":9434:9565   */\n      tag_316\n        /* \"#utility.yul\":9560:9564   */\n      dup2\n        /* \"#utility.yul\":9434:9565   */\n      tag_216\n      jump\t// in\n    tag_316:\n        /* \"#utility.yul\":9426:9565   */\n      swap1\n      pop\n        /* \"#utility.yul\":9153:9572   */\n      swap2\n      swap1\n      pop\n      jump\t// out\n        /* \"#utility.yul\":9578:9811   */\n    tag_81:\n        /* \"#utility.yul\":9617:9620   */\n      0x00\n        /* \"#utility.yul\":9640:9664   */\n      tag_318\n        /* \"#utility.yul\":9658:9663   */\n      dup3\n        /* \"#utility.yul\":9640:9664   */\n      tag_191\n      jump\t// in\n    tag_318:\n        /* \"#utility.yul\":9631:9664   */\n      swap2\n      pop\n        /* \"#utility.yul\":9686:9752   */\n      0xffffffffffffffffffffffffffffffffffffffffffffffffffffffffffffffff\n        /* \"#utility.yul\":9679:9684   */\n      dup3\n        /* \"#utility.yul\":9676:9753   */\n      sub\n        /* \"#utility.yul\":9673:9776   */\n      tag_319\n      jumpi\n        /* \"#utility.yul\":9756:9774   */\n      tag_320\n      tag_214\n      jump\t// in\n    tag_320:\n        /* \"#utility.yul\":9673:9776   */\n    tag_319:\n        /* \"#utility.yul\":9803:9804   */\n      0x01\n        /* \"#utility.yul\":9796:9801   */\n      dup3\n        /* \"#utility.yul\":9792:9805   */\n      add\n        /* \"#utility.yul\":9785:9805   */\n      swap1\n      pop\n        /* \"#utility.yul\":9578:9811   */\n      swap2\n      swap1\n      pop\n      jump\t// out\n        /* \"#utility.yul\":9817:10227   */\n    tag_95:\n        /* \"#utility.yul\":9857:9864   */\n      0x00\n        /* \"#utility.yul\":9880:9900   */\n      tag_322\n        /* \"#utility.yul\":9898:9899   */\n      dup3\n        /* \"#utility.yul\":9880:9900   */\n      tag_191\n      jump\t// in\n    tag_322:\n        /* \"#utility.yul\":9875:9900   */\n      swap2\n      pop\n        /* \"#utility.yul\":9914:9934   */\n      tag_323\n        /* \"#utility.yul\":9932:9933   */\n      dup4\n        /* \"#utility.yul\":9914:9934   */\n      tag_191\n      jump\t// in\n    tag_323:\n        /* \"#utility.yul\":9909:9934   */\n      swap3\n      pop\n        /* \"#utility.yul\":9969:9970   */\n      dup3\n        /* \"#utility.yul\":9966:9967   */\n      dup3\n        /* \"#utility.yul\":9962:9971   */\n      mul\n        /* \"#utility.yul\":9991:10021   */\n      tag_324\n        /* \"#utility.yul\":10009:10020   */\n      dup2\n        /* \"#utility.yul\":9991:10021   */\n      tag_191\n      jump\t// in\n    tag_324:\n        /* \"#utility.yul\":9980:10021   */\n      swap2\n      pop\n        /* \"#utility.yul\":10170:10171   */\n      dup3\n        /* \"#utility.yul\":10161:10168   */\n      dup3\n        /* \"#utility.yul\":10157:10172   */\n      div\n        /* \"#utility.yul\":10154:10155   */\n      dup5\n        /* \"#utility.yul\":10151:10173   */\n      eq\n        /* \"#utility.yul\":10131:10132   */\n      dup4\n        /* \"#utility.yul\":10124:10133   */\n      iszero\n        /* \"#utility.yul\":10104:10187   */\n      or\n        /* \"#utility.yul\":10081:10220   */\n      tag_325\n      jumpi\n        /* \"#utility.yul\":10200:10218   */\n      tag_326\n      tag_214\n      jump\t// in\n    tag_326:\n        /* \"#utility.yul\":10081:10220   */\n    tag_325:\n        /* \"#utility.yul\":9865:10227   */\n      pop\n        /* \"#utility.yul\":9817:10227   */\n      swap3\n      swap2\n      pop\n      pop\n      jump\t// out\n        /* \"#utility.yul\":10233:10413   */\n    tag_217:\n        /* \"#utility.yul\":10281:10358   */\n      0x4e487b7100000000000000000000000000000000000000000000000000000000\n        /* \"#utility.yul\":10278:10279   */\n      0x00\n        /* \"#utility.yul\":10271:10359   */\n      mstore\n        /* \"#utility.yul\":10378:10382   */\n      0x12\n        /* \"#utility.yul\":10375:10376   */\n      0x04\n        /* \"#utility.yul\":10368:10383   */\n      mstore\n        /* \"#utility.yul\":10402:10406   */\n      0x24\n        /* \"#utility.yul\":10399:10400   */\n      0x00\n        /* \"#utility.yul\":10392:10407   */\n      revert\n        /* \"#utility.yul\":10419:10604   */\n    tag_97:\n        /* \"#utility.yul\":10459:10460   */\n      0x00\n        /* \"#utility.yul\":10476:10496   */\n      tag_329\n        /* \"#utility.yul\":10494:10495   */\n      dup3\n        /* \"#utility.yul\":10476:10496   */\n      tag_191\n      jump\t// in\n    tag_329:\n        /* \"#utility.yul\":10471:10496   */\n      swap2\n      pop\n        /* \"#utility.yul\":10510:10530   */\n      tag_330\n        /* \"#utility.yul\":10528:10529   */\n      dup4\n        /* \"#utility.yul\":10510:10530   */\n      tag_191\n      jump\t// in\n    tag_330:\n        /* \"#utility.yul\":10505:10530   */\n      swap3\n      pop\n        /* \"#utility.yul\":10549:10550   */\n      dup3\n        /* \"#utility.yul\":10539:10574   */\n      tag_331\n      jumpi\n        /* \"#utility.yul\":10554:10572   */\n      tag_332\n      tag_217\n      jump\t// in\n    tag_332:\n        /* \"#utility.yul\":10539:10574   */\n    tag_331:\n        /* \"#utility.yul\":10596:10597   */\n      dup3\n        /* \"#utility.yul\":10593:10594   */\n      dup3\n        /* \"#utility.yul\":10589:10598   */\n      div\n        /* \"#utility.yul\":10584:10598   */\n      swap1\n      pop\n        /* \"#utility.yul\":10419:10604   */\n      swap3\n      swap2\n      pop\n      pop\n      jump\t// out\n        /* \"#utility.yul\":10610:10801   */\n    tag_99:\n        /* \"#utility.yul\":10650:10653   */\n      0x00\n        /* \"#utility.yul\":10669:10689   */\n      tag_334\n        /* \"#utility.yul\":10687:10688   */\n      dup3\n        /* \"#utility.yul\":10669:10689   */\n      tag_191\n      jump\t// in\n    tag_334:\n        /* \"#utility.yul\":10664:10689   */\n      swap2\n      pop\n        /* \"#utility.yul\":10703:10723   */\n      tag_335\n        /* \"#utility.yul\":10721:10722   */\n      dup4\n        /* \"#utility.yul\":10703:10723   */\n      tag_191\n      jump\t// in\n    tag_335:\n        /* \"#utility.yul\":10698:10723   */\n      swap3\n      pop\n        /* \"#utility.yul\":10746:10747   */\n      dup3\n        /* \"#utility.yul\":10743:10744   */\n      dup3\n        /* \"#utility.yul\":10739:10748   */\n      add\n        /* \"#utility.yul\":10732:10748   */\n      swap1\n      pop\n        /* \"#utility.yul\":10767:10770   */\n      dup1\n        /* \"#utility.yul\":10764:10765   */\n      dup3\n        /* \"#utility.yul\":10761:10771   */\n      gt\n        /* \"#utility.yul\":10758:10794   */\n      iszero\n      tag_336\n      jumpi\n        /* \"#utility.yul\":10774:10792   */\n      tag_337\n      tag_214\n      jump\t// in\n    tag_337:\n        /* \"#utility.yul\":10758:10794   */\n    tag_336:\n        /* \"#utility.yul\":10610:10801   */\n      swap3\n      swap2\n      pop\n      pop\n      jump\t// out\n        /* \"#utility.yul\":10807:10886   */\n    tag_218:\n        /* \"#utility.yul\":10846:10853   */\n      0x00\n        /* \"#utility.yul\":10875:10880   */\n      dup2\n        /* \"#utility.yul\":10864:10880   */\n      swap1\n      pop\n        /* \"#utility.yul\":10807:10886   */\n      swap2\n      swap1\n      pop\n      jump\t// out\n        /* \"#utility.yul\":10892:11049   */\n    tag_219:\n        /* \"#utility.yul\":10997:11042   */\n      tag_340\n        /* \"#utility.yul\":11017:11041   */\n      tag_341\n        /* \"#utility.yul\":11035:11040   */\n      dup3\n        /* \"#utility.yul\":11017:11041   */\n      tag_191\n      jump\t// in\n    tag_341:\n        /* \"#utility.yul\":10997:11042   */\n      tag_218\n      jump\t// in\n    tag_340:\n        /* \"#utility.yul\":10992:10995   */\n      dup3\n        /* \"#utility.yul\":10985:11043   */\n      mstore\n        /* \"#utility.yul\":10892:11049   */\n      pop\n      pop\n      jump\t// out\n        /* \"#utility.yul\":11055:11452   */\n    tag_112:\n        /* \"#utility.yul\":11195:11198   */\n      0x00\n        /* \"#utility.yul\":11210:11285   */\n      tag_343\n        /* \"#utility.yul\":11281:11284   */\n      dup3\n        /* \"#utility.yul\":11272:11278   */\n      dup6\n        /* \"#utility.yul\":11210:11285   */\n      tag_219\n      jump\t// in\n    tag_343:\n        /* \"#utility.yul\":11310:11312   */\n      0x20\n        /* \"#utility.yul\":11305:11308   */\n      dup3\n        /* \"#utility.yul\":11301:11313   */\n      add\n        /* \"#utility.yul\":11294:11313   */\n      swap2\n      pop\n        /* \"#utility.yul\":11323:11398   */\n      tag_344\n        /* \"#utility.yul\":11394:11397   */\n      dup3\n        /* \"#utility.yul\":11385:11391   */\n      dup5\n        /* \"#utility.yul\":11323:11398   */\n      tag_219\n      jump\t// in\n    tag_344:\n        /* \"#utility.yul\":11423:11425   */\n      0x20\n        /* \"#utility.yul\":11418:11421   */\n      dup3\n        /* \"#utility.yul\":11414:11426   */\n      add\n        /* \"#utility.yul\":11407:11426   */\n      swap2\n      pop\n        /* \"#utility.yul\":11443:11446   */\n      dup2\n        /* \"#utility.yul\":11436:11446   */\n      swap1\n      pop\n        /* \"#utility.yul\":11055:11452   */\n      swap4\n      swap3\n      pop\n      pop\n      pop\n      jump\t// out\n        /* \"#utility.yul\":11458:11634   */\n    tag_114:\n        /* \"#utility.yul\":11490:11491   */\n      0x00\n        /* \"#utility.yul\":11507:11527   */\n      tag_346\n        /* \"#utility.yul\":11525:11526   */\n      dup3\n        /* \"#utility.yul\":11507:11527   */\n      tag_191\n      jump\t// in\n    tag_346:\n        /* \"#utility.yul\":11502:11527   */\n      swap2\n      pop\n        /* \"#utility.yul\":11541:11561   */\n      tag_347\n        /* \"#utility.yul\":11559:11560   */\n      dup4\n        /* \"#utility.yul\":11541:11561   */\n      tag_191\n      jump\t// in\n    tag_347:\n        /* \"#utility.yul\":11536:11561   */\n      swap3\n      pop\n        /* \"#utility.yul\":11580:11581   */\n      dup3\n        /* \"#utility.yul\":11570:11605   */\n      tag_348\n      jumpi\n        /* \"#utility.yul\":11585:11603   */\n      tag_349\n      tag_217\n      jump\t// in\n    tag_349:\n        /* \"#utility.yul\":11570:11605   */\n    tag_348:\n        /* \"#utility.yul\":11626:11627   */\n      dup3\n        /* \"#utility.yul\":11623:11624   */\n      dup3\n        /* \"#utility.yul\":11619:11628   */\n      mod\n        /* \"#utility.yul\":11614:11628   */\n      swap1\n      pop\n        /* \"#utility.yul\":11458:11634   */\n      swap3\n      swap2\n      pop\n      pop\n      jump\t// out\n        /* \"#utility.yul\":11640:11805   */\n    tag_220:\n        /* \"#utility.yul\":11780:11797   */\n      0x556e6b6e6f776e20737065636965730000000000000000000000000000000000\n        /* \"#utility.yul\":11776:11777   */\n      0x00\n        /* \"#utility.yul\":11768:11774   */\n      dup3\n        /* \"#utility.yul\":11764:11778   */\n      add\n        /* \"#utility.yul\":11757:11798   */\n      mstore\n        /* \"#utility.yul\":11640:11805   */\n      pop\n      jump\t// out\n        /* \"#utility.yul\":11811:12177   */\n    tag_221:\n        /* \"#utility.yul\":11953:11956   */\n      0x00\n        /* \"#utility.yul\":11974:12041   */\n      tag_352\n        /* \"#utility.yul\":12038:12040   */\n      0x0f\n        /* \"#utility.yul\":12033:12036   */\n      dup4\n        /* \"#utility.yul\":11974:12041   */\n      tag_211\n      jump\t// in\n    tag_352:\n        /* \"#utility.yul\":11967:12041   */\n      swap2\n      pop\n        /* \"#utility.yul\":12050:12143   */\n      tag_353\n        /* \"#utility.yul\":12139:12142   */\n      dup3\n        /* \"#utility.yul\":12050:12143   */\n      tag_220\n      jump\t// in\n    tag_353:\n        /* \"#utility.yul\":12168:12170   */\n      0x20\n        /* \"#utility.yul\":12163:12166   */\n      dup3\n        /* \"#utility.yul\":12159:12171   */\n      add\n        /* \"#utility.yul\":12152:12171   */\n      swap1\n      pop\n        /* \"#utility.yul\":11811:12177   */\n      swap2\n      swap1\n      pop\n      jump\t// out\n        /* \"#utility.yul\":12183:12602   */\n    tag_185:\n        /* \"#utility.yul\":12349:12353   */\n      0x00\n        /* \"#utility.yul\":12387:12389   */\n      0x20\n        /* \"#utility.yul\":12376:12385   */\n      dup3\n        /* \"#utility.yul\":12372:12390   */\n      add\n        /* \"#utility.yul\":12364:12390   */\n      swap1\n      pop\n        /* \"#utility.yul\":12436:12445   */\n      dup2\n        /* \"#utility.yul\":12430:12434   */\n      dup2\n        /* \"#utility.yul\":12426:12446   */\n      sub\n        /* \"#utility.yul\":12422:12423   */\n      0x00\n        /* \"#utility.yul\":12411:12420   */\n      dup4\n        /* \"#utility.yul\":12407:12424   */\n      add\n        /* \"#utility.yul\":12400:12447   */\n      mstore\n        /* \"#utility.yul\":12464:12595   */\n      tag_355\n        /* \"#utility.yul\":12590:12594   */\n      dup2\n        /* \"#utility.yul\":12464:12595   */\n      tag_221\n      jump\t// in\n    tag_355:\n        /* \"#utility.yul\":12456:12595   */\n      swap1\n      pop\n        /* \"#utility.yul\":12183:12602   */\n      swap2\n      swap1\n      pop\n      jump\t// out\n    stop\n    data_1ffc5c99f8ff866cb3cb9bd46d45453badb8f26649052a31a9be49b9b43149da 68747470733a2f2f676174657761792e70696e6174612e636c6f75642f697066732f6261667962656961336c65346173746b6e683270346d626b64357734326a353232746e73653477786b3777356d3777696d6f716470366f757a7079\n    data_3bbf1c81af77207dbf9db8f891697113273de930322fc10149aebcb2d416dad6 68747470733a2f2f676174657761792e70696e6174612e636c6f75642f697066732f626166796265696576377075637a377968377836686169646d7068703569656f6276636664636c6e6c776a71613269767334793335377076776d61\n    data_86e92b1a76e2f297d69c89af4232d1b3e647fd322843457f38b762c99d8ee708 68747470733a2f2f676174657761792e70696e6174612e636c6f75642f697066732f62616679626569676f686f746f6b366b336f6e76746a797970666e626e7a6263736f327163697862777a34776836347670326e336c71376e6b7361\n\n    auxdata: 0xa2646970667358221220442c5d06884b0afdcdf85d871fea4f23ad051ae516b23d2eb4ac62ff9b13b6dd64736f6c634300081e0033\n}\n",
				"bytecode": {
					"linkReferences": {},
					"object": "608060405234801561000f575f5ffd5b5060405161161e38038061161e833981810160405281019061003191906100d5565b8060025f6101000a81548173ffffffffffffffffffffffffffffffffffffffff021916908373ffffffffffffffffffffffffffffffffffffffff16021790555050610100565b5f5ffd5b5f73ffffffffffffffffffffffffffffffffffffffff82169050919050565b5f6100a48261007b565b9050919050565b6100b48161009a565b81146100be575f5ffd5b50565b5f815190506100cf816100ab565b92915050565b5f602082840312156100ea576100e9610077565b5b5f6100f7848285016100c1565b91505092915050565b6115118061010d5f395ff3fe608060405234801561000f575f5ffd5b5060043610610091575f3560e01c806361b8ce8c1161006457806361b8ce8c1461012d5780636ec88bbd1461014b57806372680a771461017b578063a2b7ce6f14610199578063ec1c5955146101b557610091565b806316cb4a05146100955780631942d199146100c557806349b1a0bf146100e15780634d2d7881146100fd575b5f5ffd5b6100af60048036038101906100aa9190610d8d565b6101e9565b6040516100bc9190610dd2565b60405180910390f35b6100df60048036038101906100da9190610deb565b610206565b005b6100fb60048036038101906100f69190610d8d565b6102f3565b005b61011760048036038101906101129190610e4c565b6103ae565b6040516101249190610e8f565b60405180910390f35b610135610510565b6040516101429190610eb7565b60405180910390f35b61016560048036038101906101609190610d8d565b610516565b6040516101729190610fb8565b60405180910390f35b6101836105aa565b6040516101909190611010565b60405180910390f35b6101b360048036038101906101ae9190610d8d565b6105cf565b005b6101cf60048036038101906101ca9190610d8d565b6106cb565b6040516101e0959493929190611038565b60405180910390f35b6003602052805f5260405f205f915054906101000a900460ff1681565b60025f9054906101000a900473ffffffffffffffffffffffffffffffffffffffff1673ffffffffffffffffffffffffffffffffffffffff163373ffffffffffffffffffffffffffffffffffffffff1614610295576040517f08c379a000000000000000000000000000000000000000000000000000000000815260040161028c906110e3565b60405180910390fd5b61029e826105cf565b5f5f5f8481526020019081526020015f2090506102ba83610708565b818160010154106102e45781816001015f8282546102d8919061112e565b925050819055506102ee565b5f81600101819055505b505050565b60025f9054906101000a900473ffffffffffffffffffffffffffffffffffffffff1673ffffffffffffffffffffffffffffffffffffffff163373ffffffffffffffffffffffffffffffffffffffff1614610382576040517f08c379a0000000000000000000000000000000000000000000000000000000008152600401610379906111ab565b60405180910390fd5b600160035f8381526020019081526020015f205f6101000a81548160ff02191690831515021790555050565b5f60025f9054906101000a900473ffffffffffffffffffffffffffffffffffffffff1673ffffffffffffffffffffffffffffffffffffffff163373ffffffffffffffffffffffffffffffffffffffff161461043e576040517f08c379a0000000000000000000000000000000000000000000000000000000008152600401610435906110e3565b60405180910390fd5b5f610448836107e6565b90506040518060a001604052805f81526020015f8152602001825f0151815260200184600a81111561047d5761047c610edf565b5b8152602001428152505f5f60015481526020019081526020015f205f820151815f015560208201518160010155604082015181600201556060820151816003015f6101000a81548160ff0219169083600a8111156104de576104dd610edf565b5b02179055506080820151816004015590505060015f815480929190610502906111c9565b91905055505f915050919050565b60015481565b61051e610cef565b610527826105cf565b5f5f8381526020019081526020015f206040518060a00160405290815f82015481526020016001820154815260200160028201548152602001600382015f9054906101000a900460ff16600a81111561058357610582610edf565b5b600a81111561059557610594610edf565b5b81526020016004820154815250509050919050565b60025f9054906101000a900473ffffffffffffffffffffffffffffffffffffffff1681565b5f5f5f8381526020019081526020015f2090505f8160040154426105f3919061112e565b90505f8111156106c6575f610e1061061a846003015f9054906101000a900460ff166107e6565b60400151836106299190611210565b610633919061127e565b905080836001015f82825461064891906112ae565b925050819055505f610669846003015f9054906101000a900460ff166107e6565b6020015190508084600101541115610685578084600101819055505b5f6201518084610695919061127e565b90505f8111156106b95780855f015f8282546106b191906112ae565b925050819055505b4285600401819055505050505b505050565b5f602052805f5260405f205f91509050805f015490806001015490806002015490806003015f9054906101000a900460ff16908060040154905085565b610710610d2b565b5f5f5f8481526020019081526020015f20905061073c816003015f9054906101000a900460ff166107e6565b915060035f8481526020019081526020015f205f9054906101000a900460ff166107e1575f61077a826003015f9054906101000a900460ff166107e6565b6060015190505f60644286604051602001610796929190611301565b604051602081830303815290604052805190602001205f1c6107b8919061132c565b9050818110156107de576019836002015f8282546107d6919061112e565b925050819055505b50505b505050565b6107ee610d2b565b5f600a81111561080157610800610edf565b5b82600a81111561081457610813610edf565b5b03610863576040518060a0016040528060c881526020016096815260200160038152602001600181526020016040518060800160405280605d81526020016113c5605d91398152509050610cea565b6001600a81111561087757610876610edf565b5b82600a81111561088a57610889610edf565b5b036108d9576040518060a0016040528060dc815260200160c8815260200160028152602001600581526020016040518060800160405280605d815260200161147f605d91398152509050610cea565b6002600a8111156108ed576108ec610edf565b5b82600a811115610900576108ff610edf565b5b0361094f576040518060a00160405280605081526020016050815260200160038152602001600681526020016040518060800160405280605d8152602001611422605d91398152509050610cea565b6003600a81111561096357610962610edf565b5b82600a81111561097657610975610edf565b5b036109bc576040518060a0016040528061012c815260200161012c8152602001600181526020015f815260200160405180602001604052805f8152508152509050610cea565b6004600a8111156109d0576109cf610edf565b5b82600a8111156109e3576109e2610edf565b5b03610a28576040518060a0016040528060b48152602001605a8152602001600281526020016004815260200160405180602001604052805f8152508152509050610cea565b6005600a811115610a3c57610a3b610edf565b5b82600a811115610a4f57610a4e610edf565b5b03610a94576040518060a001604052806050815260200160468152602001600281526020016008815260200160405180602001604052805f8152508152509050610cea565b6006600a811115610aa857610aa7610edf565b5b82600a811115610abb57610aba610edf565b5b03610b00576040518060a0016040528060328152602001603c8152602001600481526020016005815260200160405180602001604052805f8152508152509050610cea565b6007600a811115610b1457610b13610edf565b5b82600a811115610b2757610b26610edf565b5b03610b6c576040518060a001604052806037815260200160288152602001600381526020016004815260200160405180602001604052805f8152508152509050610cea565b6008600a811115610b8057610b7f610edf565b5b82600a811115610b9357610b92610edf565b5b03610bd8576040518060a00160405280604e815260200160418152602001600281526020016004815260200160405180602001604052805f8152508152509050610cea565b6009600a811115610bec57610beb610edf565b5b82600a811115610bff57610bfe610edf565b5b03610c44576040518060a001604052806096815260200160648152602001600481526020016003815260200160405180602001604052805f8152508152509050610cea565b600a80811115610c5757610c56610edf565b5b82600a811115610c6a57610c69610edf565b5b03610caf576040518060a001604052806023815260200160428152602001600481526020016005815260200160405180602001604052805f8152508152509050610cea565b6040517f08c379a0000000000000000000000000000000000000000000000000000000008152600401610ce1906113a6565b60405180910390fd5b919050565b6040518060a001604052805f81526020015f81526020015f81526020015f600a811115610d1f57610d1e610edf565b5b81526020015f81525090565b6040518060a001604052805f81526020015f81526020015f81526020015f8152602001606081525090565b5f5ffd5b5f819050919050565b610d6c81610d5a565b8114610d76575f5ffd5b50565b5f81359050610d8781610d63565b92915050565b5f60208284031215610da257610da1610d56565b5b5f610daf84828501610d79565b91505092915050565b5f8115159050919050565b610dcc81610db8565b82525050565b5f602082019050610de55f830184610dc3565b92915050565b5f5f60408385031215610e0157610e00610d56565b5b5f610e0e85828601610d79565b9250506020610e1f85828601610d79565b9150509250929050565b600b8110610e35575f5ffd5b50565b5f81359050610e4681610e29565b92915050565b5f60208284031215610e6157610e60610d56565b5b5f610e6e84828501610e38565b91505092915050565b5f819050919050565b610e8981610e77565b82525050565b5f602082019050610ea25f830184610e80565b92915050565b610eb181610d5a565b82525050565b5f602082019050610eca5f830184610ea8565b92915050565b610ed981610d5a565b82525050565b7f4e487b71000000000000000000000000000000000000000000000000000000005f52602160045260245ffd5b600b8110610f1d57610f1c610edf565b5b50565b5f819050610f2d82610f0c565b919050565b5f610f3c82610f20565b9050919050565b610f4c81610f32565b82525050565b60a082015f820151610f665f850182610ed0565b506020820151610f796020850182610ed0565b506040820151610f8c6040850182610ed0565b506060820151610f9f6060850182610f43565b506080820151610fb26080850182610ed0565b50505050565b5f60a082019050610fcb5f830184610f52565b92915050565b5f73ffffffffffffffffffffffffffffffffffffffff82169050919050565b5f610ffa82610fd1565b9050919050565b61100a81610ff0565b82525050565b5f6020820190506110235f830184611001565b92915050565b61103281610f32565b82525050565b5f60a08201905061104b5f830188610ea8565b6110586020830187610ea8565b6110656040830186610ea8565b6110726060830185611029565b61107f6080830184610ea8565b9695505050505050565b5f82825260208201905092915050565b7f4f6e6c79205061726b2063616e2063616c6c20746869730000000000000000005f82015250565b5f6110cd601783611089565b91506110d882611099565b602082019050919050565b5f6020820190508181035f8301526110fa816110c1565b9050919050565b7f4e487b71000000000000000000000000000000000000000000000000000000005f52601160045260245ffd5b5f61113882610d5a565b915061114383610d5a565b925082820390508181111561115b5761115a611101565b5b92915050565b7f4f6e6c79205061726b2063616e20696e737572650000000000000000000000005f82015250565b5f611195601483611089565b91506111a082611161565b602082019050919050565b5f6020820190508181035f8301526111c281611189565b9050919050565b5f6111d382610d5a565b91507fffffffffffffffffffffffffffffffffffffffffffffffffffffffffffffffff820361120557611204611101565b5b600182019050919050565b5f61121a82610d5a565b915061122583610d5a565b925082820261123381610d5a565b9150828204841483151761124a57611249611101565b5b5092915050565b7f4e487b71000000000000000000000000000000000000000000000000000000005f52601260045260245ffd5b5f61128882610d5a565b915061129383610d5a565b9250826112a3576112a2611251565b5b828204905092915050565b5f6112b882610d5a565b91506112c383610d5a565b92508282019050808211156112db576112da611101565b5b92915050565b5f819050919050565b6112fb6112f682610d5a565b6112e1565b82525050565b5f61130c82856112ea565b60208201915061131c82846112ea565b6020820191508190509392505050565b5f61133682610d5a565b915061134183610d5a565b92508261135157611350611251565b5b828206905092915050565b7f556e6b6e6f776e207370656369657300000000000000000000000000000000005f82015250565b5f611390600f83611089565b915061139b8261135c565b602082019050919050565b5f6020820190508181035f8301526113bd81611384565b905091905056fe68747470733a2f2f676174657761792e70696e6174612e636c6f75642f697066732f6261667962656961336c65346173746b6e683270346d626b64357734326a353232746e73653477786b3777356d3777696d6f716470366f757a707968747470733a2f2f676174657761792e70696e6174612e636c6f75642f697066732f626166796265696576377075637a377968377836686169646d7068703569656f6276636664636c6e6c776a71613269767334793335377076776d6168747470733a2f2f676174657761792e70696e6174612e636c6f75642f697066732f62616679626569676f686f746f6b366b336f6e76746a797970666e626e7a6263736f327163697862777a34776836347670326e336c71376e6b7361a2646970667358221220442c5d06884b0afdcdf85d871fea4f23ad051ae516b23d2eb4ac62ff9b13b6dd64736f6c634300081e0033",
					"opcodes": "PUSH1 0x80 PUSH1 0x40 MSTORE CALLVALUE DUP1 ISZERO PUSH2 0xF JUMPI PUSH0 PUSH0 REVERT JUMPDEST POP PUSH1 0x40 MLOAD PUSH2 0x161E CODESIZE SUB DUP1 PUSH2 0x161E DUP4 CODECOPY DUP2 DUP2 ADD PUSH1 0x40 MSTORE DUP2 ADD SWAP1 PUSH2 0x31 SWAP2 SWAP1 PUSH2 0xD5 JUMP JUMPDEST DUP1 PUSH1 0x2 PUSH0 PUSH2 0x100 EXP DUP2 SLOAD DUP2 PUSH20 0xFFFFFFFFFFFFFFFFFFFFFFFFFFFFFFFFFFFFFFFF MUL NOT AND SWAP1 DUP4 PUSH20 0xFFFFFFFFFFFFFFFFFFFFFFFFFFFFFFFFFFFFFFFF AND MUL OR SWAP1 SSTORE POP POP PUSH2 0x100 JUMP JUMPDEST PUSH0 PUSH0 REVERT JUMPDEST PUSH0 PUSH20 0xFFFFFFFFFFFFFFFFFFFFFFFFFFFFFFFFFFFFFFFF DUP3 AND SWAP1 POP SWAP2 SWAP1 POP JUMP JUMPDEST PUSH0 PUSH2 0xA4 DUP3 PUSH2 0x7B JUMP JUMPDEST SWAP1 POP SWAP2 SWAP1 POP JUMP JUMPDEST PUSH2 0xB4 DUP2 PUSH2 0x9A JUMP JUMPDEST DUP2 EQ PUSH2 0xBE JUMPI PUSH0 PUSH0 REVERT JUMPDEST POP JUMP JUMPDEST PUSH0 DUP2 MLOAD SWAP1 POP PUSH2 0xCF DUP2 PUSH2 0xAB JUMP JUMPDEST SWAP3 SWAP2 POP POP JUMP JUMPDEST PUSH0 PUSH1 0x20 DUP3 DUP5 SUB SLT ISZERO PUSH2 0xEA JUMPI PUSH2 0xE9 PUSH2 0x77 JUMP JUMPDEST JUMPDEST PUSH0 PUSH2 0xF7 DUP5 DUP3 DUP6 ADD PUSH2 0xC1 JUMP JUMPDEST SWAP2 POP POP SWAP3 SWAP2 POP POP JUMP JUMPDEST PUSH2 0x1511 DUP1 PUSH2 0x10D PUSH0 CODECOPY PUSH0 RETURN INVALID PUSH1 0x80 PUSH1 0x40 MSTORE CALLVALUE DUP1 ISZERO PUSH2 0xF JUMPI PUSH0 PUSH0 REVERT JUMPDEST POP PUSH1 0x4 CALLDATASIZE LT PUSH2 0x91 JUMPI PUSH0 CALLDATALOAD PUSH1 0xE0 SHR DUP1 PUSH4 0x61B8CE8C GT PUSH2 0x64 JUMPI DUP1 PUSH4 0x61B8CE8C EQ PUSH2 0x12D JUMPI DUP1 PUSH4 0x6EC88BBD EQ PUSH2 0x14B JUMPI DUP1 PUSH4 0x72680A77 EQ PUSH2 0x17B JUMPI DUP1 PUSH4 0xA2B7CE6F EQ PUSH2 0x199 JUMPI DUP1 PUSH4 0xEC1C5955 EQ PUSH2 0x1B5 JUMPI PUSH2 0x91 JUMP JUMPDEST DUP1 PUSH4 0x16CB4A05 EQ PUSH2 0x95 JUMPI DUP1 PUSH4 0x1942D199 EQ PUSH2 0xC5 JUMPI DUP1 PUSH4 0x49B1A0BF EQ PUSH2 0xE1 JUMPI DUP1 PUSH4 0x4D2D7881 EQ PUSH2 0xFD JUMPI JUMPDEST PUSH0 PUSH0 REVERT JUMPDEST PUSH2 0xAF PUSH1 0x4 DUP1 CALLDATASIZE SUB DUP2 ADD SWAP1 PUSH2 0xAA SWAP2 SWAP1 PUSH2 0xD8D JUMP JUMPDEST PUSH2 0x1E9 JUMP JUMPDEST PUSH1 0x40 MLOAD PUSH2 0xBC SWAP2 SWAP1 PUSH2 0xDD2 JUMP JUMPDEST PUSH1 0x40 MLOAD DUP1 SWAP2 SUB SWAP1 RETURN JUMPDEST PUSH2 0xDF PUSH1 0x4 DUP1 CALLDATASIZE SUB DUP2 ADD SWAP1 PUSH2 0xDA SWAP2 SWAP1 PUSH2 0xDEB JUMP JUMPDEST PUSH2 0x206 JUMP JUMPDEST STOP JUMPDEST PUSH2 0xFB PUSH1 0x4 DUP1 CALLDATASIZE SUB DUP2 ADD SWAP1 PUSH2 0xF6 SWAP2 SWAP1 PUSH2 0xD8D JUMP JUMPDEST PUSH2 0x2F3 JUMP JUMPDEST STOP JUMPDEST PUSH2 0x117 PUSH1 0x4 DUP1 CALLDATASIZE SUB DUP2 ADD SWAP1 PUSH2 0x112 SWAP2 SWAP1 PUSH2 0xE4C JUMP JUMPDEST PUSH2 0x3AE JUMP JUMPDEST PUSH1 0x40 MLOAD PUSH2 0x124 SWAP2 SWAP1 PUSH2 0xE8F JUMP JUMPDEST PUSH1 0x40 MLOAD DUP1 SWAP2 SUB SWAP1 RETURN JUMPDEST PUSH2 0x135 PUSH2 0x510 JUMP JUMPDEST PUSH1 0x40 MLOAD PUSH2 0x142 SWAP2 SWAP1 PUSH2 0xEB7 JUMP JUMPDEST PUSH1 0x40 MLOAD DUP1 SWAP2 SUB SWAP1 RETURN JUMPDEST PUSH2 0x165 PUSH1 0x4 DUP1 CALLDATASIZE SUB DUP2 ADD SWAP1 PUSH2 0x160 SWAP2 SWAP1 PUSH2 0xD8D JUMP JUMPDEST PUSH2 0x516 JUMP JUMPDEST PUSH1 0x40 MLOAD PUSH2 0x172 SWAP2 SWAP1 PUSH2 0xFB8 JUMP JUMPDEST PUSH1 0x40 MLOAD DUP1 SWAP2 SUB SWAP1 RETURN JUMPDEST PUSH2 0x183 PUSH2 0x5AA JUMP JUMPDEST PUSH1 0x40 MLOAD PUSH2 0x190 SWAP2 SWAP1 PUSH2 0x1010 JUMP JUMPDEST PUSH1 0x40 MLOAD DUP1 SWAP2 SUB SWAP1 RETURN JUMPDEST PUSH2 0x1B3 PUSH1 0x4 DUP1 CALLDATASIZE SUB DUP2 ADD SWAP1 PUSH2 0x1AE SWAP2 SWAP1 PUSH2 0xD8D JUMP JUMPDEST PUSH2 0x5CF JUMP JUMPDEST STOP JUMPDEST PUSH2 0x1CF PUSH1 0x4 DUP1 CALLDATASIZE SUB DUP2 ADD SWAP1 PUSH2 0x1CA SWAP2 SWAP1 PUSH2 0xD8D JUMP JUMPDEST PUSH2 0x6CB JUMP JUMPDEST PUSH1 0x40 MLOAD PUSH2 0x1E0 SWAP6 SWAP5 SWAP4 SWAP3 SWAP2 SWAP1 PUSH2 0x1038 JUMP JUMPDEST PUSH1 0x40 MLOAD DUP1 SWAP2 SUB SWAP1 RETURN JUMPDEST PUSH1 0x3 PUSH1 0x20 MSTORE DUP1 PUSH0 MSTORE PUSH1 0x40 PUSH0 KECCAK256 PUSH0 SWAP2 POP SLOAD SWAP1 PUSH2 0x100 EXP SWAP1 DIV PUSH1 0xFF AND DUP2 JUMP JUMPDEST PUSH1 0x2 PUSH0 SWAP1 SLOAD SWAP1 PUSH2 0x100 EXP SWAP1 DIV PUSH20 0xFFFFFFFFFFFFFFFFFFFFFFFFFFFFFFFFFFFFFFFF AND PUSH20 0xFFFFFFFFFFFFFFFFFFFFFFFFFFFFFFFFFFFFFFFF AND CALLER PUSH20 0xFFFFFFFFFFFFFFFFFFFFFFFFFFFFFFFFFFFFFFFF AND EQ PUSH2 0x295 JUMPI PUSH1 0x40 MLOAD PUSH32 0x8C379A000000000000000000000000000000000000000000000000000000000 DUP2 MSTORE PUSH1 0x4 ADD PUSH2 0x28C SWAP1 PUSH2 0x10E3 JUMP JUMPDEST PUSH1 0x40 MLOAD DUP1 SWAP2 SUB SWAP1 REVERT JUMPDEST PUSH2 0x29E DUP3 PUSH2 0x5CF JUMP JUMPDEST PUSH0 PUSH0 PUSH0 DUP5 DUP2 MSTORE PUSH1 0x20 ADD SWAP1 DUP2 MSTORE PUSH1 0x20 ADD PUSH0 KECCAK256 SWAP1 POP PUSH2 0x2BA DUP4 PUSH2 0x708 JUMP JUMPDEST DUP2 DUP2 PUSH1 0x1 ADD SLOAD LT PUSH2 0x2E4 JUMPI DUP2 DUP2 PUSH1 0x1 ADD PUSH0 DUP3 DUP3 SLOAD PUSH2 0x2D8 SWAP2 SWAP1 PUSH2 0x112E JUMP JUMPDEST SWAP3 POP POP DUP2 SWAP1 SSTORE POP PUSH2 0x2EE JUMP JUMPDEST PUSH0 DUP2 PUSH1 0x1 ADD DUP2 SWAP1 SSTORE POP JUMPDEST POP POP POP JUMP JUMPDEST PUSH1 0x2 PUSH0 SWAP1 SLOAD SWAP1 PUSH2 0x100 EXP SWAP1 DIV PUSH20 0xFFFFFFFFFFFFFFFFFFFFFFFFFFFFFFFFFFFFFFFF AND PUSH20 0xFFFFFFFFFFFFFFFFFFFFFFFFFFFFFFFFFFFFFFFF AND CALLER PUSH20 0xFFFFFFFFFFFFFFFFFFFFFFFFFFFFFFFFFFFFFFFF AND EQ PUSH2 0x382 JUMPI PUSH1 0x40 MLOAD PUSH32 0x8C379A000000000000000000000000000000000000000000000000000000000 DUP2 MSTORE PUSH1 0x4 ADD PUSH2 0x379 SWAP1 PUSH2 0x11AB JUMP JUMPDEST PUSH1 0x40 MLOAD DUP1 SWAP2 SUB SWAP1 REVERT JUMPDEST PUSH1 0x1 PUSH1 0x3 PUSH0 DUP4 DUP2 MSTORE PUSH1 0x20 ADD SWAP1 DUP2 MSTORE PUSH1 0x20 ADD PUSH0 KECCAK256 PUSH0 PUSH2 0x100 EXP DUP2 SLOAD DUP2 PUSH1 0xFF MUL NOT AND SWAP1 DUP4 ISZERO ISZERO MUL OR SWAP1 SSTORE POP POP JUMP JUMPDEST PUSH0 PUSH1 0x2 PUSH0 SWAP1 SLOAD SWAP1 PUSH2 0x100 EXP SWAP1 DIV PUSH20 0xFFFFFFFFFFFFFFFFFFFFFFFFFFFFFFFFFFFFFFFF AND PUSH20 0xFFFFFFFFFFFFFFFFFFFFFFFFFFFFFFFFFFFFFFFF AND CALLER PUSH20 0xFFFFFFFFFFFFFFFFFFFFFFFFFFFFFFFFFFFFFFFF AND EQ PUSH2 0x43E JUMPI PUSH1 0x40 MLOAD PUSH32 0x8C379A000000000000000000000000000000000000000000000000000000000 DUP2 MSTORE PUSH1 0x4 ADD PUSH2 0x435 SWAP1 PUSH2 0x10E3 JUMP JUMPDEST PUSH1 0x40 MLOAD DUP1 SWAP2 SUB SWAP1 REVERT JUMPDEST PUSH0 PUSH2 0x448 DUP4 PUSH2 0x7E6 JUMP JUMPDEST SWAP1 POP PUSH1 0x40 MLOAD DUP1 PUSH1 0xA0 ADD PUSH1 0x40 MSTORE DUP1 PUSH0 DUP2 MSTORE PUSH1 0x20 ADD PUSH0 DUP2 MSTORE PUSH1 0x20 ADD DUP3 PUSH0 ADD MLOAD DUP2 MSTORE PUSH1 0x20 ADD DUP5 PUSH1 0xA DUP2 GT ISZERO PUSH2 0x47D JUMPI PUSH2 0x47C PUSH2 0xEDF JUMP JUMPDEST JUMPDEST DUP2 MSTORE PUSH1 0x20 ADD TIMESTAMP DUP2 MSTORE POP PUSH0 PUSH0 PUSH1 0x1 SLOAD DUP2 MSTORE PUSH1 0x20 ADD SWAP1 DUP2 MSTORE PUSH1 0x20 ADD PUSH0 KECCAK256 PUSH0 DUP3 ADD MLOAD DUP2 PUSH0 ADD SSTORE PUSH1 0x20 DUP3 ADD MLOAD DUP2 PUSH1 0x1 ADD SSTORE PUSH1 0x40 DUP3 ADD MLOAD DUP2 PUSH1 0x2 ADD SSTORE PUSH1 0x60 DUP3 ADD MLOAD DUP2 PUSH1 0x3 ADD PUSH0 PUSH2 0x100 EXP DUP2 SLOAD DUP2 PUSH1 0xFF MUL NOT AND SWAP1 DUP4 PUSH1 0xA DUP2 GT ISZERO PUSH2 0x4DE JUMPI PUSH2 0x4DD PUSH2 0xEDF JUMP JUMPDEST JUMPDEST MUL OR SWAP1 SSTORE POP PUSH1 0x80 DUP3 ADD MLOAD DUP2 PUSH1 0x4 ADD SSTORE SWAP1 POP POP PUSH1 0x1 PUSH0 DUP2 SLOAD DUP1 SWAP3 SWAP2 SWAP1 PUSH2 0x502 SWAP1 PUSH2 0x11C9 JUMP JUMPDEST SWAP2 SWAP1 POP SSTORE POP PUSH0 SWAP2 POP POP SWAP2 SWAP1 POP JUMP JUMPDEST PUSH1 0x1 SLOAD DUP2 JUMP JUMPDEST PUSH2 0x51E PUSH2 0xCEF JUMP JUMPDEST PUSH2 0x527 DUP3 PUSH2 0x5CF JUMP JUMPDEST PUSH0 PUSH0 DUP4 DUP2 MSTORE PUSH1 0x20 ADD SWAP1 DUP2 MSTORE PUSH1 0x20 ADD PUSH0 KECCAK256 PUSH1 0x40 MLOAD DUP1 PUSH1 0xA0 ADD PUSH1 0x40 MSTORE SWAP1 DUP2 PUSH0 DUP3 ADD SLOAD DUP2 MSTORE PUSH1 0x20 ADD PUSH1 0x1 DUP3 ADD SLOAD DUP2 MSTORE PUSH1 0x20 ADD PUSH1 0x2 DUP3 ADD SLOAD DUP2 MSTORE PUSH1 0x20 ADD PUSH1 0x3 DUP3 ADD PUSH0 SWAP1 SLOAD SWAP1 PUSH2 0x100 EXP SWAP1 DIV PUSH1 0xFF AND PUSH1 0xA DUP2 GT ISZERO PUSH2 0x583 JUMPI PUSH2 0x582 PUSH2 0xEDF JUMP JUMPDEST JUMPDEST PUSH1 0xA DUP2 GT ISZERO PUSH2 0x595 JUMPI PUSH2 0x594 PUSH2 0xEDF JUMP JUMPDEST JUMPDEST DUP2 MSTORE PUSH1 0x20 ADD PUSH1 0x4 DUP3 ADD SLOAD DUP2 MSTORE POP POP SWAP1 POP SWAP2 SWAP1 POP JUMP JUMPDEST PUSH1 0x2 PUSH0 SWAP1 SLOAD SWAP1 PUSH2 0x100 EXP SWAP1 DIV PUSH20 0xFFFFFFFFFFFFFFFFFFFFFFFFFFFFFFFFFFFFFFFF AND DUP2 JUMP JUMPDEST PUSH0 PUSH0 PUSH0 DUP4 DUP2 MSTORE PUSH1 0x20 ADD SWAP1 DUP2 MSTORE PUSH1 0x20 ADD PUSH0 KECCAK256 SWAP1 POP PUSH0 DUP2 PUSH1 0x4 ADD SLOAD TIMESTAMP PUSH2 0x5F3 SWAP2 SWAP1 PUSH2 0x112E JUMP JUMPDEST SWAP1 POP PUSH0 DUP2 GT ISZERO PUSH2 0x6C6 JUMPI PUSH0 PUSH2 0xE10 PUSH2 0x61A DUP5 PUSH1 0x3 ADD PUSH0 SWAP1 SLOAD SWAP1 PUSH2 0x100 EXP SWAP1 DIV PUSH1 0xFF AND PUSH2 0x7E6 JUMP JUMPDEST PUSH1 0x40 ADD MLOAD DUP4 PUSH2 0x629 SWAP2 SWAP1 PUSH2 0x1210 JUMP JUMPDEST PUSH2 0x633 SWAP2 SWAP1 PUSH2 0x127E JUMP JUMPDEST SWAP1 POP DUP1 DUP4 PUSH1 0x1 ADD PUSH0 DUP3 DUP3 SLOAD PUSH2 0x648 SWAP2 SWAP1 PUSH2 0x12AE JUMP JUMPDEST SWAP3 POP POP DUP2 SWAP1 SSTORE POP PUSH0 PUSH2 0x669 DUP5 PUSH1 0x3 ADD PUSH0 SWAP1 SLOAD SWAP1 PUSH2 0x100 EXP SWAP1 DIV PUSH1 0xFF AND PUSH2 0x7E6 JUMP JUMPDEST PUSH1 0x20 ADD MLOAD SWAP1 POP DUP1 DUP5 PUSH1 0x1 ADD SLOAD GT ISZERO PUSH2 0x685 JUMPI DUP1 DUP5 PUSH1 0x1 ADD DUP2 SWAP1 SSTORE POP JUMPDEST PUSH0 PUSH3 0x15180 DUP5 PUSH2 0x695 SWAP2 SWAP1 PUSH2 0x127E JUMP JUMPDEST SWAP1 POP PUSH0 DUP2 GT ISZERO PUSH2 0x6B9 JUMPI DUP1 DUP6 PUSH0 ADD PUSH0 DUP3 DUP3 SLOAD PUSH2 0x6B1 SWAP2 SWAP1 PUSH2 0x12AE JUMP JUMPDEST SWAP3 POP POP DUP2 SWAP1 SSTORE POP JUMPDEST TIMESTAMP DUP6 PUSH1 0x4 ADD DUP2 SWAP1 SSTORE POP POP POP POP JUMPDEST POP POP POP JUMP JUMPDEST PUSH0 PUSH1 0x20 MSTORE DUP1 PUSH0 MSTORE PUSH1 0x40 PUSH0 KECCAK256 PUSH0 SWAP2 POP SWAP1 POP DUP1 PUSH0 ADD SLOAD SWAP1 DUP1 PUSH1 0x1 ADD SLOAD SWAP1 DUP1 PUSH1 0x2 ADD SLOAD SWAP1 DUP1 PUSH1 0x3 ADD PUSH0 SWAP1 SLOAD SWAP1 PUSH2 0x100 EXP SWAP1 DIV PUSH1 0xFF AND SWAP1 DUP1 PUSH1 0x4 ADD SLOAD SWAP1 POP DUP6 JUMP JUMPDEST PUSH2 0x710 PUSH2 0xD2B JUMP JUMPDEST PUSH0 PUSH0 PUSH0 DUP5 DUP2 MSTORE PUSH1 0x20 ADD SWAP1 DUP2 MSTORE PUSH1 0x20 ADD PUSH0 KECCAK256 SWAP1 POP PUSH2 0x73C DUP2 PUSH1 0x3 ADD PUSH0 SWAP1 SLOAD SWAP1 PUSH2 0x100 EXP SWAP1 DIV PUSH1 0xFF AND PUSH2 0x7E6 JUMP JUMPDEST SWAP2 POP PUSH1 0x3 PUSH0 DUP5 DUP2 MSTORE PUSH1 0x20 ADD SWAP1 DUP2 MSTORE PUSH1 0x20 ADD PUSH0 KECCAK256 PUSH0 SWAP1 SLOAD SWAP1 PUSH2 0x100 EXP SWAP1 DIV PUSH1 0xFF AND PUSH2 0x7E1 JUMPI PUSH0 PUSH2 0x77A DUP3 PUSH1 0x3 ADD PUSH0 SWAP1 SLOAD SWAP1 PUSH2 0x100 EXP SWAP1 DIV PUSH1 0xFF AND PUSH2 0x7E6 JUMP JUMPDEST PUSH1 0x60 ADD MLOAD SWAP1 POP PUSH0 PUSH1 0x64 TIMESTAMP DUP7 PUSH1 0x40 MLOAD PUSH1 0x20 ADD PUSH2 0x796 SWAP3 SWAP2 SWAP1 PUSH2 0x1301 JUMP JUMPDEST PUSH1 0x40 MLOAD PUSH1 0x20 DUP2 DUP4 SUB SUB DUP2 MSTORE SWAP1 PUSH1 0x40 MSTORE DUP1 MLOAD SWAP1 PUSH1 0x20 ADD KECCAK256 PUSH0 SHR PUSH2 0x7B8 SWAP2 SWAP1 PUSH2 0x132C JUMP JUMPDEST SWAP1 POP DUP2 DUP2 LT ISZERO PUSH2 0x7DE JUMPI PUSH1 0x19 DUP4 PUSH1 0x2 ADD PUSH0 DUP3 DUP3 SLOAD PUSH2 0x7D6 SWAP2 SWAP1 PUSH2 0x112E JUMP JUMPDEST SWAP3 POP POP DUP2 SWAP1 SSTORE POP JUMPDEST POP POP JUMPDEST POP POP POP JUMP JUMPDEST PUSH2 0x7EE PUSH2 0xD2B JUMP JUMPDEST PUSH0 PUSH1 0xA DUP2 GT ISZERO PUSH2 0x801 JUMPI PUSH2 0x800 PUSH2 0xEDF JUMP JUMPDEST JUMPDEST DUP3 PUSH1 0xA DUP2 GT ISZERO PUSH2 0x814 JUMPI PUSH2 0x813 PUSH2 0xEDF JUMP JUMPDEST JUMPDEST SUB PUSH2 0x863 JUMPI PUSH1 0x40 MLOAD DUP1 PUSH1 0xA0 ADD PUSH1 0x40 MSTORE DUP1 PUSH1 0xC8 DUP2 MSTORE PUSH1 0x20 ADD PUSH1 0x96 DUP2 MSTORE PUSH1 0x20 ADD PUSH1 0x3 DUP2 MSTORE PUSH1 0x20 ADD PUSH1 0x1 DUP2 MSTORE PUSH1 0x20 ADD PUSH1 0x40 MLOAD DUP1 PUSH1 0x80 ADD PUSH1 0x40 MSTORE DUP1 PUSH1 0x5D DUP2 MSTORE PUSH1 0x20 ADD PUSH2 0x13C5 PUSH1 0x5D SWAP2 CODECOPY DUP2 MSTORE POP SWAP1 POP PUSH2 0xCEA JUMP JUMPDEST PUSH1 0x1 PUSH1 0xA DUP2 GT ISZERO PUSH2 0x877 JUMPI PUSH2 0x876 PUSH2 0xEDF JUMP JUMPDEST JUMPDEST DUP3 PUSH1 0xA DUP2 GT ISZERO PUSH2 0x88A JUMPI PUSH2 0x889 PUSH2 0xEDF JUMP JUMPDEST JUMPDEST SUB PUSH2 0x8D9 JUMPI PUSH1 0x40 MLOAD DUP1 PUSH1 0xA0 ADD PUSH1 0x40 MSTORE DUP1 PUSH1 0xDC DUP2 MSTORE PUSH1 0x20 ADD PUSH1 0xC8 DUP2 MSTORE PUSH1 0x20 ADD PUSH1 0x2 DUP2 MSTORE PUSH1 0x20 ADD PUSH1 0x5 DUP2 MSTORE PUSH1 0x20 ADD PUSH1 0x40 MLOAD DUP1 PUSH1 0x80 ADD PUSH1 0x40 MSTORE DUP1 PUSH1 0x5D DUP2 MSTORE PUSH1 0x20 ADD PUSH2 0x147F PUSH1 0x5D SWAP2 CODECOPY DUP2 MSTORE POP SWAP1 POP PUSH2 0xCEA JUMP JUMPDEST PUSH1 0x2 PUSH1 0xA DUP2 GT ISZERO PUSH2 0x8ED JUMPI PUSH2 0x8EC PUSH2 0xEDF JUMP JUMPDEST JUMPDEST DUP3 PUSH1 0xA DUP2 GT ISZERO PUSH2 0x900 JUMPI PUSH2 0x8FF PUSH2 0xEDF JUMP JUMPDEST JUMPDEST SUB PUSH2 0x94F JUMPI PUSH1 0x40 MLOAD DUP1 PUSH1 0xA0 ADD PUSH1 0x40 MSTORE DUP1 PUSH1 0x50 DUP2 MSTORE PUSH1 0x20 ADD PUSH1 0x50 DUP2 MSTORE PUSH1 0x20 ADD PUSH1 0x3 DUP2 MSTORE PUSH1 0x20 ADD PUSH1 0x6 DUP2 MSTORE PUSH1 0x20 ADD PUSH1 0x40 MLOAD DUP1 PUSH1 0x80 ADD PUSH1 0x40 MSTORE DUP1 PUSH1 0x5D DUP2 MSTORE PUSH1 0x20 ADD PUSH2 0x1422 PUSH1 0x5D SWAP2 CODECOPY DUP2 MSTORE POP SWAP1 POP PUSH2 0xCEA JUMP JUMPDEST PUSH1 0x3 PUSH1 0xA DUP2 GT ISZERO PUSH2 0x963 JUMPI PUSH2 0x962 PUSH2 0xEDF JUMP JUMPDEST JUMPDEST DUP3 PUSH1 0xA DUP2 GT ISZERO PUSH2 0x976 JUMPI PUSH2 0x975 PUSH2 0xEDF JUMP JUMPDEST JUMPDEST SUB PUSH2 0x9BC JUMPI PUSH1 0x40 MLOAD DUP1 PUSH1 0xA0 ADD PUSH1 0x40 MSTORE DUP1 PUSH2 0x12C DUP2 MSTORE PUSH1 0x20 ADD PUSH2 0x12C DUP2 MSTORE PUSH1 0x20 ADD PUSH1 0x1 DUP2 MSTORE PUSH1 0x20 ADD PUSH0 DUP2 MSTORE PUSH1 0x20 ADD PUSH1 0x40 MLOAD DUP1 PUSH1 0x20 ADD PUSH1 0x40 MSTORE DUP1 PUSH0 DUP2 MSTORE POP DUP2 MSTORE POP SWAP1 POP PUSH2 0xCEA JUMP JUMPDEST PUSH1 0x4 PUSH1 0xA DUP2 GT ISZERO PUSH2 0x9D0 JUMPI PUSH2 0x9CF PUSH2 0xEDF JUMP JUMPDEST JUMPDEST DUP3 PUSH1 0xA DUP2 GT ISZERO PUSH2 0x9E3 JUMPI PUSH2 0x9E2 PUSH2 0xEDF JUMP JUMPDEST JUMPDEST SUB PUSH2 0xA28 JUMPI PUSH1 0x40 MLOAD DUP1 PUSH1 0xA0 ADD PUSH1 0x40 MSTORE DUP1 PUSH1 0xB4 DUP2 MSTORE PUSH1 0x20 ADD PUSH1 0x5A DUP2 MSTORE PUSH1 0x20 ADD PUSH1 0x2 DUP2 MSTORE PUSH1 0x20 ADD PUSH1 0x4 DUP2 MSTORE PUSH1 0x20 ADD PUSH1 0x40 MLOAD DUP1 PUSH1 0x20 ADD PUSH1 0x40 MSTORE DUP1 PUSH0 DUP2 MSTORE POP DUP2 MSTORE POP SWAP1 POP PUSH2 0xCEA JUMP JUMPDEST PUSH1 0x5 PUSH1 0xA DUP2 GT ISZERO PUSH2 0xA3C JUMPI PUSH2 0xA3B PUSH2 0xEDF JUMP JUMPDEST JUMPDEST DUP3 PUSH1 0xA DUP2 GT ISZERO PUSH2 0xA4F JUMPI PUSH2 0xA4E PUSH2 0xEDF JUMP JUMPDEST JUMPDEST SUB PUSH2 0xA94 JUMPI PUSH1 0x40 MLOAD DUP1 PUSH1 0xA0 ADD PUSH1 0x40 MSTORE DUP1 PUSH1 0x50 DUP2 MSTORE PUSH1 0x20 ADD PUSH1 0x46 DUP2 MSTORE PUSH1 0x20 ADD PUSH1 0x2 DUP2 MSTORE PUSH1 0x20 ADD PUSH1 0x8 DUP2 MSTORE PUSH1 0x20 ADD PUSH1 0x40 MLOAD DUP1 PUSH1 0x20 ADD PUSH1 0x40 MSTORE DUP1 PUSH0 DUP2 MSTORE POP DUP2 MSTORE POP SWAP1 POP PUSH2 0xCEA JUMP JUMPDEST PUSH1 0x6 PUSH1 0xA DUP2 GT ISZERO PUSH2 0xAA8 JUMPI PUSH2 0xAA7 PUSH2 0xEDF JUMP JUMPDEST JUMPDEST DUP3 PUSH1 0xA DUP2 GT ISZERO PUSH2 0xABB JUMPI PUSH2 0xABA PUSH2 0xEDF JUMP JUMPDEST JUMPDEST SUB PUSH2 0xB00 JUMPI PUSH1 0x40 MLOAD DUP1 PUSH1 0xA0 ADD PUSH1 0x40 MSTORE DUP1 PUSH1 0x32 DUP2 MSTORE PUSH1 0x20 ADD PUSH1 0x3C DUP2 MSTORE PUSH1 0x20 ADD PUSH1 0x4 DUP2 MSTORE PUSH1 0x20 ADD PUSH1 0x5 DUP2 MSTORE PUSH1 0x20 ADD PUSH1 0x40 MLOAD DUP1 PUSH1 0x20 ADD PUSH1 0x40 MSTORE DUP1 PUSH0 DUP2 MSTORE POP DUP2 MSTORE POP SWAP1 POP PUSH2 0xCEA JUMP JUMPDEST PUSH1 0x7 PUSH1 0xA DUP2 GT ISZERO PUSH2 0xB14 JUMPI PUSH2 0xB13 PUSH2 0xEDF JUMP JUMPDEST JUMPDEST DUP3 PUSH1 0xA DUP2 GT ISZERO PUSH2 0xB27 JUMPI PUSH2 0xB26 PUSH2 0xEDF JUMP JUMPDEST JUMPDEST SUB PUSH2 0xB6C JUMPI PUSH1 0x40 MLOAD DUP1 PUSH1 0xA0 ADD PUSH1 0x40 MSTORE DUP1 PUSH1 0x37 DUP2 MSTORE PUSH1 0x20 ADD PUSH1 0x28 DUP2 MSTORE PUSH1 0x20 ADD PUSH1 0x3 DUP2 MSTORE PUSH1 0x20 ADD PUSH1 0x4 DUP2 MSTORE PUSH1 0x20 ADD PUSH1 0x40 MLOAD DUP1 PUSH1 0x20 ADD PUSH1 0x40 MSTORE DUP1 PUSH0 DUP2 MSTORE POP DUP2 MSTORE POP SWAP1 POP PUSH2 0xCEA JUMP JUMPDEST PUSH1 0x8 PUSH1 0xA DUP2 GT ISZERO PUSH2 0xB80 JUMPI PUSH2 0xB7F PUSH2 0xEDF JUMP JUMPDEST JUMPDEST DUP3 PUSH1 0xA DUP2 GT ISZERO PUSH2 0xB93 JUMPI PUSH2 0xB92 PUSH2 0xEDF JUMP JUMPDEST JUMPDEST SUB PUSH2 0xBD8 JUMPI PUSH1 0x40 MLOAD DUP1 PUSH1 0xA0 ADD PUSH1 0x40 MSTORE DUP1 PUSH1 0x4E DUP2 MSTORE PUSH1 0x20 ADD PUSH1 0x41 DUP2 MSTORE PUSH1 0x20 ADD PUSH1 0x2 DUP2 MSTORE PUSH1 0x20 ADD PUSH1 0x4 DUP2 MSTORE PUSH1 0x20 ADD PUSH1 0x40 MLOAD DUP1 PUSH1 0x20 ADD PUSH1 0x40 MSTORE DUP1 PUSH0 DUP2 MSTORE POP DUP2 MSTORE POP SWAP1 POP PUSH2 0xCEA JUMP JUMPDEST PUSH1 0x9 PUSH1 0xA DUP2 GT ISZERO PUSH2 0xBEC JUMPI PUSH2 0xBEB PUSH2 0xEDF JUMP JUMPDEST JUMPDEST DUP3 PUSH1 0xA DUP2 GT ISZERO PUSH2 0xBFF JUMPI PUSH2 0xBFE PUSH2 0xEDF JUMP JUMPDEST JUMPDEST SUB PUSH2 0xC44 JUMPI PUSH1 0x40 MLOAD DUP1 PUSH1 0xA0 ADD PUSH1 0x40 MSTORE DUP1 PUSH1 0x96 DUP2 MSTORE PUSH1 0x20 ADD PUSH1 0x64 DUP2 MSTORE PUSH1 0x20 ADD PUSH1 0x4 DUP2 MSTORE PUSH1 0x20 ADD PUSH1 0x3 DUP2 MSTORE PUSH1 0x20 ADD PUSH1 0x40 MLOAD DUP1 PUSH1 0x20 ADD PUSH1 0x40 MSTORE DUP1 PUSH0 DUP2 MSTORE POP DUP2 MSTORE POP SWAP1 POP PUSH2 0xCEA JUMP JUMPDEST PUSH1 0xA DUP1 DUP2 GT ISZERO PUSH2 0xC57 JUMPI PUSH2 0xC56 PUSH2 0xEDF JUMP JUMPDEST JUMPDEST DUP3 PUSH1 0xA DUP2 GT ISZERO PUSH2 0xC6A JUMPI PUSH2 0xC69 PUSH2 0xEDF JUMP JUMPDEST JUMPDEST SUB PUSH2 0xCAF JUMPI PUSH1 0x40 MLOAD DUP1 PUSH1 0xA0 ADD PUSH1 0x40 MSTORE DUP1 PUSH1 0x23 DUP2 MSTORE PUSH1 0x20 ADD PUSH1 0x42 DUP2 MSTORE PUSH1 0x20 ADD PUSH1 0x4 DUP2 MSTORE PUSH1 0x20 ADD PUSH1 0x5 DUP2 MSTORE PUSH1 0x20 ADD PUSH1 0x40 MLOAD DUP1 PUSH1 0x20 ADD PUSH1 0x40 MSTORE DUP1 PUSH0 DUP2 MSTORE POP DUP2 MSTORE POP SWAP1 POP PUSH2 0xCEA JUMP JUMPDEST PUSH1 0x40 MLOAD PUSH32 0x8C379A000000000000000000000000000000000000000000000000000000000 DUP2 MSTORE PUSH1 0x4 ADD PUSH2 0xCE1 SWAP1 PUSH2 0x13A6 JUMP JUMPDEST PUSH1 0x40 MLOAD DUP1 SWAP2 SUB SWAP1 REVERT JUMPDEST SWAP2 SWAP1 POP JUMP JUMPDEST PUSH1 0x40 MLOAD DUP1 PUSH1 0xA0 ADD PUSH1 0x40 MSTORE DUP1 PUSH0 DUP2 MSTORE PUSH1 0x20 ADD PUSH0 DUP2 MSTORE PUSH1 0x20 ADD PUSH0 DUP2 MSTORE PUSH1 0x20 ADD PUSH0 PUSH1 0xA DUP2 GT ISZERO PUSH2 0xD1F JUMPI PUSH2 0xD1E PUSH2 0xEDF JUMP JUMPDEST JUMPDEST DUP2 MSTORE PUSH1 0x20 ADD PUSH0 DUP2 MSTORE POP SWAP1 JUMP JUMPDEST PUSH1 0x40 MLOAD DUP1 PUSH1 0xA0 ADD PUSH1 0x40 MSTORE DUP1 PUSH0 DUP2 MSTORE PUSH1 0x20 ADD PUSH0 DUP2 MSTORE PUSH1 0x20 ADD PUSH0 DUP2 MSTORE PUSH1 0x20 ADD PUSH0 DUP2 MSTORE PUSH1 0x20 ADD PUSH1 0x60 DUP2 MSTORE POP SWAP1 JUMP JUMPDEST PUSH0 PUSH0 REVERT JUMPDEST PUSH0 DUP2 SWAP1 POP SWAP2 SWAP1 POP JUMP JUMPDEST PUSH2 0xD6C DUP2 PUSH2 0xD5A JUMP JUMPDEST DUP2 EQ PUSH2 0xD76 JUMPI PUSH0 PUSH0 REVERT JUMPDEST POP JUMP JUMPDEST PUSH0 DUP2 CALLDATALOAD SWAP1 POP PUSH2 0xD87 DUP2 PUSH2 0xD63 JUMP JUMPDEST SWAP3 SWAP2 POP POP JUMP JUMPDEST PUSH0 PUSH1 0x20 DUP3 DUP5 SUB SLT ISZERO PUSH2 0xDA2 JUMPI PUSH2 0xDA1 PUSH2 0xD56 JUMP JUMPDEST JUMPDEST PUSH0 PUSH2 0xDAF DUP5 DUP3 DUP6 ADD PUSH2 0xD79 JUMP JUMPDEST SWAP2 POP POP SWAP3 SWAP2 POP POP JUMP JUMPDEST PUSH0 DUP2 ISZERO ISZERO SWAP1 POP SWAP2 SWAP1 POP JUMP JUMPDEST PUSH2 0xDCC DUP2 PUSH2 0xDB8 JUMP JUMPDEST DUP3 MSTORE POP POP JUMP JUMPDEST PUSH0 PUSH1 0x20 DUP3 ADD SWAP1 POP PUSH2 0xDE5 PUSH0 DUP4 ADD DUP5 PUSH2 0xDC3 JUMP JUMPDEST SWAP3 SWAP2 POP POP JUMP JUMPDEST PUSH0 PUSH0 PUSH1 0x40 DUP4 DUP6 SUB SLT ISZERO PUSH2 0xE01 JUMPI PUSH2 0xE00 PUSH2 0xD56 JUMP JUMPDEST JUMPDEST PUSH0 PUSH2 0xE0E DUP6 DUP3 DUP7 ADD PUSH2 0xD79 JUMP JUMPDEST SWAP3 POP POP PUSH1 0x20 PUSH2 0xE1F DUP6 DUP3 DUP7 ADD PUSH2 0xD79 JUMP JUMPDEST SWAP2 POP POP SWAP3 POP SWAP3 SWAP1 POP JUMP JUMPDEST PUSH1 0xB DUP2 LT PUSH2 0xE35 JUMPI PUSH0 PUSH0 REVERT JUMPDEST POP JUMP JUMPDEST PUSH0 DUP2 CALLDATALOAD SWAP1 POP PUSH2 0xE46 DUP2 PUSH2 0xE29 JUMP JUMPDEST SWAP3 SWAP2 POP POP JUMP JUMPDEST PUSH0 PUSH1 0x20 DUP3 DUP5 SUB SLT ISZERO PUSH2 0xE61 JUMPI PUSH2 0xE60 PUSH2 0xD56 JUMP JUMPDEST JUMPDEST PUSH0 PUSH2 0xE6E DUP5 DUP3 DUP6 ADD PUSH2 0xE38 JUMP JUMPDEST SWAP2 POP POP SWAP3 SWAP2 POP POP JUMP JUMPDEST PUSH0 DUP2 SWAP1 POP SWAP2 SWAP1 POP JUMP JUMPDEST PUSH2 0xE89 DUP2 PUSH2 0xE77 JUMP JUMPDEST DUP3 MSTORE POP POP JUMP JUMPDEST PUSH0 PUSH1 0x20 DUP3 ADD SWAP1 POP PUSH2 0xEA2 PUSH0 DUP4 ADD DUP5 PUSH2 0xE80 JUMP JUMPDEST SWAP3 SWAP2 POP POP JUMP JUMPDEST PUSH2 0xEB1 DUP2 PUSH2 0xD5A JUMP JUMPDEST DUP3 MSTORE POP POP JUMP JUMPDEST PUSH0 PUSH1 0x20 DUP3 ADD SWAP1 POP PUSH2 0xECA PUSH0 DUP4 ADD DUP5 PUSH2 0xEA8 JUMP JUMPDEST SWAP3 SWAP2 POP POP JUMP JUMPDEST PUSH2 0xED9 DUP2 PUSH2 0xD5A JUMP JUMPDEST DUP3 MSTORE POP POP JUMP JUMPDEST PUSH32 0x4E487B7100000000000000000000000000000000000000000000000000000000 PUSH0 MSTORE PUSH1 0x21 PUSH1 0x4 MSTORE PUSH1 0x24 PUSH0 REVERT JUMPDEST PUSH1 0xB DUP2 LT PUSH2 0xF1D JUMPI PUSH2 0xF1C PUSH2 0xEDF JUMP JUMPDEST JUMPDEST POP JUMP JUMPDEST PUSH0 DUP2 SWAP1 POP PUSH2 0xF2D DUP3 PUSH2 0xF0C JUMP JUMPDEST SWAP2 SWAP1 POP JUMP JUMPDEST PUSH0 PUSH2 0xF3C DUP3 PUSH2 0xF20 JUMP JUMPDEST SWAP1 POP SWAP2 SWAP1 POP JUMP JUMPDEST PUSH2 0xF4C DUP2 PUSH2 0xF32 JUMP JUMPDEST DUP3 MSTORE POP POP JUMP JUMPDEST PUSH1 0xA0 DUP3 ADD PUSH0 DUP3 ADD MLOAD PUSH2 0xF66 PUSH0 DUP6 ADD DUP3 PUSH2 0xED0 JUMP JUMPDEST POP PUSH1 0x20 DUP3 ADD MLOAD PUSH2 0xF79 PUSH1 0x20 DUP6 ADD DUP3 PUSH2 0xED0 JUMP JUMPDEST POP PUSH1 0x40 DUP3 ADD MLOAD PUSH2 0xF8C PUSH1 0x40 DUP6 ADD DUP3 PUSH2 0xED0 JUMP JUMPDEST POP PUSH1 0x60 DUP3 ADD MLOAD PUSH2 0xF9F PUSH1 0x60 DUP6 ADD DUP3 PUSH2 0xF43 JUMP JUMPDEST POP PUSH1 0x80 DUP3 ADD MLOAD PUSH2 0xFB2 PUSH1 0x80 DUP6 ADD DUP3 PUSH2 0xED0 JUMP JUMPDEST POP POP POP POP JUMP JUMPDEST PUSH0 PUSH1 0xA0 DUP3 ADD SWAP1 POP PUSH2 0xFCB PUSH0 DUP4 ADD DUP5 PUSH2 0xF52 JUMP JUMPDEST SWAP3 SWAP2 POP POP JUMP JUMPDEST PUSH0 PUSH20 0xFFFFFFFFFFFFFFFFFFFFFFFFFFFFFFFFFFFFFFFF DUP3 AND SWAP1 POP SWAP2 SWAP1 POP JUMP JUMPDEST PUSH0 PUSH2 0xFFA DUP3 PUSH2 0xFD1 JUMP JUMPDEST SWAP1 POP SWAP2 SWAP1 POP JUMP JUMPDEST PUSH2 0x100A DUP2 PUSH2 0xFF0 JUMP JUMPDEST DUP3 MSTORE POP POP JUMP JUMPDEST PUSH0 PUSH1 0x20 DUP3 ADD SWAP1 POP PUSH2 0x1023 PUSH0 DUP4 ADD DUP5 PUSH2 0x1001 JUMP JUMPDEST SWAP3 SWAP2 POP POP JUMP JUMPDEST PUSH2 0x1032 DUP2 PUSH2 0xF32 JUMP JUMPDEST DUP3 MSTORE POP POP JUMP JUMPDEST PUSH0 PUSH1 0xA0 DUP3 ADD SWAP1 POP PUSH2 0x104B PUSH0 DUP4 ADD DUP9 PUSH2 0xEA8 JUMP JUMPDEST PUSH2 0x1058 PUSH1 0x20 DUP4 ADD DUP8 PUSH2 0xEA8 JUMP JUMPDEST PUSH2 0x1065 PUSH1 0x40 DUP4 ADD DUP7 PUSH2 0xEA8 JUMP JUMPDEST PUSH2 0x1072 PUSH1 0x60 DUP4 ADD DUP6 PUSH2 0x1029 JUMP JUMPDEST PUSH2 0x107F PUSH1 0x80 DUP4 ADD DUP5 PUSH2 0xEA8 JUMP JUMPDEST SWAP7 SWAP6 POP POP POP POP POP POP JUMP JUMPDEST PUSH0 DUP3 DUP3 MSTORE PUSH1 0x20 DUP3 ADD SWAP1 POP SWAP3 SWAP2 POP POP JUMP JUMPDEST PUSH32 0x4F6E6C79205061726B2063616E2063616C6C2074686973000000000000000000 PUSH0 DUP3 ADD MSTORE POP JUMP JUMPDEST PUSH0 PUSH2 0x10CD PUSH1 0x17 DUP4 PUSH2 0x1089 JUMP JUMPDEST SWAP2 POP PUSH2 0x10D8 DUP3 PUSH2 0x1099 JUMP JUMPDEST PUSH1 0x20 DUP3 ADD SWAP1 POP SWAP2 SWAP1 POP JUMP JUMPDEST PUSH0 PUSH1 0x20 DUP3 ADD SWAP1 POP DUP2 DUP2 SUB PUSH0 DUP4 ADD MSTORE PUSH2 0x10FA DUP2 PUSH2 0x10C1 JUMP JUMPDEST SWAP1 POP SWAP2 SWAP1 POP JUMP JUMPDEST PUSH32 0x4E487B7100000000000000000000000000000000000000000000000000000000 PUSH0 MSTORE PUSH1 0x11 PUSH1 0x4 MSTORE PUSH1 0x24 PUSH0 REVERT JUMPDEST PUSH0 PUSH2 0x1138 DUP3 PUSH2 0xD5A JUMP JUMPDEST SWAP2 POP PUSH2 0x1143 DUP4 PUSH2 0xD5A JUMP JUMPDEST SWAP3 POP DUP3 DUP3 SUB SWAP1 POP DUP2 DUP2 GT ISZERO PUSH2 0x115B JUMPI PUSH2 0x115A PUSH2 0x1101 JUMP JUMPDEST JUMPDEST SWAP3 SWAP2 POP POP JUMP JUMPDEST PUSH32 0x4F6E6C79205061726B2063616E20696E73757265000000000000000000000000 PUSH0 DUP3 ADD MSTORE POP JUMP JUMPDEST PUSH0 PUSH2 0x1195 PUSH1 0x14 DUP4 PUSH2 0x1089 JUMP JUMPDEST SWAP2 POP PUSH2 0x11A0 DUP3 PUSH2 0x1161 JUMP JUMPDEST PUSH1 0x20 DUP3 ADD SWAP1 POP SWAP2 SWAP1 POP JUMP JUMPDEST PUSH0 PUSH1 0x20 DUP3 ADD SWAP1 POP DUP2 DUP2 SUB PUSH0 DUP4 ADD MSTORE PUSH2 0x11C2 DUP2 PUSH2 0x1189 JUMP JUMPDEST SWAP1 POP SWAP2 SWAP1 POP JUMP JUMPDEST PUSH0 PUSH2 0x11D3 DUP3 PUSH2 0xD5A JUMP JUMPDEST SWAP2 POP PUSH32 0xFFFFFFFFFFFFFFFFFFFFFFFFFFFFFFFFFFFFFFFFFFFFFFFFFFFFFFFFFFFFFFFF DUP3 SUB PUSH2 0x1205 JUMPI PUSH2 0x1204 PUSH2 0x1101 JUMP JUMPDEST JUMPDEST PUSH1 0x1 DUP3 ADD SWAP1 POP SWAP2 SWAP1 POP JUMP JUMPDEST PUSH0 PUSH2 0x121A DUP3 PUSH2 0xD5A JUMP JUMPDEST SWAP2 POP PUSH2 0x1225 DUP4 PUSH2 0xD5A JUMP JUMPDEST SWAP3 POP DUP3 DUP3 MUL PUSH2 0x1233 DUP2 PUSH2 0xD5A JUMP JUMPDEST SWAP2 POP DUP3 DUP3 DIV DUP5 EQ DUP4 ISZERO OR PUSH2 0x124A JUMPI PUSH2 0x1249 PUSH2 0x1101 JUMP JUMPDEST JUMPDEST POP SWAP3 SWAP2 POP POP JUMP JUMPDEST PUSH32 0x4E487B7100000000000000000000000000000000000000000000000000000000 PUSH0 MSTORE PUSH1 0x12 PUSH1 0x4 MSTORE PUSH1 0x24 PUSH0 REVERT JUMPDEST PUSH0 PUSH2 0x1288 DUP3 PUSH2 0xD5A JUMP JUMPDEST SWAP2 POP PUSH2 0x1293 DUP4 PUSH2 0xD5A JUMP JUMPDEST SWAP3 POP DUP3 PUSH2 0x12A3 JUMPI PUSH2 0x12A2 PUSH2 0x1251 JUMP JUMPDEST JUMPDEST DUP3 DUP3 DIV SWAP1 POP SWAP3 SWAP2 POP POP JUMP JUMPDEST PUSH0 PUSH2 0x12B8 DUP3 PUSH2 0xD5A JUMP JUMPDEST SWAP2 POP PUSH2 0x12C3 DUP4 PUSH2 0xD5A JUMP JUMPDEST SWAP3 POP DUP3 DUP3 ADD SWAP1 POP DUP1 DUP3 GT ISZERO PUSH2 0x12DB JUMPI PUSH2 0x12DA PUSH2 0x1101 JUMP JUMPDEST JUMPDEST SWAP3 SWAP2 POP POP JUMP JUMPDEST PUSH0 DUP2 SWAP1 POP SWAP2 SWAP1 POP JUMP JUMPDEST PUSH2 0x12FB PUSH2 0x12F6 DUP3 PUSH2 0xD5A JUMP JUMPDEST PUSH2 0x12E1 JUMP JUMPDEST DUP3 MSTORE POP POP JUMP JUMPDEST PUSH0 PUSH2 0x130C DUP3 DUP6 PUSH2 0x12EA JUMP JUMPDEST PUSH1 0x20 DUP3 ADD SWAP2 POP PUSH2 0x131C DUP3 DUP5 PUSH2 0x12EA JUMP JUMPDEST PUSH1 0x20 DUP3 ADD SWAP2 POP DUP2 SWAP1 POP SWAP4 SWAP3 POP POP POP JUMP JUMPDEST PUSH0 PUSH2 0x1336 DUP3 PUSH2 0xD5A JUMP JUMPDEST SWAP2 POP PUSH2 0x1341 DUP4 PUSH2 0xD5A JUMP JUMPDEST SWAP3 POP DUP3 PUSH2 0x1351 JUMPI PUSH2 0x1350 PUSH2 0x1251 JUMP JUMPDEST JUMPDEST DUP3 DUP3 MOD SWAP1 POP SWAP3 SWAP2 POP POP JUMP JUMPDEST PUSH32 0x556E6B6E6F776E20737065636965730000000000000000000000000000000000 PUSH0 DUP3 ADD MSTORE POP JUMP JUMPDEST PUSH0 PUSH2 0x1390 PUSH1 0xF DUP4 PUSH2 0x1089 JUMP JUMPDEST SWAP2 POP PUSH2 0x139B DUP3 PUSH2 0x135C JUMP JUMPDEST PUSH1 0x20 DUP3 ADD SWAP1 POP SWAP2 SWAP1 POP JUMP JUMPDEST PUSH0 PUSH1 0x20 DUP3 ADD SWAP1 POP DUP2 DUP2 SUB PUSH0 DUP4 ADD MSTORE PUSH2 0x13BD DUP2 PUSH2 0x1384 JUMP JUMPDEST SWAP1 POP SWAP2 SWAP1 POP JUMP INVALID PUSH9 0x747470733A2F2F6761 PUSH21 0x657761792E70696E6174612E636C6F75642F697066 PUSH20 0x2F6261667962656961336C65346173746B6E6832 PUSH17 0x346D626B64357734326A353232746E7365 CALLVALUE PUSH24 0x786B3777356D3777696D6F716470366F757A707968747470 PUSH20 0x3A2F2F676174657761792E70696E6174612E636C PUSH16 0x75642F697066732F6261667962656965 PUSH23 0x377075637A377968377836686169646D7068703569656F PUSH3 0x766366 PUSH5 0x636C6E6C77 PUSH11 0x7161326976733479333537 PUSH17 0x76776D6168747470733A2F2F6761746577 PUSH2 0x792E PUSH17 0x696E6174612E636C6F75642F697066732F PUSH3 0x616679 PUSH3 0x656967 PUSH16 0x686F746F6B366B336F6E76746A797970 PUSH7 0x6E626E7A626373 PUSH16 0x327163697862777A3477683634767032 PUSH15 0x336C71376E6B7361A2646970667358 0x22 SLT KECCAK256 PREVRANDAO 0x2C TSTORE MOD DUP9 0x4B EXP REVERT 0xCD EXTCALL TSTORE DUP8 0x1F 0xEA 0x4F 0x23 0xAD SDIV BYTE JUMPF 0x16B2 RETURNDATASIZE 0x2E 0xB4 0xAC PUSH3 0xFF9B13 0xB6 0xDD PUSH5 0x736F6C6343 STOP ADDMOD 0x1E STOP CALLER "
				},
				"gasEstimates": {
					"creation": {
						"codeDepositCost": "1078600",
						"executionCost": "infinite",
						"totalCost": "infinite"
					},
					"external": {
						"birds(uint256)": "infinite",
						"feedBird(uint256,uint256)": "infinite",
						"getBird(uint256)": "infinite",
						"insure(uint256)": "26957",
						"insured(uint256)": "2786",
						"mintBird(uint8)": "109210",
						"nextId()": "2425",
						"parkContract()": "2552",
						"updateHungerAndAge(uint256)": "infinite"
					},
					"internal": {
						"randomPoisoning(uint256)": "infinite"
					}
				},
				"methodIdentifiers": {
					"birds(uint256)": "ec1c5955",
					"feedBird(uint256,uint256)": "1942d199",
					"getBird(uint256)": "6ec88bbd",
					"insure(uint256)": "49b1a0bf",
					"insured(uint256)": "16cb4a05",
					"mintBird(uint8)": "4d2d7881",
					"nextId()": "61b8ce8c",
					"parkContract()": "72680a77",
					"updateHungerAndAge(uint256)": "a2b7ce6f"
				}
			},
			"storageLayout": {
				"storage": [
					{
						"astId": 265,
						"contract": "contracts/Ptak.sol:Ptak",
						"label": "birds",
						"offset": 0,
						"slot": "0",
						"type": "t_mapping(t_uint256,t_struct(BirdData)260_storage)"
					},
					{
						"astId": 267,
						"contract": "contracts/Ptak.sol:Ptak",
						"label": "nextId",
						"offset": 0,
						"slot": "1",
						"type": "t_uint256"
					},
					{
						"astId": 269,
						"contract": "contracts/Ptak.sol:Ptak",
						"label": "parkContract",
						"offset": 0,
						"slot": "2",
						"type": "t_address"
					},
					{
						"astId": 273,
						"contract": "contracts/Ptak.sol:Ptak",
						"label": "insured",
						"offset": 0,
						"slot": "3",
						"type": "t_mapping(t_uint256,t_bool)"
					}
				],
				"types": {
					"t_address": {
						"encoding": "inplace",
						"label": "address",
						"numberOfBytes": "20"
					},
					"t_bool": {
						"encoding": "inplace",
						"label": "bool",
						"numberOfBytes": "1"
					},
					"t_enum(Species)593": {
						"encoding": "inplace",
						"label": "enum SpeciesLibrary.Species",
						"numberOfBytes": "1"
					},
					"t_mapping(t_uint256,t_bool)": {
						"encoding": "mapping",
						"key": "t_uint256",
						"label": "mapping(uint256 => bool)",
						"numberOfBytes": "32",
						"value": "t_bool"
					},
					"t_mapping(t_uint256,t_struct(BirdData)260_storage)": {
						"encoding": "mapping",
						"key": "t_uint256",
						"label": "mapping(uint256 => struct Ptak.BirdData)",
						"numberOfBytes": "32",
						"value": "t_struct(BirdData)260_storage"
					},
					"t_struct(BirdData)260_storage": {
						"encoding": "inplace",
						"label": "struct Ptak.BirdData",
						"members": [
							{
								"astId": 250,
								"contract": "contracts/Ptak.sol:Ptak",
								"label": "age",
								"offset": 0,
								"slot": "0",
								"type": "t_uint256"
							},
							{
								"astId": 252,
								"contract": "contracts/Ptak.sol:Ptak",
								"label": "hunger",
								"offset": 0,
								"slot": "1",
								"type": "t_uint256"
							},
							{
								"astId": 254,
								"contract": "contracts/Ptak.sol:Ptak",
								"label": "health",
								"offset": 0,
								"slot": "2",
								"type": "t_uint256"
							},
							{
								"astId": 257,
								"contract": "contracts/Ptak.sol:Ptak",
								"label": "species",
								"offset": 0,
								"slot": "3",
								"type": "t_enum(Species)593"
							},
							{
								"astId": 259,
								"contract": "contracts/Ptak.sol:Ptak",
								"label": "lastUpdateTime",
								"offset": 0,
								"slot": "4",
								"type": "t_uint256"
							}
						],
						"numberOfBytes": "160"
					},
					"t_uint256": {
						"encoding": "inplace",
						"label": "uint256",
						"numberOfBytes": "32"
					}
				}
			},
			"userdoc": {
				"kind": "user",
				"methods": {},
				"version": 1
			}
		}
	}
}