{
	"contracts/Park.sol": {
		"Park": {
			"abi": [
				{
					"inputs": [
						{
							"internalType": "address",
							"name": "_ptakAddress",
							"type": "address"
						}
					],
					"stateMutability": "nonpayable",
					"type": "constructor"
				},
				{
					"anonymous": false,
					"inputs": [
						{
							"indexed": true,
							"internalType": "uint256",
							"name": "birdId",
							"type": "uint256"
						},
						{
							"indexed": false,
							"internalType": "enum SpeciesLibrary.Species",
							"name": "species",
							"type": "uint8"
						},
						{
							"indexed": true,
							"internalType": "address",
							"name": "owner",
							"type": "address"
						}
					],
					"name": "BirdMinted",
					"type": "event"
				},
				{
					"inputs": [
						{
							"internalType": "uint256",
							"name": "birdId",
							"type": "uint256"
						}
					],
					"name": "buyInsurance",
					"outputs": [],
					"stateMutability": "payable",
					"type": "function"
				},
				{
					"inputs": [
						{
							"internalType": "uint256",
							"name": "birdId",
							"type": "uint256"
						},
						{
							"internalType": "uint256",
							"name": "amount",
							"type": "uint256"
						}
					],
					"name": "feedBird",
					"outputs": [],
					"stateMutability": "payable",
					"type": "function"
				},
				{
					"inputs": [
						{
							"internalType": "uint256",
							"name": "birdId",
							"type": "uint256"
						}
					],
					"name": "healBird",
					"outputs": [],
					"stateMutability": "payable",
					"type": "function"
				},
				{
					"inputs": [],
					"name": "mintLegendaryBird",
					"outputs": [],
					"stateMutability": "payable",
					"type": "function"
				},
				{
					"inputs": [
						{
							"internalType": "enum SpeciesLibrary.Species",
							"name": "species",
							"type": "uint8"
						}
					],
					"name": "mintRegularBird",
					"outputs": [],
					"stateMutability": "payable",
					"type": "function"
				},
				{
					"inputs": [],
					"name": "owner",
					"outputs": [
						{
							"internalType": "address",
							"name": "",
							"type": "address"
						}
					],
					"stateMutability": "view",
					"type": "function"
				},
				{
					"inputs": [],
					"name": "ptakContract",
					"outputs": [
						{
							"internalType": "contract Ptak",
							"name": "",
							"type": "address"
						}
					],
					"stateMutability": "view",
					"type": "function"
				},
				{
					"inputs": [
						{
							"internalType": "uint256",
							"name": "birdId",
							"type": "uint256"
						}
					],
					"name": "reviveBird",
					"outputs": [],
					"stateMutability": "payable",
					"type": "function"
				},
				{
					"inputs": [
						{
							"internalType": "uint256",
							"name": "birdId",
							"type": "uint256"
						},
						{
							"internalType": "address",
							"name": "newOwner",
							"type": "address"
						}
					],
					"name": "transferBird",
					"outputs": [],
					"stateMutability": "nonpayable",
					"type": "function"
				},
				{
					"inputs": [],
					"name": "withdraw",
					"outputs": [],
					"stateMutability": "nonpayable",
					"type": "function"
				}
			],
			"devdoc": {
				"kind": "dev",
				"methods": {},
				"version": 1
			},
			"evm": {
				"assembly": "    /* \"contracts/Park.sol\":117:2959  contract Park {... */\n  mstore(0x40, 0x80)\n    /* \"contracts/Park.sol\":200:315  constructor(address _ptakAddress) {... */\n  callvalue\n  dup1\n  iszero\n  tag_1\n  jumpi\n  revert(0x00, 0x00)\ntag_1:\n  pop\n  mload(0x40)\n  sub(codesize, bytecodeSize)\n  dup1\n  bytecodeSize\n  dup4\n  codecopy\n  dup2\n  dup2\n  add\n  0x40\n  mstore\n  dup2\n  add\n  swap1\n  tag_2\n  swap2\n  swap1\n  tag_3\n  jump\t// in\ntag_2:\n    /* \"contracts/Park.sol\":265:277  _ptakAddress */\n  dup1\n    /* \"contracts/Park.sol\":245:257  ptakContract */\n  0x00\n  0x00\n    /* \"contracts/Park.sol\":245:278  ptakContract = Ptak(_ptakAddress) */\n  0x0100\n  exp\n  dup2\n  sload\n  dup2\n  0xffffffffffffffffffffffffffffffffffffffff\n  mul\n  not\n  and\n  swap1\n  dup4\n  0xffffffffffffffffffffffffffffffffffffffff\n  and\n  mul\n  or\n  swap1\n  sstore\n  pop\n    /* \"contracts/Park.sol\":297:307  msg.sender */\n  caller\n    /* \"contracts/Park.sol\":289:294  owner */\n  0x01\n  0x00\n    /* \"contracts/Park.sol\":289:307  owner = msg.sender */\n  0x0100\n  exp\n  dup2\n  sload\n  dup2\n  0xffffffffffffffffffffffffffffffffffffffff\n  mul\n  not\n  and\n  swap1\n  dup4\n  0xffffffffffffffffffffffffffffffffffffffff\n  and\n  mul\n  or\n  swap1\n  sstore\n  pop\n    /* \"contracts/Park.sol\":200:315  constructor(address _ptakAddress) {... */\n  pop\n    /* \"contracts/Park.sol\":117:2959  contract Park {... */\n  jump(tag_6)\n    /* \"#utility.yul\":88:205   */\ntag_8:\n    /* \"#utility.yul\":197:198   */\n  0x00\n    /* \"#utility.yul\":194:195   */\n  0x00\n    /* \"#utility.yul\":187:199   */\n  revert\n    /* \"#utility.yul\":334:460   */\ntag_10:\n    /* \"#utility.yul\":371:378   */\n  0x00\n    /* \"#utility.yul\":411:453   */\n  0xffffffffffffffffffffffffffffffffffffffff\n    /* \"#utility.yul\":404:409   */\n  dup3\n    /* \"#utility.yul\":400:454   */\n  and\n    /* \"#utility.yul\":389:454   */\n  swap1\n  pop\n    /* \"#utility.yul\":334:460   */\n  swap2\n  swap1\n  pop\n  jump\t// out\n    /* \"#utility.yul\":466:562   */\ntag_11:\n    /* \"#utility.yul\":503:510   */\n  0x00\n    /* \"#utility.yul\":532:556   */\n  tag_20\n    /* \"#utility.yul\":550:555   */\n  dup3\n    /* \"#utility.yul\":532:556   */\n  tag_10\n  jump\t// in\ntag_20:\n    /* \"#utility.yul\":521:556   */\n  swap1\n  pop\n    /* \"#utility.yul\":466:562   */\n  swap2\n  swap1\n  pop\n  jump\t// out\n    /* \"#utility.yul\":568:690   */\ntag_12:\n    /* \"#utility.yul\":641:665   */\n  tag_22\n    /* \"#utility.yul\":659:664   */\n  dup2\n    /* \"#utility.yul\":641:665   */\n  tag_11\n  jump\t// in\ntag_22:\n    /* \"#utility.yul\":634:639   */\n  dup2\n    /* \"#utility.yul\":631:666   */\n  eq\n    /* \"#utility.yul\":621:684   */\n  tag_23\n  jumpi\n    /* \"#utility.yul\":680:681   */\n  0x00\n    /* \"#utility.yul\":677:678   */\n  0x00\n    /* \"#utility.yul\":670:682   */\n  revert\n    /* \"#utility.yul\":621:684   */\ntag_23:\n    /* \"#utility.yul\":568:690   */\n  pop\n  jump\t// out\n    /* \"#utility.yul\":696:839   */\ntag_13:\n    /* \"#utility.yul\":753:758   */\n  0x00\n    /* \"#utility.yul\":784:790   */\n  dup2\n    /* \"#utility.yul\":778:791   */\n  mload\n    /* \"#utility.yul\":769:791   */\n  swap1\n  pop\n    /* \"#utility.yul\":800:833   */\n  tag_25\n    /* \"#utility.yul\":827:832   */\n  dup2\n    /* \"#utility.yul\":800:833   */\n  tag_12\n  jump\t// in\ntag_25:\n    /* \"#utility.yul\":696:839   */\n  swap3\n  swap2\n  pop\n  pop\n  jump\t// out\n    /* \"#utility.yul\":845:1196   */\ntag_3:\n    /* \"#utility.yul\":915:921   */\n  0x00\n    /* \"#utility.yul\":964:966   */\n  0x20\n    /* \"#utility.yul\":952:961   */\n  dup3\n    /* \"#utility.yul\":943:950   */\n  dup5\n    /* \"#utility.yul\":939:962   */\n  sub\n    /* \"#utility.yul\":935:967   */\n  slt\n    /* \"#utility.yul\":932:1051   */\n  iszero\n  tag_27\n  jumpi\n    /* \"#utility.yul\":970:1049   */\n  tag_28\n  tag_8\n  jump\t// in\ntag_28:\n    /* \"#utility.yul\":932:1051   */\ntag_27:\n    /* \"#utility.yul\":1090:1091   */\n  0x00\n    /* \"#utility.yul\":1115:1179   */\n  tag_29\n    /* \"#utility.yul\":1171:1178   */\n  dup5\n    /* \"#utility.yul\":1162:1168   */\n  dup3\n    /* \"#utility.yul\":1151:1160   */\n  dup6\n    /* \"#utility.yul\":1147:1169   */\n  add\n    /* \"#utility.yul\":1115:1179   */\n  tag_13\n  jump\t// in\ntag_29:\n    /* \"#utility.yul\":1105:1179   */\n  swap2\n  pop\n    /* \"#utility.yul\":1061:1189   */\n  pop\n    /* \"#utility.yul\":845:1196   */\n  swap3\n  swap2\n  pop\n  pop\n  jump\t// out\n    /* \"contracts/Park.sol\":117:2959  contract Park {... */\ntag_6:\n  dataSize(sub_0)\n  dup1\n  dataOffset(sub_0)\n  0x00\n  codecopy\n  0x00\n  return\nstop\n\nsub_0: assembly {\n        /* \"contracts/Park.sol\":117:2959  contract Park {... */\n      mstore(0x40, 0x80)\n      jumpi(tag_1, lt(calldatasize, 0x04))\n      shr(0xe0, calldataload(0x00))\n      dup1\n      0x8da5cb5b\n      gt\n      tag_12\n      jumpi\n      dup1\n      0x8da5cb5b\n      eq\n      tag_7\n      jumpi\n      dup1\n      0x9aeb133f\n      eq\n      tag_8\n      jumpi\n      dup1\n      0xa86a658c\n      eq\n      tag_9\n      jumpi\n      dup1\n      0xbff998f4\n      eq\n      tag_10\n      jumpi\n      dup1\n      0xeb96efa7\n      eq\n      tag_11\n      jumpi\n      jump(tag_1)\n    tag_12:\n      dup1\n      0x192812a0\n      eq\n      tag_2\n      jumpi\n      dup1\n      0x1942d199\n      eq\n      tag_3\n      jumpi\n      dup1\n      0x3ccfd60b\n      eq\n      tag_4\n      jumpi\n      dup1\n      0x5361e1d2\n      eq\n      tag_5\n      jumpi\n      dup1\n      0x8c652f95\n      eq\n      tag_6\n      jumpi\n    tag_1:\n      revert(0x00, 0x00)\n        /* \"contracts/Park.sol\":835:1397  function reviveBird(uint256 birdId) external payable {... */\n    tag_2:\n      tag_13\n      0x04\n      dup1\n      calldatasize\n      sub\n      dup2\n      add\n      swap1\n      tag_14\n      swap2\n      swap1\n      tag_15\n      jump\t// in\n    tag_14:\n      tag_16\n      jump\t// in\n    tag_13:\n      stop\n        /* \"contracts/Park.sol\":1405:1697  function feedBird(uint256 birdId, uint256 amount) external payable {... */\n    tag_3:\n      tag_17\n      0x04\n      dup1\n      calldatasize\n      sub\n      dup2\n      add\n      swap1\n      tag_18\n      swap2\n      swap1\n      tag_19\n      jump\t// in\n    tag_18:\n      tag_20\n      jump\t// in\n    tag_17:\n      stop\n        /* \"contracts/Park.sol\":323:469  function withdraw() external {... */\n    tag_4:\n      callvalue\n      dup1\n      iszero\n      tag_21\n      jumpi\n      revert(0x00, 0x00)\n    tag_21:\n      pop\n      tag_22\n      tag_23\n      jump\t// in\n    tag_22:\n      stop\n        /* \"contracts/Park.sol\":138:162  Ptak public ptakContract */\n    tag_5:\n      callvalue\n      dup1\n      iszero\n      tag_24\n      jumpi\n      revert(0x00, 0x00)\n    tag_24:\n      pop\n      tag_25\n      tag_26\n      jump\t// in\n    tag_25:\n      mload(0x40)\n      tag_27\n      swap2\n      swap1\n      tag_28\n      jump\t// in\n    tag_27:\n      mload(0x40)\n      dup1\n      swap2\n      sub\n      swap1\n      return\n        /* \"contracts/Park.sol\":1705:1832  function transferBird(uint256 birdId, address newOwner) external {... */\n    tag_6:\n      callvalue\n      dup1\n      iszero\n      tag_29\n      jumpi\n      revert(0x00, 0x00)\n    tag_29:\n      pop\n      tag_30\n      0x04\n      dup1\n      calldatasize\n      sub\n      dup2\n      add\n      swap1\n      tag_31\n      swap2\n      swap1\n      tag_32\n      jump\t// in\n    tag_31:\n      tag_33\n      jump\t// in\n    tag_30:\n      stop\n        /* \"contracts/Park.sol\":171:191  address public owner */\n    tag_7:\n      callvalue\n      dup1\n      iszero\n      tag_34\n      jumpi\n      revert(0x00, 0x00)\n    tag_34:\n      pop\n      tag_35\n      tag_36\n      jump\t// in\n    tag_35:\n      mload(0x40)\n      tag_37\n      swap2\n      swap1\n      tag_38\n      jump\t// in\n    tag_37:\n      mload(0x40)\n      dup1\n      swap2\n      sub\n      swap1\n      return\n        /* \"contracts/Park.sol\":1944:2711  function mintRegularBird(SpeciesLibrary.Species species) external payable {... */\n    tag_8:\n      tag_39\n      0x04\n      dup1\n      calldatasize\n      sub\n      dup2\n      add\n      swap1\n      tag_40\n      swap2\n      swap1\n      tag_41\n      jump\t// in\n    tag_40:\n      tag_42\n      jump\t// in\n    tag_39:\n      stop\n        /* \"contracts/Park.sol\":655:827  function buyInsurance(uint256 birdId) external payable {... */\n    tag_9:\n      tag_43\n      0x04\n      dup1\n      calldatasize\n      sub\n      dup2\n      add\n      swap1\n      tag_44\n      swap2\n      swap1\n      tag_15\n      jump\t// in\n    tag_44:\n      tag_45\n      jump\t// in\n    tag_43:\n      stop\n        /* \"contracts/Park.sol\":477:647  function healBird(uint256 birdId) external payable {... */\n    tag_10:\n      tag_46\n      0x04\n      dup1\n      calldatasize\n      sub\n      dup2\n      add\n      swap1\n      tag_47\n      swap2\n      swap1\n      tag_15\n      jump\t// in\n    tag_47:\n      tag_48\n      jump\t// in\n    tag_46:\n      stop\n        /* \"contracts/Park.sol\":2719:2956  function mintLegendaryBird() external payable {... */\n    tag_11:\n      tag_49\n      tag_50\n      jump\t// in\n    tag_49:\n      stop\n        /* \"contracts/Park.sol\":835:1397  function reviveBird(uint256 birdId) external payable {... */\n    tag_16:\n        /* \"contracts/Park.sol\":899:924  Ptak.BirdData memory bird */\n      0x00\n        /* \"contracts/Park.sol\":927:939  ptakContract */\n      0x00\n      0x00\n      swap1\n      sload\n      swap1\n      0x0100\n      exp\n      swap1\n      div\n      0xffffffffffffffffffffffffffffffffffffffff\n      and\n        /* \"contracts/Park.sol\":927:947  ptakContract.getBird */\n      0xffffffffffffffffffffffffffffffffffffffff\n      and\n      0x6ec88bbd\n        /* \"contracts/Park.sol\":948:954  birdId */\n      dup4\n        /* \"contracts/Park.sol\":927:955  ptakContract.getBird(birdId) */\n      mload(0x40)\n      dup3\n      0xffffffff\n      and\n      0xe0\n      shl\n      dup2\n      mstore\n      0x04\n      add\n      tag_52\n      swap2\n      swap1\n      tag_53\n      jump\t// in\n    tag_52:\n      0xe0\n      mload(0x40)\n      dup1\n      dup4\n      sub\n      dup2\n      0x00\n      dup8\n      gas\n      call\n      iszero\n      dup1\n      iszero\n      tag_55\n      jumpi\n      returndatacopy(0x00, 0x00, returndatasize)\n      revert(0x00, returndatasize)\n    tag_55:\n      pop\n      pop\n      pop\n      pop\n      mload(0x40)\n      returndatasize\n      not(0x1f)\n      0x1f\n      dup3\n      add\n      and\n      dup3\n      add\n      dup1\n      0x40\n      mstore\n      pop\n      dup2\n      add\n      swap1\n      tag_56\n      swap2\n      swap1\n      tag_57\n      jump\t// in\n    tag_56:\n        /* \"contracts/Park.sol\":899:955  Ptak.BirdData memory bird = ptakContract.getBird(birdId) */\n      swap1\n      pop\n        /* \"contracts/Park.sol\":974:978  bird */\n      dup1\n        /* \"contracts/Park.sol\":974:985  bird.isDead */\n      0xa0\n      add\n      mload\n        /* \"contracts/Park.sol\":966:1006  require(bird.isDead, \"Bird is not dead\") */\n      tag_58\n      jumpi\n      mload(0x40)\n      0x08c379a000000000000000000000000000000000000000000000000000000000\n      dup2\n      mstore\n      0x04\n      add\n      tag_59\n      swap1\n      tag_60\n      jump\t// in\n    tag_59:\n      mload(0x40)\n      dup1\n      swap2\n      sub\n      swap1\n      revert\n    tag_58:\n        /* \"contracts/Park.sol\":1019:1036  uint256 basePrice */\n      0x00\n        /* \"contracts/Park.sol\":1039:1083  SpeciesLibrary.getSpeciesPrice(bird.species) */\n      tag_61\n        /* \"contracts/Park.sol\":1070:1074  bird */\n      dup3\n        /* \"contracts/Park.sol\":1070:1082  bird.species */\n      0x60\n      add\n      mload\n        /* \"contracts/Park.sol\":1039:1069  SpeciesLibrary.getSpeciesPrice */\n      tag_62\n        /* \"contracts/Park.sol\":1039:1083  SpeciesLibrary.getSpeciesPrice(bird.species) */\n      jump\t// in\n    tag_61:\n        /* \"contracts/Park.sol\":1019:1083  uint256 basePrice = SpeciesLibrary.getSpeciesPrice(bird.species) */\n      swap1\n      pop\n        /* \"contracts/Park.sol\":1094:1113  uint256 revivePrice */\n      0x00\n        /* \"contracts/Park.sol\":1128:1129  5 */\n      0x05\n        /* \"contracts/Park.sol\":1116:1125  basePrice */\n      dup3\n        /* \"contracts/Park.sol\":1116:1129  basePrice * 5 */\n      tag_63\n      swap2\n      swap1\n      tag_64\n      jump\t// in\n    tag_63:\n        /* \"contracts/Park.sol\":1094:1129  uint256 revivePrice = basePrice * 5 */\n      swap1\n      pop\n        /* \"contracts/Park.sol\":1142:1158  uint256 daysDead */\n      0x00\n        /* \"contracts/Park.sol\":1203:1209  1 days */\n      0x015180\n        /* \"contracts/Park.sol\":1180:1184  bird */\n      dup5\n        /* \"contracts/Park.sol\":1180:1199  bird.deathTimestamp */\n      0xc0\n      add\n      mload\n        /* \"contracts/Park.sol\":1162:1177  block.timestamp */\n      timestamp\n        /* \"contracts/Park.sol\":1162:1199  block.timestamp - bird.deathTimestamp */\n      tag_65\n      swap2\n      swap1\n      tag_66\n      jump\t// in\n    tag_65:\n        /* \"contracts/Park.sol\":1161:1209  (block.timestamp - bird.deathTimestamp) / 1 days */\n      tag_67\n      swap2\n      swap1\n      tag_68\n      jump\t// in\n    tag_67:\n        /* \"contracts/Park.sol\":1142:1209  uint256 daysDead = (block.timestamp - bird.deathTimestamp) / 1 days */\n      swap1\n      pop\n        /* \"contracts/Park.sol\":1262:1265  100 */\n      0x64\n        /* \"contracts/Park.sol\":1250:1258  daysDead */\n      dup2\n        /* \"contracts/Park.sol\":1236:1247  revivePrice */\n      dup4\n        /* \"contracts/Park.sol\":1236:1258  revivePrice * daysDead */\n      tag_69\n      swap2\n      swap1\n      tag_64\n      jump\t// in\n    tag_69:\n        /* \"contracts/Park.sol\":1235:1265  (revivePrice * daysDead) / 100 */\n      tag_70\n      swap2\n      swap1\n      tag_68\n      jump\t// in\n    tag_70:\n        /* \"contracts/Park.sol\":1220:1265  revivePrice += (revivePrice * daysDead) / 100 */\n      dup3\n      tag_71\n      swap2\n      swap1\n      tag_72\n      jump\t// in\n    tag_71:\n      swap2\n      pop\n        /* \"contracts/Park.sol\":1299:1310  revivePrice */\n      dup2\n        /* \"contracts/Park.sol\":1286:1295  msg.value */\n      callvalue\n        /* \"contracts/Park.sol\":1286:1310  msg.value >= revivePrice */\n      lt\n      iszero\n        /* \"contracts/Park.sol\":1278:1349  require(msg.value >= revivePrice, \"Not enough ETH to revive this bird\") */\n      tag_73\n      jumpi\n      mload(0x40)\n      0x08c379a000000000000000000000000000000000000000000000000000000000\n      dup2\n      mstore\n      0x04\n      add\n      tag_74\n      swap1\n      tag_75\n      jump\t// in\n    tag_74:\n      mload(0x40)\n      dup1\n      swap2\n      sub\n      swap1\n      revert\n    tag_73:\n        /* \"contracts/Park.sol\":1362:1374  ptakContract */\n      0x00\n      0x00\n      swap1\n      sload\n      swap1\n      0x0100\n      exp\n      swap1\n      div\n      0xffffffffffffffffffffffffffffffffffffffff\n      and\n        /* \"contracts/Park.sol\":1362:1381  ptakContract.revive */\n      0xffffffffffffffffffffffffffffffffffffffff\n      and\n      0x8baecc21\n        /* \"contracts/Park.sol\":1382:1388  birdId */\n      dup7\n        /* \"contracts/Park.sol\":1362:1389  ptakContract.revive(birdId) */\n      mload(0x40)\n      dup3\n      0xffffffff\n      and\n      0xe0\n      shl\n      dup2\n      mstore\n      0x04\n      add\n      tag_76\n      swap2\n      swap1\n      tag_53\n      jump\t// in\n    tag_76:\n      0x00\n      mload(0x40)\n      dup1\n      dup4\n      sub\n      dup2\n      0x00\n      dup8\n      dup1\n      extcodesize\n      iszero\n      dup1\n      iszero\n      tag_77\n      jumpi\n      revert(0x00, 0x00)\n    tag_77:\n      pop\n      gas\n      call\n      iszero\n      dup1\n      iszero\n      tag_79\n      jumpi\n      returndatacopy(0x00, 0x00, returndatasize)\n      revert(0x00, returndatasize)\n    tag_79:\n      pop\n      pop\n      pop\n      pop\n        /* \"contracts/Park.sol\":888:1397  {... */\n      pop\n      pop\n      pop\n      pop\n        /* \"contracts/Park.sol\":835:1397  function reviveBird(uint256 birdId) external payable {... */\n      pop\n      jump\t// out\n        /* \"contracts/Park.sol\":1405:1697  function feedBird(uint256 birdId, uint256 amount) external payable {... */\n    tag_20:\n        /* \"contracts/Park.sol\":1483:1502  uint256 costPerUnit */\n      0x00\n        /* \"contracts/Park.sol\":1505:1518  0.00001 ether */\n      0x09184e72a000\n        /* \"contracts/Park.sol\":1483:1518  uint256 costPerUnit = 0.00001 ether */\n      swap1\n      pop\n        /* \"contracts/Park.sol\":1529:1546  uint256 totalCost */\n      0x00\n        /* \"contracts/Park.sol\":1558:1569  costPerUnit */\n      dup2\n        /* \"contracts/Park.sol\":1549:1555  amount */\n      dup4\n        /* \"contracts/Park.sol\":1549:1569  amount * costPerUnit */\n      tag_81\n      swap2\n      swap1\n      tag_64\n      jump\t// in\n    tag_81:\n        /* \"contracts/Park.sol\":1529:1569  uint256 totalCost = amount * costPerUnit */\n      swap1\n      pop\n        /* \"contracts/Park.sol\":1603:1612  totalCost */\n      dup1\n        /* \"contracts/Park.sol\":1590:1599  msg.value */\n      callvalue\n        /* \"contracts/Park.sol\":1590:1612  msg.value >= totalCost */\n      lt\n      iszero\n        /* \"contracts/Park.sol\":1582:1639  require(msg.value >= totalCost, \"Not enough ETH to feed\") */\n      tag_82\n      jumpi\n      mload(0x40)\n      0x08c379a000000000000000000000000000000000000000000000000000000000\n      dup2\n      mstore\n      0x04\n      add\n      tag_83\n      swap1\n      tag_84\n      jump\t// in\n    tag_83:\n      mload(0x40)\n      dup1\n      swap2\n      sub\n      swap1\n      revert\n    tag_82:\n        /* \"contracts/Park.sol\":1652:1664  ptakContract */\n      0x00\n      0x00\n      swap1\n      sload\n      swap1\n      0x0100\n      exp\n      swap1\n      div\n      0xffffffffffffffffffffffffffffffffffffffff\n      and\n        /* \"contracts/Park.sol\":1652:1673  ptakContract.feedBird */\n      0xffffffffffffffffffffffffffffffffffffffff\n      and\n      0x1942d199\n        /* \"contracts/Park.sol\":1674:1680  birdId */\n      dup6\n        /* \"contracts/Park.sol\":1682:1688  amount */\n      dup6\n        /* \"contracts/Park.sol\":1652:1689  ptakContract.feedBird(birdId, amount) */\n      mload(0x40)\n      dup4\n      0xffffffff\n      and\n      0xe0\n      shl\n      dup2\n      mstore\n      0x04\n      add\n      tag_85\n      swap3\n      swap2\n      swap1\n      tag_86\n      jump\t// in\n    tag_85:\n      0x00\n      mload(0x40)\n      dup1\n      dup4\n      sub\n      dup2\n      0x00\n      dup8\n      dup1\n      extcodesize\n      iszero\n      dup1\n      iszero\n      tag_87\n      jumpi\n      revert(0x00, 0x00)\n    tag_87:\n      pop\n      gas\n      call\n      iszero\n      dup1\n      iszero\n      tag_89\n      jumpi\n      returndatacopy(0x00, 0x00, returndatasize)\n      revert(0x00, returndatasize)\n    tag_89:\n      pop\n      pop\n      pop\n      pop\n        /* \"contracts/Park.sol\":1472:1697  {... */\n      pop\n      pop\n        /* \"contracts/Park.sol\":1405:1697  function feedBird(uint256 birdId, uint256 amount) external payable {... */\n      pop\n      pop\n      jump\t// out\n        /* \"contracts/Park.sol\":323:469  function withdraw() external {... */\n    tag_23:\n        /* \"contracts/Park.sol\":385:390  owner */\n      0x01\n      0x00\n      swap1\n      sload\n      swap1\n      0x0100\n      exp\n      swap1\n      div\n      0xffffffffffffffffffffffffffffffffffffffff\n      and\n        /* \"contracts/Park.sol\":371:390  msg.sender == owner */\n      0xffffffffffffffffffffffffffffffffffffffff\n      and\n        /* \"contracts/Park.sol\":371:381  msg.sender */\n      caller\n        /* \"contracts/Park.sol\":371:390  msg.sender == owner */\n      0xffffffffffffffffffffffffffffffffffffffff\n      and\n      eq\n        /* \"contracts/Park.sol\":363:404  require(msg.sender == owner, \"Not owner\") */\n      tag_91\n      jumpi\n      mload(0x40)\n      0x08c379a000000000000000000000000000000000000000000000000000000000\n      dup2\n      mstore\n      0x04\n      add\n      tag_92\n      swap1\n      tag_93\n      jump\t// in\n    tag_92:\n      mload(0x40)\n      dup1\n      swap2\n      sub\n      swap1\n      revert\n    tag_91:\n        /* \"contracts/Park.sol\":423:428  owner */\n      0x01\n      0x00\n      swap1\n      sload\n      swap1\n      0x0100\n      exp\n      swap1\n      div\n      0xffffffffffffffffffffffffffffffffffffffff\n      and\n        /* \"contracts/Park.sol\":415:438  payable(owner).transfer */\n      0xffffffffffffffffffffffffffffffffffffffff\n      and\n        /* \"contracts/Park.sol\":415:461  payable(owner).transfer(address(this).balance) */\n      0x08fc\n        /* \"contracts/Park.sol\":439:460  address(this).balance */\n      selfbalance\n        /* \"contracts/Park.sol\":415:461  payable(owner).transfer(address(this).balance) */\n      swap1\n      dup2\n      iszero\n      mul\n      swap1\n      mload(0x40)\n      0x00\n      mload(0x40)\n      dup1\n      dup4\n      sub\n      dup2\n      dup6\n      dup9\n      dup9\n      call\n      swap4\n      pop\n      pop\n      pop\n      pop\n      iszero\n      dup1\n      iszero\n      tag_95\n      jumpi\n      returndatacopy(0x00, 0x00, returndatasize)\n      revert(0x00, returndatasize)\n    tag_95:\n      pop\n        /* \"contracts/Park.sol\":323:469  function withdraw() external {... */\n      jump\t// out\n        /* \"contracts/Park.sol\":138:162  Ptak public ptakContract */\n    tag_26:\n      0x00\n      0x00\n      swap1\n      sload\n      swap1\n      0x0100\n      exp\n      swap1\n      div\n      0xffffffffffffffffffffffffffffffffffffffff\n      and\n      dup2\n      jump\t// out\n        /* \"contracts/Park.sol\":1705:1832  function transferBird(uint256 birdId, address newOwner) external {... */\n    tag_33:\n        /* \"contracts/Park.sol\":1781:1793  ptakContract */\n      0x00\n      0x00\n      swap1\n      sload\n      swap1\n      0x0100\n      exp\n      swap1\n      div\n      0xffffffffffffffffffffffffffffffffffffffff\n      and\n        /* \"contracts/Park.sol\":1781:1806  ptakContract.transferBird */\n      0xffffffffffffffffffffffffffffffffffffffff\n      and\n      0x8c652f95\n        /* \"contracts/Park.sol\":1807:1813  birdId */\n      dup4\n        /* \"contracts/Park.sol\":1815:1823  newOwner */\n      dup4\n        /* \"contracts/Park.sol\":1781:1824  ptakContract.transferBird(birdId, newOwner) */\n      mload(0x40)\n      dup4\n      0xffffffff\n      and\n      0xe0\n      shl\n      dup2\n      mstore\n      0x04\n      add\n      tag_97\n      swap3\n      swap2\n      swap1\n      tag_98\n      jump\t// in\n    tag_97:\n      0x00\n      mload(0x40)\n      dup1\n      dup4\n      sub\n      dup2\n      0x00\n      dup8\n      dup1\n      extcodesize\n      iszero\n      dup1\n      iszero\n      tag_99\n      jumpi\n      revert(0x00, 0x00)\n    tag_99:\n      pop\n      gas\n      call\n      iszero\n      dup1\n      iszero\n      tag_101\n      jumpi\n      returndatacopy(0x00, 0x00, returndatasize)\n      revert(0x00, returndatasize)\n    tag_101:\n      pop\n      pop\n      pop\n      pop\n        /* \"contracts/Park.sol\":1705:1832  function transferBird(uint256 birdId, address newOwner) external {... */\n      pop\n      pop\n      jump\t// out\n        /* \"contracts/Park.sol\":171:191  address public owner */\n    tag_36:\n      0x01\n      0x00\n      swap1\n      sload\n      swap1\n      0x0100\n      exp\n      swap1\n      div\n      0xffffffffffffffffffffffffffffffffffffffff\n      and\n      dup2\n      jump\t// out\n        /* \"contracts/Park.sol\":1944:2711  function mintRegularBird(SpeciesLibrary.Species species) external payable {... */\n    tag_42:\n        /* \"contracts/Park.sol\":2029:2042  uint256 price */\n      0x00\n        /* \"contracts/Park.sol\":2045:2084  SpeciesLibrary.getSpeciesPrice(species) */\n      tag_103\n        /* \"contracts/Park.sol\":2076:2083  species */\n      dup3\n        /* \"contracts/Park.sol\":2045:2075  SpeciesLibrary.getSpeciesPrice */\n      tag_62\n        /* \"contracts/Park.sol\":2045:2084  SpeciesLibrary.getSpeciesPrice(species) */\n      jump\t// in\n    tag_103:\n        /* \"contracts/Park.sol\":2029:2084  uint256 price = SpeciesLibrary.getSpeciesPrice(species) */\n      swap1\n      pop\n        /* \"contracts/Park.sol\":2116:2121  price */\n      dup1\n        /* \"contracts/Park.sol\":2103:2112  msg.value */\n      callvalue\n        /* \"contracts/Park.sol\":2103:2121  msg.value >= price */\n      lt\n      iszero\n        /* \"contracts/Park.sol\":2095:2161  require(msg.value >= price, \"Not enough ETH to mint this species\") */\n      tag_104\n      jumpi\n      mload(0x40)\n      0x08c379a000000000000000000000000000000000000000000000000000000000\n      dup2\n      mstore\n      0x04\n      add\n      tag_105\n      swap1\n      tag_106\n      jump\t// in\n    tag_105:\n      mload(0x40)\n      dup1\n      swap2\n      sub\n      swap1\n      revert\n    tag_104:\n        /* \"contracts/Park.sol\":2174:2188  uint256 birdId */\n      0x00\n        /* \"contracts/Park.sol\":2199:2235  SpeciesLibrary.Species mintedSpecies */\n      0x00\n        /* \"contracts/Park.sol\":2248:2260  uint256 rand */\n      0x00\n        /* \"contracts/Park.sol\":2331:2335  1000 */\n      0x03e8\n        /* \"contracts/Park.sol\":2298:2313  block.timestamp */\n      timestamp\n        /* \"contracts/Park.sol\":2315:2325  msg.sender */\n      caller\n        /* \"contracts/Park.sol\":2281:2326  abi.encodePacked(block.timestamp, msg.sender) */\n      add(0x20, mload(0x40))\n      tag_107\n      swap3\n      swap2\n      swap1\n      tag_108\n      jump\t// in\n    tag_107:\n      mload(0x40)\n      0x20\n      dup2\n      dup4\n      sub\n      sub\n      dup2\n      mstore\n      swap1\n      0x40\n      mstore\n        /* \"contracts/Park.sol\":2271:2327  keccak256(abi.encodePacked(block.timestamp, msg.sender)) */\n      dup1\n      mload\n      swap1\n      0x20\n      add\n      keccak256\n        /* \"contracts/Park.sol\":2263:2328  uint256(keccak256(abi.encodePacked(block.timestamp, msg.sender))) */\n      0x00\n      shr\n        /* \"contracts/Park.sol\":2263:2335  uint256(keccak256(abi.encodePacked(block.timestamp, msg.sender))) % 1000 */\n      tag_109\n      swap2\n      swap1\n      tag_110\n      jump\t// in\n    tag_109:\n        /* \"contracts/Park.sol\":2248:2335  uint256 rand = uint256(keccak256(abi.encodePacked(block.timestamp, msg.sender))) % 1000 */\n      swap1\n      pop\n        /* \"contracts/Park.sol\":2356:2358  10 */\n      0x0a\n        /* \"contracts/Park.sol\":2349:2353  rand */\n      dup2\n        /* \"contracts/Park.sol\":2349:2358  rand < 10 */\n      lt\n        /* \"contracts/Park.sol\":2346:2642  if(rand < 10) { // 1% szans... */\n      iszero\n      tag_111\n      jumpi\n        /* \"contracts/Park.sol\":2396:2408  ptakContract */\n      0x00\n      0x00\n      swap1\n      sload\n      swap1\n      0x0100\n      exp\n      swap1\n      div\n      0xffffffffffffffffffffffffffffffffffffffff\n      and\n        /* \"contracts/Park.sol\":2396:2417  ptakContract.mintBird */\n      0xffffffffffffffffffffffffffffffffffffffff\n      and\n      0x4d2d7881\n        /* \"contracts/Park.sol\":2418:2449  SpeciesLibrary.Species.Mythical */\n      0x0a\n        /* \"contracts/Park.sol\":2396:2450  ptakContract.mintBird(SpeciesLibrary.Species.Mythical) */\n      mload(0x40)\n      dup3\n      0xffffffff\n      and\n      0xe0\n      shl\n      dup2\n      mstore\n      0x04\n      add\n      tag_112\n      swap2\n      swap1\n      tag_113\n      jump\t// in\n    tag_112:\n      0x20\n      mload(0x40)\n      dup1\n      dup4\n      sub\n      dup2\n      0x00\n      dup8\n      gas\n      call\n      iszero\n      dup1\n      iszero\n      tag_115\n      jumpi\n      returndatacopy(0x00, 0x00, returndatasize)\n      revert(0x00, returndatasize)\n    tag_115:\n      pop\n      pop\n      pop\n      pop\n      mload(0x40)\n      returndatasize\n      not(0x1f)\n      0x1f\n      dup3\n      add\n      and\n      dup3\n      add\n      dup1\n      0x40\n      mstore\n      pop\n      dup2\n      add\n      swap1\n      tag_116\n      swap2\n      swap1\n      tag_117\n      jump\t// in\n    tag_116:\n        /* \"contracts/Park.sol\":2387:2450  birdId = ptakContract.mintBird(SpeciesLibrary.Species.Mythical) */\n      swap3\n      pop\n        /* \"contracts/Park.sol\":2481:2512  SpeciesLibrary.Species.Mythical */\n      0x0a\n        /* \"contracts/Park.sol\":2465:2512  mintedSpecies = SpeciesLibrary.Species.Mythical */\n      swap2\n      pop\n        /* \"contracts/Park.sol\":2346:2642  if(rand < 10) { // 1% szans... */\n      jump(tag_118)\n    tag_111:\n        /* \"contracts/Park.sol\":2562:2574  ptakContract */\n      0x00\n      0x00\n      swap1\n      sload\n      swap1\n      0x0100\n      exp\n      swap1\n      div\n      0xffffffffffffffffffffffffffffffffffffffff\n      and\n        /* \"contracts/Park.sol\":2562:2583  ptakContract.mintBird */\n      0xffffffffffffffffffffffffffffffffffffffff\n      and\n      0x4d2d7881\n        /* \"contracts/Park.sol\":2584:2591  species */\n      dup7\n        /* \"contracts/Park.sol\":2562:2592  ptakContract.mintBird(species) */\n      mload(0x40)\n      dup3\n      0xffffffff\n      and\n      0xe0\n      shl\n      dup2\n      mstore\n      0x04\n      add\n      tag_119\n      swap2\n      swap1\n      tag_113\n      jump\t// in\n    tag_119:\n      0x20\n      mload(0x40)\n      dup1\n      dup4\n      sub\n      dup2\n      0x00\n      dup8\n      gas\n      call\n      iszero\n      dup1\n      iszero\n      tag_121\n      jumpi\n      returndatacopy(0x00, 0x00, returndatasize)\n      revert(0x00, returndatasize)\n    tag_121:\n      pop\n      pop\n      pop\n      pop\n      mload(0x40)\n      returndatasize\n      not(0x1f)\n      0x1f\n      dup3\n      add\n      and\n      dup3\n      add\n      dup1\n      0x40\n      mstore\n      pop\n      dup2\n      add\n      swap1\n      tag_122\n      swap2\n      swap1\n      tag_117\n      jump\t// in\n    tag_122:\n        /* \"contracts/Park.sol\":2553:2592  birdId = ptakContract.mintBird(species) */\n      swap3\n      pop\n        /* \"contracts/Park.sol\":2623:2630  species */\n      dup5\n        /* \"contracts/Park.sol\":2607:2630  mintedSpecies = species */\n      swap2\n      pop\n        /* \"contracts/Park.sol\":2346:2642  if(rand < 10) { // 1% szans... */\n    tag_118:\n        /* \"contracts/Park.sol\":2693:2702  tx.origin */\n      origin\n        /* \"contracts/Park.sol\":2659:2703  BirdMinted(birdId, mintedSpecies, tx.origin) */\n      0xffffffffffffffffffffffffffffffffffffffff\n      and\n        /* \"contracts/Park.sol\":2670:2676  birdId */\n      dup4\n        /* \"contracts/Park.sol\":2659:2703  BirdMinted(birdId, mintedSpecies, tx.origin) */\n      0x3c69fbc401a0ac60517668ae5a88e1bd67657ee3e51cd1b6eddccf7b6b64776a\n        /* \"contracts/Park.sol\":2678:2691  mintedSpecies */\n      dup5\n        /* \"contracts/Park.sol\":2659:2703  BirdMinted(birdId, mintedSpecies, tx.origin) */\n      mload(0x40)\n      tag_123\n      swap2\n      swap1\n      tag_113\n      jump\t// in\n    tag_123:\n      mload(0x40)\n      dup1\n      swap2\n      sub\n      swap1\n      log3\n        /* \"contracts/Park.sol\":2018:2711  {... */\n      pop\n      pop\n      pop\n      pop\n        /* \"contracts/Park.sol\":1944:2711  function mintRegularBird(SpeciesLibrary.Species species) external payable {... */\n      pop\n      jump\t// out\n        /* \"contracts/Park.sol\":655:827  function buyInsurance(uint256 birdId) external payable {... */\n    tag_45:\n        /* \"contracts/Park.sol\":742:752  0.02 ether */\n      0x470de4df820000\n        /* \"contracts/Park.sol\":729:738  msg.value */\n      callvalue\n        /* \"contracts/Park.sol\":729:752  msg.value >= 0.02 ether */\n      lt\n      iszero\n        /* \"contracts/Park.sol\":721:781  require(msg.value >= 0.02 ether, \"Insurance costs 0.02 ETH\") */\n      tag_125\n      jumpi\n      mload(0x40)\n      0x08c379a000000000000000000000000000000000000000000000000000000000\n      dup2\n      mstore\n      0x04\n      add\n      tag_126\n      swap1\n      tag_127\n      jump\t// in\n    tag_126:\n      mload(0x40)\n      dup1\n      swap2\n      sub\n      swap1\n      revert\n    tag_125:\n        /* \"contracts/Park.sol\":792:804  ptakContract */\n      0x00\n      0x00\n      swap1\n      sload\n      swap1\n      0x0100\n      exp\n      swap1\n      div\n      0xffffffffffffffffffffffffffffffffffffffff\n      and\n        /* \"contracts/Park.sol\":792:811  ptakContract.insure */\n      0xffffffffffffffffffffffffffffffffffffffff\n      and\n      0x49b1a0bf\n        /* \"contracts/Park.sol\":812:818  birdId */\n      dup3\n        /* \"contracts/Park.sol\":792:819  ptakContract.insure(birdId) */\n      mload(0x40)\n      dup3\n      0xffffffff\n      and\n      0xe0\n      shl\n      dup2\n      mstore\n      0x04\n      add\n      tag_128\n      swap2\n      swap1\n      tag_53\n      jump\t// in\n    tag_128:\n      0x00\n      mload(0x40)\n      dup1\n      dup4\n      sub\n      dup2\n      0x00\n      dup8\n      dup1\n      extcodesize\n      iszero\n      dup1\n      iszero\n      tag_129\n      jumpi\n      revert(0x00, 0x00)\n    tag_129:\n      pop\n      gas\n      call\n      iszero\n      dup1\n      iszero\n      tag_131\n      jumpi\n      returndatacopy(0x00, 0x00, returndatasize)\n      revert(0x00, returndatasize)\n    tag_131:\n      pop\n      pop\n      pop\n      pop\n        /* \"contracts/Park.sol\":655:827  function buyInsurance(uint256 birdId) external payable {... */\n      pop\n      jump\t// out\n        /* \"contracts/Park.sol\":477:647  function healBird(uint256 birdId) external payable {... */\n    tag_48:\n        /* \"contracts/Park.sol\":560:571  0.005 ether */\n      0x11c37937e08000\n        /* \"contracts/Park.sol\":547:556  msg.value */\n      callvalue\n        /* \"contracts/Park.sol\":547:571  msg.value >= 0.005 ether */\n      lt\n      iszero\n        /* \"contracts/Park.sol\":539:599  require(msg.value >= 0.005 ether, \"Healing costs 0.005 ETH\") */\n      tag_133\n      jumpi\n      mload(0x40)\n      0x08c379a000000000000000000000000000000000000000000000000000000000\n      dup2\n      mstore\n      0x04\n      add\n      tag_134\n      swap1\n      tag_135\n      jump\t// in\n    tag_134:\n      mload(0x40)\n      dup1\n      swap2\n      sub\n      swap1\n      revert\n    tag_133:\n        /* \"contracts/Park.sol\":610:622  ptakContract */\n      0x00\n      0x00\n      swap1\n      sload\n      swap1\n      0x0100\n      exp\n      swap1\n      div\n      0xffffffffffffffffffffffffffffffffffffffff\n      and\n        /* \"contracts/Park.sol\":610:631  ptakContract.healBird */\n      0xffffffffffffffffffffffffffffffffffffffff\n      and\n      0xbff998f4\n        /* \"contracts/Park.sol\":632:638  birdId */\n      dup3\n        /* \"contracts/Park.sol\":610:639  ptakContract.healBird(birdId) */\n      mload(0x40)\n      dup3\n      0xffffffff\n      and\n      0xe0\n      shl\n      dup2\n      mstore\n      0x04\n      add\n      tag_136\n      swap2\n      swap1\n      tag_53\n      jump\t// in\n    tag_136:\n      0x00\n      mload(0x40)\n      dup1\n      dup4\n      sub\n      dup2\n      0x00\n      dup8\n      dup1\n      extcodesize\n      iszero\n      dup1\n      iszero\n      tag_137\n      jumpi\n      revert(0x00, 0x00)\n    tag_137:\n      pop\n      gas\n      call\n      iszero\n      dup1\n      iszero\n      tag_139\n      jumpi\n      returndatacopy(0x00, 0x00, returndatasize)\n      revert(0x00, returndatasize)\n    tag_139:\n      pop\n      pop\n      pop\n      pop\n        /* \"contracts/Park.sol\":477:647  function healBird(uint256 birdId) external payable {... */\n      pop\n      jump\t// out\n        /* \"contracts/Park.sol\":2719:2956  function mintLegendaryBird() external payable {... */\n    tag_50:\n        /* \"contracts/Park.sol\":2776:2789  uint256 price */\n      0x00\n        /* \"contracts/Park.sol\":2792:2801  0.2 ether */\n      0x02c68af0bb140000\n        /* \"contracts/Park.sol\":2776:2801  uint256 price = 0.2 ether */\n      swap1\n      pop\n        /* \"contracts/Park.sol\":2833:2838  price */\n      dup1\n        /* \"contracts/Park.sol\":2820:2829  msg.value */\n      callvalue\n        /* \"contracts/Park.sol\":2820:2838  msg.value >= price */\n      lt\n      iszero\n        /* \"contracts/Park.sol\":2812:2879  require(msg.value >= price, \"Not enough ETH to mint mythical bird\") */\n      tag_141\n      jumpi\n      mload(0x40)\n      0x08c379a000000000000000000000000000000000000000000000000000000000\n      dup2\n      mstore\n      0x04\n      add\n      tag_142\n      swap1\n      tag_143\n      jump\t// in\n    tag_142:\n      mload(0x40)\n      dup1\n      swap2\n      sub\n      swap1\n      revert\n    tag_141:\n        /* \"contracts/Park.sol\":2894:2906  ptakContract */\n      0x00\n      0x00\n      swap1\n      sload\n      swap1\n      0x0100\n      exp\n      swap1\n      div\n      0xffffffffffffffffffffffffffffffffffffffff\n      and\n        /* \"contracts/Park.sol\":2894:2915  ptakContract.mintBird */\n      0xffffffffffffffffffffffffffffffffffffffff\n      and\n      0x4d2d7881\n        /* \"contracts/Park.sol\":2916:2947  SpeciesLibrary.Species.Mythical */\n      0x0a\n        /* \"contracts/Park.sol\":2894:2948  ptakContract.mintBird(SpeciesLibrary.Species.Mythical) */\n      mload(0x40)\n      dup3\n      0xffffffff\n      and\n      0xe0\n      shl\n      dup2\n      mstore\n      0x04\n      add\n      tag_144\n      swap2\n      swap1\n      tag_113\n      jump\t// in\n    tag_144:\n      0x20\n      mload(0x40)\n      dup1\n      dup4\n      sub\n      dup2\n      0x00\n      dup8\n      gas\n      call\n      iszero\n      dup1\n      iszero\n      tag_146\n      jumpi\n      returndatacopy(0x00, 0x00, returndatasize)\n      revert(0x00, returndatasize)\n    tag_146:\n      pop\n      pop\n      pop\n      pop\n      mload(0x40)\n      returndatasize\n      not(0x1f)\n      0x1f\n      dup3\n      add\n      and\n      dup3\n      add\n      dup1\n      0x40\n      mstore\n      pop\n      dup2\n      add\n      swap1\n      tag_147\n      swap2\n      swap1\n      tag_117\n      jump\t// in\n    tag_147:\n      pop\n        /* \"contracts/Park.sol\":2765:2956  {... */\n      pop\n        /* \"contracts/Park.sol\":2719:2956  function mintLegendaryBird() external payable {... */\n      jump\t// out\n        /* \"contracts/SpeciesLibrary.sol\":544:1353  function getSpeciesPrice(Species species) internal pure returns (uint256) {... */\n    tag_62:\n        /* \"contracts/SpeciesLibrary.sol\":609:616  uint256 */\n      0x00\n        /* \"contracts/SpeciesLibrary.sol\":644:660  Species.MuteSwan */\n      0x00\n        /* \"contracts/SpeciesLibrary.sol\":633:660  species == Species.MuteSwan */\n      0x0a\n      dup2\n      gt\n      iszero\n      tag_149\n      jumpi\n      tag_150\n      tag_151\n      jump\t// in\n    tag_150:\n    tag_149:\n        /* \"contracts/SpeciesLibrary.sol\":633:640  species */\n      dup3\n        /* \"contracts/SpeciesLibrary.sol\":633:660  species == Species.MuteSwan */\n      0x0a\n      dup2\n      gt\n      iszero\n      tag_152\n      jumpi\n      tag_153\n      tag_151\n      jump\t// in\n    tag_153:\n    tag_152:\n      sub\n        /* \"contracts/SpeciesLibrary.sol\":629:679  if (species == Species.MuteSwan) return 0.05 ether */\n      tag_154\n      jumpi\n        /* \"contracts/SpeciesLibrary.sol\":669:679  0.05 ether */\n      0xb1a2bc2ec50000\n        /* \"contracts/SpeciesLibrary.sol\":662:679  return 0.05 ether */\n      swap1\n      pop\n      jump(tag_148)\n        /* \"contracts/SpeciesLibrary.sol\":629:679  if (species == Species.MuteSwan) return 0.05 ether */\n    tag_154:\n        /* \"contracts/SpeciesLibrary.sol\":705:723  Species.WhiteStork */\n      0x01\n        /* \"contracts/SpeciesLibrary.sol\":694:723  species == Species.WhiteStork */\n      0x0a\n      dup2\n      gt\n      iszero\n      tag_155\n      jumpi\n      tag_156\n      tag_151\n      jump\t// in\n    tag_156:\n    tag_155:\n        /* \"contracts/SpeciesLibrary.sol\":694:701  species */\n      dup3\n        /* \"contracts/SpeciesLibrary.sol\":694:723  species == Species.WhiteStork */\n      0x0a\n      dup2\n      gt\n      iszero\n      tag_157\n      jumpi\n      tag_158\n      tag_151\n      jump\t// in\n    tag_158:\n    tag_157:\n      sub\n        /* \"contracts/SpeciesLibrary.sol\":690:742  if (species == Species.WhiteStork) return 0.05 ether */\n      tag_159\n      jumpi\n        /* \"contracts/SpeciesLibrary.sol\":732:742  0.05 ether */\n      0xb1a2bc2ec50000\n        /* \"contracts/SpeciesLibrary.sol\":725:742  return 0.05 ether */\n      swap1\n      pop\n      jump(tag_148)\n        /* \"contracts/SpeciesLibrary.sol\":690:742  if (species == Species.WhiteStork) return 0.05 ether */\n    tag_159:\n        /* \"contracts/SpeciesLibrary.sol\":768:787  Species.MallardDuck */\n      0x02\n        /* \"contracts/SpeciesLibrary.sol\":757:787  species == Species.MallardDuck */\n      0x0a\n      dup2\n      gt\n      iszero\n      tag_160\n      jumpi\n      tag_161\n      tag_151\n      jump\t// in\n    tag_161:\n    tag_160:\n        /* \"contracts/SpeciesLibrary.sol\":757:764  species */\n      dup3\n        /* \"contracts/SpeciesLibrary.sol\":757:787  species == Species.MallardDuck */\n      0x0a\n      dup2\n      gt\n      iszero\n      tag_162\n      jumpi\n      tag_163\n      tag_151\n      jump\t// in\n    tag_163:\n    tag_162:\n      sub\n        /* \"contracts/SpeciesLibrary.sol\":753:806  if (species == Species.MallardDuck) return 0.02 ether */\n      tag_164\n      jumpi\n        /* \"contracts/SpeciesLibrary.sol\":796:806  0.02 ether */\n      0x470de4df820000\n        /* \"contracts/SpeciesLibrary.sol\":789:806  return 0.02 ether */\n      swap1\n      pop\n      jump(tag_148)\n        /* \"contracts/SpeciesLibrary.sol\":753:806  if (species == Species.MallardDuck) return 0.02 ether */\n    tag_164:\n        /* \"contracts/SpeciesLibrary.sol\":832:849  Species.GreyHeron */\n      0x03\n        /* \"contracts/SpeciesLibrary.sol\":821:849  species == Species.GreyHeron */\n      0x0a\n      dup2\n      gt\n      iszero\n      tag_165\n      jumpi\n      tag_166\n      tag_151\n      jump\t// in\n    tag_166:\n    tag_165:\n        /* \"contracts/SpeciesLibrary.sol\":821:828  species */\n      dup3\n        /* \"contracts/SpeciesLibrary.sol\":821:849  species == Species.GreyHeron */\n      0x0a\n      dup2\n      gt\n      iszero\n      tag_167\n      jumpi\n      tag_168\n      tag_151\n      jump\t// in\n    tag_168:\n    tag_167:\n      sub\n        /* \"contracts/SpeciesLibrary.sol\":817:868  if (species == Species.GreyHeron) return 0.03 ether */\n      tag_169\n      jumpi\n        /* \"contracts/SpeciesLibrary.sol\":858:868  0.03 ether */\n      0x6a94d74f430000\n        /* \"contracts/SpeciesLibrary.sol\":851:868  return 0.03 ether */\n      swap1\n      pop\n      jump(tag_148)\n        /* \"contracts/SpeciesLibrary.sol\":817:868  if (species == Species.GreyHeron) return 0.03 ether */\n    tag_169:\n        /* \"contracts/SpeciesLibrary.sol\":894:916  Species.RedNeckedGrebe */\n      0x04\n        /* \"contracts/SpeciesLibrary.sol\":883:916  species == Species.RedNeckedGrebe */\n      0x0a\n      dup2\n      gt\n      iszero\n      tag_170\n      jumpi\n      tag_171\n      tag_151\n      jump\t// in\n    tag_171:\n    tag_170:\n        /* \"contracts/SpeciesLibrary.sol\":883:890  species */\n      dup3\n        /* \"contracts/SpeciesLibrary.sol\":883:916  species == Species.RedNeckedGrebe */\n      0x0a\n      dup2\n      gt\n      iszero\n      tag_172\n      jumpi\n      tag_173\n      tag_151\n      jump\t// in\n    tag_173:\n    tag_172:\n      sub\n        /* \"contracts/SpeciesLibrary.sol\":879:936  if (species == Species.RedNeckedGrebe) return 0.018 ether */\n      tag_174\n      jumpi\n        /* \"contracts/SpeciesLibrary.sol\":925:936  0.018 ether */\n      0x3ff2e795f50000\n        /* \"contracts/SpeciesLibrary.sol\":918:936  return 0.018 ether */\n      swap1\n      pop\n      jump(tag_148)\n        /* \"contracts/SpeciesLibrary.sol\":879:936  if (species == Species.RedNeckedGrebe) return 0.018 ether */\n    tag_174:\n        /* \"contracts/SpeciesLibrary.sol\":962:979  Species.WaterRail */\n      0x05\n        /* \"contracts/SpeciesLibrary.sol\":951:979  species == Species.WaterRail */\n      0x0a\n      dup2\n      gt\n      iszero\n      tag_175\n      jumpi\n      tag_176\n      tag_151\n      jump\t// in\n    tag_176:\n    tag_175:\n        /* \"contracts/SpeciesLibrary.sol\":951:958  species */\n      dup3\n        /* \"contracts/SpeciesLibrary.sol\":951:979  species == Species.WaterRail */\n      0x0a\n      dup2\n      gt\n      iszero\n      tag_177\n      jumpi\n      tag_178\n      tag_151\n      jump\t// in\n    tag_178:\n    tag_177:\n      sub\n        /* \"contracts/SpeciesLibrary.sol\":947:998  if (species == Species.WaterRail) return 0.01 ether */\n      tag_179\n      jumpi\n        /* \"contracts/SpeciesLibrary.sol\":988:998  0.01 ether */\n      0x2386f26fc10000\n        /* \"contracts/SpeciesLibrary.sol\":981:998  return 0.01 ether */\n      swap1\n      pop\n      jump(tag_148)\n        /* \"contracts/SpeciesLibrary.sol\":947:998  if (species == Species.WaterRail) return 0.01 ether */\n    tag_179:\n        /* \"contracts/SpeciesLibrary.sol\":1024:1042  Species.CommonTern */\n      0x06\n        /* \"contracts/SpeciesLibrary.sol\":1013:1042  species == Species.CommonTern */\n      0x0a\n      dup2\n      gt\n      iszero\n      tag_180\n      jumpi\n      tag_181\n      tag_151\n      jump\t// in\n    tag_181:\n    tag_180:\n        /* \"contracts/SpeciesLibrary.sol\":1013:1020  species */\n      dup3\n        /* \"contracts/SpeciesLibrary.sol\":1013:1042  species == Species.CommonTern */\n      0x0a\n      dup2\n      gt\n      iszero\n      tag_182\n      jumpi\n      tag_183\n      tag_151\n      jump\t// in\n    tag_183:\n    tag_182:\n      sub\n        /* \"contracts/SpeciesLibrary.sol\":1009:1061  if (species == Species.CommonTern) return 0.01 ether */\n      tag_184\n      jumpi\n        /* \"contracts/SpeciesLibrary.sol\":1051:1061  0.01 ether */\n      0x2386f26fc10000\n        /* \"contracts/SpeciesLibrary.sol\":1044:1061  return 0.01 ether */\n      swap1\n      pop\n      jump(tag_148)\n        /* \"contracts/SpeciesLibrary.sol\":1009:1061  if (species == Species.CommonTern) return 0.01 ether */\n    tag_184:\n        /* \"contracts/SpeciesLibrary.sol\":1087:1104  Species.Goosander */\n      0x07\n        /* \"contracts/SpeciesLibrary.sol\":1076:1104  species == Species.Goosander */\n      0x0a\n      dup2\n      gt\n      iszero\n      tag_185\n      jumpi\n      tag_186\n      tag_151\n      jump\t// in\n    tag_186:\n    tag_185:\n        /* \"contracts/SpeciesLibrary.sol\":1076:1083  species */\n      dup3\n        /* \"contracts/SpeciesLibrary.sol\":1076:1104  species == Species.Goosander */\n      0x0a\n      dup2\n      gt\n      iszero\n      tag_187\n      jumpi\n      tag_188\n      tag_151\n      jump\t// in\n    tag_188:\n    tag_187:\n      sub\n        /* \"contracts/SpeciesLibrary.sol\":1072:1124  if (species == Species.Goosander) return 0.012 ether */\n      tag_189\n      jumpi\n        /* \"contracts/SpeciesLibrary.sol\":1113:1124  0.012 ether */\n      0x2aa1efb94e0000\n        /* \"contracts/SpeciesLibrary.sol\":1106:1124  return 0.012 ether */\n      swap1\n      pop\n      jump(tag_148)\n        /* \"contracts/SpeciesLibrary.sol\":1072:1124  if (species == Species.Goosander) return 0.012 ether */\n    tag_189:\n        /* \"contracts/SpeciesLibrary.sol\":1150:1170  Species.GreylagGoose */\n      0x08\n        /* \"contracts/SpeciesLibrary.sol\":1139:1170  species == Species.GreylagGoose */\n      0x0a\n      dup2\n      gt\n      iszero\n      tag_190\n      jumpi\n      tag_191\n      tag_151\n      jump\t// in\n    tag_191:\n    tag_190:\n        /* \"contracts/SpeciesLibrary.sol\":1139:1146  species */\n      dup3\n        /* \"contracts/SpeciesLibrary.sol\":1139:1170  species == Species.GreylagGoose */\n      0x0a\n      dup2\n      gt\n      iszero\n      tag_192\n      jumpi\n      tag_193\n      tag_151\n      jump\t// in\n    tag_193:\n    tag_192:\n      sub\n        /* \"contracts/SpeciesLibrary.sol\":1135:1189  if (species == Species.GreylagGoose) return 0.04 ether */\n      tag_194\n      jumpi\n        /* \"contracts/SpeciesLibrary.sol\":1179:1189  0.04 ether */\n      0x8e1bc9bf040000\n        /* \"contracts/SpeciesLibrary.sol\":1172:1189  return 0.04 ether */\n      swap1\n      pop\n      jump(tag_148)\n        /* \"contracts/SpeciesLibrary.sol\":1135:1189  if (species == Species.GreylagGoose) return 0.04 ether */\n    tag_194:\n        /* \"contracts/SpeciesLibrary.sol\":1215:1230  Species.Moorhen */\n      0x09\n        /* \"contracts/SpeciesLibrary.sol\":1204:1230  species == Species.Moorhen */\n      0x0a\n      dup2\n      gt\n      iszero\n      tag_195\n      jumpi\n      tag_196\n      tag_151\n      jump\t// in\n    tag_196:\n    tag_195:\n        /* \"contracts/SpeciesLibrary.sol\":1204:1211  species */\n      dup3\n        /* \"contracts/SpeciesLibrary.sol\":1204:1230  species == Species.Moorhen */\n      0x0a\n      dup2\n      gt\n      iszero\n      tag_197\n      jumpi\n      tag_198\n      tag_151\n      jump\t// in\n    tag_198:\n    tag_197:\n      sub\n        /* \"contracts/SpeciesLibrary.sol\":1200:1249  if (species == Species.Moorhen) return 0.01 ether */\n      tag_199\n      jumpi\n        /* \"contracts/SpeciesLibrary.sol\":1239:1249  0.01 ether */\n      0x2386f26fc10000\n        /* \"contracts/SpeciesLibrary.sol\":1232:1249  return 0.01 ether */\n      swap1\n      pop\n      jump(tag_148)\n        /* \"contracts/SpeciesLibrary.sol\":1200:1249  if (species == Species.Moorhen) return 0.01 ether */\n    tag_199:\n        /* \"contracts/SpeciesLibrary.sol\":1275:1291  Species.Mythical */\n      0x0a\n        /* \"contracts/SpeciesLibrary.sol\":1264:1291  species == Species.Mythical */\n      dup1\n      dup2\n      gt\n      iszero\n      tag_200\n      jumpi\n      tag_201\n      tag_151\n      jump\t// in\n    tag_201:\n    tag_200:\n        /* \"contracts/SpeciesLibrary.sol\":1264:1271  species */\n      dup3\n        /* \"contracts/SpeciesLibrary.sol\":1264:1291  species == Species.Mythical */\n      0x0a\n      dup2\n      gt\n      iszero\n      tag_202\n      jumpi\n      tag_203\n      tag_151\n      jump\t// in\n    tag_203:\n    tag_202:\n      sub\n        /* \"contracts/SpeciesLibrary.sol\":1260:1309  if (species == Species.Mythical) return 0.2 ether */\n      tag_204\n      jumpi\n        /* \"contracts/SpeciesLibrary.sol\":1300:1309  0.2 ether */\n      0x02c68af0bb140000\n        /* \"contracts/SpeciesLibrary.sol\":1293:1309  return 0.2 ether */\n      swap1\n      pop\n      jump(tag_148)\n        /* \"contracts/SpeciesLibrary.sol\":1260:1309  if (species == Species.Mythical) return 0.2 ether */\n    tag_204:\n        /* \"contracts/SpeciesLibrary.sol\":1320:1345  revert(\"Unknown species\") */\n      mload(0x40)\n      0x08c379a000000000000000000000000000000000000000000000000000000000\n      dup2\n      mstore\n      0x04\n      add\n      tag_205\n      swap1\n      tag_206\n      jump\t// in\n    tag_205:\n      mload(0x40)\n      dup1\n      swap2\n      sub\n      swap1\n      revert\n        /* \"contracts/SpeciesLibrary.sol\":544:1353  function getSpeciesPrice(Species species) internal pure returns (uint256) {... */\n    tag_148:\n      swap2\n      swap1\n      pop\n      jump\t// out\n        /* \"#utility.yul\":7:82   */\n    tag_207:\n        /* \"#utility.yul\":40:46   */\n      0x00\n        /* \"#utility.yul\":73:75   */\n      0x40\n        /* \"#utility.yul\":67:76   */\n      mload\n        /* \"#utility.yul\":57:76   */\n      swap1\n      pop\n        /* \"#utility.yul\":7:82   */\n      swap1\n      jump\t// out\n        /* \"#utility.yul\":88:205   */\n    tag_208:\n        /* \"#utility.yul\":197:198   */\n      0x00\n        /* \"#utility.yul\":194:195   */\n      0x00\n        /* \"#utility.yul\":187:199   */\n      revert\n        /* \"#utility.yul\":334:411   */\n    tag_210:\n        /* \"#utility.yul\":371:378   */\n      0x00\n        /* \"#utility.yul\":400:405   */\n      dup2\n        /* \"#utility.yul\":389:405   */\n      swap1\n      pop\n        /* \"#utility.yul\":334:411   */\n      swap2\n      swap1\n      pop\n      jump\t// out\n        /* \"#utility.yul\":417:539   */\n    tag_211:\n        /* \"#utility.yul\":490:514   */\n      tag_275\n        /* \"#utility.yul\":508:513   */\n      dup2\n        /* \"#utility.yul\":490:514   */\n      tag_210\n      jump\t// in\n    tag_275:\n        /* \"#utility.yul\":483:488   */\n      dup2\n        /* \"#utility.yul\":480:515   */\n      eq\n        /* \"#utility.yul\":470:533   */\n      tag_276\n      jumpi\n        /* \"#utility.yul\":529:530   */\n      0x00\n        /* \"#utility.yul\":526:527   */\n      0x00\n        /* \"#utility.yul\":519:531   */\n      revert\n        /* \"#utility.yul\":470:533   */\n    tag_276:\n        /* \"#utility.yul\":417:539   */\n      pop\n      jump\t// out\n        /* \"#utility.yul\":545:684   */\n    tag_212:\n        /* \"#utility.yul\":591:596   */\n      0x00\n        /* \"#utility.yul\":629:635   */\n      dup2\n        /* \"#utility.yul\":616:636   */\n      calldataload\n        /* \"#utility.yul\":607:636   */\n      swap1\n      pop\n        /* \"#utility.yul\":645:678   */\n      tag_278\n        /* \"#utility.yul\":672:677   */\n      dup2\n        /* \"#utility.yul\":645:678   */\n      tag_211\n      jump\t// in\n    tag_278:\n        /* \"#utility.yul\":545:684   */\n      swap3\n      swap2\n      pop\n      pop\n      jump\t// out\n        /* \"#utility.yul\":690:1019   */\n    tag_15:\n        /* \"#utility.yul\":749:755   */\n      0x00\n        /* \"#utility.yul\":798:800   */\n      0x20\n        /* \"#utility.yul\":786:795   */\n      dup3\n        /* \"#utility.yul\":777:784   */\n      dup5\n        /* \"#utility.yul\":773:796   */\n      sub\n        /* \"#utility.yul\":769:801   */\n      slt\n        /* \"#utility.yul\":766:885   */\n      iszero\n      tag_280\n      jumpi\n        /* \"#utility.yul\":804:883   */\n      tag_281\n      tag_208\n      jump\t// in\n    tag_281:\n        /* \"#utility.yul\":766:885   */\n    tag_280:\n        /* \"#utility.yul\":924:925   */\n      0x00\n        /* \"#utility.yul\":949:1002   */\n      tag_282\n        /* \"#utility.yul\":994:1001   */\n      dup5\n        /* \"#utility.yul\":985:991   */\n      dup3\n        /* \"#utility.yul\":974:983   */\n      dup6\n        /* \"#utility.yul\":970:992   */\n      add\n        /* \"#utility.yul\":949:1002   */\n      tag_212\n      jump\t// in\n    tag_282:\n        /* \"#utility.yul\":939:1002   */\n      swap2\n      pop\n        /* \"#utility.yul\":895:1012   */\n      pop\n        /* \"#utility.yul\":690:1019   */\n      swap3\n      swap2\n      pop\n      pop\n      jump\t// out\n        /* \"#utility.yul\":1025:1499   */\n    tag_19:\n        /* \"#utility.yul\":1093:1099   */\n      0x00\n        /* \"#utility.yul\":1101:1107   */\n      0x00\n        /* \"#utility.yul\":1150:1152   */\n      0x40\n        /* \"#utility.yul\":1138:1147   */\n      dup4\n        /* \"#utility.yul\":1129:1136   */\n      dup6\n        /* \"#utility.yul\":1125:1148   */\n      sub\n        /* \"#utility.yul\":1121:1153   */\n      slt\n        /* \"#utility.yul\":1118:1237   */\n      iszero\n      tag_284\n      jumpi\n        /* \"#utility.yul\":1156:1235   */\n      tag_285\n      tag_208\n      jump\t// in\n    tag_285:\n        /* \"#utility.yul\":1118:1237   */\n    tag_284:\n        /* \"#utility.yul\":1276:1277   */\n      0x00\n        /* \"#utility.yul\":1301:1354   */\n      tag_286\n        /* \"#utility.yul\":1346:1353   */\n      dup6\n        /* \"#utility.yul\":1337:1343   */\n      dup3\n        /* \"#utility.yul\":1326:1335   */\n      dup7\n        /* \"#utility.yul\":1322:1344   */\n      add\n        /* \"#utility.yul\":1301:1354   */\n      tag_212\n      jump\t// in\n    tag_286:\n        /* \"#utility.yul\":1291:1354   */\n      swap3\n      pop\n        /* \"#utility.yul\":1247:1364   */\n      pop\n        /* \"#utility.yul\":1403:1405   */\n      0x20\n        /* \"#utility.yul\":1429:1482   */\n      tag_287\n        /* \"#utility.yul\":1474:1481   */\n      dup6\n        /* \"#utility.yul\":1465:1471   */\n      dup3\n        /* \"#utility.yul\":1454:1463   */\n      dup7\n        /* \"#utility.yul\":1450:1472   */\n      add\n        /* \"#utility.yul\":1429:1482   */\n      tag_212\n      jump\t// in\n    tag_287:\n        /* \"#utility.yul\":1419:1482   */\n      swap2\n      pop\n        /* \"#utility.yul\":1374:1492   */\n      pop\n        /* \"#utility.yul\":1025:1499   */\n      swap3\n      pop\n      swap3\n      swap1\n      pop\n      jump\t// out\n        /* \"#utility.yul\":1505:1631   */\n    tag_213:\n        /* \"#utility.yul\":1542:1549   */\n      0x00\n        /* \"#utility.yul\":1582:1624   */\n      0xffffffffffffffffffffffffffffffffffffffff\n        /* \"#utility.yul\":1575:1580   */\n      dup3\n        /* \"#utility.yul\":1571:1625   */\n      and\n        /* \"#utility.yul\":1560:1625   */\n      swap1\n      pop\n        /* \"#utility.yul\":1505:1631   */\n      swap2\n      swap1\n      pop\n      jump\t// out\n        /* \"#utility.yul\":1637:1697   */\n    tag_214:\n        /* \"#utility.yul\":1665:1668   */\n      0x00\n        /* \"#utility.yul\":1686:1691   */\n      dup2\n        /* \"#utility.yul\":1679:1691   */\n      swap1\n      pop\n        /* \"#utility.yul\":1637:1697   */\n      swap2\n      swap1\n      pop\n      jump\t// out\n        /* \"#utility.yul\":1703:1845   */\n    tag_215:\n        /* \"#utility.yul\":1753:1762   */\n      0x00\n        /* \"#utility.yul\":1786:1839   */\n      tag_291\n        /* \"#utility.yul\":1804:1838   */\n      tag_292\n        /* \"#utility.yul\":1813:1837   */\n      tag_293\n        /* \"#utility.yul\":1831:1836   */\n      dup5\n        /* \"#utility.yul\":1813:1837   */\n      tag_213\n      jump\t// in\n    tag_293:\n        /* \"#utility.yul\":1804:1838   */\n      tag_214\n      jump\t// in\n    tag_292:\n        /* \"#utility.yul\":1786:1839   */\n      tag_213\n      jump\t// in\n    tag_291:\n        /* \"#utility.yul\":1773:1839   */\n      swap1\n      pop\n        /* \"#utility.yul\":1703:1845   */\n      swap2\n      swap1\n      pop\n      jump\t// out\n        /* \"#utility.yul\":1851:1977   */\n    tag_216:\n        /* \"#utility.yul\":1901:1910   */\n      0x00\n        /* \"#utility.yul\":1934:1971   */\n      tag_295\n        /* \"#utility.yul\":1965:1970   */\n      dup3\n        /* \"#utility.yul\":1934:1971   */\n      tag_215\n      jump\t// in\n    tag_295:\n        /* \"#utility.yul\":1921:1971   */\n      swap1\n      pop\n        /* \"#utility.yul\":1851:1977   */\n      swap2\n      swap1\n      pop\n      jump\t// out\n        /* \"#utility.yul\":1983:2121   */\n    tag_217:\n        /* \"#utility.yul\":2045:2054   */\n      0x00\n        /* \"#utility.yul\":2078:2115   */\n      tag_297\n        /* \"#utility.yul\":2109:2114   */\n      dup3\n        /* \"#utility.yul\":2078:2115   */\n      tag_216\n      jump\t// in\n    tag_297:\n        /* \"#utility.yul\":2065:2115   */\n      swap1\n      pop\n        /* \"#utility.yul\":1983:2121   */\n      swap2\n      swap1\n      pop\n      jump\t// out\n        /* \"#utility.yul\":2127:2282   */\n    tag_218:\n        /* \"#utility.yul\":2226:2275   */\n      tag_299\n        /* \"#utility.yul\":2269:2274   */\n      dup2\n        /* \"#utility.yul\":2226:2275   */\n      tag_217\n      jump\t// in\n    tag_299:\n        /* \"#utility.yul\":2221:2224   */\n      dup3\n        /* \"#utility.yul\":2214:2276   */\n      mstore\n        /* \"#utility.yul\":2127:2282   */\n      pop\n      pop\n      jump\t// out\n        /* \"#utility.yul\":2288:2534   */\n    tag_28:\n        /* \"#utility.yul\":2393:2397   */\n      0x00\n        /* \"#utility.yul\":2431:2433   */\n      0x20\n        /* \"#utility.yul\":2420:2429   */\n      dup3\n        /* \"#utility.yul\":2416:2434   */\n      add\n        /* \"#utility.yul\":2408:2434   */\n      swap1\n      pop\n        /* \"#utility.yul\":2444:2527   */\n      tag_301\n        /* \"#utility.yul\":2524:2525   */\n      0x00\n        /* \"#utility.yul\":2513:2522   */\n      dup4\n        /* \"#utility.yul\":2509:2526   */\n      add\n        /* \"#utility.yul\":2500:2506   */\n      dup5\n        /* \"#utility.yul\":2444:2527   */\n      tag_218\n      jump\t// in\n    tag_301:\n        /* \"#utility.yul\":2288:2534   */\n      swap3\n      swap2\n      pop\n      pop\n      jump\t// out\n        /* \"#utility.yul\":2540:2636   */\n    tag_219:\n        /* \"#utility.yul\":2577:2584   */\n      0x00\n        /* \"#utility.yul\":2606:2630   */\n      tag_303\n        /* \"#utility.yul\":2624:2629   */\n      dup3\n        /* \"#utility.yul\":2606:2630   */\n      tag_213\n      jump\t// in\n    tag_303:\n        /* \"#utility.yul\":2595:2630   */\n      swap1\n      pop\n        /* \"#utility.yul\":2540:2636   */\n      swap2\n      swap1\n      pop\n      jump\t// out\n        /* \"#utility.yul\":2642:2764   */\n    tag_220:\n        /* \"#utility.yul\":2715:2739   */\n      tag_305\n        /* \"#utility.yul\":2733:2738   */\n      dup2\n        /* \"#utility.yul\":2715:2739   */\n      tag_219\n      jump\t// in\n    tag_305:\n        /* \"#utility.yul\":2708:2713   */\n      dup2\n        /* \"#utility.yul\":2705:2740   */\n      eq\n        /* \"#utility.yul\":2695:2758   */\n      tag_306\n      jumpi\n        /* \"#utility.yul\":2754:2755   */\n      0x00\n        /* \"#utility.yul\":2751:2752   */\n      0x00\n        /* \"#utility.yul\":2744:2756   */\n      revert\n        /* \"#utility.yul\":2695:2758   */\n    tag_306:\n        /* \"#utility.yul\":2642:2764   */\n      pop\n      jump\t// out\n        /* \"#utility.yul\":2770:2909   */\n    tag_221:\n        /* \"#utility.yul\":2816:2821   */\n      0x00\n        /* \"#utility.yul\":2854:2860   */\n      dup2\n        /* \"#utility.yul\":2841:2861   */\n      calldataload\n        /* \"#utility.yul\":2832:2861   */\n      swap1\n      pop\n        /* \"#utility.yul\":2870:2903   */\n      tag_308\n        /* \"#utility.yul\":2897:2902   */\n      dup2\n        /* \"#utility.yul\":2870:2903   */\n      tag_220\n      jump\t// in\n    tag_308:\n        /* \"#utility.yul\":2770:2909   */\n      swap3\n      swap2\n      pop\n      pop\n      jump\t// out\n        /* \"#utility.yul\":2915:3389   */\n    tag_32:\n        /* \"#utility.yul\":2983:2989   */\n      0x00\n        /* \"#utility.yul\":2991:2997   */\n      0x00\n        /* \"#utility.yul\":3040:3042   */\n      0x40\n        /* \"#utility.yul\":3028:3037   */\n      dup4\n        /* \"#utility.yul\":3019:3026   */\n      dup6\n        /* \"#utility.yul\":3015:3038   */\n      sub\n        /* \"#utility.yul\":3011:3043   */\n      slt\n        /* \"#utility.yul\":3008:3127   */\n      iszero\n      tag_310\n      jumpi\n        /* \"#utility.yul\":3046:3125   */\n      tag_311\n      tag_208\n      jump\t// in\n    tag_311:\n        /* \"#utility.yul\":3008:3127   */\n    tag_310:\n        /* \"#utility.yul\":3166:3167   */\n      0x00\n        /* \"#utility.yul\":3191:3244   */\n      tag_312\n        /* \"#utility.yul\":3236:3243   */\n      dup6\n        /* \"#utility.yul\":3227:3233   */\n      dup3\n        /* \"#utility.yul\":3216:3225   */\n      dup7\n        /* \"#utility.yul\":3212:3234   */\n      add\n        /* \"#utility.yul\":3191:3244   */\n      tag_212\n      jump\t// in\n    tag_312:\n        /* \"#utility.yul\":3181:3244   */\n      swap3\n      pop\n        /* \"#utility.yul\":3137:3254   */\n      pop\n        /* \"#utility.yul\":3293:3295   */\n      0x20\n        /* \"#utility.yul\":3319:3372   */\n      tag_313\n        /* \"#utility.yul\":3364:3371   */\n      dup6\n        /* \"#utility.yul\":3355:3361   */\n      dup3\n        /* \"#utility.yul\":3344:3353   */\n      dup7\n        /* \"#utility.yul\":3340:3362   */\n      add\n        /* \"#utility.yul\":3319:3372   */\n      tag_221\n      jump\t// in\n    tag_313:\n        /* \"#utility.yul\":3309:3372   */\n      swap2\n      pop\n        /* \"#utility.yul\":3264:3382   */\n      pop\n        /* \"#utility.yul\":2915:3389   */\n      swap3\n      pop\n      swap3\n      swap1\n      pop\n      jump\t// out\n        /* \"#utility.yul\":3395:3513   */\n    tag_222:\n        /* \"#utility.yul\":3482:3506   */\n      tag_315\n        /* \"#utility.yul\":3500:3505   */\n      dup2\n        /* \"#utility.yul\":3482:3506   */\n      tag_219\n      jump\t// in\n    tag_315:\n        /* \"#utility.yul\":3477:3480   */\n      dup3\n        /* \"#utility.yul\":3470:3507   */\n      mstore\n        /* \"#utility.yul\":3395:3513   */\n      pop\n      pop\n      jump\t// out\n        /* \"#utility.yul\":3519:3741   */\n    tag_38:\n        /* \"#utility.yul\":3612:3616   */\n      0x00\n        /* \"#utility.yul\":3650:3652   */\n      0x20\n        /* \"#utility.yul\":3639:3648   */\n      dup3\n        /* \"#utility.yul\":3635:3653   */\n      add\n        /* \"#utility.yul\":3627:3653   */\n      swap1\n      pop\n        /* \"#utility.yul\":3663:3734   */\n      tag_317\n        /* \"#utility.yul\":3731:3732   */\n      0x00\n        /* \"#utility.yul\":3720:3729   */\n      dup4\n        /* \"#utility.yul\":3716:3733   */\n      add\n        /* \"#utility.yul\":3707:3713   */\n      dup5\n        /* \"#utility.yul\":3663:3734   */\n      tag_222\n      jump\t// in\n    tag_317:\n        /* \"#utility.yul\":3519:3741   */\n      swap3\n      swap2\n      pop\n      pop\n      jump\t// out\n        /* \"#utility.yul\":3747:3858   */\n    tag_223:\n        /* \"#utility.yul\":3831:3833   */\n      0x0b\n        /* \"#utility.yul\":3824:3829   */\n      dup2\n        /* \"#utility.yul\":3821:3834   */\n      lt\n        /* \"#utility.yul\":3811:3852   */\n      tag_319\n      jumpi\n        /* \"#utility.yul\":3848:3849   */\n      0x00\n        /* \"#utility.yul\":3845:3846   */\n      0x00\n        /* \"#utility.yul\":3838:3850   */\n      revert\n        /* \"#utility.yul\":3811:3852   */\n    tag_319:\n        /* \"#utility.yul\":3747:3858   */\n      pop\n      jump\t// out\n        /* \"#utility.yul\":3864:4025   */\n    tag_224:\n        /* \"#utility.yul\":3921:3926   */\n      0x00\n        /* \"#utility.yul\":3959:3965   */\n      dup2\n        /* \"#utility.yul\":3946:3966   */\n      calldataload\n        /* \"#utility.yul\":3937:3966   */\n      swap1\n      pop\n        /* \"#utility.yul\":3975:4019   */\n      tag_321\n        /* \"#utility.yul\":4013:4018   */\n      dup2\n        /* \"#utility.yul\":3975:4019   */\n      tag_223\n      jump\t// in\n    tag_321:\n        /* \"#utility.yul\":3864:4025   */\n      swap3\n      swap2\n      pop\n      pop\n      jump\t// out\n        /* \"#utility.yul\":4031:4382   */\n    tag_41:\n        /* \"#utility.yul\":4101:4107   */\n      0x00\n        /* \"#utility.yul\":4150:4152   */\n      0x20\n        /* \"#utility.yul\":4138:4147   */\n      dup3\n        /* \"#utility.yul\":4129:4136   */\n      dup5\n        /* \"#utility.yul\":4125:4148   */\n      sub\n        /* \"#utility.yul\":4121:4153   */\n      slt\n        /* \"#utility.yul\":4118:4237   */\n      iszero\n      tag_323\n      jumpi\n        /* \"#utility.yul\":4156:4235   */\n      tag_324\n      tag_208\n      jump\t// in\n    tag_324:\n        /* \"#utility.yul\":4118:4237   */\n    tag_323:\n        /* \"#utility.yul\":4276:4277   */\n      0x00\n        /* \"#utility.yul\":4301:4365   */\n      tag_325\n        /* \"#utility.yul\":4357:4364   */\n      dup5\n        /* \"#utility.yul\":4348:4354   */\n      dup3\n        /* \"#utility.yul\":4337:4346   */\n      dup6\n        /* \"#utility.yul\":4333:4355   */\n      add\n        /* \"#utility.yul\":4301:4365   */\n      tag_224\n      jump\t// in\n    tag_325:\n        /* \"#utility.yul\":4291:4365   */\n      swap2\n      pop\n        /* \"#utility.yul\":4247:4375   */\n      pop\n        /* \"#utility.yul\":4031:4382   */\n      swap3\n      swap2\n      pop\n      pop\n      jump\t// out\n        /* \"#utility.yul\":4388:4506   */\n    tag_225:\n        /* \"#utility.yul\":4475:4499   */\n      tag_327\n        /* \"#utility.yul\":4493:4498   */\n      dup2\n        /* \"#utility.yul\":4475:4499   */\n      tag_210\n      jump\t// in\n    tag_327:\n        /* \"#utility.yul\":4470:4473   */\n      dup3\n        /* \"#utility.yul\":4463:4500   */\n      mstore\n        /* \"#utility.yul\":4388:4506   */\n      pop\n      pop\n      jump\t// out\n        /* \"#utility.yul\":4512:4734   */\n    tag_53:\n        /* \"#utility.yul\":4605:4609   */\n      0x00\n        /* \"#utility.yul\":4643:4645   */\n      0x20\n        /* \"#utility.yul\":4632:4641   */\n      dup3\n        /* \"#utility.yul\":4628:4646   */\n      add\n        /* \"#utility.yul\":4620:4646   */\n      swap1\n      pop\n        /* \"#utility.yul\":4656:4727   */\n      tag_329\n        /* \"#utility.yul\":4724:4725   */\n      0x00\n        /* \"#utility.yul\":4713:4722   */\n      dup4\n        /* \"#utility.yul\":4709:4726   */\n      add\n        /* \"#utility.yul\":4700:4706   */\n      dup5\n        /* \"#utility.yul\":4656:4727   */\n      tag_225\n      jump\t// in\n    tag_329:\n        /* \"#utility.yul\":4512:4734   */\n      swap3\n      swap2\n      pop\n      pop\n      jump\t// out\n        /* \"#utility.yul\":4740:4857   */\n    tag_226:\n        /* \"#utility.yul\":4849:4850   */\n      0x00\n        /* \"#utility.yul\":4846:4847   */\n      0x00\n        /* \"#utility.yul\":4839:4851   */\n      revert\n        /* \"#utility.yul\":4863:4965   */\n    tag_227:\n        /* \"#utility.yul\":4904:4910   */\n      0x00\n        /* \"#utility.yul\":4955:4957   */\n      0x1f\n        /* \"#utility.yul\":4951:4958   */\n      not\n        /* \"#utility.yul\":4946:4948   */\n      0x1f\n        /* \"#utility.yul\":4939:4944   */\n      dup4\n        /* \"#utility.yul\":4935:4949   */\n      add\n        /* \"#utility.yul\":4931:4959   */\n      and\n        /* \"#utility.yul\":4921:4959   */\n      swap1\n      pop\n        /* \"#utility.yul\":4863:4965   */\n      swap2\n      swap1\n      pop\n      jump\t// out\n        /* \"#utility.yul\":4971:5151   */\n    tag_228:\n        /* \"#utility.yul\":5019:5096   */\n      0x4e487b7100000000000000000000000000000000000000000000000000000000\n        /* \"#utility.yul\":5016:5017   */\n      0x00\n        /* \"#utility.yul\":5009:5097   */\n      mstore\n        /* \"#utility.yul\":5116:5120   */\n      0x41\n        /* \"#utility.yul\":5113:5114   */\n      0x04\n        /* \"#utility.yul\":5106:5121   */\n      mstore\n        /* \"#utility.yul\":5140:5144   */\n      0x24\n        /* \"#utility.yul\":5137:5138   */\n      0x00\n        /* \"#utility.yul\":5130:5145   */\n      revert\n        /* \"#utility.yul\":5157:5438   */\n    tag_229:\n        /* \"#utility.yul\":5240:5267   */\n      tag_334\n        /* \"#utility.yul\":5262:5266   */\n      dup3\n        /* \"#utility.yul\":5240:5267   */\n      tag_227\n      jump\t// in\n    tag_334:\n        /* \"#utility.yul\":5232:5238   */\n      dup2\n        /* \"#utility.yul\":5228:5268   */\n      add\n        /* \"#utility.yul\":5370:5376   */\n      dup2\n        /* \"#utility.yul\":5358:5368   */\n      dup2\n        /* \"#utility.yul\":5355:5377   */\n      lt\n        /* \"#utility.yul\":5334:5352   */\n      0xffffffffffffffff\n        /* \"#utility.yul\":5322:5332   */\n      dup3\n        /* \"#utility.yul\":5319:5353   */\n      gt\n        /* \"#utility.yul\":5316:5378   */\n      or\n        /* \"#utility.yul\":5313:5401   */\n      iszero\n      tag_335\n      jumpi\n        /* \"#utility.yul\":5381:5399   */\n      tag_336\n      tag_228\n      jump\t// in\n    tag_336:\n        /* \"#utility.yul\":5313:5401   */\n    tag_335:\n        /* \"#utility.yul\":5421:5431   */\n      dup1\n        /* \"#utility.yul\":5417:5419   */\n      0x40\n        /* \"#utility.yul\":5410:5432   */\n      mstore\n        /* \"#utility.yul\":5200:5438   */\n      pop\n        /* \"#utility.yul\":5157:5438   */\n      pop\n      pop\n      jump\t// out\n        /* \"#utility.yul\":5444:5573   */\n    tag_230:\n        /* \"#utility.yul\":5478:5484   */\n      0x00\n        /* \"#utility.yul\":5505:5525   */\n      tag_338\n      tag_207\n      jump\t// in\n    tag_338:\n        /* \"#utility.yul\":5495:5525   */\n      swap1\n      pop\n        /* \"#utility.yul\":5534:5567   */\n      tag_339\n        /* \"#utility.yul\":5562:5566   */\n      dup3\n        /* \"#utility.yul\":5554:5560   */\n      dup3\n        /* \"#utility.yul\":5534:5567   */\n      tag_229\n      jump\t// in\n    tag_339:\n        /* \"#utility.yul\":5444:5573   */\n      swap2\n      swap1\n      pop\n      jump\t// out\n        /* \"#utility.yul\":5702:5845   */\n    tag_232:\n        /* \"#utility.yul\":5759:5764   */\n      0x00\n        /* \"#utility.yul\":5790:5796   */\n      dup2\n        /* \"#utility.yul\":5784:5797   */\n      mload\n        /* \"#utility.yul\":5775:5797   */\n      swap1\n      pop\n        /* \"#utility.yul\":5806:5839   */\n      tag_342\n        /* \"#utility.yul\":5833:5838   */\n      dup2\n        /* \"#utility.yul\":5806:5839   */\n      tag_211\n      jump\t// in\n    tag_342:\n        /* \"#utility.yul\":5702:5845   */\n      swap3\n      swap2\n      pop\n      pop\n      jump\t// out\n        /* \"#utility.yul\":5851:6016   */\n    tag_233:\n        /* \"#utility.yul\":5919:5924   */\n      0x00\n        /* \"#utility.yul\":5950:5956   */\n      dup2\n        /* \"#utility.yul\":5944:5957   */\n      mload\n        /* \"#utility.yul\":5935:5957   */\n      swap1\n      pop\n        /* \"#utility.yul\":5966:6010   */\n      tag_344\n        /* \"#utility.yul\":6004:6009   */\n      dup2\n        /* \"#utility.yul\":5966:6010   */\n      tag_223\n      jump\t// in\n    tag_344:\n        /* \"#utility.yul\":5851:6016   */\n      swap3\n      swap2\n      pop\n      pop\n      jump\t// out\n        /* \"#utility.yul\":6022:6112   */\n    tag_234:\n        /* \"#utility.yul\":6056:6063   */\n      0x00\n        /* \"#utility.yul\":6099:6104   */\n      dup2\n        /* \"#utility.yul\":6092:6105   */\n      iszero\n        /* \"#utility.yul\":6085:6106   */\n      iszero\n        /* \"#utility.yul\":6074:6106   */\n      swap1\n      pop\n        /* \"#utility.yul\":6022:6112   */\n      swap2\n      swap1\n      pop\n      jump\t// out\n        /* \"#utility.yul\":6118:6234   */\n    tag_235:\n        /* \"#utility.yul\":6188:6209   */\n      tag_347\n        /* \"#utility.yul\":6203:6208   */\n      dup2\n        /* \"#utility.yul\":6188:6209   */\n      tag_234\n      jump\t// in\n    tag_347:\n        /* \"#utility.yul\":6181:6186   */\n      dup2\n        /* \"#utility.yul\":6178:6210   */\n      eq\n        /* \"#utility.yul\":6168:6228   */\n      tag_348\n      jumpi\n        /* \"#utility.yul\":6224:6225   */\n      0x00\n        /* \"#utility.yul\":6221:6222   */\n      0x00\n        /* \"#utility.yul\":6214:6226   */\n      revert\n        /* \"#utility.yul\":6168:6228   */\n    tag_348:\n        /* \"#utility.yul\":6118:6234   */\n      pop\n      jump\t// out\n        /* \"#utility.yul\":6240:6377   */\n    tag_236:\n        /* \"#utility.yul\":6294:6299   */\n      0x00\n        /* \"#utility.yul\":6325:6331   */\n      dup2\n        /* \"#utility.yul\":6319:6332   */\n      mload\n        /* \"#utility.yul\":6310:6332   */\n      swap1\n      pop\n        /* \"#utility.yul\":6341:6371   */\n      tag_350\n        /* \"#utility.yul\":6365:6370   */\n      dup2\n        /* \"#utility.yul\":6341:6371   */\n      tag_235\n      jump\t// in\n    tag_350:\n        /* \"#utility.yul\":6240:6377   */\n      swap3\n      swap2\n      pop\n      pop\n      jump\t// out\n        /* \"#utility.yul\":6411:7917   */\n    tag_237:\n        /* \"#utility.yul\":6496:6501   */\n      0x00\n        /* \"#utility.yul\":6540:6544   */\n      0xe0\n        /* \"#utility.yul\":6528:6537   */\n      dup3\n        /* \"#utility.yul\":6523:6526   */\n      dup5\n        /* \"#utility.yul\":6519:6538   */\n      sub\n        /* \"#utility.yul\":6515:6545   */\n      slt\n        /* \"#utility.yul\":6512:6629   */\n      iszero\n      tag_352\n      jumpi\n        /* \"#utility.yul\":6548:6627   */\n      tag_353\n      tag_226\n      jump\t// in\n    tag_353:\n        /* \"#utility.yul\":6512:6629   */\n    tag_352:\n        /* \"#utility.yul\":6647:6668   */\n      tag_354\n        /* \"#utility.yul\":6663:6667   */\n      0xe0\n        /* \"#utility.yul\":6647:6668   */\n      tag_230\n      jump\t// in\n    tag_354:\n        /* \"#utility.yul\":6638:6668   */\n      swap1\n      pop\n        /* \"#utility.yul\":6726:6727   */\n      0x00\n        /* \"#utility.yul\":6766:6826   */\n      tag_355\n        /* \"#utility.yul\":6822:6825   */\n      dup5\n        /* \"#utility.yul\":6813:6819   */\n      dup3\n        /* \"#utility.yul\":6802:6811   */\n      dup6\n        /* \"#utility.yul\":6798:6820   */\n      add\n        /* \"#utility.yul\":6766:6826   */\n      tag_232\n      jump\t// in\n    tag_355:\n        /* \"#utility.yul\":6759:6763   */\n      0x00\n        /* \"#utility.yul\":6752:6757   */\n      dup4\n        /* \"#utility.yul\":6748:6764   */\n      add\n        /* \"#utility.yul\":6741:6827   */\n      mstore\n        /* \"#utility.yul\":6678:6838   */\n      pop\n        /* \"#utility.yul\":6899:6901   */\n      0x20\n        /* \"#utility.yul\":6940:7000   */\n      tag_356\n        /* \"#utility.yul\":6996:6999   */\n      dup5\n        /* \"#utility.yul\":6987:6993   */\n      dup3\n        /* \"#utility.yul\":6976:6985   */\n      dup6\n        /* \"#utility.yul\":6972:6994   */\n      add\n        /* \"#utility.yul\":6940:7000   */\n      tag_232\n      jump\t// in\n    tag_356:\n        /* \"#utility.yul\":6933:6937   */\n      0x20\n        /* \"#utility.yul\":6926:6931   */\n      dup4\n        /* \"#utility.yul\":6922:6938   */\n      add\n        /* \"#utility.yul\":6915:7001   */\n      mstore\n        /* \"#utility.yul\":6848:7012   */\n      pop\n        /* \"#utility.yul\":7073:7075   */\n      0x40\n        /* \"#utility.yul\":7114:7174   */\n      tag_357\n        /* \"#utility.yul\":7170:7173   */\n      dup5\n        /* \"#utility.yul\":7161:7167   */\n      dup3\n        /* \"#utility.yul\":7150:7159   */\n      dup6\n        /* \"#utility.yul\":7146:7168   */\n      add\n        /* \"#utility.yul\":7114:7174   */\n      tag_232\n      jump\t// in\n    tag_357:\n        /* \"#utility.yul\":7107:7111   */\n      0x40\n        /* \"#utility.yul\":7100:7105   */\n      dup4\n        /* \"#utility.yul\":7096:7112   */\n      add\n        /* \"#utility.yul\":7089:7175   */\n      mstore\n        /* \"#utility.yul\":7022:7186   */\n      pop\n        /* \"#utility.yul\":7248:7250   */\n      0x60\n        /* \"#utility.yul\":7289:7360   */\n      tag_358\n        /* \"#utility.yul\":7356:7359   */\n      dup5\n        /* \"#utility.yul\":7347:7353   */\n      dup3\n        /* \"#utility.yul\":7336:7345   */\n      dup6\n        /* \"#utility.yul\":7332:7354   */\n      add\n        /* \"#utility.yul\":7289:7360   */\n      tag_233\n      jump\t// in\n    tag_358:\n        /* \"#utility.yul\":7282:7286   */\n      0x60\n        /* \"#utility.yul\":7275:7280   */\n      dup4\n        /* \"#utility.yul\":7271:7287   */\n      add\n        /* \"#utility.yul\":7264:7361   */\n      mstore\n        /* \"#utility.yul\":7196:7372   */\n      pop\n        /* \"#utility.yul\":7441:7444   */\n      0x80\n        /* \"#utility.yul\":7483:7543   */\n      tag_359\n        /* \"#utility.yul\":7539:7542   */\n      dup5\n        /* \"#utility.yul\":7530:7536   */\n      dup3\n        /* \"#utility.yul\":7519:7528   */\n      dup6\n        /* \"#utility.yul\":7515:7537   */\n      add\n        /* \"#utility.yul\":7483:7543   */\n      tag_232\n      jump\t// in\n    tag_359:\n        /* \"#utility.yul\":7476:7480   */\n      0x80\n        /* \"#utility.yul\":7469:7474   */\n      dup4\n        /* \"#utility.yul\":7465:7481   */\n      add\n        /* \"#utility.yul\":7458:7544   */\n      mstore\n        /* \"#utility.yul\":7382:7555   */\n      pop\n        /* \"#utility.yul\":7616:7619   */\n      0xa0\n        /* \"#utility.yul\":7658:7715   */\n      tag_360\n        /* \"#utility.yul\":7711:7714   */\n      dup5\n        /* \"#utility.yul\":7702:7708   */\n      dup3\n        /* \"#utility.yul\":7691:7700   */\n      dup6\n        /* \"#utility.yul\":7687:7709   */\n      add\n        /* \"#utility.yul\":7658:7715   */\n      tag_236\n      jump\t// in\n    tag_360:\n        /* \"#utility.yul\":7651:7655   */\n      0xa0\n        /* \"#utility.yul\":7644:7649   */\n      dup4\n        /* \"#utility.yul\":7640:7656   */\n      add\n        /* \"#utility.yul\":7633:7716   */\n      mstore\n        /* \"#utility.yul\":7565:7727   */\n      pop\n        /* \"#utility.yul\":7796:7799   */\n      0xc0\n        /* \"#utility.yul\":7838:7898   */\n      tag_361\n        /* \"#utility.yul\":7894:7897   */\n      dup5\n        /* \"#utility.yul\":7885:7891   */\n      dup3\n        /* \"#utility.yul\":7874:7883   */\n      dup6\n        /* \"#utility.yul\":7870:7892   */\n      add\n        /* \"#utility.yul\":7838:7898   */\n      tag_232\n      jump\t// in\n    tag_361:\n        /* \"#utility.yul\":7831:7835   */\n      0xc0\n        /* \"#utility.yul\":7824:7829   */\n      dup4\n        /* \"#utility.yul\":7820:7836   */\n      add\n        /* \"#utility.yul\":7813:7899   */\n      mstore\n        /* \"#utility.yul\":7737:7910   */\n      pop\n        /* \"#utility.yul\":6411:7917   */\n      swap3\n      swap2\n      pop\n      pop\n      jump\t// out\n        /* \"#utility.yul\":7923:8325   */\n    tag_57:\n        /* \"#utility.yul\":8018:8024   */\n      0x00\n        /* \"#utility.yul\":8067:8070   */\n      0xe0\n        /* \"#utility.yul\":8055:8064   */\n      dup3\n        /* \"#utility.yul\":8046:8053   */\n      dup5\n        /* \"#utility.yul\":8042:8065   */\n      sub\n        /* \"#utility.yul\":8038:8071   */\n      slt\n        /* \"#utility.yul\":8035:8155   */\n      iszero\n      tag_363\n      jumpi\n        /* \"#utility.yul\":8074:8153   */\n      tag_364\n      tag_208\n      jump\t// in\n    tag_364:\n        /* \"#utility.yul\":8035:8155   */\n    tag_363:\n        /* \"#utility.yul\":8194:8195   */\n      0x00\n        /* \"#utility.yul\":8219:8308   */\n      tag_365\n        /* \"#utility.yul\":8300:8307   */\n      dup5\n        /* \"#utility.yul\":8291:8297   */\n      dup3\n        /* \"#utility.yul\":8280:8289   */\n      dup6\n        /* \"#utility.yul\":8276:8298   */\n      add\n        /* \"#utility.yul\":8219:8308   */\n      tag_237\n      jump\t// in\n    tag_365:\n        /* \"#utility.yul\":8209:8308   */\n      swap2\n      pop\n        /* \"#utility.yul\":8165:8318   */\n      pop\n        /* \"#utility.yul\":7923:8325   */\n      swap3\n      swap2\n      pop\n      pop\n      jump\t// out\n        /* \"#utility.yul\":8331:8500   */\n    tag_238:\n        /* \"#utility.yul\":8415:8426   */\n      0x00\n        /* \"#utility.yul\":8449:8455   */\n      dup3\n        /* \"#utility.yul\":8444:8447   */\n      dup3\n        /* \"#utility.yul\":8437:8456   */\n      mstore\n        /* \"#utility.yul\":8489:8493   */\n      0x20\n        /* \"#utility.yul\":8484:8487   */\n      dup3\n        /* \"#utility.yul\":8480:8494   */\n      add\n        /* \"#utility.yul\":8465:8494   */\n      swap1\n      pop\n        /* \"#utility.yul\":8331:8500   */\n      swap3\n      swap2\n      pop\n      pop\n      jump\t// out\n        /* \"#utility.yul\":8506:8672   */\n    tag_239:\n        /* \"#utility.yul\":8646:8664   */\n      0x42697264206973206e6f74206465616400000000000000000000000000000000\n        /* \"#utility.yul\":8642:8643   */\n      0x00\n        /* \"#utility.yul\":8634:8640   */\n      dup3\n        /* \"#utility.yul\":8630:8644   */\n      add\n        /* \"#utility.yul\":8623:8665   */\n      mstore\n        /* \"#utility.yul\":8506:8672   */\n      pop\n      jump\t// out\n        /* \"#utility.yul\":8678:9044   */\n    tag_240:\n        /* \"#utility.yul\":8820:8823   */\n      0x00\n        /* \"#utility.yul\":8841:8908   */\n      tag_369\n        /* \"#utility.yul\":8905:8907   */\n      0x10\n        /* \"#utility.yul\":8900:8903   */\n      dup4\n        /* \"#utility.yul\":8841:8908   */\n      tag_238\n      jump\t// in\n    tag_369:\n        /* \"#utility.yul\":8834:8908   */\n      swap2\n      pop\n        /* \"#utility.yul\":8917:9010   */\n      tag_370\n        /* \"#utility.yul\":9006:9009   */\n      dup3\n        /* \"#utility.yul\":8917:9010   */\n      tag_239\n      jump\t// in\n    tag_370:\n        /* \"#utility.yul\":9035:9037   */\n      0x20\n        /* \"#utility.yul\":9030:9033   */\n      dup3\n        /* \"#utility.yul\":9026:9038   */\n      add\n        /* \"#utility.yul\":9019:9038   */\n      swap1\n      pop\n        /* \"#utility.yul\":8678:9044   */\n      swap2\n      swap1\n      pop\n      jump\t// out\n        /* \"#utility.yul\":9050:9469   */\n    tag_60:\n        /* \"#utility.yul\":9216:9220   */\n      0x00\n        /* \"#utility.yul\":9254:9256   */\n      0x20\n        /* \"#utility.yul\":9243:9252   */\n      dup3\n        /* \"#utility.yul\":9239:9257   */\n      add\n        /* \"#utility.yul\":9231:9257   */\n      swap1\n      pop\n        /* \"#utility.yul\":9303:9312   */\n      dup2\n        /* \"#utility.yul\":9297:9301   */\n      dup2\n        /* \"#utility.yul\":9293:9313   */\n      sub\n        /* \"#utility.yul\":9289:9290   */\n      0x00\n        /* \"#utility.yul\":9278:9287   */\n      dup4\n        /* \"#utility.yul\":9274:9291   */\n      add\n        /* \"#utility.yul\":9267:9314   */\n      mstore\n        /* \"#utility.yul\":9331:9462   */\n      tag_372\n        /* \"#utility.yul\":9457:9461   */\n      dup2\n        /* \"#utility.yul\":9331:9462   */\n      tag_240\n      jump\t// in\n    tag_372:\n        /* \"#utility.yul\":9323:9462   */\n      swap1\n      pop\n        /* \"#utility.yul\":9050:9469   */\n      swap2\n      swap1\n      pop\n      jump\t// out\n        /* \"#utility.yul\":9475:9655   */\n    tag_241:\n        /* \"#utility.yul\":9523:9600   */\n      0x4e487b7100000000000000000000000000000000000000000000000000000000\n        /* \"#utility.yul\":9520:9521   */\n      0x00\n        /* \"#utility.yul\":9513:9601   */\n      mstore\n        /* \"#utility.yul\":9620:9624   */\n      0x11\n        /* \"#utility.yul\":9617:9618   */\n      0x04\n        /* \"#utility.yul\":9610:9625   */\n      mstore\n        /* \"#utility.yul\":9644:9648   */\n      0x24\n        /* \"#utility.yul\":9641:9642   */\n      0x00\n        /* \"#utility.yul\":9634:9649   */\n      revert\n        /* \"#utility.yul\":9661:10071   */\n    tag_64:\n        /* \"#utility.yul\":9701:9708   */\n      0x00\n        /* \"#utility.yul\":9724:9744   */\n      tag_375\n        /* \"#utility.yul\":9742:9743   */\n      dup3\n        /* \"#utility.yul\":9724:9744   */\n      tag_210\n      jump\t// in\n    tag_375:\n        /* \"#utility.yul\":9719:9744   */\n      swap2\n      pop\n        /* \"#utility.yul\":9758:9778   */\n      tag_376\n        /* \"#utility.yul\":9776:9777   */\n      dup4\n        /* \"#utility.yul\":9758:9778   */\n      tag_210\n      jump\t// in\n    tag_376:\n        /* \"#utility.yul\":9753:9778   */\n      swap3\n      pop\n        /* \"#utility.yul\":9813:9814   */\n      dup3\n        /* \"#utility.yul\":9810:9811   */\n      dup3\n        /* \"#utility.yul\":9806:9815   */\n      mul\n        /* \"#utility.yul\":9835:9865   */\n      tag_377\n        /* \"#utility.yul\":9853:9864   */\n      dup2\n        /* \"#utility.yul\":9835:9865   */\n      tag_210\n      jump\t// in\n    tag_377:\n        /* \"#utility.yul\":9824:9865   */\n      swap2\n      pop\n        /* \"#utility.yul\":10014:10015   */\n      dup3\n        /* \"#utility.yul\":10005:10012   */\n      dup3\n        /* \"#utility.yul\":10001:10016   */\n      div\n        /* \"#utility.yul\":9998:9999   */\n      dup5\n        /* \"#utility.yul\":9995:10017   */\n      eq\n        /* \"#utility.yul\":9975:9976   */\n      dup4\n        /* \"#utility.yul\":9968:9977   */\n      iszero\n        /* \"#utility.yul\":9948:10031   */\n      or\n        /* \"#utility.yul\":9925:10064   */\n      tag_378\n      jumpi\n        /* \"#utility.yul\":10044:10062   */\n      tag_379\n      tag_241\n      jump\t// in\n    tag_379:\n        /* \"#utility.yul\":9925:10064   */\n    tag_378:\n        /* \"#utility.yul\":9709:10071   */\n      pop\n        /* \"#utility.yul\":9661:10071   */\n      swap3\n      swap2\n      pop\n      pop\n      jump\t// out\n        /* \"#utility.yul\":10077:10271   */\n    tag_66:\n        /* \"#utility.yul\":10117:10121   */\n      0x00\n        /* \"#utility.yul\":10137:10157   */\n      tag_381\n        /* \"#utility.yul\":10155:10156   */\n      dup3\n        /* \"#utility.yul\":10137:10157   */\n      tag_210\n      jump\t// in\n    tag_381:\n        /* \"#utility.yul\":10132:10157   */\n      swap2\n      pop\n        /* \"#utility.yul\":10171:10191   */\n      tag_382\n        /* \"#utility.yul\":10189:10190   */\n      dup4\n        /* \"#utility.yul\":10171:10191   */\n      tag_210\n      jump\t// in\n    tag_382:\n        /* \"#utility.yul\":10166:10191   */\n      swap3\n      pop\n        /* \"#utility.yul\":10215:10216   */\n      dup3\n        /* \"#utility.yul\":10212:10213   */\n      dup3\n        /* \"#utility.yul\":10208:10217   */\n      sub\n        /* \"#utility.yul\":10200:10217   */\n      swap1\n      pop\n        /* \"#utility.yul\":10239:10240   */\n      dup2\n        /* \"#utility.yul\":10233:10237   */\n      dup2\n        /* \"#utility.yul\":10230:10241   */\n      gt\n        /* \"#utility.yul\":10227:10264   */\n      iszero\n      tag_383\n      jumpi\n        /* \"#utility.yul\":10244:10262   */\n      tag_384\n      tag_241\n      jump\t// in\n    tag_384:\n        /* \"#utility.yul\":10227:10264   */\n    tag_383:\n        /* \"#utility.yul\":10077:10271   */\n      swap3\n      swap2\n      pop\n      pop\n      jump\t// out\n        /* \"#utility.yul\":10277:10457   */\n    tag_242:\n        /* \"#utility.yul\":10325:10402   */\n      0x4e487b7100000000000000000000000000000000000000000000000000000000\n        /* \"#utility.yul\":10322:10323   */\n      0x00\n        /* \"#utility.yul\":10315:10403   */\n      mstore\n        /* \"#utility.yul\":10422:10426   */\n      0x12\n        /* \"#utility.yul\":10419:10420   */\n      0x04\n        /* \"#utility.yul\":10412:10427   */\n      mstore\n        /* \"#utility.yul\":10446:10450   */\n      0x24\n        /* \"#utility.yul\":10443:10444   */\n      0x00\n        /* \"#utility.yul\":10436:10451   */\n      revert\n        /* \"#utility.yul\":10463:10648   */\n    tag_68:\n        /* \"#utility.yul\":10503:10504   */\n      0x00\n        /* \"#utility.yul\":10520:10540   */\n      tag_387\n        /* \"#utility.yul\":10538:10539   */\n      dup3\n        /* \"#utility.yul\":10520:10540   */\n      tag_210\n      jump\t// in\n    tag_387:\n        /* \"#utility.yul\":10515:10540   */\n      swap2\n      pop\n        /* \"#utility.yul\":10554:10574   */\n      tag_388\n        /* \"#utility.yul\":10572:10573   */\n      dup4\n        /* \"#utility.yul\":10554:10574   */\n      tag_210\n      jump\t// in\n    tag_388:\n        /* \"#utility.yul\":10549:10574   */\n      swap3\n      pop\n        /* \"#utility.yul\":10593:10594   */\n      dup3\n        /* \"#utility.yul\":10583:10618   */\n      tag_389\n      jumpi\n        /* \"#utility.yul\":10598:10616   */\n      tag_390\n      tag_242\n      jump\t// in\n    tag_390:\n        /* \"#utility.yul\":10583:10618   */\n    tag_389:\n        /* \"#utility.yul\":10640:10641   */\n      dup3\n        /* \"#utility.yul\":10637:10638   */\n      dup3\n        /* \"#utility.yul\":10633:10642   */\n      div\n        /* \"#utility.yul\":10628:10642   */\n      swap1\n      pop\n        /* \"#utility.yul\":10463:10648   */\n      swap3\n      swap2\n      pop\n      pop\n      jump\t// out\n        /* \"#utility.yul\":10654:10845   */\n    tag_72:\n        /* \"#utility.yul\":10694:10697   */\n      0x00\n        /* \"#utility.yul\":10713:10733   */\n      tag_392\n        /* \"#utility.yul\":10731:10732   */\n      dup3\n        /* \"#utility.yul\":10713:10733   */\n      tag_210\n      jump\t// in\n    tag_392:\n        /* \"#utility.yul\":10708:10733   */\n      swap2\n      pop\n        /* \"#utility.yul\":10747:10767   */\n      tag_393\n        /* \"#utility.yul\":10765:10766   */\n      dup4\n        /* \"#utility.yul\":10747:10767   */\n      tag_210\n      jump\t// in\n    tag_393:\n        /* \"#utility.yul\":10742:10767   */\n      swap3\n      pop\n        /* \"#utility.yul\":10790:10791   */\n      dup3\n        /* \"#utility.yul\":10787:10788   */\n      dup3\n        /* \"#utility.yul\":10783:10792   */\n      add\n        /* \"#utility.yul\":10776:10792   */\n      swap1\n      pop\n        /* \"#utility.yul\":10811:10814   */\n      dup1\n        /* \"#utility.yul\":10808:10809   */\n      dup3\n        /* \"#utility.yul\":10805:10815   */\n      gt\n        /* \"#utility.yul\":10802:10838   */\n      iszero\n      tag_394\n      jumpi\n        /* \"#utility.yul\":10818:10836   */\n      tag_395\n      tag_241\n      jump\t// in\n    tag_395:\n        /* \"#utility.yul\":10802:10838   */\n    tag_394:\n        /* \"#utility.yul\":10654:10845   */\n      swap3\n      swap2\n      pop\n      pop\n      jump\t// out\n        /* \"#utility.yul\":10851:11072   */\n    tag_243:\n        /* \"#utility.yul\":10991:11025   */\n      0x4e6f7420656e6f7567682045544820746f207265766976652074686973206269\n        /* \"#utility.yul\":10987:10988   */\n      0x00\n        /* \"#utility.yul\":10979:10985   */\n      dup3\n        /* \"#utility.yul\":10975:10989   */\n      add\n        /* \"#utility.yul\":10968:11026   */\n      mstore\n        /* \"#utility.yul\":11060:11064   */\n      0x7264000000000000000000000000000000000000000000000000000000000000\n        /* \"#utility.yul\":11055:11057   */\n      0x20\n        /* \"#utility.yul\":11047:11053   */\n      dup3\n        /* \"#utility.yul\":11043:11058   */\n      add\n        /* \"#utility.yul\":11036:11065   */\n      mstore\n        /* \"#utility.yul\":10851:11072   */\n      pop\n      jump\t// out\n        /* \"#utility.yul\":11078:11444   */\n    tag_244:\n        /* \"#utility.yul\":11220:11223   */\n      0x00\n        /* \"#utility.yul\":11241:11308   */\n      tag_398\n        /* \"#utility.yul\":11305:11307   */\n      0x22\n        /* \"#utility.yul\":11300:11303   */\n      dup4\n        /* \"#utility.yul\":11241:11308   */\n      tag_238\n      jump\t// in\n    tag_398:\n        /* \"#utility.yul\":11234:11308   */\n      swap2\n      pop\n        /* \"#utility.yul\":11317:11410   */\n      tag_399\n        /* \"#utility.yul\":11406:11409   */\n      dup3\n        /* \"#utility.yul\":11317:11410   */\n      tag_243\n      jump\t// in\n    tag_399:\n        /* \"#utility.yul\":11435:11437   */\n      0x40\n        /* \"#utility.yul\":11430:11433   */\n      dup3\n        /* \"#utility.yul\":11426:11438   */\n      add\n        /* \"#utility.yul\":11419:11438   */\n      swap1\n      pop\n        /* \"#utility.yul\":11078:11444   */\n      swap2\n      swap1\n      pop\n      jump\t// out\n        /* \"#utility.yul\":11450:11869   */\n    tag_75:\n        /* \"#utility.yul\":11616:11620   */\n      0x00\n        /* \"#utility.yul\":11654:11656   */\n      0x20\n        /* \"#utility.yul\":11643:11652   */\n      dup3\n        /* \"#utility.yul\":11639:11657   */\n      add\n        /* \"#utility.yul\":11631:11657   */\n      swap1\n      pop\n        /* \"#utility.yul\":11703:11712   */\n      dup2\n        /* \"#utility.yul\":11697:11701   */\n      dup2\n        /* \"#utility.yul\":11693:11713   */\n      sub\n        /* \"#utility.yul\":11689:11690   */\n      0x00\n        /* \"#utility.yul\":11678:11687   */\n      dup4\n        /* \"#utility.yul\":11674:11691   */\n      add\n        /* \"#utility.yul\":11667:11714   */\n      mstore\n        /* \"#utility.yul\":11731:11862   */\n      tag_401\n        /* \"#utility.yul\":11857:11861   */\n      dup2\n        /* \"#utility.yul\":11731:11862   */\n      tag_244\n      jump\t// in\n    tag_401:\n        /* \"#utility.yul\":11723:11862   */\n      swap1\n      pop\n        /* \"#utility.yul\":11450:11869   */\n      swap2\n      swap1\n      pop\n      jump\t// out\n        /* \"#utility.yul\":11875:12047   */\n    tag_245:\n        /* \"#utility.yul\":12015:12039   */\n      0x4e6f7420656e6f7567682045544820746f206665656400000000000000000000\n        /* \"#utility.yul\":12011:12012   */\n      0x00\n        /* \"#utility.yul\":12003:12009   */\n      dup3\n        /* \"#utility.yul\":11999:12013   */\n      add\n        /* \"#utility.yul\":11992:12040   */\n      mstore\n        /* \"#utility.yul\":11875:12047   */\n      pop\n      jump\t// out\n        /* \"#utility.yul\":12053:12419   */\n    tag_246:\n        /* \"#utility.yul\":12195:12198   */\n      0x00\n        /* \"#utility.yul\":12216:12283   */\n      tag_404\n        /* \"#utility.yul\":12280:12282   */\n      0x16\n        /* \"#utility.yul\":12275:12278   */\n      dup4\n        /* \"#utility.yul\":12216:12283   */\n      tag_238\n      jump\t// in\n    tag_404:\n        /* \"#utility.yul\":12209:12283   */\n      swap2\n      pop\n        /* \"#utility.yul\":12292:12385   */\n      tag_405\n        /* \"#utility.yul\":12381:12384   */\n      dup3\n        /* \"#utility.yul\":12292:12385   */\n      tag_245\n      jump\t// in\n    tag_405:\n        /* \"#utility.yul\":12410:12412   */\n      0x20\n        /* \"#utility.yul\":12405:12408   */\n      dup3\n        /* \"#utility.yul\":12401:12413   */\n      add\n        /* \"#utility.yul\":12394:12413   */\n      swap1\n      pop\n        /* \"#utility.yul\":12053:12419   */\n      swap2\n      swap1\n      pop\n      jump\t// out\n        /* \"#utility.yul\":12425:12844   */\n    tag_84:\n        /* \"#utility.yul\":12591:12595   */\n      0x00\n        /* \"#utility.yul\":12629:12631   */\n      0x20\n        /* \"#utility.yul\":12618:12627   */\n      dup3\n        /* \"#utility.yul\":12614:12632   */\n      add\n        /* \"#utility.yul\":12606:12632   */\n      swap1\n      pop\n        /* \"#utility.yul\":12678:12687   */\n      dup2\n        /* \"#utility.yul\":12672:12676   */\n      dup2\n        /* \"#utility.yul\":12668:12688   */\n      sub\n        /* \"#utility.yul\":12664:12665   */\n      0x00\n        /* \"#utility.yul\":12653:12662   */\n      dup4\n        /* \"#utility.yul\":12649:12666   */\n      add\n        /* \"#utility.yul\":12642:12689   */\n      mstore\n        /* \"#utility.yul\":12706:12837   */\n      tag_407\n        /* \"#utility.yul\":12832:12836   */\n      dup2\n        /* \"#utility.yul\":12706:12837   */\n      tag_246\n      jump\t// in\n    tag_407:\n        /* \"#utility.yul\":12698:12837   */\n      swap1\n      pop\n        /* \"#utility.yul\":12425:12844   */\n      swap2\n      swap1\n      pop\n      jump\t// out\n        /* \"#utility.yul\":12850:13182   */\n    tag_86:\n        /* \"#utility.yul\":12971:12975   */\n      0x00\n        /* \"#utility.yul\":13009:13011   */\n      0x40\n        /* \"#utility.yul\":12998:13007   */\n      dup3\n        /* \"#utility.yul\":12994:13012   */\n      add\n        /* \"#utility.yul\":12986:13012   */\n      swap1\n      pop\n        /* \"#utility.yul\":13022:13093   */\n      tag_409\n        /* \"#utility.yul\":13090:13091   */\n      0x00\n        /* \"#utility.yul\":13079:13088   */\n      dup4\n        /* \"#utility.yul\":13075:13092   */\n      add\n        /* \"#utility.yul\":13066:13072   */\n      dup6\n        /* \"#utility.yul\":13022:13093   */\n      tag_225\n      jump\t// in\n    tag_409:\n        /* \"#utility.yul\":13103:13175   */\n      tag_410\n        /* \"#utility.yul\":13171:13173   */\n      0x20\n        /* \"#utility.yul\":13160:13169   */\n      dup4\n        /* \"#utility.yul\":13156:13174   */\n      add\n        /* \"#utility.yul\":13147:13153   */\n      dup5\n        /* \"#utility.yul\":13103:13175   */\n      tag_225\n      jump\t// in\n    tag_410:\n        /* \"#utility.yul\":12850:13182   */\n      swap4\n      swap3\n      pop\n      pop\n      pop\n      jump\t// out\n        /* \"#utility.yul\":13188:13347   */\n    tag_247:\n        /* \"#utility.yul\":13328:13339   */\n      0x4e6f74206f776e65720000000000000000000000000000000000000000000000\n        /* \"#utility.yul\":13324:13325   */\n      0x00\n        /* \"#utility.yul\":13316:13322   */\n      dup3\n        /* \"#utility.yul\":13312:13326   */\n      add\n        /* \"#utility.yul\":13305:13340   */\n      mstore\n        /* \"#utility.yul\":13188:13347   */\n      pop\n      jump\t// out\n        /* \"#utility.yul\":13353:13718   */\n    tag_248:\n        /* \"#utility.yul\":13495:13498   */\n      0x00\n        /* \"#utility.yul\":13516:13582   */\n      tag_413\n        /* \"#utility.yul\":13580:13581   */\n      0x09\n        /* \"#utility.yul\":13575:13578   */\n      dup4\n        /* \"#utility.yul\":13516:13582   */\n      tag_238\n      jump\t// in\n    tag_413:\n        /* \"#utility.yul\":13509:13582   */\n      swap2\n      pop\n        /* \"#utility.yul\":13591:13684   */\n      tag_414\n        /* \"#utility.yul\":13680:13683   */\n      dup3\n        /* \"#utility.yul\":13591:13684   */\n      tag_247\n      jump\t// in\n    tag_414:\n        /* \"#utility.yul\":13709:13711   */\n      0x20\n        /* \"#utility.yul\":13704:13707   */\n      dup3\n        /* \"#utility.yul\":13700:13712   */\n      add\n        /* \"#utility.yul\":13693:13712   */\n      swap1\n      pop\n        /* \"#utility.yul\":13353:13718   */\n      swap2\n      swap1\n      pop\n      jump\t// out\n        /* \"#utility.yul\":13724:14143   */\n    tag_93:\n        /* \"#utility.yul\":13890:13894   */\n      0x00\n        /* \"#utility.yul\":13928:13930   */\n      0x20\n        /* \"#utility.yul\":13917:13926   */\n      dup3\n        /* \"#utility.yul\":13913:13931   */\n      add\n        /* \"#utility.yul\":13905:13931   */\n      swap1\n      pop\n        /* \"#utility.yul\":13977:13986   */\n      dup2\n        /* \"#utility.yul\":13971:13975   */\n      dup2\n        /* \"#utility.yul\":13967:13987   */\n      sub\n        /* \"#utility.yul\":13963:13964   */\n      0x00\n        /* \"#utility.yul\":13952:13961   */\n      dup4\n        /* \"#utility.yul\":13948:13965   */\n      add\n        /* \"#utility.yul\":13941:13988   */\n      mstore\n        /* \"#utility.yul\":14005:14136   */\n      tag_416\n        /* \"#utility.yul\":14131:14135   */\n      dup2\n        /* \"#utility.yul\":14005:14136   */\n      tag_248\n      jump\t// in\n    tag_416:\n        /* \"#utility.yul\":13997:14136   */\n      swap1\n      pop\n        /* \"#utility.yul\":13724:14143   */\n      swap2\n      swap1\n      pop\n      jump\t// out\n        /* \"#utility.yul\":14149:14481   */\n    tag_98:\n        /* \"#utility.yul\":14270:14274   */\n      0x00\n        /* \"#utility.yul\":14308:14310   */\n      0x40\n        /* \"#utility.yul\":14297:14306   */\n      dup3\n        /* \"#utility.yul\":14293:14311   */\n      add\n        /* \"#utility.yul\":14285:14311   */\n      swap1\n      pop\n        /* \"#utility.yul\":14321:14392   */\n      tag_418\n        /* \"#utility.yul\":14389:14390   */\n      0x00\n        /* \"#utility.yul\":14378:14387   */\n      dup4\n        /* \"#utility.yul\":14374:14391   */\n      add\n        /* \"#utility.yul\":14365:14371   */\n      dup6\n        /* \"#utility.yul\":14321:14392   */\n      tag_225\n      jump\t// in\n    tag_418:\n        /* \"#utility.yul\":14402:14474   */\n      tag_419\n        /* \"#utility.yul\":14470:14472   */\n      0x20\n        /* \"#utility.yul\":14459:14468   */\n      dup4\n        /* \"#utility.yul\":14455:14473   */\n      add\n        /* \"#utility.yul\":14446:14452   */\n      dup5\n        /* \"#utility.yul\":14402:14474   */\n      tag_222\n      jump\t// in\n    tag_419:\n        /* \"#utility.yul\":14149:14481   */\n      swap4\n      swap3\n      pop\n      pop\n      pop\n      jump\t// out\n        /* \"#utility.yul\":14487:14709   */\n    tag_249:\n        /* \"#utility.yul\":14627:14661   */\n      0x4e6f7420656e6f7567682045544820746f206d696e7420746869732073706563\n        /* \"#utility.yul\":14623:14624   */\n      0x00\n        /* \"#utility.yul\":14615:14621   */\n      dup3\n        /* \"#utility.yul\":14611:14625   */\n      add\n        /* \"#utility.yul\":14604:14662   */\n      mstore\n        /* \"#utility.yul\":14696:14701   */\n      0x6965730000000000000000000000000000000000000000000000000000000000\n        /* \"#utility.yul\":14691:14693   */\n      0x20\n        /* \"#utility.yul\":14683:14689   */\n      dup3\n        /* \"#utility.yul\":14679:14694   */\n      add\n        /* \"#utility.yul\":14672:14702   */\n      mstore\n        /* \"#utility.yul\":14487:14709   */\n      pop\n      jump\t// out\n        /* \"#utility.yul\":14715:15081   */\n    tag_250:\n        /* \"#utility.yul\":14857:14860   */\n      0x00\n        /* \"#utility.yul\":14878:14945   */\n      tag_422\n        /* \"#utility.yul\":14942:14944   */\n      0x23\n        /* \"#utility.yul\":14937:14940   */\n      dup4\n        /* \"#utility.yul\":14878:14945   */\n      tag_238\n      jump\t// in\n    tag_422:\n        /* \"#utility.yul\":14871:14945   */\n      swap2\n      pop\n        /* \"#utility.yul\":14954:15047   */\n      tag_423\n        /* \"#utility.yul\":15043:15046   */\n      dup3\n        /* \"#utility.yul\":14954:15047   */\n      tag_249\n      jump\t// in\n    tag_423:\n        /* \"#utility.yul\":15072:15074   */\n      0x40\n        /* \"#utility.yul\":15067:15070   */\n      dup3\n        /* \"#utility.yul\":15063:15075   */\n      add\n        /* \"#utility.yul\":15056:15075   */\n      swap1\n      pop\n        /* \"#utility.yul\":14715:15081   */\n      swap2\n      swap1\n      pop\n      jump\t// out\n        /* \"#utility.yul\":15087:15506   */\n    tag_106:\n        /* \"#utility.yul\":15253:15257   */\n      0x00\n        /* \"#utility.yul\":15291:15293   */\n      0x20\n        /* \"#utility.yul\":15280:15289   */\n      dup3\n        /* \"#utility.yul\":15276:15294   */\n      add\n        /* \"#utility.yul\":15268:15294   */\n      swap1\n      pop\n        /* \"#utility.yul\":15340:15349   */\n      dup2\n        /* \"#utility.yul\":15334:15338   */\n      dup2\n        /* \"#utility.yul\":15330:15350   */\n      sub\n        /* \"#utility.yul\":15326:15327   */\n      0x00\n        /* \"#utility.yul\":15315:15324   */\n      dup4\n        /* \"#utility.yul\":15311:15328   */\n      add\n        /* \"#utility.yul\":15304:15351   */\n      mstore\n        /* \"#utility.yul\":15368:15499   */\n      tag_425\n        /* \"#utility.yul\":15494:15498   */\n      dup2\n        /* \"#utility.yul\":15368:15499   */\n      tag_250\n      jump\t// in\n    tag_425:\n        /* \"#utility.yul\":15360:15499   */\n      swap1\n      pop\n        /* \"#utility.yul\":15087:15506   */\n      swap2\n      swap1\n      pop\n      jump\t// out\n        /* \"#utility.yul\":15512:15591   */\n    tag_251:\n        /* \"#utility.yul\":15551:15558   */\n      0x00\n        /* \"#utility.yul\":15580:15585   */\n      dup2\n        /* \"#utility.yul\":15569:15585   */\n      swap1\n      pop\n        /* \"#utility.yul\":15512:15591   */\n      swap2\n      swap1\n      pop\n      jump\t// out\n        /* \"#utility.yul\":15597:15754   */\n    tag_252:\n        /* \"#utility.yul\":15702:15747   */\n      tag_428\n        /* \"#utility.yul\":15722:15746   */\n      tag_429\n        /* \"#utility.yul\":15740:15745   */\n      dup3\n        /* \"#utility.yul\":15722:15746   */\n      tag_210\n      jump\t// in\n    tag_429:\n        /* \"#utility.yul\":15702:15747   */\n      tag_251\n      jump\t// in\n    tag_428:\n        /* \"#utility.yul\":15697:15700   */\n      dup3\n        /* \"#utility.yul\":15690:15748   */\n      mstore\n        /* \"#utility.yul\":15597:15754   */\n      pop\n      pop\n      jump\t// out\n        /* \"#utility.yul\":15760:15854   */\n    tag_253:\n        /* \"#utility.yul\":15793:15801   */\n      0x00\n        /* \"#utility.yul\":15841:15846   */\n      dup2\n        /* \"#utility.yul\":15837:15839   */\n      0x60\n        /* \"#utility.yul\":15833:15847   */\n      shl\n        /* \"#utility.yul\":15812:15847   */\n      swap1\n      pop\n        /* \"#utility.yul\":15760:15854   */\n      swap2\n      swap1\n      pop\n      jump\t// out\n        /* \"#utility.yul\":15860:15954   */\n    tag_254:\n        /* \"#utility.yul\":15899:15906   */\n      0x00\n        /* \"#utility.yul\":15928:15948   */\n      tag_432\n        /* \"#utility.yul\":15942:15947   */\n      dup3\n        /* \"#utility.yul\":15928:15948   */\n      tag_253\n      jump\t// in\n    tag_432:\n        /* \"#utility.yul\":15917:15948   */\n      swap1\n      pop\n        /* \"#utility.yul\":15860:15954   */\n      swap2\n      swap1\n      pop\n      jump\t// out\n        /* \"#utility.yul\":15960:16060   */\n    tag_255:\n        /* \"#utility.yul\":15999:16006   */\n      0x00\n        /* \"#utility.yul\":16028:16054   */\n      tag_434\n        /* \"#utility.yul\":16048:16053   */\n      dup3\n        /* \"#utility.yul\":16028:16054   */\n      tag_254\n      jump\t// in\n    tag_434:\n        /* \"#utility.yul\":16017:16054   */\n      swap1\n      pop\n        /* \"#utility.yul\":15960:16060   */\n      swap2\n      swap1\n      pop\n      jump\t// out\n        /* \"#utility.yul\":16066:16223   */\n    tag_256:\n        /* \"#utility.yul\":16171:16216   */\n      tag_436\n        /* \"#utility.yul\":16191:16215   */\n      tag_437\n        /* \"#utility.yul\":16209:16214   */\n      dup3\n        /* \"#utility.yul\":16191:16215   */\n      tag_219\n      jump\t// in\n    tag_437:\n        /* \"#utility.yul\":16171:16216   */\n      tag_255\n      jump\t// in\n    tag_436:\n        /* \"#utility.yul\":16166:16169   */\n      dup3\n        /* \"#utility.yul\":16159:16217   */\n      mstore\n        /* \"#utility.yul\":16066:16223   */\n      pop\n      pop\n      jump\t// out\n        /* \"#utility.yul\":16229:16626   */\n    tag_108:\n        /* \"#utility.yul\":16369:16372   */\n      0x00\n        /* \"#utility.yul\":16384:16459   */\n      tag_439\n        /* \"#utility.yul\":16455:16458   */\n      dup3\n        /* \"#utility.yul\":16446:16452   */\n      dup6\n        /* \"#utility.yul\":16384:16459   */\n      tag_252\n      jump\t// in\n    tag_439:\n        /* \"#utility.yul\":16484:16486   */\n      0x20\n        /* \"#utility.yul\":16479:16482   */\n      dup3\n        /* \"#utility.yul\":16475:16487   */\n      add\n        /* \"#utility.yul\":16468:16487   */\n      swap2\n      pop\n        /* \"#utility.yul\":16497:16572   */\n      tag_440\n        /* \"#utility.yul\":16568:16571   */\n      dup3\n        /* \"#utility.yul\":16559:16565   */\n      dup5\n        /* \"#utility.yul\":16497:16572   */\n      tag_256\n      jump\t// in\n    tag_440:\n        /* \"#utility.yul\":16597:16599   */\n      0x14\n        /* \"#utility.yul\":16592:16595   */\n      dup3\n        /* \"#utility.yul\":16588:16600   */\n      add\n        /* \"#utility.yul\":16581:16600   */\n      swap2\n      pop\n        /* \"#utility.yul\":16617:16620   */\n      dup2\n        /* \"#utility.yul\":16610:16620   */\n      swap1\n      pop\n        /* \"#utility.yul\":16229:16626   */\n      swap4\n      swap3\n      pop\n      pop\n      pop\n      jump\t// out\n        /* \"#utility.yul\":16632:16808   */\n    tag_110:\n        /* \"#utility.yul\":16664:16665   */\n      0x00\n        /* \"#utility.yul\":16681:16701   */\n      tag_442\n        /* \"#utility.yul\":16699:16700   */\n      dup3\n        /* \"#utility.yul\":16681:16701   */\n      tag_210\n      jump\t// in\n    tag_442:\n        /* \"#utility.yul\":16676:16701   */\n      swap2\n      pop\n        /* \"#utility.yul\":16715:16735   */\n      tag_443\n        /* \"#utility.yul\":16733:16734   */\n      dup4\n        /* \"#utility.yul\":16715:16735   */\n      tag_210\n      jump\t// in\n    tag_443:\n        /* \"#utility.yul\":16710:16735   */\n      swap3\n      pop\n        /* \"#utility.yul\":16754:16755   */\n      dup3\n        /* \"#utility.yul\":16744:16779   */\n      tag_444\n      jumpi\n        /* \"#utility.yul\":16759:16777   */\n      tag_445\n      tag_242\n      jump\t// in\n    tag_445:\n        /* \"#utility.yul\":16744:16779   */\n    tag_444:\n        /* \"#utility.yul\":16800:16801   */\n      dup3\n        /* \"#utility.yul\":16797:16798   */\n      dup3\n        /* \"#utility.yul\":16793:16802   */\n      mod\n        /* \"#utility.yul\":16788:16802   */\n      swap1\n      pop\n        /* \"#utility.yul\":16632:16808   */\n      swap3\n      swap2\n      pop\n      pop\n      jump\t// out\n        /* \"#utility.yul\":16814:16994   */\n    tag_151:\n        /* \"#utility.yul\":16862:16939   */\n      0x4e487b7100000000000000000000000000000000000000000000000000000000\n        /* \"#utility.yul\":16859:16860   */\n      0x00\n        /* \"#utility.yul\":16852:16940   */\n      mstore\n        /* \"#utility.yul\":16959:16963   */\n      0x21\n        /* \"#utility.yul\":16956:16957   */\n      0x04\n        /* \"#utility.yul\":16949:16964   */\n      mstore\n        /* \"#utility.yul\":16983:16987   */\n      0x24\n        /* \"#utility.yul\":16980:16981   */\n      0x00\n        /* \"#utility.yul\":16973:16988   */\n      revert\n        /* \"#utility.yul\":17000:17117   */\n    tag_257:\n        /* \"#utility.yul\":17084:17086   */\n      0x0b\n        /* \"#utility.yul\":17077:17082   */\n      dup2\n        /* \"#utility.yul\":17074:17087   */\n      lt\n        /* \"#utility.yul\":17064:17111   */\n      tag_448\n      jumpi\n        /* \"#utility.yul\":17091:17109   */\n      tag_449\n      tag_151\n      jump\t// in\n    tag_449:\n        /* \"#utility.yul\":17064:17111   */\n    tag_448:\n        /* \"#utility.yul\":17000:17117   */\n      pop\n      jump\t// out\n        /* \"#utility.yul\":17123:17256   */\n    tag_258:\n        /* \"#utility.yul\":17171:17178   */\n      0x00\n        /* \"#utility.yul\":17200:17205   */\n      dup2\n        /* \"#utility.yul\":17189:17205   */\n      swap1\n      pop\n        /* \"#utility.yul\":17206:17250   */\n      tag_451\n        /* \"#utility.yul\":17244:17249   */\n      dup3\n        /* \"#utility.yul\":17206:17250   */\n      tag_257\n      jump\t// in\n    tag_451:\n        /* \"#utility.yul\":17123:17256   */\n      swap2\n      swap1\n      pop\n      jump\t// out\n        /* \"#utility.yul\":17262:17395   */\n    tag_259:\n        /* \"#utility.yul\":17321:17330   */\n      0x00\n        /* \"#utility.yul\":17354:17389   */\n      tag_453\n        /* \"#utility.yul\":17383:17388   */\n      dup3\n        /* \"#utility.yul\":17354:17389   */\n      tag_258\n      jump\t// in\n    tag_453:\n        /* \"#utility.yul\":17341:17389   */\n      swap1\n      pop\n        /* \"#utility.yul\":17262:17395   */\n      swap2\n      swap1\n      pop\n      jump\t// out\n        /* \"#utility.yul\":17401:17550   */\n    tag_260:\n        /* \"#utility.yul\":17497:17543   */\n      tag_455\n        /* \"#utility.yul\":17537:17542   */\n      dup2\n        /* \"#utility.yul\":17497:17543   */\n      tag_259\n      jump\t// in\n    tag_455:\n        /* \"#utility.yul\":17492:17495   */\n      dup3\n        /* \"#utility.yul\":17485:17544   */\n      mstore\n        /* \"#utility.yul\":17401:17550   */\n      pop\n      pop\n      jump\t// out\n        /* \"#utility.yul\":17556:17796   */\n    tag_113:\n        /* \"#utility.yul\":17658:17662   */\n      0x00\n        /* \"#utility.yul\":17696:17698   */\n      0x20\n        /* \"#utility.yul\":17685:17694   */\n      dup3\n        /* \"#utility.yul\":17681:17699   */\n      add\n        /* \"#utility.yul\":17673:17699   */\n      swap1\n      pop\n        /* \"#utility.yul\":17709:17789   */\n      tag_457\n        /* \"#utility.yul\":17786:17787   */\n      0x00\n        /* \"#utility.yul\":17775:17784   */\n      dup4\n        /* \"#utility.yul\":17771:17788   */\n      add\n        /* \"#utility.yul\":17762:17768   */\n      dup5\n        /* \"#utility.yul\":17709:17789   */\n      tag_260\n      jump\t// in\n    tag_457:\n        /* \"#utility.yul\":17556:17796   */\n      swap3\n      swap2\n      pop\n      pop\n      jump\t// out\n        /* \"#utility.yul\":17802:18153   */\n    tag_117:\n        /* \"#utility.yul\":17872:17878   */\n      0x00\n        /* \"#utility.yul\":17921:17923   */\n      0x20\n        /* \"#utility.yul\":17909:17918   */\n      dup3\n        /* \"#utility.yul\":17900:17907   */\n      dup5\n        /* \"#utility.yul\":17896:17919   */\n      sub\n        /* \"#utility.yul\":17892:17924   */\n      slt\n        /* \"#utility.yul\":17889:18008   */\n      iszero\n      tag_459\n      jumpi\n        /* \"#utility.yul\":17927:18006   */\n      tag_460\n      tag_208\n      jump\t// in\n    tag_460:\n        /* \"#utility.yul\":17889:18008   */\n    tag_459:\n        /* \"#utility.yul\":18047:18048   */\n      0x00\n        /* \"#utility.yul\":18072:18136   */\n      tag_461\n        /* \"#utility.yul\":18128:18135   */\n      dup5\n        /* \"#utility.yul\":18119:18125   */\n      dup3\n        /* \"#utility.yul\":18108:18117   */\n      dup6\n        /* \"#utility.yul\":18104:18126   */\n      add\n        /* \"#utility.yul\":18072:18136   */\n      tag_232\n      jump\t// in\n    tag_461:\n        /* \"#utility.yul\":18062:18136   */\n      swap2\n      pop\n        /* \"#utility.yul\":18018:18146   */\n      pop\n        /* \"#utility.yul\":17802:18153   */\n      swap3\n      swap2\n      pop\n      pop\n      jump\t// out\n        /* \"#utility.yul\":18159:18333   */\n    tag_261:\n        /* \"#utility.yul\":18299:18325   */\n      0x496e737572616e636520636f73747320302e3032204554480000000000000000\n        /* \"#utility.yul\":18295:18296   */\n      0x00\n        /* \"#utility.yul\":18287:18293   */\n      dup3\n        /* \"#utility.yul\":18283:18297   */\n      add\n        /* \"#utility.yul\":18276:18326   */\n      mstore\n        /* \"#utility.yul\":18159:18333   */\n      pop\n      jump\t// out\n        /* \"#utility.yul\":18339:18705   */\n    tag_262:\n        /* \"#utility.yul\":18481:18484   */\n      0x00\n        /* \"#utility.yul\":18502:18569   */\n      tag_464\n        /* \"#utility.yul\":18566:18568   */\n      0x18\n        /* \"#utility.yul\":18561:18564   */\n      dup4\n        /* \"#utility.yul\":18502:18569   */\n      tag_238\n      jump\t// in\n    tag_464:\n        /* \"#utility.yul\":18495:18569   */\n      swap2\n      pop\n        /* \"#utility.yul\":18578:18671   */\n      tag_465\n        /* \"#utility.yul\":18667:18670   */\n      dup3\n        /* \"#utility.yul\":18578:18671   */\n      tag_261\n      jump\t// in\n    tag_465:\n        /* \"#utility.yul\":18696:18698   */\n      0x20\n        /* \"#utility.yul\":18691:18694   */\n      dup3\n        /* \"#utility.yul\":18687:18699   */\n      add\n        /* \"#utility.yul\":18680:18699   */\n      swap1\n      pop\n        /* \"#utility.yul\":18339:18705   */\n      swap2\n      swap1\n      pop\n      jump\t// out\n        /* \"#utility.yul\":18711:19130   */\n    tag_127:\n        /* \"#utility.yul\":18877:18881   */\n      0x00\n        /* \"#utility.yul\":18915:18917   */\n      0x20\n        /* \"#utility.yul\":18904:18913   */\n      dup3\n        /* \"#utility.yul\":18900:18918   */\n      add\n        /* \"#utility.yul\":18892:18918   */\n      swap1\n      pop\n        /* \"#utility.yul\":18964:18973   */\n      dup2\n        /* \"#utility.yul\":18958:18962   */\n      dup2\n        /* \"#utility.yul\":18954:18974   */\n      sub\n        /* \"#utility.yul\":18950:18951   */\n      0x00\n        /* \"#utility.yul\":18939:18948   */\n      dup4\n        /* \"#utility.yul\":18935:18952   */\n      add\n        /* \"#utility.yul\":18928:18975   */\n      mstore\n        /* \"#utility.yul\":18992:19123   */\n      tag_467\n        /* \"#utility.yul\":19118:19122   */\n      dup2\n        /* \"#utility.yul\":18992:19123   */\n      tag_262\n      jump\t// in\n    tag_467:\n        /* \"#utility.yul\":18984:19123   */\n      swap1\n      pop\n        /* \"#utility.yul\":18711:19130   */\n      swap2\n      swap1\n      pop\n      jump\t// out\n        /* \"#utility.yul\":19136:19309   */\n    tag_263:\n        /* \"#utility.yul\":19276:19301   */\n      0x4865616c696e6720636f73747320302e30303520455448000000000000000000\n        /* \"#utility.yul\":19272:19273   */\n      0x00\n        /* \"#utility.yul\":19264:19270   */\n      dup3\n        /* \"#utility.yul\":19260:19274   */\n      add\n        /* \"#utility.yul\":19253:19302   */\n      mstore\n        /* \"#utility.yul\":19136:19309   */\n      pop\n      jump\t// out\n        /* \"#utility.yul\":19315:19681   */\n    tag_264:\n        /* \"#utility.yul\":19457:19460   */\n      0x00\n        /* \"#utility.yul\":19478:19545   */\n      tag_470\n        /* \"#utility.yul\":19542:19544   */\n      0x17\n        /* \"#utility.yul\":19537:19540   */\n      dup4\n        /* \"#utility.yul\":19478:19545   */\n      tag_238\n      jump\t// in\n    tag_470:\n        /* \"#utility.yul\":19471:19545   */\n      swap2\n      pop\n        /* \"#utility.yul\":19554:19647   */\n      tag_471\n        /* \"#utility.yul\":19643:19646   */\n      dup3\n        /* \"#utility.yul\":19554:19647   */\n      tag_263\n      jump\t// in\n    tag_471:\n        /* \"#utility.yul\":19672:19674   */\n      0x20\n        /* \"#utility.yul\":19667:19670   */\n      dup3\n        /* \"#utility.yul\":19663:19675   */\n      add\n        /* \"#utility.yul\":19656:19675   */\n      swap1\n      pop\n        /* \"#utility.yul\":19315:19681   */\n      swap2\n      swap1\n      pop\n      jump\t// out\n        /* \"#utility.yul\":19687:20106   */\n    tag_135:\n        /* \"#utility.yul\":19853:19857   */\n      0x00\n        /* \"#utility.yul\":19891:19893   */\n      0x20\n        /* \"#utility.yul\":19880:19889   */\n      dup3\n        /* \"#utility.yul\":19876:19894   */\n      add\n        /* \"#utility.yul\":19868:19894   */\n      swap1\n      pop\n        /* \"#utility.yul\":19940:19949   */\n      dup2\n        /* \"#utility.yul\":19934:19938   */\n      dup2\n        /* \"#utility.yul\":19930:19950   */\n      sub\n        /* \"#utility.yul\":19926:19927   */\n      0x00\n        /* \"#utility.yul\":19915:19924   */\n      dup4\n        /* \"#utility.yul\":19911:19928   */\n      add\n        /* \"#utility.yul\":19904:19951   */\n      mstore\n        /* \"#utility.yul\":19968:20099   */\n      tag_473\n        /* \"#utility.yul\":20094:20098   */\n      dup2\n        /* \"#utility.yul\":19968:20099   */\n      tag_264\n      jump\t// in\n    tag_473:\n        /* \"#utility.yul\":19960:20099   */\n      swap1\n      pop\n        /* \"#utility.yul\":19687:20106   */\n      swap2\n      swap1\n      pop\n      jump\t// out\n        /* \"#utility.yul\":20112:20335   */\n    tag_265:\n        /* \"#utility.yul\":20252:20286   */\n      0x4e6f7420656e6f7567682045544820746f206d696e74206d7974686963616c20\n        /* \"#utility.yul\":20248:20249   */\n      0x00\n        /* \"#utility.yul\":20240:20246   */\n      dup3\n        /* \"#utility.yul\":20236:20250   */\n      add\n        /* \"#utility.yul\":20229:20287   */\n      mstore\n        /* \"#utility.yul\":20321:20327   */\n      0x6269726400000000000000000000000000000000000000000000000000000000\n        /* \"#utility.yul\":20316:20318   */\n      0x20\n        /* \"#utility.yul\":20308:20314   */\n      dup3\n        /* \"#utility.yul\":20304:20319   */\n      add\n        /* \"#utility.yul\":20297:20328   */\n      mstore\n        /* \"#utility.yul\":20112:20335   */\n      pop\n      jump\t// out\n        /* \"#utility.yul\":20341:20707   */\n    tag_266:\n        /* \"#utility.yul\":20483:20486   */\n      0x00\n        /* \"#utility.yul\":20504:20571   */\n      tag_476\n        /* \"#utility.yul\":20568:20570   */\n      0x24\n        /* \"#utility.yul\":20563:20566   */\n      dup4\n        /* \"#utility.yul\":20504:20571   */\n      tag_238\n      jump\t// in\n    tag_476:\n        /* \"#utility.yul\":20497:20571   */\n      swap2\n      pop\n        /* \"#utility.yul\":20580:20673   */\n      tag_477\n        /* \"#utility.yul\":20669:20672   */\n      dup3\n        /* \"#utility.yul\":20580:20673   */\n      tag_265\n      jump\t// in\n    tag_477:\n        /* \"#utility.yul\":20698:20700   */\n      0x40\n        /* \"#utility.yul\":20693:20696   */\n      dup3\n        /* \"#utility.yul\":20689:20701   */\n      add\n        /* \"#utility.yul\":20682:20701   */\n      swap1\n      pop\n        /* \"#utility.yul\":20341:20707   */\n      swap2\n      swap1\n      pop\n      jump\t// out\n        /* \"#utility.yul\":20713:21132   */\n    tag_143:\n        /* \"#utility.yul\":20879:20883   */\n      0x00\n        /* \"#utility.yul\":20917:20919   */\n      0x20\n        /* \"#utility.yul\":20906:20915   */\n      dup3\n        /* \"#utility.yul\":20902:20920   */\n      add\n        /* \"#utility.yul\":20894:20920   */\n      swap1\n      pop\n        /* \"#utility.yul\":20966:20975   */\n      dup2\n        /* \"#utility.yul\":20960:20964   */\n      dup2\n        /* \"#utility.yul\":20956:20976   */\n      sub\n        /* \"#utility.yul\":20952:20953   */\n      0x00\n        /* \"#utility.yul\":20941:20950   */\n      dup4\n        /* \"#utility.yul\":20937:20954   */\n      add\n        /* \"#utility.yul\":20930:20977   */\n      mstore\n        /* \"#utility.yul\":20994:21125   */\n      tag_479\n        /* \"#utility.yul\":21120:21124   */\n      dup2\n        /* \"#utility.yul\":20994:21125   */\n      tag_266\n      jump\t// in\n    tag_479:\n        /* \"#utility.yul\":20986:21125   */\n      swap1\n      pop\n        /* \"#utility.yul\":20713:21132   */\n      swap2\n      swap1\n      pop\n      jump\t// out\n        /* \"#utility.yul\":21138:21303   */\n    tag_267:\n        /* \"#utility.yul\":21278:21295   */\n      0x556e6b6e6f776e20737065636965730000000000000000000000000000000000\n        /* \"#utility.yul\":21274:21275   */\n      0x00\n        /* \"#utility.yul\":21266:21272   */\n      dup3\n        /* \"#utility.yul\":21262:21276   */\n      add\n        /* \"#utility.yul\":21255:21296   */\n      mstore\n        /* \"#utility.yul\":21138:21303   */\n      pop\n      jump\t// out\n        /* \"#utility.yul\":21309:21675   */\n    tag_268:\n        /* \"#utility.yul\":21451:21454   */\n      0x00\n        /* \"#utility.yul\":21472:21539   */\n      tag_482\n        /* \"#utility.yul\":21536:21538   */\n      0x0f\n        /* \"#utility.yul\":21531:21534   */\n      dup4\n        /* \"#utility.yul\":21472:21539   */\n      tag_238\n      jump\t// in\n    tag_482:\n        /* \"#utility.yul\":21465:21539   */\n      swap2\n      pop\n        /* \"#utility.yul\":21548:21641   */\n      tag_483\n        /* \"#utility.yul\":21637:21640   */\n      dup3\n        /* \"#utility.yul\":21548:21641   */\n      tag_267\n      jump\t// in\n    tag_483:\n        /* \"#utility.yul\":21666:21668   */\n      0x20\n        /* \"#utility.yul\":21661:21664   */\n      dup3\n        /* \"#utility.yul\":21657:21669   */\n      add\n        /* \"#utility.yul\":21650:21669   */\n      swap1\n      pop\n        /* \"#utility.yul\":21309:21675   */\n      swap2\n      swap1\n      pop\n      jump\t// out\n        /* \"#utility.yul\":21681:22100   */\n    tag_206:\n        /* \"#utility.yul\":21847:21851   */\n      0x00\n        /* \"#utility.yul\":21885:21887   */\n      0x20\n        /* \"#utility.yul\":21874:21883   */\n      dup3\n        /* \"#utility.yul\":21870:21888   */\n      add\n        /* \"#utility.yul\":21862:21888   */\n      swap1\n      pop\n        /* \"#utility.yul\":21934:21943   */\n      dup2\n        /* \"#utility.yul\":21928:21932   */\n      dup2\n        /* \"#utility.yul\":21924:21944   */\n      sub\n        /* \"#utility.yul\":21920:21921   */\n      0x00\n        /* \"#utility.yul\":21909:21918   */\n      dup4\n        /* \"#utility.yul\":21905:21922   */\n      add\n        /* \"#utility.yul\":21898:21945   */\n      mstore\n        /* \"#utility.yul\":21962:22093   */\n      tag_485\n        /* \"#utility.yul\":22088:22092   */\n      dup2\n        /* \"#utility.yul\":21962:22093   */\n      tag_268\n      jump\t// in\n    tag_485:\n        /* \"#utility.yul\":21954:22093   */\n      swap1\n      pop\n        /* \"#utility.yul\":21681:22100   */\n      swap2\n      swap1\n      pop\n      jump\t// out\n\n    auxdata: 0xa2646970667358221220383b7d742263e5a95e871664430bc47de3d12b11d8d7fb1c5e7905c51dcf5dbb64736f6c634300081e0033\n}\n",
				"bytecode": {
					"linkReferences": {},
					"object": "608060405234801561000f575f5ffd5b50604051611acc380380611acc83398181016040528101906100319190610114565b805f5f6101000a81548173ffffffffffffffffffffffffffffffffffffffff021916908373ffffffffffffffffffffffffffffffffffffffff1602179055503360015f6101000a81548173ffffffffffffffffffffffffffffffffffffffff021916908373ffffffffffffffffffffffffffffffffffffffff1602179055505061013f565b5f5ffd5b5f73ffffffffffffffffffffffffffffffffffffffff82169050919050565b5f6100e3826100ba565b9050919050565b6100f3816100d9565b81146100fd575f5ffd5b50565b5f8151905061010e816100ea565b92915050565b5f60208284031215610129576101286100b6565b5b5f61013684828501610100565b91505092915050565b6119808061014c5f395ff3fe608060405260043610610090575f3560e01c80638da5cb5b116100585780638da5cb5b146101345780639aeb133f1461015e578063a86a658c1461017a578063bff998f414610196578063eb96efa7146101b257610090565b8063192812a0146100945780631942d199146100b05780633ccfd60b146100cc5780635361e1d2146100e25780638c652f951461010c575b5f5ffd5b6100ae60048036038101906100a99190610e52565b6101bc565b005b6100ca60048036038101906100c59190610e7d565b6103d2565b005b3480156100d7575f5ffd5b506100e06104bc565b005b3480156100ed575f5ffd5b506100f66105b2565b6040516101039190610f35565b60405180910390f35b348015610117575f5ffd5b50610132600480360381019061012d9190610f89565b6105d6565b005b34801561013f575f5ffd5b50610148610662565b6040516101559190610fd6565b60405180910390f35b61017860048036038101906101739190611012565b610687565b005b610194600480360381019061018f9190610e52565b6108b6565b005b6101b060048036038101906101ab9190610e52565b610989565b005b6101ba610a5c565b005b5f5f5f9054906101000a900473ffffffffffffffffffffffffffffffffffffffff1673ffffffffffffffffffffffffffffffffffffffff16636ec88bbd836040518263ffffffff1660e01b8152600401610216919061104c565b60e0604051808303815f875af1158015610232573d5f5f3e3d5ffd5b505050506040513d601f19601f8201168201806040525081019061025691906111ff565b90508060a0015161029c576040517f08c379a000000000000000000000000000000000000000000000000000000000815260040161029390611284565b60405180910390fd5b5f6102aa8260600151610b49565b90505f6005826102ba91906112cf565b90505f620151808460c00151426102d19190611310565b6102db9190611370565b9050606481836102eb91906112cf565b6102f59190611370565b8261030091906113a0565b915081341015610345576040517f08c379a000000000000000000000000000000000000000000000000000000000815260040161033c90611443565b60405180910390fd5b5f5f9054906101000a900473ffffffffffffffffffffffffffffffffffffffff1673ffffffffffffffffffffffffffffffffffffffff16638baecc21866040518263ffffffff1660e01b815260040161039e919061104c565b5f604051808303815f87803b1580156103b5575f5ffd5b505af11580156103c7573d5f5f3e3d5ffd5b505050505050505050565b5f6509184e72a00090505f81836103e991906112cf565b90508034101561042e576040517f08c379a0000000000000000000000000000000000000000000000000000000008152600401610425906114ab565b60405180910390fd5b5f5f9054906101000a900473ffffffffffffffffffffffffffffffffffffffff1673ffffffffffffffffffffffffffffffffffffffff16631942d19985856040518363ffffffff1660e01b81526004016104899291906114c9565b5f604051808303815f87803b1580156104a0575f5ffd5b505af11580156104b2573d5f5f3e3d5ffd5b5050505050505050565b60015f9054906101000a900473ffffffffffffffffffffffffffffffffffffffff1673ffffffffffffffffffffffffffffffffffffffff163373ffffffffffffffffffffffffffffffffffffffff161461054b576040517f08c379a00000000000000000000000000000000000000000000000000000000081526004016105429061153a565b60405180910390fd5b60015f9054906101000a900473ffffffffffffffffffffffffffffffffffffffff1673ffffffffffffffffffffffffffffffffffffffff166108fc4790811502906040515f60405180830381858888f193505050501580156105af573d5f5f3e3d5ffd5b50565b5f5f9054906101000a900473ffffffffffffffffffffffffffffffffffffffff1681565b5f5f9054906101000a900473ffffffffffffffffffffffffffffffffffffffff1673ffffffffffffffffffffffffffffffffffffffff16638c652f9583836040518363ffffffff1660e01b8152600401610631929190611558565b5f604051808303815f87803b158015610648575f5ffd5b505af115801561065a573d5f5f3e3d5ffd5b505050505050565b60015f9054906101000a900473ffffffffffffffffffffffffffffffffffffffff1681565b5f61069182610b49565b9050803410156106d6576040517f08c379a00000000000000000000000000000000000000000000000000000000081526004016106cd906115ef565b60405180910390fd5b5f5f5f6103e842336040516020016106ef929190611672565b604051602081830303815290604052805190602001205f1c610711919061169d565b9050600a8110156107c1575f5f9054906101000a900473ffffffffffffffffffffffffffffffffffffffff1673ffffffffffffffffffffffffffffffffffffffff16634d2d7881600a6040518263ffffffff1660e01b81526004016107769190611740565b6020604051808303815f875af1158015610792573d5f5f3e3d5ffd5b505050506040513d601f19601f820116820180604052508101906107b69190611759565b9250600a9150610860565b5f5f9054906101000a900473ffffffffffffffffffffffffffffffffffffffff1673ffffffffffffffffffffffffffffffffffffffff16634d2d7881866040518263ffffffff1660e01b815260040161081a9190611740565b6020604051808303815f875af1158015610836573d5f5f3e3d5ffd5b505050506040513d601f19601f8201168201806040525081019061085a9190611759565b92508491505b3273ffffffffffffffffffffffffffffffffffffffff16837f3c69fbc401a0ac60517668ae5a88e1bd67657ee3e51cd1b6eddccf7b6b64776a846040516108a79190611740565b60405180910390a35050505050565b66470de4df820000341015610900576040517f08c379a00000000000000000000000000000000000000000000000000000000081526004016108f7906117ce565b60405180910390fd5b5f5f9054906101000a900473ffffffffffffffffffffffffffffffffffffffff1673ffffffffffffffffffffffffffffffffffffffff166349b1a0bf826040518263ffffffff1660e01b8152600401610959919061104c565b5f604051808303815f87803b158015610970575f5ffd5b505af1158015610982573d5f5f3e3d5ffd5b5050505050565b6611c37937e080003410156109d3576040517f08c379a00000000000000000000000000000000000000000000000000000000081526004016109ca90611836565b60405180910390fd5b5f5f9054906101000a900473ffffffffffffffffffffffffffffffffffffffff1673ffffffffffffffffffffffffffffffffffffffff1663bff998f4826040518263ffffffff1660e01b8152600401610a2c919061104c565b5f604051808303815f87803b158015610a43575f5ffd5b505af1158015610a55573d5f5f3e3d5ffd5b5050505050565b5f6702c68af0bb140000905080341015610aab576040517f08c379a0000000000000000000000000000000000000000000000000000000008152600401610aa2906118c4565b60405180910390fd5b5f5f9054906101000a900473ffffffffffffffffffffffffffffffffffffffff1673ffffffffffffffffffffffffffffffffffffffff16634d2d7881600a6040518263ffffffff1660e01b8152600401610b059190611740565b6020604051808303815f875af1158015610b21573d5f5f3e3d5ffd5b505050506040513d601f19601f82011682018060405250810190610b459190611759565b5050565b5f5f600a811115610b5d57610b5c6116cd565b5b82600a811115610b7057610b6f6116cd565b5b03610b845766b1a2bc2ec500009050610e0d565b6001600a811115610b9857610b976116cd565b5b82600a811115610bab57610baa6116cd565b5b03610bbf5766b1a2bc2ec500009050610e0d565b6002600a811115610bd357610bd26116cd565b5b82600a811115610be657610be56116cd565b5b03610bfa5766470de4df8200009050610e0d565b6003600a811115610c0e57610c0d6116cd565b5b82600a811115610c2157610c206116cd565b5b03610c3557666a94d74f4300009050610e0d565b6004600a811115610c4957610c486116cd565b5b82600a811115610c5c57610c5b6116cd565b5b03610c7057663ff2e795f500009050610e0d565b6005600a811115610c8457610c836116cd565b5b82600a811115610c9757610c966116cd565b5b03610cab57662386f26fc100009050610e0d565b6006600a811115610cbf57610cbe6116cd565b5b82600a811115610cd257610cd16116cd565b5b03610ce657662386f26fc100009050610e0d565b6007600a811115610cfa57610cf96116cd565b5b82600a811115610d0d57610d0c6116cd565b5b03610d2157662aa1efb94e00009050610e0d565b6008600a811115610d3557610d346116cd565b5b82600a811115610d4857610d476116cd565b5b03610d5c57668e1bc9bf0400009050610e0d565b6009600a811115610d7057610d6f6116cd565b5b82600a811115610d8357610d826116cd565b5b03610d9757662386f26fc100009050610e0d565b600a80811115610daa57610da96116cd565b5b82600a811115610dbd57610dbc6116cd565b5b03610dd2576702c68af0bb1400009050610e0d565b6040517f08c379a0000000000000000000000000000000000000000000000000000000008152600401610e049061192c565b60405180910390fd5b919050565b5f604051905090565b5f5ffd5b5f819050919050565b610e3181610e1f565b8114610e3b575f5ffd5b50565b5f81359050610e4c81610e28565b92915050565b5f60208284031215610e6757610e66610e1b565b5b5f610e7484828501610e3e565b91505092915050565b5f5f60408385031215610e9357610e92610e1b565b5b5f610ea085828601610e3e565b9250506020610eb185828601610e3e565b9150509250929050565b5f73ffffffffffffffffffffffffffffffffffffffff82169050919050565b5f819050919050565b5f610efd610ef8610ef384610ebb565b610eda565b610ebb565b9050919050565b5f610f0e82610ee3565b9050919050565b5f610f1f82610f04565b9050919050565b610f2f81610f15565b82525050565b5f602082019050610f485f830184610f26565b92915050565b5f610f5882610ebb565b9050919050565b610f6881610f4e565b8114610f72575f5ffd5b50565b5f81359050610f8381610f5f565b92915050565b5f5f60408385031215610f9f57610f9e610e1b565b5b5f610fac85828601610e3e565b9250506020610fbd85828601610f75565b9150509250929050565b610fd081610f4e565b82525050565b5f602082019050610fe95f830184610fc7565b92915050565b600b8110610ffb575f5ffd5b50565b5f8135905061100c81610fef565b92915050565b5f6020828403121561102757611026610e1b565b5b5f61103484828501610ffe565b91505092915050565b61104681610e1f565b82525050565b5f60208201905061105f5f83018461103d565b92915050565b5f5ffd5b5f601f19601f8301169050919050565b7f4e487b71000000000000000000000000000000000000000000000000000000005f52604160045260245ffd5b6110af82611069565b810181811067ffffffffffffffff821117156110ce576110cd611079565b5b80604052505050565b5f6110e0610e12565b90506110ec82826110a6565b919050565b5f815190506110ff81610e28565b92915050565b5f8151905061111381610fef565b92915050565b5f8115159050919050565b61112d81611119565b8114611137575f5ffd5b50565b5f8151905061114881611124565b92915050565b5f60e0828403121561116357611162611065565b5b61116d60e06110d7565b90505f61117c848285016110f1565b5f83015250602061118f848285016110f1565b60208301525060406111a3848285016110f1565b60408301525060606111b784828501611105565b60608301525060806111cb848285016110f1565b60808301525060a06111df8482850161113a565b60a08301525060c06111f3848285016110f1565b60c08301525092915050565b5f60e0828403121561121457611213610e1b565b5b5f6112218482850161114e565b91505092915050565b5f82825260208201905092915050565b7f42697264206973206e6f742064656164000000000000000000000000000000005f82015250565b5f61126e60108361122a565b91506112798261123a565b602082019050919050565b5f6020820190508181035f83015261129b81611262565b9050919050565b7f4e487b71000000000000000000000000000000000000000000000000000000005f52601160045260245ffd5b5f6112d982610e1f565b91506112e483610e1f565b92508282026112f281610e1f565b91508282048414831517611309576113086112a2565b5b5092915050565b5f61131a82610e1f565b915061132583610e1f565b925082820390508181111561133d5761133c6112a2565b5b92915050565b7f4e487b71000000000000000000000000000000000000000000000000000000005f52601260045260245ffd5b5f61137a82610e1f565b915061138583610e1f565b92508261139557611394611343565b5b828204905092915050565b5f6113aa82610e1f565b91506113b583610e1f565b92508282019050808211156113cd576113cc6112a2565b5b92915050565b7f4e6f7420656e6f7567682045544820746f2072657669766520746869732062695f8201527f7264000000000000000000000000000000000000000000000000000000000000602082015250565b5f61142d60228361122a565b9150611438826113d3565b604082019050919050565b5f6020820190508181035f83015261145a81611421565b9050919050565b7f4e6f7420656e6f7567682045544820746f2066656564000000000000000000005f82015250565b5f61149560168361122a565b91506114a082611461565b602082019050919050565b5f6020820190508181035f8301526114c281611489565b9050919050565b5f6040820190506114dc5f83018561103d565b6114e9602083018461103d565b9392505050565b7f4e6f74206f776e657200000000000000000000000000000000000000000000005f82015250565b5f61152460098361122a565b915061152f826114f0565b602082019050919050565b5f6020820190508181035f83015261155181611518565b9050919050565b5f60408201905061156b5f83018561103d565b6115786020830184610fc7565b9392505050565b7f4e6f7420656e6f7567682045544820746f206d696e74207468697320737065635f8201527f6965730000000000000000000000000000000000000000000000000000000000602082015250565b5f6115d960238361122a565b91506115e48261157f565b604082019050919050565b5f6020820190508181035f830152611606816115cd565b9050919050565b5f819050919050565b61162761162282610e1f565b61160d565b82525050565b5f8160601b9050919050565b5f6116438261162d565b9050919050565b5f61165482611639565b9050919050565b61166c61166782610f4e565b61164a565b82525050565b5f61167d8285611616565b60208201915061168d828461165b565b6014820191508190509392505050565b5f6116a782610e1f565b91506116b283610e1f565b9250826116c2576116c1611343565b5b828206905092915050565b7f4e487b71000000000000000000000000000000000000000000000000000000005f52602160045260245ffd5b600b811061170b5761170a6116cd565b5b50565b5f81905061171b826116fa565b919050565b5f61172a8261170e565b9050919050565b61173a81611720565b82525050565b5f6020820190506117535f830184611731565b92915050565b5f6020828403121561176e5761176d610e1b565b5b5f61177b848285016110f1565b91505092915050565b7f496e737572616e636520636f73747320302e30322045544800000000000000005f82015250565b5f6117b860188361122a565b91506117c382611784565b602082019050919050565b5f6020820190508181035f8301526117e5816117ac565b9050919050565b7f4865616c696e6720636f73747320302e303035204554480000000000000000005f82015250565b5f61182060178361122a565b915061182b826117ec565b602082019050919050565b5f6020820190508181035f83015261184d81611814565b9050919050565b7f4e6f7420656e6f7567682045544820746f206d696e74206d7974686963616c205f8201527f6269726400000000000000000000000000000000000000000000000000000000602082015250565b5f6118ae60248361122a565b91506118b982611854565b604082019050919050565b5f6020820190508181035f8301526118db816118a2565b9050919050565b7f556e6b6e6f776e207370656369657300000000000000000000000000000000005f82015250565b5f611916600f8361122a565b9150611921826118e2565b602082019050919050565b5f6020820190508181035f8301526119438161190a565b905091905056fea2646970667358221220383b7d742263e5a95e871664430bc47de3d12b11d8d7fb1c5e7905c51dcf5dbb64736f6c634300081e0033",
					"opcodes": "PUSH1 0x80 PUSH1 0x40 MSTORE CALLVALUE DUP1 ISZERO PUSH2 0xF JUMPI PUSH0 PUSH0 REVERT JUMPDEST POP PUSH1 0x40 MLOAD PUSH2 0x1ACC CODESIZE SUB DUP1 PUSH2 0x1ACC DUP4 CODECOPY DUP2 DUP2 ADD PUSH1 0x40 MSTORE DUP2 ADD SWAP1 PUSH2 0x31 SWAP2 SWAP1 PUSH2 0x114 JUMP JUMPDEST DUP1 PUSH0 PUSH0 PUSH2 0x100 EXP DUP2 SLOAD DUP2 PUSH20 0xFFFFFFFFFFFFFFFFFFFFFFFFFFFFFFFFFFFFFFFF MUL NOT AND SWAP1 DUP4 PUSH20 0xFFFFFFFFFFFFFFFFFFFFFFFFFFFFFFFFFFFFFFFF AND MUL OR SWAP1 SSTORE POP CALLER PUSH1 0x1 PUSH0 PUSH2 0x100 EXP DUP2 SLOAD DUP2 PUSH20 0xFFFFFFFFFFFFFFFFFFFFFFFFFFFFFFFFFFFFFFFF MUL NOT AND SWAP1 DUP4 PUSH20 0xFFFFFFFFFFFFFFFFFFFFFFFFFFFFFFFFFFFFFFFF AND MUL OR SWAP1 SSTORE POP POP PUSH2 0x13F JUMP JUMPDEST PUSH0 PUSH0 REVERT JUMPDEST PUSH0 PUSH20 0xFFFFFFFFFFFFFFFFFFFFFFFFFFFFFFFFFFFFFFFF DUP3 AND SWAP1 POP SWAP2 SWAP1 POP JUMP JUMPDEST PUSH0 PUSH2 0xE3 DUP3 PUSH2 0xBA JUMP JUMPDEST SWAP1 POP SWAP2 SWAP1 POP JUMP JUMPDEST PUSH2 0xF3 DUP2 PUSH2 0xD9 JUMP JUMPDEST DUP2 EQ PUSH2 0xFD JUMPI PUSH0 PUSH0 REVERT JUMPDEST POP JUMP JUMPDEST PUSH0 DUP2 MLOAD SWAP1 POP PUSH2 0x10E DUP2 PUSH2 0xEA JUMP JUMPDEST SWAP3 SWAP2 POP POP JUMP JUMPDEST PUSH0 PUSH1 0x20 DUP3 DUP5 SUB SLT ISZERO PUSH2 0x129 JUMPI PUSH2 0x128 PUSH2 0xB6 JUMP JUMPDEST JUMPDEST PUSH0 PUSH2 0x136 DUP5 DUP3 DUP6 ADD PUSH2 0x100 JUMP JUMPDEST SWAP2 POP POP SWAP3 SWAP2 POP POP JUMP JUMPDEST PUSH2 0x1980 DUP1 PUSH2 0x14C PUSH0 CODECOPY PUSH0 RETURN INVALID PUSH1 0x80 PUSH1 0x40 MSTORE PUSH1 0x4 CALLDATASIZE LT PUSH2 0x90 JUMPI PUSH0 CALLDATALOAD PUSH1 0xE0 SHR DUP1 PUSH4 0x8DA5CB5B GT PUSH2 0x58 JUMPI DUP1 PUSH4 0x8DA5CB5B EQ PUSH2 0x134 JUMPI DUP1 PUSH4 0x9AEB133F EQ PUSH2 0x15E JUMPI DUP1 PUSH4 0xA86A658C EQ PUSH2 0x17A JUMPI DUP1 PUSH4 0xBFF998F4 EQ PUSH2 0x196 JUMPI DUP1 PUSH4 0xEB96EFA7 EQ PUSH2 0x1B2 JUMPI PUSH2 0x90 JUMP JUMPDEST DUP1 PUSH4 0x192812A0 EQ PUSH2 0x94 JUMPI DUP1 PUSH4 0x1942D199 EQ PUSH2 0xB0 JUMPI DUP1 PUSH4 0x3CCFD60B EQ PUSH2 0xCC JUMPI DUP1 PUSH4 0x5361E1D2 EQ PUSH2 0xE2 JUMPI DUP1 PUSH4 0x8C652F95 EQ PUSH2 0x10C JUMPI JUMPDEST PUSH0 PUSH0 REVERT JUMPDEST PUSH2 0xAE PUSH1 0x4 DUP1 CALLDATASIZE SUB DUP2 ADD SWAP1 PUSH2 0xA9 SWAP2 SWAP1 PUSH2 0xE52 JUMP JUMPDEST PUSH2 0x1BC JUMP JUMPDEST STOP JUMPDEST PUSH2 0xCA PUSH1 0x4 DUP1 CALLDATASIZE SUB DUP2 ADD SWAP1 PUSH2 0xC5 SWAP2 SWAP1 PUSH2 0xE7D JUMP JUMPDEST PUSH2 0x3D2 JUMP JUMPDEST STOP JUMPDEST CALLVALUE DUP1 ISZERO PUSH2 0xD7 JUMPI PUSH0 PUSH0 REVERT JUMPDEST POP PUSH2 0xE0 PUSH2 0x4BC JUMP JUMPDEST STOP JUMPDEST CALLVALUE DUP1 ISZERO PUSH2 0xED JUMPI PUSH0 PUSH0 REVERT JUMPDEST POP PUSH2 0xF6 PUSH2 0x5B2 JUMP JUMPDEST PUSH1 0x40 MLOAD PUSH2 0x103 SWAP2 SWAP1 PUSH2 0xF35 JUMP JUMPDEST PUSH1 0x40 MLOAD DUP1 SWAP2 SUB SWAP1 RETURN JUMPDEST CALLVALUE DUP1 ISZERO PUSH2 0x117 JUMPI PUSH0 PUSH0 REVERT JUMPDEST POP PUSH2 0x132 PUSH1 0x4 DUP1 CALLDATASIZE SUB DUP2 ADD SWAP1 PUSH2 0x12D SWAP2 SWAP1 PUSH2 0xF89 JUMP JUMPDEST PUSH2 0x5D6 JUMP JUMPDEST STOP JUMPDEST CALLVALUE DUP1 ISZERO PUSH2 0x13F JUMPI PUSH0 PUSH0 REVERT JUMPDEST POP PUSH2 0x148 PUSH2 0x662 JUMP JUMPDEST PUSH1 0x40 MLOAD PUSH2 0x155 SWAP2 SWAP1 PUSH2 0xFD6 JUMP JUMPDEST PUSH1 0x40 MLOAD DUP1 SWAP2 SUB SWAP1 RETURN JUMPDEST PUSH2 0x178 PUSH1 0x4 DUP1 CALLDATASIZE SUB DUP2 ADD SWAP1 PUSH2 0x173 SWAP2 SWAP1 PUSH2 0x1012 JUMP JUMPDEST PUSH2 0x687 JUMP JUMPDEST STOP JUMPDEST PUSH2 0x194 PUSH1 0x4 DUP1 CALLDATASIZE SUB DUP2 ADD SWAP1 PUSH2 0x18F SWAP2 SWAP1 PUSH2 0xE52 JUMP JUMPDEST PUSH2 0x8B6 JUMP JUMPDEST STOP JUMPDEST PUSH2 0x1B0 PUSH1 0x4 DUP1 CALLDATASIZE SUB DUP2 ADD SWAP1 PUSH2 0x1AB SWAP2 SWAP1 PUSH2 0xE52 JUMP JUMPDEST PUSH2 0x989 JUMP JUMPDEST STOP JUMPDEST PUSH2 0x1BA PUSH2 0xA5C JUMP JUMPDEST STOP JUMPDEST PUSH0 PUSH0 PUSH0 SWAP1 SLOAD SWAP1 PUSH2 0x100 EXP SWAP1 DIV PUSH20 0xFFFFFFFFFFFFFFFFFFFFFFFFFFFFFFFFFFFFFFFF AND PUSH20 0xFFFFFFFFFFFFFFFFFFFFFFFFFFFFFFFFFFFFFFFF AND PUSH4 0x6EC88BBD DUP4 PUSH1 0x40 MLOAD DUP3 PUSH4 0xFFFFFFFF AND PUSH1 0xE0 SHL DUP2 MSTORE PUSH1 0x4 ADD PUSH2 0x216 SWAP2 SWAP1 PUSH2 0x104C JUMP JUMPDEST PUSH1 0xE0 PUSH1 0x40 MLOAD DUP1 DUP4 SUB DUP2 PUSH0 DUP8 GAS CALL ISZERO DUP1 ISZERO PUSH2 0x232 JUMPI RETURNDATASIZE PUSH0 PUSH0 RETURNDATACOPY RETURNDATASIZE PUSH0 REVERT JUMPDEST POP POP POP POP PUSH1 0x40 MLOAD RETURNDATASIZE PUSH1 0x1F NOT PUSH1 0x1F DUP3 ADD AND DUP3 ADD DUP1 PUSH1 0x40 MSTORE POP DUP2 ADD SWAP1 PUSH2 0x256 SWAP2 SWAP1 PUSH2 0x11FF JUMP JUMPDEST SWAP1 POP DUP1 PUSH1 0xA0 ADD MLOAD PUSH2 0x29C JUMPI PUSH1 0x40 MLOAD PUSH32 0x8C379A000000000000000000000000000000000000000000000000000000000 DUP2 MSTORE PUSH1 0x4 ADD PUSH2 0x293 SWAP1 PUSH2 0x1284 JUMP JUMPDEST PUSH1 0x40 MLOAD DUP1 SWAP2 SUB SWAP1 REVERT JUMPDEST PUSH0 PUSH2 0x2AA DUP3 PUSH1 0x60 ADD MLOAD PUSH2 0xB49 JUMP JUMPDEST SWAP1 POP PUSH0 PUSH1 0x5 DUP3 PUSH2 0x2BA SWAP2 SWAP1 PUSH2 0x12CF JUMP JUMPDEST SWAP1 POP PUSH0 PUSH3 0x15180 DUP5 PUSH1 0xC0 ADD MLOAD TIMESTAMP PUSH2 0x2D1 SWAP2 SWAP1 PUSH2 0x1310 JUMP JUMPDEST PUSH2 0x2DB SWAP2 SWAP1 PUSH2 0x1370 JUMP JUMPDEST SWAP1 POP PUSH1 0x64 DUP2 DUP4 PUSH2 0x2EB SWAP2 SWAP1 PUSH2 0x12CF JUMP JUMPDEST PUSH2 0x2F5 SWAP2 SWAP1 PUSH2 0x1370 JUMP JUMPDEST DUP3 PUSH2 0x300 SWAP2 SWAP1 PUSH2 0x13A0 JUMP JUMPDEST SWAP2 POP DUP2 CALLVALUE LT ISZERO PUSH2 0x345 JUMPI PUSH1 0x40 MLOAD PUSH32 0x8C379A000000000000000000000000000000000000000000000000000000000 DUP2 MSTORE PUSH1 0x4 ADD PUSH2 0x33C SWAP1 PUSH2 0x1443 JUMP JUMPDEST PUSH1 0x40 MLOAD DUP1 SWAP2 SUB SWAP1 REVERT JUMPDEST PUSH0 PUSH0 SWAP1 SLOAD SWAP1 PUSH2 0x100 EXP SWAP1 DIV PUSH20 0xFFFFFFFFFFFFFFFFFFFFFFFFFFFFFFFFFFFFFFFF AND PUSH20 0xFFFFFFFFFFFFFFFFFFFFFFFFFFFFFFFFFFFFFFFF AND PUSH4 0x8BAECC21 DUP7 PUSH1 0x40 MLOAD DUP3 PUSH4 0xFFFFFFFF AND PUSH1 0xE0 SHL DUP2 MSTORE PUSH1 0x4 ADD PUSH2 0x39E SWAP2 SWAP1 PUSH2 0x104C JUMP JUMPDEST PUSH0 PUSH1 0x40 MLOAD DUP1 DUP4 SUB DUP2 PUSH0 DUP8 DUP1 EXTCODESIZE ISZERO DUP1 ISZERO PUSH2 0x3B5 JUMPI PUSH0 PUSH0 REVERT JUMPDEST POP GAS CALL ISZERO DUP1 ISZERO PUSH2 0x3C7 JUMPI RETURNDATASIZE PUSH0 PUSH0 RETURNDATACOPY RETURNDATASIZE PUSH0 REVERT JUMPDEST POP POP POP POP POP POP POP POP POP JUMP JUMPDEST PUSH0 PUSH6 0x9184E72A000 SWAP1 POP PUSH0 DUP2 DUP4 PUSH2 0x3E9 SWAP2 SWAP1 PUSH2 0x12CF JUMP JUMPDEST SWAP1 POP DUP1 CALLVALUE LT ISZERO PUSH2 0x42E JUMPI PUSH1 0x40 MLOAD PUSH32 0x8C379A000000000000000000000000000000000000000000000000000000000 DUP2 MSTORE PUSH1 0x4 ADD PUSH2 0x425 SWAP1 PUSH2 0x14AB JUMP JUMPDEST PUSH1 0x40 MLOAD DUP1 SWAP2 SUB SWAP1 REVERT JUMPDEST PUSH0 PUSH0 SWAP1 SLOAD SWAP1 PUSH2 0x100 EXP SWAP1 DIV PUSH20 0xFFFFFFFFFFFFFFFFFFFFFFFFFFFFFFFFFFFFFFFF AND PUSH20 0xFFFFFFFFFFFFFFFFFFFFFFFFFFFFFFFFFFFFFFFF AND PUSH4 0x1942D199 DUP6 DUP6 PUSH1 0x40 MLOAD DUP4 PUSH4 0xFFFFFFFF AND PUSH1 0xE0 SHL DUP2 MSTORE PUSH1 0x4 ADD PUSH2 0x489 SWAP3 SWAP2 SWAP1 PUSH2 0x14C9 JUMP JUMPDEST PUSH0 PUSH1 0x40 MLOAD DUP1 DUP4 SUB DUP2 PUSH0 DUP8 DUP1 EXTCODESIZE ISZERO DUP1 ISZERO PUSH2 0x4A0 JUMPI PUSH0 PUSH0 REVERT JUMPDEST POP GAS CALL ISZERO DUP1 ISZERO PUSH2 0x4B2 JUMPI RETURNDATASIZE PUSH0 PUSH0 RETURNDATACOPY RETURNDATASIZE PUSH0 REVERT JUMPDEST POP POP POP POP POP POP POP POP JUMP JUMPDEST PUSH1 0x1 PUSH0 SWAP1 SLOAD SWAP1 PUSH2 0x100 EXP SWAP1 DIV PUSH20 0xFFFFFFFFFFFFFFFFFFFFFFFFFFFFFFFFFFFFFFFF AND PUSH20 0xFFFFFFFFFFFFFFFFFFFFFFFFFFFFFFFFFFFFFFFF AND CALLER PUSH20 0xFFFFFFFFFFFFFFFFFFFFFFFFFFFFFFFFFFFFFFFF AND EQ PUSH2 0x54B JUMPI PUSH1 0x40 MLOAD PUSH32 0x8C379A000000000000000000000000000000000000000000000000000000000 DUP2 MSTORE PUSH1 0x4 ADD PUSH2 0x542 SWAP1 PUSH2 0x153A JUMP JUMPDEST PUSH1 0x40 MLOAD DUP1 SWAP2 SUB SWAP1 REVERT JUMPDEST PUSH1 0x1 PUSH0 SWAP1 SLOAD SWAP1 PUSH2 0x100 EXP SWAP1 DIV PUSH20 0xFFFFFFFFFFFFFFFFFFFFFFFFFFFFFFFFFFFFFFFF AND PUSH20 0xFFFFFFFFFFFFFFFFFFFFFFFFFFFFFFFFFFFFFFFF AND PUSH2 0x8FC SELFBALANCE SWAP1 DUP2 ISZERO MUL SWAP1 PUSH1 0x40 MLOAD PUSH0 PUSH1 0x40 MLOAD DUP1 DUP4 SUB DUP2 DUP6 DUP9 DUP9 CALL SWAP4 POP POP POP POP ISZERO DUP1 ISZERO PUSH2 0x5AF JUMPI RETURNDATASIZE PUSH0 PUSH0 RETURNDATACOPY RETURNDATASIZE PUSH0 REVERT JUMPDEST POP JUMP JUMPDEST PUSH0 PUSH0 SWAP1 SLOAD SWAP1 PUSH2 0x100 EXP SWAP1 DIV PUSH20 0xFFFFFFFFFFFFFFFFFFFFFFFFFFFFFFFFFFFFFFFF AND DUP2 JUMP JUMPDEST PUSH0 PUSH0 SWAP1 SLOAD SWAP1 PUSH2 0x100 EXP SWAP1 DIV PUSH20 0xFFFFFFFFFFFFFFFFFFFFFFFFFFFFFFFFFFFFFFFF AND PUSH20 0xFFFFFFFFFFFFFFFFFFFFFFFFFFFFFFFFFFFFFFFF AND PUSH4 0x8C652F95 DUP4 DUP4 PUSH1 0x40 MLOAD DUP4 PUSH4 0xFFFFFFFF AND PUSH1 0xE0 SHL DUP2 MSTORE PUSH1 0x4 ADD PUSH2 0x631 SWAP3 SWAP2 SWAP1 PUSH2 0x1558 JUMP JUMPDEST PUSH0 PUSH1 0x40 MLOAD DUP1 DUP4 SUB DUP2 PUSH0 DUP8 DUP1 EXTCODESIZE ISZERO DUP1 ISZERO PUSH2 0x648 JUMPI PUSH0 PUSH0 REVERT JUMPDEST POP GAS CALL ISZERO DUP1 ISZERO PUSH2 0x65A JUMPI RETURNDATASIZE PUSH0 PUSH0 RETURNDATACOPY RETURNDATASIZE PUSH0 REVERT JUMPDEST POP POP POP POP POP POP JUMP JUMPDEST PUSH1 0x1 PUSH0 SWAP1 SLOAD SWAP1 PUSH2 0x100 EXP SWAP1 DIV PUSH20 0xFFFFFFFFFFFFFFFFFFFFFFFFFFFFFFFFFFFFFFFF AND DUP2 JUMP JUMPDEST PUSH0 PUSH2 0x691 DUP3 PUSH2 0xB49 JUMP JUMPDEST SWAP1 POP DUP1 CALLVALUE LT ISZERO PUSH2 0x6D6 JUMPI PUSH1 0x40 MLOAD PUSH32 0x8C379A000000000000000000000000000000000000000000000000000000000 DUP2 MSTORE PUSH1 0x4 ADD PUSH2 0x6CD SWAP1 PUSH2 0x15EF JUMP JUMPDEST PUSH1 0x40 MLOAD DUP1 SWAP2 SUB SWAP1 REVERT JUMPDEST PUSH0 PUSH0 PUSH0 PUSH2 0x3E8 TIMESTAMP CALLER PUSH1 0x40 MLOAD PUSH1 0x20 ADD PUSH2 0x6EF SWAP3 SWAP2 SWAP1 PUSH2 0x1672 JUMP JUMPDEST PUSH1 0x40 MLOAD PUSH1 0x20 DUP2 DUP4 SUB SUB DUP2 MSTORE SWAP1 PUSH1 0x40 MSTORE DUP1 MLOAD SWAP1 PUSH1 0x20 ADD KECCAK256 PUSH0 SHR PUSH2 0x711 SWAP2 SWAP1 PUSH2 0x169D JUMP JUMPDEST SWAP1 POP PUSH1 0xA DUP2 LT ISZERO PUSH2 0x7C1 JUMPI PUSH0 PUSH0 SWAP1 SLOAD SWAP1 PUSH2 0x100 EXP SWAP1 DIV PUSH20 0xFFFFFFFFFFFFFFFFFFFFFFFFFFFFFFFFFFFFFFFF AND PUSH20 0xFFFFFFFFFFFFFFFFFFFFFFFFFFFFFFFFFFFFFFFF AND PUSH4 0x4D2D7881 PUSH1 0xA PUSH1 0x40 MLOAD DUP3 PUSH4 0xFFFFFFFF AND PUSH1 0xE0 SHL DUP2 MSTORE PUSH1 0x4 ADD PUSH2 0x776 SWAP2 SWAP1 PUSH2 0x1740 JUMP JUMPDEST PUSH1 0x20 PUSH1 0x40 MLOAD DUP1 DUP4 SUB DUP2 PUSH0 DUP8 GAS CALL ISZERO DUP1 ISZERO PUSH2 0x792 JUMPI RETURNDATASIZE PUSH0 PUSH0 RETURNDATACOPY RETURNDATASIZE PUSH0 REVERT JUMPDEST POP POP POP POP PUSH1 0x40 MLOAD RETURNDATASIZE PUSH1 0x1F NOT PUSH1 0x1F DUP3 ADD AND DUP3 ADD DUP1 PUSH1 0x40 MSTORE POP DUP2 ADD SWAP1 PUSH2 0x7B6 SWAP2 SWAP1 PUSH2 0x1759 JUMP JUMPDEST SWAP3 POP PUSH1 0xA SWAP2 POP PUSH2 0x860 JUMP JUMPDEST PUSH0 PUSH0 SWAP1 SLOAD SWAP1 PUSH2 0x100 EXP SWAP1 DIV PUSH20 0xFFFFFFFFFFFFFFFFFFFFFFFFFFFFFFFFFFFFFFFF AND PUSH20 0xFFFFFFFFFFFFFFFFFFFFFFFFFFFFFFFFFFFFFFFF AND PUSH4 0x4D2D7881 DUP7 PUSH1 0x40 MLOAD DUP3 PUSH4 0xFFFFFFFF AND PUSH1 0xE0 SHL DUP2 MSTORE PUSH1 0x4 ADD PUSH2 0x81A SWAP2 SWAP1 PUSH2 0x1740 JUMP JUMPDEST PUSH1 0x20 PUSH1 0x40 MLOAD DUP1 DUP4 SUB DUP2 PUSH0 DUP8 GAS CALL ISZERO DUP1 ISZERO PUSH2 0x836 JUMPI RETURNDATASIZE PUSH0 PUSH0 RETURNDATACOPY RETURNDATASIZE PUSH0 REVERT JUMPDEST POP POP POP POP PUSH1 0x40 MLOAD RETURNDATASIZE PUSH1 0x1F NOT PUSH1 0x1F DUP3 ADD AND DUP3 ADD DUP1 PUSH1 0x40 MSTORE POP DUP2 ADD SWAP1 PUSH2 0x85A SWAP2 SWAP1 PUSH2 0x1759 JUMP JUMPDEST SWAP3 POP DUP5 SWAP2 POP JUMPDEST ORIGIN PUSH20 0xFFFFFFFFFFFFFFFFFFFFFFFFFFFFFFFFFFFFFFFF AND DUP4 PUSH32 0x3C69FBC401A0AC60517668AE5A88E1BD67657EE3E51CD1B6EDDCCF7B6B64776A DUP5 PUSH1 0x40 MLOAD PUSH2 0x8A7 SWAP2 SWAP1 PUSH2 0x1740 JUMP JUMPDEST PUSH1 0x40 MLOAD DUP1 SWAP2 SUB SWAP1 LOG3 POP POP POP POP POP JUMP JUMPDEST PUSH7 0x470DE4DF820000 CALLVALUE LT ISZERO PUSH2 0x900 JUMPI PUSH1 0x40 MLOAD PUSH32 0x8C379A000000000000000000000000000000000000000000000000000000000 DUP2 MSTORE PUSH1 0x4 ADD PUSH2 0x8F7 SWAP1 PUSH2 0x17CE JUMP JUMPDEST PUSH1 0x40 MLOAD DUP1 SWAP2 SUB SWAP1 REVERT JUMPDEST PUSH0 PUSH0 SWAP1 SLOAD SWAP1 PUSH2 0x100 EXP SWAP1 DIV PUSH20 0xFFFFFFFFFFFFFFFFFFFFFFFFFFFFFFFFFFFFFFFF AND PUSH20 0xFFFFFFFFFFFFFFFFFFFFFFFFFFFFFFFFFFFFFFFF AND PUSH4 0x49B1A0BF DUP3 PUSH1 0x40 MLOAD DUP3 PUSH4 0xFFFFFFFF AND PUSH1 0xE0 SHL DUP2 MSTORE PUSH1 0x4 ADD PUSH2 0x959 SWAP2 SWAP1 PUSH2 0x104C JUMP JUMPDEST PUSH0 PUSH1 0x40 MLOAD DUP1 DUP4 SUB DUP2 PUSH0 DUP8 DUP1 EXTCODESIZE ISZERO DUP1 ISZERO PUSH2 0x970 JUMPI PUSH0 PUSH0 REVERT JUMPDEST POP GAS CALL ISZERO DUP1 ISZERO PUSH2 0x982 JUMPI RETURNDATASIZE PUSH0 PUSH0 RETURNDATACOPY RETURNDATASIZE PUSH0 REVERT JUMPDEST POP POP POP POP POP JUMP JUMPDEST PUSH7 0x11C37937E08000 CALLVALUE LT ISZERO PUSH2 0x9D3 JUMPI PUSH1 0x40 MLOAD PUSH32 0x8C379A000000000000000000000000000000000000000000000000000000000 DUP2 MSTORE PUSH1 0x4 ADD PUSH2 0x9CA SWAP1 PUSH2 0x1836 JUMP JUMPDEST PUSH1 0x40 MLOAD DUP1 SWAP2 SUB SWAP1 REVERT JUMPDEST PUSH0 PUSH0 SWAP1 SLOAD SWAP1 PUSH2 0x100 EXP SWAP1 DIV PUSH20 0xFFFFFFFFFFFFFFFFFFFFFFFFFFFFFFFFFFFFFFFF AND PUSH20 0xFFFFFFFFFFFFFFFFFFFFFFFFFFFFFFFFFFFFFFFF AND PUSH4 0xBFF998F4 DUP3 PUSH1 0x40 MLOAD DUP3 PUSH4 0xFFFFFFFF AND PUSH1 0xE0 SHL DUP2 MSTORE PUSH1 0x4 ADD PUSH2 0xA2C SWAP2 SWAP1 PUSH2 0x104C JUMP JUMPDEST PUSH0 PUSH1 0x40 MLOAD DUP1 DUP4 SUB DUP2 PUSH0 DUP8 DUP1 EXTCODESIZE ISZERO DUP1 ISZERO PUSH2 0xA43 JUMPI PUSH0 PUSH0 REVERT JUMPDEST POP GAS CALL ISZERO DUP1 ISZERO PUSH2 0xA55 JUMPI RETURNDATASIZE PUSH0 PUSH0 RETURNDATACOPY RETURNDATASIZE PUSH0 REVERT JUMPDEST POP POP POP POP POP JUMP JUMPDEST PUSH0 PUSH8 0x2C68AF0BB140000 SWAP1 POP DUP1 CALLVALUE LT ISZERO PUSH2 0xAAB JUMPI PUSH1 0x40 MLOAD PUSH32 0x8C379A000000000000000000000000000000000000000000000000000000000 DUP2 MSTORE PUSH1 0x4 ADD PUSH2 0xAA2 SWAP1 PUSH2 0x18C4 JUMP JUMPDEST PUSH1 0x40 MLOAD DUP1 SWAP2 SUB SWAP1 REVERT JUMPDEST PUSH0 PUSH0 SWAP1 SLOAD SWAP1 PUSH2 0x100 EXP SWAP1 DIV PUSH20 0xFFFFFFFFFFFFFFFFFFFFFFFFFFFFFFFFFFFFFFFF AND PUSH20 0xFFFFFFFFFFFFFFFFFFFFFFFFFFFFFFFFFFFFFFFF AND PUSH4 0x4D2D7881 PUSH1 0xA PUSH1 0x40 MLOAD DUP3 PUSH4 0xFFFFFFFF AND PUSH1 0xE0 SHL DUP2 MSTORE PUSH1 0x4 ADD PUSH2 0xB05 SWAP2 SWAP1 PUSH2 0x1740 JUMP JUMPDEST PUSH1 0x20 PUSH1 0x40 MLOAD DUP1 DUP4 SUB DUP2 PUSH0 DUP8 GAS CALL ISZERO DUP1 ISZERO PUSH2 0xB21 JUMPI RETURNDATASIZE PUSH0 PUSH0 RETURNDATACOPY RETURNDATASIZE PUSH0 REVERT JUMPDEST POP POP POP POP PUSH1 0x40 MLOAD RETURNDATASIZE PUSH1 0x1F NOT PUSH1 0x1F DUP3 ADD AND DUP3 ADD DUP1 PUSH1 0x40 MSTORE POP DUP2 ADD SWAP1 PUSH2 0xB45 SWAP2 SWAP1 PUSH2 0x1759 JUMP JUMPDEST POP POP JUMP JUMPDEST PUSH0 PUSH0 PUSH1 0xA DUP2 GT ISZERO PUSH2 0xB5D JUMPI PUSH2 0xB5C PUSH2 0x16CD JUMP JUMPDEST JUMPDEST DUP3 PUSH1 0xA DUP2 GT ISZERO PUSH2 0xB70 JUMPI PUSH2 0xB6F PUSH2 0x16CD JUMP JUMPDEST JUMPDEST SUB PUSH2 0xB84 JUMPI PUSH7 0xB1A2BC2EC50000 SWAP1 POP PUSH2 0xE0D JUMP JUMPDEST PUSH1 0x1 PUSH1 0xA DUP2 GT ISZERO PUSH2 0xB98 JUMPI PUSH2 0xB97 PUSH2 0x16CD JUMP JUMPDEST JUMPDEST DUP3 PUSH1 0xA DUP2 GT ISZERO PUSH2 0xBAB JUMPI PUSH2 0xBAA PUSH2 0x16CD JUMP JUMPDEST JUMPDEST SUB PUSH2 0xBBF JUMPI PUSH7 0xB1A2BC2EC50000 SWAP1 POP PUSH2 0xE0D JUMP JUMPDEST PUSH1 0x2 PUSH1 0xA DUP2 GT ISZERO PUSH2 0xBD3 JUMPI PUSH2 0xBD2 PUSH2 0x16CD JUMP JUMPDEST JUMPDEST DUP3 PUSH1 0xA DUP2 GT ISZERO PUSH2 0xBE6 JUMPI PUSH2 0xBE5 PUSH2 0x16CD JUMP JUMPDEST JUMPDEST SUB PUSH2 0xBFA JUMPI PUSH7 0x470DE4DF820000 SWAP1 POP PUSH2 0xE0D JUMP JUMPDEST PUSH1 0x3 PUSH1 0xA DUP2 GT ISZERO PUSH2 0xC0E JUMPI PUSH2 0xC0D PUSH2 0x16CD JUMP JUMPDEST JUMPDEST DUP3 PUSH1 0xA DUP2 GT ISZERO PUSH2 0xC21 JUMPI PUSH2 0xC20 PUSH2 0x16CD JUMP JUMPDEST JUMPDEST SUB PUSH2 0xC35 JUMPI PUSH7 0x6A94D74F430000 SWAP1 POP PUSH2 0xE0D JUMP JUMPDEST PUSH1 0x4 PUSH1 0xA DUP2 GT ISZERO PUSH2 0xC49 JUMPI PUSH2 0xC48 PUSH2 0x16CD JUMP JUMPDEST JUMPDEST DUP3 PUSH1 0xA DUP2 GT ISZERO PUSH2 0xC5C JUMPI PUSH2 0xC5B PUSH2 0x16CD JUMP JUMPDEST JUMPDEST SUB PUSH2 0xC70 JUMPI PUSH7 0x3FF2E795F50000 SWAP1 POP PUSH2 0xE0D JUMP JUMPDEST PUSH1 0x5 PUSH1 0xA DUP2 GT ISZERO PUSH2 0xC84 JUMPI PUSH2 0xC83 PUSH2 0x16CD JUMP JUMPDEST JUMPDEST DUP3 PUSH1 0xA DUP2 GT ISZERO PUSH2 0xC97 JUMPI PUSH2 0xC96 PUSH2 0x16CD JUMP JUMPDEST JUMPDEST SUB PUSH2 0xCAB JUMPI PUSH7 0x2386F26FC10000 SWAP1 POP PUSH2 0xE0D JUMP JUMPDEST PUSH1 0x6 PUSH1 0xA DUP2 GT ISZERO PUSH2 0xCBF JUMPI PUSH2 0xCBE PUSH2 0x16CD JUMP JUMPDEST JUMPDEST DUP3 PUSH1 0xA DUP2 GT ISZERO PUSH2 0xCD2 JUMPI PUSH2 0xCD1 PUSH2 0x16CD JUMP JUMPDEST JUMPDEST SUB PUSH2 0xCE6 JUMPI PUSH7 0x2386F26FC10000 SWAP1 POP PUSH2 0xE0D JUMP JUMPDEST PUSH1 0x7 PUSH1 0xA DUP2 GT ISZERO PUSH2 0xCFA JUMPI PUSH2 0xCF9 PUSH2 0x16CD JUMP JUMPDEST JUMPDEST DUP3 PUSH1 0xA DUP2 GT ISZERO PUSH2 0xD0D JUMPI PUSH2 0xD0C PUSH2 0x16CD JUMP JUMPDEST JUMPDEST SUB PUSH2 0xD21 JUMPI PUSH7 0x2AA1EFB94E0000 SWAP1 POP PUSH2 0xE0D JUMP JUMPDEST PUSH1 0x8 PUSH1 0xA DUP2 GT ISZERO PUSH2 0xD35 JUMPI PUSH2 0xD34 PUSH2 0x16CD JUMP JUMPDEST JUMPDEST DUP3 PUSH1 0xA DUP2 GT ISZERO PUSH2 0xD48 JUMPI PUSH2 0xD47 PUSH2 0x16CD JUMP JUMPDEST JUMPDEST SUB PUSH2 0xD5C JUMPI PUSH7 0x8E1BC9BF040000 SWAP1 POP PUSH2 0xE0D JUMP JUMPDEST PUSH1 0x9 PUSH1 0xA DUP2 GT ISZERO PUSH2 0xD70 JUMPI PUSH2 0xD6F PUSH2 0x16CD JUMP JUMPDEST JUMPDEST DUP3 PUSH1 0xA DUP2 GT ISZERO PUSH2 0xD83 JUMPI PUSH2 0xD82 PUSH2 0x16CD JUMP JUMPDEST JUMPDEST SUB PUSH2 0xD97 JUMPI PUSH7 0x2386F26FC10000 SWAP1 POP PUSH2 0xE0D JUMP JUMPDEST PUSH1 0xA DUP1 DUP2 GT ISZERO PUSH2 0xDAA JUMPI PUSH2 0xDA9 PUSH2 0x16CD JUMP JUMPDEST JUMPDEST DUP3 PUSH1 0xA DUP2 GT ISZERO PUSH2 0xDBD JUMPI PUSH2 0xDBC PUSH2 0x16CD JUMP JUMPDEST JUMPDEST SUB PUSH2 0xDD2 JUMPI PUSH8 0x2C68AF0BB140000 SWAP1 POP PUSH2 0xE0D JUMP JUMPDEST PUSH1 0x40 MLOAD PUSH32 0x8C379A000000000000000000000000000000000000000000000000000000000 DUP2 MSTORE PUSH1 0x4 ADD PUSH2 0xE04 SWAP1 PUSH2 0x192C JUMP JUMPDEST PUSH1 0x40 MLOAD DUP1 SWAP2 SUB SWAP1 REVERT JUMPDEST SWAP2 SWAP1 POP JUMP JUMPDEST PUSH0 PUSH1 0x40 MLOAD SWAP1 POP SWAP1 JUMP JUMPDEST PUSH0 PUSH0 REVERT JUMPDEST PUSH0 DUP2 SWAP1 POP SWAP2 SWAP1 POP JUMP JUMPDEST PUSH2 0xE31 DUP2 PUSH2 0xE1F JUMP JUMPDEST DUP2 EQ PUSH2 0xE3B JUMPI PUSH0 PUSH0 REVERT JUMPDEST POP JUMP JUMPDEST PUSH0 DUP2 CALLDATALOAD SWAP1 POP PUSH2 0xE4C DUP2 PUSH2 0xE28 JUMP JUMPDEST SWAP3 SWAP2 POP POP JUMP JUMPDEST PUSH0 PUSH1 0x20 DUP3 DUP5 SUB SLT ISZERO PUSH2 0xE67 JUMPI PUSH2 0xE66 PUSH2 0xE1B JUMP JUMPDEST JUMPDEST PUSH0 PUSH2 0xE74 DUP5 DUP3 DUP6 ADD PUSH2 0xE3E JUMP JUMPDEST SWAP2 POP POP SWAP3 SWAP2 POP POP JUMP JUMPDEST PUSH0 PUSH0 PUSH1 0x40 DUP4 DUP6 SUB SLT ISZERO PUSH2 0xE93 JUMPI PUSH2 0xE92 PUSH2 0xE1B JUMP JUMPDEST JUMPDEST PUSH0 PUSH2 0xEA0 DUP6 DUP3 DUP7 ADD PUSH2 0xE3E JUMP JUMPDEST SWAP3 POP POP PUSH1 0x20 PUSH2 0xEB1 DUP6 DUP3 DUP7 ADD PUSH2 0xE3E JUMP JUMPDEST SWAP2 POP POP SWAP3 POP SWAP3 SWAP1 POP JUMP JUMPDEST PUSH0 PUSH20 0xFFFFFFFFFFFFFFFFFFFFFFFFFFFFFFFFFFFFFFFF DUP3 AND SWAP1 POP SWAP2 SWAP1 POP JUMP JUMPDEST PUSH0 DUP2 SWAP1 POP SWAP2 SWAP1 POP JUMP JUMPDEST PUSH0 PUSH2 0xEFD PUSH2 0xEF8 PUSH2 0xEF3 DUP5 PUSH2 0xEBB JUMP JUMPDEST PUSH2 0xEDA JUMP JUMPDEST PUSH2 0xEBB JUMP JUMPDEST SWAP1 POP SWAP2 SWAP1 POP JUMP JUMPDEST PUSH0 PUSH2 0xF0E DUP3 PUSH2 0xEE3 JUMP JUMPDEST SWAP1 POP SWAP2 SWAP1 POP JUMP JUMPDEST PUSH0 PUSH2 0xF1F DUP3 PUSH2 0xF04 JUMP JUMPDEST SWAP1 POP SWAP2 SWAP1 POP JUMP JUMPDEST PUSH2 0xF2F DUP2 PUSH2 0xF15 JUMP JUMPDEST DUP3 MSTORE POP POP JUMP JUMPDEST PUSH0 PUSH1 0x20 DUP3 ADD SWAP1 POP PUSH2 0xF48 PUSH0 DUP4 ADD DUP5 PUSH2 0xF26 JUMP JUMPDEST SWAP3 SWAP2 POP POP JUMP JUMPDEST PUSH0 PUSH2 0xF58 DUP3 PUSH2 0xEBB JUMP JUMPDEST SWAP1 POP SWAP2 SWAP1 POP JUMP JUMPDEST PUSH2 0xF68 DUP2 PUSH2 0xF4E JUMP JUMPDEST DUP2 EQ PUSH2 0xF72 JUMPI PUSH0 PUSH0 REVERT JUMPDEST POP JUMP JUMPDEST PUSH0 DUP2 CALLDATALOAD SWAP1 POP PUSH2 0xF83 DUP2 PUSH2 0xF5F JUMP JUMPDEST SWAP3 SWAP2 POP POP JUMP JUMPDEST PUSH0 PUSH0 PUSH1 0x40 DUP4 DUP6 SUB SLT ISZERO PUSH2 0xF9F JUMPI PUSH2 0xF9E PUSH2 0xE1B JUMP JUMPDEST JUMPDEST PUSH0 PUSH2 0xFAC DUP6 DUP3 DUP7 ADD PUSH2 0xE3E JUMP JUMPDEST SWAP3 POP POP PUSH1 0x20 PUSH2 0xFBD DUP6 DUP3 DUP7 ADD PUSH2 0xF75 JUMP JUMPDEST SWAP2 POP POP SWAP3 POP SWAP3 SWAP1 POP JUMP JUMPDEST PUSH2 0xFD0 DUP2 PUSH2 0xF4E JUMP JUMPDEST DUP3 MSTORE POP POP JUMP JUMPDEST PUSH0 PUSH1 0x20 DUP3 ADD SWAP1 POP PUSH2 0xFE9 PUSH0 DUP4 ADD DUP5 PUSH2 0xFC7 JUMP JUMPDEST SWAP3 SWAP2 POP POP JUMP JUMPDEST PUSH1 0xB DUP2 LT PUSH2 0xFFB JUMPI PUSH0 PUSH0 REVERT JUMPDEST POP JUMP JUMPDEST PUSH0 DUP2 CALLDATALOAD SWAP1 POP PUSH2 0x100C DUP2 PUSH2 0xFEF JUMP JUMPDEST SWAP3 SWAP2 POP POP JUMP JUMPDEST PUSH0 PUSH1 0x20 DUP3 DUP5 SUB SLT ISZERO PUSH2 0x1027 JUMPI PUSH2 0x1026 PUSH2 0xE1B JUMP JUMPDEST JUMPDEST PUSH0 PUSH2 0x1034 DUP5 DUP3 DUP6 ADD PUSH2 0xFFE JUMP JUMPDEST SWAP2 POP POP SWAP3 SWAP2 POP POP JUMP JUMPDEST PUSH2 0x1046 DUP2 PUSH2 0xE1F JUMP JUMPDEST DUP3 MSTORE POP POP JUMP JUMPDEST PUSH0 PUSH1 0x20 DUP3 ADD SWAP1 POP PUSH2 0x105F PUSH0 DUP4 ADD DUP5 PUSH2 0x103D JUMP JUMPDEST SWAP3 SWAP2 POP POP JUMP JUMPDEST PUSH0 PUSH0 REVERT JUMPDEST PUSH0 PUSH1 0x1F NOT PUSH1 0x1F DUP4 ADD AND SWAP1 POP SWAP2 SWAP1 POP JUMP JUMPDEST PUSH32 0x4E487B7100000000000000000000000000000000000000000000000000000000 PUSH0 MSTORE PUSH1 0x41 PUSH1 0x4 MSTORE PUSH1 0x24 PUSH0 REVERT JUMPDEST PUSH2 0x10AF DUP3 PUSH2 0x1069 JUMP JUMPDEST DUP2 ADD DUP2 DUP2 LT PUSH8 0xFFFFFFFFFFFFFFFF DUP3 GT OR ISZERO PUSH2 0x10CE JUMPI PUSH2 0x10CD PUSH2 0x1079 JUMP JUMPDEST JUMPDEST DUP1 PUSH1 0x40 MSTORE POP POP POP JUMP JUMPDEST PUSH0 PUSH2 0x10E0 PUSH2 0xE12 JUMP JUMPDEST SWAP1 POP PUSH2 0x10EC DUP3 DUP3 PUSH2 0x10A6 JUMP JUMPDEST SWAP2 SWAP1 POP JUMP JUMPDEST PUSH0 DUP2 MLOAD SWAP1 POP PUSH2 0x10FF DUP2 PUSH2 0xE28 JUMP JUMPDEST SWAP3 SWAP2 POP POP JUMP JUMPDEST PUSH0 DUP2 MLOAD SWAP1 POP PUSH2 0x1113 DUP2 PUSH2 0xFEF JUMP JUMPDEST SWAP3 SWAP2 POP POP JUMP JUMPDEST PUSH0 DUP2 ISZERO ISZERO SWAP1 POP SWAP2 SWAP1 POP JUMP JUMPDEST PUSH2 0x112D DUP2 PUSH2 0x1119 JUMP JUMPDEST DUP2 EQ PUSH2 0x1137 JUMPI PUSH0 PUSH0 REVERT JUMPDEST POP JUMP JUMPDEST PUSH0 DUP2 MLOAD SWAP1 POP PUSH2 0x1148 DUP2 PUSH2 0x1124 JUMP JUMPDEST SWAP3 SWAP2 POP POP JUMP JUMPDEST PUSH0 PUSH1 0xE0 DUP3 DUP5 SUB SLT ISZERO PUSH2 0x1163 JUMPI PUSH2 0x1162 PUSH2 0x1065 JUMP JUMPDEST JUMPDEST PUSH2 0x116D PUSH1 0xE0 PUSH2 0x10D7 JUMP JUMPDEST SWAP1 POP PUSH0 PUSH2 0x117C DUP5 DUP3 DUP6 ADD PUSH2 0x10F1 JUMP JUMPDEST PUSH0 DUP4 ADD MSTORE POP PUSH1 0x20 PUSH2 0x118F DUP5 DUP3 DUP6 ADD PUSH2 0x10F1 JUMP JUMPDEST PUSH1 0x20 DUP4 ADD MSTORE POP PUSH1 0x40 PUSH2 0x11A3 DUP5 DUP3 DUP6 ADD PUSH2 0x10F1 JUMP JUMPDEST PUSH1 0x40 DUP4 ADD MSTORE POP PUSH1 0x60 PUSH2 0x11B7 DUP5 DUP3 DUP6 ADD PUSH2 0x1105 JUMP JUMPDEST PUSH1 0x60 DUP4 ADD MSTORE POP PUSH1 0x80 PUSH2 0x11CB DUP5 DUP3 DUP6 ADD PUSH2 0x10F1 JUMP JUMPDEST PUSH1 0x80 DUP4 ADD MSTORE POP PUSH1 0xA0 PUSH2 0x11DF DUP5 DUP3 DUP6 ADD PUSH2 0x113A JUMP JUMPDEST PUSH1 0xA0 DUP4 ADD MSTORE POP PUSH1 0xC0 PUSH2 0x11F3 DUP5 DUP3 DUP6 ADD PUSH2 0x10F1 JUMP JUMPDEST PUSH1 0xC0 DUP4 ADD MSTORE POP SWAP3 SWAP2 POP POP JUMP JUMPDEST PUSH0 PUSH1 0xE0 DUP3 DUP5 SUB SLT ISZERO PUSH2 0x1214 JUMPI PUSH2 0x1213 PUSH2 0xE1B JUMP JUMPDEST JUMPDEST PUSH0 PUSH2 0x1221 DUP5 DUP3 DUP6 ADD PUSH2 0x114E JUMP JUMPDEST SWAP2 POP POP SWAP3 SWAP2 POP POP JUMP JUMPDEST PUSH0 DUP3 DUP3 MSTORE PUSH1 0x20 DUP3 ADD SWAP1 POP SWAP3 SWAP2 POP POP JUMP JUMPDEST PUSH32 0x42697264206973206E6F74206465616400000000000000000000000000000000 PUSH0 DUP3 ADD MSTORE POP JUMP JUMPDEST PUSH0 PUSH2 0x126E PUSH1 0x10 DUP4 PUSH2 0x122A JUMP JUMPDEST SWAP2 POP PUSH2 0x1279 DUP3 PUSH2 0x123A JUMP JUMPDEST PUSH1 0x20 DUP3 ADD SWAP1 POP SWAP2 SWAP1 POP JUMP JUMPDEST PUSH0 PUSH1 0x20 DUP3 ADD SWAP1 POP DUP2 DUP2 SUB PUSH0 DUP4 ADD MSTORE PUSH2 0x129B DUP2 PUSH2 0x1262 JUMP JUMPDEST SWAP1 POP SWAP2 SWAP1 POP JUMP JUMPDEST PUSH32 0x4E487B7100000000000000000000000000000000000000000000000000000000 PUSH0 MSTORE PUSH1 0x11 PUSH1 0x4 MSTORE PUSH1 0x24 PUSH0 REVERT JUMPDEST PUSH0 PUSH2 0x12D9 DUP3 PUSH2 0xE1F JUMP JUMPDEST SWAP2 POP PUSH2 0x12E4 DUP4 PUSH2 0xE1F JUMP JUMPDEST SWAP3 POP DUP3 DUP3 MUL PUSH2 0x12F2 DUP2 PUSH2 0xE1F JUMP JUMPDEST SWAP2 POP DUP3 DUP3 DIV DUP5 EQ DUP4 ISZERO OR PUSH2 0x1309 JUMPI PUSH2 0x1308 PUSH2 0x12A2 JUMP JUMPDEST JUMPDEST POP SWAP3 SWAP2 POP POP JUMP JUMPDEST PUSH0 PUSH2 0x131A DUP3 PUSH2 0xE1F JUMP JUMPDEST SWAP2 POP PUSH2 0x1325 DUP4 PUSH2 0xE1F JUMP JUMPDEST SWAP3 POP DUP3 DUP3 SUB SWAP1 POP DUP2 DUP2 GT ISZERO PUSH2 0x133D JUMPI PUSH2 0x133C PUSH2 0x12A2 JUMP JUMPDEST JUMPDEST SWAP3 SWAP2 POP POP JUMP JUMPDEST PUSH32 0x4E487B7100000000000000000000000000000000000000000000000000000000 PUSH0 MSTORE PUSH1 0x12 PUSH1 0x4 MSTORE PUSH1 0x24 PUSH0 REVERT JUMPDEST PUSH0 PUSH2 0x137A DUP3 PUSH2 0xE1F JUMP JUMPDEST SWAP2 POP PUSH2 0x1385 DUP4 PUSH2 0xE1F JUMP JUMPDEST SWAP3 POP DUP3 PUSH2 0x1395 JUMPI PUSH2 0x1394 PUSH2 0x1343 JUMP JUMPDEST JUMPDEST DUP3 DUP3 DIV SWAP1 POP SWAP3 SWAP2 POP POP JUMP JUMPDEST PUSH0 PUSH2 0x13AA DUP3 PUSH2 0xE1F JUMP JUMPDEST SWAP2 POP PUSH2 0x13B5 DUP4 PUSH2 0xE1F JUMP JUMPDEST SWAP3 POP DUP3 DUP3 ADD SWAP1 POP DUP1 DUP3 GT ISZERO PUSH2 0x13CD JUMPI PUSH2 0x13CC PUSH2 0x12A2 JUMP JUMPDEST JUMPDEST SWAP3 SWAP2 POP POP JUMP JUMPDEST PUSH32 0x4E6F7420656E6F7567682045544820746F207265766976652074686973206269 PUSH0 DUP3 ADD MSTORE PUSH32 0x7264000000000000000000000000000000000000000000000000000000000000 PUSH1 0x20 DUP3 ADD MSTORE POP JUMP JUMPDEST PUSH0 PUSH2 0x142D PUSH1 0x22 DUP4 PUSH2 0x122A JUMP JUMPDEST SWAP2 POP PUSH2 0x1438 DUP3 PUSH2 0x13D3 JUMP JUMPDEST PUSH1 0x40 DUP3 ADD SWAP1 POP SWAP2 SWAP1 POP JUMP JUMPDEST PUSH0 PUSH1 0x20 DUP3 ADD SWAP1 POP DUP2 DUP2 SUB PUSH0 DUP4 ADD MSTORE PUSH2 0x145A DUP2 PUSH2 0x1421 JUMP JUMPDEST SWAP1 POP SWAP2 SWAP1 POP JUMP JUMPDEST PUSH32 0x4E6F7420656E6F7567682045544820746F206665656400000000000000000000 PUSH0 DUP3 ADD MSTORE POP JUMP JUMPDEST PUSH0 PUSH2 0x1495 PUSH1 0x16 DUP4 PUSH2 0x122A JUMP JUMPDEST SWAP2 POP PUSH2 0x14A0 DUP3 PUSH2 0x1461 JUMP JUMPDEST PUSH1 0x20 DUP3 ADD SWAP1 POP SWAP2 SWAP1 POP JUMP JUMPDEST PUSH0 PUSH1 0x20 DUP3 ADD SWAP1 POP DUP2 DUP2 SUB PUSH0 DUP4 ADD MSTORE PUSH2 0x14C2 DUP2 PUSH2 0x1489 JUMP JUMPDEST SWAP1 POP SWAP2 SWAP1 POP JUMP JUMPDEST PUSH0 PUSH1 0x40 DUP3 ADD SWAP1 POP PUSH2 0x14DC PUSH0 DUP4 ADD DUP6 PUSH2 0x103D JUMP JUMPDEST PUSH2 0x14E9 PUSH1 0x20 DUP4 ADD DUP5 PUSH2 0x103D JUMP JUMPDEST SWAP4 SWAP3 POP POP POP JUMP JUMPDEST PUSH32 0x4E6F74206F776E65720000000000000000000000000000000000000000000000 PUSH0 DUP3 ADD MSTORE POP JUMP JUMPDEST PUSH0 PUSH2 0x1524 PUSH1 0x9 DUP4 PUSH2 0x122A JUMP JUMPDEST SWAP2 POP PUSH2 0x152F DUP3 PUSH2 0x14F0 JUMP JUMPDEST PUSH1 0x20 DUP3 ADD SWAP1 POP SWAP2 SWAP1 POP JUMP JUMPDEST PUSH0 PUSH1 0x20 DUP3 ADD SWAP1 POP DUP2 DUP2 SUB PUSH0 DUP4 ADD MSTORE PUSH2 0x1551 DUP2 PUSH2 0x1518 JUMP JUMPDEST SWAP1 POP SWAP2 SWAP1 POP JUMP JUMPDEST PUSH0 PUSH1 0x40 DUP3 ADD SWAP1 POP PUSH2 0x156B PUSH0 DUP4 ADD DUP6 PUSH2 0x103D JUMP JUMPDEST PUSH2 0x1578 PUSH1 0x20 DUP4 ADD DUP5 PUSH2 0xFC7 JUMP JUMPDEST SWAP4 SWAP3 POP POP POP JUMP JUMPDEST PUSH32 0x4E6F7420656E6F7567682045544820746F206D696E7420746869732073706563 PUSH0 DUP3 ADD MSTORE PUSH32 0x6965730000000000000000000000000000000000000000000000000000000000 PUSH1 0x20 DUP3 ADD MSTORE POP JUMP JUMPDEST PUSH0 PUSH2 0x15D9 PUSH1 0x23 DUP4 PUSH2 0x122A JUMP JUMPDEST SWAP2 POP PUSH2 0x15E4 DUP3 PUSH2 0x157F JUMP JUMPDEST PUSH1 0x40 DUP3 ADD SWAP1 POP SWAP2 SWAP1 POP JUMP JUMPDEST PUSH0 PUSH1 0x20 DUP3 ADD SWAP1 POP DUP2 DUP2 SUB PUSH0 DUP4 ADD MSTORE PUSH2 0x1606 DUP2 PUSH2 0x15CD JUMP JUMPDEST SWAP1 POP SWAP2 SWAP1 POP JUMP JUMPDEST PUSH0 DUP2 SWAP1 POP SWAP2 SWAP1 POP JUMP JUMPDEST PUSH2 0x1627 PUSH2 0x1622 DUP3 PUSH2 0xE1F JUMP JUMPDEST PUSH2 0x160D JUMP JUMPDEST DUP3 MSTORE POP POP JUMP JUMPDEST PUSH0 DUP2 PUSH1 0x60 SHL SWAP1 POP SWAP2 SWAP1 POP JUMP JUMPDEST PUSH0 PUSH2 0x1643 DUP3 PUSH2 0x162D JUMP JUMPDEST SWAP1 POP SWAP2 SWAP1 POP JUMP JUMPDEST PUSH0 PUSH2 0x1654 DUP3 PUSH2 0x1639 JUMP JUMPDEST SWAP1 POP SWAP2 SWAP1 POP JUMP JUMPDEST PUSH2 0x166C PUSH2 0x1667 DUP3 PUSH2 0xF4E JUMP JUMPDEST PUSH2 0x164A JUMP JUMPDEST DUP3 MSTORE POP POP JUMP JUMPDEST PUSH0 PUSH2 0x167D DUP3 DUP6 PUSH2 0x1616 JUMP JUMPDEST PUSH1 0x20 DUP3 ADD SWAP2 POP PUSH2 0x168D DUP3 DUP5 PUSH2 0x165B JUMP JUMPDEST PUSH1 0x14 DUP3 ADD SWAP2 POP DUP2 SWAP1 POP SWAP4 SWAP3 POP POP POP JUMP JUMPDEST PUSH0 PUSH2 0x16A7 DUP3 PUSH2 0xE1F JUMP JUMPDEST SWAP2 POP PUSH2 0x16B2 DUP4 PUSH2 0xE1F JUMP JUMPDEST SWAP3 POP DUP3 PUSH2 0x16C2 JUMPI PUSH2 0x16C1 PUSH2 0x1343 JUMP JUMPDEST JUMPDEST DUP3 DUP3 MOD SWAP1 POP SWAP3 SWAP2 POP POP JUMP JUMPDEST PUSH32 0x4E487B7100000000000000000000000000000000000000000000000000000000 PUSH0 MSTORE PUSH1 0x21 PUSH1 0x4 MSTORE PUSH1 0x24 PUSH0 REVERT JUMPDEST PUSH1 0xB DUP2 LT PUSH2 0x170B JUMPI PUSH2 0x170A PUSH2 0x16CD JUMP JUMPDEST JUMPDEST POP JUMP JUMPDEST PUSH0 DUP2 SWAP1 POP PUSH2 0x171B DUP3 PUSH2 0x16FA JUMP JUMPDEST SWAP2 SWAP1 POP JUMP JUMPDEST PUSH0 PUSH2 0x172A DUP3 PUSH2 0x170E JUMP JUMPDEST SWAP1 POP SWAP2 SWAP1 POP JUMP JUMPDEST PUSH2 0x173A DUP2 PUSH2 0x1720 JUMP JUMPDEST DUP3 MSTORE POP POP JUMP JUMPDEST PUSH0 PUSH1 0x20 DUP3 ADD SWAP1 POP PUSH2 0x1753 PUSH0 DUP4 ADD DUP5 PUSH2 0x1731 JUMP JUMPDEST SWAP3 SWAP2 POP POP JUMP JUMPDEST PUSH0 PUSH1 0x20 DUP3 DUP5 SUB SLT ISZERO PUSH2 0x176E JUMPI PUSH2 0x176D PUSH2 0xE1B JUMP JUMPDEST JUMPDEST PUSH0 PUSH2 0x177B DUP5 DUP3 DUP6 ADD PUSH2 0x10F1 JUMP JUMPDEST SWAP2 POP POP SWAP3 SWAP2 POP POP JUMP JUMPDEST PUSH32 0x496E737572616E636520636F73747320302E3032204554480000000000000000 PUSH0 DUP3 ADD MSTORE POP JUMP JUMPDEST PUSH0 PUSH2 0x17B8 PUSH1 0x18 DUP4 PUSH2 0x122A JUMP JUMPDEST SWAP2 POP PUSH2 0x17C3 DUP3 PUSH2 0x1784 JUMP JUMPDEST PUSH1 0x20 DUP3 ADD SWAP1 POP SWAP2 SWAP1 POP JUMP JUMPDEST PUSH0 PUSH1 0x20 DUP3 ADD SWAP1 POP DUP2 DUP2 SUB PUSH0 DUP4 ADD MSTORE PUSH2 0x17E5 DUP2 PUSH2 0x17AC JUMP JUMPDEST SWAP1 POP SWAP2 SWAP1 POP JUMP JUMPDEST PUSH32 0x4865616C696E6720636F73747320302E30303520455448000000000000000000 PUSH0 DUP3 ADD MSTORE POP JUMP JUMPDEST PUSH0 PUSH2 0x1820 PUSH1 0x17 DUP4 PUSH2 0x122A JUMP JUMPDEST SWAP2 POP PUSH2 0x182B DUP3 PUSH2 0x17EC JUMP JUMPDEST PUSH1 0x20 DUP3 ADD SWAP1 POP SWAP2 SWAP1 POP JUMP JUMPDEST PUSH0 PUSH1 0x20 DUP3 ADD SWAP1 POP DUP2 DUP2 SUB PUSH0 DUP4 ADD MSTORE PUSH2 0x184D DUP2 PUSH2 0x1814 JUMP JUMPDEST SWAP1 POP SWAP2 SWAP1 POP JUMP JUMPDEST PUSH32 0x4E6F7420656E6F7567682045544820746F206D696E74206D7974686963616C20 PUSH0 DUP3 ADD MSTORE PUSH32 0x6269726400000000000000000000000000000000000000000000000000000000 PUSH1 0x20 DUP3 ADD MSTORE POP JUMP JUMPDEST PUSH0 PUSH2 0x18AE PUSH1 0x24 DUP4 PUSH2 0x122A JUMP JUMPDEST SWAP2 POP PUSH2 0x18B9 DUP3 PUSH2 0x1854 JUMP JUMPDEST PUSH1 0x40 DUP3 ADD SWAP1 POP SWAP2 SWAP1 POP JUMP JUMPDEST PUSH0 PUSH1 0x20 DUP3 ADD SWAP1 POP DUP2 DUP2 SUB PUSH0 DUP4 ADD MSTORE PUSH2 0x18DB DUP2 PUSH2 0x18A2 JUMP JUMPDEST SWAP1 POP SWAP2 SWAP1 POP JUMP JUMPDEST PUSH32 0x556E6B6E6F776E20737065636965730000000000000000000000000000000000 PUSH0 DUP3 ADD MSTORE POP JUMP JUMPDEST PUSH0 PUSH2 0x1916 PUSH1 0xF DUP4 PUSH2 0x122A JUMP JUMPDEST SWAP2 POP PUSH2 0x1921 DUP3 PUSH2 0x18E2 JUMP JUMPDEST PUSH1 0x20 DUP3 ADD SWAP1 POP SWAP2 SWAP1 POP JUMP JUMPDEST PUSH0 PUSH1 0x20 DUP3 ADD SWAP1 POP DUP2 DUP2 SUB PUSH0 DUP4 ADD MSTORE PUSH2 0x1943 DUP2 PUSH2 0x190A JUMP JUMPDEST SWAP1 POP SWAP2 SWAP1 POP JUMP INVALID LOG2 PUSH5 0x6970667358 0x22 SLT KECCAK256 CODESIZE EXTCODESIZE PUSH30 0x742263E5A95E871664430BC47DE3D12B11D8D7FB1C5E7905C51DCF5DBB64 PUSH20 0x6F6C634300081E00330000000000000000000000 "
				},
				"gasEstimates": {
					"creation": {
						"codeDepositCost": "1305600",
						"executionCost": "infinite",
						"totalCost": "infinite"
					},
					"external": {
						"buyInsurance(uint256)": "infinite",
						"feedBird(uint256,uint256)": "infinite",
						"healBird(uint256)": "infinite",
						"mintLegendaryBird()": "infinite",
						"mintRegularBird(uint8)": "infinite",
						"owner()": "2508",
						"ptakContract()": "infinite",
						"reviveBird(uint256)": "infinite",
						"transferBird(uint256,address)": "infinite",
						"withdraw()": "infinite"
					}
				},
				"methodIdentifiers": {
					"buyInsurance(uint256)": "a86a658c",
					"feedBird(uint256,uint256)": "1942d199",
					"healBird(uint256)": "bff998f4",
					"mintLegendaryBird()": "eb96efa7",
					"mintRegularBird(uint8)": "9aeb133f",
					"owner()": "8da5cb5b",
					"ptakContract()": "5361e1d2",
					"reviveBird(uint256)": "192812a0",
					"transferBird(uint256,address)": "8c652f95",
					"withdraw()": "3ccfd60b"
				}
			},
			"storageLayout": {
				"storage": [
					{
						"astId": 6,
						"contract": "contracts/Park.sol:Park",
						"label": "ptakContract",
						"offset": 0,
						"slot": "0",
						"type": "t_contract(Ptak)900"
					},
					{
						"astId": 8,
						"contract": "contracts/Park.sol:Park",
						"label": "owner",
						"offset": 0,
						"slot": "1",
						"type": "t_address"
					}
				],
				"types": {
					"t_address": {
						"encoding": "inplace",
						"label": "address",
						"numberOfBytes": "20"
					},
					"t_contract(Ptak)900": {
						"encoding": "inplace",
						"label": "contract Ptak",
						"numberOfBytes": "20"
					}
				}
			},
			"userdoc": {
				"kind": "user",
				"methods": {},
				"version": 1
			}
		}
	}
}