{
	"data": {
		"bytecode": {
			"linkReferences": {},
			"object": "608060405234801561000f575f5ffd5b5060405161126d38038061126d833981810160405281019061003191906100d4565b805f5f6101000a81548173ffffffffffffffffffffffffffffffffffffffff021916908373ffffffffffffffffffffffffffffffffffffffff160217905550506100ff565b5f5ffd5b5f73ffffffffffffffffffffffffffffffffffffffff82169050919050565b5f6100a38261007a565b9050919050565b6100b381610099565b81146100bd575f5ffd5b50565b5f815190506100ce816100aa565b92915050565b5f602082840312156100e9576100e8610076565b5b5f6100f6848285016100c0565b91505092915050565b6111618061010c5f395ff3fe60806040526004361061006f575f3560e01c8063a86a658c1161004d578063a86a658c14610101578063bff998f41461011d578063c9ac805614610139578063cc35b17d146101755761006f565b806316cb4a05146100735780635361e1d2146100af57806365b8b64e146100d9575b5f5ffd5b34801561007e575f5ffd5b506100996004803603810190610094919061087b565b61019d565b6040516100a691906108c0565b60405180910390f35b3480156100ba575f5ffd5b506100c36101ba565b6040516100d09190610953565b60405180910390f35b3480156100e4575f5ffd5b506100ff60048036038101906100fa919061087b565b6101de565b005b61011b6004803603810190610116919061087b565b61031a565b005b6101376004803603810190610132919061087b565b61038f565b005b348015610144575f5ffd5b5061015f600480360381019061015a9190610aa8565b610494565b60405161016c9190610b07565b60405180910390f35b348015610180575f5ffd5b5061019b6004803603810190610196919061087b565b61058a565b005b6001602052805f5260405f205f915054906101000a900460ff1681565b5f5f9054906101000a900473ffffffffffffffffffffffffffffffffffffffff1681565b5f5f5f9054906101000a900473ffffffffffffffffffffffffffffffffffffffff1673ffffffffffffffffffffffffffffffffffffffff16636ec88bbd836040518263ffffffff1660e01b81526004016102389190610b2f565b5f60405180830381865afa158015610252573d5f5f3e3d5ffd5b505050506040513d5f823e3d601f19601f8201168201806040525081019061027a9190610ca8565b90505f61028a826060015161066e565b6060015190505f606442856040516020016102a6929190610d0f565b604051602081830303815290604052805190602001205f1c6102c89190610d67565b905081811080156102f4575060015f8581526020019081526020015f205f9054906101000a900460ff16155b1561031457600a8360400181815161030c9190610dc4565b915081815250505b50505050565b6611c37937e08000341015610364576040517f08c379a000000000000000000000000000000000000000000000000000000000815260040161035b90610e51565b60405180910390fd5b6001805f8381526020019081526020015f205f6101000a81548160ff02191690831515021790555050565b662386f26fc100003410156103d9576040517f08c379a00000000000000000000000000000000000000000000000000000000081526004016103d090610eb9565b60405180910390fd5b5f5f5f9054906101000a900473ffffffffffffffffffffffffffffffffffffffff1673ffffffffffffffffffffffffffffffffffffffff16636ec88bbd836040518263ffffffff1660e01b81526004016104339190610b2f565b5f60405180830381865afa15801561044d573d5f5f3e3d5ffd5b505050506040513d5f823e3d601f19601f820116820180604052508101906104759190610ca8565b9050610484816060015161066e565b5f01518160400181815250505050565b5f5f6103e842336040516020016104ac929190610f2d565b604051602081830303815290604052805190602001205f1c6104ce9190610d67565b9050600a81101561057f575f5f9054906101000a900473ffffffffffffffffffffffffffffffffffffffff1673ffffffffffffffffffffffffffffffffffffffff1663398470ea6003856040518363ffffffff1660e01b815260040161053592919061100d565b6020604051808303815f875af1158015610551573d5f5f3e3d5ffd5b505050506040513d601f19601f820116820180604052508101906105759190611065565b505f915050610585565b60019150505b919050565b5f5f5f9054906101000a900473ffffffffffffffffffffffffffffffffffffffff1673ffffffffffffffffffffffffffffffffffffffff16636ec88bbd836040518263ffffffff1660e01b81526004016105e49190610b2f565b5f60405180830381865afa1580156105fe573d5f5f3e3d5ffd5b505050506040513d5f823e3d601f19601f820116820180604052508101906106269190610ca8565b90506001815f0181815161063a9190611090565b9150818152505061064e816060015161066e565b60400151816020018181516106639190611090565b915081815250505050565b610676610813565b5f600381111561068957610688610f58565b5b82600381111561069c5761069b610f58565b5b036106cd576040518060800160405280606481526020016064815260200160018152602001600a815250905061080e565b600160038111156106e1576106e0610f58565b5b8260038111156106f4576106f3610f58565b5b036107255760405180608001604052806078815260200160968152602001600281526020016005815250905061080e565b6002600381111561073957610738610f58565b5b82600381111561074c5761074b610f58565b5b0361077d576040518060800160405280606e815260200160828152602001600181526020016007815250905061080e565b6003808111156107905761078f610f58565b5b8260038111156107a3576107a2610f58565b5b036107d357604051806080016040528061012c815260200160c881526020015f81526020015f815250905061080e565b6040517f08c379a00000000000000000000000000000000000000000000000000000000081526004016108059061110d565b60405180910390fd5b919050565b60405180608001604052805f81526020015f81526020015f81526020015f81525090565b5f604051905090565b5f5ffd5b5f5ffd5b5f819050919050565b61085a81610848565b8114610864575f5ffd5b50565b5f8135905061087581610851565b92915050565b5f602082840312156108905761088f610840565b5b5f61089d84828501610867565b91505092915050565b5f8115159050919050565b6108ba816108a6565b82525050565b5f6020820190506108d35f8301846108b1565b92915050565b5f73ffffffffffffffffffffffffffffffffffffffff82169050919050565b5f819050919050565b5f61091b610916610911846108d9565b6108f8565b6108d9565b9050919050565b5f61092c82610901565b9050919050565b5f61093d82610922565b9050919050565b61094d81610933565b82525050565b5f6020820190506109665f830184610944565b92915050565b5f5ffd5b5f5ffd5b5f601f19601f8301169050919050565b7f4e487b71000000000000000000000000000000000000000000000000000000005f52604160045260245ffd5b6109ba82610974565b810181811067ffffffffffffffff821117156109d9576109d8610984565b5b80604052505050565b5f6109eb610837565b90506109f782826109b1565b919050565b5f67ffffffffffffffff821115610a1657610a15610984565b5b610a1f82610974565b9050602081019050919050565b828183375f83830152505050565b5f610a4c610a47846109fc565b6109e2565b905082815260208101848484011115610a6857610a67610970565b5b610a73848285610a2c565b509392505050565b5f82601f830112610a8f57610a8e61096c565b5b8135610a9f848260208601610a3a565b91505092915050565b5f60208284031215610abd57610abc610840565b5b5f82013567ffffffffffffffff811115610ada57610ad9610844565b5b610ae684828501610a7b565b91505092915050565b5f819050919050565b610b0181610aef565b82525050565b5f602082019050610b1a5f830184610af8565b92915050565b610b2981610848565b82525050565b5f602082019050610b425f830184610b20565b92915050565b5f5ffd5b5f5ffd5b5f81519050610b5e81610851565b92915050565b60048110610b70575f5ffd5b50565b5f81519050610b8181610b64565b92915050565b8281835e5f83830152505050565b5f610ba7610ba2846109fc565b6109e2565b905082815260208101848484011115610bc357610bc2610970565b5b610bce848285610b87565b509392505050565b5f82601f830112610bea57610be961096c565b5b8151610bfa848260208601610b95565b91505092915050565b5f60a08284031215610c1857610c17610b48565b5b610c2260a06109e2565b90505f610c3184828501610b50565b5f830152506020610c4484828501610b50565b6020830152506040610c5884828501610b50565b6040830152506060610c6c84828501610b73565b606083015250608082015167ffffffffffffffff811115610c9057610c8f610b4c565b5b610c9c84828501610bd6565b60808301525092915050565b5f60208284031215610cbd57610cbc610840565b5b5f82015167ffffffffffffffff811115610cda57610cd9610844565b5b610ce684828501610c03565b91505092915050565b5f819050919050565b610d09610d0482610848565b610cef565b82525050565b5f610d1a8285610cf8565b602082019150610d2a8284610cf8565b6020820191508190509392505050565b7f4e487b71000000000000000000000000000000000000000000000000000000005f52601260045260245ffd5b5f610d7182610848565b9150610d7c83610848565b925082610d8c57610d8b610d3a565b5b828206905092915050565b7f4e487b71000000000000000000000000000000000000000000000000000000005f52601160045260245ffd5b5f610dce82610848565b9150610dd983610848565b9250828203905081811115610df157610df0610d97565b5b92915050565b5f82825260208201905092915050565b7f496e737572616e636520636f73747320302e30303520455448000000000000005f82015250565b5f610e3b601983610df7565b9150610e4682610e07565b602082019050919050565b5f6020820190508181035f830152610e6881610e2f565b9050919050565b7f4865616c696e6720636f73747320302e303120455448000000000000000000005f82015250565b5f610ea3601683610df7565b9150610eae82610e6f565b602082019050919050565b5f6020820190508181035f830152610ed081610e97565b9050919050565b5f610ee1826108d9565b9050919050565b5f8160601b9050919050565b5f610efe82610ee8565b9050919050565b5f610f0f82610ef4565b9050919050565b610f27610f2282610ed7565b610f05565b82525050565b5f610f388285610cf8565b602082019150610f488284610f16565b6014820191508190509392505050565b7f4e487b71000000000000000000000000000000000000000000000000000000005f52602160045260245ffd5b60048110610f9657610f95610f58565b5b50565b5f819050610fa682610f85565b919050565b5f610fb582610f99565b9050919050565b610fc581610fab565b82525050565b5f81519050919050565b5f610fdf82610fcb565b610fe98185610df7565b9350610ff9818560208601610b87565b61100281610974565b840191505092915050565b5f6040820190506110205f830185610fbc565b81810360208301526110328184610fd5565b90509392505050565b61104481610aef565b811461104e575f5ffd5b50565b5f8151905061105f8161103b565b92915050565b5f6020828403121561107a57611079610840565b5b5f61108784828501611051565b91505092915050565b5f61109a82610848565b91506110a583610848565b92508282019050808211156110bd576110bc610d97565b5b92915050565b7f556e6b6e6f776e207370656369657300000000000000000000000000000000005f82015250565b5f6110f7600f83610df7565b9150611102826110c3565b602082019050919050565b5f6020820190508181035f830152611124816110eb565b905091905056fea264697066735822122084c0e400e84c35cf6a0d75566b1b7268ca0071e29d20f99d9f385e69761d12ca64736f6c634300081e0033",
			"opcodes": "PUSH1 0x80 PUSH1 0x40 MSTORE CALLVALUE DUP1 ISZERO PUSH2 0xF JUMPI PUSH0 PUSH0 REVERT JUMPDEST POP PUSH1 0x40 MLOAD PUSH2 0x126D CODESIZE SUB DUP1 PUSH2 0x126D DUP4 CODECOPY DUP2 DUP2 ADD PUSH1 0x40 MSTORE DUP2 ADD SWAP1 PUSH2 0x31 SWAP2 SWAP1 PUSH2 0xD4 JUMP JUMPDEST DUP1 PUSH0 PUSH0 PUSH2 0x100 EXP DUP2 SLOAD DUP2 PUSH20 0xFFFFFFFFFFFFFFFFFFFFFFFFFFFFFFFFFFFFFFFF MUL NOT AND SWAP1 DUP4 PUSH20 0xFFFFFFFFFFFFFFFFFFFFFFFFFFFFFFFFFFFFFFFF AND MUL OR SWAP1 SSTORE POP POP PUSH2 0xFF JUMP JUMPDEST PUSH0 PUSH0 REVERT JUMPDEST PUSH0 PUSH20 0xFFFFFFFFFFFFFFFFFFFFFFFFFFFFFFFFFFFFFFFF DUP3 AND SWAP1 POP SWAP2 SWAP1 POP JUMP JUMPDEST PUSH0 PUSH2 0xA3 DUP3 PUSH2 0x7A JUMP JUMPDEST SWAP1 POP SWAP2 SWAP1 POP JUMP JUMPDEST PUSH2 0xB3 DUP2 PUSH2 0x99 JUMP JUMPDEST DUP2 EQ PUSH2 0xBD JUMPI PUSH0 PUSH0 REVERT JUMPDEST POP JUMP JUMPDEST PUSH0 DUP2 MLOAD SWAP1 POP PUSH2 0xCE DUP2 PUSH2 0xAA JUMP JUMPDEST SWAP3 SWAP2 POP POP JUMP JUMPDEST PUSH0 PUSH1 0x20 DUP3 DUP5 SUB SLT ISZERO PUSH2 0xE9 JUMPI PUSH2 0xE8 PUSH2 0x76 JUMP JUMPDEST JUMPDEST PUSH0 PUSH2 0xF6 DUP5 DUP3 DUP6 ADD PUSH2 0xC0 JUMP JUMPDEST SWAP2 POP POP SWAP3 SWAP2 POP POP JUMP JUMPDEST PUSH2 0x1161 DUP1 PUSH2 0x10C PUSH0 CODECOPY PUSH0 RETURN INVALID PUSH1 0x80 PUSH1 0x40 MSTORE PUSH1 0x4 CALLDATASIZE LT PUSH2 0x6F JUMPI PUSH0 CALLDATALOAD PUSH1 0xE0 SHR DUP1 PUSH4 0xA86A658C GT PUSH2 0x4D JUMPI DUP1 PUSH4 0xA86A658C EQ PUSH2 0x101 JUMPI DUP1 PUSH4 0xBFF998F4 EQ PUSH2 0x11D JUMPI DUP1 PUSH4 0xC9AC8056 EQ PUSH2 0x139 JUMPI DUP1 PUSH4 0xCC35B17D EQ PUSH2 0x175 JUMPI PUSH2 0x6F JUMP JUMPDEST DUP1 PUSH4 0x16CB4A05 EQ PUSH2 0x73 JUMPI DUP1 PUSH4 0x5361E1D2 EQ PUSH2 0xAF JUMPI DUP1 PUSH4 0x65B8B64E EQ PUSH2 0xD9 JUMPI JUMPDEST PUSH0 PUSH0 REVERT JUMPDEST CALLVALUE DUP1 ISZERO PUSH2 0x7E JUMPI PUSH0 PUSH0 REVERT JUMPDEST POP PUSH2 0x99 PUSH1 0x4 DUP1 CALLDATASIZE SUB DUP2 ADD SWAP1 PUSH2 0x94 SWAP2 SWAP1 PUSH2 0x87B JUMP JUMPDEST PUSH2 0x19D JUMP JUMPDEST PUSH1 0x40 MLOAD PUSH2 0xA6 SWAP2 SWAP1 PUSH2 0x8C0 JUMP JUMPDEST PUSH1 0x40 MLOAD DUP1 SWAP2 SUB SWAP1 RETURN JUMPDEST CALLVALUE DUP1 ISZERO PUSH2 0xBA JUMPI PUSH0 PUSH0 REVERT JUMPDEST POP PUSH2 0xC3 PUSH2 0x1BA JUMP JUMPDEST PUSH1 0x40 MLOAD PUSH2 0xD0 SWAP2 SWAP1 PUSH2 0x953 JUMP JUMPDEST PUSH1 0x40 MLOAD DUP1 SWAP2 SUB SWAP1 RETURN JUMPDEST CALLVALUE DUP1 ISZERO PUSH2 0xE4 JUMPI PUSH0 PUSH0 REVERT JUMPDEST POP PUSH2 0xFF PUSH1 0x4 DUP1 CALLDATASIZE SUB DUP2 ADD SWAP1 PUSH2 0xFA SWAP2 SWAP1 PUSH2 0x87B JUMP JUMPDEST PUSH2 0x1DE JUMP JUMPDEST STOP JUMPDEST PUSH2 0x11B PUSH1 0x4 DUP1 CALLDATASIZE SUB DUP2 ADD SWAP1 PUSH2 0x116 SWAP2 SWAP1 PUSH2 0x87B JUMP JUMPDEST PUSH2 0x31A JUMP JUMPDEST STOP JUMPDEST PUSH2 0x137 PUSH1 0x4 DUP1 CALLDATASIZE SUB DUP2 ADD SWAP1 PUSH2 0x132 SWAP2 SWAP1 PUSH2 0x87B JUMP JUMPDEST PUSH2 0x38F JUMP JUMPDEST STOP JUMPDEST CALLVALUE DUP1 ISZERO PUSH2 0x144 JUMPI PUSH0 PUSH0 REVERT JUMPDEST POP PUSH2 0x15F PUSH1 0x4 DUP1 CALLDATASIZE SUB DUP2 ADD SWAP1 PUSH2 0x15A SWAP2 SWAP1 PUSH2 0xAA8 JUMP JUMPDEST PUSH2 0x494 JUMP JUMPDEST PUSH1 0x40 MLOAD PUSH2 0x16C SWAP2 SWAP1 PUSH2 0xB07 JUMP JUMPDEST PUSH1 0x40 MLOAD DUP1 SWAP2 SUB SWAP1 RETURN JUMPDEST CALLVALUE DUP1 ISZERO PUSH2 0x180 JUMPI PUSH0 PUSH0 REVERT JUMPDEST POP PUSH2 0x19B PUSH1 0x4 DUP1 CALLDATASIZE SUB DUP2 ADD SWAP1 PUSH2 0x196 SWAP2 SWAP1 PUSH2 0x87B JUMP JUMPDEST PUSH2 0x58A JUMP JUMPDEST STOP JUMPDEST PUSH1 0x1 PUSH1 0x20 MSTORE DUP1 PUSH0 MSTORE PUSH1 0x40 PUSH0 KECCAK256 PUSH0 SWAP2 POP SLOAD SWAP1 PUSH2 0x100 EXP SWAP1 DIV PUSH1 0xFF AND DUP2 JUMP JUMPDEST PUSH0 PUSH0 SWAP1 SLOAD SWAP1 PUSH2 0x100 EXP SWAP1 DIV PUSH20 0xFFFFFFFFFFFFFFFFFFFFFFFFFFFFFFFFFFFFFFFF AND DUP2 JUMP JUMPDEST PUSH0 PUSH0 PUSH0 SWAP1 SLOAD SWAP1 PUSH2 0x100 EXP SWAP1 DIV PUSH20 0xFFFFFFFFFFFFFFFFFFFFFFFFFFFFFFFFFFFFFFFF AND PUSH20 0xFFFFFFFFFFFFFFFFFFFFFFFFFFFFFFFFFFFFFFFF AND PUSH4 0x6EC88BBD DUP4 PUSH1 0x40 MLOAD DUP3 PUSH4 0xFFFFFFFF AND PUSH1 0xE0 SHL DUP2 MSTORE PUSH1 0x4 ADD PUSH2 0x238 SWAP2 SWAP1 PUSH2 0xB2F JUMP JUMPDEST PUSH0 PUSH1 0x40 MLOAD DUP1 DUP4 SUB DUP2 DUP7 GAS STATICCALL ISZERO DUP1 ISZERO PUSH2 0x252 JUMPI RETURNDATASIZE PUSH0 PUSH0 RETURNDATACOPY RETURNDATASIZE PUSH0 REVERT JUMPDEST POP POP POP POP PUSH1 0x40 MLOAD RETURNDATASIZE PUSH0 DUP3 RETURNDATACOPY RETURNDATASIZE PUSH1 0x1F NOT PUSH1 0x1F DUP3 ADD AND DUP3 ADD DUP1 PUSH1 0x40 MSTORE POP DUP2 ADD SWAP1 PUSH2 0x27A SWAP2 SWAP1 PUSH2 0xCA8 JUMP JUMPDEST SWAP1 POP PUSH0 PUSH2 0x28A DUP3 PUSH1 0x60 ADD MLOAD PUSH2 0x66E JUMP JUMPDEST PUSH1 0x60 ADD MLOAD SWAP1 POP PUSH0 PUSH1 0x64 TIMESTAMP DUP6 PUSH1 0x40 MLOAD PUSH1 0x20 ADD PUSH2 0x2A6 SWAP3 SWAP2 SWAP1 PUSH2 0xD0F JUMP JUMPDEST PUSH1 0x40 MLOAD PUSH1 0x20 DUP2 DUP4 SUB SUB DUP2 MSTORE SWAP1 PUSH1 0x40 MSTORE DUP1 MLOAD SWAP1 PUSH1 0x20 ADD KECCAK256 PUSH0 SHR PUSH2 0x2C8 SWAP2 SWAP1 PUSH2 0xD67 JUMP JUMPDEST SWAP1 POP DUP2 DUP2 LT DUP1 ISZERO PUSH2 0x2F4 JUMPI POP PUSH1 0x1 PUSH0 DUP6 DUP2 MSTORE PUSH1 0x20 ADD SWAP1 DUP2 MSTORE PUSH1 0x20 ADD PUSH0 KECCAK256 PUSH0 SWAP1 SLOAD SWAP1 PUSH2 0x100 EXP SWAP1 DIV PUSH1 0xFF AND ISZERO JUMPDEST ISZERO PUSH2 0x314 JUMPI PUSH1 0xA DUP4 PUSH1 0x40 ADD DUP2 DUP2 MLOAD PUSH2 0x30C SWAP2 SWAP1 PUSH2 0xDC4 JUMP JUMPDEST SWAP2 POP DUP2 DUP2 MSTORE POP POP JUMPDEST POP POP POP POP JUMP JUMPDEST PUSH7 0x11C37937E08000 CALLVALUE LT ISZERO PUSH2 0x364 JUMPI PUSH1 0x40 MLOAD PUSH32 0x8C379A000000000000000000000000000000000000000000000000000000000 DUP2 MSTORE PUSH1 0x4 ADD PUSH2 0x35B SWAP1 PUSH2 0xE51 JUMP JUMPDEST PUSH1 0x40 MLOAD DUP1 SWAP2 SUB SWAP1 REVERT JUMPDEST PUSH1 0x1 DUP1 PUSH0 DUP4 DUP2 MSTORE PUSH1 0x20 ADD SWAP1 DUP2 MSTORE PUSH1 0x20 ADD PUSH0 KECCAK256 PUSH0 PUSH2 0x100 EXP DUP2 SLOAD DUP2 PUSH1 0xFF MUL NOT AND SWAP1 DUP4 ISZERO ISZERO MUL OR SWAP1 SSTORE POP POP JUMP JUMPDEST PUSH7 0x2386F26FC10000 CALLVALUE LT ISZERO PUSH2 0x3D9 JUMPI PUSH1 0x40 MLOAD PUSH32 0x8C379A000000000000000000000000000000000000000000000000000000000 DUP2 MSTORE PUSH1 0x4 ADD PUSH2 0x3D0 SWAP1 PUSH2 0xEB9 JUMP JUMPDEST PUSH1 0x40 MLOAD DUP1 SWAP2 SUB SWAP1 REVERT JUMPDEST PUSH0 PUSH0 PUSH0 SWAP1 SLOAD SWAP1 PUSH2 0x100 EXP SWAP1 DIV PUSH20 0xFFFFFFFFFFFFFFFFFFFFFFFFFFFFFFFFFFFFFFFF AND PUSH20 0xFFFFFFFFFFFFFFFFFFFFFFFFFFFFFFFFFFFFFFFF AND PUSH4 0x6EC88BBD DUP4 PUSH1 0x40 MLOAD DUP3 PUSH4 0xFFFFFFFF AND PUSH1 0xE0 SHL DUP2 MSTORE PUSH1 0x4 ADD PUSH2 0x433 SWAP2 SWAP1 PUSH2 0xB2F JUMP JUMPDEST PUSH0 PUSH1 0x40 MLOAD DUP1 DUP4 SUB DUP2 DUP7 GAS STATICCALL ISZERO DUP1 ISZERO PUSH2 0x44D JUMPI RETURNDATASIZE PUSH0 PUSH0 RETURNDATACOPY RETURNDATASIZE PUSH0 REVERT JUMPDEST POP POP POP POP PUSH1 0x40 MLOAD RETURNDATASIZE PUSH0 DUP3 RETURNDATACOPY RETURNDATASIZE PUSH1 0x1F NOT PUSH1 0x1F DUP3 ADD AND DUP3 ADD DUP1 PUSH1 0x40 MSTORE POP DUP2 ADD SWAP1 PUSH2 0x475 SWAP2 SWAP1 PUSH2 0xCA8 JUMP JUMPDEST SWAP1 POP PUSH2 0x484 DUP2 PUSH1 0x60 ADD MLOAD PUSH2 0x66E JUMP JUMPDEST PUSH0 ADD MLOAD DUP2 PUSH1 0x40 ADD DUP2 DUP2 MSTORE POP POP POP POP JUMP JUMPDEST PUSH0 PUSH0 PUSH2 0x3E8 TIMESTAMP CALLER PUSH1 0x40 MLOAD PUSH1 0x20 ADD PUSH2 0x4AC SWAP3 SWAP2 SWAP1 PUSH2 0xF2D JUMP JUMPDEST PUSH1 0x40 MLOAD PUSH1 0x20 DUP2 DUP4 SUB SUB DUP2 MSTORE SWAP1 PUSH1 0x40 MSTORE DUP1 MLOAD SWAP1 PUSH1 0x20 ADD KECCAK256 PUSH0 SHR PUSH2 0x4CE SWAP2 SWAP1 PUSH2 0xD67 JUMP JUMPDEST SWAP1 POP PUSH1 0xA DUP2 LT ISZERO PUSH2 0x57F JUMPI PUSH0 PUSH0 SWAP1 SLOAD SWAP1 PUSH2 0x100 EXP SWAP1 DIV PUSH20 0xFFFFFFFFFFFFFFFFFFFFFFFFFFFFFFFFFFFFFFFF AND PUSH20 0xFFFFFFFFFFFFFFFFFFFFFFFFFFFFFFFFFFFFFFFF AND PUSH4 0x398470EA PUSH1 0x3 DUP6 PUSH1 0x40 MLOAD DUP4 PUSH4 0xFFFFFFFF AND PUSH1 0xE0 SHL DUP2 MSTORE PUSH1 0x4 ADD PUSH2 0x535 SWAP3 SWAP2 SWAP1 PUSH2 0x100D JUMP JUMPDEST PUSH1 0x20 PUSH1 0x40 MLOAD DUP1 DUP4 SUB DUP2 PUSH0 DUP8 GAS CALL ISZERO DUP1 ISZERO PUSH2 0x551 JUMPI RETURNDATASIZE PUSH0 PUSH0 RETURNDATACOPY RETURNDATASIZE PUSH0 REVERT JUMPDEST POP POP POP POP PUSH1 0x40 MLOAD RETURNDATASIZE PUSH1 0x1F NOT PUSH1 0x1F DUP3 ADD AND DUP3 ADD DUP1 PUSH1 0x40 MSTORE POP DUP2 ADD SWAP1 PUSH2 0x575 SWAP2 SWAP1 PUSH2 0x1065 JUMP JUMPDEST POP PUSH0 SWAP2 POP POP PUSH2 0x585 JUMP JUMPDEST PUSH1 0x1 SWAP2 POP POP JUMPDEST SWAP2 SWAP1 POP JUMP JUMPDEST PUSH0 PUSH0 PUSH0 SWAP1 SLOAD SWAP1 PUSH2 0x100 EXP SWAP1 DIV PUSH20 0xFFFFFFFFFFFFFFFFFFFFFFFFFFFFFFFFFFFFFFFF AND PUSH20 0xFFFFFFFFFFFFFFFFFFFFFFFFFFFFFFFFFFFFFFFF AND PUSH4 0x6EC88BBD DUP4 PUSH1 0x40 MLOAD DUP3 PUSH4 0xFFFFFFFF AND PUSH1 0xE0 SHL DUP2 MSTORE PUSH1 0x4 ADD PUSH2 0x5E4 SWAP2 SWAP1 PUSH2 0xB2F JUMP JUMPDEST PUSH0 PUSH1 0x40 MLOAD DUP1 DUP4 SUB DUP2 DUP7 GAS STATICCALL ISZERO DUP1 ISZERO PUSH2 0x5FE JUMPI RETURNDATASIZE PUSH0 PUSH0 RETURNDATACOPY RETURNDATASIZE PUSH0 REVERT JUMPDEST POP POP POP POP PUSH1 0x40 MLOAD RETURNDATASIZE PUSH0 DUP3 RETURNDATACOPY RETURNDATASIZE PUSH1 0x1F NOT PUSH1 0x1F DUP3 ADD AND DUP3 ADD DUP1 PUSH1 0x40 MSTORE POP DUP2 ADD SWAP1 PUSH2 0x626 SWAP2 SWAP1 PUSH2 0xCA8 JUMP JUMPDEST SWAP1 POP PUSH1 0x1 DUP2 PUSH0 ADD DUP2 DUP2 MLOAD PUSH2 0x63A SWAP2 SWAP1 PUSH2 0x1090 JUMP JUMPDEST SWAP2 POP DUP2 DUP2 MSTORE POP POP PUSH2 0x64E DUP2 PUSH1 0x60 ADD MLOAD PUSH2 0x66E JUMP JUMPDEST PUSH1 0x40 ADD MLOAD DUP2 PUSH1 0x20 ADD DUP2 DUP2 MLOAD PUSH2 0x663 SWAP2 SWAP1 PUSH2 0x1090 JUMP JUMPDEST SWAP2 POP DUP2 DUP2 MSTORE POP POP POP POP JUMP JUMPDEST PUSH2 0x676 PUSH2 0x813 JUMP JUMPDEST PUSH0 PUSH1 0x3 DUP2 GT ISZERO PUSH2 0x689 JUMPI PUSH2 0x688 PUSH2 0xF58 JUMP JUMPDEST JUMPDEST DUP3 PUSH1 0x3 DUP2 GT ISZERO PUSH2 0x69C JUMPI PUSH2 0x69B PUSH2 0xF58 JUMP JUMPDEST JUMPDEST SUB PUSH2 0x6CD JUMPI PUSH1 0x40 MLOAD DUP1 PUSH1 0x80 ADD PUSH1 0x40 MSTORE DUP1 PUSH1 0x64 DUP2 MSTORE PUSH1 0x20 ADD PUSH1 0x64 DUP2 MSTORE PUSH1 0x20 ADD PUSH1 0x1 DUP2 MSTORE PUSH1 0x20 ADD PUSH1 0xA DUP2 MSTORE POP SWAP1 POP PUSH2 0x80E JUMP JUMPDEST PUSH1 0x1 PUSH1 0x3 DUP2 GT ISZERO PUSH2 0x6E1 JUMPI PUSH2 0x6E0 PUSH2 0xF58 JUMP JUMPDEST JUMPDEST DUP3 PUSH1 0x3 DUP2 GT ISZERO PUSH2 0x6F4 JUMPI PUSH2 0x6F3 PUSH2 0xF58 JUMP JUMPDEST JUMPDEST SUB PUSH2 0x725 JUMPI PUSH1 0x40 MLOAD DUP1 PUSH1 0x80 ADD PUSH1 0x40 MSTORE DUP1 PUSH1 0x78 DUP2 MSTORE PUSH1 0x20 ADD PUSH1 0x96 DUP2 MSTORE PUSH1 0x20 ADD PUSH1 0x2 DUP2 MSTORE PUSH1 0x20 ADD PUSH1 0x5 DUP2 MSTORE POP SWAP1 POP PUSH2 0x80E JUMP JUMPDEST PUSH1 0x2 PUSH1 0x3 DUP2 GT ISZERO PUSH2 0x739 JUMPI PUSH2 0x738 PUSH2 0xF58 JUMP JUMPDEST JUMPDEST DUP3 PUSH1 0x3 DUP2 GT ISZERO PUSH2 0x74C JUMPI PUSH2 0x74B PUSH2 0xF58 JUMP JUMPDEST JUMPDEST SUB PUSH2 0x77D JUMPI PUSH1 0x40 MLOAD DUP1 PUSH1 0x80 ADD PUSH1 0x40 MSTORE DUP1 PUSH1 0x6E DUP2 MSTORE PUSH1 0x20 ADD PUSH1 0x82 DUP2 MSTORE PUSH1 0x20 ADD PUSH1 0x1 DUP2 MSTORE PUSH1 0x20 ADD PUSH1 0x7 DUP2 MSTORE POP SWAP1 POP PUSH2 0x80E JUMP JUMPDEST PUSH1 0x3 DUP1 DUP2 GT ISZERO PUSH2 0x790 JUMPI PUSH2 0x78F PUSH2 0xF58 JUMP JUMPDEST JUMPDEST DUP3 PUSH1 0x3 DUP2 GT ISZERO PUSH2 0x7A3 JUMPI PUSH2 0x7A2 PUSH2 0xF58 JUMP JUMPDEST JUMPDEST SUB PUSH2 0x7D3 JUMPI PUSH1 0x40 MLOAD DUP1 PUSH1 0x80 ADD PUSH1 0x40 MSTORE DUP1 PUSH2 0x12C DUP2 MSTORE PUSH1 0x20 ADD PUSH1 0xC8 DUP2 MSTORE PUSH1 0x20 ADD PUSH0 DUP2 MSTORE PUSH1 0x20 ADD PUSH0 DUP2 MSTORE POP SWAP1 POP PUSH2 0x80E JUMP JUMPDEST PUSH1 0x40 MLOAD PUSH32 0x8C379A000000000000000000000000000000000000000000000000000000000 DUP2 MSTORE PUSH1 0x4 ADD PUSH2 0x805 SWAP1 PUSH2 0x110D JUMP JUMPDEST PUSH1 0x40 MLOAD DUP1 SWAP2 SUB SWAP1 REVERT JUMPDEST SWAP2 SWAP1 POP JUMP JUMPDEST PUSH1 0x40 MLOAD DUP1 PUSH1 0x80 ADD PUSH1 0x40 MSTORE DUP1 PUSH0 DUP2 MSTORE PUSH1 0x20 ADD PUSH0 DUP2 MSTORE PUSH1 0x20 ADD PUSH0 DUP2 MSTORE PUSH1 0x20 ADD PUSH0 DUP2 MSTORE POP SWAP1 JUMP JUMPDEST PUSH0 PUSH1 0x40 MLOAD SWAP1 POP SWAP1 JUMP JUMPDEST PUSH0 PUSH0 REVERT JUMPDEST PUSH0 PUSH0 REVERT JUMPDEST PUSH0 DUP2 SWAP1 POP SWAP2 SWAP1 POP JUMP JUMPDEST PUSH2 0x85A DUP2 PUSH2 0x848 JUMP JUMPDEST DUP2 EQ PUSH2 0x864 JUMPI PUSH0 PUSH0 REVERT JUMPDEST POP JUMP JUMPDEST PUSH0 DUP2 CALLDATALOAD SWAP1 POP PUSH2 0x875 DUP2 PUSH2 0x851 JUMP JUMPDEST SWAP3 SWAP2 POP POP JUMP JUMPDEST PUSH0 PUSH1 0x20 DUP3 DUP5 SUB SLT ISZERO PUSH2 0x890 JUMPI PUSH2 0x88F PUSH2 0x840 JUMP JUMPDEST JUMPDEST PUSH0 PUSH2 0x89D DUP5 DUP3 DUP6 ADD PUSH2 0x867 JUMP JUMPDEST SWAP2 POP POP SWAP3 SWAP2 POP POP JUMP JUMPDEST PUSH0 DUP2 ISZERO ISZERO SWAP1 POP SWAP2 SWAP1 POP JUMP JUMPDEST PUSH2 0x8BA DUP2 PUSH2 0x8A6 JUMP JUMPDEST DUP3 MSTORE POP POP JUMP JUMPDEST PUSH0 PUSH1 0x20 DUP3 ADD SWAP1 POP PUSH2 0x8D3 PUSH0 DUP4 ADD DUP5 PUSH2 0x8B1 JUMP JUMPDEST SWAP3 SWAP2 POP POP JUMP JUMPDEST PUSH0 PUSH20 0xFFFFFFFFFFFFFFFFFFFFFFFFFFFFFFFFFFFFFFFF DUP3 AND SWAP1 POP SWAP2 SWAP1 POP JUMP JUMPDEST PUSH0 DUP2 SWAP1 POP SWAP2 SWAP1 POP JUMP JUMPDEST PUSH0 PUSH2 0x91B PUSH2 0x916 PUSH2 0x911 DUP5 PUSH2 0x8D9 JUMP JUMPDEST PUSH2 0x8F8 JUMP JUMPDEST PUSH2 0x8D9 JUMP JUMPDEST SWAP1 POP SWAP2 SWAP1 POP JUMP JUMPDEST PUSH0 PUSH2 0x92C DUP3 PUSH2 0x901 JUMP JUMPDEST SWAP1 POP SWAP2 SWAP1 POP JUMP JUMPDEST PUSH0 PUSH2 0x93D DUP3 PUSH2 0x922 JUMP JUMPDEST SWAP1 POP SWAP2 SWAP1 POP JUMP JUMPDEST PUSH2 0x94D DUP2 PUSH2 0x933 JUMP JUMPDEST DUP3 MSTORE POP POP JUMP JUMPDEST PUSH0 PUSH1 0x20 DUP3 ADD SWAP1 POP PUSH2 0x966 PUSH0 DUP4 ADD DUP5 PUSH2 0x944 JUMP JUMPDEST SWAP3 SWAP2 POP POP JUMP JUMPDEST PUSH0 PUSH0 REVERT JUMPDEST PUSH0 PUSH0 REVERT JUMPDEST PUSH0 PUSH1 0x1F NOT PUSH1 0x1F DUP4 ADD AND SWAP1 POP SWAP2 SWAP1 POP JUMP JUMPDEST PUSH32 0x4E487B7100000000000000000000000000000000000000000000000000000000 PUSH0 MSTORE PUSH1 0x41 PUSH1 0x4 MSTORE PUSH1 0x24 PUSH0 REVERT JUMPDEST PUSH2 0x9BA DUP3 PUSH2 0x974 JUMP JUMPDEST DUP2 ADD DUP2 DUP2 LT PUSH8 0xFFFFFFFFFFFFFFFF DUP3 GT OR ISZERO PUSH2 0x9D9 JUMPI PUSH2 0x9D8 PUSH2 0x984 JUMP JUMPDEST JUMPDEST DUP1 PUSH1 0x40 MSTORE POP POP POP JUMP JUMPDEST PUSH0 PUSH2 0x9EB PUSH2 0x837 JUMP JUMPDEST SWAP1 POP PUSH2 0x9F7 DUP3 DUP3 PUSH2 0x9B1 JUMP JUMPDEST SWAP2 SWAP1 POP JUMP JUMPDEST PUSH0 PUSH8 0xFFFFFFFFFFFFFFFF DUP3 GT ISZERO PUSH2 0xA16 JUMPI PUSH2 0xA15 PUSH2 0x984 JUMP JUMPDEST JUMPDEST PUSH2 0xA1F DUP3 PUSH2 0x974 JUMP JUMPDEST SWAP1 POP PUSH1 0x20 DUP2 ADD SWAP1 POP SWAP2 SWAP1 POP JUMP JUMPDEST DUP3 DUP2 DUP4 CALLDATACOPY PUSH0 DUP4 DUP4 ADD MSTORE POP POP POP JUMP JUMPDEST PUSH0 PUSH2 0xA4C PUSH2 0xA47 DUP5 PUSH2 0x9FC JUMP JUMPDEST PUSH2 0x9E2 JUMP JUMPDEST SWAP1 POP DUP3 DUP2 MSTORE PUSH1 0x20 DUP2 ADD DUP5 DUP5 DUP5 ADD GT ISZERO PUSH2 0xA68 JUMPI PUSH2 0xA67 PUSH2 0x970 JUMP JUMPDEST JUMPDEST PUSH2 0xA73 DUP5 DUP3 DUP6 PUSH2 0xA2C JUMP JUMPDEST POP SWAP4 SWAP3 POP POP POP JUMP JUMPDEST PUSH0 DUP3 PUSH1 0x1F DUP4 ADD SLT PUSH2 0xA8F JUMPI PUSH2 0xA8E PUSH2 0x96C JUMP JUMPDEST JUMPDEST DUP2 CALLDATALOAD PUSH2 0xA9F DUP5 DUP3 PUSH1 0x20 DUP7 ADD PUSH2 0xA3A JUMP JUMPDEST SWAP2 POP POP SWAP3 SWAP2 POP POP JUMP JUMPDEST PUSH0 PUSH1 0x20 DUP3 DUP5 SUB SLT ISZERO PUSH2 0xABD JUMPI PUSH2 0xABC PUSH2 0x840 JUMP JUMPDEST JUMPDEST PUSH0 DUP3 ADD CALLDATALOAD PUSH8 0xFFFFFFFFFFFFFFFF DUP2 GT ISZERO PUSH2 0xADA JUMPI PUSH2 0xAD9 PUSH2 0x844 JUMP JUMPDEST JUMPDEST PUSH2 0xAE6 DUP5 DUP3 DUP6 ADD PUSH2 0xA7B JUMP JUMPDEST SWAP2 POP POP SWAP3 SWAP2 POP POP JUMP JUMPDEST PUSH0 DUP2 SWAP1 POP SWAP2 SWAP1 POP JUMP JUMPDEST PUSH2 0xB01 DUP2 PUSH2 0xAEF JUMP JUMPDEST DUP3 MSTORE POP POP JUMP JUMPDEST PUSH0 PUSH1 0x20 DUP3 ADD SWAP1 POP PUSH2 0xB1A PUSH0 DUP4 ADD DUP5 PUSH2 0xAF8 JUMP JUMPDEST SWAP3 SWAP2 POP POP JUMP JUMPDEST PUSH2 0xB29 DUP2 PUSH2 0x848 JUMP JUMPDEST DUP3 MSTORE POP POP JUMP JUMPDEST PUSH0 PUSH1 0x20 DUP3 ADD SWAP1 POP PUSH2 0xB42 PUSH0 DUP4 ADD DUP5 PUSH2 0xB20 JUMP JUMPDEST SWAP3 SWAP2 POP POP JUMP JUMPDEST PUSH0 PUSH0 REVERT JUMPDEST PUSH0 PUSH0 REVERT JUMPDEST PUSH0 DUP2 MLOAD SWAP1 POP PUSH2 0xB5E DUP2 PUSH2 0x851 JUMP JUMPDEST SWAP3 SWAP2 POP POP JUMP JUMPDEST PUSH1 0x4 DUP2 LT PUSH2 0xB70 JUMPI PUSH0 PUSH0 REVERT JUMPDEST POP JUMP JUMPDEST PUSH0 DUP2 MLOAD SWAP1 POP PUSH2 0xB81 DUP2 PUSH2 0xB64 JUMP JUMPDEST SWAP3 SWAP2 POP POP JUMP JUMPDEST DUP3 DUP2 DUP4 MCOPY PUSH0 DUP4 DUP4 ADD MSTORE POP POP POP JUMP JUMPDEST PUSH0 PUSH2 0xBA7 PUSH2 0xBA2 DUP5 PUSH2 0x9FC JUMP JUMPDEST PUSH2 0x9E2 JUMP JUMPDEST SWAP1 POP DUP3 DUP2 MSTORE PUSH1 0x20 DUP2 ADD DUP5 DUP5 DUP5 ADD GT ISZERO PUSH2 0xBC3 JUMPI PUSH2 0xBC2 PUSH2 0x970 JUMP JUMPDEST JUMPDEST PUSH2 0xBCE DUP5 DUP3 DUP6 PUSH2 0xB87 JUMP JUMPDEST POP SWAP4 SWAP3 POP POP POP JUMP JUMPDEST PUSH0 DUP3 PUSH1 0x1F DUP4 ADD SLT PUSH2 0xBEA JUMPI PUSH2 0xBE9 PUSH2 0x96C JUMP JUMPDEST JUMPDEST DUP2 MLOAD PUSH2 0xBFA DUP5 DUP3 PUSH1 0x20 DUP7 ADD PUSH2 0xB95 JUMP JUMPDEST SWAP2 POP POP SWAP3 SWAP2 POP POP JUMP JUMPDEST PUSH0 PUSH1 0xA0 DUP3 DUP5 SUB SLT ISZERO PUSH2 0xC18 JUMPI PUSH2 0xC17 PUSH2 0xB48 JUMP JUMPDEST JUMPDEST PUSH2 0xC22 PUSH1 0xA0 PUSH2 0x9E2 JUMP JUMPDEST SWAP1 POP PUSH0 PUSH2 0xC31 DUP5 DUP3 DUP6 ADD PUSH2 0xB50 JUMP JUMPDEST PUSH0 DUP4 ADD MSTORE POP PUSH1 0x20 PUSH2 0xC44 DUP5 DUP3 DUP6 ADD PUSH2 0xB50 JUMP JUMPDEST PUSH1 0x20 DUP4 ADD MSTORE POP PUSH1 0x40 PUSH2 0xC58 DUP5 DUP3 DUP6 ADD PUSH2 0xB50 JUMP JUMPDEST PUSH1 0x40 DUP4 ADD MSTORE POP PUSH1 0x60 PUSH2 0xC6C DUP5 DUP3 DUP6 ADD PUSH2 0xB73 JUMP JUMPDEST PUSH1 0x60 DUP4 ADD MSTORE POP PUSH1 0x80 DUP3 ADD MLOAD PUSH8 0xFFFFFFFFFFFFFFFF DUP2 GT ISZERO PUSH2 0xC90 JUMPI PUSH2 0xC8F PUSH2 0xB4C JUMP JUMPDEST JUMPDEST PUSH2 0xC9C DUP5 DUP3 DUP6 ADD PUSH2 0xBD6 JUMP JUMPDEST PUSH1 0x80 DUP4 ADD MSTORE POP SWAP3 SWAP2 POP POP JUMP JUMPDEST PUSH0 PUSH1 0x20 DUP3 DUP5 SUB SLT ISZERO PUSH2 0xCBD JUMPI PUSH2 0xCBC PUSH2 0x840 JUMP JUMPDEST JUMPDEST PUSH0 DUP3 ADD MLOAD PUSH8 0xFFFFFFFFFFFFFFFF DUP2 GT ISZERO PUSH2 0xCDA JUMPI PUSH2 0xCD9 PUSH2 0x844 JUMP JUMPDEST JUMPDEST PUSH2 0xCE6 DUP5 DUP3 DUP6 ADD PUSH2 0xC03 JUMP JUMPDEST SWAP2 POP POP SWAP3 SWAP2 POP POP JUMP JUMPDEST PUSH0 DUP2 SWAP1 POP SWAP2 SWAP1 POP JUMP JUMPDEST PUSH2 0xD09 PUSH2 0xD04 DUP3 PUSH2 0x848 JUMP JUMPDEST PUSH2 0xCEF JUMP JUMPDEST DUP3 MSTORE POP POP JUMP JUMPDEST PUSH0 PUSH2 0xD1A DUP3 DUP6 PUSH2 0xCF8 JUMP JUMPDEST PUSH1 0x20 DUP3 ADD SWAP2 POP PUSH2 0xD2A DUP3 DUP5 PUSH2 0xCF8 JUMP JUMPDEST PUSH1 0x20 DUP3 ADD SWAP2 POP DUP2 SWAP1 POP SWAP4 SWAP3 POP POP POP JUMP JUMPDEST PUSH32 0x4E487B7100000000000000000000000000000000000000000000000000000000 PUSH0 MSTORE PUSH1 0x12 PUSH1 0x4 MSTORE PUSH1 0x24 PUSH0 REVERT JUMPDEST PUSH0 PUSH2 0xD71 DUP3 PUSH2 0x848 JUMP JUMPDEST SWAP2 POP PUSH2 0xD7C DUP4 PUSH2 0x848 JUMP JUMPDEST SWAP3 POP DUP3 PUSH2 0xD8C JUMPI PUSH2 0xD8B PUSH2 0xD3A JUMP JUMPDEST JUMPDEST DUP3 DUP3 MOD SWAP1 POP SWAP3 SWAP2 POP POP JUMP JUMPDEST PUSH32 0x4E487B7100000000000000000000000000000000000000000000000000000000 PUSH0 MSTORE PUSH1 0x11 PUSH1 0x4 MSTORE PUSH1 0x24 PUSH0 REVERT JUMPDEST PUSH0 PUSH2 0xDCE DUP3 PUSH2 0x848 JUMP JUMPDEST SWAP2 POP PUSH2 0xDD9 DUP4 PUSH2 0x848 JUMP JUMPDEST SWAP3 POP DUP3 DUP3 SUB SWAP1 POP DUP2 DUP2 GT ISZERO PUSH2 0xDF1 JUMPI PUSH2 0xDF0 PUSH2 0xD97 JUMP JUMPDEST JUMPDEST SWAP3 SWAP2 POP POP JUMP JUMPDEST PUSH0 DUP3 DUP3 MSTORE PUSH1 0x20 DUP3 ADD SWAP1 POP SWAP3 SWAP2 POP POP JUMP JUMPDEST PUSH32 0x496E737572616E636520636F73747320302E3030352045544800000000000000 PUSH0 DUP3 ADD MSTORE POP JUMP JUMPDEST PUSH0 PUSH2 0xE3B PUSH1 0x19 DUP4 PUSH2 0xDF7 JUMP JUMPDEST SWAP2 POP PUSH2 0xE46 DUP3 PUSH2 0xE07 JUMP JUMPDEST PUSH1 0x20 DUP3 ADD SWAP1 POP SWAP2 SWAP1 POP JUMP JUMPDEST PUSH0 PUSH1 0x20 DUP3 ADD SWAP1 POP DUP2 DUP2 SUB PUSH0 DUP4 ADD MSTORE PUSH2 0xE68 DUP2 PUSH2 0xE2F JUMP JUMPDEST SWAP1 POP SWAP2 SWAP1 POP JUMP JUMPDEST PUSH32 0x4865616C696E6720636F73747320302E30312045544800000000000000000000 PUSH0 DUP3 ADD MSTORE POP JUMP JUMPDEST PUSH0 PUSH2 0xEA3 PUSH1 0x16 DUP4 PUSH2 0xDF7 JUMP JUMPDEST SWAP2 POP PUSH2 0xEAE DUP3 PUSH2 0xE6F JUMP JUMPDEST PUSH1 0x20 DUP3 ADD SWAP1 POP SWAP2 SWAP1 POP JUMP JUMPDEST PUSH0 PUSH1 0x20 DUP3 ADD SWAP1 POP DUP2 DUP2 SUB PUSH0 DUP4 ADD MSTORE PUSH2 0xED0 DUP2 PUSH2 0xE97 JUMP JUMPDEST SWAP1 POP SWAP2 SWAP1 POP JUMP JUMPDEST PUSH0 PUSH2 0xEE1 DUP3 PUSH2 0x8D9 JUMP JUMPDEST SWAP1 POP SWAP2 SWAP1 POP JUMP JUMPDEST PUSH0 DUP2 PUSH1 0x60 SHL SWAP1 POP SWAP2 SWAP1 POP JUMP JUMPDEST PUSH0 PUSH2 0xEFE DUP3 PUSH2 0xEE8 JUMP JUMPDEST SWAP1 POP SWAP2 SWAP1 POP JUMP JUMPDEST PUSH0 PUSH2 0xF0F DUP3 PUSH2 0xEF4 JUMP JUMPDEST SWAP1 POP SWAP2 SWAP1 POP JUMP JUMPDEST PUSH2 0xF27 PUSH2 0xF22 DUP3 PUSH2 0xED7 JUMP JUMPDEST PUSH2 0xF05 JUMP JUMPDEST DUP3 MSTORE POP POP JUMP JUMPDEST PUSH0 PUSH2 0xF38 DUP3 DUP6 PUSH2 0xCF8 JUMP JUMPDEST PUSH1 0x20 DUP3 ADD SWAP2 POP PUSH2 0xF48 DUP3 DUP5 PUSH2 0xF16 JUMP JUMPDEST PUSH1 0x14 DUP3 ADD SWAP2 POP DUP2 SWAP1 POP SWAP4 SWAP3 POP POP POP JUMP JUMPDEST PUSH32 0x4E487B7100000000000000000000000000000000000000000000000000000000 PUSH0 MSTORE PUSH1 0x21 PUSH1 0x4 MSTORE PUSH1 0x24 PUSH0 REVERT JUMPDEST PUSH1 0x4 DUP2 LT PUSH2 0xF96 JUMPI PUSH2 0xF95 PUSH2 0xF58 JUMP JUMPDEST JUMPDEST POP JUMP JUMPDEST PUSH0 DUP2 SWAP1 POP PUSH2 0xFA6 DUP3 PUSH2 0xF85 JUMP JUMPDEST SWAP2 SWAP1 POP JUMP JUMPDEST PUSH0 PUSH2 0xFB5 DUP3 PUSH2 0xF99 JUMP JUMPDEST SWAP1 POP SWAP2 SWAP1 POP JUMP JUMPDEST PUSH2 0xFC5 DUP2 PUSH2 0xFAB JUMP JUMPDEST DUP3 MSTORE POP POP JUMP JUMPDEST PUSH0 DUP2 MLOAD SWAP1 POP SWAP2 SWAP1 POP JUMP JUMPDEST PUSH0 PUSH2 0xFDF DUP3 PUSH2 0xFCB JUMP JUMPDEST PUSH2 0xFE9 DUP2 DUP6 PUSH2 0xDF7 JUMP JUMPDEST SWAP4 POP PUSH2 0xFF9 DUP2 DUP6 PUSH1 0x20 DUP7 ADD PUSH2 0xB87 JUMP JUMPDEST PUSH2 0x1002 DUP2 PUSH2 0x974 JUMP JUMPDEST DUP5 ADD SWAP2 POP POP SWAP3 SWAP2 POP POP JUMP JUMPDEST PUSH0 PUSH1 0x40 DUP3 ADD SWAP1 POP PUSH2 0x1020 PUSH0 DUP4 ADD DUP6 PUSH2 0xFBC JUMP JUMPDEST DUP2 DUP2 SUB PUSH1 0x20 DUP4 ADD MSTORE PUSH2 0x1032 DUP2 DUP5 PUSH2 0xFD5 JUMP JUMPDEST SWAP1 POP SWAP4 SWAP3 POP POP POP JUMP JUMPDEST PUSH2 0x1044 DUP2 PUSH2 0xAEF JUMP JUMPDEST DUP2 EQ PUSH2 0x104E JUMPI PUSH0 PUSH0 REVERT JUMPDEST POP JUMP JUMPDEST PUSH0 DUP2 MLOAD SWAP1 POP PUSH2 0x105F DUP2 PUSH2 0x103B JUMP JUMPDEST SWAP3 SWAP2 POP POP JUMP JUMPDEST PUSH0 PUSH1 0x20 DUP3 DUP5 SUB SLT ISZERO PUSH2 0x107A JUMPI PUSH2 0x1079 PUSH2 0x840 JUMP JUMPDEST JUMPDEST PUSH0 PUSH2 0x1087 DUP5 DUP3 DUP6 ADD PUSH2 0x1051 JUMP JUMPDEST SWAP2 POP POP SWAP3 SWAP2 POP POP JUMP JUMPDEST PUSH0 PUSH2 0x109A DUP3 PUSH2 0x848 JUMP JUMPDEST SWAP2 POP PUSH2 0x10A5 DUP4 PUSH2 0x848 JUMP JUMPDEST SWAP3 POP DUP3 DUP3 ADD SWAP1 POP DUP1 DUP3 GT ISZERO PUSH2 0x10BD JUMPI PUSH2 0x10BC PUSH2 0xD97 JUMP JUMPDEST JUMPDEST SWAP3 SWAP2 POP POP JUMP JUMPDEST PUSH32 0x556E6B6E6F776E20737065636965730000000000000000000000000000000000 PUSH0 DUP3 ADD MSTORE POP JUMP JUMPDEST PUSH0 PUSH2 0x10F7 PUSH1 0xF DUP4 PUSH2 0xDF7 JUMP JUMPDEST SWAP2 POP PUSH2 0x1102 DUP3 PUSH2 0x10C3 JUMP JUMPDEST PUSH1 0x20 DUP3 ADD SWAP1 POP SWAP2 SWAP1 POP JUMP JUMPDEST PUSH0 PUSH1 0x20 DUP3 ADD SWAP1 POP DUP2 DUP2 SUB PUSH0 DUP4 ADD MSTORE PUSH2 0x1124 DUP2 PUSH2 0x10EB JUMP JUMPDEST SWAP1 POP SWAP2 SWAP1 POP JUMP INVALID LOG2 PUSH5 0x6970667358 0x22 SLT KECCAK256 DUP5 0xC0 RETF STOP 0xE8 0x4C CALLDATALOAD 0xCF PUSH11 0xD75566B1B7268CA0071E2 SWAP14 KECCAK256 EXTDELEGATECALL SWAP14 SWAP16 CODESIZE MCOPY PUSH10 0x761D12CA64736F6C6343 STOP ADDMOD 0x1E STOP CALLER "
		},
		"gasEstimates": {
			"creation": {
				"codeDepositCost": "889800",
				"executionCost": "infinite",
				"totalCost": "infinite"
			},
			"external": {
				"ageBird(uint256)": "infinite",
				"buyInsurance(uint256)": "24744",
				"healBird(uint256)": "infinite",
				"insured(uint256)": "2786",
				"mintLegendaryBird(string)": "infinite",
				"ptakContract()": "infinite",
				"randomPoisoning(uint256)": "infinite"
			}
		},
		"methodIdentifiers": {
			"ageBird(uint256)": "cc35b17d",
			"buyInsurance(uint256)": "a86a658c",
			"healBird(uint256)": "bff998f4",
			"insured(uint256)": "16cb4a05",
			"mintLegendaryBird(string)": "c9ac8056",
			"ptakContract()": "5361e1d2",
			"randomPoisoning(uint256)": "65b8b64e"
		}
	},
	"abi": [
		{
			"inputs": [
				{
					"internalType": "address",
					"name": "_ptakAddress",
					"type": "address"
				}
			],
			"stateMutability": "nonpayable",
			"type": "constructor"
		},
		{
			"inputs": [
				{
					"internalType": "uint256",
					"name": "birdId",
					"type": "uint256"
				}
			],
			"name": "ageBird",
			"outputs": [],
			"stateMutability": "nonpayable",
			"type": "function"
		},
		{
			"inputs": [
				{
					"internalType": "uint256",
					"name": "birdId",
					"type": "uint256"
				}
			],
			"name": "buyInsurance",
			"outputs": [],
			"stateMutability": "payable",
			"type": "function"
		},
		{
			"inputs": [
				{
					"internalType": "uint256",
					"name": "birdId",
					"type": "uint256"
				}
			],
			"name": "healBird",
			"outputs": [],
			"stateMutability": "payable",
			"type": "function"
		},
		{
			"inputs": [
				{
					"internalType": "uint256",
					"name": "",
					"type": "uint256"
				}
			],
			"name": "insured",
			"outputs": [
				{
					"internalType": "bool",
					"name": "",
					"type": "bool"
				}
			],
			"stateMutability": "view",
			"type": "function"
		},
		{
			"inputs": [
				{
					"internalType": "string",
					"name": "imageUrl",
					"type": "string"
				}
			],
			"name": "mintLegendaryBird",
			"outputs": [
				{
					"internalType": "int256",
					"name": "",
					"type": "int256"
				}
			],
			"stateMutability": "nonpayable",
			"type": "function"
		},
		{
			"inputs": [],
			"name": "ptakContract",
			"outputs": [
				{
					"internalType": "contract Ptak",
					"name": "",
					"type": "address"
				}
			],
			"stateMutability": "view",
			"type": "function"
		},
		{
			"inputs": [
				{
					"internalType": "uint256",
					"name": "birdId",
					"type": "uint256"
				}
			],
			"name": "randomPoisoning",
			"outputs": [],
			"stateMutability": "nonpayable",
			"type": "function"
		}
	]
}