{
	"data": {
		"bytecode": {
			"linkReferences": {},
			"object": "608060405234801561000f575f5ffd5b506040516114d43803806114d4833981810160405281019061003191906100d5565b8060025f6101000a81548173ffffffffffffffffffffffffffffffffffffffff021916908373ffffffffffffffffffffffffffffffffffffffff16021790555050610100565b5f5ffd5b5f73ffffffffffffffffffffffffffffffffffffffff82169050919050565b5f6100a48261007b565b9050919050565b6100b48161009a565b81146100be575f5ffd5b50565b5f815190506100cf816100ab565b92915050565b5f602082840312156100ea576100e9610077565b5b5f6100f7848285016100c1565b91505092915050565b6113c78061010d5f395ff3fe608060405234801561000f575f5ffd5b5060043610610086575f3560e01c80636ec88bbd116100595780636ec88bbd1461012457806372680a7714610154578063a2b7ce6f14610172578063ec1c59551461018e57610086565b806316cb4a051461008a5780631942d199146100ba5780634d2d7881146100d657806361b8ce8c14610106575b5f5ffd5b6100a4600480360381019061009f9190610cab565b6101c2565b6040516100b19190610cf0565b60405180910390f35b6100d460048036038101906100cf9190610d09565b6101df565b005b6100f060048036038101906100eb9190610d6a565b6102cc565b6040516100fd9190610dad565b60405180910390f35b61010e61042e565b60405161011b9190610dd5565b60405180910390f35b61013e60048036038101906101399190610cab565b610434565b60405161014b9190610ed6565b60405180910390f35b61015c6104c8565b6040516101699190610f2e565b60405180910390f35b61018c60048036038101906101879190610cab565b6104ed565b005b6101a860048036038101906101a39190610cab565b6105e9565b6040516101b9959493929190610f56565b60405180910390f35b6003602052805f5260405f205f915054906101000a900460ff1681565b60025f9054906101000a900473ffffffffffffffffffffffffffffffffffffffff1673ffffffffffffffffffffffffffffffffffffffff163373ffffffffffffffffffffffffffffffffffffffff161461026e576040517f08c379a000000000000000000000000000000000000000000000000000000000815260040161026590611001565b60405180910390fd5b610277826104ed565b5f5f5f8481526020019081526020015f20905061029383610626565b818160010154106102bd5781816001015f8282546102b1919061104c565b925050819055506102c7565b5f81600101819055505b505050565b5f60025f9054906101000a900473ffffffffffffffffffffffffffffffffffffffff1673ffffffffffffffffffffffffffffffffffffffff163373ffffffffffffffffffffffffffffffffffffffff161461035c576040517f08c379a000000000000000000000000000000000000000000000000000000000815260040161035390611001565b60405180910390fd5b5f61036683610704565b90506040518060a001604052805f81526020015f8152602001825f0151815260200184600a81111561039b5761039a610dfd565b5b8152602001428152505f5f60015481526020019081526020015f205f820151815f015560208201518160010155604082015181600201556060820151816003015f6101000a81548160ff0219169083600a8111156103fc576103fb610dfd565b5b02179055506080820151816004015590505060015f8154809291906104209061107f565b91905055505f915050919050565b60015481565b61043c610c0d565b610445826104ed565b5f5f8381526020019081526020015f206040518060a00160405290815f82015481526020016001820154815260200160028201548152602001600382015f9054906101000a900460ff16600a8111156104a1576104a0610dfd565b5b600a8111156104b3576104b2610dfd565b5b81526020016004820154815250509050919050565b60025f9054906101000a900473ffffffffffffffffffffffffffffffffffffffff1681565b5f5f5f8381526020019081526020015f2090505f816004015442610511919061104c565b90505f8111156105e4575f610e10610538846003015f9054906101000a900460ff16610704565b604001518361054791906110c6565b6105519190611134565b905080836001015f8282546105669190611164565b925050819055505f610587846003015f9054906101000a900460ff16610704565b60200151905080846001015411156105a3578084600101819055505b5f62015180846105b39190611134565b90505f8111156105d75780855f015f8282546105cf9190611164565b925050819055505b4285600401819055505050505b505050565b5f602052805f5260405f205f91509050805f015490806001015490806002015490806003015f9054906101000a900460ff16908060040154905085565b61062e610c49565b5f5f5f8481526020019081526020015f20905061065a816003015f9054906101000a900460ff16610704565b915060035f8481526020019081526020015f205f9054906101000a900460ff166106ff575f610698826003015f9054906101000a900460ff16610704565b6060015190505f606442866040516020016106b49291906111b7565b604051602081830303815290604052805190602001205f1c6106d691906111e2565b9050818110156106fc576019836002015f8282546106f4919061104c565b925050819055505b50505b505050565b61070c610c49565b5f600a81111561071f5761071e610dfd565b5b82600a81111561073257610731610dfd565b5b03610781576040518060a0016040528060c881526020016096815260200160038152602001600181526020016040518060800160405280605d815260200161127b605d91398152509050610c08565b6001600a81111561079557610794610dfd565b5b82600a8111156107a8576107a7610dfd565b5b036107f7576040518060a0016040528060dc815260200160c8815260200160028152602001600581526020016040518060800160405280605d8152602001611335605d91398152509050610c08565b6002600a81111561080b5761080a610dfd565b5b82600a81111561081e5761081d610dfd565b5b0361086d576040518060a00160405280605081526020016050815260200160038152602001600681526020016040518060800160405280605d81526020016112d8605d91398152509050610c08565b6003600a81111561088157610880610dfd565b5b82600a81111561089457610893610dfd565b5b036108da576040518060a0016040528061012c815260200161012c8152602001600181526020015f815260200160405180602001604052805f8152508152509050610c08565b6004600a8111156108ee576108ed610dfd565b5b82600a81111561090157610900610dfd565b5b03610946576040518060a0016040528060b48152602001605a8152602001600281526020016004815260200160405180602001604052805f8152508152509050610c08565b6005600a81111561095a57610959610dfd565b5b82600a81111561096d5761096c610dfd565b5b036109b2576040518060a001604052806050815260200160468152602001600281526020016008815260200160405180602001604052805f8152508152509050610c08565b6006600a8111156109c6576109c5610dfd565b5b82600a8111156109d9576109d8610dfd565b5b03610a1e576040518060a0016040528060328152602001603c8152602001600481526020016005815260200160405180602001604052805f8152508152509050610c08565b6007600a811115610a3257610a31610dfd565b5b82600a811115610a4557610a44610dfd565b5b03610a8a576040518060a001604052806037815260200160288152602001600381526020016004815260200160405180602001604052805f8152508152509050610c08565b6008600a811115610a9e57610a9d610dfd565b5b82600a811115610ab157610ab0610dfd565b5b03610af6576040518060a00160405280604e815260200160418152602001600281526020016004815260200160405180602001604052805f8152508152509050610c08565b6009600a811115610b0a57610b09610dfd565b5b82600a811115610b1d57610b1c610dfd565b5b03610b62576040518060a001604052806096815260200160648152602001600481526020016003815260200160405180602001604052805f8152508152509050610c08565b600a80811115610b7557610b74610dfd565b5b82600a811115610b8857610b87610dfd565b5b03610bcd576040518060a001604052806023815260200160428152602001600481526020016005815260200160405180602001604052805f8152508152509050610c08565b6040517f08c379a0000000000000000000000000000000000000000000000000000000008152600401610bff9061125c565b60405180910390fd5b919050565b6040518060a001604052805f81526020015f81526020015f81526020015f600a811115610c3d57610c3c610dfd565b5b81526020015f81525090565b6040518060a001604052805f81526020015f81526020015f81526020015f8152602001606081525090565b5f5ffd5b5f819050919050565b610c8a81610c78565b8114610c94575f5ffd5b50565b5f81359050610ca581610c81565b92915050565b5f60208284031215610cc057610cbf610c74565b5b5f610ccd84828501610c97565b91505092915050565b5f8115159050919050565b610cea81610cd6565b82525050565b5f602082019050610d035f830184610ce1565b92915050565b5f5f60408385031215610d1f57610d1e610c74565b5b5f610d2c85828601610c97565b9250506020610d3d85828601610c97565b9150509250929050565b600b8110610d53575f5ffd5b50565b5f81359050610d6481610d47565b92915050565b5f60208284031215610d7f57610d7e610c74565b5b5f610d8c84828501610d56565b91505092915050565b5f819050919050565b610da781610d95565b82525050565b5f602082019050610dc05f830184610d9e565b92915050565b610dcf81610c78565b82525050565b5f602082019050610de85f830184610dc6565b92915050565b610df781610c78565b82525050565b7f4e487b71000000000000000000000000000000000000000000000000000000005f52602160045260245ffd5b600b8110610e3b57610e3a610dfd565b5b50565b5f819050610e4b82610e2a565b919050565b5f610e5a82610e3e565b9050919050565b610e6a81610e50565b82525050565b60a082015f820151610e845f850182610dee565b506020820151610e976020850182610dee565b506040820151610eaa6040850182610dee565b506060820151610ebd6060850182610e61565b506080820151610ed06080850182610dee565b50505050565b5f60a082019050610ee95f830184610e70565b92915050565b5f73ffffffffffffffffffffffffffffffffffffffff82169050919050565b5f610f1882610eef565b9050919050565b610f2881610f0e565b82525050565b5f602082019050610f415f830184610f1f565b92915050565b610f5081610e50565b82525050565b5f60a082019050610f695f830188610dc6565b610f766020830187610dc6565b610f836040830186610dc6565b610f906060830185610f47565b610f9d6080830184610dc6565b9695505050505050565b5f82825260208201905092915050565b7f4f6e6c79205061726b2063616e2063616c6c20746869730000000000000000005f82015250565b5f610feb601783610fa7565b9150610ff682610fb7565b602082019050919050565b5f6020820190508181035f83015261101881610fdf565b9050919050565b7f4e487b71000000000000000000000000000000000000000000000000000000005f52601160045260245ffd5b5f61105682610c78565b915061106183610c78565b92508282039050818111156110795761107861101f565b5b92915050565b5f61108982610c78565b91507fffffffffffffffffffffffffffffffffffffffffffffffffffffffffffffffff82036110bb576110ba61101f565b5b600182019050919050565b5f6110d082610c78565b91506110db83610c78565b92508282026110e981610c78565b91508282048414831517611100576110ff61101f565b5b5092915050565b7f4e487b71000000000000000000000000000000000000000000000000000000005f52601260045260245ffd5b5f61113e82610c78565b915061114983610c78565b92508261115957611158611107565b5b828204905092915050565b5f61116e82610c78565b915061117983610c78565b92508282019050808211156111915761119061101f565b5b92915050565b5f819050919050565b6111b16111ac82610c78565b611197565b82525050565b5f6111c282856111a0565b6020820191506111d282846111a0565b6020820191508190509392505050565b5f6111ec82610c78565b91506111f783610c78565b92508261120757611206611107565b5b828206905092915050565b7f556e6b6e6f776e207370656369657300000000000000000000000000000000005f82015250565b5f611246600f83610fa7565b915061125182611212565b602082019050919050565b5f6020820190508181035f8301526112738161123a565b905091905056fe68747470733a2f2f676174657761792e70696e6174612e636c6f75642f697066732f6261667962656961336c65346173746b6e683270346d626b64357734326a353232746e73653477786b3777356d3777696d6f716470366f757a707968747470733a2f2f676174657761792e70696e6174612e636c6f75642f697066732f626166796265696576377075637a377968377836686169646d7068703569656f6276636664636c6e6c776a71613269767334793335377076776d6168747470733a2f2f676174657761792e70696e6174612e636c6f75642f697066732f62616679626569676f686f746f6b366b336f6e76746a797970666e626e7a6263736f327163697862777a34776836347670326e336c71376e6b7361a2646970667358221220784e163e6641f18a2ec75e03d6dd242db0404712511ad6f88d7980a2feaf314664736f6c634300081e0033",
			"opcodes": "PUSH1 0x80 PUSH1 0x40 MSTORE CALLVALUE DUP1 ISZERO PUSH2 0xF JUMPI PUSH0 PUSH0 REVERT JUMPDEST POP PUSH1 0x40 MLOAD PUSH2 0x14D4 CODESIZE SUB DUP1 PUSH2 0x14D4 DUP4 CODECOPY DUP2 DUP2 ADD PUSH1 0x40 MSTORE DUP2 ADD SWAP1 PUSH2 0x31 SWAP2 SWAP1 PUSH2 0xD5 JUMP JUMPDEST DUP1 PUSH1 0x2 PUSH0 PUSH2 0x100 EXP DUP2 SLOAD DUP2 PUSH20 0xFFFFFFFFFFFFFFFFFFFFFFFFFFFFFFFFFFFFFFFF MUL NOT AND SWAP1 DUP4 PUSH20 0xFFFFFFFFFFFFFFFFFFFFFFFFFFFFFFFFFFFFFFFF AND MUL OR SWAP1 SSTORE POP POP PUSH2 0x100 JUMP JUMPDEST PUSH0 PUSH0 REVERT JUMPDEST PUSH0 PUSH20 0xFFFFFFFFFFFFFFFFFFFFFFFFFFFFFFFFFFFFFFFF DUP3 AND SWAP1 POP SWAP2 SWAP1 POP JUMP JUMPDEST PUSH0 PUSH2 0xA4 DUP3 PUSH2 0x7B JUMP JUMPDEST SWAP1 POP SWAP2 SWAP1 POP JUMP JUMPDEST PUSH2 0xB4 DUP2 PUSH2 0x9A JUMP JUMPDEST DUP2 EQ PUSH2 0xBE JUMPI PUSH0 PUSH0 REVERT JUMPDEST POP JUMP JUMPDEST PUSH0 DUP2 MLOAD SWAP1 POP PUSH2 0xCF DUP2 PUSH2 0xAB JUMP JUMPDEST SWAP3 SWAP2 POP POP JUMP JUMPDEST PUSH0 PUSH1 0x20 DUP3 DUP5 SUB SLT ISZERO PUSH2 0xEA JUMPI PUSH2 0xE9 PUSH2 0x77 JUMP JUMPDEST JUMPDEST PUSH0 PUSH2 0xF7 DUP5 DUP3 DUP6 ADD PUSH2 0xC1 JUMP JUMPDEST SWAP2 POP POP SWAP3 SWAP2 POP POP JUMP JUMPDEST PUSH2 0x13C7 DUP1 PUSH2 0x10D PUSH0 CODECOPY PUSH0 RETURN INVALID PUSH1 0x80 PUSH1 0x40 MSTORE CALLVALUE DUP1 ISZERO PUSH2 0xF JUMPI PUSH0 PUSH0 REVERT JUMPDEST POP PUSH1 0x4 CALLDATASIZE LT PUSH2 0x86 JUMPI PUSH0 CALLDATALOAD PUSH1 0xE0 SHR DUP1 PUSH4 0x6EC88BBD GT PUSH2 0x59 JUMPI DUP1 PUSH4 0x6EC88BBD EQ PUSH2 0x124 JUMPI DUP1 PUSH4 0x72680A77 EQ PUSH2 0x154 JUMPI DUP1 PUSH4 0xA2B7CE6F EQ PUSH2 0x172 JUMPI DUP1 PUSH4 0xEC1C5955 EQ PUSH2 0x18E JUMPI PUSH2 0x86 JUMP JUMPDEST DUP1 PUSH4 0x16CB4A05 EQ PUSH2 0x8A JUMPI DUP1 PUSH4 0x1942D199 EQ PUSH2 0xBA JUMPI DUP1 PUSH4 0x4D2D7881 EQ PUSH2 0xD6 JUMPI DUP1 PUSH4 0x61B8CE8C EQ PUSH2 0x106 JUMPI JUMPDEST PUSH0 PUSH0 REVERT JUMPDEST PUSH2 0xA4 PUSH1 0x4 DUP1 CALLDATASIZE SUB DUP2 ADD SWAP1 PUSH2 0x9F SWAP2 SWAP1 PUSH2 0xCAB JUMP JUMPDEST PUSH2 0x1C2 JUMP JUMPDEST PUSH1 0x40 MLOAD PUSH2 0xB1 SWAP2 SWAP1 PUSH2 0xCF0 JUMP JUMPDEST PUSH1 0x40 MLOAD DUP1 SWAP2 SUB SWAP1 RETURN JUMPDEST PUSH2 0xD4 PUSH1 0x4 DUP1 CALLDATASIZE SUB DUP2 ADD SWAP1 PUSH2 0xCF SWAP2 SWAP1 PUSH2 0xD09 JUMP JUMPDEST PUSH2 0x1DF JUMP JUMPDEST STOP JUMPDEST PUSH2 0xF0 PUSH1 0x4 DUP1 CALLDATASIZE SUB DUP2 ADD SWAP1 PUSH2 0xEB SWAP2 SWAP1 PUSH2 0xD6A JUMP JUMPDEST PUSH2 0x2CC JUMP JUMPDEST PUSH1 0x40 MLOAD PUSH2 0xFD SWAP2 SWAP1 PUSH2 0xDAD JUMP JUMPDEST PUSH1 0x40 MLOAD DUP1 SWAP2 SUB SWAP1 RETURN JUMPDEST PUSH2 0x10E PUSH2 0x42E JUMP JUMPDEST PUSH1 0x40 MLOAD PUSH2 0x11B SWAP2 SWAP1 PUSH2 0xDD5 JUMP JUMPDEST PUSH1 0x40 MLOAD DUP1 SWAP2 SUB SWAP1 RETURN JUMPDEST PUSH2 0x13E PUSH1 0x4 DUP1 CALLDATASIZE SUB DUP2 ADD SWAP1 PUSH2 0x139 SWAP2 SWAP1 PUSH2 0xCAB JUMP JUMPDEST PUSH2 0x434 JUMP JUMPDEST PUSH1 0x40 MLOAD PUSH2 0x14B SWAP2 SWAP1 PUSH2 0xED6 JUMP JUMPDEST PUSH1 0x40 MLOAD DUP1 SWAP2 SUB SWAP1 RETURN JUMPDEST PUSH2 0x15C PUSH2 0x4C8 JUMP JUMPDEST PUSH1 0x40 MLOAD PUSH2 0x169 SWAP2 SWAP1 PUSH2 0xF2E JUMP JUMPDEST PUSH1 0x40 MLOAD DUP1 SWAP2 SUB SWAP1 RETURN JUMPDEST PUSH2 0x18C PUSH1 0x4 DUP1 CALLDATASIZE SUB DUP2 ADD SWAP1 PUSH2 0x187 SWAP2 SWAP1 PUSH2 0xCAB JUMP JUMPDEST PUSH2 0x4ED JUMP JUMPDEST STOP JUMPDEST PUSH2 0x1A8 PUSH1 0x4 DUP1 CALLDATASIZE SUB DUP2 ADD SWAP1 PUSH2 0x1A3 SWAP2 SWAP1 PUSH2 0xCAB JUMP JUMPDEST PUSH2 0x5E9 JUMP JUMPDEST PUSH1 0x40 MLOAD PUSH2 0x1B9 SWAP6 SWAP5 SWAP4 SWAP3 SWAP2 SWAP1 PUSH2 0xF56 JUMP JUMPDEST PUSH1 0x40 MLOAD DUP1 SWAP2 SUB SWAP1 RETURN JUMPDEST PUSH1 0x3 PUSH1 0x20 MSTORE DUP1 PUSH0 MSTORE PUSH1 0x40 PUSH0 KECCAK256 PUSH0 SWAP2 POP SLOAD SWAP1 PUSH2 0x100 EXP SWAP1 DIV PUSH1 0xFF AND DUP2 JUMP JUMPDEST PUSH1 0x2 PUSH0 SWAP1 SLOAD SWAP1 PUSH2 0x100 EXP SWAP1 DIV PUSH20 0xFFFFFFFFFFFFFFFFFFFFFFFFFFFFFFFFFFFFFFFF AND PUSH20 0xFFFFFFFFFFFFFFFFFFFFFFFFFFFFFFFFFFFFFFFF AND CALLER PUSH20 0xFFFFFFFFFFFFFFFFFFFFFFFFFFFFFFFFFFFFFFFF AND EQ PUSH2 0x26E JUMPI PUSH1 0x40 MLOAD PUSH32 0x8C379A000000000000000000000000000000000000000000000000000000000 DUP2 MSTORE PUSH1 0x4 ADD PUSH2 0x265 SWAP1 PUSH2 0x1001 JUMP JUMPDEST PUSH1 0x40 MLOAD DUP1 SWAP2 SUB SWAP1 REVERT JUMPDEST PUSH2 0x277 DUP3 PUSH2 0x4ED JUMP JUMPDEST PUSH0 PUSH0 PUSH0 DUP5 DUP2 MSTORE PUSH1 0x20 ADD SWAP1 DUP2 MSTORE PUSH1 0x20 ADD PUSH0 KECCAK256 SWAP1 POP PUSH2 0x293 DUP4 PUSH2 0x626 JUMP JUMPDEST DUP2 DUP2 PUSH1 0x1 ADD SLOAD LT PUSH2 0x2BD JUMPI DUP2 DUP2 PUSH1 0x1 ADD PUSH0 DUP3 DUP3 SLOAD PUSH2 0x2B1 SWAP2 SWAP1 PUSH2 0x104C JUMP JUMPDEST SWAP3 POP POP DUP2 SWAP1 SSTORE POP PUSH2 0x2C7 JUMP JUMPDEST PUSH0 DUP2 PUSH1 0x1 ADD DUP2 SWAP1 SSTORE POP JUMPDEST POP POP POP JUMP JUMPDEST PUSH0 PUSH1 0x2 PUSH0 SWAP1 SLOAD SWAP1 PUSH2 0x100 EXP SWAP1 DIV PUSH20 0xFFFFFFFFFFFFFFFFFFFFFFFFFFFFFFFFFFFFFFFF AND PUSH20 0xFFFFFFFFFFFFFFFFFFFFFFFFFFFFFFFFFFFFFFFF AND CALLER PUSH20 0xFFFFFFFFFFFFFFFFFFFFFFFFFFFFFFFFFFFFFFFF AND EQ PUSH2 0x35C JUMPI PUSH1 0x40 MLOAD PUSH32 0x8C379A000000000000000000000000000000000000000000000000000000000 DUP2 MSTORE PUSH1 0x4 ADD PUSH2 0x353 SWAP1 PUSH2 0x1001 JUMP JUMPDEST PUSH1 0x40 MLOAD DUP1 SWAP2 SUB SWAP1 REVERT JUMPDEST PUSH0 PUSH2 0x366 DUP4 PUSH2 0x704 JUMP JUMPDEST SWAP1 POP PUSH1 0x40 MLOAD DUP1 PUSH1 0xA0 ADD PUSH1 0x40 MSTORE DUP1 PUSH0 DUP2 MSTORE PUSH1 0x20 ADD PUSH0 DUP2 MSTORE PUSH1 0x20 ADD DUP3 PUSH0 ADD MLOAD DUP2 MSTORE PUSH1 0x20 ADD DUP5 PUSH1 0xA DUP2 GT ISZERO PUSH2 0x39B JUMPI PUSH2 0x39A PUSH2 0xDFD JUMP JUMPDEST JUMPDEST DUP2 MSTORE PUSH1 0x20 ADD TIMESTAMP DUP2 MSTORE POP PUSH0 PUSH0 PUSH1 0x1 SLOAD DUP2 MSTORE PUSH1 0x20 ADD SWAP1 DUP2 MSTORE PUSH1 0x20 ADD PUSH0 KECCAK256 PUSH0 DUP3 ADD MLOAD DUP2 PUSH0 ADD SSTORE PUSH1 0x20 DUP3 ADD MLOAD DUP2 PUSH1 0x1 ADD SSTORE PUSH1 0x40 DUP3 ADD MLOAD DUP2 PUSH1 0x2 ADD SSTORE PUSH1 0x60 DUP3 ADD MLOAD DUP2 PUSH1 0x3 ADD PUSH0 PUSH2 0x100 EXP DUP2 SLOAD DUP2 PUSH1 0xFF MUL NOT AND SWAP1 DUP4 PUSH1 0xA DUP2 GT ISZERO PUSH2 0x3FC JUMPI PUSH2 0x3FB PUSH2 0xDFD JUMP JUMPDEST JUMPDEST MUL OR SWAP1 SSTORE POP PUSH1 0x80 DUP3 ADD MLOAD DUP2 PUSH1 0x4 ADD SSTORE SWAP1 POP POP PUSH1 0x1 PUSH0 DUP2 SLOAD DUP1 SWAP3 SWAP2 SWAP1 PUSH2 0x420 SWAP1 PUSH2 0x107F JUMP JUMPDEST SWAP2 SWAP1 POP SSTORE POP PUSH0 SWAP2 POP POP SWAP2 SWAP1 POP JUMP JUMPDEST PUSH1 0x1 SLOAD DUP2 JUMP JUMPDEST PUSH2 0x43C PUSH2 0xC0D JUMP JUMPDEST PUSH2 0x445 DUP3 PUSH2 0x4ED JUMP JUMPDEST PUSH0 PUSH0 DUP4 DUP2 MSTORE PUSH1 0x20 ADD SWAP1 DUP2 MSTORE PUSH1 0x20 ADD PUSH0 KECCAK256 PUSH1 0x40 MLOAD DUP1 PUSH1 0xA0 ADD PUSH1 0x40 MSTORE SWAP1 DUP2 PUSH0 DUP3 ADD SLOAD DUP2 MSTORE PUSH1 0x20 ADD PUSH1 0x1 DUP3 ADD SLOAD DUP2 MSTORE PUSH1 0x20 ADD PUSH1 0x2 DUP3 ADD SLOAD DUP2 MSTORE PUSH1 0x20 ADD PUSH1 0x3 DUP3 ADD PUSH0 SWAP1 SLOAD SWAP1 PUSH2 0x100 EXP SWAP1 DIV PUSH1 0xFF AND PUSH1 0xA DUP2 GT ISZERO PUSH2 0x4A1 JUMPI PUSH2 0x4A0 PUSH2 0xDFD JUMP JUMPDEST JUMPDEST PUSH1 0xA DUP2 GT ISZERO PUSH2 0x4B3 JUMPI PUSH2 0x4B2 PUSH2 0xDFD JUMP JUMPDEST JUMPDEST DUP2 MSTORE PUSH1 0x20 ADD PUSH1 0x4 DUP3 ADD SLOAD DUP2 MSTORE POP POP SWAP1 POP SWAP2 SWAP1 POP JUMP JUMPDEST PUSH1 0x2 PUSH0 SWAP1 SLOAD SWAP1 PUSH2 0x100 EXP SWAP1 DIV PUSH20 0xFFFFFFFFFFFFFFFFFFFFFFFFFFFFFFFFFFFFFFFF AND DUP2 JUMP JUMPDEST PUSH0 PUSH0 PUSH0 DUP4 DUP2 MSTORE PUSH1 0x20 ADD SWAP1 DUP2 MSTORE PUSH1 0x20 ADD PUSH0 KECCAK256 SWAP1 POP PUSH0 DUP2 PUSH1 0x4 ADD SLOAD TIMESTAMP PUSH2 0x511 SWAP2 SWAP1 PUSH2 0x104C JUMP JUMPDEST SWAP1 POP PUSH0 DUP2 GT ISZERO PUSH2 0x5E4 JUMPI PUSH0 PUSH2 0xE10 PUSH2 0x538 DUP5 PUSH1 0x3 ADD PUSH0 SWAP1 SLOAD SWAP1 PUSH2 0x100 EXP SWAP1 DIV PUSH1 0xFF AND PUSH2 0x704 JUMP JUMPDEST PUSH1 0x40 ADD MLOAD DUP4 PUSH2 0x547 SWAP2 SWAP1 PUSH2 0x10C6 JUMP JUMPDEST PUSH2 0x551 SWAP2 SWAP1 PUSH2 0x1134 JUMP JUMPDEST SWAP1 POP DUP1 DUP4 PUSH1 0x1 ADD PUSH0 DUP3 DUP3 SLOAD PUSH2 0x566 SWAP2 SWAP1 PUSH2 0x1164 JUMP JUMPDEST SWAP3 POP POP DUP2 SWAP1 SSTORE POP PUSH0 PUSH2 0x587 DUP5 PUSH1 0x3 ADD PUSH0 SWAP1 SLOAD SWAP1 PUSH2 0x100 EXP SWAP1 DIV PUSH1 0xFF AND PUSH2 0x704 JUMP JUMPDEST PUSH1 0x20 ADD MLOAD SWAP1 POP DUP1 DUP5 PUSH1 0x1 ADD SLOAD GT ISZERO PUSH2 0x5A3 JUMPI DUP1 DUP5 PUSH1 0x1 ADD DUP2 SWAP1 SSTORE POP JUMPDEST PUSH0 PUSH3 0x15180 DUP5 PUSH2 0x5B3 SWAP2 SWAP1 PUSH2 0x1134 JUMP JUMPDEST SWAP1 POP PUSH0 DUP2 GT ISZERO PUSH2 0x5D7 JUMPI DUP1 DUP6 PUSH0 ADD PUSH0 DUP3 DUP3 SLOAD PUSH2 0x5CF SWAP2 SWAP1 PUSH2 0x1164 JUMP JUMPDEST SWAP3 POP POP DUP2 SWAP1 SSTORE POP JUMPDEST TIMESTAMP DUP6 PUSH1 0x4 ADD DUP2 SWAP1 SSTORE POP POP POP POP JUMPDEST POP POP POP JUMP JUMPDEST PUSH0 PUSH1 0x20 MSTORE DUP1 PUSH0 MSTORE PUSH1 0x40 PUSH0 KECCAK256 PUSH0 SWAP2 POP SWAP1 POP DUP1 PUSH0 ADD SLOAD SWAP1 DUP1 PUSH1 0x1 ADD SLOAD SWAP1 DUP1 PUSH1 0x2 ADD SLOAD SWAP1 DUP1 PUSH1 0x3 ADD PUSH0 SWAP1 SLOAD SWAP1 PUSH2 0x100 EXP SWAP1 DIV PUSH1 0xFF AND SWAP1 DUP1 PUSH1 0x4 ADD SLOAD SWAP1 POP DUP6 JUMP JUMPDEST PUSH2 0x62E PUSH2 0xC49 JUMP JUMPDEST PUSH0 PUSH0 PUSH0 DUP5 DUP2 MSTORE PUSH1 0x20 ADD SWAP1 DUP2 MSTORE PUSH1 0x20 ADD PUSH0 KECCAK256 SWAP1 POP PUSH2 0x65A DUP2 PUSH1 0x3 ADD PUSH0 SWAP1 SLOAD SWAP1 PUSH2 0x100 EXP SWAP1 DIV PUSH1 0xFF AND PUSH2 0x704 JUMP JUMPDEST SWAP2 POP PUSH1 0x3 PUSH0 DUP5 DUP2 MSTORE PUSH1 0x20 ADD SWAP1 DUP2 MSTORE PUSH1 0x20 ADD PUSH0 KECCAK256 PUSH0 SWAP1 SLOAD SWAP1 PUSH2 0x100 EXP SWAP1 DIV PUSH1 0xFF AND PUSH2 0x6FF JUMPI PUSH0 PUSH2 0x698 DUP3 PUSH1 0x3 ADD PUSH0 SWAP1 SLOAD SWAP1 PUSH2 0x100 EXP SWAP1 DIV PUSH1 0xFF AND PUSH2 0x704 JUMP JUMPDEST PUSH1 0x60 ADD MLOAD SWAP1 POP PUSH0 PUSH1 0x64 TIMESTAMP DUP7 PUSH1 0x40 MLOAD PUSH1 0x20 ADD PUSH2 0x6B4 SWAP3 SWAP2 SWAP1 PUSH2 0x11B7 JUMP JUMPDEST PUSH1 0x40 MLOAD PUSH1 0x20 DUP2 DUP4 SUB SUB DUP2 MSTORE SWAP1 PUSH1 0x40 MSTORE DUP1 MLOAD SWAP1 PUSH1 0x20 ADD KECCAK256 PUSH0 SHR PUSH2 0x6D6 SWAP2 SWAP1 PUSH2 0x11E2 JUMP JUMPDEST SWAP1 POP DUP2 DUP2 LT ISZERO PUSH2 0x6FC JUMPI PUSH1 0x19 DUP4 PUSH1 0x2 ADD PUSH0 DUP3 DUP3 SLOAD PUSH2 0x6F4 SWAP2 SWAP1 PUSH2 0x104C JUMP JUMPDEST SWAP3 POP POP DUP2 SWAP1 SSTORE POP JUMPDEST POP POP JUMPDEST POP POP POP JUMP JUMPDEST PUSH2 0x70C PUSH2 0xC49 JUMP JUMPDEST PUSH0 PUSH1 0xA DUP2 GT ISZERO PUSH2 0x71F JUMPI PUSH2 0x71E PUSH2 0xDFD JUMP JUMPDEST JUMPDEST DUP3 PUSH1 0xA DUP2 GT ISZERO PUSH2 0x732 JUMPI PUSH2 0x731 PUSH2 0xDFD JUMP JUMPDEST JUMPDEST SUB PUSH2 0x781 JUMPI PUSH1 0x40 MLOAD DUP1 PUSH1 0xA0 ADD PUSH1 0x40 MSTORE DUP1 PUSH1 0xC8 DUP2 MSTORE PUSH1 0x20 ADD PUSH1 0x96 DUP2 MSTORE PUSH1 0x20 ADD PUSH1 0x3 DUP2 MSTORE PUSH1 0x20 ADD PUSH1 0x1 DUP2 MSTORE PUSH1 0x20 ADD PUSH1 0x40 MLOAD DUP1 PUSH1 0x80 ADD PUSH1 0x40 MSTORE DUP1 PUSH1 0x5D DUP2 MSTORE PUSH1 0x20 ADD PUSH2 0x127B PUSH1 0x5D SWAP2 CODECOPY DUP2 MSTORE POP SWAP1 POP PUSH2 0xC08 JUMP JUMPDEST PUSH1 0x1 PUSH1 0xA DUP2 GT ISZERO PUSH2 0x795 JUMPI PUSH2 0x794 PUSH2 0xDFD JUMP JUMPDEST JUMPDEST DUP3 PUSH1 0xA DUP2 GT ISZERO PUSH2 0x7A8 JUMPI PUSH2 0x7A7 PUSH2 0xDFD JUMP JUMPDEST JUMPDEST SUB PUSH2 0x7F7 JUMPI PUSH1 0x40 MLOAD DUP1 PUSH1 0xA0 ADD PUSH1 0x40 MSTORE DUP1 PUSH1 0xDC DUP2 MSTORE PUSH1 0x20 ADD PUSH1 0xC8 DUP2 MSTORE PUSH1 0x20 ADD PUSH1 0x2 DUP2 MSTORE PUSH1 0x20 ADD PUSH1 0x5 DUP2 MSTORE PUSH1 0x20 ADD PUSH1 0x40 MLOAD DUP1 PUSH1 0x80 ADD PUSH1 0x40 MSTORE DUP1 PUSH1 0x5D DUP2 MSTORE PUSH1 0x20 ADD PUSH2 0x1335 PUSH1 0x5D SWAP2 CODECOPY DUP2 MSTORE POP SWAP1 POP PUSH2 0xC08 JUMP JUMPDEST PUSH1 0x2 PUSH1 0xA DUP2 GT ISZERO PUSH2 0x80B JUMPI PUSH2 0x80A PUSH2 0xDFD JUMP JUMPDEST JUMPDEST DUP3 PUSH1 0xA DUP2 GT ISZERO PUSH2 0x81E JUMPI PUSH2 0x81D PUSH2 0xDFD JUMP JUMPDEST JUMPDEST SUB PUSH2 0x86D JUMPI PUSH1 0x40 MLOAD DUP1 PUSH1 0xA0 ADD PUSH1 0x40 MSTORE DUP1 PUSH1 0x50 DUP2 MSTORE PUSH1 0x20 ADD PUSH1 0x50 DUP2 MSTORE PUSH1 0x20 ADD PUSH1 0x3 DUP2 MSTORE PUSH1 0x20 ADD PUSH1 0x6 DUP2 MSTORE PUSH1 0x20 ADD PUSH1 0x40 MLOAD DUP1 PUSH1 0x80 ADD PUSH1 0x40 MSTORE DUP1 PUSH1 0x5D DUP2 MSTORE PUSH1 0x20 ADD PUSH2 0x12D8 PUSH1 0x5D SWAP2 CODECOPY DUP2 MSTORE POP SWAP1 POP PUSH2 0xC08 JUMP JUMPDEST PUSH1 0x3 PUSH1 0xA DUP2 GT ISZERO PUSH2 0x881 JUMPI PUSH2 0x880 PUSH2 0xDFD JUMP JUMPDEST JUMPDEST DUP3 PUSH1 0xA DUP2 GT ISZERO PUSH2 0x894 JUMPI PUSH2 0x893 PUSH2 0xDFD JUMP JUMPDEST JUMPDEST SUB PUSH2 0x8DA JUMPI PUSH1 0x40 MLOAD DUP1 PUSH1 0xA0 ADD PUSH1 0x40 MSTORE DUP1 PUSH2 0x12C DUP2 MSTORE PUSH1 0x20 ADD PUSH2 0x12C DUP2 MSTORE PUSH1 0x20 ADD PUSH1 0x1 DUP2 MSTORE PUSH1 0x20 ADD PUSH0 DUP2 MSTORE PUSH1 0x20 ADD PUSH1 0x40 MLOAD DUP1 PUSH1 0x20 ADD PUSH1 0x40 MSTORE DUP1 PUSH0 DUP2 MSTORE POP DUP2 MSTORE POP SWAP1 POP PUSH2 0xC08 JUMP JUMPDEST PUSH1 0x4 PUSH1 0xA DUP2 GT ISZERO PUSH2 0x8EE JUMPI PUSH2 0x8ED PUSH2 0xDFD JUMP JUMPDEST JUMPDEST DUP3 PUSH1 0xA DUP2 GT ISZERO PUSH2 0x901 JUMPI PUSH2 0x900 PUSH2 0xDFD JUMP JUMPDEST JUMPDEST SUB PUSH2 0x946 JUMPI PUSH1 0x40 MLOAD DUP1 PUSH1 0xA0 ADD PUSH1 0x40 MSTORE DUP1 PUSH1 0xB4 DUP2 MSTORE PUSH1 0x20 ADD PUSH1 0x5A DUP2 MSTORE PUSH1 0x20 ADD PUSH1 0x2 DUP2 MSTORE PUSH1 0x20 ADD PUSH1 0x4 DUP2 MSTORE PUSH1 0x20 ADD PUSH1 0x40 MLOAD DUP1 PUSH1 0x20 ADD PUSH1 0x40 MSTORE DUP1 PUSH0 DUP2 MSTORE POP DUP2 MSTORE POP SWAP1 POP PUSH2 0xC08 JUMP JUMPDEST PUSH1 0x5 PUSH1 0xA DUP2 GT ISZERO PUSH2 0x95A JUMPI PUSH2 0x959 PUSH2 0xDFD JUMP JUMPDEST JUMPDEST DUP3 PUSH1 0xA DUP2 GT ISZERO PUSH2 0x96D JUMPI PUSH2 0x96C PUSH2 0xDFD JUMP JUMPDEST JUMPDEST SUB PUSH2 0x9B2 JUMPI PUSH1 0x40 MLOAD DUP1 PUSH1 0xA0 ADD PUSH1 0x40 MSTORE DUP1 PUSH1 0x50 DUP2 MSTORE PUSH1 0x20 ADD PUSH1 0x46 DUP2 MSTORE PUSH1 0x20 ADD PUSH1 0x2 DUP2 MSTORE PUSH1 0x20 ADD PUSH1 0x8 DUP2 MSTORE PUSH1 0x20 ADD PUSH1 0x40 MLOAD DUP1 PUSH1 0x20 ADD PUSH1 0x40 MSTORE DUP1 PUSH0 DUP2 MSTORE POP DUP2 MSTORE POP SWAP1 POP PUSH2 0xC08 JUMP JUMPDEST PUSH1 0x6 PUSH1 0xA DUP2 GT ISZERO PUSH2 0x9C6 JUMPI PUSH2 0x9C5 PUSH2 0xDFD JUMP JUMPDEST JUMPDEST DUP3 PUSH1 0xA DUP2 GT ISZERO PUSH2 0x9D9 JUMPI PUSH2 0x9D8 PUSH2 0xDFD JUMP JUMPDEST JUMPDEST SUB PUSH2 0xA1E JUMPI PUSH1 0x40 MLOAD DUP1 PUSH1 0xA0 ADD PUSH1 0x40 MSTORE DUP1 PUSH1 0x32 DUP2 MSTORE PUSH1 0x20 ADD PUSH1 0x3C DUP2 MSTORE PUSH1 0x20 ADD PUSH1 0x4 DUP2 MSTORE PUSH1 0x20 ADD PUSH1 0x5 DUP2 MSTORE PUSH1 0x20 ADD PUSH1 0x40 MLOAD DUP1 PUSH1 0x20 ADD PUSH1 0x40 MSTORE DUP1 PUSH0 DUP2 MSTORE POP DUP2 MSTORE POP SWAP1 POP PUSH2 0xC08 JUMP JUMPDEST PUSH1 0x7 PUSH1 0xA DUP2 GT ISZERO PUSH2 0xA32 JUMPI PUSH2 0xA31 PUSH2 0xDFD JUMP JUMPDEST JUMPDEST DUP3 PUSH1 0xA DUP2 GT ISZERO PUSH2 0xA45 JUMPI PUSH2 0xA44 PUSH2 0xDFD JUMP JUMPDEST JUMPDEST SUB PUSH2 0xA8A JUMPI PUSH1 0x40 MLOAD DUP1 PUSH1 0xA0 ADD PUSH1 0x40 MSTORE DUP1 PUSH1 0x37 DUP2 MSTORE PUSH1 0x20 ADD PUSH1 0x28 DUP2 MSTORE PUSH1 0x20 ADD PUSH1 0x3 DUP2 MSTORE PUSH1 0x20 ADD PUSH1 0x4 DUP2 MSTORE PUSH1 0x20 ADD PUSH1 0x40 MLOAD DUP1 PUSH1 0x20 ADD PUSH1 0x40 MSTORE DUP1 PUSH0 DUP2 MSTORE POP DUP2 MSTORE POP SWAP1 POP PUSH2 0xC08 JUMP JUMPDEST PUSH1 0x8 PUSH1 0xA DUP2 GT ISZERO PUSH2 0xA9E JUMPI PUSH2 0xA9D PUSH2 0xDFD JUMP JUMPDEST JUMPDEST DUP3 PUSH1 0xA DUP2 GT ISZERO PUSH2 0xAB1 JUMPI PUSH2 0xAB0 PUSH2 0xDFD JUMP JUMPDEST JUMPDEST SUB PUSH2 0xAF6 JUMPI PUSH1 0x40 MLOAD DUP1 PUSH1 0xA0 ADD PUSH1 0x40 MSTORE DUP1 PUSH1 0x4E DUP2 MSTORE PUSH1 0x20 ADD PUSH1 0x41 DUP2 MSTORE PUSH1 0x20 ADD PUSH1 0x2 DUP2 MSTORE PUSH1 0x20 ADD PUSH1 0x4 DUP2 MSTORE PUSH1 0x20 ADD PUSH1 0x40 MLOAD DUP1 PUSH1 0x20 ADD PUSH1 0x40 MSTORE DUP1 PUSH0 DUP2 MSTORE POP DUP2 MSTORE POP SWAP1 POP PUSH2 0xC08 JUMP JUMPDEST PUSH1 0x9 PUSH1 0xA DUP2 GT ISZERO PUSH2 0xB0A JUMPI PUSH2 0xB09 PUSH2 0xDFD JUMP JUMPDEST JUMPDEST DUP3 PUSH1 0xA DUP2 GT ISZERO PUSH2 0xB1D JUMPI PUSH2 0xB1C PUSH2 0xDFD JUMP JUMPDEST JUMPDEST SUB PUSH2 0xB62 JUMPI PUSH1 0x40 MLOAD DUP1 PUSH1 0xA0 ADD PUSH1 0x40 MSTORE DUP1 PUSH1 0x96 DUP2 MSTORE PUSH1 0x20 ADD PUSH1 0x64 DUP2 MSTORE PUSH1 0x20 ADD PUSH1 0x4 DUP2 MSTORE PUSH1 0x20 ADD PUSH1 0x3 DUP2 MSTORE PUSH1 0x20 ADD PUSH1 0x40 MLOAD DUP1 PUSH1 0x20 ADD PUSH1 0x40 MSTORE DUP1 PUSH0 DUP2 MSTORE POP DUP2 MSTORE POP SWAP1 POP PUSH2 0xC08 JUMP JUMPDEST PUSH1 0xA DUP1 DUP2 GT ISZERO PUSH2 0xB75 JUMPI PUSH2 0xB74 PUSH2 0xDFD JUMP JUMPDEST JUMPDEST DUP3 PUSH1 0xA DUP2 GT ISZERO PUSH2 0xB88 JUMPI PUSH2 0xB87 PUSH2 0xDFD JUMP JUMPDEST JUMPDEST SUB PUSH2 0xBCD JUMPI PUSH1 0x40 MLOAD DUP1 PUSH1 0xA0 ADD PUSH1 0x40 MSTORE DUP1 PUSH1 0x23 DUP2 MSTORE PUSH1 0x20 ADD PUSH1 0x42 DUP2 MSTORE PUSH1 0x20 ADD PUSH1 0x4 DUP2 MSTORE PUSH1 0x20 ADD PUSH1 0x5 DUP2 MSTORE PUSH1 0x20 ADD PUSH1 0x40 MLOAD DUP1 PUSH1 0x20 ADD PUSH1 0x40 MSTORE DUP1 PUSH0 DUP2 MSTORE POP DUP2 MSTORE POP SWAP1 POP PUSH2 0xC08 JUMP JUMPDEST PUSH1 0x40 MLOAD PUSH32 0x8C379A000000000000000000000000000000000000000000000000000000000 DUP2 MSTORE PUSH1 0x4 ADD PUSH2 0xBFF SWAP1 PUSH2 0x125C JUMP JUMPDEST PUSH1 0x40 MLOAD DUP1 SWAP2 SUB SWAP1 REVERT JUMPDEST SWAP2 SWAP1 POP JUMP JUMPDEST PUSH1 0x40 MLOAD DUP1 PUSH1 0xA0 ADD PUSH1 0x40 MSTORE DUP1 PUSH0 DUP2 MSTORE PUSH1 0x20 ADD PUSH0 DUP2 MSTORE PUSH1 0x20 ADD PUSH0 DUP2 MSTORE PUSH1 0x20 ADD PUSH0 PUSH1 0xA DUP2 GT ISZERO PUSH2 0xC3D JUMPI PUSH2 0xC3C PUSH2 0xDFD JUMP JUMPDEST JUMPDEST DUP2 MSTORE PUSH1 0x20 ADD PUSH0 DUP2 MSTORE POP SWAP1 JUMP JUMPDEST PUSH1 0x40 MLOAD DUP1 PUSH1 0xA0 ADD PUSH1 0x40 MSTORE DUP1 PUSH0 DUP2 MSTORE PUSH1 0x20 ADD PUSH0 DUP2 MSTORE PUSH1 0x20 ADD PUSH0 DUP2 MSTORE PUSH1 0x20 ADD PUSH0 DUP2 MSTORE PUSH1 0x20 ADD PUSH1 0x60 DUP2 MSTORE POP SWAP1 JUMP JUMPDEST PUSH0 PUSH0 REVERT JUMPDEST PUSH0 DUP2 SWAP1 POP SWAP2 SWAP1 POP JUMP JUMPDEST PUSH2 0xC8A DUP2 PUSH2 0xC78 JUMP JUMPDEST DUP2 EQ PUSH2 0xC94 JUMPI PUSH0 PUSH0 REVERT JUMPDEST POP JUMP JUMPDEST PUSH0 DUP2 CALLDATALOAD SWAP1 POP PUSH2 0xCA5 DUP2 PUSH2 0xC81 JUMP JUMPDEST SWAP3 SWAP2 POP POP JUMP JUMPDEST PUSH0 PUSH1 0x20 DUP3 DUP5 SUB SLT ISZERO PUSH2 0xCC0 JUMPI PUSH2 0xCBF PUSH2 0xC74 JUMP JUMPDEST JUMPDEST PUSH0 PUSH2 0xCCD DUP5 DUP3 DUP6 ADD PUSH2 0xC97 JUMP JUMPDEST SWAP2 POP POP SWAP3 SWAP2 POP POP JUMP JUMPDEST PUSH0 DUP2 ISZERO ISZERO SWAP1 POP SWAP2 SWAP1 POP JUMP JUMPDEST PUSH2 0xCEA DUP2 PUSH2 0xCD6 JUMP JUMPDEST DUP3 MSTORE POP POP JUMP JUMPDEST PUSH0 PUSH1 0x20 DUP3 ADD SWAP1 POP PUSH2 0xD03 PUSH0 DUP4 ADD DUP5 PUSH2 0xCE1 JUMP JUMPDEST SWAP3 SWAP2 POP POP JUMP JUMPDEST PUSH0 PUSH0 PUSH1 0x40 DUP4 DUP6 SUB SLT ISZERO PUSH2 0xD1F JUMPI PUSH2 0xD1E PUSH2 0xC74 JUMP JUMPDEST JUMPDEST PUSH0 PUSH2 0xD2C DUP6 DUP3 DUP7 ADD PUSH2 0xC97 JUMP JUMPDEST SWAP3 POP POP PUSH1 0x20 PUSH2 0xD3D DUP6 DUP3 DUP7 ADD PUSH2 0xC97 JUMP JUMPDEST SWAP2 POP POP SWAP3 POP SWAP3 SWAP1 POP JUMP JUMPDEST PUSH1 0xB DUP2 LT PUSH2 0xD53 JUMPI PUSH0 PUSH0 REVERT JUMPDEST POP JUMP JUMPDEST PUSH0 DUP2 CALLDATALOAD SWAP1 POP PUSH2 0xD64 DUP2 PUSH2 0xD47 JUMP JUMPDEST SWAP3 SWAP2 POP POP JUMP JUMPDEST PUSH0 PUSH1 0x20 DUP3 DUP5 SUB SLT ISZERO PUSH2 0xD7F JUMPI PUSH2 0xD7E PUSH2 0xC74 JUMP JUMPDEST JUMPDEST PUSH0 PUSH2 0xD8C DUP5 DUP3 DUP6 ADD PUSH2 0xD56 JUMP JUMPDEST SWAP2 POP POP SWAP3 SWAP2 POP POP JUMP JUMPDEST PUSH0 DUP2 SWAP1 POP SWAP2 SWAP1 POP JUMP JUMPDEST PUSH2 0xDA7 DUP2 PUSH2 0xD95 JUMP JUMPDEST DUP3 MSTORE POP POP JUMP JUMPDEST PUSH0 PUSH1 0x20 DUP3 ADD SWAP1 POP PUSH2 0xDC0 PUSH0 DUP4 ADD DUP5 PUSH2 0xD9E JUMP JUMPDEST SWAP3 SWAP2 POP POP JUMP JUMPDEST PUSH2 0xDCF DUP2 PUSH2 0xC78 JUMP JUMPDEST DUP3 MSTORE POP POP JUMP JUMPDEST PUSH0 PUSH1 0x20 DUP3 ADD SWAP1 POP PUSH2 0xDE8 PUSH0 DUP4 ADD DUP5 PUSH2 0xDC6 JUMP JUMPDEST SWAP3 SWAP2 POP POP JUMP JUMPDEST PUSH2 0xDF7 DUP2 PUSH2 0xC78 JUMP JUMPDEST DUP3 MSTORE POP POP JUMP JUMPDEST PUSH32 0x4E487B7100000000000000000000000000000000000000000000000000000000 PUSH0 MSTORE PUSH1 0x21 PUSH1 0x4 MSTORE PUSH1 0x24 PUSH0 REVERT JUMPDEST PUSH1 0xB DUP2 LT PUSH2 0xE3B JUMPI PUSH2 0xE3A PUSH2 0xDFD JUMP JUMPDEST JUMPDEST POP JUMP JUMPDEST PUSH0 DUP2 SWAP1 POP PUSH2 0xE4B DUP3 PUSH2 0xE2A JUMP JUMPDEST SWAP2 SWAP1 POP JUMP JUMPDEST PUSH0 PUSH2 0xE5A DUP3 PUSH2 0xE3E JUMP JUMPDEST SWAP1 POP SWAP2 SWAP1 POP JUMP JUMPDEST PUSH2 0xE6A DUP2 PUSH2 0xE50 JUMP JUMPDEST DUP3 MSTORE POP POP JUMP JUMPDEST PUSH1 0xA0 DUP3 ADD PUSH0 DUP3 ADD MLOAD PUSH2 0xE84 PUSH0 DUP6 ADD DUP3 PUSH2 0xDEE JUMP JUMPDEST POP PUSH1 0x20 DUP3 ADD MLOAD PUSH2 0xE97 PUSH1 0x20 DUP6 ADD DUP3 PUSH2 0xDEE JUMP JUMPDEST POP PUSH1 0x40 DUP3 ADD MLOAD PUSH2 0xEAA PUSH1 0x40 DUP6 ADD DUP3 PUSH2 0xDEE JUMP JUMPDEST POP PUSH1 0x60 DUP3 ADD MLOAD PUSH2 0xEBD PUSH1 0x60 DUP6 ADD DUP3 PUSH2 0xE61 JUMP JUMPDEST POP PUSH1 0x80 DUP3 ADD MLOAD PUSH2 0xED0 PUSH1 0x80 DUP6 ADD DUP3 PUSH2 0xDEE JUMP JUMPDEST POP POP POP POP JUMP JUMPDEST PUSH0 PUSH1 0xA0 DUP3 ADD SWAP1 POP PUSH2 0xEE9 PUSH0 DUP4 ADD DUP5 PUSH2 0xE70 JUMP JUMPDEST SWAP3 SWAP2 POP POP JUMP JUMPDEST PUSH0 PUSH20 0xFFFFFFFFFFFFFFFFFFFFFFFFFFFFFFFFFFFFFFFF DUP3 AND SWAP1 POP SWAP2 SWAP1 POP JUMP JUMPDEST PUSH0 PUSH2 0xF18 DUP3 PUSH2 0xEEF JUMP JUMPDEST SWAP1 POP SWAP2 SWAP1 POP JUMP JUMPDEST PUSH2 0xF28 DUP2 PUSH2 0xF0E JUMP JUMPDEST DUP3 MSTORE POP POP JUMP JUMPDEST PUSH0 PUSH1 0x20 DUP3 ADD SWAP1 POP PUSH2 0xF41 PUSH0 DUP4 ADD DUP5 PUSH2 0xF1F JUMP JUMPDEST SWAP3 SWAP2 POP POP JUMP JUMPDEST PUSH2 0xF50 DUP2 PUSH2 0xE50 JUMP JUMPDEST DUP3 MSTORE POP POP JUMP JUMPDEST PUSH0 PUSH1 0xA0 DUP3 ADD SWAP1 POP PUSH2 0xF69 PUSH0 DUP4 ADD DUP9 PUSH2 0xDC6 JUMP JUMPDEST PUSH2 0xF76 PUSH1 0x20 DUP4 ADD DUP8 PUSH2 0xDC6 JUMP JUMPDEST PUSH2 0xF83 PUSH1 0x40 DUP4 ADD DUP7 PUSH2 0xDC6 JUMP JUMPDEST PUSH2 0xF90 PUSH1 0x60 DUP4 ADD DUP6 PUSH2 0xF47 JUMP JUMPDEST PUSH2 0xF9D PUSH1 0x80 DUP4 ADD DUP5 PUSH2 0xDC6 JUMP JUMPDEST SWAP7 SWAP6 POP POP POP POP POP POP JUMP JUMPDEST PUSH0 DUP3 DUP3 MSTORE PUSH1 0x20 DUP3 ADD SWAP1 POP SWAP3 SWAP2 POP POP JUMP JUMPDEST PUSH32 0x4F6E6C79205061726B2063616E2063616C6C2074686973000000000000000000 PUSH0 DUP3 ADD MSTORE POP JUMP JUMPDEST PUSH0 PUSH2 0xFEB PUSH1 0x17 DUP4 PUSH2 0xFA7 JUMP JUMPDEST SWAP2 POP PUSH2 0xFF6 DUP3 PUSH2 0xFB7 JUMP JUMPDEST PUSH1 0x20 DUP3 ADD SWAP1 POP SWAP2 SWAP1 POP JUMP JUMPDEST PUSH0 PUSH1 0x20 DUP3 ADD SWAP1 POP DUP2 DUP2 SUB PUSH0 DUP4 ADD MSTORE PUSH2 0x1018 DUP2 PUSH2 0xFDF JUMP JUMPDEST SWAP1 POP SWAP2 SWAP1 POP JUMP JUMPDEST PUSH32 0x4E487B7100000000000000000000000000000000000000000000000000000000 PUSH0 MSTORE PUSH1 0x11 PUSH1 0x4 MSTORE PUSH1 0x24 PUSH0 REVERT JUMPDEST PUSH0 PUSH2 0x1056 DUP3 PUSH2 0xC78 JUMP JUMPDEST SWAP2 POP PUSH2 0x1061 DUP4 PUSH2 0xC78 JUMP JUMPDEST SWAP3 POP DUP3 DUP3 SUB SWAP1 POP DUP2 DUP2 GT ISZERO PUSH2 0x1079 JUMPI PUSH2 0x1078 PUSH2 0x101F JUMP JUMPDEST JUMPDEST SWAP3 SWAP2 POP POP JUMP JUMPDEST PUSH0 PUSH2 0x1089 DUP3 PUSH2 0xC78 JUMP JUMPDEST SWAP2 POP PUSH32 0xFFFFFFFFFFFFFFFFFFFFFFFFFFFFFFFFFFFFFFFFFFFFFFFFFFFFFFFFFFFFFFFF DUP3 SUB PUSH2 0x10BB JUMPI PUSH2 0x10BA PUSH2 0x101F JUMP JUMPDEST JUMPDEST PUSH1 0x1 DUP3 ADD SWAP1 POP SWAP2 SWAP1 POP JUMP JUMPDEST PUSH0 PUSH2 0x10D0 DUP3 PUSH2 0xC78 JUMP JUMPDEST SWAP2 POP PUSH2 0x10DB DUP4 PUSH2 0xC78 JUMP JUMPDEST SWAP3 POP DUP3 DUP3 MUL PUSH2 0x10E9 DUP2 PUSH2 0xC78 JUMP JUMPDEST SWAP2 POP DUP3 DUP3 DIV DUP5 EQ DUP4 ISZERO OR PUSH2 0x1100 JUMPI PUSH2 0x10FF PUSH2 0x101F JUMP JUMPDEST JUMPDEST POP SWAP3 SWAP2 POP POP JUMP JUMPDEST PUSH32 0x4E487B7100000000000000000000000000000000000000000000000000000000 PUSH0 MSTORE PUSH1 0x12 PUSH1 0x4 MSTORE PUSH1 0x24 PUSH0 REVERT JUMPDEST PUSH0 PUSH2 0x113E DUP3 PUSH2 0xC78 JUMP JUMPDEST SWAP2 POP PUSH2 0x1149 DUP4 PUSH2 0xC78 JUMP JUMPDEST SWAP3 POP DUP3 PUSH2 0x1159 JUMPI PUSH2 0x1158 PUSH2 0x1107 JUMP JUMPDEST JUMPDEST DUP3 DUP3 DIV SWAP1 POP SWAP3 SWAP2 POP POP JUMP JUMPDEST PUSH0 PUSH2 0x116E DUP3 PUSH2 0xC78 JUMP JUMPDEST SWAP2 POP PUSH2 0x1179 DUP4 PUSH2 0xC78 JUMP JUMPDEST SWAP3 POP DUP3 DUP3 ADD SWAP1 POP DUP1 DUP3 GT ISZERO PUSH2 0x1191 JUMPI PUSH2 0x1190 PUSH2 0x101F JUMP JUMPDEST JUMPDEST SWAP3 SWAP2 POP POP JUMP JUMPDEST PUSH0 DUP2 SWAP1 POP SWAP2 SWAP1 POP JUMP JUMPDEST PUSH2 0x11B1 PUSH2 0x11AC DUP3 PUSH2 0xC78 JUMP JUMPDEST PUSH2 0x1197 JUMP JUMPDEST DUP3 MSTORE POP POP JUMP JUMPDEST PUSH0 PUSH2 0x11C2 DUP3 DUP6 PUSH2 0x11A0 JUMP JUMPDEST PUSH1 0x20 DUP3 ADD SWAP2 POP PUSH2 0x11D2 DUP3 DUP5 PUSH2 0x11A0 JUMP JUMPDEST PUSH1 0x20 DUP3 ADD SWAP2 POP DUP2 SWAP1 POP SWAP4 SWAP3 POP POP POP JUMP JUMPDEST PUSH0 PUSH2 0x11EC DUP3 PUSH2 0xC78 JUMP JUMPDEST SWAP2 POP PUSH2 0x11F7 DUP4 PUSH2 0xC78 JUMP JUMPDEST SWAP3 POP DUP3 PUSH2 0x1207 JUMPI PUSH2 0x1206 PUSH2 0x1107 JUMP JUMPDEST JUMPDEST DUP3 DUP3 MOD SWAP1 POP SWAP3 SWAP2 POP POP JUMP JUMPDEST PUSH32 0x556E6B6E6F776E20737065636965730000000000000000000000000000000000 PUSH0 DUP3 ADD MSTORE POP JUMP JUMPDEST PUSH0 PUSH2 0x1246 PUSH1 0xF DUP4 PUSH2 0xFA7 JUMP JUMPDEST SWAP2 POP PUSH2 0x1251 DUP3 PUSH2 0x1212 JUMP JUMPDEST PUSH1 0x20 DUP3 ADD SWAP1 POP SWAP2 SWAP1 POP JUMP JUMPDEST PUSH0 PUSH1 0x20 DUP3 ADD SWAP1 POP DUP2 DUP2 SUB PUSH0 DUP4 ADD MSTORE PUSH2 0x1273 DUP2 PUSH2 0x123A JUMP JUMPDEST SWAP1 POP SWAP2 SWAP1 POP JUMP INVALID PUSH9 0x747470733A2F2F6761 PUSH21 0x657761792E70696E6174612E636C6F75642F697066 PUSH20 0x2F6261667962656961336C65346173746B6E6832 PUSH17 0x346D626B64357734326A353232746E7365 CALLVALUE PUSH24 0x786B3777356D3777696D6F716470366F757A707968747470 PUSH20 0x3A2F2F676174657761792E70696E6174612E636C PUSH16 0x75642F697066732F6261667962656965 PUSH23 0x377075637A377968377836686169646D7068703569656F PUSH3 0x766366 PUSH5 0x636C6E6C77 PUSH11 0x7161326976733479333537 PUSH17 0x76776D6168747470733A2F2F6761746577 PUSH2 0x792E PUSH17 0x696E6174612E636C6F75642F697066732F PUSH3 0x616679 PUSH3 0x656967 PUSH16 0x686F746F6B366B336F6E76746A797970 PUSH7 0x6E626E7A626373 PUSH16 0x327163697862777A3477683634767032 PUSH15 0x336C71376E6B7361A2646970667358 0x22 SLT KECCAK256 PUSH25 0x4E163E6641F18A2EC75E03D6DD242DB0404712511AD6F88D79 DUP1 LOG2 INVALID 0xAF BALANCE CHAINID PUSH5 0x736F6C6343 STOP ADDMOD 0x1E STOP CALLER "
		},
		"gasEstimates": {
			"creation": {
				"codeDepositCost": "1012600",
				"executionCost": "infinite",
				"totalCost": "infinite"
			},
			"external": {
				"birds(uint256)": "infinite",
				"feedBird(uint256,uint256)": "infinite",
				"getBird(uint256)": "infinite",
				"insured(uint256)": "2786",
				"mintBird(uint8)": "109188",
				"nextId()": "2492",
				"parkContract()": "2530",
				"updateHungerAndAge(uint256)": "infinite"
			},
			"internal": {
				"randomPoisoning(uint256)": "infinite"
			}
		},
		"methodIdentifiers": {
			"birds(uint256)": "ec1c5955",
			"feedBird(uint256,uint256)": "1942d199",
			"getBird(uint256)": "6ec88bbd",
			"insured(uint256)": "16cb4a05",
			"mintBird(uint8)": "4d2d7881",
			"nextId()": "61b8ce8c",
			"parkContract()": "72680a77",
			"updateHungerAndAge(uint256)": "a2b7ce6f"
		}
	},
	"abi": [
		{
			"inputs": [
				{
					"internalType": "address",
					"name": "_parkContract",
					"type": "address"
				}
			],
			"stateMutability": "nonpayable",
			"type": "constructor"
		},
		{
			"inputs": [
				{
					"internalType": "uint256",
					"name": "",
					"type": "uint256"
				}
			],
			"name": "birds",
			"outputs": [
				{
					"internalType": "uint256",
					"name": "age",
					"type": "uint256"
				},
				{
					"internalType": "uint256",
					"name": "hunger",
					"type": "uint256"
				},
				{
					"internalType": "uint256",
					"name": "health",
					"type": "uint256"
				},
				{
					"internalType": "enum SpeciesLibrary.Species",
					"name": "species",
					"type": "uint8"
				},
				{
					"internalType": "uint256",
					"name": "lastUpdateTime",
					"type": "uint256"
				}
			],
			"stateMutability": "view",
			"type": "function"
		},
		{
			"inputs": [
				{
					"internalType": "uint256",
					"name": "id",
					"type": "uint256"
				},
				{
					"internalType": "uint256",
					"name": "foodAmount",
					"type": "uint256"
				}
			],
			"name": "feedBird",
			"outputs": [],
			"stateMutability": "nonpayable",
			"type": "function"
		},
		{
			"inputs": [
				{
					"internalType": "uint256",
					"name": "id",
					"type": "uint256"
				}
			],
			"name": "getBird",
			"outputs": [
				{
					"components": [
						{
							"internalType": "uint256",
							"name": "age",
							"type": "uint256"
						},
						{
							"internalType": "uint256",
							"name": "hunger",
							"type": "uint256"
						},
						{
							"internalType": "uint256",
							"name": "health",
							"type": "uint256"
						},
						{
							"internalType": "enum SpeciesLibrary.Species",
							"name": "species",
							"type": "uint8"
						},
						{
							"internalType": "uint256",
							"name": "lastUpdateTime",
							"type": "uint256"
						}
					],
					"internalType": "struct Ptak.BirdData",
					"name": "",
					"type": "tuple"
				}
			],
			"stateMutability": "nonpayable",
			"type": "function"
		},
		{
			"inputs": [
				{
					"internalType": "uint256",
					"name": "",
					"type": "uint256"
				}
			],
			"name": "insured",
			"outputs": [
				{
					"internalType": "bool",
					"name": "",
					"type": "bool"
				}
			],
			"stateMutability": "view",
			"type": "function"
		},
		{
			"inputs": [
				{
					"internalType": "enum SpeciesLibrary.Species",
					"name": "species",
					"type": "uint8"
				}
			],
			"name": "mintBird",
			"outputs": [
				{
					"internalType": "int256",
					"name": "",
					"type": "int256"
				}
			],
			"stateMutability": "nonpayable",
			"type": "function"
		},
		{
			"inputs": [],
			"name": "nextId",
			"outputs": [
				{
					"internalType": "uint256",
					"name": "",
					"type": "uint256"
				}
			],
			"stateMutability": "view",
			"type": "function"
		},
		{
			"inputs": [],
			"name": "parkContract",
			"outputs": [
				{
					"internalType": "address",
					"name": "",
					"type": "address"
				}
			],
			"stateMutability": "view",
			"type": "function"
		},
		{
			"inputs": [
				{
					"internalType": "uint256",
					"name": "id",
					"type": "uint256"
				}
			],
			"name": "updateHungerAndAge",
			"outputs": [],
			"stateMutability": "nonpayable",
			"type": "function"
		}
	]
}