{
	"data": {
		"bytecode": {
			"linkReferences": {},
			"object": "608060405234801561000f575f5ffd5b50604051612a8a380380612a8a833981810160405281019061003191906100d5565b8060025f6101000a81548173ffffffffffffffffffffffffffffffffffffffff021916908373ffffffffffffffffffffffffffffffffffffffff16021790555050610100565b5f5ffd5b5f73ffffffffffffffffffffffffffffffffffffffff82169050919050565b5f6100a48261007b565b9050919050565b6100b48161009a565b81146100be575f5ffd5b50565b5f815190506100cf816100ab565b92915050565b5f602082840312156100ea576100e9610077565b5b5f6100f7848285016100c1565b91505092915050565b61297d8061010d5f395ff3fe608060405234801561000f575f5ffd5b506004361061012a575f3560e01c80636ec88bbd116100ab578063a5d846181161006f578063a5d846181461033e578063bff998f41461036e578063ec1c59551461038a578063f06abb80146103c1578063f64ff064146103df5761012a565b80636ec88bbd1461029c57806372680a77146102cc5780638baecc21146102ea5780638c652f9514610306578063a2b7ce6f146103225761012a565b806349b1a0bf116100f257806349b1a0bf146101e65780634d2d7881146102025780634e9c7df81461023257806361b8ce8c1461024e5780636352211e1461026c5761012a565b806316cb4a051461012e5780631942d1991461015e5780631a3c40341461017a57806321c0dd5a146101985780633127522e146101c8575b5f5ffd5b61014860048036038101906101439190611b24565b61040f565b6040516101559190611b69565b60405180910390f35b61017860048036038101906101739190611b82565b61042c565b005b6101826105b9565b60405161018f9190611bcf565b60405180910390f35b6101b260048036038101906101ad9190611c0b565b610636565b6040516101bf9190611bcf565b60405180910390f35b6101d0610703565b6040516101dd9190611bcf565b60405180910390f35b61020060048036038101906101fb9190611b24565b61077f565b005b61021c60048036038101906102179190611c0b565b61083a565b6040516102299190611bcf565b60405180910390f35b61024c60048036038101906102479190611c90565b610a54565b005b610256610b26565b6040516102639190611bcf565b60405180910390f35b61028660048036038101906102819190611b24565b610b2c565b6040516102939190611cca565b60405180910390f35b6102b660048036038101906102b19190611b24565b610b5c565b6040516102c39190611e14565b60405180910390f35b6102d4610c2f565b6040516102e19190611cca565b60405180910390f35b61030460048036038101906102ff9190611b24565b610c54565b005b610320600480360381019061031b9190611e2e565b610df3565b005b61033c60048036038101906103379190611b24565b610fe1565b005b61035860048036038101906103539190611c0b565b611158565b6040516103659190611bcf565b60405180910390f35b61038860048036038101906103839190611b24565b611224565b005b6103a4600480360381019061039f9190611b24565b61138e565b6040516103b8989796959493929190611e7b565b60405180910390f35b6103c96113f5565b6040516103d69190611bcf565b60405180910390f35b6103f960048036038101906103f49190611b24565b6113fe565b6040516104069190611f67565b60405180910390f35b6003602052805f5260405f205f915054906101000a900460ff1681565b60025f9054906101000a900473ffffffffffffffffffffffffffffffffffffffff1673ffffffffffffffffffffffffffffffffffffffff163373ffffffffffffffffffffffffffffffffffffffff16146104bb576040517f08c379a00000000000000000000000000000000000000000000000000000000081526004016104b290611fd1565b60405180910390fd5b6104c482610fe1565b5f5f5f8481526020019081526020015f2090506104e083611438565b805f015f9054906101000a900460ff1661052f576040517f08c379a000000000000000000000000000000000000000000000000000000000815260040161052690612039565b60405180910390fd5b806006015f9054906101000a900460ff1615610580576040517f08c379a0000000000000000000000000000000000000000000000000000000008152600401610577906120a1565b60405180910390fd5b818160020154106105aa5781816002015f82825461059e91906120ec565b925050819055506105b4565b5f81600201819055505b505050565b5f5f5f90505b600154811015610632575f5f8281526020019081526020015f205f015f9054906101000a900460ff16801561061157505f5f8281526020019081526020015f206006015f9054906101000a900460ff16155b156106255781806106219061211f565b9250505b80806001019150506105bf565b5090565b5f5f5f90505b6001548110156106fd575f5f8281526020019081526020015f205f015f9054906101000a900460ff16801561068e57505f5f8281526020019081526020015f206006015f9054906101000a900460ff16155b80156106dc575082600a8111156106a8576106a7611d01565b5b5f5f8381526020019081526020015f206004015f9054906101000a900460ff16600a8111156106da576106d9611d01565b5b145b156106f05781806106ec9061211f565b9250505b808060010191505061063c565b50919050565b5f5f5f90505b60015481101561077b575f5f8281526020019081526020015f205f015f9054906101000a900460ff16801561075a57505f5f8281526020019081526020015f206006015f9054906101000a900460ff165b1561076e57818061076a9061211f565b9250505b8080600101915050610709565b5090565b60025f9054906101000a900473ffffffffffffffffffffffffffffffffffffffff1673ffffffffffffffffffffffffffffffffffffffff163373ffffffffffffffffffffffffffffffffffffffff161461080e576040517f08c379a000000000000000000000000000000000000000000000000000000000815260040161080590611fd1565b60405180910390fd5b600160035f8381526020019081526020015f205f6101000a81548160ff02191690831515021790555050565b5f60025f9054906101000a900473ffffffffffffffffffffffffffffffffffffffff1673ffffffffffffffffffffffffffffffffffffffff163373ffffffffffffffffffffffffffffffffffffffff16146108ca576040517f08c379a00000000000000000000000000000000000000000000000000000000081526004016108c190611fd1565b60405180910390fd5b5f6108d483611516565b90506040518061010001604052806001151581526020015f81526020015f8152602001825f0151815260200184600a81111561091357610912611d01565b5b81526020014281526020015f151581526020015f8152505f5f60015481526020019081526020015f205f820151815f015f6101000a81548160ff0219169083151502179055506020820151816001015560408201518160020155606082015181600301556080820151816004015f6101000a81548160ff0219169083600a8111156109a1576109a0611d01565b5b021790555060a0820151816005015560c0820151816006015f6101000a81548160ff02191690831515021790555060e082015181600701559050503260045f60015481526020019081526020015f205f6101000a81548173ffffffffffffffffffffffffffffffffffffffff021916908373ffffffffffffffffffffffffffffffffffffffff1602179055505f600154905060015f815480929190610a459061211f565b91905055508092505050919050565b5f73ffffffffffffffffffffffffffffffffffffffff1660025f9054906101000a900473ffffffffffffffffffffffffffffffffffffffff1673ffffffffffffffffffffffffffffffffffffffff1614610ae3576040517f08c379a0000000000000000000000000000000000000000000000000000000008152600401610ada906121b0565b60405180910390fd5b8060025f6101000a81548173ffffffffffffffffffffffffffffffffffffffff021916908373ffffffffffffffffffffffffffffffffffffffff16021790555050565b60015481565b6004602052805f5260405f205f915054906101000a900473ffffffffffffffffffffffffffffffffffffffff1681565b610b64611a6f565b610b6d82610fe1565b5f5f8381526020019081526020015f20604051806101000160405290815f82015f9054906101000a900460ff16151515158152602001600182015481526020016002820154815260200160038201548152602001600482015f9054906101000a900460ff16600a811115610be457610be3611d01565b5b600a811115610bf657610bf5611d01565b5b815260200160058201548152602001600682015f9054906101000a900460ff161515151581526020016007820154815250509050919050565b60025f9054906101000a900473ffffffffffffffffffffffffffffffffffffffff1681565b60025f9054906101000a900473ffffffffffffffffffffffffffffffffffffffff1673ffffffffffffffffffffffffffffffffffffffff163373ffffffffffffffffffffffffffffffffffffffff1614610ce3576040517f08c379a0000000000000000000000000000000000000000000000000000000008152600401610cda90611fd1565b60405180910390fd5b5f5f5f8381526020019081526020015f209050805f015f9054906101000a900460ff16610d45576040517f08c379a0000000000000000000000000000000000000000000000000000000008152600401610d3c90612039565b60405180910390fd5b806006015f9054906101000a900460ff16610d95576040517f08c379a0000000000000000000000000000000000000000000000000000000008152600401610d8c90612218565b60405180910390fd5b610dae816004015f9054906101000a900460ff16611516565b5f015181600301819055505f81600201819055505f816006015f6101000a81548160ff0219169083151502179055505f81600701819055504281600501819055505050565b60025f9054906101000a900473ffffffffffffffffffffffffffffffffffffffff1673ffffffffffffffffffffffffffffffffffffffff163373ffffffffffffffffffffffffffffffffffffffff1614610e82576040517f08c379a0000000000000000000000000000000000000000000000000000000008152600401610e7990611fd1565b60405180910390fd5b3273ffffffffffffffffffffffffffffffffffffffff1660045f8481526020019081526020015f205f9054906101000a900473ffffffffffffffffffffffffffffffffffffffff1673ffffffffffffffffffffffffffffffffffffffff1614610f20576040517f08c379a0000000000000000000000000000000000000000000000000000000008152600401610f1790612280565b60405180910390fd5b5f73ffffffffffffffffffffffffffffffffffffffff168173ffffffffffffffffffffffffffffffffffffffff1603610f8e576040517f08c379a0000000000000000000000000000000000000000000000000000000008152600401610f85906122e8565b60405180910390fd5b8060045f8481526020019081526020015f205f6101000a81548173ffffffffffffffffffffffffffffffffffffffff021916908373ffffffffffffffffffffffffffffffffffffffff1602179055505050565b5f5f5f8381526020019081526020015f209050806006015f9054906101000a900460ff16156110105750611155565b5f81600501544261102191906120ec565b90505f811115611152575f611045836004015f9054906101000a900460ff16611516565b90505f610e1082604001518461105b9190612306565b6110659190612374565b905080846002015f82825461107a91906123a4565b92505081905550816020015184600201541115611110575f826020015185600201546110a691906120ec565b905082602001518560020181905550808560030154116110f3575f85600301819055506001856006015f6101000a81548160ff02191690831515021790555042856007018190555061110e565b80856003015f82825461110691906120ec565b925050819055505b505b5f62015180846111209190612374565b90505f8111156111455780856001015f82825461113d91906123a4565b925050819055505b4285600501819055505050505b50505b50565b5f5f5f90505b60015481101561121e575f5f8281526020019081526020015f205f015f9054906101000a900460ff1680156111af57505f5f8281526020019081526020015f206006015f9054906101000a900460ff165b80156111fd575082600a8111156111c9576111c8611d01565b5b5f5f8381526020019081526020015f206004015f9054906101000a900460ff16600a8111156111fb576111fa611d01565b5b145b1561121157818061120d9061211f565b9250505b808060010191505061115e565b50919050565b60025f9054906101000a900473ffffffffffffffffffffffffffffffffffffffff1673ffffffffffffffffffffffffffffffffffffffff163373ffffffffffffffffffffffffffffffffffffffff16146112b3576040517f08c379a00000000000000000000000000000000000000000000000000000000081526004016112aa90611fd1565b60405180910390fd5b5f5f5f8381526020019081526020015f209050805f015f9054906101000a900460ff16611315576040517f08c379a000000000000000000000000000000000000000000000000000000000815260040161130c90612039565b60405180910390fd5b806006015f9054906101000a900460ff1615611366576040517f08c379a000000000000000000000000000000000000000000000000000000000815260040161135d90612447565b60405180910390fd5b61137f816004015f9054906101000a900460ff16611516565b5f015181600301819055505050565b5f602052805f5260405f205f91509050805f015f9054906101000a900460ff1690806001015490806002015490806003015490806004015f9054906101000a900460ff1690806005015490806006015f9054906101000a900460ff16908060070154905088565b5f600154905090565b60605f5f5f8481526020019081526020015f20905061142c816004015f9054906101000a900460ff16611516565b60800151915050919050565b611440611ac2565b5f5f5f8481526020019081526020015f20905061146c816004015f9054906101000a900460ff16611516565b915060035f8481526020019081526020015f205f9054906101000a900460ff16611511575f6114aa826004015f9054906101000a900460ff16611516565b6060015190505f606442866040516020016114c6929190612485565b604051602081830303815290604052805190602001205f1c6114e891906124b0565b90508181101561150e576019836003015f82825461150691906120ec565b925050819055505b50505b505050565b61151e611ac2565b5f600a81111561153157611530611d01565b5b82600a81111561154457611543611d01565b5b03611593576040518060a0016040528060c881526020016096815260200160038152602001600181526020016040518060800160405280605d81526020016125a6605d91398152509050611a6a565b6001600a8111156115a7576115a6611d01565b5b82600a8111156115ba576115b9611d01565b5b03611609576040518060a0016040528060dc815260200160c8815260200160028152602001600581526020016040518060800160405280605d81526020016127d4605d91398152509050611a6a565b6002600a81111561161d5761161c611d01565b5b82600a8111156116305761162f611d01565b5b0361167f576040518060a00160405280605081526020016050815260200160038152602001600681526020016040518060800160405280605d8152602001612660605d91398152509050611a6a565b600a8081111561169257611691611d01565b5b82600a8111156116a5576116a4611d01565b5b036116f5576040518060a0016040528061012c815260200161012c8152602001600181526020015f81526020016040518060800160405280605d81526020016128eb605d91398152509050611a6a565b6003600a81111561170957611708611d01565b5b82600a81111561171c5761171b611d01565b5b0361176b576040518060a0016040528060b48152602001605a815260200160028152602001600481526020016040518060800160405280605d8152602001612603605d91398152509050611a6a565b6004600a81111561177f5761177e611d01565b5b82600a81111561179257611791611d01565b5b036117e1576040518060a00160405280605081526020016046815260200160028152602001600881526020016040518060800160405280605d8152602001612777605d91398152509050611a6a565b6005600a8111156117f5576117f4611d01565b5b82600a81111561180857611807611d01565b5b03611857576040518060a0016040528060328152602001603c815260200160048152602001600581526020016040518060800160405280605d8152602001612831605d91398152509050611a6a565b6006600a81111561186b5761186a611d01565b5b82600a81111561187e5761187d611d01565b5b036118cd576040518060a00160405280603781526020016028815260200160038152602001600481526020016040518060800160405280605d815260200161288e605d91398152509050611a6a565b6007600a8111156118e1576118e0611d01565b5b82600a8111156118f4576118f3611d01565b5b03611943576040518060a00160405280604e81526020016041815260200160028152602001600481526020016040518060800160405280605d8152602001612549605d91398152509050611a6a565b6008600a81111561195757611956611d01565b5b82600a81111561196a57611969611d01565b5b036119b9576040518060a00160405280609681526020016064815260200160048152602001600381526020016040518060800160405280605d815260200161271a605d91398152509050611a6a565b6009600a8111156119cd576119cc611d01565b5b82600a8111156119e0576119df611d01565b5b03611a2f576040518060a00160405280602381526020016042815260200160048152602001600581526020016040518060800160405280605d81526020016126bd605d91398152509050611a6a565b6040517f08c379a0000000000000000000000000000000000000000000000000000000008152600401611a619061252a565b60405180910390fd5b919050565b6040518061010001604052805f151581526020015f81526020015f81526020015f81526020015f600a811115611aa857611aa7611d01565b5b81526020015f81526020015f151581526020015f81525090565b6040518060a001604052805f81526020015f81526020015f81526020015f8152602001606081525090565b5f5ffd5b5f819050919050565b611b0381611af1565b8114611b0d575f5ffd5b50565b5f81359050611b1e81611afa565b92915050565b5f60208284031215611b3957611b38611aed565b5b5f611b4684828501611b10565b91505092915050565b5f8115159050919050565b611b6381611b4f565b82525050565b5f602082019050611b7c5f830184611b5a565b92915050565b5f5f60408385031215611b9857611b97611aed565b5b5f611ba585828601611b10565b9250506020611bb685828601611b10565b9150509250929050565b611bc981611af1565b82525050565b5f602082019050611be25f830184611bc0565b92915050565b600b8110611bf4575f5ffd5b50565b5f81359050611c0581611be8565b92915050565b5f60208284031215611c2057611c1f611aed565b5b5f611c2d84828501611bf7565b91505092915050565b5f73ffffffffffffffffffffffffffffffffffffffff82169050919050565b5f611c5f82611c36565b9050919050565b611c6f81611c55565b8114611c79575f5ffd5b50565b5f81359050611c8a81611c66565b92915050565b5f60208284031215611ca557611ca4611aed565b5b5f611cb284828501611c7c565b91505092915050565b611cc481611c55565b82525050565b5f602082019050611cdd5f830184611cbb565b92915050565b611cec81611b4f565b82525050565b611cfb81611af1565b82525050565b7f4e487b71000000000000000000000000000000000000000000000000000000005f52602160045260245ffd5b600b8110611d3f57611d3e611d01565b5b50565b5f819050611d4f82611d2e565b919050565b5f611d5e82611d42565b9050919050565b611d6e81611d54565b82525050565b61010082015f820151611d895f850182611ce3565b506020820151611d9c6020850182611cf2565b506040820151611daf6040850182611cf2565b506060820151611dc26060850182611cf2565b506080820151611dd56080850182611d65565b5060a0820151611de860a0850182611cf2565b5060c0820151611dfb60c0850182611ce3565b5060e0820151611e0e60e0850182611cf2565b50505050565b5f61010082019050611e285f830184611d74565b92915050565b5f5f60408385031215611e4457611e43611aed565b5b5f611e5185828601611b10565b9250506020611e6285828601611c7c565b9150509250929050565b611e7581611d54565b82525050565b5f61010082019050611e8f5f83018b611b5a565b611e9c602083018a611bc0565b611ea96040830189611bc0565b611eb66060830188611bc0565b611ec36080830187611e6c565b611ed060a0830186611bc0565b611edd60c0830185611b5a565b611eea60e0830184611bc0565b9998505050505050505050565b5f81519050919050565b5f82825260208201905092915050565b8281835e5f83830152505050565b5f601f19601f8301169050919050565b5f611f3982611ef7565b611f438185611f01565b9350611f53818560208601611f11565b611f5c81611f1f565b840191505092915050565b5f6020820190508181035f830152611f7f8184611f2f565b905092915050565b7f4f6e6c79205061726b2063616e2063616c6c20746869730000000000000000005f82015250565b5f611fbb601783611f01565b9150611fc682611f87565b602082019050919050565b5f6020820190508181035f830152611fe881611faf565b9050919050565b7f54686174206269726420646f65736e27742065786973740000000000000000005f82015250565b5f612023601783611f01565b915061202e82611fef565b602082019050919050565b5f6020820190508181035f83015261205081612017565b9050919050565b7f43616e6e6f7420666565642061206465616420626972640000000000000000005f82015250565b5f61208b601783611f01565b915061209682612057565b602082019050919050565b5f6020820190508181035f8301526120b88161207f565b9050919050565b7f4e487b71000000000000000000000000000000000000000000000000000000005f52601160045260245ffd5b5f6120f682611af1565b915061210183611af1565b9250828203905081811115612119576121186120bf565b5b92915050565b5f61212982611af1565b91507fffffffffffffffffffffffffffffffffffffffffffffffffffffffffffffffff820361215b5761215a6120bf565b5b600182019050919050565b7f5061726b20616c726561647920736574000000000000000000000000000000005f82015250565b5f61219a601083611f01565b91506121a582612166565b602082019050919050565b5f6020820190508181035f8301526121c78161218e565b9050919050565b7f4e6f7420646561640000000000000000000000000000000000000000000000005f82015250565b5f612202600883611f01565b915061220d826121ce565b602082019050919050565b5f6020820190508181035f83015261222f816121f6565b9050919050565b7f4e6f7420746865206f776e6572000000000000000000000000000000000000005f82015250565b5f61226a600d83611f01565b915061227582612236565b602082019050919050565b5f6020820190508181035f8301526122978161225e565b9050919050565b7f496e76616c6964206164647265737300000000000000000000000000000000005f82015250565b5f6122d2600f83611f01565b91506122dd8261229e565b602082019050919050565b5f6020820190508181035f8301526122ff816122c6565b9050919050565b5f61231082611af1565b915061231b83611af1565b925082820261232981611af1565b915082820484148315176123405761233f6120bf565b5b5092915050565b7f4e487b71000000000000000000000000000000000000000000000000000000005f52601260045260245ffd5b5f61237e82611af1565b915061238983611af1565b92508261239957612398612347565b5b828204905092915050565b5f6123ae82611af1565b91506123b983611af1565b92508282019050808211156123d1576123d06120bf565b5b92915050565b7f43616e6e6f74206865616c2061206465616420626972643b20726576697665205f8201527f6974206669727374000000000000000000000000000000000000000000000000602082015250565b5f612431602883611f01565b915061243c826123d7565b604082019050919050565b5f6020820190508181035f83015261245e81612425565b9050919050565b5f819050919050565b61247f61247a82611af1565b612465565b82525050565b5f612490828561246e565b6020820191506124a0828461246e565b6020820191508190509392505050565b5f6124ba82611af1565b91506124c583611af1565b9250826124d5576124d4612347565b5b828206905092915050565b7f556e6b6e6f776e207370656369657300000000000000000000000000000000005f82015250565b5f612514600f83611f01565b915061251f826124e0565b602082019050919050565b5f6020820190508181035f83015261254181612508565b905091905056fe68747470733a2f2f676174657761792e70696e6174612e636c6f75642f697066732f6261666b72656964336d64796d7a736a7475646d35367a726f766974786f757667736a627a7a6b796172737137743269326269777967367268747168747470733a2f2f676174657761792e70696e6174612e636c6f75642f697066732f6261667962656961336c65346173746b6e683270346d626b64357734326a353232746e73653477786b3777356d3777696d6f716470366f757a707968747470733a2f2f676174657761792e70696e6174612e636c6f75642f697066732f6261667962656966786e71727070336166616a6e74726e7779796e75326c63727a766d646d737468776162367832776e323377636e62646a6e366d68747470733a2f2f676174657761792e70696e6174612e636c6f75642f697066732f626166796265696576377075637a377968377836686169646d7068703569656f6276636664636c6e6c776a71613269767334793335377076776d6168747470733a2f2f676174657761792e70696e6174612e636c6f75642f697066732f626166796265696670616a6269766868656d6a65666769616d6e7668376f6532376c657874716a376167707a6e63687165756a636e34366935636168747470733a2f2f676174657761792e70696e6174612e636c6f75642f697066732f6261666b7265696636656e6f32716a6a337863376d6562716c327336366f6c36797872777837677761767a3434716e32646c7a33636e773766323468747470733a2f2f676174657761792e70696e6174612e636c6f75642f697066732f62616679626569626364707a707967366d716165326f676f7775756d796d716d7178623275736e697537356765656a347074723436376f74326e6d68747470733a2f2f676174657761792e70696e6174612e636c6f75642f697066732f62616679626569676f686f746f6b366b336f6e76746a797970666e626e7a6263736f327163697862777a34776836347670326e336c71376e6b736168747470733a2f2f676174657761792e70696e6174612e636c6f75642f697066732f6261666b7265696461346170737078746e706236336f71797a763374696e356f776334356c6763746b6471763734686a6173346679746f6f6b746168747470733a2f2f676174657761792e70696e6174612e636c6f75642f697066732f6261666b7265696832666d78753361797363723778657a3275326173686177696663336f6a34716132366a35366368343676657a377a7961656a3468747470733a2f2f676174657761792e70696e6174612e636c6f75642f697066732f626166796265696574626635716f7372796271676b7132636434637a76363664777736737434776a35786c6f7a6534656e6232643578796a36706da2646970667358221220a05219bead2104b15d2490c2ffae356eb90c684b7d1ca34f45c4b4a4f1a1e50264736f6c634300081e0033",
			"opcodes": "PUSH1 0x80 PUSH1 0x40 MSTORE CALLVALUE DUP1 ISZERO PUSH2 0xF JUMPI PUSH0 PUSH0 REVERT JUMPDEST POP PUSH1 0x40 MLOAD PUSH2 0x2A8A CODESIZE SUB DUP1 PUSH2 0x2A8A DUP4 CODECOPY DUP2 DUP2 ADD PUSH1 0x40 MSTORE DUP2 ADD SWAP1 PUSH2 0x31 SWAP2 SWAP1 PUSH2 0xD5 JUMP JUMPDEST DUP1 PUSH1 0x2 PUSH0 PUSH2 0x100 EXP DUP2 SLOAD DUP2 PUSH20 0xFFFFFFFFFFFFFFFFFFFFFFFFFFFFFFFFFFFFFFFF MUL NOT AND SWAP1 DUP4 PUSH20 0xFFFFFFFFFFFFFFFFFFFFFFFFFFFFFFFFFFFFFFFF AND MUL OR SWAP1 SSTORE POP POP PUSH2 0x100 JUMP JUMPDEST PUSH0 PUSH0 REVERT JUMPDEST PUSH0 PUSH20 0xFFFFFFFFFFFFFFFFFFFFFFFFFFFFFFFFFFFFFFFF DUP3 AND SWAP1 POP SWAP2 SWAP1 POP JUMP JUMPDEST PUSH0 PUSH2 0xA4 DUP3 PUSH2 0x7B JUMP JUMPDEST SWAP1 POP SWAP2 SWAP1 POP JUMP JUMPDEST PUSH2 0xB4 DUP2 PUSH2 0x9A JUMP JUMPDEST DUP2 EQ PUSH2 0xBE JUMPI PUSH0 PUSH0 REVERT JUMPDEST POP JUMP JUMPDEST PUSH0 DUP2 MLOAD SWAP1 POP PUSH2 0xCF DUP2 PUSH2 0xAB JUMP JUMPDEST SWAP3 SWAP2 POP POP JUMP JUMPDEST PUSH0 PUSH1 0x20 DUP3 DUP5 SUB SLT ISZERO PUSH2 0xEA JUMPI PUSH2 0xE9 PUSH2 0x77 JUMP JUMPDEST JUMPDEST PUSH0 PUSH2 0xF7 DUP5 DUP3 DUP6 ADD PUSH2 0xC1 JUMP JUMPDEST SWAP2 POP POP SWAP3 SWAP2 POP POP JUMP JUMPDEST PUSH2 0x297D DUP1 PUSH2 0x10D PUSH0 CODECOPY PUSH0 RETURN INVALID PUSH1 0x80 PUSH1 0x40 MSTORE CALLVALUE DUP1 ISZERO PUSH2 0xF JUMPI PUSH0 PUSH0 REVERT JUMPDEST POP PUSH1 0x4 CALLDATASIZE LT PUSH2 0x12A JUMPI PUSH0 CALLDATALOAD PUSH1 0xE0 SHR DUP1 PUSH4 0x6EC88BBD GT PUSH2 0xAB JUMPI DUP1 PUSH4 0xA5D84618 GT PUSH2 0x6F JUMPI DUP1 PUSH4 0xA5D84618 EQ PUSH2 0x33E JUMPI DUP1 PUSH4 0xBFF998F4 EQ PUSH2 0x36E JUMPI DUP1 PUSH4 0xEC1C5955 EQ PUSH2 0x38A JUMPI DUP1 PUSH4 0xF06ABB80 EQ PUSH2 0x3C1 JUMPI DUP1 PUSH4 0xF64FF064 EQ PUSH2 0x3DF JUMPI PUSH2 0x12A JUMP JUMPDEST DUP1 PUSH4 0x6EC88BBD EQ PUSH2 0x29C JUMPI DUP1 PUSH4 0x72680A77 EQ PUSH2 0x2CC JUMPI DUP1 PUSH4 0x8BAECC21 EQ PUSH2 0x2EA JUMPI DUP1 PUSH4 0x8C652F95 EQ PUSH2 0x306 JUMPI DUP1 PUSH4 0xA2B7CE6F EQ PUSH2 0x322 JUMPI PUSH2 0x12A JUMP JUMPDEST DUP1 PUSH4 0x49B1A0BF GT PUSH2 0xF2 JUMPI DUP1 PUSH4 0x49B1A0BF EQ PUSH2 0x1E6 JUMPI DUP1 PUSH4 0x4D2D7881 EQ PUSH2 0x202 JUMPI DUP1 PUSH4 0x4E9C7DF8 EQ PUSH2 0x232 JUMPI DUP1 PUSH4 0x61B8CE8C EQ PUSH2 0x24E JUMPI DUP1 PUSH4 0x6352211E EQ PUSH2 0x26C JUMPI PUSH2 0x12A JUMP JUMPDEST DUP1 PUSH4 0x16CB4A05 EQ PUSH2 0x12E JUMPI DUP1 PUSH4 0x1942D199 EQ PUSH2 0x15E JUMPI DUP1 PUSH4 0x1A3C4034 EQ PUSH2 0x17A JUMPI DUP1 PUSH4 0x21C0DD5A EQ PUSH2 0x198 JUMPI DUP1 PUSH4 0x3127522E EQ PUSH2 0x1C8 JUMPI JUMPDEST PUSH0 PUSH0 REVERT JUMPDEST PUSH2 0x148 PUSH1 0x4 DUP1 CALLDATASIZE SUB DUP2 ADD SWAP1 PUSH2 0x143 SWAP2 SWAP1 PUSH2 0x1B24 JUMP JUMPDEST PUSH2 0x40F JUMP JUMPDEST PUSH1 0x40 MLOAD PUSH2 0x155 SWAP2 SWAP1 PUSH2 0x1B69 JUMP JUMPDEST PUSH1 0x40 MLOAD DUP1 SWAP2 SUB SWAP1 RETURN JUMPDEST PUSH2 0x178 PUSH1 0x4 DUP1 CALLDATASIZE SUB DUP2 ADD SWAP1 PUSH2 0x173 SWAP2 SWAP1 PUSH2 0x1B82 JUMP JUMPDEST PUSH2 0x42C JUMP JUMPDEST STOP JUMPDEST PUSH2 0x182 PUSH2 0x5B9 JUMP JUMPDEST PUSH1 0x40 MLOAD PUSH2 0x18F SWAP2 SWAP1 PUSH2 0x1BCF JUMP JUMPDEST PUSH1 0x40 MLOAD DUP1 SWAP2 SUB SWAP1 RETURN JUMPDEST PUSH2 0x1B2 PUSH1 0x4 DUP1 CALLDATASIZE SUB DUP2 ADD SWAP1 PUSH2 0x1AD SWAP2 SWAP1 PUSH2 0x1C0B JUMP JUMPDEST PUSH2 0x636 JUMP JUMPDEST PUSH1 0x40 MLOAD PUSH2 0x1BF SWAP2 SWAP1 PUSH2 0x1BCF JUMP JUMPDEST PUSH1 0x40 MLOAD DUP1 SWAP2 SUB SWAP1 RETURN JUMPDEST PUSH2 0x1D0 PUSH2 0x703 JUMP JUMPDEST PUSH1 0x40 MLOAD PUSH2 0x1DD SWAP2 SWAP1 PUSH2 0x1BCF JUMP JUMPDEST PUSH1 0x40 MLOAD DUP1 SWAP2 SUB SWAP1 RETURN JUMPDEST PUSH2 0x200 PUSH1 0x4 DUP1 CALLDATASIZE SUB DUP2 ADD SWAP1 PUSH2 0x1FB SWAP2 SWAP1 PUSH2 0x1B24 JUMP JUMPDEST PUSH2 0x77F JUMP JUMPDEST STOP JUMPDEST PUSH2 0x21C PUSH1 0x4 DUP1 CALLDATASIZE SUB DUP2 ADD SWAP1 PUSH2 0x217 SWAP2 SWAP1 PUSH2 0x1C0B JUMP JUMPDEST PUSH2 0x83A JUMP JUMPDEST PUSH1 0x40 MLOAD PUSH2 0x229 SWAP2 SWAP1 PUSH2 0x1BCF JUMP JUMPDEST PUSH1 0x40 MLOAD DUP1 SWAP2 SUB SWAP1 RETURN JUMPDEST PUSH2 0x24C PUSH1 0x4 DUP1 CALLDATASIZE SUB DUP2 ADD SWAP1 PUSH2 0x247 SWAP2 SWAP1 PUSH2 0x1C90 JUMP JUMPDEST PUSH2 0xA54 JUMP JUMPDEST STOP JUMPDEST PUSH2 0x256 PUSH2 0xB26 JUMP JUMPDEST PUSH1 0x40 MLOAD PUSH2 0x263 SWAP2 SWAP1 PUSH2 0x1BCF JUMP JUMPDEST PUSH1 0x40 MLOAD DUP1 SWAP2 SUB SWAP1 RETURN JUMPDEST PUSH2 0x286 PUSH1 0x4 DUP1 CALLDATASIZE SUB DUP2 ADD SWAP1 PUSH2 0x281 SWAP2 SWAP1 PUSH2 0x1B24 JUMP JUMPDEST PUSH2 0xB2C JUMP JUMPDEST PUSH1 0x40 MLOAD PUSH2 0x293 SWAP2 SWAP1 PUSH2 0x1CCA JUMP JUMPDEST PUSH1 0x40 MLOAD DUP1 SWAP2 SUB SWAP1 RETURN JUMPDEST PUSH2 0x2B6 PUSH1 0x4 DUP1 CALLDATASIZE SUB DUP2 ADD SWAP1 PUSH2 0x2B1 SWAP2 SWAP1 PUSH2 0x1B24 JUMP JUMPDEST PUSH2 0xB5C JUMP JUMPDEST PUSH1 0x40 MLOAD PUSH2 0x2C3 SWAP2 SWAP1 PUSH2 0x1E14 JUMP JUMPDEST PUSH1 0x40 MLOAD DUP1 SWAP2 SUB SWAP1 RETURN JUMPDEST PUSH2 0x2D4 PUSH2 0xC2F JUMP JUMPDEST PUSH1 0x40 MLOAD PUSH2 0x2E1 SWAP2 SWAP1 PUSH2 0x1CCA JUMP JUMPDEST PUSH1 0x40 MLOAD DUP1 SWAP2 SUB SWAP1 RETURN JUMPDEST PUSH2 0x304 PUSH1 0x4 DUP1 CALLDATASIZE SUB DUP2 ADD SWAP1 PUSH2 0x2FF SWAP2 SWAP1 PUSH2 0x1B24 JUMP JUMPDEST PUSH2 0xC54 JUMP JUMPDEST STOP JUMPDEST PUSH2 0x320 PUSH1 0x4 DUP1 CALLDATASIZE SUB DUP2 ADD SWAP1 PUSH2 0x31B SWAP2 SWAP1 PUSH2 0x1E2E JUMP JUMPDEST PUSH2 0xDF3 JUMP JUMPDEST STOP JUMPDEST PUSH2 0x33C PUSH1 0x4 DUP1 CALLDATASIZE SUB DUP2 ADD SWAP1 PUSH2 0x337 SWAP2 SWAP1 PUSH2 0x1B24 JUMP JUMPDEST PUSH2 0xFE1 JUMP JUMPDEST STOP JUMPDEST PUSH2 0x358 PUSH1 0x4 DUP1 CALLDATASIZE SUB DUP2 ADD SWAP1 PUSH2 0x353 SWAP2 SWAP1 PUSH2 0x1C0B JUMP JUMPDEST PUSH2 0x1158 JUMP JUMPDEST PUSH1 0x40 MLOAD PUSH2 0x365 SWAP2 SWAP1 PUSH2 0x1BCF JUMP JUMPDEST PUSH1 0x40 MLOAD DUP1 SWAP2 SUB SWAP1 RETURN JUMPDEST PUSH2 0x388 PUSH1 0x4 DUP1 CALLDATASIZE SUB DUP2 ADD SWAP1 PUSH2 0x383 SWAP2 SWAP1 PUSH2 0x1B24 JUMP JUMPDEST PUSH2 0x1224 JUMP JUMPDEST STOP JUMPDEST PUSH2 0x3A4 PUSH1 0x4 DUP1 CALLDATASIZE SUB DUP2 ADD SWAP1 PUSH2 0x39F SWAP2 SWAP1 PUSH2 0x1B24 JUMP JUMPDEST PUSH2 0x138E JUMP JUMPDEST PUSH1 0x40 MLOAD PUSH2 0x3B8 SWAP9 SWAP8 SWAP7 SWAP6 SWAP5 SWAP4 SWAP3 SWAP2 SWAP1 PUSH2 0x1E7B JUMP JUMPDEST PUSH1 0x40 MLOAD DUP1 SWAP2 SUB SWAP1 RETURN JUMPDEST PUSH2 0x3C9 PUSH2 0x13F5 JUMP JUMPDEST PUSH1 0x40 MLOAD PUSH2 0x3D6 SWAP2 SWAP1 PUSH2 0x1BCF JUMP JUMPDEST PUSH1 0x40 MLOAD DUP1 SWAP2 SUB SWAP1 RETURN JUMPDEST PUSH2 0x3F9 PUSH1 0x4 DUP1 CALLDATASIZE SUB DUP2 ADD SWAP1 PUSH2 0x3F4 SWAP2 SWAP1 PUSH2 0x1B24 JUMP JUMPDEST PUSH2 0x13FE JUMP JUMPDEST PUSH1 0x40 MLOAD PUSH2 0x406 SWAP2 SWAP1 PUSH2 0x1F67 JUMP JUMPDEST PUSH1 0x40 MLOAD DUP1 SWAP2 SUB SWAP1 RETURN JUMPDEST PUSH1 0x3 PUSH1 0x20 MSTORE DUP1 PUSH0 MSTORE PUSH1 0x40 PUSH0 KECCAK256 PUSH0 SWAP2 POP SLOAD SWAP1 PUSH2 0x100 EXP SWAP1 DIV PUSH1 0xFF AND DUP2 JUMP JUMPDEST PUSH1 0x2 PUSH0 SWAP1 SLOAD SWAP1 PUSH2 0x100 EXP SWAP1 DIV PUSH20 0xFFFFFFFFFFFFFFFFFFFFFFFFFFFFFFFFFFFFFFFF AND PUSH20 0xFFFFFFFFFFFFFFFFFFFFFFFFFFFFFFFFFFFFFFFF AND CALLER PUSH20 0xFFFFFFFFFFFFFFFFFFFFFFFFFFFFFFFFFFFFFFFF AND EQ PUSH2 0x4BB JUMPI PUSH1 0x40 MLOAD PUSH32 0x8C379A000000000000000000000000000000000000000000000000000000000 DUP2 MSTORE PUSH1 0x4 ADD PUSH2 0x4B2 SWAP1 PUSH2 0x1FD1 JUMP JUMPDEST PUSH1 0x40 MLOAD DUP1 SWAP2 SUB SWAP1 REVERT JUMPDEST PUSH2 0x4C4 DUP3 PUSH2 0xFE1 JUMP JUMPDEST PUSH0 PUSH0 PUSH0 DUP5 DUP2 MSTORE PUSH1 0x20 ADD SWAP1 DUP2 MSTORE PUSH1 0x20 ADD PUSH0 KECCAK256 SWAP1 POP PUSH2 0x4E0 DUP4 PUSH2 0x1438 JUMP JUMPDEST DUP1 PUSH0 ADD PUSH0 SWAP1 SLOAD SWAP1 PUSH2 0x100 EXP SWAP1 DIV PUSH1 0xFF AND PUSH2 0x52F JUMPI PUSH1 0x40 MLOAD PUSH32 0x8C379A000000000000000000000000000000000000000000000000000000000 DUP2 MSTORE PUSH1 0x4 ADD PUSH2 0x526 SWAP1 PUSH2 0x2039 JUMP JUMPDEST PUSH1 0x40 MLOAD DUP1 SWAP2 SUB SWAP1 REVERT JUMPDEST DUP1 PUSH1 0x6 ADD PUSH0 SWAP1 SLOAD SWAP1 PUSH2 0x100 EXP SWAP1 DIV PUSH1 0xFF AND ISZERO PUSH2 0x580 JUMPI PUSH1 0x40 MLOAD PUSH32 0x8C379A000000000000000000000000000000000000000000000000000000000 DUP2 MSTORE PUSH1 0x4 ADD PUSH2 0x577 SWAP1 PUSH2 0x20A1 JUMP JUMPDEST PUSH1 0x40 MLOAD DUP1 SWAP2 SUB SWAP1 REVERT JUMPDEST DUP2 DUP2 PUSH1 0x2 ADD SLOAD LT PUSH2 0x5AA JUMPI DUP2 DUP2 PUSH1 0x2 ADD PUSH0 DUP3 DUP3 SLOAD PUSH2 0x59E SWAP2 SWAP1 PUSH2 0x20EC JUMP JUMPDEST SWAP3 POP POP DUP2 SWAP1 SSTORE POP PUSH2 0x5B4 JUMP JUMPDEST PUSH0 DUP2 PUSH1 0x2 ADD DUP2 SWAP1 SSTORE POP JUMPDEST POP POP POP JUMP JUMPDEST PUSH0 PUSH0 PUSH0 SWAP1 POP JUMPDEST PUSH1 0x1 SLOAD DUP2 LT ISZERO PUSH2 0x632 JUMPI PUSH0 PUSH0 DUP3 DUP2 MSTORE PUSH1 0x20 ADD SWAP1 DUP2 MSTORE PUSH1 0x20 ADD PUSH0 KECCAK256 PUSH0 ADD PUSH0 SWAP1 SLOAD SWAP1 PUSH2 0x100 EXP SWAP1 DIV PUSH1 0xFF AND DUP1 ISZERO PUSH2 0x611 JUMPI POP PUSH0 PUSH0 DUP3 DUP2 MSTORE PUSH1 0x20 ADD SWAP1 DUP2 MSTORE PUSH1 0x20 ADD PUSH0 KECCAK256 PUSH1 0x6 ADD PUSH0 SWAP1 SLOAD SWAP1 PUSH2 0x100 EXP SWAP1 DIV PUSH1 0xFF AND ISZERO JUMPDEST ISZERO PUSH2 0x625 JUMPI DUP2 DUP1 PUSH2 0x621 SWAP1 PUSH2 0x211F JUMP JUMPDEST SWAP3 POP POP JUMPDEST DUP1 DUP1 PUSH1 0x1 ADD SWAP2 POP POP PUSH2 0x5BF JUMP JUMPDEST POP SWAP1 JUMP JUMPDEST PUSH0 PUSH0 PUSH0 SWAP1 POP JUMPDEST PUSH1 0x1 SLOAD DUP2 LT ISZERO PUSH2 0x6FD JUMPI PUSH0 PUSH0 DUP3 DUP2 MSTORE PUSH1 0x20 ADD SWAP1 DUP2 MSTORE PUSH1 0x20 ADD PUSH0 KECCAK256 PUSH0 ADD PUSH0 SWAP1 SLOAD SWAP1 PUSH2 0x100 EXP SWAP1 DIV PUSH1 0xFF AND DUP1 ISZERO PUSH2 0x68E JUMPI POP PUSH0 PUSH0 DUP3 DUP2 MSTORE PUSH1 0x20 ADD SWAP1 DUP2 MSTORE PUSH1 0x20 ADD PUSH0 KECCAK256 PUSH1 0x6 ADD PUSH0 SWAP1 SLOAD SWAP1 PUSH2 0x100 EXP SWAP1 DIV PUSH1 0xFF AND ISZERO JUMPDEST DUP1 ISZERO PUSH2 0x6DC JUMPI POP DUP3 PUSH1 0xA DUP2 GT ISZERO PUSH2 0x6A8 JUMPI PUSH2 0x6A7 PUSH2 0x1D01 JUMP JUMPDEST JUMPDEST PUSH0 PUSH0 DUP4 DUP2 MSTORE PUSH1 0x20 ADD SWAP1 DUP2 MSTORE PUSH1 0x20 ADD PUSH0 KECCAK256 PUSH1 0x4 ADD PUSH0 SWAP1 SLOAD SWAP1 PUSH2 0x100 EXP SWAP1 DIV PUSH1 0xFF AND PUSH1 0xA DUP2 GT ISZERO PUSH2 0x6DA JUMPI PUSH2 0x6D9 PUSH2 0x1D01 JUMP JUMPDEST JUMPDEST EQ JUMPDEST ISZERO PUSH2 0x6F0 JUMPI DUP2 DUP1 PUSH2 0x6EC SWAP1 PUSH2 0x211F JUMP JUMPDEST SWAP3 POP POP JUMPDEST DUP1 DUP1 PUSH1 0x1 ADD SWAP2 POP POP PUSH2 0x63C JUMP JUMPDEST POP SWAP2 SWAP1 POP JUMP JUMPDEST PUSH0 PUSH0 PUSH0 SWAP1 POP JUMPDEST PUSH1 0x1 SLOAD DUP2 LT ISZERO PUSH2 0x77B JUMPI PUSH0 PUSH0 DUP3 DUP2 MSTORE PUSH1 0x20 ADD SWAP1 DUP2 MSTORE PUSH1 0x20 ADD PUSH0 KECCAK256 PUSH0 ADD PUSH0 SWAP1 SLOAD SWAP1 PUSH2 0x100 EXP SWAP1 DIV PUSH1 0xFF AND DUP1 ISZERO PUSH2 0x75A JUMPI POP PUSH0 PUSH0 DUP3 DUP2 MSTORE PUSH1 0x20 ADD SWAP1 DUP2 MSTORE PUSH1 0x20 ADD PUSH0 KECCAK256 PUSH1 0x6 ADD PUSH0 SWAP1 SLOAD SWAP1 PUSH2 0x100 EXP SWAP1 DIV PUSH1 0xFF AND JUMPDEST ISZERO PUSH2 0x76E JUMPI DUP2 DUP1 PUSH2 0x76A SWAP1 PUSH2 0x211F JUMP JUMPDEST SWAP3 POP POP JUMPDEST DUP1 DUP1 PUSH1 0x1 ADD SWAP2 POP POP PUSH2 0x709 JUMP JUMPDEST POP SWAP1 JUMP JUMPDEST PUSH1 0x2 PUSH0 SWAP1 SLOAD SWAP1 PUSH2 0x100 EXP SWAP1 DIV PUSH20 0xFFFFFFFFFFFFFFFFFFFFFFFFFFFFFFFFFFFFFFFF AND PUSH20 0xFFFFFFFFFFFFFFFFFFFFFFFFFFFFFFFFFFFFFFFF AND CALLER PUSH20 0xFFFFFFFFFFFFFFFFFFFFFFFFFFFFFFFFFFFFFFFF AND EQ PUSH2 0x80E JUMPI PUSH1 0x40 MLOAD PUSH32 0x8C379A000000000000000000000000000000000000000000000000000000000 DUP2 MSTORE PUSH1 0x4 ADD PUSH2 0x805 SWAP1 PUSH2 0x1FD1 JUMP JUMPDEST PUSH1 0x40 MLOAD DUP1 SWAP2 SUB SWAP1 REVERT JUMPDEST PUSH1 0x1 PUSH1 0x3 PUSH0 DUP4 DUP2 MSTORE PUSH1 0x20 ADD SWAP1 DUP2 MSTORE PUSH1 0x20 ADD PUSH0 KECCAK256 PUSH0 PUSH2 0x100 EXP DUP2 SLOAD DUP2 PUSH1 0xFF MUL NOT AND SWAP1 DUP4 ISZERO ISZERO MUL OR SWAP1 SSTORE POP POP JUMP JUMPDEST PUSH0 PUSH1 0x2 PUSH0 SWAP1 SLOAD SWAP1 PUSH2 0x100 EXP SWAP1 DIV PUSH20 0xFFFFFFFFFFFFFFFFFFFFFFFFFFFFFFFFFFFFFFFF AND PUSH20 0xFFFFFFFFFFFFFFFFFFFFFFFFFFFFFFFFFFFFFFFF AND CALLER PUSH20 0xFFFFFFFFFFFFFFFFFFFFFFFFFFFFFFFFFFFFFFFF AND EQ PUSH2 0x8CA JUMPI PUSH1 0x40 MLOAD PUSH32 0x8C379A000000000000000000000000000000000000000000000000000000000 DUP2 MSTORE PUSH1 0x4 ADD PUSH2 0x8C1 SWAP1 PUSH2 0x1FD1 JUMP JUMPDEST PUSH1 0x40 MLOAD DUP1 SWAP2 SUB SWAP1 REVERT JUMPDEST PUSH0 PUSH2 0x8D4 DUP4 PUSH2 0x1516 JUMP JUMPDEST SWAP1 POP PUSH1 0x40 MLOAD DUP1 PUSH2 0x100 ADD PUSH1 0x40 MSTORE DUP1 PUSH1 0x1 ISZERO ISZERO DUP2 MSTORE PUSH1 0x20 ADD PUSH0 DUP2 MSTORE PUSH1 0x20 ADD PUSH0 DUP2 MSTORE PUSH1 0x20 ADD DUP3 PUSH0 ADD MLOAD DUP2 MSTORE PUSH1 0x20 ADD DUP5 PUSH1 0xA DUP2 GT ISZERO PUSH2 0x913 JUMPI PUSH2 0x912 PUSH2 0x1D01 JUMP JUMPDEST JUMPDEST DUP2 MSTORE PUSH1 0x20 ADD TIMESTAMP DUP2 MSTORE PUSH1 0x20 ADD PUSH0 ISZERO ISZERO DUP2 MSTORE PUSH1 0x20 ADD PUSH0 DUP2 MSTORE POP PUSH0 PUSH0 PUSH1 0x1 SLOAD DUP2 MSTORE PUSH1 0x20 ADD SWAP1 DUP2 MSTORE PUSH1 0x20 ADD PUSH0 KECCAK256 PUSH0 DUP3 ADD MLOAD DUP2 PUSH0 ADD PUSH0 PUSH2 0x100 EXP DUP2 SLOAD DUP2 PUSH1 0xFF MUL NOT AND SWAP1 DUP4 ISZERO ISZERO MUL OR SWAP1 SSTORE POP PUSH1 0x20 DUP3 ADD MLOAD DUP2 PUSH1 0x1 ADD SSTORE PUSH1 0x40 DUP3 ADD MLOAD DUP2 PUSH1 0x2 ADD SSTORE PUSH1 0x60 DUP3 ADD MLOAD DUP2 PUSH1 0x3 ADD SSTORE PUSH1 0x80 DUP3 ADD MLOAD DUP2 PUSH1 0x4 ADD PUSH0 PUSH2 0x100 EXP DUP2 SLOAD DUP2 PUSH1 0xFF MUL NOT AND SWAP1 DUP4 PUSH1 0xA DUP2 GT ISZERO PUSH2 0x9A1 JUMPI PUSH2 0x9A0 PUSH2 0x1D01 JUMP JUMPDEST JUMPDEST MUL OR SWAP1 SSTORE POP PUSH1 0xA0 DUP3 ADD MLOAD DUP2 PUSH1 0x5 ADD SSTORE PUSH1 0xC0 DUP3 ADD MLOAD DUP2 PUSH1 0x6 ADD PUSH0 PUSH2 0x100 EXP DUP2 SLOAD DUP2 PUSH1 0xFF MUL NOT AND SWAP1 DUP4 ISZERO ISZERO MUL OR SWAP1 SSTORE POP PUSH1 0xE0 DUP3 ADD MLOAD DUP2 PUSH1 0x7 ADD SSTORE SWAP1 POP POP ORIGIN PUSH1 0x4 PUSH0 PUSH1 0x1 SLOAD DUP2 MSTORE PUSH1 0x20 ADD SWAP1 DUP2 MSTORE PUSH1 0x20 ADD PUSH0 KECCAK256 PUSH0 PUSH2 0x100 EXP DUP2 SLOAD DUP2 PUSH20 0xFFFFFFFFFFFFFFFFFFFFFFFFFFFFFFFFFFFFFFFF MUL NOT AND SWAP1 DUP4 PUSH20 0xFFFFFFFFFFFFFFFFFFFFFFFFFFFFFFFFFFFFFFFF AND MUL OR SWAP1 SSTORE POP PUSH0 PUSH1 0x1 SLOAD SWAP1 POP PUSH1 0x1 PUSH0 DUP2 SLOAD DUP1 SWAP3 SWAP2 SWAP1 PUSH2 0xA45 SWAP1 PUSH2 0x211F JUMP JUMPDEST SWAP2 SWAP1 POP SSTORE POP DUP1 SWAP3 POP POP POP SWAP2 SWAP1 POP JUMP JUMPDEST PUSH0 PUSH20 0xFFFFFFFFFFFFFFFFFFFFFFFFFFFFFFFFFFFFFFFF AND PUSH1 0x2 PUSH0 SWAP1 SLOAD SWAP1 PUSH2 0x100 EXP SWAP1 DIV PUSH20 0xFFFFFFFFFFFFFFFFFFFFFFFFFFFFFFFFFFFFFFFF AND PUSH20 0xFFFFFFFFFFFFFFFFFFFFFFFFFFFFFFFFFFFFFFFF AND EQ PUSH2 0xAE3 JUMPI PUSH1 0x40 MLOAD PUSH32 0x8C379A000000000000000000000000000000000000000000000000000000000 DUP2 MSTORE PUSH1 0x4 ADD PUSH2 0xADA SWAP1 PUSH2 0x21B0 JUMP JUMPDEST PUSH1 0x40 MLOAD DUP1 SWAP2 SUB SWAP1 REVERT JUMPDEST DUP1 PUSH1 0x2 PUSH0 PUSH2 0x100 EXP DUP2 SLOAD DUP2 PUSH20 0xFFFFFFFFFFFFFFFFFFFFFFFFFFFFFFFFFFFFFFFF MUL NOT AND SWAP1 DUP4 PUSH20 0xFFFFFFFFFFFFFFFFFFFFFFFFFFFFFFFFFFFFFFFF AND MUL OR SWAP1 SSTORE POP POP JUMP JUMPDEST PUSH1 0x1 SLOAD DUP2 JUMP JUMPDEST PUSH1 0x4 PUSH1 0x20 MSTORE DUP1 PUSH0 MSTORE PUSH1 0x40 PUSH0 KECCAK256 PUSH0 SWAP2 POP SLOAD SWAP1 PUSH2 0x100 EXP SWAP1 DIV PUSH20 0xFFFFFFFFFFFFFFFFFFFFFFFFFFFFFFFFFFFFFFFF AND DUP2 JUMP JUMPDEST PUSH2 0xB64 PUSH2 0x1A6F JUMP JUMPDEST PUSH2 0xB6D DUP3 PUSH2 0xFE1 JUMP JUMPDEST PUSH0 PUSH0 DUP4 DUP2 MSTORE PUSH1 0x20 ADD SWAP1 DUP2 MSTORE PUSH1 0x20 ADD PUSH0 KECCAK256 PUSH1 0x40 MLOAD DUP1 PUSH2 0x100 ADD PUSH1 0x40 MSTORE SWAP1 DUP2 PUSH0 DUP3 ADD PUSH0 SWAP1 SLOAD SWAP1 PUSH2 0x100 EXP SWAP1 DIV PUSH1 0xFF AND ISZERO ISZERO ISZERO ISZERO DUP2 MSTORE PUSH1 0x20 ADD PUSH1 0x1 DUP3 ADD SLOAD DUP2 MSTORE PUSH1 0x20 ADD PUSH1 0x2 DUP3 ADD SLOAD DUP2 MSTORE PUSH1 0x20 ADD PUSH1 0x3 DUP3 ADD SLOAD DUP2 MSTORE PUSH1 0x20 ADD PUSH1 0x4 DUP3 ADD PUSH0 SWAP1 SLOAD SWAP1 PUSH2 0x100 EXP SWAP1 DIV PUSH1 0xFF AND PUSH1 0xA DUP2 GT ISZERO PUSH2 0xBE4 JUMPI PUSH2 0xBE3 PUSH2 0x1D01 JUMP JUMPDEST JUMPDEST PUSH1 0xA DUP2 GT ISZERO PUSH2 0xBF6 JUMPI PUSH2 0xBF5 PUSH2 0x1D01 JUMP JUMPDEST JUMPDEST DUP2 MSTORE PUSH1 0x20 ADD PUSH1 0x5 DUP3 ADD SLOAD DUP2 MSTORE PUSH1 0x20 ADD PUSH1 0x6 DUP3 ADD PUSH0 SWAP1 SLOAD SWAP1 PUSH2 0x100 EXP SWAP1 DIV PUSH1 0xFF AND ISZERO ISZERO ISZERO ISZERO DUP2 MSTORE PUSH1 0x20 ADD PUSH1 0x7 DUP3 ADD SLOAD DUP2 MSTORE POP POP SWAP1 POP SWAP2 SWAP1 POP JUMP JUMPDEST PUSH1 0x2 PUSH0 SWAP1 SLOAD SWAP1 PUSH2 0x100 EXP SWAP1 DIV PUSH20 0xFFFFFFFFFFFFFFFFFFFFFFFFFFFFFFFFFFFFFFFF AND DUP2 JUMP JUMPDEST PUSH1 0x2 PUSH0 SWAP1 SLOAD SWAP1 PUSH2 0x100 EXP SWAP1 DIV PUSH20 0xFFFFFFFFFFFFFFFFFFFFFFFFFFFFFFFFFFFFFFFF AND PUSH20 0xFFFFFFFFFFFFFFFFFFFFFFFFFFFFFFFFFFFFFFFF AND CALLER PUSH20 0xFFFFFFFFFFFFFFFFFFFFFFFFFFFFFFFFFFFFFFFF AND EQ PUSH2 0xCE3 JUMPI PUSH1 0x40 MLOAD PUSH32 0x8C379A000000000000000000000000000000000000000000000000000000000 DUP2 MSTORE PUSH1 0x4 ADD PUSH2 0xCDA SWAP1 PUSH2 0x1FD1 JUMP JUMPDEST PUSH1 0x40 MLOAD DUP1 SWAP2 SUB SWAP1 REVERT JUMPDEST PUSH0 PUSH0 PUSH0 DUP4 DUP2 MSTORE PUSH1 0x20 ADD SWAP1 DUP2 MSTORE PUSH1 0x20 ADD PUSH0 KECCAK256 SWAP1 POP DUP1 PUSH0 ADD PUSH0 SWAP1 SLOAD SWAP1 PUSH2 0x100 EXP SWAP1 DIV PUSH1 0xFF AND PUSH2 0xD45 JUMPI PUSH1 0x40 MLOAD PUSH32 0x8C379A000000000000000000000000000000000000000000000000000000000 DUP2 MSTORE PUSH1 0x4 ADD PUSH2 0xD3C SWAP1 PUSH2 0x2039 JUMP JUMPDEST PUSH1 0x40 MLOAD DUP1 SWAP2 SUB SWAP1 REVERT JUMPDEST DUP1 PUSH1 0x6 ADD PUSH0 SWAP1 SLOAD SWAP1 PUSH2 0x100 EXP SWAP1 DIV PUSH1 0xFF AND PUSH2 0xD95 JUMPI PUSH1 0x40 MLOAD PUSH32 0x8C379A000000000000000000000000000000000000000000000000000000000 DUP2 MSTORE PUSH1 0x4 ADD PUSH2 0xD8C SWAP1 PUSH2 0x2218 JUMP JUMPDEST PUSH1 0x40 MLOAD DUP1 SWAP2 SUB SWAP1 REVERT JUMPDEST PUSH2 0xDAE DUP2 PUSH1 0x4 ADD PUSH0 SWAP1 SLOAD SWAP1 PUSH2 0x100 EXP SWAP1 DIV PUSH1 0xFF AND PUSH2 0x1516 JUMP JUMPDEST PUSH0 ADD MLOAD DUP2 PUSH1 0x3 ADD DUP2 SWAP1 SSTORE POP PUSH0 DUP2 PUSH1 0x2 ADD DUP2 SWAP1 SSTORE POP PUSH0 DUP2 PUSH1 0x6 ADD PUSH0 PUSH2 0x100 EXP DUP2 SLOAD DUP2 PUSH1 0xFF MUL NOT AND SWAP1 DUP4 ISZERO ISZERO MUL OR SWAP1 SSTORE POP PUSH0 DUP2 PUSH1 0x7 ADD DUP2 SWAP1 SSTORE POP TIMESTAMP DUP2 PUSH1 0x5 ADD DUP2 SWAP1 SSTORE POP POP POP JUMP JUMPDEST PUSH1 0x2 PUSH0 SWAP1 SLOAD SWAP1 PUSH2 0x100 EXP SWAP1 DIV PUSH20 0xFFFFFFFFFFFFFFFFFFFFFFFFFFFFFFFFFFFFFFFF AND PUSH20 0xFFFFFFFFFFFFFFFFFFFFFFFFFFFFFFFFFFFFFFFF AND CALLER PUSH20 0xFFFFFFFFFFFFFFFFFFFFFFFFFFFFFFFFFFFFFFFF AND EQ PUSH2 0xE82 JUMPI PUSH1 0x40 MLOAD PUSH32 0x8C379A000000000000000000000000000000000000000000000000000000000 DUP2 MSTORE PUSH1 0x4 ADD PUSH2 0xE79 SWAP1 PUSH2 0x1FD1 JUMP JUMPDEST PUSH1 0x40 MLOAD DUP1 SWAP2 SUB SWAP1 REVERT JUMPDEST ORIGIN PUSH20 0xFFFFFFFFFFFFFFFFFFFFFFFFFFFFFFFFFFFFFFFF AND PUSH1 0x4 PUSH0 DUP5 DUP2 MSTORE PUSH1 0x20 ADD SWAP1 DUP2 MSTORE PUSH1 0x20 ADD PUSH0 KECCAK256 PUSH0 SWAP1 SLOAD SWAP1 PUSH2 0x100 EXP SWAP1 DIV PUSH20 0xFFFFFFFFFFFFFFFFFFFFFFFFFFFFFFFFFFFFFFFF AND PUSH20 0xFFFFFFFFFFFFFFFFFFFFFFFFFFFFFFFFFFFFFFFF AND EQ PUSH2 0xF20 JUMPI PUSH1 0x40 MLOAD PUSH32 0x8C379A000000000000000000000000000000000000000000000000000000000 DUP2 MSTORE PUSH1 0x4 ADD PUSH2 0xF17 SWAP1 PUSH2 0x2280 JUMP JUMPDEST PUSH1 0x40 MLOAD DUP1 SWAP2 SUB SWAP1 REVERT JUMPDEST PUSH0 PUSH20 0xFFFFFFFFFFFFFFFFFFFFFFFFFFFFFFFFFFFFFFFF AND DUP2 PUSH20 0xFFFFFFFFFFFFFFFFFFFFFFFFFFFFFFFFFFFFFFFF AND SUB PUSH2 0xF8E JUMPI PUSH1 0x40 MLOAD PUSH32 0x8C379A000000000000000000000000000000000000000000000000000000000 DUP2 MSTORE PUSH1 0x4 ADD PUSH2 0xF85 SWAP1 PUSH2 0x22E8 JUMP JUMPDEST PUSH1 0x40 MLOAD DUP1 SWAP2 SUB SWAP1 REVERT JUMPDEST DUP1 PUSH1 0x4 PUSH0 DUP5 DUP2 MSTORE PUSH1 0x20 ADD SWAP1 DUP2 MSTORE PUSH1 0x20 ADD PUSH0 KECCAK256 PUSH0 PUSH2 0x100 EXP DUP2 SLOAD DUP2 PUSH20 0xFFFFFFFFFFFFFFFFFFFFFFFFFFFFFFFFFFFFFFFF MUL NOT AND SWAP1 DUP4 PUSH20 0xFFFFFFFFFFFFFFFFFFFFFFFFFFFFFFFFFFFFFFFF AND MUL OR SWAP1 SSTORE POP POP POP JUMP JUMPDEST PUSH0 PUSH0 PUSH0 DUP4 DUP2 MSTORE PUSH1 0x20 ADD SWAP1 DUP2 MSTORE PUSH1 0x20 ADD PUSH0 KECCAK256 SWAP1 POP DUP1 PUSH1 0x6 ADD PUSH0 SWAP1 SLOAD SWAP1 PUSH2 0x100 EXP SWAP1 DIV PUSH1 0xFF AND ISZERO PUSH2 0x1010 JUMPI POP PUSH2 0x1155 JUMP JUMPDEST PUSH0 DUP2 PUSH1 0x5 ADD SLOAD TIMESTAMP PUSH2 0x1021 SWAP2 SWAP1 PUSH2 0x20EC JUMP JUMPDEST SWAP1 POP PUSH0 DUP2 GT ISZERO PUSH2 0x1152 JUMPI PUSH0 PUSH2 0x1045 DUP4 PUSH1 0x4 ADD PUSH0 SWAP1 SLOAD SWAP1 PUSH2 0x100 EXP SWAP1 DIV PUSH1 0xFF AND PUSH2 0x1516 JUMP JUMPDEST SWAP1 POP PUSH0 PUSH2 0xE10 DUP3 PUSH1 0x40 ADD MLOAD DUP5 PUSH2 0x105B SWAP2 SWAP1 PUSH2 0x2306 JUMP JUMPDEST PUSH2 0x1065 SWAP2 SWAP1 PUSH2 0x2374 JUMP JUMPDEST SWAP1 POP DUP1 DUP5 PUSH1 0x2 ADD PUSH0 DUP3 DUP3 SLOAD PUSH2 0x107A SWAP2 SWAP1 PUSH2 0x23A4 JUMP JUMPDEST SWAP3 POP POP DUP2 SWAP1 SSTORE POP DUP2 PUSH1 0x20 ADD MLOAD DUP5 PUSH1 0x2 ADD SLOAD GT ISZERO PUSH2 0x1110 JUMPI PUSH0 DUP3 PUSH1 0x20 ADD MLOAD DUP6 PUSH1 0x2 ADD SLOAD PUSH2 0x10A6 SWAP2 SWAP1 PUSH2 0x20EC JUMP JUMPDEST SWAP1 POP DUP3 PUSH1 0x20 ADD MLOAD DUP6 PUSH1 0x2 ADD DUP2 SWAP1 SSTORE POP DUP1 DUP6 PUSH1 0x3 ADD SLOAD GT PUSH2 0x10F3 JUMPI PUSH0 DUP6 PUSH1 0x3 ADD DUP2 SWAP1 SSTORE POP PUSH1 0x1 DUP6 PUSH1 0x6 ADD PUSH0 PUSH2 0x100 EXP DUP2 SLOAD DUP2 PUSH1 0xFF MUL NOT AND SWAP1 DUP4 ISZERO ISZERO MUL OR SWAP1 SSTORE POP TIMESTAMP DUP6 PUSH1 0x7 ADD DUP2 SWAP1 SSTORE POP PUSH2 0x110E JUMP JUMPDEST DUP1 DUP6 PUSH1 0x3 ADD PUSH0 DUP3 DUP3 SLOAD PUSH2 0x1106 SWAP2 SWAP1 PUSH2 0x20EC JUMP JUMPDEST SWAP3 POP POP DUP2 SWAP1 SSTORE POP JUMPDEST POP JUMPDEST PUSH0 PUSH3 0x15180 DUP5 PUSH2 0x1120 SWAP2 SWAP1 PUSH2 0x2374 JUMP JUMPDEST SWAP1 POP PUSH0 DUP2 GT ISZERO PUSH2 0x1145 JUMPI DUP1 DUP6 PUSH1 0x1 ADD PUSH0 DUP3 DUP3 SLOAD PUSH2 0x113D SWAP2 SWAP1 PUSH2 0x23A4 JUMP JUMPDEST SWAP3 POP POP DUP2 SWAP1 SSTORE POP JUMPDEST TIMESTAMP DUP6 PUSH1 0x5 ADD DUP2 SWAP1 SSTORE POP POP POP POP JUMPDEST POP POP JUMPDEST POP JUMP JUMPDEST PUSH0 PUSH0 PUSH0 SWAP1 POP JUMPDEST PUSH1 0x1 SLOAD DUP2 LT ISZERO PUSH2 0x121E JUMPI PUSH0 PUSH0 DUP3 DUP2 MSTORE PUSH1 0x20 ADD SWAP1 DUP2 MSTORE PUSH1 0x20 ADD PUSH0 KECCAK256 PUSH0 ADD PUSH0 SWAP1 SLOAD SWAP1 PUSH2 0x100 EXP SWAP1 DIV PUSH1 0xFF AND DUP1 ISZERO PUSH2 0x11AF JUMPI POP PUSH0 PUSH0 DUP3 DUP2 MSTORE PUSH1 0x20 ADD SWAP1 DUP2 MSTORE PUSH1 0x20 ADD PUSH0 KECCAK256 PUSH1 0x6 ADD PUSH0 SWAP1 SLOAD SWAP1 PUSH2 0x100 EXP SWAP1 DIV PUSH1 0xFF AND JUMPDEST DUP1 ISZERO PUSH2 0x11FD JUMPI POP DUP3 PUSH1 0xA DUP2 GT ISZERO PUSH2 0x11C9 JUMPI PUSH2 0x11C8 PUSH2 0x1D01 JUMP JUMPDEST JUMPDEST PUSH0 PUSH0 DUP4 DUP2 MSTORE PUSH1 0x20 ADD SWAP1 DUP2 MSTORE PUSH1 0x20 ADD PUSH0 KECCAK256 PUSH1 0x4 ADD PUSH0 SWAP1 SLOAD SWAP1 PUSH2 0x100 EXP SWAP1 DIV PUSH1 0xFF AND PUSH1 0xA DUP2 GT ISZERO PUSH2 0x11FB JUMPI PUSH2 0x11FA PUSH2 0x1D01 JUMP JUMPDEST JUMPDEST EQ JUMPDEST ISZERO PUSH2 0x1211 JUMPI DUP2 DUP1 PUSH2 0x120D SWAP1 PUSH2 0x211F JUMP JUMPDEST SWAP3 POP POP JUMPDEST DUP1 DUP1 PUSH1 0x1 ADD SWAP2 POP POP PUSH2 0x115E JUMP JUMPDEST POP SWAP2 SWAP1 POP JUMP JUMPDEST PUSH1 0x2 PUSH0 SWAP1 SLOAD SWAP1 PUSH2 0x100 EXP SWAP1 DIV PUSH20 0xFFFFFFFFFFFFFFFFFFFFFFFFFFFFFFFFFFFFFFFF AND PUSH20 0xFFFFFFFFFFFFFFFFFFFFFFFFFFFFFFFFFFFFFFFF AND CALLER PUSH20 0xFFFFFFFFFFFFFFFFFFFFFFFFFFFFFFFFFFFFFFFF AND EQ PUSH2 0x12B3 JUMPI PUSH1 0x40 MLOAD PUSH32 0x8C379A000000000000000000000000000000000000000000000000000000000 DUP2 MSTORE PUSH1 0x4 ADD PUSH2 0x12AA SWAP1 PUSH2 0x1FD1 JUMP JUMPDEST PUSH1 0x40 MLOAD DUP1 SWAP2 SUB SWAP1 REVERT JUMPDEST PUSH0 PUSH0 PUSH0 DUP4 DUP2 MSTORE PUSH1 0x20 ADD SWAP1 DUP2 MSTORE PUSH1 0x20 ADD PUSH0 KECCAK256 SWAP1 POP DUP1 PUSH0 ADD PUSH0 SWAP1 SLOAD SWAP1 PUSH2 0x100 EXP SWAP1 DIV PUSH1 0xFF AND PUSH2 0x1315 JUMPI PUSH1 0x40 MLOAD PUSH32 0x8C379A000000000000000000000000000000000000000000000000000000000 DUP2 MSTORE PUSH1 0x4 ADD PUSH2 0x130C SWAP1 PUSH2 0x2039 JUMP JUMPDEST PUSH1 0x40 MLOAD DUP1 SWAP2 SUB SWAP1 REVERT JUMPDEST DUP1 PUSH1 0x6 ADD PUSH0 SWAP1 SLOAD SWAP1 PUSH2 0x100 EXP SWAP1 DIV PUSH1 0xFF AND ISZERO PUSH2 0x1366 JUMPI PUSH1 0x40 MLOAD PUSH32 0x8C379A000000000000000000000000000000000000000000000000000000000 DUP2 MSTORE PUSH1 0x4 ADD PUSH2 0x135D SWAP1 PUSH2 0x2447 JUMP JUMPDEST PUSH1 0x40 MLOAD DUP1 SWAP2 SUB SWAP1 REVERT JUMPDEST PUSH2 0x137F DUP2 PUSH1 0x4 ADD PUSH0 SWAP1 SLOAD SWAP1 PUSH2 0x100 EXP SWAP1 DIV PUSH1 0xFF AND PUSH2 0x1516 JUMP JUMPDEST PUSH0 ADD MLOAD DUP2 PUSH1 0x3 ADD DUP2 SWAP1 SSTORE POP POP POP JUMP JUMPDEST PUSH0 PUSH1 0x20 MSTORE DUP1 PUSH0 MSTORE PUSH1 0x40 PUSH0 KECCAK256 PUSH0 SWAP2 POP SWAP1 POP DUP1 PUSH0 ADD PUSH0 SWAP1 SLOAD SWAP1 PUSH2 0x100 EXP SWAP1 DIV PUSH1 0xFF AND SWAP1 DUP1 PUSH1 0x1 ADD SLOAD SWAP1 DUP1 PUSH1 0x2 ADD SLOAD SWAP1 DUP1 PUSH1 0x3 ADD SLOAD SWAP1 DUP1 PUSH1 0x4 ADD PUSH0 SWAP1 SLOAD SWAP1 PUSH2 0x100 EXP SWAP1 DIV PUSH1 0xFF AND SWAP1 DUP1 PUSH1 0x5 ADD SLOAD SWAP1 DUP1 PUSH1 0x6 ADD PUSH0 SWAP1 SLOAD SWAP1 PUSH2 0x100 EXP SWAP1 DIV PUSH1 0xFF AND SWAP1 DUP1 PUSH1 0x7 ADD SLOAD SWAP1 POP DUP9 JUMP JUMPDEST PUSH0 PUSH1 0x1 SLOAD SWAP1 POP SWAP1 JUMP JUMPDEST PUSH1 0x60 PUSH0 PUSH0 PUSH0 DUP5 DUP2 MSTORE PUSH1 0x20 ADD SWAP1 DUP2 MSTORE PUSH1 0x20 ADD PUSH0 KECCAK256 SWAP1 POP PUSH2 0x142C DUP2 PUSH1 0x4 ADD PUSH0 SWAP1 SLOAD SWAP1 PUSH2 0x100 EXP SWAP1 DIV PUSH1 0xFF AND PUSH2 0x1516 JUMP JUMPDEST PUSH1 0x80 ADD MLOAD SWAP2 POP POP SWAP2 SWAP1 POP JUMP JUMPDEST PUSH2 0x1440 PUSH2 0x1AC2 JUMP JUMPDEST PUSH0 PUSH0 PUSH0 DUP5 DUP2 MSTORE PUSH1 0x20 ADD SWAP1 DUP2 MSTORE PUSH1 0x20 ADD PUSH0 KECCAK256 SWAP1 POP PUSH2 0x146C DUP2 PUSH1 0x4 ADD PUSH0 SWAP1 SLOAD SWAP1 PUSH2 0x100 EXP SWAP1 DIV PUSH1 0xFF AND PUSH2 0x1516 JUMP JUMPDEST SWAP2 POP PUSH1 0x3 PUSH0 DUP5 DUP2 MSTORE PUSH1 0x20 ADD SWAP1 DUP2 MSTORE PUSH1 0x20 ADD PUSH0 KECCAK256 PUSH0 SWAP1 SLOAD SWAP1 PUSH2 0x100 EXP SWAP1 DIV PUSH1 0xFF AND PUSH2 0x1511 JUMPI PUSH0 PUSH2 0x14AA DUP3 PUSH1 0x4 ADD PUSH0 SWAP1 SLOAD SWAP1 PUSH2 0x100 EXP SWAP1 DIV PUSH1 0xFF AND PUSH2 0x1516 JUMP JUMPDEST PUSH1 0x60 ADD MLOAD SWAP1 POP PUSH0 PUSH1 0x64 TIMESTAMP DUP7 PUSH1 0x40 MLOAD PUSH1 0x20 ADD PUSH2 0x14C6 SWAP3 SWAP2 SWAP1 PUSH2 0x2485 JUMP JUMPDEST PUSH1 0x40 MLOAD PUSH1 0x20 DUP2 DUP4 SUB SUB DUP2 MSTORE SWAP1 PUSH1 0x40 MSTORE DUP1 MLOAD SWAP1 PUSH1 0x20 ADD KECCAK256 PUSH0 SHR PUSH2 0x14E8 SWAP2 SWAP1 PUSH2 0x24B0 JUMP JUMPDEST SWAP1 POP DUP2 DUP2 LT ISZERO PUSH2 0x150E JUMPI PUSH1 0x19 DUP4 PUSH1 0x3 ADD PUSH0 DUP3 DUP3 SLOAD PUSH2 0x1506 SWAP2 SWAP1 PUSH2 0x20EC JUMP JUMPDEST SWAP3 POP POP DUP2 SWAP1 SSTORE POP JUMPDEST POP POP JUMPDEST POP POP POP JUMP JUMPDEST PUSH2 0x151E PUSH2 0x1AC2 JUMP JUMPDEST PUSH0 PUSH1 0xA DUP2 GT ISZERO PUSH2 0x1531 JUMPI PUSH2 0x1530 PUSH2 0x1D01 JUMP JUMPDEST JUMPDEST DUP3 PUSH1 0xA DUP2 GT ISZERO PUSH2 0x1544 JUMPI PUSH2 0x1543 PUSH2 0x1D01 JUMP JUMPDEST JUMPDEST SUB PUSH2 0x1593 JUMPI PUSH1 0x40 MLOAD DUP1 PUSH1 0xA0 ADD PUSH1 0x40 MSTORE DUP1 PUSH1 0xC8 DUP2 MSTORE PUSH1 0x20 ADD PUSH1 0x96 DUP2 MSTORE PUSH1 0x20 ADD PUSH1 0x3 DUP2 MSTORE PUSH1 0x20 ADD PUSH1 0x1 DUP2 MSTORE PUSH1 0x20 ADD PUSH1 0x40 MLOAD DUP1 PUSH1 0x80 ADD PUSH1 0x40 MSTORE DUP1 PUSH1 0x5D DUP2 MSTORE PUSH1 0x20 ADD PUSH2 0x25A6 PUSH1 0x5D SWAP2 CODECOPY DUP2 MSTORE POP SWAP1 POP PUSH2 0x1A6A JUMP JUMPDEST PUSH1 0x1 PUSH1 0xA DUP2 GT ISZERO PUSH2 0x15A7 JUMPI PUSH2 0x15A6 PUSH2 0x1D01 JUMP JUMPDEST JUMPDEST DUP3 PUSH1 0xA DUP2 GT ISZERO PUSH2 0x15BA JUMPI PUSH2 0x15B9 PUSH2 0x1D01 JUMP JUMPDEST JUMPDEST SUB PUSH2 0x1609 JUMPI PUSH1 0x40 MLOAD DUP1 PUSH1 0xA0 ADD PUSH1 0x40 MSTORE DUP1 PUSH1 0xDC DUP2 MSTORE PUSH1 0x20 ADD PUSH1 0xC8 DUP2 MSTORE PUSH1 0x20 ADD PUSH1 0x2 DUP2 MSTORE PUSH1 0x20 ADD PUSH1 0x5 DUP2 MSTORE PUSH1 0x20 ADD PUSH1 0x40 MLOAD DUP1 PUSH1 0x80 ADD PUSH1 0x40 MSTORE DUP1 PUSH1 0x5D DUP2 MSTORE PUSH1 0x20 ADD PUSH2 0x27D4 PUSH1 0x5D SWAP2 CODECOPY DUP2 MSTORE POP SWAP1 POP PUSH2 0x1A6A JUMP JUMPDEST PUSH1 0x2 PUSH1 0xA DUP2 GT ISZERO PUSH2 0x161D JUMPI PUSH2 0x161C PUSH2 0x1D01 JUMP JUMPDEST JUMPDEST DUP3 PUSH1 0xA DUP2 GT ISZERO PUSH2 0x1630 JUMPI PUSH2 0x162F PUSH2 0x1D01 JUMP JUMPDEST JUMPDEST SUB PUSH2 0x167F JUMPI PUSH1 0x40 MLOAD DUP1 PUSH1 0xA0 ADD PUSH1 0x40 MSTORE DUP1 PUSH1 0x50 DUP2 MSTORE PUSH1 0x20 ADD PUSH1 0x50 DUP2 MSTORE PUSH1 0x20 ADD PUSH1 0x3 DUP2 MSTORE PUSH1 0x20 ADD PUSH1 0x6 DUP2 MSTORE PUSH1 0x20 ADD PUSH1 0x40 MLOAD DUP1 PUSH1 0x80 ADD PUSH1 0x40 MSTORE DUP1 PUSH1 0x5D DUP2 MSTORE PUSH1 0x20 ADD PUSH2 0x2660 PUSH1 0x5D SWAP2 CODECOPY DUP2 MSTORE POP SWAP1 POP PUSH2 0x1A6A JUMP JUMPDEST PUSH1 0xA DUP1 DUP2 GT ISZERO PUSH2 0x1692 JUMPI PUSH2 0x1691 PUSH2 0x1D01 JUMP JUMPDEST JUMPDEST DUP3 PUSH1 0xA DUP2 GT ISZERO PUSH2 0x16A5 JUMPI PUSH2 0x16A4 PUSH2 0x1D01 JUMP JUMPDEST JUMPDEST SUB PUSH2 0x16F5 JUMPI PUSH1 0x40 MLOAD DUP1 PUSH1 0xA0 ADD PUSH1 0x40 MSTORE DUP1 PUSH2 0x12C DUP2 MSTORE PUSH1 0x20 ADD PUSH2 0x12C DUP2 MSTORE PUSH1 0x20 ADD PUSH1 0x1 DUP2 MSTORE PUSH1 0x20 ADD PUSH0 DUP2 MSTORE PUSH1 0x20 ADD PUSH1 0x40 MLOAD DUP1 PUSH1 0x80 ADD PUSH1 0x40 MSTORE DUP1 PUSH1 0x5D DUP2 MSTORE PUSH1 0x20 ADD PUSH2 0x28EB PUSH1 0x5D SWAP2 CODECOPY DUP2 MSTORE POP SWAP1 POP PUSH2 0x1A6A JUMP JUMPDEST PUSH1 0x3 PUSH1 0xA DUP2 GT ISZERO PUSH2 0x1709 JUMPI PUSH2 0x1708 PUSH2 0x1D01 JUMP JUMPDEST JUMPDEST DUP3 PUSH1 0xA DUP2 GT ISZERO PUSH2 0x171C JUMPI PUSH2 0x171B PUSH2 0x1D01 JUMP JUMPDEST JUMPDEST SUB PUSH2 0x176B JUMPI PUSH1 0x40 MLOAD DUP1 PUSH1 0xA0 ADD PUSH1 0x40 MSTORE DUP1 PUSH1 0xB4 DUP2 MSTORE PUSH1 0x20 ADD PUSH1 0x5A DUP2 MSTORE PUSH1 0x20 ADD PUSH1 0x2 DUP2 MSTORE PUSH1 0x20 ADD PUSH1 0x4 DUP2 MSTORE PUSH1 0x20 ADD PUSH1 0x40 MLOAD DUP1 PUSH1 0x80 ADD PUSH1 0x40 MSTORE DUP1 PUSH1 0x5D DUP2 MSTORE PUSH1 0x20 ADD PUSH2 0x2603 PUSH1 0x5D SWAP2 CODECOPY DUP2 MSTORE POP SWAP1 POP PUSH2 0x1A6A JUMP JUMPDEST PUSH1 0x4 PUSH1 0xA DUP2 GT ISZERO PUSH2 0x177F JUMPI PUSH2 0x177E PUSH2 0x1D01 JUMP JUMPDEST JUMPDEST DUP3 PUSH1 0xA DUP2 GT ISZERO PUSH2 0x1792 JUMPI PUSH2 0x1791 PUSH2 0x1D01 JUMP JUMPDEST JUMPDEST SUB PUSH2 0x17E1 JUMPI PUSH1 0x40 MLOAD DUP1 PUSH1 0xA0 ADD PUSH1 0x40 MSTORE DUP1 PUSH1 0x50 DUP2 MSTORE PUSH1 0x20 ADD PUSH1 0x46 DUP2 MSTORE PUSH1 0x20 ADD PUSH1 0x2 DUP2 MSTORE PUSH1 0x20 ADD PUSH1 0x8 DUP2 MSTORE PUSH1 0x20 ADD PUSH1 0x40 MLOAD DUP1 PUSH1 0x80 ADD PUSH1 0x40 MSTORE DUP1 PUSH1 0x5D DUP2 MSTORE PUSH1 0x20 ADD PUSH2 0x2777 PUSH1 0x5D SWAP2 CODECOPY DUP2 MSTORE POP SWAP1 POP PUSH2 0x1A6A JUMP JUMPDEST PUSH1 0x5 PUSH1 0xA DUP2 GT ISZERO PUSH2 0x17F5 JUMPI PUSH2 0x17F4 PUSH2 0x1D01 JUMP JUMPDEST JUMPDEST DUP3 PUSH1 0xA DUP2 GT ISZERO PUSH2 0x1808 JUMPI PUSH2 0x1807 PUSH2 0x1D01 JUMP JUMPDEST JUMPDEST SUB PUSH2 0x1857 JUMPI PUSH1 0x40 MLOAD DUP1 PUSH1 0xA0 ADD PUSH1 0x40 MSTORE DUP1 PUSH1 0x32 DUP2 MSTORE PUSH1 0x20 ADD PUSH1 0x3C DUP2 MSTORE PUSH1 0x20 ADD PUSH1 0x4 DUP2 MSTORE PUSH1 0x20 ADD PUSH1 0x5 DUP2 MSTORE PUSH1 0x20 ADD PUSH1 0x40 MLOAD DUP1 PUSH1 0x80 ADD PUSH1 0x40 MSTORE DUP1 PUSH1 0x5D DUP2 MSTORE PUSH1 0x20 ADD PUSH2 0x2831 PUSH1 0x5D SWAP2 CODECOPY DUP2 MSTORE POP SWAP1 POP PUSH2 0x1A6A JUMP JUMPDEST PUSH1 0x6 PUSH1 0xA DUP2 GT ISZERO PUSH2 0x186B JUMPI PUSH2 0x186A PUSH2 0x1D01 JUMP JUMPDEST JUMPDEST DUP3 PUSH1 0xA DUP2 GT ISZERO PUSH2 0x187E JUMPI PUSH2 0x187D PUSH2 0x1D01 JUMP JUMPDEST JUMPDEST SUB PUSH2 0x18CD JUMPI PUSH1 0x40 MLOAD DUP1 PUSH1 0xA0 ADD PUSH1 0x40 MSTORE DUP1 PUSH1 0x37 DUP2 MSTORE PUSH1 0x20 ADD PUSH1 0x28 DUP2 MSTORE PUSH1 0x20 ADD PUSH1 0x3 DUP2 MSTORE PUSH1 0x20 ADD PUSH1 0x4 DUP2 MSTORE PUSH1 0x20 ADD PUSH1 0x40 MLOAD DUP1 PUSH1 0x80 ADD PUSH1 0x40 MSTORE DUP1 PUSH1 0x5D DUP2 MSTORE PUSH1 0x20 ADD PUSH2 0x288E PUSH1 0x5D SWAP2 CODECOPY DUP2 MSTORE POP SWAP1 POP PUSH2 0x1A6A JUMP JUMPDEST PUSH1 0x7 PUSH1 0xA DUP2 GT ISZERO PUSH2 0x18E1 JUMPI PUSH2 0x18E0 PUSH2 0x1D01 JUMP JUMPDEST JUMPDEST DUP3 PUSH1 0xA DUP2 GT ISZERO PUSH2 0x18F4 JUMPI PUSH2 0x18F3 PUSH2 0x1D01 JUMP JUMPDEST JUMPDEST SUB PUSH2 0x1943 JUMPI PUSH1 0x40 MLOAD DUP1 PUSH1 0xA0 ADD PUSH1 0x40 MSTORE DUP1 PUSH1 0x4E DUP2 MSTORE PUSH1 0x20 ADD PUSH1 0x41 DUP2 MSTORE PUSH1 0x20 ADD PUSH1 0x2 DUP2 MSTORE PUSH1 0x20 ADD PUSH1 0x4 DUP2 MSTORE PUSH1 0x20 ADD PUSH1 0x40 MLOAD DUP1 PUSH1 0x80 ADD PUSH1 0x40 MSTORE DUP1 PUSH1 0x5D DUP2 MSTORE PUSH1 0x20 ADD PUSH2 0x2549 PUSH1 0x5D SWAP2 CODECOPY DUP2 MSTORE POP SWAP1 POP PUSH2 0x1A6A JUMP JUMPDEST PUSH1 0x8 PUSH1 0xA DUP2 GT ISZERO PUSH2 0x1957 JUMPI PUSH2 0x1956 PUSH2 0x1D01 JUMP JUMPDEST JUMPDEST DUP3 PUSH1 0xA DUP2 GT ISZERO PUSH2 0x196A JUMPI PUSH2 0x1969 PUSH2 0x1D01 JUMP JUMPDEST JUMPDEST SUB PUSH2 0x19B9 JUMPI PUSH1 0x40 MLOAD DUP1 PUSH1 0xA0 ADD PUSH1 0x40 MSTORE DUP1 PUSH1 0x96 DUP2 MSTORE PUSH1 0x20 ADD PUSH1 0x64 DUP2 MSTORE PUSH1 0x20 ADD PUSH1 0x4 DUP2 MSTORE PUSH1 0x20 ADD PUSH1 0x3 DUP2 MSTORE PUSH1 0x20 ADD PUSH1 0x40 MLOAD DUP1 PUSH1 0x80 ADD PUSH1 0x40 MSTORE DUP1 PUSH1 0x5D DUP2 MSTORE PUSH1 0x20 ADD PUSH2 0x271A PUSH1 0x5D SWAP2 CODECOPY DUP2 MSTORE POP SWAP1 POP PUSH2 0x1A6A JUMP JUMPDEST PUSH1 0x9 PUSH1 0xA DUP2 GT ISZERO PUSH2 0x19CD JUMPI PUSH2 0x19CC PUSH2 0x1D01 JUMP JUMPDEST JUMPDEST DUP3 PUSH1 0xA DUP2 GT ISZERO PUSH2 0x19E0 JUMPI PUSH2 0x19DF PUSH2 0x1D01 JUMP JUMPDEST JUMPDEST SUB PUSH2 0x1A2F JUMPI PUSH1 0x40 MLOAD DUP1 PUSH1 0xA0 ADD PUSH1 0x40 MSTORE DUP1 PUSH1 0x23 DUP2 MSTORE PUSH1 0x20 ADD PUSH1 0x42 DUP2 MSTORE PUSH1 0x20 ADD PUSH1 0x4 DUP2 MSTORE PUSH1 0x20 ADD PUSH1 0x5 DUP2 MSTORE PUSH1 0x20 ADD PUSH1 0x40 MLOAD DUP1 PUSH1 0x80 ADD PUSH1 0x40 MSTORE DUP1 PUSH1 0x5D DUP2 MSTORE PUSH1 0x20 ADD PUSH2 0x26BD PUSH1 0x5D SWAP2 CODECOPY DUP2 MSTORE POP SWAP1 POP PUSH2 0x1A6A JUMP JUMPDEST PUSH1 0x40 MLOAD PUSH32 0x8C379A000000000000000000000000000000000000000000000000000000000 DUP2 MSTORE PUSH1 0x4 ADD PUSH2 0x1A61 SWAP1 PUSH2 0x252A JUMP JUMPDEST PUSH1 0x40 MLOAD DUP1 SWAP2 SUB SWAP1 REVERT JUMPDEST SWAP2 SWAP1 POP JUMP JUMPDEST PUSH1 0x40 MLOAD DUP1 PUSH2 0x100 ADD PUSH1 0x40 MSTORE DUP1 PUSH0 ISZERO ISZERO DUP2 MSTORE PUSH1 0x20 ADD PUSH0 DUP2 MSTORE PUSH1 0x20 ADD PUSH0 DUP2 MSTORE PUSH1 0x20 ADD PUSH0 DUP2 MSTORE PUSH1 0x20 ADD PUSH0 PUSH1 0xA DUP2 GT ISZERO PUSH2 0x1AA8 JUMPI PUSH2 0x1AA7 PUSH2 0x1D01 JUMP JUMPDEST JUMPDEST DUP2 MSTORE PUSH1 0x20 ADD PUSH0 DUP2 MSTORE PUSH1 0x20 ADD PUSH0 ISZERO ISZERO DUP2 MSTORE PUSH1 0x20 ADD PUSH0 DUP2 MSTORE POP SWAP1 JUMP JUMPDEST PUSH1 0x40 MLOAD DUP1 PUSH1 0xA0 ADD PUSH1 0x40 MSTORE DUP1 PUSH0 DUP2 MSTORE PUSH1 0x20 ADD PUSH0 DUP2 MSTORE PUSH1 0x20 ADD PUSH0 DUP2 MSTORE PUSH1 0x20 ADD PUSH0 DUP2 MSTORE PUSH1 0x20 ADD PUSH1 0x60 DUP2 MSTORE POP SWAP1 JUMP JUMPDEST PUSH0 PUSH0 REVERT JUMPDEST PUSH0 DUP2 SWAP1 POP SWAP2 SWAP1 POP JUMP JUMPDEST PUSH2 0x1B03 DUP2 PUSH2 0x1AF1 JUMP JUMPDEST DUP2 EQ PUSH2 0x1B0D JUMPI PUSH0 PUSH0 REVERT JUMPDEST POP JUMP JUMPDEST PUSH0 DUP2 CALLDATALOAD SWAP1 POP PUSH2 0x1B1E DUP2 PUSH2 0x1AFA JUMP JUMPDEST SWAP3 SWAP2 POP POP JUMP JUMPDEST PUSH0 PUSH1 0x20 DUP3 DUP5 SUB SLT ISZERO PUSH2 0x1B39 JUMPI PUSH2 0x1B38 PUSH2 0x1AED JUMP JUMPDEST JUMPDEST PUSH0 PUSH2 0x1B46 DUP5 DUP3 DUP6 ADD PUSH2 0x1B10 JUMP JUMPDEST SWAP2 POP POP SWAP3 SWAP2 POP POP JUMP JUMPDEST PUSH0 DUP2 ISZERO ISZERO SWAP1 POP SWAP2 SWAP1 POP JUMP JUMPDEST PUSH2 0x1B63 DUP2 PUSH2 0x1B4F JUMP JUMPDEST DUP3 MSTORE POP POP JUMP JUMPDEST PUSH0 PUSH1 0x20 DUP3 ADD SWAP1 POP PUSH2 0x1B7C PUSH0 DUP4 ADD DUP5 PUSH2 0x1B5A JUMP JUMPDEST SWAP3 SWAP2 POP POP JUMP JUMPDEST PUSH0 PUSH0 PUSH1 0x40 DUP4 DUP6 SUB SLT ISZERO PUSH2 0x1B98 JUMPI PUSH2 0x1B97 PUSH2 0x1AED JUMP JUMPDEST JUMPDEST PUSH0 PUSH2 0x1BA5 DUP6 DUP3 DUP7 ADD PUSH2 0x1B10 JUMP JUMPDEST SWAP3 POP POP PUSH1 0x20 PUSH2 0x1BB6 DUP6 DUP3 DUP7 ADD PUSH2 0x1B10 JUMP JUMPDEST SWAP2 POP POP SWAP3 POP SWAP3 SWAP1 POP JUMP JUMPDEST PUSH2 0x1BC9 DUP2 PUSH2 0x1AF1 JUMP JUMPDEST DUP3 MSTORE POP POP JUMP JUMPDEST PUSH0 PUSH1 0x20 DUP3 ADD SWAP1 POP PUSH2 0x1BE2 PUSH0 DUP4 ADD DUP5 PUSH2 0x1BC0 JUMP JUMPDEST SWAP3 SWAP2 POP POP JUMP JUMPDEST PUSH1 0xB DUP2 LT PUSH2 0x1BF4 JUMPI PUSH0 PUSH0 REVERT JUMPDEST POP JUMP JUMPDEST PUSH0 DUP2 CALLDATALOAD SWAP1 POP PUSH2 0x1C05 DUP2 PUSH2 0x1BE8 JUMP JUMPDEST SWAP3 SWAP2 POP POP JUMP JUMPDEST PUSH0 PUSH1 0x20 DUP3 DUP5 SUB SLT ISZERO PUSH2 0x1C20 JUMPI PUSH2 0x1C1F PUSH2 0x1AED JUMP JUMPDEST JUMPDEST PUSH0 PUSH2 0x1C2D DUP5 DUP3 DUP6 ADD PUSH2 0x1BF7 JUMP JUMPDEST SWAP2 POP POP SWAP3 SWAP2 POP POP JUMP JUMPDEST PUSH0 PUSH20 0xFFFFFFFFFFFFFFFFFFFFFFFFFFFFFFFFFFFFFFFF DUP3 AND SWAP1 POP SWAP2 SWAP1 POP JUMP JUMPDEST PUSH0 PUSH2 0x1C5F DUP3 PUSH2 0x1C36 JUMP JUMPDEST SWAP1 POP SWAP2 SWAP1 POP JUMP JUMPDEST PUSH2 0x1C6F DUP2 PUSH2 0x1C55 JUMP JUMPDEST DUP2 EQ PUSH2 0x1C79 JUMPI PUSH0 PUSH0 REVERT JUMPDEST POP JUMP JUMPDEST PUSH0 DUP2 CALLDATALOAD SWAP1 POP PUSH2 0x1C8A DUP2 PUSH2 0x1C66 JUMP JUMPDEST SWAP3 SWAP2 POP POP JUMP JUMPDEST PUSH0 PUSH1 0x20 DUP3 DUP5 SUB SLT ISZERO PUSH2 0x1CA5 JUMPI PUSH2 0x1CA4 PUSH2 0x1AED JUMP JUMPDEST JUMPDEST PUSH0 PUSH2 0x1CB2 DUP5 DUP3 DUP6 ADD PUSH2 0x1C7C JUMP JUMPDEST SWAP2 POP POP SWAP3 SWAP2 POP POP JUMP JUMPDEST PUSH2 0x1CC4 DUP2 PUSH2 0x1C55 JUMP JUMPDEST DUP3 MSTORE POP POP JUMP JUMPDEST PUSH0 PUSH1 0x20 DUP3 ADD SWAP1 POP PUSH2 0x1CDD PUSH0 DUP4 ADD DUP5 PUSH2 0x1CBB JUMP JUMPDEST SWAP3 SWAP2 POP POP JUMP JUMPDEST PUSH2 0x1CEC DUP2 PUSH2 0x1B4F JUMP JUMPDEST DUP3 MSTORE POP POP JUMP JUMPDEST PUSH2 0x1CFB DUP2 PUSH2 0x1AF1 JUMP JUMPDEST DUP3 MSTORE POP POP JUMP JUMPDEST PUSH32 0x4E487B7100000000000000000000000000000000000000000000000000000000 PUSH0 MSTORE PUSH1 0x21 PUSH1 0x4 MSTORE PUSH1 0x24 PUSH0 REVERT JUMPDEST PUSH1 0xB DUP2 LT PUSH2 0x1D3F JUMPI PUSH2 0x1D3E PUSH2 0x1D01 JUMP JUMPDEST JUMPDEST POP JUMP JUMPDEST PUSH0 DUP2 SWAP1 POP PUSH2 0x1D4F DUP3 PUSH2 0x1D2E JUMP JUMPDEST SWAP2 SWAP1 POP JUMP JUMPDEST PUSH0 PUSH2 0x1D5E DUP3 PUSH2 0x1D42 JUMP JUMPDEST SWAP1 POP SWAP2 SWAP1 POP JUMP JUMPDEST PUSH2 0x1D6E DUP2 PUSH2 0x1D54 JUMP JUMPDEST DUP3 MSTORE POP POP JUMP JUMPDEST PUSH2 0x100 DUP3 ADD PUSH0 DUP3 ADD MLOAD PUSH2 0x1D89 PUSH0 DUP6 ADD DUP3 PUSH2 0x1CE3 JUMP JUMPDEST POP PUSH1 0x20 DUP3 ADD MLOAD PUSH2 0x1D9C PUSH1 0x20 DUP6 ADD DUP3 PUSH2 0x1CF2 JUMP JUMPDEST POP PUSH1 0x40 DUP3 ADD MLOAD PUSH2 0x1DAF PUSH1 0x40 DUP6 ADD DUP3 PUSH2 0x1CF2 JUMP JUMPDEST POP PUSH1 0x60 DUP3 ADD MLOAD PUSH2 0x1DC2 PUSH1 0x60 DUP6 ADD DUP3 PUSH2 0x1CF2 JUMP JUMPDEST POP PUSH1 0x80 DUP3 ADD MLOAD PUSH2 0x1DD5 PUSH1 0x80 DUP6 ADD DUP3 PUSH2 0x1D65 JUMP JUMPDEST POP PUSH1 0xA0 DUP3 ADD MLOAD PUSH2 0x1DE8 PUSH1 0xA0 DUP6 ADD DUP3 PUSH2 0x1CF2 JUMP JUMPDEST POP PUSH1 0xC0 DUP3 ADD MLOAD PUSH2 0x1DFB PUSH1 0xC0 DUP6 ADD DUP3 PUSH2 0x1CE3 JUMP JUMPDEST POP PUSH1 0xE0 DUP3 ADD MLOAD PUSH2 0x1E0E PUSH1 0xE0 DUP6 ADD DUP3 PUSH2 0x1CF2 JUMP JUMPDEST POP POP POP POP JUMP JUMPDEST PUSH0 PUSH2 0x100 DUP3 ADD SWAP1 POP PUSH2 0x1E28 PUSH0 DUP4 ADD DUP5 PUSH2 0x1D74 JUMP JUMPDEST SWAP3 SWAP2 POP POP JUMP JUMPDEST PUSH0 PUSH0 PUSH1 0x40 DUP4 DUP6 SUB SLT ISZERO PUSH2 0x1E44 JUMPI PUSH2 0x1E43 PUSH2 0x1AED JUMP JUMPDEST JUMPDEST PUSH0 PUSH2 0x1E51 DUP6 DUP3 DUP7 ADD PUSH2 0x1B10 JUMP JUMPDEST SWAP3 POP POP PUSH1 0x20 PUSH2 0x1E62 DUP6 DUP3 DUP7 ADD PUSH2 0x1C7C JUMP JUMPDEST SWAP2 POP POP SWAP3 POP SWAP3 SWAP1 POP JUMP JUMPDEST PUSH2 0x1E75 DUP2 PUSH2 0x1D54 JUMP JUMPDEST DUP3 MSTORE POP POP JUMP JUMPDEST PUSH0 PUSH2 0x100 DUP3 ADD SWAP1 POP PUSH2 0x1E8F PUSH0 DUP4 ADD DUP12 PUSH2 0x1B5A JUMP JUMPDEST PUSH2 0x1E9C PUSH1 0x20 DUP4 ADD DUP11 PUSH2 0x1BC0 JUMP JUMPDEST PUSH2 0x1EA9 PUSH1 0x40 DUP4 ADD DUP10 PUSH2 0x1BC0 JUMP JUMPDEST PUSH2 0x1EB6 PUSH1 0x60 DUP4 ADD DUP9 PUSH2 0x1BC0 JUMP JUMPDEST PUSH2 0x1EC3 PUSH1 0x80 DUP4 ADD DUP8 PUSH2 0x1E6C JUMP JUMPDEST PUSH2 0x1ED0 PUSH1 0xA0 DUP4 ADD DUP7 PUSH2 0x1BC0 JUMP JUMPDEST PUSH2 0x1EDD PUSH1 0xC0 DUP4 ADD DUP6 PUSH2 0x1B5A JUMP JUMPDEST PUSH2 0x1EEA PUSH1 0xE0 DUP4 ADD DUP5 PUSH2 0x1BC0 JUMP JUMPDEST SWAP10 SWAP9 POP POP POP POP POP POP POP POP POP JUMP JUMPDEST PUSH0 DUP2 MLOAD SWAP1 POP SWAP2 SWAP1 POP JUMP JUMPDEST PUSH0 DUP3 DUP3 MSTORE PUSH1 0x20 DUP3 ADD SWAP1 POP SWAP3 SWAP2 POP POP JUMP JUMPDEST DUP3 DUP2 DUP4 MCOPY PUSH0 DUP4 DUP4 ADD MSTORE POP POP POP JUMP JUMPDEST PUSH0 PUSH1 0x1F NOT PUSH1 0x1F DUP4 ADD AND SWAP1 POP SWAP2 SWAP1 POP JUMP JUMPDEST PUSH0 PUSH2 0x1F39 DUP3 PUSH2 0x1EF7 JUMP JUMPDEST PUSH2 0x1F43 DUP2 DUP6 PUSH2 0x1F01 JUMP JUMPDEST SWAP4 POP PUSH2 0x1F53 DUP2 DUP6 PUSH1 0x20 DUP7 ADD PUSH2 0x1F11 JUMP JUMPDEST PUSH2 0x1F5C DUP2 PUSH2 0x1F1F JUMP JUMPDEST DUP5 ADD SWAP2 POP POP SWAP3 SWAP2 POP POP JUMP JUMPDEST PUSH0 PUSH1 0x20 DUP3 ADD SWAP1 POP DUP2 DUP2 SUB PUSH0 DUP4 ADD MSTORE PUSH2 0x1F7F DUP2 DUP5 PUSH2 0x1F2F JUMP JUMPDEST SWAP1 POP SWAP3 SWAP2 POP POP JUMP JUMPDEST PUSH32 0x4F6E6C79205061726B2063616E2063616C6C2074686973000000000000000000 PUSH0 DUP3 ADD MSTORE POP JUMP JUMPDEST PUSH0 PUSH2 0x1FBB PUSH1 0x17 DUP4 PUSH2 0x1F01 JUMP JUMPDEST SWAP2 POP PUSH2 0x1FC6 DUP3 PUSH2 0x1F87 JUMP JUMPDEST PUSH1 0x20 DUP3 ADD SWAP1 POP SWAP2 SWAP1 POP JUMP JUMPDEST PUSH0 PUSH1 0x20 DUP3 ADD SWAP1 POP DUP2 DUP2 SUB PUSH0 DUP4 ADD MSTORE PUSH2 0x1FE8 DUP2 PUSH2 0x1FAF JUMP JUMPDEST SWAP1 POP SWAP2 SWAP1 POP JUMP JUMPDEST PUSH32 0x54686174206269726420646F65736E2774206578697374000000000000000000 PUSH0 DUP3 ADD MSTORE POP JUMP JUMPDEST PUSH0 PUSH2 0x2023 PUSH1 0x17 DUP4 PUSH2 0x1F01 JUMP JUMPDEST SWAP2 POP PUSH2 0x202E DUP3 PUSH2 0x1FEF JUMP JUMPDEST PUSH1 0x20 DUP3 ADD SWAP1 POP SWAP2 SWAP1 POP JUMP JUMPDEST PUSH0 PUSH1 0x20 DUP3 ADD SWAP1 POP DUP2 DUP2 SUB PUSH0 DUP4 ADD MSTORE PUSH2 0x2050 DUP2 PUSH2 0x2017 JUMP JUMPDEST SWAP1 POP SWAP2 SWAP1 POP JUMP JUMPDEST PUSH32 0x43616E6E6F742066656564206120646561642062697264000000000000000000 PUSH0 DUP3 ADD MSTORE POP JUMP JUMPDEST PUSH0 PUSH2 0x208B PUSH1 0x17 DUP4 PUSH2 0x1F01 JUMP JUMPDEST SWAP2 POP PUSH2 0x2096 DUP3 PUSH2 0x2057 JUMP JUMPDEST PUSH1 0x20 DUP3 ADD SWAP1 POP SWAP2 SWAP1 POP JUMP JUMPDEST PUSH0 PUSH1 0x20 DUP3 ADD SWAP1 POP DUP2 DUP2 SUB PUSH0 DUP4 ADD MSTORE PUSH2 0x20B8 DUP2 PUSH2 0x207F JUMP JUMPDEST SWAP1 POP SWAP2 SWAP1 POP JUMP JUMPDEST PUSH32 0x4E487B7100000000000000000000000000000000000000000000000000000000 PUSH0 MSTORE PUSH1 0x11 PUSH1 0x4 MSTORE PUSH1 0x24 PUSH0 REVERT JUMPDEST PUSH0 PUSH2 0x20F6 DUP3 PUSH2 0x1AF1 JUMP JUMPDEST SWAP2 POP PUSH2 0x2101 DUP4 PUSH2 0x1AF1 JUMP JUMPDEST SWAP3 POP DUP3 DUP3 SUB SWAP1 POP DUP2 DUP2 GT ISZERO PUSH2 0x2119 JUMPI PUSH2 0x2118 PUSH2 0x20BF JUMP JUMPDEST JUMPDEST SWAP3 SWAP2 POP POP JUMP JUMPDEST PUSH0 PUSH2 0x2129 DUP3 PUSH2 0x1AF1 JUMP JUMPDEST SWAP2 POP PUSH32 0xFFFFFFFFFFFFFFFFFFFFFFFFFFFFFFFFFFFFFFFFFFFFFFFFFFFFFFFFFFFFFFFF DUP3 SUB PUSH2 0x215B JUMPI PUSH2 0x215A PUSH2 0x20BF JUMP JUMPDEST JUMPDEST PUSH1 0x1 DUP3 ADD SWAP1 POP SWAP2 SWAP1 POP JUMP JUMPDEST PUSH32 0x5061726B20616C72656164792073657400000000000000000000000000000000 PUSH0 DUP3 ADD MSTORE POP JUMP JUMPDEST PUSH0 PUSH2 0x219A PUSH1 0x10 DUP4 PUSH2 0x1F01 JUMP JUMPDEST SWAP2 POP PUSH2 0x21A5 DUP3 PUSH2 0x2166 JUMP JUMPDEST PUSH1 0x20 DUP3 ADD SWAP1 POP SWAP2 SWAP1 POP JUMP JUMPDEST PUSH0 PUSH1 0x20 DUP3 ADD SWAP1 POP DUP2 DUP2 SUB PUSH0 DUP4 ADD MSTORE PUSH2 0x21C7 DUP2 PUSH2 0x218E JUMP JUMPDEST SWAP1 POP SWAP2 SWAP1 POP JUMP JUMPDEST PUSH32 0x4E6F742064656164000000000000000000000000000000000000000000000000 PUSH0 DUP3 ADD MSTORE POP JUMP JUMPDEST PUSH0 PUSH2 0x2202 PUSH1 0x8 DUP4 PUSH2 0x1F01 JUMP JUMPDEST SWAP2 POP PUSH2 0x220D DUP3 PUSH2 0x21CE JUMP JUMPDEST PUSH1 0x20 DUP3 ADD SWAP1 POP SWAP2 SWAP1 POP JUMP JUMPDEST PUSH0 PUSH1 0x20 DUP3 ADD SWAP1 POP DUP2 DUP2 SUB PUSH0 DUP4 ADD MSTORE PUSH2 0x222F DUP2 PUSH2 0x21F6 JUMP JUMPDEST SWAP1 POP SWAP2 SWAP1 POP JUMP JUMPDEST PUSH32 0x4E6F7420746865206F776E657200000000000000000000000000000000000000 PUSH0 DUP3 ADD MSTORE POP JUMP JUMPDEST PUSH0 PUSH2 0x226A PUSH1 0xD DUP4 PUSH2 0x1F01 JUMP JUMPDEST SWAP2 POP PUSH2 0x2275 DUP3 PUSH2 0x2236 JUMP JUMPDEST PUSH1 0x20 DUP3 ADD SWAP1 POP SWAP2 SWAP1 POP JUMP JUMPDEST PUSH0 PUSH1 0x20 DUP3 ADD SWAP1 POP DUP2 DUP2 SUB PUSH0 DUP4 ADD MSTORE PUSH2 0x2297 DUP2 PUSH2 0x225E JUMP JUMPDEST SWAP1 POP SWAP2 SWAP1 POP JUMP JUMPDEST PUSH32 0x496E76616C696420616464726573730000000000000000000000000000000000 PUSH0 DUP3 ADD MSTORE POP JUMP JUMPDEST PUSH0 PUSH2 0x22D2 PUSH1 0xF DUP4 PUSH2 0x1F01 JUMP JUMPDEST SWAP2 POP PUSH2 0x22DD DUP3 PUSH2 0x229E JUMP JUMPDEST PUSH1 0x20 DUP3 ADD SWAP1 POP SWAP2 SWAP1 POP JUMP JUMPDEST PUSH0 PUSH1 0x20 DUP3 ADD SWAP1 POP DUP2 DUP2 SUB PUSH0 DUP4 ADD MSTORE PUSH2 0x22FF DUP2 PUSH2 0x22C6 JUMP JUMPDEST SWAP1 POP SWAP2 SWAP1 POP JUMP JUMPDEST PUSH0 PUSH2 0x2310 DUP3 PUSH2 0x1AF1 JUMP JUMPDEST SWAP2 POP PUSH2 0x231B DUP4 PUSH2 0x1AF1 JUMP JUMPDEST SWAP3 POP DUP3 DUP3 MUL PUSH2 0x2329 DUP2 PUSH2 0x1AF1 JUMP JUMPDEST SWAP2 POP DUP3 DUP3 DIV DUP5 EQ DUP4 ISZERO OR PUSH2 0x2340 JUMPI PUSH2 0x233F PUSH2 0x20BF JUMP JUMPDEST JUMPDEST POP SWAP3 SWAP2 POP POP JUMP JUMPDEST PUSH32 0x4E487B7100000000000000000000000000000000000000000000000000000000 PUSH0 MSTORE PUSH1 0x12 PUSH1 0x4 MSTORE PUSH1 0x24 PUSH0 REVERT JUMPDEST PUSH0 PUSH2 0x237E DUP3 PUSH2 0x1AF1 JUMP JUMPDEST SWAP2 POP PUSH2 0x2389 DUP4 PUSH2 0x1AF1 JUMP JUMPDEST SWAP3 POP DUP3 PUSH2 0x2399 JUMPI PUSH2 0x2398 PUSH2 0x2347 JUMP JUMPDEST JUMPDEST DUP3 DUP3 DIV SWAP1 POP SWAP3 SWAP2 POP POP JUMP JUMPDEST PUSH0 PUSH2 0x23AE DUP3 PUSH2 0x1AF1 JUMP JUMPDEST SWAP2 POP PUSH2 0x23B9 DUP4 PUSH2 0x1AF1 JUMP JUMPDEST SWAP3 POP DUP3 DUP3 ADD SWAP1 POP DUP1 DUP3 GT ISZERO PUSH2 0x23D1 JUMPI PUSH2 0x23D0 PUSH2 0x20BF JUMP JUMPDEST JUMPDEST SWAP3 SWAP2 POP POP JUMP JUMPDEST PUSH32 0x43616E6E6F74206865616C2061206465616420626972643B2072657669766520 PUSH0 DUP3 ADD MSTORE PUSH32 0x6974206669727374000000000000000000000000000000000000000000000000 PUSH1 0x20 DUP3 ADD MSTORE POP JUMP JUMPDEST PUSH0 PUSH2 0x2431 PUSH1 0x28 DUP4 PUSH2 0x1F01 JUMP JUMPDEST SWAP2 POP PUSH2 0x243C DUP3 PUSH2 0x23D7 JUMP JUMPDEST PUSH1 0x40 DUP3 ADD SWAP1 POP SWAP2 SWAP1 POP JUMP JUMPDEST PUSH0 PUSH1 0x20 DUP3 ADD SWAP1 POP DUP2 DUP2 SUB PUSH0 DUP4 ADD MSTORE PUSH2 0x245E DUP2 PUSH2 0x2425 JUMP JUMPDEST SWAP1 POP SWAP2 SWAP1 POP JUMP JUMPDEST PUSH0 DUP2 SWAP1 POP SWAP2 SWAP1 POP JUMP JUMPDEST PUSH2 0x247F PUSH2 0x247A DUP3 PUSH2 0x1AF1 JUMP JUMPDEST PUSH2 0x2465 JUMP JUMPDEST DUP3 MSTORE POP POP JUMP JUMPDEST PUSH0 PUSH2 0x2490 DUP3 DUP6 PUSH2 0x246E JUMP JUMPDEST PUSH1 0x20 DUP3 ADD SWAP2 POP PUSH2 0x24A0 DUP3 DUP5 PUSH2 0x246E JUMP JUMPDEST PUSH1 0x20 DUP3 ADD SWAP2 POP DUP2 SWAP1 POP SWAP4 SWAP3 POP POP POP JUMP JUMPDEST PUSH0 PUSH2 0x24BA DUP3 PUSH2 0x1AF1 JUMP JUMPDEST SWAP2 POP PUSH2 0x24C5 DUP4 PUSH2 0x1AF1 JUMP JUMPDEST SWAP3 POP DUP3 PUSH2 0x24D5 JUMPI PUSH2 0x24D4 PUSH2 0x2347 JUMP JUMPDEST JUMPDEST DUP3 DUP3 MOD SWAP1 POP SWAP3 SWAP2 POP POP JUMP JUMPDEST PUSH32 0x556E6B6E6F776E20737065636965730000000000000000000000000000000000 PUSH0 DUP3 ADD MSTORE POP JUMP JUMPDEST PUSH0 PUSH2 0x2514 PUSH1 0xF DUP4 PUSH2 0x1F01 JUMP JUMPDEST SWAP2 POP PUSH2 0x251F DUP3 PUSH2 0x24E0 JUMP JUMPDEST PUSH1 0x20 DUP3 ADD SWAP1 POP SWAP2 SWAP1 POP JUMP JUMPDEST PUSH0 PUSH1 0x20 DUP3 ADD SWAP1 POP DUP2 DUP2 SUB PUSH0 DUP4 ADD MSTORE PUSH2 0x2541 DUP2 PUSH2 0x2508 JUMP JUMPDEST SWAP1 POP SWAP2 SWAP1 POP JUMP INVALID PUSH9 0x747470733A2F2F6761 PUSH21 0x657761792E70696E6174612E636C6F75642F697066 PUSH20 0x2F6261666B72656964336D64796D7A736A747564 PUSH14 0x35367A726F766974786F75766773 PUSH11 0x627A7A6B79617273713774 ORIGIN PUSH10 0x32626977796736726874 PUSH18 0x68747470733A2F2F676174657761792E7069 PUSH15 0x6174612E636C6F75642F697066732F PUSH3 0x616679 PUSH3 0x656961 CALLER PUSH13 0x65346173746B6E683270346D62 PUSH12 0x64357734326A353232746E73 PUSH6 0x3477786B3777 CALLDATALOAD PUSH14 0x3777696D6F716470366F757A7079 PUSH9 0x747470733A2F2F6761 PUSH21 0x657761792E70696E6174612E636C6F75642F697066 PUSH20 0x2F6261667962656966786E71727070336166616A PUSH15 0x74726E7779796E75326C63727A766D PUSH5 0x6D73746877 PUSH2 0x6236 PUSH25 0x32776E323377636E62646A6E366D68747470733A2F2F676174 PUSH6 0x7761792E7069 PUSH15 0x6174612E636C6F75642F697066732F PUSH3 0x616679 PUSH3 0x656965 PUSH23 0x377075637A377968377836686169646D7068703569656F PUSH3 0x766366 PUSH5 0x636C6E6C77 PUSH11 0x7161326976733479333537 PUSH17 0x76776D6168747470733A2F2F6761746577 PUSH2 0x792E PUSH17 0x696E6174612E636C6F75642F697066732F PUSH3 0x616679 PUSH3 0x656966 PUSH17 0x616A6269766868656D6A65666769616D6E PUSH23 0x68376F6532376C657874716A376167707A6E6368716575 PUSH11 0x636E343669356361687474 PUSH17 0x733A2F2F676174657761792E70696E6174 PUSH2 0x2E63 PUSH13 0x6F75642F697066732F6261666B PUSH19 0x65696636656E6F32716A6A337863376D656271 PUSH13 0x327336366F6C36797872777837 PUSH8 0x7761767A3434716E ORIGIN PUSH5 0x6C7A33636E PUSH24 0x3766323468747470733A2F2F676174657761792E70696E61 PUSH21 0x612E636C6F75642F697066732F6261667962656962 PUSH4 0x64707A70 PUSH26 0x67366D716165326F676F7775756D796D716D7178623275736E69 PUSH22 0x37356765656A347074723436376F74326E6D68747470 PUSH20 0x3A2F2F676174657761792E70696E6174612E636C PUSH16 0x75642F697066732F6261667962656967 PUSH16 0x686F746F6B366B336F6E76746A797970 PUSH7 0x6E626E7A626373 PUSH16 0x327163697862777A3477683634767032 PUSH15 0x336C71376E6B736168747470733A2F 0x2F PUSH8 0x6174657761792E70 PUSH10 0x6E6174612E636C6F7564 0x2F PUSH10 0x7066732F6261666B7265 PUSH10 0x6461346170737078746E PUSH17 0x6236336F71797A763374696E356F776334 CALLDATALOAD PUSH13 0x6763746B6471763734686A6173 CALLVALUE PUSH7 0x79746F6F6B7461 PUSH9 0x747470733A2F2F6761 PUSH21 0x657761792E70696E6174612E636C6F75642F697066 PUSH20 0x2F6261666B7265696832666D7875336179736372 CALLDATACOPY PUSH25 0x657A3275326173686177696663336F6A34716132366A353663 PUSH9 0x343676657A377A7961 PUSH6 0x6A3468747470 PUSH20 0x3A2F2F676174657761792E70696E6174612E636C PUSH16 0x75642F697066732F6261667962656965 PUSH21 0x626635716F7372796271676B7132636434637A7636 CALLDATASIZE PUSH5 0x7777367374 CALLVALUE PUSH24 0x6A35786C6F7A6534656E6232643578796A36706DA2646970 PUSH7 0x7358221220A052 NOT 0xBE 0xAD 0x21 DIV 0xB1 TSTORE 0x24 SWAP1 0xC2 SELFDESTRUCT 0xAE CALLDATALOAD PUSH15 0xB90C684B7D1CA34F45C4B4A4F1A1E5 MUL PUSH5 0x736F6C6343 STOP ADDMOD 0x1E STOP CALLER "
		},
		"gasEstimates": {
			"creation": {
				"codeDepositCost": "2124200",
				"executionCost": "infinite",
				"totalCost": "infinite"
			},
			"external": {
				"birds(uint256)": "infinite",
				"feedBird(uint256,uint256)": "infinite",
				"getAliveBirdCount()": "infinite",
				"getAliveBySpecies(uint8)": "infinite",
				"getBird(uint256)": "infinite",
				"getBirdImage(uint256)": "infinite",
				"getDeadBirdCount()": "infinite",
				"getDeadBySpecies(uint8)": "infinite",
				"getTotalBirdCount()": "2520",
				"healBird(uint256)": "32475",
				"insure(uint256)": "26935",
				"insured(uint256)": "2809",
				"mintBird(uint8)": "infinite",
				"nextId()": "2514",
				"ownerOf(uint256)": "2938",
				"parkContract()": "2553",
				"revive(uint256)": "88923",
				"setParkContract(address)": "26951",
				"transferBird(uint256,address)": "29498",
				"updateHungerAndAge(uint256)": "infinite"
			},
			"internal": {
				"randomPoisoning(uint256)": "infinite"
			}
		},
		"methodIdentifiers": {
			"birds(uint256)": "ec1c5955",
			"feedBird(uint256,uint256)": "1942d199",
			"getAliveBirdCount()": "1a3c4034",
			"getAliveBySpecies(uint8)": "21c0dd5a",
			"getBird(uint256)": "6ec88bbd",
			"getBirdImage(uint256)": "f64ff064",
			"getDeadBirdCount()": "3127522e",
			"getDeadBySpecies(uint8)": "a5d84618",
			"getTotalBirdCount()": "f06abb80",
			"healBird(uint256)": "bff998f4",
			"insure(uint256)": "49b1a0bf",
			"insured(uint256)": "16cb4a05",
			"mintBird(uint8)": "4d2d7881",
			"nextId()": "61b8ce8c",
			"ownerOf(uint256)": "6352211e",
			"parkContract()": "72680a77",
			"revive(uint256)": "8baecc21",
			"setParkContract(address)": "4e9c7df8",
			"transferBird(uint256,address)": "8c652f95",
			"updateHungerAndAge(uint256)": "a2b7ce6f"
		}
	},
	"abi": [
		{
			"inputs": [
				{
					"internalType": "address",
					"name": "_parkContract",
					"type": "address"
				}
			],
			"stateMutability": "nonpayable",
			"type": "constructor"
		},
		{
			"inputs": [
				{
					"internalType": "uint256",
					"name": "",
					"type": "uint256"
				}
			],
			"name": "birds",
			"outputs": [
				{
					"internalType": "bool",
					"name": "exists",
					"type": "bool"
				},
				{
					"internalType": "uint256",
					"name": "age",
					"type": "uint256"
				},
				{
					"internalType": "uint256",
					"name": "hunger",
					"type": "uint256"
				},
				{
					"internalType": "uint256",
					"name": "health",
					"type": "uint256"
				},
				{
					"internalType": "enum SpeciesLibrary.Species",
					"name": "species",
					"type": "uint8"
				},
				{
					"internalType": "uint256",
					"name": "lastUpdateTime",
					"type": "uint256"
				},
				{
					"internalType": "bool",
					"name": "isDead",
					"type": "bool"
				},
				{
					"internalType": "uint256",
					"name": "deathTimestamp",
					"type": "uint256"
				}
			],
			"stateMutability": "view",
			"type": "function"
		},
		{
			"inputs": [
				{
					"internalType": "uint256",
					"name": "id",
					"type": "uint256"
				},
				{
					"internalType": "uint256",
					"name": "foodAmount",
					"type": "uint256"
				}
			],
			"name": "feedBird",
			"outputs": [],
			"stateMutability": "nonpayable",
			"type": "function"
		},
		{
			"inputs": [],
			"name": "getAliveBirdCount",
			"outputs": [
				{
					"internalType": "uint256",
					"name": "count",
					"type": "uint256"
				}
			],
			"stateMutability": "view",
			"type": "function"
		},
		{
			"inputs": [
				{
					"internalType": "enum SpeciesLibrary.Species",
					"name": "species",
					"type": "uint8"
				}
			],
			"name": "getAliveBySpecies",
			"outputs": [
				{
					"internalType": "uint256",
					"name": "count",
					"type": "uint256"
				}
			],
			"stateMutability": "view",
			"type": "function"
		},
		{
			"inputs": [
				{
					"internalType": "uint256",
					"name": "id",
					"type": "uint256"
				}
			],
			"name": "getBird",
			"outputs": [
				{
					"components": [
						{
							"internalType": "bool",
							"name": "exists",
							"type": "bool"
						},
						{
							"internalType": "uint256",
							"name": "age",
							"type": "uint256"
						},
						{
							"internalType": "uint256",
							"name": "hunger",
							"type": "uint256"
						},
						{
							"internalType": "uint256",
							"name": "health",
							"type": "uint256"
						},
						{
							"internalType": "enum SpeciesLibrary.Species",
							"name": "species",
							"type": "uint8"
						},
						{
							"internalType": "uint256",
							"name": "lastUpdateTime",
							"type": "uint256"
						},
						{
							"internalType": "bool",
							"name": "isDead",
							"type": "bool"
						},
						{
							"internalType": "uint256",
							"name": "deathTimestamp",
							"type": "uint256"
						}
					],
					"internalType": "struct Ptak.BirdData",
					"name": "",
					"type": "tuple"
				}
			],
			"stateMutability": "nonpayable",
			"type": "function"
		},
		{
			"inputs": [
				{
					"internalType": "uint256",
					"name": "birdId",
					"type": "uint256"
				}
			],
			"name": "getBirdImage",
			"outputs": [
				{
					"internalType": "string",
					"name": "",
					"type": "string"
				}
			],
			"stateMutability": "view",
			"type": "function"
		},
		{
			"inputs": [],
			"name": "getDeadBirdCount",
			"outputs": [
				{
					"internalType": "uint256",
					"name": "count",
					"type": "uint256"
				}
			],
			"stateMutability": "view",
			"type": "function"
		},
		{
			"inputs": [
				{
					"internalType": "enum SpeciesLibrary.Species",
					"name": "species",
					"type": "uint8"
				}
			],
			"name": "getDeadBySpecies",
			"outputs": [
				{
					"internalType": "uint256",
					"name": "count",
					"type": "uint256"
				}
			],
			"stateMutability": "view",
			"type": "function"
		},
		{
			"inputs": [],
			"name": "getTotalBirdCount",
			"outputs": [
				{
					"internalType": "uint256",
					"name": "",
					"type": "uint256"
				}
			],
			"stateMutability": "view",
			"type": "function"
		},
		{
			"inputs": [
				{
					"internalType": "uint256",
					"name": "birdId",
					"type": "uint256"
				}
			],
			"name": "healBird",
			"outputs": [],
			"stateMutability": "nonpayable",
			"type": "function"
		},
		{
			"inputs": [
				{
					"internalType": "uint256",
					"name": "birdId",
					"type": "uint256"
				}
			],
			"name": "insure",
			"outputs": [],
			"stateMutability": "nonpayable",
			"type": "function"
		},
		{
			"inputs": [
				{
					"internalType": "uint256",
					"name": "",
					"type": "uint256"
				}
			],
			"name": "insured",
			"outputs": [
				{
					"internalType": "bool",
					"name": "",
					"type": "bool"
				}
			],
			"stateMutability": "view",
			"type": "function"
		},
		{
			"inputs": [
				{
					"internalType": "enum SpeciesLibrary.Species",
					"name": "species",
					"type": "uint8"
				}
			],
			"name": "mintBird",
			"outputs": [
				{
					"internalType": "uint256",
					"name": "",
					"type": "uint256"
				}
			],
			"stateMutability": "nonpayable",
			"type": "function"
		},
		{
			"inputs": [],
			"name": "nextId",
			"outputs": [
				{
					"internalType": "uint256",
					"name": "",
					"type": "uint256"
				}
			],
			"stateMutability": "view",
			"type": "function"
		},
		{
			"inputs": [
				{
					"internalType": "uint256",
					"name": "",
					"type": "uint256"
				}
			],
			"name": "ownerOf",
			"outputs": [
				{
					"internalType": "address",
					"name": "",
					"type": "address"
				}
			],
			"stateMutability": "view",
			"type": "function"
		},
		{
			"inputs": [],
			"name": "parkContract",
			"outputs": [
				{
					"internalType": "address",
					"name": "",
					"type": "address"
				}
			],
			"stateMutability": "view",
			"type": "function"
		},
		{
			"inputs": [
				{
					"internalType": "uint256",
					"name": "birdId",
					"type": "uint256"
				}
			],
			"name": "revive",
			"outputs": [],
			"stateMutability": "nonpayable",
			"type": "function"
		},
		{
			"inputs": [
				{
					"internalType": "address",
					"name": "_parkContract",
					"type": "address"
				}
			],
			"name": "setParkContract",
			"outputs": [],
			"stateMutability": "nonpayable",
			"type": "function"
		},
		{
			"inputs": [
				{
					"internalType": "uint256",
					"name": "birdId",
					"type": "uint256"
				},
				{
					"internalType": "address",
					"name": "newOwner",
					"type": "address"
				}
			],
			"name": "transferBird",
			"outputs": [],
			"stateMutability": "nonpayable",
			"type": "function"
		},
		{
			"inputs": [
				{
					"internalType": "uint256",
					"name": "id",
					"type": "uint256"
				}
			],
			"name": "updateHungerAndAge",
			"outputs": [],
			"stateMutability": "nonpayable",
			"type": "function"
		}
	]
}